{
	"contracts/ValidatorDepositContract.sol": {
		"ValidatorDepositContract": {
			"abi": [
				{
					"inputs": [],
					"stateMutability": "nonpayable",
					"type": "constructor"
				},
				{
					"anonymous": false,
					"inputs": [
						{
							"indexed": true,
							"internalType": "address",
							"name": "previousOwner",
							"type": "address"
						},
						{
							"indexed": true,
							"internalType": "address",
							"name": "newOwner",
							"type": "address"
						}
					],
					"name": "OwnershipTransferred",
					"type": "event"
				},
				{
					"anonymous": false,
					"inputs": [
						{
							"indexed": false,
							"internalType": "address",
							"name": "account",
							"type": "address"
						}
					],
					"name": "Paused",
					"type": "event"
				},
				{
					"anonymous": false,
					"inputs": [
						{
							"indexed": false,
							"internalType": "address",
							"name": "account",
							"type": "address"
						}
					],
					"name": "Unpaused",
					"type": "event"
				},
				{
					"inputs": [
						{
							"internalType": "uint256",
							"name": "",
							"type": "uint256"
						}
					],
					"name": "allValidatorNodes",
					"outputs": [
						{
							"internalType": "address",
							"name": "",
							"type": "address"
						}
					],
					"stateMutability": "view",
					"type": "function"
				},
				{
					"inputs": [
						{
							"internalType": "address",
							"name": "validatorNodeAddress",
							"type": "address"
						}
					],
					"name": "deleteValidatorNode",
					"outputs": [],
					"stateMutability": "nonpayable",
					"type": "function"
				},
				{
					"inputs": [],
					"name": "deposit",
					"outputs": [],
					"stateMutability": "payable",
					"type": "function"
				},
				{
					"inputs": [
						{
							"internalType": "address",
							"name": "",
							"type": "address"
						}
					],
					"name": "depositedBalances",
					"outputs": [
						{
							"internalType": "uint256",
							"name": "",
							"type": "uint256"
						}
					],
					"stateMutability": "view",
					"type": "function"
				},
				{
					"inputs": [],
					"name": "edxAccount",
					"outputs": [
						{
							"internalType": "address",
							"name": "",
							"type": "address"
						}
					],
					"stateMutability": "view",
					"type": "function"
				},
				{
					"inputs": [],
					"name": "fetchAllValidatorNodeDetails",
					"outputs": [
						{
							"internalType": "address[]",
							"name": "",
							"type": "address[]"
						},
						{
							"internalType": "address[]",
							"name": "",
							"type": "address[]"
						},
						{
							"internalType": "uint256[]",
							"name": "",
							"type": "uint256[]"
						},
						{
							"internalType": "uint256[]",
							"name": "",
							"type": "uint256[]"
						}
					],
					"stateMutability": "view",
					"type": "function"
				},
				{
					"inputs": [
						{
							"internalType": "address",
							"name": "validatorNodeAddress",
							"type": "address"
						}
					],
					"name": "getValidatorNodeDetails",
					"outputs": [
						{
							"internalType": "address",
							"name": "",
							"type": "address"
						},
						{
							"internalType": "uint256",
							"name": "",
							"type": "uint256"
						},
						{
							"internalType": "uint256",
							"name": "",
							"type": "uint256"
						}
					],
					"stateMutability": "view",
					"type": "function"
				},
				{
					"inputs": [
						{
							"internalType": "address",
							"name": "validatorNodeAddress",
							"type": "address"
						},
						{
							"internalType": "address",
							"name": "validatorAccountAddress",
							"type": "address"
						}
					],
					"name": "linkValidatorNode",
					"outputs": [],
					"stateMutability": "nonpayable",
					"type": "function"
				},
				{
					"inputs": [],
					"name": "owner",
					"outputs": [
						{
							"internalType": "address",
							"name": "",
							"type": "address"
						}
					],
					"stateMutability": "view",
					"type": "function"
				},
				{
					"inputs": [],
					"name": "pauseContract",
					"outputs": [],
					"stateMutability": "nonpayable",
					"type": "function"
				},
				{
					"inputs": [],
					"name": "paused",
					"outputs": [
						{
							"internalType": "bool",
							"name": "",
							"type": "bool"
						}
					],
					"stateMutability": "view",
					"type": "function"
				},
				{
					"inputs": [],
					"name": "renounceOwnership",
					"outputs": [],
					"stateMutability": "nonpayable",
					"type": "function"
				},
				{
					"inputs": [
						{
							"internalType": "address",
							"name": "_account",
							"type": "address"
						}
					],
					"name": "setEdxAccount",
					"outputs": [],
					"stateMutability": "nonpayable",
					"type": "function"
				},
				{
					"inputs": [
						{
							"internalType": "uint256",
							"name": "_feePercentage",
							"type": "uint256"
						}
					],
					"name": "setWithdrawalFeePercentage",
					"outputs": [],
					"stateMutability": "nonpayable",
					"type": "function"
				},
				{
					"inputs": [
						{
							"internalType": "address",
							"name": "",
							"type": "address"
						}
					],
					"name": "totalDepositedAmount",
					"outputs": [
						{
							"internalType": "uint256",
							"name": "",
							"type": "uint256"
						}
					],
					"stateMutability": "view",
					"type": "function"
				},
				{
					"inputs": [
						{
							"internalType": "address",
							"name": "newOwner",
							"type": "address"
						}
					],
					"name": "transferOwnership",
					"outputs": [],
					"stateMutability": "nonpayable",
					"type": "function"
				},
				{
					"inputs": [],
					"name": "unpauseContract",
					"outputs": [],
					"stateMutability": "nonpayable",
					"type": "function"
				},
				{
					"inputs": [
						{
							"internalType": "address",
							"name": "",
							"type": "address"
						}
					],
					"name": "validatorNodeToAccount",
					"outputs": [
						{
							"internalType": "address",
							"name": "",
							"type": "address"
						}
					],
					"stateMutability": "view",
					"type": "function"
				},
				{
					"inputs": [],
					"name": "withdraw",
					"outputs": [],
					"stateMutability": "nonpayable",
					"type": "function"
				},
				{
					"inputs": [],
					"name": "withdrawalFeePercentage",
					"outputs": [
						{
							"internalType": "uint256",
							"name": "",
							"type": "uint256"
						}
					],
					"stateMutability": "view",
					"type": "function"
				}
			],
			"devdoc": {
				"events": {
					"Paused(address)": {
						"details": "Emitted when the pause is triggered by `account`."
					},
					"Unpaused(address)": {
						"details": "Emitted when the pause is lifted by `account`."
					}
				},
				"kind": "dev",
				"methods": {
					"owner()": {
						"details": "Returns the address of the current owner."
					},
					"paused()": {
						"details": "Returns true if the contract is paused, and false otherwise."
					},
					"renounceOwnership()": {
						"details": "Leaves the contract without owner. It will not be possible to call `onlyOwner` functions. Can only be called by the current owner. NOTE: Renouncing ownership will leave the contract without an owner, thereby disabling any functionality that is only available to the owner."
					},
					"transferOwnership(address)": {
						"details": "Transfers ownership of the contract to a new account (`newOwner`). Can only be called by the current owner."
					}
				},
				"version": 1
			},
			"evm": {
				"assembly": "    /* \"contracts/ValidatorDepositContract.sol\":231:7085  contract ValidatorDepositContract is ReentrancyGuard, Ownable, Pausable {... */\n  mstore(0x40, 0x80)\n    /* \"contracts/ValidatorDepositContract.sol\":877:879  10 */\n  0x0a\n    /* \"contracts/ValidatorDepositContract.sol\":836:879  uint256 public withdrawalFeePercentage = 10 */\n  0x06\n  sstore\n    /* \"contracts/ValidatorDepositContract.sol\":943:944  0 */\n  0x00\n    /* \"contracts/ValidatorDepositContract.sol\":907:945  address public edxAccount = address(0) */\n  0x07\n  exp(0x0100, 0x00)\n  dup2\n  sload\n  dup2\n  0xffffffffffffffffffffffffffffffffffffffff\n  mul\n  not\n  and\n  swap1\n  dup4\n  0xffffffffffffffffffffffffffffffffffffffff\n  and\n  mul\n  or\n  swap1\n  sstore\n  pop\n    /* \"contracts/ValidatorDepositContract.sol\":978:1004  constructor() Ownable() {} */\n  callvalue\n  dup1\n  iszero\n  tag_1\n  jumpi\n  0x00\n  dup1\n  revert\ntag_1:\n  pop\n    /* \"@openzeppelin/contracts/security/ReentrancyGuard.sol\":1716:1717  1 */\n  0x01\n    /* \"@openzeppelin/contracts/security/ReentrancyGuard.sol\":1821:1828  _status */\n  0x00\n    /* \"@openzeppelin/contracts/security/ReentrancyGuard.sol\":1821:1843  _status = _NOT_ENTERED */\n  dup2\n  swap1\n  sstore\n  pop\n    /* \"@openzeppelin/contracts/access/Ownable.sol\":936:968  _transferOwnership(_msgSender()) */\n  tag_8\n    /* \"@openzeppelin/contracts/access/Ownable.sol\":955:967  _msgSender() */\n  tag_9\n    /* \"@openzeppelin/contracts/access/Ownable.sol\":955:965  _msgSender */\n  shl(0x20, tag_10)\n    /* \"@openzeppelin/contracts/access/Ownable.sol\":955:967  _msgSender() */\n  0x20\n  shr\n  jump\t// in\ntag_9:\n    /* \"@openzeppelin/contracts/access/Ownable.sol\":936:954  _transferOwnership */\n  shl(0x20, tag_11)\n    /* \"@openzeppelin/contracts/access/Ownable.sol\":936:968  _transferOwnership(_msgSender()) */\n  0x20\n  shr\n  jump\t// in\ntag_8:\n    /* \"@openzeppelin/contracts/security/Pausable.sol\":1006:1011  false */\n  0x00\n    /* \"@openzeppelin/contracts/security/Pausable.sol\":996:1003  _paused */\n  0x01\n  0x14\n    /* \"@openzeppelin/contracts/security/Pausable.sol\":996:1011  _paused = false */\n  0x0100\n  exp\n  dup2\n  sload\n  dup2\n  0xff\n  mul\n  not\n  and\n  swap1\n  dup4\n  iszero\n  iszero\n  mul\n  or\n  swap1\n  sstore\n  pop\n    /* \"contracts/ValidatorDepositContract.sol\":231:7085  contract ValidatorDepositContract is ReentrancyGuard, Ownable, Pausable {... */\n  jump(tag_14)\n    /* \"@openzeppelin/contracts/utils/Context.sol\":640:736  function _msgSender() internal view virtual returns (address) {... */\ntag_10:\n    /* \"@openzeppelin/contracts/utils/Context.sol\":693:700  address */\n  0x00\n    /* \"@openzeppelin/contracts/utils/Context.sol\":719:729  msg.sender */\n  caller\n    /* \"@openzeppelin/contracts/utils/Context.sol\":712:729  return msg.sender */\n  swap1\n  pop\n    /* \"@openzeppelin/contracts/utils/Context.sol\":640:736  function _msgSender() internal view virtual returns (address) {... */\n  swap1\n  jump\t// out\n    /* \"@openzeppelin/contracts/access/Ownable.sol\":2426:2613  function _transferOwnership(address newOwner) internal virtual {... */\ntag_11:\n    /* \"@openzeppelin/contracts/access/Ownable.sol\":2499:2515  address oldOwner */\n  0x00\n    /* \"@openzeppelin/contracts/access/Ownable.sol\":2518:2524  _owner */\n  0x01\n  0x00\n  swap1\n  sload\n  swap1\n  0x0100\n  exp\n  swap1\n  div\n  0xffffffffffffffffffffffffffffffffffffffff\n  and\n    /* \"@openzeppelin/contracts/access/Ownable.sol\":2499:2524  address oldOwner = _owner */\n  swap1\n  pop\n    /* \"@openzeppelin/contracts/access/Ownable.sol\":2543:2551  newOwner */\n  dup2\n    /* \"@openzeppelin/contracts/access/Ownable.sol\":2534:2540  _owner */\n  0x01\n  0x00\n    /* \"@openzeppelin/contracts/access/Ownable.sol\":2534:2551  _owner = newOwner */\n  0x0100\n  exp\n  dup2\n  sload\n  dup2\n  0xffffffffffffffffffffffffffffffffffffffff\n  mul\n  not\n  and\n  swap1\n  dup4\n  0xffffffffffffffffffffffffffffffffffffffff\n  and\n  mul\n  or\n  swap1\n  sstore\n  pop\n    /* \"@openzeppelin/contracts/access/Ownable.sol\":2597:2605  newOwner */\n  dup2\n    /* \"@openzeppelin/contracts/access/Ownable.sol\":2566:2606  OwnershipTransferred(oldOwner, newOwner) */\n  0xffffffffffffffffffffffffffffffffffffffff\n  and\n    /* \"@openzeppelin/contracts/access/Ownable.sol\":2587:2595  oldOwner */\n  dup2\n    /* \"@openzeppelin/contracts/access/Ownable.sol\":2566:2606  OwnershipTransferred(oldOwner, newOwner) */\n  0xffffffffffffffffffffffffffffffffffffffff\n  and\n  0x8be0079c531659141344cd1fd0a4f28419497f9722a3daafe3b4186f6b6457e0\n  mload(0x40)\n  mload(0x40)\n  dup1\n  swap2\n  sub\n  swap1\n  log3\n    /* \"@openzeppelin/contracts/access/Ownable.sol\":2489:2613  {... */\n  pop\n    /* \"@openzeppelin/contracts/access/Ownable.sol\":2426:2613  function _transferOwnership(address newOwner) internal virtual {... */\n  pop\n  jump\t// out\n    /* \"contracts/ValidatorDepositContract.sol\":231:7085  contract ValidatorDepositContract is ReentrancyGuard, Ownable, Pausable {... */\ntag_14:\n  dataSize(sub_0)\n  dup1\n  dataOffset(sub_0)\n  0x00\n  codecopy\n  0x00\n  return\nstop\n\nsub_0: assembly {\n        /* \"contracts/ValidatorDepositContract.sol\":231:7085  contract ValidatorDepositContract is ReentrancyGuard, Ownable, Pausable {... */\n      mstore(0x40, 0x80)\n      jumpi(tag_1, lt(calldatasize, 0x04))\n      shr(0xe0, calldataload(0x00))\n      dup1\n      0x78922c8f\n      gt\n      tag_22\n      jumpi\n      dup1\n      0xb33712c5\n      gt\n      tag_23\n      jumpi\n      dup1\n      0xb33712c5\n      eq\n      tag_17\n      jumpi\n      dup1\n      0xb5e1302e\n      eq\n      tag_18\n      jumpi\n      dup1\n      0xbb0a43bc\n      eq\n      tag_19\n      jumpi\n      dup1\n      0xd0e30db0\n      eq\n      tag_20\n      jumpi\n      dup1\n      0xf2fde38b\n      eq\n      tag_21\n      jumpi\n      jump(tag_1)\n    tag_23:\n      dup1\n      0x78922c8f\n      eq\n      tag_12\n      jumpi\n      dup1\n      0x7d995311\n      eq\n      tag_13\n      jumpi\n      dup1\n      0x7da830b4\n      eq\n      tag_14\n      jumpi\n      dup1\n      0x8da5cb5b\n      eq\n      tag_15\n      jumpi\n      dup1\n      0xa7d77ce5\n      eq\n      tag_16\n      jumpi\n      jump(tag_1)\n    tag_22:\n      dup1\n      0x439766ce\n      gt\n      tag_24\n      jumpi\n      dup1\n      0x439766ce\n      eq\n      tag_7\n      jumpi\n      dup1\n      0x5c975abb\n      eq\n      tag_8\n      jumpi\n      dup1\n      0x5fb0ea90\n      eq\n      tag_9\n      jumpi\n      dup1\n      0x6ca6d88e\n      eq\n      tag_10\n      jumpi\n      dup1\n      0x715018a6\n      eq\n      tag_11\n      jumpi\n      jump(tag_1)\n    tag_24:\n      dup1\n      0x03a2c9e2\n      eq\n      tag_2\n      jumpi\n      dup1\n      0x22df93ba\n      eq\n      tag_3\n      jumpi\n      dup1\n      0x33deea05\n      eq\n      tag_4\n      jumpi\n      dup1\n      0x3ccfd60b\n      eq\n      tag_5\n      jumpi\n      dup1\n      0x3ed0eee4\n      eq\n      tag_6\n      jumpi\n    tag_1:\n      0x00\n      dup1\n      revert\n        /* \"contracts/ValidatorDepositContract.sol\":3025:4356  function deleteValidatorNode(address validatorNodeAddress) external onlyOwner {... */\n    tag_2:\n      callvalue\n      dup1\n      iszero\n      tag_25\n      jumpi\n      0x00\n      dup1\n      revert\n    tag_25:\n      pop\n      tag_26\n      0x04\n      dup1\n      calldatasize\n      sub\n      dup2\n      add\n      swap1\n      tag_27\n      swap2\n      swap1\n      tag_28\n      jump\t// in\n    tag_27:\n      tag_29\n      jump\t// in\n    tag_26:\n      stop\n        /* \"contracts/ValidatorDepositContract.sol\":2567:2976  function linkValidatorNode(address validatorNodeAddress, address validatorAccountAddress) external onlyOwner{... */\n    tag_3:\n      callvalue\n      dup1\n      iszero\n      tag_30\n      jumpi\n      0x00\n      dup1\n      revert\n    tag_30:\n      pop\n      tag_31\n      0x04\n      dup1\n      calldatasize\n      sub\n      dup2\n      add\n      swap1\n      tag_32\n      swap2\n      swap1\n      tag_33\n      jump\t// in\n    tag_32:\n      tag_34\n      jump\t// in\n    tag_31:\n      stop\n        /* \"contracts/ValidatorDepositContract.sol\":907:945  address public edxAccount = address(0) */\n    tag_4:\n      callvalue\n      dup1\n      iszero\n      tag_35\n      jumpi\n      0x00\n      dup1\n      revert\n    tag_35:\n      pop\n      tag_36\n      tag_37\n      jump\t// in\n    tag_36:\n      mload(0x40)\n      tag_38\n      swap2\n      swap1\n      tag_39\n      jump\t// in\n    tag_38:\n      mload(0x40)\n      dup1\n      swap2\n      sub\n      swap1\n      return\n        /* \"contracts/ValidatorDepositContract.sol\":1816:2467  function withdraw() external nonReentrant whenNotPaused{... */\n    tag_5:\n      callvalue\n      dup1\n      iszero\n      tag_40\n      jumpi\n      0x00\n      dup1\n      revert\n    tag_40:\n      pop\n      tag_41\n      tag_42\n      jump\t// in\n    tag_41:\n      stop\n        /* \"contracts/ValidatorDepositContract.sol\":5161:5584  function getValidatorNodeDetails(address validatorNodeAddress) external view returns (address, uint256, uint256) {... */\n    tag_6:\n      callvalue\n      dup1\n      iszero\n      tag_43\n      jumpi\n      0x00\n      dup1\n      revert\n    tag_43:\n      pop\n      tag_44\n      0x04\n      dup1\n      calldatasize\n      sub\n      dup2\n      add\n      swap1\n      tag_45\n      swap2\n      swap1\n      tag_28\n      jump\t// in\n    tag_45:\n      tag_46\n      jump\t// in\n    tag_44:\n      mload(0x40)\n      tag_47\n      swap4\n      swap3\n      swap2\n      swap1\n      tag_48\n      jump\t// in\n    tag_47:\n      mload(0x40)\n      dup1\n      swap2\n      sub\n      swap1\n      return\n        /* \"contracts/ValidatorDepositContract.sol\":4877:4946  function pauseContract() external onlyOwner {... */\n    tag_7:\n      callvalue\n      dup1\n      iszero\n      tag_49\n      jumpi\n      0x00\n      dup1\n      revert\n    tag_49:\n      pop\n      tag_50\n      tag_51\n      jump\t// in\n    tag_50:\n      stop\n        /* \"@openzeppelin/contracts/security/Pausable.sol\":1615:1699  function paused() public view virtual returns (bool) {... */\n    tag_8:\n      callvalue\n      dup1\n      iszero\n      tag_52\n      jumpi\n      0x00\n      dup1\n      revert\n    tag_52:\n      pop\n      tag_53\n      tag_54\n      jump\t// in\n    tag_53:\n      mload(0x40)\n      tag_55\n      swap2\n      swap1\n      tag_56\n      jump\t// in\n    tag_55:\n      mload(0x40)\n      dup1\n      swap2\n      sub\n      swap1\n      return\n        /* \"contracts/ValidatorDepositContract.sol\":4428:4641  function setWithdrawalFeePercentage(uint256 _feePercentage) external onlyOwner {... */\n    tag_9:\n      callvalue\n      dup1\n      iszero\n      tag_57\n      jumpi\n      0x00\n      dup1\n      revert\n    tag_57:\n      pop\n      tag_58\n      0x04\n      dup1\n      calldatasize\n      sub\n      dup2\n      add\n      swap1\n      tag_59\n      swap2\n      swap1\n      tag_60\n      jump\t// in\n    tag_59:\n      tag_61\n      jump\t// in\n    tag_58:\n      stop\n        /* \"contracts/ValidatorDepositContract.sol\":5646:6756  function fetchAllValidatorNodeDetails() external view returns (address[] memory, address[] memory, uint256[] memory, uint256[] memory) {... */\n    tag_10:\n      callvalue\n      dup1\n      iszero\n      tag_62\n      jumpi\n      0x00\n      dup1\n      revert\n    tag_62:\n      pop\n      tag_63\n      tag_64\n      jump\t// in\n    tag_63:\n      mload(0x40)\n      tag_65\n      swap5\n      swap4\n      swap3\n      swap2\n      swap1\n      tag_66\n      jump\t// in\n    tag_65:\n      mload(0x40)\n      dup1\n      swap2\n      sub\n      swap1\n      return\n        /* \"@openzeppelin/contracts/access/Ownable.sol\":1824:1925  function renounceOwnership() public virtual onlyOwner {... */\n    tag_11:\n      callvalue\n      dup1\n      iszero\n      tag_67\n      jumpi\n      0x00\n      dup1\n      revert\n    tag_67:\n      pop\n      tag_68\n      tag_69\n      jump\t// in\n    tag_68:\n      stop\n        /* \"contracts/ValidatorDepositContract.sol\":836:879  uint256 public withdrawalFeePercentage = 10 */\n    tag_12:\n      callvalue\n      dup1\n      iszero\n      tag_70\n      jumpi\n      0x00\n      dup1\n      revert\n    tag_70:\n      pop\n      tag_71\n      tag_72\n      jump\t// in\n    tag_71:\n      mload(0x40)\n      tag_73\n      swap2\n      swap1\n      tag_74\n      jump\t// in\n    tag_73:\n      mload(0x40)\n      dup1\n      swap2\n      sub\n      swap1\n      return\n        /* \"contracts/ValidatorDepositContract.sol\":548:600  mapping(address => uint256) public depositedBalances */\n    tag_13:\n      callvalue\n      dup1\n      iszero\n      tag_75\n      jumpi\n      0x00\n      dup1\n      revert\n    tag_75:\n      pop\n      tag_76\n      0x04\n      dup1\n      calldatasize\n      sub\n      dup2\n      add\n      swap1\n      tag_77\n      swap2\n      swap1\n      tag_28\n      jump\t// in\n    tag_77:\n      tag_78\n      jump\t// in\n    tag_76:\n      mload(0x40)\n      tag_79\n      swap2\n      swap1\n      tag_74\n      jump\t// in\n    tag_79:\n      mload(0x40)\n      dup1\n      swap2\n      sub\n      swap1\n      return\n        /* \"contracts/ValidatorDepositContract.sol\":682:737  mapping(address => uint256) public totalDepositedAmount */\n    tag_14:\n      callvalue\n      dup1\n      iszero\n      tag_80\n      jumpi\n      0x00\n      dup1\n      revert\n    tag_80:\n      pop\n      tag_81\n      0x04\n      dup1\n      calldatasize\n      sub\n      dup2\n      add\n      swap1\n      tag_82\n      swap2\n      swap1\n      tag_28\n      jump\t// in\n    tag_82:\n      tag_83\n      jump\t// in\n    tag_81:\n      mload(0x40)\n      tag_84\n      swap2\n      swap1\n      tag_74\n      jump\t// in\n    tag_84:\n      mload(0x40)\n      dup1\n      swap2\n      sub\n      swap1\n      return\n        /* \"@openzeppelin/contracts/access/Ownable.sol\":1201:1286  function owner() public view virtual returns (address) {... */\n    tag_15:\n      callvalue\n      dup1\n      iszero\n      tag_85\n      jumpi\n      0x00\n      dup1\n      revert\n    tag_85:\n      pop\n      tag_86\n      tag_87\n      jump\t// in\n    tag_86:\n      mload(0x40)\n      tag_88\n      swap2\n      swap1\n      tag_39\n      jump\t// in\n    tag_88:\n      mload(0x40)\n      dup1\n      swap2\n      sub\n      swap1\n      return\n        /* \"contracts/ValidatorDepositContract.sol\":4706:4804  function setEdxAccount(address _account) external onlyOwner {... */\n    tag_16:\n      callvalue\n      dup1\n      iszero\n      tag_89\n      jumpi\n      0x00\n      dup1\n      revert\n    tag_89:\n      pop\n      tag_90\n      0x04\n      dup1\n      calldatasize\n      sub\n      dup2\n      add\n      swap1\n      tag_91\n      swap2\n      swap1\n      tag_28\n      jump\t// in\n    tag_91:\n      tag_92\n      jump\t// in\n    tag_90:\n      stop\n        /* \"contracts/ValidatorDepositContract.sol\":5021:5093  function unpauseContract() external onlyOwner {... */\n    tag_17:\n      callvalue\n      dup1\n      iszero\n      tag_93\n      jumpi\n      0x00\n      dup1\n      revert\n    tag_93:\n      pop\n      tag_94\n      tag_95\n      jump\t// in\n    tag_94:\n      stop\n        /* \"contracts/ValidatorDepositContract.sol\":406:463  mapping(address => address) public validatorNodeToAccount */\n    tag_18:\n      callvalue\n      dup1\n      iszero\n      tag_96\n      jumpi\n      0x00\n      dup1\n      revert\n    tag_96:\n      pop\n      tag_97\n      0x04\n      dup1\n      calldatasize\n      sub\n      dup2\n      add\n      swap1\n      tag_98\n      swap2\n      swap1\n      tag_28\n      jump\t// in\n    tag_98:\n      tag_99\n      jump\t// in\n    tag_97:\n      mload(0x40)\n      tag_100\n      swap2\n      swap1\n      tag_39\n      jump\t// in\n    tag_100:\n      mload(0x40)\n      dup1\n      swap2\n      sub\n      swap1\n      return\n        /* \"contracts/ValidatorDepositContract.sol\":795:829  address[] public allValidatorNodes */\n    tag_19:\n      callvalue\n      dup1\n      iszero\n      tag_101\n      jumpi\n      0x00\n      dup1\n      revert\n    tag_101:\n      pop\n      tag_102\n      0x04\n      dup1\n      calldatasize\n      sub\n      dup2\n      add\n      swap1\n      tag_103\n      swap2\n      swap1\n      tag_60\n      jump\t// in\n    tag_103:\n      tag_104\n      jump\t// in\n    tag_102:\n      mload(0x40)\n      tag_105\n      swap2\n      swap1\n      tag_39\n      jump\t// in\n    tag_105:\n      mload(0x40)\n      dup1\n      swap2\n      sub\n      swap1\n      return\n        /* \"contracts/ValidatorDepositContract.sol\":1093:1733  function deposit() external payable nonReentrant whenNotPaused {... */\n    tag_20:\n      tag_106\n      tag_107\n      jump\t// in\n    tag_106:\n      stop\n        /* \"@openzeppelin/contracts/access/Ownable.sol\":2074:2272  function transferOwnership(address newOwner) public virtual onlyOwner {... */\n    tag_21:\n      callvalue\n      dup1\n      iszero\n      tag_108\n      jumpi\n      0x00\n      dup1\n      revert\n    tag_108:\n      pop\n      tag_109\n      0x04\n      dup1\n      calldatasize\n      sub\n      dup2\n      add\n      swap1\n      tag_110\n      swap2\n      swap1\n      tag_28\n      jump\t// in\n    tag_110:\n      tag_111\n      jump\t// in\n    tag_109:\n      stop\n        /* \"contracts/ValidatorDepositContract.sol\":3025:4356  function deleteValidatorNode(address validatorNodeAddress) external onlyOwner {... */\n    tag_29:\n        /* \"@openzeppelin/contracts/access/Ownable.sol\":1094:1107  _checkOwner() */\n      tag_113\n        /* \"@openzeppelin/contracts/access/Ownable.sol\":1094:1105  _checkOwner */\n      tag_114\n        /* \"@openzeppelin/contracts/access/Ownable.sol\":1094:1107  _checkOwner() */\n      jump\t// in\n    tag_113:\n        /* \"contracts/ValidatorDepositContract.sol\":3114:3139  address associatedAddress */\n      0x00\n        /* \"contracts/ValidatorDepositContract.sol\":3142:3164  validatorNodeToAccount */\n      0x02\n        /* \"contracts/ValidatorDepositContract.sol\":3142:3186  validatorNodeToAccount[validatorNodeAddress] */\n      0x00\n        /* \"contracts/ValidatorDepositContract.sol\":3165:3185  validatorNodeAddress */\n      dup4\n        /* \"contracts/ValidatorDepositContract.sol\":3142:3186  validatorNodeToAccount[validatorNodeAddress] */\n      0xffffffffffffffffffffffffffffffffffffffff\n      and\n      0xffffffffffffffffffffffffffffffffffffffff\n      and\n      dup2\n      mstore\n      0x20\n      add\n      swap1\n      dup2\n      mstore\n      0x20\n      add\n      0x00\n      keccak256\n      0x00\n      swap1\n      sload\n      swap1\n      0x0100\n      exp\n      swap1\n      div\n      0xffffffffffffffffffffffffffffffffffffffff\n      and\n        /* \"contracts/ValidatorDepositContract.sol\":3114:3186  address associatedAddress = validatorNodeToAccount[validatorNodeAddress] */\n      swap1\n      pop\n        /* \"contracts/ValidatorDepositContract.sol\":3196:3217  uint256 depositAmount */\n      0x00\n        /* \"contracts/ValidatorDepositContract.sol\":3220:3237  depositedBalances */\n      0x03\n        /* \"contracts/ValidatorDepositContract.sol\":3220:3256  depositedBalances[associatedAddress] */\n      0x00\n        /* \"contracts/ValidatorDepositContract.sol\":3238:3255  associatedAddress */\n      dup4\n        /* \"contracts/ValidatorDepositContract.sol\":3220:3256  depositedBalances[associatedAddress] */\n      0xffffffffffffffffffffffffffffffffffffffff\n      and\n      0xffffffffffffffffffffffffffffffffffffffff\n      and\n      dup2\n      mstore\n      0x20\n      add\n      swap1\n      dup2\n      mstore\n      0x20\n      add\n      0x00\n      keccak256\n      sload\n        /* \"contracts/ValidatorDepositContract.sol\":3196:3256  uint256 depositAmount = depositedBalances[associatedAddress] */\n      swap1\n      pop\n        /* \"contracts/ValidatorDepositContract.sol\":3266:3277  uint256 fee */\n      0x00\n        /* \"contracts/ValidatorDepositContract.sol\":3324:3327  100 */\n      0x64\n        /* \"contracts/ValidatorDepositContract.sol\":3297:3320  withdrawalFeePercentage */\n      sload(0x06)\n        /* \"contracts/ValidatorDepositContract.sol\":3281:3294  depositAmount */\n      dup4\n        /* \"contracts/ValidatorDepositContract.sol\":3281:3320  depositAmount * withdrawalFeePercentage */\n      tag_116\n      swap2\n      swap1\n      tag_117\n      jump\t// in\n    tag_116:\n        /* \"contracts/ValidatorDepositContract.sol\":3280:3327  (depositAmount * withdrawalFeePercentage) / 100 */\n      tag_118\n      swap2\n      swap1\n      tag_119\n      jump\t// in\n    tag_118:\n        /* \"contracts/ValidatorDepositContract.sol\":3266:3327  uint256 fee = (depositAmount * withdrawalFeePercentage) / 100 */\n      swap1\n      pop\n        /* \"contracts/ValidatorDepositContract.sol\":3366:3388  uint256 withdrawAmount */\n      0x00\n        /* \"contracts/ValidatorDepositContract.sol\":3407:3410  fee */\n      dup2\n        /* \"contracts/ValidatorDepositContract.sol\":3391:3404  depositAmount */\n      dup4\n        /* \"contracts/ValidatorDepositContract.sol\":3391:3410  depositAmount - fee */\n      tag_120\n      swap2\n      swap1\n      tag_121\n      jump\t// in\n    tag_120:\n        /* \"contracts/ValidatorDepositContract.sol\":3366:3410  uint256 withdrawAmount = depositAmount - fee */\n      swap1\n      pop\n        /* \"contracts/ValidatorDepositContract.sol\":3499:3500  0 */\n      0x00\n        /* \"contracts/ValidatorDepositContract.sol\":3460:3477  depositedBalances */\n      0x03\n        /* \"contracts/ValidatorDepositContract.sol\":3460:3496  depositedBalances[associatedAddress] */\n      0x00\n        /* \"contracts/ValidatorDepositContract.sol\":3478:3495  associatedAddress */\n      dup7\n        /* \"contracts/ValidatorDepositContract.sol\":3460:3496  depositedBalances[associatedAddress] */\n      0xffffffffffffffffffffffffffffffffffffffff\n      and\n      0xffffffffffffffffffffffffffffffffffffffff\n      and\n      dup2\n      mstore\n      0x20\n      add\n      swap1\n      dup2\n      mstore\n      0x20\n      add\n      0x00\n      keccak256\n        /* \"contracts/ValidatorDepositContract.sol\":3460:3500  depositedBalances[associatedAddress] = 0 */\n      dup2\n      swap1\n      sstore\n      pop\n        /* \"contracts/ValidatorDepositContract.sol\":3518:3535  associatedAddress */\n      dup4\n        /* \"contracts/ValidatorDepositContract.sol\":3510:3545  payable(associatedAddress).transfer */\n      0xffffffffffffffffffffffffffffffffffffffff\n      and\n        /* \"contracts/ValidatorDepositContract.sol\":3510:3561  payable(associatedAddress).transfer(withdrawAmount) */\n      0x08fc\n        /* \"contracts/ValidatorDepositContract.sol\":3546:3560  withdrawAmount */\n      dup3\n        /* \"contracts/ValidatorDepositContract.sol\":3510:3561  payable(associatedAddress).transfer(withdrawAmount) */\n      swap1\n      dup2\n      iszero\n      mul\n      swap1\n      mload(0x40)\n      0x00\n      mload(0x40)\n      dup1\n      dup4\n      sub\n      dup2\n      dup6\n      dup9\n      dup9\n      call\n      swap4\n      pop\n      pop\n      pop\n      pop\n      iszero\n      dup1\n      iszero\n      tag_123\n      jumpi\n      returndatasize\n      0x00\n      dup1\n      returndatacopy\n      revert(0x00, returndatasize)\n    tag_123:\n      pop\n        /* \"contracts/ValidatorDepositContract.sol\":3597:3598  0 */\n      0x00\n        /* \"contracts/ValidatorDepositContract.sol\":3575:3599  edxAccount != address(0) */\n      0xffffffffffffffffffffffffffffffffffffffff\n      and\n        /* \"contracts/ValidatorDepositContract.sol\":3575:3585  edxAccount */\n      0x07\n      0x00\n      swap1\n      sload\n      swap1\n      0x0100\n      exp\n      swap1\n      div\n      0xffffffffffffffffffffffffffffffffffffffff\n      and\n        /* \"contracts/ValidatorDepositContract.sol\":3575:3599  edxAccount != address(0) */\n      0xffffffffffffffffffffffffffffffffffffffff\n      and\n      eq\n        /* \"contracts/ValidatorDepositContract.sol\":3571:3700  if (edxAccount != address(0)) {... */\n      tag_124\n      jumpi\n        /* \"contracts/ValidatorDepositContract.sol\":3623:3633  edxAccount */\n      0x07\n      0x00\n      swap1\n      sload\n      swap1\n      0x0100\n      exp\n      swap1\n      div\n      0xffffffffffffffffffffffffffffffffffffffff\n      and\n        /* \"contracts/ValidatorDepositContract.sol\":3615:3643  payable(edxAccount).transfer */\n      0xffffffffffffffffffffffffffffffffffffffff\n      and\n        /* \"contracts/ValidatorDepositContract.sol\":3615:3648  payable(edxAccount).transfer(fee) */\n      0x08fc\n        /* \"contracts/ValidatorDepositContract.sol\":3644:3647  fee */\n      dup4\n        /* \"contracts/ValidatorDepositContract.sol\":3615:3648  payable(edxAccount).transfer(fee) */\n      swap1\n      dup2\n      iszero\n      mul\n      swap1\n      mload(0x40)\n      0x00\n      mload(0x40)\n      dup1\n      dup4\n      sub\n      dup2\n      dup6\n      dup9\n      dup9\n      call\n      swap4\n      pop\n      pop\n      pop\n      pop\n      iszero\n      dup1\n      iszero\n      tag_126\n      jumpi\n      returndatasize\n      0x00\n      dup1\n      returndatacopy\n      revert(0x00, returndatasize)\n    tag_126:\n      pop\n        /* \"contracts/ValidatorDepositContract.sol\":3571:3700  if (edxAccount != address(0)) {... */\n    tag_124:\n        /* \"contracts/ValidatorDepositContract.sol\":3786:3795  uint256 i */\n      0x00\n        /* \"contracts/ValidatorDepositContract.sol\":3781:4178  for (uint256 i = 0; i < allValidatorNodes.length; i++) {... */\n    tag_127:\n        /* \"contracts/ValidatorDepositContract.sol\":3805:3822  allValidatorNodes */\n      0x05\n        /* \"contracts/ValidatorDepositContract.sol\":3805:3829  allValidatorNodes.length */\n      dup1\n      sload\n      swap1\n      pop\n        /* \"contracts/ValidatorDepositContract.sol\":3801:3802  i */\n      dup2\n        /* \"contracts/ValidatorDepositContract.sol\":3801:3829  i < allValidatorNodes.length */\n      lt\n        /* \"contracts/ValidatorDepositContract.sol\":3781:4178  for (uint256 i = 0; i < allValidatorNodes.length; i++) {... */\n      iszero\n      tag_128\n      jumpi\n        /* \"contracts/ValidatorDepositContract.sol\":3878:3898  validatorNodeAddress */\n      dup6\n        /* \"contracts/ValidatorDepositContract.sol\":3854:3898  allValidatorNodes[i] == validatorNodeAddress */\n      0xffffffffffffffffffffffffffffffffffffffff\n      and\n        /* \"contracts/ValidatorDepositContract.sol\":3854:3871  allValidatorNodes */\n      0x05\n        /* \"contracts/ValidatorDepositContract.sol\":3872:3873  i */\n      dup3\n        /* \"contracts/ValidatorDepositContract.sol\":3854:3874  allValidatorNodes[i] */\n      dup2\n      sload\n      dup2\n      lt\n      tag_130\n      jumpi\n      tag_131\n      tag_132\n      jump\t// in\n    tag_131:\n    tag_130:\n      swap1\n      0x00\n      mstore\n      keccak256(0x00, 0x20)\n      add\n      0x00\n      swap1\n      sload\n      swap1\n      0x0100\n      exp\n      swap1\n      div\n      0xffffffffffffffffffffffffffffffffffffffff\n      and\n        /* \"contracts/ValidatorDepositContract.sol\":3854:3898  allValidatorNodes[i] == validatorNodeAddress */\n      0xffffffffffffffffffffffffffffffffffffffff\n      and\n      sub\n        /* \"contracts/ValidatorDepositContract.sol\":3850:4168  if (allValidatorNodes[i] == validatorNodeAddress) {... */\n      tag_134\n      jumpi\n        /* \"contracts/ValidatorDepositContract.sol\":4042:4059  allValidatorNodes */\n      0x05\n        /* \"contracts/ValidatorDepositContract.sol\":4087:4088  1 */\n      0x01\n        /* \"contracts/ValidatorDepositContract.sol\":4060:4077  allValidatorNodes */\n      0x05\n        /* \"contracts/ValidatorDepositContract.sol\":4060:4084  allValidatorNodes.length */\n      dup1\n      sload\n      swap1\n      pop\n        /* \"contracts/ValidatorDepositContract.sol\":4060:4088  allValidatorNodes.length - 1 */\n      tag_135\n      swap2\n      swap1\n      tag_121\n      jump\t// in\n    tag_135:\n        /* \"contracts/ValidatorDepositContract.sol\":4042:4089  allValidatorNodes[allValidatorNodes.length - 1] */\n      dup2\n      sload\n      dup2\n      lt\n      tag_136\n      jumpi\n      tag_137\n      tag_132\n      jump\t// in\n    tag_137:\n    tag_136:\n      swap1\n      0x00\n      mstore\n      keccak256(0x00, 0x20)\n      add\n      0x00\n      swap1\n      sload\n      swap1\n      0x0100\n      exp\n      swap1\n      div\n      0xffffffffffffffffffffffffffffffffffffffff\n      and\n        /* \"contracts/ValidatorDepositContract.sol\":4019:4036  allValidatorNodes */\n      0x05\n        /* \"contracts/ValidatorDepositContract.sol\":4037:4038  i */\n      dup3\n        /* \"contracts/ValidatorDepositContract.sol\":4019:4039  allValidatorNodes[i] */\n      dup2\n      sload\n      dup2\n      lt\n      tag_139\n      jumpi\n      tag_140\n      tag_132\n      jump\t// in\n    tag_140:\n    tag_139:\n      swap1\n      0x00\n      mstore\n      keccak256(0x00, 0x20)\n      add\n      0x00\n        /* \"contracts/ValidatorDepositContract.sol\":4019:4089  allValidatorNodes[i] = allValidatorNodes[allValidatorNodes.length - 1] */\n      0x0100\n      exp\n      dup2\n      sload\n      dup2\n      0xffffffffffffffffffffffffffffffffffffffff\n      mul\n      not\n      and\n      swap1\n      dup4\n      0xffffffffffffffffffffffffffffffffffffffff\n      and\n      mul\n      or\n      swap1\n      sstore\n      pop\n        /* \"contracts/ValidatorDepositContract.sol\":4107:4124  allValidatorNodes */\n      0x05\n        /* \"contracts/ValidatorDepositContract.sol\":4107:4130  allValidatorNodes.pop() */\n      dup1\n      sload\n      dup1\n      tag_142\n      jumpi\n      tag_143\n      tag_144\n      jump\t// in\n    tag_143:\n    tag_142:\n      0x01\n      swap1\n      sub\n      dup2\n      dup2\n      swap1\n      0x00\n      mstore\n      keccak256(0x00, 0x20)\n      add\n      exp(0x0100, 0x00)\n      dup2\n      sload\n      swap1\n      0xffffffffffffffffffffffffffffffffffffffff\n      mul\n      not\n      and\n      swap1\n      sstore\n      swap1\n      sstore\n        /* \"contracts/ValidatorDepositContract.sol\":4148:4153  break */\n      jump(tag_128)\n        /* \"contracts/ValidatorDepositContract.sol\":3850:4168  if (allValidatorNodes[i] == validatorNodeAddress) {... */\n    tag_134:\n        /* \"contracts/ValidatorDepositContract.sol\":3831:3834  i++ */\n      dup1\n      dup1\n      tag_146\n      swap1\n      tag_147\n      jump\t// in\n    tag_146:\n      swap2\n      pop\n      pop\n        /* \"contracts/ValidatorDepositContract.sol\":3781:4178  for (uint256 i = 0; i < allValidatorNodes.length; i++) {... */\n      jump(tag_127)\n    tag_128:\n      pop\n        /* \"contracts/ValidatorDepositContract.sol\":4246:4268  validatorNodeToAccount */\n      0x02\n        /* \"contracts/ValidatorDepositContract.sol\":4246:4290  validatorNodeToAccount[validatorNodeAddress] */\n      0x00\n        /* \"contracts/ValidatorDepositContract.sol\":4269:4289  validatorNodeAddress */\n      dup7\n        /* \"contracts/ValidatorDepositContract.sol\":4246:4290  validatorNodeToAccount[validatorNodeAddress] */\n      0xffffffffffffffffffffffffffffffffffffffff\n      and\n      0xffffffffffffffffffffffffffffffffffffffff\n      and\n      dup2\n      mstore\n      0x20\n      add\n      swap1\n      dup2\n      mstore\n      0x20\n      add\n      0x00\n      keccak256\n      0x00\n        /* \"contracts/ValidatorDepositContract.sol\":4239:4290  delete validatorNodeToAccount[validatorNodeAddress] */\n      0x0100\n      exp\n      dup2\n      sload\n      swap1\n      0xffffffffffffffffffffffffffffffffffffffff\n      mul\n      not\n      and\n      swap1\n      sstore\n        /* \"contracts/ValidatorDepositContract.sol\":4307:4327  totalDepositedAmount */\n      0x04\n        /* \"contracts/ValidatorDepositContract.sol\":4307:4349  totalDepositedAmount[validatorNodeAddress] */\n      0x00\n        /* \"contracts/ValidatorDepositContract.sol\":4328:4348  validatorNodeAddress */\n      dup7\n        /* \"contracts/ValidatorDepositContract.sol\":4307:4349  totalDepositedAmount[validatorNodeAddress] */\n      0xffffffffffffffffffffffffffffffffffffffff\n      and\n      0xffffffffffffffffffffffffffffffffffffffff\n      and\n      dup2\n      mstore\n      0x20\n      add\n      swap1\n      dup2\n      mstore\n      0x20\n      add\n      0x00\n      keccak256\n        /* \"contracts/ValidatorDepositContract.sol\":4300:4349  delete totalDepositedAmount[validatorNodeAddress] */\n      0x00\n      swap1\n      sstore\n        /* \"contracts/ValidatorDepositContract.sol\":3103:4356  {... */\n      pop\n      pop\n      pop\n      pop\n        /* \"contracts/ValidatorDepositContract.sol\":3025:4356  function deleteValidatorNode(address validatorNodeAddress) external onlyOwner {... */\n      pop\n      jump\t// out\n        /* \"contracts/ValidatorDepositContract.sol\":2567:2976  function linkValidatorNode(address validatorNodeAddress, address validatorAccountAddress) external onlyOwner{... */\n    tag_34:\n        /* \"@openzeppelin/contracts/access/Ownable.sol\":1094:1107  _checkOwner() */\n      tag_149\n        /* \"@openzeppelin/contracts/access/Ownable.sol\":1094:1105  _checkOwner */\n      tag_114\n        /* \"@openzeppelin/contracts/access/Ownable.sol\":1094:1107  _checkOwner() */\n      jump\t// in\n    tag_149:\n        /* \"contracts/ValidatorDepositContract.sol\":2732:2755  validatorAccountAddress */\n      dup1\n        /* \"contracts/ValidatorDepositContract.sol\":2685:2707  validatorNodeToAccount */\n      0x02\n        /* \"contracts/ValidatorDepositContract.sol\":2685:2729  validatorNodeToAccount[validatorNodeAddress] */\n      0x00\n        /* \"contracts/ValidatorDepositContract.sol\":2708:2728  validatorNodeAddress */\n      dup5\n        /* \"contracts/ValidatorDepositContract.sol\":2685:2729  validatorNodeToAccount[validatorNodeAddress] */\n      0xffffffffffffffffffffffffffffffffffffffff\n      and\n      0xffffffffffffffffffffffffffffffffffffffff\n      and\n      dup2\n      mstore\n      0x20\n      add\n      swap1\n      dup2\n      mstore\n      0x20\n      add\n      0x00\n      keccak256\n      0x00\n        /* \"contracts/ValidatorDepositContract.sol\":2685:2755  validatorNodeToAccount[validatorNodeAddress] = validatorAccountAddress */\n      0x0100\n      exp\n      dup2\n      sload\n      dup2\n      0xffffffffffffffffffffffffffffffffffffffff\n      mul\n      not\n      and\n      swap1\n      dup4\n      0xffffffffffffffffffffffffffffffffffffffff\n      and\n      mul\n      or\n      swap1\n      sstore\n      pop\n        /* \"contracts/ValidatorDepositContract.sol\":2850:2899  contains(allValidatorNodes, validatorNodeAddress) */\n      tag_151\n        /* \"contracts/ValidatorDepositContract.sol\":2859:2876  allValidatorNodes */\n      0x05\n        /* \"contracts/ValidatorDepositContract.sol\":2878:2898  validatorNodeAddress */\n      dup4\n        /* \"contracts/ValidatorDepositContract.sol\":2850:2858  contains */\n      tag_152\n        /* \"contracts/ValidatorDepositContract.sol\":2850:2899  contains(allValidatorNodes, validatorNodeAddress) */\n      jump\t// in\n    tag_151:\n        /* \"contracts/ValidatorDepositContract.sol\":2845:2970  if (!contains(allValidatorNodes, validatorNodeAddress)) {... */\n      tag_153\n      jumpi\n        /* \"contracts/ValidatorDepositContract.sol\":2915:2932  allValidatorNodes */\n      0x05\n        /* \"contracts/ValidatorDepositContract.sol\":2938:2958  validatorNodeAddress */\n      dup3\n        /* \"contracts/ValidatorDepositContract.sol\":2915:2959  allValidatorNodes.push(validatorNodeAddress) */\n      swap1\n      dup1\n      0x01\n      dup2\n      sload\n      add\n      dup1\n      dup3\n      sstore\n      dup1\n      swap2\n      pop\n      pop\n      0x01\n      swap1\n      sub\n      swap1\n      0x00\n      mstore\n      keccak256(0x00, 0x20)\n      add\n      0x00\n      swap1\n      swap2\n      swap1\n      swap2\n      swap1\n      swap2\n      0x0100\n      exp\n      dup2\n      sload\n      dup2\n      0xffffffffffffffffffffffffffffffffffffffff\n      mul\n      not\n      and\n      swap1\n      dup4\n      0xffffffffffffffffffffffffffffffffffffffff\n      and\n      mul\n      or\n      swap1\n      sstore\n      pop\n        /* \"contracts/ValidatorDepositContract.sol\":2845:2970  if (!contains(allValidatorNodes, validatorNodeAddress)) {... */\n    tag_153:\n        /* \"contracts/ValidatorDepositContract.sol\":2567:2976  function linkValidatorNode(address validatorNodeAddress, address validatorAccountAddress) external onlyOwner{... */\n      pop\n      pop\n      jump\t// out\n        /* \"contracts/ValidatorDepositContract.sol\":907:945  address public edxAccount = address(0) */\n    tag_37:\n      0x07\n      0x00\n      swap1\n      sload\n      swap1\n      0x0100\n      exp\n      swap1\n      div\n      0xffffffffffffffffffffffffffffffffffffffff\n      and\n      dup2\n      jump\t// out\n        /* \"contracts/ValidatorDepositContract.sol\":1816:2467  function withdraw() external nonReentrant whenNotPaused{... */\n    tag_42:\n        /* \"@openzeppelin/contracts/security/ReentrancyGuard.sol\":2261:2282  _nonReentrantBefore() */\n      tag_156\n        /* \"@openzeppelin/contracts/security/ReentrancyGuard.sol\":2261:2280  _nonReentrantBefore */\n      tag_157\n        /* \"@openzeppelin/contracts/security/ReentrancyGuard.sol\":2261:2282  _nonReentrantBefore() */\n      jump\t// in\n    tag_156:\n        /* \"@openzeppelin/contracts/security/Pausable.sol\":1239:1258  _requireNotPaused() */\n      tag_159\n        /* \"@openzeppelin/contracts/security/Pausable.sol\":1239:1256  _requireNotPaused */\n      tag_160\n        /* \"@openzeppelin/contracts/security/Pausable.sol\":1239:1258  _requireNotPaused() */\n      jump\t// in\n    tag_159:\n        /* \"contracts/ValidatorDepositContract.sol\":1881:1902  uint256 depositAmount */\n      0x00\n        /* \"contracts/ValidatorDepositContract.sol\":1905:1922  depositedBalances */\n      0x03\n        /* \"contracts/ValidatorDepositContract.sol\":1905:1934  depositedBalances[msg.sender] */\n      0x00\n        /* \"contracts/ValidatorDepositContract.sol\":1923:1933  msg.sender */\n      caller\n        /* \"contracts/ValidatorDepositContract.sol\":1905:1934  depositedBalances[msg.sender] */\n      0xffffffffffffffffffffffffffffffffffffffff\n      and\n      0xffffffffffffffffffffffffffffffffffffffff\n      and\n      dup2\n      mstore\n      0x20\n      add\n      swap1\n      dup2\n      mstore\n      0x20\n      add\n      0x00\n      keccak256\n      sload\n        /* \"contracts/ValidatorDepositContract.sol\":1881:1934  uint256 depositAmount = depositedBalances[msg.sender] */\n      swap1\n      pop\n        /* \"contracts/ValidatorDepositContract.sol\":1968:1969  0 */\n      0x00\n        /* \"contracts/ValidatorDepositContract.sol\":1952:1965  depositAmount */\n      dup2\n        /* \"contracts/ValidatorDepositContract.sol\":1952:1969  depositAmount > 0 */\n      gt\n        /* \"contracts/ValidatorDepositContract.sol\":1944:2004  require(depositAmount > 0, \"No funds available to withdraw\") */\n      tag_162\n      jumpi\n      mload(0x40)\n      0x08c379a000000000000000000000000000000000000000000000000000000000\n      dup2\n      mstore\n      0x04\n      add\n      tag_163\n      swap1\n      tag_164\n      jump\t// in\n    tag_163:\n      mload(0x40)\n      dup1\n      swap2\n      sub\n      swap1\n      revert\n    tag_162:\n        /* \"contracts/ValidatorDepositContract.sol\":2023:2034  uint256 fee */\n      0x00\n        /* \"contracts/ValidatorDepositContract.sol\":2081:2084  100 */\n      0x64\n        /* \"contracts/ValidatorDepositContract.sol\":2054:2077  withdrawalFeePercentage */\n      sload(0x06)\n        /* \"contracts/ValidatorDepositContract.sol\":2038:2051  depositAmount */\n      dup4\n        /* \"contracts/ValidatorDepositContract.sol\":2038:2077  depositAmount * withdrawalFeePercentage */\n      tag_165\n      swap2\n      swap1\n      tag_117\n      jump\t// in\n    tag_165:\n        /* \"contracts/ValidatorDepositContract.sol\":2037:2084  (depositAmount * withdrawalFeePercentage) / 100 */\n      tag_166\n      swap2\n      swap1\n      tag_119\n      jump\t// in\n    tag_166:\n        /* \"contracts/ValidatorDepositContract.sol\":2023:2084  uint256 fee = (depositAmount * withdrawalFeePercentage) / 100 */\n      swap1\n      pop\n        /* \"contracts/ValidatorDepositContract.sol\":2123:2145  uint256 withdrawAmount */\n      0x00\n        /* \"contracts/ValidatorDepositContract.sol\":2164:2167  fee */\n      dup2\n        /* \"contracts/ValidatorDepositContract.sol\":2148:2161  depositAmount */\n      dup4\n        /* \"contracts/ValidatorDepositContract.sol\":2148:2167  depositAmount - fee */\n      tag_167\n      swap2\n      swap1\n      tag_121\n      jump\t// in\n    tag_167:\n        /* \"contracts/ValidatorDepositContract.sol\":2123:2167  uint256 withdrawAmount = depositAmount - fee */\n      swap1\n      pop\n        /* \"contracts/ValidatorDepositContract.sol\":2258:2259  0 */\n      0x00\n        /* \"contracts/ValidatorDepositContract.sol\":2226:2243  depositedBalances */\n      0x03\n        /* \"contracts/ValidatorDepositContract.sol\":2226:2255  depositedBalances[msg.sender] */\n      0x00\n        /* \"contracts/ValidatorDepositContract.sol\":2244:2254  msg.sender */\n      caller\n        /* \"contracts/ValidatorDepositContract.sol\":2226:2255  depositedBalances[msg.sender] */\n      0xffffffffffffffffffffffffffffffffffffffff\n      and\n      0xffffffffffffffffffffffffffffffffffffffff\n      and\n      dup2\n      mstore\n      0x20\n      add\n      swap1\n      dup2\n      mstore\n      0x20\n      add\n      0x00\n      keccak256\n        /* \"contracts/ValidatorDepositContract.sol\":2226:2259  depositedBalances[msg.sender] = 0 */\n      dup2\n      swap1\n      sstore\n      pop\n        /* \"contracts/ValidatorDepositContract.sol\":2277:2287  msg.sender */\n      caller\n        /* \"contracts/ValidatorDepositContract.sol\":2269:2297  payable(msg.sender).transfer */\n      0xffffffffffffffffffffffffffffffffffffffff\n      and\n        /* \"contracts/ValidatorDepositContract.sol\":2269:2313  payable(msg.sender).transfer(withdrawAmount) */\n      0x08fc\n        /* \"contracts/ValidatorDepositContract.sol\":2298:2312  withdrawAmount */\n      dup3\n        /* \"contracts/ValidatorDepositContract.sol\":2269:2313  payable(msg.sender).transfer(withdrawAmount) */\n      swap1\n      dup2\n      iszero\n      mul\n      swap1\n      mload(0x40)\n      0x00\n      mload(0x40)\n      dup1\n      dup4\n      sub\n      dup2\n      dup6\n      dup9\n      dup9\n      call\n      swap4\n      pop\n      pop\n      pop\n      pop\n      iszero\n      dup1\n      iszero\n      tag_169\n      jumpi\n      returndatasize\n      0x00\n      dup1\n      returndatacopy\n      revert(0x00, returndatasize)\n    tag_169:\n      pop\n        /* \"contracts/ValidatorDepositContract.sol\":2358:2359  0 */\n      0x00\n        /* \"contracts/ValidatorDepositContract.sol\":2336:2360  edxAccount != address(0) */\n      0xffffffffffffffffffffffffffffffffffffffff\n      and\n        /* \"contracts/ValidatorDepositContract.sol\":2336:2346  edxAccount */\n      0x07\n      0x00\n      swap1\n      sload\n      swap1\n      0x0100\n      exp\n      swap1\n      div\n      0xffffffffffffffffffffffffffffffffffffffff\n      and\n        /* \"contracts/ValidatorDepositContract.sol\":2336:2360  edxAccount != address(0) */\n      0xffffffffffffffffffffffffffffffffffffffff\n      and\n      eq\n        /* \"contracts/ValidatorDepositContract.sol\":2332:2461  if (edxAccount != address(0)) {... */\n      tag_170\n      jumpi\n        /* \"contracts/ValidatorDepositContract.sol\":2384:2394  edxAccount */\n      0x07\n      0x00\n      swap1\n      sload\n      swap1\n      0x0100\n      exp\n      swap1\n      div\n      0xffffffffffffffffffffffffffffffffffffffff\n      and\n        /* \"contracts/ValidatorDepositContract.sol\":2376:2404  payable(edxAccount).transfer */\n      0xffffffffffffffffffffffffffffffffffffffff\n      and\n        /* \"contracts/ValidatorDepositContract.sol\":2376:2409  payable(edxAccount).transfer(fee) */\n      0x08fc\n        /* \"contracts/ValidatorDepositContract.sol\":2405:2408  fee */\n      dup4\n        /* \"contracts/ValidatorDepositContract.sol\":2376:2409  payable(edxAccount).transfer(fee) */\n      swap1\n      dup2\n      iszero\n      mul\n      swap1\n      mload(0x40)\n      0x00\n      mload(0x40)\n      dup1\n      dup4\n      sub\n      dup2\n      dup6\n      dup9\n      dup9\n      call\n      swap4\n      pop\n      pop\n      pop\n      pop\n      iszero\n      dup1\n      iszero\n      tag_172\n      jumpi\n      returndatasize\n      0x00\n      dup1\n      returndatacopy\n      revert(0x00, returndatasize)\n    tag_172:\n      pop\n        /* \"contracts/ValidatorDepositContract.sol\":2332:2461  if (edxAccount != address(0)) {... */\n    tag_170:\n        /* \"contracts/ValidatorDepositContract.sol\":1871:2467  {... */\n      pop\n      pop\n      pop\n        /* \"@openzeppelin/contracts/security/ReentrancyGuard.sol\":2303:2323  _nonReentrantAfter() */\n      tag_173\n        /* \"@openzeppelin/contracts/security/ReentrancyGuard.sol\":2303:2321  _nonReentrantAfter */\n      tag_174\n        /* \"@openzeppelin/contracts/security/ReentrancyGuard.sol\":2303:2323  _nonReentrantAfter() */\n      jump\t// in\n    tag_173:\n        /* \"contracts/ValidatorDepositContract.sol\":1816:2467  function withdraw() external nonReentrant whenNotPaused{... */\n      jump\t// out\n        /* \"contracts/ValidatorDepositContract.sol\":5161:5584  function getValidatorNodeDetails(address validatorNodeAddress) external view returns (address, uint256, uint256) {... */\n    tag_46:\n        /* \"contracts/ValidatorDepositContract.sol\":5247:5254  address */\n      0x00\n        /* \"contracts/ValidatorDepositContract.sol\":5256:5263  uint256 */\n      dup1\n        /* \"contracts/ValidatorDepositContract.sol\":5265:5272  uint256 */\n      0x00\n        /* \"contracts/ValidatorDepositContract.sol\":5284:5309  address associatedAddress */\n      dup1\n        /* \"contracts/ValidatorDepositContract.sol\":5312:5334  validatorNodeToAccount */\n      0x02\n        /* \"contracts/ValidatorDepositContract.sol\":5312:5356  validatorNodeToAccount[validatorNodeAddress] */\n      0x00\n        /* \"contracts/ValidatorDepositContract.sol\":5335:5355  validatorNodeAddress */\n      dup7\n        /* \"contracts/ValidatorDepositContract.sol\":5312:5356  validatorNodeToAccount[validatorNodeAddress] */\n      0xffffffffffffffffffffffffffffffffffffffff\n      and\n      0xffffffffffffffffffffffffffffffffffffffff\n      and\n      dup2\n      mstore\n      0x20\n      add\n      swap1\n      dup2\n      mstore\n      0x20\n      add\n      0x00\n      keccak256\n      0x00\n      swap1\n      sload\n      swap1\n      0x0100\n      exp\n      swap1\n      div\n      0xffffffffffffffffffffffffffffffffffffffff\n      and\n        /* \"contracts/ValidatorDepositContract.sol\":5284:5356  address associatedAddress = validatorNodeToAccount[validatorNodeAddress] */\n      swap1\n      pop\n        /* \"contracts/ValidatorDepositContract.sol\":5366:5384  uint256 sentAmount */\n      0x00\n        /* \"contracts/ValidatorDepositContract.sol\":5387:5407  totalDepositedAmount */\n      0x04\n        /* \"contracts/ValidatorDepositContract.sol\":5387:5429  totalDepositedAmount[validatorNodeAddress] */\n      0x00\n        /* \"contracts/ValidatorDepositContract.sol\":5408:5428  validatorNodeAddress */\n      dup8\n        /* \"contracts/ValidatorDepositContract.sol\":5387:5429  totalDepositedAmount[validatorNodeAddress] */\n      0xffffffffffffffffffffffffffffffffffffffff\n      and\n      0xffffffffffffffffffffffffffffffffffffffff\n      and\n      dup2\n      mstore\n      0x20\n      add\n      swap1\n      dup2\n      mstore\n      0x20\n      add\n      0x00\n      keccak256\n      sload\n        /* \"contracts/ValidatorDepositContract.sol\":5366:5429  uint256 sentAmount = totalDepositedAmount[validatorNodeAddress] */\n      swap1\n      pop\n        /* \"contracts/ValidatorDepositContract.sol\":5439:5463  uint256 remainingBalance */\n      0x00\n        /* \"contracts/ValidatorDepositContract.sol\":5466:5483  depositedBalances */\n      0x03\n        /* \"contracts/ValidatorDepositContract.sol\":5466:5502  depositedBalances[associatedAddress] */\n      0x00\n        /* \"contracts/ValidatorDepositContract.sol\":5484:5501  associatedAddress */\n      dup5\n        /* \"contracts/ValidatorDepositContract.sol\":5466:5502  depositedBalances[associatedAddress] */\n      0xffffffffffffffffffffffffffffffffffffffff\n      and\n      0xffffffffffffffffffffffffffffffffffffffff\n      and\n      dup2\n      mstore\n      0x20\n      add\n      swap1\n      dup2\n      mstore\n      0x20\n      add\n      0x00\n      keccak256\n      sload\n        /* \"contracts/ValidatorDepositContract.sol\":5439:5502  uint256 remainingBalance = depositedBalances[associatedAddress] */\n      swap1\n      pop\n        /* \"contracts/ValidatorDepositContract.sol\":5529:5546  associatedAddress */\n      dup3\n        /* \"contracts/ValidatorDepositContract.sol\":5548:5558  sentAmount */\n      dup3\n        /* \"contracts/ValidatorDepositContract.sol\":5560:5576  remainingBalance */\n      dup3\n        /* \"contracts/ValidatorDepositContract.sol\":5521:5577  return (associatedAddress, sentAmount, remainingBalance) */\n      swap6\n      pop\n      swap6\n      pop\n      swap6\n      pop\n      pop\n      pop\n      pop\n        /* \"contracts/ValidatorDepositContract.sol\":5161:5584  function getValidatorNodeDetails(address validatorNodeAddress) external view returns (address, uint256, uint256) {... */\n      swap2\n      swap4\n      swap1\n      swap3\n      pop\n      jump\t// out\n        /* \"contracts/ValidatorDepositContract.sol\":4877:4946  function pauseContract() external onlyOwner {... */\n    tag_51:\n        /* \"@openzeppelin/contracts/access/Ownable.sol\":1094:1107  _checkOwner() */\n      tag_177\n        /* \"@openzeppelin/contracts/access/Ownable.sol\":1094:1105  _checkOwner */\n      tag_114\n        /* \"@openzeppelin/contracts/access/Ownable.sol\":1094:1107  _checkOwner() */\n      jump\t// in\n    tag_177:\n        /* \"contracts/ValidatorDepositContract.sol\":4931:4939  _pause() */\n      tag_179\n        /* \"contracts/ValidatorDepositContract.sol\":4931:4937  _pause */\n      tag_180\n        /* \"contracts/ValidatorDepositContract.sol\":4931:4939  _pause() */\n      jump\t// in\n    tag_179:\n        /* \"contracts/ValidatorDepositContract.sol\":4877:4946  function pauseContract() external onlyOwner {... */\n      jump\t// out\n        /* \"@openzeppelin/contracts/security/Pausable.sol\":1615:1699  function paused() public view virtual returns (bool) {... */\n    tag_54:\n        /* \"@openzeppelin/contracts/security/Pausable.sol\":1662:1666  bool */\n      0x00\n        /* \"@openzeppelin/contracts/security/Pausable.sol\":1685:1692  _paused */\n      0x01\n      0x14\n      swap1\n      sload\n      swap1\n      0x0100\n      exp\n      swap1\n      div\n      0xff\n      and\n        /* \"@openzeppelin/contracts/security/Pausable.sol\":1678:1692  return _paused */\n      swap1\n      pop\n        /* \"@openzeppelin/contracts/security/Pausable.sol\":1615:1699  function paused() public view virtual returns (bool) {... */\n      swap1\n      jump\t// out\n        /* \"contracts/ValidatorDepositContract.sol\":4428:4641  function setWithdrawalFeePercentage(uint256 _feePercentage) external onlyOwner {... */\n    tag_61:\n        /* \"@openzeppelin/contracts/access/Ownable.sol\":1094:1107  _checkOwner() */\n      tag_183\n        /* \"@openzeppelin/contracts/access/Ownable.sol\":1094:1105  _checkOwner */\n      tag_114\n        /* \"@openzeppelin/contracts/access/Ownable.sol\":1094:1107  _checkOwner() */\n      jump\t// in\n    tag_183:\n        /* \"contracts/ValidatorDepositContract.sol\":4543:4546  100 */\n      0x64\n        /* \"contracts/ValidatorDepositContract.sol\":4525:4539  _feePercentage */\n      dup2\n        /* \"contracts/ValidatorDepositContract.sol\":4525:4546  _feePercentage <= 100 */\n      gt\n      iszero\n        /* \"contracts/ValidatorDepositContract.sol\":4517:4584  require(_feePercentage <= 100, \"Fee percentage cannot exceed 100%\") */\n      tag_185\n      jumpi\n      mload(0x40)\n      0x08c379a000000000000000000000000000000000000000000000000000000000\n      dup2\n      mstore\n      0x04\n      add\n      tag_186\n      swap1\n      tag_187\n      jump\t// in\n    tag_186:\n      mload(0x40)\n      dup1\n      swap2\n      sub\n      swap1\n      revert\n    tag_185:\n        /* \"contracts/ValidatorDepositContract.sol\":4620:4634  _feePercentage */\n      dup1\n        /* \"contracts/ValidatorDepositContract.sol\":4594:4617  withdrawalFeePercentage */\n      0x06\n        /* \"contracts/ValidatorDepositContract.sol\":4594:4634  withdrawalFeePercentage = _feePercentage */\n      dup2\n      swap1\n      sstore\n      pop\n        /* \"contracts/ValidatorDepositContract.sol\":4428:4641  function setWithdrawalFeePercentage(uint256 _feePercentage) external onlyOwner {... */\n      pop\n      jump\t// out\n        /* \"contracts/ValidatorDepositContract.sol\":5646:6756  function fetchAllValidatorNodeDetails() external view returns (address[] memory, address[] memory, uint256[] memory, uint256[] memory) {... */\n    tag_64:\n        /* \"contracts/ValidatorDepositContract.sol\":5709:5725  address[] memory */\n      0x60\n        /* \"contracts/ValidatorDepositContract.sol\":5727:5743  address[] memory */\n      dup1\n        /* \"contracts/ValidatorDepositContract.sol\":5745:5761  uint256[] memory */\n      0x60\n        /* \"contracts/ValidatorDepositContract.sol\":5763:5779  uint256[] memory */\n      dup1\n        /* \"contracts/ValidatorDepositContract.sol\":5791:5809  uint256 totalNodes */\n      0x00\n        /* \"contracts/ValidatorDepositContract.sol\":5812:5829  allValidatorNodes */\n      0x05\n        /* \"contracts/ValidatorDepositContract.sol\":5812:5836  allValidatorNodes.length */\n      dup1\n      sload\n      swap1\n      pop\n        /* \"contracts/ValidatorDepositContract.sol\":5791:5836  uint256 totalNodes = allValidatorNodes.length */\n      swap1\n      pop\n        /* \"contracts/ValidatorDepositContract.sol\":5846:5876  address[] memory nodeAddresses */\n      0x00\n        /* \"contracts/ValidatorDepositContract.sol\":5893:5903  totalNodes */\n      dup2\n        /* \"contracts/ValidatorDepositContract.sol\":5879:5904  new address[](totalNodes) */\n      0xffffffffffffffff\n      dup2\n      gt\n      iszero\n      tag_189\n      jumpi\n      tag_190\n      tag_191\n      jump\t// in\n    tag_190:\n    tag_189:\n      mload(0x40)\n      swap1\n      dup1\n      dup3\n      mstore\n      dup1\n      0x20\n      mul\n      0x20\n      add\n      dup3\n      add\n      0x40\n      mstore\n      dup1\n      iszero\n      tag_192\n      jumpi\n      dup2\n      0x20\n      add\n      0x20\n      dup3\n      mul\n      dup1\n      calldatasize\n      dup4\n      calldatacopy\n      dup1\n      dup3\n      add\n      swap2\n      pop\n      pop\n      swap1\n      pop\n    tag_192:\n      pop\n        /* \"contracts/ValidatorDepositContract.sol\":5846:5904  address[] memory nodeAddresses = new address[](totalNodes) */\n      swap1\n      pop\n        /* \"contracts/ValidatorDepositContract.sol\":5914:5950  address[] memory associatedAddresses */\n      0x00\n        /* \"contracts/ValidatorDepositContract.sol\":5967:5977  totalNodes */\n      dup3\n        /* \"contracts/ValidatorDepositContract.sol\":5953:5978  new address[](totalNodes) */\n      0xffffffffffffffff\n      dup2\n      gt\n      iszero\n      tag_193\n      jumpi\n      tag_194\n      tag_191\n      jump\t// in\n    tag_194:\n    tag_193:\n      mload(0x40)\n      swap1\n      dup1\n      dup3\n      mstore\n      dup1\n      0x20\n      mul\n      0x20\n      add\n      dup3\n      add\n      0x40\n      mstore\n      dup1\n      iszero\n      tag_195\n      jumpi\n      dup2\n      0x20\n      add\n      0x20\n      dup3\n      mul\n      dup1\n      calldatasize\n      dup4\n      calldatacopy\n      dup1\n      dup3\n      add\n      swap2\n      pop\n      pop\n      swap1\n      pop\n    tag_195:\n      pop\n        /* \"contracts/ValidatorDepositContract.sol\":5914:5978  address[] memory associatedAddresses = new address[](totalNodes) */\n      swap1\n      pop\n        /* \"contracts/ValidatorDepositContract.sol\":5988:6016  uint256[] memory sentAmounts */\n      0x00\n        /* \"contracts/ValidatorDepositContract.sol\":6033:6043  totalNodes */\n      dup4\n        /* \"contracts/ValidatorDepositContract.sol\":6019:6044  new uint256[](totalNodes) */\n      0xffffffffffffffff\n      dup2\n      gt\n      iszero\n      tag_196\n      jumpi\n      tag_197\n      tag_191\n      jump\t// in\n    tag_197:\n    tag_196:\n      mload(0x40)\n      swap1\n      dup1\n      dup3\n      mstore\n      dup1\n      0x20\n      mul\n      0x20\n      add\n      dup3\n      add\n      0x40\n      mstore\n      dup1\n      iszero\n      tag_198\n      jumpi\n      dup2\n      0x20\n      add\n      0x20\n      dup3\n      mul\n      dup1\n      calldatasize\n      dup4\n      calldatacopy\n      dup1\n      dup3\n      add\n      swap2\n      pop\n      pop\n      swap1\n      pop\n    tag_198:\n      pop\n        /* \"contracts/ValidatorDepositContract.sol\":5988:6044  uint256[] memory sentAmounts = new uint256[](totalNodes) */\n      swap1\n      pop\n        /* \"contracts/ValidatorDepositContract.sol\":6054:6088  uint256[] memory remainingBalances */\n      0x00\n        /* \"contracts/ValidatorDepositContract.sol\":6105:6115  totalNodes */\n      dup5\n        /* \"contracts/ValidatorDepositContract.sol\":6091:6116  new uint256[](totalNodes) */\n      0xffffffffffffffff\n      dup2\n      gt\n      iszero\n      tag_199\n      jumpi\n      tag_200\n      tag_191\n      jump\t// in\n    tag_200:\n    tag_199:\n      mload(0x40)\n      swap1\n      dup1\n      dup3\n      mstore\n      dup1\n      0x20\n      mul\n      0x20\n      add\n      dup3\n      add\n      0x40\n      mstore\n      dup1\n      iszero\n      tag_201\n      jumpi\n      dup2\n      0x20\n      add\n      0x20\n      dup3\n      mul\n      dup1\n      calldatasize\n      dup4\n      calldatacopy\n      dup1\n      dup3\n      add\n      swap2\n      pop\n      pop\n      swap1\n      pop\n    tag_201:\n      pop\n        /* \"contracts/ValidatorDepositContract.sol\":6054:6116  uint256[] memory remainingBalances = new uint256[](totalNodes) */\n      swap1\n      pop\n        /* \"contracts/ValidatorDepositContract.sol\":6132:6141  uint256 i */\n      0x00\n        /* \"contracts/ValidatorDepositContract.sol\":6127:6664  for (uint256 i = 0; i < totalNodes; i++) {... */\n    tag_202:\n        /* \"contracts/ValidatorDepositContract.sol\":6151:6161  totalNodes */\n      dup6\n        /* \"contracts/ValidatorDepositContract.sol\":6147:6148  i */\n      dup2\n        /* \"contracts/ValidatorDepositContract.sol\":6147:6161  i < totalNodes */\n      lt\n        /* \"contracts/ValidatorDepositContract.sol\":6127:6664  for (uint256 i = 0; i < totalNodes; i++) {... */\n      iszero\n      tag_203\n      jumpi\n        /* \"contracts/ValidatorDepositContract.sol\":6182:6201  address nodeAddress */\n      0x00\n        /* \"contracts/ValidatorDepositContract.sol\":6204:6221  allValidatorNodes */\n      0x05\n        /* \"contracts/ValidatorDepositContract.sol\":6222:6223  i */\n      dup3\n        /* \"contracts/ValidatorDepositContract.sol\":6204:6224  allValidatorNodes[i] */\n      dup2\n      sload\n      dup2\n      lt\n      tag_205\n      jumpi\n      tag_206\n      tag_132\n      jump\t// in\n    tag_206:\n    tag_205:\n      swap1\n      0x00\n      mstore\n      keccak256(0x00, 0x20)\n      add\n      0x00\n      swap1\n      sload\n      swap1\n      0x0100\n      exp\n      swap1\n      div\n      0xffffffffffffffffffffffffffffffffffffffff\n      and\n        /* \"contracts/ValidatorDepositContract.sol\":6182:6224  address nodeAddress = allValidatorNodes[i] */\n      swap1\n      pop\n        /* \"contracts/ValidatorDepositContract.sol\":6238:6263  address associatedAddress */\n      0x00\n        /* \"contracts/ValidatorDepositContract.sol\":6266:6288  validatorNodeToAccount */\n      0x02\n        /* \"contracts/ValidatorDepositContract.sol\":6266:6301  validatorNodeToAccount[nodeAddress] */\n      0x00\n        /* \"contracts/ValidatorDepositContract.sol\":6289:6300  nodeAddress */\n      dup4\n        /* \"contracts/ValidatorDepositContract.sol\":6266:6301  validatorNodeToAccount[nodeAddress] */\n      0xffffffffffffffffffffffffffffffffffffffff\n      and\n      0xffffffffffffffffffffffffffffffffffffffff\n      and\n      dup2\n      mstore\n      0x20\n      add\n      swap1\n      dup2\n      mstore\n      0x20\n      add\n      0x00\n      keccak256\n      0x00\n      swap1\n      sload\n      swap1\n      0x0100\n      exp\n      swap1\n      div\n      0xffffffffffffffffffffffffffffffffffffffff\n      and\n        /* \"contracts/ValidatorDepositContract.sol\":6238:6301  address associatedAddress = validatorNodeToAccount[nodeAddress] */\n      swap1\n      pop\n        /* \"contracts/ValidatorDepositContract.sol\":6315:6333  uint256 sentAmount */\n      0x00\n        /* \"contracts/ValidatorDepositContract.sol\":6336:6356  totalDepositedAmount */\n      0x04\n        /* \"contracts/ValidatorDepositContract.sol\":6336:6369  totalDepositedAmount[nodeAddress] */\n      0x00\n        /* \"contracts/ValidatorDepositContract.sol\":6357:6368  nodeAddress */\n      dup5\n        /* \"contracts/ValidatorDepositContract.sol\":6336:6369  totalDepositedAmount[nodeAddress] */\n      0xffffffffffffffffffffffffffffffffffffffff\n      and\n      0xffffffffffffffffffffffffffffffffffffffff\n      and\n      dup2\n      mstore\n      0x20\n      add\n      swap1\n      dup2\n      mstore\n      0x20\n      add\n      0x00\n      keccak256\n      sload\n        /* \"contracts/ValidatorDepositContract.sol\":6315:6369  uint256 sentAmount = totalDepositedAmount[nodeAddress] */\n      swap1\n      pop\n        /* \"contracts/ValidatorDepositContract.sol\":6383:6407  uint256 remainingBalance */\n      0x00\n        /* \"contracts/ValidatorDepositContract.sol\":6410:6427  depositedBalances */\n      0x03\n        /* \"contracts/ValidatorDepositContract.sol\":6410:6446  depositedBalances[associatedAddress] */\n      0x00\n        /* \"contracts/ValidatorDepositContract.sol\":6428:6445  associatedAddress */\n      dup5\n        /* \"contracts/ValidatorDepositContract.sol\":6410:6446  depositedBalances[associatedAddress] */\n      0xffffffffffffffffffffffffffffffffffffffff\n      and\n      0xffffffffffffffffffffffffffffffffffffffff\n      and\n      dup2\n      mstore\n      0x20\n      add\n      swap1\n      dup2\n      mstore\n      0x20\n      add\n      0x00\n      keccak256\n      sload\n        /* \"contracts/ValidatorDepositContract.sol\":6383:6446  uint256 remainingBalance = depositedBalances[associatedAddress] */\n      swap1\n      pop\n        /* \"contracts/ValidatorDepositContract.sol\":6492:6503  nodeAddress */\n      dup4\n        /* \"contracts/ValidatorDepositContract.sol\":6473:6486  nodeAddresses */\n      dup10\n        /* \"contracts/ValidatorDepositContract.sol\":6487:6488  i */\n      dup7\n        /* \"contracts/ValidatorDepositContract.sol\":6473:6489  nodeAddresses[i] */\n      dup2\n      mload\n      dup2\n      lt\n      tag_208\n      jumpi\n      tag_209\n      tag_132\n      jump\t// in\n    tag_209:\n    tag_208:\n      0x20\n      mul\n      0x20\n      add\n      add\n        /* \"contracts/ValidatorDepositContract.sol\":6473:6503  nodeAddresses[i] = nodeAddress */\n      swap1\n      0xffffffffffffffffffffffffffffffffffffffff\n      and\n      swap1\n      dup2\n      0xffffffffffffffffffffffffffffffffffffffff\n      and\n      dup2\n      mstore\n      pop\n      pop\n        /* \"contracts/ValidatorDepositContract.sol\":6542:6559  associatedAddress */\n      dup3\n        /* \"contracts/ValidatorDepositContract.sol\":6517:6536  associatedAddresses */\n      dup9\n        /* \"contracts/ValidatorDepositContract.sol\":6537:6538  i */\n      dup7\n        /* \"contracts/ValidatorDepositContract.sol\":6517:6539  associatedAddresses[i] */\n      dup2\n      mload\n      dup2\n      lt\n      tag_210\n      jumpi\n      tag_211\n      tag_132\n      jump\t// in\n    tag_211:\n    tag_210:\n      0x20\n      mul\n      0x20\n      add\n      add\n        /* \"contracts/ValidatorDepositContract.sol\":6517:6559  associatedAddresses[i] = associatedAddress */\n      swap1\n      0xffffffffffffffffffffffffffffffffffffffff\n      and\n      swap1\n      dup2\n      0xffffffffffffffffffffffffffffffffffffffff\n      and\n      dup2\n      mstore\n      pop\n      pop\n        /* \"contracts/ValidatorDepositContract.sol\":6590:6600  sentAmount */\n      dup2\n        /* \"contracts/ValidatorDepositContract.sol\":6573:6584  sentAmounts */\n      dup8\n        /* \"contracts/ValidatorDepositContract.sol\":6585:6586  i */\n      dup7\n        /* \"contracts/ValidatorDepositContract.sol\":6573:6587  sentAmounts[i] */\n      dup2\n      mload\n      dup2\n      lt\n      tag_212\n      jumpi\n      tag_213\n      tag_132\n      jump\t// in\n    tag_213:\n    tag_212:\n      0x20\n      mul\n      0x20\n      add\n      add\n        /* \"contracts/ValidatorDepositContract.sol\":6573:6600  sentAmounts[i] = sentAmount */\n      dup2\n      dup2\n      mstore\n      pop\n      pop\n        /* \"contracts/ValidatorDepositContract.sol\":6637:6653  remainingBalance */\n      dup1\n        /* \"contracts/ValidatorDepositContract.sol\":6614:6631  remainingBalances */\n      dup7\n        /* \"contracts/ValidatorDepositContract.sol\":6632:6633  i */\n      dup7\n        /* \"contracts/ValidatorDepositContract.sol\":6614:6634  remainingBalances[i] */\n      dup2\n      mload\n      dup2\n      lt\n      tag_214\n      jumpi\n      tag_215\n      tag_132\n      jump\t// in\n    tag_215:\n    tag_214:\n      0x20\n      mul\n      0x20\n      add\n      add\n        /* \"contracts/ValidatorDepositContract.sol\":6614:6653  remainingBalances[i] = remainingBalance */\n      dup2\n      dup2\n      mstore\n      pop\n      pop\n        /* \"contracts/ValidatorDepositContract.sol\":6168:6664  {... */\n      pop\n      pop\n      pop\n      pop\n        /* \"contracts/ValidatorDepositContract.sol\":6163:6166  i++ */\n      dup1\n      dup1\n      tag_216\n      swap1\n      tag_147\n      jump\t// in\n    tag_216:\n      swap2\n      pop\n      pop\n        /* \"contracts/ValidatorDepositContract.sol\":6127:6664  for (uint256 i = 0; i < totalNodes; i++) {... */\n      jump(tag_202)\n    tag_203:\n      pop\n        /* \"contracts/ValidatorDepositContract.sol\":6682:6695  nodeAddresses */\n      dup4\n        /* \"contracts/ValidatorDepositContract.sol\":6697:6716  associatedAddresses */\n      dup4\n        /* \"contracts/ValidatorDepositContract.sol\":6718:6729  sentAmounts */\n      dup4\n        /* \"contracts/ValidatorDepositContract.sol\":6731:6748  remainingBalances */\n      dup4\n        /* \"contracts/ValidatorDepositContract.sol\":6674:6749  return (nodeAddresses, associatedAddresses, sentAmounts, remainingBalances) */\n      swap9\n      pop\n      swap9\n      pop\n      swap9\n      pop\n      swap9\n      pop\n      pop\n      pop\n      pop\n      pop\n      pop\n        /* \"contracts/ValidatorDepositContract.sol\":5646:6756  function fetchAllValidatorNodeDetails() external view returns (address[] memory, address[] memory, uint256[] memory, uint256[] memory) {... */\n      swap1\n      swap2\n      swap3\n      swap4\n      jump\t// out\n        /* \"@openzeppelin/contracts/access/Ownable.sol\":1824:1925  function renounceOwnership() public virtual onlyOwner {... */\n    tag_69:\n        /* \"@openzeppelin/contracts/access/Ownable.sol\":1094:1107  _checkOwner() */\n      tag_218\n        /* \"@openzeppelin/contracts/access/Ownable.sol\":1094:1105  _checkOwner */\n      tag_114\n        /* \"@openzeppelin/contracts/access/Ownable.sol\":1094:1107  _checkOwner() */\n      jump\t// in\n    tag_218:\n        /* \"@openzeppelin/contracts/access/Ownable.sol\":1888:1918  _transferOwnership(address(0)) */\n      tag_220\n        /* \"@openzeppelin/contracts/access/Ownable.sol\":1915:1916  0 */\n      0x00\n        /* \"@openzeppelin/contracts/access/Ownable.sol\":1888:1906  _transferOwnership */\n      tag_221\n        /* \"@openzeppelin/contracts/access/Ownable.sol\":1888:1918  _transferOwnership(address(0)) */\n      jump\t// in\n    tag_220:\n        /* \"@openzeppelin/contracts/access/Ownable.sol\":1824:1925  function renounceOwnership() public virtual onlyOwner {... */\n      jump\t// out\n        /* \"contracts/ValidatorDepositContract.sol\":836:879  uint256 public withdrawalFeePercentage = 10 */\n    tag_72:\n      sload(0x06)\n      dup2\n      jump\t// out\n        /* \"contracts/ValidatorDepositContract.sol\":548:600  mapping(address => uint256) public depositedBalances */\n    tag_78:\n      mstore(0x20, 0x03)\n      dup1\n      0x00\n      mstore\n      keccak256(0x00, 0x40)\n      0x00\n      swap2\n      pop\n      swap1\n      pop\n      sload\n      dup2\n      jump\t// out\n        /* \"contracts/ValidatorDepositContract.sol\":682:737  mapping(address => uint256) public totalDepositedAmount */\n    tag_83:\n      mstore(0x20, 0x04)\n      dup1\n      0x00\n      mstore\n      keccak256(0x00, 0x40)\n      0x00\n      swap2\n      pop\n      swap1\n      pop\n      sload\n      dup2\n      jump\t// out\n        /* \"@openzeppelin/contracts/access/Ownable.sol\":1201:1286  function owner() public view virtual returns (address) {... */\n    tag_87:\n        /* \"@openzeppelin/contracts/access/Ownable.sol\":1247:1254  address */\n      0x00\n        /* \"@openzeppelin/contracts/access/Ownable.sol\":1273:1279  _owner */\n      0x01\n      0x00\n      swap1\n      sload\n      swap1\n      0x0100\n      exp\n      swap1\n      div\n      0xffffffffffffffffffffffffffffffffffffffff\n      and\n        /* \"@openzeppelin/contracts/access/Ownable.sol\":1266:1279  return _owner */\n      swap1\n      pop\n        /* \"@openzeppelin/contracts/access/Ownable.sol\":1201:1286  function owner() public view virtual returns (address) {... */\n      swap1\n      jump\t// out\n        /* \"contracts/ValidatorDepositContract.sol\":4706:4804  function setEdxAccount(address _account) external onlyOwner {... */\n    tag_92:\n        /* \"@openzeppelin/contracts/access/Ownable.sol\":1094:1107  _checkOwner() */\n      tag_224\n        /* \"@openzeppelin/contracts/access/Ownable.sol\":1094:1105  _checkOwner */\n      tag_114\n        /* \"@openzeppelin/contracts/access/Ownable.sol\":1094:1107  _checkOwner() */\n      jump\t// in\n    tag_224:\n        /* \"contracts/ValidatorDepositContract.sol\":4789:4797  _account */\n      dup1\n        /* \"contracts/ValidatorDepositContract.sol\":4776:4786  edxAccount */\n      0x07\n      0x00\n        /* \"contracts/ValidatorDepositContract.sol\":4776:4797  edxAccount = _account */\n      0x0100\n      exp\n      dup2\n      sload\n      dup2\n      0xffffffffffffffffffffffffffffffffffffffff\n      mul\n      not\n      and\n      swap1\n      dup4\n      0xffffffffffffffffffffffffffffffffffffffff\n      and\n      mul\n      or\n      swap1\n      sstore\n      pop\n        /* \"contracts/ValidatorDepositContract.sol\":4706:4804  function setEdxAccount(address _account) external onlyOwner {... */\n      pop\n      jump\t// out\n        /* \"contracts/ValidatorDepositContract.sol\":5021:5093  function unpauseContract() external onlyOwner {... */\n    tag_95:\n        /* \"@openzeppelin/contracts/access/Ownable.sol\":1094:1107  _checkOwner() */\n      tag_227\n        /* \"@openzeppelin/contracts/access/Ownable.sol\":1094:1105  _checkOwner */\n      tag_114\n        /* \"@openzeppelin/contracts/access/Ownable.sol\":1094:1107  _checkOwner() */\n      jump\t// in\n    tag_227:\n        /* \"contracts/ValidatorDepositContract.sol\":5076:5086  _unpause() */\n      tag_229\n        /* \"contracts/ValidatorDepositContract.sol\":5076:5084  _unpause */\n      tag_230\n        /* \"contracts/ValidatorDepositContract.sol\":5076:5086  _unpause() */\n      jump\t// in\n    tag_229:\n        /* \"contracts/ValidatorDepositContract.sol\":5021:5093  function unpauseContract() external onlyOwner {... */\n      jump\t// out\n        /* \"contracts/ValidatorDepositContract.sol\":406:463  mapping(address => address) public validatorNodeToAccount */\n    tag_99:\n      mstore(0x20, 0x02)\n      dup1\n      0x00\n      mstore\n      keccak256(0x00, 0x40)\n      0x00\n      swap2\n      pop\n      sload\n      swap1\n      0x0100\n      exp\n      swap1\n      div\n      0xffffffffffffffffffffffffffffffffffffffff\n      and\n      dup2\n      jump\t// out\n        /* \"contracts/ValidatorDepositContract.sol\":795:829  address[] public allValidatorNodes */\n    tag_104:\n      0x05\n      dup2\n      dup2\n      sload\n      dup2\n      lt\n      tag_231\n      jumpi\n      0x00\n      dup1\n      revert\n    tag_231:\n      swap1\n      0x00\n      mstore\n      keccak256(0x00, 0x20)\n      add\n      0x00\n      swap2\n      pop\n      sload\n      swap1\n      0x0100\n      exp\n      swap1\n      div\n      0xffffffffffffffffffffffffffffffffffffffff\n      and\n      dup2\n      jump\t// out\n        /* \"contracts/ValidatorDepositContract.sol\":1093:1733  function deposit() external payable nonReentrant whenNotPaused {... */\n    tag_107:\n        /* \"@openzeppelin/contracts/security/ReentrancyGuard.sol\":2261:2282  _nonReentrantBefore() */\n      tag_234\n        /* \"@openzeppelin/contracts/security/ReentrancyGuard.sol\":2261:2280  _nonReentrantBefore */\n      tag_157\n        /* \"@openzeppelin/contracts/security/ReentrancyGuard.sol\":2261:2282  _nonReentrantBefore() */\n      jump\t// in\n    tag_234:\n        /* \"@openzeppelin/contracts/security/Pausable.sol\":1239:1258  _requireNotPaused() */\n      tag_236\n        /* \"@openzeppelin/contracts/security/Pausable.sol\":1239:1256  _requireNotPaused */\n      tag_160\n        /* \"@openzeppelin/contracts/security/Pausable.sol\":1239:1258  _requireNotPaused() */\n      jump\t// in\n    tag_236:\n        /* \"contracts/ValidatorDepositContract.sol\":1166:1197  address validatorAccountAddress */\n      0x00\n        /* \"contracts/ValidatorDepositContract.sol\":1200:1222  validatorNodeToAccount */\n      0x02\n        /* \"contracts/ValidatorDepositContract.sol\":1200:1234  validatorNodeToAccount[msg.sender] */\n      0x00\n        /* \"contracts/ValidatorDepositContract.sol\":1223:1233  msg.sender */\n      caller\n        /* \"contracts/ValidatorDepositContract.sol\":1200:1234  validatorNodeToAccount[msg.sender] */\n      0xffffffffffffffffffffffffffffffffffffffff\n      and\n      0xffffffffffffffffffffffffffffffffffffffff\n      and\n      dup2\n      mstore\n      0x20\n      add\n      swap1\n      dup2\n      mstore\n      0x20\n      add\n      0x00\n      keccak256\n      0x00\n      swap1\n      sload\n      swap1\n      0x0100\n      exp\n      swap1\n      div\n      0xffffffffffffffffffffffffffffffffffffffff\n      and\n        /* \"contracts/ValidatorDepositContract.sol\":1166:1234  address validatorAccountAddress = validatorNodeToAccount[msg.sender] */\n      swap1\n      pop\n        /* \"contracts/ValidatorDepositContract.sol\":1287:1288  0 */\n      0x00\n        /* \"contracts/ValidatorDepositContract.sol\":1252:1289  validatorAccountAddress != address(0) */\n      0xffffffffffffffffffffffffffffffffffffffff\n      and\n        /* \"contracts/ValidatorDepositContract.sol\":1252:1275  validatorAccountAddress */\n      dup2\n        /* \"contracts/ValidatorDepositContract.sol\":1252:1289  validatorAccountAddress != address(0) */\n      0xffffffffffffffffffffffffffffffffffffffff\n      and\n      sub\n        /* \"contracts/ValidatorDepositContract.sol\":1244:1319  require(validatorAccountAddress != address(0), \"Validator node not linked\") */\n      tag_238\n      jumpi\n      mload(0x40)\n      0x08c379a000000000000000000000000000000000000000000000000000000000\n      dup2\n      mstore\n      0x04\n      add\n      tag_239\n      swap1\n      tag_240\n      jump\t// in\n    tag_239:\n      mload(0x40)\n      dup1\n      swap2\n      sub\n      swap1\n      revert\n    tag_238:\n        /* \"contracts/ValidatorDepositContract.sol\":1375:1384  msg.value */\n      callvalue\n        /* \"contracts/ValidatorDepositContract.sol\":1329:1346  depositedBalances */\n      0x03\n        /* \"contracts/ValidatorDepositContract.sol\":1329:1371  depositedBalances[validatorAccountAddress] */\n      0x00\n        /* \"contracts/ValidatorDepositContract.sol\":1347:1370  validatorAccountAddress */\n      dup4\n        /* \"contracts/ValidatorDepositContract.sol\":1329:1371  depositedBalances[validatorAccountAddress] */\n      0xffffffffffffffffffffffffffffffffffffffff\n      and\n      0xffffffffffffffffffffffffffffffffffffffff\n      and\n      dup2\n      mstore\n      0x20\n      add\n      swap1\n      dup2\n      mstore\n      0x20\n      add\n      0x00\n      keccak256\n      0x00\n        /* \"contracts/ValidatorDepositContract.sol\":1329:1384  depositedBalances[validatorAccountAddress] += msg.value */\n      dup3\n      dup3\n      sload\n      tag_241\n      swap2\n      swap1\n      tag_242\n      jump\t// in\n    tag_241:\n      swap3\n      pop\n      pop\n      dup2\n      swap1\n      sstore\n      pop\n        /* \"contracts/ValidatorDepositContract.sol\":1467:1476  msg.value */\n      callvalue\n        /* \"contracts/ValidatorDepositContract.sol\":1431:1451  totalDepositedAmount */\n      0x04\n        /* \"contracts/ValidatorDepositContract.sol\":1431:1463  totalDepositedAmount[msg.sender] */\n      0x00\n        /* \"contracts/ValidatorDepositContract.sol\":1452:1462  msg.sender */\n      caller\n        /* \"contracts/ValidatorDepositContract.sol\":1431:1463  totalDepositedAmount[msg.sender] */\n      0xffffffffffffffffffffffffffffffffffffffff\n      and\n      0xffffffffffffffffffffffffffffffffffffffff\n      and\n      dup2\n      mstore\n      0x20\n      add\n      swap1\n      dup2\n      mstore\n      0x20\n      add\n      0x00\n      keccak256\n      0x00\n        /* \"contracts/ValidatorDepositContract.sol\":1431:1476  totalDepositedAmount[msg.sender] += msg.value */\n      dup3\n      dup3\n      sload\n      tag_243\n      swap2\n      swap1\n      tag_242\n      jump\t// in\n    tag_243:\n      swap3\n      pop\n      pop\n      dup2\n      swap1\n      sstore\n      pop\n        /* \"contracts/ValidatorDepositContract.sol\":1627:1666  contains(allValidatorNodes, msg.sender) */\n      tag_244\n        /* \"contracts/ValidatorDepositContract.sol\":1636:1653  allValidatorNodes */\n      0x05\n        /* \"contracts/ValidatorDepositContract.sol\":1655:1665  msg.sender */\n      caller\n        /* \"contracts/ValidatorDepositContract.sol\":1627:1635  contains */\n      tag_152\n        /* \"contracts/ValidatorDepositContract.sol\":1627:1666  contains(allValidatorNodes, msg.sender) */\n      jump\t// in\n    tag_244:\n        /* \"contracts/ValidatorDepositContract.sol\":1622:1727  if (!contains(allValidatorNodes, msg.sender)) {... */\n      tag_245\n      jumpi\n        /* \"contracts/ValidatorDepositContract.sol\":1682:1699  allValidatorNodes */\n      0x05\n        /* \"contracts/ValidatorDepositContract.sol\":1705:1715  msg.sender */\n      caller\n        /* \"contracts/ValidatorDepositContract.sol\":1682:1716  allValidatorNodes.push(msg.sender) */\n      swap1\n      dup1\n      0x01\n      dup2\n      sload\n      add\n      dup1\n      dup3\n      sstore\n      dup1\n      swap2\n      pop\n      pop\n      0x01\n      swap1\n      sub\n      swap1\n      0x00\n      mstore\n      keccak256(0x00, 0x20)\n      add\n      0x00\n      swap1\n      swap2\n      swap1\n      swap2\n      swap1\n      swap2\n      0x0100\n      exp\n      dup2\n      sload\n      dup2\n      0xffffffffffffffffffffffffffffffffffffffff\n      mul\n      not\n      and\n      swap1\n      dup4\n      0xffffffffffffffffffffffffffffffffffffffff\n      and\n      mul\n      or\n      swap1\n      sstore\n      pop\n        /* \"contracts/ValidatorDepositContract.sol\":1622:1727  if (!contains(allValidatorNodes, msg.sender)) {... */\n    tag_245:\n        /* \"contracts/ValidatorDepositContract.sol\":1156:1733  {... */\n      pop\n        /* \"@openzeppelin/contracts/security/ReentrancyGuard.sol\":2303:2323  _nonReentrantAfter() */\n      tag_247\n        /* \"@openzeppelin/contracts/security/ReentrancyGuard.sol\":2303:2321  _nonReentrantAfter */\n      tag_174\n        /* \"@openzeppelin/contracts/security/ReentrancyGuard.sol\":2303:2323  _nonReentrantAfter() */\n      jump\t// in\n    tag_247:\n        /* \"contracts/ValidatorDepositContract.sol\":1093:1733  function deposit() external payable nonReentrant whenNotPaused {... */\n      jump\t// out\n        /* \"@openzeppelin/contracts/access/Ownable.sol\":2074:2272  function transferOwnership(address newOwner) public virtual onlyOwner {... */\n    tag_111:\n        /* \"@openzeppelin/contracts/access/Ownable.sol\":1094:1107  _checkOwner() */\n      tag_249\n        /* \"@openzeppelin/contracts/access/Ownable.sol\":1094:1105  _checkOwner */\n      tag_114\n        /* \"@openzeppelin/contracts/access/Ownable.sol\":1094:1107  _checkOwner() */\n      jump\t// in\n    tag_249:\n        /* \"@openzeppelin/contracts/access/Ownable.sol\":2182:2183  0 */\n      0x00\n        /* \"@openzeppelin/contracts/access/Ownable.sol\":2162:2184  newOwner != address(0) */\n      0xffffffffffffffffffffffffffffffffffffffff\n      and\n        /* \"@openzeppelin/contracts/access/Ownable.sol\":2162:2170  newOwner */\n      dup2\n        /* \"@openzeppelin/contracts/access/Ownable.sol\":2162:2184  newOwner != address(0) */\n      0xffffffffffffffffffffffffffffffffffffffff\n      and\n      sub\n        /* \"@openzeppelin/contracts/access/Ownable.sol\":2154:2227  require(newOwner != address(0), \"Ownable: new owner is the zero address\") */\n      tag_251\n      jumpi\n      mload(0x40)\n      0x08c379a000000000000000000000000000000000000000000000000000000000\n      dup2\n      mstore\n      0x04\n      add\n      tag_252\n      swap1\n      tag_253\n      jump\t// in\n    tag_252:\n      mload(0x40)\n      dup1\n      swap2\n      sub\n      swap1\n      revert\n    tag_251:\n        /* \"@openzeppelin/contracts/access/Ownable.sol\":2237:2265  _transferOwnership(newOwner) */\n      tag_254\n        /* \"@openzeppelin/contracts/access/Ownable.sol\":2256:2264  newOwner */\n      dup2\n        /* \"@openzeppelin/contracts/access/Ownable.sol\":2237:2255  _transferOwnership */\n      tag_221\n        /* \"@openzeppelin/contracts/access/Ownable.sol\":2237:2265  _transferOwnership(newOwner) */\n      jump\t// in\n    tag_254:\n        /* \"@openzeppelin/contracts/access/Ownable.sol\":2074:2272  function transferOwnership(address newOwner) public virtual onlyOwner {... */\n      pop\n      jump\t// out\n        /* \"@openzeppelin/contracts/access/Ownable.sol\":1359:1489  function _checkOwner() internal view virtual {... */\n    tag_114:\n        /* \"@openzeppelin/contracts/access/Ownable.sol\":1433:1445  _msgSender() */\n      tag_256\n        /* \"@openzeppelin/contracts/access/Ownable.sol\":1433:1443  _msgSender */\n      tag_257\n        /* \"@openzeppelin/contracts/access/Ownable.sol\":1433:1445  _msgSender() */\n      jump\t// in\n    tag_256:\n        /* \"@openzeppelin/contracts/access/Ownable.sol\":1422:1445  owner() == _msgSender() */\n      0xffffffffffffffffffffffffffffffffffffffff\n      and\n        /* \"@openzeppelin/contracts/access/Ownable.sol\":1422:1429  owner() */\n      tag_258\n        /* \"@openzeppelin/contracts/access/Ownable.sol\":1422:1427  owner */\n      tag_87\n        /* \"@openzeppelin/contracts/access/Ownable.sol\":1422:1429  owner() */\n      jump\t// in\n    tag_258:\n        /* \"@openzeppelin/contracts/access/Ownable.sol\":1422:1445  owner() == _msgSender() */\n      0xffffffffffffffffffffffffffffffffffffffff\n      and\n      eq\n        /* \"@openzeppelin/contracts/access/Ownable.sol\":1414:1482  require(owner() == _msgSender(), \"Ownable: caller is not the owner\") */\n      tag_259\n      jumpi\n      mload(0x40)\n      0x08c379a000000000000000000000000000000000000000000000000000000000\n      dup2\n      mstore\n      0x04\n      add\n      tag_260\n      swap1\n      tag_261\n      jump\t// in\n    tag_260:\n      mload(0x40)\n      dup1\n      swap2\n      sub\n      swap1\n      revert\n    tag_259:\n        /* \"@openzeppelin/contracts/access/Ownable.sol\":1359:1489  function _checkOwner() internal view virtual {... */\n      jump\t// out\n        /* \"contracts/ValidatorDepositContract.sol\":6820:7083  function contains(address[] storage array, address element) internal view returns (bool) {... */\n    tag_152:\n        /* \"contracts/ValidatorDepositContract.sol\":6903:6907  bool */\n      0x00\n        /* \"contracts/ValidatorDepositContract.sol\":6924:6933  uint256 i */\n      dup1\n        /* \"contracts/ValidatorDepositContract.sol\":6936:6937  0 */\n      0x00\n        /* \"contracts/ValidatorDepositContract.sol\":6924:6937  uint256 i = 0 */\n      swap1\n      pop\n        /* \"contracts/ValidatorDepositContract.sol\":6919:7055  for (uint256 i = 0; i < array.length; i++) {... */\n    tag_263:\n        /* \"contracts/ValidatorDepositContract.sol\":6943:6948  array */\n      dup4\n        /* \"contracts/ValidatorDepositContract.sol\":6943:6955  array.length */\n      dup1\n      sload\n      swap1\n      pop\n        /* \"contracts/ValidatorDepositContract.sol\":6939:6940  i */\n      dup2\n        /* \"contracts/ValidatorDepositContract.sol\":6939:6955  i < array.length */\n      lt\n        /* \"contracts/ValidatorDepositContract.sol\":6919:7055  for (uint256 i = 0; i < array.length; i++) {... */\n      iszero\n      tag_264\n      jumpi\n        /* \"contracts/ValidatorDepositContract.sol\":6992:6999  element */\n      dup3\n        /* \"contracts/ValidatorDepositContract.sol\":6980:6999  array[i] == element */\n      0xffffffffffffffffffffffffffffffffffffffff\n      and\n        /* \"contracts/ValidatorDepositContract.sol\":6980:6985  array */\n      dup5\n        /* \"contracts/ValidatorDepositContract.sol\":6986:6987  i */\n      dup3\n        /* \"contracts/ValidatorDepositContract.sol\":6980:6988  array[i] */\n      dup2\n      sload\n      dup2\n      lt\n      tag_266\n      jumpi\n      tag_267\n      tag_132\n      jump\t// in\n    tag_267:\n    tag_266:\n      swap1\n      0x00\n      mstore\n      keccak256(0x00, 0x20)\n      add\n      0x00\n      swap1\n      sload\n      swap1\n      0x0100\n      exp\n      swap1\n      div\n      0xffffffffffffffffffffffffffffffffffffffff\n      and\n        /* \"contracts/ValidatorDepositContract.sol\":6980:6999  array[i] == element */\n      0xffffffffffffffffffffffffffffffffffffffff\n      and\n      sub\n        /* \"contracts/ValidatorDepositContract.sol\":6976:7045  if (array[i] == element) {... */\n      tag_269\n      jumpi\n        /* \"contracts/ValidatorDepositContract.sol\":7026:7030  true */\n      0x01\n        /* \"contracts/ValidatorDepositContract.sol\":7019:7030  return true */\n      swap2\n      pop\n      pop\n      jump(tag_262)\n        /* \"contracts/ValidatorDepositContract.sol\":6976:7045  if (array[i] == element) {... */\n    tag_269:\n        /* \"contracts/ValidatorDepositContract.sol\":6957:6960  i++ */\n      dup1\n      dup1\n      tag_270\n      swap1\n      tag_147\n      jump\t// in\n    tag_270:\n      swap2\n      pop\n      pop\n        /* \"contracts/ValidatorDepositContract.sol\":6919:7055  for (uint256 i = 0; i < array.length; i++) {... */\n      jump(tag_263)\n    tag_264:\n      pop\n        /* \"contracts/ValidatorDepositContract.sol\":7071:7076  false */\n      0x00\n        /* \"contracts/ValidatorDepositContract.sol\":7064:7076  return false */\n      swap1\n      pop\n        /* \"contracts/ValidatorDepositContract.sol\":6820:7083  function contains(address[] storage array, address element) internal view returns (bool) {... */\n    tag_262:\n      swap3\n      swap2\n      pop\n      pop\n      jump\t// out\n        /* \"@openzeppelin/contracts/security/ReentrancyGuard.sol\":2336:2623  function _nonReentrantBefore() private {... */\n    tag_157:\n        /* \"@openzeppelin/contracts/security/ReentrancyGuard.sol\":1759:1760  2 */\n      0x02\n        /* \"@openzeppelin/contracts/security/ReentrancyGuard.sol\":2468:2475  _status */\n      sload(0x00)\n        /* \"@openzeppelin/contracts/security/ReentrancyGuard.sol\":2468:2487  _status != _ENTERED */\n      sub\n        /* \"@openzeppelin/contracts/security/ReentrancyGuard.sol\":2460:2523  require(_status != _ENTERED, \"ReentrancyGuard: reentrant call\") */\n      tag_272\n      jumpi\n      mload(0x40)\n      0x08c379a000000000000000000000000000000000000000000000000000000000\n      dup2\n      mstore\n      0x04\n      add\n      tag_273\n      swap1\n      tag_274\n      jump\t// in\n    tag_273:\n      mload(0x40)\n      dup1\n      swap2\n      sub\n      swap1\n      revert\n    tag_272:\n        /* \"@openzeppelin/contracts/security/ReentrancyGuard.sol\":1759:1760  2 */\n      0x02\n        /* \"@openzeppelin/contracts/security/ReentrancyGuard.sol\":2598:2605  _status */\n      0x00\n        /* \"@openzeppelin/contracts/security/ReentrancyGuard.sol\":2598:2616  _status = _ENTERED */\n      dup2\n      swap1\n      sstore\n      pop\n        /* \"@openzeppelin/contracts/security/ReentrancyGuard.sol\":2336:2623  function _nonReentrantBefore() private {... */\n      jump\t// out\n        /* \"@openzeppelin/contracts/security/Pausable.sol\":1767:1873  function _requireNotPaused() internal view virtual {... */\n    tag_160:\n        /* \"@openzeppelin/contracts/security/Pausable.sol\":1837:1845  paused() */\n      tag_276\n        /* \"@openzeppelin/contracts/security/Pausable.sol\":1837:1843  paused */\n      tag_54\n        /* \"@openzeppelin/contracts/security/Pausable.sol\":1837:1845  paused() */\n      jump\t// in\n    tag_276:\n        /* \"@openzeppelin/contracts/security/Pausable.sol\":1836:1845  !paused() */\n      iszero\n        /* \"@openzeppelin/contracts/security/Pausable.sol\":1828:1866  require(!paused(), \"Pausable: paused\") */\n      tag_277\n      jumpi\n      mload(0x40)\n      0x08c379a000000000000000000000000000000000000000000000000000000000\n      dup2\n      mstore\n      0x04\n      add\n      tag_278\n      swap1\n      tag_279\n      jump\t// in\n    tag_278:\n      mload(0x40)\n      dup1\n      swap2\n      sub\n      swap1\n      revert\n    tag_277:\n        /* \"@openzeppelin/contracts/security/Pausable.sol\":1767:1873  function _requireNotPaused() internal view virtual {... */\n      jump\t// out\n        /* \"@openzeppelin/contracts/security/ReentrancyGuard.sol\":2629:2838  function _nonReentrantAfter() private {... */\n    tag_174:\n        /* \"@openzeppelin/contracts/security/ReentrancyGuard.sol\":1716:1717  1 */\n      0x01\n        /* \"@openzeppelin/contracts/security/ReentrancyGuard.sol\":2809:2816  _status */\n      0x00\n        /* \"@openzeppelin/contracts/security/ReentrancyGuard.sol\":2809:2831  _status = _NOT_ENTERED */\n      dup2\n      swap1\n      sstore\n      pop\n        /* \"@openzeppelin/contracts/security/ReentrancyGuard.sol\":2629:2838  function _nonReentrantAfter() private {... */\n      jump\t// out\n        /* \"@openzeppelin/contracts/security/Pausable.sol\":2186:2301  function _pause() internal virtual whenNotPaused {... */\n    tag_180:\n        /* \"@openzeppelin/contracts/security/Pausable.sol\":1239:1258  _requireNotPaused() */\n      tag_282\n        /* \"@openzeppelin/contracts/security/Pausable.sol\":1239:1256  _requireNotPaused */\n      tag_160\n        /* \"@openzeppelin/contracts/security/Pausable.sol\":1239:1258  _requireNotPaused() */\n      jump\t// in\n    tag_282:\n        /* \"@openzeppelin/contracts/security/Pausable.sol\":2255:2259  true */\n      0x01\n        /* \"@openzeppelin/contracts/security/Pausable.sol\":2245:2252  _paused */\n      dup1\n      0x14\n        /* \"@openzeppelin/contracts/security/Pausable.sol\":2245:2259  _paused = true */\n      0x0100\n      exp\n      dup2\n      sload\n      dup2\n      0xff\n      mul\n      not\n      and\n      swap1\n      dup4\n      iszero\n      iszero\n      mul\n      or\n      swap1\n      sstore\n      pop\n        /* \"@openzeppelin/contracts/security/Pausable.sol\":2274:2294  Paused(_msgSender()) */\n      0x62e78cea01bee320cd4e420270b5ea74000d11b0c9f74754ebdbfc544b05a258\n        /* \"@openzeppelin/contracts/security/Pausable.sol\":2281:2293  _msgSender() */\n      tag_284\n        /* \"@openzeppelin/contracts/security/Pausable.sol\":2281:2291  _msgSender */\n      tag_257\n        /* \"@openzeppelin/contracts/security/Pausable.sol\":2281:2293  _msgSender() */\n      jump\t// in\n    tag_284:\n        /* \"@openzeppelin/contracts/security/Pausable.sol\":2274:2294  Paused(_msgSender()) */\n      mload(0x40)\n      tag_285\n      swap2\n      swap1\n      tag_39\n      jump\t// in\n    tag_285:\n      mload(0x40)\n      dup1\n      swap2\n      sub\n      swap1\n      log1\n        /* \"@openzeppelin/contracts/security/Pausable.sol\":2186:2301  function _pause() internal virtual whenNotPaused {... */\n      jump\t// out\n        /* \"@openzeppelin/contracts/access/Ownable.sol\":2426:2613  function _transferOwnership(address newOwner) internal virtual {... */\n    tag_221:\n        /* \"@openzeppelin/contracts/access/Ownable.sol\":2499:2515  address oldOwner */\n      0x00\n        /* \"@openzeppelin/contracts/access/Ownable.sol\":2518:2524  _owner */\n      0x01\n      0x00\n      swap1\n      sload\n      swap1\n      0x0100\n      exp\n      swap1\n      div\n      0xffffffffffffffffffffffffffffffffffffffff\n      and\n        /* \"@openzeppelin/contracts/access/Ownable.sol\":2499:2524  address oldOwner = _owner */\n      swap1\n      pop\n        /* \"@openzeppelin/contracts/access/Ownable.sol\":2543:2551  newOwner */\n      dup2\n        /* \"@openzeppelin/contracts/access/Ownable.sol\":2534:2540  _owner */\n      0x01\n      0x00\n        /* \"@openzeppelin/contracts/access/Ownable.sol\":2534:2551  _owner = newOwner */\n      0x0100\n      exp\n      dup2\n      sload\n      dup2\n      0xffffffffffffffffffffffffffffffffffffffff\n      mul\n      not\n      and\n      swap1\n      dup4\n      0xffffffffffffffffffffffffffffffffffffffff\n      and\n      mul\n      or\n      swap1\n      sstore\n      pop\n        /* \"@openzeppelin/contracts/access/Ownable.sol\":2597:2605  newOwner */\n      dup2\n        /* \"@openzeppelin/contracts/access/Ownable.sol\":2566:2606  OwnershipTransferred(oldOwner, newOwner) */\n      0xffffffffffffffffffffffffffffffffffffffff\n      and\n        /* \"@openzeppelin/contracts/access/Ownable.sol\":2587:2595  oldOwner */\n      dup2\n        /* \"@openzeppelin/contracts/access/Ownable.sol\":2566:2606  OwnershipTransferred(oldOwner, newOwner) */\n      0xffffffffffffffffffffffffffffffffffffffff\n      and\n      0x8be0079c531659141344cd1fd0a4f28419497f9722a3daafe3b4186f6b6457e0\n      mload(0x40)\n      mload(0x40)\n      dup1\n      swap2\n      sub\n      swap1\n      log3\n        /* \"@openzeppelin/contracts/access/Ownable.sol\":2489:2613  {... */\n      pop\n        /* \"@openzeppelin/contracts/access/Ownable.sol\":2426:2613  function _transferOwnership(address newOwner) internal virtual {... */\n      pop\n      jump\t// out\n        /* \"@openzeppelin/contracts/security/Pausable.sol\":2433:2550  function _unpause() internal virtual whenPaused {... */\n    tag_230:\n        /* \"@openzeppelin/contracts/security/Pausable.sol\":1486:1502  _requirePaused() */\n      tag_288\n        /* \"@openzeppelin/contracts/security/Pausable.sol\":1486:1500  _requirePaused */\n      tag_289\n        /* \"@openzeppelin/contracts/security/Pausable.sol\":1486:1502  _requirePaused() */\n      jump\t// in\n    tag_288:\n        /* \"@openzeppelin/contracts/security/Pausable.sol\":2501:2506  false */\n      0x00\n        /* \"@openzeppelin/contracts/security/Pausable.sol\":2491:2498  _paused */\n      0x01\n      0x14\n        /* \"@openzeppelin/contracts/security/Pausable.sol\":2491:2506  _paused = false */\n      0x0100\n      exp\n      dup2\n      sload\n      dup2\n      0xff\n      mul\n      not\n      and\n      swap1\n      dup4\n      iszero\n      iszero\n      mul\n      or\n      swap1\n      sstore\n      pop\n        /* \"@openzeppelin/contracts/security/Pausable.sol\":2521:2543  Unpaused(_msgSender()) */\n      0x5db9ee0a495bf2e6ff9c91a7834c1ba4fdd244a5e8aa4e537bd38aeae4b073aa\n        /* \"@openzeppelin/contracts/security/Pausable.sol\":2530:2542  _msgSender() */\n      tag_291\n        /* \"@openzeppelin/contracts/security/Pausable.sol\":2530:2540  _msgSender */\n      tag_257\n        /* \"@openzeppelin/contracts/security/Pausable.sol\":2530:2542  _msgSender() */\n      jump\t// in\n    tag_291:\n        /* \"@openzeppelin/contracts/security/Pausable.sol\":2521:2543  Unpaused(_msgSender()) */\n      mload(0x40)\n      tag_292\n      swap2\n      swap1\n      tag_39\n      jump\t// in\n    tag_292:\n      mload(0x40)\n      dup1\n      swap2\n      sub\n      swap1\n      log1\n        /* \"@openzeppelin/contracts/security/Pausable.sol\":2433:2550  function _unpause() internal virtual whenPaused {... */\n      jump\t// out\n        /* \"@openzeppelin/contracts/utils/Context.sol\":640:736  function _msgSender() internal view virtual returns (address) {... */\n    tag_257:\n        /* \"@openzeppelin/contracts/utils/Context.sol\":693:700  address */\n      0x00\n        /* \"@openzeppelin/contracts/utils/Context.sol\":719:729  msg.sender */\n      caller\n        /* \"@openzeppelin/contracts/utils/Context.sol\":712:729  return msg.sender */\n      swap1\n      pop\n        /* \"@openzeppelin/contracts/utils/Context.sol\":640:736  function _msgSender() internal view virtual returns (address) {... */\n      swap1\n      jump\t// out\n        /* \"@openzeppelin/contracts/security/Pausable.sol\":1945:2051  function _requirePaused() internal view virtual {... */\n    tag_289:\n        /* \"@openzeppelin/contracts/security/Pausable.sol\":2011:2019  paused() */\n      tag_295\n        /* \"@openzeppelin/contracts/security/Pausable.sol\":2011:2017  paused */\n      tag_54\n        /* \"@openzeppelin/contracts/security/Pausable.sol\":2011:2019  paused() */\n      jump\t// in\n    tag_295:\n        /* \"@openzeppelin/contracts/security/Pausable.sol\":2003:2044  require(paused(), \"Pausable: not paused\") */\n      tag_296\n      jumpi\n      mload(0x40)\n      0x08c379a000000000000000000000000000000000000000000000000000000000\n      dup2\n      mstore\n      0x04\n      add\n      tag_297\n      swap1\n      tag_298\n      jump\t// in\n    tag_297:\n      mload(0x40)\n      dup1\n      swap2\n      sub\n      swap1\n      revert\n    tag_296:\n        /* \"@openzeppelin/contracts/security/Pausable.sol\":1945:2051  function _requirePaused() internal view virtual {... */\n      jump\t// out\n        /* \"#utility.yul\":88:205   */\n    tag_300:\n        /* \"#utility.yul\":197:198   */\n      0x00\n        /* \"#utility.yul\":194:195   */\n      dup1\n        /* \"#utility.yul\":187:199   */\n      revert\n        /* \"#utility.yul\":334:460   */\n    tag_302:\n        /* \"#utility.yul\":371:378   */\n      0x00\n        /* \"#utility.yul\":411:453   */\n      0xffffffffffffffffffffffffffffffffffffffff\n        /* \"#utility.yul\":404:409   */\n      dup3\n        /* \"#utility.yul\":400:454   */\n      and\n        /* \"#utility.yul\":389:454   */\n      swap1\n      pop\n        /* \"#utility.yul\":334:460   */\n      swap2\n      swap1\n      pop\n      jump\t// out\n        /* \"#utility.yul\":466:562   */\n    tag_303:\n        /* \"#utility.yul\":503:510   */\n      0x00\n        /* \"#utility.yul\":532:556   */\n      tag_352\n        /* \"#utility.yul\":550:555   */\n      dup3\n        /* \"#utility.yul\":532:556   */\n      tag_302\n      jump\t// in\n    tag_352:\n        /* \"#utility.yul\":521:556   */\n      swap1\n      pop\n        /* \"#utility.yul\":466:562   */\n      swap2\n      swap1\n      pop\n      jump\t// out\n        /* \"#utility.yul\":568:690   */\n    tag_304:\n        /* \"#utility.yul\":641:665   */\n      tag_354\n        /* \"#utility.yul\":659:664   */\n      dup2\n        /* \"#utility.yul\":641:665   */\n      tag_303\n      jump\t// in\n    tag_354:\n        /* \"#utility.yul\":634:639   */\n      dup2\n        /* \"#utility.yul\":631:666   */\n      eq\n        /* \"#utility.yul\":621:684   */\n      tag_355\n      jumpi\n        /* \"#utility.yul\":680:681   */\n      0x00\n        /* \"#utility.yul\":677:678   */\n      dup1\n        /* \"#utility.yul\":670:682   */\n      revert\n        /* \"#utility.yul\":621:684   */\n    tag_355:\n        /* \"#utility.yul\":568:690   */\n      pop\n      jump\t// out\n        /* \"#utility.yul\":696:835   */\n    tag_305:\n        /* \"#utility.yul\":742:747   */\n      0x00\n        /* \"#utility.yul\":780:786   */\n      dup2\n        /* \"#utility.yul\":767:787   */\n      calldataload\n        /* \"#utility.yul\":758:787   */\n      swap1\n      pop\n        /* \"#utility.yul\":796:829   */\n      tag_357\n        /* \"#utility.yul\":823:828   */\n      dup2\n        /* \"#utility.yul\":796:829   */\n      tag_304\n      jump\t// in\n    tag_357:\n        /* \"#utility.yul\":696:835   */\n      swap3\n      swap2\n      pop\n      pop\n      jump\t// out\n        /* \"#utility.yul\":841:1170   */\n    tag_28:\n        /* \"#utility.yul\":900:906   */\n      0x00\n        /* \"#utility.yul\":949:951   */\n      0x20\n        /* \"#utility.yul\":937:946   */\n      dup3\n        /* \"#utility.yul\":928:935   */\n      dup5\n        /* \"#utility.yul\":924:947   */\n      sub\n        /* \"#utility.yul\":920:952   */\n      slt\n        /* \"#utility.yul\":917:1036   */\n      iszero\n      tag_359\n      jumpi\n        /* \"#utility.yul\":955:1034   */\n      tag_360\n      tag_300\n      jump\t// in\n    tag_360:\n        /* \"#utility.yul\":917:1036   */\n    tag_359:\n        /* \"#utility.yul\":1075:1076   */\n      0x00\n        /* \"#utility.yul\":1100:1153   */\n      tag_361\n        /* \"#utility.yul\":1145:1152   */\n      dup5\n        /* \"#utility.yul\":1136:1142   */\n      dup3\n        /* \"#utility.yul\":1125:1134   */\n      dup6\n        /* \"#utility.yul\":1121:1143   */\n      add\n        /* \"#utility.yul\":1100:1153   */\n      tag_305\n      jump\t// in\n    tag_361:\n        /* \"#utility.yul\":1090:1153   */\n      swap2\n      pop\n        /* \"#utility.yul\":1046:1163   */\n      pop\n        /* \"#utility.yul\":841:1170   */\n      swap3\n      swap2\n      pop\n      pop\n      jump\t// out\n        /* \"#utility.yul\":1176:1650   */\n    tag_33:\n        /* \"#utility.yul\":1244:1250   */\n      0x00\n        /* \"#utility.yul\":1252:1258   */\n      dup1\n        /* \"#utility.yul\":1301:1303   */\n      0x40\n        /* \"#utility.yul\":1289:1298   */\n      dup4\n        /* \"#utility.yul\":1280:1287   */\n      dup6\n        /* \"#utility.yul\":1276:1299   */\n      sub\n        /* \"#utility.yul\":1272:1304   */\n      slt\n        /* \"#utility.yul\":1269:1388   */\n      iszero\n      tag_363\n      jumpi\n        /* \"#utility.yul\":1307:1386   */\n      tag_364\n      tag_300\n      jump\t// in\n    tag_364:\n        /* \"#utility.yul\":1269:1388   */\n    tag_363:\n        /* \"#utility.yul\":1427:1428   */\n      0x00\n        /* \"#utility.yul\":1452:1505   */\n      tag_365\n        /* \"#utility.yul\":1497:1504   */\n      dup6\n        /* \"#utility.yul\":1488:1494   */\n      dup3\n        /* \"#utility.yul\":1477:1486   */\n      dup7\n        /* \"#utility.yul\":1473:1495   */\n      add\n        /* \"#utility.yul\":1452:1505   */\n      tag_305\n      jump\t// in\n    tag_365:\n        /* \"#utility.yul\":1442:1505   */\n      swap3\n      pop\n        /* \"#utility.yul\":1398:1515   */\n      pop\n        /* \"#utility.yul\":1554:1556   */\n      0x20\n        /* \"#utility.yul\":1580:1633   */\n      tag_366\n        /* \"#utility.yul\":1625:1632   */\n      dup6\n        /* \"#utility.yul\":1616:1622   */\n      dup3\n        /* \"#utility.yul\":1605:1614   */\n      dup7\n        /* \"#utility.yul\":1601:1623   */\n      add\n        /* \"#utility.yul\":1580:1633   */\n      tag_305\n      jump\t// in\n    tag_366:\n        /* \"#utility.yul\":1570:1633   */\n      swap2\n      pop\n        /* \"#utility.yul\":1525:1643   */\n      pop\n        /* \"#utility.yul\":1176:1650   */\n      swap3\n      pop\n      swap3\n      swap1\n      pop\n      jump\t// out\n        /* \"#utility.yul\":1656:1774   */\n    tag_306:\n        /* \"#utility.yul\":1743:1767   */\n      tag_368\n        /* \"#utility.yul\":1761:1766   */\n      dup2\n        /* \"#utility.yul\":1743:1767   */\n      tag_303\n      jump\t// in\n    tag_368:\n        /* \"#utility.yul\":1738:1741   */\n      dup3\n        /* \"#utility.yul\":1731:1768   */\n      mstore\n        /* \"#utility.yul\":1656:1774   */\n      pop\n      pop\n      jump\t// out\n        /* \"#utility.yul\":1780:2002   */\n    tag_39:\n        /* \"#utility.yul\":1873:1877   */\n      0x00\n        /* \"#utility.yul\":1911:1913   */\n      0x20\n        /* \"#utility.yul\":1900:1909   */\n      dup3\n        /* \"#utility.yul\":1896:1914   */\n      add\n        /* \"#utility.yul\":1888:1914   */\n      swap1\n      pop\n        /* \"#utility.yul\":1924:1995   */\n      tag_370\n        /* \"#utility.yul\":1992:1993   */\n      0x00\n        /* \"#utility.yul\":1981:1990   */\n      dup4\n        /* \"#utility.yul\":1977:1994   */\n      add\n        /* \"#utility.yul\":1968:1974   */\n      dup5\n        /* \"#utility.yul\":1924:1995   */\n      tag_306\n      jump\t// in\n    tag_370:\n        /* \"#utility.yul\":1780:2002   */\n      swap3\n      swap2\n      pop\n      pop\n      jump\t// out\n        /* \"#utility.yul\":2008:2085   */\n    tag_307:\n        /* \"#utility.yul\":2045:2052   */\n      0x00\n        /* \"#utility.yul\":2074:2079   */\n      dup2\n        /* \"#utility.yul\":2063:2079   */\n      swap1\n      pop\n        /* \"#utility.yul\":2008:2085   */\n      swap2\n      swap1\n      pop\n      jump\t// out\n        /* \"#utility.yul\":2091:2209   */\n    tag_308:\n        /* \"#utility.yul\":2178:2202   */\n      tag_373\n        /* \"#utility.yul\":2196:2201   */\n      dup2\n        /* \"#utility.yul\":2178:2202   */\n      tag_307\n      jump\t// in\n    tag_373:\n        /* \"#utility.yul\":2173:2176   */\n      dup3\n        /* \"#utility.yul\":2166:2203   */\n      mstore\n        /* \"#utility.yul\":2091:2209   */\n      pop\n      pop\n      jump\t// out\n        /* \"#utility.yul\":2215:2657   */\n    tag_48:\n        /* \"#utility.yul\":2364:2368   */\n      0x00\n        /* \"#utility.yul\":2402:2404   */\n      0x60\n        /* \"#utility.yul\":2391:2400   */\n      dup3\n        /* \"#utility.yul\":2387:2405   */\n      add\n        /* \"#utility.yul\":2379:2405   */\n      swap1\n      pop\n        /* \"#utility.yul\":2415:2486   */\n      tag_375\n        /* \"#utility.yul\":2483:2484   */\n      0x00\n        /* \"#utility.yul\":2472:2481   */\n      dup4\n        /* \"#utility.yul\":2468:2485   */\n      add\n        /* \"#utility.yul\":2459:2465   */\n      dup7\n        /* \"#utility.yul\":2415:2486   */\n      tag_306\n      jump\t// in\n    tag_375:\n        /* \"#utility.yul\":2496:2568   */\n      tag_376\n        /* \"#utility.yul\":2564:2566   */\n      0x20\n        /* \"#utility.yul\":2553:2562   */\n      dup4\n        /* \"#utility.yul\":2549:2567   */\n      add\n        /* \"#utility.yul\":2540:2546   */\n      dup6\n        /* \"#utility.yul\":2496:2568   */\n      tag_308\n      jump\t// in\n    tag_376:\n        /* \"#utility.yul\":2578:2650   */\n      tag_377\n        /* \"#utility.yul\":2646:2648   */\n      0x40\n        /* \"#utility.yul\":2635:2644   */\n      dup4\n        /* \"#utility.yul\":2631:2649   */\n      add\n        /* \"#utility.yul\":2622:2628   */\n      dup5\n        /* \"#utility.yul\":2578:2650   */\n      tag_308\n      jump\t// in\n    tag_377:\n        /* \"#utility.yul\":2215:2657   */\n      swap5\n      swap4\n      pop\n      pop\n      pop\n      pop\n      jump\t// out\n        /* \"#utility.yul\":2663:2753   */\n    tag_309:\n        /* \"#utility.yul\":2697:2704   */\n      0x00\n        /* \"#utility.yul\":2740:2745   */\n      dup2\n        /* \"#utility.yul\":2733:2746   */\n      iszero\n        /* \"#utility.yul\":2726:2747   */\n      iszero\n        /* \"#utility.yul\":2715:2747   */\n      swap1\n      pop\n        /* \"#utility.yul\":2663:2753   */\n      swap2\n      swap1\n      pop\n      jump\t// out\n        /* \"#utility.yul\":2759:2868   */\n    tag_310:\n        /* \"#utility.yul\":2840:2861   */\n      tag_380\n        /* \"#utility.yul\":2855:2860   */\n      dup2\n        /* \"#utility.yul\":2840:2861   */\n      tag_309\n      jump\t// in\n    tag_380:\n        /* \"#utility.yul\":2835:2838   */\n      dup3\n        /* \"#utility.yul\":2828:2862   */\n      mstore\n        /* \"#utility.yul\":2759:2868   */\n      pop\n      pop\n      jump\t// out\n        /* \"#utility.yul\":2874:3084   */\n    tag_56:\n        /* \"#utility.yul\":2961:2965   */\n      0x00\n        /* \"#utility.yul\":2999:3001   */\n      0x20\n        /* \"#utility.yul\":2988:2997   */\n      dup3\n        /* \"#utility.yul\":2984:3002   */\n      add\n        /* \"#utility.yul\":2976:3002   */\n      swap1\n      pop\n        /* \"#utility.yul\":3012:3077   */\n      tag_382\n        /* \"#utility.yul\":3074:3075   */\n      0x00\n        /* \"#utility.yul\":3063:3072   */\n      dup4\n        /* \"#utility.yul\":3059:3076   */\n      add\n        /* \"#utility.yul\":3050:3056   */\n      dup5\n        /* \"#utility.yul\":3012:3077   */\n      tag_310\n      jump\t// in\n    tag_382:\n        /* \"#utility.yul\":2874:3084   */\n      swap3\n      swap2\n      pop\n      pop\n      jump\t// out\n        /* \"#utility.yul\":3090:3212   */\n    tag_311:\n        /* \"#utility.yul\":3163:3187   */\n      tag_384\n        /* \"#utility.yul\":3181:3186   */\n      dup2\n        /* \"#utility.yul\":3163:3187   */\n      tag_307\n      jump\t// in\n    tag_384:\n        /* \"#utility.yul\":3156:3161   */\n      dup2\n        /* \"#utility.yul\":3153:3188   */\n      eq\n        /* \"#utility.yul\":3143:3206   */\n      tag_385\n      jumpi\n        /* \"#utility.yul\":3202:3203   */\n      0x00\n        /* \"#utility.yul\":3199:3200   */\n      dup1\n        /* \"#utility.yul\":3192:3204   */\n      revert\n        /* \"#utility.yul\":3143:3206   */\n    tag_385:\n        /* \"#utility.yul\":3090:3212   */\n      pop\n      jump\t// out\n        /* \"#utility.yul\":3218:3357   */\n    tag_312:\n        /* \"#utility.yul\":3264:3269   */\n      0x00\n        /* \"#utility.yul\":3302:3308   */\n      dup2\n        /* \"#utility.yul\":3289:3309   */\n      calldataload\n        /* \"#utility.yul\":3280:3309   */\n      swap1\n      pop\n        /* \"#utility.yul\":3318:3351   */\n      tag_387\n        /* \"#utility.yul\":3345:3350   */\n      dup2\n        /* \"#utility.yul\":3318:3351   */\n      tag_311\n      jump\t// in\n    tag_387:\n        /* \"#utility.yul\":3218:3357   */\n      swap3\n      swap2\n      pop\n      pop\n      jump\t// out\n        /* \"#utility.yul\":3363:3692   */\n    tag_60:\n        /* \"#utility.yul\":3422:3428   */\n      0x00\n        /* \"#utility.yul\":3471:3473   */\n      0x20\n        /* \"#utility.yul\":3459:3468   */\n      dup3\n        /* \"#utility.yul\":3450:3457   */\n      dup5\n        /* \"#utility.yul\":3446:3469   */\n      sub\n        /* \"#utility.yul\":3442:3474   */\n      slt\n        /* \"#utility.yul\":3439:3558   */\n      iszero\n      tag_389\n      jumpi\n        /* \"#utility.yul\":3477:3556   */\n      tag_390\n      tag_300\n      jump\t// in\n    tag_390:\n        /* \"#utility.yul\":3439:3558   */\n    tag_389:\n        /* \"#utility.yul\":3597:3598   */\n      0x00\n        /* \"#utility.yul\":3622:3675   */\n      tag_391\n        /* \"#utility.yul\":3667:3674   */\n      dup5\n        /* \"#utility.yul\":3658:3664   */\n      dup3\n        /* \"#utility.yul\":3647:3656   */\n      dup6\n        /* \"#utility.yul\":3643:3665   */\n      add\n        /* \"#utility.yul\":3622:3675   */\n      tag_312\n      jump\t// in\n    tag_391:\n        /* \"#utility.yul\":3612:3675   */\n      swap2\n      pop\n        /* \"#utility.yul\":3568:3685   */\n      pop\n        /* \"#utility.yul\":3363:3692   */\n      swap3\n      swap2\n      pop\n      pop\n      jump\t// out\n        /* \"#utility.yul\":3698:3812   */\n    tag_313:\n        /* \"#utility.yul\":3765:3771   */\n      0x00\n        /* \"#utility.yul\":3799:3804   */\n      dup2\n        /* \"#utility.yul\":3793:3805   */\n      mload\n        /* \"#utility.yul\":3783:3805   */\n      swap1\n      pop\n        /* \"#utility.yul\":3698:3812   */\n      swap2\n      swap1\n      pop\n      jump\t// out\n        /* \"#utility.yul\":3818:4002   */\n    tag_314:\n        /* \"#utility.yul\":3917:3928   */\n      0x00\n        /* \"#utility.yul\":3951:3957   */\n      dup3\n        /* \"#utility.yul\":3946:3949   */\n      dup3\n        /* \"#utility.yul\":3939:3958   */\n      mstore\n        /* \"#utility.yul\":3991:3995   */\n      0x20\n        /* \"#utility.yul\":3986:3989   */\n      dup3\n        /* \"#utility.yul\":3982:3996   */\n      add\n        /* \"#utility.yul\":3967:3996   */\n      swap1\n      pop\n        /* \"#utility.yul\":3818:4002   */\n      swap3\n      swap2\n      pop\n      pop\n      jump\t// out\n        /* \"#utility.yul\":4008:4140   */\n    tag_315:\n        /* \"#utility.yul\":4075:4079   */\n      0x00\n        /* \"#utility.yul\":4098:4101   */\n      dup2\n        /* \"#utility.yul\":4090:4101   */\n      swap1\n      pop\n        /* \"#utility.yul\":4128:4132   */\n      0x20\n        /* \"#utility.yul\":4123:4126   */\n      dup3\n        /* \"#utility.yul\":4119:4133   */\n      add\n        /* \"#utility.yul\":4111:4133   */\n      swap1\n      pop\n        /* \"#utility.yul\":4008:4140   */\n      swap2\n      swap1\n      pop\n      jump\t// out\n        /* \"#utility.yul\":4146:4254   */\n    tag_316:\n        /* \"#utility.yul\":4223:4247   */\n      tag_396\n        /* \"#utility.yul\":4241:4246   */\n      dup2\n        /* \"#utility.yul\":4223:4247   */\n      tag_303\n      jump\t// in\n    tag_396:\n        /* \"#utility.yul\":4218:4221   */\n      dup3\n        /* \"#utility.yul\":4211:4248   */\n      mstore\n        /* \"#utility.yul\":4146:4254   */\n      pop\n      pop\n      jump\t// out\n        /* \"#utility.yul\":4260:4439   */\n    tag_317:\n        /* \"#utility.yul\":4329:4339   */\n      0x00\n        /* \"#utility.yul\":4350:4396   */\n      tag_398\n        /* \"#utility.yul\":4392:4395   */\n      dup4\n        /* \"#utility.yul\":4384:4390   */\n      dup4\n        /* \"#utility.yul\":4350:4396   */\n      tag_316\n      jump\t// in\n    tag_398:\n        /* \"#utility.yul\":4428:4432   */\n      0x20\n        /* \"#utility.yul\":4423:4426   */\n      dup4\n        /* \"#utility.yul\":4419:4433   */\n      add\n        /* \"#utility.yul\":4405:4433   */\n      swap1\n      pop\n        /* \"#utility.yul\":4260:4439   */\n      swap3\n      swap2\n      pop\n      pop\n      jump\t// out\n        /* \"#utility.yul\":4445:4558   */\n    tag_318:\n        /* \"#utility.yul\":4515:4519   */\n      0x00\n        /* \"#utility.yul\":4547:4551   */\n      0x20\n        /* \"#utility.yul\":4542:4545   */\n      dup3\n        /* \"#utility.yul\":4538:4552   */\n      add\n        /* \"#utility.yul\":4530:4552   */\n      swap1\n      pop\n        /* \"#utility.yul\":4445:4558   */\n      swap2\n      swap1\n      pop\n      jump\t// out\n        /* \"#utility.yul\":4594:5326   */\n    tag_319:\n        /* \"#utility.yul\":4713:4716   */\n      0x00\n        /* \"#utility.yul\":4742:4796   */\n      tag_401\n        /* \"#utility.yul\":4790:4795   */\n      dup3\n        /* \"#utility.yul\":4742:4796   */\n      tag_313\n      jump\t// in\n    tag_401:\n        /* \"#utility.yul\":4812:4898   */\n      tag_402\n        /* \"#utility.yul\":4891:4897   */\n      dup2\n        /* \"#utility.yul\":4886:4889   */\n      dup6\n        /* \"#utility.yul\":4812:4898   */\n      tag_314\n      jump\t// in\n    tag_402:\n        /* \"#utility.yul\":4805:4898   */\n      swap4\n      pop\n        /* \"#utility.yul\":4922:4978   */\n      tag_403\n        /* \"#utility.yul\":4972:4977   */\n      dup4\n        /* \"#utility.yul\":4922:4978   */\n      tag_315\n      jump\t// in\n    tag_403:\n        /* \"#utility.yul\":5001:5008   */\n      dup1\n        /* \"#utility.yul\":5032:5033   */\n      0x00\n        /* \"#utility.yul\":5017:5301   */\n    tag_404:\n        /* \"#utility.yul\":5042:5048   */\n      dup4\n        /* \"#utility.yul\":5039:5040   */\n      dup2\n        /* \"#utility.yul\":5036:5049   */\n      lt\n        /* \"#utility.yul\":5017:5301   */\n      iszero\n      tag_406\n      jumpi\n        /* \"#utility.yul\":5118:5124   */\n      dup2\n        /* \"#utility.yul\":5112:5125   */\n      mload\n        /* \"#utility.yul\":5145:5208   */\n      tag_407\n        /* \"#utility.yul\":5204:5207   */\n      dup9\n        /* \"#utility.yul\":5189:5202   */\n      dup3\n        /* \"#utility.yul\":5145:5208   */\n      tag_317\n      jump\t// in\n    tag_407:\n        /* \"#utility.yul\":5138:5208   */\n      swap8\n      pop\n        /* \"#utility.yul\":5231:5291   */\n      tag_408\n        /* \"#utility.yul\":5284:5290   */\n      dup4\n        /* \"#utility.yul\":5231:5291   */\n      tag_318\n      jump\t// in\n    tag_408:\n        /* \"#utility.yul\":5221:5291   */\n      swap3\n      pop\n        /* \"#utility.yul\":5077:5301   */\n      pop\n        /* \"#utility.yul\":5064:5065   */\n      0x01\n        /* \"#utility.yul\":5061:5062   */\n      dup2\n        /* \"#utility.yul\":5057:5066   */\n      add\n        /* \"#utility.yul\":5052:5066   */\n      swap1\n      pop\n        /* \"#utility.yul\":5017:5301   */\n      jump(tag_404)\n    tag_406:\n        /* \"#utility.yul\":5021:5035   */\n      pop\n        /* \"#utility.yul\":5317:5320   */\n      dup6\n        /* \"#utility.yul\":5310:5320   */\n      swap4\n      pop\n        /* \"#utility.yul\":4718:5326   */\n      pop\n      pop\n      pop\n        /* \"#utility.yul\":4594:5326   */\n      swap3\n      swap2\n      pop\n      pop\n      jump\t// out\n        /* \"#utility.yul\":5332:5446   */\n    tag_320:\n        /* \"#utility.yul\":5399:5405   */\n      0x00\n        /* \"#utility.yul\":5433:5438   */\n      dup2\n        /* \"#utility.yul\":5427:5439   */\n      mload\n        /* \"#utility.yul\":5417:5439   */\n      swap1\n      pop\n        /* \"#utility.yul\":5332:5446   */\n      swap2\n      swap1\n      pop\n      jump\t// out\n        /* \"#utility.yul\":5452:5636   */\n    tag_321:\n        /* \"#utility.yul\":5551:5562   */\n      0x00\n        /* \"#utility.yul\":5585:5591   */\n      dup3\n        /* \"#utility.yul\":5580:5583   */\n      dup3\n        /* \"#utility.yul\":5573:5592   */\n      mstore\n        /* \"#utility.yul\":5625:5629   */\n      0x20\n        /* \"#utility.yul\":5620:5623   */\n      dup3\n        /* \"#utility.yul\":5616:5630   */\n      add\n        /* \"#utility.yul\":5601:5630   */\n      swap1\n      pop\n        /* \"#utility.yul\":5452:5636   */\n      swap3\n      swap2\n      pop\n      pop\n      jump\t// out\n        /* \"#utility.yul\":5642:5774   */\n    tag_322:\n        /* \"#utility.yul\":5709:5713   */\n      0x00\n        /* \"#utility.yul\":5732:5735   */\n      dup2\n        /* \"#utility.yul\":5724:5735   */\n      swap1\n      pop\n        /* \"#utility.yul\":5762:5766   */\n      0x20\n        /* \"#utility.yul\":5757:5760   */\n      dup3\n        /* \"#utility.yul\":5753:5767   */\n      add\n        /* \"#utility.yul\":5745:5767   */\n      swap1\n      pop\n        /* \"#utility.yul\":5642:5774   */\n      swap2\n      swap1\n      pop\n      jump\t// out\n        /* \"#utility.yul\":5780:5888   */\n    tag_323:\n        /* \"#utility.yul\":5857:5881   */\n      tag_413\n        /* \"#utility.yul\":5875:5880   */\n      dup2\n        /* \"#utility.yul\":5857:5881   */\n      tag_307\n      jump\t// in\n    tag_413:\n        /* \"#utility.yul\":5852:5855   */\n      dup3\n        /* \"#utility.yul\":5845:5882   */\n      mstore\n        /* \"#utility.yul\":5780:5888   */\n      pop\n      pop\n      jump\t// out\n        /* \"#utility.yul\":5894:6073   */\n    tag_324:\n        /* \"#utility.yul\":5963:5973   */\n      0x00\n        /* \"#utility.yul\":5984:6030   */\n      tag_415\n        /* \"#utility.yul\":6026:6029   */\n      dup4\n        /* \"#utility.yul\":6018:6024   */\n      dup4\n        /* \"#utility.yul\":5984:6030   */\n      tag_323\n      jump\t// in\n    tag_415:\n        /* \"#utility.yul\":6062:6066   */\n      0x20\n        /* \"#utility.yul\":6057:6060   */\n      dup4\n        /* \"#utility.yul\":6053:6067   */\n      add\n        /* \"#utility.yul\":6039:6067   */\n      swap1\n      pop\n        /* \"#utility.yul\":5894:6073   */\n      swap3\n      swap2\n      pop\n      pop\n      jump\t// out\n        /* \"#utility.yul\":6079:6192   */\n    tag_325:\n        /* \"#utility.yul\":6149:6153   */\n      0x00\n        /* \"#utility.yul\":6181:6185   */\n      0x20\n        /* \"#utility.yul\":6176:6179   */\n      dup3\n        /* \"#utility.yul\":6172:6186   */\n      add\n        /* \"#utility.yul\":6164:6186   */\n      swap1\n      pop\n        /* \"#utility.yul\":6079:6192   */\n      swap2\n      swap1\n      pop\n      jump\t// out\n        /* \"#utility.yul\":6228:6960   */\n    tag_326:\n        /* \"#utility.yul\":6347:6350   */\n      0x00\n        /* \"#utility.yul\":6376:6430   */\n      tag_418\n        /* \"#utility.yul\":6424:6429   */\n      dup3\n        /* \"#utility.yul\":6376:6430   */\n      tag_320\n      jump\t// in\n    tag_418:\n        /* \"#utility.yul\":6446:6532   */\n      tag_419\n        /* \"#utility.yul\":6525:6531   */\n      dup2\n        /* \"#utility.yul\":6520:6523   */\n      dup6\n        /* \"#utility.yul\":6446:6532   */\n      tag_321\n      jump\t// in\n    tag_419:\n        /* \"#utility.yul\":6439:6532   */\n      swap4\n      pop\n        /* \"#utility.yul\":6556:6612   */\n      tag_420\n        /* \"#utility.yul\":6606:6611   */\n      dup4\n        /* \"#utility.yul\":6556:6612   */\n      tag_322\n      jump\t// in\n    tag_420:\n        /* \"#utility.yul\":6635:6642   */\n      dup1\n        /* \"#utility.yul\":6666:6667   */\n      0x00\n        /* \"#utility.yul\":6651:6935   */\n    tag_421:\n        /* \"#utility.yul\":6676:6682   */\n      dup4\n        /* \"#utility.yul\":6673:6674   */\n      dup2\n        /* \"#utility.yul\":6670:6683   */\n      lt\n        /* \"#utility.yul\":6651:6935   */\n      iszero\n      tag_423\n      jumpi\n        /* \"#utility.yul\":6752:6758   */\n      dup2\n        /* \"#utility.yul\":6746:6759   */\n      mload\n        /* \"#utility.yul\":6779:6842   */\n      tag_424\n        /* \"#utility.yul\":6838:6841   */\n      dup9\n        /* \"#utility.yul\":6823:6836   */\n      dup3\n        /* \"#utility.yul\":6779:6842   */\n      tag_324\n      jump\t// in\n    tag_424:\n        /* \"#utility.yul\":6772:6842   */\n      swap8\n      pop\n        /* \"#utility.yul\":6865:6925   */\n      tag_425\n        /* \"#utility.yul\":6918:6924   */\n      dup4\n        /* \"#utility.yul\":6865:6925   */\n      tag_325\n      jump\t// in\n    tag_425:\n        /* \"#utility.yul\":6855:6925   */\n      swap3\n      pop\n        /* \"#utility.yul\":6711:6935   */\n      pop\n        /* \"#utility.yul\":6698:6699   */\n      0x01\n        /* \"#utility.yul\":6695:6696   */\n      dup2\n        /* \"#utility.yul\":6691:6700   */\n      add\n        /* \"#utility.yul\":6686:6700   */\n      swap1\n      pop\n        /* \"#utility.yul\":6651:6935   */\n      jump(tag_421)\n    tag_423:\n        /* \"#utility.yul\":6655:6669   */\n      pop\n        /* \"#utility.yul\":6951:6954   */\n      dup6\n        /* \"#utility.yul\":6944:6954   */\n      swap4\n      pop\n        /* \"#utility.yul\":6352:6960   */\n      pop\n      pop\n      pop\n        /* \"#utility.yul\":6228:6960   */\n      swap3\n      swap2\n      pop\n      pop\n      jump\t// out\n        /* \"#utility.yul\":6966:8123   */\n    tag_66:\n        /* \"#utility.yul\":7343:7347   */\n      0x00\n        /* \"#utility.yul\":7381:7384   */\n      0x80\n        /* \"#utility.yul\":7370:7379   */\n      dup3\n        /* \"#utility.yul\":7366:7385   */\n      add\n        /* \"#utility.yul\":7358:7385   */\n      swap1\n      pop\n        /* \"#utility.yul\":7431:7440   */\n      dup2\n        /* \"#utility.yul\":7425:7429   */\n      dup2\n        /* \"#utility.yul\":7421:7441   */\n      sub\n        /* \"#utility.yul\":7417:7418   */\n      0x00\n        /* \"#utility.yul\":7406:7415   */\n      dup4\n        /* \"#utility.yul\":7402:7419   */\n      add\n        /* \"#utility.yul\":7395:7442   */\n      mstore\n        /* \"#utility.yul\":7459:7567   */\n      tag_427\n        /* \"#utility.yul\":7562:7566   */\n      dup2\n        /* \"#utility.yul\":7553:7559   */\n      dup8\n        /* \"#utility.yul\":7459:7567   */\n      tag_319\n      jump\t// in\n    tag_427:\n        /* \"#utility.yul\":7451:7567   */\n      swap1\n      pop\n        /* \"#utility.yul\":7614:7623   */\n      dup2\n        /* \"#utility.yul\":7608:7612   */\n      dup2\n        /* \"#utility.yul\":7604:7624   */\n      sub\n        /* \"#utility.yul\":7599:7601   */\n      0x20\n        /* \"#utility.yul\":7588:7597   */\n      dup4\n        /* \"#utility.yul\":7584:7602   */\n      add\n        /* \"#utility.yul\":7577:7625   */\n      mstore\n        /* \"#utility.yul\":7642:7750   */\n      tag_428\n        /* \"#utility.yul\":7745:7749   */\n      dup2\n        /* \"#utility.yul\":7736:7742   */\n      dup7\n        /* \"#utility.yul\":7642:7750   */\n      tag_319\n      jump\t// in\n    tag_428:\n        /* \"#utility.yul\":7634:7750   */\n      swap1\n      pop\n        /* \"#utility.yul\":7797:7806   */\n      dup2\n        /* \"#utility.yul\":7791:7795   */\n      dup2\n        /* \"#utility.yul\":7787:7807   */\n      sub\n        /* \"#utility.yul\":7782:7784   */\n      0x40\n        /* \"#utility.yul\":7771:7780   */\n      dup4\n        /* \"#utility.yul\":7767:7785   */\n      add\n        /* \"#utility.yul\":7760:7808   */\n      mstore\n        /* \"#utility.yul\":7825:7933   */\n      tag_429\n        /* \"#utility.yul\":7928:7932   */\n      dup2\n        /* \"#utility.yul\":7919:7925   */\n      dup6\n        /* \"#utility.yul\":7825:7933   */\n      tag_326\n      jump\t// in\n    tag_429:\n        /* \"#utility.yul\":7817:7933   */\n      swap1\n      pop\n        /* \"#utility.yul\":7980:7989   */\n      dup2\n        /* \"#utility.yul\":7974:7978   */\n      dup2\n        /* \"#utility.yul\":7970:7990   */\n      sub\n        /* \"#utility.yul\":7965:7967   */\n      0x60\n        /* \"#utility.yul\":7954:7963   */\n      dup4\n        /* \"#utility.yul\":7950:7968   */\n      add\n        /* \"#utility.yul\":7943:7991   */\n      mstore\n        /* \"#utility.yul\":8008:8116   */\n      tag_430\n        /* \"#utility.yul\":8111:8115   */\n      dup2\n        /* \"#utility.yul\":8102:8108   */\n      dup5\n        /* \"#utility.yul\":8008:8116   */\n      tag_326\n      jump\t// in\n    tag_430:\n        /* \"#utility.yul\":8000:8116   */\n      swap1\n      pop\n        /* \"#utility.yul\":6966:8123   */\n      swap6\n      swap5\n      pop\n      pop\n      pop\n      pop\n      pop\n      jump\t// out\n        /* \"#utility.yul\":8129:8351   */\n    tag_74:\n        /* \"#utility.yul\":8222:8226   */\n      0x00\n        /* \"#utility.yul\":8260:8262   */\n      0x20\n        /* \"#utility.yul\":8249:8258   */\n      dup3\n        /* \"#utility.yul\":8245:8263   */\n      add\n        /* \"#utility.yul\":8237:8263   */\n      swap1\n      pop\n        /* \"#utility.yul\":8273:8344   */\n      tag_432\n        /* \"#utility.yul\":8341:8342   */\n      0x00\n        /* \"#utility.yul\":8330:8339   */\n      dup4\n        /* \"#utility.yul\":8326:8343   */\n      add\n        /* \"#utility.yul\":8317:8323   */\n      dup5\n        /* \"#utility.yul\":8273:8344   */\n      tag_308\n      jump\t// in\n    tag_432:\n        /* \"#utility.yul\":8129:8351   */\n      swap3\n      swap2\n      pop\n      pop\n      jump\t// out\n        /* \"#utility.yul\":8357:8537   */\n    tag_327:\n        /* \"#utility.yul\":8405:8482   */\n      0x4e487b7100000000000000000000000000000000000000000000000000000000\n        /* \"#utility.yul\":8402:8403   */\n      0x00\n        /* \"#utility.yul\":8395:8483   */\n      mstore\n        /* \"#utility.yul\":8502:8506   */\n      0x11\n        /* \"#utility.yul\":8499:8500   */\n      0x04\n        /* \"#utility.yul\":8492:8507   */\n      mstore\n        /* \"#utility.yul\":8526:8530   */\n      0x24\n        /* \"#utility.yul\":8523:8524   */\n      0x00\n        /* \"#utility.yul\":8516:8531   */\n      revert\n        /* \"#utility.yul\":8543:8953   */\n    tag_117:\n        /* \"#utility.yul\":8583:8590   */\n      0x00\n        /* \"#utility.yul\":8606:8626   */\n      tag_435\n        /* \"#utility.yul\":8624:8625   */\n      dup3\n        /* \"#utility.yul\":8606:8626   */\n      tag_307\n      jump\t// in\n    tag_435:\n        /* \"#utility.yul\":8601:8626   */\n      swap2\n      pop\n        /* \"#utility.yul\":8640:8660   */\n      tag_436\n        /* \"#utility.yul\":8658:8659   */\n      dup4\n        /* \"#utility.yul\":8640:8660   */\n      tag_307\n      jump\t// in\n    tag_436:\n        /* \"#utility.yul\":8635:8660   */\n      swap3\n      pop\n        /* \"#utility.yul\":8695:8696   */\n      dup3\n        /* \"#utility.yul\":8692:8693   */\n      dup3\n        /* \"#utility.yul\":8688:8697   */\n      mul\n        /* \"#utility.yul\":8717:8747   */\n      tag_437\n        /* \"#utility.yul\":8735:8746   */\n      dup2\n        /* \"#utility.yul\":8717:8747   */\n      tag_307\n      jump\t// in\n    tag_437:\n        /* \"#utility.yul\":8706:8747   */\n      swap2\n      pop\n        /* \"#utility.yul\":8896:8897   */\n      dup3\n        /* \"#utility.yul\":8887:8894   */\n      dup3\n        /* \"#utility.yul\":8883:8898   */\n      div\n        /* \"#utility.yul\":8880:8881   */\n      dup5\n        /* \"#utility.yul\":8877:8899   */\n      eq\n        /* \"#utility.yul\":8857:8858   */\n      dup4\n        /* \"#utility.yul\":8850:8859   */\n      iszero\n        /* \"#utility.yul\":8830:8913   */\n      or\n        /* \"#utility.yul\":8807:8946   */\n      tag_438\n      jumpi\n        /* \"#utility.yul\":8926:8944   */\n      tag_439\n      tag_327\n      jump\t// in\n    tag_439:\n        /* \"#utility.yul\":8807:8946   */\n    tag_438:\n        /* \"#utility.yul\":8591:8953   */\n      pop\n        /* \"#utility.yul\":8543:8953   */\n      swap3\n      swap2\n      pop\n      pop\n      jump\t// out\n        /* \"#utility.yul\":8959:9139   */\n    tag_328:\n        /* \"#utility.yul\":9007:9084   */\n      0x4e487b7100000000000000000000000000000000000000000000000000000000\n        /* \"#utility.yul\":9004:9005   */\n      0x00\n        /* \"#utility.yul\":8997:9085   */\n      mstore\n        /* \"#utility.yul\":9104:9108   */\n      0x12\n        /* \"#utility.yul\":9101:9102   */\n      0x04\n        /* \"#utility.yul\":9094:9109   */\n      mstore\n        /* \"#utility.yul\":9128:9132   */\n      0x24\n        /* \"#utility.yul\":9125:9126   */\n      0x00\n        /* \"#utility.yul\":9118:9133   */\n      revert\n        /* \"#utility.yul\":9145:9330   */\n    tag_119:\n        /* \"#utility.yul\":9185:9186   */\n      0x00\n        /* \"#utility.yul\":9202:9222   */\n      tag_442\n        /* \"#utility.yul\":9220:9221   */\n      dup3\n        /* \"#utility.yul\":9202:9222   */\n      tag_307\n      jump\t// in\n    tag_442:\n        /* \"#utility.yul\":9197:9222   */\n      swap2\n      pop\n        /* \"#utility.yul\":9236:9256   */\n      tag_443\n        /* \"#utility.yul\":9254:9255   */\n      dup4\n        /* \"#utility.yul\":9236:9256   */\n      tag_307\n      jump\t// in\n    tag_443:\n        /* \"#utility.yul\":9231:9256   */\n      swap3\n      pop\n        /* \"#utility.yul\":9275:9276   */\n      dup3\n        /* \"#utility.yul\":9265:9300   */\n      tag_444\n      jumpi\n        /* \"#utility.yul\":9280:9298   */\n      tag_445\n      tag_328\n      jump\t// in\n    tag_445:\n        /* \"#utility.yul\":9265:9300   */\n    tag_444:\n        /* \"#utility.yul\":9322:9323   */\n      dup3\n        /* \"#utility.yul\":9319:9320   */\n      dup3\n        /* \"#utility.yul\":9315:9324   */\n      div\n        /* \"#utility.yul\":9310:9324   */\n      swap1\n      pop\n        /* \"#utility.yul\":9145:9330   */\n      swap3\n      swap2\n      pop\n      pop\n      jump\t// out\n        /* \"#utility.yul\":9336:9530   */\n    tag_121:\n        /* \"#utility.yul\":9376:9380   */\n      0x00\n        /* \"#utility.yul\":9396:9416   */\n      tag_447\n        /* \"#utility.yul\":9414:9415   */\n      dup3\n        /* \"#utility.yul\":9396:9416   */\n      tag_307\n      jump\t// in\n    tag_447:\n        /* \"#utility.yul\":9391:9416   */\n      swap2\n      pop\n        /* \"#utility.yul\":9430:9450   */\n      tag_448\n        /* \"#utility.yul\":9448:9449   */\n      dup4\n        /* \"#utility.yul\":9430:9450   */\n      tag_307\n      jump\t// in\n    tag_448:\n        /* \"#utility.yul\":9425:9450   */\n      swap3\n      pop\n        /* \"#utility.yul\":9474:9475   */\n      dup3\n        /* \"#utility.yul\":9471:9472   */\n      dup3\n        /* \"#utility.yul\":9467:9476   */\n      sub\n        /* \"#utility.yul\":9459:9476   */\n      swap1\n      pop\n        /* \"#utility.yul\":9498:9499   */\n      dup2\n        /* \"#utility.yul\":9492:9496   */\n      dup2\n        /* \"#utility.yul\":9489:9500   */\n      gt\n        /* \"#utility.yul\":9486:9523   */\n      iszero\n      tag_449\n      jumpi\n        /* \"#utility.yul\":9503:9521   */\n      tag_450\n      tag_327\n      jump\t// in\n    tag_450:\n        /* \"#utility.yul\":9486:9523   */\n    tag_449:\n        /* \"#utility.yul\":9336:9530   */\n      swap3\n      swap2\n      pop\n      pop\n      jump\t// out\n        /* \"#utility.yul\":9536:9716   */\n    tag_132:\n        /* \"#utility.yul\":9584:9661   */\n      0x4e487b7100000000000000000000000000000000000000000000000000000000\n        /* \"#utility.yul\":9581:9582   */\n      0x00\n        /* \"#utility.yul\":9574:9662   */\n      mstore\n        /* \"#utility.yul\":9681:9685   */\n      0x32\n        /* \"#utility.yul\":9678:9679   */\n      0x04\n        /* \"#utility.yul\":9671:9686   */\n      mstore\n        /* \"#utility.yul\":9705:9709   */\n      0x24\n        /* \"#utility.yul\":9702:9703   */\n      0x00\n        /* \"#utility.yul\":9695:9710   */\n      revert\n        /* \"#utility.yul\":9722:9902   */\n    tag_144:\n        /* \"#utility.yul\":9770:9847   */\n      0x4e487b7100000000000000000000000000000000000000000000000000000000\n        /* \"#utility.yul\":9767:9768   */\n      0x00\n        /* \"#utility.yul\":9760:9848   */\n      mstore\n        /* \"#utility.yul\":9867:9871   */\n      0x31\n        /* \"#utility.yul\":9864:9865   */\n      0x04\n        /* \"#utility.yul\":9857:9872   */\n      mstore\n        /* \"#utility.yul\":9891:9895   */\n      0x24\n        /* \"#utility.yul\":9888:9889   */\n      0x00\n        /* \"#utility.yul\":9881:9896   */\n      revert\n        /* \"#utility.yul\":9908:10141   */\n    tag_147:\n        /* \"#utility.yul\":9947:9950   */\n      0x00\n        /* \"#utility.yul\":9970:9994   */\n      tag_454\n        /* \"#utility.yul\":9988:9993   */\n      dup3\n        /* \"#utility.yul\":9970:9994   */\n      tag_307\n      jump\t// in\n    tag_454:\n        /* \"#utility.yul\":9961:9994   */\n      swap2\n      pop\n        /* \"#utility.yul\":10016:10082   */\n      0xffffffffffffffffffffffffffffffffffffffffffffffffffffffffffffffff\n        /* \"#utility.yul\":10009:10014   */\n      dup3\n        /* \"#utility.yul\":10006:10083   */\n      sub\n        /* \"#utility.yul\":10003:10106   */\n      tag_455\n      jumpi\n        /* \"#utility.yul\":10086:10104   */\n      tag_456\n      tag_327\n      jump\t// in\n    tag_456:\n        /* \"#utility.yul\":10003:10106   */\n    tag_455:\n        /* \"#utility.yul\":10133:10134   */\n      0x01\n        /* \"#utility.yul\":10126:10131   */\n      dup3\n        /* \"#utility.yul\":10122:10135   */\n      add\n        /* \"#utility.yul\":10115:10135   */\n      swap1\n      pop\n        /* \"#utility.yul\":9908:10141   */\n      swap2\n      swap1\n      pop\n      jump\t// out\n        /* \"#utility.yul\":10147:10316   */\n    tag_329:\n        /* \"#utility.yul\":10231:10242   */\n      0x00\n        /* \"#utility.yul\":10265:10271   */\n      dup3\n        /* \"#utility.yul\":10260:10263   */\n      dup3\n        /* \"#utility.yul\":10253:10272   */\n      mstore\n        /* \"#utility.yul\":10305:10309   */\n      0x20\n        /* \"#utility.yul\":10300:10303   */\n      dup3\n        /* \"#utility.yul\":10296:10310   */\n      add\n        /* \"#utility.yul\":10281:10310   */\n      swap1\n      pop\n        /* \"#utility.yul\":10147:10316   */\n      swap3\n      swap2\n      pop\n      pop\n      jump\t// out\n        /* \"#utility.yul\":10322:10502   */\n    tag_330:\n        /* \"#utility.yul\":10462:10494   */\n      0x4e6f2066756e647320617661696c61626c6520746f2077697468647261770000\n        /* \"#utility.yul\":10458:10459   */\n      0x00\n        /* \"#utility.yul\":10450:10456   */\n      dup3\n        /* \"#utility.yul\":10446:10460   */\n      add\n        /* \"#utility.yul\":10439:10495   */\n      mstore\n        /* \"#utility.yul\":10322:10502   */\n      pop\n      jump\t// out\n        /* \"#utility.yul\":10508:10874   */\n    tag_331:\n        /* \"#utility.yul\":10650:10653   */\n      0x00\n        /* \"#utility.yul\":10671:10738   */\n      tag_460\n        /* \"#utility.yul\":10735:10737   */\n      0x1e\n        /* \"#utility.yul\":10730:10733   */\n      dup4\n        /* \"#utility.yul\":10671:10738   */\n      tag_329\n      jump\t// in\n    tag_460:\n        /* \"#utility.yul\":10664:10738   */\n      swap2\n      pop\n        /* \"#utility.yul\":10747:10840   */\n      tag_461\n        /* \"#utility.yul\":10836:10839   */\n      dup3\n        /* \"#utility.yul\":10747:10840   */\n      tag_330\n      jump\t// in\n    tag_461:\n        /* \"#utility.yul\":10865:10867   */\n      0x20\n        /* \"#utility.yul\":10860:10863   */\n      dup3\n        /* \"#utility.yul\":10856:10868   */\n      add\n        /* \"#utility.yul\":10849:10868   */\n      swap1\n      pop\n        /* \"#utility.yul\":10508:10874   */\n      swap2\n      swap1\n      pop\n      jump\t// out\n        /* \"#utility.yul\":10880:11299   */\n    tag_164:\n        /* \"#utility.yul\":11046:11050   */\n      0x00\n        /* \"#utility.yul\":11084:11086   */\n      0x20\n        /* \"#utility.yul\":11073:11082   */\n      dup3\n        /* \"#utility.yul\":11069:11087   */\n      add\n        /* \"#utility.yul\":11061:11087   */\n      swap1\n      pop\n        /* \"#utility.yul\":11133:11142   */\n      dup2\n        /* \"#utility.yul\":11127:11131   */\n      dup2\n        /* \"#utility.yul\":11123:11143   */\n      sub\n        /* \"#utility.yul\":11119:11120   */\n      0x00\n        /* \"#utility.yul\":11108:11117   */\n      dup4\n        /* \"#utility.yul\":11104:11121   */\n      add\n        /* \"#utility.yul\":11097:11144   */\n      mstore\n        /* \"#utility.yul\":11161:11292   */\n      tag_463\n        /* \"#utility.yul\":11287:11291   */\n      dup2\n        /* \"#utility.yul\":11161:11292   */\n      tag_331\n      jump\t// in\n    tag_463:\n        /* \"#utility.yul\":11153:11292   */\n      swap1\n      pop\n        /* \"#utility.yul\":10880:11299   */\n      swap2\n      swap1\n      pop\n      jump\t// out\n        /* \"#utility.yul\":11305:11525   */\n    tag_332:\n        /* \"#utility.yul\":11445:11479   */\n      0x4665652070657263656e746167652063616e6e6f742065786365656420313030\n        /* \"#utility.yul\":11441:11442   */\n      0x00\n        /* \"#utility.yul\":11433:11439   */\n      dup3\n        /* \"#utility.yul\":11429:11443   */\n      add\n        /* \"#utility.yul\":11422:11480   */\n      mstore\n        /* \"#utility.yul\":11514:11517   */\n      0x2500000000000000000000000000000000000000000000000000000000000000\n        /* \"#utility.yul\":11509:11511   */\n      0x20\n        /* \"#utility.yul\":11501:11507   */\n      dup3\n        /* \"#utility.yul\":11497:11512   */\n      add\n        /* \"#utility.yul\":11490:11518   */\n      mstore\n        /* \"#utility.yul\":11305:11525   */\n      pop\n      jump\t// out\n        /* \"#utility.yul\":11531:11897   */\n    tag_333:\n        /* \"#utility.yul\":11673:11676   */\n      0x00\n        /* \"#utility.yul\":11694:11761   */\n      tag_466\n        /* \"#utility.yul\":11758:11760   */\n      0x21\n        /* \"#utility.yul\":11753:11756   */\n      dup4\n        /* \"#utility.yul\":11694:11761   */\n      tag_329\n      jump\t// in\n    tag_466:\n        /* \"#utility.yul\":11687:11761   */\n      swap2\n      pop\n        /* \"#utility.yul\":11770:11863   */\n      tag_467\n        /* \"#utility.yul\":11859:11862   */\n      dup3\n        /* \"#utility.yul\":11770:11863   */\n      tag_332\n      jump\t// in\n    tag_467:\n        /* \"#utility.yul\":11888:11890   */\n      0x40\n        /* \"#utility.yul\":11883:11886   */\n      dup3\n        /* \"#utility.yul\":11879:11891   */\n      add\n        /* \"#utility.yul\":11872:11891   */\n      swap1\n      pop\n        /* \"#utility.yul\":11531:11897   */\n      swap2\n      swap1\n      pop\n      jump\t// out\n        /* \"#utility.yul\":11903:12322   */\n    tag_187:\n        /* \"#utility.yul\":12069:12073   */\n      0x00\n        /* \"#utility.yul\":12107:12109   */\n      0x20\n        /* \"#utility.yul\":12096:12105   */\n      dup3\n        /* \"#utility.yul\":12092:12110   */\n      add\n        /* \"#utility.yul\":12084:12110   */\n      swap1\n      pop\n        /* \"#utility.yul\":12156:12165   */\n      dup2\n        /* \"#utility.yul\":12150:12154   */\n      dup2\n        /* \"#utility.yul\":12146:12166   */\n      sub\n        /* \"#utility.yul\":12142:12143   */\n      0x00\n        /* \"#utility.yul\":12131:12140   */\n      dup4\n        /* \"#utility.yul\":12127:12144   */\n      add\n        /* \"#utility.yul\":12120:12167   */\n      mstore\n        /* \"#utility.yul\":12184:12315   */\n      tag_469\n        /* \"#utility.yul\":12310:12314   */\n      dup2\n        /* \"#utility.yul\":12184:12315   */\n      tag_333\n      jump\t// in\n    tag_469:\n        /* \"#utility.yul\":12176:12315   */\n      swap1\n      pop\n        /* \"#utility.yul\":11903:12322   */\n      swap2\n      swap1\n      pop\n      jump\t// out\n        /* \"#utility.yul\":12328:12508   */\n    tag_191:\n        /* \"#utility.yul\":12376:12453   */\n      0x4e487b7100000000000000000000000000000000000000000000000000000000\n        /* \"#utility.yul\":12373:12374   */\n      0x00\n        /* \"#utility.yul\":12366:12454   */\n      mstore\n        /* \"#utility.yul\":12473:12477   */\n      0x41\n        /* \"#utility.yul\":12470:12471   */\n      0x04\n        /* \"#utility.yul\":12463:12478   */\n      mstore\n        /* \"#utility.yul\":12497:12501   */\n      0x24\n        /* \"#utility.yul\":12494:12495   */\n      0x00\n        /* \"#utility.yul\":12487:12502   */\n      revert\n        /* \"#utility.yul\":12514:12689   */\n    tag_334:\n        /* \"#utility.yul\":12654:12681   */\n      0x56616c696461746f72206e6f6465206e6f74206c696e6b656400000000000000\n        /* \"#utility.yul\":12650:12651   */\n      0x00\n        /* \"#utility.yul\":12642:12648   */\n      dup3\n        /* \"#utility.yul\":12638:12652   */\n      add\n        /* \"#utility.yul\":12631:12682   */\n      mstore\n        /* \"#utility.yul\":12514:12689   */\n      pop\n      jump\t// out\n        /* \"#utility.yul\":12695:13061   */\n    tag_335:\n        /* \"#utility.yul\":12837:12840   */\n      0x00\n        /* \"#utility.yul\":12858:12925   */\n      tag_473\n        /* \"#utility.yul\":12922:12924   */\n      0x19\n        /* \"#utility.yul\":12917:12920   */\n      dup4\n        /* \"#utility.yul\":12858:12925   */\n      tag_329\n      jump\t// in\n    tag_473:\n        /* \"#utility.yul\":12851:12925   */\n      swap2\n      pop\n        /* \"#utility.yul\":12934:13027   */\n      tag_474\n        /* \"#utility.yul\":13023:13026   */\n      dup3\n        /* \"#utility.yul\":12934:13027   */\n      tag_334\n      jump\t// in\n    tag_474:\n        /* \"#utility.yul\":13052:13054   */\n      0x20\n        /* \"#utility.yul\":13047:13050   */\n      dup3\n        /* \"#utility.yul\":13043:13055   */\n      add\n        /* \"#utility.yul\":13036:13055   */\n      swap1\n      pop\n        /* \"#utility.yul\":12695:13061   */\n      swap2\n      swap1\n      pop\n      jump\t// out\n        /* \"#utility.yul\":13067:13486   */\n    tag_240:\n        /* \"#utility.yul\":13233:13237   */\n      0x00\n        /* \"#utility.yul\":13271:13273   */\n      0x20\n        /* \"#utility.yul\":13260:13269   */\n      dup3\n        /* \"#utility.yul\":13256:13274   */\n      add\n        /* \"#utility.yul\":13248:13274   */\n      swap1\n      pop\n        /* \"#utility.yul\":13320:13329   */\n      dup2\n        /* \"#utility.yul\":13314:13318   */\n      dup2\n        /* \"#utility.yul\":13310:13330   */\n      sub\n        /* \"#utility.yul\":13306:13307   */\n      0x00\n        /* \"#utility.yul\":13295:13304   */\n      dup4\n        /* \"#utility.yul\":13291:13308   */\n      add\n        /* \"#utility.yul\":13284:13331   */\n      mstore\n        /* \"#utility.yul\":13348:13479   */\n      tag_476\n        /* \"#utility.yul\":13474:13478   */\n      dup2\n        /* \"#utility.yul\":13348:13479   */\n      tag_335\n      jump\t// in\n    tag_476:\n        /* \"#utility.yul\":13340:13479   */\n      swap1\n      pop\n        /* \"#utility.yul\":13067:13486   */\n      swap2\n      swap1\n      pop\n      jump\t// out\n        /* \"#utility.yul\":13492:13683   */\n    tag_242:\n        /* \"#utility.yul\":13532:13535   */\n      0x00\n        /* \"#utility.yul\":13551:13571   */\n      tag_478\n        /* \"#utility.yul\":13569:13570   */\n      dup3\n        /* \"#utility.yul\":13551:13571   */\n      tag_307\n      jump\t// in\n    tag_478:\n        /* \"#utility.yul\":13546:13571   */\n      swap2\n      pop\n        /* \"#utility.yul\":13585:13605   */\n      tag_479\n        /* \"#utility.yul\":13603:13604   */\n      dup4\n        /* \"#utility.yul\":13585:13605   */\n      tag_307\n      jump\t// in\n    tag_479:\n        /* \"#utility.yul\":13580:13605   */\n      swap3\n      pop\n        /* \"#utility.yul\":13628:13629   */\n      dup3\n        /* \"#utility.yul\":13625:13626   */\n      dup3\n        /* \"#utility.yul\":13621:13630   */\n      add\n        /* \"#utility.yul\":13614:13630   */\n      swap1\n      pop\n        /* \"#utility.yul\":13649:13652   */\n      dup1\n        /* \"#utility.yul\":13646:13647   */\n      dup3\n        /* \"#utility.yul\":13643:13653   */\n      gt\n        /* \"#utility.yul\":13640:13676   */\n      iszero\n      tag_480\n      jumpi\n        /* \"#utility.yul\":13656:13674   */\n      tag_481\n      tag_327\n      jump\t// in\n    tag_481:\n        /* \"#utility.yul\":13640:13676   */\n    tag_480:\n        /* \"#utility.yul\":13492:13683   */\n      swap3\n      swap2\n      pop\n      pop\n      jump\t// out\n        /* \"#utility.yul\":13689:13914   */\n    tag_336:\n        /* \"#utility.yul\":13829:13863   */\n      0x4f776e61626c653a206e6577206f776e657220697320746865207a65726f2061\n        /* \"#utility.yul\":13825:13826   */\n      0x00\n        /* \"#utility.yul\":13817:13823   */\n      dup3\n        /* \"#utility.yul\":13813:13827   */\n      add\n        /* \"#utility.yul\":13806:13864   */\n      mstore\n        /* \"#utility.yul\":13898:13906   */\n      0x6464726573730000000000000000000000000000000000000000000000000000\n        /* \"#utility.yul\":13893:13895   */\n      0x20\n        /* \"#utility.yul\":13885:13891   */\n      dup3\n        /* \"#utility.yul\":13881:13896   */\n      add\n        /* \"#utility.yul\":13874:13907   */\n      mstore\n        /* \"#utility.yul\":13689:13914   */\n      pop\n      jump\t// out\n        /* \"#utility.yul\":13920:14286   */\n    tag_337:\n        /* \"#utility.yul\":14062:14065   */\n      0x00\n        /* \"#utility.yul\":14083:14150   */\n      tag_484\n        /* \"#utility.yul\":14147:14149   */\n      0x26\n        /* \"#utility.yul\":14142:14145   */\n      dup4\n        /* \"#utility.yul\":14083:14150   */\n      tag_329\n      jump\t// in\n    tag_484:\n        /* \"#utility.yul\":14076:14150   */\n      swap2\n      pop\n        /* \"#utility.yul\":14159:14252   */\n      tag_485\n        /* \"#utility.yul\":14248:14251   */\n      dup3\n        /* \"#utility.yul\":14159:14252   */\n      tag_336\n      jump\t// in\n    tag_485:\n        /* \"#utility.yul\":14277:14279   */\n      0x40\n        /* \"#utility.yul\":14272:14275   */\n      dup3\n        /* \"#utility.yul\":14268:14280   */\n      add\n        /* \"#utility.yul\":14261:14280   */\n      swap1\n      pop\n        /* \"#utility.yul\":13920:14286   */\n      swap2\n      swap1\n      pop\n      jump\t// out\n        /* \"#utility.yul\":14292:14711   */\n    tag_253:\n        /* \"#utility.yul\":14458:14462   */\n      0x00\n        /* \"#utility.yul\":14496:14498   */\n      0x20\n        /* \"#utility.yul\":14485:14494   */\n      dup3\n        /* \"#utility.yul\":14481:14499   */\n      add\n        /* \"#utility.yul\":14473:14499   */\n      swap1\n      pop\n        /* \"#utility.yul\":14545:14554   */\n      dup2\n        /* \"#utility.yul\":14539:14543   */\n      dup2\n        /* \"#utility.yul\":14535:14555   */\n      sub\n        /* \"#utility.yul\":14531:14532   */\n      0x00\n        /* \"#utility.yul\":14520:14529   */\n      dup4\n        /* \"#utility.yul\":14516:14533   */\n      add\n        /* \"#utility.yul\":14509:14556   */\n      mstore\n        /* \"#utility.yul\":14573:14704   */\n      tag_487\n        /* \"#utility.yul\":14699:14703   */\n      dup2\n        /* \"#utility.yul\":14573:14704   */\n      tag_337\n      jump\t// in\n    tag_487:\n        /* \"#utility.yul\":14565:14704   */\n      swap1\n      pop\n        /* \"#utility.yul\":14292:14711   */\n      swap2\n      swap1\n      pop\n      jump\t// out\n        /* \"#utility.yul\":14717:14899   */\n    tag_338:\n        /* \"#utility.yul\":14857:14891   */\n      0x4f776e61626c653a2063616c6c6572206973206e6f7420746865206f776e6572\n        /* \"#utility.yul\":14853:14854   */\n      0x00\n        /* \"#utility.yul\":14845:14851   */\n      dup3\n        /* \"#utility.yul\":14841:14855   */\n      add\n        /* \"#utility.yul\":14834:14892   */\n      mstore\n        /* \"#utility.yul\":14717:14899   */\n      pop\n      jump\t// out\n        /* \"#utility.yul\":14905:15271   */\n    tag_339:\n        /* \"#utility.yul\":15047:15050   */\n      0x00\n        /* \"#utility.yul\":15068:15135   */\n      tag_490\n        /* \"#utility.yul\":15132:15134   */\n      0x20\n        /* \"#utility.yul\":15127:15130   */\n      dup4\n        /* \"#utility.yul\":15068:15135   */\n      tag_329\n      jump\t// in\n    tag_490:\n        /* \"#utility.yul\":15061:15135   */\n      swap2\n      pop\n        /* \"#utility.yul\":15144:15237   */\n      tag_491\n        /* \"#utility.yul\":15233:15236   */\n      dup3\n        /* \"#utility.yul\":15144:15237   */\n      tag_338\n      jump\t// in\n    tag_491:\n        /* \"#utility.yul\":15262:15264   */\n      0x20\n        /* \"#utility.yul\":15257:15260   */\n      dup3\n        /* \"#utility.yul\":15253:15265   */\n      add\n        /* \"#utility.yul\":15246:15265   */\n      swap1\n      pop\n        /* \"#utility.yul\":14905:15271   */\n      swap2\n      swap1\n      pop\n      jump\t// out\n        /* \"#utility.yul\":15277:15696   */\n    tag_261:\n        /* \"#utility.yul\":15443:15447   */\n      0x00\n        /* \"#utility.yul\":15481:15483   */\n      0x20\n        /* \"#utility.yul\":15470:15479   */\n      dup3\n        /* \"#utility.yul\":15466:15484   */\n      add\n        /* \"#utility.yul\":15458:15484   */\n      swap1\n      pop\n        /* \"#utility.yul\":15530:15539   */\n      dup2\n        /* \"#utility.yul\":15524:15528   */\n      dup2\n        /* \"#utility.yul\":15520:15540   */\n      sub\n        /* \"#utility.yul\":15516:15517   */\n      0x00\n        /* \"#utility.yul\":15505:15514   */\n      dup4\n        /* \"#utility.yul\":15501:15518   */\n      add\n        /* \"#utility.yul\":15494:15541   */\n      mstore\n        /* \"#utility.yul\":15558:15689   */\n      tag_493\n        /* \"#utility.yul\":15684:15688   */\n      dup2\n        /* \"#utility.yul\":15558:15689   */\n      tag_339\n      jump\t// in\n    tag_493:\n        /* \"#utility.yul\":15550:15689   */\n      swap1\n      pop\n        /* \"#utility.yul\":15277:15696   */\n      swap2\n      swap1\n      pop\n      jump\t// out\n        /* \"#utility.yul\":15702:15883   */\n    tag_340:\n        /* \"#utility.yul\":15842:15875   */\n      0x5265656e7472616e637947756172643a207265656e7472616e742063616c6c00\n        /* \"#utility.yul\":15838:15839   */\n      0x00\n        /* \"#utility.yul\":15830:15836   */\n      dup3\n        /* \"#utility.yul\":15826:15840   */\n      add\n        /* \"#utility.yul\":15819:15876   */\n      mstore\n        /* \"#utility.yul\":15702:15883   */\n      pop\n      jump\t// out\n        /* \"#utility.yul\":15889:16255   */\n    tag_341:\n        /* \"#utility.yul\":16031:16034   */\n      0x00\n        /* \"#utility.yul\":16052:16119   */\n      tag_496\n        /* \"#utility.yul\":16116:16118   */\n      0x1f\n        /* \"#utility.yul\":16111:16114   */\n      dup4\n        /* \"#utility.yul\":16052:16119   */\n      tag_329\n      jump\t// in\n    tag_496:\n        /* \"#utility.yul\":16045:16119   */\n      swap2\n      pop\n        /* \"#utility.yul\":16128:16221   */\n      tag_497\n        /* \"#utility.yul\":16217:16220   */\n      dup3\n        /* \"#utility.yul\":16128:16221   */\n      tag_340\n      jump\t// in\n    tag_497:\n        /* \"#utility.yul\":16246:16248   */\n      0x20\n        /* \"#utility.yul\":16241:16244   */\n      dup3\n        /* \"#utility.yul\":16237:16249   */\n      add\n        /* \"#utility.yul\":16230:16249   */\n      swap1\n      pop\n        /* \"#utility.yul\":15889:16255   */\n      swap2\n      swap1\n      pop\n      jump\t// out\n        /* \"#utility.yul\":16261:16680   */\n    tag_274:\n        /* \"#utility.yul\":16427:16431   */\n      0x00\n        /* \"#utility.yul\":16465:16467   */\n      0x20\n        /* \"#utility.yul\":16454:16463   */\n      dup3\n        /* \"#utility.yul\":16450:16468   */\n      add\n        /* \"#utility.yul\":16442:16468   */\n      swap1\n      pop\n        /* \"#utility.yul\":16514:16523   */\n      dup2\n        /* \"#utility.yul\":16508:16512   */\n      dup2\n        /* \"#utility.yul\":16504:16524   */\n      sub\n        /* \"#utility.yul\":16500:16501   */\n      0x00\n        /* \"#utility.yul\":16489:16498   */\n      dup4\n        /* \"#utility.yul\":16485:16502   */\n      add\n        /* \"#utility.yul\":16478:16525   */\n      mstore\n        /* \"#utility.yul\":16542:16673   */\n      tag_499\n        /* \"#utility.yul\":16668:16672   */\n      dup2\n        /* \"#utility.yul\":16542:16673   */\n      tag_341\n      jump\t// in\n    tag_499:\n        /* \"#utility.yul\":16534:16673   */\n      swap1\n      pop\n        /* \"#utility.yul\":16261:16680   */\n      swap2\n      swap1\n      pop\n      jump\t// out\n        /* \"#utility.yul\":16686:16852   */\n    tag_342:\n        /* \"#utility.yul\":16826:16844   */\n      0x5061757361626c653a2070617573656400000000000000000000000000000000\n        /* \"#utility.yul\":16822:16823   */\n      0x00\n        /* \"#utility.yul\":16814:16820   */\n      dup3\n        /* \"#utility.yul\":16810:16824   */\n      add\n        /* \"#utility.yul\":16803:16845   */\n      mstore\n        /* \"#utility.yul\":16686:16852   */\n      pop\n      jump\t// out\n        /* \"#utility.yul\":16858:17224   */\n    tag_343:\n        /* \"#utility.yul\":17000:17003   */\n      0x00\n        /* \"#utility.yul\":17021:17088   */\n      tag_502\n        /* \"#utility.yul\":17085:17087   */\n      0x10\n        /* \"#utility.yul\":17080:17083   */\n      dup4\n        /* \"#utility.yul\":17021:17088   */\n      tag_329\n      jump\t// in\n    tag_502:\n        /* \"#utility.yul\":17014:17088   */\n      swap2\n      pop\n        /* \"#utility.yul\":17097:17190   */\n      tag_503\n        /* \"#utility.yul\":17186:17189   */\n      dup3\n        /* \"#utility.yul\":17097:17190   */\n      tag_342\n      jump\t// in\n    tag_503:\n        /* \"#utility.yul\":17215:17217   */\n      0x20\n        /* \"#utility.yul\":17210:17213   */\n      dup3\n        /* \"#utility.yul\":17206:17218   */\n      add\n        /* \"#utility.yul\":17199:17218   */\n      swap1\n      pop\n        /* \"#utility.yul\":16858:17224   */\n      swap2\n      swap1\n      pop\n      jump\t// out\n        /* \"#utility.yul\":17230:17649   */\n    tag_279:\n        /* \"#utility.yul\":17396:17400   */\n      0x00\n        /* \"#utility.yul\":17434:17436   */\n      0x20\n        /* \"#utility.yul\":17423:17432   */\n      dup3\n        /* \"#utility.yul\":17419:17437   */\n      add\n        /* \"#utility.yul\":17411:17437   */\n      swap1\n      pop\n        /* \"#utility.yul\":17483:17492   */\n      dup2\n        /* \"#utility.yul\":17477:17481   */\n      dup2\n        /* \"#utility.yul\":17473:17493   */\n      sub\n        /* \"#utility.yul\":17469:17470   */\n      0x00\n        /* \"#utility.yul\":17458:17467   */\n      dup4\n        /* \"#utility.yul\":17454:17471   */\n      add\n        /* \"#utility.yul\":17447:17494   */\n      mstore\n        /* \"#utility.yul\":17511:17642   */\n      tag_505\n        /* \"#utility.yul\":17637:17641   */\n      dup2\n        /* \"#utility.yul\":17511:17642   */\n      tag_343\n      jump\t// in\n    tag_505:\n        /* \"#utility.yul\":17503:17642   */\n      swap1\n      pop\n        /* \"#utility.yul\":17230:17649   */\n      swap2\n      swap1\n      pop\n      jump\t// out\n        /* \"#utility.yul\":17655:17825   */\n    tag_344:\n        /* \"#utility.yul\":17795:17817   */\n      0x5061757361626c653a206e6f7420706175736564000000000000000000000000\n        /* \"#utility.yul\":17791:17792   */\n      0x00\n        /* \"#utility.yul\":17783:17789   */\n      dup3\n        /* \"#utility.yul\":17779:17793   */\n      add\n        /* \"#utility.yul\":17772:17818   */\n      mstore\n        /* \"#utility.yul\":17655:17825   */\n      pop\n      jump\t// out\n        /* \"#utility.yul\":17831:18197   */\n    tag_345:\n        /* \"#utility.yul\":17973:17976   */\n      0x00\n        /* \"#utility.yul\":17994:18061   */\n      tag_508\n        /* \"#utility.yul\":18058:18060   */\n      0x14\n        /* \"#utility.yul\":18053:18056   */\n      dup4\n        /* \"#utility.yul\":17994:18061   */\n      tag_329\n      jump\t// in\n    tag_508:\n        /* \"#utility.yul\":17987:18061   */\n      swap2\n      pop\n        /* \"#utility.yul\":18070:18163   */\n      tag_509\n        /* \"#utility.yul\":18159:18162   */\n      dup3\n        /* \"#utility.yul\":18070:18163   */\n      tag_344\n      jump\t// in\n    tag_509:\n        /* \"#utility.yul\":18188:18190   */\n      0x20\n        /* \"#utility.yul\":18183:18186   */\n      dup3\n        /* \"#utility.yul\":18179:18191   */\n      add\n        /* \"#utility.yul\":18172:18191   */\n      swap1\n      pop\n        /* \"#utility.yul\":17831:18197   */\n      swap2\n      swap1\n      pop\n      jump\t// out\n        /* \"#utility.yul\":18203:18622   */\n    tag_298:\n        /* \"#utility.yul\":18369:18373   */\n      0x00\n        /* \"#utility.yul\":18407:18409   */\n      0x20\n        /* \"#utility.yul\":18396:18405   */\n      dup3\n        /* \"#utility.yul\":18392:18410   */\n      add\n        /* \"#utility.yul\":18384:18410   */\n      swap1\n      pop\n        /* \"#utility.yul\":18456:18465   */\n      dup2\n        /* \"#utility.yul\":18450:18454   */\n      dup2\n        /* \"#utility.yul\":18446:18466   */\n      sub\n        /* \"#utility.yul\":18442:18443   */\n      0x00\n        /* \"#utility.yul\":18431:18440   */\n      dup4\n        /* \"#utility.yul\":18427:18444   */\n      add\n        /* \"#utility.yul\":18420:18467   */\n      mstore\n        /* \"#utility.yul\":18484:18615   */\n      tag_511\n        /* \"#utility.yul\":18610:18614   */\n      dup2\n        /* \"#utility.yul\":18484:18615   */\n      tag_345\n      jump\t// in\n    tag_511:\n        /* \"#utility.yul\":18476:18615   */\n      swap1\n      pop\n        /* \"#utility.yul\":18203:18622   */\n      swap2\n      swap1\n      pop\n      jump\t// out\n\n    auxdata: 0xa264697066735822122061570d479e6bbab3980cffb6c1cd185ae058be207e7748e0de6903404740a9b964736f6c63430008120033\n}\n",
				"bytecode": {
					"linkReferences": {},
					"object": "6080604052600a6006556000600760006101000a81548173ffffffffffffffffffffffffffffffffffffffff021916908373ffffffffffffffffffffffffffffffffffffffff16021790555034801561005757600080fd5b50600160008190555061007c61007161009c60201b60201c565b6100a460201b60201c565b6000600160146101000a81548160ff02191690831515021790555061016a565b600033905090565b6000600160009054906101000a900473ffffffffffffffffffffffffffffffffffffffff16905081600160006101000a81548173ffffffffffffffffffffffffffffffffffffffff021916908373ffffffffffffffffffffffffffffffffffffffff1602179055508173ffffffffffffffffffffffffffffffffffffffff168173ffffffffffffffffffffffffffffffffffffffff167f8be0079c531659141344cd1fd0a4f28419497f9722a3daafe3b4186f6b6457e060405160405180910390a35050565b612263806200017a6000396000f3fe60806040526004361061011f5760003560e01c806378922c8f116100a0578063b33712c511610064578063b33712c5146103a0578063b5e1302e146103b7578063bb0a43bc146103f4578063d0e30db014610431578063f2fde38b1461043b5761011f565b806378922c8f146102a75780637d995311146102d25780637da830b41461030f5780638da5cb5b1461034c578063a7d77ce5146103775761011f565b8063439766ce116100e7578063439766ce146101f75780635c975abb1461020e5780635fb0ea90146102395780636ca6d88e14610262578063715018a6146102905761011f565b806303a2c9e21461012457806322df93ba1461014d57806333deea05146101765780633ccfd60b146101a15780633ed0eee4146101b8575b600080fd5b34801561013057600080fd5b5061014b600480360381019061014691906118f4565b610464565b005b34801561015957600080fd5b50610174600480360381019061016f9190611921565b6108c7565b005b34801561018257600080fd5b5061018b6109c4565b6040516101989190611970565b60405180910390f35b3480156101ad57600080fd5b506101b66109ea565b005b3480156101c457600080fd5b506101df60048036038101906101da91906118f4565b610c08565b6040516101ee939291906119a4565b60405180910390f35b34801561020357600080fd5b5061020c610d0b565b005b34801561021a57600080fd5b50610223610d1d565b60405161023091906119f6565b60405180910390f35b34801561024557600080fd5b50610260600480360381019061025b9190611a3d565b610d34565b005b34801561026e57600080fd5b50610277610d8a565b6040516102879493929190611be6565b60405180910390f35b34801561029c57600080fd5b506102a5611113565b005b3480156102b357600080fd5b506102bc611127565b6040516102c99190611c47565b60405180910390f35b3480156102de57600080fd5b506102f960048036038101906102f491906118f4565b61112d565b6040516103069190611c47565b60405180910390f35b34801561031b57600080fd5b50610336600480360381019061033191906118f4565b611145565b6040516103439190611c47565b60405180910390f35b34801561035857600080fd5b5061036161115d565b60405161036e9190611970565b60405180910390f35b34801561038357600080fd5b5061039e600480360381019061039991906118f4565b611187565b005b3480156103ac57600080fd5b506103b56111d3565b005b3480156103c357600080fd5b506103de60048036038101906103d991906118f4565b6111e5565b6040516103eb9190611970565b60405180910390f35b34801561040057600080fd5b5061041b60048036038101906104169190611a3d565b611218565b6040516104289190611970565b60405180910390f35b610439611257565b005b34801561044757600080fd5b50610462600480360381019061045d91906118f4565b611464565b005b61046c6114e7565b6000600260008373ffffffffffffffffffffffffffffffffffffffff1673ffffffffffffffffffffffffffffffffffffffff16815260200190815260200160002060009054906101000a900473ffffffffffffffffffffffffffffffffffffffff1690506000600360008373ffffffffffffffffffffffffffffffffffffffff1673ffffffffffffffffffffffffffffffffffffffff16815260200190815260200160002054905060006064600654836105269190611c91565b6105309190611d02565b9050600081836105409190611d33565b90506000600360008673ffffffffffffffffffffffffffffffffffffffff1673ffffffffffffffffffffffffffffffffffffffff168152602001908152602001600020819055508373ffffffffffffffffffffffffffffffffffffffff166108fc829081150290604051600060405180830381858888f193505050501580156105cd573d6000803e3d6000fd5b50600073ffffffffffffffffffffffffffffffffffffffff16600760009054906101000a900473ffffffffffffffffffffffffffffffffffffffff1673ffffffffffffffffffffffffffffffffffffffff161461068e57600760009054906101000a900473ffffffffffffffffffffffffffffffffffffffff1673ffffffffffffffffffffffffffffffffffffffff166108fc839081150290604051600060405180830381858888f1935050505015801561068c573d6000803e3d6000fd5b505b60005b60058054905081101561081a578573ffffffffffffffffffffffffffffffffffffffff16600582815481106106c9576106c8611d67565b5b9060005260206000200160009054906101000a900473ffffffffffffffffffffffffffffffffffffffff1673ffffffffffffffffffffffffffffffffffffffff160361080757600560016005805490506107239190611d33565b8154811061073457610733611d67565b5b9060005260206000200160009054906101000a900473ffffffffffffffffffffffffffffffffffffffff166005828154811061077357610772611d67565b5b9060005260206000200160006101000a81548173ffffffffffffffffffffffffffffffffffffffff021916908373ffffffffffffffffffffffffffffffffffffffff16021790555060058054806107cd576107cc611d96565b5b6001900381819060005260206000200160006101000a81549073ffffffffffffffffffffffffffffffffffffffff0219169055905561081a565b808061081290611dc5565b915050610691565b50600260008673ffffffffffffffffffffffffffffffffffffffff1673ffffffffffffffffffffffffffffffffffffffff16815260200190815260200160002060006101000a81549073ffffffffffffffffffffffffffffffffffffffff0219169055600460008673ffffffffffffffffffffffffffffffffffffffff1673ffffffffffffffffffffffffffffffffffffffff168152602001908152602001600020600090555050505050565b6108cf6114e7565b80600260008473ffffffffffffffffffffffffffffffffffffffff1673ffffffffffffffffffffffffffffffffffffffff16815260200190815260200160002060006101000a81548173ffffffffffffffffffffffffffffffffffffffff021916908373ffffffffffffffffffffffffffffffffffffffff160217905550610958600583611565565b6109c0576005829080600181540180825580915050600190039060005260206000200160009091909190916101000a81548173ffffffffffffffffffffffffffffffffffffffff021916908373ffffffffffffffffffffffffffffffffffffffff1602179055505b5050565b600760009054906101000a900473ffffffffffffffffffffffffffffffffffffffff1681565b6109f2611612565b6109fa611661565b6000600360003373ffffffffffffffffffffffffffffffffffffffff1673ffffffffffffffffffffffffffffffffffffffff16815260200190815260200160002054905060008111610a81576040517f08c379a0000000000000000000000000000000000000000000000000000000008152600401610a7890611e6a565b60405180910390fd5b6000606460065483610a939190611c91565b610a9d9190611d02565b905060008183610aad9190611d33565b90506000600360003373ffffffffffffffffffffffffffffffffffffffff1673ffffffffffffffffffffffffffffffffffffffff168152602001908152602001600020819055503373ffffffffffffffffffffffffffffffffffffffff166108fc829081150290604051600060405180830381858888f19350505050158015610b3a573d6000803e3d6000fd5b50600073ffffffffffffffffffffffffffffffffffffffff16600760009054906101000a900473ffffffffffffffffffffffffffffffffffffffff1673ffffffffffffffffffffffffffffffffffffffff1614610bfb57600760009054906101000a900473ffffffffffffffffffffffffffffffffffffffff1673ffffffffffffffffffffffffffffffffffffffff166108fc839081150290604051600060405180830381858888f19350505050158015610bf9573d6000803e3d6000fd5b505b505050610c066116ab565b565b600080600080600260008673ffffffffffffffffffffffffffffffffffffffff1673ffffffffffffffffffffffffffffffffffffffff16815260200190815260200160002060009054906101000a900473ffffffffffffffffffffffffffffffffffffffff1690506000600460008773ffffffffffffffffffffffffffffffffffffffff1673ffffffffffffffffffffffffffffffffffffffff1681526020019081526020016000205490506000600360008473ffffffffffffffffffffffffffffffffffffffff1673ffffffffffffffffffffffffffffffffffffffff1681526020019081526020016000205490508282829550955095505050509193909250565b610d136114e7565b610d1b6116b5565b565b6000600160149054906101000a900460ff16905090565b610d3c6114e7565b6064811115610d80576040517f08c379a0000000000000000000000000000000000000000000000000000000008152600401610d7790611efc565b60405180910390fd5b8060068190555050565b6060806060806000600580549050905060008167ffffffffffffffff811115610db657610db5611f1c565b5b604051908082528060200260200182016040528015610de45781602001602082028036833780820191505090505b50905060008267ffffffffffffffff811115610e0357610e02611f1c565b5b604051908082528060200260200182016040528015610e315781602001602082028036833780820191505090505b50905060008367ffffffffffffffff811115610e5057610e4f611f1c565b5b604051908082528060200260200182016040528015610e7e5781602001602082028036833780820191505090505b50905060008467ffffffffffffffff811115610e9d57610e9c611f1c565b5b604051908082528060200260200182016040528015610ecb5781602001602082028036833780820191505090505b50905060005b858110156110fb57600060058281548110610eef57610eee611d67565b5b9060005260206000200160009054906101000a900473ffffffffffffffffffffffffffffffffffffffff1690506000600260008373ffffffffffffffffffffffffffffffffffffffff1673ffffffffffffffffffffffffffffffffffffffff16815260200190815260200160002060009054906101000a900473ffffffffffffffffffffffffffffffffffffffff1690506000600460008473ffffffffffffffffffffffffffffffffffffffff1673ffffffffffffffffffffffffffffffffffffffff1681526020019081526020016000205490506000600360008473ffffffffffffffffffffffffffffffffffffffff1673ffffffffffffffffffffffffffffffffffffffff1681526020019081526020016000205490508389868151811061101c5761101b611d67565b5b602002602001019073ffffffffffffffffffffffffffffffffffffffff16908173ffffffffffffffffffffffffffffffffffffffff16815250508288868151811061106a57611069611d67565b5b602002602001019073ffffffffffffffffffffffffffffffffffffffff16908173ffffffffffffffffffffffffffffffffffffffff1681525050818786815181106110b8576110b7611d67565b5b602002602001018181525050808686815181106110d8576110d7611d67565b5b6020026020010181815250505050505080806110f390611dc5565b915050610ed1565b50838383839850985098509850505050505090919293565b61111b6114e7565b6111256000611717565b565b60065481565b60036020528060005260406000206000915090505481565b60046020528060005260406000206000915090505481565b6000600160009054906101000a900473ffffffffffffffffffffffffffffffffffffffff16905090565b61118f6114e7565b80600760006101000a81548173ffffffffffffffffffffffffffffffffffffffff021916908373ffffffffffffffffffffffffffffffffffffffff16021790555050565b6111db6114e7565b6111e36117dd565b565b60026020528060005260406000206000915054906101000a900473ffffffffffffffffffffffffffffffffffffffff1681565b6005818154811061122857600080fd5b906000526020600020016000915054906101000a900473ffffffffffffffffffffffffffffffffffffffff1681565b61125f611612565b611267611661565b6000600260003373ffffffffffffffffffffffffffffffffffffffff1673ffffffffffffffffffffffffffffffffffffffff16815260200190815260200160002060009054906101000a900473ffffffffffffffffffffffffffffffffffffffff169050600073ffffffffffffffffffffffffffffffffffffffff168173ffffffffffffffffffffffffffffffffffffffff160361133a576040517f08c379a000000000000000000000000000000000000000000000000000000000815260040161133190611f97565b60405180910390fd5b34600360008373ffffffffffffffffffffffffffffffffffffffff1673ffffffffffffffffffffffffffffffffffffffff16815260200190815260200160002060008282546113899190611fb7565b9250508190555034600460003373ffffffffffffffffffffffffffffffffffffffff1673ffffffffffffffffffffffffffffffffffffffff16815260200190815260200160002060008282546113df9190611fb7565b925050819055506113f1600533611565565b611459576005339080600181540180825580915050600190039060005260206000200160009091909190916101000a81548173ffffffffffffffffffffffffffffffffffffffff021916908373ffffffffffffffffffffffffffffffffffffffff1602179055505b506114626116ab565b565b61146c6114e7565b600073ffffffffffffffffffffffffffffffffffffffff168173ffffffffffffffffffffffffffffffffffffffff16036114db576040517f08c379a00000000000000000000000000000000000000000000000000000000081526004016114d29061205d565b60405180910390fd5b6114e481611717565b50565b6114ef611840565b73ffffffffffffffffffffffffffffffffffffffff1661150d61115d565b73ffffffffffffffffffffffffffffffffffffffff1614611563576040517f08c379a000000000000000000000000000000000000000000000000000000000815260040161155a906120c9565b60405180910390fd5b565b600080600090505b8380549050811015611606578273ffffffffffffffffffffffffffffffffffffffff168482815481106115a3576115a2611d67565b5b9060005260206000200160009054906101000a900473ffffffffffffffffffffffffffffffffffffffff1673ffffffffffffffffffffffffffffffffffffffff16036115f357600191505061160c565b80806115fe90611dc5565b91505061156d565b50600090505b92915050565b600260005403611657576040517f08c379a000000000000000000000000000000000000000000000000000000000815260040161164e90612135565b60405180910390fd5b6002600081905550565b611669610d1d565b156116a9576040517f08c379a00000000000000000000000000000000000000000000000000000000081526004016116a0906121a1565b60405180910390fd5b565b6001600081905550565b6116bd611661565b60018060146101000a81548160ff0219169083151502179055507f62e78cea01bee320cd4e420270b5ea74000d11b0c9f74754ebdbfc544b05a258611700611840565b60405161170d9190611970565b60405180910390a1565b6000600160009054906101000a900473ffffffffffffffffffffffffffffffffffffffff16905081600160006101000a81548173ffffffffffffffffffffffffffffffffffffffff021916908373ffffffffffffffffffffffffffffffffffffffff1602179055508173ffffffffffffffffffffffffffffffffffffffff168173ffffffffffffffffffffffffffffffffffffffff167f8be0079c531659141344cd1fd0a4f28419497f9722a3daafe3b4186f6b6457e060405160405180910390a35050565b6117e5611848565b6000600160146101000a81548160ff0219169083151502179055507f5db9ee0a495bf2e6ff9c91a7834c1ba4fdd244a5e8aa4e537bd38aeae4b073aa611829611840565b6040516118369190611970565b60405180910390a1565b600033905090565b611850610d1d565b61188f576040517f08c379a00000000000000000000000000000000000000000000000000000000081526004016118869061220d565b60405180910390fd5b565b600080fd5b600073ffffffffffffffffffffffffffffffffffffffff82169050919050565b60006118c182611896565b9050919050565b6118d1816118b6565b81146118dc57600080fd5b50565b6000813590506118ee816118c8565b92915050565b60006020828403121561190a57611909611891565b5b6000611918848285016118df565b91505092915050565b6000806040838503121561193857611937611891565b5b6000611946858286016118df565b9250506020611957858286016118df565b9150509250929050565b61196a816118b6565b82525050565b60006020820190506119856000830184611961565b92915050565b6000819050919050565b61199e8161198b565b82525050565b60006060820190506119b96000830186611961565b6119c66020830185611995565b6119d36040830184611995565b949350505050565b60008115159050919050565b6119f0816119db565b82525050565b6000602082019050611a0b60008301846119e7565b92915050565b611a1a8161198b565b8114611a2557600080fd5b50565b600081359050611a3781611a11565b92915050565b600060208284031215611a5357611a52611891565b5b6000611a6184828501611a28565b91505092915050565b600081519050919050565b600082825260208201905092915050565b6000819050602082019050919050565b611a9f816118b6565b82525050565b6000611ab18383611a96565b60208301905092915050565b6000602082019050919050565b6000611ad582611a6a565b611adf8185611a75565b9350611aea83611a86565b8060005b83811015611b1b578151611b028882611aa5565b9750611b0d83611abd565b925050600181019050611aee565b5085935050505092915050565b600081519050919050565b600082825260208201905092915050565b6000819050602082019050919050565b611b5d8161198b565b82525050565b6000611b6f8383611b54565b60208301905092915050565b6000602082019050919050565b6000611b9382611b28565b611b9d8185611b33565b9350611ba883611b44565b8060005b83811015611bd9578151611bc08882611b63565b9750611bcb83611b7b565b925050600181019050611bac565b5085935050505092915050565b60006080820190508181036000830152611c008187611aca565b90508181036020830152611c148186611aca565b90508181036040830152611c288185611b88565b90508181036060830152611c3c8184611b88565b905095945050505050565b6000602082019050611c5c6000830184611995565b92915050565b7f4e487b7100000000000000000000000000000000000000000000000000000000600052601160045260246000fd5b6000611c9c8261198b565b9150611ca78361198b565b9250828202611cb58161198b565b91508282048414831517611ccc57611ccb611c62565b5b5092915050565b7f4e487b7100000000000000000000000000000000000000000000000000000000600052601260045260246000fd5b6000611d0d8261198b565b9150611d188361198b565b925082611d2857611d27611cd3565b5b828204905092915050565b6000611d3e8261198b565b9150611d498361198b565b9250828203905081811115611d6157611d60611c62565b5b92915050565b7f4e487b7100000000000000000000000000000000000000000000000000000000600052603260045260246000fd5b7f4e487b7100000000000000000000000000000000000000000000000000000000600052603160045260246000fd5b6000611dd08261198b565b91507fffffffffffffffffffffffffffffffffffffffffffffffffffffffffffffffff8203611e0257611e01611c62565b5b600182019050919050565b600082825260208201905092915050565b7f4e6f2066756e647320617661696c61626c6520746f2077697468647261770000600082015250565b6000611e54601e83611e0d565b9150611e5f82611e1e565b602082019050919050565b60006020820190508181036000830152611e8381611e47565b9050919050565b7f4665652070657263656e746167652063616e6e6f74206578636565642031303060008201527f2500000000000000000000000000000000000000000000000000000000000000602082015250565b6000611ee6602183611e0d565b9150611ef182611e8a565b604082019050919050565b60006020820190508181036000830152611f1581611ed9565b9050919050565b7f4e487b7100000000000000000000000000000000000000000000000000000000600052604160045260246000fd5b7f56616c696461746f72206e6f6465206e6f74206c696e6b656400000000000000600082015250565b6000611f81601983611e0d565b9150611f8c82611f4b565b602082019050919050565b60006020820190508181036000830152611fb081611f74565b9050919050565b6000611fc28261198b565b9150611fcd8361198b565b9250828201905080821115611fe557611fe4611c62565b5b92915050565b7f4f776e61626c653a206e6577206f776e657220697320746865207a65726f206160008201527f6464726573730000000000000000000000000000000000000000000000000000602082015250565b6000612047602683611e0d565b915061205282611feb565b604082019050919050565b600060208201905081810360008301526120768161203a565b9050919050565b7f4f776e61626c653a2063616c6c6572206973206e6f7420746865206f776e6572600082015250565b60006120b3602083611e0d565b91506120be8261207d565b602082019050919050565b600060208201905081810360008301526120e2816120a6565b9050919050565b7f5265656e7472616e637947756172643a207265656e7472616e742063616c6c00600082015250565b600061211f601f83611e0d565b915061212a826120e9565b602082019050919050565b6000602082019050818103600083015261214e81612112565b9050919050565b7f5061757361626c653a2070617573656400000000000000000000000000000000600082015250565b600061218b601083611e0d565b915061219682612155565b602082019050919050565b600060208201905081810360008301526121ba8161217e565b9050919050565b7f5061757361626c653a206e6f7420706175736564000000000000000000000000600082015250565b60006121f7601483611e0d565b9150612202826121c1565b602082019050919050565b60006020820190508181036000830152612226816121ea565b905091905056fea264697066735822122061570d479e6bbab3980cffb6c1cd185ae058be207e7748e0de6903404740a9b964736f6c63430008120033",
					"opcodes": "PUSH1 0x80 PUSH1 0x40 MSTORE PUSH1 0xA PUSH1 0x6 SSTORE PUSH1 0x0 PUSH1 0x7 PUSH1 0x0 PUSH2 0x100 EXP DUP2 SLOAD DUP2 PUSH20 0xFFFFFFFFFFFFFFFFFFFFFFFFFFFFFFFFFFFFFFFF MUL NOT AND SWAP1 DUP4 PUSH20 0xFFFFFFFFFFFFFFFFFFFFFFFFFFFFFFFFFFFFFFFF AND MUL OR SWAP1 SSTORE POP CALLVALUE DUP1 ISZERO PUSH2 0x57 JUMPI PUSH1 0x0 DUP1 REVERT JUMPDEST POP PUSH1 0x1 PUSH1 0x0 DUP2 SWAP1 SSTORE POP PUSH2 0x7C PUSH2 0x71 PUSH2 0x9C PUSH1 0x20 SHL PUSH1 0x20 SHR JUMP JUMPDEST PUSH2 0xA4 PUSH1 0x20 SHL PUSH1 0x20 SHR JUMP JUMPDEST PUSH1 0x0 PUSH1 0x1 PUSH1 0x14 PUSH2 0x100 EXP DUP2 SLOAD DUP2 PUSH1 0xFF MUL NOT AND SWAP1 DUP4 ISZERO ISZERO MUL OR SWAP1 SSTORE POP PUSH2 0x16A JUMP JUMPDEST PUSH1 0x0 CALLER SWAP1 POP SWAP1 JUMP JUMPDEST PUSH1 0x0 PUSH1 0x1 PUSH1 0x0 SWAP1 SLOAD SWAP1 PUSH2 0x100 EXP SWAP1 DIV PUSH20 0xFFFFFFFFFFFFFFFFFFFFFFFFFFFFFFFFFFFFFFFF AND SWAP1 POP DUP2 PUSH1 0x1 PUSH1 0x0 PUSH2 0x100 EXP DUP2 SLOAD DUP2 PUSH20 0xFFFFFFFFFFFFFFFFFFFFFFFFFFFFFFFFFFFFFFFF MUL NOT AND SWAP1 DUP4 PUSH20 0xFFFFFFFFFFFFFFFFFFFFFFFFFFFFFFFFFFFFFFFF AND MUL OR SWAP1 SSTORE POP DUP2 PUSH20 0xFFFFFFFFFFFFFFFFFFFFFFFFFFFFFFFFFFFFFFFF AND DUP2 PUSH20 0xFFFFFFFFFFFFFFFFFFFFFFFFFFFFFFFFFFFFFFFF AND PUSH32 0x8BE0079C531659141344CD1FD0A4F28419497F9722A3DAAFE3B4186F6B6457E0 PUSH1 0x40 MLOAD PUSH1 0x40 MLOAD DUP1 SWAP2 SUB SWAP1 LOG3 POP POP JUMP JUMPDEST PUSH2 0x2263 DUP1 PUSH3 0x17A PUSH1 0x0 CODECOPY PUSH1 0x0 RETURN INVALID PUSH1 0x80 PUSH1 0x40 MSTORE PUSH1 0x4 CALLDATASIZE LT PUSH2 0x11F JUMPI PUSH1 0x0 CALLDATALOAD PUSH1 0xE0 SHR DUP1 PUSH4 0x78922C8F GT PUSH2 0xA0 JUMPI DUP1 PUSH4 0xB33712C5 GT PUSH2 0x64 JUMPI DUP1 PUSH4 0xB33712C5 EQ PUSH2 0x3A0 JUMPI DUP1 PUSH4 0xB5E1302E EQ PUSH2 0x3B7 JUMPI DUP1 PUSH4 0xBB0A43BC EQ PUSH2 0x3F4 JUMPI DUP1 PUSH4 0xD0E30DB0 EQ PUSH2 0x431 JUMPI DUP1 PUSH4 0xF2FDE38B EQ PUSH2 0x43B JUMPI PUSH2 0x11F JUMP JUMPDEST DUP1 PUSH4 0x78922C8F EQ PUSH2 0x2A7 JUMPI DUP1 PUSH4 0x7D995311 EQ PUSH2 0x2D2 JUMPI DUP1 PUSH4 0x7DA830B4 EQ PUSH2 0x30F JUMPI DUP1 PUSH4 0x8DA5CB5B EQ PUSH2 0x34C JUMPI DUP1 PUSH4 0xA7D77CE5 EQ PUSH2 0x377 JUMPI PUSH2 0x11F JUMP JUMPDEST DUP1 PUSH4 0x439766CE GT PUSH2 0xE7 JUMPI DUP1 PUSH4 0x439766CE EQ PUSH2 0x1F7 JUMPI DUP1 PUSH4 0x5C975ABB EQ PUSH2 0x20E JUMPI DUP1 PUSH4 0x5FB0EA90 EQ PUSH2 0x239 JUMPI DUP1 PUSH4 0x6CA6D88E EQ PUSH2 0x262 JUMPI DUP1 PUSH4 0x715018A6 EQ PUSH2 0x290 JUMPI PUSH2 0x11F JUMP JUMPDEST DUP1 PUSH4 0x3A2C9E2 EQ PUSH2 0x124 JUMPI DUP1 PUSH4 0x22DF93BA EQ PUSH2 0x14D JUMPI DUP1 PUSH4 0x33DEEA05 EQ PUSH2 0x176 JUMPI DUP1 PUSH4 0x3CCFD60B EQ PUSH2 0x1A1 JUMPI DUP1 PUSH4 0x3ED0EEE4 EQ PUSH2 0x1B8 JUMPI JUMPDEST PUSH1 0x0 DUP1 REVERT JUMPDEST CALLVALUE DUP1 ISZERO PUSH2 0x130 JUMPI PUSH1 0x0 DUP1 REVERT JUMPDEST POP PUSH2 0x14B PUSH1 0x4 DUP1 CALLDATASIZE SUB DUP2 ADD SWAP1 PUSH2 0x146 SWAP2 SWAP1 PUSH2 0x18F4 JUMP JUMPDEST PUSH2 0x464 JUMP JUMPDEST STOP JUMPDEST CALLVALUE DUP1 ISZERO PUSH2 0x159 JUMPI PUSH1 0x0 DUP1 REVERT JUMPDEST POP PUSH2 0x174 PUSH1 0x4 DUP1 CALLDATASIZE SUB DUP2 ADD SWAP1 PUSH2 0x16F SWAP2 SWAP1 PUSH2 0x1921 JUMP JUMPDEST PUSH2 0x8C7 JUMP JUMPDEST STOP JUMPDEST CALLVALUE DUP1 ISZERO PUSH2 0x182 JUMPI PUSH1 0x0 DUP1 REVERT JUMPDEST POP PUSH2 0x18B PUSH2 0x9C4 JUMP JUMPDEST PUSH1 0x40 MLOAD PUSH2 0x198 SWAP2 SWAP1 PUSH2 0x1970 JUMP JUMPDEST PUSH1 0x40 MLOAD DUP1 SWAP2 SUB SWAP1 RETURN JUMPDEST CALLVALUE DUP1 ISZERO PUSH2 0x1AD JUMPI PUSH1 0x0 DUP1 REVERT JUMPDEST POP PUSH2 0x1B6 PUSH2 0x9EA JUMP JUMPDEST STOP JUMPDEST CALLVALUE DUP1 ISZERO PUSH2 0x1C4 JUMPI PUSH1 0x0 DUP1 REVERT JUMPDEST POP PUSH2 0x1DF PUSH1 0x4 DUP1 CALLDATASIZE SUB DUP2 ADD SWAP1 PUSH2 0x1DA SWAP2 SWAP1 PUSH2 0x18F4 JUMP JUMPDEST PUSH2 0xC08 JUMP JUMPDEST PUSH1 0x40 MLOAD PUSH2 0x1EE SWAP4 SWAP3 SWAP2 SWAP1 PUSH2 0x19A4 JUMP JUMPDEST PUSH1 0x40 MLOAD DUP1 SWAP2 SUB SWAP1 RETURN JUMPDEST CALLVALUE DUP1 ISZERO PUSH2 0x203 JUMPI PUSH1 0x0 DUP1 REVERT JUMPDEST POP PUSH2 0x20C PUSH2 0xD0B JUMP JUMPDEST STOP JUMPDEST CALLVALUE DUP1 ISZERO PUSH2 0x21A JUMPI PUSH1 0x0 DUP1 REVERT JUMPDEST POP PUSH2 0x223 PUSH2 0xD1D JUMP JUMPDEST PUSH1 0x40 MLOAD PUSH2 0x230 SWAP2 SWAP1 PUSH2 0x19F6 JUMP JUMPDEST PUSH1 0x40 MLOAD DUP1 SWAP2 SUB SWAP1 RETURN JUMPDEST CALLVALUE DUP1 ISZERO PUSH2 0x245 JUMPI PUSH1 0x0 DUP1 REVERT JUMPDEST POP PUSH2 0x260 PUSH1 0x4 DUP1 CALLDATASIZE SUB DUP2 ADD SWAP1 PUSH2 0x25B SWAP2 SWAP1 PUSH2 0x1A3D JUMP JUMPDEST PUSH2 0xD34 JUMP JUMPDEST STOP JUMPDEST CALLVALUE DUP1 ISZERO PUSH2 0x26E JUMPI PUSH1 0x0 DUP1 REVERT JUMPDEST POP PUSH2 0x277 PUSH2 0xD8A JUMP JUMPDEST PUSH1 0x40 MLOAD PUSH2 0x287 SWAP5 SWAP4 SWAP3 SWAP2 SWAP1 PUSH2 0x1BE6 JUMP JUMPDEST PUSH1 0x40 MLOAD DUP1 SWAP2 SUB SWAP1 RETURN JUMPDEST CALLVALUE DUP1 ISZERO PUSH2 0x29C JUMPI PUSH1 0x0 DUP1 REVERT JUMPDEST POP PUSH2 0x2A5 PUSH2 0x1113 JUMP JUMPDEST STOP JUMPDEST CALLVALUE DUP1 ISZERO PUSH2 0x2B3 JUMPI PUSH1 0x0 DUP1 REVERT JUMPDEST POP PUSH2 0x2BC PUSH2 0x1127 JUMP JUMPDEST PUSH1 0x40 MLOAD PUSH2 0x2C9 SWAP2 SWAP1 PUSH2 0x1C47 JUMP JUMPDEST PUSH1 0x40 MLOAD DUP1 SWAP2 SUB SWAP1 RETURN JUMPDEST CALLVALUE DUP1 ISZERO PUSH2 0x2DE JUMPI PUSH1 0x0 DUP1 REVERT JUMPDEST POP PUSH2 0x2F9 PUSH1 0x4 DUP1 CALLDATASIZE SUB DUP2 ADD SWAP1 PUSH2 0x2F4 SWAP2 SWAP1 PUSH2 0x18F4 JUMP JUMPDEST PUSH2 0x112D JUMP JUMPDEST PUSH1 0x40 MLOAD PUSH2 0x306 SWAP2 SWAP1 PUSH2 0x1C47 JUMP JUMPDEST PUSH1 0x40 MLOAD DUP1 SWAP2 SUB SWAP1 RETURN JUMPDEST CALLVALUE DUP1 ISZERO PUSH2 0x31B JUMPI PUSH1 0x0 DUP1 REVERT JUMPDEST POP PUSH2 0x336 PUSH1 0x4 DUP1 CALLDATASIZE SUB DUP2 ADD SWAP1 PUSH2 0x331 SWAP2 SWAP1 PUSH2 0x18F4 JUMP JUMPDEST PUSH2 0x1145 JUMP JUMPDEST PUSH1 0x40 MLOAD PUSH2 0x343 SWAP2 SWAP1 PUSH2 0x1C47 JUMP JUMPDEST PUSH1 0x40 MLOAD DUP1 SWAP2 SUB SWAP1 RETURN JUMPDEST CALLVALUE DUP1 ISZERO PUSH2 0x358 JUMPI PUSH1 0x0 DUP1 REVERT JUMPDEST POP PUSH2 0x361 PUSH2 0x115D JUMP JUMPDEST PUSH1 0x40 MLOAD PUSH2 0x36E SWAP2 SWAP1 PUSH2 0x1970 JUMP JUMPDEST PUSH1 0x40 MLOAD DUP1 SWAP2 SUB SWAP1 RETURN JUMPDEST CALLVALUE DUP1 ISZERO PUSH2 0x383 JUMPI PUSH1 0x0 DUP1 REVERT JUMPDEST POP PUSH2 0x39E PUSH1 0x4 DUP1 CALLDATASIZE SUB DUP2 ADD SWAP1 PUSH2 0x399 SWAP2 SWAP1 PUSH2 0x18F4 JUMP JUMPDEST PUSH2 0x1187 JUMP JUMPDEST STOP JUMPDEST CALLVALUE DUP1 ISZERO PUSH2 0x3AC JUMPI PUSH1 0x0 DUP1 REVERT JUMPDEST POP PUSH2 0x3B5 PUSH2 0x11D3 JUMP JUMPDEST STOP JUMPDEST CALLVALUE DUP1 ISZERO PUSH2 0x3C3 JUMPI PUSH1 0x0 DUP1 REVERT JUMPDEST POP PUSH2 0x3DE PUSH1 0x4 DUP1 CALLDATASIZE SUB DUP2 ADD SWAP1 PUSH2 0x3D9 SWAP2 SWAP1 PUSH2 0x18F4 JUMP JUMPDEST PUSH2 0x11E5 JUMP JUMPDEST PUSH1 0x40 MLOAD PUSH2 0x3EB SWAP2 SWAP1 PUSH2 0x1970 JUMP JUMPDEST PUSH1 0x40 MLOAD DUP1 SWAP2 SUB SWAP1 RETURN JUMPDEST CALLVALUE DUP1 ISZERO PUSH2 0x400 JUMPI PUSH1 0x0 DUP1 REVERT JUMPDEST POP PUSH2 0x41B PUSH1 0x4 DUP1 CALLDATASIZE SUB DUP2 ADD SWAP1 PUSH2 0x416 SWAP2 SWAP1 PUSH2 0x1A3D JUMP JUMPDEST PUSH2 0x1218 JUMP JUMPDEST PUSH1 0x40 MLOAD PUSH2 0x428 SWAP2 SWAP1 PUSH2 0x1970 JUMP JUMPDEST PUSH1 0x40 MLOAD DUP1 SWAP2 SUB SWAP1 RETURN JUMPDEST PUSH2 0x439 PUSH2 0x1257 JUMP JUMPDEST STOP JUMPDEST CALLVALUE DUP1 ISZERO PUSH2 0x447 JUMPI PUSH1 0x0 DUP1 REVERT JUMPDEST POP PUSH2 0x462 PUSH1 0x4 DUP1 CALLDATASIZE SUB DUP2 ADD SWAP1 PUSH2 0x45D SWAP2 SWAP1 PUSH2 0x18F4 JUMP JUMPDEST PUSH2 0x1464 JUMP JUMPDEST STOP JUMPDEST PUSH2 0x46C PUSH2 0x14E7 JUMP JUMPDEST PUSH1 0x0 PUSH1 0x2 PUSH1 0x0 DUP4 PUSH20 0xFFFFFFFFFFFFFFFFFFFFFFFFFFFFFFFFFFFFFFFF AND PUSH20 0xFFFFFFFFFFFFFFFFFFFFFFFFFFFFFFFFFFFFFFFF AND DUP2 MSTORE PUSH1 0x20 ADD SWAP1 DUP2 MSTORE PUSH1 0x20 ADD PUSH1 0x0 KECCAK256 PUSH1 0x0 SWAP1 SLOAD SWAP1 PUSH2 0x100 EXP SWAP1 DIV PUSH20 0xFFFFFFFFFFFFFFFFFFFFFFFFFFFFFFFFFFFFFFFF AND SWAP1 POP PUSH1 0x0 PUSH1 0x3 PUSH1 0x0 DUP4 PUSH20 0xFFFFFFFFFFFFFFFFFFFFFFFFFFFFFFFFFFFFFFFF AND PUSH20 0xFFFFFFFFFFFFFFFFFFFFFFFFFFFFFFFFFFFFFFFF AND DUP2 MSTORE PUSH1 0x20 ADD SWAP1 DUP2 MSTORE PUSH1 0x20 ADD PUSH1 0x0 KECCAK256 SLOAD SWAP1 POP PUSH1 0x0 PUSH1 0x64 PUSH1 0x6 SLOAD DUP4 PUSH2 0x526 SWAP2 SWAP1 PUSH2 0x1C91 JUMP JUMPDEST PUSH2 0x530 SWAP2 SWAP1 PUSH2 0x1D02 JUMP JUMPDEST SWAP1 POP PUSH1 0x0 DUP2 DUP4 PUSH2 0x540 SWAP2 SWAP1 PUSH2 0x1D33 JUMP JUMPDEST SWAP1 POP PUSH1 0x0 PUSH1 0x3 PUSH1 0x0 DUP7 PUSH20 0xFFFFFFFFFFFFFFFFFFFFFFFFFFFFFFFFFFFFFFFF AND PUSH20 0xFFFFFFFFFFFFFFFFFFFFFFFFFFFFFFFFFFFFFFFF AND DUP2 MSTORE PUSH1 0x20 ADD SWAP1 DUP2 MSTORE PUSH1 0x20 ADD PUSH1 0x0 KECCAK256 DUP2 SWAP1 SSTORE POP DUP4 PUSH20 0xFFFFFFFFFFFFFFFFFFFFFFFFFFFFFFFFFFFFFFFF AND PUSH2 0x8FC DUP3 SWAP1 DUP2 ISZERO MUL SWAP1 PUSH1 0x40 MLOAD PUSH1 0x0 PUSH1 0x40 MLOAD DUP1 DUP4 SUB DUP2 DUP6 DUP9 DUP9 CALL SWAP4 POP POP POP POP ISZERO DUP1 ISZERO PUSH2 0x5CD JUMPI RETURNDATASIZE PUSH1 0x0 DUP1 RETURNDATACOPY RETURNDATASIZE PUSH1 0x0 REVERT JUMPDEST POP PUSH1 0x0 PUSH20 0xFFFFFFFFFFFFFFFFFFFFFFFFFFFFFFFFFFFFFFFF AND PUSH1 0x7 PUSH1 0x0 SWAP1 SLOAD SWAP1 PUSH2 0x100 EXP SWAP1 DIV PUSH20 0xFFFFFFFFFFFFFFFFFFFFFFFFFFFFFFFFFFFFFFFF AND PUSH20 0xFFFFFFFFFFFFFFFFFFFFFFFFFFFFFFFFFFFFFFFF AND EQ PUSH2 0x68E JUMPI PUSH1 0x7 PUSH1 0x0 SWAP1 SLOAD SWAP1 PUSH2 0x100 EXP SWAP1 DIV PUSH20 0xFFFFFFFFFFFFFFFFFFFFFFFFFFFFFFFFFFFFFFFF AND PUSH20 0xFFFFFFFFFFFFFFFFFFFFFFFFFFFFFFFFFFFFFFFF AND PUSH2 0x8FC DUP4 SWAP1 DUP2 ISZERO MUL SWAP1 PUSH1 0x40 MLOAD PUSH1 0x0 PUSH1 0x40 MLOAD DUP1 DUP4 SUB DUP2 DUP6 DUP9 DUP9 CALL SWAP4 POP POP POP POP ISZERO DUP1 ISZERO PUSH2 0x68C JUMPI RETURNDATASIZE PUSH1 0x0 DUP1 RETURNDATACOPY RETURNDATASIZE PUSH1 0x0 REVERT JUMPDEST POP JUMPDEST PUSH1 0x0 JUMPDEST PUSH1 0x5 DUP1 SLOAD SWAP1 POP DUP2 LT ISZERO PUSH2 0x81A JUMPI DUP6 PUSH20 0xFFFFFFFFFFFFFFFFFFFFFFFFFFFFFFFFFFFFFFFF AND PUSH1 0x5 DUP3 DUP2 SLOAD DUP2 LT PUSH2 0x6C9 JUMPI PUSH2 0x6C8 PUSH2 0x1D67 JUMP JUMPDEST JUMPDEST SWAP1 PUSH1 0x0 MSTORE PUSH1 0x20 PUSH1 0x0 KECCAK256 ADD PUSH1 0x0 SWAP1 SLOAD SWAP1 PUSH2 0x100 EXP SWAP1 DIV PUSH20 0xFFFFFFFFFFFFFFFFFFFFFFFFFFFFFFFFFFFFFFFF AND PUSH20 0xFFFFFFFFFFFFFFFFFFFFFFFFFFFFFFFFFFFFFFFF AND SUB PUSH2 0x807 JUMPI PUSH1 0x5 PUSH1 0x1 PUSH1 0x5 DUP1 SLOAD SWAP1 POP PUSH2 0x723 SWAP2 SWAP1 PUSH2 0x1D33 JUMP JUMPDEST DUP2 SLOAD DUP2 LT PUSH2 0x734 JUMPI PUSH2 0x733 PUSH2 0x1D67 JUMP JUMPDEST JUMPDEST SWAP1 PUSH1 0x0 MSTORE PUSH1 0x20 PUSH1 0x0 KECCAK256 ADD PUSH1 0x0 SWAP1 SLOAD SWAP1 PUSH2 0x100 EXP SWAP1 DIV PUSH20 0xFFFFFFFFFFFFFFFFFFFFFFFFFFFFFFFFFFFFFFFF AND PUSH1 0x5 DUP3 DUP2 SLOAD DUP2 LT PUSH2 0x773 JUMPI PUSH2 0x772 PUSH2 0x1D67 JUMP JUMPDEST JUMPDEST SWAP1 PUSH1 0x0 MSTORE PUSH1 0x20 PUSH1 0x0 KECCAK256 ADD PUSH1 0x0 PUSH2 0x100 EXP DUP2 SLOAD DUP2 PUSH20 0xFFFFFFFFFFFFFFFFFFFFFFFFFFFFFFFFFFFFFFFF MUL NOT AND SWAP1 DUP4 PUSH20 0xFFFFFFFFFFFFFFFFFFFFFFFFFFFFFFFFFFFFFFFF AND MUL OR SWAP1 SSTORE POP PUSH1 0x5 DUP1 SLOAD DUP1 PUSH2 0x7CD JUMPI PUSH2 0x7CC PUSH2 0x1D96 JUMP JUMPDEST JUMPDEST PUSH1 0x1 SWAP1 SUB DUP2 DUP2 SWAP1 PUSH1 0x0 MSTORE PUSH1 0x20 PUSH1 0x0 KECCAK256 ADD PUSH1 0x0 PUSH2 0x100 EXP DUP2 SLOAD SWAP1 PUSH20 0xFFFFFFFFFFFFFFFFFFFFFFFFFFFFFFFFFFFFFFFF MUL NOT AND SWAP1 SSTORE SWAP1 SSTORE PUSH2 0x81A JUMP JUMPDEST DUP1 DUP1 PUSH2 0x812 SWAP1 PUSH2 0x1DC5 JUMP JUMPDEST SWAP2 POP POP PUSH2 0x691 JUMP JUMPDEST POP PUSH1 0x2 PUSH1 0x0 DUP7 PUSH20 0xFFFFFFFFFFFFFFFFFFFFFFFFFFFFFFFFFFFFFFFF AND PUSH20 0xFFFFFFFFFFFFFFFFFFFFFFFFFFFFFFFFFFFFFFFF AND DUP2 MSTORE PUSH1 0x20 ADD SWAP1 DUP2 MSTORE PUSH1 0x20 ADD PUSH1 0x0 KECCAK256 PUSH1 0x0 PUSH2 0x100 EXP DUP2 SLOAD SWAP1 PUSH20 0xFFFFFFFFFFFFFFFFFFFFFFFFFFFFFFFFFFFFFFFF MUL NOT AND SWAP1 SSTORE PUSH1 0x4 PUSH1 0x0 DUP7 PUSH20 0xFFFFFFFFFFFFFFFFFFFFFFFFFFFFFFFFFFFFFFFF AND PUSH20 0xFFFFFFFFFFFFFFFFFFFFFFFFFFFFFFFFFFFFFFFF AND DUP2 MSTORE PUSH1 0x20 ADD SWAP1 DUP2 MSTORE PUSH1 0x20 ADD PUSH1 0x0 KECCAK256 PUSH1 0x0 SWAP1 SSTORE POP POP POP POP POP JUMP JUMPDEST PUSH2 0x8CF PUSH2 0x14E7 JUMP JUMPDEST DUP1 PUSH1 0x2 PUSH1 0x0 DUP5 PUSH20 0xFFFFFFFFFFFFFFFFFFFFFFFFFFFFFFFFFFFFFFFF AND PUSH20 0xFFFFFFFFFFFFFFFFFFFFFFFFFFFFFFFFFFFFFFFF AND DUP2 MSTORE PUSH1 0x20 ADD SWAP1 DUP2 MSTORE PUSH1 0x20 ADD PUSH1 0x0 KECCAK256 PUSH1 0x0 PUSH2 0x100 EXP DUP2 SLOAD DUP2 PUSH20 0xFFFFFFFFFFFFFFFFFFFFFFFFFFFFFFFFFFFFFFFF MUL NOT AND SWAP1 DUP4 PUSH20 0xFFFFFFFFFFFFFFFFFFFFFFFFFFFFFFFFFFFFFFFF AND MUL OR SWAP1 SSTORE POP PUSH2 0x958 PUSH1 0x5 DUP4 PUSH2 0x1565 JUMP JUMPDEST PUSH2 0x9C0 JUMPI PUSH1 0x5 DUP3 SWAP1 DUP1 PUSH1 0x1 DUP2 SLOAD ADD DUP1 DUP3 SSTORE DUP1 SWAP2 POP POP PUSH1 0x1 SWAP1 SUB SWAP1 PUSH1 0x0 MSTORE PUSH1 0x20 PUSH1 0x0 KECCAK256 ADD PUSH1 0x0 SWAP1 SWAP2 SWAP1 SWAP2 SWAP1 SWAP2 PUSH2 0x100 EXP DUP2 SLOAD DUP2 PUSH20 0xFFFFFFFFFFFFFFFFFFFFFFFFFFFFFFFFFFFFFFFF MUL NOT AND SWAP1 DUP4 PUSH20 0xFFFFFFFFFFFFFFFFFFFFFFFFFFFFFFFFFFFFFFFF AND MUL OR SWAP1 SSTORE POP JUMPDEST POP POP JUMP JUMPDEST PUSH1 0x7 PUSH1 0x0 SWAP1 SLOAD SWAP1 PUSH2 0x100 EXP SWAP1 DIV PUSH20 0xFFFFFFFFFFFFFFFFFFFFFFFFFFFFFFFFFFFFFFFF AND DUP2 JUMP JUMPDEST PUSH2 0x9F2 PUSH2 0x1612 JUMP JUMPDEST PUSH2 0x9FA PUSH2 0x1661 JUMP JUMPDEST PUSH1 0x0 PUSH1 0x3 PUSH1 0x0 CALLER PUSH20 0xFFFFFFFFFFFFFFFFFFFFFFFFFFFFFFFFFFFFFFFF AND PUSH20 0xFFFFFFFFFFFFFFFFFFFFFFFFFFFFFFFFFFFFFFFF AND DUP2 MSTORE PUSH1 0x20 ADD SWAP1 DUP2 MSTORE PUSH1 0x20 ADD PUSH1 0x0 KECCAK256 SLOAD SWAP1 POP PUSH1 0x0 DUP2 GT PUSH2 0xA81 JUMPI PUSH1 0x40 MLOAD PUSH32 0x8C379A000000000000000000000000000000000000000000000000000000000 DUP2 MSTORE PUSH1 0x4 ADD PUSH2 0xA78 SWAP1 PUSH2 0x1E6A JUMP JUMPDEST PUSH1 0x40 MLOAD DUP1 SWAP2 SUB SWAP1 REVERT JUMPDEST PUSH1 0x0 PUSH1 0x64 PUSH1 0x6 SLOAD DUP4 PUSH2 0xA93 SWAP2 SWAP1 PUSH2 0x1C91 JUMP JUMPDEST PUSH2 0xA9D SWAP2 SWAP1 PUSH2 0x1D02 JUMP JUMPDEST SWAP1 POP PUSH1 0x0 DUP2 DUP4 PUSH2 0xAAD SWAP2 SWAP1 PUSH2 0x1D33 JUMP JUMPDEST SWAP1 POP PUSH1 0x0 PUSH1 0x3 PUSH1 0x0 CALLER PUSH20 0xFFFFFFFFFFFFFFFFFFFFFFFFFFFFFFFFFFFFFFFF AND PUSH20 0xFFFFFFFFFFFFFFFFFFFFFFFFFFFFFFFFFFFFFFFF AND DUP2 MSTORE PUSH1 0x20 ADD SWAP1 DUP2 MSTORE PUSH1 0x20 ADD PUSH1 0x0 KECCAK256 DUP2 SWAP1 SSTORE POP CALLER PUSH20 0xFFFFFFFFFFFFFFFFFFFFFFFFFFFFFFFFFFFFFFFF AND PUSH2 0x8FC DUP3 SWAP1 DUP2 ISZERO MUL SWAP1 PUSH1 0x40 MLOAD PUSH1 0x0 PUSH1 0x40 MLOAD DUP1 DUP4 SUB DUP2 DUP6 DUP9 DUP9 CALL SWAP4 POP POP POP POP ISZERO DUP1 ISZERO PUSH2 0xB3A JUMPI RETURNDATASIZE PUSH1 0x0 DUP1 RETURNDATACOPY RETURNDATASIZE PUSH1 0x0 REVERT JUMPDEST POP PUSH1 0x0 PUSH20 0xFFFFFFFFFFFFFFFFFFFFFFFFFFFFFFFFFFFFFFFF AND PUSH1 0x7 PUSH1 0x0 SWAP1 SLOAD SWAP1 PUSH2 0x100 EXP SWAP1 DIV PUSH20 0xFFFFFFFFFFFFFFFFFFFFFFFFFFFFFFFFFFFFFFFF AND PUSH20 0xFFFFFFFFFFFFFFFFFFFFFFFFFFFFFFFFFFFFFFFF AND EQ PUSH2 0xBFB JUMPI PUSH1 0x7 PUSH1 0x0 SWAP1 SLOAD SWAP1 PUSH2 0x100 EXP SWAP1 DIV PUSH20 0xFFFFFFFFFFFFFFFFFFFFFFFFFFFFFFFFFFFFFFFF AND PUSH20 0xFFFFFFFFFFFFFFFFFFFFFFFFFFFFFFFFFFFFFFFF AND PUSH2 0x8FC DUP4 SWAP1 DUP2 ISZERO MUL SWAP1 PUSH1 0x40 MLOAD PUSH1 0x0 PUSH1 0x40 MLOAD DUP1 DUP4 SUB DUP2 DUP6 DUP9 DUP9 CALL SWAP4 POP POP POP POP ISZERO DUP1 ISZERO PUSH2 0xBF9 JUMPI RETURNDATASIZE PUSH1 0x0 DUP1 RETURNDATACOPY RETURNDATASIZE PUSH1 0x0 REVERT JUMPDEST POP JUMPDEST POP POP POP PUSH2 0xC06 PUSH2 0x16AB JUMP JUMPDEST JUMP JUMPDEST PUSH1 0x0 DUP1 PUSH1 0x0 DUP1 PUSH1 0x2 PUSH1 0x0 DUP7 PUSH20 0xFFFFFFFFFFFFFFFFFFFFFFFFFFFFFFFFFFFFFFFF AND PUSH20 0xFFFFFFFFFFFFFFFFFFFFFFFFFFFFFFFFFFFFFFFF AND DUP2 MSTORE PUSH1 0x20 ADD SWAP1 DUP2 MSTORE PUSH1 0x20 ADD PUSH1 0x0 KECCAK256 PUSH1 0x0 SWAP1 SLOAD SWAP1 PUSH2 0x100 EXP SWAP1 DIV PUSH20 0xFFFFFFFFFFFFFFFFFFFFFFFFFFFFFFFFFFFFFFFF AND SWAP1 POP PUSH1 0x0 PUSH1 0x4 PUSH1 0x0 DUP8 PUSH20 0xFFFFFFFFFFFFFFFFFFFFFFFFFFFFFFFFFFFFFFFF AND PUSH20 0xFFFFFFFFFFFFFFFFFFFFFFFFFFFFFFFFFFFFFFFF AND DUP2 MSTORE PUSH1 0x20 ADD SWAP1 DUP2 MSTORE PUSH1 0x20 ADD PUSH1 0x0 KECCAK256 SLOAD SWAP1 POP PUSH1 0x0 PUSH1 0x3 PUSH1 0x0 DUP5 PUSH20 0xFFFFFFFFFFFFFFFFFFFFFFFFFFFFFFFFFFFFFFFF AND PUSH20 0xFFFFFFFFFFFFFFFFFFFFFFFFFFFFFFFFFFFFFFFF AND DUP2 MSTORE PUSH1 0x20 ADD SWAP1 DUP2 MSTORE PUSH1 0x20 ADD PUSH1 0x0 KECCAK256 SLOAD SWAP1 POP DUP3 DUP3 DUP3 SWAP6 POP SWAP6 POP SWAP6 POP POP POP POP SWAP2 SWAP4 SWAP1 SWAP3 POP JUMP JUMPDEST PUSH2 0xD13 PUSH2 0x14E7 JUMP JUMPDEST PUSH2 0xD1B PUSH2 0x16B5 JUMP JUMPDEST JUMP JUMPDEST PUSH1 0x0 PUSH1 0x1 PUSH1 0x14 SWAP1 SLOAD SWAP1 PUSH2 0x100 EXP SWAP1 DIV PUSH1 0xFF AND SWAP1 POP SWAP1 JUMP JUMPDEST PUSH2 0xD3C PUSH2 0x14E7 JUMP JUMPDEST PUSH1 0x64 DUP2 GT ISZERO PUSH2 0xD80 JUMPI PUSH1 0x40 MLOAD PUSH32 0x8C379A000000000000000000000000000000000000000000000000000000000 DUP2 MSTORE PUSH1 0x4 ADD PUSH2 0xD77 SWAP1 PUSH2 0x1EFC JUMP JUMPDEST PUSH1 0x40 MLOAD DUP1 SWAP2 SUB SWAP1 REVERT JUMPDEST DUP1 PUSH1 0x6 DUP2 SWAP1 SSTORE POP POP JUMP JUMPDEST PUSH1 0x60 DUP1 PUSH1 0x60 DUP1 PUSH1 0x0 PUSH1 0x5 DUP1 SLOAD SWAP1 POP SWAP1 POP PUSH1 0x0 DUP2 PUSH8 0xFFFFFFFFFFFFFFFF DUP2 GT ISZERO PUSH2 0xDB6 JUMPI PUSH2 0xDB5 PUSH2 0x1F1C JUMP JUMPDEST JUMPDEST PUSH1 0x40 MLOAD SWAP1 DUP1 DUP3 MSTORE DUP1 PUSH1 0x20 MUL PUSH1 0x20 ADD DUP3 ADD PUSH1 0x40 MSTORE DUP1 ISZERO PUSH2 0xDE4 JUMPI DUP2 PUSH1 0x20 ADD PUSH1 0x20 DUP3 MUL DUP1 CALLDATASIZE DUP4 CALLDATACOPY DUP1 DUP3 ADD SWAP2 POP POP SWAP1 POP JUMPDEST POP SWAP1 POP PUSH1 0x0 DUP3 PUSH8 0xFFFFFFFFFFFFFFFF DUP2 GT ISZERO PUSH2 0xE03 JUMPI PUSH2 0xE02 PUSH2 0x1F1C JUMP JUMPDEST JUMPDEST PUSH1 0x40 MLOAD SWAP1 DUP1 DUP3 MSTORE DUP1 PUSH1 0x20 MUL PUSH1 0x20 ADD DUP3 ADD PUSH1 0x40 MSTORE DUP1 ISZERO PUSH2 0xE31 JUMPI DUP2 PUSH1 0x20 ADD PUSH1 0x20 DUP3 MUL DUP1 CALLDATASIZE DUP4 CALLDATACOPY DUP1 DUP3 ADD SWAP2 POP POP SWAP1 POP JUMPDEST POP SWAP1 POP PUSH1 0x0 DUP4 PUSH8 0xFFFFFFFFFFFFFFFF DUP2 GT ISZERO PUSH2 0xE50 JUMPI PUSH2 0xE4F PUSH2 0x1F1C JUMP JUMPDEST JUMPDEST PUSH1 0x40 MLOAD SWAP1 DUP1 DUP3 MSTORE DUP1 PUSH1 0x20 MUL PUSH1 0x20 ADD DUP3 ADD PUSH1 0x40 MSTORE DUP1 ISZERO PUSH2 0xE7E JUMPI DUP2 PUSH1 0x20 ADD PUSH1 0x20 DUP3 MUL DUP1 CALLDATASIZE DUP4 CALLDATACOPY DUP1 DUP3 ADD SWAP2 POP POP SWAP1 POP JUMPDEST POP SWAP1 POP PUSH1 0x0 DUP5 PUSH8 0xFFFFFFFFFFFFFFFF DUP2 GT ISZERO PUSH2 0xE9D JUMPI PUSH2 0xE9C PUSH2 0x1F1C JUMP JUMPDEST JUMPDEST PUSH1 0x40 MLOAD SWAP1 DUP1 DUP3 MSTORE DUP1 PUSH1 0x20 MUL PUSH1 0x20 ADD DUP3 ADD PUSH1 0x40 MSTORE DUP1 ISZERO PUSH2 0xECB JUMPI DUP2 PUSH1 0x20 ADD PUSH1 0x20 DUP3 MUL DUP1 CALLDATASIZE DUP4 CALLDATACOPY DUP1 DUP3 ADD SWAP2 POP POP SWAP1 POP JUMPDEST POP SWAP1 POP PUSH1 0x0 JUMPDEST DUP6 DUP2 LT ISZERO PUSH2 0x10FB JUMPI PUSH1 0x0 PUSH1 0x5 DUP3 DUP2 SLOAD DUP2 LT PUSH2 0xEEF JUMPI PUSH2 0xEEE PUSH2 0x1D67 JUMP JUMPDEST JUMPDEST SWAP1 PUSH1 0x0 MSTORE PUSH1 0x20 PUSH1 0x0 KECCAK256 ADD PUSH1 0x0 SWAP1 SLOAD SWAP1 PUSH2 0x100 EXP SWAP1 DIV PUSH20 0xFFFFFFFFFFFFFFFFFFFFFFFFFFFFFFFFFFFFFFFF AND SWAP1 POP PUSH1 0x0 PUSH1 0x2 PUSH1 0x0 DUP4 PUSH20 0xFFFFFFFFFFFFFFFFFFFFFFFFFFFFFFFFFFFFFFFF AND PUSH20 0xFFFFFFFFFFFFFFFFFFFFFFFFFFFFFFFFFFFFFFFF AND DUP2 MSTORE PUSH1 0x20 ADD SWAP1 DUP2 MSTORE PUSH1 0x20 ADD PUSH1 0x0 KECCAK256 PUSH1 0x0 SWAP1 SLOAD SWAP1 PUSH2 0x100 EXP SWAP1 DIV PUSH20 0xFFFFFFFFFFFFFFFFFFFFFFFFFFFFFFFFFFFFFFFF AND SWAP1 POP PUSH1 0x0 PUSH1 0x4 PUSH1 0x0 DUP5 PUSH20 0xFFFFFFFFFFFFFFFFFFFFFFFFFFFFFFFFFFFFFFFF AND PUSH20 0xFFFFFFFFFFFFFFFFFFFFFFFFFFFFFFFFFFFFFFFF AND DUP2 MSTORE PUSH1 0x20 ADD SWAP1 DUP2 MSTORE PUSH1 0x20 ADD PUSH1 0x0 KECCAK256 SLOAD SWAP1 POP PUSH1 0x0 PUSH1 0x3 PUSH1 0x0 DUP5 PUSH20 0xFFFFFFFFFFFFFFFFFFFFFFFFFFFFFFFFFFFFFFFF AND PUSH20 0xFFFFFFFFFFFFFFFFFFFFFFFFFFFFFFFFFFFFFFFF AND DUP2 MSTORE PUSH1 0x20 ADD SWAP1 DUP2 MSTORE PUSH1 0x20 ADD PUSH1 0x0 KECCAK256 SLOAD SWAP1 POP DUP4 DUP10 DUP7 DUP2 MLOAD DUP2 LT PUSH2 0x101C JUMPI PUSH2 0x101B PUSH2 0x1D67 JUMP JUMPDEST JUMPDEST PUSH1 0x20 MUL PUSH1 0x20 ADD ADD SWAP1 PUSH20 0xFFFFFFFFFFFFFFFFFFFFFFFFFFFFFFFFFFFFFFFF AND SWAP1 DUP2 PUSH20 0xFFFFFFFFFFFFFFFFFFFFFFFFFFFFFFFFFFFFFFFF AND DUP2 MSTORE POP POP DUP3 DUP9 DUP7 DUP2 MLOAD DUP2 LT PUSH2 0x106A JUMPI PUSH2 0x1069 PUSH2 0x1D67 JUMP JUMPDEST JUMPDEST PUSH1 0x20 MUL PUSH1 0x20 ADD ADD SWAP1 PUSH20 0xFFFFFFFFFFFFFFFFFFFFFFFFFFFFFFFFFFFFFFFF AND SWAP1 DUP2 PUSH20 0xFFFFFFFFFFFFFFFFFFFFFFFFFFFFFFFFFFFFFFFF AND DUP2 MSTORE POP POP DUP2 DUP8 DUP7 DUP2 MLOAD DUP2 LT PUSH2 0x10B8 JUMPI PUSH2 0x10B7 PUSH2 0x1D67 JUMP JUMPDEST JUMPDEST PUSH1 0x20 MUL PUSH1 0x20 ADD ADD DUP2 DUP2 MSTORE POP POP DUP1 DUP7 DUP7 DUP2 MLOAD DUP2 LT PUSH2 0x10D8 JUMPI PUSH2 0x10D7 PUSH2 0x1D67 JUMP JUMPDEST JUMPDEST PUSH1 0x20 MUL PUSH1 0x20 ADD ADD DUP2 DUP2 MSTORE POP POP POP POP POP POP DUP1 DUP1 PUSH2 0x10F3 SWAP1 PUSH2 0x1DC5 JUMP JUMPDEST SWAP2 POP POP PUSH2 0xED1 JUMP JUMPDEST POP DUP4 DUP4 DUP4 DUP4 SWAP9 POP SWAP9 POP SWAP9 POP SWAP9 POP POP POP POP POP POP SWAP1 SWAP2 SWAP3 SWAP4 JUMP JUMPDEST PUSH2 0x111B PUSH2 0x14E7 JUMP JUMPDEST PUSH2 0x1125 PUSH1 0x0 PUSH2 0x1717 JUMP JUMPDEST JUMP JUMPDEST PUSH1 0x6 SLOAD DUP2 JUMP JUMPDEST PUSH1 0x3 PUSH1 0x20 MSTORE DUP1 PUSH1 0x0 MSTORE PUSH1 0x40 PUSH1 0x0 KECCAK256 PUSH1 0x0 SWAP2 POP SWAP1 POP SLOAD DUP2 JUMP JUMPDEST PUSH1 0x4 PUSH1 0x20 MSTORE DUP1 PUSH1 0x0 MSTORE PUSH1 0x40 PUSH1 0x0 KECCAK256 PUSH1 0x0 SWAP2 POP SWAP1 POP SLOAD DUP2 JUMP JUMPDEST PUSH1 0x0 PUSH1 0x1 PUSH1 0x0 SWAP1 SLOAD SWAP1 PUSH2 0x100 EXP SWAP1 DIV PUSH20 0xFFFFFFFFFFFFFFFFFFFFFFFFFFFFFFFFFFFFFFFF AND SWAP1 POP SWAP1 JUMP JUMPDEST PUSH2 0x118F PUSH2 0x14E7 JUMP JUMPDEST DUP1 PUSH1 0x7 PUSH1 0x0 PUSH2 0x100 EXP DUP2 SLOAD DUP2 PUSH20 0xFFFFFFFFFFFFFFFFFFFFFFFFFFFFFFFFFFFFFFFF MUL NOT AND SWAP1 DUP4 PUSH20 0xFFFFFFFFFFFFFFFFFFFFFFFFFFFFFFFFFFFFFFFF AND MUL OR SWAP1 SSTORE POP POP JUMP JUMPDEST PUSH2 0x11DB PUSH2 0x14E7 JUMP JUMPDEST PUSH2 0x11E3 PUSH2 0x17DD JUMP JUMPDEST JUMP JUMPDEST PUSH1 0x2 PUSH1 0x20 MSTORE DUP1 PUSH1 0x0 MSTORE PUSH1 0x40 PUSH1 0x0 KECCAK256 PUSH1 0x0 SWAP2 POP SLOAD SWAP1 PUSH2 0x100 EXP SWAP1 DIV PUSH20 0xFFFFFFFFFFFFFFFFFFFFFFFFFFFFFFFFFFFFFFFF AND DUP2 JUMP JUMPDEST PUSH1 0x5 DUP2 DUP2 SLOAD DUP2 LT PUSH2 0x1228 JUMPI PUSH1 0x0 DUP1 REVERT JUMPDEST SWAP1 PUSH1 0x0 MSTORE PUSH1 0x20 PUSH1 0x0 KECCAK256 ADD PUSH1 0x0 SWAP2 POP SLOAD SWAP1 PUSH2 0x100 EXP SWAP1 DIV PUSH20 0xFFFFFFFFFFFFFFFFFFFFFFFFFFFFFFFFFFFFFFFF AND DUP2 JUMP JUMPDEST PUSH2 0x125F PUSH2 0x1612 JUMP JUMPDEST PUSH2 0x1267 PUSH2 0x1661 JUMP JUMPDEST PUSH1 0x0 PUSH1 0x2 PUSH1 0x0 CALLER PUSH20 0xFFFFFFFFFFFFFFFFFFFFFFFFFFFFFFFFFFFFFFFF AND PUSH20 0xFFFFFFFFFFFFFFFFFFFFFFFFFFFFFFFFFFFFFFFF AND DUP2 MSTORE PUSH1 0x20 ADD SWAP1 DUP2 MSTORE PUSH1 0x20 ADD PUSH1 0x0 KECCAK256 PUSH1 0x0 SWAP1 SLOAD SWAP1 PUSH2 0x100 EXP SWAP1 DIV PUSH20 0xFFFFFFFFFFFFFFFFFFFFFFFFFFFFFFFFFFFFFFFF AND SWAP1 POP PUSH1 0x0 PUSH20 0xFFFFFFFFFFFFFFFFFFFFFFFFFFFFFFFFFFFFFFFF AND DUP2 PUSH20 0xFFFFFFFFFFFFFFFFFFFFFFFFFFFFFFFFFFFFFFFF AND SUB PUSH2 0x133A JUMPI PUSH1 0x40 MLOAD PUSH32 0x8C379A000000000000000000000000000000000000000000000000000000000 DUP2 MSTORE PUSH1 0x4 ADD PUSH2 0x1331 SWAP1 PUSH2 0x1F97 JUMP JUMPDEST PUSH1 0x40 MLOAD DUP1 SWAP2 SUB SWAP1 REVERT JUMPDEST CALLVALUE PUSH1 0x3 PUSH1 0x0 DUP4 PUSH20 0xFFFFFFFFFFFFFFFFFFFFFFFFFFFFFFFFFFFFFFFF AND PUSH20 0xFFFFFFFFFFFFFFFFFFFFFFFFFFFFFFFFFFFFFFFF AND DUP2 MSTORE PUSH1 0x20 ADD SWAP1 DUP2 MSTORE PUSH1 0x20 ADD PUSH1 0x0 KECCAK256 PUSH1 0x0 DUP3 DUP3 SLOAD PUSH2 0x1389 SWAP2 SWAP1 PUSH2 0x1FB7 JUMP JUMPDEST SWAP3 POP POP DUP2 SWAP1 SSTORE POP CALLVALUE PUSH1 0x4 PUSH1 0x0 CALLER PUSH20 0xFFFFFFFFFFFFFFFFFFFFFFFFFFFFFFFFFFFFFFFF AND PUSH20 0xFFFFFFFFFFFFFFFFFFFFFFFFFFFFFFFFFFFFFFFF AND DUP2 MSTORE PUSH1 0x20 ADD SWAP1 DUP2 MSTORE PUSH1 0x20 ADD PUSH1 0x0 KECCAK256 PUSH1 0x0 DUP3 DUP3 SLOAD PUSH2 0x13DF SWAP2 SWAP1 PUSH2 0x1FB7 JUMP JUMPDEST SWAP3 POP POP DUP2 SWAP1 SSTORE POP PUSH2 0x13F1 PUSH1 0x5 CALLER PUSH2 0x1565 JUMP JUMPDEST PUSH2 0x1459 JUMPI PUSH1 0x5 CALLER SWAP1 DUP1 PUSH1 0x1 DUP2 SLOAD ADD DUP1 DUP3 SSTORE DUP1 SWAP2 POP POP PUSH1 0x1 SWAP1 SUB SWAP1 PUSH1 0x0 MSTORE PUSH1 0x20 PUSH1 0x0 KECCAK256 ADD PUSH1 0x0 SWAP1 SWAP2 SWAP1 SWAP2 SWAP1 SWAP2 PUSH2 0x100 EXP DUP2 SLOAD DUP2 PUSH20 0xFFFFFFFFFFFFFFFFFFFFFFFFFFFFFFFFFFFFFFFF MUL NOT AND SWAP1 DUP4 PUSH20 0xFFFFFFFFFFFFFFFFFFFFFFFFFFFFFFFFFFFFFFFF AND MUL OR SWAP1 SSTORE POP JUMPDEST POP PUSH2 0x1462 PUSH2 0x16AB JUMP JUMPDEST JUMP JUMPDEST PUSH2 0x146C PUSH2 0x14E7 JUMP JUMPDEST PUSH1 0x0 PUSH20 0xFFFFFFFFFFFFFFFFFFFFFFFFFFFFFFFFFFFFFFFF AND DUP2 PUSH20 0xFFFFFFFFFFFFFFFFFFFFFFFFFFFFFFFFFFFFFFFF AND SUB PUSH2 0x14DB JUMPI PUSH1 0x40 MLOAD PUSH32 0x8C379A000000000000000000000000000000000000000000000000000000000 DUP2 MSTORE PUSH1 0x4 ADD PUSH2 0x14D2 SWAP1 PUSH2 0x205D JUMP JUMPDEST PUSH1 0x40 MLOAD DUP1 SWAP2 SUB SWAP1 REVERT JUMPDEST PUSH2 0x14E4 DUP2 PUSH2 0x1717 JUMP JUMPDEST POP JUMP JUMPDEST PUSH2 0x14EF PUSH2 0x1840 JUMP JUMPDEST PUSH20 0xFFFFFFFFFFFFFFFFFFFFFFFFFFFFFFFFFFFFFFFF AND PUSH2 0x150D PUSH2 0x115D JUMP JUMPDEST PUSH20 0xFFFFFFFFFFFFFFFFFFFFFFFFFFFFFFFFFFFFFFFF AND EQ PUSH2 0x1563 JUMPI PUSH1 0x40 MLOAD PUSH32 0x8C379A000000000000000000000000000000000000000000000000000000000 DUP2 MSTORE PUSH1 0x4 ADD PUSH2 0x155A SWAP1 PUSH2 0x20C9 JUMP JUMPDEST PUSH1 0x40 MLOAD DUP1 SWAP2 SUB SWAP1 REVERT JUMPDEST JUMP JUMPDEST PUSH1 0x0 DUP1 PUSH1 0x0 SWAP1 POP JUMPDEST DUP4 DUP1 SLOAD SWAP1 POP DUP2 LT ISZERO PUSH2 0x1606 JUMPI DUP3 PUSH20 0xFFFFFFFFFFFFFFFFFFFFFFFFFFFFFFFFFFFFFFFF AND DUP5 DUP3 DUP2 SLOAD DUP2 LT PUSH2 0x15A3 JUMPI PUSH2 0x15A2 PUSH2 0x1D67 JUMP JUMPDEST JUMPDEST SWAP1 PUSH1 0x0 MSTORE PUSH1 0x20 PUSH1 0x0 KECCAK256 ADD PUSH1 0x0 SWAP1 SLOAD SWAP1 PUSH2 0x100 EXP SWAP1 DIV PUSH20 0xFFFFFFFFFFFFFFFFFFFFFFFFFFFFFFFFFFFFFFFF AND PUSH20 0xFFFFFFFFFFFFFFFFFFFFFFFFFFFFFFFFFFFFFFFF AND SUB PUSH2 0x15F3 JUMPI PUSH1 0x1 SWAP2 POP POP PUSH2 0x160C JUMP JUMPDEST DUP1 DUP1 PUSH2 0x15FE SWAP1 PUSH2 0x1DC5 JUMP JUMPDEST SWAP2 POP POP PUSH2 0x156D JUMP JUMPDEST POP PUSH1 0x0 SWAP1 POP JUMPDEST SWAP3 SWAP2 POP POP JUMP JUMPDEST PUSH1 0x2 PUSH1 0x0 SLOAD SUB PUSH2 0x1657 JUMPI PUSH1 0x40 MLOAD PUSH32 0x8C379A000000000000000000000000000000000000000000000000000000000 DUP2 MSTORE PUSH1 0x4 ADD PUSH2 0x164E SWAP1 PUSH2 0x2135 JUMP JUMPDEST PUSH1 0x40 MLOAD DUP1 SWAP2 SUB SWAP1 REVERT JUMPDEST PUSH1 0x2 PUSH1 0x0 DUP2 SWAP1 SSTORE POP JUMP JUMPDEST PUSH2 0x1669 PUSH2 0xD1D JUMP JUMPDEST ISZERO PUSH2 0x16A9 JUMPI PUSH1 0x40 MLOAD PUSH32 0x8C379A000000000000000000000000000000000000000000000000000000000 DUP2 MSTORE PUSH1 0x4 ADD PUSH2 0x16A0 SWAP1 PUSH2 0x21A1 JUMP JUMPDEST PUSH1 0x40 MLOAD DUP1 SWAP2 SUB SWAP1 REVERT JUMPDEST JUMP JUMPDEST PUSH1 0x1 PUSH1 0x0 DUP2 SWAP1 SSTORE POP JUMP JUMPDEST PUSH2 0x16BD PUSH2 0x1661 JUMP JUMPDEST PUSH1 0x1 DUP1 PUSH1 0x14 PUSH2 0x100 EXP DUP2 SLOAD DUP2 PUSH1 0xFF MUL NOT AND SWAP1 DUP4 ISZERO ISZERO MUL OR SWAP1 SSTORE POP PUSH32 0x62E78CEA01BEE320CD4E420270B5EA74000D11B0C9F74754EBDBFC544B05A258 PUSH2 0x1700 PUSH2 0x1840 JUMP JUMPDEST PUSH1 0x40 MLOAD PUSH2 0x170D SWAP2 SWAP1 PUSH2 0x1970 JUMP JUMPDEST PUSH1 0x40 MLOAD DUP1 SWAP2 SUB SWAP1 LOG1 JUMP JUMPDEST PUSH1 0x0 PUSH1 0x1 PUSH1 0x0 SWAP1 SLOAD SWAP1 PUSH2 0x100 EXP SWAP1 DIV PUSH20 0xFFFFFFFFFFFFFFFFFFFFFFFFFFFFFFFFFFFFFFFF AND SWAP1 POP DUP2 PUSH1 0x1 PUSH1 0x0 PUSH2 0x100 EXP DUP2 SLOAD DUP2 PUSH20 0xFFFFFFFFFFFFFFFFFFFFFFFFFFFFFFFFFFFFFFFF MUL NOT AND SWAP1 DUP4 PUSH20 0xFFFFFFFFFFFFFFFFFFFFFFFFFFFFFFFFFFFFFFFF AND MUL OR SWAP1 SSTORE POP DUP2 PUSH20 0xFFFFFFFFFFFFFFFFFFFFFFFFFFFFFFFFFFFFFFFF AND DUP2 PUSH20 0xFFFFFFFFFFFFFFFFFFFFFFFFFFFFFFFFFFFFFFFF AND PUSH32 0x8BE0079C531659141344CD1FD0A4F28419497F9722A3DAAFE3B4186F6B6457E0 PUSH1 0x40 MLOAD PUSH1 0x40 MLOAD DUP1 SWAP2 SUB SWAP1 LOG3 POP POP JUMP JUMPDEST PUSH2 0x17E5 PUSH2 0x1848 JUMP JUMPDEST PUSH1 0x0 PUSH1 0x1 PUSH1 0x14 PUSH2 0x100 EXP DUP2 SLOAD DUP2 PUSH1 0xFF MUL NOT AND SWAP1 DUP4 ISZERO ISZERO MUL OR SWAP1 SSTORE POP PUSH32 0x5DB9EE0A495BF2E6FF9C91A7834C1BA4FDD244A5E8AA4E537BD38AEAE4B073AA PUSH2 0x1829 PUSH2 0x1840 JUMP JUMPDEST PUSH1 0x40 MLOAD PUSH2 0x1836 SWAP2 SWAP1 PUSH2 0x1970 JUMP JUMPDEST PUSH1 0x40 MLOAD DUP1 SWAP2 SUB SWAP1 LOG1 JUMP JUMPDEST PUSH1 0x0 CALLER SWAP1 POP SWAP1 JUMP JUMPDEST PUSH2 0x1850 PUSH2 0xD1D JUMP JUMPDEST PUSH2 0x188F JUMPI PUSH1 0x40 MLOAD PUSH32 0x8C379A000000000000000000000000000000000000000000000000000000000 DUP2 MSTORE PUSH1 0x4 ADD PUSH2 0x1886 SWAP1 PUSH2 0x220D JUMP JUMPDEST PUSH1 0x40 MLOAD DUP1 SWAP2 SUB SWAP1 REVERT JUMPDEST JUMP JUMPDEST PUSH1 0x0 DUP1 REVERT JUMPDEST PUSH1 0x0 PUSH20 0xFFFFFFFFFFFFFFFFFFFFFFFFFFFFFFFFFFFFFFFF DUP3 AND SWAP1 POP SWAP2 SWAP1 POP JUMP JUMPDEST PUSH1 0x0 PUSH2 0x18C1 DUP3 PUSH2 0x1896 JUMP JUMPDEST SWAP1 POP SWAP2 SWAP1 POP JUMP JUMPDEST PUSH2 0x18D1 DUP2 PUSH2 0x18B6 JUMP JUMPDEST DUP2 EQ PUSH2 0x18DC JUMPI PUSH1 0x0 DUP1 REVERT JUMPDEST POP JUMP JUMPDEST PUSH1 0x0 DUP2 CALLDATALOAD SWAP1 POP PUSH2 0x18EE DUP2 PUSH2 0x18C8 JUMP JUMPDEST SWAP3 SWAP2 POP POP JUMP JUMPDEST PUSH1 0x0 PUSH1 0x20 DUP3 DUP5 SUB SLT ISZERO PUSH2 0x190A JUMPI PUSH2 0x1909 PUSH2 0x1891 JUMP JUMPDEST JUMPDEST PUSH1 0x0 PUSH2 0x1918 DUP5 DUP3 DUP6 ADD PUSH2 0x18DF JUMP JUMPDEST SWAP2 POP POP SWAP3 SWAP2 POP POP JUMP JUMPDEST PUSH1 0x0 DUP1 PUSH1 0x40 DUP4 DUP6 SUB SLT ISZERO PUSH2 0x1938 JUMPI PUSH2 0x1937 PUSH2 0x1891 JUMP JUMPDEST JUMPDEST PUSH1 0x0 PUSH2 0x1946 DUP6 DUP3 DUP7 ADD PUSH2 0x18DF JUMP JUMPDEST SWAP3 POP POP PUSH1 0x20 PUSH2 0x1957 DUP6 DUP3 DUP7 ADD PUSH2 0x18DF JUMP JUMPDEST SWAP2 POP POP SWAP3 POP SWAP3 SWAP1 POP JUMP JUMPDEST PUSH2 0x196A DUP2 PUSH2 0x18B6 JUMP JUMPDEST DUP3 MSTORE POP POP JUMP JUMPDEST PUSH1 0x0 PUSH1 0x20 DUP3 ADD SWAP1 POP PUSH2 0x1985 PUSH1 0x0 DUP4 ADD DUP5 PUSH2 0x1961 JUMP JUMPDEST SWAP3 SWAP2 POP POP JUMP JUMPDEST PUSH1 0x0 DUP2 SWAP1 POP SWAP2 SWAP1 POP JUMP JUMPDEST PUSH2 0x199E DUP2 PUSH2 0x198B JUMP JUMPDEST DUP3 MSTORE POP POP JUMP JUMPDEST PUSH1 0x0 PUSH1 0x60 DUP3 ADD SWAP1 POP PUSH2 0x19B9 PUSH1 0x0 DUP4 ADD DUP7 PUSH2 0x1961 JUMP JUMPDEST PUSH2 0x19C6 PUSH1 0x20 DUP4 ADD DUP6 PUSH2 0x1995 JUMP JUMPDEST PUSH2 0x19D3 PUSH1 0x40 DUP4 ADD DUP5 PUSH2 0x1995 JUMP JUMPDEST SWAP5 SWAP4 POP POP POP POP JUMP JUMPDEST PUSH1 0x0 DUP2 ISZERO ISZERO SWAP1 POP SWAP2 SWAP1 POP JUMP JUMPDEST PUSH2 0x19F0 DUP2 PUSH2 0x19DB JUMP JUMPDEST DUP3 MSTORE POP POP JUMP JUMPDEST PUSH1 0x0 PUSH1 0x20 DUP3 ADD SWAP1 POP PUSH2 0x1A0B PUSH1 0x0 DUP4 ADD DUP5 PUSH2 0x19E7 JUMP JUMPDEST SWAP3 SWAP2 POP POP JUMP JUMPDEST PUSH2 0x1A1A DUP2 PUSH2 0x198B JUMP JUMPDEST DUP2 EQ PUSH2 0x1A25 JUMPI PUSH1 0x0 DUP1 REVERT JUMPDEST POP JUMP JUMPDEST PUSH1 0x0 DUP2 CALLDATALOAD SWAP1 POP PUSH2 0x1A37 DUP2 PUSH2 0x1A11 JUMP JUMPDEST SWAP3 SWAP2 POP POP JUMP JUMPDEST PUSH1 0x0 PUSH1 0x20 DUP3 DUP5 SUB SLT ISZERO PUSH2 0x1A53 JUMPI PUSH2 0x1A52 PUSH2 0x1891 JUMP JUMPDEST JUMPDEST PUSH1 0x0 PUSH2 0x1A61 DUP5 DUP3 DUP6 ADD PUSH2 0x1A28 JUMP JUMPDEST SWAP2 POP POP SWAP3 SWAP2 POP POP JUMP JUMPDEST PUSH1 0x0 DUP2 MLOAD SWAP1 POP SWAP2 SWAP1 POP JUMP JUMPDEST PUSH1 0x0 DUP3 DUP3 MSTORE PUSH1 0x20 DUP3 ADD SWAP1 POP SWAP3 SWAP2 POP POP JUMP JUMPDEST PUSH1 0x0 DUP2 SWAP1 POP PUSH1 0x20 DUP3 ADD SWAP1 POP SWAP2 SWAP1 POP JUMP JUMPDEST PUSH2 0x1A9F DUP2 PUSH2 0x18B6 JUMP JUMPDEST DUP3 MSTORE POP POP JUMP JUMPDEST PUSH1 0x0 PUSH2 0x1AB1 DUP4 DUP4 PUSH2 0x1A96 JUMP JUMPDEST PUSH1 0x20 DUP4 ADD SWAP1 POP SWAP3 SWAP2 POP POP JUMP JUMPDEST PUSH1 0x0 PUSH1 0x20 DUP3 ADD SWAP1 POP SWAP2 SWAP1 POP JUMP JUMPDEST PUSH1 0x0 PUSH2 0x1AD5 DUP3 PUSH2 0x1A6A JUMP JUMPDEST PUSH2 0x1ADF DUP2 DUP6 PUSH2 0x1A75 JUMP JUMPDEST SWAP4 POP PUSH2 0x1AEA DUP4 PUSH2 0x1A86 JUMP JUMPDEST DUP1 PUSH1 0x0 JUMPDEST DUP4 DUP2 LT ISZERO PUSH2 0x1B1B JUMPI DUP2 MLOAD PUSH2 0x1B02 DUP9 DUP3 PUSH2 0x1AA5 JUMP JUMPDEST SWAP8 POP PUSH2 0x1B0D DUP4 PUSH2 0x1ABD JUMP JUMPDEST SWAP3 POP POP PUSH1 0x1 DUP2 ADD SWAP1 POP PUSH2 0x1AEE JUMP JUMPDEST POP DUP6 SWAP4 POP POP POP POP SWAP3 SWAP2 POP POP JUMP JUMPDEST PUSH1 0x0 DUP2 MLOAD SWAP1 POP SWAP2 SWAP1 POP JUMP JUMPDEST PUSH1 0x0 DUP3 DUP3 MSTORE PUSH1 0x20 DUP3 ADD SWAP1 POP SWAP3 SWAP2 POP POP JUMP JUMPDEST PUSH1 0x0 DUP2 SWAP1 POP PUSH1 0x20 DUP3 ADD SWAP1 POP SWAP2 SWAP1 POP JUMP JUMPDEST PUSH2 0x1B5D DUP2 PUSH2 0x198B JUMP JUMPDEST DUP3 MSTORE POP POP JUMP JUMPDEST PUSH1 0x0 PUSH2 0x1B6F DUP4 DUP4 PUSH2 0x1B54 JUMP JUMPDEST PUSH1 0x20 DUP4 ADD SWAP1 POP SWAP3 SWAP2 POP POP JUMP JUMPDEST PUSH1 0x0 PUSH1 0x20 DUP3 ADD SWAP1 POP SWAP2 SWAP1 POP JUMP JUMPDEST PUSH1 0x0 PUSH2 0x1B93 DUP3 PUSH2 0x1B28 JUMP JUMPDEST PUSH2 0x1B9D DUP2 DUP6 PUSH2 0x1B33 JUMP JUMPDEST SWAP4 POP PUSH2 0x1BA8 DUP4 PUSH2 0x1B44 JUMP JUMPDEST DUP1 PUSH1 0x0 JUMPDEST DUP4 DUP2 LT ISZERO PUSH2 0x1BD9 JUMPI DUP2 MLOAD PUSH2 0x1BC0 DUP9 DUP3 PUSH2 0x1B63 JUMP JUMPDEST SWAP8 POP PUSH2 0x1BCB DUP4 PUSH2 0x1B7B JUMP JUMPDEST SWAP3 POP POP PUSH1 0x1 DUP2 ADD SWAP1 POP PUSH2 0x1BAC JUMP JUMPDEST POP DUP6 SWAP4 POP POP POP POP SWAP3 SWAP2 POP POP JUMP JUMPDEST PUSH1 0x0 PUSH1 0x80 DUP3 ADD SWAP1 POP DUP2 DUP2 SUB PUSH1 0x0 DUP4 ADD MSTORE PUSH2 0x1C00 DUP2 DUP8 PUSH2 0x1ACA JUMP JUMPDEST SWAP1 POP DUP2 DUP2 SUB PUSH1 0x20 DUP4 ADD MSTORE PUSH2 0x1C14 DUP2 DUP7 PUSH2 0x1ACA JUMP JUMPDEST SWAP1 POP DUP2 DUP2 SUB PUSH1 0x40 DUP4 ADD MSTORE PUSH2 0x1C28 DUP2 DUP6 PUSH2 0x1B88 JUMP JUMPDEST SWAP1 POP DUP2 DUP2 SUB PUSH1 0x60 DUP4 ADD MSTORE PUSH2 0x1C3C DUP2 DUP5 PUSH2 0x1B88 JUMP JUMPDEST SWAP1 POP SWAP6 SWAP5 POP POP POP POP POP JUMP JUMPDEST PUSH1 0x0 PUSH1 0x20 DUP3 ADD SWAP1 POP PUSH2 0x1C5C PUSH1 0x0 DUP4 ADD DUP5 PUSH2 0x1995 JUMP JUMPDEST SWAP3 SWAP2 POP POP JUMP JUMPDEST PUSH32 0x4E487B7100000000000000000000000000000000000000000000000000000000 PUSH1 0x0 MSTORE PUSH1 0x11 PUSH1 0x4 MSTORE PUSH1 0x24 PUSH1 0x0 REVERT JUMPDEST PUSH1 0x0 PUSH2 0x1C9C DUP3 PUSH2 0x198B JUMP JUMPDEST SWAP2 POP PUSH2 0x1CA7 DUP4 PUSH2 0x198B JUMP JUMPDEST SWAP3 POP DUP3 DUP3 MUL PUSH2 0x1CB5 DUP2 PUSH2 0x198B JUMP JUMPDEST SWAP2 POP DUP3 DUP3 DIV DUP5 EQ DUP4 ISZERO OR PUSH2 0x1CCC JUMPI PUSH2 0x1CCB PUSH2 0x1C62 JUMP JUMPDEST JUMPDEST POP SWAP3 SWAP2 POP POP JUMP JUMPDEST PUSH32 0x4E487B7100000000000000000000000000000000000000000000000000000000 PUSH1 0x0 MSTORE PUSH1 0x12 PUSH1 0x4 MSTORE PUSH1 0x24 PUSH1 0x0 REVERT JUMPDEST PUSH1 0x0 PUSH2 0x1D0D DUP3 PUSH2 0x198B JUMP JUMPDEST SWAP2 POP PUSH2 0x1D18 DUP4 PUSH2 0x198B JUMP JUMPDEST SWAP3 POP DUP3 PUSH2 0x1D28 JUMPI PUSH2 0x1D27 PUSH2 0x1CD3 JUMP JUMPDEST JUMPDEST DUP3 DUP3 DIV SWAP1 POP SWAP3 SWAP2 POP POP JUMP JUMPDEST PUSH1 0x0 PUSH2 0x1D3E DUP3 PUSH2 0x198B JUMP JUMPDEST SWAP2 POP PUSH2 0x1D49 DUP4 PUSH2 0x198B JUMP JUMPDEST SWAP3 POP DUP3 DUP3 SUB SWAP1 POP DUP2 DUP2 GT ISZERO PUSH2 0x1D61 JUMPI PUSH2 0x1D60 PUSH2 0x1C62 JUMP JUMPDEST JUMPDEST SWAP3 SWAP2 POP POP JUMP JUMPDEST PUSH32 0x4E487B7100000000000000000000000000000000000000000000000000000000 PUSH1 0x0 MSTORE PUSH1 0x32 PUSH1 0x4 MSTORE PUSH1 0x24 PUSH1 0x0 REVERT JUMPDEST PUSH32 0x4E487B7100000000000000000000000000000000000000000000000000000000 PUSH1 0x0 MSTORE PUSH1 0x31 PUSH1 0x4 MSTORE PUSH1 0x24 PUSH1 0x0 REVERT JUMPDEST PUSH1 0x0 PUSH2 0x1DD0 DUP3 PUSH2 0x198B JUMP JUMPDEST SWAP2 POP PUSH32 0xFFFFFFFFFFFFFFFFFFFFFFFFFFFFFFFFFFFFFFFFFFFFFFFFFFFFFFFFFFFFFFFF DUP3 SUB PUSH2 0x1E02 JUMPI PUSH2 0x1E01 PUSH2 0x1C62 JUMP JUMPDEST JUMPDEST PUSH1 0x1 DUP3 ADD SWAP1 POP SWAP2 SWAP1 POP JUMP JUMPDEST PUSH1 0x0 DUP3 DUP3 MSTORE PUSH1 0x20 DUP3 ADD SWAP1 POP SWAP3 SWAP2 POP POP JUMP JUMPDEST PUSH32 0x4E6F2066756E647320617661696C61626C6520746F2077697468647261770000 PUSH1 0x0 DUP3 ADD MSTORE POP JUMP JUMPDEST PUSH1 0x0 PUSH2 0x1E54 PUSH1 0x1E DUP4 PUSH2 0x1E0D JUMP JUMPDEST SWAP2 POP PUSH2 0x1E5F DUP3 PUSH2 0x1E1E JUMP JUMPDEST PUSH1 0x20 DUP3 ADD SWAP1 POP SWAP2 SWAP1 POP JUMP JUMPDEST PUSH1 0x0 PUSH1 0x20 DUP3 ADD SWAP1 POP DUP2 DUP2 SUB PUSH1 0x0 DUP4 ADD MSTORE PUSH2 0x1E83 DUP2 PUSH2 0x1E47 JUMP JUMPDEST SWAP1 POP SWAP2 SWAP1 POP JUMP JUMPDEST PUSH32 0x4665652070657263656E746167652063616E6E6F742065786365656420313030 PUSH1 0x0 DUP3 ADD MSTORE PUSH32 0x2500000000000000000000000000000000000000000000000000000000000000 PUSH1 0x20 DUP3 ADD MSTORE POP JUMP JUMPDEST PUSH1 0x0 PUSH2 0x1EE6 PUSH1 0x21 DUP4 PUSH2 0x1E0D JUMP JUMPDEST SWAP2 POP PUSH2 0x1EF1 DUP3 PUSH2 0x1E8A JUMP JUMPDEST PUSH1 0x40 DUP3 ADD SWAP1 POP SWAP2 SWAP1 POP JUMP JUMPDEST PUSH1 0x0 PUSH1 0x20 DUP3 ADD SWAP1 POP DUP2 DUP2 SUB PUSH1 0x0 DUP4 ADD MSTORE PUSH2 0x1F15 DUP2 PUSH2 0x1ED9 JUMP JUMPDEST SWAP1 POP SWAP2 SWAP1 POP JUMP JUMPDEST PUSH32 0x4E487B7100000000000000000000000000000000000000000000000000000000 PUSH1 0x0 MSTORE PUSH1 0x41 PUSH1 0x4 MSTORE PUSH1 0x24 PUSH1 0x0 REVERT JUMPDEST PUSH32 0x56616C696461746F72206E6F6465206E6F74206C696E6B656400000000000000 PUSH1 0x0 DUP3 ADD MSTORE POP JUMP JUMPDEST PUSH1 0x0 PUSH2 0x1F81 PUSH1 0x19 DUP4 PUSH2 0x1E0D JUMP JUMPDEST SWAP2 POP PUSH2 0x1F8C DUP3 PUSH2 0x1F4B JUMP JUMPDEST PUSH1 0x20 DUP3 ADD SWAP1 POP SWAP2 SWAP1 POP JUMP JUMPDEST PUSH1 0x0 PUSH1 0x20 DUP3 ADD SWAP1 POP DUP2 DUP2 SUB PUSH1 0x0 DUP4 ADD MSTORE PUSH2 0x1FB0 DUP2 PUSH2 0x1F74 JUMP JUMPDEST SWAP1 POP SWAP2 SWAP1 POP JUMP JUMPDEST PUSH1 0x0 PUSH2 0x1FC2 DUP3 PUSH2 0x198B JUMP JUMPDEST SWAP2 POP PUSH2 0x1FCD DUP4 PUSH2 0x198B JUMP JUMPDEST SWAP3 POP DUP3 DUP3 ADD SWAP1 POP DUP1 DUP3 GT ISZERO PUSH2 0x1FE5 JUMPI PUSH2 0x1FE4 PUSH2 0x1C62 JUMP JUMPDEST JUMPDEST SWAP3 SWAP2 POP POP JUMP JUMPDEST PUSH32 0x4F776E61626C653A206E6577206F776E657220697320746865207A65726F2061 PUSH1 0x0 DUP3 ADD MSTORE PUSH32 0x6464726573730000000000000000000000000000000000000000000000000000 PUSH1 0x20 DUP3 ADD MSTORE POP JUMP JUMPDEST PUSH1 0x0 PUSH2 0x2047 PUSH1 0x26 DUP4 PUSH2 0x1E0D JUMP JUMPDEST SWAP2 POP PUSH2 0x2052 DUP3 PUSH2 0x1FEB JUMP JUMPDEST PUSH1 0x40 DUP3 ADD SWAP1 POP SWAP2 SWAP1 POP JUMP JUMPDEST PUSH1 0x0 PUSH1 0x20 DUP3 ADD SWAP1 POP DUP2 DUP2 SUB PUSH1 0x0 DUP4 ADD MSTORE PUSH2 0x2076 DUP2 PUSH2 0x203A JUMP JUMPDEST SWAP1 POP SWAP2 SWAP1 POP JUMP JUMPDEST PUSH32 0x4F776E61626C653A2063616C6C6572206973206E6F7420746865206F776E6572 PUSH1 0x0 DUP3 ADD MSTORE POP JUMP JUMPDEST PUSH1 0x0 PUSH2 0x20B3 PUSH1 0x20 DUP4 PUSH2 0x1E0D JUMP JUMPDEST SWAP2 POP PUSH2 0x20BE DUP3 PUSH2 0x207D JUMP JUMPDEST PUSH1 0x20 DUP3 ADD SWAP1 POP SWAP2 SWAP1 POP JUMP JUMPDEST PUSH1 0x0 PUSH1 0x20 DUP3 ADD SWAP1 POP DUP2 DUP2 SUB PUSH1 0x0 DUP4 ADD MSTORE PUSH2 0x20E2 DUP2 PUSH2 0x20A6 JUMP JUMPDEST SWAP1 POP SWAP2 SWAP1 POP JUMP JUMPDEST PUSH32 0x5265656E7472616E637947756172643A207265656E7472616E742063616C6C00 PUSH1 0x0 DUP3 ADD MSTORE POP JUMP JUMPDEST PUSH1 0x0 PUSH2 0x211F PUSH1 0x1F DUP4 PUSH2 0x1E0D JUMP JUMPDEST SWAP2 POP PUSH2 0x212A DUP3 PUSH2 0x20E9 JUMP JUMPDEST PUSH1 0x20 DUP3 ADD SWAP1 POP SWAP2 SWAP1 POP JUMP JUMPDEST PUSH1 0x0 PUSH1 0x20 DUP3 ADD SWAP1 POP DUP2 DUP2 SUB PUSH1 0x0 DUP4 ADD MSTORE PUSH2 0x214E DUP2 PUSH2 0x2112 JUMP JUMPDEST SWAP1 POP SWAP2 SWAP1 POP JUMP JUMPDEST PUSH32 0x5061757361626C653A2070617573656400000000000000000000000000000000 PUSH1 0x0 DUP3 ADD MSTORE POP JUMP JUMPDEST PUSH1 0x0 PUSH2 0x218B PUSH1 0x10 DUP4 PUSH2 0x1E0D JUMP JUMPDEST SWAP2 POP PUSH2 0x2196 DUP3 PUSH2 0x2155 JUMP JUMPDEST PUSH1 0x20 DUP3 ADD SWAP1 POP SWAP2 SWAP1 POP JUMP JUMPDEST PUSH1 0x0 PUSH1 0x20 DUP3 ADD SWAP1 POP DUP2 DUP2 SUB PUSH1 0x0 DUP4 ADD MSTORE PUSH2 0x21BA DUP2 PUSH2 0x217E JUMP JUMPDEST SWAP1 POP SWAP2 SWAP1 POP JUMP JUMPDEST PUSH32 0x5061757361626C653A206E6F7420706175736564000000000000000000000000 PUSH1 0x0 DUP3 ADD MSTORE POP JUMP JUMPDEST PUSH1 0x0 PUSH2 0x21F7 PUSH1 0x14 DUP4 PUSH2 0x1E0D JUMP JUMPDEST SWAP2 POP PUSH2 0x2202 DUP3 PUSH2 0x21C1 JUMP JUMPDEST PUSH1 0x20 DUP3 ADD SWAP1 POP SWAP2 SWAP1 POP JUMP JUMPDEST PUSH1 0x0 PUSH1 0x20 DUP3 ADD SWAP1 POP DUP2 DUP2 SUB PUSH1 0x0 DUP4 ADD MSTORE PUSH2 0x2226 DUP2 PUSH2 0x21EA JUMP JUMPDEST SWAP1 POP SWAP2 SWAP1 POP JUMP INVALID LOG2 PUSH5 0x6970667358 0x22 SLT KECCAK256 PUSH2 0x570D SELFBALANCE SWAP15 PUSH12 0xBAB3980CFFB6C1CD185AE058 0xBE KECCAK256 PUSH31 0x7748E0DE6903404740A9B964736F6C63430008120033000000000000000000 "
				},
				"gasEstimates": {
					"creation": {
						"codeDepositCost": "1760600",
						"executionCost": "infinite",
						"totalCost": "infinite"
					},
					"external": {
						"allValidatorNodes(uint256)": "5022",
						"deleteValidatorNode(address)": "infinite",
						"deposit()": "infinite",
						"depositedBalances(address)": "2859",
						"edxAccount()": "2582",
						"fetchAllValidatorNodeDetails()": "infinite",
						"getValidatorNodeDetails(address)": "infinite",
						"linkValidatorNode(address,address)": "infinite",
						"owner()": "2611",
						"pauseContract()": "infinite",
						"paused()": "2574",
						"renounceOwnership()": "30509",
						"setEdxAccount(address)": "27097",
						"setWithdrawalFeePercentage(uint256)": "24877",
						"totalDepositedAmount(address)": "2881",
						"transferOwnership(address)": "30854",
						"unpauseContract()": "infinite",
						"validatorNodeToAccount(address)": "infinite",
						"withdraw()": "infinite",
						"withdrawalFeePercentage()": "2452"
					},
					"internal": {
						"contains(address[] storage pointer,address)": "infinite"
					}
				},
				"methodIdentifiers": {
					"allValidatorNodes(uint256)": "bb0a43bc",
					"deleteValidatorNode(address)": "03a2c9e2",
					"deposit()": "d0e30db0",
					"depositedBalances(address)": "7d995311",
					"edxAccount()": "33deea05",
					"fetchAllValidatorNodeDetails()": "6ca6d88e",
					"getValidatorNodeDetails(address)": "3ed0eee4",
					"linkValidatorNode(address,address)": "22df93ba",
					"owner()": "8da5cb5b",
					"pauseContract()": "439766ce",
					"paused()": "5c975abb",
					"renounceOwnership()": "715018a6",
					"setEdxAccount(address)": "a7d77ce5",
					"setWithdrawalFeePercentage(uint256)": "5fb0ea90",
					"totalDepositedAmount(address)": "7da830b4",
					"transferOwnership(address)": "f2fde38b",
					"unpauseContract()": "b33712c5",
					"validatorNodeToAccount(address)": "b5e1302e",
					"withdraw()": "3ccfd60b",
					"withdrawalFeePercentage()": "78922c8f"
				}
			},
			"storageLayout": {
				"storage": [
					{
						"astId": 231,
						"contract": "contracts/ValidatorDepositContract.sol:ValidatorDepositContract",
						"label": "_status",
						"offset": 0,
						"slot": "0",
						"type": "t_uint256"
					},
					{
						"astId": 7,
						"contract": "contracts/ValidatorDepositContract.sol:ValidatorDepositContract",
						"label": "_owner",
						"offset": 0,
						"slot": "1",
						"type": "t_address"
					},
					{
						"astId": 130,
						"contract": "contracts/ValidatorDepositContract.sol:ValidatorDepositContract",
						"label": "_paused",
						"offset": 20,
						"slot": "1",
						"type": "t_bool"
					},
					{
						"astId": 322,
						"contract": "contracts/ValidatorDepositContract.sol:ValidatorDepositContract",
						"label": "validatorNodeToAccount",
						"offset": 0,
						"slot": "2",
						"type": "t_mapping(t_address,t_address)"
					},
					{
						"astId": 326,
						"contract": "contracts/ValidatorDepositContract.sol:ValidatorDepositContract",
						"label": "depositedBalances",
						"offset": 0,
						"slot": "3",
						"type": "t_mapping(t_address,t_uint256)"
					},
					{
						"astId": 330,
						"contract": "contracts/ValidatorDepositContract.sol:ValidatorDepositContract",
						"label": "totalDepositedAmount",
						"offset": 0,
						"slot": "4",
						"type": "t_mapping(t_address,t_uint256)"
					},
					{
						"astId": 333,
						"contract": "contracts/ValidatorDepositContract.sol:ValidatorDepositContract",
						"label": "allValidatorNodes",
						"offset": 0,
						"slot": "5",
						"type": "t_array(t_address)dyn_storage"
					},
					{
						"astId": 336,
						"contract": "contracts/ValidatorDepositContract.sol:ValidatorDepositContract",
						"label": "withdrawalFeePercentage",
						"offset": 0,
						"slot": "6",
						"type": "t_uint256"
					},
					{
						"astId": 342,
						"contract": "contracts/ValidatorDepositContract.sol:ValidatorDepositContract",
						"label": "edxAccount",
						"offset": 0,
						"slot": "7",
						"type": "t_address"
					}
				],
				"types": {
					"t_address": {
						"encoding": "inplace",
						"label": "address",
						"numberOfBytes": "20"
					},
					"t_array(t_address)dyn_storage": {
						"base": "t_address",
						"encoding": "dynamic_array",
						"label": "address[]",
						"numberOfBytes": "32"
					},
					"t_bool": {
						"encoding": "inplace",
						"label": "bool",
						"numberOfBytes": "1"
					},
					"t_mapping(t_address,t_address)": {
						"encoding": "mapping",
						"key": "t_address",
						"label": "mapping(address => address)",
						"numberOfBytes": "32",
						"value": "t_address"
					},
					"t_mapping(t_address,t_uint256)": {
						"encoding": "mapping",
						"key": "t_address",
						"label": "mapping(address => uint256)",
						"numberOfBytes": "32",
						"value": "t_uint256"
					},
					"t_uint256": {
						"encoding": "inplace",
						"label": "uint256",
						"numberOfBytes": "32"
					}
				}
			},
			"userdoc": {
				"kind": "user",
				"methods": {},
				"version": 1
			}
		}
	}
}