{
	"contracts/contract.sol": {
		"Presale": {
			"abi": [
				{
					"inputs": [],
					"stateMutability": "nonpayable",
					"type": "constructor"
				},
				{
					"anonymous": false,
					"inputs": [
						{
							"indexed": true,
							"internalType": "address",
							"name": "previousOwner",
							"type": "address"
						},
						{
							"indexed": true,
							"internalType": "address",
							"name": "newOwner",
							"type": "address"
						}
					],
					"name": "OwnershipTransferred",
					"type": "event"
				},
				{
					"anonymous": false,
					"inputs": [
						{
							"indexed": false,
							"internalType": "address",
							"name": "token",
							"type": "address"
						},
						{
							"indexed": false,
							"internalType": "uint256",
							"name": "amount",
							"type": "uint256"
						}
					],
					"name": "SaleTokenAdded",
					"type": "event"
				},
				{
					"anonymous": false,
					"inputs": [
						{
							"indexed": false,
							"internalType": "address",
							"name": "token",
							"type": "address"
						},
						{
							"indexed": false,
							"internalType": "uint256[4]",
							"name": "price",
							"type": "uint256[4]"
						}
					],
					"name": "TokenAdded",
					"type": "event"
				},
				{
					"anonymous": false,
					"inputs": [
						{
							"indexed": false,
							"internalType": "address",
							"name": "token",
							"type": "address"
						},
						{
							"indexed": false,
							"internalType": "uint256[4]",
							"name": "price",
							"type": "uint256[4]"
						}
					],
					"name": "TokenUpdated",
					"type": "event"
				},
				{
					"anonymous": false,
					"inputs": [
						{
							"indexed": true,
							"internalType": "address",
							"name": "buyer",
							"type": "address"
						},
						{
							"indexed": true,
							"internalType": "address",
							"name": "token",
							"type": "address"
						},
						{
							"indexed": false,
							"internalType": "uint256",
							"name": "amount",
							"type": "uint256"
						},
						{
							"indexed": false,
							"internalType": "uint256",
							"name": "tokensBought",
							"type": "uint256"
						}
					],
					"name": "TokensBought",
					"type": "event"
				},
				{
					"anonymous": false,
					"inputs": [
						{
							"indexed": true,
							"internalType": "address",
							"name": "buyer",
							"type": "address"
						},
						{
							"indexed": false,
							"internalType": "uint256",
							"name": "amount",
							"type": "uint256"
						}
					],
					"name": "TokensUnlocked",
					"type": "event"
				},
				{
					"inputs": [
						{
							"internalType": "address",
							"name": "_token",
							"type": "address"
						},
						{
							"internalType": "uint256[4]",
							"name": "_price",
							"type": "uint256[4]"
						}
					],
					"name": "addWhiteListedToken",
					"outputs": [],
					"stateMutability": "nonpayable",
					"type": "function"
				},
				{
					"inputs": [
						{
							"internalType": "address",
							"name": "_token",
							"type": "address"
						},
						{
							"internalType": "uint256",
							"name": "_amount",
							"type": "uint256"
						}
					],
					"name": "buyToken",
					"outputs": [],
					"stateMutability": "payable",
					"type": "function"
				},
				{
					"inputs": [
						{
							"internalType": "address",
							"name": "",
							"type": "address"
						}
					],
					"name": "buyersAmount",
					"outputs": [
						{
							"internalType": "uint256",
							"name": "amount",
							"type": "uint256"
						},
						{
							"internalType": "bool",
							"name": "isClaimed",
							"type": "bool"
						}
					],
					"stateMutability": "view",
					"type": "function"
				},
				{
					"inputs": [],
					"name": "getCurrentTier",
					"outputs": [
						{
							"internalType": "uint256",
							"name": "",
							"type": "uint256"
						}
					],
					"stateMutability": "pure",
					"type": "function"
				},
				{
					"inputs": [
						{
							"internalType": "address",
							"name": "token",
							"type": "address"
						},
						{
							"internalType": "uint256",
							"name": "amount",
							"type": "uint256"
						}
					],
					"name": "getTokenAmount",
					"outputs": [
						{
							"internalType": "uint256",
							"name": "",
							"type": "uint256"
						}
					],
					"stateMutability": "view",
					"type": "function"
				},
				{
					"inputs": [],
					"name": "isUnlockingStarted",
					"outputs": [
						{
							"internalType": "bool",
							"name": "",
							"type": "bool"
						}
					],
					"stateMutability": "view",
					"type": "function"
				},
				{
					"inputs": [],
					"name": "maxBuyLimit",
					"outputs": [
						{
							"internalType": "uint256",
							"name": "",
							"type": "uint256"
						}
					],
					"stateMutability": "view",
					"type": "function"
				},
				{
					"inputs": [],
					"name": "minBuyLimit",
					"outputs": [
						{
							"internalType": "uint256",
							"name": "",
							"type": "uint256"
						}
					],
					"stateMutability": "view",
					"type": "function"
				},
				{
					"inputs": [],
					"name": "owner",
					"outputs": [
						{
							"internalType": "address",
							"name": "",
							"type": "address"
						}
					],
					"stateMutability": "view",
					"type": "function"
				},
				{
					"inputs": [],
					"name": "presaleEndTime",
					"outputs": [
						{
							"internalType": "uint256",
							"name": "",
							"type": "uint256"
						}
					],
					"stateMutability": "view",
					"type": "function"
				},
				{
					"inputs": [],
					"name": "presaleStartTime",
					"outputs": [
						{
							"internalType": "uint256",
							"name": "",
							"type": "uint256"
						}
					],
					"stateMutability": "view",
					"type": "function"
				},
				{
					"inputs": [
						{
							"internalType": "uint256",
							"name": "",
							"type": "uint256"
						}
					],
					"name": "rate",
					"outputs": [
						{
							"internalType": "uint256",
							"name": "",
							"type": "uint256"
						}
					],
					"stateMutability": "view",
					"type": "function"
				},
				{
					"inputs": [],
					"name": "renounceOwnership",
					"outputs": [],
					"stateMutability": "nonpayable",
					"type": "function"
				},
				{
					"inputs": [],
					"name": "saleToken",
					"outputs": [
						{
							"internalType": "address",
							"name": "",
							"type": "address"
						}
					],
					"stateMutability": "view",
					"type": "function"
				},
				{
					"inputs": [],
					"name": "saleTokenDec",
					"outputs": [
						{
							"internalType": "uint256",
							"name": "",
							"type": "uint256"
						}
					],
					"stateMutability": "view",
					"type": "function"
				},
				{
					"inputs": [
						{
							"internalType": "uint256",
							"name": "_maxBuyLimit",
							"type": "uint256"
						}
					],
					"name": "setMaxBuyLimit",
					"outputs": [],
					"stateMutability": "nonpayable",
					"type": "function"
				},
				{
					"inputs": [
						{
							"internalType": "uint256",
							"name": "_minBuyLimit",
							"type": "uint256"
						}
					],
					"name": "setMinBuyLimit",
					"outputs": [],
					"stateMutability": "nonpayable",
					"type": "function"
				},
				{
					"inputs": [
						{
							"internalType": "address",
							"name": "_saleToken",
							"type": "address"
						},
						{
							"internalType": "uint256",
							"name": "_totalTokensforSale",
							"type": "uint256"
						}
					],
					"name": "setSaleTokenParams",
					"outputs": [],
					"stateMutability": "nonpayable",
					"type": "function"
				},
				{
					"inputs": [
						{
							"internalType": "uint256",
							"name": "_presaleEndTime",
							"type": "uint256"
						}
					],
					"name": "startAndSetPresaleEndTime",
					"outputs": [],
					"stateMutability": "nonpayable",
					"type": "function"
				},
				{
					"inputs": [],
					"name": "startUnlocking",
					"outputs": [],
					"stateMutability": "nonpayable",
					"type": "function"
				},
				{
					"inputs": [],
					"name": "stopUnlocking",
					"outputs": [],
					"stateMutability": "nonpayable",
					"type": "function"
				},
				{
					"inputs": [
						{
							"internalType": "address",
							"name": "",
							"type": "address"
						},
						{
							"internalType": "uint256",
							"name": "",
							"type": "uint256"
						}
					],
					"name": "tokenPrices",
					"outputs": [
						{
							"internalType": "uint256",
							"name": "",
							"type": "uint256"
						}
					],
					"stateMutability": "view",
					"type": "function"
				},
				{
					"inputs": [
						{
							"internalType": "address",
							"name": "",
							"type": "address"
						}
					],
					"name": "tokenWL",
					"outputs": [
						{
							"internalType": "bool",
							"name": "",
							"type": "bool"
						}
					],
					"stateMutability": "view",
					"type": "function"
				},
				{
					"inputs": [],
					"name": "totalTokensSold",
					"outputs": [
						{
							"internalType": "uint256",
							"name": "",
							"type": "uint256"
						}
					],
					"stateMutability": "view",
					"type": "function"
				},
				{
					"inputs": [],
					"name": "totalTokensforSale",
					"outputs": [
						{
							"internalType": "uint256",
							"name": "",
							"type": "uint256"
						}
					],
					"stateMutability": "view",
					"type": "function"
				},
				{
					"inputs": [
						{
							"internalType": "address",
							"name": "newOwner",
							"type": "address"
						}
					],
					"name": "transferOwnership",
					"outputs": [],
					"stateMutability": "nonpayable",
					"type": "function"
				},
				{
					"inputs": [
						{
							"internalType": "uint256[4]",
							"name": "_rate",
							"type": "uint256[4]"
						}
					],
					"name": "updateEthRate",
					"outputs": [],
					"stateMutability": "nonpayable",
					"type": "function"
				},
				{
					"inputs": [
						{
							"internalType": "uint256",
							"name": "_presaleEndTime",
							"type": "uint256"
						}
					],
					"name": "updateTime",
					"outputs": [],
					"stateMutability": "nonpayable",
					"type": "function"
				},
				{
					"inputs": [
						{
							"internalType": "address",
							"name": "_token",
							"type": "address"
						},
						{
							"internalType": "uint256[4]",
							"name": "_price",
							"type": "uint256[4]"
						}
					],
					"name": "updateTokenRate",
					"outputs": [],
					"stateMutability": "nonpayable",
					"type": "function"
				},
				{
					"inputs": [
						{
							"internalType": "address",
							"name": "token",
							"type": "address"
						},
						{
							"internalType": "uint256",
							"name": "amt",
							"type": "uint256"
						}
					],
					"name": "withdraw",
					"outputs": [],
					"stateMutability": "nonpayable",
					"type": "function"
				},
				{
					"inputs": [
						{
							"internalType": "address",
							"name": "token",
							"type": "address"
						}
					],
					"name": "withdrawAll",
					"outputs": [],
					"stateMutability": "nonpayable",
					"type": "function"
				},
				{
					"inputs": [],
					"name": "withdrawAllSaleToken",
					"outputs": [],
					"stateMutability": "nonpayable",
					"type": "function"
				},
				{
					"inputs": [
						{
							"internalType": "uint256",
							"name": "amt",
							"type": "uint256"
						}
					],
					"name": "withdrawCurrency",
					"outputs": [],
					"stateMutability": "nonpayable",
					"type": "function"
				},
				{
					"inputs": [
						{
							"internalType": "uint256",
							"name": "_amount",
							"type": "uint256"
						}
					],
					"name": "withdrawSaleToken",
					"outputs": [],
					"stateMutability": "nonpayable",
					"type": "function"
				},
				{
					"inputs": [],
					"name": "withdrawToken",
					"outputs": [],
					"stateMutability": "nonpayable",
					"type": "function"
				}
			],
			"devdoc": {
				"kind": "dev",
				"methods": {},
				"version": 1
			},
			"evm": {
				"assembly": "    /* \"contracts/contract.sol\":8403:15989  contract Presale is Ownable {... */\n  mstore(0x40, 0x80)\n    /* \"contracts/contract.sol\":9091:9107  constructor() {} */\n  callvalue\n  dup1\n  iszero\n  tag_1\n  jumpi\n  0x00\n  dup1\n  revert\ntag_1:\n  pop\n    /* \"contracts/contract.sol\":1325:1357  _transferOwnership(_msgSender()) */\n  tag_5\n    /* \"contracts/contract.sol\":1344:1356  _msgSender() */\n  tag_6\n    /* \"contracts/contract.sol\":1344:1354  _msgSender */\n  shl(0x20, tag_7)\n    /* \"contracts/contract.sol\":1344:1356  _msgSender() */\n  0x20\n  shr\n  jump\t// in\ntag_6:\n    /* \"contracts/contract.sol\":1325:1343  _transferOwnership */\n  shl(0x20, tag_8)\n    /* \"contracts/contract.sol\":1325:1357  _transferOwnership(_msgSender()) */\n  0x20\n  shr\n  jump\t// in\ntag_5:\n    /* \"contracts/contract.sol\":8403:15989  contract Presale is Ownable {... */\n  jump(tag_10)\n    /* \"contracts/contract.sol\":888:984  function _msgSender() internal view virtual returns (address) {... */\ntag_7:\n    /* \"contracts/contract.sol\":941:948  address */\n  0x00\n    /* \"contracts/contract.sol\":967:977  msg.sender */\n  caller\n    /* \"contracts/contract.sol\":960:977  return msg.sender */\n  swap1\n  pop\n    /* \"contracts/contract.sol\":888:984  function _msgSender() internal view virtual returns (address) {... */\n  swap1\n  jump\t// out\n    /* \"contracts/contract.sol\":1924:2111  function _transferOwnership(address newOwner) internal virtual {... */\ntag_8:\n    /* \"contracts/contract.sol\":1997:2013  address oldOwner */\n  0x00\n    /* \"contracts/contract.sol\":2016:2022  _owner */\n  dup1\n  0x00\n  swap1\n  sload\n  swap1\n  0x0100\n  exp\n  swap1\n  div\n  0xffffffffffffffffffffffffffffffffffffffff\n  and\n    /* \"contracts/contract.sol\":1997:2022  address oldOwner = _owner */\n  swap1\n  pop\n    /* \"contracts/contract.sol\":2041:2049  newOwner */\n  dup2\n    /* \"contracts/contract.sol\":2032:2038  _owner */\n  0x00\n  dup1\n    /* \"contracts/contract.sol\":2032:2049  _owner = newOwner */\n  0x0100\n  exp\n  dup2\n  sload\n  dup2\n  0xffffffffffffffffffffffffffffffffffffffff\n  mul\n  not\n  and\n  swap1\n  dup4\n  0xffffffffffffffffffffffffffffffffffffffff\n  and\n  mul\n  or\n  swap1\n  sstore\n  pop\n    /* \"contracts/contract.sol\":2095:2103  newOwner */\n  dup2\n    /* \"contracts/contract.sol\":2064:2104  OwnershipTransferred(oldOwner, newOwner) */\n  0xffffffffffffffffffffffffffffffffffffffff\n  and\n    /* \"contracts/contract.sol\":2085:2093  oldOwner */\n  dup2\n    /* \"contracts/contract.sol\":2064:2104  OwnershipTransferred(oldOwner, newOwner) */\n  0xffffffffffffffffffffffffffffffffffffffff\n  and\n  0x8be0079c531659141344cd1fd0a4f28419497f9722a3daafe3b4186f6b6457e0\n  mload(0x40)\n  mload(0x40)\n  dup1\n  swap2\n  sub\n  swap1\n  log3\n    /* \"contracts/contract.sol\":1987:2111  {... */\n  pop\n    /* \"contracts/contract.sol\":1924:2111  function _transferOwnership(address newOwner) internal virtual {... */\n  pop\n  jump\t// out\n    /* \"contracts/contract.sol\":8403:15989  contract Presale is Ownable {... */\ntag_10:\n  dataSize(sub_0)\n  dup1\n  dataOffset(sub_0)\n  0x00\n  codecopy\n  0x00\n  return\nstop\n\nsub_0: assembly {\n        /* \"contracts/contract.sol\":8403:15989  contract Presale is Ownable {... */\n      mstore(0x40, 0x80)\n      jumpi(tag_1, lt(calldatasize, 0x04))\n      shr(0xe0, calldataload(0x00))\n      dup1\n      0x89e6ce1e\n      gt\n      tag_37\n      jumpi\n      dup1\n      0xcae70c70\n      gt\n      tag_38\n      jumpi\n      dup1\n      0xee774ccd\n      gt\n      tag_39\n      jumpi\n      dup1\n      0xee774ccd\n      eq\n      tag_32\n      jumpi\n      dup1\n      0xf2fde38b\n      eq\n      tag_33\n      jumpi\n      dup1\n      0xf3fef3a3\n      eq\n      tag_34\n      jumpi\n      dup1\n      0xfa09e630\n      eq\n      tag_35\n      jumpi\n      dup1\n      0xfb00f3fc\n      eq\n      tag_36\n      jumpi\n      jump(tag_1)\n    tag_39:\n      dup1\n      0xcae70c70\n      eq\n      tag_28\n      jumpi\n      dup1\n      0xded441c2\n      eq\n      tag_29\n      jumpi\n      dup1\n      0xe7ee6ad6\n      eq\n      tag_30\n      jumpi\n      dup1\n      0xe985e367\n      eq\n      tag_31\n      jumpi\n      jump(tag_1)\n    tag_38:\n      dup1\n      0xa82524b2\n      gt\n      tag_40\n      jumpi\n      dup1\n      0xa82524b2\n      eq\n      tag_23\n      jumpi\n      dup1\n      0xace1741c\n      eq\n      tag_24\n      jumpi\n      dup1\n      0xb5b0763c\n      eq\n      tag_25\n      jumpi\n      dup1\n      0xb81df742\n      eq\n      tag_26\n      jumpi\n      dup1\n      0xca628c78\n      eq\n      tag_27\n      jumpi\n      jump(tag_1)\n    tag_40:\n      dup1\n      0x89e6ce1e\n      eq\n      tag_19\n      jumpi\n      dup1\n      0x8ce0b9d2\n      eq\n      tag_20\n      jumpi\n      dup1\n      0x8da5cb5b\n      eq\n      tag_21\n      jumpi\n      dup1\n      0x99b77032\n      eq\n      tag_22\n      jumpi\n      jump(tag_1)\n    tag_37:\n      dup1\n      0x65617db1\n      gt\n      tag_41\n      jumpi\n      dup1\n      0x6bcedf9c\n      gt\n      tag_42\n      jumpi\n      dup1\n      0x6bcedf9c\n      eq\n      tag_14\n      jumpi\n      dup1\n      0x6c59bd0c\n      eq\n      tag_15\n      jumpi\n      dup1\n      0x715018a6\n      eq\n      tag_16\n      jumpi\n      dup1\n      0x7412c223\n      eq\n      tag_17\n      jumpi\n      dup1\n      0x757765f8\n      eq\n      tag_18\n      jumpi\n      jump(tag_1)\n    tag_42:\n      dup1\n      0x65617db1\n      eq\n      tag_10\n      jumpi\n      dup1\n      0x683b3b97\n      eq\n      tag_11\n      jumpi\n      dup1\n      0x68f8fc10\n      eq\n      tag_12\n      jumpi\n      dup1\n      0x6aa5b37f\n      eq\n      tag_13\n      jumpi\n      jump(tag_1)\n    tag_41:\n      dup1\n      0x3c00a36c\n      gt\n      tag_43\n      jumpi\n      dup1\n      0x3c00a36c\n      eq\n      tag_6\n      jumpi\n      dup1\n      0x54a9f102\n      eq\n      tag_7\n      jumpi\n      dup1\n      0x5b10bd6a\n      eq\n      tag_8\n      jumpi\n      dup1\n      0x63b20117\n      eq\n      tag_9\n      jumpi\n      jump(tag_1)\n    tag_43:\n      dup1\n      0x115ece4c\n      eq\n      tag_2\n      jumpi\n      dup1\n      0x249b7c19\n      eq\n      tag_3\n      jumpi\n      dup1\n      0x2a95c24c\n      eq\n      tag_4\n      jumpi\n      dup1\n      0x3848a771\n      eq\n      tag_5\n      jumpi\n    tag_1:\n      0x00\n      dup1\n      revert\n        /* \"contracts/contract.sol\":12367:12974  function getTokenAmount(... */\n    tag_2:\n      callvalue\n      dup1\n      iszero\n      tag_44\n      jumpi\n      0x00\n      dup1\n      revert\n    tag_44:\n      pop\n      tag_45\n      0x04\n      dup1\n      calldatasize\n      sub\n      dup2\n      add\n      swap1\n      tag_46\n      swap2\n      swap1\n      tag_47\n      jump\t// in\n    tag_46:\n      tag_48\n      jump\t// in\n    tag_45:\n      mload(0x40)\n      tag_49\n      swap2\n      swap1\n      tag_50\n      jump\t// in\n    tag_49:\n      mload(0x40)\n      dup1\n      swap2\n      sub\n      swap1\n      return\n        /* \"contracts/contract.sol\":8837:8866  uint256 public presaleEndTime */\n    tag_3:\n      callvalue\n      dup1\n      iszero\n      tag_51\n      jumpi\n      0x00\n      dup1\n      revert\n    tag_51:\n      pop\n      tag_52\n      tag_53\n      jump\t// in\n    tag_52:\n      mload(0x40)\n      tag_54\n      swap2\n      swap1\n      tag_50\n      jump\t// in\n    tag_54:\n      mload(0x40)\n      dup1\n      swap2\n      sub\n      swap1\n      return\n        /* \"contracts/contract.sol\":11902:12084  function startUnlocking() external onlyOwner isPresaleEnded {... */\n    tag_4:\n      callvalue\n      dup1\n      iszero\n      tag_55\n      jumpi\n      0x00\n      dup1\n      revert\n    tag_55:\n      pop\n      tag_56\n      tag_57\n      jump\t// in\n    tag_56:\n      stop\n        /* \"contracts/contract.sol\":8872:8902  bool public isUnlockingStarted */\n    tag_5:\n      callvalue\n      dup1\n      iszero\n      tag_58\n      jumpi\n      0x00\n      dup1\n      revert\n    tag_58:\n      pop\n      tag_59\n      tag_60\n      jump\t// in\n    tag_59:\n      mload(0x40)\n      tag_61\n      swap2\n      swap1\n      tag_62\n      jump\t// in\n    tag_61:\n      mload(0x40)\n      dup1\n      swap2\n      sub\n      swap1\n      return\n        /* \"contracts/contract.sol\":15875:15981  function withdrawCurrency(uint256 amt) public onlyOwner {... */\n    tag_6:\n      callvalue\n      dup1\n      iszero\n      tag_63\n      jumpi\n      0x00\n      dup1\n      revert\n    tag_63:\n      pop\n      tag_64\n      0x04\n      dup1\n      calldatasize\n      sub\n      dup2\n      add\n      swap1\n      tag_65\n      swap2\n      swap1\n      tag_66\n      jump\t// in\n    tag_65:\n      tag_67\n      jump\t// in\n    tag_64:\n      stop\n        /* \"contracts/contract.sol\":8908:8965  mapping(address => BuyerTokenDetails) public buyersAmount */\n    tag_7:\n      callvalue\n      dup1\n      iszero\n      tag_68\n      jumpi\n      0x00\n      dup1\n      revert\n    tag_68:\n      pop\n      tag_69\n      0x04\n      dup1\n      calldatasize\n      sub\n      dup2\n      add\n      swap1\n      tag_70\n      swap2\n      swap1\n      tag_71\n      jump\t// in\n    tag_70:\n      tag_72\n      jump\t// in\n    tag_69:\n      mload(0x40)\n      tag_73\n      swap3\n      swap2\n      swap1\n      tag_74\n      jump\t// in\n    tag_73:\n      mload(0x40)\n      dup1\n      swap2\n      sub\n      swap1\n      return\n        /* \"contracts/contract.sol\":10970:11156  function startAndSetPresaleEndTime(... */\n    tag_8:\n      callvalue\n      dup1\n      iszero\n      tag_75\n      jumpi\n      0x00\n      dup1\n      revert\n    tag_75:\n      pop\n      tag_76\n      0x04\n      dup1\n      calldatasize\n      sub\n      dup2\n      add\n      swap1\n      tag_77\n      swap2\n      swap1\n      tag_66\n      jump\t// in\n    tag_77:\n      tag_78\n      jump\t// in\n    tag_76:\n      stop\n        /* \"contracts/contract.sol\":8971:9001  uint256 public totalTokensSold */\n    tag_9:\n      callvalue\n      dup1\n      iszero\n      tag_79\n      jumpi\n      0x00\n      dup1\n      revert\n    tag_79:\n      pop\n      tag_80\n      tag_81\n      jump\t// in\n    tag_80:\n      mload(0x40)\n      tag_82\n      swap2\n      swap1\n      tag_50\n      jump\t// in\n    tag_82:\n      mload(0x40)\n      dup1\n      swap2\n      sub\n      swap1\n      return\n        /* \"contracts/contract.sol\":11296:11526  function addWhiteListedToken(... */\n    tag_10:\n      callvalue\n      dup1\n      iszero\n      tag_83\n      jumpi\n      0x00\n      dup1\n      revert\n    tag_83:\n      pop\n      tag_84\n      0x04\n      dup1\n      calldatasize\n      sub\n      dup2\n      add\n      swap1\n      tag_85\n      swap2\n      swap1\n      tag_86\n      jump\t// in\n    tag_85:\n      tag_87\n      jump\t// in\n    tag_84:\n      stop\n        /* \"contracts/contract.sol\":8745:8794  mapping(address => uint256[4]) public tokenPrices */\n    tag_11:\n      callvalue\n      dup1\n      iszero\n      tag_88\n      jumpi\n      0x00\n      dup1\n      revert\n    tag_88:\n      pop\n      tag_89\n      0x04\n      dup1\n      calldatasize\n      sub\n      dup2\n      add\n      swap1\n      tag_90\n      swap2\n      swap1\n      tag_47\n      jump\t// in\n    tag_90:\n      tag_91\n      jump\t// in\n    tag_89:\n      mload(0x40)\n      tag_92\n      swap2\n      swap1\n      tag_50\n      jump\t// in\n    tag_92:\n      mload(0x40)\n      dup1\n      swap2\n      sub\n      swap1\n      return\n        /* \"contracts/contract.sol\":12981:14174  function buyToken(... */\n    tag_12:\n      tag_93\n      0x04\n      dup1\n      calldatasize\n      sub\n      dup2\n      add\n      swap1\n      tag_94\n      swap2\n      swap1\n      tag_47\n      jump\t// in\n    tag_94:\n      tag_95\n      jump\t// in\n    tag_93:\n      stop\n        /* \"contracts/contract.sol\":8636:8662  uint256 public maxBuyLimit */\n    tag_13:\n      callvalue\n      dup1\n      iszero\n      tag_96\n      jumpi\n      0x00\n      dup1\n      revert\n    tag_96:\n      pop\n      tag_97\n      tag_98\n      jump\t// in\n    tag_97:\n      mload(0x40)\n      tag_99\n      swap2\n      swap1\n      tag_50\n      jump\t// in\n    tag_99:\n      mload(0x40)\n      dup1\n      swap2\n      sub\n      swap1\n      return\n        /* \"contracts/contract.sol\":8597:8630  uint256 public totalTokensforSale */\n    tag_14:\n      callvalue\n      dup1\n      iszero\n      tag_100\n      jumpi\n      0x00\n      dup1\n      revert\n    tag_100:\n      pop\n      tag_101\n      tag_102\n      jump\t// in\n    tag_101:\n      mload(0x40)\n      tag_103\n      swap2\n      swap1\n      tag_50\n      jump\t// in\n    tag_103:\n      mload(0x40)\n      dup1\n      swap2\n      sub\n      swap1\n      return\n        /* \"contracts/contract.sol\":11162:11290  function updateTime(... */\n    tag_15:\n      callvalue\n      dup1\n      iszero\n      tag_104\n      jumpi\n      0x00\n      dup1\n      revert\n    tag_104:\n      pop\n      tag_105\n      0x04\n      dup1\n      calldatasize\n      sub\n      dup2\n      add\n      swap1\n      tag_106\n      swap2\n      swap1\n      tag_66\n      jump\t// in\n    tag_106:\n      tag_107\n      jump\t// in\n    tag_105:\n      stop\n        /* \"contracts/contract.sol\":1581:1682  function renounceOwnership() public virtual onlyOwner {... */\n    tag_16:\n      callvalue\n      dup1\n      iszero\n      tag_108\n      jumpi\n      0x00\n      dup1\n      revert\n    tag_108:\n      pop\n      tag_109\n      tag_110\n      jump\t// in\n    tag_109:\n      stop\n        /* \"contracts/contract.sol\":12279:12357  function getCurrentTier() public pure returns (uint) {... */\n    tag_17:\n      callvalue\n      dup1\n      iszero\n      tag_111\n      jumpi\n      0x00\n      dup1\n      revert\n    tag_111:\n      pop\n      tag_112\n      tag_113\n      jump\t// in\n    tag_112:\n      mload(0x40)\n      tag_114\n      swap2\n      swap1\n      tag_50\n      jump\t// in\n    tag_114:\n      mload(0x40)\n      dup1\n      swap2\n      sub\n      swap1\n      return\n        /* \"contracts/contract.sol\":14786:14891  function setMaxBuyLimit(uint _maxBuyLimit) external onlyOwner {... */\n    tag_18:\n      callvalue\n      dup1\n      iszero\n      tag_115\n      jumpi\n      0x00\n      dup1\n      revert\n    tag_115:\n      pop\n      tag_116\n      0x04\n      dup1\n      calldatasize\n      sub\n      dup2\n      add\n      swap1\n      tag_117\n      swap2\n      swap1\n      tag_66\n      jump\t// in\n    tag_117:\n      tag_118\n      jump\t// in\n    tag_116:\n      stop\n        /* \"contracts/contract.sol\":10225:10964  function setSaleTokenParams(... */\n    tag_19:\n      callvalue\n      dup1\n      iszero\n      tag_119\n      jumpi\n      0x00\n      dup1\n      revert\n    tag_119:\n      pop\n      tag_120\n      0x04\n      dup1\n      calldatasize\n      sub\n      dup2\n      add\n      swap1\n      tag_121\n      swap2\n      swap1\n      tag_47\n      jump\t// in\n    tag_121:\n      tag_122\n      jump\t// in\n    tag_120:\n      stop\n        /* \"contracts/contract.sol\":8700:8739  mapping(address => bool) public tokenWL */\n    tag_20:\n      callvalue\n      dup1\n      iszero\n      tag_123\n      jumpi\n      0x00\n      dup1\n      revert\n    tag_123:\n      pop\n      tag_124\n      0x04\n      dup1\n      calldatasize\n      sub\n      dup2\n      add\n      swap1\n      tag_125\n      swap2\n      swap1\n      tag_71\n      jump\t// in\n    tag_125:\n      tag_126\n      jump\t// in\n    tag_124:\n      mload(0x40)\n      tag_127\n      swap2\n      swap1\n      tag_62\n      jump\t// in\n    tag_127:\n      mload(0x40)\n      dup1\n      swap2\n      sub\n      swap1\n      return\n        /* \"contracts/contract.sol\":1369:1454  function owner() public view virtual returns (address) {... */\n    tag_21:\n      callvalue\n      dup1\n      iszero\n      tag_128\n      jumpi\n      0x00\n      dup1\n      revert\n    tag_128:\n      pop\n      tag_129\n      tag_130\n      jump\t// in\n    tag_129:\n      mload(0x40)\n      tag_131\n      swap2\n      swap1\n      tag_132\n      jump\t// in\n    tag_131:\n      mload(0x40)\n      dup1\n      swap2\n      sub\n      swap1\n      return\n        /* \"contracts/contract.sol\":14675:14780  function setMinBuyLimit(uint _minBuyLimit) external onlyOwner {... */\n    tag_22:\n      callvalue\n      dup1\n      iszero\n      tag_133\n      jumpi\n      0x00\n      dup1\n      revert\n    tag_133:\n      pop\n      tag_134\n      0x04\n      dup1\n      calldatasize\n      sub\n      dup2\n      add\n      swap1\n      tag_135\n      swap2\n      swap1\n      tag_66\n      jump\t// in\n    tag_135:\n      tag_136\n      jump\t// in\n    tag_134:\n      stop\n        /* \"contracts/contract.sol\":8800:8831  uint256 public presaleStartTime */\n    tag_23:\n      callvalue\n      dup1\n      iszero\n      tag_137\n      jumpi\n      0x00\n      dup1\n      revert\n    tag_137:\n      pop\n      tag_138\n      tag_139\n      jump\t// in\n    tag_138:\n      mload(0x40)\n      tag_140\n      swap2\n      swap1\n      tag_50\n      jump\t// in\n    tag_140:\n      mload(0x40)\n      dup1\n      swap2\n      sub\n      swap1\n      return\n        /* \"contracts/contract.sol\":8567:8591  uint public saleTokenDec */\n    tag_24:\n      callvalue\n      dup1\n      iszero\n      tag_141\n      jumpi\n      0x00\n      dup1\n      revert\n    tag_141:\n      pop\n      tag_142\n      tag_143\n      jump\t// in\n    tag_142:\n      mload(0x40)\n      tag_144\n      swap2\n      swap1\n      tag_50\n      jump\t// in\n    tag_144:\n      mload(0x40)\n      dup1\n      swap2\n      sub\n      swap1\n      return\n        /* \"contracts/contract.sol\":12089:12270  function stopUnlocking() external onlyOwner isPresaleEnded {... */\n    tag_25:\n      callvalue\n      dup1\n      iszero\n      tag_145\n      jumpi\n      0x00\n      dup1\n      revert\n    tag_145:\n      pop\n      tag_146\n      tag_147\n      jump\t// in\n    tag_146:\n      stop\n        /* \"contracts/contract.sol\":8668:8694  uint256 public minBuyLimit */\n    tag_26:\n      callvalue\n      dup1\n      iszero\n      tag_148\n      jumpi\n      0x00\n      dup1\n      revert\n    tag_148:\n      pop\n      tag_149\n      tag_150\n      jump\t// in\n    tag_149:\n      mload(0x40)\n      tag_151\n      swap2\n      swap1\n      tag_50\n      jump\t// in\n    tag_151:\n      mload(0x40)\n      dup1\n      swap2\n      sub\n      swap1\n      return\n        /* \"contracts/contract.sol\":14181:14669  function withdrawToken() external {... */\n    tag_27:\n      callvalue\n      dup1\n      iszero\n      tag_152\n      jumpi\n      0x00\n      dup1\n      revert\n    tag_152:\n      pop\n      tag_153\n      tag_154\n      jump\t// in\n    tag_153:\n      stop\n        /* \"contracts/contract.sol\":11632:11896  function updateTokenRate(... */\n    tag_28:\n      callvalue\n      dup1\n      iszero\n      tag_155\n      jumpi\n      0x00\n      dup1\n      revert\n    tag_155:\n      pop\n      tag_156\n      0x04\n      dup1\n      calldatasize\n      sub\n      dup2\n      add\n      swap1\n      tag_157\n      swap2\n      swap1\n      tag_86\n      jump\t// in\n    tag_157:\n      tag_158\n      jump\t// in\n    tag_156:\n      stop\n        /* \"contracts/contract.sol\":14897:15057  function withdrawSaleToken(... */\n    tag_29:\n      callvalue\n      dup1\n      iszero\n      tag_159\n      jumpi\n      0x00\n      dup1\n      revert\n    tag_159:\n      pop\n      tag_160\n      0x04\n      dup1\n      calldatasize\n      sub\n      dup2\n      add\n      swap1\n      tag_161\n      swap2\n      swap1\n      tag_66\n      jump\t// in\n    tag_161:\n      tag_162\n      jump\t// in\n    tag_160:\n      stop\n        /* \"contracts/contract.sol\":8509:8531  uint256[4] public rate */\n    tag_30:\n      callvalue\n      dup1\n      iszero\n      tag_163\n      jumpi\n      0x00\n      dup1\n      revert\n    tag_163:\n      pop\n      tag_164\n      0x04\n      dup1\n      calldatasize\n      sub\n      dup2\n      add\n      swap1\n      tag_165\n      swap2\n      swap1\n      tag_66\n      jump\t// in\n    tag_165:\n      tag_166\n      jump\t// in\n    tag_164:\n      mload(0x40)\n      tag_167\n      swap2\n      swap1\n      tag_50\n      jump\t// in\n    tag_167:\n      mload(0x40)\n      dup1\n      swap2\n      sub\n      swap1\n      return\n        /* \"contracts/contract.sol\":8537:8561  address public saleToken */\n    tag_31:\n      callvalue\n      dup1\n      iszero\n      tag_168\n      jumpi\n      0x00\n      dup1\n      revert\n    tag_168:\n      pop\n      tag_169\n      tag_170\n      jump\t// in\n    tag_169:\n      mload(0x40)\n      tag_171\n      swap2\n      swap1\n      tag_132\n      jump\t// in\n    tag_171:\n      mload(0x40)\n      dup1\n      swap2\n      sub\n      swap1\n      return\n        /* \"contracts/contract.sol\":11531:11627  function updateEthRate(uint256[4] memory _rate) external onlyOwner {... */\n    tag_32:\n      callvalue\n      dup1\n      iszero\n      tag_172\n      jumpi\n      0x00\n      dup1\n      revert\n    tag_172:\n      pop\n      tag_173\n      0x04\n      dup1\n      calldatasize\n      sub\n      dup2\n      add\n      swap1\n      tag_174\n      swap2\n      swap1\n      tag_175\n      jump\t// in\n    tag_174:\n      tag_176\n      jump\t// in\n    tag_173:\n      stop\n        /* \"contracts/contract.sol\":1687:1919  function transferOwnership(address newOwner) public virtual onlyOwner {... */\n    tag_33:\n      callvalue\n      dup1\n      iszero\n      tag_177\n      jumpi\n      0x00\n      dup1\n      revert\n    tag_177:\n      pop\n      tag_178\n      0x04\n      dup1\n      calldatasize\n      sub\n      dup2\n      add\n      swap1\n      tag_179\n      swap2\n      swap1\n      tag_71\n      jump\t// in\n    tag_179:\n      tag_180\n      jump\t// in\n    tag_178:\n      stop\n        /* \"contracts/contract.sol\":15265:15548  function withdraw(address token, uint256 amt) public onlyOwner {... */\n    tag_34:\n      callvalue\n      dup1\n      iszero\n      tag_181\n      jumpi\n      0x00\n      dup1\n      revert\n    tag_181:\n      pop\n      tag_182\n      0x04\n      dup1\n      calldatasize\n      sub\n      dup2\n      add\n      swap1\n      tag_183\n      swap2\n      swap1\n      tag_47\n      jump\t// in\n    tag_183:\n      tag_184\n      jump\t// in\n    tag_182:\n      stop\n        /* \"contracts/contract.sol\":15554:15869  function withdrawAll(address token) public onlyOwner {... */\n    tag_35:\n      callvalue\n      dup1\n      iszero\n      tag_185\n      jumpi\n      0x00\n      dup1\n      revert\n    tag_185:\n      pop\n      tag_186\n      0x04\n      dup1\n      calldatasize\n      sub\n      dup2\n      add\n      swap1\n      tag_187\n      swap2\n      swap1\n      tag_71\n      jump\t// in\n    tag_187:\n      tag_188\n      jump\t// in\n    tag_186:\n      stop\n        /* \"contracts/contract.sol\":15063:15259  function withdrawAllSaleToken() external onlyOwner isPresaleEnded {... */\n    tag_36:\n      callvalue\n      dup1\n      iszero\n      tag_189\n      jumpi\n      0x00\n      dup1\n      revert\n    tag_189:\n      pop\n      tag_190\n      tag_191\n      jump\t// in\n    tag_190:\n      stop\n        /* \"contracts/contract.sol\":12367:12974  function getTokenAmount(... */\n    tag_48:\n        /* \"contracts/contract.sol\":12465:12472  uint256 */\n      0x00\n        /* \"contracts/contract.sol\":12484:12498  uint256 amtOut */\n      dup1\n        /* \"contracts/contract.sol\":12508:12517  uint tier */\n      0x00\n        /* \"contracts/contract.sol\":12520:12536  getCurrentTier() */\n      tag_193\n        /* \"contracts/contract.sol\":12520:12534  getCurrentTier */\n      tag_113\n        /* \"contracts/contract.sol\":12520:12536  getCurrentTier() */\n      jump\t// in\n    tag_193:\n        /* \"contracts/contract.sol\":12508:12536  uint tier = getCurrentTier() */\n      swap1\n      pop\n        /* \"contracts/contract.sol\":12567:12568  0 */\n      0x00\n        /* \"contracts/contract.sol\":12550:12569  token != address(0) */\n      0xffffffffffffffffffffffffffffffffffffffff\n      and\n        /* \"contracts/contract.sol\":12550:12555  token */\n      dup6\n        /* \"contracts/contract.sol\":12550:12569  token != address(0) */\n      0xffffffffffffffffffffffffffffffffffffffff\n      and\n      eq\n        /* \"contracts/contract.sol\":12546:12945  if (token != address(0)) {... */\n      tag_194\n      jumpi\n        /* \"contracts/contract.sol\":12593:12600  tokenWL */\n      0x0a\n        /* \"contracts/contract.sol\":12593:12607  tokenWL[token] */\n      0x00\n        /* \"contracts/contract.sol\":12601:12606  token */\n      dup7\n        /* \"contracts/contract.sol\":12593:12607  tokenWL[token] */\n      0xffffffffffffffffffffffffffffffffffffffff\n      and\n      0xffffffffffffffffffffffffffffffffffffffff\n      and\n      dup2\n      mstore\n      0x20\n      add\n      swap1\n      dup2\n      mstore\n      0x20\n      add\n      0x00\n      keccak256\n      0x00\n      swap1\n      sload\n      swap1\n      0x0100\n      exp\n      swap1\n      div\n      0xff\n      and\n        /* \"contracts/contract.sol\":12585:12642  require(tokenWL[token], \"Presale: Token not whitelisted\") */\n      tag_195\n      jumpi\n      mload(0x40)\n      0x08c379a000000000000000000000000000000000000000000000000000000000\n      dup2\n      mstore\n      0x04\n      add\n      tag_196\n      swap1\n      tag_197\n      jump\t// in\n    tag_196:\n      mload(0x40)\n      dup1\n      swap2\n      sub\n      swap1\n      revert\n    tag_195:\n        /* \"contracts/contract.sol\":12694:12695  0 */\n      0x00\n        /* \"contracts/contract.sol\":12666:12677  tokenPrices */\n      0x0b\n        /* \"contracts/contract.sol\":12666:12684  tokenPrices[token] */\n      0x00\n        /* \"contracts/contract.sol\":12678:12683  token */\n      dup8\n        /* \"contracts/contract.sol\":12666:12684  tokenPrices[token] */\n      0xffffffffffffffffffffffffffffffffffffffff\n      and\n      0xffffffffffffffffffffffffffffffffffffffff\n      and\n      dup2\n      mstore\n      0x20\n      add\n      swap1\n      dup2\n      mstore\n      0x20\n      add\n      0x00\n      keccak256\n        /* \"contracts/contract.sol\":12685:12689  tier */\n      dup3\n        /* \"contracts/contract.sol\":12666:12690  tokenPrices[token][tier] */\n      0x04\n      dup2\n      lt\n      tag_198\n      jumpi\n      tag_199\n      tag_200\n      jump\t// in\n    tag_199:\n    tag_198:\n      add\n      sload\n        /* \"contracts/contract.sol\":12666:12695  tokenPrices[token][tier] != 0 */\n      sub\n        /* \"contracts/contract.sol\":12666:12794  tokenPrices[token][tier] != 0... */\n      tag_202\n      jumpi\n        /* \"contracts/contract.sol\":12793:12794  0 */\n      0x00\n        /* \"contracts/contract.sol\":12666:12794  tokenPrices[token][tier] != 0... */\n      jump(tag_203)\n    tag_202:\n        /* \"contracts/contract.sol\":12749:12760  tokenPrices */\n      0x0b\n        /* \"contracts/contract.sol\":12749:12767  tokenPrices[token] */\n      0x00\n        /* \"contracts/contract.sol\":12761:12766  token */\n      dup7\n        /* \"contracts/contract.sol\":12749:12767  tokenPrices[token] */\n      0xffffffffffffffffffffffffffffffffffffffff\n      and\n      0xffffffffffffffffffffffffffffffffffffffff\n      and\n      dup2\n      mstore\n      0x20\n      add\n      swap1\n      dup2\n      mstore\n      0x20\n      add\n      0x00\n      keccak256\n        /* \"contracts/contract.sol\":12768:12772  tier */\n      dup2\n        /* \"contracts/contract.sol\":12749:12773  tokenPrices[token][tier] */\n      0x04\n      dup2\n      lt\n      tag_204\n      jumpi\n      tag_205\n      tag_200\n      jump\t// in\n    tag_205:\n    tag_204:\n      add\n      sload\n        /* \"contracts/contract.sol\":12731:12743  saleTokenDec */\n      sload(0x06)\n        /* \"contracts/contract.sol\":12725:12727  10 */\n      0x0a\n        /* \"contracts/contract.sol\":12725:12743  10 ** saleTokenDec */\n      tag_207\n      swap2\n      swap1\n      tag_208\n      jump\t// in\n    tag_207:\n        /* \"contracts/contract.sol\":12715:12721  amount */\n      dup6\n        /* \"contracts/contract.sol\":12715:12744  amount * (10 ** saleTokenDec) */\n      tag_209\n      swap2\n      swap1\n      tag_210\n      jump\t// in\n    tag_209:\n        /* \"contracts/contract.sol\":12714:12774  (amount * (10 ** saleTokenDec)) / (tokenPrices[token][tier]) */\n      tag_211\n      swap2\n      swap1\n      tag_212\n      jump\t// in\n    tag_211:\n        /* \"contracts/contract.sol\":12666:12794  tokenPrices[token][tier] != 0... */\n    tag_203:\n        /* \"contracts/contract.sol\":12657:12794  amtOut = tokenPrices[token][tier] != 0... */\n      swap2\n      pop\n        /* \"contracts/contract.sol\":12546:12945  if (token != address(0)) {... */\n      jump(tag_213)\n    tag_194:\n        /* \"contracts/contract.sol\":12848:12849  0 */\n      0x00\n        /* \"contracts/contract.sol\":12834:12838  rate */\n      0x01\n        /* \"contracts/contract.sol\":12839:12843  tier */\n      dup3\n        /* \"contracts/contract.sol\":12834:12844  rate[tier] */\n      0x04\n      dup2\n      lt\n      tag_214\n      jumpi\n      tag_215\n      tag_200\n      jump\t// in\n    tag_215:\n    tag_214:\n      add\n      sload\n        /* \"contracts/contract.sol\":12834:12849  rate[tier] != 0 */\n      sub\n        /* \"contracts/contract.sol\":12834:12934  rate[tier] != 0... */\n      tag_217\n      jumpi\n        /* \"contracts/contract.sol\":12933:12934  0 */\n      0x00\n        /* \"contracts/contract.sol\":12834:12934  rate[tier] != 0... */\n      jump(tag_218)\n    tag_217:\n        /* \"contracts/contract.sol\":12903:12907  rate */\n      0x01\n        /* \"contracts/contract.sol\":12908:12912  tier */\n      dup2\n        /* \"contracts/contract.sol\":12903:12913  rate[tier] */\n      0x04\n      dup2\n      lt\n      tag_219\n      jumpi\n      tag_220\n      tag_200\n      jump\t// in\n    tag_220:\n    tag_219:\n      add\n      sload\n        /* \"contracts/contract.sol\":12885:12897  saleTokenDec */\n      sload(0x06)\n        /* \"contracts/contract.sol\":12879:12881  10 */\n      0x0a\n        /* \"contracts/contract.sol\":12879:12897  10 ** saleTokenDec */\n      tag_222\n      swap2\n      swap1\n      tag_208\n      jump\t// in\n    tag_222:\n        /* \"contracts/contract.sol\":12869:12875  amount */\n      dup6\n        /* \"contracts/contract.sol\":12869:12898  amount * (10 ** saleTokenDec) */\n      tag_223\n      swap2\n      swap1\n      tag_210\n      jump\t// in\n    tag_223:\n        /* \"contracts/contract.sol\":12868:12914  (amount * (10 ** saleTokenDec)) / (rate[tier]) */\n      tag_224\n      swap2\n      swap1\n      tag_212\n      jump\t// in\n    tag_224:\n        /* \"contracts/contract.sol\":12834:12934  rate[tier] != 0... */\n    tag_218:\n        /* \"contracts/contract.sol\":12825:12934  amtOut = rate[tier] != 0... */\n      swap2\n      pop\n        /* \"contracts/contract.sol\":12546:12945  if (token != address(0)) {... */\n    tag_213:\n        /* \"contracts/contract.sol\":12961:12967  amtOut */\n      dup2\n        /* \"contracts/contract.sol\":12954:12967  return amtOut */\n      swap3\n      pop\n      pop\n      pop\n        /* \"contracts/contract.sol\":12367:12974  function getTokenAmount(... */\n      swap3\n      swap2\n      pop\n      pop\n      jump\t// out\n        /* \"contracts/contract.sol\":8837:8866  uint256 public presaleEndTime */\n    tag_53:\n      sload(0x0d)\n      dup2\n      jump\t// out\n        /* \"contracts/contract.sol\":11902:12084  function startUnlocking() external onlyOwner isPresaleEnded {... */\n    tag_57:\n        /* \"contracts/contract.sol\":1509:1521  _msgSender() */\n      tag_226\n        /* \"contracts/contract.sol\":1509:1519  _msgSender */\n      tag_227\n        /* \"contracts/contract.sol\":1509:1521  _msgSender() */\n      jump\t// in\n    tag_226:\n        /* \"contracts/contract.sol\":1498:1521  owner() == _msgSender() */\n      0xffffffffffffffffffffffffffffffffffffffff\n      and\n        /* \"contracts/contract.sol\":1498:1505  owner() */\n      tag_228\n        /* \"contracts/contract.sol\":1498:1503  owner */\n      tag_130\n        /* \"contracts/contract.sol\":1498:1505  owner() */\n      jump\t// in\n    tag_228:\n        /* \"contracts/contract.sol\":1498:1521  owner() == _msgSender() */\n      0xffffffffffffffffffffffffffffffffffffffff\n      and\n      eq\n        /* \"contracts/contract.sol\":1490:1558  require(owner() == _msgSender(), \"Ownable: caller is not the owner\") */\n      tag_229\n      jumpi\n      mload(0x40)\n      0x08c379a000000000000000000000000000000000000000000000000000000000\n      dup2\n      mstore\n      0x04\n      add\n      tag_230\n      swap1\n      tag_231\n      jump\t// in\n    tag_230:\n      mload(0x40)\n      dup1\n      swap2\n      sub\n      swap1\n      revert\n    tag_229:\n        /* \"contracts/contract.sol\":9747:9761  presaleEndTime */\n      sload(0x0d)\n        /* \"contracts/contract.sol\":9728:9743  block.timestamp */\n      timestamp\n        /* \"contracts/contract.sol\":9728:9761  block.timestamp >= presaleEndTime */\n      lt\n      iszero\n        /* \"contracts/contract.sol\":9707:9821  require(... */\n      tag_233\n      jumpi\n      mload(0x40)\n      0x08c379a000000000000000000000000000000000000000000000000000000000\n      dup2\n      mstore\n      0x04\n      add\n      tag_234\n      swap1\n      tag_235\n      jump\t// in\n    tag_234:\n      mload(0x40)\n      dup1\n      swap2\n      sub\n      swap1\n      revert\n    tag_233:\n        /* \"contracts/contract.sol\":11981:11999  isUnlockingStarted */\n      0x0e\n      0x00\n      swap1\n      sload\n      swap1\n      0x0100\n      exp\n      swap1\n      div\n      0xff\n      and\n        /* \"contracts/contract.sol\":11980:11999  !isUnlockingStarted */\n      iszero\n        /* \"contracts/contract.sol\":11972:12042  require(!isUnlockingStarted, \"Presale: Unlocking has already started\") */\n      tag_237\n      jumpi\n      mload(0x40)\n      0x08c379a000000000000000000000000000000000000000000000000000000000\n      dup2\n      mstore\n      0x04\n      add\n      tag_238\n      swap1\n      tag_239\n      jump\t// in\n    tag_238:\n      mload(0x40)\n      dup1\n      swap2\n      sub\n      swap1\n      revert\n    tag_237:\n        /* \"contracts/contract.sol\":12073:12077  true */\n      0x01\n        /* \"contracts/contract.sol\":12052:12070  isUnlockingStarted */\n      0x0e\n      0x00\n        /* \"contracts/contract.sol\":12052:12077  isUnlockingStarted = true */\n      0x0100\n      exp\n      dup2\n      sload\n      dup2\n      0xff\n      mul\n      not\n      and\n      swap1\n      dup4\n      iszero\n      iszero\n      mul\n      or\n      swap1\n      sstore\n      pop\n        /* \"contracts/contract.sol\":11902:12084  function startUnlocking() external onlyOwner isPresaleEnded {... */\n      jump\t// out\n        /* \"contracts/contract.sol\":8872:8902  bool public isUnlockingStarted */\n    tag_60:\n      0x0e\n      0x00\n      swap1\n      sload\n      swap1\n      0x0100\n      exp\n      swap1\n      div\n      0xff\n      and\n      dup2\n      jump\t// out\n        /* \"contracts/contract.sol\":15875:15981  function withdrawCurrency(uint256 amt) public onlyOwner {... */\n    tag_67:\n        /* \"contracts/contract.sol\":1509:1521  _msgSender() */\n      tag_241\n        /* \"contracts/contract.sol\":1509:1519  _msgSender */\n      tag_227\n        /* \"contracts/contract.sol\":1509:1521  _msgSender() */\n      jump\t// in\n    tag_241:\n        /* \"contracts/contract.sol\":1498:1521  owner() == _msgSender() */\n      0xffffffffffffffffffffffffffffffffffffffff\n      and\n        /* \"contracts/contract.sol\":1498:1505  owner() */\n      tag_242\n        /* \"contracts/contract.sol\":1498:1503  owner */\n      tag_130\n        /* \"contracts/contract.sol\":1498:1505  owner() */\n      jump\t// in\n    tag_242:\n        /* \"contracts/contract.sol\":1498:1521  owner() == _msgSender() */\n      0xffffffffffffffffffffffffffffffffffffffff\n      and\n      eq\n        /* \"contracts/contract.sol\":1490:1558  require(owner() == _msgSender(), \"Ownable: caller is not the owner\") */\n      tag_243\n      jumpi\n      mload(0x40)\n      0x08c379a000000000000000000000000000000000000000000000000000000000\n      dup2\n      mstore\n      0x04\n      add\n      tag_244\n      swap1\n      tag_231\n      jump\t// in\n    tag_244:\n      mload(0x40)\n      dup1\n      swap2\n      sub\n      swap1\n      revert\n    tag_243:\n        /* \"contracts/contract.sol\":15949:15959  msg.sender */\n      caller\n        /* \"contracts/contract.sol\":15941:15969  payable(msg.sender).transfer */\n      0xffffffffffffffffffffffffffffffffffffffff\n      and\n        /* \"contracts/contract.sol\":15941:15974  payable(msg.sender).transfer(amt) */\n      0x08fc\n        /* \"contracts/contract.sol\":15970:15973  amt */\n      dup3\n        /* \"contracts/contract.sol\":15941:15974  payable(msg.sender).transfer(amt) */\n      swap1\n      dup2\n      iszero\n      mul\n      swap1\n      mload(0x40)\n      0x00\n      mload(0x40)\n      dup1\n      dup4\n      sub\n      dup2\n      dup6\n      dup9\n      dup9\n      call\n      swap4\n      pop\n      pop\n      pop\n      pop\n      iszero\n      dup1\n      iszero\n      tag_247\n      jumpi\n      returndatasize\n      0x00\n      dup1\n      returndatacopy\n      revert(0x00, returndatasize)\n    tag_247:\n      pop\n        /* \"contracts/contract.sol\":15875:15981  function withdrawCurrency(uint256 amt) public onlyOwner {... */\n      pop\n      jump\t// out\n        /* \"contracts/contract.sol\":8908:8965  mapping(address => BuyerTokenDetails) public buyersAmount */\n    tag_72:\n      mstore(0x20, 0x0f)\n      dup1\n      0x00\n      mstore\n      keccak256(0x00, 0x40)\n      0x00\n      swap2\n      pop\n      swap1\n      pop\n      dup1\n      0x00\n      add\n      sload\n      swap1\n      dup1\n      0x01\n      add\n      0x00\n      swap1\n      sload\n      swap1\n      0x0100\n      exp\n      swap1\n      div\n      0xff\n      and\n      swap1\n      pop\n      dup3\n      jump\t// out\n        /* \"contracts/contract.sol\":10970:11156  function startAndSetPresaleEndTime(... */\n    tag_78:\n        /* \"contracts/contract.sol\":1509:1521  _msgSender() */\n      tag_249\n        /* \"contracts/contract.sol\":1509:1519  _msgSender */\n      tag_227\n        /* \"contracts/contract.sol\":1509:1521  _msgSender() */\n      jump\t// in\n    tag_249:\n        /* \"contracts/contract.sol\":1498:1521  owner() == _msgSender() */\n      0xffffffffffffffffffffffffffffffffffffffff\n      and\n        /* \"contracts/contract.sol\":1498:1505  owner() */\n      tag_250\n        /* \"contracts/contract.sol\":1498:1503  owner */\n      tag_130\n        /* \"contracts/contract.sol\":1498:1505  owner() */\n      jump\t// in\n    tag_250:\n        /* \"contracts/contract.sol\":1498:1521  owner() == _msgSender() */\n      0xffffffffffffffffffffffffffffffffffffffff\n      and\n      eq\n        /* \"contracts/contract.sol\":1490:1558  require(owner() == _msgSender(), \"Ownable: caller is not the owner\") */\n      tag_251\n      jumpi\n      mload(0x40)\n      0x08c379a000000000000000000000000000000000000000000000000000000000\n      dup2\n      mstore\n      0x04\n      add\n      tag_252\n      swap1\n      tag_231\n      jump\t// in\n    tag_252:\n      mload(0x40)\n      dup1\n      swap2\n      sub\n      swap1\n      revert\n    tag_251:\n        /* \"contracts/contract.sol\":11092:11107  block.timestamp */\n      timestamp\n        /* \"contracts/contract.sol\":11073:11089  presaleStartTime */\n      0x0c\n        /* \"contracts/contract.sol\":11073:11107  presaleStartTime = block.timestamp */\n      dup2\n      swap1\n      sstore\n      pop\n        /* \"contracts/contract.sol\":11134:11149  _presaleEndTime */\n      dup1\n        /* \"contracts/contract.sol\":11117:11131  presaleEndTime */\n      0x0d\n        /* \"contracts/contract.sol\":11117:11149  presaleEndTime = _presaleEndTime */\n      dup2\n      swap1\n      sstore\n      pop\n        /* \"contracts/contract.sol\":10970:11156  function startAndSetPresaleEndTime(... */\n      pop\n      jump\t// out\n        /* \"contracts/contract.sol\":8971:9001  uint256 public totalTokensSold */\n    tag_81:\n      sload(0x10)\n      dup2\n      jump\t// out\n        /* \"contracts/contract.sol\":11296:11526  function addWhiteListedToken(... */\n    tag_87:\n        /* \"contracts/contract.sol\":1509:1521  _msgSender() */\n      tag_255\n        /* \"contracts/contract.sol\":1509:1519  _msgSender */\n      tag_227\n        /* \"contracts/contract.sol\":1509:1521  _msgSender() */\n      jump\t// in\n    tag_255:\n        /* \"contracts/contract.sol\":1498:1521  owner() == _msgSender() */\n      0xffffffffffffffffffffffffffffffffffffffff\n      and\n        /* \"contracts/contract.sol\":1498:1505  owner() */\n      tag_256\n        /* \"contracts/contract.sol\":1498:1503  owner */\n      tag_130\n        /* \"contracts/contract.sol\":1498:1505  owner() */\n      jump\t// in\n    tag_256:\n        /* \"contracts/contract.sol\":1498:1521  owner() == _msgSender() */\n      0xffffffffffffffffffffffffffffffffffffffff\n      and\n      eq\n        /* \"contracts/contract.sol\":1490:1558  require(owner() == _msgSender(), \"Ownable: caller is not the owner\") */\n      tag_257\n      jumpi\n      mload(0x40)\n      0x08c379a000000000000000000000000000000000000000000000000000000000\n      dup2\n      mstore\n      0x04\n      add\n      tag_258\n      swap1\n      tag_231\n      jump\t// in\n    tag_258:\n      mload(0x40)\n      dup1\n      swap2\n      sub\n      swap1\n      revert\n    tag_257:\n        /* \"contracts/contract.sol\":11436:11440  true */\n      0x01\n        /* \"contracts/contract.sol\":11418:11425  tokenWL */\n      0x0a\n        /* \"contracts/contract.sol\":11418:11433  tokenWL[_token] */\n      0x00\n        /* \"contracts/contract.sol\":11426:11432  _token */\n      dup5\n        /* \"contracts/contract.sol\":11418:11433  tokenWL[_token] */\n      0xffffffffffffffffffffffffffffffffffffffff\n      and\n      0xffffffffffffffffffffffffffffffffffffffff\n      and\n      dup2\n      mstore\n      0x20\n      add\n      swap1\n      dup2\n      mstore\n      0x20\n      add\n      0x00\n      keccak256\n      0x00\n        /* \"contracts/contract.sol\":11418:11440  tokenWL[_token] = true */\n      0x0100\n      exp\n      dup2\n      sload\n      dup2\n      0xff\n      mul\n      not\n      and\n      swap1\n      dup4\n      iszero\n      iszero\n      mul\n      or\n      swap1\n      sstore\n      pop\n        /* \"contracts/contract.sol\":11472:11478  _price */\n      dup1\n        /* \"contracts/contract.sol\":11450:11461  tokenPrices */\n      0x0b\n        /* \"contracts/contract.sol\":11450:11469  tokenPrices[_token] */\n      0x00\n        /* \"contracts/contract.sol\":11462:11468  _token */\n      dup5\n        /* \"contracts/contract.sol\":11450:11469  tokenPrices[_token] */\n      0xffffffffffffffffffffffffffffffffffffffff\n      and\n      0xffffffffffffffffffffffffffffffffffffffff\n      and\n      dup2\n      mstore\n      0x20\n      add\n      swap1\n      dup2\n      mstore\n      0x20\n      add\n      0x00\n      keccak256\n        /* \"contracts/contract.sol\":11450:11478  tokenPrices[_token] = _price */\n      swap1\n      0x04\n      tag_260\n      swap3\n      swap2\n      swap1\n      tag_261\n      jump\t// in\n    tag_260:\n      pop\n        /* \"contracts/contract.sol\":11493:11519  TokenAdded(_token, _price) */\n      0x46a898d5bfb8140cb704c10cf4ff6ac010411db41a0d94f60d29dc9bdc24942d\n        /* \"contracts/contract.sol\":11504:11510  _token */\n      dup3\n        /* \"contracts/contract.sol\":11512:11518  _price */\n      dup3\n        /* \"contracts/contract.sol\":11493:11519  TokenAdded(_token, _price) */\n      mload(0x40)\n      tag_262\n      swap3\n      swap2\n      swap1\n      tag_263\n      jump\t// in\n    tag_262:\n      mload(0x40)\n      dup1\n      swap2\n      sub\n      swap1\n      log1\n        /* \"contracts/contract.sol\":11296:11526  function addWhiteListedToken(... */\n      pop\n      pop\n      jump\t// out\n        /* \"contracts/contract.sol\":8745:8794  mapping(address => uint256[4]) public tokenPrices */\n    tag_91:\n      mstore(0x20, 0x0b)\n      dup2\n      0x00\n      mstore\n      keccak256(0x00, 0x40)\n      dup2\n      0x04\n      dup2\n      lt\n      tag_264\n      jumpi\n      0x00\n      dup1\n      revert\n    tag_264:\n      add\n      0x00\n      swap2\n      pop\n      swap2\n      pop\n      pop\n      sload\n      dup2\n      jump\t// out\n        /* \"contracts/contract.sol\":12981:14174  function buyToken(... */\n    tag_95:\n        /* \"contracts/contract.sol\":9437:9453  presaleStartTime */\n      sload(0x0c)\n        /* \"contracts/contract.sol\":9418:9433  block.timestamp */\n      timestamp\n        /* \"contracts/contract.sol\":9418:9453  block.timestamp >= presaleStartTime */\n      lt\n      iszero\n        /* \"contracts/contract.sol\":9397:9515  require(... */\n      tag_267\n      jumpi\n      mload(0x40)\n      0x08c379a000000000000000000000000000000000000000000000000000000000\n      dup2\n      mstore\n      0x04\n      add\n      tag_268\n      swap1\n      tag_269\n      jump\t// in\n    tag_268:\n      mload(0x40)\n      dup1\n      swap2\n      sub\n      swap1\n      revert\n    tag_267:\n        /* \"contracts/contract.sol\":9603:9617  presaleEndTime */\n      sload(0x0d)\n        /* \"contracts/contract.sol\":9585:9600  block.timestamp */\n      timestamp\n        /* \"contracts/contract.sol\":9585:9617  block.timestamp < presaleEndTime */\n      lt\n        /* \"contracts/contract.sol\":9577:9648  require(block.timestamp < presaleEndTime, \"Presale: Presale has ended\") */\n      tag_271\n      jumpi\n      mload(0x40)\n      0x08c379a000000000000000000000000000000000000000000000000000000000\n      dup2\n      mstore\n      0x04\n      add\n      tag_272\n      swap1\n      tag_273\n      jump\t// in\n    tag_272:\n      mload(0x40)\n      dup1\n      swap2\n      sub\n      swap1\n      revert\n    tag_271:\n        /* \"contracts/contract.sol\":13116:13136  uint256 saleTokenAmt */\n      0x00\n        /* \"contracts/contract.sol\":13157:13158  0 */\n      dup1\n        /* \"contracts/contract.sol\":13139:13159  _token != address(0) */\n      0xffffffffffffffffffffffffffffffffffffffff\n      and\n        /* \"contracts/contract.sol\":13139:13145  _token */\n      dup4\n        /* \"contracts/contract.sol\":13139:13159  _token != address(0) */\n      0xffffffffffffffffffffffffffffffffffffffff\n      and\n      sub\n        /* \"contracts/contract.sol\":13139:13257  _token != address(0)... */\n      tag_275\n      jumpi\n        /* \"contracts/contract.sol\":13220:13257  getTokenAmount(address(0), msg.value) */\n      tag_276\n        /* \"contracts/contract.sol\":13243:13244  0 */\n      0x00\n        /* \"contracts/contract.sol\":13247:13256  msg.value */\n      callvalue\n        /* \"contracts/contract.sol\":13220:13234  getTokenAmount */\n      tag_48\n        /* \"contracts/contract.sol\":13220:13257  getTokenAmount(address(0), msg.value) */\n      jump\t// in\n    tag_276:\n        /* \"contracts/contract.sol\":13139:13257  _token != address(0)... */\n      jump(tag_277)\n    tag_275:\n        /* \"contracts/contract.sol\":13174:13205  getTokenAmount(_token, _amount) */\n      tag_278\n        /* \"contracts/contract.sol\":13189:13195  _token */\n      dup4\n        /* \"contracts/contract.sol\":13197:13204  _amount */\n      dup4\n        /* \"contracts/contract.sol\":13174:13188  getTokenAmount */\n      tag_48\n        /* \"contracts/contract.sol\":13174:13205  getTokenAmount(_token, _amount) */\n      jump\t// in\n    tag_278:\n        /* \"contracts/contract.sol\":13139:13257  _token != address(0)... */\n    tag_277:\n        /* \"contracts/contract.sol\":13116:13257  uint256 saleTokenAmt = _token != address(0)... */\n      swap1\n      pop\n        /* \"contracts/contract.sol\":13304:13315  minBuyLimit */\n      sload(0x09)\n        /* \"contracts/contract.sol\":13288:13300  saleTokenAmt */\n      dup2\n        /* \"contracts/contract.sol\":13288:13315  saleTokenAmt >= minBuyLimit */\n      lt\n      iszero\n        /* \"contracts/contract.sol\":13267:13375  require(... */\n      tag_279\n      jumpi\n      mload(0x40)\n      0x08c379a000000000000000000000000000000000000000000000000000000000\n      dup2\n      mstore\n      0x04\n      add\n      tag_280\n      swap1\n      tag_281\n      jump\t// in\n    tag_280:\n      mload(0x40)\n      dup1\n      swap2\n      sub\n      swap1\n      revert\n    tag_279:\n        /* \"contracts/contract.sol\":13456:13467  maxBuyLimit */\n      sload(0x08)\n        /* \"contracts/contract.sol\":13440:13452  saleTokenAmt */\n      dup2\n        /* \"contracts/contract.sol\":13406:13418  buyersAmount */\n      0x0f\n        /* \"contracts/contract.sol\":13406:13430  buyersAmount[msg.sender] */\n      0x00\n        /* \"contracts/contract.sol\":13419:13429  msg.sender */\n      caller\n        /* \"contracts/contract.sol\":13406:13430  buyersAmount[msg.sender] */\n      0xffffffffffffffffffffffffffffffffffffffff\n      and\n      0xffffffffffffffffffffffffffffffffffffffff\n      and\n      dup2\n      mstore\n      0x20\n      add\n      swap1\n      dup2\n      mstore\n      0x20\n      add\n      0x00\n      keccak256\n        /* \"contracts/contract.sol\":13406:13437  buyersAmount[msg.sender].amount */\n      0x00\n      add\n      sload\n        /* \"contracts/contract.sol\":13406:13452  buyersAmount[msg.sender].amount + saleTokenAmt */\n      tag_282\n      swap2\n      swap1\n      tag_283\n      jump\t// in\n    tag_282:\n        /* \"contracts/contract.sol\":13406:13467  buyersAmount[msg.sender].amount + saleTokenAmt <= maxBuyLimit */\n      gt\n      iszero\n        /* \"contracts/contract.sol\":13385:13538  require(... */\n      tag_284\n      jumpi\n      mload(0x40)\n      0x08c379a000000000000000000000000000000000000000000000000000000000\n      dup2\n      mstore\n      0x04\n      add\n      tag_285\n      swap1\n      tag_286\n      jump\t// in\n    tag_285:\n      mload(0x40)\n      dup1\n      swap2\n      sub\n      swap1\n      revert\n    tag_284:\n        /* \"contracts/contract.sol\":13605:13623  totalTokensforSale */\n      sload(0x07)\n        /* \"contracts/contract.sol\":13588:13600  saleTokenAmt */\n      dup2\n        /* \"contracts/contract.sol\":13570:13585  totalTokensSold */\n      sload(0x10)\n        /* \"contracts/contract.sol\":13570:13600  totalTokensSold + saleTokenAmt */\n      tag_287\n      swap2\n      swap1\n      tag_283\n      jump\t// in\n    tag_287:\n        /* \"contracts/contract.sol\":13569:13623  (totalTokensSold + saleTokenAmt) <= totalTokensforSale */\n      gt\n      iszero\n        /* \"contracts/contract.sol\":13548:13683  require(... */\n      tag_288\n      jumpi\n      mload(0x40)\n      0x08c379a000000000000000000000000000000000000000000000000000000000\n      dup2\n      mstore\n      0x04\n      add\n      tag_289\n      swap1\n      tag_290\n      jump\t// in\n    tag_289:\n      mload(0x40)\n      dup1\n      swap2\n      sub\n      swap1\n      revert\n    tag_288:\n        /* \"contracts/contract.sol\":13716:13717  0 */\n      0x00\n        /* \"contracts/contract.sol\":13698:13718  _token != address(0) */\n      0xffffffffffffffffffffffffffffffffffffffff\n      and\n        /* \"contracts/contract.sol\":13698:13704  _token */\n      dup4\n        /* \"contracts/contract.sol\":13698:13718  _token != address(0) */\n      0xffffffffffffffffffffffffffffffffffffffff\n      and\n      eq\n        /* \"contracts/contract.sol\":13694:13959  if (_token != address(0)) {... */\n      tag_291\n      jumpi\n        /* \"contracts/contract.sol\":13752:13753  0 */\n      0x00\n        /* \"contracts/contract.sol\":13742:13749  _amount */\n      dup3\n        /* \"contracts/contract.sol\":13742:13753  _amount > 0 */\n      gt\n        /* \"contracts/contract.sol\":13734:13794  require(_amount > 0, \"Presale: Cannot buy with zero amount\") */\n      tag_292\n      jumpi\n      mload(0x40)\n      0x08c379a000000000000000000000000000000000000000000000000000000000\n      dup2\n      mstore\n      0x04\n      add\n      tag_293\n      swap1\n      tag_294\n      jump\t// in\n    tag_293:\n      mload(0x40)\n      dup1\n      swap2\n      sub\n      swap1\n      revert\n    tag_292:\n        /* \"contracts/contract.sol\":13816:13823  tokenWL */\n      0x0a\n        /* \"contracts/contract.sol\":13816:13831  tokenWL[_token] */\n      0x00\n        /* \"contracts/contract.sol\":13824:13830  _token */\n      dup5\n        /* \"contracts/contract.sol\":13816:13831  tokenWL[_token] */\n      0xffffffffffffffffffffffffffffffffffffffff\n      and\n      0xffffffffffffffffffffffffffffffffffffffff\n      and\n      dup2\n      mstore\n      0x20\n      add\n      swap1\n      dup2\n      mstore\n      0x20\n      add\n      0x00\n      keccak256\n      0x00\n      swap1\n      sload\n      swap1\n      0x0100\n      exp\n      swap1\n      div\n      0xff\n      and\n        /* \"contracts/contract.sol\":13808:13866  require(tokenWL[_token], \"Presale: Token not whitelisted\") */\n      tag_295\n      jumpi\n      mload(0x40)\n      0x08c379a000000000000000000000000000000000000000000000000000000000\n      dup2\n      mstore\n      0x04\n      add\n      tag_296\n      swap1\n      tag_197\n      jump\t// in\n    tag_296:\n      mload(0x40)\n      dup1\n      swap2\n      sub\n      swap1\n      revert\n    tag_295:\n        /* \"contracts/contract.sol\":13881:13948  IERC20(_token).safeTransferFrom(msg.sender, address(this), _amount) */\n      tag_297\n        /* \"contracts/contract.sol\":13913:13923  msg.sender */\n      caller\n        /* \"contracts/contract.sol\":13933:13937  this */\n      address\n        /* \"contracts/contract.sol\":13940:13947  _amount */\n      dup5\n        /* \"contracts/contract.sol\":13888:13894  _token */\n      dup7\n        /* \"contracts/contract.sol\":13881:13912  IERC20(_token).safeTransferFrom */\n      0xffffffffffffffffffffffffffffffffffffffff\n      and\n      tag_298\n      swap1\n        /* \"contracts/contract.sol\":13881:13948  IERC20(_token).safeTransferFrom(msg.sender, address(this), _amount) */\n      swap4\n      swap3\n      swap2\n      swap1\n      0xffffffff\n      and\n      jump\t// in\n    tag_297:\n        /* \"contracts/contract.sol\":13694:13959  if (_token != address(0)) {... */\n    tag_291:\n        /* \"contracts/contract.sol\":14027:14039  saleTokenAmt */\n      dup1\n        /* \"contracts/contract.sol\":14008:14023  totalTokensSold */\n      0x10\n      0x00\n        /* \"contracts/contract.sol\":14008:14039  totalTokensSold += saleTokenAmt */\n      dup3\n      dup3\n      sload\n      tag_299\n      swap2\n      swap1\n      tag_283\n      jump\t// in\n    tag_299:\n      swap3\n      pop\n      pop\n      dup2\n      swap1\n      sstore\n      pop\n        /* \"contracts/contract.sol\":14084:14096  saleTokenAmt */\n      dup1\n        /* \"contracts/contract.sol\":14049:14061  buyersAmount */\n      0x0f\n        /* \"contracts/contract.sol\":14049:14073  buyersAmount[msg.sender] */\n      0x00\n        /* \"contracts/contract.sol\":14062:14072  msg.sender */\n      caller\n        /* \"contracts/contract.sol\":14049:14073  buyersAmount[msg.sender] */\n      0xffffffffffffffffffffffffffffffffffffffff\n      and\n      0xffffffffffffffffffffffffffffffffffffffff\n      and\n      dup2\n      mstore\n      0x20\n      add\n      swap1\n      dup2\n      mstore\n      0x20\n      add\n      0x00\n      keccak256\n        /* \"contracts/contract.sol\":14049:14080  buyersAmount[msg.sender].amount */\n      0x00\n      add\n      0x00\n        /* \"contracts/contract.sol\":14049:14096  buyersAmount[msg.sender].amount += saleTokenAmt */\n      dup3\n      dup3\n      sload\n      tag_300\n      swap2\n      swap1\n      tag_283\n      jump\t// in\n    tag_300:\n      swap3\n      pop\n      pop\n      dup2\n      swap1\n      sstore\n      pop\n        /* \"contracts/contract.sol\":14137:14143  _token */\n      dup3\n        /* \"contracts/contract.sol\":14112:14167  TokensBought(msg.sender, _token, _amount, saleTokenAmt) */\n      0xffffffffffffffffffffffffffffffffffffffff\n      and\n        /* \"contracts/contract.sol\":14125:14135  msg.sender */\n      caller\n        /* \"contracts/contract.sol\":14112:14167  TokensBought(msg.sender, _token, _amount, saleTokenAmt) */\n      0xffffffffffffffffffffffffffffffffffffffff\n      and\n      0xc244d500136edffae7025aaf7fbd7a07193ac544a1d0cc3132cf2a32452d340c\n        /* \"contracts/contract.sol\":14145:14152  _amount */\n      dup5\n        /* \"contracts/contract.sol\":14154:14166  saleTokenAmt */\n      dup5\n        /* \"contracts/contract.sol\":14112:14167  TokensBought(msg.sender, _token, _amount, saleTokenAmt) */\n      mload(0x40)\n      tag_301\n      swap3\n      swap2\n      swap1\n      tag_302\n      jump\t// in\n    tag_301:\n      mload(0x40)\n      dup1\n      swap2\n      sub\n      swap1\n      log3\n        /* \"contracts/contract.sol\":13106:14174  {... */\n      pop\n        /* \"contracts/contract.sol\":12981:14174  function buyToken(... */\n      pop\n      pop\n      jump\t// out\n        /* \"contracts/contract.sol\":8636:8662  uint256 public maxBuyLimit */\n    tag_98:\n      sload(0x08)\n      dup2\n      jump\t// out\n        /* \"contracts/contract.sol\":8597:8630  uint256 public totalTokensforSale */\n    tag_102:\n      sload(0x07)\n      dup2\n      jump\t// out\n        /* \"contracts/contract.sol\":11162:11290  function updateTime(... */\n    tag_107:\n        /* \"contracts/contract.sol\":1509:1521  _msgSender() */\n      tag_304\n        /* \"contracts/contract.sol\":1509:1519  _msgSender */\n      tag_227\n        /* \"contracts/contract.sol\":1509:1521  _msgSender() */\n      jump\t// in\n    tag_304:\n        /* \"contracts/contract.sol\":1498:1521  owner() == _msgSender() */\n      0xffffffffffffffffffffffffffffffffffffffff\n      and\n        /* \"contracts/contract.sol\":1498:1505  owner() */\n      tag_305\n        /* \"contracts/contract.sol\":1498:1503  owner */\n      tag_130\n        /* \"contracts/contract.sol\":1498:1505  owner() */\n      jump\t// in\n    tag_305:\n        /* \"contracts/contract.sol\":1498:1521  owner() == _msgSender() */\n      0xffffffffffffffffffffffffffffffffffffffff\n      and\n      eq\n        /* \"contracts/contract.sol\":1490:1558  require(owner() == _msgSender(), \"Ownable: caller is not the owner\") */\n      tag_306\n      jumpi\n      mload(0x40)\n      0x08c379a000000000000000000000000000000000000000000000000000000000\n      dup2\n      mstore\n      0x04\n      add\n      tag_307\n      swap1\n      tag_231\n      jump\t// in\n    tag_307:\n      mload(0x40)\n      dup1\n      swap2\n      sub\n      swap1\n      revert\n    tag_306:\n        /* \"contracts/contract.sol\":11268:11283  _presaleEndTime */\n      dup1\n        /* \"contracts/contract.sol\":11250:11264  presaleEndTime */\n      0x0d\n        /* \"contracts/contract.sol\":11250:11283  presaleEndTime =  _presaleEndTime */\n      dup2\n      swap1\n      sstore\n      pop\n        /* \"contracts/contract.sol\":11162:11290  function updateTime(... */\n      pop\n      jump\t// out\n        /* \"contracts/contract.sol\":1581:1682  function renounceOwnership() public virtual onlyOwner {... */\n    tag_110:\n        /* \"contracts/contract.sol\":1509:1521  _msgSender() */\n      tag_310\n        /* \"contracts/contract.sol\":1509:1519  _msgSender */\n      tag_227\n        /* \"contracts/contract.sol\":1509:1521  _msgSender() */\n      jump\t// in\n    tag_310:\n        /* \"contracts/contract.sol\":1498:1521  owner() == _msgSender() */\n      0xffffffffffffffffffffffffffffffffffffffff\n      and\n        /* \"contracts/contract.sol\":1498:1505  owner() */\n      tag_311\n        /* \"contracts/contract.sol\":1498:1503  owner */\n      tag_130\n        /* \"contracts/contract.sol\":1498:1505  owner() */\n      jump\t// in\n    tag_311:\n        /* \"contracts/contract.sol\":1498:1521  owner() == _msgSender() */\n      0xffffffffffffffffffffffffffffffffffffffff\n      and\n      eq\n        /* \"contracts/contract.sol\":1490:1558  require(owner() == _msgSender(), \"Ownable: caller is not the owner\") */\n      tag_312\n      jumpi\n      mload(0x40)\n      0x08c379a000000000000000000000000000000000000000000000000000000000\n      dup2\n      mstore\n      0x04\n      add\n      tag_313\n      swap1\n      tag_231\n      jump\t// in\n    tag_313:\n      mload(0x40)\n      dup1\n      swap2\n      sub\n      swap1\n      revert\n    tag_312:\n        /* \"contracts/contract.sol\":1645:1675  _transferOwnership(address(0)) */\n      tag_315\n        /* \"contracts/contract.sol\":1672:1673  0 */\n      0x00\n        /* \"contracts/contract.sol\":1645:1663  _transferOwnership */\n      tag_316\n        /* \"contracts/contract.sol\":1645:1675  _transferOwnership(address(0)) */\n      jump\t// in\n    tag_315:\n        /* \"contracts/contract.sol\":1581:1682  function renounceOwnership() public virtual onlyOwner {... */\n      jump\t// out\n        /* \"contracts/contract.sol\":12279:12357  function getCurrentTier() public pure returns (uint) {... */\n    tag_113:\n        /* \"contracts/contract.sol\":12326:12330  uint */\n      0x00\n        /* \"contracts/contract.sol\":12279:12357  function getCurrentTier() public pure returns (uint) {... */\n      swap1\n      jump\t// out\n        /* \"contracts/contract.sol\":14786:14891  function setMaxBuyLimit(uint _maxBuyLimit) external onlyOwner {... */\n    tag_118:\n        /* \"contracts/contract.sol\":1509:1521  _msgSender() */\n      tag_319\n        /* \"contracts/contract.sol\":1509:1519  _msgSender */\n      tag_227\n        /* \"contracts/contract.sol\":1509:1521  _msgSender() */\n      jump\t// in\n    tag_319:\n        /* \"contracts/contract.sol\":1498:1521  owner() == _msgSender() */\n      0xffffffffffffffffffffffffffffffffffffffff\n      and\n        /* \"contracts/contract.sol\":1498:1505  owner() */\n      tag_320\n        /* \"contracts/contract.sol\":1498:1503  owner */\n      tag_130\n        /* \"contracts/contract.sol\":1498:1505  owner() */\n      jump\t// in\n    tag_320:\n        /* \"contracts/contract.sol\":1498:1521  owner() == _msgSender() */\n      0xffffffffffffffffffffffffffffffffffffffff\n      and\n      eq\n        /* \"contracts/contract.sol\":1490:1558  require(owner() == _msgSender(), \"Ownable: caller is not the owner\") */\n      tag_321\n      jumpi\n      mload(0x40)\n      0x08c379a000000000000000000000000000000000000000000000000000000000\n      dup2\n      mstore\n      0x04\n      add\n      tag_322\n      swap1\n      tag_231\n      jump\t// in\n    tag_322:\n      mload(0x40)\n      dup1\n      swap2\n      sub\n      swap1\n      revert\n    tag_321:\n        /* \"contracts/contract.sol\":14872:14884  _maxBuyLimit */\n      dup1\n        /* \"contracts/contract.sol\":14858:14869  maxBuyLimit */\n      0x08\n        /* \"contracts/contract.sol\":14858:14884  maxBuyLimit = _maxBuyLimit */\n      dup2\n      swap1\n      sstore\n      pop\n        /* \"contracts/contract.sol\":14786:14891  function setMaxBuyLimit(uint _maxBuyLimit) external onlyOwner {... */\n      pop\n      jump\t// out\n        /* \"contracts/contract.sol\":10225:10964  function setSaleTokenParams(... */\n    tag_122:\n        /* \"contracts/contract.sol\":1509:1521  _msgSender() */\n      tag_325\n        /* \"contracts/contract.sol\":1509:1519  _msgSender */\n      tag_227\n        /* \"contracts/contract.sol\":1509:1521  _msgSender() */\n      jump\t// in\n    tag_325:\n        /* \"contracts/contract.sol\":1498:1521  owner() == _msgSender() */\n      0xffffffffffffffffffffffffffffffffffffffff\n      and\n        /* \"contracts/contract.sol\":1498:1505  owner() */\n      tag_326\n        /* \"contracts/contract.sol\":1498:1503  owner */\n      tag_130\n        /* \"contracts/contract.sol\":1498:1505  owner() */\n      jump\t// in\n    tag_326:\n        /* \"contracts/contract.sol\":1498:1521  owner() == _msgSender() */\n      0xffffffffffffffffffffffffffffffffffffffff\n      and\n      eq\n        /* \"contracts/contract.sol\":1490:1558  require(owner() == _msgSender(), \"Ownable: caller is not the owner\") */\n      tag_327\n      jumpi\n      mload(0x40)\n      0x08c379a000000000000000000000000000000000000000000000000000000000\n      dup2\n      mstore\n      0x04\n      add\n      tag_328\n      swap1\n      tag_231\n      jump\t// in\n    tag_328:\n      mload(0x40)\n      dup1\n      swap2\n      sub\n      swap1\n      revert\n    tag_327:\n        /* \"contracts/contract.sol\":10395:10396  0 */\n      0x00\n        /* \"contracts/contract.sol\":10373:10397  _saleToken != address(0) */\n      0xffffffffffffffffffffffffffffffffffffffff\n      and\n        /* \"contracts/contract.sol\":10373:10383  _saleToken */\n      dup3\n        /* \"contracts/contract.sol\":10373:10397  _saleToken != address(0) */\n      0xffffffffffffffffffffffffffffffffffffffff\n      and\n      sub\n        /* \"contracts/contract.sol\":10352:10465  require(... */\n      tag_330\n      jumpi\n      mload(0x40)\n      0x08c379a000000000000000000000000000000000000000000000000000000000\n      dup2\n      mstore\n      0x04\n      add\n      tag_331\n      swap1\n      tag_332\n      jump\t// in\n    tag_331:\n      mload(0x40)\n      dup1\n      swap2\n      sub\n      swap1\n      revert\n    tag_330:\n        /* \"contracts/contract.sol\":10518:10519  0 */\n      0x00\n        /* \"contracts/contract.sol\":10496:10515  _totalTokensforSale */\n      dup2\n        /* \"contracts/contract.sol\":10496:10519  _totalTokensforSale > 0 */\n      gt\n        /* \"contracts/contract.sol\":10475:10590  require(... */\n      tag_333\n      jumpi\n      mload(0x40)\n      0x08c379a000000000000000000000000000000000000000000000000000000000\n      dup2\n      mstore\n      0x04\n      add\n      tag_334\n      swap1\n      tag_335\n      jump\t// in\n    tag_334:\n      mload(0x40)\n      dup1\n      swap2\n      sub\n      swap1\n      revert\n    tag_333:\n        /* \"contracts/contract.sol\":10612:10622  _saleToken */\n      dup2\n        /* \"contracts/contract.sol\":10600:10609  saleToken */\n      0x05\n      0x00\n        /* \"contracts/contract.sol\":10600:10622  saleToken = _saleToken */\n      0x0100\n      exp\n      dup2\n      sload\n      dup2\n      0xffffffffffffffffffffffffffffffffffffffff\n      mul\n      not\n      and\n      swap1\n      dup4\n      0xffffffffffffffffffffffffffffffffffffffff\n      and\n      mul\n      or\n      swap1\n      sstore\n      pop\n        /* \"contracts/contract.sol\":10662:10671  saleToken */\n      0x05\n      0x00\n      swap1\n      sload\n      swap1\n      0x0100\n      exp\n      swap1\n      div\n      0xffffffffffffffffffffffffffffffffffffffff\n      and\n        /* \"contracts/contract.sol\":10647:10681  IERC20Metadata(saleToken).decimals */\n      0xffffffffffffffffffffffffffffffffffffffff\n      and\n      0x313ce567\n        /* \"contracts/contract.sol\":10647:10683  IERC20Metadata(saleToken).decimals() */\n      mload(0x40)\n      dup2\n      0xffffffff\n      and\n      0xe0\n      shl\n      dup2\n      mstore\n      0x04\n      add\n      0x20\n      mload(0x40)\n      dup1\n      dup4\n      sub\n      dup2\n      dup7\n      gas\n      staticcall\n      iszero\n      dup1\n      iszero\n      tag_337\n      jumpi\n      returndatasize\n      0x00\n      dup1\n      returndatacopy\n      revert(0x00, returndatasize)\n    tag_337:\n      pop\n      pop\n      pop\n      pop\n      mload(0x40)\n      returndatasize\n      not(0x1f)\n      0x1f\n      dup3\n      add\n      and\n      dup3\n      add\n      dup1\n      0x40\n      mstore\n      pop\n      dup2\n      add\n      swap1\n      tag_338\n      swap2\n      swap1\n      tag_339\n      jump\t// in\n    tag_338:\n        /* \"contracts/contract.sol\":10632:10683  saleTokenDec = IERC20Metadata(saleToken).decimals() */\n      0xff\n      and\n        /* \"contracts/contract.sol\":10632:10644  saleTokenDec */\n      0x06\n        /* \"contracts/contract.sol\":10632:10683  saleTokenDec = IERC20Metadata(saleToken).decimals() */\n      dup2\n      swap1\n      sstore\n      pop\n        /* \"contracts/contract.sol\":10694:10822  IERC20(saleToken).safeTransferFrom(... */\n      tag_340\n        /* \"contracts/contract.sol\":10742:10752  msg.sender */\n      caller\n        /* \"contracts/contract.sol\":10774:10778  this */\n      address\n        /* \"contracts/contract.sol\":10793:10812  _totalTokensforSale */\n      dup4\n        /* \"contracts/contract.sol\":10701:10710  saleToken */\n      0x05\n      0x00\n      swap1\n      sload\n      swap1\n      0x0100\n      exp\n      swap1\n      div\n      0xffffffffffffffffffffffffffffffffffffffff\n      and\n        /* \"contracts/contract.sol\":10694:10728  IERC20(saleToken).safeTransferFrom */\n      0xffffffffffffffffffffffffffffffffffffffff\n      and\n      tag_298\n      swap1\n        /* \"contracts/contract.sol\":10694:10822  IERC20(saleToken).safeTransferFrom(... */\n      swap4\n      swap3\n      swap2\n      swap1\n      0xffffffff\n      and\n      jump\t// in\n    tag_340:\n        /* \"contracts/contract.sol\":10860:10869  saleToken */\n      0x05\n      0x00\n      swap1\n      sload\n      swap1\n      0x0100\n      exp\n      swap1\n      div\n      0xffffffffffffffffffffffffffffffffffffffff\n      and\n        /* \"contracts/contract.sol\":10853:10880  IERC20(saleToken).balanceOf */\n      0xffffffffffffffffffffffffffffffffffffffff\n      and\n      0x70a08231\n        /* \"contracts/contract.sol\":10889:10893  this */\n      address\n        /* \"contracts/contract.sol\":10853:10895  IERC20(saleToken).balanceOf(address(this)) */\n      mload(0x40)\n      dup3\n      0xffffffff\n      and\n      0xe0\n      shl\n      dup2\n      mstore\n      0x04\n      add\n      tag_341\n      swap2\n      swap1\n      tag_132\n      jump\t// in\n    tag_341:\n      0x20\n      mload(0x40)\n      dup1\n      dup4\n      sub\n      dup2\n      dup7\n      gas\n      staticcall\n      iszero\n      dup1\n      iszero\n      tag_343\n      jumpi\n      returndatasize\n      0x00\n      dup1\n      returndatacopy\n      revert(0x00, returndatasize)\n    tag_343:\n      pop\n      pop\n      pop\n      pop\n      mload(0x40)\n      returndatasize\n      not(0x1f)\n      0x1f\n      dup3\n      add\n      and\n      dup3\n      add\n      dup1\n      0x40\n      mstore\n      pop\n      dup2\n      add\n      swap1\n      tag_344\n      swap2\n      swap1\n      tag_345\n      jump\t// in\n    tag_344:\n        /* \"contracts/contract.sol\":10832:10850  totalTokensforSale */\n      0x07\n        /* \"contracts/contract.sol\":10832:10895  totalTokensforSale = IERC20(saleToken).balanceOf(address(this)) */\n      dup2\n      swap1\n      sstore\n      pop\n        /* \"contracts/contract.sol\":10910:10957  SaleTokenAdded(_saleToken, _totalTokensforSale) */\n      0x03211f0a57d24f0b52e2e0573af5be089c5faadeb55f9b90591717b0a22f7e2a\n        /* \"contracts/contract.sol\":10925:10935  _saleToken */\n      dup3\n        /* \"contracts/contract.sol\":10937:10956  _totalTokensforSale */\n      dup3\n        /* \"contracts/contract.sol\":10910:10957  SaleTokenAdded(_saleToken, _totalTokensforSale) */\n      mload(0x40)\n      tag_346\n      swap3\n      swap2\n      swap1\n      tag_347\n      jump\t// in\n    tag_346:\n      mload(0x40)\n      dup1\n      swap2\n      sub\n      swap1\n      log1\n        /* \"contracts/contract.sol\":10225:10964  function setSaleTokenParams(... */\n      pop\n      pop\n      jump\t// out\n        /* \"contracts/contract.sol\":8700:8739  mapping(address => bool) public tokenWL */\n    tag_126:\n      mstore(0x20, 0x0a)\n      dup1\n      0x00\n      mstore\n      keccak256(0x00, 0x40)\n      0x00\n      swap2\n      pop\n      sload\n      swap1\n      0x0100\n      exp\n      swap1\n      div\n      0xff\n      and\n      dup2\n      jump\t// out\n        /* \"contracts/contract.sol\":1369:1454  function owner() public view virtual returns (address) {... */\n    tag_130:\n        /* \"contracts/contract.sol\":1415:1422  address */\n      0x00\n        /* \"contracts/contract.sol\":1441:1447  _owner */\n      dup1\n      0x00\n      swap1\n      sload\n      swap1\n      0x0100\n      exp\n      swap1\n      div\n      0xffffffffffffffffffffffffffffffffffffffff\n      and\n        /* \"contracts/contract.sol\":1434:1447  return _owner */\n      swap1\n      pop\n        /* \"contracts/contract.sol\":1369:1454  function owner() public view virtual returns (address) {... */\n      swap1\n      jump\t// out\n        /* \"contracts/contract.sol\":14675:14780  function setMinBuyLimit(uint _minBuyLimit) external onlyOwner {... */\n    tag_136:\n        /* \"contracts/contract.sol\":1509:1521  _msgSender() */\n      tag_350\n        /* \"contracts/contract.sol\":1509:1519  _msgSender */\n      tag_227\n        /* \"contracts/contract.sol\":1509:1521  _msgSender() */\n      jump\t// in\n    tag_350:\n        /* \"contracts/contract.sol\":1498:1521  owner() == _msgSender() */\n      0xffffffffffffffffffffffffffffffffffffffff\n      and\n        /* \"contracts/contract.sol\":1498:1505  owner() */\n      tag_351\n        /* \"contracts/contract.sol\":1498:1503  owner */\n      tag_130\n        /* \"contracts/contract.sol\":1498:1505  owner() */\n      jump\t// in\n    tag_351:\n        /* \"contracts/contract.sol\":1498:1521  owner() == _msgSender() */\n      0xffffffffffffffffffffffffffffffffffffffff\n      and\n      eq\n        /* \"contracts/contract.sol\":1490:1558  require(owner() == _msgSender(), \"Ownable: caller is not the owner\") */\n      tag_352\n      jumpi\n      mload(0x40)\n      0x08c379a000000000000000000000000000000000000000000000000000000000\n      dup2\n      mstore\n      0x04\n      add\n      tag_353\n      swap1\n      tag_231\n      jump\t// in\n    tag_353:\n      mload(0x40)\n      dup1\n      swap2\n      sub\n      swap1\n      revert\n    tag_352:\n        /* \"contracts/contract.sol\":14761:14773  _minBuyLimit */\n      dup1\n        /* \"contracts/contract.sol\":14747:14758  minBuyLimit */\n      0x09\n        /* \"contracts/contract.sol\":14747:14773  minBuyLimit = _minBuyLimit */\n      dup2\n      swap1\n      sstore\n      pop\n        /* \"contracts/contract.sol\":14675:14780  function setMinBuyLimit(uint _minBuyLimit) external onlyOwner {... */\n      pop\n      jump\t// out\n        /* \"contracts/contract.sol\":8800:8831  uint256 public presaleStartTime */\n    tag_139:\n      sload(0x0c)\n      dup2\n      jump\t// out\n        /* \"contracts/contract.sol\":8567:8591  uint public saleTokenDec */\n    tag_143:\n      sload(0x06)\n      dup2\n      jump\t// out\n        /* \"contracts/contract.sol\":12089:12270  function stopUnlocking() external onlyOwner isPresaleEnded {... */\n    tag_147:\n        /* \"contracts/contract.sol\":1509:1521  _msgSender() */\n      tag_356\n        /* \"contracts/contract.sol\":1509:1519  _msgSender */\n      tag_227\n        /* \"contracts/contract.sol\":1509:1521  _msgSender() */\n      jump\t// in\n    tag_356:\n        /* \"contracts/contract.sol\":1498:1521  owner() == _msgSender() */\n      0xffffffffffffffffffffffffffffffffffffffff\n      and\n        /* \"contracts/contract.sol\":1498:1505  owner() */\n      tag_357\n        /* \"contracts/contract.sol\":1498:1503  owner */\n      tag_130\n        /* \"contracts/contract.sol\":1498:1505  owner() */\n      jump\t// in\n    tag_357:\n        /* \"contracts/contract.sol\":1498:1521  owner() == _msgSender() */\n      0xffffffffffffffffffffffffffffffffffffffff\n      and\n      eq\n        /* \"contracts/contract.sol\":1490:1558  require(owner() == _msgSender(), \"Ownable: caller is not the owner\") */\n      tag_358\n      jumpi\n      mload(0x40)\n      0x08c379a000000000000000000000000000000000000000000000000000000000\n      dup2\n      mstore\n      0x04\n      add\n      tag_359\n      swap1\n      tag_231\n      jump\t// in\n    tag_359:\n      mload(0x40)\n      dup1\n      swap2\n      sub\n      swap1\n      revert\n    tag_358:\n        /* \"contracts/contract.sol\":9747:9761  presaleEndTime */\n      sload(0x0d)\n        /* \"contracts/contract.sol\":9728:9743  block.timestamp */\n      timestamp\n        /* \"contracts/contract.sol\":9728:9761  block.timestamp >= presaleEndTime */\n      lt\n      iszero\n        /* \"contracts/contract.sol\":9707:9821  require(... */\n      tag_361\n      jumpi\n      mload(0x40)\n      0x08c379a000000000000000000000000000000000000000000000000000000000\n      dup2\n      mstore\n      0x04\n      add\n      tag_362\n      swap1\n      tag_235\n      jump\t// in\n    tag_362:\n      mload(0x40)\n      dup1\n      swap2\n      sub\n      swap1\n      revert\n    tag_361:\n        /* \"contracts/contract.sol\":12166:12184  isUnlockingStarted */\n      0x0e\n      0x00\n      swap1\n      sload\n      swap1\n      0x0100\n      exp\n      swap1\n      div\n      0xff\n      and\n        /* \"contracts/contract.sol\":12158:12227  require(isUnlockingStarted, \"Presale: Unlocking hasn't started yet!\") */\n      tag_364\n      jumpi\n      mload(0x40)\n      0x08c379a000000000000000000000000000000000000000000000000000000000\n      dup2\n      mstore\n      0x04\n      add\n      tag_365\n      swap1\n      tag_366\n      jump\t// in\n    tag_365:\n      mload(0x40)\n      dup1\n      swap2\n      sub\n      swap1\n      revert\n    tag_364:\n        /* \"contracts/contract.sol\":12258:12263  false */\n      0x00\n        /* \"contracts/contract.sol\":12237:12255  isUnlockingStarted */\n      0x0e\n      0x00\n        /* \"contracts/contract.sol\":12237:12263  isUnlockingStarted = false */\n      0x0100\n      exp\n      dup2\n      sload\n      dup2\n      0xff\n      mul\n      not\n      and\n      swap1\n      dup4\n      iszero\n      iszero\n      mul\n      or\n      swap1\n      sstore\n      pop\n        /* \"contracts/contract.sol\":12089:12270  function stopUnlocking() external onlyOwner isPresaleEnded {... */\n      jump\t// out\n        /* \"contracts/contract.sol\":8668:8694  uint256 public minBuyLimit */\n    tag_150:\n      sload(0x09)\n      dup2\n      jump\t// out\n        /* \"contracts/contract.sol\":14181:14669  function withdrawToken() external {... */\n    tag_154:\n        /* \"contracts/contract.sol\":14233:14251  isUnlockingStarted */\n      0x0e\n      0x00\n      swap1\n      sload\n      swap1\n      0x0100\n      exp\n      swap1\n      div\n      0xff\n      and\n        /* \"contracts/contract.sol\":14225:14292  require(isUnlockingStarted, \"Presale: Locking period not over yet\") */\n      tag_368\n      jumpi\n      mload(0x40)\n      0x08c379a000000000000000000000000000000000000000000000000000000000\n      dup2\n      mstore\n      0x04\n      add\n      tag_369\n      swap1\n      tag_370\n      jump\t// in\n    tag_369:\n      mload(0x40)\n      dup1\n      swap2\n      sub\n      swap1\n      revert\n    tag_368:\n        /* \"contracts/contract.sol\":14325:14337  buyersAmount */\n      0x0f\n        /* \"contracts/contract.sol\":14325:14349  buyersAmount[msg.sender] */\n      0x00\n        /* \"contracts/contract.sol\":14338:14348  msg.sender */\n      caller\n        /* \"contracts/contract.sol\":14325:14349  buyersAmount[msg.sender] */\n      0xffffffffffffffffffffffffffffffffffffffff\n      and\n      0xffffffffffffffffffffffffffffffffffffffff\n      and\n      dup2\n      mstore\n      0x20\n      add\n      swap1\n      dup2\n      mstore\n      0x20\n      add\n      0x00\n      keccak256\n        /* \"contracts/contract.sol\":14325:14359  buyersAmount[msg.sender].isClaimed */\n      0x01\n      add\n      0x00\n      swap1\n      sload\n      swap1\n      0x0100\n      exp\n      swap1\n      div\n      0xff\n      and\n        /* \"contracts/contract.sol\":14324:14359  !buyersAmount[msg.sender].isClaimed */\n      iszero\n        /* \"contracts/contract.sol\":14303:14409  require(... */\n      tag_371\n      jumpi\n      mload(0x40)\n      0x08c379a000000000000000000000000000000000000000000000000000000000\n      dup2\n      mstore\n      0x04\n      add\n      tag_372\n      swap1\n      tag_373\n      jump\t// in\n    tag_372:\n      mload(0x40)\n      dup1\n      swap2\n      sub\n      swap1\n      revert\n    tag_371:\n        /* \"contracts/contract.sol\":14420:14445  uint256 tokensforWithdraw */\n      0x00\n        /* \"contracts/contract.sol\":14448:14460  buyersAmount */\n      0x0f\n        /* \"contracts/contract.sol\":14448:14472  buyersAmount[msg.sender] */\n      0x00\n        /* \"contracts/contract.sol\":14461:14471  msg.sender */\n      caller\n        /* \"contracts/contract.sol\":14448:14472  buyersAmount[msg.sender] */\n      0xffffffffffffffffffffffffffffffffffffffff\n      and\n      0xffffffffffffffffffffffffffffffffffffffff\n      and\n      dup2\n      mstore\n      0x20\n      add\n      swap1\n      dup2\n      mstore\n      0x20\n      add\n      0x00\n      keccak256\n        /* \"contracts/contract.sol\":14448:14479  buyersAmount[msg.sender].amount */\n      0x00\n      add\n      sload\n        /* \"contracts/contract.sol\":14420:14479  uint256 tokensforWithdraw = buyersAmount[msg.sender].amount */\n      swap1\n      pop\n        /* \"contracts/contract.sol\":14526:14530  true */\n      0x01\n        /* \"contracts/contract.sol\":14489:14501  buyersAmount */\n      0x0f\n        /* \"contracts/contract.sol\":14489:14513  buyersAmount[msg.sender] */\n      0x00\n        /* \"contracts/contract.sol\":14502:14512  msg.sender */\n      caller\n        /* \"contracts/contract.sol\":14489:14513  buyersAmount[msg.sender] */\n      0xffffffffffffffffffffffffffffffffffffffff\n      and\n      0xffffffffffffffffffffffffffffffffffffffff\n      and\n      dup2\n      mstore\n      0x20\n      add\n      swap1\n      dup2\n      mstore\n      0x20\n      add\n      0x00\n      keccak256\n        /* \"contracts/contract.sol\":14489:14523  buyersAmount[msg.sender].isClaimed */\n      0x01\n      add\n      0x00\n        /* \"contracts/contract.sol\":14489:14530  buyersAmount[msg.sender].isClaimed = true */\n      0x0100\n      exp\n      dup2\n      sload\n      dup2\n      0xff\n      mul\n      not\n      and\n      swap1\n      dup4\n      iszero\n      iszero\n      mul\n      or\n      swap1\n      sstore\n      pop\n        /* \"contracts/contract.sol\":14540:14601  IERC20(saleToken).safeTransfer(msg.sender, tokensforWithdraw) */\n      tag_374\n        /* \"contracts/contract.sol\":14571:14581  msg.sender */\n      caller\n        /* \"contracts/contract.sol\":14583:14600  tokensforWithdraw */\n      dup3\n        /* \"contracts/contract.sol\":14547:14556  saleToken */\n      0x05\n      0x00\n      swap1\n      sload\n      swap1\n      0x0100\n      exp\n      swap1\n      div\n      0xffffffffffffffffffffffffffffffffffffffff\n      and\n        /* \"contracts/contract.sol\":14540:14570  IERC20(saleToken).safeTransfer */\n      0xffffffffffffffffffffffffffffffffffffffff\n      and\n      tag_375\n      swap1\n        /* \"contracts/contract.sol\":14540:14601  IERC20(saleToken).safeTransfer(msg.sender, tokensforWithdraw) */\n      swap3\n      swap2\n      swap1\n      0xffffffff\n      and\n      jump\t// in\n    tag_374:\n        /* \"contracts/contract.sol\":14632:14642  msg.sender */\n      caller\n        /* \"contracts/contract.sol\":14617:14662  TokensUnlocked(msg.sender, tokensforWithdraw) */\n      0xffffffffffffffffffffffffffffffffffffffff\n      and\n      0xe7b379c6c1fa169e9079c25e9143b127637eef8ec8c9d5c06ddb4ab3e1195888\n        /* \"contracts/contract.sol\":14644:14661  tokensforWithdraw */\n      dup3\n        /* \"contracts/contract.sol\":14617:14662  TokensUnlocked(msg.sender, tokensforWithdraw) */\n      mload(0x40)\n      tag_376\n      swap2\n      swap1\n      tag_50\n      jump\t// in\n    tag_376:\n      mload(0x40)\n      dup1\n      swap2\n      sub\n      swap1\n      log2\n        /* \"contracts/contract.sol\":14215:14669  {... */\n      pop\n        /* \"contracts/contract.sol\":14181:14669  function withdrawToken() external {... */\n      jump\t// out\n        /* \"contracts/contract.sol\":11632:11896  function updateTokenRate(... */\n    tag_158:\n        /* \"contracts/contract.sol\":1509:1521  _msgSender() */\n      tag_378\n        /* \"contracts/contract.sol\":1509:1519  _msgSender */\n      tag_227\n        /* \"contracts/contract.sol\":1509:1521  _msgSender() */\n      jump\t// in\n    tag_378:\n        /* \"contracts/contract.sol\":1498:1521  owner() == _msgSender() */\n      0xffffffffffffffffffffffffffffffffffffffff\n      and\n        /* \"contracts/contract.sol\":1498:1505  owner() */\n      tag_379\n        /* \"contracts/contract.sol\":1498:1503  owner */\n      tag_130\n        /* \"contracts/contract.sol\":1498:1505  owner() */\n      jump\t// in\n    tag_379:\n        /* \"contracts/contract.sol\":1498:1521  owner() == _msgSender() */\n      0xffffffffffffffffffffffffffffffffffffffff\n      and\n      eq\n        /* \"contracts/contract.sol\":1490:1558  require(owner() == _msgSender(), \"Ownable: caller is not the owner\") */\n      tag_380\n      jumpi\n      mload(0x40)\n      0x08c379a000000000000000000000000000000000000000000000000000000000\n      dup2\n      mstore\n      0x04\n      add\n      tag_381\n      swap1\n      tag_231\n      jump\t// in\n    tag_381:\n      mload(0x40)\n      dup1\n      swap2\n      sub\n      swap1\n      revert\n    tag_380:\n        /* \"contracts/contract.sol\":11758:11765  tokenWL */\n      0x0a\n        /* \"contracts/contract.sol\":11758:11773  tokenWL[_token] */\n      0x00\n        /* \"contracts/contract.sol\":11766:11772  _token */\n      dup4\n        /* \"contracts/contract.sol\":11758:11773  tokenWL[_token] */\n      0xffffffffffffffffffffffffffffffffffffffff\n      and\n      0xffffffffffffffffffffffffffffffffffffffff\n      and\n      dup2\n      mstore\n      0x20\n      add\n      swap1\n      dup2\n      mstore\n      0x20\n      add\n      0x00\n      keccak256\n      0x00\n      swap1\n      sload\n      swap1\n      0x0100\n      exp\n      swap1\n      div\n      0xff\n      and\n        /* \"contracts/contract.sol\":11750:11808  require(tokenWL[_token], \"Presale: Token not whitelisted\") */\n      tag_383\n      jumpi\n      mload(0x40)\n      0x08c379a000000000000000000000000000000000000000000000000000000000\n      dup2\n      mstore\n      0x04\n      add\n      tag_384\n      swap1\n      tag_197\n      jump\t// in\n    tag_384:\n      mload(0x40)\n      dup1\n      swap2\n      sub\n      swap1\n      revert\n    tag_383:\n        /* \"contracts/contract.sol\":11840:11846  _price */\n      dup1\n        /* \"contracts/contract.sol\":11818:11829  tokenPrices */\n      0x0b\n        /* \"contracts/contract.sol\":11818:11837  tokenPrices[_token] */\n      0x00\n        /* \"contracts/contract.sol\":11830:11836  _token */\n      dup5\n        /* \"contracts/contract.sol\":11818:11837  tokenPrices[_token] */\n      0xffffffffffffffffffffffffffffffffffffffff\n      and\n      0xffffffffffffffffffffffffffffffffffffffff\n      and\n      dup2\n      mstore\n      0x20\n      add\n      swap1\n      dup2\n      mstore\n      0x20\n      add\n      0x00\n      keccak256\n        /* \"contracts/contract.sol\":11818:11846  tokenPrices[_token] = _price */\n      swap1\n      0x04\n      tag_385\n      swap3\n      swap2\n      swap1\n      tag_261\n      jump\t// in\n    tag_385:\n      pop\n        /* \"contracts/contract.sol\":11861:11889  TokenUpdated(_token, _price) */\n      0x15c54d4add16cdcd1f0a4c671837cf70c9f8f02790bb0d948710af6e0187c7d9\n        /* \"contracts/contract.sol\":11874:11880  _token */\n      dup3\n        /* \"contracts/contract.sol\":11882:11888  _price */\n      dup3\n        /* \"contracts/contract.sol\":11861:11889  TokenUpdated(_token, _price) */\n      mload(0x40)\n      tag_386\n      swap3\n      swap2\n      swap1\n      tag_263\n      jump\t// in\n    tag_386:\n      mload(0x40)\n      dup1\n      swap2\n      sub\n      swap1\n      log1\n        /* \"contracts/contract.sol\":11632:11896  function updateTokenRate(... */\n      pop\n      pop\n      jump\t// out\n        /* \"contracts/contract.sol\":14897:15057  function withdrawSaleToken(... */\n    tag_162:\n        /* \"contracts/contract.sol\":1509:1521  _msgSender() */\n      tag_388\n        /* \"contracts/contract.sol\":1509:1519  _msgSender */\n      tag_227\n        /* \"contracts/contract.sol\":1509:1521  _msgSender() */\n      jump\t// in\n    tag_388:\n        /* \"contracts/contract.sol\":1498:1521  owner() == _msgSender() */\n      0xffffffffffffffffffffffffffffffffffffffff\n      and\n        /* \"contracts/contract.sol\":1498:1505  owner() */\n      tag_389\n        /* \"contracts/contract.sol\":1498:1503  owner */\n      tag_130\n        /* \"contracts/contract.sol\":1498:1505  owner() */\n      jump\t// in\n    tag_389:\n        /* \"contracts/contract.sol\":1498:1521  owner() == _msgSender() */\n      0xffffffffffffffffffffffffffffffffffffffff\n      and\n      eq\n        /* \"contracts/contract.sol\":1490:1558  require(owner() == _msgSender(), \"Ownable: caller is not the owner\") */\n      tag_390\n      jumpi\n      mload(0x40)\n      0x08c379a000000000000000000000000000000000000000000000000000000000\n      dup2\n      mstore\n      0x04\n      add\n      tag_391\n      swap1\n      tag_231\n      jump\t// in\n    tag_391:\n      mload(0x40)\n      dup1\n      swap2\n      sub\n      swap1\n      revert\n    tag_390:\n        /* \"contracts/contract.sol\":9747:9761  presaleEndTime */\n      sload(0x0d)\n        /* \"contracts/contract.sol\":9728:9743  block.timestamp */\n      timestamp\n        /* \"contracts/contract.sol\":9728:9761  block.timestamp >= presaleEndTime */\n      lt\n      iszero\n        /* \"contracts/contract.sol\":9707:9821  require(... */\n      tag_393\n      jumpi\n      mload(0x40)\n      0x08c379a000000000000000000000000000000000000000000000000000000000\n      dup2\n      mstore\n      0x04\n      add\n      tag_394\n      swap1\n      tag_235\n      jump\t// in\n    tag_394:\n      mload(0x40)\n      dup1\n      swap2\n      sub\n      swap1\n      revert\n    tag_393:\n        /* \"contracts/contract.sol\":14999:15050  IERC20(saleToken).safeTransfer(msg.sender, _amount) */\n      tag_396\n        /* \"contracts/contract.sol\":15030:15040  msg.sender */\n      caller\n        /* \"contracts/contract.sol\":15042:15049  _amount */\n      dup3\n        /* \"contracts/contract.sol\":15006:15015  saleToken */\n      0x05\n      0x00\n      swap1\n      sload\n      swap1\n      0x0100\n      exp\n      swap1\n      div\n      0xffffffffffffffffffffffffffffffffffffffff\n      and\n        /* \"contracts/contract.sol\":14999:15029  IERC20(saleToken).safeTransfer */\n      0xffffffffffffffffffffffffffffffffffffffff\n      and\n      tag_375\n      swap1\n        /* \"contracts/contract.sol\":14999:15050  IERC20(saleToken).safeTransfer(msg.sender, _amount) */\n      swap3\n      swap2\n      swap1\n      0xffffffff\n      and\n      jump\t// in\n    tag_396:\n        /* \"contracts/contract.sol\":14897:15057  function withdrawSaleToken(... */\n      pop\n      jump\t// out\n        /* \"contracts/contract.sol\":8509:8531  uint256[4] public rate */\n    tag_166:\n      0x01\n      dup2\n      0x04\n      dup2\n      lt\n      tag_397\n      jumpi\n      0x00\n      dup1\n      revert\n    tag_397:\n      add\n      0x00\n      swap2\n      pop\n      swap1\n      pop\n      sload\n      dup2\n      jump\t// out\n        /* \"contracts/contract.sol\":8537:8561  address public saleToken */\n    tag_170:\n      0x05\n      0x00\n      swap1\n      sload\n      swap1\n      0x0100\n      exp\n      swap1\n      div\n      0xffffffffffffffffffffffffffffffffffffffff\n      and\n      dup2\n      jump\t// out\n        /* \"contracts/contract.sol\":11531:11627  function updateEthRate(uint256[4] memory _rate) external onlyOwner {... */\n    tag_176:\n        /* \"contracts/contract.sol\":1509:1521  _msgSender() */\n      tag_400\n        /* \"contracts/contract.sol\":1509:1519  _msgSender */\n      tag_227\n        /* \"contracts/contract.sol\":1509:1521  _msgSender() */\n      jump\t// in\n    tag_400:\n        /* \"contracts/contract.sol\":1498:1521  owner() == _msgSender() */\n      0xffffffffffffffffffffffffffffffffffffffff\n      and\n        /* \"contracts/contract.sol\":1498:1505  owner() */\n      tag_401\n        /* \"contracts/contract.sol\":1498:1503  owner */\n      tag_130\n        /* \"contracts/contract.sol\":1498:1505  owner() */\n      jump\t// in\n    tag_401:\n        /* \"contracts/contract.sol\":1498:1521  owner() == _msgSender() */\n      0xffffffffffffffffffffffffffffffffffffffff\n      and\n      eq\n        /* \"contracts/contract.sol\":1490:1558  require(owner() == _msgSender(), \"Ownable: caller is not the owner\") */\n      tag_402\n      jumpi\n      mload(0x40)\n      0x08c379a000000000000000000000000000000000000000000000000000000000\n      dup2\n      mstore\n      0x04\n      add\n      tag_403\n      swap1\n      tag_231\n      jump\t// in\n    tag_403:\n      mload(0x40)\n      dup1\n      swap2\n      sub\n      swap1\n      revert\n    tag_402:\n        /* \"contracts/contract.sol\":11615:11620  _rate */\n      dup1\n        /* \"contracts/contract.sol\":11608:11612  rate */\n      0x01\n        /* \"contracts/contract.sol\":11608:11620  rate = _rate */\n      swap1\n      0x04\n      tag_405\n      swap3\n      swap2\n      swap1\n      tag_261\n      jump\t// in\n    tag_405:\n      pop\n        /* \"contracts/contract.sol\":11531:11627  function updateEthRate(uint256[4] memory _rate) external onlyOwner {... */\n      pop\n      jump\t// out\n        /* \"contracts/contract.sol\":1687:1919  function transferOwnership(address newOwner) public virtual onlyOwner {... */\n    tag_180:\n        /* \"contracts/contract.sol\":1509:1521  _msgSender() */\n      tag_407\n        /* \"contracts/contract.sol\":1509:1519  _msgSender */\n      tag_227\n        /* \"contracts/contract.sol\":1509:1521  _msgSender() */\n      jump\t// in\n    tag_407:\n        /* \"contracts/contract.sol\":1498:1521  owner() == _msgSender() */\n      0xffffffffffffffffffffffffffffffffffffffff\n      and\n        /* \"contracts/contract.sol\":1498:1505  owner() */\n      tag_408\n        /* \"contracts/contract.sol\":1498:1503  owner */\n      tag_130\n        /* \"contracts/contract.sol\":1498:1505  owner() */\n      jump\t// in\n    tag_408:\n        /* \"contracts/contract.sol\":1498:1521  owner() == _msgSender() */\n      0xffffffffffffffffffffffffffffffffffffffff\n      and\n      eq\n        /* \"contracts/contract.sol\":1490:1558  require(owner() == _msgSender(), \"Ownable: caller is not the owner\") */\n      tag_409\n      jumpi\n      mload(0x40)\n      0x08c379a000000000000000000000000000000000000000000000000000000000\n      dup2\n      mstore\n      0x04\n      add\n      tag_410\n      swap1\n      tag_231\n      jump\t// in\n    tag_410:\n      mload(0x40)\n      dup1\n      swap2\n      sub\n      swap1\n      revert\n    tag_409:\n        /* \"contracts/contract.sol\":1808:1809  0 */\n      0x00\n        /* \"contracts/contract.sol\":1788:1810  newOwner != address(0) */\n      0xffffffffffffffffffffffffffffffffffffffff\n      and\n        /* \"contracts/contract.sol\":1788:1796  newOwner */\n      dup2\n        /* \"contracts/contract.sol\":1788:1810  newOwner != address(0) */\n      0xffffffffffffffffffffffffffffffffffffffff\n      and\n      sub\n        /* \"contracts/contract.sol\":1767:1874  require(... */\n      tag_412\n      jumpi\n      mload(0x40)\n      0x08c379a000000000000000000000000000000000000000000000000000000000\n      dup2\n      mstore\n      0x04\n      add\n      tag_413\n      swap1\n      tag_414\n      jump\t// in\n    tag_413:\n      mload(0x40)\n      dup1\n      swap2\n      sub\n      swap1\n      revert\n    tag_412:\n        /* \"contracts/contract.sol\":1884:1912  _transferOwnership(newOwner) */\n      tag_415\n        /* \"contracts/contract.sol\":1903:1911  newOwner */\n      dup2\n        /* \"contracts/contract.sol\":1884:1902  _transferOwnership */\n      tag_316\n        /* \"contracts/contract.sol\":1884:1912  _transferOwnership(newOwner) */\n      jump\t// in\n    tag_415:\n        /* \"contracts/contract.sol\":1687:1919  function transferOwnership(address newOwner) public virtual onlyOwner {... */\n      pop\n      jump\t// out\n        /* \"contracts/contract.sol\":15265:15548  function withdraw(address token, uint256 amt) public onlyOwner {... */\n    tag_184:\n        /* \"contracts/contract.sol\":1509:1521  _msgSender() */\n      tag_417\n        /* \"contracts/contract.sol\":1509:1519  _msgSender */\n      tag_227\n        /* \"contracts/contract.sol\":1509:1521  _msgSender() */\n      jump\t// in\n    tag_417:\n        /* \"contracts/contract.sol\":1498:1521  owner() == _msgSender() */\n      0xffffffffffffffffffffffffffffffffffffffff\n      and\n        /* \"contracts/contract.sol\":1498:1505  owner() */\n      tag_418\n        /* \"contracts/contract.sol\":1498:1503  owner */\n      tag_130\n        /* \"contracts/contract.sol\":1498:1505  owner() */\n      jump\t// in\n    tag_418:\n        /* \"contracts/contract.sol\":1498:1521  owner() == _msgSender() */\n      0xffffffffffffffffffffffffffffffffffffffff\n      and\n      eq\n        /* \"contracts/contract.sol\":1490:1558  require(owner() == _msgSender(), \"Ownable: caller is not the owner\") */\n      tag_419\n      jumpi\n      mload(0x40)\n      0x08c379a000000000000000000000000000000000000000000000000000000000\n      dup2\n      mstore\n      0x04\n      add\n      tag_420\n      swap1\n      tag_231\n      jump\t// in\n    tag_420:\n      mload(0x40)\n      dup1\n      swap2\n      sub\n      swap1\n      revert\n    tag_419:\n        /* \"contracts/contract.sol\":15368:15377  saleToken */\n      0x05\n      0x00\n      swap1\n      sload\n      swap1\n      0x0100\n      exp\n      swap1\n      div\n      0xffffffffffffffffffffffffffffffffffffffff\n      and\n        /* \"contracts/contract.sol\":15359:15377  token != saleToken */\n      0xffffffffffffffffffffffffffffffffffffffff\n      and\n        /* \"contracts/contract.sol\":15359:15364  token */\n      dup3\n        /* \"contracts/contract.sol\":15359:15377  token != saleToken */\n      0xffffffffffffffffffffffffffffffffffffffff\n      and\n      sub\n        /* \"contracts/contract.sol\":15338:15488  require(... */\n      tag_422\n      jumpi\n      mload(0x40)\n      0x08c379a000000000000000000000000000000000000000000000000000000000\n      dup2\n      mstore\n      0x04\n      add\n      tag_423\n      swap1\n      tag_424\n      jump\t// in\n    tag_423:\n      mload(0x40)\n      dup1\n      swap2\n      sub\n      swap1\n      revert\n    tag_422:\n        /* \"contracts/contract.sol\":15498:15541  IERC20(token).safeTransfer(msg.sender, amt) */\n      tag_425\n        /* \"contracts/contract.sol\":15525:15535  msg.sender */\n      caller\n        /* \"contracts/contract.sol\":15537:15540  amt */\n      dup3\n        /* \"contracts/contract.sol\":15505:15510  token */\n      dup5\n        /* \"contracts/contract.sol\":15498:15524  IERC20(token).safeTransfer */\n      0xffffffffffffffffffffffffffffffffffffffff\n      and\n      tag_375\n      swap1\n        /* \"contracts/contract.sol\":15498:15541  IERC20(token).safeTransfer(msg.sender, amt) */\n      swap3\n      swap2\n      swap1\n      0xffffffff\n      and\n      jump\t// in\n    tag_425:\n        /* \"contracts/contract.sol\":15265:15548  function withdraw(address token, uint256 amt) public onlyOwner {... */\n      pop\n      pop\n      jump\t// out\n        /* \"contracts/contract.sol\":15554:15869  function withdrawAll(address token) public onlyOwner {... */\n    tag_188:\n        /* \"contracts/contract.sol\":1509:1521  _msgSender() */\n      tag_427\n        /* \"contracts/contract.sol\":1509:1519  _msgSender */\n      tag_227\n        /* \"contracts/contract.sol\":1509:1521  _msgSender() */\n      jump\t// in\n    tag_427:\n        /* \"contracts/contract.sol\":1498:1521  owner() == _msgSender() */\n      0xffffffffffffffffffffffffffffffffffffffff\n      and\n        /* \"contracts/contract.sol\":1498:1505  owner() */\n      tag_428\n        /* \"contracts/contract.sol\":1498:1503  owner */\n      tag_130\n        /* \"contracts/contract.sol\":1498:1505  owner() */\n      jump\t// in\n    tag_428:\n        /* \"contracts/contract.sol\":1498:1521  owner() == _msgSender() */\n      0xffffffffffffffffffffffffffffffffffffffff\n      and\n      eq\n        /* \"contracts/contract.sol\":1490:1558  require(owner() == _msgSender(), \"Ownable: caller is not the owner\") */\n      tag_429\n      jumpi\n      mload(0x40)\n      0x08c379a000000000000000000000000000000000000000000000000000000000\n      dup2\n      mstore\n      0x04\n      add\n      tag_430\n      swap1\n      tag_231\n      jump\t// in\n    tag_430:\n      mload(0x40)\n      dup1\n      swap2\n      sub\n      swap1\n      revert\n    tag_429:\n        /* \"contracts/contract.sol\":15647:15656  saleToken */\n      0x05\n      0x00\n      swap1\n      sload\n      swap1\n      0x0100\n      exp\n      swap1\n      div\n      0xffffffffffffffffffffffffffffffffffffffff\n      and\n        /* \"contracts/contract.sol\":15638:15656  token != saleToken */\n      0xffffffffffffffffffffffffffffffffffffffff\n      and\n        /* \"contracts/contract.sol\":15638:15643  token */\n      dup2\n        /* \"contracts/contract.sol\":15638:15656  token != saleToken */\n      0xffffffffffffffffffffffffffffffffffffffff\n      and\n      sub\n        /* \"contracts/contract.sol\":15617:15770  require(... */\n      tag_432\n      jumpi\n      mload(0x40)\n      0x08c379a000000000000000000000000000000000000000000000000000000000\n      dup2\n      mstore\n      0x04\n      add\n      tag_433\n      swap1\n      tag_434\n      jump\t// in\n    tag_433:\n      mload(0x40)\n      dup1\n      swap2\n      sub\n      swap1\n      revert\n    tag_432:\n        /* \"contracts/contract.sol\":15780:15791  uint256 amt */\n      0x00\n        /* \"contracts/contract.sol\":15801:15806  token */\n      dup2\n        /* \"contracts/contract.sol\":15794:15817  IERC20(token).balanceOf */\n      0xffffffffffffffffffffffffffffffffffffffff\n      and\n      0x70a08231\n        /* \"contracts/contract.sol\":15826:15830  this */\n      address\n        /* \"contracts/contract.sol\":15794:15832  IERC20(token).balanceOf(address(this)) */\n      mload(0x40)\n      dup3\n      0xffffffff\n      and\n      0xe0\n      shl\n      dup2\n      mstore\n      0x04\n      add\n      tag_435\n      swap2\n      swap1\n      tag_132\n      jump\t// in\n    tag_435:\n      0x20\n      mload(0x40)\n      dup1\n      dup4\n      sub\n      dup2\n      dup7\n      gas\n      staticcall\n      iszero\n      dup1\n      iszero\n      tag_437\n      jumpi\n      returndatasize\n      0x00\n      dup1\n      returndatacopy\n      revert(0x00, returndatasize)\n    tag_437:\n      pop\n      pop\n      pop\n      pop\n      mload(0x40)\n      returndatasize\n      not(0x1f)\n      0x1f\n      dup3\n      add\n      and\n      dup3\n      add\n      dup1\n      0x40\n      mstore\n      pop\n      dup2\n      add\n      swap1\n      tag_438\n      swap2\n      swap1\n      tag_345\n      jump\t// in\n    tag_438:\n        /* \"contracts/contract.sol\":15780:15832  uint256 amt = IERC20(token).balanceOf(address(this)) */\n      swap1\n      pop\n        /* \"contracts/contract.sol\":15842:15862  withdraw(token, amt) */\n      tag_439\n        /* \"contracts/contract.sol\":15851:15856  token */\n      dup3\n        /* \"contracts/contract.sol\":15858:15861  amt */\n      dup3\n        /* \"contracts/contract.sol\":15842:15850  withdraw */\n      tag_184\n        /* \"contracts/contract.sol\":15842:15862  withdraw(token, amt) */\n      jump\t// in\n    tag_439:\n        /* \"contracts/contract.sol\":15607:15869  {... */\n      pop\n        /* \"contracts/contract.sol\":15554:15869  function withdrawAll(address token) public onlyOwner {... */\n      pop\n      jump\t// out\n        /* \"contracts/contract.sol\":15063:15259  function withdrawAllSaleToken() external onlyOwner isPresaleEnded {... */\n    tag_191:\n        /* \"contracts/contract.sol\":1509:1521  _msgSender() */\n      tag_441\n        /* \"contracts/contract.sol\":1509:1519  _msgSender */\n      tag_227\n        /* \"contracts/contract.sol\":1509:1521  _msgSender() */\n      jump\t// in\n    tag_441:\n        /* \"contracts/contract.sol\":1498:1521  owner() == _msgSender() */\n      0xffffffffffffffffffffffffffffffffffffffff\n      and\n        /* \"contracts/contract.sol\":1498:1505  owner() */\n      tag_442\n        /* \"contracts/contract.sol\":1498:1503  owner */\n      tag_130\n        /* \"contracts/contract.sol\":1498:1505  owner() */\n      jump\t// in\n    tag_442:\n        /* \"contracts/contract.sol\":1498:1521  owner() == _msgSender() */\n      0xffffffffffffffffffffffffffffffffffffffff\n      and\n      eq\n        /* \"contracts/contract.sol\":1490:1558  require(owner() == _msgSender(), \"Ownable: caller is not the owner\") */\n      tag_443\n      jumpi\n      mload(0x40)\n      0x08c379a000000000000000000000000000000000000000000000000000000000\n      dup2\n      mstore\n      0x04\n      add\n      tag_444\n      swap1\n      tag_231\n      jump\t// in\n    tag_444:\n      mload(0x40)\n      dup1\n      swap2\n      sub\n      swap1\n      revert\n    tag_443:\n        /* \"contracts/contract.sol\":9747:9761  presaleEndTime */\n      sload(0x0d)\n        /* \"contracts/contract.sol\":9728:9743  block.timestamp */\n      timestamp\n        /* \"contracts/contract.sol\":9728:9761  block.timestamp >= presaleEndTime */\n      lt\n      iszero\n        /* \"contracts/contract.sol\":9707:9821  require(... */\n      tag_446\n      jumpi\n      mload(0x40)\n      0x08c379a000000000000000000000000000000000000000000000000000000000\n      dup2\n      mstore\n      0x04\n      add\n      tag_447\n      swap1\n      tag_235\n      jump\t// in\n    tag_447:\n      mload(0x40)\n      dup1\n      swap2\n      sub\n      swap1\n      revert\n    tag_446:\n        /* \"contracts/contract.sol\":15139:15150  uint256 amt */\n      0x00\n        /* \"contracts/contract.sol\":15160:15169  saleToken */\n      0x05\n      0x00\n      swap1\n      sload\n      swap1\n      0x0100\n      exp\n      swap1\n      div\n      0xffffffffffffffffffffffffffffffffffffffff\n      and\n        /* \"contracts/contract.sol\":15153:15180  IERC20(saleToken).balanceOf */\n      0xffffffffffffffffffffffffffffffffffffffff\n      and\n      0x70a08231\n        /* \"contracts/contract.sol\":15189:15193  this */\n      address\n        /* \"contracts/contract.sol\":15153:15195  IERC20(saleToken).balanceOf(address(this)) */\n      mload(0x40)\n      dup3\n      0xffffffff\n      and\n      0xe0\n      shl\n      dup2\n      mstore\n      0x04\n      add\n      tag_449\n      swap2\n      swap1\n      tag_132\n      jump\t// in\n    tag_449:\n      0x20\n      mload(0x40)\n      dup1\n      dup4\n      sub\n      dup2\n      dup7\n      gas\n      staticcall\n      iszero\n      dup1\n      iszero\n      tag_451\n      jumpi\n      returndatasize\n      0x00\n      dup1\n      returndatacopy\n      revert(0x00, returndatasize)\n    tag_451:\n      pop\n      pop\n      pop\n      pop\n      mload(0x40)\n      returndatasize\n      not(0x1f)\n      0x1f\n      dup3\n      add\n      and\n      dup3\n      add\n      dup1\n      0x40\n      mstore\n      pop\n      dup2\n      add\n      swap1\n      tag_452\n      swap2\n      swap1\n      tag_345\n      jump\t// in\n    tag_452:\n        /* \"contracts/contract.sol\":15139:15195  uint256 amt = IERC20(saleToken).balanceOf(address(this)) */\n      swap1\n      pop\n        /* \"contracts/contract.sol\":15205:15252  IERC20(saleToken).safeTransfer(msg.sender, amt) */\n      tag_453\n        /* \"contracts/contract.sol\":15236:15246  msg.sender */\n      caller\n        /* \"contracts/contract.sol\":15248:15251  amt */\n      dup3\n        /* \"contracts/contract.sol\":15212:15221  saleToken */\n      0x05\n      0x00\n      swap1\n      sload\n      swap1\n      0x0100\n      exp\n      swap1\n      div\n      0xffffffffffffffffffffffffffffffffffffffff\n      and\n        /* \"contracts/contract.sol\":15205:15235  IERC20(saleToken).safeTransfer */\n      0xffffffffffffffffffffffffffffffffffffffff\n      and\n      tag_375\n      swap1\n        /* \"contracts/contract.sol\":15205:15252  IERC20(saleToken).safeTransfer(msg.sender, amt) */\n      swap3\n      swap2\n      swap1\n      0xffffffff\n      and\n      jump\t// in\n    tag_453:\n        /* \"contracts/contract.sol\":15129:15259  {... */\n      pop\n        /* \"contracts/contract.sol\":15063:15259  function withdrawAllSaleToken() external onlyOwner isPresaleEnded {... */\n      jump\t// out\n        /* \"contracts/contract.sol\":888:984  function _msgSender() internal view virtual returns (address) {... */\n    tag_227:\n        /* \"contracts/contract.sol\":941:948  address */\n      0x00\n        /* \"contracts/contract.sol\":967:977  msg.sender */\n      caller\n        /* \"contracts/contract.sol\":960:977  return msg.sender */\n      swap1\n      pop\n        /* \"contracts/contract.sol\":888:984  function _msgSender() internal view virtual returns (address) {... */\n      swap1\n      jump\t// out\n        /* \"contracts/contract.sol\":5907:6182  function safeTransferFrom(... */\n    tag_298:\n        /* \"contracts/contract.sol\":6045:6175  _callOptionalReturn(... */\n      tag_456\n        /* \"contracts/contract.sol\":6078:6083  token */\n      dup5\n        /* \"contracts/contract.sol\":6120:6147  token.transferFrom.selector */\n      shl(0xe0, 0x23b872dd)\n        /* \"contracts/contract.sol\":6149:6153  from */\n      dup6\n        /* \"contracts/contract.sol\":6155:6157  to */\n      dup6\n        /* \"contracts/contract.sol\":6159:6164  value */\n      dup6\n        /* \"contracts/contract.sol\":6097:6165  abi.encodeWithSelector(token.transferFrom.selector, from, to, value) */\n      add(0x24, mload(0x40))\n      tag_457\n      swap4\n      swap3\n      swap2\n      swap1\n      tag_458\n      jump\t// in\n    tag_457:\n      mload(0x40)\n      0x20\n      dup2\n      dup4\n      sub\n      sub\n      dup2\n      mstore\n      swap1\n      0x40\n      mstore\n      swap1\n      not(0xffffffffffffffffffffffffffffffffffffffffffffffffffffffff)\n      and\n      0x20\n      dup3\n      add\n      dup1\n      mload\n      0xffffffffffffffffffffffffffffffffffffffffffffffffffffffff\n      dup4\n      dup2\n      dup4\n      and\n      or\n      dup4\n      mstore\n      pop\n      pop\n      pop\n      pop\n        /* \"contracts/contract.sol\":6045:6064  _callOptionalReturn */\n      tag_459\n        /* \"contracts/contract.sol\":6045:6175  _callOptionalReturn(... */\n      jump\t// in\n    tag_456:\n        /* \"contracts/contract.sol\":5907:6182  function safeTransferFrom(... */\n      pop\n      pop\n      pop\n      pop\n      jump\t// out\n        /* \"contracts/contract.sol\":1924:2111  function _transferOwnership(address newOwner) internal virtual {... */\n    tag_316:\n        /* \"contracts/contract.sol\":1997:2013  address oldOwner */\n      0x00\n        /* \"contracts/contract.sol\":2016:2022  _owner */\n      dup1\n      0x00\n      swap1\n      sload\n      swap1\n      0x0100\n      exp\n      swap1\n      div\n      0xffffffffffffffffffffffffffffffffffffffff\n      and\n        /* \"contracts/contract.sol\":1997:2022  address oldOwner = _owner */\n      swap1\n      pop\n        /* \"contracts/contract.sol\":2041:2049  newOwner */\n      dup2\n        /* \"contracts/contract.sol\":2032:2038  _owner */\n      0x00\n      dup1\n        /* \"contracts/contract.sol\":2032:2049  _owner = newOwner */\n      0x0100\n      exp\n      dup2\n      sload\n      dup2\n      0xffffffffffffffffffffffffffffffffffffffff\n      mul\n      not\n      and\n      swap1\n      dup4\n      0xffffffffffffffffffffffffffffffffffffffff\n      and\n      mul\n      or\n      swap1\n      sstore\n      pop\n        /* \"contracts/contract.sol\":2095:2103  newOwner */\n      dup2\n        /* \"contracts/contract.sol\":2064:2104  OwnershipTransferred(oldOwner, newOwner) */\n      0xffffffffffffffffffffffffffffffffffffffff\n      and\n        /* \"contracts/contract.sol\":2085:2093  oldOwner */\n      dup2\n        /* \"contracts/contract.sol\":2064:2104  OwnershipTransferred(oldOwner, newOwner) */\n      0xffffffffffffffffffffffffffffffffffffffff\n      and\n      0x8be0079c531659141344cd1fd0a4f28419497f9722a3daafe3b4186f6b6457e0\n      mload(0x40)\n      mload(0x40)\n      dup1\n      swap2\n      sub\n      swap1\n      log3\n        /* \"contracts/contract.sol\":1987:2111  {... */\n      pop\n        /* \"contracts/contract.sol\":1924:2111  function _transferOwnership(address newOwner) internal virtual {... */\n      pop\n      jump\t// out\n        /* \"contracts/contract.sol\":5692:5901  function safeTransfer(IERC20 token, address to, uint256 value) internal {... */\n    tag_375:\n        /* \"contracts/contract.sol\":5774:5894  _callOptionalReturn(... */\n      tag_462\n        /* \"contracts/contract.sol\":5807:5812  token */\n      dup4\n        /* \"contracts/contract.sol\":5849:5872  token.transfer.selector */\n      shl(0xe0, 0xa9059cbb)\n        /* \"contracts/contract.sol\":5874:5876  to */\n      dup5\n        /* \"contracts/contract.sol\":5878:5883  value */\n      dup5\n        /* \"contracts/contract.sol\":5826:5884  abi.encodeWithSelector(token.transfer.selector, to, value) */\n      add(0x24, mload(0x40))\n      tag_463\n      swap3\n      swap2\n      swap1\n      tag_347\n      jump\t// in\n    tag_463:\n      mload(0x40)\n      0x20\n      dup2\n      dup4\n      sub\n      sub\n      dup2\n      mstore\n      swap1\n      0x40\n      mstore\n      swap1\n      not(0xffffffffffffffffffffffffffffffffffffffffffffffffffffffff)\n      and\n      0x20\n      dup3\n      add\n      dup1\n      mload\n      0xffffffffffffffffffffffffffffffffffffffffffffffffffffffff\n      dup4\n      dup2\n      dup4\n      and\n      or\n      dup4\n      mstore\n      pop\n      pop\n      pop\n      pop\n        /* \"contracts/contract.sol\":5774:5793  _callOptionalReturn */\n      tag_459\n        /* \"contracts/contract.sol\":5774:5894  _callOptionalReturn(... */\n      jump\t// in\n    tag_462:\n        /* \"contracts/contract.sol\":5692:5901  function safeTransfer(IERC20 token, address to, uint256 value) internal {... */\n      pop\n      pop\n      pop\n      jump\t// out\n        /* \"contracts/contract.sol\":7686:8133  function _callOptionalReturn(IERC20 token, bytes memory data) private {... */\n    tag_459:\n        /* \"contracts/contract.sol\":7766:7789  bytes memory returndata */\n      0x00\n        /* \"contracts/contract.sol\":7792:7895  address(token).functionCall(... */\n      tag_465\n        /* \"contracts/contract.sol\":7833:7837  data */\n      dup3\n        /* \"contracts/contract.sol\":7792:7895  address(token).functionCall(... */\n      mload(0x40)\n      dup1\n      0x40\n      add\n      0x40\n      mstore\n      dup1\n      0x20\n      dup2\n      mstore\n      0x20\n      add\n      0x5361666545524332303a206c6f772d6c6576656c2063616c6c206661696c6564\n      dup2\n      mstore\n      pop\n        /* \"contracts/contract.sol\":7800:7805  token */\n      dup6\n        /* \"contracts/contract.sol\":7792:7819  address(token).functionCall */\n      0xffffffffffffffffffffffffffffffffffffffff\n      and\n      tag_466\n      swap1\n        /* \"contracts/contract.sol\":7792:7895  address(token).functionCall(... */\n      swap3\n      swap2\n      swap1\n      0xffffffff\n      and\n      jump\t// in\n    tag_465:\n        /* \"contracts/contract.sol\":7766:7895  bytes memory returndata = address(token).functionCall(... */\n      swap1\n      pop\n        /* \"contracts/contract.sol\":7929:7930  0 */\n      0x00\n        /* \"contracts/contract.sol\":7909:7919  returndata */\n      dup2\n        /* \"contracts/contract.sol\":7909:7926  returndata.length */\n      mload\n        /* \"contracts/contract.sol\":7909:7930  returndata.length > 0 */\n      gt\n        /* \"contracts/contract.sol\":7905:8127  if (returndata.length > 0) {... */\n      iszero\n      tag_467\n      jumpi\n        /* \"contracts/contract.sol\":8021:8031  returndata */\n      dup1\n        /* \"contracts/contract.sol\":8010:8040  abi.decode(returndata, (bool)) */\n      dup1\n      0x20\n      add\n      swap1\n      mload\n      dup2\n      add\n      swap1\n      tag_468\n      swap2\n      swap1\n      tag_469\n      jump\t// in\n    tag_468:\n        /* \"contracts/contract.sol\":7985:8116  require(... */\n      tag_470\n      jumpi\n      mload(0x40)\n      0x08c379a000000000000000000000000000000000000000000000000000000000\n      dup2\n      mstore\n      0x04\n      add\n      tag_471\n      swap1\n      tag_472\n      jump\t// in\n    tag_471:\n      mload(0x40)\n      dup1\n      swap2\n      sub\n      swap1\n      revert\n    tag_470:\n        /* \"contracts/contract.sol\":7905:8127  if (returndata.length > 0) {... */\n    tag_467:\n        /* \"contracts/contract.sol\":7756:8133  {... */\n      pop\n        /* \"contracts/contract.sol\":7686:8133  function _callOptionalReturn(IERC20 token, bytes memory data) private {... */\n      pop\n      pop\n      jump\t// out\n        /* \"contracts/contract.sol\":2557:2780  function functionCall(... */\n    tag_466:\n        /* \"contracts/contract.sol\":2690:2702  bytes memory */\n      0x60\n        /* \"contracts/contract.sol\":2721:2773  functionCallWithValue(target, data, 0, errorMessage) */\n      tag_474\n        /* \"contracts/contract.sol\":2743:2749  target */\n      dup5\n        /* \"contracts/contract.sol\":2751:2755  data */\n      dup5\n        /* \"contracts/contract.sol\":2757:2758  0 */\n      0x00\n        /* \"contracts/contract.sol\":2760:2772  errorMessage */\n      dup6\n        /* \"contracts/contract.sol\":2721:2742  functionCallWithValue */\n      tag_475\n        /* \"contracts/contract.sol\":2721:2773  functionCallWithValue(target, data, 0, errorMessage) */\n      jump\t// in\n    tag_474:\n        /* \"contracts/contract.sol\":2714:2773  return functionCallWithValue(target, data, 0, errorMessage) */\n      swap1\n      pop\n        /* \"contracts/contract.sol\":2557:2780  function functionCall(... */\n      swap4\n      swap3\n      pop\n      pop\n      pop\n      jump\t// out\n        /* \"contracts/contract.sol\":3134:3689  function functionCallWithValue(... */\n    tag_475:\n        /* \"contracts/contract.sol\":3299:3311  bytes memory */\n      0x60\n        /* \"contracts/contract.sol\":3369:3374  value */\n      dup3\n        /* \"contracts/contract.sol\":3344:3365  address(this).balance */\n      selfbalance\n        /* \"contracts/contract.sol\":3344:3374  address(this).balance >= value */\n      lt\n      iszero\n        /* \"contracts/contract.sol\":3323:3438  require(... */\n      tag_477\n      jumpi\n      mload(0x40)\n      0x08c379a000000000000000000000000000000000000000000000000000000000\n      dup2\n      mstore\n      0x04\n      add\n      tag_478\n      swap1\n      tag_479\n      jump\t// in\n    tag_478:\n      mload(0x40)\n      dup1\n      swap2\n      sub\n      swap1\n      revert\n    tag_477:\n        /* \"contracts/contract.sol\":3456:3474  isContract(target) */\n      tag_480\n        /* \"contracts/contract.sol\":3467:3473  target */\n      dup6\n        /* \"contracts/contract.sol\":3456:3466  isContract */\n      tag_481\n        /* \"contracts/contract.sol\":3456:3474  isContract(target) */\n      jump\t// in\n    tag_480:\n        /* \"contracts/contract.sol\":3448:3508  require(isContract(target), \"Address: call to non-contract\") */\n      tag_482\n      jumpi\n      mload(0x40)\n      0x08c379a000000000000000000000000000000000000000000000000000000000\n      dup2\n      mstore\n      0x04\n      add\n      tag_483\n      swap1\n      tag_484\n      jump\t// in\n    tag_483:\n      mload(0x40)\n      dup1\n      swap2\n      sub\n      swap1\n      revert\n    tag_482:\n        /* \"contracts/contract.sol\":3520:3532  bool success */\n      0x00\n        /* \"contracts/contract.sol\":3534:3557  bytes memory returndata */\n      dup1\n        /* \"contracts/contract.sol\":3561:3567  target */\n      dup7\n        /* \"contracts/contract.sol\":3561:3572  target.call */\n      0xffffffffffffffffffffffffffffffffffffffff\n      and\n        /* \"contracts/contract.sol\":3580:3585  value */\n      dup6\n        /* \"contracts/contract.sol\":3600:3604  data */\n      dup8\n        /* \"contracts/contract.sol\":3561:3614  target.call{value: value}(... */\n      mload(0x40)\n      tag_485\n      swap2\n      swap1\n      tag_486\n      jump\t// in\n    tag_485:\n      0x00\n      mload(0x40)\n      dup1\n      dup4\n      sub\n      dup2\n      dup6\n      dup8\n      gas\n      call\n      swap3\n      pop\n      pop\n      pop\n      returndatasize\n      dup1\n      0x00\n      dup2\n      eq\n      tag_489\n      jumpi\n      mload(0x40)\n      swap2\n      pop\n      and(add(returndatasize, 0x3f), not(0x1f))\n      dup3\n      add\n      0x40\n      mstore\n      returndatasize\n      dup3\n      mstore\n      returndatasize\n      0x00\n      0x20\n      dup5\n      add\n      returndatacopy\n      jump(tag_488)\n    tag_489:\n      0x60\n      swap2\n      pop\n    tag_488:\n      pop\n        /* \"contracts/contract.sol\":3519:3614  (bool success, bytes memory returndata) = target.call{value: value}(... */\n      swap2\n      pop\n      swap2\n      pop\n        /* \"contracts/contract.sol\":3631:3682  verifyCallResult(success, returndata, errorMessage) */\n      tag_490\n        /* \"contracts/contract.sol\":3648:3655  success */\n      dup3\n        /* \"contracts/contract.sol\":3657:3667  returndata */\n      dup3\n        /* \"contracts/contract.sol\":3669:3681  errorMessage */\n      dup7\n        /* \"contracts/contract.sol\":3631:3647  verifyCallResult */\n      tag_491\n        /* \"contracts/contract.sol\":3631:3682  verifyCallResult(success, returndata, errorMessage) */\n      jump\t// in\n    tag_490:\n        /* \"contracts/contract.sol\":3624:3682  return verifyCallResult(success, returndata, errorMessage) */\n      swap3\n      pop\n      pop\n      pop\n        /* \"contracts/contract.sol\":3134:3689  function functionCallWithValue(... */\n      swap5\n      swap4\n      pop\n      pop\n      pop\n      pop\n      jump\t// out\n        /* \"contracts/contract.sol\":2162:2352  function isContract(address account) internal view returns (bool) {... */\n    tag_481:\n        /* \"contracts/contract.sol\":2222:2226  bool */\n      0x00\n        /* \"contracts/contract.sol\":2238:2250  uint256 size */\n      dup1\n        /* \"contracts/contract.sol\":2303:2310  account */\n      dup3\n        /* \"contracts/contract.sol\":2291:2311  extcodesize(account) */\n      extcodesize\n        /* \"contracts/contract.sol\":2283:2311  size := extcodesize(account) */\n      swap1\n      pop\n        /* \"contracts/contract.sol\":2344:2345  0 */\n      0x00\n        /* \"contracts/contract.sol\":2337:2341  size */\n      dup2\n        /* \"contracts/contract.sol\":2337:2345  size > 0 */\n      gt\n        /* \"contracts/contract.sol\":2330:2345  return size > 0 */\n      swap2\n      pop\n      pop\n        /* \"contracts/contract.sol\":2162:2352  function isContract(address account) internal view returns (bool) {... */\n      swap2\n      swap1\n      pop\n      jump\t// out\n        /* \"contracts/contract.sol\":5074:5607  function verifyCallResult(... */\n    tag_491:\n        /* \"contracts/contract.sol\":5220:5232  bytes memory */\n      0x60\n        /* \"contracts/contract.sol\":5248:5255  success */\n      dup4\n        /* \"contracts/contract.sol\":5244:5601  if (success) {... */\n      iszero\n      tag_494\n      jumpi\n        /* \"contracts/contract.sol\":5278:5288  returndata */\n      dup3\n        /* \"contracts/contract.sol\":5271:5288  return returndata */\n      swap1\n      pop\n      jump(tag_493)\n        /* \"contracts/contract.sol\":5244:5601  if (success) {... */\n    tag_494:\n        /* \"contracts/contract.sol\":5343:5344  0 */\n      0x00\n        /* \"contracts/contract.sol\":5323:5333  returndata */\n      dup4\n        /* \"contracts/contract.sol\":5323:5340  returndata.length */\n      mload\n        /* \"contracts/contract.sol\":5323:5344  returndata.length > 0 */\n      gt\n        /* \"contracts/contract.sol\":5319:5591  if (returndata.length > 0) {... */\n      iszero\n      tag_496\n      jumpi\n        /* \"contracts/contract.sol\":5424:5434  returndata */\n      dup3\n        /* \"contracts/contract.sol\":5418:5435  mload(returndata) */\n      mload\n        /* \"contracts/contract.sol\":5484:5499  returndata_size */\n      dup1\n        /* \"contracts/contract.sol\":5471:5481  returndata */\n      dup5\n        /* \"contracts/contract.sol\":5467:5469  32 */\n      0x20\n        /* \"contracts/contract.sol\":5463:5482  add(32, returndata) */\n      add\n        /* \"contracts/contract.sol\":5456:5500  revert(add(32, returndata), returndata_size) */\n      revert\n        /* \"contracts/contract.sol\":5319:5591  if (returndata.length > 0) {... */\n    tag_496:\n        /* \"contracts/contract.sol\":5563:5575  errorMessage */\n      dup2\n        /* \"contracts/contract.sol\":5556:5576  revert(errorMessage) */\n      mload(0x40)\n      0x08c379a000000000000000000000000000000000000000000000000000000000\n      dup2\n      mstore\n      0x04\n      add\n      tag_498\n      swap2\n      swap1\n      tag_499\n      jump\t// in\n    tag_498:\n      mload(0x40)\n      dup1\n      swap2\n      sub\n      swap1\n      revert\n        /* \"contracts/contract.sol\":5074:5607  function verifyCallResult(... */\n    tag_493:\n      swap4\n      swap3\n      pop\n      pop\n      pop\n      jump\t// out\n    tag_261:\n      dup3\n      0x04\n      dup2\n      add\n      swap3\n      dup3\n      iszero\n      tag_500\n      jumpi\n      swap2\n      0x20\n      mul\n      dup3\n      add\n    tag_501:\n      dup3\n      dup2\n      gt\n      iszero\n      tag_502\n      jumpi\n      dup3\n      mload\n      dup3\n      sstore\n      swap2\n      0x20\n      add\n      swap2\n      swap1\n      0x01\n      add\n      swap1\n      jump(tag_501)\n    tag_502:\n    tag_500:\n      pop\n      swap1\n      pop\n      tag_503\n      swap2\n      swap1\n      tag_504\n      jump\t// in\n    tag_503:\n      pop\n      swap1\n      jump\t// out\n    tag_504:\n    tag_505:\n      dup1\n      dup3\n      gt\n      iszero\n      tag_506\n      jumpi\n      0x00\n      dup2\n      0x00\n      swap1\n      sstore\n      pop\n      0x01\n      add\n      jump(tag_505)\n    tag_506:\n      pop\n      swap1\n      jump\t// out\n        /* \"#utility.yul\":7:82   */\n    tag_507:\n        /* \"#utility.yul\":40:46   */\n      0x00\n        /* \"#utility.yul\":73:75   */\n      0x40\n        /* \"#utility.yul\":67:76   */\n      mload\n        /* \"#utility.yul\":57:76   */\n      swap1\n      pop\n        /* \"#utility.yul\":7:82   */\n      swap1\n      jump\t// out\n        /* \"#utility.yul\":88:205   */\n    tag_508:\n        /* \"#utility.yul\":197:198   */\n      0x00\n        /* \"#utility.yul\":194:195   */\n      dup1\n        /* \"#utility.yul\":187:199   */\n      revert\n        /* \"#utility.yul\":334:460   */\n    tag_510:\n        /* \"#utility.yul\":371:378   */\n      0x00\n        /* \"#utility.yul\":411:453   */\n      0xffffffffffffffffffffffffffffffffffffffff\n        /* \"#utility.yul\":404:409   */\n      dup3\n        /* \"#utility.yul\":400:454   */\n      and\n        /* \"#utility.yul\":389:454   */\n      swap1\n      pop\n        /* \"#utility.yul\":334:460   */\n      swap2\n      swap1\n      pop\n      jump\t// out\n        /* \"#utility.yul\":466:562   */\n    tag_511:\n        /* \"#utility.yul\":503:510   */\n      0x00\n        /* \"#utility.yul\":532:556   */\n      tag_603\n        /* \"#utility.yul\":550:555   */\n      dup3\n        /* \"#utility.yul\":532:556   */\n      tag_510\n      jump\t// in\n    tag_603:\n        /* \"#utility.yul\":521:556   */\n      swap1\n      pop\n        /* \"#utility.yul\":466:562   */\n      swap2\n      swap1\n      pop\n      jump\t// out\n        /* \"#utility.yul\":568:690   */\n    tag_512:\n        /* \"#utility.yul\":641:665   */\n      tag_605\n        /* \"#utility.yul\":659:664   */\n      dup2\n        /* \"#utility.yul\":641:665   */\n      tag_511\n      jump\t// in\n    tag_605:\n        /* \"#utility.yul\":634:639   */\n      dup2\n        /* \"#utility.yul\":631:666   */\n      eq\n        /* \"#utility.yul\":621:684   */\n      tag_606\n      jumpi\n        /* \"#utility.yul\":680:681   */\n      0x00\n        /* \"#utility.yul\":677:678   */\n      dup1\n        /* \"#utility.yul\":670:682   */\n      revert\n        /* \"#utility.yul\":621:684   */\n    tag_606:\n        /* \"#utility.yul\":568:690   */\n      pop\n      jump\t// out\n        /* \"#utility.yul\":696:835   */\n    tag_513:\n        /* \"#utility.yul\":742:747   */\n      0x00\n        /* \"#utility.yul\":780:786   */\n      dup2\n        /* \"#utility.yul\":767:787   */\n      calldataload\n        /* \"#utility.yul\":758:787   */\n      swap1\n      pop\n        /* \"#utility.yul\":796:829   */\n      tag_608\n        /* \"#utility.yul\":823:828   */\n      dup2\n        /* \"#utility.yul\":796:829   */\n      tag_512\n      jump\t// in\n    tag_608:\n        /* \"#utility.yul\":696:835   */\n      swap3\n      swap2\n      pop\n      pop\n      jump\t// out\n        /* \"#utility.yul\":841:918   */\n    tag_514:\n        /* \"#utility.yul\":878:885   */\n      0x00\n        /* \"#utility.yul\":907:912   */\n      dup2\n        /* \"#utility.yul\":896:912   */\n      swap1\n      pop\n        /* \"#utility.yul\":841:918   */\n      swap2\n      swap1\n      pop\n      jump\t// out\n        /* \"#utility.yul\":924:1046   */\n    tag_515:\n        /* \"#utility.yul\":997:1021   */\n      tag_611\n        /* \"#utility.yul\":1015:1020   */\n      dup2\n        /* \"#utility.yul\":997:1021   */\n      tag_514\n      jump\t// in\n    tag_611:\n        /* \"#utility.yul\":990:995   */\n      dup2\n        /* \"#utility.yul\":987:1022   */\n      eq\n        /* \"#utility.yul\":977:1040   */\n      tag_612\n      jumpi\n        /* \"#utility.yul\":1036:1037   */\n      0x00\n        /* \"#utility.yul\":1033:1034   */\n      dup1\n        /* \"#utility.yul\":1026:1038   */\n      revert\n        /* \"#utility.yul\":977:1040   */\n    tag_612:\n        /* \"#utility.yul\":924:1046   */\n      pop\n      jump\t// out\n        /* \"#utility.yul\":1052:1191   */\n    tag_516:\n        /* \"#utility.yul\":1098:1103   */\n      0x00\n        /* \"#utility.yul\":1136:1142   */\n      dup2\n        /* \"#utility.yul\":1123:1143   */\n      calldataload\n        /* \"#utility.yul\":1114:1143   */\n      swap1\n      pop\n        /* \"#utility.yul\":1152:1185   */\n      tag_614\n        /* \"#utility.yul\":1179:1184   */\n      dup2\n        /* \"#utility.yul\":1152:1185   */\n      tag_515\n      jump\t// in\n    tag_614:\n        /* \"#utility.yul\":1052:1191   */\n      swap3\n      swap2\n      pop\n      pop\n      jump\t// out\n        /* \"#utility.yul\":1197:1671   */\n    tag_47:\n        /* \"#utility.yul\":1265:1271   */\n      0x00\n        /* \"#utility.yul\":1273:1279   */\n      dup1\n        /* \"#utility.yul\":1322:1324   */\n      0x40\n        /* \"#utility.yul\":1310:1319   */\n      dup4\n        /* \"#utility.yul\":1301:1308   */\n      dup6\n        /* \"#utility.yul\":1297:1320   */\n      sub\n        /* \"#utility.yul\":1293:1325   */\n      slt\n        /* \"#utility.yul\":1290:1409   */\n      iszero\n      tag_616\n      jumpi\n        /* \"#utility.yul\":1328:1407   */\n      tag_617\n      tag_508\n      jump\t// in\n    tag_617:\n        /* \"#utility.yul\":1290:1409   */\n    tag_616:\n        /* \"#utility.yul\":1448:1449   */\n      0x00\n        /* \"#utility.yul\":1473:1526   */\n      tag_618\n        /* \"#utility.yul\":1518:1525   */\n      dup6\n        /* \"#utility.yul\":1509:1515   */\n      dup3\n        /* \"#utility.yul\":1498:1507   */\n      dup7\n        /* \"#utility.yul\":1494:1516   */\n      add\n        /* \"#utility.yul\":1473:1526   */\n      tag_513\n      jump\t// in\n    tag_618:\n        /* \"#utility.yul\":1463:1526   */\n      swap3\n      pop\n        /* \"#utility.yul\":1419:1536   */\n      pop\n        /* \"#utility.yul\":1575:1577   */\n      0x20\n        /* \"#utility.yul\":1601:1654   */\n      tag_619\n        /* \"#utility.yul\":1646:1653   */\n      dup6\n        /* \"#utility.yul\":1637:1643   */\n      dup3\n        /* \"#utility.yul\":1626:1635   */\n      dup7\n        /* \"#utility.yul\":1622:1644   */\n      add\n        /* \"#utility.yul\":1601:1654   */\n      tag_516\n      jump\t// in\n    tag_619:\n        /* \"#utility.yul\":1591:1654   */\n      swap2\n      pop\n        /* \"#utility.yul\":1546:1664   */\n      pop\n        /* \"#utility.yul\":1197:1671   */\n      swap3\n      pop\n      swap3\n      swap1\n      pop\n      jump\t// out\n        /* \"#utility.yul\":1677:1795   */\n    tag_517:\n        /* \"#utility.yul\":1764:1788   */\n      tag_621\n        /* \"#utility.yul\":1782:1787   */\n      dup2\n        /* \"#utility.yul\":1764:1788   */\n      tag_514\n      jump\t// in\n    tag_621:\n        /* \"#utility.yul\":1759:1762   */\n      dup3\n        /* \"#utility.yul\":1752:1789   */\n      mstore\n        /* \"#utility.yul\":1677:1795   */\n      pop\n      pop\n      jump\t// out\n        /* \"#utility.yul\":1801:2023   */\n    tag_50:\n        /* \"#utility.yul\":1894:1898   */\n      0x00\n        /* \"#utility.yul\":1932:1934   */\n      0x20\n        /* \"#utility.yul\":1921:1930   */\n      dup3\n        /* \"#utility.yul\":1917:1935   */\n      add\n        /* \"#utility.yul\":1909:1935   */\n      swap1\n      pop\n        /* \"#utility.yul\":1945:2016   */\n      tag_623\n        /* \"#utility.yul\":2013:2014   */\n      0x00\n        /* \"#utility.yul\":2002:2011   */\n      dup4\n        /* \"#utility.yul\":1998:2015   */\n      add\n        /* \"#utility.yul\":1989:1995   */\n      dup5\n        /* \"#utility.yul\":1945:2016   */\n      tag_517\n      jump\t// in\n    tag_623:\n        /* \"#utility.yul\":1801:2023   */\n      swap3\n      swap2\n      pop\n      pop\n      jump\t// out\n        /* \"#utility.yul\":2029:2119   */\n    tag_518:\n        /* \"#utility.yul\":2063:2070   */\n      0x00\n        /* \"#utility.yul\":2106:2111   */\n      dup2\n        /* \"#utility.yul\":2099:2112   */\n      iszero\n        /* \"#utility.yul\":2092:2113   */\n      iszero\n        /* \"#utility.yul\":2081:2113   */\n      swap1\n      pop\n        /* \"#utility.yul\":2029:2119   */\n      swap2\n      swap1\n      pop\n      jump\t// out\n        /* \"#utility.yul\":2125:2234   */\n    tag_519:\n        /* \"#utility.yul\":2206:2227   */\n      tag_626\n        /* \"#utility.yul\":2221:2226   */\n      dup2\n        /* \"#utility.yul\":2206:2227   */\n      tag_518\n      jump\t// in\n    tag_626:\n        /* \"#utility.yul\":2201:2204   */\n      dup3\n        /* \"#utility.yul\":2194:2228   */\n      mstore\n        /* \"#utility.yul\":2125:2234   */\n      pop\n      pop\n      jump\t// out\n        /* \"#utility.yul\":2240:2450   */\n    tag_62:\n        /* \"#utility.yul\":2327:2331   */\n      0x00\n        /* \"#utility.yul\":2365:2367   */\n      0x20\n        /* \"#utility.yul\":2354:2363   */\n      dup3\n        /* \"#utility.yul\":2350:2368   */\n      add\n        /* \"#utility.yul\":2342:2368   */\n      swap1\n      pop\n        /* \"#utility.yul\":2378:2443   */\n      tag_628\n        /* \"#utility.yul\":2440:2441   */\n      0x00\n        /* \"#utility.yul\":2429:2438   */\n      dup4\n        /* \"#utility.yul\":2425:2442   */\n      add\n        /* \"#utility.yul\":2416:2422   */\n      dup5\n        /* \"#utility.yul\":2378:2443   */\n      tag_519\n      jump\t// in\n    tag_628:\n        /* \"#utility.yul\":2240:2450   */\n      swap3\n      swap2\n      pop\n      pop\n      jump\t// out\n        /* \"#utility.yul\":2456:2785   */\n    tag_66:\n        /* \"#utility.yul\":2515:2521   */\n      0x00\n        /* \"#utility.yul\":2564:2566   */\n      0x20\n        /* \"#utility.yul\":2552:2561   */\n      dup3\n        /* \"#utility.yul\":2543:2550   */\n      dup5\n        /* \"#utility.yul\":2539:2562   */\n      sub\n        /* \"#utility.yul\":2535:2567   */\n      slt\n        /* \"#utility.yul\":2532:2651   */\n      iszero\n      tag_630\n      jumpi\n        /* \"#utility.yul\":2570:2649   */\n      tag_631\n      tag_508\n      jump\t// in\n    tag_631:\n        /* \"#utility.yul\":2532:2651   */\n    tag_630:\n        /* \"#utility.yul\":2690:2691   */\n      0x00\n        /* \"#utility.yul\":2715:2768   */\n      tag_632\n        /* \"#utility.yul\":2760:2767   */\n      dup5\n        /* \"#utility.yul\":2751:2757   */\n      dup3\n        /* \"#utility.yul\":2740:2749   */\n      dup6\n        /* \"#utility.yul\":2736:2758   */\n      add\n        /* \"#utility.yul\":2715:2768   */\n      tag_516\n      jump\t// in\n    tag_632:\n        /* \"#utility.yul\":2705:2768   */\n      swap2\n      pop\n        /* \"#utility.yul\":2661:2778   */\n      pop\n        /* \"#utility.yul\":2456:2785   */\n      swap3\n      swap2\n      pop\n      pop\n      jump\t// out\n        /* \"#utility.yul\":2791:3120   */\n    tag_71:\n        /* \"#utility.yul\":2850:2856   */\n      0x00\n        /* \"#utility.yul\":2899:2901   */\n      0x20\n        /* \"#utility.yul\":2887:2896   */\n      dup3\n        /* \"#utility.yul\":2878:2885   */\n      dup5\n        /* \"#utility.yul\":2874:2897   */\n      sub\n        /* \"#utility.yul\":2870:2902   */\n      slt\n        /* \"#utility.yul\":2867:2986   */\n      iszero\n      tag_634\n      jumpi\n        /* \"#utility.yul\":2905:2984   */\n      tag_635\n      tag_508\n      jump\t// in\n    tag_635:\n        /* \"#utility.yul\":2867:2986   */\n    tag_634:\n        /* \"#utility.yul\":3025:3026   */\n      0x00\n        /* \"#utility.yul\":3050:3103   */\n      tag_636\n        /* \"#utility.yul\":3095:3102   */\n      dup5\n        /* \"#utility.yul\":3086:3092   */\n      dup3\n        /* \"#utility.yul\":3075:3084   */\n      dup6\n        /* \"#utility.yul\":3071:3093   */\n      add\n        /* \"#utility.yul\":3050:3103   */\n      tag_513\n      jump\t// in\n    tag_636:\n        /* \"#utility.yul\":3040:3103   */\n      swap2\n      pop\n        /* \"#utility.yul\":2996:3113   */\n      pop\n        /* \"#utility.yul\":2791:3120   */\n      swap3\n      swap2\n      pop\n      pop\n      jump\t// out\n        /* \"#utility.yul\":3126:3446   */\n    tag_74:\n        /* \"#utility.yul\":3241:3245   */\n      0x00\n        /* \"#utility.yul\":3279:3281   */\n      0x40\n        /* \"#utility.yul\":3268:3277   */\n      dup3\n        /* \"#utility.yul\":3264:3282   */\n      add\n        /* \"#utility.yul\":3256:3282   */\n      swap1\n      pop\n        /* \"#utility.yul\":3292:3363   */\n      tag_638\n        /* \"#utility.yul\":3360:3361   */\n      0x00\n        /* \"#utility.yul\":3349:3358   */\n      dup4\n        /* \"#utility.yul\":3345:3362   */\n      add\n        /* \"#utility.yul\":3336:3342   */\n      dup6\n        /* \"#utility.yul\":3292:3363   */\n      tag_517\n      jump\t// in\n    tag_638:\n        /* \"#utility.yul\":3373:3439   */\n      tag_639\n        /* \"#utility.yul\":3435:3437   */\n      0x20\n        /* \"#utility.yul\":3424:3433   */\n      dup4\n        /* \"#utility.yul\":3420:3438   */\n      add\n        /* \"#utility.yul\":3411:3417   */\n      dup5\n        /* \"#utility.yul\":3373:3439   */\n      tag_519\n      jump\t// in\n    tag_639:\n        /* \"#utility.yul\":3126:3446   */\n      swap4\n      swap3\n      pop\n      pop\n      pop\n      jump\t// out\n        /* \"#utility.yul\":3452:3569   */\n    tag_520:\n        /* \"#utility.yul\":3561:3562   */\n      0x00\n        /* \"#utility.yul\":3558:3559   */\n      dup1\n        /* \"#utility.yul\":3551:3563   */\n      revert\n        /* \"#utility.yul\":3575:3677   */\n    tag_521:\n        /* \"#utility.yul\":3616:3622   */\n      0x00\n        /* \"#utility.yul\":3667:3669   */\n      0x1f\n        /* \"#utility.yul\":3663:3670   */\n      not\n        /* \"#utility.yul\":3658:3660   */\n      0x1f\n        /* \"#utility.yul\":3651:3656   */\n      dup4\n        /* \"#utility.yul\":3647:3661   */\n      add\n        /* \"#utility.yul\":3643:3671   */\n      and\n        /* \"#utility.yul\":3633:3671   */\n      swap1\n      pop\n        /* \"#utility.yul\":3575:3677   */\n      swap2\n      swap1\n      pop\n      jump\t// out\n        /* \"#utility.yul\":3683:3863   */\n    tag_522:\n        /* \"#utility.yul\":3731:3808   */\n      0x4e487b7100000000000000000000000000000000000000000000000000000000\n        /* \"#utility.yul\":3728:3729   */\n      0x00\n        /* \"#utility.yul\":3721:3809   */\n      mstore\n        /* \"#utility.yul\":3828:3832   */\n      0x41\n        /* \"#utility.yul\":3825:3826   */\n      0x04\n        /* \"#utility.yul\":3818:3833   */\n      mstore\n        /* \"#utility.yul\":3852:3856   */\n      0x24\n        /* \"#utility.yul\":3849:3850   */\n      0x00\n        /* \"#utility.yul\":3842:3857   */\n      revert\n        /* \"#utility.yul\":3869:4150   */\n    tag_523:\n        /* \"#utility.yul\":3952:3979   */\n      tag_644\n        /* \"#utility.yul\":3974:3978   */\n      dup3\n        /* \"#utility.yul\":3952:3979   */\n      tag_521\n      jump\t// in\n    tag_644:\n        /* \"#utility.yul\":3944:3950   */\n      dup2\n        /* \"#utility.yul\":3940:3980   */\n      add\n        /* \"#utility.yul\":4082:4088   */\n      dup2\n        /* \"#utility.yul\":4070:4080   */\n      dup2\n        /* \"#utility.yul\":4067:4089   */\n      lt\n        /* \"#utility.yul\":4046:4064   */\n      0xffffffffffffffff\n        /* \"#utility.yul\":4034:4044   */\n      dup3\n        /* \"#utility.yul\":4031:4065   */\n      gt\n        /* \"#utility.yul\":4028:4090   */\n      or\n        /* \"#utility.yul\":4025:4113   */\n      iszero\n      tag_645\n      jumpi\n        /* \"#utility.yul\":4093:4111   */\n      tag_646\n      tag_522\n      jump\t// in\n    tag_646:\n        /* \"#utility.yul\":4025:4113   */\n    tag_645:\n        /* \"#utility.yul\":4133:4143   */\n      dup1\n        /* \"#utility.yul\":4129:4131   */\n      0x40\n        /* \"#utility.yul\":4122:4144   */\n      mstore\n        /* \"#utility.yul\":3912:4150   */\n      pop\n        /* \"#utility.yul\":3869:4150   */\n      pop\n      pop\n      jump\t// out\n        /* \"#utility.yul\":4156:4285   */\n    tag_524:\n        /* \"#utility.yul\":4190:4196   */\n      0x00\n        /* \"#utility.yul\":4217:4237   */\n      tag_648\n      tag_507\n      jump\t// in\n    tag_648:\n        /* \"#utility.yul\":4207:4237   */\n      swap1\n      pop\n        /* \"#utility.yul\":4246:4279   */\n      tag_649\n        /* \"#utility.yul\":4274:4278   */\n      dup3\n        /* \"#utility.yul\":4266:4272   */\n      dup3\n        /* \"#utility.yul\":4246:4279   */\n      tag_523\n      jump\t// in\n    tag_649:\n        /* \"#utility.yul\":4156:4285   */\n      swap2\n      swap1\n      pop\n      jump\t// out\n        /* \"#utility.yul\":4291:4540   */\n    tag_525:\n        /* \"#utility.yul\":4366:4370   */\n      0x00\n        /* \"#utility.yul\":4456:4474   */\n      0xffffffffffffffff\n        /* \"#utility.yul\":4448:4454   */\n      dup3\n        /* \"#utility.yul\":4445:4475   */\n      gt\n        /* \"#utility.yul\":4442:4498   */\n      iszero\n      tag_651\n      jumpi\n        /* \"#utility.yul\":4478:4496   */\n      tag_652\n      tag_522\n      jump\t// in\n    tag_652:\n        /* \"#utility.yul\":4442:4498   */\n    tag_651:\n        /* \"#utility.yul\":4528:4532   */\n      0x20\n        /* \"#utility.yul\":4520:4526   */\n      dup3\n        /* \"#utility.yul\":4516:4533   */\n      mul\n        /* \"#utility.yul\":4508:4533   */\n      swap1\n      pop\n        /* \"#utility.yul\":4291:4540   */\n      swap2\n      swap1\n      pop\n      jump\t// out\n        /* \"#utility.yul\":4546:4663   */\n    tag_526:\n        /* \"#utility.yul\":4655:4656   */\n      0x00\n        /* \"#utility.yul\":4652:4653   */\n      dup1\n        /* \"#utility.yul\":4645:4657   */\n      revert\n        /* \"#utility.yul\":4687:5330   */\n    tag_527:\n        /* \"#utility.yul\":4781:4786   */\n      0x00\n        /* \"#utility.yul\":4806:4885   */\n      tag_655\n        /* \"#utility.yul\":4822:4884   */\n      tag_656\n        /* \"#utility.yul\":4877:4883   */\n      dup5\n        /* \"#utility.yul\":4822:4884   */\n      tag_525\n      jump\t// in\n    tag_656:\n        /* \"#utility.yul\":4806:4885   */\n      tag_524\n      jump\t// in\n    tag_655:\n        /* \"#utility.yul\":4797:4885   */\n      swap1\n      pop\n        /* \"#utility.yul\":4905:4910   */\n      dup1\n        /* \"#utility.yul\":4958:4962   */\n      0x20\n        /* \"#utility.yul\":4950:4956   */\n      dup5\n        /* \"#utility.yul\":4946:4963   */\n      mul\n        /* \"#utility.yul\":4938:4944   */\n      dup4\n        /* \"#utility.yul\":4934:4964   */\n      add\n        /* \"#utility.yul\":4987:4990   */\n      dup6\n        /* \"#utility.yul\":4979:4985   */\n      dup2\n        /* \"#utility.yul\":4976:4991   */\n      gt\n        /* \"#utility.yul\":4973:5095   */\n      iszero\n      tag_657\n      jumpi\n        /* \"#utility.yul\":5006:5085   */\n      tag_658\n      tag_526\n      jump\t// in\n    tag_658:\n        /* \"#utility.yul\":4973:5095   */\n    tag_657:\n        /* \"#utility.yul\":5121:5127   */\n      dup4\n        /* \"#utility.yul\":5104:5324   */\n    tag_659:\n        /* \"#utility.yul\":5138:5144   */\n      dup2\n        /* \"#utility.yul\":5133:5136   */\n      dup2\n        /* \"#utility.yul\":5130:5145   */\n      lt\n        /* \"#utility.yul\":5104:5324   */\n      iszero\n      tag_661\n      jumpi\n        /* \"#utility.yul\":5213:5216   */\n      dup1\n        /* \"#utility.yul\":5242:5279   */\n      tag_662\n        /* \"#utility.yul\":5275:5278   */\n      dup9\n        /* \"#utility.yul\":5263:5273   */\n      dup3\n        /* \"#utility.yul\":5242:5279   */\n      tag_516\n      jump\t// in\n    tag_662:\n        /* \"#utility.yul\":5237:5240   */\n      dup5\n        /* \"#utility.yul\":5230:5280   */\n      mstore\n        /* \"#utility.yul\":5309:5313   */\n      0x20\n        /* \"#utility.yul\":5304:5307   */\n      dup5\n        /* \"#utility.yul\":5300:5314   */\n      add\n        /* \"#utility.yul\":5293:5314   */\n      swap4\n      pop\n        /* \"#utility.yul\":5180:5324   */\n      pop\n        /* \"#utility.yul\":5164:5168   */\n      0x20\n        /* \"#utility.yul\":5159:5162   */\n      dup2\n        /* \"#utility.yul\":5155:5169   */\n      add\n        /* \"#utility.yul\":5148:5169   */\n      swap1\n      pop\n        /* \"#utility.yul\":5104:5324   */\n      jump(tag_659)\n    tag_661:\n        /* \"#utility.yul\":5108:5129   */\n      pop\n        /* \"#utility.yul\":4787:5330   */\n      pop\n      pop\n        /* \"#utility.yul\":4687:5330   */\n      swap4\n      swap3\n      pop\n      pop\n      pop\n      jump\t// out\n        /* \"#utility.yul\":5354:5693   */\n    tag_528:\n        /* \"#utility.yul\":5423:5428   */\n      0x00\n        /* \"#utility.yul\":5472:5475   */\n      dup3\n        /* \"#utility.yul\":5465:5469   */\n      0x1f\n        /* \"#utility.yul\":5457:5463   */\n      dup4\n        /* \"#utility.yul\":5453:5470   */\n      add\n        /* \"#utility.yul\":5449:5476   */\n      slt\n        /* \"#utility.yul\":5439:5561   */\n      tag_664\n      jumpi\n        /* \"#utility.yul\":5480:5559   */\n      tag_665\n      tag_520\n      jump\t// in\n    tag_665:\n        /* \"#utility.yul\":5439:5561   */\n    tag_664:\n        /* \"#utility.yul\":5584:5588   */\n      0x04\n        /* \"#utility.yul\":5606:5687   */\n      tag_666\n        /* \"#utility.yul\":5683:5686   */\n      dup5\n        /* \"#utility.yul\":5675:5681   */\n      dup3\n        /* \"#utility.yul\":5667:5673   */\n      dup6\n        /* \"#utility.yul\":5606:5687   */\n      tag_527\n      jump\t// in\n    tag_666:\n        /* \"#utility.yul\":5597:5687   */\n      swap2\n      pop\n        /* \"#utility.yul\":5429:5693   */\n      pop\n        /* \"#utility.yul\":5354:5693   */\n      swap3\n      swap2\n      pop\n      pop\n      jump\t// out\n        /* \"#utility.yul\":5699:6220   */\n    tag_86:\n        /* \"#utility.yul\":5790:5796   */\n      0x00\n        /* \"#utility.yul\":5798:5804   */\n      dup1\n        /* \"#utility.yul\":5847:5850   */\n      0xa0\n        /* \"#utility.yul\":5835:5844   */\n      dup4\n        /* \"#utility.yul\":5826:5833   */\n      dup6\n        /* \"#utility.yul\":5822:5845   */\n      sub\n        /* \"#utility.yul\":5818:5851   */\n      slt\n        /* \"#utility.yul\":5815:5935   */\n      iszero\n      tag_668\n      jumpi\n        /* \"#utility.yul\":5854:5933   */\n      tag_669\n      tag_508\n      jump\t// in\n    tag_669:\n        /* \"#utility.yul\":5815:5935   */\n    tag_668:\n        /* \"#utility.yul\":5974:5975   */\n      0x00\n        /* \"#utility.yul\":5999:6052   */\n      tag_670\n        /* \"#utility.yul\":6044:6051   */\n      dup6\n        /* \"#utility.yul\":6035:6041   */\n      dup3\n        /* \"#utility.yul\":6024:6033   */\n      dup7\n        /* \"#utility.yul\":6020:6042   */\n      add\n        /* \"#utility.yul\":5999:6052   */\n      tag_513\n      jump\t// in\n    tag_670:\n        /* \"#utility.yul\":5989:6052   */\n      swap3\n      pop\n        /* \"#utility.yul\":5945:6062   */\n      pop\n        /* \"#utility.yul\":6101:6103   */\n      0x20\n        /* \"#utility.yul\":6127:6203   */\n      tag_671\n        /* \"#utility.yul\":6195:6202   */\n      dup6\n        /* \"#utility.yul\":6186:6192   */\n      dup3\n        /* \"#utility.yul\":6175:6184   */\n      dup7\n        /* \"#utility.yul\":6171:6193   */\n      add\n        /* \"#utility.yul\":6127:6203   */\n      tag_528\n      jump\t// in\n    tag_671:\n        /* \"#utility.yul\":6117:6203   */\n      swap2\n      pop\n        /* \"#utility.yul\":6072:6213   */\n      pop\n        /* \"#utility.yul\":5699:6220   */\n      swap3\n      pop\n      swap3\n      swap1\n      pop\n      jump\t// out\n        /* \"#utility.yul\":6226:6344   */\n    tag_529:\n        /* \"#utility.yul\":6313:6337   */\n      tag_673\n        /* \"#utility.yul\":6331:6336   */\n      dup2\n        /* \"#utility.yul\":6313:6337   */\n      tag_511\n      jump\t// in\n    tag_673:\n        /* \"#utility.yul\":6308:6311   */\n      dup3\n        /* \"#utility.yul\":6301:6338   */\n      mstore\n        /* \"#utility.yul\":6226:6344   */\n      pop\n      pop\n      jump\t// out\n        /* \"#utility.yul\":6350:6572   */\n    tag_132:\n        /* \"#utility.yul\":6443:6447   */\n      0x00\n        /* \"#utility.yul\":6481:6483   */\n      0x20\n        /* \"#utility.yul\":6470:6479   */\n      dup3\n        /* \"#utility.yul\":6466:6484   */\n      add\n        /* \"#utility.yul\":6458:6484   */\n      swap1\n      pop\n        /* \"#utility.yul\":6494:6565   */\n      tag_675\n        /* \"#utility.yul\":6562:6563   */\n      0x00\n        /* \"#utility.yul\":6551:6560   */\n      dup4\n        /* \"#utility.yul\":6547:6564   */\n      add\n        /* \"#utility.yul\":6538:6544   */\n      dup5\n        /* \"#utility.yul\":6494:6565   */\n      tag_529\n      jump\t// in\n    tag_675:\n        /* \"#utility.yul\":6350:6572   */\n      swap3\n      swap2\n      pop\n      pop\n      jump\t// out\n        /* \"#utility.yul\":6578:6954   */\n    tag_175:\n        /* \"#utility.yul\":6660:6666   */\n      0x00\n        /* \"#utility.yul\":6709:6712   */\n      0x80\n        /* \"#utility.yul\":6697:6706   */\n      dup3\n        /* \"#utility.yul\":6688:6695   */\n      dup5\n        /* \"#utility.yul\":6684:6707   */\n      sub\n        /* \"#utility.yul\":6680:6713   */\n      slt\n        /* \"#utility.yul\":6677:6797   */\n      iszero\n      tag_677\n      jumpi\n        /* \"#utility.yul\":6716:6795   */\n      tag_678\n      tag_508\n      jump\t// in\n    tag_678:\n        /* \"#utility.yul\":6677:6797   */\n    tag_677:\n        /* \"#utility.yul\":6836:6837   */\n      0x00\n        /* \"#utility.yul\":6861:6937   */\n      tag_679\n        /* \"#utility.yul\":6929:6936   */\n      dup5\n        /* \"#utility.yul\":6920:6926   */\n      dup3\n        /* \"#utility.yul\":6909:6918   */\n      dup6\n        /* \"#utility.yul\":6905:6927   */\n      add\n        /* \"#utility.yul\":6861:6937   */\n      tag_528\n      jump\t// in\n    tag_679:\n        /* \"#utility.yul\":6851:6937   */\n      swap2\n      pop\n        /* \"#utility.yul\":6807:6947   */\n      pop\n        /* \"#utility.yul\":6578:6954   */\n      swap3\n      swap2\n      pop\n      pop\n      jump\t// out\n        /* \"#utility.yul\":6960:7129   */\n    tag_530:\n        /* \"#utility.yul\":7044:7055   */\n      0x00\n        /* \"#utility.yul\":7078:7084   */\n      dup3\n        /* \"#utility.yul\":7073:7076   */\n      dup3\n        /* \"#utility.yul\":7066:7085   */\n      mstore\n        /* \"#utility.yul\":7118:7122   */\n      0x20\n        /* \"#utility.yul\":7113:7116   */\n      dup3\n        /* \"#utility.yul\":7109:7123   */\n      add\n        /* \"#utility.yul\":7094:7123   */\n      swap1\n      pop\n        /* \"#utility.yul\":6960:7129   */\n      swap3\n      swap2\n      pop\n      pop\n      jump\t// out\n        /* \"#utility.yul\":7135:7315   */\n    tag_531:\n        /* \"#utility.yul\":7275:7307   */\n      0x50726573616c653a20546f6b656e206e6f742077686974656c69737465640000\n        /* \"#utility.yul\":7271:7272   */\n      0x00\n        /* \"#utility.yul\":7263:7269   */\n      dup3\n        /* \"#utility.yul\":7259:7273   */\n      add\n        /* \"#utility.yul\":7252:7308   */\n      mstore\n        /* \"#utility.yul\":7135:7315   */\n      pop\n      jump\t// out\n        /* \"#utility.yul\":7321:7687   */\n    tag_532:\n        /* \"#utility.yul\":7463:7466   */\n      0x00\n        /* \"#utility.yul\":7484:7551   */\n      tag_683\n        /* \"#utility.yul\":7548:7550   */\n      0x1e\n        /* \"#utility.yul\":7543:7546   */\n      dup4\n        /* \"#utility.yul\":7484:7551   */\n      tag_530\n      jump\t// in\n    tag_683:\n        /* \"#utility.yul\":7477:7551   */\n      swap2\n      pop\n        /* \"#utility.yul\":7560:7653   */\n      tag_684\n        /* \"#utility.yul\":7649:7652   */\n      dup3\n        /* \"#utility.yul\":7560:7653   */\n      tag_531\n      jump\t// in\n    tag_684:\n        /* \"#utility.yul\":7678:7680   */\n      0x20\n        /* \"#utility.yul\":7673:7676   */\n      dup3\n        /* \"#utility.yul\":7669:7681   */\n      add\n        /* \"#utility.yul\":7662:7681   */\n      swap1\n      pop\n        /* \"#utility.yul\":7321:7687   */\n      swap2\n      swap1\n      pop\n      jump\t// out\n        /* \"#utility.yul\":7693:8112   */\n    tag_197:\n        /* \"#utility.yul\":7859:7863   */\n      0x00\n        /* \"#utility.yul\":7897:7899   */\n      0x20\n        /* \"#utility.yul\":7886:7895   */\n      dup3\n        /* \"#utility.yul\":7882:7900   */\n      add\n        /* \"#utility.yul\":7874:7900   */\n      swap1\n      pop\n        /* \"#utility.yul\":7946:7955   */\n      dup2\n        /* \"#utility.yul\":7940:7944   */\n      dup2\n        /* \"#utility.yul\":7936:7956   */\n      sub\n        /* \"#utility.yul\":7932:7933   */\n      0x00\n        /* \"#utility.yul\":7921:7930   */\n      dup4\n        /* \"#utility.yul\":7917:7934   */\n      add\n        /* \"#utility.yul\":7910:7957   */\n      mstore\n        /* \"#utility.yul\":7974:8105   */\n      tag_686\n        /* \"#utility.yul\":8100:8104   */\n      dup2\n        /* \"#utility.yul\":7974:8105   */\n      tag_532\n      jump\t// in\n    tag_686:\n        /* \"#utility.yul\":7966:8105   */\n      swap1\n      pop\n        /* \"#utility.yul\":7693:8112   */\n      swap2\n      swap1\n      pop\n      jump\t// out\n        /* \"#utility.yul\":8118:8298   */\n    tag_200:\n        /* \"#utility.yul\":8166:8243   */\n      0x4e487b7100000000000000000000000000000000000000000000000000000000\n        /* \"#utility.yul\":8163:8164   */\n      0x00\n        /* \"#utility.yul\":8156:8244   */\n      mstore\n        /* \"#utility.yul\":8263:8267   */\n      0x32\n        /* \"#utility.yul\":8260:8261   */\n      0x04\n        /* \"#utility.yul\":8253:8268   */\n      mstore\n        /* \"#utility.yul\":8287:8291   */\n      0x24\n        /* \"#utility.yul\":8284:8285   */\n      0x00\n        /* \"#utility.yul\":8277:8292   */\n      revert\n        /* \"#utility.yul\":8304:8484   */\n    tag_533:\n        /* \"#utility.yul\":8352:8429   */\n      0x4e487b7100000000000000000000000000000000000000000000000000000000\n        /* \"#utility.yul\":8349:8350   */\n      0x00\n        /* \"#utility.yul\":8342:8430   */\n      mstore\n        /* \"#utility.yul\":8449:8453   */\n      0x11\n        /* \"#utility.yul\":8446:8447   */\n      0x04\n        /* \"#utility.yul\":8439:8454   */\n      mstore\n        /* \"#utility.yul\":8473:8477   */\n      0x24\n        /* \"#utility.yul\":8470:8471   */\n      0x00\n        /* \"#utility.yul\":8463:8478   */\n      revert\n        /* \"#utility.yul\":8490:8592   */\n    tag_534:\n        /* \"#utility.yul\":8532:8540   */\n      0x00\n        /* \"#utility.yul\":8579:8584   */\n      dup2\n        /* \"#utility.yul\":8576:8577   */\n      0x01\n        /* \"#utility.yul\":8572:8585   */\n      shr\n        /* \"#utility.yul\":8551:8585   */\n      swap1\n      pop\n        /* \"#utility.yul\":8490:8592   */\n      swap2\n      swap1\n      pop\n      jump\t// out\n        /* \"#utility.yul\":8598:9446   */\n    tag_535:\n        /* \"#utility.yul\":8659:8664   */\n      0x00\n        /* \"#utility.yul\":8666:8670   */\n      dup1\n        /* \"#utility.yul\":8690:8696   */\n      dup3\n        /* \"#utility.yul\":8681:8696   */\n      swap2\n      pop\n        /* \"#utility.yul\":8714:8719   */\n      dup4\n        /* \"#utility.yul\":8705:8719   */\n      swap1\n      pop\n        /* \"#utility.yul\":8728:9440   */\n    tag_691:\n        /* \"#utility.yul\":8749:8750   */\n      0x01\n        /* \"#utility.yul\":8739:8747   */\n      dup6\n        /* \"#utility.yul\":8736:8751   */\n      gt\n        /* \"#utility.yul\":8728:9440   */\n      iszero\n      tag_693\n      jumpi\n        /* \"#utility.yul\":8844:8848   */\n      dup1\n        /* \"#utility.yul\":8839:8842   */\n      dup7\n        /* \"#utility.yul\":8835:8849   */\n      div\n        /* \"#utility.yul\":8829:8833   */\n      dup2\n        /* \"#utility.yul\":8826:8850   */\n      gt\n        /* \"#utility.yul\":8823:8873   */\n      iszero\n      tag_694\n      jumpi\n        /* \"#utility.yul\":8853:8871   */\n      tag_695\n      tag_533\n      jump\t// in\n    tag_695:\n        /* \"#utility.yul\":8823:8873   */\n    tag_694:\n        /* \"#utility.yul\":8903:8904   */\n      0x01\n        /* \"#utility.yul\":8893:8901   */\n      dup6\n        /* \"#utility.yul\":8889:8905   */\n      and\n        /* \"#utility.yul\":8886:9337   */\n      iszero\n      tag_696\n      jumpi\n        /* \"#utility.yul\":9318:9322   */\n      dup1\n        /* \"#utility.yul\":9311:9316   */\n      dup3\n        /* \"#utility.yul\":9307:9323   */\n      mul\n        /* \"#utility.yul\":9298:9323   */\n      swap2\n      pop\n        /* \"#utility.yul\":8886:9337   */\n    tag_696:\n        /* \"#utility.yul\":9368:9372   */\n      dup1\n        /* \"#utility.yul\":9362:9366   */\n      dup2\n        /* \"#utility.yul\":9358:9373   */\n      mul\n        /* \"#utility.yul\":9350:9373   */\n      swap1\n      pop\n        /* \"#utility.yul\":9398:9430   */\n      tag_697\n        /* \"#utility.yul\":9421:9429   */\n      dup6\n        /* \"#utility.yul\":9398:9430   */\n      tag_534\n      jump\t// in\n    tag_697:\n        /* \"#utility.yul\":9386:9430   */\n      swap5\n      pop\n        /* \"#utility.yul\":8728:9440   */\n      jump(tag_691)\n    tag_693:\n        /* \"#utility.yul\":8598:9446   */\n      swap5\n      pop\n      swap5\n      swap3\n      pop\n      pop\n      pop\n      jump\t// out\n        /* \"#utility.yul\":9452:10525   */\n    tag_536:\n        /* \"#utility.yul\":9506:9511   */\n      0x00\n        /* \"#utility.yul\":9697:9705   */\n      dup3\n        /* \"#utility.yul\":9687:9727   */\n      tag_699\n      jumpi\n        /* \"#utility.yul\":9718:9719   */\n      0x01\n        /* \"#utility.yul\":9709:9719   */\n      swap1\n      pop\n        /* \"#utility.yul\":9720:9725   */\n      jump(tag_698)\n        /* \"#utility.yul\":9687:9727   */\n    tag_699:\n        /* \"#utility.yul\":9746:9750   */\n      dup2\n        /* \"#utility.yul\":9736:9772   */\n      tag_700\n      jumpi\n        /* \"#utility.yul\":9763:9764   */\n      0x00\n        /* \"#utility.yul\":9754:9764   */\n      swap1\n      pop\n        /* \"#utility.yul\":9765:9770   */\n      jump(tag_698)\n        /* \"#utility.yul\":9736:9772   */\n    tag_700:\n        /* \"#utility.yul\":9832:9836   */\n      dup2\n        /* \"#utility.yul\":9880:9881   */\n      0x01\n        /* \"#utility.yul\":9875:9902   */\n      dup2\n      eq\n      tag_702\n      jumpi\n        /* \"#utility.yul\":9916:9917   */\n      0x02\n        /* \"#utility.yul\":9911:10102   */\n      dup2\n      eq\n      tag_703\n      jumpi\n        /* \"#utility.yul\":9825:10102   */\n      jump(tag_701)\n        /* \"#utility.yul\":9875:9902   */\n    tag_702:\n        /* \"#utility.yul\":9893:9894   */\n      0x01\n        /* \"#utility.yul\":9884:9894   */\n      swap2\n      pop\n        /* \"#utility.yul\":9895:9900   */\n      pop\n      jump(tag_698)\n        /* \"#utility.yul\":9911:10102   */\n    tag_703:\n        /* \"#utility.yul\":9956:9959   */\n      0xff\n        /* \"#utility.yul\":9946:9954   */\n      dup5\n        /* \"#utility.yul\":9943:9960   */\n      gt\n        /* \"#utility.yul\":9940:9983   */\n      iszero\n      tag_704\n      jumpi\n        /* \"#utility.yul\":9963:9981   */\n      tag_705\n      tag_533\n      jump\t// in\n    tag_705:\n        /* \"#utility.yul\":9940:9983   */\n    tag_704:\n        /* \"#utility.yul\":10012:10020   */\n      dup4\n        /* \"#utility.yul\":10009:10010   */\n      0x02\n        /* \"#utility.yul\":10005:10021   */\n      exp\n        /* \"#utility.yul\":9996:10021   */\n      swap2\n      pop\n        /* \"#utility.yul\":10047:10050   */\n      dup5\n        /* \"#utility.yul\":10040:10045   */\n      dup3\n        /* \"#utility.yul\":10037:10051   */\n      gt\n        /* \"#utility.yul\":10034:10074   */\n      iszero\n      tag_706\n      jumpi\n        /* \"#utility.yul\":10054:10072   */\n      tag_707\n      tag_533\n      jump\t// in\n    tag_707:\n        /* \"#utility.yul\":10034:10074   */\n    tag_706:\n        /* \"#utility.yul\":10087:10092   */\n      pop\n      jump(tag_698)\n        /* \"#utility.yul\":9825:10102   */\n    tag_701:\n      pop\n        /* \"#utility.yul\":10211:10213   */\n      0x20\n        /* \"#utility.yul\":10201:10209   */\n      dup4\n        /* \"#utility.yul\":10198:10214   */\n      lt\n        /* \"#utility.yul\":10192:10195   */\n      0x0133\n        /* \"#utility.yul\":10186:10190   */\n      dup4\n        /* \"#utility.yul\":10183:10196   */\n      lt\n        /* \"#utility.yul\":10179:10215   */\n      and\n        /* \"#utility.yul\":10161:10163   */\n      0x4e\n        /* \"#utility.yul\":10151:10159   */\n      dup5\n        /* \"#utility.yul\":10148:10164   */\n      lt\n        /* \"#utility.yul\":10143:10145   */\n      0x0b\n        /* \"#utility.yul\":10137:10141   */\n      dup5\n        /* \"#utility.yul\":10134:10146   */\n      lt\n        /* \"#utility.yul\":10130:10165   */\n      and\n        /* \"#utility.yul\":10114:10225   */\n      or\n        /* \"#utility.yul\":10111:10357   */\n      iszero\n      tag_708\n      jumpi\n        /* \"#utility.yul\":10267:10275   */\n      dup3\n        /* \"#utility.yul\":10261:10265   */\n      dup3\n        /* \"#utility.yul\":10257:10276   */\n      exp\n        /* \"#utility.yul\":10248:10276   */\n      swap1\n      pop\n        /* \"#utility.yul\":10302:10305   */\n      dup4\n        /* \"#utility.yul\":10295:10300   */\n      dup2\n        /* \"#utility.yul\":10292:10306   */\n      gt\n        /* \"#utility.yul\":10289:10329   */\n      iszero\n      tag_709\n      jumpi\n        /* \"#utility.yul\":10309:10327   */\n      tag_710\n      tag_533\n      jump\t// in\n    tag_710:\n        /* \"#utility.yul\":10289:10329   */\n    tag_709:\n        /* \"#utility.yul\":10342:10347   */\n      jump(tag_698)\n        /* \"#utility.yul\":10111:10357   */\n    tag_708:\n        /* \"#utility.yul\":10382:10424   */\n      tag_711\n        /* \"#utility.yul\":10420:10423   */\n      dup5\n        /* \"#utility.yul\":10410:10418   */\n      dup5\n        /* \"#utility.yul\":10404:10408   */\n      dup5\n        /* \"#utility.yul\":10401:10402   */\n      0x01\n        /* \"#utility.yul\":10382:10424   */\n      tag_535\n      jump\t// in\n    tag_711:\n        /* \"#utility.yul\":10367:10424   */\n      swap3\n      pop\n      swap1\n      pop\n        /* \"#utility.yul\":10456:10460   */\n      dup2\n        /* \"#utility.yul\":10451:10454   */\n      dup5\n        /* \"#utility.yul\":10447:10461   */\n      div\n        /* \"#utility.yul\":10440:10445   */\n      dup2\n        /* \"#utility.yul\":10437:10462   */\n      gt\n        /* \"#utility.yul\":10434:10485   */\n      iszero\n      tag_712\n      jumpi\n        /* \"#utility.yul\":10465:10483   */\n      tag_713\n      tag_533\n      jump\t// in\n    tag_713:\n        /* \"#utility.yul\":10434:10485   */\n    tag_712:\n        /* \"#utility.yul\":10514:10518   */\n      dup2\n        /* \"#utility.yul\":10507:10512   */\n      dup2\n        /* \"#utility.yul\":10503:10519   */\n      mul\n        /* \"#utility.yul\":10494:10519   */\n      swap1\n      pop\n        /* \"#utility.yul\":9452:10525   */\n    tag_698:\n      swap4\n      swap3\n      pop\n      pop\n      pop\n      jump\t// out\n        /* \"#utility.yul\":10531:10816   */\n    tag_208:\n        /* \"#utility.yul\":10591:10596   */\n      0x00\n        /* \"#utility.yul\":10615:10638   */\n      tag_715\n        /* \"#utility.yul\":10633:10637   */\n      dup3\n        /* \"#utility.yul\":10615:10638   */\n      tag_514\n      jump\t// in\n    tag_715:\n        /* \"#utility.yul\":10607:10638   */\n      swap2\n      pop\n        /* \"#utility.yul\":10659:10686   */\n      tag_716\n        /* \"#utility.yul\":10677:10685   */\n      dup4\n        /* \"#utility.yul\":10659:10686   */\n      tag_514\n      jump\t// in\n    tag_716:\n        /* \"#utility.yul\":10647:10686   */\n      swap3\n      pop\n        /* \"#utility.yul\":10705:10809   */\n      tag_717\n        /* \"#utility.yul\":10742:10808   */\n      0xffffffffffffffffffffffffffffffffffffffffffffffffffffffffffffffff\n        /* \"#utility.yul\":10732:10740   */\n      dup5\n        /* \"#utility.yul\":10726:10730   */\n      dup5\n        /* \"#utility.yul\":10705:10809   */\n      tag_536\n      jump\t// in\n    tag_717:\n        /* \"#utility.yul\":10696:10809   */\n      swap1\n      pop\n        /* \"#utility.yul\":10531:10816   */\n      swap3\n      swap2\n      pop\n      pop\n      jump\t// out\n        /* \"#utility.yul\":10822:11232   */\n    tag_210:\n        /* \"#utility.yul\":10862:10869   */\n      0x00\n        /* \"#utility.yul\":10885:10905   */\n      tag_719\n        /* \"#utility.yul\":10903:10904   */\n      dup3\n        /* \"#utility.yul\":10885:10905   */\n      tag_514\n      jump\t// in\n    tag_719:\n        /* \"#utility.yul\":10880:10905   */\n      swap2\n      pop\n        /* \"#utility.yul\":10919:10939   */\n      tag_720\n        /* \"#utility.yul\":10937:10938   */\n      dup4\n        /* \"#utility.yul\":10919:10939   */\n      tag_514\n      jump\t// in\n    tag_720:\n        /* \"#utility.yul\":10914:10939   */\n      swap3\n      pop\n        /* \"#utility.yul\":10974:10975   */\n      dup3\n        /* \"#utility.yul\":10971:10972   */\n      dup3\n        /* \"#utility.yul\":10967:10976   */\n      mul\n        /* \"#utility.yul\":10996:11026   */\n      tag_721\n        /* \"#utility.yul\":11014:11025   */\n      dup2\n        /* \"#utility.yul\":10996:11026   */\n      tag_514\n      jump\t// in\n    tag_721:\n        /* \"#utility.yul\":10985:11026   */\n      swap2\n      pop\n        /* \"#utility.yul\":11175:11176   */\n      dup3\n        /* \"#utility.yul\":11166:11173   */\n      dup3\n        /* \"#utility.yul\":11162:11177   */\n      div\n        /* \"#utility.yul\":11159:11160   */\n      dup5\n        /* \"#utility.yul\":11156:11178   */\n      eq\n        /* \"#utility.yul\":11136:11137   */\n      dup4\n        /* \"#utility.yul\":11129:11138   */\n      iszero\n        /* \"#utility.yul\":11109:11192   */\n      or\n        /* \"#utility.yul\":11086:11225   */\n      tag_722\n      jumpi\n        /* \"#utility.yul\":11205:11223   */\n      tag_723\n      tag_533\n      jump\t// in\n    tag_723:\n        /* \"#utility.yul\":11086:11225   */\n    tag_722:\n        /* \"#utility.yul\":10870:11232   */\n      pop\n        /* \"#utility.yul\":10822:11232   */\n      swap3\n      swap2\n      pop\n      pop\n      jump\t// out\n        /* \"#utility.yul\":11238:11418   */\n    tag_537:\n        /* \"#utility.yul\":11286:11363   */\n      0x4e487b7100000000000000000000000000000000000000000000000000000000\n        /* \"#utility.yul\":11283:11284   */\n      0x00\n        /* \"#utility.yul\":11276:11364   */\n      mstore\n        /* \"#utility.yul\":11383:11387   */\n      0x12\n        /* \"#utility.yul\":11380:11381   */\n      0x04\n        /* \"#utility.yul\":11373:11388   */\n      mstore\n        /* \"#utility.yul\":11407:11411   */\n      0x24\n        /* \"#utility.yul\":11404:11405   */\n      0x00\n        /* \"#utility.yul\":11397:11412   */\n      revert\n        /* \"#utility.yul\":11424:11609   */\n    tag_212:\n        /* \"#utility.yul\":11464:11465   */\n      0x00\n        /* \"#utility.yul\":11481:11501   */\n      tag_726\n        /* \"#utility.yul\":11499:11500   */\n      dup3\n        /* \"#utility.yul\":11481:11501   */\n      tag_514\n      jump\t// in\n    tag_726:\n        /* \"#utility.yul\":11476:11501   */\n      swap2\n      pop\n        /* \"#utility.yul\":11515:11535   */\n      tag_727\n        /* \"#utility.yul\":11533:11534   */\n      dup4\n        /* \"#utility.yul\":11515:11535   */\n      tag_514\n      jump\t// in\n    tag_727:\n        /* \"#utility.yul\":11510:11535   */\n      swap3\n      pop\n        /* \"#utility.yul\":11554:11555   */\n      dup3\n        /* \"#utility.yul\":11544:11579   */\n      tag_728\n      jumpi\n        /* \"#utility.yul\":11559:11577   */\n      tag_729\n      tag_537\n      jump\t// in\n    tag_729:\n        /* \"#utility.yul\":11544:11579   */\n    tag_728:\n        /* \"#utility.yul\":11601:11602   */\n      dup3\n        /* \"#utility.yul\":11598:11599   */\n      dup3\n        /* \"#utility.yul\":11594:11603   */\n      div\n        /* \"#utility.yul\":11589:11603   */\n      swap1\n      pop\n        /* \"#utility.yul\":11424:11609   */\n      swap3\n      swap2\n      pop\n      pop\n      jump\t// out\n        /* \"#utility.yul\":11615:11797   */\n    tag_538:\n        /* \"#utility.yul\":11755:11789   */\n      0x4f776e61626c653a2063616c6c6572206973206e6f7420746865206f776e6572\n        /* \"#utility.yul\":11751:11752   */\n      0x00\n        /* \"#utility.yul\":11743:11749   */\n      dup3\n        /* \"#utility.yul\":11739:11753   */\n      add\n        /* \"#utility.yul\":11732:11790   */\n      mstore\n        /* \"#utility.yul\":11615:11797   */\n      pop\n      jump\t// out\n        /* \"#utility.yul\":11803:12169   */\n    tag_539:\n        /* \"#utility.yul\":11945:11948   */\n      0x00\n        /* \"#utility.yul\":11966:12033   */\n      tag_732\n        /* \"#utility.yul\":12030:12032   */\n      0x20\n        /* \"#utility.yul\":12025:12028   */\n      dup4\n        /* \"#utility.yul\":11966:12033   */\n      tag_530\n      jump\t// in\n    tag_732:\n        /* \"#utility.yul\":11959:12033   */\n      swap2\n      pop\n        /* \"#utility.yul\":12042:12135   */\n      tag_733\n        /* \"#utility.yul\":12131:12134   */\n      dup3\n        /* \"#utility.yul\":12042:12135   */\n      tag_538\n      jump\t// in\n    tag_733:\n        /* \"#utility.yul\":12160:12162   */\n      0x20\n        /* \"#utility.yul\":12155:12158   */\n      dup3\n        /* \"#utility.yul\":12151:12163   */\n      add\n        /* \"#utility.yul\":12144:12163   */\n      swap1\n      pop\n        /* \"#utility.yul\":11803:12169   */\n      swap2\n      swap1\n      pop\n      jump\t// out\n        /* \"#utility.yul\":12175:12594   */\n    tag_231:\n        /* \"#utility.yul\":12341:12345   */\n      0x00\n        /* \"#utility.yul\":12379:12381   */\n      0x20\n        /* \"#utility.yul\":12368:12377   */\n      dup3\n        /* \"#utility.yul\":12364:12382   */\n      add\n        /* \"#utility.yul\":12356:12382   */\n      swap1\n      pop\n        /* \"#utility.yul\":12428:12437   */\n      dup2\n        /* \"#utility.yul\":12422:12426   */\n      dup2\n        /* \"#utility.yul\":12418:12438   */\n      sub\n        /* \"#utility.yul\":12414:12415   */\n      0x00\n        /* \"#utility.yul\":12403:12412   */\n      dup4\n        /* \"#utility.yul\":12399:12416   */\n      add\n        /* \"#utility.yul\":12392:12439   */\n      mstore\n        /* \"#utility.yul\":12456:12587   */\n      tag_735\n        /* \"#utility.yul\":12582:12586   */\n      dup2\n        /* \"#utility.yul\":12456:12587   */\n      tag_539\n      jump\t// in\n    tag_735:\n        /* \"#utility.yul\":12448:12587   */\n      swap1\n      pop\n        /* \"#utility.yul\":12175:12594   */\n      swap2\n      swap1\n      pop\n      jump\t// out\n        /* \"#utility.yul\":12600:12821   */\n    tag_540:\n        /* \"#utility.yul\":12740:12774   */\n      0x50726573616c653a2050726573616c6520686173206e6f7420656e6465642079\n        /* \"#utility.yul\":12736:12737   */\n      0x00\n        /* \"#utility.yul\":12728:12734   */\n      dup3\n        /* \"#utility.yul\":12724:12738   */\n      add\n        /* \"#utility.yul\":12717:12775   */\n      mstore\n        /* \"#utility.yul\":12809:12813   */\n      0x6574000000000000000000000000000000000000000000000000000000000000\n        /* \"#utility.yul\":12804:12806   */\n      0x20\n        /* \"#utility.yul\":12796:12802   */\n      dup3\n        /* \"#utility.yul\":12792:12807   */\n      add\n        /* \"#utility.yul\":12785:12814   */\n      mstore\n        /* \"#utility.yul\":12600:12821   */\n      pop\n      jump\t// out\n        /* \"#utility.yul\":12827:13193   */\n    tag_541:\n        /* \"#utility.yul\":12969:12972   */\n      0x00\n        /* \"#utility.yul\":12990:13057   */\n      tag_738\n        /* \"#utility.yul\":13054:13056   */\n      0x22\n        /* \"#utility.yul\":13049:13052   */\n      dup4\n        /* \"#utility.yul\":12990:13057   */\n      tag_530\n      jump\t// in\n    tag_738:\n        /* \"#utility.yul\":12983:13057   */\n      swap2\n      pop\n        /* \"#utility.yul\":13066:13159   */\n      tag_739\n        /* \"#utility.yul\":13155:13158   */\n      dup3\n        /* \"#utility.yul\":13066:13159   */\n      tag_540\n      jump\t// in\n    tag_739:\n        /* \"#utility.yul\":13184:13186   */\n      0x40\n        /* \"#utility.yul\":13179:13182   */\n      dup3\n        /* \"#utility.yul\":13175:13187   */\n      add\n        /* \"#utility.yul\":13168:13187   */\n      swap1\n      pop\n        /* \"#utility.yul\":12827:13193   */\n      swap2\n      swap1\n      pop\n      jump\t// out\n        /* \"#utility.yul\":13199:13618   */\n    tag_235:\n        /* \"#utility.yul\":13365:13369   */\n      0x00\n        /* \"#utility.yul\":13403:13405   */\n      0x20\n        /* \"#utility.yul\":13392:13401   */\n      dup3\n        /* \"#utility.yul\":13388:13406   */\n      add\n        /* \"#utility.yul\":13380:13406   */\n      swap1\n      pop\n        /* \"#utility.yul\":13452:13461   */\n      dup2\n        /* \"#utility.yul\":13446:13450   */\n      dup2\n        /* \"#utility.yul\":13442:13462   */\n      sub\n        /* \"#utility.yul\":13438:13439   */\n      0x00\n        /* \"#utility.yul\":13427:13436   */\n      dup4\n        /* \"#utility.yul\":13423:13440   */\n      add\n        /* \"#utility.yul\":13416:13463   */\n      mstore\n        /* \"#utility.yul\":13480:13611   */\n      tag_741\n        /* \"#utility.yul\":13606:13610   */\n      dup2\n        /* \"#utility.yul\":13480:13611   */\n      tag_541\n      jump\t// in\n    tag_741:\n        /* \"#utility.yul\":13472:13611   */\n      swap1\n      pop\n        /* \"#utility.yul\":13199:13618   */\n      swap2\n      swap1\n      pop\n      jump\t// out\n        /* \"#utility.yul\":13624:13849   */\n    tag_542:\n        /* \"#utility.yul\":13764:13798   */\n      0x50726573616c653a20556e6c6f636b696e672068617320616c72656164792073\n        /* \"#utility.yul\":13760:13761   */\n      0x00\n        /* \"#utility.yul\":13752:13758   */\n      dup3\n        /* \"#utility.yul\":13748:13762   */\n      add\n        /* \"#utility.yul\":13741:13799   */\n      mstore\n        /* \"#utility.yul\":13833:13841   */\n      0x7461727465640000000000000000000000000000000000000000000000000000\n        /* \"#utility.yul\":13828:13830   */\n      0x20\n        /* \"#utility.yul\":13820:13826   */\n      dup3\n        /* \"#utility.yul\":13816:13831   */\n      add\n        /* \"#utility.yul\":13809:13842   */\n      mstore\n        /* \"#utility.yul\":13624:13849   */\n      pop\n      jump\t// out\n        /* \"#utility.yul\":13855:14221   */\n    tag_543:\n        /* \"#utility.yul\":13997:14000   */\n      0x00\n        /* \"#utility.yul\":14018:14085   */\n      tag_744\n        /* \"#utility.yul\":14082:14084   */\n      0x26\n        /* \"#utility.yul\":14077:14080   */\n      dup4\n        /* \"#utility.yul\":14018:14085   */\n      tag_530\n      jump\t// in\n    tag_744:\n        /* \"#utility.yul\":14011:14085   */\n      swap2\n      pop\n        /* \"#utility.yul\":14094:14187   */\n      tag_745\n        /* \"#utility.yul\":14183:14186   */\n      dup3\n        /* \"#utility.yul\":14094:14187   */\n      tag_542\n      jump\t// in\n    tag_745:\n        /* \"#utility.yul\":14212:14214   */\n      0x40\n        /* \"#utility.yul\":14207:14210   */\n      dup3\n        /* \"#utility.yul\":14203:14215   */\n      add\n        /* \"#utility.yul\":14196:14215   */\n      swap1\n      pop\n        /* \"#utility.yul\":13855:14221   */\n      swap2\n      swap1\n      pop\n      jump\t// out\n        /* \"#utility.yul\":14227:14646   */\n    tag_239:\n        /* \"#utility.yul\":14393:14397   */\n      0x00\n        /* \"#utility.yul\":14431:14433   */\n      0x20\n        /* \"#utility.yul\":14420:14429   */\n      dup3\n        /* \"#utility.yul\":14416:14434   */\n      add\n        /* \"#utility.yul\":14408:14434   */\n      swap1\n      pop\n        /* \"#utility.yul\":14480:14489   */\n      dup2\n        /* \"#utility.yul\":14474:14478   */\n      dup2\n        /* \"#utility.yul\":14470:14490   */\n      sub\n        /* \"#utility.yul\":14466:14467   */\n      0x00\n        /* \"#utility.yul\":14455:14464   */\n      dup4\n        /* \"#utility.yul\":14451:14468   */\n      add\n        /* \"#utility.yul\":14444:14491   */\n      mstore\n        /* \"#utility.yul\":14508:14639   */\n      tag_747\n        /* \"#utility.yul\":14634:14638   */\n      dup2\n        /* \"#utility.yul\":14508:14639   */\n      tag_543\n      jump\t// in\n    tag_747:\n        /* \"#utility.yul\":14500:14639   */\n      swap1\n      pop\n        /* \"#utility.yul\":14227:14646   */\n      swap2\n      swap1\n      pop\n      jump\t// out\n        /* \"#utility.yul\":14652:14756   */\n    tag_544:\n        /* \"#utility.yul\":14717:14723   */\n      0x00\n        /* \"#utility.yul\":14745:14749   */\n      0x04\n        /* \"#utility.yul\":14735:14749   */\n      swap1\n      pop\n        /* \"#utility.yul\":14652:14756   */\n      swap2\n      swap1\n      pop\n      jump\t// out\n        /* \"#utility.yul\":14762:14905   */\n    tag_545:\n        /* \"#utility.yul\":14859:14870   */\n      0x00\n        /* \"#utility.yul\":14896:14899   */\n      dup2\n        /* \"#utility.yul\":14881:14899   */\n      swap1\n      pop\n        /* \"#utility.yul\":14762:14905   */\n      swap3\n      swap2\n      pop\n      pop\n      jump\t// out\n        /* \"#utility.yul\":14911:15009   */\n    tag_546:\n        /* \"#utility.yul\":14976:14980   */\n      0x00\n        /* \"#utility.yul\":14999:15002   */\n      dup2\n        /* \"#utility.yul\":14991:15002   */\n      swap1\n      pop\n        /* \"#utility.yul\":14911:15009   */\n      swap2\n      swap1\n      pop\n      jump\t// out\n        /* \"#utility.yul\":15015:15123   */\n    tag_547:\n        /* \"#utility.yul\":15092:15116   */\n      tag_752\n        /* \"#utility.yul\":15110:15115   */\n      dup2\n        /* \"#utility.yul\":15092:15116   */\n      tag_514\n      jump\t// in\n    tag_752:\n        /* \"#utility.yul\":15087:15090   */\n      dup3\n        /* \"#utility.yul\":15080:15117   */\n      mstore\n        /* \"#utility.yul\":15015:15123   */\n      pop\n      pop\n      jump\t// out\n        /* \"#utility.yul\":15129:15308   */\n    tag_548:\n        /* \"#utility.yul\":15198:15208   */\n      0x00\n        /* \"#utility.yul\":15219:15265   */\n      tag_754\n        /* \"#utility.yul\":15261:15264   */\n      dup4\n        /* \"#utility.yul\":15253:15259   */\n      dup4\n        /* \"#utility.yul\":15219:15265   */\n      tag_547\n      jump\t// in\n    tag_754:\n        /* \"#utility.yul\":15297:15301   */\n      0x20\n        /* \"#utility.yul\":15292:15295   */\n      dup4\n        /* \"#utility.yul\":15288:15302   */\n      add\n        /* \"#utility.yul\":15274:15302   */\n      swap1\n      pop\n        /* \"#utility.yul\":15129:15308   */\n      swap3\n      swap2\n      pop\n      pop\n      jump\t// out\n        /* \"#utility.yul\":15314:15425   */\n    tag_549:\n        /* \"#utility.yul\":15382:15386   */\n      0x00\n        /* \"#utility.yul\":15414:15418   */\n      0x20\n        /* \"#utility.yul\":15409:15412   */\n      dup3\n        /* \"#utility.yul\":15405:15419   */\n      add\n        /* \"#utility.yul\":15397:15419   */\n      swap1\n      pop\n        /* \"#utility.yul\":15314:15425   */\n      swap2\n      swap1\n      pop\n      jump\t// out\n        /* \"#utility.yul\":15463:16157   */\n    tag_550:\n        /* \"#utility.yul\":15599:15651   */\n      tag_757\n        /* \"#utility.yul\":15645:15650   */\n      dup2\n        /* \"#utility.yul\":15599:15651   */\n      tag_544\n      jump\t// in\n    tag_757:\n        /* \"#utility.yul\":15667:15751   */\n      tag_758\n        /* \"#utility.yul\":15744:15750   */\n      dup2\n        /* \"#utility.yul\":15739:15742   */\n      dup5\n        /* \"#utility.yul\":15667:15751   */\n      tag_545\n      jump\t// in\n    tag_758:\n        /* \"#utility.yul\":15660:15751   */\n      swap3\n      pop\n        /* \"#utility.yul\":15775:15829   */\n      tag_759\n        /* \"#utility.yul\":15823:15828   */\n      dup3\n        /* \"#utility.yul\":15775:15829   */\n      tag_546\n      jump\t// in\n    tag_759:\n        /* \"#utility.yul\":15852:15859   */\n      dup1\n        /* \"#utility.yul\":15883:15884   */\n      0x00\n        /* \"#utility.yul\":15868:16150   */\n    tag_760:\n        /* \"#utility.yul\":15893:15899   */\n      dup4\n        /* \"#utility.yul\":15890:15891   */\n      dup2\n        /* \"#utility.yul\":15887:15900   */\n      lt\n        /* \"#utility.yul\":15868:16150   */\n      iszero\n      tag_762\n      jumpi\n        /* \"#utility.yul\":15969:15975   */\n      dup2\n        /* \"#utility.yul\":15963:15976   */\n      mload\n        /* \"#utility.yul\":15996:16059   */\n      tag_763\n        /* \"#utility.yul\":16055:16058   */\n      dup8\n        /* \"#utility.yul\":16040:16053   */\n      dup3\n        /* \"#utility.yul\":15996:16059   */\n      tag_548\n      jump\t// in\n    tag_763:\n        /* \"#utility.yul\":15989:16059   */\n      swap7\n      pop\n        /* \"#utility.yul\":16082:16140   */\n      tag_764\n        /* \"#utility.yul\":16133:16139   */\n      dup4\n        /* \"#utility.yul\":16082:16140   */\n      tag_549\n      jump\t// in\n    tag_764:\n        /* \"#utility.yul\":16072:16140   */\n      swap3\n      pop\n        /* \"#utility.yul\":15928:16150   */\n      pop\n        /* \"#utility.yul\":15915:15916   */\n      0x01\n        /* \"#utility.yul\":15912:15913   */\n      dup2\n        /* \"#utility.yul\":15908:15917   */\n      add\n        /* \"#utility.yul\":15903:15917   */\n      swap1\n      pop\n        /* \"#utility.yul\":15868:16150   */\n      jump(tag_760)\n    tag_762:\n        /* \"#utility.yul\":15872:15886   */\n      pop\n        /* \"#utility.yul\":15575:16157   */\n      pop\n      pop\n      pop\n        /* \"#utility.yul\":15463:16157   */\n      pop\n      pop\n      jump\t// out\n        /* \"#utility.yul\":16163:16588   */\n    tag_263:\n        /* \"#utility.yul\":16330:16334   */\n      0x00\n        /* \"#utility.yul\":16368:16371   */\n      0xa0\n        /* \"#utility.yul\":16357:16366   */\n      dup3\n        /* \"#utility.yul\":16353:16372   */\n      add\n        /* \"#utility.yul\":16345:16372   */\n      swap1\n      pop\n        /* \"#utility.yul\":16382:16453   */\n      tag_766\n        /* \"#utility.yul\":16450:16451   */\n      0x00\n        /* \"#utility.yul\":16439:16448   */\n      dup4\n        /* \"#utility.yul\":16435:16452   */\n      add\n        /* \"#utility.yul\":16426:16432   */\n      dup6\n        /* \"#utility.yul\":16382:16453   */\n      tag_529\n      jump\t// in\n    tag_766:\n        /* \"#utility.yul\":16463:16581   */\n      tag_767\n        /* \"#utility.yul\":16577:16579   */\n      0x20\n        /* \"#utility.yul\":16566:16575   */\n      dup4\n        /* \"#utility.yul\":16562:16580   */\n      add\n        /* \"#utility.yul\":16553:16559   */\n      dup5\n        /* \"#utility.yul\":16463:16581   */\n      tag_550\n      jump\t// in\n    tag_767:\n        /* \"#utility.yul\":16163:16588   */\n      swap4\n      swap3\n      pop\n      pop\n      pop\n      jump\t// out\n        /* \"#utility.yul\":16594:16817   */\n    tag_551:\n        /* \"#utility.yul\":16734:16768   */\n      0x50726573616c653a2050726573616c6520686173206e6f742073746172746564\n        /* \"#utility.yul\":16730:16731   */\n      0x00\n        /* \"#utility.yul\":16722:16728   */\n      dup3\n        /* \"#utility.yul\":16718:16732   */\n      add\n        /* \"#utility.yul\":16711:16769   */\n      mstore\n        /* \"#utility.yul\":16803:16809   */\n      0x2079657400000000000000000000000000000000000000000000000000000000\n        /* \"#utility.yul\":16798:16800   */\n      0x20\n        /* \"#utility.yul\":16790:16796   */\n      dup3\n        /* \"#utility.yul\":16786:16801   */\n      add\n        /* \"#utility.yul\":16779:16810   */\n      mstore\n        /* \"#utility.yul\":16594:16817   */\n      pop\n      jump\t// out\n        /* \"#utility.yul\":16823:17189   */\n    tag_552:\n        /* \"#utility.yul\":16965:16968   */\n      0x00\n        /* \"#utility.yul\":16986:17053   */\n      tag_770\n        /* \"#utility.yul\":17050:17052   */\n      0x24\n        /* \"#utility.yul\":17045:17048   */\n      dup4\n        /* \"#utility.yul\":16986:17053   */\n      tag_530\n      jump\t// in\n    tag_770:\n        /* \"#utility.yul\":16979:17053   */\n      swap2\n      pop\n        /* \"#utility.yul\":17062:17155   */\n      tag_771\n        /* \"#utility.yul\":17151:17154   */\n      dup3\n        /* \"#utility.yul\":17062:17155   */\n      tag_551\n      jump\t// in\n    tag_771:\n        /* \"#utility.yul\":17180:17182   */\n      0x40\n        /* \"#utility.yul\":17175:17178   */\n      dup3\n        /* \"#utility.yul\":17171:17183   */\n      add\n        /* \"#utility.yul\":17164:17183   */\n      swap1\n      pop\n        /* \"#utility.yul\":16823:17189   */\n      swap2\n      swap1\n      pop\n      jump\t// out\n        /* \"#utility.yul\":17195:17614   */\n    tag_269:\n        /* \"#utility.yul\":17361:17365   */\n      0x00\n        /* \"#utility.yul\":17399:17401   */\n      0x20\n        /* \"#utility.yul\":17388:17397   */\n      dup3\n        /* \"#utility.yul\":17384:17402   */\n      add\n        /* \"#utility.yul\":17376:17402   */\n      swap1\n      pop\n        /* \"#utility.yul\":17448:17457   */\n      dup2\n        /* \"#utility.yul\":17442:17446   */\n      dup2\n        /* \"#utility.yul\":17438:17458   */\n      sub\n        /* \"#utility.yul\":17434:17435   */\n      0x00\n        /* \"#utility.yul\":17423:17432   */\n      dup4\n        /* \"#utility.yul\":17419:17436   */\n      add\n        /* \"#utility.yul\":17412:17459   */\n      mstore\n        /* \"#utility.yul\":17476:17607   */\n      tag_773\n        /* \"#utility.yul\":17602:17606   */\n      dup2\n        /* \"#utility.yul\":17476:17607   */\n      tag_552\n      jump\t// in\n    tag_773:\n        /* \"#utility.yul\":17468:17607   */\n      swap1\n      pop\n        /* \"#utility.yul\":17195:17614   */\n      swap2\n      swap1\n      pop\n      jump\t// out\n        /* \"#utility.yul\":17620:17796   */\n    tag_553:\n        /* \"#utility.yul\":17760:17788   */\n      0x50726573616c653a2050726573616c652068617320656e646564000000000000\n        /* \"#utility.yul\":17756:17757   */\n      0x00\n        /* \"#utility.yul\":17748:17754   */\n      dup3\n        /* \"#utility.yul\":17744:17758   */\n      add\n        /* \"#utility.yul\":17737:17789   */\n      mstore\n        /* \"#utility.yul\":17620:17796   */\n      pop\n      jump\t// out\n        /* \"#utility.yul\":17802:18168   */\n    tag_554:\n        /* \"#utility.yul\":17944:17947   */\n      0x00\n        /* \"#utility.yul\":17965:18032   */\n      tag_776\n        /* \"#utility.yul\":18029:18031   */\n      0x1a\n        /* \"#utility.yul\":18024:18027   */\n      dup4\n        /* \"#utility.yul\":17965:18032   */\n      tag_530\n      jump\t// in\n    tag_776:\n        /* \"#utility.yul\":17958:18032   */\n      swap2\n      pop\n        /* \"#utility.yul\":18041:18134   */\n      tag_777\n        /* \"#utility.yul\":18130:18133   */\n      dup3\n        /* \"#utility.yul\":18041:18134   */\n      tag_553\n      jump\t// in\n    tag_777:\n        /* \"#utility.yul\":18159:18161   */\n      0x20\n        /* \"#utility.yul\":18154:18157   */\n      dup3\n        /* \"#utility.yul\":18150:18162   */\n      add\n        /* \"#utility.yul\":18143:18162   */\n      swap1\n      pop\n        /* \"#utility.yul\":17802:18168   */\n      swap2\n      swap1\n      pop\n      jump\t// out\n        /* \"#utility.yul\":18174:18593   */\n    tag_273:\n        /* \"#utility.yul\":18340:18344   */\n      0x00\n        /* \"#utility.yul\":18378:18380   */\n      0x20\n        /* \"#utility.yul\":18367:18376   */\n      dup3\n        /* \"#utility.yul\":18363:18381   */\n      add\n        /* \"#utility.yul\":18355:18381   */\n      swap1\n      pop\n        /* \"#utility.yul\":18427:18436   */\n      dup2\n        /* \"#utility.yul\":18421:18425   */\n      dup2\n        /* \"#utility.yul\":18417:18437   */\n      sub\n        /* \"#utility.yul\":18413:18414   */\n      0x00\n        /* \"#utility.yul\":18402:18411   */\n      dup4\n        /* \"#utility.yul\":18398:18415   */\n      add\n        /* \"#utility.yul\":18391:18438   */\n      mstore\n        /* \"#utility.yul\":18455:18586   */\n      tag_779\n        /* \"#utility.yul\":18581:18585   */\n      dup2\n        /* \"#utility.yul\":18455:18586   */\n      tag_554\n      jump\t// in\n    tag_779:\n        /* \"#utility.yul\":18447:18586   */\n      swap1\n      pop\n        /* \"#utility.yul\":18174:18593   */\n      swap2\n      swap1\n      pop\n      jump\t// out\n        /* \"#utility.yul\":18599:18820   */\n    tag_555:\n        /* \"#utility.yul\":18739:18773   */\n      0x50726573616c653a204d696e20627579206c696d6974206e6f74207265616368\n        /* \"#utility.yul\":18735:18736   */\n      0x00\n        /* \"#utility.yul\":18727:18733   */\n      dup3\n        /* \"#utility.yul\":18723:18737   */\n      add\n        /* \"#utility.yul\":18716:18774   */\n      mstore\n        /* \"#utility.yul\":18808:18812   */\n      0x6564000000000000000000000000000000000000000000000000000000000000\n        /* \"#utility.yul\":18803:18805   */\n      0x20\n        /* \"#utility.yul\":18795:18801   */\n      dup3\n        /* \"#utility.yul\":18791:18806   */\n      add\n        /* \"#utility.yul\":18784:18813   */\n      mstore\n        /* \"#utility.yul\":18599:18820   */\n      pop\n      jump\t// out\n        /* \"#utility.yul\":18826:19192   */\n    tag_556:\n        /* \"#utility.yul\":18968:18971   */\n      0x00\n        /* \"#utility.yul\":18989:19056   */\n      tag_782\n        /* \"#utility.yul\":19053:19055   */\n      0x22\n        /* \"#utility.yul\":19048:19051   */\n      dup4\n        /* \"#utility.yul\":18989:19056   */\n      tag_530\n      jump\t// in\n    tag_782:\n        /* \"#utility.yul\":18982:19056   */\n      swap2\n      pop\n        /* \"#utility.yul\":19065:19158   */\n      tag_783\n        /* \"#utility.yul\":19154:19157   */\n      dup3\n        /* \"#utility.yul\":19065:19158   */\n      tag_555\n      jump\t// in\n    tag_783:\n        /* \"#utility.yul\":19183:19185   */\n      0x40\n        /* \"#utility.yul\":19178:19181   */\n      dup3\n        /* \"#utility.yul\":19174:19186   */\n      add\n        /* \"#utility.yul\":19167:19186   */\n      swap1\n      pop\n        /* \"#utility.yul\":18826:19192   */\n      swap2\n      swap1\n      pop\n      jump\t// out\n        /* \"#utility.yul\":19198:19617   */\n    tag_281:\n        /* \"#utility.yul\":19364:19368   */\n      0x00\n        /* \"#utility.yul\":19402:19404   */\n      0x20\n        /* \"#utility.yul\":19391:19400   */\n      dup3\n        /* \"#utility.yul\":19387:19405   */\n      add\n        /* \"#utility.yul\":19379:19405   */\n      swap1\n      pop\n        /* \"#utility.yul\":19451:19460   */\n      dup2\n        /* \"#utility.yul\":19445:19449   */\n      dup2\n        /* \"#utility.yul\":19441:19461   */\n      sub\n        /* \"#utility.yul\":19437:19438   */\n      0x00\n        /* \"#utility.yul\":19426:19435   */\n      dup4\n        /* \"#utility.yul\":19422:19439   */\n      add\n        /* \"#utility.yul\":19415:19462   */\n      mstore\n        /* \"#utility.yul\":19479:19610   */\n      tag_785\n        /* \"#utility.yul\":19605:19609   */\n      dup2\n        /* \"#utility.yul\":19479:19610   */\n      tag_556\n      jump\t// in\n    tag_785:\n        /* \"#utility.yul\":19471:19610   */\n      swap1\n      pop\n        /* \"#utility.yul\":19198:19617   */\n      swap2\n      swap1\n      pop\n      jump\t// out\n        /* \"#utility.yul\":19623:19814   */\n    tag_283:\n        /* \"#utility.yul\":19663:19666   */\n      0x00\n        /* \"#utility.yul\":19682:19702   */\n      tag_787\n        /* \"#utility.yul\":19700:19701   */\n      dup3\n        /* \"#utility.yul\":19682:19702   */\n      tag_514\n      jump\t// in\n    tag_787:\n        /* \"#utility.yul\":19677:19702   */\n      swap2\n      pop\n        /* \"#utility.yul\":19716:19736   */\n      tag_788\n        /* \"#utility.yul\":19734:19735   */\n      dup4\n        /* \"#utility.yul\":19716:19736   */\n      tag_514\n      jump\t// in\n    tag_788:\n        /* \"#utility.yul\":19711:19736   */\n      swap3\n      pop\n        /* \"#utility.yul\":19759:19760   */\n      dup3\n        /* \"#utility.yul\":19756:19757   */\n      dup3\n        /* \"#utility.yul\":19752:19761   */\n      add\n        /* \"#utility.yul\":19745:19761   */\n      swap1\n      pop\n        /* \"#utility.yul\":19780:19783   */\n      dup1\n        /* \"#utility.yul\":19777:19778   */\n      dup3\n        /* \"#utility.yul\":19774:19784   */\n      gt\n        /* \"#utility.yul\":19771:19807   */\n      iszero\n      tag_789\n      jumpi\n        /* \"#utility.yul\":19787:19805   */\n      tag_790\n      tag_533\n      jump\t// in\n    tag_790:\n        /* \"#utility.yul\":19771:19807   */\n    tag_789:\n        /* \"#utility.yul\":19623:19814   */\n      swap3\n      swap2\n      pop\n      pop\n      jump\t// out\n        /* \"#utility.yul\":19820:20052   */\n    tag_557:\n        /* \"#utility.yul\":19960:19994   */\n      0x50726573616c653a204d617820627579206c696d697420726561636865642066\n        /* \"#utility.yul\":19956:19957   */\n      0x00\n        /* \"#utility.yul\":19948:19954   */\n      dup3\n        /* \"#utility.yul\":19944:19958   */\n      add\n        /* \"#utility.yul\":19937:19995   */\n      mstore\n        /* \"#utility.yul\":20029:20044   */\n      0x6f72207468697320706861736500000000000000000000000000000000000000\n        /* \"#utility.yul\":20024:20026   */\n      0x20\n        /* \"#utility.yul\":20016:20022   */\n      dup3\n        /* \"#utility.yul\":20012:20027   */\n      add\n        /* \"#utility.yul\":20005:20045   */\n      mstore\n        /* \"#utility.yul\":19820:20052   */\n      pop\n      jump\t// out\n        /* \"#utility.yul\":20058:20424   */\n    tag_558:\n        /* \"#utility.yul\":20200:20203   */\n      0x00\n        /* \"#utility.yul\":20221:20288   */\n      tag_793\n        /* \"#utility.yul\":20285:20287   */\n      0x2d\n        /* \"#utility.yul\":20280:20283   */\n      dup4\n        /* \"#utility.yul\":20221:20288   */\n      tag_530\n      jump\t// in\n    tag_793:\n        /* \"#utility.yul\":20214:20288   */\n      swap2\n      pop\n        /* \"#utility.yul\":20297:20390   */\n      tag_794\n        /* \"#utility.yul\":20386:20389   */\n      dup3\n        /* \"#utility.yul\":20297:20390   */\n      tag_557\n      jump\t// in\n    tag_794:\n        /* \"#utility.yul\":20415:20417   */\n      0x40\n        /* \"#utility.yul\":20410:20413   */\n      dup3\n        /* \"#utility.yul\":20406:20418   */\n      add\n        /* \"#utility.yul\":20399:20418   */\n      swap1\n      pop\n        /* \"#utility.yul\":20058:20424   */\n      swap2\n      swap1\n      pop\n      jump\t// out\n        /* \"#utility.yul\":20430:20849   */\n    tag_286:\n        /* \"#utility.yul\":20596:20600   */\n      0x00\n        /* \"#utility.yul\":20634:20636   */\n      0x20\n        /* \"#utility.yul\":20623:20632   */\n      dup3\n        /* \"#utility.yul\":20619:20637   */\n      add\n        /* \"#utility.yul\":20611:20637   */\n      swap1\n      pop\n        /* \"#utility.yul\":20683:20692   */\n      dup2\n        /* \"#utility.yul\":20677:20681   */\n      dup2\n        /* \"#utility.yul\":20673:20693   */\n      sub\n        /* \"#utility.yul\":20669:20670   */\n      0x00\n        /* \"#utility.yul\":20658:20667   */\n      dup4\n        /* \"#utility.yul\":20654:20671   */\n      add\n        /* \"#utility.yul\":20647:20694   */\n      mstore\n        /* \"#utility.yul\":20711:20842   */\n      tag_796\n        /* \"#utility.yul\":20837:20841   */\n      dup2\n        /* \"#utility.yul\":20711:20842   */\n      tag_558\n      jump\t// in\n    tag_796:\n        /* \"#utility.yul\":20703:20842   */\n      swap1\n      pop\n        /* \"#utility.yul\":20430:20849   */\n      swap2\n      swap1\n      pop\n      jump\t// out\n        /* \"#utility.yul\":20855:21076   */\n    tag_559:\n        /* \"#utility.yul\":20995:21029   */\n      0x50726573616c653a20546f74616c20546f6b656e2053616c6520526561636865\n        /* \"#utility.yul\":20991:20992   */\n      0x00\n        /* \"#utility.yul\":20983:20989   */\n      dup3\n        /* \"#utility.yul\":20979:20993   */\n      add\n        /* \"#utility.yul\":20972:21030   */\n      mstore\n        /* \"#utility.yul\":21064:21068   */\n      0x6421000000000000000000000000000000000000000000000000000000000000\n        /* \"#utility.yul\":21059:21061   */\n      0x20\n        /* \"#utility.yul\":21051:21057   */\n      dup3\n        /* \"#utility.yul\":21047:21062   */\n      add\n        /* \"#utility.yul\":21040:21069   */\n      mstore\n        /* \"#utility.yul\":20855:21076   */\n      pop\n      jump\t// out\n        /* \"#utility.yul\":21082:21448   */\n    tag_560:\n        /* \"#utility.yul\":21224:21227   */\n      0x00\n        /* \"#utility.yul\":21245:21312   */\n      tag_799\n        /* \"#utility.yul\":21309:21311   */\n      0x22\n        /* \"#utility.yul\":21304:21307   */\n      dup4\n        /* \"#utility.yul\":21245:21312   */\n      tag_530\n      jump\t// in\n    tag_799:\n        /* \"#utility.yul\":21238:21312   */\n      swap2\n      pop\n        /* \"#utility.yul\":21321:21414   */\n      tag_800\n        /* \"#utility.yul\":21410:21413   */\n      dup3\n        /* \"#utility.yul\":21321:21414   */\n      tag_559\n      jump\t// in\n    tag_800:\n        /* \"#utility.yul\":21439:21441   */\n      0x40\n        /* \"#utility.yul\":21434:21437   */\n      dup3\n        /* \"#utility.yul\":21430:21442   */\n      add\n        /* \"#utility.yul\":21423:21442   */\n      swap1\n      pop\n        /* \"#utility.yul\":21082:21448   */\n      swap2\n      swap1\n      pop\n      jump\t// out\n        /* \"#utility.yul\":21454:21873   */\n    tag_290:\n        /* \"#utility.yul\":21620:21624   */\n      0x00\n        /* \"#utility.yul\":21658:21660   */\n      0x20\n        /* \"#utility.yul\":21647:21656   */\n      dup3\n        /* \"#utility.yul\":21643:21661   */\n      add\n        /* \"#utility.yul\":21635:21661   */\n      swap1\n      pop\n        /* \"#utility.yul\":21707:21716   */\n      dup2\n        /* \"#utility.yul\":21701:21705   */\n      dup2\n        /* \"#utility.yul\":21697:21717   */\n      sub\n        /* \"#utility.yul\":21693:21694   */\n      0x00\n        /* \"#utility.yul\":21682:21691   */\n      dup4\n        /* \"#utility.yul\":21678:21695   */\n      add\n        /* \"#utility.yul\":21671:21718   */\n      mstore\n        /* \"#utility.yul\":21735:21866   */\n      tag_802\n        /* \"#utility.yul\":21861:21865   */\n      dup2\n        /* \"#utility.yul\":21735:21866   */\n      tag_560\n      jump\t// in\n    tag_802:\n        /* \"#utility.yul\":21727:21866   */\n      swap1\n      pop\n        /* \"#utility.yul\":21454:21873   */\n      swap2\n      swap1\n      pop\n      jump\t// out\n        /* \"#utility.yul\":21879:22102   */\n    tag_561:\n        /* \"#utility.yul\":22019:22053   */\n      0x50726573616c653a2043616e6e6f74206275792077697468207a65726f20616d\n        /* \"#utility.yul\":22015:22016   */\n      0x00\n        /* \"#utility.yul\":22007:22013   */\n      dup3\n        /* \"#utility.yul\":22003:22017   */\n      add\n        /* \"#utility.yul\":21996:22054   */\n      mstore\n        /* \"#utility.yul\":22088:22094   */\n      0x6f756e7400000000000000000000000000000000000000000000000000000000\n        /* \"#utility.yul\":22083:22085   */\n      0x20\n        /* \"#utility.yul\":22075:22081   */\n      dup3\n        /* \"#utility.yul\":22071:22086   */\n      add\n        /* \"#utility.yul\":22064:22095   */\n      mstore\n        /* \"#utility.yul\":21879:22102   */\n      pop\n      jump\t// out\n        /* \"#utility.yul\":22108:22474   */\n    tag_562:\n        /* \"#utility.yul\":22250:22253   */\n      0x00\n        /* \"#utility.yul\":22271:22338   */\n      tag_805\n        /* \"#utility.yul\":22335:22337   */\n      0x24\n        /* \"#utility.yul\":22330:22333   */\n      dup4\n        /* \"#utility.yul\":22271:22338   */\n      tag_530\n      jump\t// in\n    tag_805:\n        /* \"#utility.yul\":22264:22338   */\n      swap2\n      pop\n        /* \"#utility.yul\":22347:22440   */\n      tag_806\n        /* \"#utility.yul\":22436:22439   */\n      dup3\n        /* \"#utility.yul\":22347:22440   */\n      tag_561\n      jump\t// in\n    tag_806:\n        /* \"#utility.yul\":22465:22467   */\n      0x40\n        /* \"#utility.yul\":22460:22463   */\n      dup3\n        /* \"#utility.yul\":22456:22468   */\n      add\n        /* \"#utility.yul\":22449:22468   */\n      swap1\n      pop\n        /* \"#utility.yul\":22108:22474   */\n      swap2\n      swap1\n      pop\n      jump\t// out\n        /* \"#utility.yul\":22480:22899   */\n    tag_294:\n        /* \"#utility.yul\":22646:22650   */\n      0x00\n        /* \"#utility.yul\":22684:22686   */\n      0x20\n        /* \"#utility.yul\":22673:22682   */\n      dup3\n        /* \"#utility.yul\":22669:22687   */\n      add\n        /* \"#utility.yul\":22661:22687   */\n      swap1\n      pop\n        /* \"#utility.yul\":22733:22742   */\n      dup2\n        /* \"#utility.yul\":22727:22731   */\n      dup2\n        /* \"#utility.yul\":22723:22743   */\n      sub\n        /* \"#utility.yul\":22719:22720   */\n      0x00\n        /* \"#utility.yul\":22708:22717   */\n      dup4\n        /* \"#utility.yul\":22704:22721   */\n      add\n        /* \"#utility.yul\":22697:22744   */\n      mstore\n        /* \"#utility.yul\":22761:22892   */\n      tag_808\n        /* \"#utility.yul\":22887:22891   */\n      dup2\n        /* \"#utility.yul\":22761:22892   */\n      tag_562\n      jump\t// in\n    tag_808:\n        /* \"#utility.yul\":22753:22892   */\n      swap1\n      pop\n        /* \"#utility.yul\":22480:22899   */\n      swap2\n      swap1\n      pop\n      jump\t// out\n        /* \"#utility.yul\":22905:23237   */\n    tag_302:\n        /* \"#utility.yul\":23026:23030   */\n      0x00\n        /* \"#utility.yul\":23064:23066   */\n      0x40\n        /* \"#utility.yul\":23053:23062   */\n      dup3\n        /* \"#utility.yul\":23049:23067   */\n      add\n        /* \"#utility.yul\":23041:23067   */\n      swap1\n      pop\n        /* \"#utility.yul\":23077:23148   */\n      tag_810\n        /* \"#utility.yul\":23145:23146   */\n      0x00\n        /* \"#utility.yul\":23134:23143   */\n      dup4\n        /* \"#utility.yul\":23130:23147   */\n      add\n        /* \"#utility.yul\":23121:23127   */\n      dup6\n        /* \"#utility.yul\":23077:23148   */\n      tag_517\n      jump\t// in\n    tag_810:\n        /* \"#utility.yul\":23158:23230   */\n      tag_811\n        /* \"#utility.yul\":23226:23228   */\n      0x20\n        /* \"#utility.yul\":23215:23224   */\n      dup4\n        /* \"#utility.yul\":23211:23229   */\n      add\n        /* \"#utility.yul\":23202:23208   */\n      dup5\n        /* \"#utility.yul\":23158:23230   */\n      tag_517\n      jump\t// in\n    tag_811:\n        /* \"#utility.yul\":22905:23237   */\n      swap4\n      swap3\n      pop\n      pop\n      pop\n      jump\t// out\n        /* \"#utility.yul\":23243:23472   */\n    tag_563:\n        /* \"#utility.yul\":23383:23417   */\n      0x50726573616c653a2053616c6520746f6b656e2063616e6e6f74206265207a65\n        /* \"#utility.yul\":23379:23380   */\n      0x00\n        /* \"#utility.yul\":23371:23377   */\n      dup3\n        /* \"#utility.yul\":23367:23381   */\n      add\n        /* \"#utility.yul\":23360:23418   */\n      mstore\n        /* \"#utility.yul\":23452:23464   */\n      0x726f206164647265737300000000000000000000000000000000000000000000\n        /* \"#utility.yul\":23447:23449   */\n      0x20\n        /* \"#utility.yul\":23439:23445   */\n      dup3\n        /* \"#utility.yul\":23435:23450   */\n      add\n        /* \"#utility.yul\":23428:23465   */\n      mstore\n        /* \"#utility.yul\":23243:23472   */\n      pop\n      jump\t// out\n        /* \"#utility.yul\":23478:23844   */\n    tag_564:\n        /* \"#utility.yul\":23620:23623   */\n      0x00\n        /* \"#utility.yul\":23641:23708   */\n      tag_814\n        /* \"#utility.yul\":23705:23707   */\n      0x2a\n        /* \"#utility.yul\":23700:23703   */\n      dup4\n        /* \"#utility.yul\":23641:23708   */\n      tag_530\n      jump\t// in\n    tag_814:\n        /* \"#utility.yul\":23634:23708   */\n      swap2\n      pop\n        /* \"#utility.yul\":23717:23810   */\n      tag_815\n        /* \"#utility.yul\":23806:23809   */\n      dup3\n        /* \"#utility.yul\":23717:23810   */\n      tag_563\n      jump\t// in\n    tag_815:\n        /* \"#utility.yul\":23835:23837   */\n      0x40\n        /* \"#utility.yul\":23830:23833   */\n      dup3\n        /* \"#utility.yul\":23826:23838   */\n      add\n        /* \"#utility.yul\":23819:23838   */\n      swap1\n      pop\n        /* \"#utility.yul\":23478:23844   */\n      swap2\n      swap1\n      pop\n      jump\t// out\n        /* \"#utility.yul\":23850:24269   */\n    tag_332:\n        /* \"#utility.yul\":24016:24020   */\n      0x00\n        /* \"#utility.yul\":24054:24056   */\n      0x20\n        /* \"#utility.yul\":24043:24052   */\n      dup3\n        /* \"#utility.yul\":24039:24057   */\n      add\n        /* \"#utility.yul\":24031:24057   */\n      swap1\n      pop\n        /* \"#utility.yul\":24103:24112   */\n      dup2\n        /* \"#utility.yul\":24097:24101   */\n      dup2\n        /* \"#utility.yul\":24093:24113   */\n      sub\n        /* \"#utility.yul\":24089:24090   */\n      0x00\n        /* \"#utility.yul\":24078:24087   */\n      dup4\n        /* \"#utility.yul\":24074:24091   */\n      add\n        /* \"#utility.yul\":24067:24114   */\n      mstore\n        /* \"#utility.yul\":24131:24262   */\n      tag_817\n        /* \"#utility.yul\":24257:24261   */\n      dup2\n        /* \"#utility.yul\":24131:24262   */\n      tag_564\n      jump\t// in\n    tag_817:\n        /* \"#utility.yul\":24123:24262   */\n      swap1\n      pop\n        /* \"#utility.yul\":23850:24269   */\n      swap2\n      swap1\n      pop\n      jump\t// out\n        /* \"#utility.yul\":24275:24507   */\n    tag_565:\n        /* \"#utility.yul\":24415:24449   */\n      0x50726573616c653a20546f74616c20746f6b656e7320666f722073616c652063\n        /* \"#utility.yul\":24411:24412   */\n      0x00\n        /* \"#utility.yul\":24403:24409   */\n      dup3\n        /* \"#utility.yul\":24399:24413   */\n      add\n        /* \"#utility.yul\":24392:24450   */\n      mstore\n        /* \"#utility.yul\":24484:24499   */\n      0x616e6e6f74206265207a65726f00000000000000000000000000000000000000\n        /* \"#utility.yul\":24479:24481   */\n      0x20\n        /* \"#utility.yul\":24471:24477   */\n      dup3\n        /* \"#utility.yul\":24467:24482   */\n      add\n        /* \"#utility.yul\":24460:24500   */\n      mstore\n        /* \"#utility.yul\":24275:24507   */\n      pop\n      jump\t// out\n        /* \"#utility.yul\":24513:24879   */\n    tag_566:\n        /* \"#utility.yul\":24655:24658   */\n      0x00\n        /* \"#utility.yul\":24676:24743   */\n      tag_820\n        /* \"#utility.yul\":24740:24742   */\n      0x2d\n        /* \"#utility.yul\":24735:24738   */\n      dup4\n        /* \"#utility.yul\":24676:24743   */\n      tag_530\n      jump\t// in\n    tag_820:\n        /* \"#utility.yul\":24669:24743   */\n      swap2\n      pop\n        /* \"#utility.yul\":24752:24845   */\n      tag_821\n        /* \"#utility.yul\":24841:24844   */\n      dup3\n        /* \"#utility.yul\":24752:24845   */\n      tag_565\n      jump\t// in\n    tag_821:\n        /* \"#utility.yul\":24870:24872   */\n      0x40\n        /* \"#utility.yul\":24865:24868   */\n      dup3\n        /* \"#utility.yul\":24861:24873   */\n      add\n        /* \"#utility.yul\":24854:24873   */\n      swap1\n      pop\n        /* \"#utility.yul\":24513:24879   */\n      swap2\n      swap1\n      pop\n      jump\t// out\n        /* \"#utility.yul\":24885:25304   */\n    tag_335:\n        /* \"#utility.yul\":25051:25055   */\n      0x00\n        /* \"#utility.yul\":25089:25091   */\n      0x20\n        /* \"#utility.yul\":25078:25087   */\n      dup3\n        /* \"#utility.yul\":25074:25092   */\n      add\n        /* \"#utility.yul\":25066:25092   */\n      swap1\n      pop\n        /* \"#utility.yul\":25138:25147   */\n      dup2\n        /* \"#utility.yul\":25132:25136   */\n      dup2\n        /* \"#utility.yul\":25128:25148   */\n      sub\n        /* \"#utility.yul\":25124:25125   */\n      0x00\n        /* \"#utility.yul\":25113:25122   */\n      dup4\n        /* \"#utility.yul\":25109:25126   */\n      add\n        /* \"#utility.yul\":25102:25149   */\n      mstore\n        /* \"#utility.yul\":25166:25297   */\n      tag_823\n        /* \"#utility.yul\":25292:25296   */\n      dup2\n        /* \"#utility.yul\":25166:25297   */\n      tag_566\n      jump\t// in\n    tag_823:\n        /* \"#utility.yul\":25158:25297   */\n      swap1\n      pop\n        /* \"#utility.yul\":24885:25304   */\n      swap2\n      swap1\n      pop\n      jump\t// out\n        /* \"#utility.yul\":25310:25396   */\n    tag_567:\n        /* \"#utility.yul\":25345:25352   */\n      0x00\n        /* \"#utility.yul\":25385:25389   */\n      0xff\n        /* \"#utility.yul\":25378:25383   */\n      dup3\n        /* \"#utility.yul\":25374:25390   */\n      and\n        /* \"#utility.yul\":25363:25390   */\n      swap1\n      pop\n        /* \"#utility.yul\":25310:25396   */\n      swap2\n      swap1\n      pop\n      jump\t// out\n        /* \"#utility.yul\":25402:25520   */\n    tag_568:\n        /* \"#utility.yul\":25473:25495   */\n      tag_826\n        /* \"#utility.yul\":25489:25494   */\n      dup2\n        /* \"#utility.yul\":25473:25495   */\n      tag_567\n      jump\t// in\n    tag_826:\n        /* \"#utility.yul\":25466:25471   */\n      dup2\n        /* \"#utility.yul\":25463:25496   */\n      eq\n        /* \"#utility.yul\":25453:25514   */\n      tag_827\n      jumpi\n        /* \"#utility.yul\":25510:25511   */\n      0x00\n        /* \"#utility.yul\":25507:25508   */\n      dup1\n        /* \"#utility.yul\":25500:25512   */\n      revert\n        /* \"#utility.yul\":25453:25514   */\n    tag_827:\n        /* \"#utility.yul\":25402:25520   */\n      pop\n      jump\t// out\n        /* \"#utility.yul\":25526:25665   */\n    tag_569:\n        /* \"#utility.yul\":25581:25586   */\n      0x00\n        /* \"#utility.yul\":25612:25618   */\n      dup2\n        /* \"#utility.yul\":25606:25619   */\n      mload\n        /* \"#utility.yul\":25597:25619   */\n      swap1\n      pop\n        /* \"#utility.yul\":25628:25659   */\n      tag_829\n        /* \"#utility.yul\":25653:25658   */\n      dup2\n        /* \"#utility.yul\":25628:25659   */\n      tag_568\n      jump\t// in\n    tag_829:\n        /* \"#utility.yul\":25526:25665   */\n      swap3\n      swap2\n      pop\n      pop\n      jump\t// out\n        /* \"#utility.yul\":25671:26018   */\n    tag_339:\n        /* \"#utility.yul\":25739:25745   */\n      0x00\n        /* \"#utility.yul\":25788:25790   */\n      0x20\n        /* \"#utility.yul\":25776:25785   */\n      dup3\n        /* \"#utility.yul\":25767:25774   */\n      dup5\n        /* \"#utility.yul\":25763:25786   */\n      sub\n        /* \"#utility.yul\":25759:25791   */\n      slt\n        /* \"#utility.yul\":25756:25875   */\n      iszero\n      tag_831\n      jumpi\n        /* \"#utility.yul\":25794:25873   */\n      tag_832\n      tag_508\n      jump\t// in\n    tag_832:\n        /* \"#utility.yul\":25756:25875   */\n    tag_831:\n        /* \"#utility.yul\":25914:25915   */\n      0x00\n        /* \"#utility.yul\":25939:26001   */\n      tag_833\n        /* \"#utility.yul\":25993:26000   */\n      dup5\n        /* \"#utility.yul\":25984:25990   */\n      dup3\n        /* \"#utility.yul\":25973:25982   */\n      dup6\n        /* \"#utility.yul\":25969:25991   */\n      add\n        /* \"#utility.yul\":25939:26001   */\n      tag_569\n      jump\t// in\n    tag_833:\n        /* \"#utility.yul\":25929:26001   */\n      swap2\n      pop\n        /* \"#utility.yul\":25885:26011   */\n      pop\n        /* \"#utility.yul\":25671:26018   */\n      swap3\n      swap2\n      pop\n      pop\n      jump\t// out\n        /* \"#utility.yul\":26024:26167   */\n    tag_570:\n        /* \"#utility.yul\":26081:26086   */\n      0x00\n        /* \"#utility.yul\":26112:26118   */\n      dup2\n        /* \"#utility.yul\":26106:26119   */\n      mload\n        /* \"#utility.yul\":26097:26119   */\n      swap1\n      pop\n        /* \"#utility.yul\":26128:26161   */\n      tag_835\n        /* \"#utility.yul\":26155:26160   */\n      dup2\n        /* \"#utility.yul\":26128:26161   */\n      tag_515\n      jump\t// in\n    tag_835:\n        /* \"#utility.yul\":26024:26167   */\n      swap3\n      swap2\n      pop\n      pop\n      jump\t// out\n        /* \"#utility.yul\":26173:26524   */\n    tag_345:\n        /* \"#utility.yul\":26243:26249   */\n      0x00\n        /* \"#utility.yul\":26292:26294   */\n      0x20\n        /* \"#utility.yul\":26280:26289   */\n      dup3\n        /* \"#utility.yul\":26271:26278   */\n      dup5\n        /* \"#utility.yul\":26267:26290   */\n      sub\n        /* \"#utility.yul\":26263:26295   */\n      slt\n        /* \"#utility.yul\":26260:26379   */\n      iszero\n      tag_837\n      jumpi\n        /* \"#utility.yul\":26298:26377   */\n      tag_838\n      tag_508\n      jump\t// in\n    tag_838:\n        /* \"#utility.yul\":26260:26379   */\n    tag_837:\n        /* \"#utility.yul\":26418:26419   */\n      0x00\n        /* \"#utility.yul\":26443:26507   */\n      tag_839\n        /* \"#utility.yul\":26499:26506   */\n      dup5\n        /* \"#utility.yul\":26490:26496   */\n      dup3\n        /* \"#utility.yul\":26479:26488   */\n      dup6\n        /* \"#utility.yul\":26475:26497   */\n      add\n        /* \"#utility.yul\":26443:26507   */\n      tag_570\n      jump\t// in\n    tag_839:\n        /* \"#utility.yul\":26433:26507   */\n      swap2\n      pop\n        /* \"#utility.yul\":26389:26517   */\n      pop\n        /* \"#utility.yul\":26173:26524   */\n      swap3\n      swap2\n      pop\n      pop\n      jump\t// out\n        /* \"#utility.yul\":26530:26862   */\n    tag_347:\n        /* \"#utility.yul\":26651:26655   */\n      0x00\n        /* \"#utility.yul\":26689:26691   */\n      0x40\n        /* \"#utility.yul\":26678:26687   */\n      dup3\n        /* \"#utility.yul\":26674:26692   */\n      add\n        /* \"#utility.yul\":26666:26692   */\n      swap1\n      pop\n        /* \"#utility.yul\":26702:26773   */\n      tag_841\n        /* \"#utility.yul\":26770:26771   */\n      0x00\n        /* \"#utility.yul\":26759:26768   */\n      dup4\n        /* \"#utility.yul\":26755:26772   */\n      add\n        /* \"#utility.yul\":26746:26752   */\n      dup6\n        /* \"#utility.yul\":26702:26773   */\n      tag_529\n      jump\t// in\n    tag_841:\n        /* \"#utility.yul\":26783:26855   */\n      tag_842\n        /* \"#utility.yul\":26851:26853   */\n      0x20\n        /* \"#utility.yul\":26840:26849   */\n      dup4\n        /* \"#utility.yul\":26836:26854   */\n      add\n        /* \"#utility.yul\":26827:26833   */\n      dup5\n        /* \"#utility.yul\":26783:26855   */\n      tag_517\n      jump\t// in\n    tag_842:\n        /* \"#utility.yul\":26530:26862   */\n      swap4\n      swap3\n      pop\n      pop\n      pop\n      jump\t// out\n        /* \"#utility.yul\":26868:27093   */\n    tag_571:\n        /* \"#utility.yul\":27008:27042   */\n      0x50726573616c653a20556e6c6f636b696e67206861736e277420737461727465\n        /* \"#utility.yul\":27004:27005   */\n      0x00\n        /* \"#utility.yul\":26996:27002   */\n      dup3\n        /* \"#utility.yul\":26992:27006   */\n      add\n        /* \"#utility.yul\":26985:27043   */\n      mstore\n        /* \"#utility.yul\":27077:27085   */\n      0x6420796574210000000000000000000000000000000000000000000000000000\n        /* \"#utility.yul\":27072:27074   */\n      0x20\n        /* \"#utility.yul\":27064:27070   */\n      dup3\n        /* \"#utility.yul\":27060:27075   */\n      add\n        /* \"#utility.yul\":27053:27086   */\n      mstore\n        /* \"#utility.yul\":26868:27093   */\n      pop\n      jump\t// out\n        /* \"#utility.yul\":27099:27465   */\n    tag_572:\n        /* \"#utility.yul\":27241:27244   */\n      0x00\n        /* \"#utility.yul\":27262:27329   */\n      tag_845\n        /* \"#utility.yul\":27326:27328   */\n      0x26\n        /* \"#utility.yul\":27321:27324   */\n      dup4\n        /* \"#utility.yul\":27262:27329   */\n      tag_530\n      jump\t// in\n    tag_845:\n        /* \"#utility.yul\":27255:27329   */\n      swap2\n      pop\n        /* \"#utility.yul\":27338:27431   */\n      tag_846\n        /* \"#utility.yul\":27427:27430   */\n      dup3\n        /* \"#utility.yul\":27338:27431   */\n      tag_571\n      jump\t// in\n    tag_846:\n        /* \"#utility.yul\":27456:27458   */\n      0x40\n        /* \"#utility.yul\":27451:27454   */\n      dup3\n        /* \"#utility.yul\":27447:27459   */\n      add\n        /* \"#utility.yul\":27440:27459   */\n      swap1\n      pop\n        /* \"#utility.yul\":27099:27465   */\n      swap2\n      swap1\n      pop\n      jump\t// out\n        /* \"#utility.yul\":27471:27890   */\n    tag_366:\n        /* \"#utility.yul\":27637:27641   */\n      0x00\n        /* \"#utility.yul\":27675:27677   */\n      0x20\n        /* \"#utility.yul\":27664:27673   */\n      dup3\n        /* \"#utility.yul\":27660:27678   */\n      add\n        /* \"#utility.yul\":27652:27678   */\n      swap1\n      pop\n        /* \"#utility.yul\":27724:27733   */\n      dup2\n        /* \"#utility.yul\":27718:27722   */\n      dup2\n        /* \"#utility.yul\":27714:27734   */\n      sub\n        /* \"#utility.yul\":27710:27711   */\n      0x00\n        /* \"#utility.yul\":27699:27708   */\n      dup4\n        /* \"#utility.yul\":27695:27712   */\n      add\n        /* \"#utility.yul\":27688:27735   */\n      mstore\n        /* \"#utility.yul\":27752:27883   */\n      tag_848\n        /* \"#utility.yul\":27878:27882   */\n      dup2\n        /* \"#utility.yul\":27752:27883   */\n      tag_572\n      jump\t// in\n    tag_848:\n        /* \"#utility.yul\":27744:27883   */\n      swap1\n      pop\n        /* \"#utility.yul\":27471:27890   */\n      swap2\n      swap1\n      pop\n      jump\t// out\n        /* \"#utility.yul\":27896:28119   */\n    tag_573:\n        /* \"#utility.yul\":28036:28070   */\n      0x50726573616c653a204c6f636b696e6720706572696f64206e6f74206f766572\n        /* \"#utility.yul\":28032:28033   */\n      0x00\n        /* \"#utility.yul\":28024:28030   */\n      dup3\n        /* \"#utility.yul\":28020:28034   */\n      add\n        /* \"#utility.yul\":28013:28071   */\n      mstore\n        /* \"#utility.yul\":28105:28111   */\n      0x2079657400000000000000000000000000000000000000000000000000000000\n        /* \"#utility.yul\":28100:28102   */\n      0x20\n        /* \"#utility.yul\":28092:28098   */\n      dup3\n        /* \"#utility.yul\":28088:28103   */\n      add\n        /* \"#utility.yul\":28081:28112   */\n      mstore\n        /* \"#utility.yul\":27896:28119   */\n      pop\n      jump\t// out\n        /* \"#utility.yul\":28125:28491   */\n    tag_574:\n        /* \"#utility.yul\":28267:28270   */\n      0x00\n        /* \"#utility.yul\":28288:28355   */\n      tag_851\n        /* \"#utility.yul\":28352:28354   */\n      0x24\n        /* \"#utility.yul\":28347:28350   */\n      dup4\n        /* \"#utility.yul\":28288:28355   */\n      tag_530\n      jump\t// in\n    tag_851:\n        /* \"#utility.yul\":28281:28355   */\n      swap2\n      pop\n        /* \"#utility.yul\":28364:28457   */\n      tag_852\n        /* \"#utility.yul\":28453:28456   */\n      dup3\n        /* \"#utility.yul\":28364:28457   */\n      tag_573\n      jump\t// in\n    tag_852:\n        /* \"#utility.yul\":28482:28484   */\n      0x40\n        /* \"#utility.yul\":28477:28480   */\n      dup3\n        /* \"#utility.yul\":28473:28485   */\n      add\n        /* \"#utility.yul\":28466:28485   */\n      swap1\n      pop\n        /* \"#utility.yul\":28125:28491   */\n      swap2\n      swap1\n      pop\n      jump\t// out\n        /* \"#utility.yul\":28497:28916   */\n    tag_370:\n        /* \"#utility.yul\":28663:28667   */\n      0x00\n        /* \"#utility.yul\":28701:28703   */\n      0x20\n        /* \"#utility.yul\":28690:28699   */\n      dup3\n        /* \"#utility.yul\":28686:28704   */\n      add\n        /* \"#utility.yul\":28678:28704   */\n      swap1\n      pop\n        /* \"#utility.yul\":28750:28759   */\n      dup2\n        /* \"#utility.yul\":28744:28748   */\n      dup2\n        /* \"#utility.yul\":28740:28760   */\n      sub\n        /* \"#utility.yul\":28736:28737   */\n      0x00\n        /* \"#utility.yul\":28725:28734   */\n      dup4\n        /* \"#utility.yul\":28721:28738   */\n      add\n        /* \"#utility.yul\":28714:28761   */\n      mstore\n        /* \"#utility.yul\":28778:28909   */\n      tag_854\n        /* \"#utility.yul\":28904:28908   */\n      dup2\n        /* \"#utility.yul\":28778:28909   */\n      tag_574\n      jump\t// in\n    tag_854:\n        /* \"#utility.yul\":28770:28909   */\n      swap1\n      pop\n        /* \"#utility.yul\":28497:28916   */\n      swap2\n      swap1\n      pop\n      jump\t// out\n        /* \"#utility.yul\":28922:29096   */\n    tag_575:\n        /* \"#utility.yul\":29062:29088   */\n      0x50726573616c653a20416c726561647920636c61696d65640000000000000000\n        /* \"#utility.yul\":29058:29059   */\n      0x00\n        /* \"#utility.yul\":29050:29056   */\n      dup3\n        /* \"#utility.yul\":29046:29060   */\n      add\n        /* \"#utility.yul\":29039:29089   */\n      mstore\n        /* \"#utility.yul\":28922:29096   */\n      pop\n      jump\t// out\n        /* \"#utility.yul\":29102:29468   */\n    tag_576:\n        /* \"#utility.yul\":29244:29247   */\n      0x00\n        /* \"#utility.yul\":29265:29332   */\n      tag_857\n        /* \"#utility.yul\":29329:29331   */\n      0x18\n        /* \"#utility.yul\":29324:29327   */\n      dup4\n        /* \"#utility.yul\":29265:29332   */\n      tag_530\n      jump\t// in\n    tag_857:\n        /* \"#utility.yul\":29258:29332   */\n      swap2\n      pop\n        /* \"#utility.yul\":29341:29434   */\n      tag_858\n        /* \"#utility.yul\":29430:29433   */\n      dup3\n        /* \"#utility.yul\":29341:29434   */\n      tag_575\n      jump\t// in\n    tag_858:\n        /* \"#utility.yul\":29459:29461   */\n      0x20\n        /* \"#utility.yul\":29454:29457   */\n      dup3\n        /* \"#utility.yul\":29450:29462   */\n      add\n        /* \"#utility.yul\":29443:29462   */\n      swap1\n      pop\n        /* \"#utility.yul\":29102:29468   */\n      swap2\n      swap1\n      pop\n      jump\t// out\n        /* \"#utility.yul\":29474:29893   */\n    tag_373:\n        /* \"#utility.yul\":29640:29644   */\n      0x00\n        /* \"#utility.yul\":29678:29680   */\n      0x20\n        /* \"#utility.yul\":29667:29676   */\n      dup3\n        /* \"#utility.yul\":29663:29681   */\n      add\n        /* \"#utility.yul\":29655:29681   */\n      swap1\n      pop\n        /* \"#utility.yul\":29727:29736   */\n      dup2\n        /* \"#utility.yul\":29721:29725   */\n      dup2\n        /* \"#utility.yul\":29717:29737   */\n      sub\n        /* \"#utility.yul\":29713:29714   */\n      0x00\n        /* \"#utility.yul\":29702:29711   */\n      dup4\n        /* \"#utility.yul\":29698:29715   */\n      add\n        /* \"#utility.yul\":29691:29738   */\n      mstore\n        /* \"#utility.yul\":29755:29886   */\n      tag_860\n        /* \"#utility.yul\":29881:29885   */\n      dup2\n        /* \"#utility.yul\":29755:29886   */\n      tag_576\n      jump\t// in\n    tag_860:\n        /* \"#utility.yul\":29747:29886   */\n      swap1\n      pop\n        /* \"#utility.yul\":29474:29893   */\n      swap2\n      swap1\n      pop\n      jump\t// out\n        /* \"#utility.yul\":29899:30124   */\n    tag_577:\n        /* \"#utility.yul\":30039:30073   */\n      0x4f776e61626c653a206e6577206f776e657220697320746865207a65726f2061\n        /* \"#utility.yul\":30035:30036   */\n      0x00\n        /* \"#utility.yul\":30027:30033   */\n      dup3\n        /* \"#utility.yul\":30023:30037   */\n      add\n        /* \"#utility.yul\":30016:30074   */\n      mstore\n        /* \"#utility.yul\":30108:30116   */\n      0x6464726573730000000000000000000000000000000000000000000000000000\n        /* \"#utility.yul\":30103:30105   */\n      0x20\n        /* \"#utility.yul\":30095:30101   */\n      dup3\n        /* \"#utility.yul\":30091:30106   */\n      add\n        /* \"#utility.yul\":30084:30117   */\n      mstore\n        /* \"#utility.yul\":29899:30124   */\n      pop\n      jump\t// out\n        /* \"#utility.yul\":30130:30496   */\n    tag_578:\n        /* \"#utility.yul\":30272:30275   */\n      0x00\n        /* \"#utility.yul\":30293:30360   */\n      tag_863\n        /* \"#utility.yul\":30357:30359   */\n      0x26\n        /* \"#utility.yul\":30352:30355   */\n      dup4\n        /* \"#utility.yul\":30293:30360   */\n      tag_530\n      jump\t// in\n    tag_863:\n        /* \"#utility.yul\":30286:30360   */\n      swap2\n      pop\n        /* \"#utility.yul\":30369:30462   */\n      tag_864\n        /* \"#utility.yul\":30458:30461   */\n      dup3\n        /* \"#utility.yul\":30369:30462   */\n      tag_577\n      jump\t// in\n    tag_864:\n        /* \"#utility.yul\":30487:30489   */\n      0x40\n        /* \"#utility.yul\":30482:30485   */\n      dup3\n        /* \"#utility.yul\":30478:30490   */\n      add\n        /* \"#utility.yul\":30471:30490   */\n      swap1\n      pop\n        /* \"#utility.yul\":30130:30496   */\n      swap2\n      swap1\n      pop\n      jump\t// out\n        /* \"#utility.yul\":30502:30921   */\n    tag_414:\n        /* \"#utility.yul\":30668:30672   */\n      0x00\n        /* \"#utility.yul\":30706:30708   */\n      0x20\n        /* \"#utility.yul\":30695:30704   */\n      dup3\n        /* \"#utility.yul\":30691:30709   */\n      add\n        /* \"#utility.yul\":30683:30709   */\n      swap1\n      pop\n        /* \"#utility.yul\":30755:30764   */\n      dup2\n        /* \"#utility.yul\":30749:30753   */\n      dup2\n        /* \"#utility.yul\":30745:30765   */\n      sub\n        /* \"#utility.yul\":30741:30742   */\n      0x00\n        /* \"#utility.yul\":30730:30739   */\n      dup4\n        /* \"#utility.yul\":30726:30743   */\n      add\n        /* \"#utility.yul\":30719:30766   */\n      mstore\n        /* \"#utility.yul\":30783:30914   */\n      tag_866\n        /* \"#utility.yul\":30909:30913   */\n      dup2\n        /* \"#utility.yul\":30783:30914   */\n      tag_578\n      jump\t// in\n    tag_866:\n        /* \"#utility.yul\":30775:30914   */\n      swap1\n      pop\n        /* \"#utility.yul\":30502:30921   */\n      swap2\n      swap1\n      pop\n      jump\t// out\n        /* \"#utility.yul\":30927:31236   */\n    tag_579:\n        /* \"#utility.yul\":31067:31101   */\n      0x50726573616c653a2043616e6e6f742077697468647261772073616c6520746f\n        /* \"#utility.yul\":31063:31064   */\n      0x00\n        /* \"#utility.yul\":31055:31061   */\n      dup3\n        /* \"#utility.yul\":31051:31065   */\n      add\n        /* \"#utility.yul\":31044:31102   */\n      mstore\n        /* \"#utility.yul\":31136:31170   */\n      0x6b656e20776974682074686973206d6574686f642c2075736520776974686472\n        /* \"#utility.yul\":31131:31133   */\n      0x20\n        /* \"#utility.yul\":31123:31129   */\n      dup3\n        /* \"#utility.yul\":31119:31134   */\n      add\n        /* \"#utility.yul\":31112:31171   */\n      mstore\n        /* \"#utility.yul\":31205:31228   */\n      0x617753616c65546f6b656e282920696e73746561640000000000000000000000\n        /* \"#utility.yul\":31200:31202   */\n      0x40\n        /* \"#utility.yul\":31192:31198   */\n      dup3\n        /* \"#utility.yul\":31188:31203   */\n      add\n        /* \"#utility.yul\":31181:31229   */\n      mstore\n        /* \"#utility.yul\":30927:31236   */\n      pop\n      jump\t// out\n        /* \"#utility.yul\":31242:31608   */\n    tag_580:\n        /* \"#utility.yul\":31384:31387   */\n      0x00\n        /* \"#utility.yul\":31405:31472   */\n      tag_869\n        /* \"#utility.yul\":31469:31471   */\n      0x55\n        /* \"#utility.yul\":31464:31467   */\n      dup4\n        /* \"#utility.yul\":31405:31472   */\n      tag_530\n      jump\t// in\n    tag_869:\n        /* \"#utility.yul\":31398:31472   */\n      swap2\n      pop\n        /* \"#utility.yul\":31481:31574   */\n      tag_870\n        /* \"#utility.yul\":31570:31573   */\n      dup3\n        /* \"#utility.yul\":31481:31574   */\n      tag_579\n      jump\t// in\n    tag_870:\n        /* \"#utility.yul\":31599:31601   */\n      0x60\n        /* \"#utility.yul\":31594:31597   */\n      dup3\n        /* \"#utility.yul\":31590:31602   */\n      add\n        /* \"#utility.yul\":31583:31602   */\n      swap1\n      pop\n        /* \"#utility.yul\":31242:31608   */\n      swap2\n      swap1\n      pop\n      jump\t// out\n        /* \"#utility.yul\":31614:32033   */\n    tag_424:\n        /* \"#utility.yul\":31780:31784   */\n      0x00\n        /* \"#utility.yul\":31818:31820   */\n      0x20\n        /* \"#utility.yul\":31807:31816   */\n      dup3\n        /* \"#utility.yul\":31803:31821   */\n      add\n        /* \"#utility.yul\":31795:31821   */\n      swap1\n      pop\n        /* \"#utility.yul\":31867:31876   */\n      dup2\n        /* \"#utility.yul\":31861:31865   */\n      dup2\n        /* \"#utility.yul\":31857:31877   */\n      sub\n        /* \"#utility.yul\":31853:31854   */\n      0x00\n        /* \"#utility.yul\":31842:31851   */\n      dup4\n        /* \"#utility.yul\":31838:31855   */\n      add\n        /* \"#utility.yul\":31831:31878   */\n      mstore\n        /* \"#utility.yul\":31895:32026   */\n      tag_872\n        /* \"#utility.yul\":32021:32025   */\n      dup2\n        /* \"#utility.yul\":31895:32026   */\n      tag_580\n      jump\t// in\n    tag_872:\n        /* \"#utility.yul\":31887:32026   */\n      swap1\n      pop\n        /* \"#utility.yul\":31614:32033   */\n      swap2\n      swap1\n      pop\n      jump\t// out\n        /* \"#utility.yul\":32039:32351   */\n    tag_581:\n        /* \"#utility.yul\":32179:32213   */\n      0x50726573616c653a2043616e6e6f742077697468647261772073616c6520746f\n        /* \"#utility.yul\":32175:32176   */\n      0x00\n        /* \"#utility.yul\":32167:32173   */\n      dup3\n        /* \"#utility.yul\":32163:32177   */\n      add\n        /* \"#utility.yul\":32156:32214   */\n      mstore\n        /* \"#utility.yul\":32248:32282   */\n      0x6b656e20776974682074686973206d6574686f642c2075736520776974686472\n        /* \"#utility.yul\":32243:32245   */\n      0x20\n        /* \"#utility.yul\":32235:32241   */\n      dup3\n        /* \"#utility.yul\":32231:32246   */\n      add\n        /* \"#utility.yul\":32224:32283   */\n      mstore\n        /* \"#utility.yul\":32317:32343   */\n      0x6177416c6c53616c65546f6b656e282920696e73746561640000000000000000\n        /* \"#utility.yul\":32312:32314   */\n      0x40\n        /* \"#utility.yul\":32304:32310   */\n      dup3\n        /* \"#utility.yul\":32300:32315   */\n      add\n        /* \"#utility.yul\":32293:32344   */\n      mstore\n        /* \"#utility.yul\":32039:32351   */\n      pop\n      jump\t// out\n        /* \"#utility.yul\":32357:32723   */\n    tag_582:\n        /* \"#utility.yul\":32499:32502   */\n      0x00\n        /* \"#utility.yul\":32520:32587   */\n      tag_875\n        /* \"#utility.yul\":32584:32586   */\n      0x58\n        /* \"#utility.yul\":32579:32582   */\n      dup4\n        /* \"#utility.yul\":32520:32587   */\n      tag_530\n      jump\t// in\n    tag_875:\n        /* \"#utility.yul\":32513:32587   */\n      swap2\n      pop\n        /* \"#utility.yul\":32596:32689   */\n      tag_876\n        /* \"#utility.yul\":32685:32688   */\n      dup3\n        /* \"#utility.yul\":32596:32689   */\n      tag_581\n      jump\t// in\n    tag_876:\n        /* \"#utility.yul\":32714:32716   */\n      0x60\n        /* \"#utility.yul\":32709:32712   */\n      dup3\n        /* \"#utility.yul\":32705:32717   */\n      add\n        /* \"#utility.yul\":32698:32717   */\n      swap1\n      pop\n        /* \"#utility.yul\":32357:32723   */\n      swap2\n      swap1\n      pop\n      jump\t// out\n        /* \"#utility.yul\":32729:33148   */\n    tag_434:\n        /* \"#utility.yul\":32895:32899   */\n      0x00\n        /* \"#utility.yul\":32933:32935   */\n      0x20\n        /* \"#utility.yul\":32922:32931   */\n      dup3\n        /* \"#utility.yul\":32918:32936   */\n      add\n        /* \"#utility.yul\":32910:32936   */\n      swap1\n      pop\n        /* \"#utility.yul\":32982:32991   */\n      dup2\n        /* \"#utility.yul\":32976:32980   */\n      dup2\n        /* \"#utility.yul\":32972:32992   */\n      sub\n        /* \"#utility.yul\":32968:32969   */\n      0x00\n        /* \"#utility.yul\":32957:32966   */\n      dup4\n        /* \"#utility.yul\":32953:32970   */\n      add\n        /* \"#utility.yul\":32946:32993   */\n      mstore\n        /* \"#utility.yul\":33010:33141   */\n      tag_878\n        /* \"#utility.yul\":33136:33140   */\n      dup2\n        /* \"#utility.yul\":33010:33141   */\n      tag_582\n      jump\t// in\n    tag_878:\n        /* \"#utility.yul\":33002:33141   */\n      swap1\n      pop\n        /* \"#utility.yul\":32729:33148   */\n      swap2\n      swap1\n      pop\n      jump\t// out\n        /* \"#utility.yul\":33154:33596   */\n    tag_458:\n        /* \"#utility.yul\":33303:33307   */\n      0x00\n        /* \"#utility.yul\":33341:33343   */\n      0x60\n        /* \"#utility.yul\":33330:33339   */\n      dup3\n        /* \"#utility.yul\":33326:33344   */\n      add\n        /* \"#utility.yul\":33318:33344   */\n      swap1\n      pop\n        /* \"#utility.yul\":33354:33425   */\n      tag_880\n        /* \"#utility.yul\":33422:33423   */\n      0x00\n        /* \"#utility.yul\":33411:33420   */\n      dup4\n        /* \"#utility.yul\":33407:33424   */\n      add\n        /* \"#utility.yul\":33398:33404   */\n      dup7\n        /* \"#utility.yul\":33354:33425   */\n      tag_529\n      jump\t// in\n    tag_880:\n        /* \"#utility.yul\":33435:33507   */\n      tag_881\n        /* \"#utility.yul\":33503:33505   */\n      0x20\n        /* \"#utility.yul\":33492:33501   */\n      dup4\n        /* \"#utility.yul\":33488:33506   */\n      add\n        /* \"#utility.yul\":33479:33485   */\n      dup6\n        /* \"#utility.yul\":33435:33507   */\n      tag_529\n      jump\t// in\n    tag_881:\n        /* \"#utility.yul\":33517:33589   */\n      tag_882\n        /* \"#utility.yul\":33585:33587   */\n      0x40\n        /* \"#utility.yul\":33574:33583   */\n      dup4\n        /* \"#utility.yul\":33570:33588   */\n      add\n        /* \"#utility.yul\":33561:33567   */\n      dup5\n        /* \"#utility.yul\":33517:33589   */\n      tag_517\n      jump\t// in\n    tag_882:\n        /* \"#utility.yul\":33154:33596   */\n      swap5\n      swap4\n      pop\n      pop\n      pop\n      pop\n      jump\t// out\n        /* \"#utility.yul\":33602:33718   */\n    tag_583:\n        /* \"#utility.yul\":33672:33693   */\n      tag_884\n        /* \"#utility.yul\":33687:33692   */\n      dup2\n        /* \"#utility.yul\":33672:33693   */\n      tag_518\n      jump\t// in\n    tag_884:\n        /* \"#utility.yul\":33665:33670   */\n      dup2\n        /* \"#utility.yul\":33662:33694   */\n      eq\n        /* \"#utility.yul\":33652:33712   */\n      tag_885\n      jumpi\n        /* \"#utility.yul\":33708:33709   */\n      0x00\n        /* \"#utility.yul\":33705:33706   */\n      dup1\n        /* \"#utility.yul\":33698:33710   */\n      revert\n        /* \"#utility.yul\":33652:33712   */\n    tag_885:\n        /* \"#utility.yul\":33602:33718   */\n      pop\n      jump\t// out\n        /* \"#utility.yul\":33724:33861   */\n    tag_584:\n        /* \"#utility.yul\":33778:33783   */\n      0x00\n        /* \"#utility.yul\":33809:33815   */\n      dup2\n        /* \"#utility.yul\":33803:33816   */\n      mload\n        /* \"#utility.yul\":33794:33816   */\n      swap1\n      pop\n        /* \"#utility.yul\":33825:33855   */\n      tag_887\n        /* \"#utility.yul\":33849:33854   */\n      dup2\n        /* \"#utility.yul\":33825:33855   */\n      tag_583\n      jump\t// in\n    tag_887:\n        /* \"#utility.yul\":33724:33861   */\n      swap3\n      swap2\n      pop\n      pop\n      jump\t// out\n        /* \"#utility.yul\":33867:34212   */\n    tag_469:\n        /* \"#utility.yul\":33934:33940   */\n      0x00\n        /* \"#utility.yul\":33983:33985   */\n      0x20\n        /* \"#utility.yul\":33971:33980   */\n      dup3\n        /* \"#utility.yul\":33962:33969   */\n      dup5\n        /* \"#utility.yul\":33958:33981   */\n      sub\n        /* \"#utility.yul\":33954:33986   */\n      slt\n        /* \"#utility.yul\":33951:34070   */\n      iszero\n      tag_889\n      jumpi\n        /* \"#utility.yul\":33989:34068   */\n      tag_890\n      tag_508\n      jump\t// in\n    tag_890:\n        /* \"#utility.yul\":33951:34070   */\n    tag_889:\n        /* \"#utility.yul\":34109:34110   */\n      0x00\n        /* \"#utility.yul\":34134:34195   */\n      tag_891\n        /* \"#utility.yul\":34187:34194   */\n      dup5\n        /* \"#utility.yul\":34178:34184   */\n      dup3\n        /* \"#utility.yul\":34167:34176   */\n      dup6\n        /* \"#utility.yul\":34163:34185   */\n      add\n        /* \"#utility.yul\":34134:34195   */\n      tag_584\n      jump\t// in\n    tag_891:\n        /* \"#utility.yul\":34124:34195   */\n      swap2\n      pop\n        /* \"#utility.yul\":34080:34205   */\n      pop\n        /* \"#utility.yul\":33867:34212   */\n      swap3\n      swap2\n      pop\n      pop\n      jump\t// out\n        /* \"#utility.yul\":34218:34447   */\n    tag_585:\n        /* \"#utility.yul\":34358:34392   */\n      0x5361666545524332303a204552433230206f7065726174696f6e20646964206e\n        /* \"#utility.yul\":34354:34355   */\n      0x00\n        /* \"#utility.yul\":34346:34352   */\n      dup3\n        /* \"#utility.yul\":34342:34356   */\n      add\n        /* \"#utility.yul\":34335:34393   */\n      mstore\n        /* \"#utility.yul\":34427:34439   */\n      0x6f74207375636365656400000000000000000000000000000000000000000000\n        /* \"#utility.yul\":34422:34424   */\n      0x20\n        /* \"#utility.yul\":34414:34420   */\n      dup3\n        /* \"#utility.yul\":34410:34425   */\n      add\n        /* \"#utility.yul\":34403:34440   */\n      mstore\n        /* \"#utility.yul\":34218:34447   */\n      pop\n      jump\t// out\n        /* \"#utility.yul\":34453:34819   */\n    tag_586:\n        /* \"#utility.yul\":34595:34598   */\n      0x00\n        /* \"#utility.yul\":34616:34683   */\n      tag_894\n        /* \"#utility.yul\":34680:34682   */\n      0x2a\n        /* \"#utility.yul\":34675:34678   */\n      dup4\n        /* \"#utility.yul\":34616:34683   */\n      tag_530\n      jump\t// in\n    tag_894:\n        /* \"#utility.yul\":34609:34683   */\n      swap2\n      pop\n        /* \"#utility.yul\":34692:34785   */\n      tag_895\n        /* \"#utility.yul\":34781:34784   */\n      dup3\n        /* \"#utility.yul\":34692:34785   */\n      tag_585\n      jump\t// in\n    tag_895:\n        /* \"#utility.yul\":34810:34812   */\n      0x40\n        /* \"#utility.yul\":34805:34808   */\n      dup3\n        /* \"#utility.yul\":34801:34813   */\n      add\n        /* \"#utility.yul\":34794:34813   */\n      swap1\n      pop\n        /* \"#utility.yul\":34453:34819   */\n      swap2\n      swap1\n      pop\n      jump\t// out\n        /* \"#utility.yul\":34825:35244   */\n    tag_472:\n        /* \"#utility.yul\":34991:34995   */\n      0x00\n        /* \"#utility.yul\":35029:35031   */\n      0x20\n        /* \"#utility.yul\":35018:35027   */\n      dup3\n        /* \"#utility.yul\":35014:35032   */\n      add\n        /* \"#utility.yul\":35006:35032   */\n      swap1\n      pop\n        /* \"#utility.yul\":35078:35087   */\n      dup2\n        /* \"#utility.yul\":35072:35076   */\n      dup2\n        /* \"#utility.yul\":35068:35088   */\n      sub\n        /* \"#utility.yul\":35064:35065   */\n      0x00\n        /* \"#utility.yul\":35053:35062   */\n      dup4\n        /* \"#utility.yul\":35049:35066   */\n      add\n        /* \"#utility.yul\":35042:35089   */\n      mstore\n        /* \"#utility.yul\":35106:35237   */\n      tag_897\n        /* \"#utility.yul\":35232:35236   */\n      dup2\n        /* \"#utility.yul\":35106:35237   */\n      tag_586\n      jump\t// in\n    tag_897:\n        /* \"#utility.yul\":35098:35237   */\n      swap1\n      pop\n        /* \"#utility.yul\":34825:35244   */\n      swap2\n      swap1\n      pop\n      jump\t// out\n        /* \"#utility.yul\":35250:35475   */\n    tag_587:\n        /* \"#utility.yul\":35390:35424   */\n      0x416464726573733a20696e73756666696369656e742062616c616e636520666f\n        /* \"#utility.yul\":35386:35387   */\n      0x00\n        /* \"#utility.yul\":35378:35384   */\n      dup3\n        /* \"#utility.yul\":35374:35388   */\n      add\n        /* \"#utility.yul\":35367:35425   */\n      mstore\n        /* \"#utility.yul\":35459:35467   */\n      0x722063616c6c0000000000000000000000000000000000000000000000000000\n        /* \"#utility.yul\":35454:35456   */\n      0x20\n        /* \"#utility.yul\":35446:35452   */\n      dup3\n        /* \"#utility.yul\":35442:35457   */\n      add\n        /* \"#utility.yul\":35435:35468   */\n      mstore\n        /* \"#utility.yul\":35250:35475   */\n      pop\n      jump\t// out\n        /* \"#utility.yul\":35481:35847   */\n    tag_588:\n        /* \"#utility.yul\":35623:35626   */\n      0x00\n        /* \"#utility.yul\":35644:35711   */\n      tag_900\n        /* \"#utility.yul\":35708:35710   */\n      0x26\n        /* \"#utility.yul\":35703:35706   */\n      dup4\n        /* \"#utility.yul\":35644:35711   */\n      tag_530\n      jump\t// in\n    tag_900:\n        /* \"#utility.yul\":35637:35711   */\n      swap2\n      pop\n        /* \"#utility.yul\":35720:35813   */\n      tag_901\n        /* \"#utility.yul\":35809:35812   */\n      dup3\n        /* \"#utility.yul\":35720:35813   */\n      tag_587\n      jump\t// in\n    tag_901:\n        /* \"#utility.yul\":35838:35840   */\n      0x40\n        /* \"#utility.yul\":35833:35836   */\n      dup3\n        /* \"#utility.yul\":35829:35841   */\n      add\n        /* \"#utility.yul\":35822:35841   */\n      swap1\n      pop\n        /* \"#utility.yul\":35481:35847   */\n      swap2\n      swap1\n      pop\n      jump\t// out\n        /* \"#utility.yul\":35853:36272   */\n    tag_479:\n        /* \"#utility.yul\":36019:36023   */\n      0x00\n        /* \"#utility.yul\":36057:36059   */\n      0x20\n        /* \"#utility.yul\":36046:36055   */\n      dup3\n        /* \"#utility.yul\":36042:36060   */\n      add\n        /* \"#utility.yul\":36034:36060   */\n      swap1\n      pop\n        /* \"#utility.yul\":36106:36115   */\n      dup2\n        /* \"#utility.yul\":36100:36104   */\n      dup2\n        /* \"#utility.yul\":36096:36116   */\n      sub\n        /* \"#utility.yul\":36092:36093   */\n      0x00\n        /* \"#utility.yul\":36081:36090   */\n      dup4\n        /* \"#utility.yul\":36077:36094   */\n      add\n        /* \"#utility.yul\":36070:36117   */\n      mstore\n        /* \"#utility.yul\":36134:36265   */\n      tag_903\n        /* \"#utility.yul\":36260:36264   */\n      dup2\n        /* \"#utility.yul\":36134:36265   */\n      tag_588\n      jump\t// in\n    tag_903:\n        /* \"#utility.yul\":36126:36265   */\n      swap1\n      pop\n        /* \"#utility.yul\":35853:36272   */\n      swap2\n      swap1\n      pop\n      jump\t// out\n        /* \"#utility.yul\":36278:36457   */\n    tag_589:\n        /* \"#utility.yul\":36418:36449   */\n      0x416464726573733a2063616c6c20746f206e6f6e2d636f6e7472616374000000\n        /* \"#utility.yul\":36414:36415   */\n      0x00\n        /* \"#utility.yul\":36406:36412   */\n      dup3\n        /* \"#utility.yul\":36402:36416   */\n      add\n        /* \"#utility.yul\":36395:36450   */\n      mstore\n        /* \"#utility.yul\":36278:36457   */\n      pop\n      jump\t// out\n        /* \"#utility.yul\":36463:36829   */\n    tag_590:\n        /* \"#utility.yul\":36605:36608   */\n      0x00\n        /* \"#utility.yul\":36626:36693   */\n      tag_906\n        /* \"#utility.yul\":36690:36692   */\n      0x1d\n        /* \"#utility.yul\":36685:36688   */\n      dup4\n        /* \"#utility.yul\":36626:36693   */\n      tag_530\n      jump\t// in\n    tag_906:\n        /* \"#utility.yul\":36619:36693   */\n      swap2\n      pop\n        /* \"#utility.yul\":36702:36795   */\n      tag_907\n        /* \"#utility.yul\":36791:36794   */\n      dup3\n        /* \"#utility.yul\":36702:36795   */\n      tag_589\n      jump\t// in\n    tag_907:\n        /* \"#utility.yul\":36820:36822   */\n      0x20\n        /* \"#utility.yul\":36815:36818   */\n      dup3\n        /* \"#utility.yul\":36811:36823   */\n      add\n        /* \"#utility.yul\":36804:36823   */\n      swap1\n      pop\n        /* \"#utility.yul\":36463:36829   */\n      swap2\n      swap1\n      pop\n      jump\t// out\n        /* \"#utility.yul\":36835:37254   */\n    tag_484:\n        /* \"#utility.yul\":37001:37005   */\n      0x00\n        /* \"#utility.yul\":37039:37041   */\n      0x20\n        /* \"#utility.yul\":37028:37037   */\n      dup3\n        /* \"#utility.yul\":37024:37042   */\n      add\n        /* \"#utility.yul\":37016:37042   */\n      swap1\n      pop\n        /* \"#utility.yul\":37088:37097   */\n      dup2\n        /* \"#utility.yul\":37082:37086   */\n      dup2\n        /* \"#utility.yul\":37078:37098   */\n      sub\n        /* \"#utility.yul\":37074:37075   */\n      0x00\n        /* \"#utility.yul\":37063:37072   */\n      dup4\n        /* \"#utility.yul\":37059:37076   */\n      add\n        /* \"#utility.yul\":37052:37099   */\n      mstore\n        /* \"#utility.yul\":37116:37247   */\n      tag_909\n        /* \"#utility.yul\":37242:37246   */\n      dup2\n        /* \"#utility.yul\":37116:37247   */\n      tag_590\n      jump\t// in\n    tag_909:\n        /* \"#utility.yul\":37108:37247   */\n      swap1\n      pop\n        /* \"#utility.yul\":36835:37254   */\n      swap2\n      swap1\n      pop\n      jump\t// out\n        /* \"#utility.yul\":37260:37358   */\n    tag_591:\n        /* \"#utility.yul\":37311:37317   */\n      0x00\n        /* \"#utility.yul\":37345:37350   */\n      dup2\n        /* \"#utility.yul\":37339:37351   */\n      mload\n        /* \"#utility.yul\":37329:37351   */\n      swap1\n      pop\n        /* \"#utility.yul\":37260:37358   */\n      swap2\n      swap1\n      pop\n      jump\t// out\n        /* \"#utility.yul\":37364:37511   */\n    tag_592:\n        /* \"#utility.yul\":37465:37476   */\n      0x00\n        /* \"#utility.yul\":37502:37505   */\n      dup2\n        /* \"#utility.yul\":37487:37505   */\n      swap1\n      pop\n        /* \"#utility.yul\":37364:37511   */\n      swap3\n      swap2\n      pop\n      pop\n      jump\t// out\n        /* \"#utility.yul\":37517:37763   */\n    tag_593:\n        /* \"#utility.yul\":37598:37599   */\n      0x00\n        /* \"#utility.yul\":37608:37721   */\n    tag_913:\n        /* \"#utility.yul\":37622:37628   */\n      dup4\n        /* \"#utility.yul\":37619:37620   */\n      dup2\n        /* \"#utility.yul\":37616:37629   */\n      lt\n        /* \"#utility.yul\":37608:37721   */\n      iszero\n      tag_915\n      jumpi\n        /* \"#utility.yul\":37707:37708   */\n      dup1\n        /* \"#utility.yul\":37702:37705   */\n      dup3\n        /* \"#utility.yul\":37698:37709   */\n      add\n        /* \"#utility.yul\":37692:37710   */\n      mload\n        /* \"#utility.yul\":37688:37689   */\n      dup2\n        /* \"#utility.yul\":37683:37686   */\n      dup5\n        /* \"#utility.yul\":37679:37690   */\n      add\n        /* \"#utility.yul\":37672:37711   */\n      mstore\n        /* \"#utility.yul\":37644:37646   */\n      0x20\n        /* \"#utility.yul\":37641:37642   */\n      dup2\n        /* \"#utility.yul\":37637:37647   */\n      add\n        /* \"#utility.yul\":37632:37647   */\n      swap1\n      pop\n        /* \"#utility.yul\":37608:37721   */\n      jump(tag_913)\n    tag_915:\n        /* \"#utility.yul\":37755:37756   */\n      0x00\n        /* \"#utility.yul\":37746:37752   */\n      dup5\n        /* \"#utility.yul\":37741:37744   */\n      dup5\n        /* \"#utility.yul\":37737:37753   */\n      add\n        /* \"#utility.yul\":37730:37757   */\n      mstore\n        /* \"#utility.yul\":37579:37763   */\n      pop\n        /* \"#utility.yul\":37517:37763   */\n      pop\n      pop\n      pop\n      jump\t// out\n        /* \"#utility.yul\":37769:38155   */\n    tag_594:\n        /* \"#utility.yul\":37873:37876   */\n      0x00\n        /* \"#utility.yul\":37901:37939   */\n      tag_917\n        /* \"#utility.yul\":37933:37938   */\n      dup3\n        /* \"#utility.yul\":37901:37939   */\n      tag_591\n      jump\t// in\n    tag_917:\n        /* \"#utility.yul\":37955:38043   */\n      tag_918\n        /* \"#utility.yul\":38036:38042   */\n      dup2\n        /* \"#utility.yul\":38031:38034   */\n      dup6\n        /* \"#utility.yul\":37955:38043   */\n      tag_592\n      jump\t// in\n    tag_918:\n        /* \"#utility.yul\":37948:38043   */\n      swap4\n      pop\n        /* \"#utility.yul\":38052:38117   */\n      tag_919\n        /* \"#utility.yul\":38110:38116   */\n      dup2\n        /* \"#utility.yul\":38105:38108   */\n      dup6\n        /* \"#utility.yul\":38098:38102   */\n      0x20\n        /* \"#utility.yul\":38091:38096   */\n      dup7\n        /* \"#utility.yul\":38087:38103   */\n      add\n        /* \"#utility.yul\":38052:38117   */\n      tag_593\n      jump\t// in\n    tag_919:\n        /* \"#utility.yul\":38142:38148   */\n      dup1\n        /* \"#utility.yul\":38137:38140   */\n      dup5\n        /* \"#utility.yul\":38133:38149   */\n      add\n        /* \"#utility.yul\":38126:38149   */\n      swap2\n      pop\n        /* \"#utility.yul\":37877:38155   */\n      pop\n        /* \"#utility.yul\":37769:38155   */\n      swap3\n      swap2\n      pop\n      pop\n      jump\t// out\n        /* \"#utility.yul\":38161:38432   */\n    tag_486:\n        /* \"#utility.yul\":38291:38294   */\n      0x00\n        /* \"#utility.yul\":38313:38406   */\n      tag_921\n        /* \"#utility.yul\":38402:38405   */\n      dup3\n        /* \"#utility.yul\":38393:38399   */\n      dup5\n        /* \"#utility.yul\":38313:38406   */\n      tag_594\n      jump\t// in\n    tag_921:\n        /* \"#utility.yul\":38306:38406   */\n      swap2\n      pop\n        /* \"#utility.yul\":38423:38426   */\n      dup2\n        /* \"#utility.yul\":38416:38426   */\n      swap1\n      pop\n        /* \"#utility.yul\":38161:38432   */\n      swap3\n      swap2\n      pop\n      pop\n      jump\t// out\n        /* \"#utility.yul\":38438:38537   */\n    tag_595:\n        /* \"#utility.yul\":38490:38496   */\n      0x00\n        /* \"#utility.yul\":38524:38529   */\n      dup2\n        /* \"#utility.yul\":38518:38530   */\n      mload\n        /* \"#utility.yul\":38508:38530   */\n      swap1\n      pop\n        /* \"#utility.yul\":38438:38537   */\n      swap2\n      swap1\n      pop\n      jump\t// out\n        /* \"#utility.yul\":38543:38920   */\n    tag_596:\n        /* \"#utility.yul\":38631:38634   */\n      0x00\n        /* \"#utility.yul\":38659:38698   */\n      tag_924\n        /* \"#utility.yul\":38692:38697   */\n      dup3\n        /* \"#utility.yul\":38659:38698   */\n      tag_595\n      jump\t// in\n    tag_924:\n        /* \"#utility.yul\":38714:38785   */\n      tag_925\n        /* \"#utility.yul\":38778:38784   */\n      dup2\n        /* \"#utility.yul\":38773:38776   */\n      dup6\n        /* \"#utility.yul\":38714:38785   */\n      tag_530\n      jump\t// in\n    tag_925:\n        /* \"#utility.yul\":38707:38785   */\n      swap4\n      pop\n        /* \"#utility.yul\":38794:38859   */\n      tag_926\n        /* \"#utility.yul\":38852:38858   */\n      dup2\n        /* \"#utility.yul\":38847:38850   */\n      dup6\n        /* \"#utility.yul\":38840:38844   */\n      0x20\n        /* \"#utility.yul\":38833:38838   */\n      dup7\n        /* \"#utility.yul\":38829:38845   */\n      add\n        /* \"#utility.yul\":38794:38859   */\n      tag_593\n      jump\t// in\n    tag_926:\n        /* \"#utility.yul\":38884:38913   */\n      tag_927\n        /* \"#utility.yul\":38906:38912   */\n      dup2\n        /* \"#utility.yul\":38884:38913   */\n      tag_521\n      jump\t// in\n    tag_927:\n        /* \"#utility.yul\":38879:38882   */\n      dup5\n        /* \"#utility.yul\":38875:38914   */\n      add\n        /* \"#utility.yul\":38868:38914   */\n      swap2\n      pop\n        /* \"#utility.yul\":38635:38920   */\n      pop\n        /* \"#utility.yul\":38543:38920   */\n      swap3\n      swap2\n      pop\n      pop\n      jump\t// out\n        /* \"#utility.yul\":38926:39239   */\n    tag_499:\n        /* \"#utility.yul\":39039:39043   */\n      0x00\n        /* \"#utility.yul\":39077:39079   */\n      0x20\n        /* \"#utility.yul\":39066:39075   */\n      dup3\n        /* \"#utility.yul\":39062:39080   */\n      add\n        /* \"#utility.yul\":39054:39080   */\n      swap1\n      pop\n        /* \"#utility.yul\":39126:39135   */\n      dup2\n        /* \"#utility.yul\":39120:39124   */\n      dup2\n        /* \"#utility.yul\":39116:39136   */\n      sub\n        /* \"#utility.yul\":39112:39113   */\n      0x00\n        /* \"#utility.yul\":39101:39110   */\n      dup4\n        /* \"#utility.yul\":39097:39114   */\n      add\n        /* \"#utility.yul\":39090:39137   */\n      mstore\n        /* \"#utility.yul\":39154:39232   */\n      tag_929\n        /* \"#utility.yul\":39227:39231   */\n      dup2\n        /* \"#utility.yul\":39218:39224   */\n      dup5\n        /* \"#utility.yul\":39154:39232   */\n      tag_596\n      jump\t// in\n    tag_929:\n        /* \"#utility.yul\":39146:39232   */\n      swap1\n      pop\n        /* \"#utility.yul\":38926:39239   */\n      swap3\n      swap2\n      pop\n      pop\n      jump\t// out\n\n    auxdata: 0xa26469706673582212205a85790d6498c69189cb4f5d9bc2d8890b7397d6a689e8ffc3050cef06f3939964736f6c63430008120033\n}\n",
				"bytecode": {
					"linkReferences": {},
					"object": "60806040523480156200001157600080fd5b5062000032620000266200003860201b60201c565b6200004060201b60201c565b62000104565b600033905090565b60008060009054906101000a900473ffffffffffffffffffffffffffffffffffffffff169050816000806101000a81548173ffffffffffffffffffffffffffffffffffffffff021916908373ffffffffffffffffffffffffffffffffffffffff1602179055508173ffffffffffffffffffffffffffffffffffffffff168173ffffffffffffffffffffffffffffffffffffffff167f8be0079c531659141344cd1fd0a4f28419497f9722a3daafe3b4186f6b6457e060405160405180910390a35050565b613e5180620001146000396000f3fe6080604052600436106102045760003560e01c806389e6ce1e11610118578063cae70c70116100a0578063ee774ccd1161006f578063ee774ccd146106fd578063f2fde38b14610726578063f3fef3a31461074f578063fa09e63014610778578063fb00f3fc146107a157610204565b8063cae70c7014610643578063ded441c21461066c578063e7ee6ad614610695578063e985e367146106d257610204565b8063a82524b2116100e7578063a82524b214610594578063ace1741c146105bf578063b5b0763c146105ea578063b81df74214610601578063ca628c781461062c57610204565b806389e6ce1e146104da5780638ce0b9d2146105035780638da5cb5b1461054057806399b770321461056b57610204565b806365617db11161019b5780636bcedf9c1161016a5780636bcedf9c1461041b5780636c59bd0c14610446578063715018a61461046f5780637412c22314610486578063757765f8146104b157610204565b806365617db11461036e578063683b3b971461039757806368f8fc10146103d45780636aa5b37f146103f057610204565b80633c00a36c116101d75780633c00a36c146102b357806354a9f102146102dc5780635b10bd6a1461031a57806363b201171461034357610204565b8063115ece4c14610209578063249b7c19146102465780632a95c24c146102715780633848a77114610288575b600080fd5b34801561021557600080fd5b50610230600480360381019061022b9190612983565b6107b8565b60405161023d91906129d2565b60405180910390f35b34801561025257600080fd5b5061025b6109d4565b60405161026891906129d2565b60405180910390f35b34801561027d57600080fd5b506102866109da565b005b34801561029457600080fd5b5061029d610b08565b6040516102aa9190612a08565b60405180910390f35b3480156102bf57600080fd5b506102da60048036038101906102d59190612a23565b610b1b565b005b3480156102e857600080fd5b5061030360048036038101906102fe9190612a50565b610be1565b604051610311929190612a7d565b60405180910390f35b34801561032657600080fd5b50610341600480360381019061033c9190612a23565b610c12565b005b34801561034f57600080fd5b50610358610c9f565b60405161036591906129d2565b60405180910390f35b34801561037a57600080fd5b5061039560048036038101906103909190612bed565b610ca5565b005b3480156103a357600080fd5b506103be60048036038101906103b99190612983565b610e05565b6040516103cb91906129d2565b60405180910390f35b6103ee60048036038101906103e99190612983565b610e2d565b005b3480156103fc57600080fd5b50610405611240565b60405161041291906129d2565b60405180910390f35b34801561042757600080fd5b50610430611246565b60405161043d91906129d2565b60405180910390f35b34801561045257600080fd5b5061046d60048036038101906104689190612a23565b61124c565b005b34801561047b57600080fd5b506104846112d2565b005b34801561049257600080fd5b5061049b61135a565b6040516104a891906129d2565b60405180910390f35b3480156104bd57600080fd5b506104d860048036038101906104d39190612a23565b61135f565b005b3480156104e657600080fd5b5061050160048036038101906104fc9190612983565b6113e5565b005b34801561050f57600080fd5b5061052a60048036038101906105259190612a50565b61171c565b6040516105379190612a08565b60405180910390f35b34801561054c57600080fd5b5061055561173c565b6040516105629190612c3c565b60405180910390f35b34801561057757600080fd5b50610592600480360381019061058d9190612a23565b611765565b005b3480156105a057600080fd5b506105a96117eb565b6040516105b691906129d2565b60405180910390f35b3480156105cb57600080fd5b506105d46117f1565b6040516105e191906129d2565b60405180910390f35b3480156105f657600080fd5b506105ff6117f7565b005b34801561060d57600080fd5b50610616611924565b60405161062391906129d2565b60405180910390f35b34801561063857600080fd5b5061064161192a565b005b34801561064f57600080fd5b5061066a60048036038101906106659190612bed565b611b49565b005b34801561067857600080fd5b50610693600480360381019061068e9190612a23565b611cdd565b005b3480156106a157600080fd5b506106bc60048036038101906106b79190612a23565b611dee565b6040516106c991906129d2565b60405180910390f35b3480156106de57600080fd5b506106e7611e09565b6040516106f49190612c3c565b60405180910390f35b34801561070957600080fd5b50610724600480360381019061071f9190612c57565b611e2f565b005b34801561073257600080fd5b5061074d60048036038101906107489190612a50565b611ec0565b005b34801561075b57600080fd5b5061077660048036038101906107719190612983565b611fb7565b005b34801561078457600080fd5b5061079f600480360381019061079a9190612a50565b6120f2565b005b3480156107ad57600080fd5b506107b661228a565b005b60008060006107c561135a565b9050600073ffffffffffffffffffffffffffffffffffffffff168573ffffffffffffffffffffffffffffffffffffffff161461096757600a60008673ffffffffffffffffffffffffffffffffffffffff1673ffffffffffffffffffffffffffffffffffffffff16815260200190815260200160002060009054906101000a900460ff16610887576040517f08c379a000000000000000000000000000000000000000000000000000000000815260040161087e90612ce1565b60405180910390fd5b6000600b60008773ffffffffffffffffffffffffffffffffffffffff1673ffffffffffffffffffffffffffffffffffffffff16815260200190815260200160002082600481106108da576108d9612d01565b5b0154036108e8576000610960565b600b60008673ffffffffffffffffffffffffffffffffffffffff1673ffffffffffffffffffffffffffffffffffffffff168152602001908152602001600020816004811061093957610938612d01565b5b0154600654600a61094a9190612e92565b856109559190612edd565b61095f9190612f4e565b5b91506109c9565b60006001826004811061097d5761097c612d01565b5b01540361098b5760006109c6565b6001816004811061099f5761099e612d01565b5b0154600654600a6109b09190612e92565b856109bb9190612edd565b6109c59190612f4e565b5b91505b819250505092915050565b600d5481565b6109e261243b565b73ffffffffffffffffffffffffffffffffffffffff16610a0061173c565b73ffffffffffffffffffffffffffffffffffffffff1614610a56576040517f08c379a0000000000000000000000000000000000000000000000000000000008152600401610a4d90612fcb565b60405180910390fd5b600d54421015610a9b576040517f08c379a0000000000000000000000000000000000000000000000000000000008152600401610a929061305d565b60405180910390fd5b600e60009054906101000a900460ff1615610aeb576040517f08c379a0000000000000000000000000000000000000000000000000000000008152600401610ae2906130ef565b60405180910390fd5b6001600e60006101000a81548160ff021916908315150217905550565b600e60009054906101000a900460ff1681565b610b2361243b565b73ffffffffffffffffffffffffffffffffffffffff16610b4161173c565b73ffffffffffffffffffffffffffffffffffffffff1614610b97576040517f08c379a0000000000000000000000000000000000000000000000000000000008152600401610b8e90612fcb565b60405180910390fd5b3373ffffffffffffffffffffffffffffffffffffffff166108fc829081150290604051600060405180830381858888f19350505050158015610bdd573d6000803e3d6000fd5b5050565b600f6020528060005260406000206000915090508060000154908060010160009054906101000a900460ff16905082565b610c1a61243b565b73ffffffffffffffffffffffffffffffffffffffff16610c3861173c565b73ffffffffffffffffffffffffffffffffffffffff1614610c8e576040517f08c379a0000000000000000000000000000000000000000000000000000000008152600401610c8590612fcb565b60405180910390fd5b42600c8190555080600d8190555050565b60105481565b610cad61243b565b73ffffffffffffffffffffffffffffffffffffffff16610ccb61173c565b73ffffffffffffffffffffffffffffffffffffffff1614610d21576040517f08c379a0000000000000000000000000000000000000000000000000000000008152600401610d1890612fcb565b60405180910390fd5b6001600a60008473ffffffffffffffffffffffffffffffffffffffff1673ffffffffffffffffffffffffffffffffffffffff16815260200190815260200160002060006101000a81548160ff02191690831515021790555080600b60008473ffffffffffffffffffffffffffffffffffffffff1673ffffffffffffffffffffffffffffffffffffffff168152602001908152602001600020906004610dc7929190612883565b507f46a898d5bfb8140cb704c10cf4ff6ac010411db41a0d94f60d29dc9bdc24942d8282604051610df99291906131ba565b60405180910390a15050565b600b6020528160005260406000208160048110610e2157600080fd5b01600091509150505481565b600c54421015610e72576040517f08c379a0000000000000000000000000000000000000000000000000000000008152600401610e6990613255565b60405180910390fd5b600d544210610eb6576040517f08c379a0000000000000000000000000000000000000000000000000000000008152600401610ead906132c1565b60405180910390fd5b60008073ffffffffffffffffffffffffffffffffffffffff168373ffffffffffffffffffffffffffffffffffffffff1603610efb57610ef66000346107b8565b610f06565b610f0583836107b8565b5b9050600954811015610f4d576040517f08c379a0000000000000000000000000000000000000000000000000000000008152600401610f4490613353565b60405180910390fd5b60085481600f60003373ffffffffffffffffffffffffffffffffffffffff1673ffffffffffffffffffffffffffffffffffffffff16815260200190815260200160002060000154610f9e9190613373565b1115610fdf576040517f08c379a0000000000000000000000000000000000000000000000000000000008152600401610fd690613419565b60405180910390fd5b60075481601054610ff09190613373565b1115611031576040517f08c379a0000000000000000000000000000000000000000000000000000000008152600401611028906134ab565b60405180910390fd5b600073ffffffffffffffffffffffffffffffffffffffff168373ffffffffffffffffffffffffffffffffffffffff161461116257600082116110a8576040517f08c379a000000000000000000000000000000000000000000000000000000000815260040161109f9061353d565b60405180910390fd5b600a60008473ffffffffffffffffffffffffffffffffffffffff1673ffffffffffffffffffffffffffffffffffffffff16815260200190815260200160002060009054906101000a900460ff16611134576040517f08c379a000000000000000000000000000000000000000000000000000000000815260040161112b90612ce1565b60405180910390fd5b6111613330848673ffffffffffffffffffffffffffffffffffffffff16612443909392919063ffffffff16565b5b80601060008282546111749190613373565b9250508190555080600f60003373ffffffffffffffffffffffffffffffffffffffff1673ffffffffffffffffffffffffffffffffffffffff16815260200190815260200160002060000160008282546111cd9190613373565b925050819055508273ffffffffffffffffffffffffffffffffffffffff163373ffffffffffffffffffffffffffffffffffffffff167fc244d500136edffae7025aaf7fbd7a07193ac544a1d0cc3132cf2a32452d340c848460405161123392919061355d565b60405180910390a3505050565b60085481565b60075481565b61125461243b565b73ffffffffffffffffffffffffffffffffffffffff1661127261173c565b73ffffffffffffffffffffffffffffffffffffffff16146112c8576040517f08c379a00000000000000000000000000000000000000000000000000000000081526004016112bf90612fcb565b60405180910390fd5b80600d8190555050565b6112da61243b565b73ffffffffffffffffffffffffffffffffffffffff166112f861173c565b73ffffffffffffffffffffffffffffffffffffffff161461134e576040517f08c379a000000000000000000000000000000000000000000000000000000000815260040161134590612fcb565b60405180910390fd5b61135860006124cc565b565b600090565b61136761243b565b73ffffffffffffffffffffffffffffffffffffffff1661138561173c565b73ffffffffffffffffffffffffffffffffffffffff16146113db576040517f08c379a00000000000000000000000000000000000000000000000000000000081526004016113d290612fcb565b60405180910390fd5b8060088190555050565b6113ed61243b565b73ffffffffffffffffffffffffffffffffffffffff1661140b61173c565b73ffffffffffffffffffffffffffffffffffffffff1614611461576040517f08c379a000000000000000000000000000000000000000000000000000000000815260040161145890612fcb565b60405180910390fd5b600073ffffffffffffffffffffffffffffffffffffffff168273ffffffffffffffffffffffffffffffffffffffff16036114d0576040517f08c379a00000000000000000000000000000000000000000000000000000000081526004016114c7906135f8565b60405180910390fd5b60008111611513576040517f08c379a000000000000000000000000000000000000000000000000000000000815260040161150a9061368a565b60405180910390fd5b81600560006101000a81548173ffffffffffffffffffffffffffffffffffffffff021916908373ffffffffffffffffffffffffffffffffffffffff160217905550600560009054906101000a900473ffffffffffffffffffffffffffffffffffffffff1673ffffffffffffffffffffffffffffffffffffffff1663313ce5676040518163ffffffff1660e01b8152600401602060405180830381865afa1580156115c1573d6000803e3d6000fd5b505050506040513d601f19601f820116820180604052508101906115e591906136e3565b60ff1660068190555061163d333083600560009054906101000a900473ffffffffffffffffffffffffffffffffffffffff1673ffffffffffffffffffffffffffffffffffffffff16612443909392919063ffffffff16565b600560009054906101000a900473ffffffffffffffffffffffffffffffffffffffff1673ffffffffffffffffffffffffffffffffffffffff166370a08231306040518263ffffffff1660e01b81526004016116989190612c3c565b602060405180830381865afa1580156116b5573d6000803e3d6000fd5b505050506040513d601f19601f820116820180604052508101906116d99190613725565b6007819055507f03211f0a57d24f0b52e2e0573af5be089c5faadeb55f9b90591717b0a22f7e2a8282604051611710929190613752565b60405180910390a15050565b600a6020528060005260406000206000915054906101000a900460ff1681565b60008060009054906101000a900473ffffffffffffffffffffffffffffffffffffffff16905090565b61176d61243b565b73ffffffffffffffffffffffffffffffffffffffff1661178b61173c565b73ffffffffffffffffffffffffffffffffffffffff16146117e1576040517f08c379a00000000000000000000000000000000000000000000000000000000081526004016117d890612fcb565b60405180910390fd5b8060098190555050565b600c5481565b60065481565b6117ff61243b565b73ffffffffffffffffffffffffffffffffffffffff1661181d61173c565b73ffffffffffffffffffffffffffffffffffffffff1614611873576040517f08c379a000000000000000000000000000000000000000000000000000000000815260040161186a90612fcb565b60405180910390fd5b600d544210156118b8576040517f08c379a00000000000000000000000000000000000000000000000000000000081526004016118af9061305d565b60405180910390fd5b600e60009054906101000a900460ff16611907576040517f08c379a00000000000000000000000000000000000000000000000000000000081526004016118fe906137ed565b60405180910390fd5b6000600e60006101000a81548160ff021916908315150217905550565b60095481565b600e60009054906101000a900460ff16611979576040517f08c379a00000000000000000000000000000000000000000000000000000000081526004016119709061387f565b60405180910390fd5b600f60003373ffffffffffffffffffffffffffffffffffffffff1673ffffffffffffffffffffffffffffffffffffffff16815260200190815260200160002060010160009054906101000a900460ff1615611a09576040517f08c379a0000000000000000000000000000000000000000000000000000000008152600401611a00906138eb565b60405180910390fd5b6000600f60003373ffffffffffffffffffffffffffffffffffffffff1673ffffffffffffffffffffffffffffffffffffffff1681526020019081526020016000206000015490506001600f60003373ffffffffffffffffffffffffffffffffffffffff1673ffffffffffffffffffffffffffffffffffffffff16815260200190815260200160002060010160006101000a81548160ff021916908315150217905550611af83382600560009054906101000a900473ffffffffffffffffffffffffffffffffffffffff1673ffffffffffffffffffffffffffffffffffffffff166125909092919063ffffffff16565b3373ffffffffffffffffffffffffffffffffffffffff167fe7b379c6c1fa169e9079c25e9143b127637eef8ec8c9d5c06ddb4ab3e119588882604051611b3e91906129d2565b60405180910390a250565b611b5161243b565b73ffffffffffffffffffffffffffffffffffffffff16611b6f61173c565b73ffffffffffffffffffffffffffffffffffffffff1614611bc5576040517f08c379a0000000000000000000000000000000000000000000000000000000008152600401611bbc90612fcb565b60405180910390fd5b600a60008373ffffffffffffffffffffffffffffffffffffffff1673ffffffffffffffffffffffffffffffffffffffff16815260200190815260200160002060009054906101000a900460ff16611c51576040517f08c379a0000000000000000000000000000000000000000000000000000000008152600401611c4890612ce1565b60405180910390fd5b80600b60008473ffffffffffffffffffffffffffffffffffffffff1673ffffffffffffffffffffffffffffffffffffffff168152602001908152602001600020906004611c9f929190612883565b507f15c54d4add16cdcd1f0a4c671837cf70c9f8f02790bb0d948710af6e0187c7d98282604051611cd19291906131ba565b60405180910390a15050565b611ce561243b565b73ffffffffffffffffffffffffffffffffffffffff16611d0361173c565b73ffffffffffffffffffffffffffffffffffffffff1614611d59576040517f08c379a0000000000000000000000000000000000000000000000000000000008152600401611d5090612fcb565b60405180910390fd5b600d54421015611d9e576040517f08c379a0000000000000000000000000000000000000000000000000000000008152600401611d959061305d565b60405180910390fd5b611deb3382600560009054906101000a900473ffffffffffffffffffffffffffffffffffffffff1673ffffffffffffffffffffffffffffffffffffffff166125909092919063ffffffff16565b50565b60018160048110611dfe57600080fd5b016000915090505481565b600560009054906101000a900473ffffffffffffffffffffffffffffffffffffffff1681565b611e3761243b565b73ffffffffffffffffffffffffffffffffffffffff16611e5561173c565b73ffffffffffffffffffffffffffffffffffffffff1614611eab576040517f08c379a0000000000000000000000000000000000000000000000000000000008152600401611ea290612fcb565b60405180910390fd5b806001906004611ebc929190612883565b5050565b611ec861243b565b73ffffffffffffffffffffffffffffffffffffffff16611ee661173c565b73ffffffffffffffffffffffffffffffffffffffff1614611f3c576040517f08c379a0000000000000000000000000000000000000000000000000000000008152600401611f3390612fcb565b60405180910390fd5b600073ffffffffffffffffffffffffffffffffffffffff168173ffffffffffffffffffffffffffffffffffffffff1603611fab576040517f08c379a0000000000000000000000000000000000000000000000000000000008152600401611fa29061397d565b60405180910390fd5b611fb4816124cc565b50565b611fbf61243b565b73ffffffffffffffffffffffffffffffffffffffff16611fdd61173c565b73ffffffffffffffffffffffffffffffffffffffff1614612033576040517f08c379a000000000000000000000000000000000000000000000000000000000815260040161202a90612fcb565b60405180910390fd5b600560009054906101000a900473ffffffffffffffffffffffffffffffffffffffff1673ffffffffffffffffffffffffffffffffffffffff168273ffffffffffffffffffffffffffffffffffffffff16036120c3576040517f08c379a00000000000000000000000000000000000000000000000000000000081526004016120ba90613a35565b60405180910390fd5b6120ee33828473ffffffffffffffffffffffffffffffffffffffff166125909092919063ffffffff16565b5050565b6120fa61243b565b73ffffffffffffffffffffffffffffffffffffffff1661211861173c565b73ffffffffffffffffffffffffffffffffffffffff161461216e576040517f08c379a000000000000000000000000000000000000000000000000000000000815260040161216590612fcb565b60405180910390fd5b600560009054906101000a900473ffffffffffffffffffffffffffffffffffffffff1673ffffffffffffffffffffffffffffffffffffffff168173ffffffffffffffffffffffffffffffffffffffff16036121fe576040517f08c379a00000000000000000000000000000000000000000000000000000000081526004016121f590613aed565b60405180910390fd5b60008173ffffffffffffffffffffffffffffffffffffffff166370a08231306040518263ffffffff1660e01b81526004016122399190612c3c565b602060405180830381865afa158015612256573d6000803e3d6000fd5b505050506040513d601f19601f8201168201806040525081019061227a9190613725565b90506122868282611fb7565b5050565b61229261243b565b73ffffffffffffffffffffffffffffffffffffffff166122b061173c565b73ffffffffffffffffffffffffffffffffffffffff1614612306576040517f08c379a00000000000000000000000000000000000000000000000000000000081526004016122fd90612fcb565b60405180910390fd5b600d5442101561234b576040517f08c379a00000000000000000000000000000000000000000000000000000000081526004016123429061305d565b60405180910390fd5b6000600560009054906101000a900473ffffffffffffffffffffffffffffffffffffffff1673ffffffffffffffffffffffffffffffffffffffff166370a08231306040518263ffffffff1660e01b81526004016123a89190612c3c565b602060405180830381865afa1580156123c5573d6000803e3d6000fd5b505050506040513d601f19601f820116820180604052508101906123e99190613725565b90506124383382600560009054906101000a900473ffffffffffffffffffffffffffffffffffffffff1673ffffffffffffffffffffffffffffffffffffffff166125909092919063ffffffff16565b50565b600033905090565b6124c6846323b872dd60e01b85858560405160240161246493929190613b0d565b604051602081830303815290604052907bffffffffffffffffffffffffffffffffffffffffffffffffffffffff19166020820180517bffffffffffffffffffffffffffffffffffffffffffffffffffffffff8381831617835250505050612616565b50505050565b60008060009054906101000a900473ffffffffffffffffffffffffffffffffffffffff169050816000806101000a81548173ffffffffffffffffffffffffffffffffffffffff021916908373ffffffffffffffffffffffffffffffffffffffff1602179055508173ffffffffffffffffffffffffffffffffffffffff168173ffffffffffffffffffffffffffffffffffffffff167f8be0079c531659141344cd1fd0a4f28419497f9722a3daafe3b4186f6b6457e060405160405180910390a35050565b6126118363a9059cbb60e01b84846040516024016125af929190613752565b604051602081830303815290604052907bffffffffffffffffffffffffffffffffffffffffffffffffffffffff19166020820180517bffffffffffffffffffffffffffffffffffffffffffffffffffffffff8381831617835250505050612616565b505050565b6000612678826040518060400160405280602081526020017f5361666545524332303a206c6f772d6c6576656c2063616c6c206661696c65648152508573ffffffffffffffffffffffffffffffffffffffff166126dd9092919063ffffffff16565b90506000815111156126d857808060200190518101906126989190613b70565b6126d7576040517f08c379a00000000000000000000000000000000000000000000000000000000081526004016126ce90613c0f565b60405180910390fd5b5b505050565b60606126ec84846000856126f5565b90509392505050565b60608247101561273a576040517f08c379a000000000000000000000000000000000000000000000000000000000815260040161273190613ca1565b60405180910390fd5b61274385612809565b612782576040517f08c379a000000000000000000000000000000000000000000000000000000000815260040161277990613d0d565b60405180910390fd5b6000808673ffffffffffffffffffffffffffffffffffffffff1685876040516127ab9190613d9e565b60006040518083038185875af1925050503d80600081146127e8576040519150601f19603f3d011682016040523d82523d6000602084013e6127ed565b606091505b50915091506127fd82828661281c565b92505050949350505050565b600080823b905060008111915050919050565b6060831561282c5782905061287c565b60008351111561283f5782518084602001fd5b816040517f08c379a00000000000000000000000000000000000000000000000000000000081526004016128739190613df9565b60405180910390fd5b9392505050565b82600481019282156128b2579160200282015b828111156128b1578251825591602001919060010190612896565b5b5090506128bf91906128c3565b5090565b5b808211156128dc5760008160009055506001016128c4565b5090565b6000604051905090565b600080fd5b600073ffffffffffffffffffffffffffffffffffffffff82169050919050565b600061291a826128ef565b9050919050565b61292a8161290f565b811461293557600080fd5b50565b60008135905061294781612921565b92915050565b6000819050919050565b6129608161294d565b811461296b57600080fd5b50565b60008135905061297d81612957565b92915050565b6000806040838503121561299a576129996128ea565b5b60006129a885828601612938565b92505060206129b98582860161296e565b9150509250929050565b6129cc8161294d565b82525050565b60006020820190506129e760008301846129c3565b92915050565b60008115159050919050565b612a02816129ed565b82525050565b6000602082019050612a1d60008301846129f9565b92915050565b600060208284031215612a3957612a386128ea565b5b6000612a478482850161296e565b91505092915050565b600060208284031215612a6657612a656128ea565b5b6000612a7484828501612938565b91505092915050565b6000604082019050612a9260008301856129c3565b612a9f60208301846129f9565b9392505050565b600080fd5b6000601f19601f8301169050919050565b7f4e487b7100000000000000000000000000000000000000000000000000000000600052604160045260246000fd5b612af482612aab565b810181811067ffffffffffffffff82111715612b1357612b12612abc565b5b80604052505050565b6000612b266128e0565b9050612b328282612aeb565b919050565b600067ffffffffffffffff821115612b5257612b51612abc565b5b602082029050919050565b600080fd5b6000612b75612b7084612b37565b612b1c565b90508060208402830185811115612b8f57612b8e612b5d565b5b835b81811015612bb85780612ba4888261296e565b845260208401935050602081019050612b91565b5050509392505050565b600082601f830112612bd757612bd6612aa6565b5b6004612be4848285612b62565b91505092915050565b60008060a08385031215612c0457612c036128ea565b5b6000612c1285828601612938565b9250506020612c2385828601612bc2565b9150509250929050565b612c368161290f565b82525050565b6000602082019050612c516000830184612c2d565b92915050565b600060808284031215612c6d57612c6c6128ea565b5b6000612c7b84828501612bc2565b91505092915050565b600082825260208201905092915050565b7f50726573616c653a20546f6b656e206e6f742077686974656c69737465640000600082015250565b6000612ccb601e83612c84565b9150612cd682612c95565b602082019050919050565b60006020820190508181036000830152612cfa81612cbe565b9050919050565b7f4e487b7100000000000000000000000000000000000000000000000000000000600052603260045260246000fd5b7f4e487b7100000000000000000000000000000000000000000000000000000000600052601160045260246000fd5b60008160011c9050919050565b6000808291508390505b6001851115612db657808604811115612d9257612d91612d30565b5b6001851615612da15780820291505b8081029050612daf85612d5f565b9450612d76565b94509492505050565b600082612dcf5760019050612e8b565b81612ddd5760009050612e8b565b8160018114612df35760028114612dfd57612e2c565b6001915050612e8b565b60ff841115612e0f57612e0e612d30565b5b8360020a915084821115612e2657612e25612d30565b5b50612e8b565b5060208310610133831016604e8410600b8410161715612e615782820a905083811115612e5c57612e5b612d30565b5b612e8b565b612e6e8484846001612d6c565b92509050818404811115612e8557612e84612d30565b5b81810290505b9392505050565b6000612e9d8261294d565b9150612ea88361294d565b9250612ed57fffffffffffffffffffffffffffffffffffffffffffffffffffffffffffffffff8484612dbf565b905092915050565b6000612ee88261294d565b9150612ef38361294d565b9250828202612f018161294d565b91508282048414831517612f1857612f17612d30565b5b5092915050565b7f4e487b7100000000000000000000000000000000000000000000000000000000600052601260045260246000fd5b6000612f598261294d565b9150612f648361294d565b925082612f7457612f73612f1f565b5b828204905092915050565b7f4f776e61626c653a2063616c6c6572206973206e6f7420746865206f776e6572600082015250565b6000612fb5602083612c84565b9150612fc082612f7f565b602082019050919050565b60006020820190508181036000830152612fe481612fa8565b9050919050565b7f50726573616c653a2050726573616c6520686173206e6f7420656e646564207960008201527f6574000000000000000000000000000000000000000000000000000000000000602082015250565b6000613047602283612c84565b915061305282612feb565b604082019050919050565b600060208201905081810360008301526130768161303a565b9050919050565b7f50726573616c653a20556e6c6f636b696e672068617320616c7265616479207360008201527f7461727465640000000000000000000000000000000000000000000000000000602082015250565b60006130d9602683612c84565b91506130e48261307d565b604082019050919050565b60006020820190508181036000830152613108816130cc565b9050919050565b600060049050919050565b600081905092915050565b6000819050919050565b6131388161294d565b82525050565b600061314a838361312f565b60208301905092915050565b6000602082019050919050565b61316c8161310f565b613176818461311a565b925061318182613125565b8060005b838110156131b2578151613199878261313e565b96506131a483613156565b925050600181019050613185565b505050505050565b600060a0820190506131cf6000830185612c2d565b6131dc6020830184613163565b9392505050565b7f50726573616c653a2050726573616c6520686173206e6f74207374617274656460008201527f2079657400000000000000000000000000000000000000000000000000000000602082015250565b600061323f602483612c84565b915061324a826131e3565b604082019050919050565b6000602082019050818103600083015261326e81613232565b9050919050565b7f50726573616c653a2050726573616c652068617320656e646564000000000000600082015250565b60006132ab601a83612c84565b91506132b682613275565b602082019050919050565b600060208201905081810360008301526132da8161329e565b9050919050565b7f50726573616c653a204d696e20627579206c696d6974206e6f7420726561636860008201527f6564000000000000000000000000000000000000000000000000000000000000602082015250565b600061333d602283612c84565b9150613348826132e1565b604082019050919050565b6000602082019050818103600083015261336c81613330565b9050919050565b600061337e8261294d565b91506133898361294d565b92508282019050808211156133a1576133a0612d30565b5b92915050565b7f50726573616c653a204d617820627579206c696d69742072656163686564206660008201527f6f72207468697320706861736500000000000000000000000000000000000000602082015250565b6000613403602d83612c84565b915061340e826133a7565b604082019050919050565b60006020820190508181036000830152613432816133f6565b9050919050565b7f50726573616c653a20546f74616c20546f6b656e2053616c652052656163686560008201527f6421000000000000000000000000000000000000000000000000000000000000602082015250565b6000613495602283612c84565b91506134a082613439565b604082019050919050565b600060208201905081810360008301526134c481613488565b9050919050565b7f50726573616c653a2043616e6e6f74206275792077697468207a65726f20616d60008201527f6f756e7400000000000000000000000000000000000000000000000000000000602082015250565b6000613527602483612c84565b9150613532826134cb565b604082019050919050565b600060208201905081810360008301526135568161351a565b9050919050565b600060408201905061357260008301856129c3565b61357f60208301846129c3565b9392505050565b7f50726573616c653a2053616c6520746f6b656e2063616e6e6f74206265207a6560008201527f726f206164647265737300000000000000000000000000000000000000000000602082015250565b60006135e2602a83612c84565b91506135ed82613586565b604082019050919050565b60006020820190508181036000830152613611816135d5565b9050919050565b7f50726573616c653a20546f74616c20746f6b656e7320666f722073616c65206360008201527f616e6e6f74206265207a65726f00000000000000000000000000000000000000602082015250565b6000613674602d83612c84565b915061367f82613618565b604082019050919050565b600060208201905081810360008301526136a381613667565b9050919050565b600060ff82169050919050565b6136c0816136aa565b81146136cb57600080fd5b50565b6000815190506136dd816136b7565b92915050565b6000602082840312156136f9576136f86128ea565b5b6000613707848285016136ce565b91505092915050565b60008151905061371f81612957565b92915050565b60006020828403121561373b5761373a6128ea565b5b600061374984828501613710565b91505092915050565b60006040820190506137676000830185612c2d565b61377460208301846129c3565b9392505050565b7f50726573616c653a20556e6c6f636b696e67206861736e27742073746172746560008201527f6420796574210000000000000000000000000000000000000000000000000000602082015250565b60006137d7602683612c84565b91506137e28261377b565b604082019050919050565b60006020820190508181036000830152613806816137ca565b9050919050565b7f50726573616c653a204c6f636b696e6720706572696f64206e6f74206f76657260008201527f2079657400000000000000000000000000000000000000000000000000000000602082015250565b6000613869602483612c84565b91506138748261380d565b604082019050919050565b600060208201905081810360008301526138988161385c565b9050919050565b7f50726573616c653a20416c726561647920636c61696d65640000000000000000600082015250565b60006138d5601883612c84565b91506138e08261389f565b602082019050919050565b60006020820190508181036000830152613904816138c8565b9050919050565b7f4f776e61626c653a206e6577206f776e657220697320746865207a65726f206160008201527f6464726573730000000000000000000000000000000000000000000000000000602082015250565b6000613967602683612c84565b91506139728261390b565b604082019050919050565b600060208201905081810360008301526139968161395a565b9050919050565b7f50726573616c653a2043616e6e6f742077697468647261772073616c6520746f60008201527f6b656e20776974682074686973206d6574686f642c207573652077697468647260208201527f617753616c65546f6b656e282920696e73746561640000000000000000000000604082015250565b6000613a1f605583612c84565b9150613a2a8261399d565b606082019050919050565b60006020820190508181036000830152613a4e81613a12565b9050919050565b7f50726573616c653a2043616e6e6f742077697468647261772073616c6520746f60008201527f6b656e20776974682074686973206d6574686f642c207573652077697468647260208201527f6177416c6c53616c65546f6b656e282920696e73746561640000000000000000604082015250565b6000613ad7605883612c84565b9150613ae282613a55565b606082019050919050565b60006020820190508181036000830152613b0681613aca565b9050919050565b6000606082019050613b226000830186612c2d565b613b2f6020830185612c2d565b613b3c60408301846129c3565b949350505050565b613b4d816129ed565b8114613b5857600080fd5b50565b600081519050613b6a81613b44565b92915050565b600060208284031215613b8657613b856128ea565b5b6000613b9484828501613b5b565b91505092915050565b7f5361666545524332303a204552433230206f7065726174696f6e20646964206e60008201527f6f74207375636365656400000000000000000000000000000000000000000000602082015250565b6000613bf9602a83612c84565b9150613c0482613b9d565b604082019050919050565b60006020820190508181036000830152613c2881613bec565b9050919050565b7f416464726573733a20696e73756666696369656e742062616c616e636520666f60008201527f722063616c6c0000000000000000000000000000000000000000000000000000602082015250565b6000613c8b602683612c84565b9150613c9682613c2f565b604082019050919050565b60006020820190508181036000830152613cba81613c7e565b9050919050565b7f416464726573733a2063616c6c20746f206e6f6e2d636f6e7472616374000000600082015250565b6000613cf7601d83612c84565b9150613d0282613cc1565b602082019050919050565b60006020820190508181036000830152613d2681613cea565b9050919050565b600081519050919050565b600081905092915050565b60005b83811015613d61578082015181840152602081019050613d46565b60008484015250505050565b6000613d7882613d2d565b613d828185613d38565b9350613d92818560208601613d43565b80840191505092915050565b6000613daa8284613d6d565b915081905092915050565b600081519050919050565b6000613dcb82613db5565b613dd58185612c84565b9350613de5818560208601613d43565b613dee81612aab565b840191505092915050565b60006020820190508181036000830152613e138184613dc0565b90509291505056fea26469706673582212205a85790d6498c69189cb4f5d9bc2d8890b7397d6a689e8ffc3050cef06f3939964736f6c63430008120033",
					"opcodes": "PUSH1 0x80 PUSH1 0x40 MSTORE CALLVALUE DUP1 ISZERO PUSH3 0x11 JUMPI PUSH1 0x0 DUP1 REVERT JUMPDEST POP PUSH3 0x32 PUSH3 0x26 PUSH3 0x38 PUSH1 0x20 SHL PUSH1 0x20 SHR JUMP JUMPDEST PUSH3 0x40 PUSH1 0x20 SHL PUSH1 0x20 SHR JUMP JUMPDEST PUSH3 0x104 JUMP JUMPDEST PUSH1 0x0 CALLER SWAP1 POP SWAP1 JUMP JUMPDEST PUSH1 0x0 DUP1 PUSH1 0x0 SWAP1 SLOAD SWAP1 PUSH2 0x100 EXP SWAP1 DIV PUSH20 0xFFFFFFFFFFFFFFFFFFFFFFFFFFFFFFFFFFFFFFFF AND SWAP1 POP DUP2 PUSH1 0x0 DUP1 PUSH2 0x100 EXP DUP2 SLOAD DUP2 PUSH20 0xFFFFFFFFFFFFFFFFFFFFFFFFFFFFFFFFFFFFFFFF MUL NOT AND SWAP1 DUP4 PUSH20 0xFFFFFFFFFFFFFFFFFFFFFFFFFFFFFFFFFFFFFFFF AND MUL OR SWAP1 SSTORE POP DUP2 PUSH20 0xFFFFFFFFFFFFFFFFFFFFFFFFFFFFFFFFFFFFFFFF AND DUP2 PUSH20 0xFFFFFFFFFFFFFFFFFFFFFFFFFFFFFFFFFFFFFFFF AND PUSH32 0x8BE0079C531659141344CD1FD0A4F28419497F9722A3DAAFE3B4186F6B6457E0 PUSH1 0x40 MLOAD PUSH1 0x40 MLOAD DUP1 SWAP2 SUB SWAP1 LOG3 POP POP JUMP JUMPDEST PUSH2 0x3E51 DUP1 PUSH3 0x114 PUSH1 0x0 CODECOPY PUSH1 0x0 RETURN INVALID PUSH1 0x80 PUSH1 0x40 MSTORE PUSH1 0x4 CALLDATASIZE LT PUSH2 0x204 JUMPI PUSH1 0x0 CALLDATALOAD PUSH1 0xE0 SHR DUP1 PUSH4 0x89E6CE1E GT PUSH2 0x118 JUMPI DUP1 PUSH4 0xCAE70C70 GT PUSH2 0xA0 JUMPI DUP1 PUSH4 0xEE774CCD GT PUSH2 0x6F JUMPI DUP1 PUSH4 0xEE774CCD EQ PUSH2 0x6FD JUMPI DUP1 PUSH4 0xF2FDE38B EQ PUSH2 0x726 JUMPI DUP1 PUSH4 0xF3FEF3A3 EQ PUSH2 0x74F JUMPI DUP1 PUSH4 0xFA09E630 EQ PUSH2 0x778 JUMPI DUP1 PUSH4 0xFB00F3FC EQ PUSH2 0x7A1 JUMPI PUSH2 0x204 JUMP JUMPDEST DUP1 PUSH4 0xCAE70C70 EQ PUSH2 0x643 JUMPI DUP1 PUSH4 0xDED441C2 EQ PUSH2 0x66C JUMPI DUP1 PUSH4 0xE7EE6AD6 EQ PUSH2 0x695 JUMPI DUP1 PUSH4 0xE985E367 EQ PUSH2 0x6D2 JUMPI PUSH2 0x204 JUMP JUMPDEST DUP1 PUSH4 0xA82524B2 GT PUSH2 0xE7 JUMPI DUP1 PUSH4 0xA82524B2 EQ PUSH2 0x594 JUMPI DUP1 PUSH4 0xACE1741C EQ PUSH2 0x5BF JUMPI DUP1 PUSH4 0xB5B0763C EQ PUSH2 0x5EA JUMPI DUP1 PUSH4 0xB81DF742 EQ PUSH2 0x601 JUMPI DUP1 PUSH4 0xCA628C78 EQ PUSH2 0x62C JUMPI PUSH2 0x204 JUMP JUMPDEST DUP1 PUSH4 0x89E6CE1E EQ PUSH2 0x4DA JUMPI DUP1 PUSH4 0x8CE0B9D2 EQ PUSH2 0x503 JUMPI DUP1 PUSH4 0x8DA5CB5B EQ PUSH2 0x540 JUMPI DUP1 PUSH4 0x99B77032 EQ PUSH2 0x56B JUMPI PUSH2 0x204 JUMP JUMPDEST DUP1 PUSH4 0x65617DB1 GT PUSH2 0x19B JUMPI DUP1 PUSH4 0x6BCEDF9C GT PUSH2 0x16A JUMPI DUP1 PUSH4 0x6BCEDF9C EQ PUSH2 0x41B JUMPI DUP1 PUSH4 0x6C59BD0C EQ PUSH2 0x446 JUMPI DUP1 PUSH4 0x715018A6 EQ PUSH2 0x46F JUMPI DUP1 PUSH4 0x7412C223 EQ PUSH2 0x486 JUMPI DUP1 PUSH4 0x757765F8 EQ PUSH2 0x4B1 JUMPI PUSH2 0x204 JUMP JUMPDEST DUP1 PUSH4 0x65617DB1 EQ PUSH2 0x36E JUMPI DUP1 PUSH4 0x683B3B97 EQ PUSH2 0x397 JUMPI DUP1 PUSH4 0x68F8FC10 EQ PUSH2 0x3D4 JUMPI DUP1 PUSH4 0x6AA5B37F EQ PUSH2 0x3F0 JUMPI PUSH2 0x204 JUMP JUMPDEST DUP1 PUSH4 0x3C00A36C GT PUSH2 0x1D7 JUMPI DUP1 PUSH4 0x3C00A36C EQ PUSH2 0x2B3 JUMPI DUP1 PUSH4 0x54A9F102 EQ PUSH2 0x2DC JUMPI DUP1 PUSH4 0x5B10BD6A EQ PUSH2 0x31A JUMPI DUP1 PUSH4 0x63B20117 EQ PUSH2 0x343 JUMPI PUSH2 0x204 JUMP JUMPDEST DUP1 PUSH4 0x115ECE4C EQ PUSH2 0x209 JUMPI DUP1 PUSH4 0x249B7C19 EQ PUSH2 0x246 JUMPI DUP1 PUSH4 0x2A95C24C EQ PUSH2 0x271 JUMPI DUP1 PUSH4 0x3848A771 EQ PUSH2 0x288 JUMPI JUMPDEST PUSH1 0x0 DUP1 REVERT JUMPDEST CALLVALUE DUP1 ISZERO PUSH2 0x215 JUMPI PUSH1 0x0 DUP1 REVERT JUMPDEST POP PUSH2 0x230 PUSH1 0x4 DUP1 CALLDATASIZE SUB DUP2 ADD SWAP1 PUSH2 0x22B SWAP2 SWAP1 PUSH2 0x2983 JUMP JUMPDEST PUSH2 0x7B8 JUMP JUMPDEST PUSH1 0x40 MLOAD PUSH2 0x23D SWAP2 SWAP1 PUSH2 0x29D2 JUMP JUMPDEST PUSH1 0x40 MLOAD DUP1 SWAP2 SUB SWAP1 RETURN JUMPDEST CALLVALUE DUP1 ISZERO PUSH2 0x252 JUMPI PUSH1 0x0 DUP1 REVERT JUMPDEST POP PUSH2 0x25B PUSH2 0x9D4 JUMP JUMPDEST PUSH1 0x40 MLOAD PUSH2 0x268 SWAP2 SWAP1 PUSH2 0x29D2 JUMP JUMPDEST PUSH1 0x40 MLOAD DUP1 SWAP2 SUB SWAP1 RETURN JUMPDEST CALLVALUE DUP1 ISZERO PUSH2 0x27D JUMPI PUSH1 0x0 DUP1 REVERT JUMPDEST POP PUSH2 0x286 PUSH2 0x9DA JUMP JUMPDEST STOP JUMPDEST CALLVALUE DUP1 ISZERO PUSH2 0x294 JUMPI PUSH1 0x0 DUP1 REVERT JUMPDEST POP PUSH2 0x29D PUSH2 0xB08 JUMP JUMPDEST PUSH1 0x40 MLOAD PUSH2 0x2AA SWAP2 SWAP1 PUSH2 0x2A08 JUMP JUMPDEST PUSH1 0x40 MLOAD DUP1 SWAP2 SUB SWAP1 RETURN JUMPDEST CALLVALUE DUP1 ISZERO PUSH2 0x2BF JUMPI PUSH1 0x0 DUP1 REVERT JUMPDEST POP PUSH2 0x2DA PUSH1 0x4 DUP1 CALLDATASIZE SUB DUP2 ADD SWAP1 PUSH2 0x2D5 SWAP2 SWAP1 PUSH2 0x2A23 JUMP JUMPDEST PUSH2 0xB1B JUMP JUMPDEST STOP JUMPDEST CALLVALUE DUP1 ISZERO PUSH2 0x2E8 JUMPI PUSH1 0x0 DUP1 REVERT JUMPDEST POP PUSH2 0x303 PUSH1 0x4 DUP1 CALLDATASIZE SUB DUP2 ADD SWAP1 PUSH2 0x2FE SWAP2 SWAP1 PUSH2 0x2A50 JUMP JUMPDEST PUSH2 0xBE1 JUMP JUMPDEST PUSH1 0x40 MLOAD PUSH2 0x311 SWAP3 SWAP2 SWAP1 PUSH2 0x2A7D JUMP JUMPDEST PUSH1 0x40 MLOAD DUP1 SWAP2 SUB SWAP1 RETURN JUMPDEST CALLVALUE DUP1 ISZERO PUSH2 0x326 JUMPI PUSH1 0x0 DUP1 REVERT JUMPDEST POP PUSH2 0x341 PUSH1 0x4 DUP1 CALLDATASIZE SUB DUP2 ADD SWAP1 PUSH2 0x33C SWAP2 SWAP1 PUSH2 0x2A23 JUMP JUMPDEST PUSH2 0xC12 JUMP JUMPDEST STOP JUMPDEST CALLVALUE DUP1 ISZERO PUSH2 0x34F JUMPI PUSH1 0x0 DUP1 REVERT JUMPDEST POP PUSH2 0x358 PUSH2 0xC9F JUMP JUMPDEST PUSH1 0x40 MLOAD PUSH2 0x365 SWAP2 SWAP1 PUSH2 0x29D2 JUMP JUMPDEST PUSH1 0x40 MLOAD DUP1 SWAP2 SUB SWAP1 RETURN JUMPDEST CALLVALUE DUP1 ISZERO PUSH2 0x37A JUMPI PUSH1 0x0 DUP1 REVERT JUMPDEST POP PUSH2 0x395 PUSH1 0x4 DUP1 CALLDATASIZE SUB DUP2 ADD SWAP1 PUSH2 0x390 SWAP2 SWAP1 PUSH2 0x2BED JUMP JUMPDEST PUSH2 0xCA5 JUMP JUMPDEST STOP JUMPDEST CALLVALUE DUP1 ISZERO PUSH2 0x3A3 JUMPI PUSH1 0x0 DUP1 REVERT JUMPDEST POP PUSH2 0x3BE PUSH1 0x4 DUP1 CALLDATASIZE SUB DUP2 ADD SWAP1 PUSH2 0x3B9 SWAP2 SWAP1 PUSH2 0x2983 JUMP JUMPDEST PUSH2 0xE05 JUMP JUMPDEST PUSH1 0x40 MLOAD PUSH2 0x3CB SWAP2 SWAP1 PUSH2 0x29D2 JUMP JUMPDEST PUSH1 0x40 MLOAD DUP1 SWAP2 SUB SWAP1 RETURN JUMPDEST PUSH2 0x3EE PUSH1 0x4 DUP1 CALLDATASIZE SUB DUP2 ADD SWAP1 PUSH2 0x3E9 SWAP2 SWAP1 PUSH2 0x2983 JUMP JUMPDEST PUSH2 0xE2D JUMP JUMPDEST STOP JUMPDEST CALLVALUE DUP1 ISZERO PUSH2 0x3FC JUMPI PUSH1 0x0 DUP1 REVERT JUMPDEST POP PUSH2 0x405 PUSH2 0x1240 JUMP JUMPDEST PUSH1 0x40 MLOAD PUSH2 0x412 SWAP2 SWAP1 PUSH2 0x29D2 JUMP JUMPDEST PUSH1 0x40 MLOAD DUP1 SWAP2 SUB SWAP1 RETURN JUMPDEST CALLVALUE DUP1 ISZERO PUSH2 0x427 JUMPI PUSH1 0x0 DUP1 REVERT JUMPDEST POP PUSH2 0x430 PUSH2 0x1246 JUMP JUMPDEST PUSH1 0x40 MLOAD PUSH2 0x43D SWAP2 SWAP1 PUSH2 0x29D2 JUMP JUMPDEST PUSH1 0x40 MLOAD DUP1 SWAP2 SUB SWAP1 RETURN JUMPDEST CALLVALUE DUP1 ISZERO PUSH2 0x452 JUMPI PUSH1 0x0 DUP1 REVERT JUMPDEST POP PUSH2 0x46D PUSH1 0x4 DUP1 CALLDATASIZE SUB DUP2 ADD SWAP1 PUSH2 0x468 SWAP2 SWAP1 PUSH2 0x2A23 JUMP JUMPDEST PUSH2 0x124C JUMP JUMPDEST STOP JUMPDEST CALLVALUE DUP1 ISZERO PUSH2 0x47B JUMPI PUSH1 0x0 DUP1 REVERT JUMPDEST POP PUSH2 0x484 PUSH2 0x12D2 JUMP JUMPDEST STOP JUMPDEST CALLVALUE DUP1 ISZERO PUSH2 0x492 JUMPI PUSH1 0x0 DUP1 REVERT JUMPDEST POP PUSH2 0x49B PUSH2 0x135A JUMP JUMPDEST PUSH1 0x40 MLOAD PUSH2 0x4A8 SWAP2 SWAP1 PUSH2 0x29D2 JUMP JUMPDEST PUSH1 0x40 MLOAD DUP1 SWAP2 SUB SWAP1 RETURN JUMPDEST CALLVALUE DUP1 ISZERO PUSH2 0x4BD JUMPI PUSH1 0x0 DUP1 REVERT JUMPDEST POP PUSH2 0x4D8 PUSH1 0x4 DUP1 CALLDATASIZE SUB DUP2 ADD SWAP1 PUSH2 0x4D3 SWAP2 SWAP1 PUSH2 0x2A23 JUMP JUMPDEST PUSH2 0x135F JUMP JUMPDEST STOP JUMPDEST CALLVALUE DUP1 ISZERO PUSH2 0x4E6 JUMPI PUSH1 0x0 DUP1 REVERT JUMPDEST POP PUSH2 0x501 PUSH1 0x4 DUP1 CALLDATASIZE SUB DUP2 ADD SWAP1 PUSH2 0x4FC SWAP2 SWAP1 PUSH2 0x2983 JUMP JUMPDEST PUSH2 0x13E5 JUMP JUMPDEST STOP JUMPDEST CALLVALUE DUP1 ISZERO PUSH2 0x50F JUMPI PUSH1 0x0 DUP1 REVERT JUMPDEST POP PUSH2 0x52A PUSH1 0x4 DUP1 CALLDATASIZE SUB DUP2 ADD SWAP1 PUSH2 0x525 SWAP2 SWAP1 PUSH2 0x2A50 JUMP JUMPDEST PUSH2 0x171C JUMP JUMPDEST PUSH1 0x40 MLOAD PUSH2 0x537 SWAP2 SWAP1 PUSH2 0x2A08 JUMP JUMPDEST PUSH1 0x40 MLOAD DUP1 SWAP2 SUB SWAP1 RETURN JUMPDEST CALLVALUE DUP1 ISZERO PUSH2 0x54C JUMPI PUSH1 0x0 DUP1 REVERT JUMPDEST POP PUSH2 0x555 PUSH2 0x173C JUMP JUMPDEST PUSH1 0x40 MLOAD PUSH2 0x562 SWAP2 SWAP1 PUSH2 0x2C3C JUMP JUMPDEST PUSH1 0x40 MLOAD DUP1 SWAP2 SUB SWAP1 RETURN JUMPDEST CALLVALUE DUP1 ISZERO PUSH2 0x577 JUMPI PUSH1 0x0 DUP1 REVERT JUMPDEST POP PUSH2 0x592 PUSH1 0x4 DUP1 CALLDATASIZE SUB DUP2 ADD SWAP1 PUSH2 0x58D SWAP2 SWAP1 PUSH2 0x2A23 JUMP JUMPDEST PUSH2 0x1765 JUMP JUMPDEST STOP JUMPDEST CALLVALUE DUP1 ISZERO PUSH2 0x5A0 JUMPI PUSH1 0x0 DUP1 REVERT JUMPDEST POP PUSH2 0x5A9 PUSH2 0x17EB JUMP JUMPDEST PUSH1 0x40 MLOAD PUSH2 0x5B6 SWAP2 SWAP1 PUSH2 0x29D2 JUMP JUMPDEST PUSH1 0x40 MLOAD DUP1 SWAP2 SUB SWAP1 RETURN JUMPDEST CALLVALUE DUP1 ISZERO PUSH2 0x5CB JUMPI PUSH1 0x0 DUP1 REVERT JUMPDEST POP PUSH2 0x5D4 PUSH2 0x17F1 JUMP JUMPDEST PUSH1 0x40 MLOAD PUSH2 0x5E1 SWAP2 SWAP1 PUSH2 0x29D2 JUMP JUMPDEST PUSH1 0x40 MLOAD DUP1 SWAP2 SUB SWAP1 RETURN JUMPDEST CALLVALUE DUP1 ISZERO PUSH2 0x5F6 JUMPI PUSH1 0x0 DUP1 REVERT JUMPDEST POP PUSH2 0x5FF PUSH2 0x17F7 JUMP JUMPDEST STOP JUMPDEST CALLVALUE DUP1 ISZERO PUSH2 0x60D JUMPI PUSH1 0x0 DUP1 REVERT JUMPDEST POP PUSH2 0x616 PUSH2 0x1924 JUMP JUMPDEST PUSH1 0x40 MLOAD PUSH2 0x623 SWAP2 SWAP1 PUSH2 0x29D2 JUMP JUMPDEST PUSH1 0x40 MLOAD DUP1 SWAP2 SUB SWAP1 RETURN JUMPDEST CALLVALUE DUP1 ISZERO PUSH2 0x638 JUMPI PUSH1 0x0 DUP1 REVERT JUMPDEST POP PUSH2 0x641 PUSH2 0x192A JUMP JUMPDEST STOP JUMPDEST CALLVALUE DUP1 ISZERO PUSH2 0x64F JUMPI PUSH1 0x0 DUP1 REVERT JUMPDEST POP PUSH2 0x66A PUSH1 0x4 DUP1 CALLDATASIZE SUB DUP2 ADD SWAP1 PUSH2 0x665 SWAP2 SWAP1 PUSH2 0x2BED JUMP JUMPDEST PUSH2 0x1B49 JUMP JUMPDEST STOP JUMPDEST CALLVALUE DUP1 ISZERO PUSH2 0x678 JUMPI PUSH1 0x0 DUP1 REVERT JUMPDEST POP PUSH2 0x693 PUSH1 0x4 DUP1 CALLDATASIZE SUB DUP2 ADD SWAP1 PUSH2 0x68E SWAP2 SWAP1 PUSH2 0x2A23 JUMP JUMPDEST PUSH2 0x1CDD JUMP JUMPDEST STOP JUMPDEST CALLVALUE DUP1 ISZERO PUSH2 0x6A1 JUMPI PUSH1 0x0 DUP1 REVERT JUMPDEST POP PUSH2 0x6BC PUSH1 0x4 DUP1 CALLDATASIZE SUB DUP2 ADD SWAP1 PUSH2 0x6B7 SWAP2 SWAP1 PUSH2 0x2A23 JUMP JUMPDEST PUSH2 0x1DEE JUMP JUMPDEST PUSH1 0x40 MLOAD PUSH2 0x6C9 SWAP2 SWAP1 PUSH2 0x29D2 JUMP JUMPDEST PUSH1 0x40 MLOAD DUP1 SWAP2 SUB SWAP1 RETURN JUMPDEST CALLVALUE DUP1 ISZERO PUSH2 0x6DE JUMPI PUSH1 0x0 DUP1 REVERT JUMPDEST POP PUSH2 0x6E7 PUSH2 0x1E09 JUMP JUMPDEST PUSH1 0x40 MLOAD PUSH2 0x6F4 SWAP2 SWAP1 PUSH2 0x2C3C JUMP JUMPDEST PUSH1 0x40 MLOAD DUP1 SWAP2 SUB SWAP1 RETURN JUMPDEST CALLVALUE DUP1 ISZERO PUSH2 0x709 JUMPI PUSH1 0x0 DUP1 REVERT JUMPDEST POP PUSH2 0x724 PUSH1 0x4 DUP1 CALLDATASIZE SUB DUP2 ADD SWAP1 PUSH2 0x71F SWAP2 SWAP1 PUSH2 0x2C57 JUMP JUMPDEST PUSH2 0x1E2F JUMP JUMPDEST STOP JUMPDEST CALLVALUE DUP1 ISZERO PUSH2 0x732 JUMPI PUSH1 0x0 DUP1 REVERT JUMPDEST POP PUSH2 0x74D PUSH1 0x4 DUP1 CALLDATASIZE SUB DUP2 ADD SWAP1 PUSH2 0x748 SWAP2 SWAP1 PUSH2 0x2A50 JUMP JUMPDEST PUSH2 0x1EC0 JUMP JUMPDEST STOP JUMPDEST CALLVALUE DUP1 ISZERO PUSH2 0x75B JUMPI PUSH1 0x0 DUP1 REVERT JUMPDEST POP PUSH2 0x776 PUSH1 0x4 DUP1 CALLDATASIZE SUB DUP2 ADD SWAP1 PUSH2 0x771 SWAP2 SWAP1 PUSH2 0x2983 JUMP JUMPDEST PUSH2 0x1FB7 JUMP JUMPDEST STOP JUMPDEST CALLVALUE DUP1 ISZERO PUSH2 0x784 JUMPI PUSH1 0x0 DUP1 REVERT JUMPDEST POP PUSH2 0x79F PUSH1 0x4 DUP1 CALLDATASIZE SUB DUP2 ADD SWAP1 PUSH2 0x79A SWAP2 SWAP1 PUSH2 0x2A50 JUMP JUMPDEST PUSH2 0x20F2 JUMP JUMPDEST STOP JUMPDEST CALLVALUE DUP1 ISZERO PUSH2 0x7AD JUMPI PUSH1 0x0 DUP1 REVERT JUMPDEST POP PUSH2 0x7B6 PUSH2 0x228A JUMP JUMPDEST STOP JUMPDEST PUSH1 0x0 DUP1 PUSH1 0x0 PUSH2 0x7C5 PUSH2 0x135A JUMP JUMPDEST SWAP1 POP PUSH1 0x0 PUSH20 0xFFFFFFFFFFFFFFFFFFFFFFFFFFFFFFFFFFFFFFFF AND DUP6 PUSH20 0xFFFFFFFFFFFFFFFFFFFFFFFFFFFFFFFFFFFFFFFF AND EQ PUSH2 0x967 JUMPI PUSH1 0xA PUSH1 0x0 DUP7 PUSH20 0xFFFFFFFFFFFFFFFFFFFFFFFFFFFFFFFFFFFFFFFF AND PUSH20 0xFFFFFFFFFFFFFFFFFFFFFFFFFFFFFFFFFFFFFFFF AND DUP2 MSTORE PUSH1 0x20 ADD SWAP1 DUP2 MSTORE PUSH1 0x20 ADD PUSH1 0x0 KECCAK256 PUSH1 0x0 SWAP1 SLOAD SWAP1 PUSH2 0x100 EXP SWAP1 DIV PUSH1 0xFF AND PUSH2 0x887 JUMPI PUSH1 0x40 MLOAD PUSH32 0x8C379A000000000000000000000000000000000000000000000000000000000 DUP2 MSTORE PUSH1 0x4 ADD PUSH2 0x87E SWAP1 PUSH2 0x2CE1 JUMP JUMPDEST PUSH1 0x40 MLOAD DUP1 SWAP2 SUB SWAP1 REVERT JUMPDEST PUSH1 0x0 PUSH1 0xB PUSH1 0x0 DUP8 PUSH20 0xFFFFFFFFFFFFFFFFFFFFFFFFFFFFFFFFFFFFFFFF AND PUSH20 0xFFFFFFFFFFFFFFFFFFFFFFFFFFFFFFFFFFFFFFFF AND DUP2 MSTORE PUSH1 0x20 ADD SWAP1 DUP2 MSTORE PUSH1 0x20 ADD PUSH1 0x0 KECCAK256 DUP3 PUSH1 0x4 DUP2 LT PUSH2 0x8DA JUMPI PUSH2 0x8D9 PUSH2 0x2D01 JUMP JUMPDEST JUMPDEST ADD SLOAD SUB PUSH2 0x8E8 JUMPI PUSH1 0x0 PUSH2 0x960 JUMP JUMPDEST PUSH1 0xB PUSH1 0x0 DUP7 PUSH20 0xFFFFFFFFFFFFFFFFFFFFFFFFFFFFFFFFFFFFFFFF AND PUSH20 0xFFFFFFFFFFFFFFFFFFFFFFFFFFFFFFFFFFFFFFFF AND DUP2 MSTORE PUSH1 0x20 ADD SWAP1 DUP2 MSTORE PUSH1 0x20 ADD PUSH1 0x0 KECCAK256 DUP2 PUSH1 0x4 DUP2 LT PUSH2 0x939 JUMPI PUSH2 0x938 PUSH2 0x2D01 JUMP JUMPDEST JUMPDEST ADD SLOAD PUSH1 0x6 SLOAD PUSH1 0xA PUSH2 0x94A SWAP2 SWAP1 PUSH2 0x2E92 JUMP JUMPDEST DUP6 PUSH2 0x955 SWAP2 SWAP1 PUSH2 0x2EDD JUMP JUMPDEST PUSH2 0x95F SWAP2 SWAP1 PUSH2 0x2F4E JUMP JUMPDEST JUMPDEST SWAP2 POP PUSH2 0x9C9 JUMP JUMPDEST PUSH1 0x0 PUSH1 0x1 DUP3 PUSH1 0x4 DUP2 LT PUSH2 0x97D JUMPI PUSH2 0x97C PUSH2 0x2D01 JUMP JUMPDEST JUMPDEST ADD SLOAD SUB PUSH2 0x98B JUMPI PUSH1 0x0 PUSH2 0x9C6 JUMP JUMPDEST PUSH1 0x1 DUP2 PUSH1 0x4 DUP2 LT PUSH2 0x99F JUMPI PUSH2 0x99E PUSH2 0x2D01 JUMP JUMPDEST JUMPDEST ADD SLOAD PUSH1 0x6 SLOAD PUSH1 0xA PUSH2 0x9B0 SWAP2 SWAP1 PUSH2 0x2E92 JUMP JUMPDEST DUP6 PUSH2 0x9BB SWAP2 SWAP1 PUSH2 0x2EDD JUMP JUMPDEST PUSH2 0x9C5 SWAP2 SWAP1 PUSH2 0x2F4E JUMP JUMPDEST JUMPDEST SWAP2 POP JUMPDEST DUP2 SWAP3 POP POP POP SWAP3 SWAP2 POP POP JUMP JUMPDEST PUSH1 0xD SLOAD DUP2 JUMP JUMPDEST PUSH2 0x9E2 PUSH2 0x243B JUMP JUMPDEST PUSH20 0xFFFFFFFFFFFFFFFFFFFFFFFFFFFFFFFFFFFFFFFF AND PUSH2 0xA00 PUSH2 0x173C JUMP JUMPDEST PUSH20 0xFFFFFFFFFFFFFFFFFFFFFFFFFFFFFFFFFFFFFFFF AND EQ PUSH2 0xA56 JUMPI PUSH1 0x40 MLOAD PUSH32 0x8C379A000000000000000000000000000000000000000000000000000000000 DUP2 MSTORE PUSH1 0x4 ADD PUSH2 0xA4D SWAP1 PUSH2 0x2FCB JUMP JUMPDEST PUSH1 0x40 MLOAD DUP1 SWAP2 SUB SWAP1 REVERT JUMPDEST PUSH1 0xD SLOAD TIMESTAMP LT ISZERO PUSH2 0xA9B JUMPI PUSH1 0x40 MLOAD PUSH32 0x8C379A000000000000000000000000000000000000000000000000000000000 DUP2 MSTORE PUSH1 0x4 ADD PUSH2 0xA92 SWAP1 PUSH2 0x305D JUMP JUMPDEST PUSH1 0x40 MLOAD DUP1 SWAP2 SUB SWAP1 REVERT JUMPDEST PUSH1 0xE PUSH1 0x0 SWAP1 SLOAD SWAP1 PUSH2 0x100 EXP SWAP1 DIV PUSH1 0xFF AND ISZERO PUSH2 0xAEB JUMPI PUSH1 0x40 MLOAD PUSH32 0x8C379A000000000000000000000000000000000000000000000000000000000 DUP2 MSTORE PUSH1 0x4 ADD PUSH2 0xAE2 SWAP1 PUSH2 0x30EF JUMP JUMPDEST PUSH1 0x40 MLOAD DUP1 SWAP2 SUB SWAP1 REVERT JUMPDEST PUSH1 0x1 PUSH1 0xE PUSH1 0x0 PUSH2 0x100 EXP DUP2 SLOAD DUP2 PUSH1 0xFF MUL NOT AND SWAP1 DUP4 ISZERO ISZERO MUL OR SWAP1 SSTORE POP JUMP JUMPDEST PUSH1 0xE PUSH1 0x0 SWAP1 SLOAD SWAP1 PUSH2 0x100 EXP SWAP1 DIV PUSH1 0xFF AND DUP2 JUMP JUMPDEST PUSH2 0xB23 PUSH2 0x243B JUMP JUMPDEST PUSH20 0xFFFFFFFFFFFFFFFFFFFFFFFFFFFFFFFFFFFFFFFF AND PUSH2 0xB41 PUSH2 0x173C JUMP JUMPDEST PUSH20 0xFFFFFFFFFFFFFFFFFFFFFFFFFFFFFFFFFFFFFFFF AND EQ PUSH2 0xB97 JUMPI PUSH1 0x40 MLOAD PUSH32 0x8C379A000000000000000000000000000000000000000000000000000000000 DUP2 MSTORE PUSH1 0x4 ADD PUSH2 0xB8E SWAP1 PUSH2 0x2FCB JUMP JUMPDEST PUSH1 0x40 MLOAD DUP1 SWAP2 SUB SWAP1 REVERT JUMPDEST CALLER PUSH20 0xFFFFFFFFFFFFFFFFFFFFFFFFFFFFFFFFFFFFFFFF AND PUSH2 0x8FC DUP3 SWAP1 DUP2 ISZERO MUL SWAP1 PUSH1 0x40 MLOAD PUSH1 0x0 PUSH1 0x40 MLOAD DUP1 DUP4 SUB DUP2 DUP6 DUP9 DUP9 CALL SWAP4 POP POP POP POP ISZERO DUP1 ISZERO PUSH2 0xBDD JUMPI RETURNDATASIZE PUSH1 0x0 DUP1 RETURNDATACOPY RETURNDATASIZE PUSH1 0x0 REVERT JUMPDEST POP POP JUMP JUMPDEST PUSH1 0xF PUSH1 0x20 MSTORE DUP1 PUSH1 0x0 MSTORE PUSH1 0x40 PUSH1 0x0 KECCAK256 PUSH1 0x0 SWAP2 POP SWAP1 POP DUP1 PUSH1 0x0 ADD SLOAD SWAP1 DUP1 PUSH1 0x1 ADD PUSH1 0x0 SWAP1 SLOAD SWAP1 PUSH2 0x100 EXP SWAP1 DIV PUSH1 0xFF AND SWAP1 POP DUP3 JUMP JUMPDEST PUSH2 0xC1A PUSH2 0x243B JUMP JUMPDEST PUSH20 0xFFFFFFFFFFFFFFFFFFFFFFFFFFFFFFFFFFFFFFFF AND PUSH2 0xC38 PUSH2 0x173C JUMP JUMPDEST PUSH20 0xFFFFFFFFFFFFFFFFFFFFFFFFFFFFFFFFFFFFFFFF AND EQ PUSH2 0xC8E JUMPI PUSH1 0x40 MLOAD PUSH32 0x8C379A000000000000000000000000000000000000000000000000000000000 DUP2 MSTORE PUSH1 0x4 ADD PUSH2 0xC85 SWAP1 PUSH2 0x2FCB JUMP JUMPDEST PUSH1 0x40 MLOAD DUP1 SWAP2 SUB SWAP1 REVERT JUMPDEST TIMESTAMP PUSH1 0xC DUP2 SWAP1 SSTORE POP DUP1 PUSH1 0xD DUP2 SWAP1 SSTORE POP POP JUMP JUMPDEST PUSH1 0x10 SLOAD DUP2 JUMP JUMPDEST PUSH2 0xCAD PUSH2 0x243B JUMP JUMPDEST PUSH20 0xFFFFFFFFFFFFFFFFFFFFFFFFFFFFFFFFFFFFFFFF AND PUSH2 0xCCB PUSH2 0x173C JUMP JUMPDEST PUSH20 0xFFFFFFFFFFFFFFFFFFFFFFFFFFFFFFFFFFFFFFFF AND EQ PUSH2 0xD21 JUMPI PUSH1 0x40 MLOAD PUSH32 0x8C379A000000000000000000000000000000000000000000000000000000000 DUP2 MSTORE PUSH1 0x4 ADD PUSH2 0xD18 SWAP1 PUSH2 0x2FCB JUMP JUMPDEST PUSH1 0x40 MLOAD DUP1 SWAP2 SUB SWAP1 REVERT JUMPDEST PUSH1 0x1 PUSH1 0xA PUSH1 0x0 DUP5 PUSH20 0xFFFFFFFFFFFFFFFFFFFFFFFFFFFFFFFFFFFFFFFF AND PUSH20 0xFFFFFFFFFFFFFFFFFFFFFFFFFFFFFFFFFFFFFFFF AND DUP2 MSTORE PUSH1 0x20 ADD SWAP1 DUP2 MSTORE PUSH1 0x20 ADD PUSH1 0x0 KECCAK256 PUSH1 0x0 PUSH2 0x100 EXP DUP2 SLOAD DUP2 PUSH1 0xFF MUL NOT AND SWAP1 DUP4 ISZERO ISZERO MUL OR SWAP1 SSTORE POP DUP1 PUSH1 0xB PUSH1 0x0 DUP5 PUSH20 0xFFFFFFFFFFFFFFFFFFFFFFFFFFFFFFFFFFFFFFFF AND PUSH20 0xFFFFFFFFFFFFFFFFFFFFFFFFFFFFFFFFFFFFFFFF AND DUP2 MSTORE PUSH1 0x20 ADD SWAP1 DUP2 MSTORE PUSH1 0x20 ADD PUSH1 0x0 KECCAK256 SWAP1 PUSH1 0x4 PUSH2 0xDC7 SWAP3 SWAP2 SWAP1 PUSH2 0x2883 JUMP JUMPDEST POP PUSH32 0x46A898D5BFB8140CB704C10CF4FF6AC010411DB41A0D94F60D29DC9BDC24942D DUP3 DUP3 PUSH1 0x40 MLOAD PUSH2 0xDF9 SWAP3 SWAP2 SWAP1 PUSH2 0x31BA JUMP JUMPDEST PUSH1 0x40 MLOAD DUP1 SWAP2 SUB SWAP1 LOG1 POP POP JUMP JUMPDEST PUSH1 0xB PUSH1 0x20 MSTORE DUP2 PUSH1 0x0 MSTORE PUSH1 0x40 PUSH1 0x0 KECCAK256 DUP2 PUSH1 0x4 DUP2 LT PUSH2 0xE21 JUMPI PUSH1 0x0 DUP1 REVERT JUMPDEST ADD PUSH1 0x0 SWAP2 POP SWAP2 POP POP SLOAD DUP2 JUMP JUMPDEST PUSH1 0xC SLOAD TIMESTAMP LT ISZERO PUSH2 0xE72 JUMPI PUSH1 0x40 MLOAD PUSH32 0x8C379A000000000000000000000000000000000000000000000000000000000 DUP2 MSTORE PUSH1 0x4 ADD PUSH2 0xE69 SWAP1 PUSH2 0x3255 JUMP JUMPDEST PUSH1 0x40 MLOAD DUP1 SWAP2 SUB SWAP1 REVERT JUMPDEST PUSH1 0xD SLOAD TIMESTAMP LT PUSH2 0xEB6 JUMPI PUSH1 0x40 MLOAD PUSH32 0x8C379A000000000000000000000000000000000000000000000000000000000 DUP2 MSTORE PUSH1 0x4 ADD PUSH2 0xEAD SWAP1 PUSH2 0x32C1 JUMP JUMPDEST PUSH1 0x40 MLOAD DUP1 SWAP2 SUB SWAP1 REVERT JUMPDEST PUSH1 0x0 DUP1 PUSH20 0xFFFFFFFFFFFFFFFFFFFFFFFFFFFFFFFFFFFFFFFF AND DUP4 PUSH20 0xFFFFFFFFFFFFFFFFFFFFFFFFFFFFFFFFFFFFFFFF AND SUB PUSH2 0xEFB JUMPI PUSH2 0xEF6 PUSH1 0x0 CALLVALUE PUSH2 0x7B8 JUMP JUMPDEST PUSH2 0xF06 JUMP JUMPDEST PUSH2 0xF05 DUP4 DUP4 PUSH2 0x7B8 JUMP JUMPDEST JUMPDEST SWAP1 POP PUSH1 0x9 SLOAD DUP2 LT ISZERO PUSH2 0xF4D JUMPI PUSH1 0x40 MLOAD PUSH32 0x8C379A000000000000000000000000000000000000000000000000000000000 DUP2 MSTORE PUSH1 0x4 ADD PUSH2 0xF44 SWAP1 PUSH2 0x3353 JUMP JUMPDEST PUSH1 0x40 MLOAD DUP1 SWAP2 SUB SWAP1 REVERT JUMPDEST PUSH1 0x8 SLOAD DUP2 PUSH1 0xF PUSH1 0x0 CALLER PUSH20 0xFFFFFFFFFFFFFFFFFFFFFFFFFFFFFFFFFFFFFFFF AND PUSH20 0xFFFFFFFFFFFFFFFFFFFFFFFFFFFFFFFFFFFFFFFF AND DUP2 MSTORE PUSH1 0x20 ADD SWAP1 DUP2 MSTORE PUSH1 0x20 ADD PUSH1 0x0 KECCAK256 PUSH1 0x0 ADD SLOAD PUSH2 0xF9E SWAP2 SWAP1 PUSH2 0x3373 JUMP JUMPDEST GT ISZERO PUSH2 0xFDF JUMPI PUSH1 0x40 MLOAD PUSH32 0x8C379A000000000000000000000000000000000000000000000000000000000 DUP2 MSTORE PUSH1 0x4 ADD PUSH2 0xFD6 SWAP1 PUSH2 0x3419 JUMP JUMPDEST PUSH1 0x40 MLOAD DUP1 SWAP2 SUB SWAP1 REVERT JUMPDEST PUSH1 0x7 SLOAD DUP2 PUSH1 0x10 SLOAD PUSH2 0xFF0 SWAP2 SWAP1 PUSH2 0x3373 JUMP JUMPDEST GT ISZERO PUSH2 0x1031 JUMPI PUSH1 0x40 MLOAD PUSH32 0x8C379A000000000000000000000000000000000000000000000000000000000 DUP2 MSTORE PUSH1 0x4 ADD PUSH2 0x1028 SWAP1 PUSH2 0x34AB JUMP JUMPDEST PUSH1 0x40 MLOAD DUP1 SWAP2 SUB SWAP1 REVERT JUMPDEST PUSH1 0x0 PUSH20 0xFFFFFFFFFFFFFFFFFFFFFFFFFFFFFFFFFFFFFFFF AND DUP4 PUSH20 0xFFFFFFFFFFFFFFFFFFFFFFFFFFFFFFFFFFFFFFFF AND EQ PUSH2 0x1162 JUMPI PUSH1 0x0 DUP3 GT PUSH2 0x10A8 JUMPI PUSH1 0x40 MLOAD PUSH32 0x8C379A000000000000000000000000000000000000000000000000000000000 DUP2 MSTORE PUSH1 0x4 ADD PUSH2 0x109F SWAP1 PUSH2 0x353D JUMP JUMPDEST PUSH1 0x40 MLOAD DUP1 SWAP2 SUB SWAP1 REVERT JUMPDEST PUSH1 0xA PUSH1 0x0 DUP5 PUSH20 0xFFFFFFFFFFFFFFFFFFFFFFFFFFFFFFFFFFFFFFFF AND PUSH20 0xFFFFFFFFFFFFFFFFFFFFFFFFFFFFFFFFFFFFFFFF AND DUP2 MSTORE PUSH1 0x20 ADD SWAP1 DUP2 MSTORE PUSH1 0x20 ADD PUSH1 0x0 KECCAK256 PUSH1 0x0 SWAP1 SLOAD SWAP1 PUSH2 0x100 EXP SWAP1 DIV PUSH1 0xFF AND PUSH2 0x1134 JUMPI PUSH1 0x40 MLOAD PUSH32 0x8C379A000000000000000000000000000000000000000000000000000000000 DUP2 MSTORE PUSH1 0x4 ADD PUSH2 0x112B SWAP1 PUSH2 0x2CE1 JUMP JUMPDEST PUSH1 0x40 MLOAD DUP1 SWAP2 SUB SWAP1 REVERT JUMPDEST PUSH2 0x1161 CALLER ADDRESS DUP5 DUP7 PUSH20 0xFFFFFFFFFFFFFFFFFFFFFFFFFFFFFFFFFFFFFFFF AND PUSH2 0x2443 SWAP1 SWAP4 SWAP3 SWAP2 SWAP1 PUSH4 0xFFFFFFFF AND JUMP JUMPDEST JUMPDEST DUP1 PUSH1 0x10 PUSH1 0x0 DUP3 DUP3 SLOAD PUSH2 0x1174 SWAP2 SWAP1 PUSH2 0x3373 JUMP JUMPDEST SWAP3 POP POP DUP2 SWAP1 SSTORE POP DUP1 PUSH1 0xF PUSH1 0x0 CALLER PUSH20 0xFFFFFFFFFFFFFFFFFFFFFFFFFFFFFFFFFFFFFFFF AND PUSH20 0xFFFFFFFFFFFFFFFFFFFFFFFFFFFFFFFFFFFFFFFF AND DUP2 MSTORE PUSH1 0x20 ADD SWAP1 DUP2 MSTORE PUSH1 0x20 ADD PUSH1 0x0 KECCAK256 PUSH1 0x0 ADD PUSH1 0x0 DUP3 DUP3 SLOAD PUSH2 0x11CD SWAP2 SWAP1 PUSH2 0x3373 JUMP JUMPDEST SWAP3 POP POP DUP2 SWAP1 SSTORE POP DUP3 PUSH20 0xFFFFFFFFFFFFFFFFFFFFFFFFFFFFFFFFFFFFFFFF AND CALLER PUSH20 0xFFFFFFFFFFFFFFFFFFFFFFFFFFFFFFFFFFFFFFFF AND PUSH32 0xC244D500136EDFFAE7025AAF7FBD7A07193AC544A1D0CC3132CF2A32452D340C DUP5 DUP5 PUSH1 0x40 MLOAD PUSH2 0x1233 SWAP3 SWAP2 SWAP1 PUSH2 0x355D JUMP JUMPDEST PUSH1 0x40 MLOAD DUP1 SWAP2 SUB SWAP1 LOG3 POP POP POP JUMP JUMPDEST PUSH1 0x8 SLOAD DUP2 JUMP JUMPDEST PUSH1 0x7 SLOAD DUP2 JUMP JUMPDEST PUSH2 0x1254 PUSH2 0x243B JUMP JUMPDEST PUSH20 0xFFFFFFFFFFFFFFFFFFFFFFFFFFFFFFFFFFFFFFFF AND PUSH2 0x1272 PUSH2 0x173C JUMP JUMPDEST PUSH20 0xFFFFFFFFFFFFFFFFFFFFFFFFFFFFFFFFFFFFFFFF AND EQ PUSH2 0x12C8 JUMPI PUSH1 0x40 MLOAD PUSH32 0x8C379A000000000000000000000000000000000000000000000000000000000 DUP2 MSTORE PUSH1 0x4 ADD PUSH2 0x12BF SWAP1 PUSH2 0x2FCB JUMP JUMPDEST PUSH1 0x40 MLOAD DUP1 SWAP2 SUB SWAP1 REVERT JUMPDEST DUP1 PUSH1 0xD DUP2 SWAP1 SSTORE POP POP JUMP JUMPDEST PUSH2 0x12DA PUSH2 0x243B JUMP JUMPDEST PUSH20 0xFFFFFFFFFFFFFFFFFFFFFFFFFFFFFFFFFFFFFFFF AND PUSH2 0x12F8 PUSH2 0x173C JUMP JUMPDEST PUSH20 0xFFFFFFFFFFFFFFFFFFFFFFFFFFFFFFFFFFFFFFFF AND EQ PUSH2 0x134E JUMPI PUSH1 0x40 MLOAD PUSH32 0x8C379A000000000000000000000000000000000000000000000000000000000 DUP2 MSTORE PUSH1 0x4 ADD PUSH2 0x1345 SWAP1 PUSH2 0x2FCB JUMP JUMPDEST PUSH1 0x40 MLOAD DUP1 SWAP2 SUB SWAP1 REVERT JUMPDEST PUSH2 0x1358 PUSH1 0x0 PUSH2 0x24CC JUMP JUMPDEST JUMP JUMPDEST PUSH1 0x0 SWAP1 JUMP JUMPDEST PUSH2 0x1367 PUSH2 0x243B JUMP JUMPDEST PUSH20 0xFFFFFFFFFFFFFFFFFFFFFFFFFFFFFFFFFFFFFFFF AND PUSH2 0x1385 PUSH2 0x173C JUMP JUMPDEST PUSH20 0xFFFFFFFFFFFFFFFFFFFFFFFFFFFFFFFFFFFFFFFF AND EQ PUSH2 0x13DB JUMPI PUSH1 0x40 MLOAD PUSH32 0x8C379A000000000000000000000000000000000000000000000000000000000 DUP2 MSTORE PUSH1 0x4 ADD PUSH2 0x13D2 SWAP1 PUSH2 0x2FCB JUMP JUMPDEST PUSH1 0x40 MLOAD DUP1 SWAP2 SUB SWAP1 REVERT JUMPDEST DUP1 PUSH1 0x8 DUP2 SWAP1 SSTORE POP POP JUMP JUMPDEST PUSH2 0x13ED PUSH2 0x243B JUMP JUMPDEST PUSH20 0xFFFFFFFFFFFFFFFFFFFFFFFFFFFFFFFFFFFFFFFF AND PUSH2 0x140B PUSH2 0x173C JUMP JUMPDEST PUSH20 0xFFFFFFFFFFFFFFFFFFFFFFFFFFFFFFFFFFFFFFFF AND EQ PUSH2 0x1461 JUMPI PUSH1 0x40 MLOAD PUSH32 0x8C379A000000000000000000000000000000000000000000000000000000000 DUP2 MSTORE PUSH1 0x4 ADD PUSH2 0x1458 SWAP1 PUSH2 0x2FCB JUMP JUMPDEST PUSH1 0x40 MLOAD DUP1 SWAP2 SUB SWAP1 REVERT JUMPDEST PUSH1 0x0 PUSH20 0xFFFFFFFFFFFFFFFFFFFFFFFFFFFFFFFFFFFFFFFF AND DUP3 PUSH20 0xFFFFFFFFFFFFFFFFFFFFFFFFFFFFFFFFFFFFFFFF AND SUB PUSH2 0x14D0 JUMPI PUSH1 0x40 MLOAD PUSH32 0x8C379A000000000000000000000000000000000000000000000000000000000 DUP2 MSTORE PUSH1 0x4 ADD PUSH2 0x14C7 SWAP1 PUSH2 0x35F8 JUMP JUMPDEST PUSH1 0x40 MLOAD DUP1 SWAP2 SUB SWAP1 REVERT JUMPDEST PUSH1 0x0 DUP2 GT PUSH2 0x1513 JUMPI PUSH1 0x40 MLOAD PUSH32 0x8C379A000000000000000000000000000000000000000000000000000000000 DUP2 MSTORE PUSH1 0x4 ADD PUSH2 0x150A SWAP1 PUSH2 0x368A JUMP JUMPDEST PUSH1 0x40 MLOAD DUP1 SWAP2 SUB SWAP1 REVERT JUMPDEST DUP2 PUSH1 0x5 PUSH1 0x0 PUSH2 0x100 EXP DUP2 SLOAD DUP2 PUSH20 0xFFFFFFFFFFFFFFFFFFFFFFFFFFFFFFFFFFFFFFFF MUL NOT AND SWAP1 DUP4 PUSH20 0xFFFFFFFFFFFFFFFFFFFFFFFFFFFFFFFFFFFFFFFF AND MUL OR SWAP1 SSTORE POP PUSH1 0x5 PUSH1 0x0 SWAP1 SLOAD SWAP1 PUSH2 0x100 EXP SWAP1 DIV PUSH20 0xFFFFFFFFFFFFFFFFFFFFFFFFFFFFFFFFFFFFFFFF AND PUSH20 0xFFFFFFFFFFFFFFFFFFFFFFFFFFFFFFFFFFFFFFFF AND PUSH4 0x313CE567 PUSH1 0x40 MLOAD DUP2 PUSH4 0xFFFFFFFF AND PUSH1 0xE0 SHL DUP2 MSTORE PUSH1 0x4 ADD PUSH1 0x20 PUSH1 0x40 MLOAD DUP1 DUP4 SUB DUP2 DUP7 GAS STATICCALL ISZERO DUP1 ISZERO PUSH2 0x15C1 JUMPI RETURNDATASIZE PUSH1 0x0 DUP1 RETURNDATACOPY RETURNDATASIZE PUSH1 0x0 REVERT JUMPDEST POP POP POP POP PUSH1 0x40 MLOAD RETURNDATASIZE PUSH1 0x1F NOT PUSH1 0x1F DUP3 ADD AND DUP3 ADD DUP1 PUSH1 0x40 MSTORE POP DUP2 ADD SWAP1 PUSH2 0x15E5 SWAP2 SWAP1 PUSH2 0x36E3 JUMP JUMPDEST PUSH1 0xFF AND PUSH1 0x6 DUP2 SWAP1 SSTORE POP PUSH2 0x163D CALLER ADDRESS DUP4 PUSH1 0x5 PUSH1 0x0 SWAP1 SLOAD SWAP1 PUSH2 0x100 EXP SWAP1 DIV PUSH20 0xFFFFFFFFFFFFFFFFFFFFFFFFFFFFFFFFFFFFFFFF AND PUSH20 0xFFFFFFFFFFFFFFFFFFFFFFFFFFFFFFFFFFFFFFFF AND PUSH2 0x2443 SWAP1 SWAP4 SWAP3 SWAP2 SWAP1 PUSH4 0xFFFFFFFF AND JUMP JUMPDEST PUSH1 0x5 PUSH1 0x0 SWAP1 SLOAD SWAP1 PUSH2 0x100 EXP SWAP1 DIV PUSH20 0xFFFFFFFFFFFFFFFFFFFFFFFFFFFFFFFFFFFFFFFF AND PUSH20 0xFFFFFFFFFFFFFFFFFFFFFFFFFFFFFFFFFFFFFFFF AND PUSH4 0x70A08231 ADDRESS PUSH1 0x40 MLOAD DUP3 PUSH4 0xFFFFFFFF AND PUSH1 0xE0 SHL DUP2 MSTORE PUSH1 0x4 ADD PUSH2 0x1698 SWAP2 SWAP1 PUSH2 0x2C3C JUMP JUMPDEST PUSH1 0x20 PUSH1 0x40 MLOAD DUP1 DUP4 SUB DUP2 DUP7 GAS STATICCALL ISZERO DUP1 ISZERO PUSH2 0x16B5 JUMPI RETURNDATASIZE PUSH1 0x0 DUP1 RETURNDATACOPY RETURNDATASIZE PUSH1 0x0 REVERT JUMPDEST POP POP POP POP PUSH1 0x40 MLOAD RETURNDATASIZE PUSH1 0x1F NOT PUSH1 0x1F DUP3 ADD AND DUP3 ADD DUP1 PUSH1 0x40 MSTORE POP DUP2 ADD SWAP1 PUSH2 0x16D9 SWAP2 SWAP1 PUSH2 0x3725 JUMP JUMPDEST PUSH1 0x7 DUP2 SWAP1 SSTORE POP PUSH32 0x3211F0A57D24F0B52E2E0573AF5BE089C5FAADEB55F9B90591717B0A22F7E2A DUP3 DUP3 PUSH1 0x40 MLOAD PUSH2 0x1710 SWAP3 SWAP2 SWAP1 PUSH2 0x3752 JUMP JUMPDEST PUSH1 0x40 MLOAD DUP1 SWAP2 SUB SWAP1 LOG1 POP POP JUMP JUMPDEST PUSH1 0xA PUSH1 0x20 MSTORE DUP1 PUSH1 0x0 MSTORE PUSH1 0x40 PUSH1 0x0 KECCAK256 PUSH1 0x0 SWAP2 POP SLOAD SWAP1 PUSH2 0x100 EXP SWAP1 DIV PUSH1 0xFF AND DUP2 JUMP JUMPDEST PUSH1 0x0 DUP1 PUSH1 0x0 SWAP1 SLOAD SWAP1 PUSH2 0x100 EXP SWAP1 DIV PUSH20 0xFFFFFFFFFFFFFFFFFFFFFFFFFFFFFFFFFFFFFFFF AND SWAP1 POP SWAP1 JUMP JUMPDEST PUSH2 0x176D PUSH2 0x243B JUMP JUMPDEST PUSH20 0xFFFFFFFFFFFFFFFFFFFFFFFFFFFFFFFFFFFFFFFF AND PUSH2 0x178B PUSH2 0x173C JUMP JUMPDEST PUSH20 0xFFFFFFFFFFFFFFFFFFFFFFFFFFFFFFFFFFFFFFFF AND EQ PUSH2 0x17E1 JUMPI PUSH1 0x40 MLOAD PUSH32 0x8C379A000000000000000000000000000000000000000000000000000000000 DUP2 MSTORE PUSH1 0x4 ADD PUSH2 0x17D8 SWAP1 PUSH2 0x2FCB JUMP JUMPDEST PUSH1 0x40 MLOAD DUP1 SWAP2 SUB SWAP1 REVERT JUMPDEST DUP1 PUSH1 0x9 DUP2 SWAP1 SSTORE POP POP JUMP JUMPDEST PUSH1 0xC SLOAD DUP2 JUMP JUMPDEST PUSH1 0x6 SLOAD DUP2 JUMP JUMPDEST PUSH2 0x17FF PUSH2 0x243B JUMP JUMPDEST PUSH20 0xFFFFFFFFFFFFFFFFFFFFFFFFFFFFFFFFFFFFFFFF AND PUSH2 0x181D PUSH2 0x173C JUMP JUMPDEST PUSH20 0xFFFFFFFFFFFFFFFFFFFFFFFFFFFFFFFFFFFFFFFF AND EQ PUSH2 0x1873 JUMPI PUSH1 0x40 MLOAD PUSH32 0x8C379A000000000000000000000000000000000000000000000000000000000 DUP2 MSTORE PUSH1 0x4 ADD PUSH2 0x186A SWAP1 PUSH2 0x2FCB JUMP JUMPDEST PUSH1 0x40 MLOAD DUP1 SWAP2 SUB SWAP1 REVERT JUMPDEST PUSH1 0xD SLOAD TIMESTAMP LT ISZERO PUSH2 0x18B8 JUMPI PUSH1 0x40 MLOAD PUSH32 0x8C379A000000000000000000000000000000000000000000000000000000000 DUP2 MSTORE PUSH1 0x4 ADD PUSH2 0x18AF SWAP1 PUSH2 0x305D JUMP JUMPDEST PUSH1 0x40 MLOAD DUP1 SWAP2 SUB SWAP1 REVERT JUMPDEST PUSH1 0xE PUSH1 0x0 SWAP1 SLOAD SWAP1 PUSH2 0x100 EXP SWAP1 DIV PUSH1 0xFF AND PUSH2 0x1907 JUMPI PUSH1 0x40 MLOAD PUSH32 0x8C379A000000000000000000000000000000000000000000000000000000000 DUP2 MSTORE PUSH1 0x4 ADD PUSH2 0x18FE SWAP1 PUSH2 0x37ED JUMP JUMPDEST PUSH1 0x40 MLOAD DUP1 SWAP2 SUB SWAP1 REVERT JUMPDEST PUSH1 0x0 PUSH1 0xE PUSH1 0x0 PUSH2 0x100 EXP DUP2 SLOAD DUP2 PUSH1 0xFF MUL NOT AND SWAP1 DUP4 ISZERO ISZERO MUL OR SWAP1 SSTORE POP JUMP JUMPDEST PUSH1 0x9 SLOAD DUP2 JUMP JUMPDEST PUSH1 0xE PUSH1 0x0 SWAP1 SLOAD SWAP1 PUSH2 0x100 EXP SWAP1 DIV PUSH1 0xFF AND PUSH2 0x1979 JUMPI PUSH1 0x40 MLOAD PUSH32 0x8C379A000000000000000000000000000000000000000000000000000000000 DUP2 MSTORE PUSH1 0x4 ADD PUSH2 0x1970 SWAP1 PUSH2 0x387F JUMP JUMPDEST PUSH1 0x40 MLOAD DUP1 SWAP2 SUB SWAP1 REVERT JUMPDEST PUSH1 0xF PUSH1 0x0 CALLER PUSH20 0xFFFFFFFFFFFFFFFFFFFFFFFFFFFFFFFFFFFFFFFF AND PUSH20 0xFFFFFFFFFFFFFFFFFFFFFFFFFFFFFFFFFFFFFFFF AND DUP2 MSTORE PUSH1 0x20 ADD SWAP1 DUP2 MSTORE PUSH1 0x20 ADD PUSH1 0x0 KECCAK256 PUSH1 0x1 ADD PUSH1 0x0 SWAP1 SLOAD SWAP1 PUSH2 0x100 EXP SWAP1 DIV PUSH1 0xFF AND ISZERO PUSH2 0x1A09 JUMPI PUSH1 0x40 MLOAD PUSH32 0x8C379A000000000000000000000000000000000000000000000000000000000 DUP2 MSTORE PUSH1 0x4 ADD PUSH2 0x1A00 SWAP1 PUSH2 0x38EB JUMP JUMPDEST PUSH1 0x40 MLOAD DUP1 SWAP2 SUB SWAP1 REVERT JUMPDEST PUSH1 0x0 PUSH1 0xF PUSH1 0x0 CALLER PUSH20 0xFFFFFFFFFFFFFFFFFFFFFFFFFFFFFFFFFFFFFFFF AND PUSH20 0xFFFFFFFFFFFFFFFFFFFFFFFFFFFFFFFFFFFFFFFF AND DUP2 MSTORE PUSH1 0x20 ADD SWAP1 DUP2 MSTORE PUSH1 0x20 ADD PUSH1 0x0 KECCAK256 PUSH1 0x0 ADD SLOAD SWAP1 POP PUSH1 0x1 PUSH1 0xF PUSH1 0x0 CALLER PUSH20 0xFFFFFFFFFFFFFFFFFFFFFFFFFFFFFFFFFFFFFFFF AND PUSH20 0xFFFFFFFFFFFFFFFFFFFFFFFFFFFFFFFFFFFFFFFF AND DUP2 MSTORE PUSH1 0x20 ADD SWAP1 DUP2 MSTORE PUSH1 0x20 ADD PUSH1 0x0 KECCAK256 PUSH1 0x1 ADD PUSH1 0x0 PUSH2 0x100 EXP DUP2 SLOAD DUP2 PUSH1 0xFF MUL NOT AND SWAP1 DUP4 ISZERO ISZERO MUL OR SWAP1 SSTORE POP PUSH2 0x1AF8 CALLER DUP3 PUSH1 0x5 PUSH1 0x0 SWAP1 SLOAD SWAP1 PUSH2 0x100 EXP SWAP1 DIV PUSH20 0xFFFFFFFFFFFFFFFFFFFFFFFFFFFFFFFFFFFFFFFF AND PUSH20 0xFFFFFFFFFFFFFFFFFFFFFFFFFFFFFFFFFFFFFFFF AND PUSH2 0x2590 SWAP1 SWAP3 SWAP2 SWAP1 PUSH4 0xFFFFFFFF AND JUMP JUMPDEST CALLER PUSH20 0xFFFFFFFFFFFFFFFFFFFFFFFFFFFFFFFFFFFFFFFF AND PUSH32 0xE7B379C6C1FA169E9079C25E9143B127637EEF8EC8C9D5C06DDB4AB3E1195888 DUP3 PUSH1 0x40 MLOAD PUSH2 0x1B3E SWAP2 SWAP1 PUSH2 0x29D2 JUMP JUMPDEST PUSH1 0x40 MLOAD DUP1 SWAP2 SUB SWAP1 LOG2 POP JUMP JUMPDEST PUSH2 0x1B51 PUSH2 0x243B JUMP JUMPDEST PUSH20 0xFFFFFFFFFFFFFFFFFFFFFFFFFFFFFFFFFFFFFFFF AND PUSH2 0x1B6F PUSH2 0x173C JUMP JUMPDEST PUSH20 0xFFFFFFFFFFFFFFFFFFFFFFFFFFFFFFFFFFFFFFFF AND EQ PUSH2 0x1BC5 JUMPI PUSH1 0x40 MLOAD PUSH32 0x8C379A000000000000000000000000000000000000000000000000000000000 DUP2 MSTORE PUSH1 0x4 ADD PUSH2 0x1BBC SWAP1 PUSH2 0x2FCB JUMP JUMPDEST PUSH1 0x40 MLOAD DUP1 SWAP2 SUB SWAP1 REVERT JUMPDEST PUSH1 0xA PUSH1 0x0 DUP4 PUSH20 0xFFFFFFFFFFFFFFFFFFFFFFFFFFFFFFFFFFFFFFFF AND PUSH20 0xFFFFFFFFFFFFFFFFFFFFFFFFFFFFFFFFFFFFFFFF AND DUP2 MSTORE PUSH1 0x20 ADD SWAP1 DUP2 MSTORE PUSH1 0x20 ADD PUSH1 0x0 KECCAK256 PUSH1 0x0 SWAP1 SLOAD SWAP1 PUSH2 0x100 EXP SWAP1 DIV PUSH1 0xFF AND PUSH2 0x1C51 JUMPI PUSH1 0x40 MLOAD PUSH32 0x8C379A000000000000000000000000000000000000000000000000000000000 DUP2 MSTORE PUSH1 0x4 ADD PUSH2 0x1C48 SWAP1 PUSH2 0x2CE1 JUMP JUMPDEST PUSH1 0x40 MLOAD DUP1 SWAP2 SUB SWAP1 REVERT JUMPDEST DUP1 PUSH1 0xB PUSH1 0x0 DUP5 PUSH20 0xFFFFFFFFFFFFFFFFFFFFFFFFFFFFFFFFFFFFFFFF AND PUSH20 0xFFFFFFFFFFFFFFFFFFFFFFFFFFFFFFFFFFFFFFFF AND DUP2 MSTORE PUSH1 0x20 ADD SWAP1 DUP2 MSTORE PUSH1 0x20 ADD PUSH1 0x0 KECCAK256 SWAP1 PUSH1 0x4 PUSH2 0x1C9F SWAP3 SWAP2 SWAP1 PUSH2 0x2883 JUMP JUMPDEST POP PUSH32 0x15C54D4ADD16CDCD1F0A4C671837CF70C9F8F02790BB0D948710AF6E0187C7D9 DUP3 DUP3 PUSH1 0x40 MLOAD PUSH2 0x1CD1 SWAP3 SWAP2 SWAP1 PUSH2 0x31BA JUMP JUMPDEST PUSH1 0x40 MLOAD DUP1 SWAP2 SUB SWAP1 LOG1 POP POP JUMP JUMPDEST PUSH2 0x1CE5 PUSH2 0x243B JUMP JUMPDEST PUSH20 0xFFFFFFFFFFFFFFFFFFFFFFFFFFFFFFFFFFFFFFFF AND PUSH2 0x1D03 PUSH2 0x173C JUMP JUMPDEST PUSH20 0xFFFFFFFFFFFFFFFFFFFFFFFFFFFFFFFFFFFFFFFF AND EQ PUSH2 0x1D59 JUMPI PUSH1 0x40 MLOAD PUSH32 0x8C379A000000000000000000000000000000000000000000000000000000000 DUP2 MSTORE PUSH1 0x4 ADD PUSH2 0x1D50 SWAP1 PUSH2 0x2FCB JUMP JUMPDEST PUSH1 0x40 MLOAD DUP1 SWAP2 SUB SWAP1 REVERT JUMPDEST PUSH1 0xD SLOAD TIMESTAMP LT ISZERO PUSH2 0x1D9E JUMPI PUSH1 0x40 MLOAD PUSH32 0x8C379A000000000000000000000000000000000000000000000000000000000 DUP2 MSTORE PUSH1 0x4 ADD PUSH2 0x1D95 SWAP1 PUSH2 0x305D JUMP JUMPDEST PUSH1 0x40 MLOAD DUP1 SWAP2 SUB SWAP1 REVERT JUMPDEST PUSH2 0x1DEB CALLER DUP3 PUSH1 0x5 PUSH1 0x0 SWAP1 SLOAD SWAP1 PUSH2 0x100 EXP SWAP1 DIV PUSH20 0xFFFFFFFFFFFFFFFFFFFFFFFFFFFFFFFFFFFFFFFF AND PUSH20 0xFFFFFFFFFFFFFFFFFFFFFFFFFFFFFFFFFFFFFFFF AND PUSH2 0x2590 SWAP1 SWAP3 SWAP2 SWAP1 PUSH4 0xFFFFFFFF AND JUMP JUMPDEST POP JUMP JUMPDEST PUSH1 0x1 DUP2 PUSH1 0x4 DUP2 LT PUSH2 0x1DFE JUMPI PUSH1 0x0 DUP1 REVERT JUMPDEST ADD PUSH1 0x0 SWAP2 POP SWAP1 POP SLOAD DUP2 JUMP JUMPDEST PUSH1 0x5 PUSH1 0x0 SWAP1 SLOAD SWAP1 PUSH2 0x100 EXP SWAP1 DIV PUSH20 0xFFFFFFFFFFFFFFFFFFFFFFFFFFFFFFFFFFFFFFFF AND DUP2 JUMP JUMPDEST PUSH2 0x1E37 PUSH2 0x243B JUMP JUMPDEST PUSH20 0xFFFFFFFFFFFFFFFFFFFFFFFFFFFFFFFFFFFFFFFF AND PUSH2 0x1E55 PUSH2 0x173C JUMP JUMPDEST PUSH20 0xFFFFFFFFFFFFFFFFFFFFFFFFFFFFFFFFFFFFFFFF AND EQ PUSH2 0x1EAB JUMPI PUSH1 0x40 MLOAD PUSH32 0x8C379A000000000000000000000000000000000000000000000000000000000 DUP2 MSTORE PUSH1 0x4 ADD PUSH2 0x1EA2 SWAP1 PUSH2 0x2FCB JUMP JUMPDEST PUSH1 0x40 MLOAD DUP1 SWAP2 SUB SWAP1 REVERT JUMPDEST DUP1 PUSH1 0x1 SWAP1 PUSH1 0x4 PUSH2 0x1EBC SWAP3 SWAP2 SWAP1 PUSH2 0x2883 JUMP JUMPDEST POP POP JUMP JUMPDEST PUSH2 0x1EC8 PUSH2 0x243B JUMP JUMPDEST PUSH20 0xFFFFFFFFFFFFFFFFFFFFFFFFFFFFFFFFFFFFFFFF AND PUSH2 0x1EE6 PUSH2 0x173C JUMP JUMPDEST PUSH20 0xFFFFFFFFFFFFFFFFFFFFFFFFFFFFFFFFFFFFFFFF AND EQ PUSH2 0x1F3C JUMPI PUSH1 0x40 MLOAD PUSH32 0x8C379A000000000000000000000000000000000000000000000000000000000 DUP2 MSTORE PUSH1 0x4 ADD PUSH2 0x1F33 SWAP1 PUSH2 0x2FCB JUMP JUMPDEST PUSH1 0x40 MLOAD DUP1 SWAP2 SUB SWAP1 REVERT JUMPDEST PUSH1 0x0 PUSH20 0xFFFFFFFFFFFFFFFFFFFFFFFFFFFFFFFFFFFFFFFF AND DUP2 PUSH20 0xFFFFFFFFFFFFFFFFFFFFFFFFFFFFFFFFFFFFFFFF AND SUB PUSH2 0x1FAB JUMPI PUSH1 0x40 MLOAD PUSH32 0x8C379A000000000000000000000000000000000000000000000000000000000 DUP2 MSTORE PUSH1 0x4 ADD PUSH2 0x1FA2 SWAP1 PUSH2 0x397D JUMP JUMPDEST PUSH1 0x40 MLOAD DUP1 SWAP2 SUB SWAP1 REVERT JUMPDEST PUSH2 0x1FB4 DUP2 PUSH2 0x24CC JUMP JUMPDEST POP JUMP JUMPDEST PUSH2 0x1FBF PUSH2 0x243B JUMP JUMPDEST PUSH20 0xFFFFFFFFFFFFFFFFFFFFFFFFFFFFFFFFFFFFFFFF AND PUSH2 0x1FDD PUSH2 0x173C JUMP JUMPDEST PUSH20 0xFFFFFFFFFFFFFFFFFFFFFFFFFFFFFFFFFFFFFFFF AND EQ PUSH2 0x2033 JUMPI PUSH1 0x40 MLOAD PUSH32 0x8C379A000000000000000000000000000000000000000000000000000000000 DUP2 MSTORE PUSH1 0x4 ADD PUSH2 0x202A SWAP1 PUSH2 0x2FCB JUMP JUMPDEST PUSH1 0x40 MLOAD DUP1 SWAP2 SUB SWAP1 REVERT JUMPDEST PUSH1 0x5 PUSH1 0x0 SWAP1 SLOAD SWAP1 PUSH2 0x100 EXP SWAP1 DIV PUSH20 0xFFFFFFFFFFFFFFFFFFFFFFFFFFFFFFFFFFFFFFFF AND PUSH20 0xFFFFFFFFFFFFFFFFFFFFFFFFFFFFFFFFFFFFFFFF AND DUP3 PUSH20 0xFFFFFFFFFFFFFFFFFFFFFFFFFFFFFFFFFFFFFFFF AND SUB PUSH2 0x20C3 JUMPI PUSH1 0x40 MLOAD PUSH32 0x8C379A000000000000000000000000000000000000000000000000000000000 DUP2 MSTORE PUSH1 0x4 ADD PUSH2 0x20BA SWAP1 PUSH2 0x3A35 JUMP JUMPDEST PUSH1 0x40 MLOAD DUP1 SWAP2 SUB SWAP1 REVERT JUMPDEST PUSH2 0x20EE CALLER DUP3 DUP5 PUSH20 0xFFFFFFFFFFFFFFFFFFFFFFFFFFFFFFFFFFFFFFFF AND PUSH2 0x2590 SWAP1 SWAP3 SWAP2 SWAP1 PUSH4 0xFFFFFFFF AND JUMP JUMPDEST POP POP JUMP JUMPDEST PUSH2 0x20FA PUSH2 0x243B JUMP JUMPDEST PUSH20 0xFFFFFFFFFFFFFFFFFFFFFFFFFFFFFFFFFFFFFFFF AND PUSH2 0x2118 PUSH2 0x173C JUMP JUMPDEST PUSH20 0xFFFFFFFFFFFFFFFFFFFFFFFFFFFFFFFFFFFFFFFF AND EQ PUSH2 0x216E JUMPI PUSH1 0x40 MLOAD PUSH32 0x8C379A000000000000000000000000000000000000000000000000000000000 DUP2 MSTORE PUSH1 0x4 ADD PUSH2 0x2165 SWAP1 PUSH2 0x2FCB JUMP JUMPDEST PUSH1 0x40 MLOAD DUP1 SWAP2 SUB SWAP1 REVERT JUMPDEST PUSH1 0x5 PUSH1 0x0 SWAP1 SLOAD SWAP1 PUSH2 0x100 EXP SWAP1 DIV PUSH20 0xFFFFFFFFFFFFFFFFFFFFFFFFFFFFFFFFFFFFFFFF AND PUSH20 0xFFFFFFFFFFFFFFFFFFFFFFFFFFFFFFFFFFFFFFFF AND DUP2 PUSH20 0xFFFFFFFFFFFFFFFFFFFFFFFFFFFFFFFFFFFFFFFF AND SUB PUSH2 0x21FE JUMPI PUSH1 0x40 MLOAD PUSH32 0x8C379A000000000000000000000000000000000000000000000000000000000 DUP2 MSTORE PUSH1 0x4 ADD PUSH2 0x21F5 SWAP1 PUSH2 0x3AED JUMP JUMPDEST PUSH1 0x40 MLOAD DUP1 SWAP2 SUB SWAP1 REVERT JUMPDEST PUSH1 0x0 DUP2 PUSH20 0xFFFFFFFFFFFFFFFFFFFFFFFFFFFFFFFFFFFFFFFF AND PUSH4 0x70A08231 ADDRESS PUSH1 0x40 MLOAD DUP3 PUSH4 0xFFFFFFFF AND PUSH1 0xE0 SHL DUP2 MSTORE PUSH1 0x4 ADD PUSH2 0x2239 SWAP2 SWAP1 PUSH2 0x2C3C JUMP JUMPDEST PUSH1 0x20 PUSH1 0x40 MLOAD DUP1 DUP4 SUB DUP2 DUP7 GAS STATICCALL ISZERO DUP1 ISZERO PUSH2 0x2256 JUMPI RETURNDATASIZE PUSH1 0x0 DUP1 RETURNDATACOPY RETURNDATASIZE PUSH1 0x0 REVERT JUMPDEST POP POP POP POP PUSH1 0x40 MLOAD RETURNDATASIZE PUSH1 0x1F NOT PUSH1 0x1F DUP3 ADD AND DUP3 ADD DUP1 PUSH1 0x40 MSTORE POP DUP2 ADD SWAP1 PUSH2 0x227A SWAP2 SWAP1 PUSH2 0x3725 JUMP JUMPDEST SWAP1 POP PUSH2 0x2286 DUP3 DUP3 PUSH2 0x1FB7 JUMP JUMPDEST POP POP JUMP JUMPDEST PUSH2 0x2292 PUSH2 0x243B JUMP JUMPDEST PUSH20 0xFFFFFFFFFFFFFFFFFFFFFFFFFFFFFFFFFFFFFFFF AND PUSH2 0x22B0 PUSH2 0x173C JUMP JUMPDEST PUSH20 0xFFFFFFFFFFFFFFFFFFFFFFFFFFFFFFFFFFFFFFFF AND EQ PUSH2 0x2306 JUMPI PUSH1 0x40 MLOAD PUSH32 0x8C379A000000000000000000000000000000000000000000000000000000000 DUP2 MSTORE PUSH1 0x4 ADD PUSH2 0x22FD SWAP1 PUSH2 0x2FCB JUMP JUMPDEST PUSH1 0x40 MLOAD DUP1 SWAP2 SUB SWAP1 REVERT JUMPDEST PUSH1 0xD SLOAD TIMESTAMP LT ISZERO PUSH2 0x234B JUMPI PUSH1 0x40 MLOAD PUSH32 0x8C379A000000000000000000000000000000000000000000000000000000000 DUP2 MSTORE PUSH1 0x4 ADD PUSH2 0x2342 SWAP1 PUSH2 0x305D JUMP JUMPDEST PUSH1 0x40 MLOAD DUP1 SWAP2 SUB SWAP1 REVERT JUMPDEST PUSH1 0x0 PUSH1 0x5 PUSH1 0x0 SWAP1 SLOAD SWAP1 PUSH2 0x100 EXP SWAP1 DIV PUSH20 0xFFFFFFFFFFFFFFFFFFFFFFFFFFFFFFFFFFFFFFFF AND PUSH20 0xFFFFFFFFFFFFFFFFFFFFFFFFFFFFFFFFFFFFFFFF AND PUSH4 0x70A08231 ADDRESS PUSH1 0x40 MLOAD DUP3 PUSH4 0xFFFFFFFF AND PUSH1 0xE0 SHL DUP2 MSTORE PUSH1 0x4 ADD PUSH2 0x23A8 SWAP2 SWAP1 PUSH2 0x2C3C JUMP JUMPDEST PUSH1 0x20 PUSH1 0x40 MLOAD DUP1 DUP4 SUB DUP2 DUP7 GAS STATICCALL ISZERO DUP1 ISZERO PUSH2 0x23C5 JUMPI RETURNDATASIZE PUSH1 0x0 DUP1 RETURNDATACOPY RETURNDATASIZE PUSH1 0x0 REVERT JUMPDEST POP POP POP POP PUSH1 0x40 MLOAD RETURNDATASIZE PUSH1 0x1F NOT PUSH1 0x1F DUP3 ADD AND DUP3 ADD DUP1 PUSH1 0x40 MSTORE POP DUP2 ADD SWAP1 PUSH2 0x23E9 SWAP2 SWAP1 PUSH2 0x3725 JUMP JUMPDEST SWAP1 POP PUSH2 0x2438 CALLER DUP3 PUSH1 0x5 PUSH1 0x0 SWAP1 SLOAD SWAP1 PUSH2 0x100 EXP SWAP1 DIV PUSH20 0xFFFFFFFFFFFFFFFFFFFFFFFFFFFFFFFFFFFFFFFF AND PUSH20 0xFFFFFFFFFFFFFFFFFFFFFFFFFFFFFFFFFFFFFFFF AND PUSH2 0x2590 SWAP1 SWAP3 SWAP2 SWAP1 PUSH4 0xFFFFFFFF AND JUMP JUMPDEST POP JUMP JUMPDEST PUSH1 0x0 CALLER SWAP1 POP SWAP1 JUMP JUMPDEST PUSH2 0x24C6 DUP5 PUSH4 0x23B872DD PUSH1 0xE0 SHL DUP6 DUP6 DUP6 PUSH1 0x40 MLOAD PUSH1 0x24 ADD PUSH2 0x2464 SWAP4 SWAP3 SWAP2 SWAP1 PUSH2 0x3B0D JUMP JUMPDEST PUSH1 0x40 MLOAD PUSH1 0x20 DUP2 DUP4 SUB SUB DUP2 MSTORE SWAP1 PUSH1 0x40 MSTORE SWAP1 PUSH28 0xFFFFFFFFFFFFFFFFFFFFFFFFFFFFFFFFFFFFFFFFFFFFFFFFFFFFFFFF NOT AND PUSH1 0x20 DUP3 ADD DUP1 MLOAD PUSH28 0xFFFFFFFFFFFFFFFFFFFFFFFFFFFFFFFFFFFFFFFFFFFFFFFFFFFFFFFF DUP4 DUP2 DUP4 AND OR DUP4 MSTORE POP POP POP POP PUSH2 0x2616 JUMP JUMPDEST POP POP POP POP JUMP JUMPDEST PUSH1 0x0 DUP1 PUSH1 0x0 SWAP1 SLOAD SWAP1 PUSH2 0x100 EXP SWAP1 DIV PUSH20 0xFFFFFFFFFFFFFFFFFFFFFFFFFFFFFFFFFFFFFFFF AND SWAP1 POP DUP2 PUSH1 0x0 DUP1 PUSH2 0x100 EXP DUP2 SLOAD DUP2 PUSH20 0xFFFFFFFFFFFFFFFFFFFFFFFFFFFFFFFFFFFFFFFF MUL NOT AND SWAP1 DUP4 PUSH20 0xFFFFFFFFFFFFFFFFFFFFFFFFFFFFFFFFFFFFFFFF AND MUL OR SWAP1 SSTORE POP DUP2 PUSH20 0xFFFFFFFFFFFFFFFFFFFFFFFFFFFFFFFFFFFFFFFF AND DUP2 PUSH20 0xFFFFFFFFFFFFFFFFFFFFFFFFFFFFFFFFFFFFFFFF AND PUSH32 0x8BE0079C531659141344CD1FD0A4F28419497F9722A3DAAFE3B4186F6B6457E0 PUSH1 0x40 MLOAD PUSH1 0x40 MLOAD DUP1 SWAP2 SUB SWAP1 LOG3 POP POP JUMP JUMPDEST PUSH2 0x2611 DUP4 PUSH4 0xA9059CBB PUSH1 0xE0 SHL DUP5 DUP5 PUSH1 0x40 MLOAD PUSH1 0x24 ADD PUSH2 0x25AF SWAP3 SWAP2 SWAP1 PUSH2 0x3752 JUMP JUMPDEST PUSH1 0x40 MLOAD PUSH1 0x20 DUP2 DUP4 SUB SUB DUP2 MSTORE SWAP1 PUSH1 0x40 MSTORE SWAP1 PUSH28 0xFFFFFFFFFFFFFFFFFFFFFFFFFFFFFFFFFFFFFFFFFFFFFFFFFFFFFFFF NOT AND PUSH1 0x20 DUP3 ADD DUP1 MLOAD PUSH28 0xFFFFFFFFFFFFFFFFFFFFFFFFFFFFFFFFFFFFFFFFFFFFFFFFFFFFFFFF DUP4 DUP2 DUP4 AND OR DUP4 MSTORE POP POP POP POP PUSH2 0x2616 JUMP JUMPDEST POP POP POP JUMP JUMPDEST PUSH1 0x0 PUSH2 0x2678 DUP3 PUSH1 0x40 MLOAD DUP1 PUSH1 0x40 ADD PUSH1 0x40 MSTORE DUP1 PUSH1 0x20 DUP2 MSTORE PUSH1 0x20 ADD PUSH32 0x5361666545524332303A206C6F772D6C6576656C2063616C6C206661696C6564 DUP2 MSTORE POP DUP6 PUSH20 0xFFFFFFFFFFFFFFFFFFFFFFFFFFFFFFFFFFFFFFFF AND PUSH2 0x26DD SWAP1 SWAP3 SWAP2 SWAP1 PUSH4 0xFFFFFFFF AND JUMP JUMPDEST SWAP1 POP PUSH1 0x0 DUP2 MLOAD GT ISZERO PUSH2 0x26D8 JUMPI DUP1 DUP1 PUSH1 0x20 ADD SWAP1 MLOAD DUP2 ADD SWAP1 PUSH2 0x2698 SWAP2 SWAP1 PUSH2 0x3B70 JUMP JUMPDEST PUSH2 0x26D7 JUMPI PUSH1 0x40 MLOAD PUSH32 0x8C379A000000000000000000000000000000000000000000000000000000000 DUP2 MSTORE PUSH1 0x4 ADD PUSH2 0x26CE SWAP1 PUSH2 0x3C0F JUMP JUMPDEST PUSH1 0x40 MLOAD DUP1 SWAP2 SUB SWAP1 REVERT JUMPDEST JUMPDEST POP POP POP JUMP JUMPDEST PUSH1 0x60 PUSH2 0x26EC DUP5 DUP5 PUSH1 0x0 DUP6 PUSH2 0x26F5 JUMP JUMPDEST SWAP1 POP SWAP4 SWAP3 POP POP POP JUMP JUMPDEST PUSH1 0x60 DUP3 SELFBALANCE LT ISZERO PUSH2 0x273A JUMPI PUSH1 0x40 MLOAD PUSH32 0x8C379A000000000000000000000000000000000000000000000000000000000 DUP2 MSTORE PUSH1 0x4 ADD PUSH2 0x2731 SWAP1 PUSH2 0x3CA1 JUMP JUMPDEST PUSH1 0x40 MLOAD DUP1 SWAP2 SUB SWAP1 REVERT JUMPDEST PUSH2 0x2743 DUP6 PUSH2 0x2809 JUMP JUMPDEST PUSH2 0x2782 JUMPI PUSH1 0x40 MLOAD PUSH32 0x8C379A000000000000000000000000000000000000000000000000000000000 DUP2 MSTORE PUSH1 0x4 ADD PUSH2 0x2779 SWAP1 PUSH2 0x3D0D JUMP JUMPDEST PUSH1 0x40 MLOAD DUP1 SWAP2 SUB SWAP1 REVERT JUMPDEST PUSH1 0x0 DUP1 DUP7 PUSH20 0xFFFFFFFFFFFFFFFFFFFFFFFFFFFFFFFFFFFFFFFF AND DUP6 DUP8 PUSH1 0x40 MLOAD PUSH2 0x27AB SWAP2 SWAP1 PUSH2 0x3D9E JUMP JUMPDEST PUSH1 0x0 PUSH1 0x40 MLOAD DUP1 DUP4 SUB DUP2 DUP6 DUP8 GAS CALL SWAP3 POP POP POP RETURNDATASIZE DUP1 PUSH1 0x0 DUP2 EQ PUSH2 0x27E8 JUMPI PUSH1 0x40 MLOAD SWAP2 POP PUSH1 0x1F NOT PUSH1 0x3F RETURNDATASIZE ADD AND DUP3 ADD PUSH1 0x40 MSTORE RETURNDATASIZE DUP3 MSTORE RETURNDATASIZE PUSH1 0x0 PUSH1 0x20 DUP5 ADD RETURNDATACOPY PUSH2 0x27ED JUMP JUMPDEST PUSH1 0x60 SWAP2 POP JUMPDEST POP SWAP2 POP SWAP2 POP PUSH2 0x27FD DUP3 DUP3 DUP7 PUSH2 0x281C JUMP JUMPDEST SWAP3 POP POP POP SWAP5 SWAP4 POP POP POP POP JUMP JUMPDEST PUSH1 0x0 DUP1 DUP3 EXTCODESIZE SWAP1 POP PUSH1 0x0 DUP2 GT SWAP2 POP POP SWAP2 SWAP1 POP JUMP JUMPDEST PUSH1 0x60 DUP4 ISZERO PUSH2 0x282C JUMPI DUP3 SWAP1 POP PUSH2 0x287C JUMP JUMPDEST PUSH1 0x0 DUP4 MLOAD GT ISZERO PUSH2 0x283F JUMPI DUP3 MLOAD DUP1 DUP5 PUSH1 0x20 ADD REVERT JUMPDEST DUP2 PUSH1 0x40 MLOAD PUSH32 0x8C379A000000000000000000000000000000000000000000000000000000000 DUP2 MSTORE PUSH1 0x4 ADD PUSH2 0x2873 SWAP2 SWAP1 PUSH2 0x3DF9 JUMP JUMPDEST PUSH1 0x40 MLOAD DUP1 SWAP2 SUB SWAP1 REVERT JUMPDEST SWAP4 SWAP3 POP POP POP JUMP JUMPDEST DUP3 PUSH1 0x4 DUP2 ADD SWAP3 DUP3 ISZERO PUSH2 0x28B2 JUMPI SWAP2 PUSH1 0x20 MUL DUP3 ADD JUMPDEST DUP3 DUP2 GT ISZERO PUSH2 0x28B1 JUMPI DUP3 MLOAD DUP3 SSTORE SWAP2 PUSH1 0x20 ADD SWAP2 SWAP1 PUSH1 0x1 ADD SWAP1 PUSH2 0x2896 JUMP JUMPDEST JUMPDEST POP SWAP1 POP PUSH2 0x28BF SWAP2 SWAP1 PUSH2 0x28C3 JUMP JUMPDEST POP SWAP1 JUMP JUMPDEST JUMPDEST DUP1 DUP3 GT ISZERO PUSH2 0x28DC JUMPI PUSH1 0x0 DUP2 PUSH1 0x0 SWAP1 SSTORE POP PUSH1 0x1 ADD PUSH2 0x28C4 JUMP JUMPDEST POP SWAP1 JUMP JUMPDEST PUSH1 0x0 PUSH1 0x40 MLOAD SWAP1 POP SWAP1 JUMP JUMPDEST PUSH1 0x0 DUP1 REVERT JUMPDEST PUSH1 0x0 PUSH20 0xFFFFFFFFFFFFFFFFFFFFFFFFFFFFFFFFFFFFFFFF DUP3 AND SWAP1 POP SWAP2 SWAP1 POP JUMP JUMPDEST PUSH1 0x0 PUSH2 0x291A DUP3 PUSH2 0x28EF JUMP JUMPDEST SWAP1 POP SWAP2 SWAP1 POP JUMP JUMPDEST PUSH2 0x292A DUP2 PUSH2 0x290F JUMP JUMPDEST DUP2 EQ PUSH2 0x2935 JUMPI PUSH1 0x0 DUP1 REVERT JUMPDEST POP JUMP JUMPDEST PUSH1 0x0 DUP2 CALLDATALOAD SWAP1 POP PUSH2 0x2947 DUP2 PUSH2 0x2921 JUMP JUMPDEST SWAP3 SWAP2 POP POP JUMP JUMPDEST PUSH1 0x0 DUP2 SWAP1 POP SWAP2 SWAP1 POP JUMP JUMPDEST PUSH2 0x2960 DUP2 PUSH2 0x294D JUMP JUMPDEST DUP2 EQ PUSH2 0x296B JUMPI PUSH1 0x0 DUP1 REVERT JUMPDEST POP JUMP JUMPDEST PUSH1 0x0 DUP2 CALLDATALOAD SWAP1 POP PUSH2 0x297D DUP2 PUSH2 0x2957 JUMP JUMPDEST SWAP3 SWAP2 POP POP JUMP JUMPDEST PUSH1 0x0 DUP1 PUSH1 0x40 DUP4 DUP6 SUB SLT ISZERO PUSH2 0x299A JUMPI PUSH2 0x2999 PUSH2 0x28EA JUMP JUMPDEST JUMPDEST PUSH1 0x0 PUSH2 0x29A8 DUP6 DUP3 DUP7 ADD PUSH2 0x2938 JUMP JUMPDEST SWAP3 POP POP PUSH1 0x20 PUSH2 0x29B9 DUP6 DUP3 DUP7 ADD PUSH2 0x296E JUMP JUMPDEST SWAP2 POP POP SWAP3 POP SWAP3 SWAP1 POP JUMP JUMPDEST PUSH2 0x29CC DUP2 PUSH2 0x294D JUMP JUMPDEST DUP3 MSTORE POP POP JUMP JUMPDEST PUSH1 0x0 PUSH1 0x20 DUP3 ADD SWAP1 POP PUSH2 0x29E7 PUSH1 0x0 DUP4 ADD DUP5 PUSH2 0x29C3 JUMP JUMPDEST SWAP3 SWAP2 POP POP JUMP JUMPDEST PUSH1 0x0 DUP2 ISZERO ISZERO SWAP1 POP SWAP2 SWAP1 POP JUMP JUMPDEST PUSH2 0x2A02 DUP2 PUSH2 0x29ED JUMP JUMPDEST DUP3 MSTORE POP POP JUMP JUMPDEST PUSH1 0x0 PUSH1 0x20 DUP3 ADD SWAP1 POP PUSH2 0x2A1D PUSH1 0x0 DUP4 ADD DUP5 PUSH2 0x29F9 JUMP JUMPDEST SWAP3 SWAP2 POP POP JUMP JUMPDEST PUSH1 0x0 PUSH1 0x20 DUP3 DUP5 SUB SLT ISZERO PUSH2 0x2A39 JUMPI PUSH2 0x2A38 PUSH2 0x28EA JUMP JUMPDEST JUMPDEST PUSH1 0x0 PUSH2 0x2A47 DUP5 DUP3 DUP6 ADD PUSH2 0x296E JUMP JUMPDEST SWAP2 POP POP SWAP3 SWAP2 POP POP JUMP JUMPDEST PUSH1 0x0 PUSH1 0x20 DUP3 DUP5 SUB SLT ISZERO PUSH2 0x2A66 JUMPI PUSH2 0x2A65 PUSH2 0x28EA JUMP JUMPDEST JUMPDEST PUSH1 0x0 PUSH2 0x2A74 DUP5 DUP3 DUP6 ADD PUSH2 0x2938 JUMP JUMPDEST SWAP2 POP POP SWAP3 SWAP2 POP POP JUMP JUMPDEST PUSH1 0x0 PUSH1 0x40 DUP3 ADD SWAP1 POP PUSH2 0x2A92 PUSH1 0x0 DUP4 ADD DUP6 PUSH2 0x29C3 JUMP JUMPDEST PUSH2 0x2A9F PUSH1 0x20 DUP4 ADD DUP5 PUSH2 0x29F9 JUMP JUMPDEST SWAP4 SWAP3 POP POP POP JUMP JUMPDEST PUSH1 0x0 DUP1 REVERT JUMPDEST PUSH1 0x0 PUSH1 0x1F NOT PUSH1 0x1F DUP4 ADD AND SWAP1 POP SWAP2 SWAP1 POP JUMP JUMPDEST PUSH32 0x4E487B7100000000000000000000000000000000000000000000000000000000 PUSH1 0x0 MSTORE PUSH1 0x41 PUSH1 0x4 MSTORE PUSH1 0x24 PUSH1 0x0 REVERT JUMPDEST PUSH2 0x2AF4 DUP3 PUSH2 0x2AAB JUMP JUMPDEST DUP2 ADD DUP2 DUP2 LT PUSH8 0xFFFFFFFFFFFFFFFF DUP3 GT OR ISZERO PUSH2 0x2B13 JUMPI PUSH2 0x2B12 PUSH2 0x2ABC JUMP JUMPDEST JUMPDEST DUP1 PUSH1 0x40 MSTORE POP POP POP JUMP JUMPDEST PUSH1 0x0 PUSH2 0x2B26 PUSH2 0x28E0 JUMP JUMPDEST SWAP1 POP PUSH2 0x2B32 DUP3 DUP3 PUSH2 0x2AEB JUMP JUMPDEST SWAP2 SWAP1 POP JUMP JUMPDEST PUSH1 0x0 PUSH8 0xFFFFFFFFFFFFFFFF DUP3 GT ISZERO PUSH2 0x2B52 JUMPI PUSH2 0x2B51 PUSH2 0x2ABC JUMP JUMPDEST JUMPDEST PUSH1 0x20 DUP3 MUL SWAP1 POP SWAP2 SWAP1 POP JUMP JUMPDEST PUSH1 0x0 DUP1 REVERT JUMPDEST PUSH1 0x0 PUSH2 0x2B75 PUSH2 0x2B70 DUP5 PUSH2 0x2B37 JUMP JUMPDEST PUSH2 0x2B1C JUMP JUMPDEST SWAP1 POP DUP1 PUSH1 0x20 DUP5 MUL DUP4 ADD DUP6 DUP2 GT ISZERO PUSH2 0x2B8F JUMPI PUSH2 0x2B8E PUSH2 0x2B5D JUMP JUMPDEST JUMPDEST DUP4 JUMPDEST DUP2 DUP2 LT ISZERO PUSH2 0x2BB8 JUMPI DUP1 PUSH2 0x2BA4 DUP9 DUP3 PUSH2 0x296E JUMP JUMPDEST DUP5 MSTORE PUSH1 0x20 DUP5 ADD SWAP4 POP POP PUSH1 0x20 DUP2 ADD SWAP1 POP PUSH2 0x2B91 JUMP JUMPDEST POP POP POP SWAP4 SWAP3 POP POP POP JUMP JUMPDEST PUSH1 0x0 DUP3 PUSH1 0x1F DUP4 ADD SLT PUSH2 0x2BD7 JUMPI PUSH2 0x2BD6 PUSH2 0x2AA6 JUMP JUMPDEST JUMPDEST PUSH1 0x4 PUSH2 0x2BE4 DUP5 DUP3 DUP6 PUSH2 0x2B62 JUMP JUMPDEST SWAP2 POP POP SWAP3 SWAP2 POP POP JUMP JUMPDEST PUSH1 0x0 DUP1 PUSH1 0xA0 DUP4 DUP6 SUB SLT ISZERO PUSH2 0x2C04 JUMPI PUSH2 0x2C03 PUSH2 0x28EA JUMP JUMPDEST JUMPDEST PUSH1 0x0 PUSH2 0x2C12 DUP6 DUP3 DUP7 ADD PUSH2 0x2938 JUMP JUMPDEST SWAP3 POP POP PUSH1 0x20 PUSH2 0x2C23 DUP6 DUP3 DUP7 ADD PUSH2 0x2BC2 JUMP JUMPDEST SWAP2 POP POP SWAP3 POP SWAP3 SWAP1 POP JUMP JUMPDEST PUSH2 0x2C36 DUP2 PUSH2 0x290F JUMP JUMPDEST DUP3 MSTORE POP POP JUMP JUMPDEST PUSH1 0x0 PUSH1 0x20 DUP3 ADD SWAP1 POP PUSH2 0x2C51 PUSH1 0x0 DUP4 ADD DUP5 PUSH2 0x2C2D JUMP JUMPDEST SWAP3 SWAP2 POP POP JUMP JUMPDEST PUSH1 0x0 PUSH1 0x80 DUP3 DUP5 SUB SLT ISZERO PUSH2 0x2C6D JUMPI PUSH2 0x2C6C PUSH2 0x28EA JUMP JUMPDEST JUMPDEST PUSH1 0x0 PUSH2 0x2C7B DUP5 DUP3 DUP6 ADD PUSH2 0x2BC2 JUMP JUMPDEST SWAP2 POP POP SWAP3 SWAP2 POP POP JUMP JUMPDEST PUSH1 0x0 DUP3 DUP3 MSTORE PUSH1 0x20 DUP3 ADD SWAP1 POP SWAP3 SWAP2 POP POP JUMP JUMPDEST PUSH32 0x50726573616C653A20546F6B656E206E6F742077686974656C69737465640000 PUSH1 0x0 DUP3 ADD MSTORE POP JUMP JUMPDEST PUSH1 0x0 PUSH2 0x2CCB PUSH1 0x1E DUP4 PUSH2 0x2C84 JUMP JUMPDEST SWAP2 POP PUSH2 0x2CD6 DUP3 PUSH2 0x2C95 JUMP JUMPDEST PUSH1 0x20 DUP3 ADD SWAP1 POP SWAP2 SWAP1 POP JUMP JUMPDEST PUSH1 0x0 PUSH1 0x20 DUP3 ADD SWAP1 POP DUP2 DUP2 SUB PUSH1 0x0 DUP4 ADD MSTORE PUSH2 0x2CFA DUP2 PUSH2 0x2CBE JUMP JUMPDEST SWAP1 POP SWAP2 SWAP1 POP JUMP JUMPDEST PUSH32 0x4E487B7100000000000000000000000000000000000000000000000000000000 PUSH1 0x0 MSTORE PUSH1 0x32 PUSH1 0x4 MSTORE PUSH1 0x24 PUSH1 0x0 REVERT JUMPDEST PUSH32 0x4E487B7100000000000000000000000000000000000000000000000000000000 PUSH1 0x0 MSTORE PUSH1 0x11 PUSH1 0x4 MSTORE PUSH1 0x24 PUSH1 0x0 REVERT JUMPDEST PUSH1 0x0 DUP2 PUSH1 0x1 SHR SWAP1 POP SWAP2 SWAP1 POP JUMP JUMPDEST PUSH1 0x0 DUP1 DUP3 SWAP2 POP DUP4 SWAP1 POP JUMPDEST PUSH1 0x1 DUP6 GT ISZERO PUSH2 0x2DB6 JUMPI DUP1 DUP7 DIV DUP2 GT ISZERO PUSH2 0x2D92 JUMPI PUSH2 0x2D91 PUSH2 0x2D30 JUMP JUMPDEST JUMPDEST PUSH1 0x1 DUP6 AND ISZERO PUSH2 0x2DA1 JUMPI DUP1 DUP3 MUL SWAP2 POP JUMPDEST DUP1 DUP2 MUL SWAP1 POP PUSH2 0x2DAF DUP6 PUSH2 0x2D5F JUMP JUMPDEST SWAP5 POP PUSH2 0x2D76 JUMP JUMPDEST SWAP5 POP SWAP5 SWAP3 POP POP POP JUMP JUMPDEST PUSH1 0x0 DUP3 PUSH2 0x2DCF JUMPI PUSH1 0x1 SWAP1 POP PUSH2 0x2E8B JUMP JUMPDEST DUP2 PUSH2 0x2DDD JUMPI PUSH1 0x0 SWAP1 POP PUSH2 0x2E8B JUMP JUMPDEST DUP2 PUSH1 0x1 DUP2 EQ PUSH2 0x2DF3 JUMPI PUSH1 0x2 DUP2 EQ PUSH2 0x2DFD JUMPI PUSH2 0x2E2C JUMP JUMPDEST PUSH1 0x1 SWAP2 POP POP PUSH2 0x2E8B JUMP JUMPDEST PUSH1 0xFF DUP5 GT ISZERO PUSH2 0x2E0F JUMPI PUSH2 0x2E0E PUSH2 0x2D30 JUMP JUMPDEST JUMPDEST DUP4 PUSH1 0x2 EXP SWAP2 POP DUP5 DUP3 GT ISZERO PUSH2 0x2E26 JUMPI PUSH2 0x2E25 PUSH2 0x2D30 JUMP JUMPDEST JUMPDEST POP PUSH2 0x2E8B JUMP JUMPDEST POP PUSH1 0x20 DUP4 LT PUSH2 0x133 DUP4 LT AND PUSH1 0x4E DUP5 LT PUSH1 0xB DUP5 LT AND OR ISZERO PUSH2 0x2E61 JUMPI DUP3 DUP3 EXP SWAP1 POP DUP4 DUP2 GT ISZERO PUSH2 0x2E5C JUMPI PUSH2 0x2E5B PUSH2 0x2D30 JUMP JUMPDEST JUMPDEST PUSH2 0x2E8B JUMP JUMPDEST PUSH2 0x2E6E DUP5 DUP5 DUP5 PUSH1 0x1 PUSH2 0x2D6C JUMP JUMPDEST SWAP3 POP SWAP1 POP DUP2 DUP5 DIV DUP2 GT ISZERO PUSH2 0x2E85 JUMPI PUSH2 0x2E84 PUSH2 0x2D30 JUMP JUMPDEST JUMPDEST DUP2 DUP2 MUL SWAP1 POP JUMPDEST SWAP4 SWAP3 POP POP POP JUMP JUMPDEST PUSH1 0x0 PUSH2 0x2E9D DUP3 PUSH2 0x294D JUMP JUMPDEST SWAP2 POP PUSH2 0x2EA8 DUP4 PUSH2 0x294D JUMP JUMPDEST SWAP3 POP PUSH2 0x2ED5 PUSH32 0xFFFFFFFFFFFFFFFFFFFFFFFFFFFFFFFFFFFFFFFFFFFFFFFFFFFFFFFFFFFFFFFF DUP5 DUP5 PUSH2 0x2DBF JUMP JUMPDEST SWAP1 POP SWAP3 SWAP2 POP POP JUMP JUMPDEST PUSH1 0x0 PUSH2 0x2EE8 DUP3 PUSH2 0x294D JUMP JUMPDEST SWAP2 POP PUSH2 0x2EF3 DUP4 PUSH2 0x294D JUMP JUMPDEST SWAP3 POP DUP3 DUP3 MUL PUSH2 0x2F01 DUP2 PUSH2 0x294D JUMP JUMPDEST SWAP2 POP DUP3 DUP3 DIV DUP5 EQ DUP4 ISZERO OR PUSH2 0x2F18 JUMPI PUSH2 0x2F17 PUSH2 0x2D30 JUMP JUMPDEST JUMPDEST POP SWAP3 SWAP2 POP POP JUMP JUMPDEST PUSH32 0x4E487B7100000000000000000000000000000000000000000000000000000000 PUSH1 0x0 MSTORE PUSH1 0x12 PUSH1 0x4 MSTORE PUSH1 0x24 PUSH1 0x0 REVERT JUMPDEST PUSH1 0x0 PUSH2 0x2F59 DUP3 PUSH2 0x294D JUMP JUMPDEST SWAP2 POP PUSH2 0x2F64 DUP4 PUSH2 0x294D JUMP JUMPDEST SWAP3 POP DUP3 PUSH2 0x2F74 JUMPI PUSH2 0x2F73 PUSH2 0x2F1F JUMP JUMPDEST JUMPDEST DUP3 DUP3 DIV SWAP1 POP SWAP3 SWAP2 POP POP JUMP JUMPDEST PUSH32 0x4F776E61626C653A2063616C6C6572206973206E6F7420746865206F776E6572 PUSH1 0x0 DUP3 ADD MSTORE POP JUMP JUMPDEST PUSH1 0x0 PUSH2 0x2FB5 PUSH1 0x20 DUP4 PUSH2 0x2C84 JUMP JUMPDEST SWAP2 POP PUSH2 0x2FC0 DUP3 PUSH2 0x2F7F JUMP JUMPDEST PUSH1 0x20 DUP3 ADD SWAP1 POP SWAP2 SWAP1 POP JUMP JUMPDEST PUSH1 0x0 PUSH1 0x20 DUP3 ADD SWAP1 POP DUP2 DUP2 SUB PUSH1 0x0 DUP4 ADD MSTORE PUSH2 0x2FE4 DUP2 PUSH2 0x2FA8 JUMP JUMPDEST SWAP1 POP SWAP2 SWAP1 POP JUMP JUMPDEST PUSH32 0x50726573616C653A2050726573616C6520686173206E6F7420656E6465642079 PUSH1 0x0 DUP3 ADD MSTORE PUSH32 0x6574000000000000000000000000000000000000000000000000000000000000 PUSH1 0x20 DUP3 ADD MSTORE POP JUMP JUMPDEST PUSH1 0x0 PUSH2 0x3047 PUSH1 0x22 DUP4 PUSH2 0x2C84 JUMP JUMPDEST SWAP2 POP PUSH2 0x3052 DUP3 PUSH2 0x2FEB JUMP JUMPDEST PUSH1 0x40 DUP3 ADD SWAP1 POP SWAP2 SWAP1 POP JUMP JUMPDEST PUSH1 0x0 PUSH1 0x20 DUP3 ADD SWAP1 POP DUP2 DUP2 SUB PUSH1 0x0 DUP4 ADD MSTORE PUSH2 0x3076 DUP2 PUSH2 0x303A JUMP JUMPDEST SWAP1 POP SWAP2 SWAP1 POP JUMP JUMPDEST PUSH32 0x50726573616C653A20556E6C6F636B696E672068617320616C72656164792073 PUSH1 0x0 DUP3 ADD MSTORE PUSH32 0x7461727465640000000000000000000000000000000000000000000000000000 PUSH1 0x20 DUP3 ADD MSTORE POP JUMP JUMPDEST PUSH1 0x0 PUSH2 0x30D9 PUSH1 0x26 DUP4 PUSH2 0x2C84 JUMP JUMPDEST SWAP2 POP PUSH2 0x30E4 DUP3 PUSH2 0x307D JUMP JUMPDEST PUSH1 0x40 DUP3 ADD SWAP1 POP SWAP2 SWAP1 POP JUMP JUMPDEST PUSH1 0x0 PUSH1 0x20 DUP3 ADD SWAP1 POP DUP2 DUP2 SUB PUSH1 0x0 DUP4 ADD MSTORE PUSH2 0x3108 DUP2 PUSH2 0x30CC JUMP JUMPDEST SWAP1 POP SWAP2 SWAP1 POP JUMP JUMPDEST PUSH1 0x0 PUSH1 0x4 SWAP1 POP SWAP2 SWAP1 POP JUMP JUMPDEST PUSH1 0x0 DUP2 SWAP1 POP SWAP3 SWAP2 POP POP JUMP JUMPDEST PUSH1 0x0 DUP2 SWAP1 POP SWAP2 SWAP1 POP JUMP JUMPDEST PUSH2 0x3138 DUP2 PUSH2 0x294D JUMP JUMPDEST DUP3 MSTORE POP POP JUMP JUMPDEST PUSH1 0x0 PUSH2 0x314A DUP4 DUP4 PUSH2 0x312F JUMP JUMPDEST PUSH1 0x20 DUP4 ADD SWAP1 POP SWAP3 SWAP2 POP POP JUMP JUMPDEST PUSH1 0x0 PUSH1 0x20 DUP3 ADD SWAP1 POP SWAP2 SWAP1 POP JUMP JUMPDEST PUSH2 0x316C DUP2 PUSH2 0x310F JUMP JUMPDEST PUSH2 0x3176 DUP2 DUP5 PUSH2 0x311A JUMP JUMPDEST SWAP3 POP PUSH2 0x3181 DUP3 PUSH2 0x3125 JUMP JUMPDEST DUP1 PUSH1 0x0 JUMPDEST DUP4 DUP2 LT ISZERO PUSH2 0x31B2 JUMPI DUP2 MLOAD PUSH2 0x3199 DUP8 DUP3 PUSH2 0x313E JUMP JUMPDEST SWAP7 POP PUSH2 0x31A4 DUP4 PUSH2 0x3156 JUMP JUMPDEST SWAP3 POP POP PUSH1 0x1 DUP2 ADD SWAP1 POP PUSH2 0x3185 JUMP JUMPDEST POP POP POP POP POP POP JUMP JUMPDEST PUSH1 0x0 PUSH1 0xA0 DUP3 ADD SWAP1 POP PUSH2 0x31CF PUSH1 0x0 DUP4 ADD DUP6 PUSH2 0x2C2D JUMP JUMPDEST PUSH2 0x31DC PUSH1 0x20 DUP4 ADD DUP5 PUSH2 0x3163 JUMP JUMPDEST SWAP4 SWAP3 POP POP POP JUMP JUMPDEST PUSH32 0x50726573616C653A2050726573616C6520686173206E6F742073746172746564 PUSH1 0x0 DUP3 ADD MSTORE PUSH32 0x2079657400000000000000000000000000000000000000000000000000000000 PUSH1 0x20 DUP3 ADD MSTORE POP JUMP JUMPDEST PUSH1 0x0 PUSH2 0x323F PUSH1 0x24 DUP4 PUSH2 0x2C84 JUMP JUMPDEST SWAP2 POP PUSH2 0x324A DUP3 PUSH2 0x31E3 JUMP JUMPDEST PUSH1 0x40 DUP3 ADD SWAP1 POP SWAP2 SWAP1 POP JUMP JUMPDEST PUSH1 0x0 PUSH1 0x20 DUP3 ADD SWAP1 POP DUP2 DUP2 SUB PUSH1 0x0 DUP4 ADD MSTORE PUSH2 0x326E DUP2 PUSH2 0x3232 JUMP JUMPDEST SWAP1 POP SWAP2 SWAP1 POP JUMP JUMPDEST PUSH32 0x50726573616C653A2050726573616C652068617320656E646564000000000000 PUSH1 0x0 DUP3 ADD MSTORE POP JUMP JUMPDEST PUSH1 0x0 PUSH2 0x32AB PUSH1 0x1A DUP4 PUSH2 0x2C84 JUMP JUMPDEST SWAP2 POP PUSH2 0x32B6 DUP3 PUSH2 0x3275 JUMP JUMPDEST PUSH1 0x20 DUP3 ADD SWAP1 POP SWAP2 SWAP1 POP JUMP JUMPDEST PUSH1 0x0 PUSH1 0x20 DUP3 ADD SWAP1 POP DUP2 DUP2 SUB PUSH1 0x0 DUP4 ADD MSTORE PUSH2 0x32DA DUP2 PUSH2 0x329E JUMP JUMPDEST SWAP1 POP SWAP2 SWAP1 POP JUMP JUMPDEST PUSH32 0x50726573616C653A204D696E20627579206C696D6974206E6F74207265616368 PUSH1 0x0 DUP3 ADD MSTORE PUSH32 0x6564000000000000000000000000000000000000000000000000000000000000 PUSH1 0x20 DUP3 ADD MSTORE POP JUMP JUMPDEST PUSH1 0x0 PUSH2 0x333D PUSH1 0x22 DUP4 PUSH2 0x2C84 JUMP JUMPDEST SWAP2 POP PUSH2 0x3348 DUP3 PUSH2 0x32E1 JUMP JUMPDEST PUSH1 0x40 DUP3 ADD SWAP1 POP SWAP2 SWAP1 POP JUMP JUMPDEST PUSH1 0x0 PUSH1 0x20 DUP3 ADD SWAP1 POP DUP2 DUP2 SUB PUSH1 0x0 DUP4 ADD MSTORE PUSH2 0x336C DUP2 PUSH2 0x3330 JUMP JUMPDEST SWAP1 POP SWAP2 SWAP1 POP JUMP JUMPDEST PUSH1 0x0 PUSH2 0x337E DUP3 PUSH2 0x294D JUMP JUMPDEST SWAP2 POP PUSH2 0x3389 DUP4 PUSH2 0x294D JUMP JUMPDEST SWAP3 POP DUP3 DUP3 ADD SWAP1 POP DUP1 DUP3 GT ISZERO PUSH2 0x33A1 JUMPI PUSH2 0x33A0 PUSH2 0x2D30 JUMP JUMPDEST JUMPDEST SWAP3 SWAP2 POP POP JUMP JUMPDEST PUSH32 0x50726573616C653A204D617820627579206C696D697420726561636865642066 PUSH1 0x0 DUP3 ADD MSTORE PUSH32 0x6F72207468697320706861736500000000000000000000000000000000000000 PUSH1 0x20 DUP3 ADD MSTORE POP JUMP JUMPDEST PUSH1 0x0 PUSH2 0x3403 PUSH1 0x2D DUP4 PUSH2 0x2C84 JUMP JUMPDEST SWAP2 POP PUSH2 0x340E DUP3 PUSH2 0x33A7 JUMP JUMPDEST PUSH1 0x40 DUP3 ADD SWAP1 POP SWAP2 SWAP1 POP JUMP JUMPDEST PUSH1 0x0 PUSH1 0x20 DUP3 ADD SWAP1 POP DUP2 DUP2 SUB PUSH1 0x0 DUP4 ADD MSTORE PUSH2 0x3432 DUP2 PUSH2 0x33F6 JUMP JUMPDEST SWAP1 POP SWAP2 SWAP1 POP JUMP JUMPDEST PUSH32 0x50726573616C653A20546F74616C20546F6B656E2053616C6520526561636865 PUSH1 0x0 DUP3 ADD MSTORE PUSH32 0x6421000000000000000000000000000000000000000000000000000000000000 PUSH1 0x20 DUP3 ADD MSTORE POP JUMP JUMPDEST PUSH1 0x0 PUSH2 0x3495 PUSH1 0x22 DUP4 PUSH2 0x2C84 JUMP JUMPDEST SWAP2 POP PUSH2 0x34A0 DUP3 PUSH2 0x3439 JUMP JUMPDEST PUSH1 0x40 DUP3 ADD SWAP1 POP SWAP2 SWAP1 POP JUMP JUMPDEST PUSH1 0x0 PUSH1 0x20 DUP3 ADD SWAP1 POP DUP2 DUP2 SUB PUSH1 0x0 DUP4 ADD MSTORE PUSH2 0x34C4 DUP2 PUSH2 0x3488 JUMP JUMPDEST SWAP1 POP SWAP2 SWAP1 POP JUMP JUMPDEST PUSH32 0x50726573616C653A2043616E6E6F74206275792077697468207A65726F20616D PUSH1 0x0 DUP3 ADD MSTORE PUSH32 0x6F756E7400000000000000000000000000000000000000000000000000000000 PUSH1 0x20 DUP3 ADD MSTORE POP JUMP JUMPDEST PUSH1 0x0 PUSH2 0x3527 PUSH1 0x24 DUP4 PUSH2 0x2C84 JUMP JUMPDEST SWAP2 POP PUSH2 0x3532 DUP3 PUSH2 0x34CB JUMP JUMPDEST PUSH1 0x40 DUP3 ADD SWAP1 POP SWAP2 SWAP1 POP JUMP JUMPDEST PUSH1 0x0 PUSH1 0x20 DUP3 ADD SWAP1 POP DUP2 DUP2 SUB PUSH1 0x0 DUP4 ADD MSTORE PUSH2 0x3556 DUP2 PUSH2 0x351A JUMP JUMPDEST SWAP1 POP SWAP2 SWAP1 POP JUMP JUMPDEST PUSH1 0x0 PUSH1 0x40 DUP3 ADD SWAP1 POP PUSH2 0x3572 PUSH1 0x0 DUP4 ADD DUP6 PUSH2 0x29C3 JUMP JUMPDEST PUSH2 0x357F PUSH1 0x20 DUP4 ADD DUP5 PUSH2 0x29C3 JUMP JUMPDEST SWAP4 SWAP3 POP POP POP JUMP JUMPDEST PUSH32 0x50726573616C653A2053616C6520746F6B656E2063616E6E6F74206265207A65 PUSH1 0x0 DUP3 ADD MSTORE PUSH32 0x726F206164647265737300000000000000000000000000000000000000000000 PUSH1 0x20 DUP3 ADD MSTORE POP JUMP JUMPDEST PUSH1 0x0 PUSH2 0x35E2 PUSH1 0x2A DUP4 PUSH2 0x2C84 JUMP JUMPDEST SWAP2 POP PUSH2 0x35ED DUP3 PUSH2 0x3586 JUMP JUMPDEST PUSH1 0x40 DUP3 ADD SWAP1 POP SWAP2 SWAP1 POP JUMP JUMPDEST PUSH1 0x0 PUSH1 0x20 DUP3 ADD SWAP1 POP DUP2 DUP2 SUB PUSH1 0x0 DUP4 ADD MSTORE PUSH2 0x3611 DUP2 PUSH2 0x35D5 JUMP JUMPDEST SWAP1 POP SWAP2 SWAP1 POP JUMP JUMPDEST PUSH32 0x50726573616C653A20546F74616C20746F6B656E7320666F722073616C652063 PUSH1 0x0 DUP3 ADD MSTORE PUSH32 0x616E6E6F74206265207A65726F00000000000000000000000000000000000000 PUSH1 0x20 DUP3 ADD MSTORE POP JUMP JUMPDEST PUSH1 0x0 PUSH2 0x3674 PUSH1 0x2D DUP4 PUSH2 0x2C84 JUMP JUMPDEST SWAP2 POP PUSH2 0x367F DUP3 PUSH2 0x3618 JUMP JUMPDEST PUSH1 0x40 DUP3 ADD SWAP1 POP SWAP2 SWAP1 POP JUMP JUMPDEST PUSH1 0x0 PUSH1 0x20 DUP3 ADD SWAP1 POP DUP2 DUP2 SUB PUSH1 0x0 DUP4 ADD MSTORE PUSH2 0x36A3 DUP2 PUSH2 0x3667 JUMP JUMPDEST SWAP1 POP SWAP2 SWAP1 POP JUMP JUMPDEST PUSH1 0x0 PUSH1 0xFF DUP3 AND SWAP1 POP SWAP2 SWAP1 POP JUMP JUMPDEST PUSH2 0x36C0 DUP2 PUSH2 0x36AA JUMP JUMPDEST DUP2 EQ PUSH2 0x36CB JUMPI PUSH1 0x0 DUP1 REVERT JUMPDEST POP JUMP JUMPDEST PUSH1 0x0 DUP2 MLOAD SWAP1 POP PUSH2 0x36DD DUP2 PUSH2 0x36B7 JUMP JUMPDEST SWAP3 SWAP2 POP POP JUMP JUMPDEST PUSH1 0x0 PUSH1 0x20 DUP3 DUP5 SUB SLT ISZERO PUSH2 0x36F9 JUMPI PUSH2 0x36F8 PUSH2 0x28EA JUMP JUMPDEST JUMPDEST PUSH1 0x0 PUSH2 0x3707 DUP5 DUP3 DUP6 ADD PUSH2 0x36CE JUMP JUMPDEST SWAP2 POP POP SWAP3 SWAP2 POP POP JUMP JUMPDEST PUSH1 0x0 DUP2 MLOAD SWAP1 POP PUSH2 0x371F DUP2 PUSH2 0x2957 JUMP JUMPDEST SWAP3 SWAP2 POP POP JUMP JUMPDEST PUSH1 0x0 PUSH1 0x20 DUP3 DUP5 SUB SLT ISZERO PUSH2 0x373B JUMPI PUSH2 0x373A PUSH2 0x28EA JUMP JUMPDEST JUMPDEST PUSH1 0x0 PUSH2 0x3749 DUP5 DUP3 DUP6 ADD PUSH2 0x3710 JUMP JUMPDEST SWAP2 POP POP SWAP3 SWAP2 POP POP JUMP JUMPDEST PUSH1 0x0 PUSH1 0x40 DUP3 ADD SWAP1 POP PUSH2 0x3767 PUSH1 0x0 DUP4 ADD DUP6 PUSH2 0x2C2D JUMP JUMPDEST PUSH2 0x3774 PUSH1 0x20 DUP4 ADD DUP5 PUSH2 0x29C3 JUMP JUMPDEST SWAP4 SWAP3 POP POP POP JUMP JUMPDEST PUSH32 0x50726573616C653A20556E6C6F636B696E67206861736E277420737461727465 PUSH1 0x0 DUP3 ADD MSTORE PUSH32 0x6420796574210000000000000000000000000000000000000000000000000000 PUSH1 0x20 DUP3 ADD MSTORE POP JUMP JUMPDEST PUSH1 0x0 PUSH2 0x37D7 PUSH1 0x26 DUP4 PUSH2 0x2C84 JUMP JUMPDEST SWAP2 POP PUSH2 0x37E2 DUP3 PUSH2 0x377B JUMP JUMPDEST PUSH1 0x40 DUP3 ADD SWAP1 POP SWAP2 SWAP1 POP JUMP JUMPDEST PUSH1 0x0 PUSH1 0x20 DUP3 ADD SWAP1 POP DUP2 DUP2 SUB PUSH1 0x0 DUP4 ADD MSTORE PUSH2 0x3806 DUP2 PUSH2 0x37CA JUMP JUMPDEST SWAP1 POP SWAP2 SWAP1 POP JUMP JUMPDEST PUSH32 0x50726573616C653A204C6F636B696E6720706572696F64206E6F74206F766572 PUSH1 0x0 DUP3 ADD MSTORE PUSH32 0x2079657400000000000000000000000000000000000000000000000000000000 PUSH1 0x20 DUP3 ADD MSTORE POP JUMP JUMPDEST PUSH1 0x0 PUSH2 0x3869 PUSH1 0x24 DUP4 PUSH2 0x2C84 JUMP JUMPDEST SWAP2 POP PUSH2 0x3874 DUP3 PUSH2 0x380D JUMP JUMPDEST PUSH1 0x40 DUP3 ADD SWAP1 POP SWAP2 SWAP1 POP JUMP JUMPDEST PUSH1 0x0 PUSH1 0x20 DUP3 ADD SWAP1 POP DUP2 DUP2 SUB PUSH1 0x0 DUP4 ADD MSTORE PUSH2 0x3898 DUP2 PUSH2 0x385C JUMP JUMPDEST SWAP1 POP SWAP2 SWAP1 POP JUMP JUMPDEST PUSH32 0x50726573616C653A20416C726561647920636C61696D65640000000000000000 PUSH1 0x0 DUP3 ADD MSTORE POP JUMP JUMPDEST PUSH1 0x0 PUSH2 0x38D5 PUSH1 0x18 DUP4 PUSH2 0x2C84 JUMP JUMPDEST SWAP2 POP PUSH2 0x38E0 DUP3 PUSH2 0x389F JUMP JUMPDEST PUSH1 0x20 DUP3 ADD SWAP1 POP SWAP2 SWAP1 POP JUMP JUMPDEST PUSH1 0x0 PUSH1 0x20 DUP3 ADD SWAP1 POP DUP2 DUP2 SUB PUSH1 0x0 DUP4 ADD MSTORE PUSH2 0x3904 DUP2 PUSH2 0x38C8 JUMP JUMPDEST SWAP1 POP SWAP2 SWAP1 POP JUMP JUMPDEST PUSH32 0x4F776E61626C653A206E6577206F776E657220697320746865207A65726F2061 PUSH1 0x0 DUP3 ADD MSTORE PUSH32 0x6464726573730000000000000000000000000000000000000000000000000000 PUSH1 0x20 DUP3 ADD MSTORE POP JUMP JUMPDEST PUSH1 0x0 PUSH2 0x3967 PUSH1 0x26 DUP4 PUSH2 0x2C84 JUMP JUMPDEST SWAP2 POP PUSH2 0x3972 DUP3 PUSH2 0x390B JUMP JUMPDEST PUSH1 0x40 DUP3 ADD SWAP1 POP SWAP2 SWAP1 POP JUMP JUMPDEST PUSH1 0x0 PUSH1 0x20 DUP3 ADD SWAP1 POP DUP2 DUP2 SUB PUSH1 0x0 DUP4 ADD MSTORE PUSH2 0x3996 DUP2 PUSH2 0x395A JUMP JUMPDEST SWAP1 POP SWAP2 SWAP1 POP JUMP JUMPDEST PUSH32 0x50726573616C653A2043616E6E6F742077697468647261772073616C6520746F PUSH1 0x0 DUP3 ADD MSTORE PUSH32 0x6B656E20776974682074686973206D6574686F642C2075736520776974686472 PUSH1 0x20 DUP3 ADD MSTORE PUSH32 0x617753616C65546F6B656E282920696E73746561640000000000000000000000 PUSH1 0x40 DUP3 ADD MSTORE POP JUMP JUMPDEST PUSH1 0x0 PUSH2 0x3A1F PUSH1 0x55 DUP4 PUSH2 0x2C84 JUMP JUMPDEST SWAP2 POP PUSH2 0x3A2A DUP3 PUSH2 0x399D JUMP JUMPDEST PUSH1 0x60 DUP3 ADD SWAP1 POP SWAP2 SWAP1 POP JUMP JUMPDEST PUSH1 0x0 PUSH1 0x20 DUP3 ADD SWAP1 POP DUP2 DUP2 SUB PUSH1 0x0 DUP4 ADD MSTORE PUSH2 0x3A4E DUP2 PUSH2 0x3A12 JUMP JUMPDEST SWAP1 POP SWAP2 SWAP1 POP JUMP JUMPDEST PUSH32 0x50726573616C653A2043616E6E6F742077697468647261772073616C6520746F PUSH1 0x0 DUP3 ADD MSTORE PUSH32 0x6B656E20776974682074686973206D6574686F642C2075736520776974686472 PUSH1 0x20 DUP3 ADD MSTORE PUSH32 0x6177416C6C53616C65546F6B656E282920696E73746561640000000000000000 PUSH1 0x40 DUP3 ADD MSTORE POP JUMP JUMPDEST PUSH1 0x0 PUSH2 0x3AD7 PUSH1 0x58 DUP4 PUSH2 0x2C84 JUMP JUMPDEST SWAP2 POP PUSH2 0x3AE2 DUP3 PUSH2 0x3A55 JUMP JUMPDEST PUSH1 0x60 DUP3 ADD SWAP1 POP SWAP2 SWAP1 POP JUMP JUMPDEST PUSH1 0x0 PUSH1 0x20 DUP3 ADD SWAP1 POP DUP2 DUP2 SUB PUSH1 0x0 DUP4 ADD MSTORE PUSH2 0x3B06 DUP2 PUSH2 0x3ACA JUMP JUMPDEST SWAP1 POP SWAP2 SWAP1 POP JUMP JUMPDEST PUSH1 0x0 PUSH1 0x60 DUP3 ADD SWAP1 POP PUSH2 0x3B22 PUSH1 0x0 DUP4 ADD DUP7 PUSH2 0x2C2D JUMP JUMPDEST PUSH2 0x3B2F PUSH1 0x20 DUP4 ADD DUP6 PUSH2 0x2C2D JUMP JUMPDEST PUSH2 0x3B3C PUSH1 0x40 DUP4 ADD DUP5 PUSH2 0x29C3 JUMP JUMPDEST SWAP5 SWAP4 POP POP POP POP JUMP JUMPDEST PUSH2 0x3B4D DUP2 PUSH2 0x29ED JUMP JUMPDEST DUP2 EQ PUSH2 0x3B58 JUMPI PUSH1 0x0 DUP1 REVERT JUMPDEST POP JUMP JUMPDEST PUSH1 0x0 DUP2 MLOAD SWAP1 POP PUSH2 0x3B6A DUP2 PUSH2 0x3B44 JUMP JUMPDEST SWAP3 SWAP2 POP POP JUMP JUMPDEST PUSH1 0x0 PUSH1 0x20 DUP3 DUP5 SUB SLT ISZERO PUSH2 0x3B86 JUMPI PUSH2 0x3B85 PUSH2 0x28EA JUMP JUMPDEST JUMPDEST PUSH1 0x0 PUSH2 0x3B94 DUP5 DUP3 DUP6 ADD PUSH2 0x3B5B JUMP JUMPDEST SWAP2 POP POP SWAP3 SWAP2 POP POP JUMP JUMPDEST PUSH32 0x5361666545524332303A204552433230206F7065726174696F6E20646964206E PUSH1 0x0 DUP3 ADD MSTORE PUSH32 0x6F74207375636365656400000000000000000000000000000000000000000000 PUSH1 0x20 DUP3 ADD MSTORE POP JUMP JUMPDEST PUSH1 0x0 PUSH2 0x3BF9 PUSH1 0x2A DUP4 PUSH2 0x2C84 JUMP JUMPDEST SWAP2 POP PUSH2 0x3C04 DUP3 PUSH2 0x3B9D JUMP JUMPDEST PUSH1 0x40 DUP3 ADD SWAP1 POP SWAP2 SWAP1 POP JUMP JUMPDEST PUSH1 0x0 PUSH1 0x20 DUP3 ADD SWAP1 POP DUP2 DUP2 SUB PUSH1 0x0 DUP4 ADD MSTORE PUSH2 0x3C28 DUP2 PUSH2 0x3BEC JUMP JUMPDEST SWAP1 POP SWAP2 SWAP1 POP JUMP JUMPDEST PUSH32 0x416464726573733A20696E73756666696369656E742062616C616E636520666F PUSH1 0x0 DUP3 ADD MSTORE PUSH32 0x722063616C6C0000000000000000000000000000000000000000000000000000 PUSH1 0x20 DUP3 ADD MSTORE POP JUMP JUMPDEST PUSH1 0x0 PUSH2 0x3C8B PUSH1 0x26 DUP4 PUSH2 0x2C84 JUMP JUMPDEST SWAP2 POP PUSH2 0x3C96 DUP3 PUSH2 0x3C2F JUMP JUMPDEST PUSH1 0x40 DUP3 ADD SWAP1 POP SWAP2 SWAP1 POP JUMP JUMPDEST PUSH1 0x0 PUSH1 0x20 DUP3 ADD SWAP1 POP DUP2 DUP2 SUB PUSH1 0x0 DUP4 ADD MSTORE PUSH2 0x3CBA DUP2 PUSH2 0x3C7E JUMP JUMPDEST SWAP1 POP SWAP2 SWAP1 POP JUMP JUMPDEST PUSH32 0x416464726573733A2063616C6C20746F206E6F6E2D636F6E7472616374000000 PUSH1 0x0 DUP3 ADD MSTORE POP JUMP JUMPDEST PUSH1 0x0 PUSH2 0x3CF7 PUSH1 0x1D DUP4 PUSH2 0x2C84 JUMP JUMPDEST SWAP2 POP PUSH2 0x3D02 DUP3 PUSH2 0x3CC1 JUMP JUMPDEST PUSH1 0x20 DUP3 ADD SWAP1 POP SWAP2 SWAP1 POP JUMP JUMPDEST PUSH1 0x0 PUSH1 0x20 DUP3 ADD SWAP1 POP DUP2 DUP2 SUB PUSH1 0x0 DUP4 ADD MSTORE PUSH2 0x3D26 DUP2 PUSH2 0x3CEA JUMP JUMPDEST SWAP1 POP SWAP2 SWAP1 POP JUMP JUMPDEST PUSH1 0x0 DUP2 MLOAD SWAP1 POP SWAP2 SWAP1 POP JUMP JUMPDEST PUSH1 0x0 DUP2 SWAP1 POP SWAP3 SWAP2 POP POP JUMP JUMPDEST PUSH1 0x0 JUMPDEST DUP4 DUP2 LT ISZERO PUSH2 0x3D61 JUMPI DUP1 DUP3 ADD MLOAD DUP2 DUP5 ADD MSTORE PUSH1 0x20 DUP2 ADD SWAP1 POP PUSH2 0x3D46 JUMP JUMPDEST PUSH1 0x0 DUP5 DUP5 ADD MSTORE POP POP POP POP JUMP JUMPDEST PUSH1 0x0 PUSH2 0x3D78 DUP3 PUSH2 0x3D2D JUMP JUMPDEST PUSH2 0x3D82 DUP2 DUP6 PUSH2 0x3D38 JUMP JUMPDEST SWAP4 POP PUSH2 0x3D92 DUP2 DUP6 PUSH1 0x20 DUP7 ADD PUSH2 0x3D43 JUMP JUMPDEST DUP1 DUP5 ADD SWAP2 POP POP SWAP3 SWAP2 POP POP JUMP JUMPDEST PUSH1 0x0 PUSH2 0x3DAA DUP3 DUP5 PUSH2 0x3D6D JUMP JUMPDEST SWAP2 POP DUP2 SWAP1 POP SWAP3 SWAP2 POP POP JUMP JUMPDEST PUSH1 0x0 DUP2 MLOAD SWAP1 POP SWAP2 SWAP1 POP JUMP JUMPDEST PUSH1 0x0 PUSH2 0x3DCB DUP3 PUSH2 0x3DB5 JUMP JUMPDEST PUSH2 0x3DD5 DUP2 DUP6 PUSH2 0x2C84 JUMP JUMPDEST SWAP4 POP PUSH2 0x3DE5 DUP2 DUP6 PUSH1 0x20 DUP7 ADD PUSH2 0x3D43 JUMP JUMPDEST PUSH2 0x3DEE DUP2 PUSH2 0x2AAB JUMP JUMPDEST DUP5 ADD SWAP2 POP POP SWAP3 SWAP2 POP POP JUMP JUMPDEST PUSH1 0x0 PUSH1 0x20 DUP3 ADD SWAP1 POP DUP2 DUP2 SUB PUSH1 0x0 DUP4 ADD MSTORE PUSH2 0x3E13 DUP2 DUP5 PUSH2 0x3DC0 JUMP JUMPDEST SWAP1 POP SWAP3 SWAP2 POP POP JUMP INVALID LOG2 PUSH5 0x6970667358 0x22 SLT KECCAK256 GAS DUP6 PUSH26 0xD6498C69189CB4F5D9BC2D8890B7397D6A689E8FFC3050CEF06 RETURN SWAP4 SWAP10 PUSH5 0x736F6C6343 STOP ADDMOD SLT STOP CALLER "
				},
				"gasEstimates": {
					"creation": {
						"codeDepositCost": "3190600",
						"executionCost": "infinite",
						"totalCost": "infinite"
					},
					"external": {
						"addWhiteListedToken(address,uint256[4])": "infinite",
						"buyToken(address,uint256)": "infinite",
						"buyersAmount(address)": "5150",
						"getCurrentTier()": "440",
						"getTokenAmount(address,uint256)": "infinite",
						"isUnlockingStarted()": "2584",
						"maxBuyLimit()": "2541",
						"minBuyLimit()": "2540",
						"owner()": "2612",
						"presaleEndTime()": "2498",
						"presaleStartTime()": "2474",
						"rate(uint256)": "infinite",
						"renounceOwnership()": "30463",
						"saleToken()": "2625",
						"saleTokenDec()": "2496",
						"setMaxBuyLimit(uint256)": "24893",
						"setMinBuyLimit(uint256)": "24872",
						"setSaleTokenParams(address,uint256)": "infinite",
						"startAndSetPresaleEndTime(uint256)": "46963",
						"startUnlocking()": "31023",
						"stopUnlocking()": "31018",
						"tokenPrices(address,uint256)": "infinite",
						"tokenWL(address)": "2913",
						"totalTokensSold()": "2541",
						"totalTokensforSale()": "2474",
						"transferOwnership(address)": "30786",
						"updateEthRate(uint256[4])": "infinite",
						"updateTime(uint256)": "24827",
						"updateTokenRate(address,uint256[4])": "infinite",
						"withdraw(address,uint256)": "infinite",
						"withdrawAll(address)": "infinite",
						"withdrawAllSaleToken()": "infinite",
						"withdrawCurrency(uint256)": "infinite",
						"withdrawSaleToken(uint256)": "infinite",
						"withdrawToken()": "infinite"
					}
				},
				"methodIdentifiers": {
					"addWhiteListedToken(address,uint256[4])": "65617db1",
					"buyToken(address,uint256)": "68f8fc10",
					"buyersAmount(address)": "54a9f102",
					"getCurrentTier()": "7412c223",
					"getTokenAmount(address,uint256)": "115ece4c",
					"isUnlockingStarted()": "3848a771",
					"maxBuyLimit()": "6aa5b37f",
					"minBuyLimit()": "b81df742",
					"owner()": "8da5cb5b",
					"presaleEndTime()": "249b7c19",
					"presaleStartTime()": "a82524b2",
					"rate(uint256)": "e7ee6ad6",
					"renounceOwnership()": "715018a6",
					"saleToken()": "e985e367",
					"saleTokenDec()": "ace1741c",
					"setMaxBuyLimit(uint256)": "757765f8",
					"setMinBuyLimit(uint256)": "99b77032",
					"setSaleTokenParams(address,uint256)": "89e6ce1e",
					"startAndSetPresaleEndTime(uint256)": "5b10bd6a",
					"startUnlocking()": "2a95c24c",
					"stopUnlocking()": "b5b0763c",
					"tokenPrices(address,uint256)": "683b3b97",
					"tokenWL(address)": "8ce0b9d2",
					"totalTokensSold()": "63b20117",
					"totalTokensforSale()": "6bcedf9c",
					"transferOwnership(address)": "f2fde38b",
					"updateEthRate(uint256[4])": "ee774ccd",
					"updateTime(uint256)": "6c59bd0c",
					"updateTokenRate(address,uint256[4])": "cae70c70",
					"withdraw(address,uint256)": "f3fef3a3",
					"withdrawAll(address)": "fa09e630",
					"withdrawAllSaleToken()": "fb00f3fc",
					"withdrawCurrency(uint256)": "3c00a36c",
					"withdrawSaleToken(uint256)": "ded441c2",
					"withdrawToken()": "ca628c78"
				}
			},
			"storageLayout": {
				"storage": [
					{
						"astId": 93,
						"contract": "contracts/contract.sol:Presale",
						"label": "_owner",
						"offset": 0,
						"slot": "0",
						"type": "t_address"
					},
					{
						"astId": 687,
						"contract": "contracts/contract.sol:Presale",
						"label": "rate",
						"offset": 0,
						"slot": "1",
						"type": "t_array(t_uint256)4_storage"
					},
					{
						"astId": 689,
						"contract": "contracts/contract.sol:Presale",
						"label": "saleToken",
						"offset": 0,
						"slot": "5",
						"type": "t_address"
					},
					{
						"astId": 691,
						"contract": "contracts/contract.sol:Presale",
						"label": "saleTokenDec",
						"offset": 0,
						"slot": "6",
						"type": "t_uint256"
					},
					{
						"astId": 693,
						"contract": "contracts/contract.sol:Presale",
						"label": "totalTokensforSale",
						"offset": 0,
						"slot": "7",
						"type": "t_uint256"
					},
					{
						"astId": 695,
						"contract": "contracts/contract.sol:Presale",
						"label": "maxBuyLimit",
						"offset": 0,
						"slot": "8",
						"type": "t_uint256"
					},
					{
						"astId": 697,
						"contract": "contracts/contract.sol:Presale",
						"label": "minBuyLimit",
						"offset": 0,
						"slot": "9",
						"type": "t_uint256"
					},
					{
						"astId": 701,
						"contract": "contracts/contract.sol:Presale",
						"label": "tokenWL",
						"offset": 0,
						"slot": "10",
						"type": "t_mapping(t_address,t_bool)"
					},
					{
						"astId": 707,
						"contract": "contracts/contract.sol:Presale",
						"label": "tokenPrices",
						"offset": 0,
						"slot": "11",
						"type": "t_mapping(t_address,t_array(t_uint256)4_storage)"
					},
					{
						"astId": 709,
						"contract": "contracts/contract.sol:Presale",
						"label": "presaleStartTime",
						"offset": 0,
						"slot": "12",
						"type": "t_uint256"
					},
					{
						"astId": 711,
						"contract": "contracts/contract.sol:Presale",
						"label": "presaleEndTime",
						"offset": 0,
						"slot": "13",
						"type": "t_uint256"
					},
					{
						"astId": 713,
						"contract": "contracts/contract.sol:Presale",
						"label": "isUnlockingStarted",
						"offset": 0,
						"slot": "14",
						"type": "t_bool"
					},
					{
						"astId": 718,
						"contract": "contracts/contract.sol:Presale",
						"label": "buyersAmount",
						"offset": 0,
						"slot": "15",
						"type": "t_mapping(t_address,t_struct(BuyerTokenDetails)725_storage)"
					},
					{
						"astId": 720,
						"contract": "contracts/contract.sol:Presale",
						"label": "totalTokensSold",
						"offset": 0,
						"slot": "16",
						"type": "t_uint256"
					}
				],
				"types": {
					"t_address": {
						"encoding": "inplace",
						"label": "address",
						"numberOfBytes": "20"
					},
					"t_array(t_uint256)4_storage": {
						"base": "t_uint256",
						"encoding": "inplace",
						"label": "uint256[4]",
						"numberOfBytes": "128"
					},
					"t_bool": {
						"encoding": "inplace",
						"label": "bool",
						"numberOfBytes": "1"
					},
					"t_mapping(t_address,t_array(t_uint256)4_storage)": {
						"encoding": "mapping",
						"key": "t_address",
						"label": "mapping(address => uint256[4])",
						"numberOfBytes": "32",
						"value": "t_array(t_uint256)4_storage"
					},
					"t_mapping(t_address,t_bool)": {
						"encoding": "mapping",
						"key": "t_address",
						"label": "mapping(address => bool)",
						"numberOfBytes": "32",
						"value": "t_bool"
					},
					"t_mapping(t_address,t_struct(BuyerTokenDetails)725_storage)": {
						"encoding": "mapping",
						"key": "t_address",
						"label": "mapping(address => struct Presale.BuyerTokenDetails)",
						"numberOfBytes": "32",
						"value": "t_struct(BuyerTokenDetails)725_storage"
					},
					"t_struct(BuyerTokenDetails)725_storage": {
						"encoding": "inplace",
						"label": "struct Presale.BuyerTokenDetails",
						"members": [
							{
								"astId": 722,
								"contract": "contracts/contract.sol:Presale",
								"label": "amount",
								"offset": 0,
								"slot": "0",
								"type": "t_uint256"
							},
							{
								"astId": 724,
								"contract": "contracts/contract.sol:Presale",
								"label": "isClaimed",
								"offset": 0,
								"slot": "1",
								"type": "t_bool"
							}
						],
						"numberOfBytes": "64"
					},
					"t_uint256": {
						"encoding": "inplace",
						"label": "uint256",
						"numberOfBytes": "32"
					}
				}
			},
			"userdoc": {
				"kind": "user",
				"methods": {},
				"version": 1
			}
		}
	}
}