{
	"contracts/preSale.sol": {
		"Presale": {
			"abi": [
				{
					"inputs": [],
					"stateMutability": "nonpayable",
					"type": "constructor"
				},
				{
					"anonymous": false,
					"inputs": [
						{
							"indexed": true,
							"internalType": "address",
							"name": "previousOwner",
							"type": "address"
						},
						{
							"indexed": true,
							"internalType": "address",
							"name": "newOwner",
							"type": "address"
						}
					],
					"name": "OwnershipTransferred",
					"type": "event"
				},
				{
					"anonymous": false,
					"inputs": [
						{
							"indexed": false,
							"internalType": "address",
							"name": "token",
							"type": "address"
						},
						{
							"indexed": false,
							"internalType": "uint256",
							"name": "amount",
							"type": "uint256"
						}
					],
					"name": "SaleTokenAdded",
					"type": "event"
				},
				{
					"anonymous": false,
					"inputs": [
						{
							"indexed": false,
							"internalType": "address",
							"name": "token",
							"type": "address"
						},
						{
							"indexed": false,
							"internalType": "uint256",
							"name": "price",
							"type": "uint256"
						}
					],
					"name": "TokenAdded",
					"type": "event"
				},
				{
					"anonymous": false,
					"inputs": [
						{
							"indexed": false,
							"internalType": "address",
							"name": "token",
							"type": "address"
						},
						{
							"indexed": false,
							"internalType": "uint256",
							"name": "price",
							"type": "uint256"
						}
					],
					"name": "TokenUpdated",
					"type": "event"
				},
				{
					"anonymous": false,
					"inputs": [
						{
							"indexed": true,
							"internalType": "address",
							"name": "buyer",
							"type": "address"
						},
						{
							"indexed": true,
							"internalType": "address",
							"name": "token",
							"type": "address"
						},
						{
							"indexed": false,
							"internalType": "uint256",
							"name": "amount",
							"type": "uint256"
						},
						{
							"indexed": false,
							"internalType": "uint256",
							"name": "tokensBought",
							"type": "uint256"
						}
					],
					"name": "TokensBought",
					"type": "event"
				},
				{
					"inputs": [
						{
							"internalType": "address",
							"name": "_token",
							"type": "address"
						},
						{
							"internalType": "uint256",
							"name": "_price",
							"type": "uint256"
						}
					],
					"name": "addWhiteListedToken",
					"outputs": [],
					"stateMutability": "nonpayable",
					"type": "function"
				},
				{
					"inputs": [
						{
							"internalType": "address",
							"name": "_token",
							"type": "address"
						},
						{
							"internalType": "uint256",
							"name": "_amount",
							"type": "uint256"
						}
					],
					"name": "buyToken",
					"outputs": [],
					"stateMutability": "payable",
					"type": "function"
				},
				{
					"inputs": [
						{
							"internalType": "address",
							"name": "_usdtAddress",
							"type": "address"
						}
					],
					"name": "fetchDataForFrontend",
					"outputs": [
						{
							"internalType": "uint256",
							"name": "",
							"type": "uint256"
						},
						{
							"internalType": "uint256",
							"name": "",
							"type": "uint256"
						},
						{
							"internalType": "uint256",
							"name": "",
							"type": "uint256"
						},
						{
							"internalType": "uint256",
							"name": "",
							"type": "uint256"
						}
					],
					"stateMutability": "view",
					"type": "function"
				},
				{
					"inputs": [
						{
							"internalType": "address",
							"name": "token",
							"type": "address"
						},
						{
							"internalType": "uint256",
							"name": "amount",
							"type": "uint256"
						}
					],
					"name": "getTokenAmount",
					"outputs": [
						{
							"internalType": "uint256",
							"name": "",
							"type": "uint256"
						}
					],
					"stateMutability": "view",
					"type": "function"
				},
				{
					"inputs": [],
					"name": "maxBuyLimit",
					"outputs": [
						{
							"internalType": "uint256",
							"name": "",
							"type": "uint256"
						}
					],
					"stateMutability": "view",
					"type": "function"
				},
				{
					"inputs": [],
					"name": "minBuyLimit",
					"outputs": [
						{
							"internalType": "uint256",
							"name": "",
							"type": "uint256"
						}
					],
					"stateMutability": "view",
					"type": "function"
				},
				{
					"inputs": [],
					"name": "owner",
					"outputs": [
						{
							"internalType": "address",
							"name": "",
							"type": "address"
						}
					],
					"stateMutability": "view",
					"type": "function"
				},
				{
					"inputs": [],
					"name": "presaleEndTime",
					"outputs": [
						{
							"internalType": "uint256",
							"name": "",
							"type": "uint256"
						}
					],
					"stateMutability": "view",
					"type": "function"
				},
				{
					"inputs": [],
					"name": "presaleStartTime",
					"outputs": [
						{
							"internalType": "uint256",
							"name": "",
							"type": "uint256"
						}
					],
					"stateMutability": "view",
					"type": "function"
				},
				{
					"inputs": [],
					"name": "rate",
					"outputs": [
						{
							"internalType": "uint256",
							"name": "",
							"type": "uint256"
						}
					],
					"stateMutability": "view",
					"type": "function"
				},
				{
					"inputs": [],
					"name": "renounceOwnership",
					"outputs": [],
					"stateMutability": "nonpayable",
					"type": "function"
				},
				{
					"inputs": [],
					"name": "saleToken",
					"outputs": [
						{
							"internalType": "address",
							"name": "",
							"type": "address"
						}
					],
					"stateMutability": "view",
					"type": "function"
				},
				{
					"inputs": [],
					"name": "saleTokenDec",
					"outputs": [
						{
							"internalType": "uint256",
							"name": "",
							"type": "uint256"
						}
					],
					"stateMutability": "view",
					"type": "function"
				},
				{
					"inputs": [
						{
							"internalType": "uint256",
							"name": "_maxBuyLimit",
							"type": "uint256"
						}
					],
					"name": "setMaxBuyLimit",
					"outputs": [],
					"stateMutability": "nonpayable",
					"type": "function"
				},
				{
					"inputs": [
						{
							"internalType": "uint256",
							"name": "_minBuyLimit",
							"type": "uint256"
						}
					],
					"name": "setMinBuyLimit",
					"outputs": [],
					"stateMutability": "nonpayable",
					"type": "function"
				},
				{
					"inputs": [
						{
							"internalType": "address",
							"name": "_saleToken",
							"type": "address"
						},
						{
							"internalType": "uint256",
							"name": "_totalTokensforSale",
							"type": "uint256"
						}
					],
					"name": "setSaleTokenParams",
					"outputs": [],
					"stateMutability": "nonpayable",
					"type": "function"
				},
				{
					"inputs": [
						{
							"internalType": "uint256",
							"name": "_presaleEndTime",
							"type": "uint256"
						}
					],
					"name": "startAndSetPresaleEndTime",
					"outputs": [],
					"stateMutability": "nonpayable",
					"type": "function"
				},
				{
					"inputs": [
						{
							"internalType": "address",
							"name": "",
							"type": "address"
						}
					],
					"name": "tokenPrices",
					"outputs": [
						{
							"internalType": "uint256",
							"name": "",
							"type": "uint256"
						}
					],
					"stateMutability": "view",
					"type": "function"
				},
				{
					"inputs": [
						{
							"internalType": "address",
							"name": "",
							"type": "address"
						}
					],
					"name": "tokenWL",
					"outputs": [
						{
							"internalType": "bool",
							"name": "",
							"type": "bool"
						}
					],
					"stateMutability": "view",
					"type": "function"
				},
				{
					"inputs": [],
					"name": "totalTokensSold",
					"outputs": [
						{
							"internalType": "uint256",
							"name": "",
							"type": "uint256"
						}
					],
					"stateMutability": "view",
					"type": "function"
				},
				{
					"inputs": [],
					"name": "totalTokensforSale",
					"outputs": [
						{
							"internalType": "uint256",
							"name": "",
							"type": "uint256"
						}
					],
					"stateMutability": "view",
					"type": "function"
				},
				{
					"inputs": [
						{
							"internalType": "address",
							"name": "newOwner",
							"type": "address"
						}
					],
					"name": "transferOwnership",
					"outputs": [],
					"stateMutability": "nonpayable",
					"type": "function"
				},
				{
					"inputs": [
						{
							"internalType": "uint256",
							"name": "_presaleEndTime",
							"type": "uint256"
						}
					],
					"name": "upateTime",
					"outputs": [],
					"stateMutability": "nonpayable",
					"type": "function"
				},
				{
					"inputs": [
						{
							"internalType": "uint256",
							"name": "_rate",
							"type": "uint256"
						}
					],
					"name": "updateEthRate",
					"outputs": [],
					"stateMutability": "nonpayable",
					"type": "function"
				},
				{
					"inputs": [
						{
							"internalType": "address",
							"name": "_token",
							"type": "address"
						},
						{
							"internalType": "uint256",
							"name": "_price",
							"type": "uint256"
						}
					],
					"name": "updateTokenRate",
					"outputs": [],
					"stateMutability": "nonpayable",
					"type": "function"
				},
				{
					"inputs": [
						{
							"internalType": "address",
							"name": "token",
							"type": "address"
						},
						{
							"internalType": "uint256",
							"name": "amt",
							"type": "uint256"
						}
					],
					"name": "withdraw",
					"outputs": [],
					"stateMutability": "nonpayable",
					"type": "function"
				},
				{
					"inputs": [
						{
							"internalType": "address",
							"name": "token",
							"type": "address"
						}
					],
					"name": "withdrawAll",
					"outputs": [],
					"stateMutability": "nonpayable",
					"type": "function"
				},
				{
					"inputs": [],
					"name": "withdrawAllSaleToken",
					"outputs": [],
					"stateMutability": "nonpayable",
					"type": "function"
				},
				{
					"inputs": [
						{
							"internalType": "uint256",
							"name": "amt",
							"type": "uint256"
						}
					],
					"name": "withdrawCurrency",
					"outputs": [],
					"stateMutability": "nonpayable",
					"type": "function"
				},
				{
					"inputs": [
						{
							"internalType": "uint256",
							"name": "_amount",
							"type": "uint256"
						}
					],
					"name": "withdrawSaleToken",
					"outputs": [],
					"stateMutability": "nonpayable",
					"type": "function"
				}
			],
			"devdoc": {
				"kind": "dev",
				"methods": {
					"owner()": {
						"details": "Returns the address of the current owner."
					},
					"renounceOwnership()": {
						"details": "Leaves the contract without owner. It will not be possible to call `onlyOwner` functions. Can only be called by the current owner. NOTE: Renouncing ownership will leave the contract without an owner, thereby disabling any functionality that is only available to the owner."
					},
					"transferOwnership(address)": {
						"details": "Transfers ownership of the contract to a new account (`newOwner`). Can only be called by the current owner."
					}
				},
				"version": 1
			},
			"evm": {
				"assembly": "    /* \"contracts/preSale.sol\":262:6889  contract Presale is Ownable {... */\n  mstore(0x40, 0x80)\n    /* \"contracts/preSale.sol\":1142:1158  constructor() {} */\n  callvalue\n  dup1\n  iszero\n  tag_1\n  jumpi\n  0x00\n  dup1\n  revert\ntag_1:\n  pop\n    /* \"@openzeppelin/contracts/access/Ownable.sol\":936:968  _transferOwnership(_msgSender()) */\n  tag_5\n    /* \"@openzeppelin/contracts/access/Ownable.sol\":955:967  _msgSender() */\n  tag_6\n    /* \"@openzeppelin/contracts/access/Ownable.sol\":955:965  _msgSender */\n  shl(0x20, tag_7)\n    /* \"@openzeppelin/contracts/access/Ownable.sol\":955:967  _msgSender() */\n  0x20\n  shr\n  jump\t// in\ntag_6:\n    /* \"@openzeppelin/contracts/access/Ownable.sol\":936:954  _transferOwnership */\n  shl(0x20, tag_8)\n    /* \"@openzeppelin/contracts/access/Ownable.sol\":936:968  _transferOwnership(_msgSender()) */\n  0x20\n  shr\n  jump\t// in\ntag_5:\n    /* \"contracts/preSale.sol\":262:6889  contract Presale is Ownable {... */\n  jump(tag_10)\n    /* \"@openzeppelin/contracts/utils/Context.sol\":640:736  function _msgSender() internal view virtual returns (address) {... */\ntag_7:\n    /* \"@openzeppelin/contracts/utils/Context.sol\":693:700  address */\n  0x00\n    /* \"@openzeppelin/contracts/utils/Context.sol\":719:729  msg.sender */\n  caller\n    /* \"@openzeppelin/contracts/utils/Context.sol\":712:729  return msg.sender */\n  swap1\n  pop\n    /* \"@openzeppelin/contracts/utils/Context.sol\":640:736  function _msgSender() internal view virtual returns (address) {... */\n  swap1\n  jump\t// out\n    /* \"@openzeppelin/contracts/access/Ownable.sol\":2426:2613  function _transferOwnership(address newOwner) internal virtual {... */\ntag_8:\n    /* \"@openzeppelin/contracts/access/Ownable.sol\":2499:2515  address oldOwner */\n  0x00\n    /* \"@openzeppelin/contracts/access/Ownable.sol\":2518:2524  _owner */\n  dup1\n  0x00\n  swap1\n  sload\n  swap1\n  0x0100\n  exp\n  swap1\n  div\n  0xffffffffffffffffffffffffffffffffffffffff\n  and\n    /* \"@openzeppelin/contracts/access/Ownable.sol\":2499:2524  address oldOwner = _owner */\n  swap1\n  pop\n    /* \"@openzeppelin/contracts/access/Ownable.sol\":2543:2551  newOwner */\n  dup2\n    /* \"@openzeppelin/contracts/access/Ownable.sol\":2534:2540  _owner */\n  0x00\n  dup1\n    /* \"@openzeppelin/contracts/access/Ownable.sol\":2534:2551  _owner = newOwner */\n  0x0100\n  exp\n  dup2\n  sload\n  dup2\n  0xffffffffffffffffffffffffffffffffffffffff\n  mul\n  not\n  and\n  swap1\n  dup4\n  0xffffffffffffffffffffffffffffffffffffffff\n  and\n  mul\n  or\n  swap1\n  sstore\n  pop\n    /* \"@openzeppelin/contracts/access/Ownable.sol\":2597:2605  newOwner */\n  dup2\n    /* \"@openzeppelin/contracts/access/Ownable.sol\":2566:2606  OwnershipTransferred(oldOwner, newOwner) */\n  0xffffffffffffffffffffffffffffffffffffffff\n  and\n    /* \"@openzeppelin/contracts/access/Ownable.sol\":2587:2595  oldOwner */\n  dup2\n    /* \"@openzeppelin/contracts/access/Ownable.sol\":2566:2606  OwnershipTransferred(oldOwner, newOwner) */\n  0xffffffffffffffffffffffffffffffffffffffff\n  and\n  0x8be0079c531659141344cd1fd0a4f28419497f9722a3daafe3b4186f6b6457e0\n  mload(0x40)\n  mload(0x40)\n  dup1\n  swap2\n  sub\n  swap1\n  log3\n    /* \"@openzeppelin/contracts/access/Ownable.sol\":2489:2613  {... */\n  pop\n    /* \"@openzeppelin/contracts/access/Ownable.sol\":2426:2613  function _transferOwnership(address newOwner) internal virtual {... */\n  pop\n  jump\t// out\n    /* \"contracts/preSale.sol\":262:6889  contract Presale is Ownable {... */\ntag_10:\n  dataSize(sub_0)\n  dup1\n  dataOffset(sub_0)\n  0x00\n  codecopy\n  0x00\n  return\nstop\n\nsub_0: assembly {\n        /* \"contracts/preSale.sol\":262:6889  contract Presale is Ownable {... */\n      mstore(0x40, 0x80)\n      jumpi(tag_1, lt(calldatasize, 0x04))\n      shr(0xe0, calldataload(0x00))\n      dup1\n      0x715018a6\n      gt\n      tag_32\n      jumpi\n      dup1\n      0xace1741c\n      gt\n      tag_33\n      jumpi\n      dup1\n      0xf2fde38b\n      gt\n      tag_34\n      jumpi\n      dup1\n      0xf2fde38b\n      eq\n      tag_28\n      jumpi\n      dup1\n      0xf3fef3a3\n      eq\n      tag_29\n      jumpi\n      dup1\n      0xfa09e630\n      eq\n      tag_30\n      jumpi\n      dup1\n      0xfb00f3fc\n      eq\n      tag_31\n      jumpi\n      jump(tag_1)\n    tag_34:\n      dup1\n      0xace1741c\n      eq\n      tag_24\n      jumpi\n      dup1\n      0xb81df742\n      eq\n      tag_25\n      jumpi\n      dup1\n      0xded441c2\n      eq\n      tag_26\n      jumpi\n      dup1\n      0xe985e367\n      eq\n      tag_27\n      jumpi\n      jump(tag_1)\n    tag_33:\n      dup1\n      0x8ce0b9d2\n      gt\n      tag_35\n      jumpi\n      dup1\n      0x8ce0b9d2\n      eq\n      tag_20\n      jumpi\n      dup1\n      0x8da5cb5b\n      eq\n      tag_21\n      jumpi\n      dup1\n      0x99b77032\n      eq\n      tag_22\n      jumpi\n      dup1\n      0xa82524b2\n      eq\n      tag_23\n      jumpi\n      jump(tag_1)\n    tag_35:\n      dup1\n      0x715018a6\n      eq\n      tag_17\n      jumpi\n      dup1\n      0x757765f8\n      eq\n      tag_18\n      jumpi\n      dup1\n      0x89e6ce1e\n      eq\n      tag_19\n      jumpi\n      jump(tag_1)\n    tag_32:\n      dup1\n      0x3f6f7ed6\n      gt\n      tag_36\n      jumpi\n      dup1\n      0x63b20117\n      gt\n      tag_37\n      jumpi\n      dup1\n      0x63b20117\n      eq\n      tag_13\n      jumpi\n      dup1\n      0x68f8fc10\n      eq\n      tag_14\n      jumpi\n      dup1\n      0x6aa5b37f\n      eq\n      tag_15\n      jumpi\n      dup1\n      0x6bcedf9c\n      eq\n      tag_16\n      jumpi\n      jump(tag_1)\n    tag_37:\n      dup1\n      0x3f6f7ed6\n      eq\n      tag_9\n      jumpi\n      dup1\n      0x444ad5ee\n      eq\n      tag_10\n      jumpi\n      dup1\n      0x5a2696ca\n      eq\n      tag_11\n      jumpi\n      dup1\n      0x5b10bd6a\n      eq\n      tag_12\n      jumpi\n      jump(tag_1)\n    tag_36:\n      dup1\n      0x226ac321\n      gt\n      tag_38\n      jumpi\n      dup1\n      0x226ac321\n      eq\n      tag_5\n      jumpi\n      dup1\n      0x249b7c19\n      eq\n      tag_6\n      jumpi\n      dup1\n      0x2c4e722e\n      eq\n      tag_7\n      jumpi\n      dup1\n      0x3c00a36c\n      eq\n      tag_8\n      jumpi\n      jump(tag_1)\n    tag_38:\n      dup1\n      0x0fabdd44\n      eq\n      tag_2\n      jumpi\n      dup1\n      0x115ece4c\n      eq\n      tag_3\n      jumpi\n      dup1\n      0x204120bc\n      eq\n      tag_4\n      jumpi\n    tag_1:\n      0x00\n      dup1\n      revert\n        /* \"contracts/preSale.sol\":2815:2959  function upateTime(... */\n    tag_2:\n      callvalue\n      dup1\n      iszero\n      tag_39\n      jumpi\n      0x00\n      dup1\n      revert\n    tag_39:\n      pop\n      tag_40\n      0x04\n      dup1\n      calldatasize\n      sub\n      dup2\n      add\n      swap1\n      tag_41\n      swap2\n      swap1\n      tag_42\n      jump\t// in\n    tag_41:\n      tag_43\n      jump\t// in\n    tag_40:\n      stop\n        /* \"contracts/preSale.sol\":3545:4090  function getTokenAmount(... */\n    tag_3:\n      callvalue\n      dup1\n      iszero\n      tag_44\n      jumpi\n      0x00\n      dup1\n      revert\n    tag_44:\n      pop\n      tag_45\n      0x04\n      dup1\n      calldatasize\n      sub\n      dup2\n      add\n      swap1\n      tag_46\n      swap2\n      swap1\n      tag_47\n      jump\t// in\n    tag_46:\n      tag_48\n      jump\t// in\n    tag_45:\n      mload(0x40)\n      tag_49\n      swap2\n      swap1\n      tag_50\n      jump\t// in\n    tag_49:\n      mload(0x40)\n      dup1\n      swap2\n      sub\n      swap1\n      return\n        /* \"contracts/preSale.sol\":632:678  mapping(address => uint256) public tokenPrices */\n    tag_4:\n      callvalue\n      dup1\n      iszero\n      tag_51\n      jumpi\n      0x00\n      dup1\n      revert\n    tag_51:\n      pop\n      tag_52\n      0x04\n      dup1\n      calldatasize\n      sub\n      dup2\n      add\n      swap1\n      tag_53\n      swap2\n      swap1\n      tag_54\n      jump\t// in\n    tag_53:\n      tag_55\n      jump\t// in\n    tag_52:\n      mload(0x40)\n      tag_56\n      swap2\n      swap1\n      tag_50\n      jump\t// in\n    tag_56:\n      mload(0x40)\n      dup1\n      swap2\n      sub\n      swap1\n      return\n        /* \"contracts/preSale.sol\":3283:3537  function updateTokenRate(... */\n    tag_5:\n      callvalue\n      dup1\n      iszero\n      tag_57\n      jumpi\n      0x00\n      dup1\n      revert\n    tag_57:\n      pop\n      tag_58\n      0x04\n      dup1\n      calldatasize\n      sub\n      dup2\n      add\n      swap1\n      tag_59\n      swap2\n      swap1\n      tag_47\n      jump\t// in\n    tag_59:\n      tag_60\n      jump\t// in\n    tag_58:\n      stop\n        /* \"contracts/preSale.sol\":759:788  uint256 public presaleEndTime */\n    tag_6:\n      callvalue\n      dup1\n      iszero\n      tag_61\n      jumpi\n      0x00\n      dup1\n      revert\n    tag_61:\n      pop\n      tag_62\n      tag_63\n      jump\t// in\n    tag_62:\n      mload(0x40)\n      tag_64\n      swap2\n      swap1\n      tag_50\n      jump\t// in\n    tag_64:\n      mload(0x40)\n      dup1\n      swap2\n      sub\n      swap1\n      return\n        /* \"contracts/preSale.sol\":369:388  uint256 public rate */\n    tag_7:\n      callvalue\n      dup1\n      iszero\n      tag_65\n      jumpi\n      0x00\n      dup1\n      revert\n    tag_65:\n      pop\n      tag_66\n      tag_67\n      jump\t// in\n    tag_66:\n      mload(0x40)\n      tag_68\n      swap2\n      swap1\n      tag_50\n      jump\t// in\n    tag_68:\n      mload(0x40)\n      dup1\n      swap2\n      sub\n      swap1\n      return\n        /* \"contracts/preSale.sol\":6779:6887  function withdrawCurrency(uint256 amt) external onlyOwner {... */\n    tag_8:\n      callvalue\n      dup1\n      iszero\n      tag_69\n      jumpi\n      0x00\n      dup1\n      revert\n    tag_69:\n      pop\n      tag_70\n      0x04\n      dup1\n      calldatasize\n      sub\n      dup2\n      add\n      swap1\n      tag_71\n      swap2\n      swap1\n      tag_42\n      jump\t// in\n    tag_71:\n      tag_72\n      jump\t// in\n    tag_70:\n      stop\n        /* \"contracts/preSale.sol\":3191:3277  function updateEthRate(uint256 _rate) external onlyOwner {... */\n    tag_9:\n      callvalue\n      dup1\n      iszero\n      tag_73\n      jumpi\n      0x00\n      dup1\n      revert\n    tag_73:\n      pop\n      tag_74\n      0x04\n      dup1\n      calldatasize\n      sub\n      dup2\n      add\n      swap1\n      tag_75\n      swap2\n      swap1\n      tag_42\n      jump\t// in\n    tag_75:\n      tag_76\n      jump\t// in\n    tag_74:\n      stop\n        /* \"contracts/preSale.sol\":2965:3185  function addWhiteListedToken(... */\n    tag_10:\n      callvalue\n      dup1\n      iszero\n      tag_77\n      jumpi\n      0x00\n      dup1\n      revert\n    tag_77:\n      pop\n      tag_78\n      0x04\n      dup1\n      calldatasize\n      sub\n      dup2\n      add\n      swap1\n      tag_79\n      swap2\n      swap1\n      tag_47\n      jump\t// in\n    tag_79:\n      tag_80\n      jump\t// in\n    tag_78:\n      stop\n        /* \"contracts/preSale.sol\":5882:6122  function fetchDataForFrontend(address _usdtAddress) view external returns(uint,uint,uint,uint){... */\n    tag_11:\n      callvalue\n      dup1\n      iszero\n      tag_81\n      jumpi\n      0x00\n      dup1\n      revert\n    tag_81:\n      pop\n      tag_82\n      0x04\n      dup1\n      calldatasize\n      sub\n      dup2\n      add\n      swap1\n      tag_83\n      swap2\n      swap1\n      tag_54\n      jump\t// in\n    tag_83:\n      tag_84\n      jump\t// in\n    tag_82:\n      mload(0x40)\n      tag_85\n      swap5\n      swap4\n      swap3\n      swap2\n      swap1\n      tag_86\n      jump\t// in\n    tag_85:\n      mload(0x40)\n      dup1\n      swap2\n      sub\n      swap1\n      return\n        /* \"contracts/preSale.sol\":2604:2809  function startAndSetPresaleEndTime(... */\n    tag_12:\n      callvalue\n      dup1\n      iszero\n      tag_87\n      jumpi\n      0x00\n      dup1\n      revert\n    tag_87:\n      pop\n      tag_88\n      0x04\n      dup1\n      calldatasize\n      sub\n      dup2\n      add\n      swap1\n      tag_89\n      swap2\n      swap1\n      tag_42\n      jump\t// in\n    tag_89:\n      tag_90\n      jump\t// in\n    tag_88:\n      stop\n        /* \"contracts/preSale.sol\":795:825  uint256 public totalTokensSold */\n    tag_13:\n      callvalue\n      dup1\n      iszero\n      tag_91\n      jumpi\n      0x00\n      dup1\n      revert\n    tag_91:\n      pop\n      tag_92\n      tag_93\n      jump\t// in\n    tag_92:\n      mload(0x40)\n      tag_94\n      swap2\n      swap1\n      tag_50\n      jump\t// in\n    tag_94:\n      mload(0x40)\n      dup1\n      swap2\n      sub\n      swap1\n      return\n        /* \"contracts/preSale.sol\":4096:5178  function buyToken(... */\n    tag_14:\n      tag_95\n      0x04\n      dup1\n      calldatasize\n      sub\n      dup2\n      add\n      swap1\n      tag_96\n      swap2\n      swap1\n      tag_47\n      jump\t// in\n    tag_96:\n      tag_97\n      jump\t// in\n    tag_95:\n      stop\n        /* \"contracts/preSale.sol\":523:549  uint256 public maxBuyLimit */\n    tag_15:\n      callvalue\n      dup1\n      iszero\n      tag_98\n      jumpi\n      0x00\n      dup1\n      revert\n    tag_98:\n      pop\n      tag_99\n      tag_100\n      jump\t// in\n    tag_99:\n      mload(0x40)\n      tag_101\n      swap2\n      swap1\n      tag_50\n      jump\t// in\n    tag_101:\n      mload(0x40)\n      dup1\n      swap2\n      sub\n      swap1\n      return\n        /* \"contracts/preSale.sol\":484:517  uint256 public totalTokensforSale */\n    tag_16:\n      callvalue\n      dup1\n      iszero\n      tag_102\n      jumpi\n      0x00\n      dup1\n      revert\n    tag_102:\n      pop\n      tag_103\n      tag_104\n      jump\t// in\n    tag_103:\n      mload(0x40)\n      tag_105\n      swap2\n      swap1\n      tag_50\n      jump\t// in\n    tag_105:\n      mload(0x40)\n      dup1\n      swap2\n      sub\n      swap1\n      return\n        /* \"@openzeppelin/contracts/access/Ownable.sol\":1824:1925  function renounceOwnership() public virtual onlyOwner {... */\n    tag_17:\n      callvalue\n      dup1\n      iszero\n      tag_106\n      jumpi\n      0x00\n      dup1\n      revert\n    tag_106:\n      pop\n      tag_107\n      tag_108\n      jump\t// in\n    tag_107:\n      stop\n        /* \"contracts/preSale.sol\":5298:5406  function setMaxBuyLimit(uint256 _maxBuyLimit) external onlyOwner {... */\n    tag_18:\n      callvalue\n      dup1\n      iszero\n      tag_109\n      jumpi\n      0x00\n      dup1\n      revert\n    tag_109:\n      pop\n      tag_110\n      0x04\n      dup1\n      calldatasize\n      sub\n      dup2\n      add\n      swap1\n      tag_111\n      swap2\n      swap1\n      tag_42\n      jump\t// in\n    tag_111:\n      tag_112\n      jump\t// in\n    tag_110:\n      stop\n        /* \"contracts/preSale.sol\":1858:2598  function setSaleTokenParams(... */\n    tag_19:\n      callvalue\n      dup1\n      iszero\n      tag_113\n      jumpi\n      0x00\n      dup1\n      revert\n    tag_113:\n      pop\n      tag_114\n      0x04\n      dup1\n      calldatasize\n      sub\n      dup2\n      add\n      swap1\n      tag_115\n      swap2\n      swap1\n      tag_47\n      jump\t// in\n    tag_115:\n      tag_116\n      jump\t// in\n    tag_114:\n      stop\n        /* \"contracts/preSale.sol\":587:626  mapping(address => bool) public tokenWL */\n    tag_20:\n      callvalue\n      dup1\n      iszero\n      tag_117\n      jumpi\n      0x00\n      dup1\n      revert\n    tag_117:\n      pop\n      tag_118\n      0x04\n      dup1\n      calldatasize\n      sub\n      dup2\n      add\n      swap1\n      tag_119\n      swap2\n      swap1\n      tag_54\n      jump\t// in\n    tag_119:\n      tag_120\n      jump\t// in\n    tag_118:\n      mload(0x40)\n      tag_121\n      swap2\n      swap1\n      tag_122\n      jump\t// in\n    tag_121:\n      mload(0x40)\n      dup1\n      swap2\n      sub\n      swap1\n      return\n        /* \"@openzeppelin/contracts/access/Ownable.sol\":1201:1286  function owner() public view virtual returns (address) {... */\n    tag_21:\n      callvalue\n      dup1\n      iszero\n      tag_123\n      jumpi\n      0x00\n      dup1\n      revert\n    tag_123:\n      pop\n      tag_124\n      tag_125\n      jump\t// in\n    tag_124:\n      mload(0x40)\n      tag_126\n      swap2\n      swap1\n      tag_127\n      jump\t// in\n    tag_126:\n      mload(0x40)\n      dup1\n      swap2\n      sub\n      swap1\n      return\n        /* \"contracts/preSale.sol\":5184:5292  function setMinBuyLimit(uint256 _minBuyLimit) external onlyOwner {... */\n    tag_22:\n      callvalue\n      dup1\n      iszero\n      tag_128\n      jumpi\n      0x00\n      dup1\n      revert\n    tag_128:\n      pop\n      tag_129\n      0x04\n      dup1\n      calldatasize\n      sub\n      dup2\n      add\n      swap1\n      tag_130\n      swap2\n      swap1\n      tag_42\n      jump\t// in\n    tag_130:\n      tag_131\n      jump\t// in\n    tag_129:\n      stop\n        /* \"contracts/preSale.sol\":722:753  uint256 public presaleStartTime */\n    tag_23:\n      callvalue\n      dup1\n      iszero\n      tag_132\n      jumpi\n      0x00\n      dup1\n      revert\n    tag_132:\n      pop\n      tag_133\n      tag_134\n      jump\t// in\n    tag_133:\n      mload(0x40)\n      tag_135\n      swap2\n      swap1\n      tag_50\n      jump\t// in\n    tag_135:\n      mload(0x40)\n      dup1\n      swap2\n      sub\n      swap1\n      return\n        /* \"contracts/preSale.sol\":454:478  uint public saleTokenDec */\n    tag_24:\n      callvalue\n      dup1\n      iszero\n      tag_136\n      jumpi\n      0x00\n      dup1\n      revert\n    tag_136:\n      pop\n      tag_137\n      tag_138\n      jump\t// in\n    tag_137:\n      mload(0x40)\n      tag_139\n      swap2\n      swap1\n      tag_50\n      jump\t// in\n    tag_139:\n      mload(0x40)\n      dup1\n      swap2\n      sub\n      swap1\n      return\n        /* \"contracts/preSale.sol\":555:581  uint256 public minBuyLimit */\n    tag_25:\n      callvalue\n      dup1\n      iszero\n      tag_140\n      jumpi\n      0x00\n      dup1\n      revert\n    tag_140:\n      pop\n      tag_141\n      tag_142\n      jump\t// in\n    tag_141:\n      mload(0x40)\n      tag_143\n      swap2\n      swap1\n      tag_50\n      jump\t// in\n    tag_143:\n      mload(0x40)\n      dup1\n      swap2\n      sub\n      swap1\n      return\n        /* \"contracts/preSale.sol\":5463:5609  function withdrawSaleToken(uint256 _amount) external onlyOwner isPresaleEnded {... */\n    tag_26:\n      callvalue\n      dup1\n      iszero\n      tag_144\n      jumpi\n      0x00\n      dup1\n      revert\n    tag_144:\n      pop\n      tag_145\n      0x04\n      dup1\n      calldatasize\n      sub\n      dup2\n      add\n      swap1\n      tag_146\n      swap2\n      swap1\n      tag_42\n      jump\t// in\n    tag_146:\n      tag_147\n      jump\t// in\n    tag_145:\n      stop\n        /* \"contracts/preSale.sol\":424:448  address public saleToken */\n    tag_27:\n      callvalue\n      dup1\n      iszero\n      tag_148\n      jumpi\n      0x00\n      dup1\n      revert\n    tag_148:\n      pop\n      tag_149\n      tag_150\n      jump\t// in\n    tag_149:\n      mload(0x40)\n      tag_151\n      swap2\n      swap1\n      tag_127\n      jump\t// in\n    tag_151:\n      mload(0x40)\n      dup1\n      swap2\n      sub\n      swap1\n      return\n        /* \"@openzeppelin/contracts/access/Ownable.sol\":2074:2272  function transferOwnership(address newOwner) public virtual onlyOwner {... */\n    tag_28:\n      callvalue\n      dup1\n      iszero\n      tag_152\n      jumpi\n      0x00\n      dup1\n      revert\n    tag_152:\n      pop\n      tag_153\n      0x04\n      dup1\n      calldatasize\n      sub\n      dup2\n      add\n      swap1\n      tag_154\n      swap2\n      swap1\n      tag_54\n      jump\t// in\n    tag_154:\n      tag_155\n      jump\t// in\n    tag_153:\n      stop\n        /* \"contracts/preSale.sol\":6189:6440  function withdraw(address token, uint256 amt) public   onlyOwner {... */\n    tag_29:\n      callvalue\n      dup1\n      iszero\n      tag_156\n      jumpi\n      0x00\n      dup1\n      revert\n    tag_156:\n      pop\n      tag_157\n      0x04\n      dup1\n      calldatasize\n      sub\n      dup2\n      add\n      swap1\n      tag_158\n      swap2\n      swap1\n      tag_47\n      jump\t// in\n    tag_158:\n      tag_159\n      jump\t// in\n    tag_157:\n      stop\n        /* \"contracts/preSale.sol\":6447:6730  function withdrawAll(address token) external onlyOwner {... */\n    tag_30:\n      callvalue\n      dup1\n      iszero\n      tag_160\n      jumpi\n      0x00\n      dup1\n      revert\n    tag_160:\n      pop\n      tag_161\n      0x04\n      dup1\n      calldatasize\n      sub\n      dup2\n      add\n      swap1\n      tag_162\n      swap2\n      swap1\n      tag_54\n      jump\t// in\n    tag_162:\n      tag_163\n      jump\t// in\n    tag_161:\n      stop\n        /* \"contracts/preSale.sol\":5680:5876  function withdrawAllSaleToken() external onlyOwner isPresaleEnded {... */\n    tag_31:\n      callvalue\n      dup1\n      iszero\n      tag_164\n      jumpi\n      0x00\n      dup1\n      revert\n    tag_164:\n      pop\n      tag_165\n      tag_166\n      jump\t// in\n    tag_165:\n      stop\n        /* \"contracts/preSale.sol\":2815:2959  function upateTime(... */\n    tag_43:\n        /* \"@openzeppelin/contracts/access/Ownable.sol\":1094:1107  _checkOwner() */\n      tag_168\n        /* \"@openzeppelin/contracts/access/Ownable.sol\":1094:1105  _checkOwner */\n      tag_169\n        /* \"@openzeppelin/contracts/access/Ownable.sol\":1094:1107  _checkOwner() */\n      jump\t// in\n    tag_168:\n        /* \"contracts/preSale.sol\":2937:2952  _presaleEndTime */\n      dup1\n        /* \"contracts/preSale.sol\":2919:2934  block.timestamp */\n      timestamp\n        /* \"contracts/preSale.sol\":2919:2952  block.timestamp + _presaleEndTime */\n      tag_171\n      swap2\n      swap1\n      tag_172\n      jump\t// in\n    tag_171:\n        /* \"contracts/preSale.sol\":2902:2916  presaleEndTime */\n      0x0a\n        /* \"contracts/preSale.sol\":2902:2952  presaleEndTime = block.timestamp + _presaleEndTime */\n      dup2\n      swap1\n      sstore\n      pop\n        /* \"contracts/preSale.sol\":2815:2959  function upateTime(... */\n      pop\n      jump\t// out\n        /* \"contracts/preSale.sol\":3545:4090  function getTokenAmount(... */\n    tag_48:\n        /* \"contracts/preSale.sol\":3643:3650  uint256 */\n      0x00\n        /* \"contracts/preSale.sol\":3662:3676  uint256 amtOut */\n      dup1\n        /* \"contracts/preSale.sol\":3707:3708  0 */\n      0x00\n        /* \"contracts/preSale.sol\":3690:3709  token != address(0) */\n      0xffffffffffffffffffffffffffffffffffffffff\n      and\n        /* \"contracts/preSale.sol\":3690:3695  token */\n      dup5\n        /* \"contracts/preSale.sol\":3690:3709  token != address(0) */\n      0xffffffffffffffffffffffffffffffffffffffff\n      and\n      eq\n        /* \"contracts/preSale.sol\":3686:4061  if (token != address(0)) {... */\n      tag_174\n      jumpi\n        /* \"contracts/preSale.sol\":3733:3740  tokenWL */\n      0x07\n        /* \"contracts/preSale.sol\":3733:3747  tokenWL[token] */\n      0x00\n        /* \"contracts/preSale.sol\":3741:3746  token */\n      dup6\n        /* \"contracts/preSale.sol\":3733:3747  tokenWL[token] */\n      0xffffffffffffffffffffffffffffffffffffffff\n      and\n      0xffffffffffffffffffffffffffffffffffffffff\n      and\n      dup2\n      mstore\n      0x20\n      add\n      swap1\n      dup2\n      mstore\n      0x20\n      add\n      0x00\n      keccak256\n      0x00\n      swap1\n      sload\n      swap1\n      0x0100\n      exp\n      swap1\n      div\n      0xff\n      and\n        /* \"contracts/preSale.sol\":3725:3782  require(tokenWL[token], \"Presale: Token not whitelisted\") */\n      tag_175\n      jumpi\n      mload(0x40)\n      0x08c379a000000000000000000000000000000000000000000000000000000000\n      dup2\n      mstore\n      0x04\n      add\n      tag_176\n      swap1\n      tag_177\n      jump\t// in\n    tag_176:\n      mload(0x40)\n      dup1\n      swap2\n      sub\n      swap1\n      revert\n    tag_175:\n        /* \"contracts/preSale.sol\":3828:3829  0 */\n      0x00\n        /* \"contracts/preSale.sol\":3806:3817  tokenPrices */\n      0x08\n        /* \"contracts/preSale.sol\":3806:3824  tokenPrices[token] */\n      0x00\n        /* \"contracts/preSale.sol\":3818:3823  token */\n      dup7\n        /* \"contracts/preSale.sol\":3806:3824  tokenPrices[token] */\n      0xffffffffffffffffffffffffffffffffffffffff\n      and\n      0xffffffffffffffffffffffffffffffffffffffff\n      and\n      dup2\n      mstore\n      0x20\n      add\n      swap1\n      dup2\n      mstore\n      0x20\n      add\n      0x00\n      keccak256\n      sload\n        /* \"contracts/preSale.sol\":3806:3829  tokenPrices[token] != 0 */\n      sub\n        /* \"contracts/preSale.sol\":3806:3922  tokenPrices[token] != 0... */\n      tag_178\n      jumpi\n        /* \"contracts/preSale.sol\":3921:3922  0 */\n      0x00\n        /* \"contracts/preSale.sol\":3806:3922  tokenPrices[token] != 0... */\n      jump(tag_179)\n    tag_178:\n        /* \"contracts/preSale.sol\":3883:3894  tokenPrices */\n      0x08\n        /* \"contracts/preSale.sol\":3883:3901  tokenPrices[token] */\n      0x00\n        /* \"contracts/preSale.sol\":3895:3900  token */\n      dup6\n        /* \"contracts/preSale.sol\":3883:3901  tokenPrices[token] */\n      0xffffffffffffffffffffffffffffffffffffffff\n      and\n      0xffffffffffffffffffffffffffffffffffffffff\n      and\n      dup2\n      mstore\n      0x20\n      add\n      swap1\n      dup2\n      mstore\n      0x20\n      add\n      0x00\n      keccak256\n      sload\n        /* \"contracts/preSale.sol\":3865:3877  saleTokenDec */\n      sload(0x03)\n        /* \"contracts/preSale.sol\":3859:3861  10 */\n      0x0a\n        /* \"contracts/preSale.sol\":3859:3877  10 ** saleTokenDec */\n      tag_180\n      swap2\n      swap1\n      tag_181\n      jump\t// in\n    tag_180:\n        /* \"contracts/preSale.sol\":3849:3855  amount */\n      dup5\n        /* \"contracts/preSale.sol\":3849:3878  amount * (10 ** saleTokenDec) */\n      tag_182\n      swap2\n      swap1\n      tag_183\n      jump\t// in\n    tag_182:\n        /* \"contracts/preSale.sol\":3848:3902  (amount * (10 ** saleTokenDec)) / (tokenPrices[token]) */\n      tag_184\n      swap2\n      swap1\n      tag_185\n      jump\t// in\n    tag_184:\n        /* \"contracts/preSale.sol\":3806:3922  tokenPrices[token] != 0... */\n    tag_179:\n        /* \"contracts/preSale.sol\":3797:3922  amtOut = tokenPrices[token] != 0... */\n      swap1\n      pop\n        /* \"contracts/preSale.sol\":3686:4061  if (token != address(0)) {... */\n      jump(tag_186)\n    tag_174:\n        /* \"contracts/preSale.sol\":3970:3971  0 */\n      0x00\n        /* \"contracts/preSale.sol\":3962:3966  rate */\n      sload(0x01)\n        /* \"contracts/preSale.sol\":3962:3971  rate != 0 */\n      sub\n        /* \"contracts/preSale.sol\":3962:4050  rate != 0... */\n      tag_187\n      jumpi\n        /* \"contracts/preSale.sol\":4049:4050  0 */\n      0x00\n        /* \"contracts/preSale.sol\":3962:4050  rate != 0... */\n      jump(tag_188)\n    tag_187:\n        /* \"contracts/preSale.sol\":4025:4029  rate */\n      sload(0x01)\n        /* \"contracts/preSale.sol\":4007:4019  saleTokenDec */\n      sload(0x03)\n        /* \"contracts/preSale.sol\":4001:4003  10 */\n      0x0a\n        /* \"contracts/preSale.sol\":4001:4019  10 ** saleTokenDec */\n      tag_189\n      swap2\n      swap1\n      tag_181\n      jump\t// in\n    tag_189:\n        /* \"contracts/preSale.sol\":3991:3997  amount */\n      dup5\n        /* \"contracts/preSale.sol\":3991:4020  amount * (10 ** saleTokenDec) */\n      tag_190\n      swap2\n      swap1\n      tag_183\n      jump\t// in\n    tag_190:\n        /* \"contracts/preSale.sol\":3990:4030  (amount * (10 ** saleTokenDec)) / (rate) */\n      tag_191\n      swap2\n      swap1\n      tag_185\n      jump\t// in\n    tag_191:\n        /* \"contracts/preSale.sol\":3962:4050  rate != 0... */\n    tag_188:\n        /* \"contracts/preSale.sol\":3953:4050  amtOut = rate != 0... */\n      swap1\n      pop\n        /* \"contracts/preSale.sol\":3686:4061  if (token != address(0)) {... */\n    tag_186:\n        /* \"contracts/preSale.sol\":4077:4083  amtOut */\n      dup1\n        /* \"contracts/preSale.sol\":4070:4083  return amtOut */\n      swap2\n      pop\n      pop\n        /* \"contracts/preSale.sol\":3545:4090  function getTokenAmount(... */\n      swap3\n      swap2\n      pop\n      pop\n      jump\t// out\n        /* \"contracts/preSale.sol\":632:678  mapping(address => uint256) public tokenPrices */\n    tag_55:\n      mstore(0x20, 0x08)\n      dup1\n      0x00\n      mstore\n      keccak256(0x00, 0x40)\n      0x00\n      swap2\n      pop\n      swap1\n      pop\n      sload\n      dup2\n      jump\t// out\n        /* \"contracts/preSale.sol\":3283:3537  function updateTokenRate(... */\n    tag_60:\n        /* \"@openzeppelin/contracts/access/Ownable.sol\":1094:1107  _checkOwner() */\n      tag_193\n        /* \"@openzeppelin/contracts/access/Ownable.sol\":1094:1105  _checkOwner */\n      tag_169\n        /* \"@openzeppelin/contracts/access/Ownable.sol\":1094:1107  _checkOwner() */\n      jump\t// in\n    tag_193:\n        /* \"contracts/preSale.sol\":3399:3406  tokenWL */\n      0x07\n        /* \"contracts/preSale.sol\":3399:3414  tokenWL[_token] */\n      0x00\n        /* \"contracts/preSale.sol\":3407:3413  _token */\n      dup4\n        /* \"contracts/preSale.sol\":3399:3414  tokenWL[_token] */\n      0xffffffffffffffffffffffffffffffffffffffff\n      and\n      0xffffffffffffffffffffffffffffffffffffffff\n      and\n      dup2\n      mstore\n      0x20\n      add\n      swap1\n      dup2\n      mstore\n      0x20\n      add\n      0x00\n      keccak256\n      0x00\n      swap1\n      sload\n      swap1\n      0x0100\n      exp\n      swap1\n      div\n      0xff\n      and\n        /* \"contracts/preSale.sol\":3391:3449  require(tokenWL[_token], \"Presale: Token not whitelisted\") */\n      tag_195\n      jumpi\n      mload(0x40)\n      0x08c379a000000000000000000000000000000000000000000000000000000000\n      dup2\n      mstore\n      0x04\n      add\n      tag_196\n      swap1\n      tag_177\n      jump\t// in\n    tag_196:\n      mload(0x40)\n      dup1\n      swap2\n      sub\n      swap1\n      revert\n    tag_195:\n        /* \"contracts/preSale.sol\":3481:3487  _price */\n      dup1\n        /* \"contracts/preSale.sol\":3459:3470  tokenPrices */\n      0x08\n        /* \"contracts/preSale.sol\":3459:3478  tokenPrices[_token] */\n      0x00\n        /* \"contracts/preSale.sol\":3471:3477  _token */\n      dup5\n        /* \"contracts/preSale.sol\":3459:3478  tokenPrices[_token] */\n      0xffffffffffffffffffffffffffffffffffffffff\n      and\n      0xffffffffffffffffffffffffffffffffffffffff\n      and\n      dup2\n      mstore\n      0x20\n      add\n      swap1\n      dup2\n      mstore\n      0x20\n      add\n      0x00\n      keccak256\n        /* \"contracts/preSale.sol\":3459:3487  tokenPrices[_token] = _price */\n      dup2\n      swap1\n      sstore\n      pop\n        /* \"contracts/preSale.sol\":3502:3530  TokenUpdated(_token, _price) */\n      0xc2d539e6a806d81b0892f23b002d25b825425d13a98bb6f486438b6b7bc0ce3a\n        /* \"contracts/preSale.sol\":3515:3521  _token */\n      dup3\n        /* \"contracts/preSale.sol\":3523:3529  _price */\n      dup3\n        /* \"contracts/preSale.sol\":3502:3530  TokenUpdated(_token, _price) */\n      mload(0x40)\n      tag_197\n      swap3\n      swap2\n      swap1\n      tag_198\n      jump\t// in\n    tag_197:\n      mload(0x40)\n      dup1\n      swap2\n      sub\n      swap1\n      log1\n        /* \"contracts/preSale.sol\":3283:3537  function updateTokenRate(... */\n      pop\n      pop\n      jump\t// out\n        /* \"contracts/preSale.sol\":759:788  uint256 public presaleEndTime */\n    tag_63:\n      sload(0x0a)\n      dup2\n      jump\t// out\n        /* \"contracts/preSale.sol\":369:388  uint256 public rate */\n    tag_67:\n      sload(0x01)\n      dup2\n      jump\t// out\n        /* \"contracts/preSale.sol\":6779:6887  function withdrawCurrency(uint256 amt) external onlyOwner {... */\n    tag_72:\n        /* \"@openzeppelin/contracts/access/Ownable.sol\":1094:1107  _checkOwner() */\n      tag_200\n        /* \"@openzeppelin/contracts/access/Ownable.sol\":1094:1105  _checkOwner */\n      tag_169\n        /* \"@openzeppelin/contracts/access/Ownable.sol\":1094:1107  _checkOwner() */\n      jump\t// in\n    tag_200:\n        /* \"contracts/preSale.sol\":6855:6865  msg.sender */\n      caller\n        /* \"contracts/preSale.sol\":6847:6875  payable(msg.sender).transfer */\n      0xffffffffffffffffffffffffffffffffffffffff\n      and\n        /* \"contracts/preSale.sol\":6847:6880  payable(msg.sender).transfer(amt) */\n      0x08fc\n        /* \"contracts/preSale.sol\":6876:6879  amt */\n      dup3\n        /* \"contracts/preSale.sol\":6847:6880  payable(msg.sender).transfer(amt) */\n      swap1\n      dup2\n      iszero\n      mul\n      swap1\n      mload(0x40)\n      0x00\n      mload(0x40)\n      dup1\n      dup4\n      sub\n      dup2\n      dup6\n      dup9\n      dup9\n      call\n      swap4\n      pop\n      pop\n      pop\n      pop\n      iszero\n      dup1\n      iszero\n      tag_203\n      jumpi\n      returndatasize\n      0x00\n      dup1\n      returndatacopy\n      revert(0x00, returndatasize)\n    tag_203:\n      pop\n        /* \"contracts/preSale.sol\":6779:6887  function withdrawCurrency(uint256 amt) external onlyOwner {... */\n      pop\n      jump\t// out\n        /* \"contracts/preSale.sol\":3191:3277  function updateEthRate(uint256 _rate) external onlyOwner {... */\n    tag_76:\n        /* \"@openzeppelin/contracts/access/Ownable.sol\":1094:1107  _checkOwner() */\n      tag_205\n        /* \"@openzeppelin/contracts/access/Ownable.sol\":1094:1105  _checkOwner */\n      tag_169\n        /* \"@openzeppelin/contracts/access/Ownable.sol\":1094:1107  _checkOwner() */\n      jump\t// in\n    tag_205:\n        /* \"contracts/preSale.sol\":3265:3270  _rate */\n      dup1\n        /* \"contracts/preSale.sol\":3258:3262  rate */\n      0x01\n        /* \"contracts/preSale.sol\":3258:3270  rate = _rate */\n      dup2\n      swap1\n      sstore\n      pop\n        /* \"contracts/preSale.sol\":3191:3277  function updateEthRate(uint256 _rate) external onlyOwner {... */\n      pop\n      jump\t// out\n        /* \"contracts/preSale.sol\":2965:3185  function addWhiteListedToken(... */\n    tag_80:\n        /* \"@openzeppelin/contracts/access/Ownable.sol\":1094:1107  _checkOwner() */\n      tag_208\n        /* \"@openzeppelin/contracts/access/Ownable.sol\":1094:1105  _checkOwner */\n      tag_169\n        /* \"@openzeppelin/contracts/access/Ownable.sol\":1094:1107  _checkOwner() */\n      jump\t// in\n    tag_208:\n        /* \"contracts/preSale.sol\":3095:3099  true */\n      0x01\n        /* \"contracts/preSale.sol\":3077:3084  tokenWL */\n      0x07\n        /* \"contracts/preSale.sol\":3077:3092  tokenWL[_token] */\n      0x00\n        /* \"contracts/preSale.sol\":3085:3091  _token */\n      dup5\n        /* \"contracts/preSale.sol\":3077:3092  tokenWL[_token] */\n      0xffffffffffffffffffffffffffffffffffffffff\n      and\n      0xffffffffffffffffffffffffffffffffffffffff\n      and\n      dup2\n      mstore\n      0x20\n      add\n      swap1\n      dup2\n      mstore\n      0x20\n      add\n      0x00\n      keccak256\n      0x00\n        /* \"contracts/preSale.sol\":3077:3099  tokenWL[_token] = true */\n      0x0100\n      exp\n      dup2\n      sload\n      dup2\n      0xff\n      mul\n      not\n      and\n      swap1\n      dup4\n      iszero\n      iszero\n      mul\n      or\n      swap1\n      sstore\n      pop\n        /* \"contracts/preSale.sol\":3131:3137  _price */\n      dup1\n        /* \"contracts/preSale.sol\":3109:3120  tokenPrices */\n      0x08\n        /* \"contracts/preSale.sol\":3109:3128  tokenPrices[_token] */\n      0x00\n        /* \"contracts/preSale.sol\":3121:3127  _token */\n      dup5\n        /* \"contracts/preSale.sol\":3109:3128  tokenPrices[_token] */\n      0xffffffffffffffffffffffffffffffffffffffff\n      and\n      0xffffffffffffffffffffffffffffffffffffffff\n      and\n      dup2\n      mstore\n      0x20\n      add\n      swap1\n      dup2\n      mstore\n      0x20\n      add\n      0x00\n      keccak256\n        /* \"contracts/preSale.sol\":3109:3137  tokenPrices[_token] = _price */\n      dup2\n      swap1\n      sstore\n      pop\n        /* \"contracts/preSale.sol\":3152:3178  TokenAdded(_token, _price) */\n      0xf4c563a3ea86ff1f4275e8c207df0375a51963f2b831b7bf4da8be938d92876c\n        /* \"contracts/preSale.sol\":3163:3169  _token */\n      dup3\n        /* \"contracts/preSale.sol\":3171:3177  _price */\n      dup3\n        /* \"contracts/preSale.sol\":3152:3178  TokenAdded(_token, _price) */\n      mload(0x40)\n      tag_210\n      swap3\n      swap2\n      swap1\n      tag_198\n      jump\t// in\n    tag_210:\n      mload(0x40)\n      dup1\n      swap2\n      sub\n      swap1\n      log1\n        /* \"contracts/preSale.sol\":2965:3185  function addWhiteListedToken(... */\n      pop\n      pop\n      jump\t// out\n        /* \"contracts/preSale.sol\":5882:6122  function fetchDataForFrontend(address _usdtAddress) view external returns(uint,uint,uint,uint){... */\n    tag_84:\n        /* \"contracts/preSale.sol\":5956:5960  uint */\n      0x00\n        /* \"contracts/preSale.sol\":5961:5965  uint */\n      dup1\n        /* \"contracts/preSale.sol\":5966:5970  uint */\n      0x00\n        /* \"contracts/preSale.sol\":5971:5975  uint */\n      dup1\n        /* \"contracts/preSale.sol\":6052:6056  rate */\n      sload(0x01)\n        /* \"contracts/preSale.sol\":6057:6068  tokenPrices */\n      0x08\n        /* \"contracts/preSale.sol\":6057:6082  tokenPrices[_usdtAddress] */\n      0x00\n        /* \"contracts/preSale.sol\":6069:6081  _usdtAddress */\n      dup8\n        /* \"contracts/preSale.sol\":6057:6082  tokenPrices[_usdtAddress] */\n      0xffffffffffffffffffffffffffffffffffffffff\n      and\n      0xffffffffffffffffffffffffffffffffffffffff\n      and\n      dup2\n      mstore\n      0x20\n      add\n      swap1\n      dup2\n      mstore\n      0x20\n      add\n      0x00\n      keccak256\n      sload\n        /* \"contracts/preSale.sol\":6083:6098  totalTokensSold */\n      sload(0x0b)\n        /* \"contracts/preSale.sol\":6099:6113  presaleEndTime */\n      sload(0x0a)\n        /* \"contracts/preSale.sol\":6044:6114  return (rate,tokenPrices[_usdtAddress],totalTokensSold,presaleEndTime) */\n      swap4\n      pop\n      swap4\n      pop\n      swap4\n      pop\n      swap4\n      pop\n        /* \"contracts/preSale.sol\":5882:6122  function fetchDataForFrontend(address _usdtAddress) view external returns(uint,uint,uint,uint){... */\n      swap2\n      swap4\n      pop\n      swap2\n      swap4\n      jump\t// out\n        /* \"contracts/preSale.sol\":2604:2809  function startAndSetPresaleEndTime(... */\n    tag_90:\n        /* \"@openzeppelin/contracts/access/Ownable.sol\":1094:1107  _checkOwner() */\n      tag_213\n        /* \"@openzeppelin/contracts/access/Ownable.sol\":1094:1105  _checkOwner */\n      tag_169\n        /* \"@openzeppelin/contracts/access/Ownable.sol\":1094:1107  _checkOwner() */\n      jump\t// in\n    tag_213:\n        /* \"contracts/preSale.sol\":2726:2741  block.timestamp */\n      timestamp\n        /* \"contracts/preSale.sol\":2707:2723  presaleStartTime */\n      0x09\n        /* \"contracts/preSale.sol\":2707:2741  presaleStartTime = block.timestamp */\n      dup2\n      swap1\n      sstore\n      pop\n        /* \"contracts/preSale.sol\":2787:2802  _presaleEndTime */\n      dup1\n        /* \"contracts/preSale.sol\":2768:2784  presaleStartTime */\n      sload(0x09)\n        /* \"contracts/preSale.sol\":2768:2802  presaleStartTime + _presaleEndTime */\n      tag_215\n      swap2\n      swap1\n      tag_172\n      jump\t// in\n    tag_215:\n        /* \"contracts/preSale.sol\":2751:2765  presaleEndTime */\n      0x0a\n        /* \"contracts/preSale.sol\":2751:2802  presaleEndTime = presaleStartTime + _presaleEndTime */\n      dup2\n      swap1\n      sstore\n      pop\n        /* \"contracts/preSale.sol\":2604:2809  function startAndSetPresaleEndTime(... */\n      pop\n      jump\t// out\n        /* \"contracts/preSale.sol\":795:825  uint256 public totalTokensSold */\n    tag_93:\n      sload(0x0b)\n      dup2\n      jump\t// out\n        /* \"contracts/preSale.sol\":4096:5178  function buyToken(... */\n    tag_97:\n        /* \"contracts/preSale.sol\":1414:1430  presaleStartTime */\n      sload(0x09)\n        /* \"contracts/preSale.sol\":1395:1410  block.timestamp */\n      timestamp\n        /* \"contracts/preSale.sol\":1395:1430  block.timestamp >= presaleStartTime */\n      lt\n      iszero\n        /* \"contracts/preSale.sol\":1374:1492  require(... */\n      tag_217\n      jumpi\n      mload(0x40)\n      0x08c379a000000000000000000000000000000000000000000000000000000000\n      dup2\n      mstore\n      0x04\n      add\n      tag_218\n      swap1\n      tag_219\n      jump\t// in\n    tag_218:\n      mload(0x40)\n      dup1\n      swap2\n      sub\n      swap1\n      revert\n    tag_217:\n        /* \"contracts/preSale.sol\":1594:1608  presaleEndTime */\n      sload(0x0a)\n        /* \"contracts/preSale.sol\":1576:1591  block.timestamp */\n      timestamp\n        /* \"contracts/preSale.sol\":1576:1608  block.timestamp < presaleEndTime */\n      lt\n        /* \"contracts/preSale.sol\":1555:1660  require(... */\n      tag_221\n      jumpi\n      mload(0x40)\n      0x08c379a000000000000000000000000000000000000000000000000000000000\n      dup2\n      mstore\n      0x04\n      add\n      tag_222\n      swap1\n      tag_223\n      jump\t// in\n    tag_222:\n      mload(0x40)\n      dup1\n      swap2\n      sub\n      swap1\n      revert\n    tag_221:\n        /* \"contracts/preSale.sol\":4232:4252  uint256 saleTokenAmt */\n      0x00\n        /* \"contracts/preSale.sol\":4273:4274  0 */\n      dup1\n        /* \"contracts/preSale.sol\":4255:4275  _token != address(0) */\n      0xffffffffffffffffffffffffffffffffffffffff\n      and\n        /* \"contracts/preSale.sol\":4255:4261  _token */\n      dup4\n        /* \"contracts/preSale.sol\":4255:4275  _token != address(0) */\n      0xffffffffffffffffffffffffffffffffffffffff\n      and\n      sub\n        /* \"contracts/preSale.sol\":4255:4373  _token != address(0)... */\n      tag_225\n      jumpi\n        /* \"contracts/preSale.sol\":4336:4373  getTokenAmount(address(0), msg.value) */\n      tag_226\n        /* \"contracts/preSale.sol\":4359:4360  0 */\n      0x00\n        /* \"contracts/preSale.sol\":4363:4372  msg.value */\n      callvalue\n        /* \"contracts/preSale.sol\":4336:4350  getTokenAmount */\n      tag_48\n        /* \"contracts/preSale.sol\":4336:4373  getTokenAmount(address(0), msg.value) */\n      jump\t// in\n    tag_226:\n        /* \"contracts/preSale.sol\":4255:4373  _token != address(0)... */\n      jump(tag_227)\n    tag_225:\n        /* \"contracts/preSale.sol\":4290:4321  getTokenAmount(_token, _amount) */\n      tag_228\n        /* \"contracts/preSale.sol\":4305:4311  _token */\n      dup4\n        /* \"contracts/preSale.sol\":4313:4320  _amount */\n      dup4\n        /* \"contracts/preSale.sol\":4290:4304  getTokenAmount */\n      tag_48\n        /* \"contracts/preSale.sol\":4290:4321  getTokenAmount(_token, _amount) */\n      jump\t// in\n    tag_228:\n        /* \"contracts/preSale.sol\":4255:4373  _token != address(0)... */\n    tag_227:\n        /* \"contracts/preSale.sol\":4232:4373  uint256 saleTokenAmt = _token != address(0)... */\n      swap1\n      pop\n        /* \"contracts/preSale.sol\":4441:4459  totalTokensforSale */\n      sload(0x04)\n        /* \"contracts/preSale.sol\":4424:4436  saleTokenAmt */\n      dup2\n        /* \"contracts/preSale.sol\":4406:4421  totalTokensSold */\n      sload(0x0b)\n        /* \"contracts/preSale.sol\":4406:4436  totalTokensSold + saleTokenAmt */\n      tag_229\n      swap2\n      swap1\n      tag_172\n      jump\t// in\n    tag_229:\n        /* \"contracts/preSale.sol\":4405:4459  (totalTokensSold + saleTokenAmt) <= totalTokensforSale */\n      gt\n      iszero\n        /* \"contracts/preSale.sol\":4384:4519  require(... */\n      tag_230\n      jumpi\n      mload(0x40)\n      0x08c379a000000000000000000000000000000000000000000000000000000000\n      dup2\n      mstore\n      0x04\n      add\n      tag_231\n      swap1\n      tag_232\n      jump\t// in\n    tag_231:\n      mload(0x40)\n      dup1\n      swap2\n      sub\n      swap1\n      revert\n    tag_230:\n        /* \"contracts/preSale.sol\":4552:4553  0 */\n      0x00\n        /* \"contracts/preSale.sol\":4534:4554  _token == address(0) */\n      0xffffffffffffffffffffffffffffffffffffffff\n      and\n        /* \"contracts/preSale.sol\":4534:4540  _token */\n      dup4\n        /* \"contracts/preSale.sol\":4534:4554  _token == address(0) */\n      0xffffffffffffffffffffffffffffffffffffffff\n      and\n      sub\n        /* \"contracts/preSale.sol\":4530:5061  if (_token == address(0)) {... */\n      tag_233\n      jumpi\n        /* \"contracts/preSale.sol\":4594:4605  minBuyLimit */\n      sload(0x06)\n        /* \"contracts/preSale.sol\":4578:4590  saleTokenAmt */\n      dup2\n        /* \"contracts/preSale.sol\":4578:4605  saleTokenAmt >= minBuyLimit */\n      lt\n      iszero\n        /* \"contracts/preSale.sol\":4570:4651  require(saleTokenAmt >= minBuyLimit, \"Presale: Token amount below min buy limit\") */\n      tag_234\n      jumpi\n      mload(0x40)\n      0x08c379a000000000000000000000000000000000000000000000000000000000\n      dup2\n      mstore\n      0x04\n      add\n      tag_235\n      swap1\n      tag_236\n      jump\t// in\n    tag_235:\n      mload(0x40)\n      dup1\n      swap2\n      sub\n      swap1\n      revert\n    tag_234:\n        /* \"contracts/preSale.sol\":4665:4721  IERC20(saleToken).safeTransfer(msg.sender, saleTokenAmt) */\n      tag_237\n        /* \"contracts/preSale.sol\":4696:4706  msg.sender */\n      caller\n        /* \"contracts/preSale.sol\":4708:4720  saleTokenAmt */\n      dup3\n        /* \"contracts/preSale.sol\":4672:4681  saleToken */\n      0x02\n      0x00\n      swap1\n      sload\n      swap1\n      0x0100\n      exp\n      swap1\n      div\n      0xffffffffffffffffffffffffffffffffffffffff\n      and\n        /* \"contracts/preSale.sol\":4665:4695  IERC20(saleToken).safeTransfer */\n      0xffffffffffffffffffffffffffffffffffffffff\n      and\n      tag_238\n      swap1\n        /* \"contracts/preSale.sol\":4665:4721  IERC20(saleToken).safeTransfer(msg.sender, saleTokenAmt) */\n      swap3\n      swap2\n      swap1\n      0xffffffff\n      and\n      jump\t// in\n    tag_237:\n        /* \"contracts/preSale.sol\":4530:5061  if (_token == address(0)) {... */\n      jump(tag_239)\n    tag_233:\n        /* \"contracts/preSale.sol\":4776:4787  minBuyLimit */\n      sload(0x06)\n        /* \"contracts/preSale.sol\":4760:4772  saleTokenAmt */\n      dup2\n        /* \"contracts/preSale.sol\":4760:4787  saleTokenAmt >= minBuyLimit */\n      lt\n      iszero\n        /* \"contracts/preSale.sol\":4752:4827  require(saleTokenAmt >= minBuyLimit, \"Presale: Amount below min buy limit\") */\n      tag_240\n      jumpi\n      mload(0x40)\n      0x08c379a000000000000000000000000000000000000000000000000000000000\n      dup2\n      mstore\n      0x04\n      add\n      tag_241\n      swap1\n      tag_242\n      jump\t// in\n    tag_241:\n      mload(0x40)\n      dup1\n      swap2\n      sub\n      swap1\n      revert\n    tag_240:\n        /* \"contracts/preSale.sol\":4849:4856  tokenWL */\n      0x07\n        /* \"contracts/preSale.sol\":4849:4864  tokenWL[_token] */\n      0x00\n        /* \"contracts/preSale.sol\":4857:4863  _token */\n      dup5\n        /* \"contracts/preSale.sol\":4849:4864  tokenWL[_token] */\n      0xffffffffffffffffffffffffffffffffffffffff\n      and\n      0xffffffffffffffffffffffffffffffffffffffff\n      and\n      dup2\n      mstore\n      0x20\n      add\n      swap1\n      dup2\n      mstore\n      0x20\n      add\n      0x00\n      keccak256\n      0x00\n      swap1\n      sload\n      swap1\n      0x0100\n      exp\n      swap1\n      div\n      0xff\n      and\n        /* \"contracts/preSale.sol\":4841:4899  require(tokenWL[_token], \"Presale: Token not whitelisted\") */\n      tag_243\n      jumpi\n      mload(0x40)\n      0x08c379a000000000000000000000000000000000000000000000000000000000\n      dup2\n      mstore\n      0x04\n      add\n      tag_244\n      swap1\n      tag_177\n      jump\t// in\n    tag_244:\n      mload(0x40)\n      dup1\n      swap2\n      sub\n      swap1\n      revert\n    tag_243:\n        /* \"contracts/preSale.sol\":4913:4980  IERC20(_token).safeTransferFrom(msg.sender, address(this), _amount) */\n      tag_245\n        /* \"contracts/preSale.sol\":4945:4955  msg.sender */\n      caller\n        /* \"contracts/preSale.sol\":4965:4969  this */\n      address\n        /* \"contracts/preSale.sol\":4972:4979  _amount */\n      dup5\n        /* \"contracts/preSale.sol\":4920:4926  _token */\n      dup7\n        /* \"contracts/preSale.sol\":4913:4944  IERC20(_token).safeTransferFrom */\n      0xffffffffffffffffffffffffffffffffffffffff\n      and\n      tag_246\n      swap1\n        /* \"contracts/preSale.sol\":4913:4980  IERC20(_token).safeTransferFrom(msg.sender, address(this), _amount) */\n      swap4\n      swap3\n      swap2\n      swap1\n      0xffffffff\n      and\n      jump\t// in\n    tag_245:\n        /* \"contracts/preSale.sol\":4994:5050  IERC20(saleToken).safeTransfer(msg.sender, saleTokenAmt) */\n      tag_247\n        /* \"contracts/preSale.sol\":5025:5035  msg.sender */\n      caller\n        /* \"contracts/preSale.sol\":5037:5049  saleTokenAmt */\n      dup3\n        /* \"contracts/preSale.sol\":5001:5010  saleToken */\n      0x02\n      0x00\n      swap1\n      sload\n      swap1\n      0x0100\n      exp\n      swap1\n      div\n      0xffffffffffffffffffffffffffffffffffffffff\n      and\n        /* \"contracts/preSale.sol\":4994:5024  IERC20(saleToken).safeTransfer */\n      0xffffffffffffffffffffffffffffffffffffffff\n      and\n      tag_238\n      swap1\n        /* \"contracts/preSale.sol\":4994:5050  IERC20(saleToken).safeTransfer(msg.sender, saleTokenAmt) */\n      swap3\n      swap2\n      swap1\n      0xffffffff\n      and\n      jump\t// in\n    tag_247:\n        /* \"contracts/preSale.sol\":4530:5061  if (_token == address(0)) {... */\n    tag_239:\n        /* \"contracts/preSale.sol\":5089:5101  saleTokenAmt */\n      dup1\n        /* \"contracts/preSale.sol\":5070:5085  totalTokensSold */\n      0x0b\n      0x00\n        /* \"contracts/preSale.sol\":5070:5101  totalTokensSold += saleTokenAmt */\n      dup3\n      dup3\n      sload\n      tag_248\n      swap2\n      swap1\n      tag_172\n      jump\t// in\n    tag_248:\n      swap3\n      pop\n      pop\n      dup2\n      swap1\n      sstore\n      pop\n        /* \"contracts/preSale.sol\":5141:5147  _token */\n      dup3\n        /* \"contracts/preSale.sol\":5116:5171  TokensBought(msg.sender, _token, _amount, saleTokenAmt) */\n      0xffffffffffffffffffffffffffffffffffffffff\n      and\n        /* \"contracts/preSale.sol\":5129:5139  msg.sender */\n      caller\n        /* \"contracts/preSale.sol\":5116:5171  TokensBought(msg.sender, _token, _amount, saleTokenAmt) */\n      0xffffffffffffffffffffffffffffffffffffffff\n      and\n      0xc244d500136edffae7025aaf7fbd7a07193ac544a1d0cc3132cf2a32452d340c\n        /* \"contracts/preSale.sol\":5149:5156  _amount */\n      dup5\n        /* \"contracts/preSale.sol\":5158:5170  saleTokenAmt */\n      dup5\n        /* \"contracts/preSale.sol\":5116:5171  TokensBought(msg.sender, _token, _amount, saleTokenAmt) */\n      mload(0x40)\n      tag_249\n      swap3\n      swap2\n      swap1\n      tag_250\n      jump\t// in\n    tag_249:\n      mload(0x40)\n      dup1\n      swap2\n      sub\n      swap1\n      log3\n        /* \"contracts/preSale.sol\":4221:5178  {... */\n      pop\n        /* \"contracts/preSale.sol\":4096:5178  function buyToken(... */\n      pop\n      pop\n      jump\t// out\n        /* \"contracts/preSale.sol\":523:549  uint256 public maxBuyLimit */\n    tag_100:\n      sload(0x05)\n      dup2\n      jump\t// out\n        /* \"contracts/preSale.sol\":484:517  uint256 public totalTokensforSale */\n    tag_104:\n      sload(0x04)\n      dup2\n      jump\t// out\n        /* \"@openzeppelin/contracts/access/Ownable.sol\":1824:1925  function renounceOwnership() public virtual onlyOwner {... */\n    tag_108:\n        /* \"@openzeppelin/contracts/access/Ownable.sol\":1094:1107  _checkOwner() */\n      tag_252\n        /* \"@openzeppelin/contracts/access/Ownable.sol\":1094:1105  _checkOwner */\n      tag_169\n        /* \"@openzeppelin/contracts/access/Ownable.sol\":1094:1107  _checkOwner() */\n      jump\t// in\n    tag_252:\n        /* \"@openzeppelin/contracts/access/Ownable.sol\":1888:1918  _transferOwnership(address(0)) */\n      tag_254\n        /* \"@openzeppelin/contracts/access/Ownable.sol\":1915:1916  0 */\n      0x00\n        /* \"@openzeppelin/contracts/access/Ownable.sol\":1888:1906  _transferOwnership */\n      tag_255\n        /* \"@openzeppelin/contracts/access/Ownable.sol\":1888:1918  _transferOwnership(address(0)) */\n      jump\t// in\n    tag_254:\n        /* \"@openzeppelin/contracts/access/Ownable.sol\":1824:1925  function renounceOwnership() public virtual onlyOwner {... */\n      jump\t// out\n        /* \"contracts/preSale.sol\":5298:5406  function setMaxBuyLimit(uint256 _maxBuyLimit) external onlyOwner {... */\n    tag_112:\n        /* \"@openzeppelin/contracts/access/Ownable.sol\":1094:1107  _checkOwner() */\n      tag_257\n        /* \"@openzeppelin/contracts/access/Ownable.sol\":1094:1105  _checkOwner */\n      tag_169\n        /* \"@openzeppelin/contracts/access/Ownable.sol\":1094:1107  _checkOwner() */\n      jump\t// in\n    tag_257:\n        /* \"contracts/preSale.sol\":5387:5399  _maxBuyLimit */\n      dup1\n        /* \"contracts/preSale.sol\":5373:5384  maxBuyLimit */\n      0x05\n        /* \"contracts/preSale.sol\":5373:5399  maxBuyLimit = _maxBuyLimit */\n      dup2\n      swap1\n      sstore\n      pop\n        /* \"contracts/preSale.sol\":5298:5406  function setMaxBuyLimit(uint256 _maxBuyLimit) external onlyOwner {... */\n      pop\n      jump\t// out\n        /* \"contracts/preSale.sol\":1858:2598  function setSaleTokenParams(... */\n    tag_116:\n        /* \"@openzeppelin/contracts/access/Ownable.sol\":1094:1107  _checkOwner() */\n      tag_260\n        /* \"@openzeppelin/contracts/access/Ownable.sol\":1094:1105  _checkOwner */\n      tag_169\n        /* \"@openzeppelin/contracts/access/Ownable.sol\":1094:1107  _checkOwner() */\n      jump\t// in\n    tag_260:\n        /* \"contracts/preSale.sol\":2029:2030  0 */\n      0x00\n        /* \"contracts/preSale.sol\":2007:2031  _saleToken != address(0) */\n      0xffffffffffffffffffffffffffffffffffffffff\n      and\n        /* \"contracts/preSale.sol\":2007:2017  _saleToken */\n      dup3\n        /* \"contracts/preSale.sol\":2007:2031  _saleToken != address(0) */\n      0xffffffffffffffffffffffffffffffffffffffff\n      and\n      sub\n        /* \"contracts/preSale.sol\":1986:2099  require(... */\n      tag_262\n      jumpi\n      mload(0x40)\n      0x08c379a000000000000000000000000000000000000000000000000000000000\n      dup2\n      mstore\n      0x04\n      add\n      tag_263\n      swap1\n      tag_264\n      jump\t// in\n    tag_263:\n      mload(0x40)\n      dup1\n      swap2\n      sub\n      swap1\n      revert\n    tag_262:\n        /* \"contracts/preSale.sol\":2152:2153  0 */\n      0x00\n        /* \"contracts/preSale.sol\":2130:2149  _totalTokensforSale */\n      dup2\n        /* \"contracts/preSale.sol\":2130:2153  _totalTokensforSale > 0 */\n      gt\n        /* \"contracts/preSale.sol\":2109:2224  require(... */\n      tag_265\n      jumpi\n      mload(0x40)\n      0x08c379a000000000000000000000000000000000000000000000000000000000\n      dup2\n      mstore\n      0x04\n      add\n      tag_266\n      swap1\n      tag_267\n      jump\t// in\n    tag_266:\n      mload(0x40)\n      dup1\n      swap2\n      sub\n      swap1\n      revert\n    tag_265:\n        /* \"contracts/preSale.sol\":2246:2256  _saleToken */\n      dup2\n        /* \"contracts/preSale.sol\":2234:2243  saleToken */\n      0x02\n      0x00\n        /* \"contracts/preSale.sol\":2234:2256  saleToken = _saleToken */\n      0x0100\n      exp\n      dup2\n      sload\n      dup2\n      0xffffffffffffffffffffffffffffffffffffffff\n      mul\n      not\n      and\n      swap1\n      dup4\n      0xffffffffffffffffffffffffffffffffffffffff\n      and\n      mul\n      or\n      swap1\n      sstore\n      pop\n        /* \"contracts/preSale.sol\":2296:2305  saleToken */\n      0x02\n      0x00\n      swap1\n      sload\n      swap1\n      0x0100\n      exp\n      swap1\n      div\n      0xffffffffffffffffffffffffffffffffffffffff\n      and\n        /* \"contracts/preSale.sol\":2281:2315  IERC20Metadata(saleToken).decimals */\n      0xffffffffffffffffffffffffffffffffffffffff\n      and\n      0x313ce567\n        /* \"contracts/preSale.sol\":2281:2317  IERC20Metadata(saleToken).decimals() */\n      mload(0x40)\n      dup2\n      0xffffffff\n      and\n      0xe0\n      shl\n      dup2\n      mstore\n      0x04\n      add\n      0x20\n      mload(0x40)\n      dup1\n      dup4\n      sub\n      dup2\n      dup7\n      gas\n      staticcall\n      iszero\n      dup1\n      iszero\n      tag_269\n      jumpi\n      returndatasize\n      0x00\n      dup1\n      returndatacopy\n      revert(0x00, returndatasize)\n    tag_269:\n      pop\n      pop\n      pop\n      pop\n      mload(0x40)\n      returndatasize\n      not(0x1f)\n      0x1f\n      dup3\n      add\n      and\n      dup3\n      add\n      dup1\n      0x40\n      mstore\n      pop\n      dup2\n      add\n      swap1\n      tag_270\n      swap2\n      swap1\n      tag_271\n      jump\t// in\n    tag_270:\n        /* \"contracts/preSale.sol\":2266:2317  saleTokenDec = IERC20Metadata(saleToken).decimals() */\n      0xff\n      and\n        /* \"contracts/preSale.sol\":2266:2278  saleTokenDec */\n      0x03\n        /* \"contracts/preSale.sol\":2266:2317  saleTokenDec = IERC20Metadata(saleToken).decimals() */\n      dup2\n      swap1\n      sstore\n      pop\n        /* \"contracts/preSale.sol\":2328:2456  IERC20(saleToken).safeTransferFrom(... */\n      tag_272\n        /* \"contracts/preSale.sol\":2376:2386  msg.sender */\n      caller\n        /* \"contracts/preSale.sol\":2408:2412  this */\n      address\n        /* \"contracts/preSale.sol\":2427:2446  _totalTokensforSale */\n      dup4\n        /* \"contracts/preSale.sol\":2335:2344  saleToken */\n      0x02\n      0x00\n      swap1\n      sload\n      swap1\n      0x0100\n      exp\n      swap1\n      div\n      0xffffffffffffffffffffffffffffffffffffffff\n      and\n        /* \"contracts/preSale.sol\":2328:2362  IERC20(saleToken).safeTransferFrom */\n      0xffffffffffffffffffffffffffffffffffffffff\n      and\n      tag_246\n      swap1\n        /* \"contracts/preSale.sol\":2328:2456  IERC20(saleToken).safeTransferFrom(... */\n      swap4\n      swap3\n      swap2\n      swap1\n      0xffffffff\n      and\n      jump\t// in\n    tag_272:\n        /* \"contracts/preSale.sol\":2494:2503  saleToken */\n      0x02\n      0x00\n      swap1\n      sload\n      swap1\n      0x0100\n      exp\n      swap1\n      div\n      0xffffffffffffffffffffffffffffffffffffffff\n      and\n        /* \"contracts/preSale.sol\":2487:2514  IERC20(saleToken).balanceOf */\n      0xffffffffffffffffffffffffffffffffffffffff\n      and\n      0x70a08231\n        /* \"contracts/preSale.sol\":2523:2527  this */\n      address\n        /* \"contracts/preSale.sol\":2487:2529  IERC20(saleToken).balanceOf(address(this)) */\n      mload(0x40)\n      dup3\n      0xffffffff\n      and\n      0xe0\n      shl\n      dup2\n      mstore\n      0x04\n      add\n      tag_273\n      swap2\n      swap1\n      tag_127\n      jump\t// in\n    tag_273:\n      0x20\n      mload(0x40)\n      dup1\n      dup4\n      sub\n      dup2\n      dup7\n      gas\n      staticcall\n      iszero\n      dup1\n      iszero\n      tag_275\n      jumpi\n      returndatasize\n      0x00\n      dup1\n      returndatacopy\n      revert(0x00, returndatasize)\n    tag_275:\n      pop\n      pop\n      pop\n      pop\n      mload(0x40)\n      returndatasize\n      not(0x1f)\n      0x1f\n      dup3\n      add\n      and\n      dup3\n      add\n      dup1\n      0x40\n      mstore\n      pop\n      dup2\n      add\n      swap1\n      tag_276\n      swap2\n      swap1\n      tag_277\n      jump\t// in\n    tag_276:\n        /* \"contracts/preSale.sol\":2466:2484  totalTokensforSale */\n      0x04\n        /* \"contracts/preSale.sol\":2466:2529  totalTokensforSale = IERC20(saleToken).balanceOf(address(this)) */\n      dup2\n      swap1\n      sstore\n      pop\n        /* \"contracts/preSale.sol\":2544:2591  SaleTokenAdded(_saleToken, _totalTokensforSale) */\n      0x03211f0a57d24f0b52e2e0573af5be089c5faadeb55f9b90591717b0a22f7e2a\n        /* \"contracts/preSale.sol\":2559:2569  _saleToken */\n      dup3\n        /* \"contracts/preSale.sol\":2571:2590  _totalTokensforSale */\n      dup3\n        /* \"contracts/preSale.sol\":2544:2591  SaleTokenAdded(_saleToken, _totalTokensforSale) */\n      mload(0x40)\n      tag_278\n      swap3\n      swap2\n      swap1\n      tag_198\n      jump\t// in\n    tag_278:\n      mload(0x40)\n      dup1\n      swap2\n      sub\n      swap1\n      log1\n        /* \"contracts/preSale.sol\":1858:2598  function setSaleTokenParams(... */\n      pop\n      pop\n      jump\t// out\n        /* \"contracts/preSale.sol\":587:626  mapping(address => bool) public tokenWL */\n    tag_120:\n      mstore(0x20, 0x07)\n      dup1\n      0x00\n      mstore\n      keccak256(0x00, 0x40)\n      0x00\n      swap2\n      pop\n      sload\n      swap1\n      0x0100\n      exp\n      swap1\n      div\n      0xff\n      and\n      dup2\n      jump\t// out\n        /* \"@openzeppelin/contracts/access/Ownable.sol\":1201:1286  function owner() public view virtual returns (address) {... */\n    tag_125:\n        /* \"@openzeppelin/contracts/access/Ownable.sol\":1247:1254  address */\n      0x00\n        /* \"@openzeppelin/contracts/access/Ownable.sol\":1273:1279  _owner */\n      dup1\n      0x00\n      swap1\n      sload\n      swap1\n      0x0100\n      exp\n      swap1\n      div\n      0xffffffffffffffffffffffffffffffffffffffff\n      and\n        /* \"@openzeppelin/contracts/access/Ownable.sol\":1266:1279  return _owner */\n      swap1\n      pop\n        /* \"@openzeppelin/contracts/access/Ownable.sol\":1201:1286  function owner() public view virtual returns (address) {... */\n      swap1\n      jump\t// out\n        /* \"contracts/preSale.sol\":5184:5292  function setMinBuyLimit(uint256 _minBuyLimit) external onlyOwner {... */\n    tag_131:\n        /* \"@openzeppelin/contracts/access/Ownable.sol\":1094:1107  _checkOwner() */\n      tag_281\n        /* \"@openzeppelin/contracts/access/Ownable.sol\":1094:1105  _checkOwner */\n      tag_169\n        /* \"@openzeppelin/contracts/access/Ownable.sol\":1094:1107  _checkOwner() */\n      jump\t// in\n    tag_281:\n        /* \"contracts/preSale.sol\":5273:5285  _minBuyLimit */\n      dup1\n        /* \"contracts/preSale.sol\":5259:5270  minBuyLimit */\n      0x06\n        /* \"contracts/preSale.sol\":5259:5285  minBuyLimit = _minBuyLimit */\n      dup2\n      swap1\n      sstore\n      pop\n        /* \"contracts/preSale.sol\":5184:5292  function setMinBuyLimit(uint256 _minBuyLimit) external onlyOwner {... */\n      pop\n      jump\t// out\n        /* \"contracts/preSale.sol\":722:753  uint256 public presaleStartTime */\n    tag_134:\n      sload(0x09)\n      dup2\n      jump\t// out\n        /* \"contracts/preSale.sol\":454:478  uint public saleTokenDec */\n    tag_138:\n      sload(0x03)\n      dup2\n      jump\t// out\n        /* \"contracts/preSale.sol\":555:581  uint256 public minBuyLimit */\n    tag_142:\n      sload(0x06)\n      dup2\n      jump\t// out\n        /* \"contracts/preSale.sol\":5463:5609  function withdrawSaleToken(uint256 _amount) external onlyOwner isPresaleEnded {... */\n    tag_147:\n        /* \"@openzeppelin/contracts/access/Ownable.sol\":1094:1107  _checkOwner() */\n      tag_284\n        /* \"@openzeppelin/contracts/access/Ownable.sol\":1094:1105  _checkOwner */\n      tag_169\n        /* \"@openzeppelin/contracts/access/Ownable.sol\":1094:1107  _checkOwner() */\n      jump\t// in\n    tag_284:\n        /* \"contracts/preSale.sol\":1760:1774  presaleEndTime */\n      sload(0x0a)\n        /* \"contracts/preSale.sol\":1741:1756  block.timestamp */\n      timestamp\n        /* \"contracts/preSale.sol\":1741:1774  block.timestamp >= presaleEndTime */\n      lt\n      iszero\n        /* \"contracts/preSale.sol\":1720:1834  require(... */\n      tag_286\n      jumpi\n      mload(0x40)\n      0x08c379a000000000000000000000000000000000000000000000000000000000\n      dup2\n      mstore\n      0x04\n      add\n      tag_287\n      swap1\n      tag_288\n      jump\t// in\n    tag_287:\n      mload(0x40)\n      dup1\n      swap2\n      sub\n      swap1\n      revert\n    tag_286:\n        /* \"contracts/preSale.sol\":5551:5602  IERC20(saleToken).safeTransfer(msg.sender, _amount) */\n      tag_290\n        /* \"contracts/preSale.sol\":5582:5592  msg.sender */\n      caller\n        /* \"contracts/preSale.sol\":5594:5601  _amount */\n      dup3\n        /* \"contracts/preSale.sol\":5558:5567  saleToken */\n      0x02\n      0x00\n      swap1\n      sload\n      swap1\n      0x0100\n      exp\n      swap1\n      div\n      0xffffffffffffffffffffffffffffffffffffffff\n      and\n        /* \"contracts/preSale.sol\":5551:5581  IERC20(saleToken).safeTransfer */\n      0xffffffffffffffffffffffffffffffffffffffff\n      and\n      tag_238\n      swap1\n        /* \"contracts/preSale.sol\":5551:5602  IERC20(saleToken).safeTransfer(msg.sender, _amount) */\n      swap3\n      swap2\n      swap1\n      0xffffffff\n      and\n      jump\t// in\n    tag_290:\n        /* \"contracts/preSale.sol\":5463:5609  function withdrawSaleToken(uint256 _amount) external onlyOwner isPresaleEnded {... */\n      pop\n      jump\t// out\n        /* \"contracts/preSale.sol\":424:448  address public saleToken */\n    tag_150:\n      0x02\n      0x00\n      swap1\n      sload\n      swap1\n      0x0100\n      exp\n      swap1\n      div\n      0xffffffffffffffffffffffffffffffffffffffff\n      and\n      dup2\n      jump\t// out\n        /* \"@openzeppelin/contracts/access/Ownable.sol\":2074:2272  function transferOwnership(address newOwner) public virtual onlyOwner {... */\n    tag_155:\n        /* \"@openzeppelin/contracts/access/Ownable.sol\":1094:1107  _checkOwner() */\n      tag_292\n        /* \"@openzeppelin/contracts/access/Ownable.sol\":1094:1105  _checkOwner */\n      tag_169\n        /* \"@openzeppelin/contracts/access/Ownable.sol\":1094:1107  _checkOwner() */\n      jump\t// in\n    tag_292:\n        /* \"@openzeppelin/contracts/access/Ownable.sol\":2182:2183  0 */\n      0x00\n        /* \"@openzeppelin/contracts/access/Ownable.sol\":2162:2184  newOwner != address(0) */\n      0xffffffffffffffffffffffffffffffffffffffff\n      and\n        /* \"@openzeppelin/contracts/access/Ownable.sol\":2162:2170  newOwner */\n      dup2\n        /* \"@openzeppelin/contracts/access/Ownable.sol\":2162:2184  newOwner != address(0) */\n      0xffffffffffffffffffffffffffffffffffffffff\n      and\n      sub\n        /* \"@openzeppelin/contracts/access/Ownable.sol\":2154:2227  require(newOwner != address(0), \"Ownable: new owner is the zero address\") */\n      tag_294\n      jumpi\n      mload(0x40)\n      0x08c379a000000000000000000000000000000000000000000000000000000000\n      dup2\n      mstore\n      0x04\n      add\n      tag_295\n      swap1\n      tag_296\n      jump\t// in\n    tag_295:\n      mload(0x40)\n      dup1\n      swap2\n      sub\n      swap1\n      revert\n    tag_294:\n        /* \"@openzeppelin/contracts/access/Ownable.sol\":2237:2265  _transferOwnership(newOwner) */\n      tag_297\n        /* \"@openzeppelin/contracts/access/Ownable.sol\":2256:2264  newOwner */\n      dup2\n        /* \"@openzeppelin/contracts/access/Ownable.sol\":2237:2255  _transferOwnership */\n      tag_255\n        /* \"@openzeppelin/contracts/access/Ownable.sol\":2237:2265  _transferOwnership(newOwner) */\n      jump\t// in\n    tag_297:\n        /* \"@openzeppelin/contracts/access/Ownable.sol\":2074:2272  function transferOwnership(address newOwner) public virtual onlyOwner {... */\n      pop\n      jump\t// out\n        /* \"contracts/preSale.sol\":6189:6440  function withdraw(address token, uint256 amt) public   onlyOwner {... */\n    tag_159:\n        /* \"@openzeppelin/contracts/access/Ownable.sol\":1094:1107  _checkOwner() */\n      tag_299\n        /* \"@openzeppelin/contracts/access/Ownable.sol\":1094:1105  _checkOwner */\n      tag_169\n        /* \"@openzeppelin/contracts/access/Ownable.sol\":1094:1107  _checkOwner() */\n      jump\t// in\n    tag_299:\n        /* \"contracts/preSale.sol\":6281:6290  saleToken */\n      0x02\n      0x00\n      swap1\n      sload\n      swap1\n      0x0100\n      exp\n      swap1\n      div\n      0xffffffffffffffffffffffffffffffffffffffff\n      and\n        /* \"contracts/preSale.sol\":6272:6290  token != saleToken */\n      0xffffffffffffffffffffffffffffffffffffffff\n      and\n        /* \"contracts/preSale.sol\":6272:6277  token */\n      dup3\n        /* \"contracts/preSale.sol\":6272:6290  token != saleToken */\n      0xffffffffffffffffffffffffffffffffffffffff\n      and\n      sub\n        /* \"contracts/preSale.sol\":6264:6380  require(token != saleToken, \"Presale: Cannot withdraw sale token with this method, use withdrawSaleToken() instead\") */\n      tag_301\n      jumpi\n      mload(0x40)\n      0x08c379a000000000000000000000000000000000000000000000000000000000\n      dup2\n      mstore\n      0x04\n      add\n      tag_302\n      swap1\n      tag_303\n      jump\t// in\n    tag_302:\n      mload(0x40)\n      dup1\n      swap2\n      sub\n      swap1\n      revert\n    tag_301:\n        /* \"contracts/preSale.sol\":6390:6433  IERC20(token).safeTransfer(msg.sender, amt) */\n      tag_304\n        /* \"contracts/preSale.sol\":6417:6427  msg.sender */\n      caller\n        /* \"contracts/preSale.sol\":6429:6432  amt */\n      dup3\n        /* \"contracts/preSale.sol\":6397:6402  token */\n      dup5\n        /* \"contracts/preSale.sol\":6390:6416  IERC20(token).safeTransfer */\n      0xffffffffffffffffffffffffffffffffffffffff\n      and\n      tag_238\n      swap1\n        /* \"contracts/preSale.sol\":6390:6433  IERC20(token).safeTransfer(msg.sender, amt) */\n      swap3\n      swap2\n      swap1\n      0xffffffff\n      and\n      jump\t// in\n    tag_304:\n        /* \"contracts/preSale.sol\":6189:6440  function withdraw(address token, uint256 amt) public   onlyOwner {... */\n      pop\n      pop\n      jump\t// out\n        /* \"contracts/preSale.sol\":6447:6730  function withdrawAll(address token) external onlyOwner {... */\n    tag_163:\n        /* \"@openzeppelin/contracts/access/Ownable.sol\":1094:1107  _checkOwner() */\n      tag_306\n        /* \"@openzeppelin/contracts/access/Ownable.sol\":1094:1105  _checkOwner */\n      tag_169\n        /* \"@openzeppelin/contracts/access/Ownable.sol\":1094:1107  _checkOwner() */\n      jump\t// in\n    tag_306:\n        /* \"contracts/preSale.sol\":6529:6538  saleToken */\n      0x02\n      0x00\n      swap1\n      sload\n      swap1\n      0x0100\n      exp\n      swap1\n      div\n      0xffffffffffffffffffffffffffffffffffffffff\n      and\n        /* \"contracts/preSale.sol\":6520:6538  token != saleToken */\n      0xffffffffffffffffffffffffffffffffffffffff\n      and\n        /* \"contracts/preSale.sol\":6520:6525  token */\n      dup2\n        /* \"contracts/preSale.sol\":6520:6538  token != saleToken */\n      0xffffffffffffffffffffffffffffffffffffffff\n      and\n      sub\n        /* \"contracts/preSale.sol\":6512:6631  require(token != saleToken, \"Presale: Cannot withdraw sale token with this method, use withdrawAllSaleToken() instead\") */\n      tag_308\n      jumpi\n      mload(0x40)\n      0x08c379a000000000000000000000000000000000000000000000000000000000\n      dup2\n      mstore\n      0x04\n      add\n      tag_309\n      swap1\n      tag_310\n      jump\t// in\n    tag_309:\n      mload(0x40)\n      dup1\n      swap2\n      sub\n      swap1\n      revert\n    tag_308:\n        /* \"contracts/preSale.sol\":6641:6652  uint256 amt */\n      0x00\n        /* \"contracts/preSale.sol\":6662:6667  token */\n      dup2\n        /* \"contracts/preSale.sol\":6655:6678  IERC20(token).balanceOf */\n      0xffffffffffffffffffffffffffffffffffffffff\n      and\n      0x70a08231\n        /* \"contracts/preSale.sol\":6687:6691  this */\n      address\n        /* \"contracts/preSale.sol\":6655:6693  IERC20(token).balanceOf(address(this)) */\n      mload(0x40)\n      dup3\n      0xffffffff\n      and\n      0xe0\n      shl\n      dup2\n      mstore\n      0x04\n      add\n      tag_311\n      swap2\n      swap1\n      tag_127\n      jump\t// in\n    tag_311:\n      0x20\n      mload(0x40)\n      dup1\n      dup4\n      sub\n      dup2\n      dup7\n      gas\n      staticcall\n      iszero\n      dup1\n      iszero\n      tag_313\n      jumpi\n      returndatasize\n      0x00\n      dup1\n      returndatacopy\n      revert(0x00, returndatasize)\n    tag_313:\n      pop\n      pop\n      pop\n      pop\n      mload(0x40)\n      returndatasize\n      not(0x1f)\n      0x1f\n      dup3\n      add\n      and\n      dup3\n      add\n      dup1\n      0x40\n      mstore\n      pop\n      dup2\n      add\n      swap1\n      tag_314\n      swap2\n      swap1\n      tag_277\n      jump\t// in\n    tag_314:\n        /* \"contracts/preSale.sol\":6641:6693  uint256 amt = IERC20(token).balanceOf(address(this)) */\n      swap1\n      pop\n        /* \"contracts/preSale.sol\":6703:6723  withdraw(token, amt) */\n      tag_315\n        /* \"contracts/preSale.sol\":6712:6717  token */\n      dup3\n        /* \"contracts/preSale.sol\":6719:6722  amt */\n      dup3\n        /* \"contracts/preSale.sol\":6703:6711  withdraw */\n      tag_159\n        /* \"contracts/preSale.sol\":6703:6723  withdraw(token, amt) */\n      jump\t// in\n    tag_315:\n        /* \"contracts/preSale.sol\":6502:6730  {... */\n      pop\n        /* \"contracts/preSale.sol\":6447:6730  function withdrawAll(address token) external onlyOwner {... */\n      pop\n      jump\t// out\n        /* \"contracts/preSale.sol\":5680:5876  function withdrawAllSaleToken() external onlyOwner isPresaleEnded {... */\n    tag_166:\n        /* \"@openzeppelin/contracts/access/Ownable.sol\":1094:1107  _checkOwner() */\n      tag_317\n        /* \"@openzeppelin/contracts/access/Ownable.sol\":1094:1105  _checkOwner */\n      tag_169\n        /* \"@openzeppelin/contracts/access/Ownable.sol\":1094:1107  _checkOwner() */\n      jump\t// in\n    tag_317:\n        /* \"contracts/preSale.sol\":1760:1774  presaleEndTime */\n      sload(0x0a)\n        /* \"contracts/preSale.sol\":1741:1756  block.timestamp */\n      timestamp\n        /* \"contracts/preSale.sol\":1741:1774  block.timestamp >= presaleEndTime */\n      lt\n      iszero\n        /* \"contracts/preSale.sol\":1720:1834  require(... */\n      tag_319\n      jumpi\n      mload(0x40)\n      0x08c379a000000000000000000000000000000000000000000000000000000000\n      dup2\n      mstore\n      0x04\n      add\n      tag_320\n      swap1\n      tag_288\n      jump\t// in\n    tag_320:\n      mload(0x40)\n      dup1\n      swap2\n      sub\n      swap1\n      revert\n    tag_319:\n        /* \"contracts/preSale.sol\":5756:5767  uint256 amt */\n      0x00\n        /* \"contracts/preSale.sol\":5777:5786  saleToken */\n      0x02\n      0x00\n      swap1\n      sload\n      swap1\n      0x0100\n      exp\n      swap1\n      div\n      0xffffffffffffffffffffffffffffffffffffffff\n      and\n        /* \"contracts/preSale.sol\":5770:5797  IERC20(saleToken).balanceOf */\n      0xffffffffffffffffffffffffffffffffffffffff\n      and\n      0x70a08231\n        /* \"contracts/preSale.sol\":5806:5810  this */\n      address\n        /* \"contracts/preSale.sol\":5770:5812  IERC20(saleToken).balanceOf(address(this)) */\n      mload(0x40)\n      dup3\n      0xffffffff\n      and\n      0xe0\n      shl\n      dup2\n      mstore\n      0x04\n      add\n      tag_322\n      swap2\n      swap1\n      tag_127\n      jump\t// in\n    tag_322:\n      0x20\n      mload(0x40)\n      dup1\n      dup4\n      sub\n      dup2\n      dup7\n      gas\n      staticcall\n      iszero\n      dup1\n      iszero\n      tag_324\n      jumpi\n      returndatasize\n      0x00\n      dup1\n      returndatacopy\n      revert(0x00, returndatasize)\n    tag_324:\n      pop\n      pop\n      pop\n      pop\n      mload(0x40)\n      returndatasize\n      not(0x1f)\n      0x1f\n      dup3\n      add\n      and\n      dup3\n      add\n      dup1\n      0x40\n      mstore\n      pop\n      dup2\n      add\n      swap1\n      tag_325\n      swap2\n      swap1\n      tag_277\n      jump\t// in\n    tag_325:\n        /* \"contracts/preSale.sol\":5756:5812  uint256 amt = IERC20(saleToken).balanceOf(address(this)) */\n      swap1\n      pop\n        /* \"contracts/preSale.sol\":5822:5869  IERC20(saleToken).safeTransfer(msg.sender, amt) */\n      tag_326\n        /* \"contracts/preSale.sol\":5853:5863  msg.sender */\n      caller\n        /* \"contracts/preSale.sol\":5865:5868  amt */\n      dup3\n        /* \"contracts/preSale.sol\":5829:5838  saleToken */\n      0x02\n      0x00\n      swap1\n      sload\n      swap1\n      0x0100\n      exp\n      swap1\n      div\n      0xffffffffffffffffffffffffffffffffffffffff\n      and\n        /* \"contracts/preSale.sol\":5822:5852  IERC20(saleToken).safeTransfer */\n      0xffffffffffffffffffffffffffffffffffffffff\n      and\n      tag_238\n      swap1\n        /* \"contracts/preSale.sol\":5822:5869  IERC20(saleToken).safeTransfer(msg.sender, amt) */\n      swap3\n      swap2\n      swap1\n      0xffffffff\n      and\n      jump\t// in\n    tag_326:\n        /* \"contracts/preSale.sol\":5746:5876  {... */\n      pop\n        /* \"contracts/preSale.sol\":5680:5876  function withdrawAllSaleToken() external onlyOwner isPresaleEnded {... */\n      jump\t// out\n        /* \"@openzeppelin/contracts/access/Ownable.sol\":1359:1489  function _checkOwner() internal view virtual {... */\n    tag_169:\n        /* \"@openzeppelin/contracts/access/Ownable.sol\":1433:1445  _msgSender() */\n      tag_328\n        /* \"@openzeppelin/contracts/access/Ownable.sol\":1433:1443  _msgSender */\n      tag_329\n        /* \"@openzeppelin/contracts/access/Ownable.sol\":1433:1445  _msgSender() */\n      jump\t// in\n    tag_328:\n        /* \"@openzeppelin/contracts/access/Ownable.sol\":1422:1445  owner() == _msgSender() */\n      0xffffffffffffffffffffffffffffffffffffffff\n      and\n        /* \"@openzeppelin/contracts/access/Ownable.sol\":1422:1429  owner() */\n      tag_330\n        /* \"@openzeppelin/contracts/access/Ownable.sol\":1422:1427  owner */\n      tag_125\n        /* \"@openzeppelin/contracts/access/Ownable.sol\":1422:1429  owner() */\n      jump\t// in\n    tag_330:\n        /* \"@openzeppelin/contracts/access/Ownable.sol\":1422:1445  owner() == _msgSender() */\n      0xffffffffffffffffffffffffffffffffffffffff\n      and\n      eq\n        /* \"@openzeppelin/contracts/access/Ownable.sol\":1414:1482  require(owner() == _msgSender(), \"Ownable: caller is not the owner\") */\n      tag_331\n      jumpi\n      mload(0x40)\n      0x08c379a000000000000000000000000000000000000000000000000000000000\n      dup2\n      mstore\n      0x04\n      add\n      tag_332\n      swap1\n      tag_333\n      jump\t// in\n    tag_332:\n      mload(0x40)\n      dup1\n      swap2\n      sub\n      swap1\n      revert\n    tag_331:\n        /* \"@openzeppelin/contracts/access/Ownable.sol\":1359:1489  function _checkOwner() internal view virtual {... */\n      jump\t// out\n        /* \"@openzeppelin/contracts/token/ERC20/utils/SafeERC20.sol\":941:1116  function safeTransfer(IERC20 token, address to, uint256 value) internal {... */\n    tag_238:\n        /* \"@openzeppelin/contracts/token/ERC20/utils/SafeERC20.sol\":1023:1109  _callOptionalReturn(token, abi.encodeWithSelector(token.transfer.selector, to, value)) */\n      tag_335\n        /* \"@openzeppelin/contracts/token/ERC20/utils/SafeERC20.sol\":1043:1048  token */\n      dup4\n        /* \"@openzeppelin/contracts/token/ERC20/utils/SafeERC20.sol\":1073:1096  token.transfer.selector */\n      shl(0xe0, 0xa9059cbb)\n        /* \"@openzeppelin/contracts/token/ERC20/utils/SafeERC20.sol\":1098:1100  to */\n      dup5\n        /* \"@openzeppelin/contracts/token/ERC20/utils/SafeERC20.sol\":1102:1107  value */\n      dup5\n        /* \"@openzeppelin/contracts/token/ERC20/utils/SafeERC20.sol\":1050:1108  abi.encodeWithSelector(token.transfer.selector, to, value) */\n      add(0x24, mload(0x40))\n      tag_336\n      swap3\n      swap2\n      swap1\n      tag_198\n      jump\t// in\n    tag_336:\n      mload(0x40)\n      0x20\n      dup2\n      dup4\n      sub\n      sub\n      dup2\n      mstore\n      swap1\n      0x40\n      mstore\n      swap1\n      not(0xffffffffffffffffffffffffffffffffffffffffffffffffffffffff)\n      and\n      0x20\n      dup3\n      add\n      dup1\n      mload\n      0xffffffffffffffffffffffffffffffffffffffffffffffffffffffff\n      dup4\n      dup2\n      dup4\n      and\n      or\n      dup4\n      mstore\n      pop\n      pop\n      pop\n      pop\n        /* \"@openzeppelin/contracts/token/ERC20/utils/SafeERC20.sol\":1023:1042  _callOptionalReturn */\n      tag_337\n        /* \"@openzeppelin/contracts/token/ERC20/utils/SafeERC20.sol\":1023:1109  _callOptionalReturn(token, abi.encodeWithSelector(token.transfer.selector, to, value)) */\n      jump\t// in\n    tag_335:\n        /* \"@openzeppelin/contracts/token/ERC20/utils/SafeERC20.sol\":941:1116  function safeTransfer(IERC20 token, address to, uint256 value) internal {... */\n      pop\n      pop\n      pop\n      jump\t// out\n        /* \"@openzeppelin/contracts/token/ERC20/utils/SafeERC20.sol\":1355:1558  function safeTransferFrom(IERC20 token, address from, address to, uint256 value) internal {... */\n    tag_246:\n        /* \"@openzeppelin/contracts/token/ERC20/utils/SafeERC20.sol\":1455:1551  _callOptionalReturn(token, abi.encodeWithSelector(token.transferFrom.selector, from, to, value)) */\n      tag_339\n        /* \"@openzeppelin/contracts/token/ERC20/utils/SafeERC20.sol\":1475:1480  token */\n      dup5\n        /* \"@openzeppelin/contracts/token/ERC20/utils/SafeERC20.sol\":1505:1532  token.transferFrom.selector */\n      shl(0xe0, 0x23b872dd)\n        /* \"@openzeppelin/contracts/token/ERC20/utils/SafeERC20.sol\":1534:1538  from */\n      dup6\n        /* \"@openzeppelin/contracts/token/ERC20/utils/SafeERC20.sol\":1540:1542  to */\n      dup6\n        /* \"@openzeppelin/contracts/token/ERC20/utils/SafeERC20.sol\":1544:1549  value */\n      dup6\n        /* \"@openzeppelin/contracts/token/ERC20/utils/SafeERC20.sol\":1482:1550  abi.encodeWithSelector(token.transferFrom.selector, from, to, value) */\n      add(0x24, mload(0x40))\n      tag_340\n      swap4\n      swap3\n      swap2\n      swap1\n      tag_341\n      jump\t// in\n    tag_340:\n      mload(0x40)\n      0x20\n      dup2\n      dup4\n      sub\n      sub\n      dup2\n      mstore\n      swap1\n      0x40\n      mstore\n      swap1\n      not(0xffffffffffffffffffffffffffffffffffffffffffffffffffffffff)\n      and\n      0x20\n      dup3\n      add\n      dup1\n      mload\n      0xffffffffffffffffffffffffffffffffffffffffffffffffffffffff\n      dup4\n      dup2\n      dup4\n      and\n      or\n      dup4\n      mstore\n      pop\n      pop\n      pop\n      pop\n        /* \"@openzeppelin/contracts/token/ERC20/utils/SafeERC20.sol\":1455:1474  _callOptionalReturn */\n      tag_337\n        /* \"@openzeppelin/contracts/token/ERC20/utils/SafeERC20.sol\":1455:1551  _callOptionalReturn(token, abi.encodeWithSelector(token.transferFrom.selector, from, to, value)) */\n      jump\t// in\n    tag_339:\n        /* \"@openzeppelin/contracts/token/ERC20/utils/SafeERC20.sol\":1355:1558  function safeTransferFrom(IERC20 token, address from, address to, uint256 value) internal {... */\n      pop\n      pop\n      pop\n      pop\n      jump\t// out\n        /* \"@openzeppelin/contracts/access/Ownable.sol\":2426:2613  function _transferOwnership(address newOwner) internal virtual {... */\n    tag_255:\n        /* \"@openzeppelin/contracts/access/Ownable.sol\":2499:2515  address oldOwner */\n      0x00\n        /* \"@openzeppelin/contracts/access/Ownable.sol\":2518:2524  _owner */\n      dup1\n      0x00\n      swap1\n      sload\n      swap1\n      0x0100\n      exp\n      swap1\n      div\n      0xffffffffffffffffffffffffffffffffffffffff\n      and\n        /* \"@openzeppelin/contracts/access/Ownable.sol\":2499:2524  address oldOwner = _owner */\n      swap1\n      pop\n        /* \"@openzeppelin/contracts/access/Ownable.sol\":2543:2551  newOwner */\n      dup2\n        /* \"@openzeppelin/contracts/access/Ownable.sol\":2534:2540  _owner */\n      0x00\n      dup1\n        /* \"@openzeppelin/contracts/access/Ownable.sol\":2534:2551  _owner = newOwner */\n      0x0100\n      exp\n      dup2\n      sload\n      dup2\n      0xffffffffffffffffffffffffffffffffffffffff\n      mul\n      not\n      and\n      swap1\n      dup4\n      0xffffffffffffffffffffffffffffffffffffffff\n      and\n      mul\n      or\n      swap1\n      sstore\n      pop\n        /* \"@openzeppelin/contracts/access/Ownable.sol\":2597:2605  newOwner */\n      dup2\n        /* \"@openzeppelin/contracts/access/Ownable.sol\":2566:2606  OwnershipTransferred(oldOwner, newOwner) */\n      0xffffffffffffffffffffffffffffffffffffffff\n      and\n        /* \"@openzeppelin/contracts/access/Ownable.sol\":2587:2595  oldOwner */\n      dup2\n        /* \"@openzeppelin/contracts/access/Ownable.sol\":2566:2606  OwnershipTransferred(oldOwner, newOwner) */\n      0xffffffffffffffffffffffffffffffffffffffff\n      and\n      0x8be0079c531659141344cd1fd0a4f28419497f9722a3daafe3b4186f6b6457e0\n      mload(0x40)\n      mload(0x40)\n      dup1\n      swap2\n      sub\n      swap1\n      log3\n        /* \"@openzeppelin/contracts/access/Ownable.sol\":2489:2613  {... */\n      pop\n        /* \"@openzeppelin/contracts/access/Ownable.sol\":2426:2613  function _transferOwnership(address newOwner) internal virtual {... */\n      pop\n      jump\t// out\n        /* \"@openzeppelin/contracts/utils/Context.sol\":640:736  function _msgSender() internal view virtual returns (address) {... */\n    tag_329:\n        /* \"@openzeppelin/contracts/utils/Context.sol\":693:700  address */\n      0x00\n        /* \"@openzeppelin/contracts/utils/Context.sol\":719:729  msg.sender */\n      caller\n        /* \"@openzeppelin/contracts/utils/Context.sol\":712:729  return msg.sender */\n      swap1\n      pop\n        /* \"@openzeppelin/contracts/utils/Context.sol\":640:736  function _msgSender() internal view virtual returns (address) {... */\n      swap1\n      jump\t// out\n        /* \"@openzeppelin/contracts/token/ERC20/utils/SafeERC20.sol\":5196:5838  function _callOptionalReturn(IERC20 token, bytes memory data) private {... */\n    tag_337:\n        /* \"@openzeppelin/contracts/token/ERC20/utils/SafeERC20.sol\":5615:5638  bytes memory returndata */\n      0x00\n        /* \"@openzeppelin/contracts/token/ERC20/utils/SafeERC20.sol\":5641:5710  address(token).functionCall(data, \"SafeERC20: low-level call failed\") */\n      tag_345\n        /* \"@openzeppelin/contracts/token/ERC20/utils/SafeERC20.sol\":5669:5673  data */\n      dup3\n        /* \"@openzeppelin/contracts/token/ERC20/utils/SafeERC20.sol\":5641:5710  address(token).functionCall(data, \"SafeERC20: low-level call failed\") */\n      mload(0x40)\n      dup1\n      0x40\n      add\n      0x40\n      mstore\n      dup1\n      0x20\n      dup2\n      mstore\n      0x20\n      add\n      0x5361666545524332303a206c6f772d6c6576656c2063616c6c206661696c6564\n      dup2\n      mstore\n      pop\n        /* \"@openzeppelin/contracts/token/ERC20/utils/SafeERC20.sol\":5649:5654  token */\n      dup6\n        /* \"@openzeppelin/contracts/token/ERC20/utils/SafeERC20.sol\":5641:5668  address(token).functionCall */\n      0xffffffffffffffffffffffffffffffffffffffff\n      and\n      tag_346\n      swap1\n        /* \"@openzeppelin/contracts/token/ERC20/utils/SafeERC20.sol\":5641:5710  address(token).functionCall(data, \"SafeERC20: low-level call failed\") */\n      swap3\n      swap2\n      swap1\n      0xffffffff\n      and\n      jump\t// in\n    tag_345:\n        /* \"@openzeppelin/contracts/token/ERC20/utils/SafeERC20.sol\":5615:5710  bytes memory returndata = address(token).functionCall(data, \"SafeERC20: low-level call failed\") */\n      swap1\n      pop\n        /* \"@openzeppelin/contracts/token/ERC20/utils/SafeERC20.sol\":5749:5750  0 */\n      0x00\n        /* \"@openzeppelin/contracts/token/ERC20/utils/SafeERC20.sol\":5728:5738  returndata */\n      dup2\n        /* \"@openzeppelin/contracts/token/ERC20/utils/SafeERC20.sol\":5728:5745  returndata.length */\n      mload\n        /* \"@openzeppelin/contracts/token/ERC20/utils/SafeERC20.sol\":5728:5750  returndata.length == 0 */\n      eq\n        /* \"@openzeppelin/contracts/token/ERC20/utils/SafeERC20.sol\":5728:5784  returndata.length == 0 || abi.decode(returndata, (bool)) */\n      dup1\n      tag_347\n      jumpi\n      pop\n        /* \"@openzeppelin/contracts/token/ERC20/utils/SafeERC20.sol\":5765:5775  returndata */\n      dup1\n        /* \"@openzeppelin/contracts/token/ERC20/utils/SafeERC20.sol\":5754:5784  abi.decode(returndata, (bool)) */\n      dup1\n      0x20\n      add\n      swap1\n      mload\n      dup2\n      add\n      swap1\n      tag_348\n      swap2\n      swap1\n      tag_349\n      jump\t// in\n    tag_348:\n        /* \"@openzeppelin/contracts/token/ERC20/utils/SafeERC20.sol\":5728:5784  returndata.length == 0 || abi.decode(returndata, (bool)) */\n    tag_347:\n        /* \"@openzeppelin/contracts/token/ERC20/utils/SafeERC20.sol\":5720:5831  require(returndata.length == 0 || abi.decode(returndata, (bool)), \"SafeERC20: ERC20 operation did not succeed\") */\n      tag_350\n      jumpi\n      mload(0x40)\n      0x08c379a000000000000000000000000000000000000000000000000000000000\n      dup2\n      mstore\n      0x04\n      add\n      tag_351\n      swap1\n      tag_352\n      jump\t// in\n    tag_351:\n      mload(0x40)\n      dup1\n      swap2\n      sub\n      swap1\n      revert\n    tag_350:\n        /* \"@openzeppelin/contracts/token/ERC20/utils/SafeERC20.sol\":5266:5838  {... */\n      pop\n        /* \"@openzeppelin/contracts/token/ERC20/utils/SafeERC20.sol\":5196:5838  function _callOptionalReturn(IERC20 token, bytes memory data) private {... */\n      pop\n      pop\n      jump\t// out\n        /* \"@openzeppelin/contracts/utils/Address.sol\":4108:4331  function functionCall(... */\n    tag_346:\n        /* \"@openzeppelin/contracts/utils/Address.sol\":4241:4253  bytes memory */\n      0x60\n        /* \"@openzeppelin/contracts/utils/Address.sol\":4272:4324  functionCallWithValue(target, data, 0, errorMessage) */\n      tag_354\n        /* \"@openzeppelin/contracts/utils/Address.sol\":4294:4300  target */\n      dup5\n        /* \"@openzeppelin/contracts/utils/Address.sol\":4302:4306  data */\n      dup5\n        /* \"@openzeppelin/contracts/utils/Address.sol\":4308:4309  0 */\n      0x00\n        /* \"@openzeppelin/contracts/utils/Address.sol\":4311:4323  errorMessage */\n      dup6\n        /* \"@openzeppelin/contracts/utils/Address.sol\":4272:4293  functionCallWithValue */\n      tag_355\n        /* \"@openzeppelin/contracts/utils/Address.sol\":4272:4324  functionCallWithValue(target, data, 0, errorMessage) */\n      jump\t// in\n    tag_354:\n        /* \"@openzeppelin/contracts/utils/Address.sol\":4265:4324  return functionCallWithValue(target, data, 0, errorMessage) */\n      swap1\n      pop\n        /* \"@openzeppelin/contracts/utils/Address.sol\":4108:4331  function functionCall(... */\n      swap4\n      swap3\n      pop\n      pop\n      pop\n      jump\t// out\n        /* \"@openzeppelin/contracts/utils/Address.sol\":5165:5611  function functionCallWithValue(... */\n    tag_355:\n        /* \"@openzeppelin/contracts/utils/Address.sol\":5330:5342  bytes memory */\n      0x60\n        /* \"@openzeppelin/contracts/utils/Address.sol\":5387:5392  value */\n      dup3\n        /* \"@openzeppelin/contracts/utils/Address.sol\":5362:5383  address(this).balance */\n      selfbalance\n        /* \"@openzeppelin/contracts/utils/Address.sol\":5362:5392  address(this).balance >= value */\n      lt\n      iszero\n        /* \"@openzeppelin/contracts/utils/Address.sol\":5354:5435  require(address(this).balance >= value, \"Address: insufficient balance for call\") */\n      tag_357\n      jumpi\n      mload(0x40)\n      0x08c379a000000000000000000000000000000000000000000000000000000000\n      dup2\n      mstore\n      0x04\n      add\n      tag_358\n      swap1\n      tag_359\n      jump\t// in\n    tag_358:\n      mload(0x40)\n      dup1\n      swap2\n      sub\n      swap1\n      revert\n    tag_357:\n        /* \"@openzeppelin/contracts/utils/Address.sol\":5446:5458  bool success */\n      0x00\n        /* \"@openzeppelin/contracts/utils/Address.sol\":5460:5483  bytes memory returndata */\n      dup1\n        /* \"@openzeppelin/contracts/utils/Address.sol\":5487:5493  target */\n      dup7\n        /* \"@openzeppelin/contracts/utils/Address.sol\":5487:5498  target.call */\n      0xffffffffffffffffffffffffffffffffffffffff\n      and\n        /* \"@openzeppelin/contracts/utils/Address.sol\":5506:5511  value */\n      dup6\n        /* \"@openzeppelin/contracts/utils/Address.sol\":5513:5517  data */\n      dup8\n        /* \"@openzeppelin/contracts/utils/Address.sol\":5487:5518  target.call{value: value}(data) */\n      mload(0x40)\n      tag_360\n      swap2\n      swap1\n      tag_361\n      jump\t// in\n    tag_360:\n      0x00\n      mload(0x40)\n      dup1\n      dup4\n      sub\n      dup2\n      dup6\n      dup8\n      gas\n      call\n      swap3\n      pop\n      pop\n      pop\n      returndatasize\n      dup1\n      0x00\n      dup2\n      eq\n      tag_364\n      jumpi\n      mload(0x40)\n      swap2\n      pop\n      and(add(returndatasize, 0x3f), not(0x1f))\n      dup3\n      add\n      0x40\n      mstore\n      returndatasize\n      dup3\n      mstore\n      returndatasize\n      0x00\n      0x20\n      dup5\n      add\n      returndatacopy\n      jump(tag_363)\n    tag_364:\n      0x60\n      swap2\n      pop\n    tag_363:\n      pop\n        /* \"@openzeppelin/contracts/utils/Address.sol\":5445:5518  (bool success, bytes memory returndata) = target.call{value: value}(data) */\n      swap2\n      pop\n      swap2\n      pop\n        /* \"@openzeppelin/contracts/utils/Address.sol\":5535:5604  verifyCallResultFromTarget(target, success, returndata, errorMessage) */\n      tag_365\n        /* \"@openzeppelin/contracts/utils/Address.sol\":5562:5568  target */\n      dup8\n        /* \"@openzeppelin/contracts/utils/Address.sol\":5570:5577  success */\n      dup4\n        /* \"@openzeppelin/contracts/utils/Address.sol\":5579:5589  returndata */\n      dup4\n        /* \"@openzeppelin/contracts/utils/Address.sol\":5591:5603  errorMessage */\n      dup8\n        /* \"@openzeppelin/contracts/utils/Address.sol\":5535:5561  verifyCallResultFromTarget */\n      tag_366\n        /* \"@openzeppelin/contracts/utils/Address.sol\":5535:5604  verifyCallResultFromTarget(target, success, returndata, errorMessage) */\n      jump\t// in\n    tag_365:\n        /* \"@openzeppelin/contracts/utils/Address.sol\":5528:5604  return verifyCallResultFromTarget(target, success, returndata, errorMessage) */\n      swap3\n      pop\n      pop\n      pop\n        /* \"@openzeppelin/contracts/utils/Address.sol\":5165:5611  function functionCallWithValue(... */\n      swap5\n      swap4\n      pop\n      pop\n      pop\n      pop\n      jump\t// out\n        /* \"@openzeppelin/contracts/utils/Address.sol\":7671:8299  function verifyCallResultFromTarget(... */\n    tag_366:\n        /* \"@openzeppelin/contracts/utils/Address.sol\":7851:7863  bytes memory */\n      0x60\n        /* \"@openzeppelin/contracts/utils/Address.sol\":7879:7886  success */\n      dup4\n        /* \"@openzeppelin/contracts/utils/Address.sol\":7875:8293  if (success) {... */\n      iszero\n      tag_368\n      jumpi\n        /* \"@openzeppelin/contracts/utils/Address.sol\":7927:7928  0 */\n      0x00\n        /* \"@openzeppelin/contracts/utils/Address.sol\":7906:7916  returndata */\n      dup4\n        /* \"@openzeppelin/contracts/utils/Address.sol\":7906:7923  returndata.length */\n      mload\n        /* \"@openzeppelin/contracts/utils/Address.sol\":7906:7928  returndata.length == 0 */\n      sub\n        /* \"@openzeppelin/contracts/utils/Address.sol\":7902:8188  if (returndata.length == 0) {... */\n      tag_369\n      jumpi\n        /* \"@openzeppelin/contracts/utils/Address.sol\":8121:8139  isContract(target) */\n      tag_370\n        /* \"@openzeppelin/contracts/utils/Address.sol\":8132:8138  target */\n      dup6\n        /* \"@openzeppelin/contracts/utils/Address.sol\":8121:8131  isContract */\n      tag_371\n        /* \"@openzeppelin/contracts/utils/Address.sol\":8121:8139  isContract(target) */\n      jump\t// in\n    tag_370:\n        /* \"@openzeppelin/contracts/utils/Address.sol\":8113:8173  require(isContract(target), \"Address: call to non-contract\") */\n      tag_372\n      jumpi\n      mload(0x40)\n      0x08c379a000000000000000000000000000000000000000000000000000000000\n      dup2\n      mstore\n      0x04\n      add\n      tag_373\n      swap1\n      tag_374\n      jump\t// in\n    tag_373:\n      mload(0x40)\n      dup1\n      swap2\n      sub\n      swap1\n      revert\n    tag_372:\n        /* \"@openzeppelin/contracts/utils/Address.sol\":7902:8188  if (returndata.length == 0) {... */\n    tag_369:\n        /* \"@openzeppelin/contracts/utils/Address.sol\":8208:8218  returndata */\n      dup3\n        /* \"@openzeppelin/contracts/utils/Address.sol\":8201:8218  return returndata */\n      swap1\n      pop\n      jump(tag_367)\n        /* \"@openzeppelin/contracts/utils/Address.sol\":7875:8293  if (success) {... */\n    tag_368:\n        /* \"@openzeppelin/contracts/utils/Address.sol\":8249:8282  _revert(returndata, errorMessage) */\n      tag_376\n        /* \"@openzeppelin/contracts/utils/Address.sol\":8257:8267  returndata */\n      dup4\n        /* \"@openzeppelin/contracts/utils/Address.sol\":8269:8281  errorMessage */\n      dup4\n        /* \"@openzeppelin/contracts/utils/Address.sol\":8249:8256  _revert */\n      tag_377\n        /* \"@openzeppelin/contracts/utils/Address.sol\":8249:8282  _revert(returndata, errorMessage) */\n      jump\t// in\n    tag_376:\n        /* \"@openzeppelin/contracts/utils/Address.sol\":7671:8299  function verifyCallResultFromTarget(... */\n    tag_367:\n      swap5\n      swap4\n      pop\n      pop\n      pop\n      pop\n      jump\t// out\n        /* \"@openzeppelin/contracts/utils/Address.sol\":1412:1732  function isContract(address account) internal view returns (bool) {... */\n    tag_371:\n        /* \"@openzeppelin/contracts/utils/Address.sol\":1472:1476  bool */\n      0x00\n        /* \"@openzeppelin/contracts/utils/Address.sol\":1724:1725  0 */\n      dup1\n        /* \"@openzeppelin/contracts/utils/Address.sol\":1702:1709  account */\n      dup3\n        /* \"@openzeppelin/contracts/utils/Address.sol\":1702:1721  account.code.length */\n      0xffffffffffffffffffffffffffffffffffffffff\n      and\n      extcodesize\n        /* \"@openzeppelin/contracts/utils/Address.sol\":1702:1725  account.code.length > 0 */\n      gt\n        /* \"@openzeppelin/contracts/utils/Address.sol\":1695:1725  return account.code.length > 0 */\n      swap1\n      pop\n        /* \"@openzeppelin/contracts/utils/Address.sol\":1412:1732  function isContract(address account) internal view returns (bool) {... */\n      swap2\n      swap1\n      pop\n      jump\t// out\n        /* \"@openzeppelin/contracts/utils/Address.sol\":8821:9361  function _revert(bytes memory returndata, string memory errorMessage) private pure {... */\n    tag_377:\n        /* \"@openzeppelin/contracts/utils/Address.sol\":9000:9001  0 */\n      0x00\n        /* \"@openzeppelin/contracts/utils/Address.sol\":8980:8990  returndata */\n      dup3\n        /* \"@openzeppelin/contracts/utils/Address.sol\":8980:8997  returndata.length */\n      mload\n        /* \"@openzeppelin/contracts/utils/Address.sol\":8980:9001  returndata.length > 0 */\n      gt\n        /* \"@openzeppelin/contracts/utils/Address.sol\":8976:9355  if (returndata.length > 0) {... */\n      iszero\n      tag_380\n      jumpi\n        /* \"@openzeppelin/contracts/utils/Address.sol\":9208:9218  returndata */\n      dup2\n        /* \"@openzeppelin/contracts/utils/Address.sol\":9202:9219  mload(returndata) */\n      mload\n        /* \"@openzeppelin/contracts/utils/Address.sol\":9264:9279  returndata_size */\n      dup1\n        /* \"@openzeppelin/contracts/utils/Address.sol\":9251:9261  returndata */\n      dup4\n        /* \"@openzeppelin/contracts/utils/Address.sol\":9247:9249  32 */\n      0x20\n        /* \"@openzeppelin/contracts/utils/Address.sol\":9243:9262  add(32, returndata) */\n      add\n        /* \"@openzeppelin/contracts/utils/Address.sol\":9236:9280  revert(add(32, returndata), returndata_size) */\n      revert\n        /* \"@openzeppelin/contracts/utils/Address.sol\":8976:9355  if (returndata.length > 0) {... */\n    tag_380:\n        /* \"@openzeppelin/contracts/utils/Address.sol\":9331:9343  errorMessage */\n      dup1\n        /* \"@openzeppelin/contracts/utils/Address.sol\":9324:9344  revert(errorMessage) */\n      mload(0x40)\n      0x08c379a000000000000000000000000000000000000000000000000000000000\n      dup2\n      mstore\n      0x04\n      add\n      tag_382\n      swap2\n      swap1\n      tag_383\n      jump\t// in\n    tag_382:\n      mload(0x40)\n      dup1\n      swap2\n      sub\n      swap1\n      revert\n        /* \"#utility.yul\":88:205   */\n    tag_385:\n        /* \"#utility.yul\":197:198   */\n      0x00\n        /* \"#utility.yul\":194:195   */\n      dup1\n        /* \"#utility.yul\":187:199   */\n      revert\n        /* \"#utility.yul\":334:411   */\n    tag_387:\n        /* \"#utility.yul\":371:378   */\n      0x00\n        /* \"#utility.yul\":400:405   */\n      dup2\n        /* \"#utility.yul\":389:405   */\n      swap1\n      pop\n        /* \"#utility.yul\":334:411   */\n      swap2\n      swap1\n      pop\n      jump\t// out\n        /* \"#utility.yul\":417:539   */\n    tag_388:\n        /* \"#utility.yul\":490:514   */\n      tag_455\n        /* \"#utility.yul\":508:513   */\n      dup2\n        /* \"#utility.yul\":490:514   */\n      tag_387\n      jump\t// in\n    tag_455:\n        /* \"#utility.yul\":483:488   */\n      dup2\n        /* \"#utility.yul\":480:515   */\n      eq\n        /* \"#utility.yul\":470:533   */\n      tag_456\n      jumpi\n        /* \"#utility.yul\":529:530   */\n      0x00\n        /* \"#utility.yul\":526:527   */\n      dup1\n        /* \"#utility.yul\":519:531   */\n      revert\n        /* \"#utility.yul\":470:533   */\n    tag_456:\n        /* \"#utility.yul\":417:539   */\n      pop\n      jump\t// out\n        /* \"#utility.yul\":545:684   */\n    tag_389:\n        /* \"#utility.yul\":591:596   */\n      0x00\n        /* \"#utility.yul\":629:635   */\n      dup2\n        /* \"#utility.yul\":616:636   */\n      calldataload\n        /* \"#utility.yul\":607:636   */\n      swap1\n      pop\n        /* \"#utility.yul\":645:678   */\n      tag_458\n        /* \"#utility.yul\":672:677   */\n      dup2\n        /* \"#utility.yul\":645:678   */\n      tag_388\n      jump\t// in\n    tag_458:\n        /* \"#utility.yul\":545:684   */\n      swap3\n      swap2\n      pop\n      pop\n      jump\t// out\n        /* \"#utility.yul\":690:1019   */\n    tag_42:\n        /* \"#utility.yul\":749:755   */\n      0x00\n        /* \"#utility.yul\":798:800   */\n      0x20\n        /* \"#utility.yul\":786:795   */\n      dup3\n        /* \"#utility.yul\":777:784   */\n      dup5\n        /* \"#utility.yul\":773:796   */\n      sub\n        /* \"#utility.yul\":769:801   */\n      slt\n        /* \"#utility.yul\":766:885   */\n      iszero\n      tag_460\n      jumpi\n        /* \"#utility.yul\":804:883   */\n      tag_461\n      tag_385\n      jump\t// in\n    tag_461:\n        /* \"#utility.yul\":766:885   */\n    tag_460:\n        /* \"#utility.yul\":924:925   */\n      0x00\n        /* \"#utility.yul\":949:1002   */\n      tag_462\n        /* \"#utility.yul\":994:1001   */\n      dup5\n        /* \"#utility.yul\":985:991   */\n      dup3\n        /* \"#utility.yul\":974:983   */\n      dup6\n        /* \"#utility.yul\":970:992   */\n      add\n        /* \"#utility.yul\":949:1002   */\n      tag_389\n      jump\t// in\n    tag_462:\n        /* \"#utility.yul\":939:1002   */\n      swap2\n      pop\n        /* \"#utility.yul\":895:1012   */\n      pop\n        /* \"#utility.yul\":690:1019   */\n      swap3\n      swap2\n      pop\n      pop\n      jump\t// out\n        /* \"#utility.yul\":1025:1151   */\n    tag_390:\n        /* \"#utility.yul\":1062:1069   */\n      0x00\n        /* \"#utility.yul\":1102:1144   */\n      0xffffffffffffffffffffffffffffffffffffffff\n        /* \"#utility.yul\":1095:1100   */\n      dup3\n        /* \"#utility.yul\":1091:1145   */\n      and\n        /* \"#utility.yul\":1080:1145   */\n      swap1\n      pop\n        /* \"#utility.yul\":1025:1151   */\n      swap2\n      swap1\n      pop\n      jump\t// out\n        /* \"#utility.yul\":1157:1253   */\n    tag_391:\n        /* \"#utility.yul\":1194:1201   */\n      0x00\n        /* \"#utility.yul\":1223:1247   */\n      tag_465\n        /* \"#utility.yul\":1241:1246   */\n      dup3\n        /* \"#utility.yul\":1223:1247   */\n      tag_390\n      jump\t// in\n    tag_465:\n        /* \"#utility.yul\":1212:1247   */\n      swap1\n      pop\n        /* \"#utility.yul\":1157:1253   */\n      swap2\n      swap1\n      pop\n      jump\t// out\n        /* \"#utility.yul\":1259:1381   */\n    tag_392:\n        /* \"#utility.yul\":1332:1356   */\n      tag_467\n        /* \"#utility.yul\":1350:1355   */\n      dup2\n        /* \"#utility.yul\":1332:1356   */\n      tag_391\n      jump\t// in\n    tag_467:\n        /* \"#utility.yul\":1325:1330   */\n      dup2\n        /* \"#utility.yul\":1322:1357   */\n      eq\n        /* \"#utility.yul\":1312:1375   */\n      tag_468\n      jumpi\n        /* \"#utility.yul\":1371:1372   */\n      0x00\n        /* \"#utility.yul\":1368:1369   */\n      dup1\n        /* \"#utility.yul\":1361:1373   */\n      revert\n        /* \"#utility.yul\":1312:1375   */\n    tag_468:\n        /* \"#utility.yul\":1259:1381   */\n      pop\n      jump\t// out\n        /* \"#utility.yul\":1387:1526   */\n    tag_393:\n        /* \"#utility.yul\":1433:1438   */\n      0x00\n        /* \"#utility.yul\":1471:1477   */\n      dup2\n        /* \"#utility.yul\":1458:1478   */\n      calldataload\n        /* \"#utility.yul\":1449:1478   */\n      swap1\n      pop\n        /* \"#utility.yul\":1487:1520   */\n      tag_470\n        /* \"#utility.yul\":1514:1519   */\n      dup2\n        /* \"#utility.yul\":1487:1520   */\n      tag_392\n      jump\t// in\n    tag_470:\n        /* \"#utility.yul\":1387:1526   */\n      swap3\n      swap2\n      pop\n      pop\n      jump\t// out\n        /* \"#utility.yul\":1532:2006   */\n    tag_47:\n        /* \"#utility.yul\":1600:1606   */\n      0x00\n        /* \"#utility.yul\":1608:1614   */\n      dup1\n        /* \"#utility.yul\":1657:1659   */\n      0x40\n        /* \"#utility.yul\":1645:1654   */\n      dup4\n        /* \"#utility.yul\":1636:1643   */\n      dup6\n        /* \"#utility.yul\":1632:1655   */\n      sub\n        /* \"#utility.yul\":1628:1660   */\n      slt\n        /* \"#utility.yul\":1625:1744   */\n      iszero\n      tag_472\n      jumpi\n        /* \"#utility.yul\":1663:1742   */\n      tag_473\n      tag_385\n      jump\t// in\n    tag_473:\n        /* \"#utility.yul\":1625:1744   */\n    tag_472:\n        /* \"#utility.yul\":1783:1784   */\n      0x00\n        /* \"#utility.yul\":1808:1861   */\n      tag_474\n        /* \"#utility.yul\":1853:1860   */\n      dup6\n        /* \"#utility.yul\":1844:1850   */\n      dup3\n        /* \"#utility.yul\":1833:1842   */\n      dup7\n        /* \"#utility.yul\":1829:1851   */\n      add\n        /* \"#utility.yul\":1808:1861   */\n      tag_393\n      jump\t// in\n    tag_474:\n        /* \"#utility.yul\":1798:1861   */\n      swap3\n      pop\n        /* \"#utility.yul\":1754:1871   */\n      pop\n        /* \"#utility.yul\":1910:1912   */\n      0x20\n        /* \"#utility.yul\":1936:1989   */\n      tag_475\n        /* \"#utility.yul\":1981:1988   */\n      dup6\n        /* \"#utility.yul\":1972:1978   */\n      dup3\n        /* \"#utility.yul\":1961:1970   */\n      dup7\n        /* \"#utility.yul\":1957:1979   */\n      add\n        /* \"#utility.yul\":1936:1989   */\n      tag_389\n      jump\t// in\n    tag_475:\n        /* \"#utility.yul\":1926:1989   */\n      swap2\n      pop\n        /* \"#utility.yul\":1881:1999   */\n      pop\n        /* \"#utility.yul\":1532:2006   */\n      swap3\n      pop\n      swap3\n      swap1\n      pop\n      jump\t// out\n        /* \"#utility.yul\":2012:2130   */\n    tag_394:\n        /* \"#utility.yul\":2099:2123   */\n      tag_477\n        /* \"#utility.yul\":2117:2122   */\n      dup2\n        /* \"#utility.yul\":2099:2123   */\n      tag_387\n      jump\t// in\n    tag_477:\n        /* \"#utility.yul\":2094:2097   */\n      dup3\n        /* \"#utility.yul\":2087:2124   */\n      mstore\n        /* \"#utility.yul\":2012:2130   */\n      pop\n      pop\n      jump\t// out\n        /* \"#utility.yul\":2136:2358   */\n    tag_50:\n        /* \"#utility.yul\":2229:2233   */\n      0x00\n        /* \"#utility.yul\":2267:2269   */\n      0x20\n        /* \"#utility.yul\":2256:2265   */\n      dup3\n        /* \"#utility.yul\":2252:2270   */\n      add\n        /* \"#utility.yul\":2244:2270   */\n      swap1\n      pop\n        /* \"#utility.yul\":2280:2351   */\n      tag_479\n        /* \"#utility.yul\":2348:2349   */\n      0x00\n        /* \"#utility.yul\":2337:2346   */\n      dup4\n        /* \"#utility.yul\":2333:2350   */\n      add\n        /* \"#utility.yul\":2324:2330   */\n      dup5\n        /* \"#utility.yul\":2280:2351   */\n      tag_394\n      jump\t// in\n    tag_479:\n        /* \"#utility.yul\":2136:2358   */\n      swap3\n      swap2\n      pop\n      pop\n      jump\t// out\n        /* \"#utility.yul\":2364:2693   */\n    tag_54:\n        /* \"#utility.yul\":2423:2429   */\n      0x00\n        /* \"#utility.yul\":2472:2474   */\n      0x20\n        /* \"#utility.yul\":2460:2469   */\n      dup3\n        /* \"#utility.yul\":2451:2458   */\n      dup5\n        /* \"#utility.yul\":2447:2470   */\n      sub\n        /* \"#utility.yul\":2443:2475   */\n      slt\n        /* \"#utility.yul\":2440:2559   */\n      iszero\n      tag_481\n      jumpi\n        /* \"#utility.yul\":2478:2557   */\n      tag_482\n      tag_385\n      jump\t// in\n    tag_482:\n        /* \"#utility.yul\":2440:2559   */\n    tag_481:\n        /* \"#utility.yul\":2598:2599   */\n      0x00\n        /* \"#utility.yul\":2623:2676   */\n      tag_483\n        /* \"#utility.yul\":2668:2675   */\n      dup5\n        /* \"#utility.yul\":2659:2665   */\n      dup3\n        /* \"#utility.yul\":2648:2657   */\n      dup6\n        /* \"#utility.yul\":2644:2666   */\n      add\n        /* \"#utility.yul\":2623:2676   */\n      tag_393\n      jump\t// in\n    tag_483:\n        /* \"#utility.yul\":2613:2676   */\n      swap2\n      pop\n        /* \"#utility.yul\":2569:2686   */\n      pop\n        /* \"#utility.yul\":2364:2693   */\n      swap3\n      swap2\n      pop\n      pop\n      jump\t// out\n        /* \"#utility.yul\":2699:3252   */\n    tag_86:\n        /* \"#utility.yul\":2876:2880   */\n      0x00\n        /* \"#utility.yul\":2914:2917   */\n      0x80\n        /* \"#utility.yul\":2903:2912   */\n      dup3\n        /* \"#utility.yul\":2899:2918   */\n      add\n        /* \"#utility.yul\":2891:2918   */\n      swap1\n      pop\n        /* \"#utility.yul\":2928:2999   */\n      tag_485\n        /* \"#utility.yul\":2996:2997   */\n      0x00\n        /* \"#utility.yul\":2985:2994   */\n      dup4\n        /* \"#utility.yul\":2981:2998   */\n      add\n        /* \"#utility.yul\":2972:2978   */\n      dup8\n        /* \"#utility.yul\":2928:2999   */\n      tag_394\n      jump\t// in\n    tag_485:\n        /* \"#utility.yul\":3009:3081   */\n      tag_486\n        /* \"#utility.yul\":3077:3079   */\n      0x20\n        /* \"#utility.yul\":3066:3075   */\n      dup4\n        /* \"#utility.yul\":3062:3080   */\n      add\n        /* \"#utility.yul\":3053:3059   */\n      dup7\n        /* \"#utility.yul\":3009:3081   */\n      tag_394\n      jump\t// in\n    tag_486:\n        /* \"#utility.yul\":3091:3163   */\n      tag_487\n        /* \"#utility.yul\":3159:3161   */\n      0x40\n        /* \"#utility.yul\":3148:3157   */\n      dup4\n        /* \"#utility.yul\":3144:3162   */\n      add\n        /* \"#utility.yul\":3135:3141   */\n      dup6\n        /* \"#utility.yul\":3091:3163   */\n      tag_394\n      jump\t// in\n    tag_487:\n        /* \"#utility.yul\":3173:3245   */\n      tag_488\n        /* \"#utility.yul\":3241:3243   */\n      0x60\n        /* \"#utility.yul\":3230:3239   */\n      dup4\n        /* \"#utility.yul\":3226:3244   */\n      add\n        /* \"#utility.yul\":3217:3223   */\n      dup5\n        /* \"#utility.yul\":3173:3245   */\n      tag_394\n      jump\t// in\n    tag_488:\n        /* \"#utility.yul\":2699:3252   */\n      swap6\n      swap5\n      pop\n      pop\n      pop\n      pop\n      pop\n      jump\t// out\n        /* \"#utility.yul\":3258:3348   */\n    tag_395:\n        /* \"#utility.yul\":3292:3299   */\n      0x00\n        /* \"#utility.yul\":3335:3340   */\n      dup2\n        /* \"#utility.yul\":3328:3341   */\n      iszero\n        /* \"#utility.yul\":3321:3342   */\n      iszero\n        /* \"#utility.yul\":3310:3342   */\n      swap1\n      pop\n        /* \"#utility.yul\":3258:3348   */\n      swap2\n      swap1\n      pop\n      jump\t// out\n        /* \"#utility.yul\":3354:3463   */\n    tag_396:\n        /* \"#utility.yul\":3435:3456   */\n      tag_491\n        /* \"#utility.yul\":3450:3455   */\n      dup2\n        /* \"#utility.yul\":3435:3456   */\n      tag_395\n      jump\t// in\n    tag_491:\n        /* \"#utility.yul\":3430:3433   */\n      dup3\n        /* \"#utility.yul\":3423:3457   */\n      mstore\n        /* \"#utility.yul\":3354:3463   */\n      pop\n      pop\n      jump\t// out\n        /* \"#utility.yul\":3469:3679   */\n    tag_122:\n        /* \"#utility.yul\":3556:3560   */\n      0x00\n        /* \"#utility.yul\":3594:3596   */\n      0x20\n        /* \"#utility.yul\":3583:3592   */\n      dup3\n        /* \"#utility.yul\":3579:3597   */\n      add\n        /* \"#utility.yul\":3571:3597   */\n      swap1\n      pop\n        /* \"#utility.yul\":3607:3672   */\n      tag_493\n        /* \"#utility.yul\":3669:3670   */\n      0x00\n        /* \"#utility.yul\":3658:3667   */\n      dup4\n        /* \"#utility.yul\":3654:3671   */\n      add\n        /* \"#utility.yul\":3645:3651   */\n      dup5\n        /* \"#utility.yul\":3607:3672   */\n      tag_396\n      jump\t// in\n    tag_493:\n        /* \"#utility.yul\":3469:3679   */\n      swap3\n      swap2\n      pop\n      pop\n      jump\t// out\n        /* \"#utility.yul\":3685:3803   */\n    tag_397:\n        /* \"#utility.yul\":3772:3796   */\n      tag_495\n        /* \"#utility.yul\":3790:3795   */\n      dup2\n        /* \"#utility.yul\":3772:3796   */\n      tag_391\n      jump\t// in\n    tag_495:\n        /* \"#utility.yul\":3767:3770   */\n      dup3\n        /* \"#utility.yul\":3760:3797   */\n      mstore\n        /* \"#utility.yul\":3685:3803   */\n      pop\n      pop\n      jump\t// out\n        /* \"#utility.yul\":3809:4031   */\n    tag_127:\n        /* \"#utility.yul\":3902:3906   */\n      0x00\n        /* \"#utility.yul\":3940:3942   */\n      0x20\n        /* \"#utility.yul\":3929:3938   */\n      dup3\n        /* \"#utility.yul\":3925:3943   */\n      add\n        /* \"#utility.yul\":3917:3943   */\n      swap1\n      pop\n        /* \"#utility.yul\":3953:4024   */\n      tag_497\n        /* \"#utility.yul\":4021:4022   */\n      0x00\n        /* \"#utility.yul\":4010:4019   */\n      dup4\n        /* \"#utility.yul\":4006:4023   */\n      add\n        /* \"#utility.yul\":3997:4003   */\n      dup5\n        /* \"#utility.yul\":3953:4024   */\n      tag_397\n      jump\t// in\n    tag_497:\n        /* \"#utility.yul\":3809:4031   */\n      swap3\n      swap2\n      pop\n      pop\n      jump\t// out\n        /* \"#utility.yul\":4037:4217   */\n    tag_398:\n        /* \"#utility.yul\":4085:4162   */\n      0x4e487b7100000000000000000000000000000000000000000000000000000000\n        /* \"#utility.yul\":4082:4083   */\n      0x00\n        /* \"#utility.yul\":4075:4163   */\n      mstore\n        /* \"#utility.yul\":4182:4186   */\n      0x11\n        /* \"#utility.yul\":4179:4180   */\n      0x04\n        /* \"#utility.yul\":4172:4187   */\n      mstore\n        /* \"#utility.yul\":4206:4210   */\n      0x24\n        /* \"#utility.yul\":4203:4204   */\n      0x00\n        /* \"#utility.yul\":4196:4211   */\n      revert\n        /* \"#utility.yul\":4223:4414   */\n    tag_172:\n        /* \"#utility.yul\":4263:4266   */\n      0x00\n        /* \"#utility.yul\":4282:4302   */\n      tag_500\n        /* \"#utility.yul\":4300:4301   */\n      dup3\n        /* \"#utility.yul\":4282:4302   */\n      tag_387\n      jump\t// in\n    tag_500:\n        /* \"#utility.yul\":4277:4302   */\n      swap2\n      pop\n        /* \"#utility.yul\":4316:4336   */\n      tag_501\n        /* \"#utility.yul\":4334:4335   */\n      dup4\n        /* \"#utility.yul\":4316:4336   */\n      tag_387\n      jump\t// in\n    tag_501:\n        /* \"#utility.yul\":4311:4336   */\n      swap3\n      pop\n        /* \"#utility.yul\":4359:4360   */\n      dup3\n        /* \"#utility.yul\":4356:4357   */\n      dup3\n        /* \"#utility.yul\":4352:4361   */\n      add\n        /* \"#utility.yul\":4345:4361   */\n      swap1\n      pop\n        /* \"#utility.yul\":4380:4383   */\n      dup1\n        /* \"#utility.yul\":4377:4378   */\n      dup3\n        /* \"#utility.yul\":4374:4384   */\n      gt\n        /* \"#utility.yul\":4371:4407   */\n      iszero\n      tag_502\n      jumpi\n        /* \"#utility.yul\":4387:4405   */\n      tag_503\n      tag_398\n      jump\t// in\n    tag_503:\n        /* \"#utility.yul\":4371:4407   */\n    tag_502:\n        /* \"#utility.yul\":4223:4414   */\n      swap3\n      swap2\n      pop\n      pop\n      jump\t// out\n        /* \"#utility.yul\":4420:4589   */\n    tag_399:\n        /* \"#utility.yul\":4504:4515   */\n      0x00\n        /* \"#utility.yul\":4538:4544   */\n      dup3\n        /* \"#utility.yul\":4533:4536   */\n      dup3\n        /* \"#utility.yul\":4526:4545   */\n      mstore\n        /* \"#utility.yul\":4578:4582   */\n      0x20\n        /* \"#utility.yul\":4573:4576   */\n      dup3\n        /* \"#utility.yul\":4569:4583   */\n      add\n        /* \"#utility.yul\":4554:4583   */\n      swap1\n      pop\n        /* \"#utility.yul\":4420:4589   */\n      swap3\n      swap2\n      pop\n      pop\n      jump\t// out\n        /* \"#utility.yul\":4595:4775   */\n    tag_400:\n        /* \"#utility.yul\":4735:4767   */\n      0x50726573616c653a20546f6b656e206e6f742077686974656c69737465640000\n        /* \"#utility.yul\":4731:4732   */\n      0x00\n        /* \"#utility.yul\":4723:4729   */\n      dup3\n        /* \"#utility.yul\":4719:4733   */\n      add\n        /* \"#utility.yul\":4712:4768   */\n      mstore\n        /* \"#utility.yul\":4595:4775   */\n      pop\n      jump\t// out\n        /* \"#utility.yul\":4781:5147   */\n    tag_401:\n        /* \"#utility.yul\":4923:4926   */\n      0x00\n        /* \"#utility.yul\":4944:5011   */\n      tag_507\n        /* \"#utility.yul\":5008:5010   */\n      0x1e\n        /* \"#utility.yul\":5003:5006   */\n      dup4\n        /* \"#utility.yul\":4944:5011   */\n      tag_399\n      jump\t// in\n    tag_507:\n        /* \"#utility.yul\":4937:5011   */\n      swap2\n      pop\n        /* \"#utility.yul\":5020:5113   */\n      tag_508\n        /* \"#utility.yul\":5109:5112   */\n      dup3\n        /* \"#utility.yul\":5020:5113   */\n      tag_400\n      jump\t// in\n    tag_508:\n        /* \"#utility.yul\":5138:5140   */\n      0x20\n        /* \"#utility.yul\":5133:5136   */\n      dup3\n        /* \"#utility.yul\":5129:5141   */\n      add\n        /* \"#utility.yul\":5122:5141   */\n      swap1\n      pop\n        /* \"#utility.yul\":4781:5147   */\n      swap2\n      swap1\n      pop\n      jump\t// out\n        /* \"#utility.yul\":5153:5572   */\n    tag_177:\n        /* \"#utility.yul\":5319:5323   */\n      0x00\n        /* \"#utility.yul\":5357:5359   */\n      0x20\n        /* \"#utility.yul\":5346:5355   */\n      dup3\n        /* \"#utility.yul\":5342:5360   */\n      add\n        /* \"#utility.yul\":5334:5360   */\n      swap1\n      pop\n        /* \"#utility.yul\":5406:5415   */\n      dup2\n        /* \"#utility.yul\":5400:5404   */\n      dup2\n        /* \"#utility.yul\":5396:5416   */\n      sub\n        /* \"#utility.yul\":5392:5393   */\n      0x00\n        /* \"#utility.yul\":5381:5390   */\n      dup4\n        /* \"#utility.yul\":5377:5394   */\n      add\n        /* \"#utility.yul\":5370:5417   */\n      mstore\n        /* \"#utility.yul\":5434:5565   */\n      tag_510\n        /* \"#utility.yul\":5560:5564   */\n      dup2\n        /* \"#utility.yul\":5434:5565   */\n      tag_401\n      jump\t// in\n    tag_510:\n        /* \"#utility.yul\":5426:5565   */\n      swap1\n      pop\n        /* \"#utility.yul\":5153:5572   */\n      swap2\n      swap1\n      pop\n      jump\t// out\n        /* \"#utility.yul\":5578:5680   */\n    tag_402:\n        /* \"#utility.yul\":5620:5628   */\n      0x00\n        /* \"#utility.yul\":5667:5672   */\n      dup2\n        /* \"#utility.yul\":5664:5665   */\n      0x01\n        /* \"#utility.yul\":5660:5673   */\n      shr\n        /* \"#utility.yul\":5639:5673   */\n      swap1\n      pop\n        /* \"#utility.yul\":5578:5680   */\n      swap2\n      swap1\n      pop\n      jump\t// out\n        /* \"#utility.yul\":5686:6534   */\n    tag_403:\n        /* \"#utility.yul\":5747:5752   */\n      0x00\n        /* \"#utility.yul\":5754:5758   */\n      dup1\n        /* \"#utility.yul\":5778:5784   */\n      dup3\n        /* \"#utility.yul\":5769:5784   */\n      swap2\n      pop\n        /* \"#utility.yul\":5802:5807   */\n      dup4\n        /* \"#utility.yul\":5793:5807   */\n      swap1\n      pop\n        /* \"#utility.yul\":5816:6528   */\n    tag_513:\n        /* \"#utility.yul\":5837:5838   */\n      0x01\n        /* \"#utility.yul\":5827:5835   */\n      dup6\n        /* \"#utility.yul\":5824:5839   */\n      gt\n        /* \"#utility.yul\":5816:6528   */\n      iszero\n      tag_515\n      jumpi\n        /* \"#utility.yul\":5932:5936   */\n      dup1\n        /* \"#utility.yul\":5927:5930   */\n      dup7\n        /* \"#utility.yul\":5923:5937   */\n      div\n        /* \"#utility.yul\":5917:5921   */\n      dup2\n        /* \"#utility.yul\":5914:5938   */\n      gt\n        /* \"#utility.yul\":5911:5961   */\n      iszero\n      tag_516\n      jumpi\n        /* \"#utility.yul\":5941:5959   */\n      tag_517\n      tag_398\n      jump\t// in\n    tag_517:\n        /* \"#utility.yul\":5911:5961   */\n    tag_516:\n        /* \"#utility.yul\":5991:5992   */\n      0x01\n        /* \"#utility.yul\":5981:5989   */\n      dup6\n        /* \"#utility.yul\":5977:5993   */\n      and\n        /* \"#utility.yul\":5974:6425   */\n      iszero\n      tag_518\n      jumpi\n        /* \"#utility.yul\":6406:6410   */\n      dup1\n        /* \"#utility.yul\":6399:6404   */\n      dup3\n        /* \"#utility.yul\":6395:6411   */\n      mul\n        /* \"#utility.yul\":6386:6411   */\n      swap2\n      pop\n        /* \"#utility.yul\":5974:6425   */\n    tag_518:\n        /* \"#utility.yul\":6456:6460   */\n      dup1\n        /* \"#utility.yul\":6450:6454   */\n      dup2\n        /* \"#utility.yul\":6446:6461   */\n      mul\n        /* \"#utility.yul\":6438:6461   */\n      swap1\n      pop\n        /* \"#utility.yul\":6486:6518   */\n      tag_519\n        /* \"#utility.yul\":6509:6517   */\n      dup6\n        /* \"#utility.yul\":6486:6518   */\n      tag_402\n      jump\t// in\n    tag_519:\n        /* \"#utility.yul\":6474:6518   */\n      swap5\n      pop\n        /* \"#utility.yul\":5816:6528   */\n      jump(tag_513)\n    tag_515:\n        /* \"#utility.yul\":5686:6534   */\n      swap5\n      pop\n      swap5\n      swap3\n      pop\n      pop\n      pop\n      jump\t// out\n        /* \"#utility.yul\":6540:7613   */\n    tag_404:\n        /* \"#utility.yul\":6594:6599   */\n      0x00\n        /* \"#utility.yul\":6785:6793   */\n      dup3\n        /* \"#utility.yul\":6775:6815   */\n      tag_521\n      jumpi\n        /* \"#utility.yul\":6806:6807   */\n      0x01\n        /* \"#utility.yul\":6797:6807   */\n      swap1\n      pop\n        /* \"#utility.yul\":6808:6813   */\n      jump(tag_520)\n        /* \"#utility.yul\":6775:6815   */\n    tag_521:\n        /* \"#utility.yul\":6834:6838   */\n      dup2\n        /* \"#utility.yul\":6824:6860   */\n      tag_522\n      jumpi\n        /* \"#utility.yul\":6851:6852   */\n      0x00\n        /* \"#utility.yul\":6842:6852   */\n      swap1\n      pop\n        /* \"#utility.yul\":6853:6858   */\n      jump(tag_520)\n        /* \"#utility.yul\":6824:6860   */\n    tag_522:\n        /* \"#utility.yul\":6920:6924   */\n      dup2\n        /* \"#utility.yul\":6968:6969   */\n      0x01\n        /* \"#utility.yul\":6963:6990   */\n      dup2\n      eq\n      tag_524\n      jumpi\n        /* \"#utility.yul\":7004:7005   */\n      0x02\n        /* \"#utility.yul\":6999:7190   */\n      dup2\n      eq\n      tag_525\n      jumpi\n        /* \"#utility.yul\":6913:7190   */\n      jump(tag_523)\n        /* \"#utility.yul\":6963:6990   */\n    tag_524:\n        /* \"#utility.yul\":6981:6982   */\n      0x01\n        /* \"#utility.yul\":6972:6982   */\n      swap2\n      pop\n        /* \"#utility.yul\":6983:6988   */\n      pop\n      jump(tag_520)\n        /* \"#utility.yul\":6999:7190   */\n    tag_525:\n        /* \"#utility.yul\":7044:7047   */\n      0xff\n        /* \"#utility.yul\":7034:7042   */\n      dup5\n        /* \"#utility.yul\":7031:7048   */\n      gt\n        /* \"#utility.yul\":7028:7071   */\n      iszero\n      tag_526\n      jumpi\n        /* \"#utility.yul\":7051:7069   */\n      tag_527\n      tag_398\n      jump\t// in\n    tag_527:\n        /* \"#utility.yul\":7028:7071   */\n    tag_526:\n        /* \"#utility.yul\":7100:7108   */\n      dup4\n        /* \"#utility.yul\":7097:7098   */\n      0x02\n        /* \"#utility.yul\":7093:7109   */\n      exp\n        /* \"#utility.yul\":7084:7109   */\n      swap2\n      pop\n        /* \"#utility.yul\":7135:7138   */\n      dup5\n        /* \"#utility.yul\":7128:7133   */\n      dup3\n        /* \"#utility.yul\":7125:7139   */\n      gt\n        /* \"#utility.yul\":7122:7162   */\n      iszero\n      tag_528\n      jumpi\n        /* \"#utility.yul\":7142:7160   */\n      tag_529\n      tag_398\n      jump\t// in\n    tag_529:\n        /* \"#utility.yul\":7122:7162   */\n    tag_528:\n        /* \"#utility.yul\":7175:7180   */\n      pop\n      jump(tag_520)\n        /* \"#utility.yul\":6913:7190   */\n    tag_523:\n      pop\n        /* \"#utility.yul\":7299:7301   */\n      0x20\n        /* \"#utility.yul\":7289:7297   */\n      dup4\n        /* \"#utility.yul\":7286:7302   */\n      lt\n        /* \"#utility.yul\":7280:7283   */\n      0x0133\n        /* \"#utility.yul\":7274:7278   */\n      dup4\n        /* \"#utility.yul\":7271:7284   */\n      lt\n        /* \"#utility.yul\":7267:7303   */\n      and\n        /* \"#utility.yul\":7249:7251   */\n      0x4e\n        /* \"#utility.yul\":7239:7247   */\n      dup5\n        /* \"#utility.yul\":7236:7252   */\n      lt\n        /* \"#utility.yul\":7231:7233   */\n      0x0b\n        /* \"#utility.yul\":7225:7229   */\n      dup5\n        /* \"#utility.yul\":7222:7234   */\n      lt\n        /* \"#utility.yul\":7218:7253   */\n      and\n        /* \"#utility.yul\":7202:7313   */\n      or\n        /* \"#utility.yul\":7199:7445   */\n      iszero\n      tag_530\n      jumpi\n        /* \"#utility.yul\":7355:7363   */\n      dup3\n        /* \"#utility.yul\":7349:7353   */\n      dup3\n        /* \"#utility.yul\":7345:7364   */\n      exp\n        /* \"#utility.yul\":7336:7364   */\n      swap1\n      pop\n        /* \"#utility.yul\":7390:7393   */\n      dup4\n        /* \"#utility.yul\":7383:7388   */\n      dup2\n        /* \"#utility.yul\":7380:7394   */\n      gt\n        /* \"#utility.yul\":7377:7417   */\n      iszero\n      tag_531\n      jumpi\n        /* \"#utility.yul\":7397:7415   */\n      tag_532\n      tag_398\n      jump\t// in\n    tag_532:\n        /* \"#utility.yul\":7377:7417   */\n    tag_531:\n        /* \"#utility.yul\":7430:7435   */\n      jump(tag_520)\n        /* \"#utility.yul\":7199:7445   */\n    tag_530:\n        /* \"#utility.yul\":7470:7512   */\n      tag_533\n        /* \"#utility.yul\":7508:7511   */\n      dup5\n        /* \"#utility.yul\":7498:7506   */\n      dup5\n        /* \"#utility.yul\":7492:7496   */\n      dup5\n        /* \"#utility.yul\":7489:7490   */\n      0x01\n        /* \"#utility.yul\":7470:7512   */\n      tag_403\n      jump\t// in\n    tag_533:\n        /* \"#utility.yul\":7455:7512   */\n      swap3\n      pop\n      swap1\n      pop\n        /* \"#utility.yul\":7544:7548   */\n      dup2\n        /* \"#utility.yul\":7539:7542   */\n      dup5\n        /* \"#utility.yul\":7535:7549   */\n      div\n        /* \"#utility.yul\":7528:7533   */\n      dup2\n        /* \"#utility.yul\":7525:7550   */\n      gt\n        /* \"#utility.yul\":7522:7573   */\n      iszero\n      tag_534\n      jumpi\n        /* \"#utility.yul\":7553:7571   */\n      tag_535\n      tag_398\n      jump\t// in\n    tag_535:\n        /* \"#utility.yul\":7522:7573   */\n    tag_534:\n        /* \"#utility.yul\":7602:7606   */\n      dup2\n        /* \"#utility.yul\":7595:7600   */\n      dup2\n        /* \"#utility.yul\":7591:7607   */\n      mul\n        /* \"#utility.yul\":7582:7607   */\n      swap1\n      pop\n        /* \"#utility.yul\":6540:7613   */\n    tag_520:\n      swap4\n      swap3\n      pop\n      pop\n      pop\n      jump\t// out\n        /* \"#utility.yul\":7619:7904   */\n    tag_181:\n        /* \"#utility.yul\":7679:7684   */\n      0x00\n        /* \"#utility.yul\":7703:7726   */\n      tag_537\n        /* \"#utility.yul\":7721:7725   */\n      dup3\n        /* \"#utility.yul\":7703:7726   */\n      tag_387\n      jump\t// in\n    tag_537:\n        /* \"#utility.yul\":7695:7726   */\n      swap2\n      pop\n        /* \"#utility.yul\":7747:7774   */\n      tag_538\n        /* \"#utility.yul\":7765:7773   */\n      dup4\n        /* \"#utility.yul\":7747:7774   */\n      tag_387\n      jump\t// in\n    tag_538:\n        /* \"#utility.yul\":7735:7774   */\n      swap3\n      pop\n        /* \"#utility.yul\":7793:7897   */\n      tag_539\n        /* \"#utility.yul\":7830:7896   */\n      0xffffffffffffffffffffffffffffffffffffffffffffffffffffffffffffffff\n        /* \"#utility.yul\":7820:7828   */\n      dup5\n        /* \"#utility.yul\":7814:7818   */\n      dup5\n        /* \"#utility.yul\":7793:7897   */\n      tag_404\n      jump\t// in\n    tag_539:\n        /* \"#utility.yul\":7784:7897   */\n      swap1\n      pop\n        /* \"#utility.yul\":7619:7904   */\n      swap3\n      swap2\n      pop\n      pop\n      jump\t// out\n        /* \"#utility.yul\":7910:8320   */\n    tag_183:\n        /* \"#utility.yul\":7950:7957   */\n      0x00\n        /* \"#utility.yul\":7973:7993   */\n      tag_541\n        /* \"#utility.yul\":7991:7992   */\n      dup3\n        /* \"#utility.yul\":7973:7993   */\n      tag_387\n      jump\t// in\n    tag_541:\n        /* \"#utility.yul\":7968:7993   */\n      swap2\n      pop\n        /* \"#utility.yul\":8007:8027   */\n      tag_542\n        /* \"#utility.yul\":8025:8026   */\n      dup4\n        /* \"#utility.yul\":8007:8027   */\n      tag_387\n      jump\t// in\n    tag_542:\n        /* \"#utility.yul\":8002:8027   */\n      swap3\n      pop\n        /* \"#utility.yul\":8062:8063   */\n      dup3\n        /* \"#utility.yul\":8059:8060   */\n      dup3\n        /* \"#utility.yul\":8055:8064   */\n      mul\n        /* \"#utility.yul\":8084:8114   */\n      tag_543\n        /* \"#utility.yul\":8102:8113   */\n      dup2\n        /* \"#utility.yul\":8084:8114   */\n      tag_387\n      jump\t// in\n    tag_543:\n        /* \"#utility.yul\":8073:8114   */\n      swap2\n      pop\n        /* \"#utility.yul\":8263:8264   */\n      dup3\n        /* \"#utility.yul\":8254:8261   */\n      dup3\n        /* \"#utility.yul\":8250:8265   */\n      div\n        /* \"#utility.yul\":8247:8248   */\n      dup5\n        /* \"#utility.yul\":8244:8266   */\n      eq\n        /* \"#utility.yul\":8224:8225   */\n      dup4\n        /* \"#utility.yul\":8217:8226   */\n      iszero\n        /* \"#utility.yul\":8197:8280   */\n      or\n        /* \"#utility.yul\":8174:8313   */\n      tag_544\n      jumpi\n        /* \"#utility.yul\":8293:8311   */\n      tag_545\n      tag_398\n      jump\t// in\n    tag_545:\n        /* \"#utility.yul\":8174:8313   */\n    tag_544:\n        /* \"#utility.yul\":7958:8320   */\n      pop\n        /* \"#utility.yul\":7910:8320   */\n      swap3\n      swap2\n      pop\n      pop\n      jump\t// out\n        /* \"#utility.yul\":8326:8506   */\n    tag_405:\n        /* \"#utility.yul\":8374:8451   */\n      0x4e487b7100000000000000000000000000000000000000000000000000000000\n        /* \"#utility.yul\":8371:8372   */\n      0x00\n        /* \"#utility.yul\":8364:8452   */\n      mstore\n        /* \"#utility.yul\":8471:8475   */\n      0x12\n        /* \"#utility.yul\":8468:8469   */\n      0x04\n        /* \"#utility.yul\":8461:8476   */\n      mstore\n        /* \"#utility.yul\":8495:8499   */\n      0x24\n        /* \"#utility.yul\":8492:8493   */\n      0x00\n        /* \"#utility.yul\":8485:8500   */\n      revert\n        /* \"#utility.yul\":8512:8697   */\n    tag_185:\n        /* \"#utility.yul\":8552:8553   */\n      0x00\n        /* \"#utility.yul\":8569:8589   */\n      tag_548\n        /* \"#utility.yul\":8587:8588   */\n      dup3\n        /* \"#utility.yul\":8569:8589   */\n      tag_387\n      jump\t// in\n    tag_548:\n        /* \"#utility.yul\":8564:8589   */\n      swap2\n      pop\n        /* \"#utility.yul\":8603:8623   */\n      tag_549\n        /* \"#utility.yul\":8621:8622   */\n      dup4\n        /* \"#utility.yul\":8603:8623   */\n      tag_387\n      jump\t// in\n    tag_549:\n        /* \"#utility.yul\":8598:8623   */\n      swap3\n      pop\n        /* \"#utility.yul\":8642:8643   */\n      dup3\n        /* \"#utility.yul\":8632:8667   */\n      tag_550\n      jumpi\n        /* \"#utility.yul\":8647:8665   */\n      tag_551\n      tag_405\n      jump\t// in\n    tag_551:\n        /* \"#utility.yul\":8632:8667   */\n    tag_550:\n        /* \"#utility.yul\":8689:8690   */\n      dup3\n        /* \"#utility.yul\":8686:8687   */\n      dup3\n        /* \"#utility.yul\":8682:8691   */\n      div\n        /* \"#utility.yul\":8677:8691   */\n      swap1\n      pop\n        /* \"#utility.yul\":8512:8697   */\n      swap3\n      swap2\n      pop\n      pop\n      jump\t// out\n        /* \"#utility.yul\":8703:9035   */\n    tag_198:\n        /* \"#utility.yul\":8824:8828   */\n      0x00\n        /* \"#utility.yul\":8862:8864   */\n      0x40\n        /* \"#utility.yul\":8851:8860   */\n      dup3\n        /* \"#utility.yul\":8847:8865   */\n      add\n        /* \"#utility.yul\":8839:8865   */\n      swap1\n      pop\n        /* \"#utility.yul\":8875:8946   */\n      tag_553\n        /* \"#utility.yul\":8943:8944   */\n      0x00\n        /* \"#utility.yul\":8932:8941   */\n      dup4\n        /* \"#utility.yul\":8928:8945   */\n      add\n        /* \"#utility.yul\":8919:8925   */\n      dup6\n        /* \"#utility.yul\":8875:8946   */\n      tag_397\n      jump\t// in\n    tag_553:\n        /* \"#utility.yul\":8956:9028   */\n      tag_554\n        /* \"#utility.yul\":9024:9026   */\n      0x20\n        /* \"#utility.yul\":9013:9022   */\n      dup4\n        /* \"#utility.yul\":9009:9027   */\n      add\n        /* \"#utility.yul\":9000:9006   */\n      dup5\n        /* \"#utility.yul\":8956:9028   */\n      tag_394\n      jump\t// in\n    tag_554:\n        /* \"#utility.yul\":8703:9035   */\n      swap4\n      swap3\n      pop\n      pop\n      pop\n      jump\t// out\n        /* \"#utility.yul\":9041:9264   */\n    tag_406:\n        /* \"#utility.yul\":9181:9215   */\n      0x50726573616c653a2050726573616c6520686173206e6f742073746172746564\n        /* \"#utility.yul\":9177:9178   */\n      0x00\n        /* \"#utility.yul\":9169:9175   */\n      dup3\n        /* \"#utility.yul\":9165:9179   */\n      add\n        /* \"#utility.yul\":9158:9216   */\n      mstore\n        /* \"#utility.yul\":9250:9256   */\n      0x2079657400000000000000000000000000000000000000000000000000000000\n        /* \"#utility.yul\":9245:9247   */\n      0x20\n        /* \"#utility.yul\":9237:9243   */\n      dup3\n        /* \"#utility.yul\":9233:9248   */\n      add\n        /* \"#utility.yul\":9226:9257   */\n      mstore\n        /* \"#utility.yul\":9041:9264   */\n      pop\n      jump\t// out\n        /* \"#utility.yul\":9270:9636   */\n    tag_407:\n        /* \"#utility.yul\":9412:9415   */\n      0x00\n        /* \"#utility.yul\":9433:9500   */\n      tag_557\n        /* \"#utility.yul\":9497:9499   */\n      0x24\n        /* \"#utility.yul\":9492:9495   */\n      dup4\n        /* \"#utility.yul\":9433:9500   */\n      tag_399\n      jump\t// in\n    tag_557:\n        /* \"#utility.yul\":9426:9500   */\n      swap2\n      pop\n        /* \"#utility.yul\":9509:9602   */\n      tag_558\n        /* \"#utility.yul\":9598:9601   */\n      dup3\n        /* \"#utility.yul\":9509:9602   */\n      tag_406\n      jump\t// in\n    tag_558:\n        /* \"#utility.yul\":9627:9629   */\n      0x40\n        /* \"#utility.yul\":9622:9625   */\n      dup3\n        /* \"#utility.yul\":9618:9630   */\n      add\n        /* \"#utility.yul\":9611:9630   */\n      swap1\n      pop\n        /* \"#utility.yul\":9270:9636   */\n      swap2\n      swap1\n      pop\n      jump\t// out\n        /* \"#utility.yul\":9642:10061   */\n    tag_219:\n        /* \"#utility.yul\":9808:9812   */\n      0x00\n        /* \"#utility.yul\":9846:9848   */\n      0x20\n        /* \"#utility.yul\":9835:9844   */\n      dup3\n        /* \"#utility.yul\":9831:9849   */\n      add\n        /* \"#utility.yul\":9823:9849   */\n      swap1\n      pop\n        /* \"#utility.yul\":9895:9904   */\n      dup2\n        /* \"#utility.yul\":9889:9893   */\n      dup2\n        /* \"#utility.yul\":9885:9905   */\n      sub\n        /* \"#utility.yul\":9881:9882   */\n      0x00\n        /* \"#utility.yul\":9870:9879   */\n      dup4\n        /* \"#utility.yul\":9866:9883   */\n      add\n        /* \"#utility.yul\":9859:9906   */\n      mstore\n        /* \"#utility.yul\":9923:10054   */\n      tag_560\n        /* \"#utility.yul\":10049:10053   */\n      dup2\n        /* \"#utility.yul\":9923:10054   */\n      tag_407\n      jump\t// in\n    tag_560:\n        /* \"#utility.yul\":9915:10054   */\n      swap1\n      pop\n        /* \"#utility.yul\":9642:10061   */\n      swap2\n      swap1\n      pop\n      jump\t// out\n        /* \"#utility.yul\":10067:10243   */\n    tag_408:\n        /* \"#utility.yul\":10207:10235   */\n      0x50726573616c653a2050726573616c652068617320656e646564000000000000\n        /* \"#utility.yul\":10203:10204   */\n      0x00\n        /* \"#utility.yul\":10195:10201   */\n      dup3\n        /* \"#utility.yul\":10191:10205   */\n      add\n        /* \"#utility.yul\":10184:10236   */\n      mstore\n        /* \"#utility.yul\":10067:10243   */\n      pop\n      jump\t// out\n        /* \"#utility.yul\":10249:10615   */\n    tag_409:\n        /* \"#utility.yul\":10391:10394   */\n      0x00\n        /* \"#utility.yul\":10412:10479   */\n      tag_563\n        /* \"#utility.yul\":10476:10478   */\n      0x1a\n        /* \"#utility.yul\":10471:10474   */\n      dup4\n        /* \"#utility.yul\":10412:10479   */\n      tag_399\n      jump\t// in\n    tag_563:\n        /* \"#utility.yul\":10405:10479   */\n      swap2\n      pop\n        /* \"#utility.yul\":10488:10581   */\n      tag_564\n        /* \"#utility.yul\":10577:10580   */\n      dup3\n        /* \"#utility.yul\":10488:10581   */\n      tag_408\n      jump\t// in\n    tag_564:\n        /* \"#utility.yul\":10606:10608   */\n      0x20\n        /* \"#utility.yul\":10601:10604   */\n      dup3\n        /* \"#utility.yul\":10597:10609   */\n      add\n        /* \"#utility.yul\":10590:10609   */\n      swap1\n      pop\n        /* \"#utility.yul\":10249:10615   */\n      swap2\n      swap1\n      pop\n      jump\t// out\n        /* \"#utility.yul\":10621:11040   */\n    tag_223:\n        /* \"#utility.yul\":10787:10791   */\n      0x00\n        /* \"#utility.yul\":10825:10827   */\n      0x20\n        /* \"#utility.yul\":10814:10823   */\n      dup3\n        /* \"#utility.yul\":10810:10828   */\n      add\n        /* \"#utility.yul\":10802:10828   */\n      swap1\n      pop\n        /* \"#utility.yul\":10874:10883   */\n      dup2\n        /* \"#utility.yul\":10868:10872   */\n      dup2\n        /* \"#utility.yul\":10864:10884   */\n      sub\n        /* \"#utility.yul\":10860:10861   */\n      0x00\n        /* \"#utility.yul\":10849:10858   */\n      dup4\n        /* \"#utility.yul\":10845:10862   */\n      add\n        /* \"#utility.yul\":10838:10885   */\n      mstore\n        /* \"#utility.yul\":10902:11033   */\n      tag_566\n        /* \"#utility.yul\":11028:11032   */\n      dup2\n        /* \"#utility.yul\":10902:11033   */\n      tag_409\n      jump\t// in\n    tag_566:\n        /* \"#utility.yul\":10894:11033   */\n      swap1\n      pop\n        /* \"#utility.yul\":10621:11040   */\n      swap2\n      swap1\n      pop\n      jump\t// out\n        /* \"#utility.yul\":11046:11267   */\n    tag_410:\n        /* \"#utility.yul\":11186:11220   */\n      0x50726573616c653a20546f74616c20546f6b656e2053616c6520526561636865\n        /* \"#utility.yul\":11182:11183   */\n      0x00\n        /* \"#utility.yul\":11174:11180   */\n      dup3\n        /* \"#utility.yul\":11170:11184   */\n      add\n        /* \"#utility.yul\":11163:11221   */\n      mstore\n        /* \"#utility.yul\":11255:11259   */\n      0x6421000000000000000000000000000000000000000000000000000000000000\n        /* \"#utility.yul\":11250:11252   */\n      0x20\n        /* \"#utility.yul\":11242:11248   */\n      dup3\n        /* \"#utility.yul\":11238:11253   */\n      add\n        /* \"#utility.yul\":11231:11260   */\n      mstore\n        /* \"#utility.yul\":11046:11267   */\n      pop\n      jump\t// out\n        /* \"#utility.yul\":11273:11639   */\n    tag_411:\n        /* \"#utility.yul\":11415:11418   */\n      0x00\n        /* \"#utility.yul\":11436:11503   */\n      tag_569\n        /* \"#utility.yul\":11500:11502   */\n      0x22\n        /* \"#utility.yul\":11495:11498   */\n      dup4\n        /* \"#utility.yul\":11436:11503   */\n      tag_399\n      jump\t// in\n    tag_569:\n        /* \"#utility.yul\":11429:11503   */\n      swap2\n      pop\n        /* \"#utility.yul\":11512:11605   */\n      tag_570\n        /* \"#utility.yul\":11601:11604   */\n      dup3\n        /* \"#utility.yul\":11512:11605   */\n      tag_410\n      jump\t// in\n    tag_570:\n        /* \"#utility.yul\":11630:11632   */\n      0x40\n        /* \"#utility.yul\":11625:11628   */\n      dup3\n        /* \"#utility.yul\":11621:11633   */\n      add\n        /* \"#utility.yul\":11614:11633   */\n      swap1\n      pop\n        /* \"#utility.yul\":11273:11639   */\n      swap2\n      swap1\n      pop\n      jump\t// out\n        /* \"#utility.yul\":11645:12064   */\n    tag_232:\n        /* \"#utility.yul\":11811:11815   */\n      0x00\n        /* \"#utility.yul\":11849:11851   */\n      0x20\n        /* \"#utility.yul\":11838:11847   */\n      dup3\n        /* \"#utility.yul\":11834:11852   */\n      add\n        /* \"#utility.yul\":11826:11852   */\n      swap1\n      pop\n        /* \"#utility.yul\":11898:11907   */\n      dup2\n        /* \"#utility.yul\":11892:11896   */\n      dup2\n        /* \"#utility.yul\":11888:11908   */\n      sub\n        /* \"#utility.yul\":11884:11885   */\n      0x00\n        /* \"#utility.yul\":11873:11882   */\n      dup4\n        /* \"#utility.yul\":11869:11886   */\n      add\n        /* \"#utility.yul\":11862:11909   */\n      mstore\n        /* \"#utility.yul\":11926:12057   */\n      tag_572\n        /* \"#utility.yul\":12052:12056   */\n      dup2\n        /* \"#utility.yul\":11926:12057   */\n      tag_411\n      jump\t// in\n    tag_572:\n        /* \"#utility.yul\":11918:12057   */\n      swap1\n      pop\n        /* \"#utility.yul\":11645:12064   */\n      swap2\n      swap1\n      pop\n      jump\t// out\n        /* \"#utility.yul\":12070:12298   */\n    tag_412:\n        /* \"#utility.yul\":12210:12244   */\n      0x50726573616c653a20546f6b656e20616d6f756e742062656c6f77206d696e20\n        /* \"#utility.yul\":12206:12207   */\n      0x00\n        /* \"#utility.yul\":12198:12204   */\n      dup3\n        /* \"#utility.yul\":12194:12208   */\n      add\n        /* \"#utility.yul\":12187:12245   */\n      mstore\n        /* \"#utility.yul\":12279:12290   */\n      0x627579206c696d69740000000000000000000000000000000000000000000000\n        /* \"#utility.yul\":12274:12276   */\n      0x20\n        /* \"#utility.yul\":12266:12272   */\n      dup3\n        /* \"#utility.yul\":12262:12277   */\n      add\n        /* \"#utility.yul\":12255:12291   */\n      mstore\n        /* \"#utility.yul\":12070:12298   */\n      pop\n      jump\t// out\n        /* \"#utility.yul\":12304:12670   */\n    tag_413:\n        /* \"#utility.yul\":12446:12449   */\n      0x00\n        /* \"#utility.yul\":12467:12534   */\n      tag_575\n        /* \"#utility.yul\":12531:12533   */\n      0x29\n        /* \"#utility.yul\":12526:12529   */\n      dup4\n        /* \"#utility.yul\":12467:12534   */\n      tag_399\n      jump\t// in\n    tag_575:\n        /* \"#utility.yul\":12460:12534   */\n      swap2\n      pop\n        /* \"#utility.yul\":12543:12636   */\n      tag_576\n        /* \"#utility.yul\":12632:12635   */\n      dup3\n        /* \"#utility.yul\":12543:12636   */\n      tag_412\n      jump\t// in\n    tag_576:\n        /* \"#utility.yul\":12661:12663   */\n      0x40\n        /* \"#utility.yul\":12656:12659   */\n      dup3\n        /* \"#utility.yul\":12652:12664   */\n      add\n        /* \"#utility.yul\":12645:12664   */\n      swap1\n      pop\n        /* \"#utility.yul\":12304:12670   */\n      swap2\n      swap1\n      pop\n      jump\t// out\n        /* \"#utility.yul\":12676:13095   */\n    tag_236:\n        /* \"#utility.yul\":12842:12846   */\n      0x00\n        /* \"#utility.yul\":12880:12882   */\n      0x20\n        /* \"#utility.yul\":12869:12878   */\n      dup3\n        /* \"#utility.yul\":12865:12883   */\n      add\n        /* \"#utility.yul\":12857:12883   */\n      swap1\n      pop\n        /* \"#utility.yul\":12929:12938   */\n      dup2\n        /* \"#utility.yul\":12923:12927   */\n      dup2\n        /* \"#utility.yul\":12919:12939   */\n      sub\n        /* \"#utility.yul\":12915:12916   */\n      0x00\n        /* \"#utility.yul\":12904:12913   */\n      dup4\n        /* \"#utility.yul\":12900:12917   */\n      add\n        /* \"#utility.yul\":12893:12940   */\n      mstore\n        /* \"#utility.yul\":12957:13088   */\n      tag_578\n        /* \"#utility.yul\":13083:13087   */\n      dup2\n        /* \"#utility.yul\":12957:13088   */\n      tag_413\n      jump\t// in\n    tag_578:\n        /* \"#utility.yul\":12949:13088   */\n      swap1\n      pop\n        /* \"#utility.yul\":12676:13095   */\n      swap2\n      swap1\n      pop\n      jump\t// out\n        /* \"#utility.yul\":13101:13323   */\n    tag_414:\n        /* \"#utility.yul\":13241:13275   */\n      0x50726573616c653a20416d6f756e742062656c6f77206d696e20627579206c69\n        /* \"#utility.yul\":13237:13238   */\n      0x00\n        /* \"#utility.yul\":13229:13235   */\n      dup3\n        /* \"#utility.yul\":13225:13239   */\n      add\n        /* \"#utility.yul\":13218:13276   */\n      mstore\n        /* \"#utility.yul\":13310:13315   */\n      0x6d69740000000000000000000000000000000000000000000000000000000000\n        /* \"#utility.yul\":13305:13307   */\n      0x20\n        /* \"#utility.yul\":13297:13303   */\n      dup3\n        /* \"#utility.yul\":13293:13308   */\n      add\n        /* \"#utility.yul\":13286:13316   */\n      mstore\n        /* \"#utility.yul\":13101:13323   */\n      pop\n      jump\t// out\n        /* \"#utility.yul\":13329:13695   */\n    tag_415:\n        /* \"#utility.yul\":13471:13474   */\n      0x00\n        /* \"#utility.yul\":13492:13559   */\n      tag_581\n        /* \"#utility.yul\":13556:13558   */\n      0x23\n        /* \"#utility.yul\":13551:13554   */\n      dup4\n        /* \"#utility.yul\":13492:13559   */\n      tag_399\n      jump\t// in\n    tag_581:\n        /* \"#utility.yul\":13485:13559   */\n      swap2\n      pop\n        /* \"#utility.yul\":13568:13661   */\n      tag_582\n        /* \"#utility.yul\":13657:13660   */\n      dup3\n        /* \"#utility.yul\":13568:13661   */\n      tag_414\n      jump\t// in\n    tag_582:\n        /* \"#utility.yul\":13686:13688   */\n      0x40\n        /* \"#utility.yul\":13681:13684   */\n      dup3\n        /* \"#utility.yul\":13677:13689   */\n      add\n        /* \"#utility.yul\":13670:13689   */\n      swap1\n      pop\n        /* \"#utility.yul\":13329:13695   */\n      swap2\n      swap1\n      pop\n      jump\t// out\n        /* \"#utility.yul\":13701:14120   */\n    tag_242:\n        /* \"#utility.yul\":13867:13871   */\n      0x00\n        /* \"#utility.yul\":13905:13907   */\n      0x20\n        /* \"#utility.yul\":13894:13903   */\n      dup3\n        /* \"#utility.yul\":13890:13908   */\n      add\n        /* \"#utility.yul\":13882:13908   */\n      swap1\n      pop\n        /* \"#utility.yul\":13954:13963   */\n      dup2\n        /* \"#utility.yul\":13948:13952   */\n      dup2\n        /* \"#utility.yul\":13944:13964   */\n      sub\n        /* \"#utility.yul\":13940:13941   */\n      0x00\n        /* \"#utility.yul\":13929:13938   */\n      dup4\n        /* \"#utility.yul\":13925:13942   */\n      add\n        /* \"#utility.yul\":13918:13965   */\n      mstore\n        /* \"#utility.yul\":13982:14113   */\n      tag_584\n        /* \"#utility.yul\":14108:14112   */\n      dup2\n        /* \"#utility.yul\":13982:14113   */\n      tag_415\n      jump\t// in\n    tag_584:\n        /* \"#utility.yul\":13974:14113   */\n      swap1\n      pop\n        /* \"#utility.yul\":13701:14120   */\n      swap2\n      swap1\n      pop\n      jump\t// out\n        /* \"#utility.yul\":14126:14458   */\n    tag_250:\n        /* \"#utility.yul\":14247:14251   */\n      0x00\n        /* \"#utility.yul\":14285:14287   */\n      0x40\n        /* \"#utility.yul\":14274:14283   */\n      dup3\n        /* \"#utility.yul\":14270:14288   */\n      add\n        /* \"#utility.yul\":14262:14288   */\n      swap1\n      pop\n        /* \"#utility.yul\":14298:14369   */\n      tag_586\n        /* \"#utility.yul\":14366:14367   */\n      0x00\n        /* \"#utility.yul\":14355:14364   */\n      dup4\n        /* \"#utility.yul\":14351:14368   */\n      add\n        /* \"#utility.yul\":14342:14348   */\n      dup6\n        /* \"#utility.yul\":14298:14369   */\n      tag_394\n      jump\t// in\n    tag_586:\n        /* \"#utility.yul\":14379:14451   */\n      tag_587\n        /* \"#utility.yul\":14447:14449   */\n      0x20\n        /* \"#utility.yul\":14436:14445   */\n      dup4\n        /* \"#utility.yul\":14432:14450   */\n      add\n        /* \"#utility.yul\":14423:14429   */\n      dup5\n        /* \"#utility.yul\":14379:14451   */\n      tag_394\n      jump\t// in\n    tag_587:\n        /* \"#utility.yul\":14126:14458   */\n      swap4\n      swap3\n      pop\n      pop\n      pop\n      jump\t// out\n        /* \"#utility.yul\":14464:14693   */\n    tag_416:\n        /* \"#utility.yul\":14604:14638   */\n      0x50726573616c653a2053616c6520746f6b656e2063616e6e6f74206265207a65\n        /* \"#utility.yul\":14600:14601   */\n      0x00\n        /* \"#utility.yul\":14592:14598   */\n      dup3\n        /* \"#utility.yul\":14588:14602   */\n      add\n        /* \"#utility.yul\":14581:14639   */\n      mstore\n        /* \"#utility.yul\":14673:14685   */\n      0x726f206164647265737300000000000000000000000000000000000000000000\n        /* \"#utility.yul\":14668:14670   */\n      0x20\n        /* \"#utility.yul\":14660:14666   */\n      dup3\n        /* \"#utility.yul\":14656:14671   */\n      add\n        /* \"#utility.yul\":14649:14686   */\n      mstore\n        /* \"#utility.yul\":14464:14693   */\n      pop\n      jump\t// out\n        /* \"#utility.yul\":14699:15065   */\n    tag_417:\n        /* \"#utility.yul\":14841:14844   */\n      0x00\n        /* \"#utility.yul\":14862:14929   */\n      tag_590\n        /* \"#utility.yul\":14926:14928   */\n      0x2a\n        /* \"#utility.yul\":14921:14924   */\n      dup4\n        /* \"#utility.yul\":14862:14929   */\n      tag_399\n      jump\t// in\n    tag_590:\n        /* \"#utility.yul\":14855:14929   */\n      swap2\n      pop\n        /* \"#utility.yul\":14938:15031   */\n      tag_591\n        /* \"#utility.yul\":15027:15030   */\n      dup3\n        /* \"#utility.yul\":14938:15031   */\n      tag_416\n      jump\t// in\n    tag_591:\n        /* \"#utility.yul\":15056:15058   */\n      0x40\n        /* \"#utility.yul\":15051:15054   */\n      dup3\n        /* \"#utility.yul\":15047:15059   */\n      add\n        /* \"#utility.yul\":15040:15059   */\n      swap1\n      pop\n        /* \"#utility.yul\":14699:15065   */\n      swap2\n      swap1\n      pop\n      jump\t// out\n        /* \"#utility.yul\":15071:15490   */\n    tag_264:\n        /* \"#utility.yul\":15237:15241   */\n      0x00\n        /* \"#utility.yul\":15275:15277   */\n      0x20\n        /* \"#utility.yul\":15264:15273   */\n      dup3\n        /* \"#utility.yul\":15260:15278   */\n      add\n        /* \"#utility.yul\":15252:15278   */\n      swap1\n      pop\n        /* \"#utility.yul\":15324:15333   */\n      dup2\n        /* \"#utility.yul\":15318:15322   */\n      dup2\n        /* \"#utility.yul\":15314:15334   */\n      sub\n        /* \"#utility.yul\":15310:15311   */\n      0x00\n        /* \"#utility.yul\":15299:15308   */\n      dup4\n        /* \"#utility.yul\":15295:15312   */\n      add\n        /* \"#utility.yul\":15288:15335   */\n      mstore\n        /* \"#utility.yul\":15352:15483   */\n      tag_593\n        /* \"#utility.yul\":15478:15482   */\n      dup2\n        /* \"#utility.yul\":15352:15483   */\n      tag_417\n      jump\t// in\n    tag_593:\n        /* \"#utility.yul\":15344:15483   */\n      swap1\n      pop\n        /* \"#utility.yul\":15071:15490   */\n      swap2\n      swap1\n      pop\n      jump\t// out\n        /* \"#utility.yul\":15496:15728   */\n    tag_418:\n        /* \"#utility.yul\":15636:15670   */\n      0x50726573616c653a20546f74616c20746f6b656e7320666f722073616c652063\n        /* \"#utility.yul\":15632:15633   */\n      0x00\n        /* \"#utility.yul\":15624:15630   */\n      dup3\n        /* \"#utility.yul\":15620:15634   */\n      add\n        /* \"#utility.yul\":15613:15671   */\n      mstore\n        /* \"#utility.yul\":15705:15720   */\n      0x616e6e6f74206265207a65726f00000000000000000000000000000000000000\n        /* \"#utility.yul\":15700:15702   */\n      0x20\n        /* \"#utility.yul\":15692:15698   */\n      dup3\n        /* \"#utility.yul\":15688:15703   */\n      add\n        /* \"#utility.yul\":15681:15721   */\n      mstore\n        /* \"#utility.yul\":15496:15728   */\n      pop\n      jump\t// out\n        /* \"#utility.yul\":15734:16100   */\n    tag_419:\n        /* \"#utility.yul\":15876:15879   */\n      0x00\n        /* \"#utility.yul\":15897:15964   */\n      tag_596\n        /* \"#utility.yul\":15961:15963   */\n      0x2d\n        /* \"#utility.yul\":15956:15959   */\n      dup4\n        /* \"#utility.yul\":15897:15964   */\n      tag_399\n      jump\t// in\n    tag_596:\n        /* \"#utility.yul\":15890:15964   */\n      swap2\n      pop\n        /* \"#utility.yul\":15973:16066   */\n      tag_597\n        /* \"#utility.yul\":16062:16065   */\n      dup3\n        /* \"#utility.yul\":15973:16066   */\n      tag_418\n      jump\t// in\n    tag_597:\n        /* \"#utility.yul\":16091:16093   */\n      0x40\n        /* \"#utility.yul\":16086:16089   */\n      dup3\n        /* \"#utility.yul\":16082:16094   */\n      add\n        /* \"#utility.yul\":16075:16094   */\n      swap1\n      pop\n        /* \"#utility.yul\":15734:16100   */\n      swap2\n      swap1\n      pop\n      jump\t// out\n        /* \"#utility.yul\":16106:16525   */\n    tag_267:\n        /* \"#utility.yul\":16272:16276   */\n      0x00\n        /* \"#utility.yul\":16310:16312   */\n      0x20\n        /* \"#utility.yul\":16299:16308   */\n      dup3\n        /* \"#utility.yul\":16295:16313   */\n      add\n        /* \"#utility.yul\":16287:16313   */\n      swap1\n      pop\n        /* \"#utility.yul\":16359:16368   */\n      dup2\n        /* \"#utility.yul\":16353:16357   */\n      dup2\n        /* \"#utility.yul\":16349:16369   */\n      sub\n        /* \"#utility.yul\":16345:16346   */\n      0x00\n        /* \"#utility.yul\":16334:16343   */\n      dup4\n        /* \"#utility.yul\":16330:16347   */\n      add\n        /* \"#utility.yul\":16323:16370   */\n      mstore\n        /* \"#utility.yul\":16387:16518   */\n      tag_599\n        /* \"#utility.yul\":16513:16517   */\n      dup2\n        /* \"#utility.yul\":16387:16518   */\n      tag_419\n      jump\t// in\n    tag_599:\n        /* \"#utility.yul\":16379:16518   */\n      swap1\n      pop\n        /* \"#utility.yul\":16106:16525   */\n      swap2\n      swap1\n      pop\n      jump\t// out\n        /* \"#utility.yul\":16531:16617   */\n    tag_420:\n        /* \"#utility.yul\":16566:16573   */\n      0x00\n        /* \"#utility.yul\":16606:16610   */\n      0xff\n        /* \"#utility.yul\":16599:16604   */\n      dup3\n        /* \"#utility.yul\":16595:16611   */\n      and\n        /* \"#utility.yul\":16584:16611   */\n      swap1\n      pop\n        /* \"#utility.yul\":16531:16617   */\n      swap2\n      swap1\n      pop\n      jump\t// out\n        /* \"#utility.yul\":16623:16741   */\n    tag_421:\n        /* \"#utility.yul\":16694:16716   */\n      tag_602\n        /* \"#utility.yul\":16710:16715   */\n      dup2\n        /* \"#utility.yul\":16694:16716   */\n      tag_420\n      jump\t// in\n    tag_602:\n        /* \"#utility.yul\":16687:16692   */\n      dup2\n        /* \"#utility.yul\":16684:16717   */\n      eq\n        /* \"#utility.yul\":16674:16735   */\n      tag_603\n      jumpi\n        /* \"#utility.yul\":16731:16732   */\n      0x00\n        /* \"#utility.yul\":16728:16729   */\n      dup1\n        /* \"#utility.yul\":16721:16733   */\n      revert\n        /* \"#utility.yul\":16674:16735   */\n    tag_603:\n        /* \"#utility.yul\":16623:16741   */\n      pop\n      jump\t// out\n        /* \"#utility.yul\":16747:16886   */\n    tag_422:\n        /* \"#utility.yul\":16802:16807   */\n      0x00\n        /* \"#utility.yul\":16833:16839   */\n      dup2\n        /* \"#utility.yul\":16827:16840   */\n      mload\n        /* \"#utility.yul\":16818:16840   */\n      swap1\n      pop\n        /* \"#utility.yul\":16849:16880   */\n      tag_605\n        /* \"#utility.yul\":16874:16879   */\n      dup2\n        /* \"#utility.yul\":16849:16880   */\n      tag_421\n      jump\t// in\n    tag_605:\n        /* \"#utility.yul\":16747:16886   */\n      swap3\n      swap2\n      pop\n      pop\n      jump\t// out\n        /* \"#utility.yul\":16892:17239   */\n    tag_271:\n        /* \"#utility.yul\":16960:16966   */\n      0x00\n        /* \"#utility.yul\":17009:17011   */\n      0x20\n        /* \"#utility.yul\":16997:17006   */\n      dup3\n        /* \"#utility.yul\":16988:16995   */\n      dup5\n        /* \"#utility.yul\":16984:17007   */\n      sub\n        /* \"#utility.yul\":16980:17012   */\n      slt\n        /* \"#utility.yul\":16977:17096   */\n      iszero\n      tag_607\n      jumpi\n        /* \"#utility.yul\":17015:17094   */\n      tag_608\n      tag_385\n      jump\t// in\n    tag_608:\n        /* \"#utility.yul\":16977:17096   */\n    tag_607:\n        /* \"#utility.yul\":17135:17136   */\n      0x00\n        /* \"#utility.yul\":17160:17222   */\n      tag_609\n        /* \"#utility.yul\":17214:17221   */\n      dup5\n        /* \"#utility.yul\":17205:17211   */\n      dup3\n        /* \"#utility.yul\":17194:17203   */\n      dup6\n        /* \"#utility.yul\":17190:17212   */\n      add\n        /* \"#utility.yul\":17160:17222   */\n      tag_422\n      jump\t// in\n    tag_609:\n        /* \"#utility.yul\":17150:17222   */\n      swap2\n      pop\n        /* \"#utility.yul\":17106:17232   */\n      pop\n        /* \"#utility.yul\":16892:17239   */\n      swap3\n      swap2\n      pop\n      pop\n      jump\t// out\n        /* \"#utility.yul\":17245:17388   */\n    tag_423:\n        /* \"#utility.yul\":17302:17307   */\n      0x00\n        /* \"#utility.yul\":17333:17339   */\n      dup2\n        /* \"#utility.yul\":17327:17340   */\n      mload\n        /* \"#utility.yul\":17318:17340   */\n      swap1\n      pop\n        /* \"#utility.yul\":17349:17382   */\n      tag_611\n        /* \"#utility.yul\":17376:17381   */\n      dup2\n        /* \"#utility.yul\":17349:17382   */\n      tag_388\n      jump\t// in\n    tag_611:\n        /* \"#utility.yul\":17245:17388   */\n      swap3\n      swap2\n      pop\n      pop\n      jump\t// out\n        /* \"#utility.yul\":17394:17745   */\n    tag_277:\n        /* \"#utility.yul\":17464:17470   */\n      0x00\n        /* \"#utility.yul\":17513:17515   */\n      0x20\n        /* \"#utility.yul\":17501:17510   */\n      dup3\n        /* \"#utility.yul\":17492:17499   */\n      dup5\n        /* \"#utility.yul\":17488:17511   */\n      sub\n        /* \"#utility.yul\":17484:17516   */\n      slt\n        /* \"#utility.yul\":17481:17600   */\n      iszero\n      tag_613\n      jumpi\n        /* \"#utility.yul\":17519:17598   */\n      tag_614\n      tag_385\n      jump\t// in\n    tag_614:\n        /* \"#utility.yul\":17481:17600   */\n    tag_613:\n        /* \"#utility.yul\":17639:17640   */\n      0x00\n        /* \"#utility.yul\":17664:17728   */\n      tag_615\n        /* \"#utility.yul\":17720:17727   */\n      dup5\n        /* \"#utility.yul\":17711:17717   */\n      dup3\n        /* \"#utility.yul\":17700:17709   */\n      dup6\n        /* \"#utility.yul\":17696:17718   */\n      add\n        /* \"#utility.yul\":17664:17728   */\n      tag_423\n      jump\t// in\n    tag_615:\n        /* \"#utility.yul\":17654:17728   */\n      swap2\n      pop\n        /* \"#utility.yul\":17610:17738   */\n      pop\n        /* \"#utility.yul\":17394:17745   */\n      swap3\n      swap2\n      pop\n      pop\n      jump\t// out\n        /* \"#utility.yul\":17751:17972   */\n    tag_424:\n        /* \"#utility.yul\":17891:17925   */\n      0x50726573616c653a2050726573616c6520686173206e6f7420656e6465642079\n        /* \"#utility.yul\":17887:17888   */\n      0x00\n        /* \"#utility.yul\":17879:17885   */\n      dup3\n        /* \"#utility.yul\":17875:17889   */\n      add\n        /* \"#utility.yul\":17868:17926   */\n      mstore\n        /* \"#utility.yul\":17960:17964   */\n      0x6574000000000000000000000000000000000000000000000000000000000000\n        /* \"#utility.yul\":17955:17957   */\n      0x20\n        /* \"#utility.yul\":17947:17953   */\n      dup3\n        /* \"#utility.yul\":17943:17958   */\n      add\n        /* \"#utility.yul\":17936:17965   */\n      mstore\n        /* \"#utility.yul\":17751:17972   */\n      pop\n      jump\t// out\n        /* \"#utility.yul\":17978:18344   */\n    tag_425:\n        /* \"#utility.yul\":18120:18123   */\n      0x00\n        /* \"#utility.yul\":18141:18208   */\n      tag_618\n        /* \"#utility.yul\":18205:18207   */\n      0x22\n        /* \"#utility.yul\":18200:18203   */\n      dup4\n        /* \"#utility.yul\":18141:18208   */\n      tag_399\n      jump\t// in\n    tag_618:\n        /* \"#utility.yul\":18134:18208   */\n      swap2\n      pop\n        /* \"#utility.yul\":18217:18310   */\n      tag_619\n        /* \"#utility.yul\":18306:18309   */\n      dup3\n        /* \"#utility.yul\":18217:18310   */\n      tag_424\n      jump\t// in\n    tag_619:\n        /* \"#utility.yul\":18335:18337   */\n      0x40\n        /* \"#utility.yul\":18330:18333   */\n      dup3\n        /* \"#utility.yul\":18326:18338   */\n      add\n        /* \"#utility.yul\":18319:18338   */\n      swap1\n      pop\n        /* \"#utility.yul\":17978:18344   */\n      swap2\n      swap1\n      pop\n      jump\t// out\n        /* \"#utility.yul\":18350:18769   */\n    tag_288:\n        /* \"#utility.yul\":18516:18520   */\n      0x00\n        /* \"#utility.yul\":18554:18556   */\n      0x20\n        /* \"#utility.yul\":18543:18552   */\n      dup3\n        /* \"#utility.yul\":18539:18557   */\n      add\n        /* \"#utility.yul\":18531:18557   */\n      swap1\n      pop\n        /* \"#utility.yul\":18603:18612   */\n      dup2\n        /* \"#utility.yul\":18597:18601   */\n      dup2\n        /* \"#utility.yul\":18593:18613   */\n      sub\n        /* \"#utility.yul\":18589:18590   */\n      0x00\n        /* \"#utility.yul\":18578:18587   */\n      dup4\n        /* \"#utility.yul\":18574:18591   */\n      add\n        /* \"#utility.yul\":18567:18614   */\n      mstore\n        /* \"#utility.yul\":18631:18762   */\n      tag_621\n        /* \"#utility.yul\":18757:18761   */\n      dup2\n        /* \"#utility.yul\":18631:18762   */\n      tag_425\n      jump\t// in\n    tag_621:\n        /* \"#utility.yul\":18623:18762   */\n      swap1\n      pop\n        /* \"#utility.yul\":18350:18769   */\n      swap2\n      swap1\n      pop\n      jump\t// out\n        /* \"#utility.yul\":18775:19000   */\n    tag_426:\n        /* \"#utility.yul\":18915:18949   */\n      0x4f776e61626c653a206e6577206f776e657220697320746865207a65726f2061\n        /* \"#utility.yul\":18911:18912   */\n      0x00\n        /* \"#utility.yul\":18903:18909   */\n      dup3\n        /* \"#utility.yul\":18899:18913   */\n      add\n        /* \"#utility.yul\":18892:18950   */\n      mstore\n        /* \"#utility.yul\":18984:18992   */\n      0x6464726573730000000000000000000000000000000000000000000000000000\n        /* \"#utility.yul\":18979:18981   */\n      0x20\n        /* \"#utility.yul\":18971:18977   */\n      dup3\n        /* \"#utility.yul\":18967:18982   */\n      add\n        /* \"#utility.yul\":18960:18993   */\n      mstore\n        /* \"#utility.yul\":18775:19000   */\n      pop\n      jump\t// out\n        /* \"#utility.yul\":19006:19372   */\n    tag_427:\n        /* \"#utility.yul\":19148:19151   */\n      0x00\n        /* \"#utility.yul\":19169:19236   */\n      tag_624\n        /* \"#utility.yul\":19233:19235   */\n      0x26\n        /* \"#utility.yul\":19228:19231   */\n      dup4\n        /* \"#utility.yul\":19169:19236   */\n      tag_399\n      jump\t// in\n    tag_624:\n        /* \"#utility.yul\":19162:19236   */\n      swap2\n      pop\n        /* \"#utility.yul\":19245:19338   */\n      tag_625\n        /* \"#utility.yul\":19334:19337   */\n      dup3\n        /* \"#utility.yul\":19245:19338   */\n      tag_426\n      jump\t// in\n    tag_625:\n        /* \"#utility.yul\":19363:19365   */\n      0x40\n        /* \"#utility.yul\":19358:19361   */\n      dup3\n        /* \"#utility.yul\":19354:19366   */\n      add\n        /* \"#utility.yul\":19347:19366   */\n      swap1\n      pop\n        /* \"#utility.yul\":19006:19372   */\n      swap2\n      swap1\n      pop\n      jump\t// out\n        /* \"#utility.yul\":19378:19797   */\n    tag_296:\n        /* \"#utility.yul\":19544:19548   */\n      0x00\n        /* \"#utility.yul\":19582:19584   */\n      0x20\n        /* \"#utility.yul\":19571:19580   */\n      dup3\n        /* \"#utility.yul\":19567:19585   */\n      add\n        /* \"#utility.yul\":19559:19585   */\n      swap1\n      pop\n        /* \"#utility.yul\":19631:19640   */\n      dup2\n        /* \"#utility.yul\":19625:19629   */\n      dup2\n        /* \"#utility.yul\":19621:19641   */\n      sub\n        /* \"#utility.yul\":19617:19618   */\n      0x00\n        /* \"#utility.yul\":19606:19615   */\n      dup4\n        /* \"#utility.yul\":19602:19619   */\n      add\n        /* \"#utility.yul\":19595:19642   */\n      mstore\n        /* \"#utility.yul\":19659:19790   */\n      tag_627\n        /* \"#utility.yul\":19785:19789   */\n      dup2\n        /* \"#utility.yul\":19659:19790   */\n      tag_427\n      jump\t// in\n    tag_627:\n        /* \"#utility.yul\":19651:19790   */\n      swap1\n      pop\n        /* \"#utility.yul\":19378:19797   */\n      swap2\n      swap1\n      pop\n      jump\t// out\n        /* \"#utility.yul\":19803:20112   */\n    tag_428:\n        /* \"#utility.yul\":19943:19977   */\n      0x50726573616c653a2043616e6e6f742077697468647261772073616c6520746f\n        /* \"#utility.yul\":19939:19940   */\n      0x00\n        /* \"#utility.yul\":19931:19937   */\n      dup3\n        /* \"#utility.yul\":19927:19941   */\n      add\n        /* \"#utility.yul\":19920:19978   */\n      mstore\n        /* \"#utility.yul\":20012:20046   */\n      0x6b656e20776974682074686973206d6574686f642c2075736520776974686472\n        /* \"#utility.yul\":20007:20009   */\n      0x20\n        /* \"#utility.yul\":19999:20005   */\n      dup3\n        /* \"#utility.yul\":19995:20010   */\n      add\n        /* \"#utility.yul\":19988:20047   */\n      mstore\n        /* \"#utility.yul\":20081:20104   */\n      0x617753616c65546f6b656e282920696e73746561640000000000000000000000\n        /* \"#utility.yul\":20076:20078   */\n      0x40\n        /* \"#utility.yul\":20068:20074   */\n      dup3\n        /* \"#utility.yul\":20064:20079   */\n      add\n        /* \"#utility.yul\":20057:20105   */\n      mstore\n        /* \"#utility.yul\":19803:20112   */\n      pop\n      jump\t// out\n        /* \"#utility.yul\":20118:20484   */\n    tag_429:\n        /* \"#utility.yul\":20260:20263   */\n      0x00\n        /* \"#utility.yul\":20281:20348   */\n      tag_630\n        /* \"#utility.yul\":20345:20347   */\n      0x55\n        /* \"#utility.yul\":20340:20343   */\n      dup4\n        /* \"#utility.yul\":20281:20348   */\n      tag_399\n      jump\t// in\n    tag_630:\n        /* \"#utility.yul\":20274:20348   */\n      swap2\n      pop\n        /* \"#utility.yul\":20357:20450   */\n      tag_631\n        /* \"#utility.yul\":20446:20449   */\n      dup3\n        /* \"#utility.yul\":20357:20450   */\n      tag_428\n      jump\t// in\n    tag_631:\n        /* \"#utility.yul\":20475:20477   */\n      0x60\n        /* \"#utility.yul\":20470:20473   */\n      dup3\n        /* \"#utility.yul\":20466:20478   */\n      add\n        /* \"#utility.yul\":20459:20478   */\n      swap1\n      pop\n        /* \"#utility.yul\":20118:20484   */\n      swap2\n      swap1\n      pop\n      jump\t// out\n        /* \"#utility.yul\":20490:20909   */\n    tag_303:\n        /* \"#utility.yul\":20656:20660   */\n      0x00\n        /* \"#utility.yul\":20694:20696   */\n      0x20\n        /* \"#utility.yul\":20683:20692   */\n      dup3\n        /* \"#utility.yul\":20679:20697   */\n      add\n        /* \"#utility.yul\":20671:20697   */\n      swap1\n      pop\n        /* \"#utility.yul\":20743:20752   */\n      dup2\n        /* \"#utility.yul\":20737:20741   */\n      dup2\n        /* \"#utility.yul\":20733:20753   */\n      sub\n        /* \"#utility.yul\":20729:20730   */\n      0x00\n        /* \"#utility.yul\":20718:20727   */\n      dup4\n        /* \"#utility.yul\":20714:20731   */\n      add\n        /* \"#utility.yul\":20707:20754   */\n      mstore\n        /* \"#utility.yul\":20771:20902   */\n      tag_633\n        /* \"#utility.yul\":20897:20901   */\n      dup2\n        /* \"#utility.yul\":20771:20902   */\n      tag_429\n      jump\t// in\n    tag_633:\n        /* \"#utility.yul\":20763:20902   */\n      swap1\n      pop\n        /* \"#utility.yul\":20490:20909   */\n      swap2\n      swap1\n      pop\n      jump\t// out\n        /* \"#utility.yul\":20915:21227   */\n    tag_430:\n        /* \"#utility.yul\":21055:21089   */\n      0x50726573616c653a2043616e6e6f742077697468647261772073616c6520746f\n        /* \"#utility.yul\":21051:21052   */\n      0x00\n        /* \"#utility.yul\":21043:21049   */\n      dup3\n        /* \"#utility.yul\":21039:21053   */\n      add\n        /* \"#utility.yul\":21032:21090   */\n      mstore\n        /* \"#utility.yul\":21124:21158   */\n      0x6b656e20776974682074686973206d6574686f642c2075736520776974686472\n        /* \"#utility.yul\":21119:21121   */\n      0x20\n        /* \"#utility.yul\":21111:21117   */\n      dup3\n        /* \"#utility.yul\":21107:21122   */\n      add\n        /* \"#utility.yul\":21100:21159   */\n      mstore\n        /* \"#utility.yul\":21193:21219   */\n      0x6177416c6c53616c65546f6b656e282920696e73746561640000000000000000\n        /* \"#utility.yul\":21188:21190   */\n      0x40\n        /* \"#utility.yul\":21180:21186   */\n      dup3\n        /* \"#utility.yul\":21176:21191   */\n      add\n        /* \"#utility.yul\":21169:21220   */\n      mstore\n        /* \"#utility.yul\":20915:21227   */\n      pop\n      jump\t// out\n        /* \"#utility.yul\":21233:21599   */\n    tag_431:\n        /* \"#utility.yul\":21375:21378   */\n      0x00\n        /* \"#utility.yul\":21396:21463   */\n      tag_636\n        /* \"#utility.yul\":21460:21462   */\n      0x58\n        /* \"#utility.yul\":21455:21458   */\n      dup4\n        /* \"#utility.yul\":21396:21463   */\n      tag_399\n      jump\t// in\n    tag_636:\n        /* \"#utility.yul\":21389:21463   */\n      swap2\n      pop\n        /* \"#utility.yul\":21472:21565   */\n      tag_637\n        /* \"#utility.yul\":21561:21564   */\n      dup3\n        /* \"#utility.yul\":21472:21565   */\n      tag_430\n      jump\t// in\n    tag_637:\n        /* \"#utility.yul\":21590:21592   */\n      0x60\n        /* \"#utility.yul\":21585:21588   */\n      dup3\n        /* \"#utility.yul\":21581:21593   */\n      add\n        /* \"#utility.yul\":21574:21593   */\n      swap1\n      pop\n        /* \"#utility.yul\":21233:21599   */\n      swap2\n      swap1\n      pop\n      jump\t// out\n        /* \"#utility.yul\":21605:22024   */\n    tag_310:\n        /* \"#utility.yul\":21771:21775   */\n      0x00\n        /* \"#utility.yul\":21809:21811   */\n      0x20\n        /* \"#utility.yul\":21798:21807   */\n      dup3\n        /* \"#utility.yul\":21794:21812   */\n      add\n        /* \"#utility.yul\":21786:21812   */\n      swap1\n      pop\n        /* \"#utility.yul\":21858:21867   */\n      dup2\n        /* \"#utility.yul\":21852:21856   */\n      dup2\n        /* \"#utility.yul\":21848:21868   */\n      sub\n        /* \"#utility.yul\":21844:21845   */\n      0x00\n        /* \"#utility.yul\":21833:21842   */\n      dup4\n        /* \"#utility.yul\":21829:21846   */\n      add\n        /* \"#utility.yul\":21822:21869   */\n      mstore\n        /* \"#utility.yul\":21886:22017   */\n      tag_639\n        /* \"#utility.yul\":22012:22016   */\n      dup2\n        /* \"#utility.yul\":21886:22017   */\n      tag_431\n      jump\t// in\n    tag_639:\n        /* \"#utility.yul\":21878:22017   */\n      swap1\n      pop\n        /* \"#utility.yul\":21605:22024   */\n      swap2\n      swap1\n      pop\n      jump\t// out\n        /* \"#utility.yul\":22030:22212   */\n    tag_432:\n        /* \"#utility.yul\":22170:22204   */\n      0x4f776e61626c653a2063616c6c6572206973206e6f7420746865206f776e6572\n        /* \"#utility.yul\":22166:22167   */\n      0x00\n        /* \"#utility.yul\":22158:22164   */\n      dup3\n        /* \"#utility.yul\":22154:22168   */\n      add\n        /* \"#utility.yul\":22147:22205   */\n      mstore\n        /* \"#utility.yul\":22030:22212   */\n      pop\n      jump\t// out\n        /* \"#utility.yul\":22218:22584   */\n    tag_433:\n        /* \"#utility.yul\":22360:22363   */\n      0x00\n        /* \"#utility.yul\":22381:22448   */\n      tag_642\n        /* \"#utility.yul\":22445:22447   */\n      0x20\n        /* \"#utility.yul\":22440:22443   */\n      dup4\n        /* \"#utility.yul\":22381:22448   */\n      tag_399\n      jump\t// in\n    tag_642:\n        /* \"#utility.yul\":22374:22448   */\n      swap2\n      pop\n        /* \"#utility.yul\":22457:22550   */\n      tag_643\n        /* \"#utility.yul\":22546:22549   */\n      dup3\n        /* \"#utility.yul\":22457:22550   */\n      tag_432\n      jump\t// in\n    tag_643:\n        /* \"#utility.yul\":22575:22577   */\n      0x20\n        /* \"#utility.yul\":22570:22573   */\n      dup3\n        /* \"#utility.yul\":22566:22578   */\n      add\n        /* \"#utility.yul\":22559:22578   */\n      swap1\n      pop\n        /* \"#utility.yul\":22218:22584   */\n      swap2\n      swap1\n      pop\n      jump\t// out\n        /* \"#utility.yul\":22590:23009   */\n    tag_333:\n        /* \"#utility.yul\":22756:22760   */\n      0x00\n        /* \"#utility.yul\":22794:22796   */\n      0x20\n        /* \"#utility.yul\":22783:22792   */\n      dup3\n        /* \"#utility.yul\":22779:22797   */\n      add\n        /* \"#utility.yul\":22771:22797   */\n      swap1\n      pop\n        /* \"#utility.yul\":22843:22852   */\n      dup2\n        /* \"#utility.yul\":22837:22841   */\n      dup2\n        /* \"#utility.yul\":22833:22853   */\n      sub\n        /* \"#utility.yul\":22829:22830   */\n      0x00\n        /* \"#utility.yul\":22818:22827   */\n      dup4\n        /* \"#utility.yul\":22814:22831   */\n      add\n        /* \"#utility.yul\":22807:22854   */\n      mstore\n        /* \"#utility.yul\":22871:23002   */\n      tag_645\n        /* \"#utility.yul\":22997:23001   */\n      dup2\n        /* \"#utility.yul\":22871:23002   */\n      tag_433\n      jump\t// in\n    tag_645:\n        /* \"#utility.yul\":22863:23002   */\n      swap1\n      pop\n        /* \"#utility.yul\":22590:23009   */\n      swap2\n      swap1\n      pop\n      jump\t// out\n        /* \"#utility.yul\":23015:23457   */\n    tag_341:\n        /* \"#utility.yul\":23164:23168   */\n      0x00\n        /* \"#utility.yul\":23202:23204   */\n      0x60\n        /* \"#utility.yul\":23191:23200   */\n      dup3\n        /* \"#utility.yul\":23187:23205   */\n      add\n        /* \"#utility.yul\":23179:23205   */\n      swap1\n      pop\n        /* \"#utility.yul\":23215:23286   */\n      tag_647\n        /* \"#utility.yul\":23283:23284   */\n      0x00\n        /* \"#utility.yul\":23272:23281   */\n      dup4\n        /* \"#utility.yul\":23268:23285   */\n      add\n        /* \"#utility.yul\":23259:23265   */\n      dup7\n        /* \"#utility.yul\":23215:23286   */\n      tag_397\n      jump\t// in\n    tag_647:\n        /* \"#utility.yul\":23296:23368   */\n      tag_648\n        /* \"#utility.yul\":23364:23366   */\n      0x20\n        /* \"#utility.yul\":23353:23362   */\n      dup4\n        /* \"#utility.yul\":23349:23367   */\n      add\n        /* \"#utility.yul\":23340:23346   */\n      dup6\n        /* \"#utility.yul\":23296:23368   */\n      tag_397\n      jump\t// in\n    tag_648:\n        /* \"#utility.yul\":23378:23450   */\n      tag_649\n        /* \"#utility.yul\":23446:23448   */\n      0x40\n        /* \"#utility.yul\":23435:23444   */\n      dup4\n        /* \"#utility.yul\":23431:23449   */\n      add\n        /* \"#utility.yul\":23422:23428   */\n      dup5\n        /* \"#utility.yul\":23378:23450   */\n      tag_394\n      jump\t// in\n    tag_649:\n        /* \"#utility.yul\":23015:23457   */\n      swap5\n      swap4\n      pop\n      pop\n      pop\n      pop\n      jump\t// out\n        /* \"#utility.yul\":23463:23579   */\n    tag_434:\n        /* \"#utility.yul\":23533:23554   */\n      tag_651\n        /* \"#utility.yul\":23548:23553   */\n      dup2\n        /* \"#utility.yul\":23533:23554   */\n      tag_395\n      jump\t// in\n    tag_651:\n        /* \"#utility.yul\":23526:23531   */\n      dup2\n        /* \"#utility.yul\":23523:23555   */\n      eq\n        /* \"#utility.yul\":23513:23573   */\n      tag_652\n      jumpi\n        /* \"#utility.yul\":23569:23570   */\n      0x00\n        /* \"#utility.yul\":23566:23567   */\n      dup1\n        /* \"#utility.yul\":23559:23571   */\n      revert\n        /* \"#utility.yul\":23513:23573   */\n    tag_652:\n        /* \"#utility.yul\":23463:23579   */\n      pop\n      jump\t// out\n        /* \"#utility.yul\":23585:23722   */\n    tag_435:\n        /* \"#utility.yul\":23639:23644   */\n      0x00\n        /* \"#utility.yul\":23670:23676   */\n      dup2\n        /* \"#utility.yul\":23664:23677   */\n      mload\n        /* \"#utility.yul\":23655:23677   */\n      swap1\n      pop\n        /* \"#utility.yul\":23686:23716   */\n      tag_654\n        /* \"#utility.yul\":23710:23715   */\n      dup2\n        /* \"#utility.yul\":23686:23716   */\n      tag_434\n      jump\t// in\n    tag_654:\n        /* \"#utility.yul\":23585:23722   */\n      swap3\n      swap2\n      pop\n      pop\n      jump\t// out\n        /* \"#utility.yul\":23728:24073   */\n    tag_349:\n        /* \"#utility.yul\":23795:23801   */\n      0x00\n        /* \"#utility.yul\":23844:23846   */\n      0x20\n        /* \"#utility.yul\":23832:23841   */\n      dup3\n        /* \"#utility.yul\":23823:23830   */\n      dup5\n        /* \"#utility.yul\":23819:23842   */\n      sub\n        /* \"#utility.yul\":23815:23847   */\n      slt\n        /* \"#utility.yul\":23812:23931   */\n      iszero\n      tag_656\n      jumpi\n        /* \"#utility.yul\":23850:23929   */\n      tag_657\n      tag_385\n      jump\t// in\n    tag_657:\n        /* \"#utility.yul\":23812:23931   */\n    tag_656:\n        /* \"#utility.yul\":23970:23971   */\n      0x00\n        /* \"#utility.yul\":23995:24056   */\n      tag_658\n        /* \"#utility.yul\":24048:24055   */\n      dup5\n        /* \"#utility.yul\":24039:24045   */\n      dup3\n        /* \"#utility.yul\":24028:24037   */\n      dup6\n        /* \"#utility.yul\":24024:24046   */\n      add\n        /* \"#utility.yul\":23995:24056   */\n      tag_435\n      jump\t// in\n    tag_658:\n        /* \"#utility.yul\":23985:24056   */\n      swap2\n      pop\n        /* \"#utility.yul\":23941:24066   */\n      pop\n        /* \"#utility.yul\":23728:24073   */\n      swap3\n      swap2\n      pop\n      pop\n      jump\t// out\n        /* \"#utility.yul\":24079:24308   */\n    tag_436:\n        /* \"#utility.yul\":24219:24253   */\n      0x5361666545524332303a204552433230206f7065726174696f6e20646964206e\n        /* \"#utility.yul\":24215:24216   */\n      0x00\n        /* \"#utility.yul\":24207:24213   */\n      dup3\n        /* \"#utility.yul\":24203:24217   */\n      add\n        /* \"#utility.yul\":24196:24254   */\n      mstore\n        /* \"#utility.yul\":24288:24300   */\n      0x6f74207375636365656400000000000000000000000000000000000000000000\n        /* \"#utility.yul\":24283:24285   */\n      0x20\n        /* \"#utility.yul\":24275:24281   */\n      dup3\n        /* \"#utility.yul\":24271:24286   */\n      add\n        /* \"#utility.yul\":24264:24301   */\n      mstore\n        /* \"#utility.yul\":24079:24308   */\n      pop\n      jump\t// out\n        /* \"#utility.yul\":24314:24680   */\n    tag_437:\n        /* \"#utility.yul\":24456:24459   */\n      0x00\n        /* \"#utility.yul\":24477:24544   */\n      tag_661\n        /* \"#utility.yul\":24541:24543   */\n      0x2a\n        /* \"#utility.yul\":24536:24539   */\n      dup4\n        /* \"#utility.yul\":24477:24544   */\n      tag_399\n      jump\t// in\n    tag_661:\n        /* \"#utility.yul\":24470:24544   */\n      swap2\n      pop\n        /* \"#utility.yul\":24553:24646   */\n      tag_662\n        /* \"#utility.yul\":24642:24645   */\n      dup3\n        /* \"#utility.yul\":24553:24646   */\n      tag_436\n      jump\t// in\n    tag_662:\n        /* \"#utility.yul\":24671:24673   */\n      0x40\n        /* \"#utility.yul\":24666:24669   */\n      dup3\n        /* \"#utility.yul\":24662:24674   */\n      add\n        /* \"#utility.yul\":24655:24674   */\n      swap1\n      pop\n        /* \"#utility.yul\":24314:24680   */\n      swap2\n      swap1\n      pop\n      jump\t// out\n        /* \"#utility.yul\":24686:25105   */\n    tag_352:\n        /* \"#utility.yul\":24852:24856   */\n      0x00\n        /* \"#utility.yul\":24890:24892   */\n      0x20\n        /* \"#utility.yul\":24879:24888   */\n      dup3\n        /* \"#utility.yul\":24875:24893   */\n      add\n        /* \"#utility.yul\":24867:24893   */\n      swap1\n      pop\n        /* \"#utility.yul\":24939:24948   */\n      dup2\n        /* \"#utility.yul\":24933:24937   */\n      dup2\n        /* \"#utility.yul\":24929:24949   */\n      sub\n        /* \"#utility.yul\":24925:24926   */\n      0x00\n        /* \"#utility.yul\":24914:24923   */\n      dup4\n        /* \"#utility.yul\":24910:24927   */\n      add\n        /* \"#utility.yul\":24903:24950   */\n      mstore\n        /* \"#utility.yul\":24967:25098   */\n      tag_664\n        /* \"#utility.yul\":25093:25097   */\n      dup2\n        /* \"#utility.yul\":24967:25098   */\n      tag_437\n      jump\t// in\n    tag_664:\n        /* \"#utility.yul\":24959:25098   */\n      swap1\n      pop\n        /* \"#utility.yul\":24686:25105   */\n      swap2\n      swap1\n      pop\n      jump\t// out\n        /* \"#utility.yul\":25111:25336   */\n    tag_438:\n        /* \"#utility.yul\":25251:25285   */\n      0x416464726573733a20696e73756666696369656e742062616c616e636520666f\n        /* \"#utility.yul\":25247:25248   */\n      0x00\n        /* \"#utility.yul\":25239:25245   */\n      dup3\n        /* \"#utility.yul\":25235:25249   */\n      add\n        /* \"#utility.yul\":25228:25286   */\n      mstore\n        /* \"#utility.yul\":25320:25328   */\n      0x722063616c6c0000000000000000000000000000000000000000000000000000\n        /* \"#utility.yul\":25315:25317   */\n      0x20\n        /* \"#utility.yul\":25307:25313   */\n      dup3\n        /* \"#utility.yul\":25303:25318   */\n      add\n        /* \"#utility.yul\":25296:25329   */\n      mstore\n        /* \"#utility.yul\":25111:25336   */\n      pop\n      jump\t// out\n        /* \"#utility.yul\":25342:25708   */\n    tag_439:\n        /* \"#utility.yul\":25484:25487   */\n      0x00\n        /* \"#utility.yul\":25505:25572   */\n      tag_667\n        /* \"#utility.yul\":25569:25571   */\n      0x26\n        /* \"#utility.yul\":25564:25567   */\n      dup4\n        /* \"#utility.yul\":25505:25572   */\n      tag_399\n      jump\t// in\n    tag_667:\n        /* \"#utility.yul\":25498:25572   */\n      swap2\n      pop\n        /* \"#utility.yul\":25581:25674   */\n      tag_668\n        /* \"#utility.yul\":25670:25673   */\n      dup3\n        /* \"#utility.yul\":25581:25674   */\n      tag_438\n      jump\t// in\n    tag_668:\n        /* \"#utility.yul\":25699:25701   */\n      0x40\n        /* \"#utility.yul\":25694:25697   */\n      dup3\n        /* \"#utility.yul\":25690:25702   */\n      add\n        /* \"#utility.yul\":25683:25702   */\n      swap1\n      pop\n        /* \"#utility.yul\":25342:25708   */\n      swap2\n      swap1\n      pop\n      jump\t// out\n        /* \"#utility.yul\":25714:26133   */\n    tag_359:\n        /* \"#utility.yul\":25880:25884   */\n      0x00\n        /* \"#utility.yul\":25918:25920   */\n      0x20\n        /* \"#utility.yul\":25907:25916   */\n      dup3\n        /* \"#utility.yul\":25903:25921   */\n      add\n        /* \"#utility.yul\":25895:25921   */\n      swap1\n      pop\n        /* \"#utility.yul\":25967:25976   */\n      dup2\n        /* \"#utility.yul\":25961:25965   */\n      dup2\n        /* \"#utility.yul\":25957:25977   */\n      sub\n        /* \"#utility.yul\":25953:25954   */\n      0x00\n        /* \"#utility.yul\":25942:25951   */\n      dup4\n        /* \"#utility.yul\":25938:25955   */\n      add\n        /* \"#utility.yul\":25931:25978   */\n      mstore\n        /* \"#utility.yul\":25995:26126   */\n      tag_670\n        /* \"#utility.yul\":26121:26125   */\n      dup2\n        /* \"#utility.yul\":25995:26126   */\n      tag_439\n      jump\t// in\n    tag_670:\n        /* \"#utility.yul\":25987:26126   */\n      swap1\n      pop\n        /* \"#utility.yul\":25714:26133   */\n      swap2\n      swap1\n      pop\n      jump\t// out\n        /* \"#utility.yul\":26139:26237   */\n    tag_440:\n        /* \"#utility.yul\":26190:26196   */\n      0x00\n        /* \"#utility.yul\":26224:26229   */\n      dup2\n        /* \"#utility.yul\":26218:26230   */\n      mload\n        /* \"#utility.yul\":26208:26230   */\n      swap1\n      pop\n        /* \"#utility.yul\":26139:26237   */\n      swap2\n      swap1\n      pop\n      jump\t// out\n        /* \"#utility.yul\":26243:26390   */\n    tag_441:\n        /* \"#utility.yul\":26344:26355   */\n      0x00\n        /* \"#utility.yul\":26381:26384   */\n      dup2\n        /* \"#utility.yul\":26366:26384   */\n      swap1\n      pop\n        /* \"#utility.yul\":26243:26390   */\n      swap3\n      swap2\n      pop\n      pop\n      jump\t// out\n        /* \"#utility.yul\":26396:26642   */\n    tag_442:\n        /* \"#utility.yul\":26477:26478   */\n      0x00\n        /* \"#utility.yul\":26487:26600   */\n    tag_674:\n        /* \"#utility.yul\":26501:26507   */\n      dup4\n        /* \"#utility.yul\":26498:26499   */\n      dup2\n        /* \"#utility.yul\":26495:26508   */\n      lt\n        /* \"#utility.yul\":26487:26600   */\n      iszero\n      tag_676\n      jumpi\n        /* \"#utility.yul\":26586:26587   */\n      dup1\n        /* \"#utility.yul\":26581:26584   */\n      dup3\n        /* \"#utility.yul\":26577:26588   */\n      add\n        /* \"#utility.yul\":26571:26589   */\n      mload\n        /* \"#utility.yul\":26567:26568   */\n      dup2\n        /* \"#utility.yul\":26562:26565   */\n      dup5\n        /* \"#utility.yul\":26558:26569   */\n      add\n        /* \"#utility.yul\":26551:26590   */\n      mstore\n        /* \"#utility.yul\":26523:26525   */\n      0x20\n        /* \"#utility.yul\":26520:26521   */\n      dup2\n        /* \"#utility.yul\":26516:26526   */\n      add\n        /* \"#utility.yul\":26511:26526   */\n      swap1\n      pop\n        /* \"#utility.yul\":26487:26600   */\n      jump(tag_674)\n    tag_676:\n        /* \"#utility.yul\":26634:26635   */\n      0x00\n        /* \"#utility.yul\":26625:26631   */\n      dup5\n        /* \"#utility.yul\":26620:26623   */\n      dup5\n        /* \"#utility.yul\":26616:26632   */\n      add\n        /* \"#utility.yul\":26609:26636   */\n      mstore\n        /* \"#utility.yul\":26458:26642   */\n      pop\n        /* \"#utility.yul\":26396:26642   */\n      pop\n      pop\n      pop\n      jump\t// out\n        /* \"#utility.yul\":26648:27034   */\n    tag_443:\n        /* \"#utility.yul\":26752:26755   */\n      0x00\n        /* \"#utility.yul\":26780:26818   */\n      tag_678\n        /* \"#utility.yul\":26812:26817   */\n      dup3\n        /* \"#utility.yul\":26780:26818   */\n      tag_440\n      jump\t// in\n    tag_678:\n        /* \"#utility.yul\":26834:26922   */\n      tag_679\n        /* \"#utility.yul\":26915:26921   */\n      dup2\n        /* \"#utility.yul\":26910:26913   */\n      dup6\n        /* \"#utility.yul\":26834:26922   */\n      tag_441\n      jump\t// in\n    tag_679:\n        /* \"#utility.yul\":26827:26922   */\n      swap4\n      pop\n        /* \"#utility.yul\":26931:26996   */\n      tag_680\n        /* \"#utility.yul\":26989:26995   */\n      dup2\n        /* \"#utility.yul\":26984:26987   */\n      dup6\n        /* \"#utility.yul\":26977:26981   */\n      0x20\n        /* \"#utility.yul\":26970:26975   */\n      dup7\n        /* \"#utility.yul\":26966:26982   */\n      add\n        /* \"#utility.yul\":26931:26996   */\n      tag_442\n      jump\t// in\n    tag_680:\n        /* \"#utility.yul\":27021:27027   */\n      dup1\n        /* \"#utility.yul\":27016:27019   */\n      dup5\n        /* \"#utility.yul\":27012:27028   */\n      add\n        /* \"#utility.yul\":27005:27028   */\n      swap2\n      pop\n        /* \"#utility.yul\":26756:27034   */\n      pop\n        /* \"#utility.yul\":26648:27034   */\n      swap3\n      swap2\n      pop\n      pop\n      jump\t// out\n        /* \"#utility.yul\":27040:27311   */\n    tag_361:\n        /* \"#utility.yul\":27170:27173   */\n      0x00\n        /* \"#utility.yul\":27192:27285   */\n      tag_682\n        /* \"#utility.yul\":27281:27284   */\n      dup3\n        /* \"#utility.yul\":27272:27278   */\n      dup5\n        /* \"#utility.yul\":27192:27285   */\n      tag_443\n      jump\t// in\n    tag_682:\n        /* \"#utility.yul\":27185:27285   */\n      swap2\n      pop\n        /* \"#utility.yul\":27302:27305   */\n      dup2\n        /* \"#utility.yul\":27295:27305   */\n      swap1\n      pop\n        /* \"#utility.yul\":27040:27311   */\n      swap3\n      swap2\n      pop\n      pop\n      jump\t// out\n        /* \"#utility.yul\":27317:27496   */\n    tag_444:\n        /* \"#utility.yul\":27457:27488   */\n      0x416464726573733a2063616c6c20746f206e6f6e2d636f6e7472616374000000\n        /* \"#utility.yul\":27453:27454   */\n      0x00\n        /* \"#utility.yul\":27445:27451   */\n      dup3\n        /* \"#utility.yul\":27441:27455   */\n      add\n        /* \"#utility.yul\":27434:27489   */\n      mstore\n        /* \"#utility.yul\":27317:27496   */\n      pop\n      jump\t// out\n        /* \"#utility.yul\":27502:27868   */\n    tag_445:\n        /* \"#utility.yul\":27644:27647   */\n      0x00\n        /* \"#utility.yul\":27665:27732   */\n      tag_685\n        /* \"#utility.yul\":27729:27731   */\n      0x1d\n        /* \"#utility.yul\":27724:27727   */\n      dup4\n        /* \"#utility.yul\":27665:27732   */\n      tag_399\n      jump\t// in\n    tag_685:\n        /* \"#utility.yul\":27658:27732   */\n      swap2\n      pop\n        /* \"#utility.yul\":27741:27834   */\n      tag_686\n        /* \"#utility.yul\":27830:27833   */\n      dup3\n        /* \"#utility.yul\":27741:27834   */\n      tag_444\n      jump\t// in\n    tag_686:\n        /* \"#utility.yul\":27859:27861   */\n      0x20\n        /* \"#utility.yul\":27854:27857   */\n      dup3\n        /* \"#utility.yul\":27850:27862   */\n      add\n        /* \"#utility.yul\":27843:27862   */\n      swap1\n      pop\n        /* \"#utility.yul\":27502:27868   */\n      swap2\n      swap1\n      pop\n      jump\t// out\n        /* \"#utility.yul\":27874:28293   */\n    tag_374:\n        /* \"#utility.yul\":28040:28044   */\n      0x00\n        /* \"#utility.yul\":28078:28080   */\n      0x20\n        /* \"#utility.yul\":28067:28076   */\n      dup3\n        /* \"#utility.yul\":28063:28081   */\n      add\n        /* \"#utility.yul\":28055:28081   */\n      swap1\n      pop\n        /* \"#utility.yul\":28127:28136   */\n      dup2\n        /* \"#utility.yul\":28121:28125   */\n      dup2\n        /* \"#utility.yul\":28117:28137   */\n      sub\n        /* \"#utility.yul\":28113:28114   */\n      0x00\n        /* \"#utility.yul\":28102:28111   */\n      dup4\n        /* \"#utility.yul\":28098:28115   */\n      add\n        /* \"#utility.yul\":28091:28138   */\n      mstore\n        /* \"#utility.yul\":28155:28286   */\n      tag_688\n        /* \"#utility.yul\":28281:28285   */\n      dup2\n        /* \"#utility.yul\":28155:28286   */\n      tag_445\n      jump\t// in\n    tag_688:\n        /* \"#utility.yul\":28147:28286   */\n      swap1\n      pop\n        /* \"#utility.yul\":27874:28293   */\n      swap2\n      swap1\n      pop\n      jump\t// out\n        /* \"#utility.yul\":28299:28398   */\n    tag_446:\n        /* \"#utility.yul\":28351:28357   */\n      0x00\n        /* \"#utility.yul\":28385:28390   */\n      dup2\n        /* \"#utility.yul\":28379:28391   */\n      mload\n        /* \"#utility.yul\":28369:28391   */\n      swap1\n      pop\n        /* \"#utility.yul\":28299:28398   */\n      swap2\n      swap1\n      pop\n      jump\t// out\n        /* \"#utility.yul\":28404:28506   */\n    tag_447:\n        /* \"#utility.yul\":28445:28451   */\n      0x00\n        /* \"#utility.yul\":28496:28498   */\n      0x1f\n        /* \"#utility.yul\":28492:28499   */\n      not\n        /* \"#utility.yul\":28487:28489   */\n      0x1f\n        /* \"#utility.yul\":28480:28485   */\n      dup4\n        /* \"#utility.yul\":28476:28490   */\n      add\n        /* \"#utility.yul\":28472:28500   */\n      and\n        /* \"#utility.yul\":28462:28500   */\n      swap1\n      pop\n        /* \"#utility.yul\":28404:28506   */\n      swap2\n      swap1\n      pop\n      jump\t// out\n        /* \"#utility.yul\":28512:28889   */\n    tag_448:\n        /* \"#utility.yul\":28600:28603   */\n      0x00\n        /* \"#utility.yul\":28628:28667   */\n      tag_692\n        /* \"#utility.yul\":28661:28666   */\n      dup3\n        /* \"#utility.yul\":28628:28667   */\n      tag_446\n      jump\t// in\n    tag_692:\n        /* \"#utility.yul\":28683:28754   */\n      tag_693\n        /* \"#utility.yul\":28747:28753   */\n      dup2\n        /* \"#utility.yul\":28742:28745   */\n      dup6\n        /* \"#utility.yul\":28683:28754   */\n      tag_399\n      jump\t// in\n    tag_693:\n        /* \"#utility.yul\":28676:28754   */\n      swap4\n      pop\n        /* \"#utility.yul\":28763:28828   */\n      tag_694\n        /* \"#utility.yul\":28821:28827   */\n      dup2\n        /* \"#utility.yul\":28816:28819   */\n      dup6\n        /* \"#utility.yul\":28809:28813   */\n      0x20\n        /* \"#utility.yul\":28802:28807   */\n      dup7\n        /* \"#utility.yul\":28798:28814   */\n      add\n        /* \"#utility.yul\":28763:28828   */\n      tag_442\n      jump\t// in\n    tag_694:\n        /* \"#utility.yul\":28853:28882   */\n      tag_695\n        /* \"#utility.yul\":28875:28881   */\n      dup2\n        /* \"#utility.yul\":28853:28882   */\n      tag_447\n      jump\t// in\n    tag_695:\n        /* \"#utility.yul\":28848:28851   */\n      dup5\n        /* \"#utility.yul\":28844:28883   */\n      add\n        /* \"#utility.yul\":28837:28883   */\n      swap2\n      pop\n        /* \"#utility.yul\":28604:28889   */\n      pop\n        /* \"#utility.yul\":28512:28889   */\n      swap3\n      swap2\n      pop\n      pop\n      jump\t// out\n        /* \"#utility.yul\":28895:29208   */\n    tag_383:\n        /* \"#utility.yul\":29008:29012   */\n      0x00\n        /* \"#utility.yul\":29046:29048   */\n      0x20\n        /* \"#utility.yul\":29035:29044   */\n      dup3\n        /* \"#utility.yul\":29031:29049   */\n      add\n        /* \"#utility.yul\":29023:29049   */\n      swap1\n      pop\n        /* \"#utility.yul\":29095:29104   */\n      dup2\n        /* \"#utility.yul\":29089:29093   */\n      dup2\n        /* \"#utility.yul\":29085:29105   */\n      sub\n        /* \"#utility.yul\":29081:29082   */\n      0x00\n        /* \"#utility.yul\":29070:29079   */\n      dup4\n        /* \"#utility.yul\":29066:29083   */\n      add\n        /* \"#utility.yul\":29059:29106   */\n      mstore\n        /* \"#utility.yul\":29123:29201   */\n      tag_697\n        /* \"#utility.yul\":29196:29200   */\n      dup2\n        /* \"#utility.yul\":29187:29193   */\n      dup5\n        /* \"#utility.yul\":29123:29201   */\n      tag_448\n      jump\t// in\n    tag_697:\n        /* \"#utility.yul\":29115:29201   */\n      swap1\n      pop\n        /* \"#utility.yul\":28895:29208   */\n      swap3\n      swap2\n      pop\n      pop\n      jump\t// out\n\n    auxdata: 0xa2646970667358221220bade2095dc115a0bbad614d685e6db6e2153a409a5a515990d4558d8e51192e564736f6c63430008120033\n}\n",
				"bytecode": {
					"linkReferences": {},
					"object": "60806040523480156200001157600080fd5b5062000032620000266200003860201b60201c565b6200004060201b60201c565b62000104565b600033905090565b60008060009054906101000a900473ffffffffffffffffffffffffffffffffffffffff169050816000806101000a81548173ffffffffffffffffffffffffffffffffffffffff021916908373ffffffffffffffffffffffffffffffffffffffff1602179055508173ffffffffffffffffffffffffffffffffffffffff168173ffffffffffffffffffffffffffffffffffffffff167f8be0079c531659141344cd1fd0a4f28419497f9722a3daafe3b4186f6b6457e060405160405180910390a35050565b612c6e80620001146000396000f3fe6080604052600436106101cd5760003560e01c8063715018a6116100f7578063ace1741c11610095578063f2fde38b11610064578063f2fde38b14610644578063f3fef3a31461066d578063fa09e63014610696578063fb00f3fc146106bf576101cd565b8063ace1741c1461059a578063b81df742146105c5578063ded441c2146105f0578063e985e36714610619576101cd565b80638ce0b9d2116100d15780638ce0b9d2146104de5780638da5cb5b1461051b57806399b7703214610546578063a82524b21461056f576101cd565b8063715018a614610475578063757765f81461048c57806389e6ce1e146104b5576101cd565b80633f6f7ed61161016f57806363b201171161013e57806363b20117146103d857806368f8fc10146104035780636aa5b37f1461041f5780636bcedf9c1461044a576101cd565b80633f6f7ed61461031d578063444ad5ee146103465780635a2696ca1461036f5780635b10bd6a146103af576101cd565b8063226ac321116101ab578063226ac32114610275578063249b7c191461029e5780632c4e722e146102c95780633c00a36c146102f4576101cd565b80630fabdd44146101d2578063115ece4c146101fb578063204120bc14610238575b600080fd5b3480156101de57600080fd5b506101f960048036038101906101f49190611c80565b6106d6565b005b34801561020757600080fd5b50610222600480360381019061021d9190611d0b565b6106f3565b60405161022f9190611d5a565b60405180910390f35b34801561024457600080fd5b5061025f600480360381019061025a9190611d75565b6108b6565b60405161026c9190611d5a565b60405180910390f35b34801561028157600080fd5b5061029c60048036038101906102979190611d0b565b6108ce565b005b3480156102aa57600080fd5b506102b36109e3565b6040516102c09190611d5a565b60405180910390f35b3480156102d557600080fd5b506102de6109e9565b6040516102eb9190611d5a565b60405180910390f35b34801561030057600080fd5b5061031b60048036038101906103169190611c80565b6109ef565b005b34801561032957600080fd5b50610344600480360381019061033f9190611c80565b610a41565b005b34801561035257600080fd5b5061036d60048036038101906103689190611d0b565b610a53565b005b34801561037b57600080fd5b5061039660048036038101906103919190611d75565b610b34565b6040516103a69493929190611da2565b60405180910390f35b3480156103bb57600080fd5b506103d660048036038101906103d19190611c80565b610b92565b005b3480156103e457600080fd5b506103ed610bb8565b6040516103fa9190611d5a565b60405180910390f35b61041d60048036038101906104189190611d0b565b610bbe565b005b34801561042b57600080fd5b50610434610f87565b6040516104419190611d5a565b60405180910390f35b34801561045657600080fd5b5061045f610f8d565b60405161046c9190611d5a565b60405180910390f35b34801561048157600080fd5b5061048a610f93565b005b34801561049857600080fd5b506104b360048036038101906104ae9190611c80565b610fa7565b005b3480156104c157600080fd5b506104dc60048036038101906104d79190611d0b565b610fb9565b005b3480156104ea57600080fd5b5061050560048036038101906105009190611d75565b61127c565b6040516105129190611e02565b60405180910390f35b34801561052757600080fd5b5061053061129c565b60405161053d9190611e2c565b60405180910390f35b34801561055257600080fd5b5061056d60048036038101906105689190611c80565b6112c5565b005b34801561057b57600080fd5b506105846112d7565b6040516105919190611d5a565b60405180910390f35b3480156105a657600080fd5b506105af6112dd565b6040516105bc9190611d5a565b60405180910390f35b3480156105d157600080fd5b506105da6112e3565b6040516105e79190611d5a565b60405180910390f35b3480156105fc57600080fd5b5061061760048036038101906106129190611c80565b6112e9565b005b34801561062557600080fd5b5061062e611386565b60405161063b9190611e2c565b60405180910390f35b34801561065057600080fd5b5061066b60048036038101906106669190611d75565b6113ac565b005b34801561067957600080fd5b50610694600480360381019061068f9190611d0b565b61142f565b005b3480156106a257600080fd5b506106bd60048036038101906106b89190611d75565b6114f6565b005b3480156106cb57600080fd5b506106d461161a565b005b6106de611757565b80426106ea9190611e76565b600a8190555050565b600080600073ffffffffffffffffffffffffffffffffffffffff168473ffffffffffffffffffffffffffffffffffffffff161461087057600760008573ffffffffffffffffffffffffffffffffffffffff1673ffffffffffffffffffffffffffffffffffffffff16815260200190815260200160002060009054906101000a900460ff166107b6576040517f08c379a00000000000000000000000000000000000000000000000000000000081526004016107ad90611f07565b60405180910390fd5b6000600860008673ffffffffffffffffffffffffffffffffffffffff1673ffffffffffffffffffffffffffffffffffffffff1681526020019081526020016000205403610804576000610869565b600860008573ffffffffffffffffffffffffffffffffffffffff1673ffffffffffffffffffffffffffffffffffffffff16815260200190815260200160002054600354600a610853919061205a565b8461085e91906120a5565b6108689190612116565b5b90506108ac565b6000600154036108815760006108a9565b600154600354600a610893919061205a565b8461089e91906120a5565b6108a89190612116565b5b90505b8091505092915050565b60086020528060005260406000206000915090505481565b6108d6611757565b600760008373ffffffffffffffffffffffffffffffffffffffff1673ffffffffffffffffffffffffffffffffffffffff16815260200190815260200160002060009054906101000a900460ff16610962576040517f08c379a000000000000000000000000000000000000000000000000000000000815260040161095990611f07565b60405180910390fd5b80600860008473ffffffffffffffffffffffffffffffffffffffff1673ffffffffffffffffffffffffffffffffffffffff168152602001908152602001600020819055507fc2d539e6a806d81b0892f23b002d25b825425d13a98bb6f486438b6b7bc0ce3a82826040516109d7929190612147565b60405180910390a15050565b600a5481565b60015481565b6109f7611757565b3373ffffffffffffffffffffffffffffffffffffffff166108fc829081150290604051600060405180830381858888f19350505050158015610a3d573d6000803e3d6000fd5b5050565b610a49611757565b8060018190555050565b610a5b611757565b6001600760008473ffffffffffffffffffffffffffffffffffffffff1673ffffffffffffffffffffffffffffffffffffffff16815260200190815260200160002060006101000a81548160ff02191690831515021790555080600860008473ffffffffffffffffffffffffffffffffffffffff1673ffffffffffffffffffffffffffffffffffffffff168152602001908152602001600020819055507ff4c563a3ea86ff1f4275e8c207df0375a51963f2b831b7bf4da8be938d92876c8282604051610b28929190612147565b60405180910390a15050565b600080600080600154600860008773ffffffffffffffffffffffffffffffffffffffff1673ffffffffffffffffffffffffffffffffffffffff16815260200190815260200160002054600b54600a5493509350935093509193509193565b610b9a611757565b4260098190555080600954610baf9190611e76565b600a8190555050565b600b5481565b600954421015610c03576040517f08c379a0000000000000000000000000000000000000000000000000000000008152600401610bfa906121e2565b60405180910390fd5b600a544210610c47576040517f08c379a0000000000000000000000000000000000000000000000000000000008152600401610c3e9061224e565b60405180910390fd5b60008073ffffffffffffffffffffffffffffffffffffffff168373ffffffffffffffffffffffffffffffffffffffff1603610c8c57610c876000346106f3565b610c97565b610c9683836106f3565b5b905060045481600b54610caa9190611e76565b1115610ceb576040517f08c379a0000000000000000000000000000000000000000000000000000000008152600401610ce2906122e0565b60405180910390fd5b600073ffffffffffffffffffffffffffffffffffffffff168373ffffffffffffffffffffffffffffffffffffffff1603610db657600654811015610d64576040517f08c379a0000000000000000000000000000000000000000000000000000000008152600401610d5b90612372565b60405180910390fd5b610db13382600260009054906101000a900473ffffffffffffffffffffffffffffffffffffffff1673ffffffffffffffffffffffffffffffffffffffff166117d59092919063ffffffff16565b610f02565b600654811015610dfb576040517f08c379a0000000000000000000000000000000000000000000000000000000008152600401610df290612404565b60405180910390fd5b600760008473ffffffffffffffffffffffffffffffffffffffff1673ffffffffffffffffffffffffffffffffffffffff16815260200190815260200160002060009054906101000a900460ff16610e87576040517f08c379a0000000000000000000000000000000000000000000000000000000008152600401610e7e90611f07565b60405180910390fd5b610eb43330848673ffffffffffffffffffffffffffffffffffffffff1661185b909392919063ffffffff16565b610f013382600260009054906101000a900473ffffffffffffffffffffffffffffffffffffffff1673ffffffffffffffffffffffffffffffffffffffff166117d59092919063ffffffff16565b5b80600b6000828254610f149190611e76565b925050819055508273ffffffffffffffffffffffffffffffffffffffff163373ffffffffffffffffffffffffffffffffffffffff167fc244d500136edffae7025aaf7fbd7a07193ac544a1d0cc3132cf2a32452d340c8484604051610f7a929190612424565b60405180910390a3505050565b60055481565b60045481565b610f9b611757565b610fa560006118e4565b565b610faf611757565b8060058190555050565b610fc1611757565b600073ffffffffffffffffffffffffffffffffffffffff168273ffffffffffffffffffffffffffffffffffffffff1603611030576040517f08c379a0000000000000000000000000000000000000000000000000000000008152600401611027906124bf565b60405180910390fd5b60008111611073576040517f08c379a000000000000000000000000000000000000000000000000000000000815260040161106a90612551565b60405180910390fd5b81600260006101000a81548173ffffffffffffffffffffffffffffffffffffffff021916908373ffffffffffffffffffffffffffffffffffffffff160217905550600260009054906101000a900473ffffffffffffffffffffffffffffffffffffffff1673ffffffffffffffffffffffffffffffffffffffff1663313ce5676040518163ffffffff1660e01b8152600401602060405180830381865afa158015611121573d6000803e3d6000fd5b505050506040513d601f19601f8201168201806040525081019061114591906125aa565b60ff1660038190555061119d333083600260009054906101000a900473ffffffffffffffffffffffffffffffffffffffff1673ffffffffffffffffffffffffffffffffffffffff1661185b909392919063ffffffff16565b600260009054906101000a900473ffffffffffffffffffffffffffffffffffffffff1673ffffffffffffffffffffffffffffffffffffffff166370a08231306040518263ffffffff1660e01b81526004016111f89190611e2c565b602060405180830381865afa158015611215573d6000803e3d6000fd5b505050506040513d601f19601f8201168201806040525081019061123991906125ec565b6004819055507f03211f0a57d24f0b52e2e0573af5be089c5faadeb55f9b90591717b0a22f7e2a8282604051611270929190612147565b60405180910390a15050565b60076020528060005260406000206000915054906101000a900460ff1681565b60008060009054906101000a900473ffffffffffffffffffffffffffffffffffffffff16905090565b6112cd611757565b8060068190555050565b60095481565b60035481565b60065481565b6112f1611757565b600a54421015611336576040517f08c379a000000000000000000000000000000000000000000000000000000000815260040161132d9061268b565b60405180910390fd5b6113833382600260009054906101000a900473ffffffffffffffffffffffffffffffffffffffff1673ffffffffffffffffffffffffffffffffffffffff166117d59092919063ffffffff16565b50565b600260009054906101000a900473ffffffffffffffffffffffffffffffffffffffff1681565b6113b4611757565b600073ffffffffffffffffffffffffffffffffffffffff168173ffffffffffffffffffffffffffffffffffffffff1603611423576040517f08c379a000000000000000000000000000000000000000000000000000000000815260040161141a9061271d565b60405180910390fd5b61142c816118e4565b50565b611437611757565b600260009054906101000a900473ffffffffffffffffffffffffffffffffffffffff1673ffffffffffffffffffffffffffffffffffffffff168273ffffffffffffffffffffffffffffffffffffffff16036114c7576040517f08c379a00000000000000000000000000000000000000000000000000000000081526004016114be906127d5565b60405180910390fd5b6114f233828473ffffffffffffffffffffffffffffffffffffffff166117d59092919063ffffffff16565b5050565b6114fe611757565b600260009054906101000a900473ffffffffffffffffffffffffffffffffffffffff1673ffffffffffffffffffffffffffffffffffffffff168173ffffffffffffffffffffffffffffffffffffffff160361158e576040517f08c379a00000000000000000000000000000000000000000000000000000000081526004016115859061288d565b60405180910390fd5b60008173ffffffffffffffffffffffffffffffffffffffff166370a08231306040518263ffffffff1660e01b81526004016115c99190611e2c565b602060405180830381865afa1580156115e6573d6000803e3d6000fd5b505050506040513d601f19601f8201168201806040525081019061160a91906125ec565b9050611616828261142f565b5050565b611622611757565b600a54421015611667576040517f08c379a000000000000000000000000000000000000000000000000000000000815260040161165e9061268b565b60405180910390fd5b6000600260009054906101000a900473ffffffffffffffffffffffffffffffffffffffff1673ffffffffffffffffffffffffffffffffffffffff166370a08231306040518263ffffffff1660e01b81526004016116c49190611e2c565b602060405180830381865afa1580156116e1573d6000803e3d6000fd5b505050506040513d601f19601f8201168201806040525081019061170591906125ec565b90506117543382600260009054906101000a900473ffffffffffffffffffffffffffffffffffffffff1673ffffffffffffffffffffffffffffffffffffffff166117d59092919063ffffffff16565b50565b61175f6119a8565b73ffffffffffffffffffffffffffffffffffffffff1661177d61129c565b73ffffffffffffffffffffffffffffffffffffffff16146117d3576040517f08c379a00000000000000000000000000000000000000000000000000000000081526004016117ca906128f9565b60405180910390fd5b565b6118568363a9059cbb60e01b84846040516024016117f4929190612147565b604051602081830303815290604052907bffffffffffffffffffffffffffffffffffffffffffffffffffffffff19166020820180517bffffffffffffffffffffffffffffffffffffffffffffffffffffffff83818316178352505050506119b0565b505050565b6118de846323b872dd60e01b85858560405160240161187c93929190612919565b604051602081830303815290604052907bffffffffffffffffffffffffffffffffffffffffffffffffffffffff19166020820180517bffffffffffffffffffffffffffffffffffffffffffffffffffffffff83818316178352505050506119b0565b50505050565b60008060009054906101000a900473ffffffffffffffffffffffffffffffffffffffff169050816000806101000a81548173ffffffffffffffffffffffffffffffffffffffff021916908373ffffffffffffffffffffffffffffffffffffffff1602179055508173ffffffffffffffffffffffffffffffffffffffff168173ffffffffffffffffffffffffffffffffffffffff167f8be0079c531659141344cd1fd0a4f28419497f9722a3daafe3b4186f6b6457e060405160405180910390a35050565b600033905090565b6000611a12826040518060400160405280602081526020017f5361666545524332303a206c6f772d6c6576656c2063616c6c206661696c65648152508573ffffffffffffffffffffffffffffffffffffffff16611a789092919063ffffffff16565b9050600081511480611a34575080806020019051810190611a33919061297c565b5b611a73576040517f08c379a0000000000000000000000000000000000000000000000000000000008152600401611a6a90612a1b565b60405180910390fd5b505050565b6060611a878484600085611a90565b90509392505050565b606082471015611ad5576040517f08c379a0000000000000000000000000000000000000000000000000000000008152600401611acc90612aad565b60405180910390fd5b6000808673ffffffffffffffffffffffffffffffffffffffff168587604051611afe9190612b3e565b60006040518083038185875af1925050503d8060008114611b3b576040519150601f19603f3d011682016040523d82523d6000602084013e611b40565b606091505b5091509150611b5187838387611b5d565b92505050949350505050565b60608315611bbf576000835103611bb757611b7785611bd2565b611bb6576040517f08c379a0000000000000000000000000000000000000000000000000000000008152600401611bad90612ba1565b60405180910390fd5b5b829050611bca565b611bc98383611bf5565b5b949350505050565b6000808273ffffffffffffffffffffffffffffffffffffffff163b119050919050565b600082511115611c085781518083602001fd5b806040517f08c379a0000000000000000000000000000000000000000000000000000000008152600401611c3c9190612c16565b60405180910390fd5b600080fd5b6000819050919050565b611c5d81611c4a565b8114611c6857600080fd5b50565b600081359050611c7a81611c54565b92915050565b600060208284031215611c9657611c95611c45565b5b6000611ca484828501611c6b565b91505092915050565b600073ffffffffffffffffffffffffffffffffffffffff82169050919050565b6000611cd882611cad565b9050919050565b611ce881611ccd565b8114611cf357600080fd5b50565b600081359050611d0581611cdf565b92915050565b60008060408385031215611d2257611d21611c45565b5b6000611d3085828601611cf6565b9250506020611d4185828601611c6b565b9150509250929050565b611d5481611c4a565b82525050565b6000602082019050611d6f6000830184611d4b565b92915050565b600060208284031215611d8b57611d8a611c45565b5b6000611d9984828501611cf6565b91505092915050565b6000608082019050611db76000830187611d4b565b611dc46020830186611d4b565b611dd16040830185611d4b565b611dde6060830184611d4b565b95945050505050565b60008115159050919050565b611dfc81611de7565b82525050565b6000602082019050611e176000830184611df3565b92915050565b611e2681611ccd565b82525050565b6000602082019050611e416000830184611e1d565b92915050565b7f4e487b7100000000000000000000000000000000000000000000000000000000600052601160045260246000fd5b6000611e8182611c4a565b9150611e8c83611c4a565b9250828201905080821115611ea457611ea3611e47565b5b92915050565b600082825260208201905092915050565b7f50726573616c653a20546f6b656e206e6f742077686974656c69737465640000600082015250565b6000611ef1601e83611eaa565b9150611efc82611ebb565b602082019050919050565b60006020820190508181036000830152611f2081611ee4565b9050919050565b60008160011c9050919050565b6000808291508390505b6001851115611f7e57808604811115611f5a57611f59611e47565b5b6001851615611f695780820291505b8081029050611f7785611f27565b9450611f3e565b94509492505050565b600082611f975760019050612053565b81611fa55760009050612053565b8160018114611fbb5760028114611fc557611ff4565b6001915050612053565b60ff841115611fd757611fd6611e47565b5b8360020a915084821115611fee57611fed611e47565b5b50612053565b5060208310610133831016604e8410600b84101617156120295782820a90508381111561202457612023611e47565b5b612053565b6120368484846001611f34565b9250905081840481111561204d5761204c611e47565b5b81810290505b9392505050565b600061206582611c4a565b915061207083611c4a565b925061209d7fffffffffffffffffffffffffffffffffffffffffffffffffffffffffffffffff8484611f87565b905092915050565b60006120b082611c4a565b91506120bb83611c4a565b92508282026120c981611c4a565b915082820484148315176120e0576120df611e47565b5b5092915050565b7f4e487b7100000000000000000000000000000000000000000000000000000000600052601260045260246000fd5b600061212182611c4a565b915061212c83611c4a565b92508261213c5761213b6120e7565b5b828204905092915050565b600060408201905061215c6000830185611e1d565b6121696020830184611d4b565b9392505050565b7f50726573616c653a2050726573616c6520686173206e6f74207374617274656460008201527f2079657400000000000000000000000000000000000000000000000000000000602082015250565b60006121cc602483611eaa565b91506121d782612170565b604082019050919050565b600060208201905081810360008301526121fb816121bf565b9050919050565b7f50726573616c653a2050726573616c652068617320656e646564000000000000600082015250565b6000612238601a83611eaa565b915061224382612202565b602082019050919050565b600060208201905081810360008301526122678161222b565b9050919050565b7f50726573616c653a20546f74616c20546f6b656e2053616c652052656163686560008201527f6421000000000000000000000000000000000000000000000000000000000000602082015250565b60006122ca602283611eaa565b91506122d58261226e565b604082019050919050565b600060208201905081810360008301526122f9816122bd565b9050919050565b7f50726573616c653a20546f6b656e20616d6f756e742062656c6f77206d696e2060008201527f627579206c696d69740000000000000000000000000000000000000000000000602082015250565b600061235c602983611eaa565b915061236782612300565b604082019050919050565b6000602082019050818103600083015261238b8161234f565b9050919050565b7f50726573616c653a20416d6f756e742062656c6f77206d696e20627579206c6960008201527f6d69740000000000000000000000000000000000000000000000000000000000602082015250565b60006123ee602383611eaa565b91506123f982612392565b604082019050919050565b6000602082019050818103600083015261241d816123e1565b9050919050565b60006040820190506124396000830185611d4b565b6124466020830184611d4b565b9392505050565b7f50726573616c653a2053616c6520746f6b656e2063616e6e6f74206265207a6560008201527f726f206164647265737300000000000000000000000000000000000000000000602082015250565b60006124a9602a83611eaa565b91506124b48261244d565b604082019050919050565b600060208201905081810360008301526124d88161249c565b9050919050565b7f50726573616c653a20546f74616c20746f6b656e7320666f722073616c65206360008201527f616e6e6f74206265207a65726f00000000000000000000000000000000000000602082015250565b600061253b602d83611eaa565b9150612546826124df565b604082019050919050565b6000602082019050818103600083015261256a8161252e565b9050919050565b600060ff82169050919050565b61258781612571565b811461259257600080fd5b50565b6000815190506125a48161257e565b92915050565b6000602082840312156125c0576125bf611c45565b5b60006125ce84828501612595565b91505092915050565b6000815190506125e681611c54565b92915050565b60006020828403121561260257612601611c45565b5b6000612610848285016125d7565b91505092915050565b7f50726573616c653a2050726573616c6520686173206e6f7420656e646564207960008201527f6574000000000000000000000000000000000000000000000000000000000000602082015250565b6000612675602283611eaa565b915061268082612619565b604082019050919050565b600060208201905081810360008301526126a481612668565b9050919050565b7f4f776e61626c653a206e6577206f776e657220697320746865207a65726f206160008201527f6464726573730000000000000000000000000000000000000000000000000000602082015250565b6000612707602683611eaa565b9150612712826126ab565b604082019050919050565b60006020820190508181036000830152612736816126fa565b9050919050565b7f50726573616c653a2043616e6e6f742077697468647261772073616c6520746f60008201527f6b656e20776974682074686973206d6574686f642c207573652077697468647260208201527f617753616c65546f6b656e282920696e73746561640000000000000000000000604082015250565b60006127bf605583611eaa565b91506127ca8261273d565b606082019050919050565b600060208201905081810360008301526127ee816127b2565b9050919050565b7f50726573616c653a2043616e6e6f742077697468647261772073616c6520746f60008201527f6b656e20776974682074686973206d6574686f642c207573652077697468647260208201527f6177416c6c53616c65546f6b656e282920696e73746561640000000000000000604082015250565b6000612877605883611eaa565b9150612882826127f5565b606082019050919050565b600060208201905081810360008301526128a68161286a565b9050919050565b7f4f776e61626c653a2063616c6c6572206973206e6f7420746865206f776e6572600082015250565b60006128e3602083611eaa565b91506128ee826128ad565b602082019050919050565b60006020820190508181036000830152612912816128d6565b9050919050565b600060608201905061292e6000830186611e1d565b61293b6020830185611e1d565b6129486040830184611d4b565b949350505050565b61295981611de7565b811461296457600080fd5b50565b60008151905061297681612950565b92915050565b60006020828403121561299257612991611c45565b5b60006129a084828501612967565b91505092915050565b7f5361666545524332303a204552433230206f7065726174696f6e20646964206e60008201527f6f74207375636365656400000000000000000000000000000000000000000000602082015250565b6000612a05602a83611eaa565b9150612a10826129a9565b604082019050919050565b60006020820190508181036000830152612a34816129f8565b9050919050565b7f416464726573733a20696e73756666696369656e742062616c616e636520666f60008201527f722063616c6c0000000000000000000000000000000000000000000000000000602082015250565b6000612a97602683611eaa565b9150612aa282612a3b565b604082019050919050565b60006020820190508181036000830152612ac681612a8a565b9050919050565b600081519050919050565b600081905092915050565b60005b83811015612b01578082015181840152602081019050612ae6565b60008484015250505050565b6000612b1882612acd565b612b228185612ad8565b9350612b32818560208601612ae3565b80840191505092915050565b6000612b4a8284612b0d565b915081905092915050565b7f416464726573733a2063616c6c20746f206e6f6e2d636f6e7472616374000000600082015250565b6000612b8b601d83611eaa565b9150612b9682612b55565b602082019050919050565b60006020820190508181036000830152612bba81612b7e565b9050919050565b600081519050919050565b6000601f19601f8301169050919050565b6000612be882612bc1565b612bf28185611eaa565b9350612c02818560208601612ae3565b612c0b81612bcc565b840191505092915050565b60006020820190508181036000830152612c308184612bdd565b90509291505056fea2646970667358221220bade2095dc115a0bbad614d685e6db6e2153a409a5a515990d4558d8e51192e564736f6c63430008120033",
					"opcodes": "PUSH1 0x80 PUSH1 0x40 MSTORE CALLVALUE DUP1 ISZERO PUSH3 0x11 JUMPI PUSH1 0x0 DUP1 REVERT JUMPDEST POP PUSH3 0x32 PUSH3 0x26 PUSH3 0x38 PUSH1 0x20 SHL PUSH1 0x20 SHR JUMP JUMPDEST PUSH3 0x40 PUSH1 0x20 SHL PUSH1 0x20 SHR JUMP JUMPDEST PUSH3 0x104 JUMP JUMPDEST PUSH1 0x0 CALLER SWAP1 POP SWAP1 JUMP JUMPDEST PUSH1 0x0 DUP1 PUSH1 0x0 SWAP1 SLOAD SWAP1 PUSH2 0x100 EXP SWAP1 DIV PUSH20 0xFFFFFFFFFFFFFFFFFFFFFFFFFFFFFFFFFFFFFFFF AND SWAP1 POP DUP2 PUSH1 0x0 DUP1 PUSH2 0x100 EXP DUP2 SLOAD DUP2 PUSH20 0xFFFFFFFFFFFFFFFFFFFFFFFFFFFFFFFFFFFFFFFF MUL NOT AND SWAP1 DUP4 PUSH20 0xFFFFFFFFFFFFFFFFFFFFFFFFFFFFFFFFFFFFFFFF AND MUL OR SWAP1 SSTORE POP DUP2 PUSH20 0xFFFFFFFFFFFFFFFFFFFFFFFFFFFFFFFFFFFFFFFF AND DUP2 PUSH20 0xFFFFFFFFFFFFFFFFFFFFFFFFFFFFFFFFFFFFFFFF AND PUSH32 0x8BE0079C531659141344CD1FD0A4F28419497F9722A3DAAFE3B4186F6B6457E0 PUSH1 0x40 MLOAD PUSH1 0x40 MLOAD DUP1 SWAP2 SUB SWAP1 LOG3 POP POP JUMP JUMPDEST PUSH2 0x2C6E DUP1 PUSH3 0x114 PUSH1 0x0 CODECOPY PUSH1 0x0 RETURN INVALID PUSH1 0x80 PUSH1 0x40 MSTORE PUSH1 0x4 CALLDATASIZE LT PUSH2 0x1CD JUMPI PUSH1 0x0 CALLDATALOAD PUSH1 0xE0 SHR DUP1 PUSH4 0x715018A6 GT PUSH2 0xF7 JUMPI DUP1 PUSH4 0xACE1741C GT PUSH2 0x95 JUMPI DUP1 PUSH4 0xF2FDE38B GT PUSH2 0x64 JUMPI DUP1 PUSH4 0xF2FDE38B EQ PUSH2 0x644 JUMPI DUP1 PUSH4 0xF3FEF3A3 EQ PUSH2 0x66D JUMPI DUP1 PUSH4 0xFA09E630 EQ PUSH2 0x696 JUMPI DUP1 PUSH4 0xFB00F3FC EQ PUSH2 0x6BF JUMPI PUSH2 0x1CD JUMP JUMPDEST DUP1 PUSH4 0xACE1741C EQ PUSH2 0x59A JUMPI DUP1 PUSH4 0xB81DF742 EQ PUSH2 0x5C5 JUMPI DUP1 PUSH4 0xDED441C2 EQ PUSH2 0x5F0 JUMPI DUP1 PUSH4 0xE985E367 EQ PUSH2 0x619 JUMPI PUSH2 0x1CD JUMP JUMPDEST DUP1 PUSH4 0x8CE0B9D2 GT PUSH2 0xD1 JUMPI DUP1 PUSH4 0x8CE0B9D2 EQ PUSH2 0x4DE JUMPI DUP1 PUSH4 0x8DA5CB5B EQ PUSH2 0x51B JUMPI DUP1 PUSH4 0x99B77032 EQ PUSH2 0x546 JUMPI DUP1 PUSH4 0xA82524B2 EQ PUSH2 0x56F JUMPI PUSH2 0x1CD JUMP JUMPDEST DUP1 PUSH4 0x715018A6 EQ PUSH2 0x475 JUMPI DUP1 PUSH4 0x757765F8 EQ PUSH2 0x48C JUMPI DUP1 PUSH4 0x89E6CE1E EQ PUSH2 0x4B5 JUMPI PUSH2 0x1CD JUMP JUMPDEST DUP1 PUSH4 0x3F6F7ED6 GT PUSH2 0x16F JUMPI DUP1 PUSH4 0x63B20117 GT PUSH2 0x13E JUMPI DUP1 PUSH4 0x63B20117 EQ PUSH2 0x3D8 JUMPI DUP1 PUSH4 0x68F8FC10 EQ PUSH2 0x403 JUMPI DUP1 PUSH4 0x6AA5B37F EQ PUSH2 0x41F JUMPI DUP1 PUSH4 0x6BCEDF9C EQ PUSH2 0x44A JUMPI PUSH2 0x1CD JUMP JUMPDEST DUP1 PUSH4 0x3F6F7ED6 EQ PUSH2 0x31D JUMPI DUP1 PUSH4 0x444AD5EE EQ PUSH2 0x346 JUMPI DUP1 PUSH4 0x5A2696CA EQ PUSH2 0x36F JUMPI DUP1 PUSH4 0x5B10BD6A EQ PUSH2 0x3AF JUMPI PUSH2 0x1CD JUMP JUMPDEST DUP1 PUSH4 0x226AC321 GT PUSH2 0x1AB JUMPI DUP1 PUSH4 0x226AC321 EQ PUSH2 0x275 JUMPI DUP1 PUSH4 0x249B7C19 EQ PUSH2 0x29E JUMPI DUP1 PUSH4 0x2C4E722E EQ PUSH2 0x2C9 JUMPI DUP1 PUSH4 0x3C00A36C EQ PUSH2 0x2F4 JUMPI PUSH2 0x1CD JUMP JUMPDEST DUP1 PUSH4 0xFABDD44 EQ PUSH2 0x1D2 JUMPI DUP1 PUSH4 0x115ECE4C EQ PUSH2 0x1FB JUMPI DUP1 PUSH4 0x204120BC EQ PUSH2 0x238 JUMPI JUMPDEST PUSH1 0x0 DUP1 REVERT JUMPDEST CALLVALUE DUP1 ISZERO PUSH2 0x1DE JUMPI PUSH1 0x0 DUP1 REVERT JUMPDEST POP PUSH2 0x1F9 PUSH1 0x4 DUP1 CALLDATASIZE SUB DUP2 ADD SWAP1 PUSH2 0x1F4 SWAP2 SWAP1 PUSH2 0x1C80 JUMP JUMPDEST PUSH2 0x6D6 JUMP JUMPDEST STOP JUMPDEST CALLVALUE DUP1 ISZERO PUSH2 0x207 JUMPI PUSH1 0x0 DUP1 REVERT JUMPDEST POP PUSH2 0x222 PUSH1 0x4 DUP1 CALLDATASIZE SUB DUP2 ADD SWAP1 PUSH2 0x21D SWAP2 SWAP1 PUSH2 0x1D0B JUMP JUMPDEST PUSH2 0x6F3 JUMP JUMPDEST PUSH1 0x40 MLOAD PUSH2 0x22F SWAP2 SWAP1 PUSH2 0x1D5A JUMP JUMPDEST PUSH1 0x40 MLOAD DUP1 SWAP2 SUB SWAP1 RETURN JUMPDEST CALLVALUE DUP1 ISZERO PUSH2 0x244 JUMPI PUSH1 0x0 DUP1 REVERT JUMPDEST POP PUSH2 0x25F PUSH1 0x4 DUP1 CALLDATASIZE SUB DUP2 ADD SWAP1 PUSH2 0x25A SWAP2 SWAP1 PUSH2 0x1D75 JUMP JUMPDEST PUSH2 0x8B6 JUMP JUMPDEST PUSH1 0x40 MLOAD PUSH2 0x26C SWAP2 SWAP1 PUSH2 0x1D5A JUMP JUMPDEST PUSH1 0x40 MLOAD DUP1 SWAP2 SUB SWAP1 RETURN JUMPDEST CALLVALUE DUP1 ISZERO PUSH2 0x281 JUMPI PUSH1 0x0 DUP1 REVERT JUMPDEST POP PUSH2 0x29C PUSH1 0x4 DUP1 CALLDATASIZE SUB DUP2 ADD SWAP1 PUSH2 0x297 SWAP2 SWAP1 PUSH2 0x1D0B JUMP JUMPDEST PUSH2 0x8CE JUMP JUMPDEST STOP JUMPDEST CALLVALUE DUP1 ISZERO PUSH2 0x2AA JUMPI PUSH1 0x0 DUP1 REVERT JUMPDEST POP PUSH2 0x2B3 PUSH2 0x9E3 JUMP JUMPDEST PUSH1 0x40 MLOAD PUSH2 0x2C0 SWAP2 SWAP1 PUSH2 0x1D5A JUMP JUMPDEST PUSH1 0x40 MLOAD DUP1 SWAP2 SUB SWAP1 RETURN JUMPDEST CALLVALUE DUP1 ISZERO PUSH2 0x2D5 JUMPI PUSH1 0x0 DUP1 REVERT JUMPDEST POP PUSH2 0x2DE PUSH2 0x9E9 JUMP JUMPDEST PUSH1 0x40 MLOAD PUSH2 0x2EB SWAP2 SWAP1 PUSH2 0x1D5A JUMP JUMPDEST PUSH1 0x40 MLOAD DUP1 SWAP2 SUB SWAP1 RETURN JUMPDEST CALLVALUE DUP1 ISZERO PUSH2 0x300 JUMPI PUSH1 0x0 DUP1 REVERT JUMPDEST POP PUSH2 0x31B PUSH1 0x4 DUP1 CALLDATASIZE SUB DUP2 ADD SWAP1 PUSH2 0x316 SWAP2 SWAP1 PUSH2 0x1C80 JUMP JUMPDEST PUSH2 0x9EF JUMP JUMPDEST STOP JUMPDEST CALLVALUE DUP1 ISZERO PUSH2 0x329 JUMPI PUSH1 0x0 DUP1 REVERT JUMPDEST POP PUSH2 0x344 PUSH1 0x4 DUP1 CALLDATASIZE SUB DUP2 ADD SWAP1 PUSH2 0x33F SWAP2 SWAP1 PUSH2 0x1C80 JUMP JUMPDEST PUSH2 0xA41 JUMP JUMPDEST STOP JUMPDEST CALLVALUE DUP1 ISZERO PUSH2 0x352 JUMPI PUSH1 0x0 DUP1 REVERT JUMPDEST POP PUSH2 0x36D PUSH1 0x4 DUP1 CALLDATASIZE SUB DUP2 ADD SWAP1 PUSH2 0x368 SWAP2 SWAP1 PUSH2 0x1D0B JUMP JUMPDEST PUSH2 0xA53 JUMP JUMPDEST STOP JUMPDEST CALLVALUE DUP1 ISZERO PUSH2 0x37B JUMPI PUSH1 0x0 DUP1 REVERT JUMPDEST POP PUSH2 0x396 PUSH1 0x4 DUP1 CALLDATASIZE SUB DUP2 ADD SWAP1 PUSH2 0x391 SWAP2 SWAP1 PUSH2 0x1D75 JUMP JUMPDEST PUSH2 0xB34 JUMP JUMPDEST PUSH1 0x40 MLOAD PUSH2 0x3A6 SWAP5 SWAP4 SWAP3 SWAP2 SWAP1 PUSH2 0x1DA2 JUMP JUMPDEST PUSH1 0x40 MLOAD DUP1 SWAP2 SUB SWAP1 RETURN JUMPDEST CALLVALUE DUP1 ISZERO PUSH2 0x3BB JUMPI PUSH1 0x0 DUP1 REVERT JUMPDEST POP PUSH2 0x3D6 PUSH1 0x4 DUP1 CALLDATASIZE SUB DUP2 ADD SWAP1 PUSH2 0x3D1 SWAP2 SWAP1 PUSH2 0x1C80 JUMP JUMPDEST PUSH2 0xB92 JUMP JUMPDEST STOP JUMPDEST CALLVALUE DUP1 ISZERO PUSH2 0x3E4 JUMPI PUSH1 0x0 DUP1 REVERT JUMPDEST POP PUSH2 0x3ED PUSH2 0xBB8 JUMP JUMPDEST PUSH1 0x40 MLOAD PUSH2 0x3FA SWAP2 SWAP1 PUSH2 0x1D5A JUMP JUMPDEST PUSH1 0x40 MLOAD DUP1 SWAP2 SUB SWAP1 RETURN JUMPDEST PUSH2 0x41D PUSH1 0x4 DUP1 CALLDATASIZE SUB DUP2 ADD SWAP1 PUSH2 0x418 SWAP2 SWAP1 PUSH2 0x1D0B JUMP JUMPDEST PUSH2 0xBBE JUMP JUMPDEST STOP JUMPDEST CALLVALUE DUP1 ISZERO PUSH2 0x42B JUMPI PUSH1 0x0 DUP1 REVERT JUMPDEST POP PUSH2 0x434 PUSH2 0xF87 JUMP JUMPDEST PUSH1 0x40 MLOAD PUSH2 0x441 SWAP2 SWAP1 PUSH2 0x1D5A JUMP JUMPDEST PUSH1 0x40 MLOAD DUP1 SWAP2 SUB SWAP1 RETURN JUMPDEST CALLVALUE DUP1 ISZERO PUSH2 0x456 JUMPI PUSH1 0x0 DUP1 REVERT JUMPDEST POP PUSH2 0x45F PUSH2 0xF8D JUMP JUMPDEST PUSH1 0x40 MLOAD PUSH2 0x46C SWAP2 SWAP1 PUSH2 0x1D5A JUMP JUMPDEST PUSH1 0x40 MLOAD DUP1 SWAP2 SUB SWAP1 RETURN JUMPDEST CALLVALUE DUP1 ISZERO PUSH2 0x481 JUMPI PUSH1 0x0 DUP1 REVERT JUMPDEST POP PUSH2 0x48A PUSH2 0xF93 JUMP JUMPDEST STOP JUMPDEST CALLVALUE DUP1 ISZERO PUSH2 0x498 JUMPI PUSH1 0x0 DUP1 REVERT JUMPDEST POP PUSH2 0x4B3 PUSH1 0x4 DUP1 CALLDATASIZE SUB DUP2 ADD SWAP1 PUSH2 0x4AE SWAP2 SWAP1 PUSH2 0x1C80 JUMP JUMPDEST PUSH2 0xFA7 JUMP JUMPDEST STOP JUMPDEST CALLVALUE DUP1 ISZERO PUSH2 0x4C1 JUMPI PUSH1 0x0 DUP1 REVERT JUMPDEST POP PUSH2 0x4DC PUSH1 0x4 DUP1 CALLDATASIZE SUB DUP2 ADD SWAP1 PUSH2 0x4D7 SWAP2 SWAP1 PUSH2 0x1D0B JUMP JUMPDEST PUSH2 0xFB9 JUMP JUMPDEST STOP JUMPDEST CALLVALUE DUP1 ISZERO PUSH2 0x4EA JUMPI PUSH1 0x0 DUP1 REVERT JUMPDEST POP PUSH2 0x505 PUSH1 0x4 DUP1 CALLDATASIZE SUB DUP2 ADD SWAP1 PUSH2 0x500 SWAP2 SWAP1 PUSH2 0x1D75 JUMP JUMPDEST PUSH2 0x127C JUMP JUMPDEST PUSH1 0x40 MLOAD PUSH2 0x512 SWAP2 SWAP1 PUSH2 0x1E02 JUMP JUMPDEST PUSH1 0x40 MLOAD DUP1 SWAP2 SUB SWAP1 RETURN JUMPDEST CALLVALUE DUP1 ISZERO PUSH2 0x527 JUMPI PUSH1 0x0 DUP1 REVERT JUMPDEST POP PUSH2 0x530 PUSH2 0x129C JUMP JUMPDEST PUSH1 0x40 MLOAD PUSH2 0x53D SWAP2 SWAP1 PUSH2 0x1E2C JUMP JUMPDEST PUSH1 0x40 MLOAD DUP1 SWAP2 SUB SWAP1 RETURN JUMPDEST CALLVALUE DUP1 ISZERO PUSH2 0x552 JUMPI PUSH1 0x0 DUP1 REVERT JUMPDEST POP PUSH2 0x56D PUSH1 0x4 DUP1 CALLDATASIZE SUB DUP2 ADD SWAP1 PUSH2 0x568 SWAP2 SWAP1 PUSH2 0x1C80 JUMP JUMPDEST PUSH2 0x12C5 JUMP JUMPDEST STOP JUMPDEST CALLVALUE DUP1 ISZERO PUSH2 0x57B JUMPI PUSH1 0x0 DUP1 REVERT JUMPDEST POP PUSH2 0x584 PUSH2 0x12D7 JUMP JUMPDEST PUSH1 0x40 MLOAD PUSH2 0x591 SWAP2 SWAP1 PUSH2 0x1D5A JUMP JUMPDEST PUSH1 0x40 MLOAD DUP1 SWAP2 SUB SWAP1 RETURN JUMPDEST CALLVALUE DUP1 ISZERO PUSH2 0x5A6 JUMPI PUSH1 0x0 DUP1 REVERT JUMPDEST POP PUSH2 0x5AF PUSH2 0x12DD JUMP JUMPDEST PUSH1 0x40 MLOAD PUSH2 0x5BC SWAP2 SWAP1 PUSH2 0x1D5A JUMP JUMPDEST PUSH1 0x40 MLOAD DUP1 SWAP2 SUB SWAP1 RETURN JUMPDEST CALLVALUE DUP1 ISZERO PUSH2 0x5D1 JUMPI PUSH1 0x0 DUP1 REVERT JUMPDEST POP PUSH2 0x5DA PUSH2 0x12E3 JUMP JUMPDEST PUSH1 0x40 MLOAD PUSH2 0x5E7 SWAP2 SWAP1 PUSH2 0x1D5A JUMP JUMPDEST PUSH1 0x40 MLOAD DUP1 SWAP2 SUB SWAP1 RETURN JUMPDEST CALLVALUE DUP1 ISZERO PUSH2 0x5FC JUMPI PUSH1 0x0 DUP1 REVERT JUMPDEST POP PUSH2 0x617 PUSH1 0x4 DUP1 CALLDATASIZE SUB DUP2 ADD SWAP1 PUSH2 0x612 SWAP2 SWAP1 PUSH2 0x1C80 JUMP JUMPDEST PUSH2 0x12E9 JUMP JUMPDEST STOP JUMPDEST CALLVALUE DUP1 ISZERO PUSH2 0x625 JUMPI PUSH1 0x0 DUP1 REVERT JUMPDEST POP PUSH2 0x62E PUSH2 0x1386 JUMP JUMPDEST PUSH1 0x40 MLOAD PUSH2 0x63B SWAP2 SWAP1 PUSH2 0x1E2C JUMP JUMPDEST PUSH1 0x40 MLOAD DUP1 SWAP2 SUB SWAP1 RETURN JUMPDEST CALLVALUE DUP1 ISZERO PUSH2 0x650 JUMPI PUSH1 0x0 DUP1 REVERT JUMPDEST POP PUSH2 0x66B PUSH1 0x4 DUP1 CALLDATASIZE SUB DUP2 ADD SWAP1 PUSH2 0x666 SWAP2 SWAP1 PUSH2 0x1D75 JUMP JUMPDEST PUSH2 0x13AC JUMP JUMPDEST STOP JUMPDEST CALLVALUE DUP1 ISZERO PUSH2 0x679 JUMPI PUSH1 0x0 DUP1 REVERT JUMPDEST POP PUSH2 0x694 PUSH1 0x4 DUP1 CALLDATASIZE SUB DUP2 ADD SWAP1 PUSH2 0x68F SWAP2 SWAP1 PUSH2 0x1D0B JUMP JUMPDEST PUSH2 0x142F JUMP JUMPDEST STOP JUMPDEST CALLVALUE DUP1 ISZERO PUSH2 0x6A2 JUMPI PUSH1 0x0 DUP1 REVERT JUMPDEST POP PUSH2 0x6BD PUSH1 0x4 DUP1 CALLDATASIZE SUB DUP2 ADD SWAP1 PUSH2 0x6B8 SWAP2 SWAP1 PUSH2 0x1D75 JUMP JUMPDEST PUSH2 0x14F6 JUMP JUMPDEST STOP JUMPDEST CALLVALUE DUP1 ISZERO PUSH2 0x6CB JUMPI PUSH1 0x0 DUP1 REVERT JUMPDEST POP PUSH2 0x6D4 PUSH2 0x161A JUMP JUMPDEST STOP JUMPDEST PUSH2 0x6DE PUSH2 0x1757 JUMP JUMPDEST DUP1 TIMESTAMP PUSH2 0x6EA SWAP2 SWAP1 PUSH2 0x1E76 JUMP JUMPDEST PUSH1 0xA DUP2 SWAP1 SSTORE POP POP JUMP JUMPDEST PUSH1 0x0 DUP1 PUSH1 0x0 PUSH20 0xFFFFFFFFFFFFFFFFFFFFFFFFFFFFFFFFFFFFFFFF AND DUP5 PUSH20 0xFFFFFFFFFFFFFFFFFFFFFFFFFFFFFFFFFFFFFFFF AND EQ PUSH2 0x870 JUMPI PUSH1 0x7 PUSH1 0x0 DUP6 PUSH20 0xFFFFFFFFFFFFFFFFFFFFFFFFFFFFFFFFFFFFFFFF AND PUSH20 0xFFFFFFFFFFFFFFFFFFFFFFFFFFFFFFFFFFFFFFFF AND DUP2 MSTORE PUSH1 0x20 ADD SWAP1 DUP2 MSTORE PUSH1 0x20 ADD PUSH1 0x0 KECCAK256 PUSH1 0x0 SWAP1 SLOAD SWAP1 PUSH2 0x100 EXP SWAP1 DIV PUSH1 0xFF AND PUSH2 0x7B6 JUMPI PUSH1 0x40 MLOAD PUSH32 0x8C379A000000000000000000000000000000000000000000000000000000000 DUP2 MSTORE PUSH1 0x4 ADD PUSH2 0x7AD SWAP1 PUSH2 0x1F07 JUMP JUMPDEST PUSH1 0x40 MLOAD DUP1 SWAP2 SUB SWAP1 REVERT JUMPDEST PUSH1 0x0 PUSH1 0x8 PUSH1 0x0 DUP7 PUSH20 0xFFFFFFFFFFFFFFFFFFFFFFFFFFFFFFFFFFFFFFFF AND PUSH20 0xFFFFFFFFFFFFFFFFFFFFFFFFFFFFFFFFFFFFFFFF AND DUP2 MSTORE PUSH1 0x20 ADD SWAP1 DUP2 MSTORE PUSH1 0x20 ADD PUSH1 0x0 KECCAK256 SLOAD SUB PUSH2 0x804 JUMPI PUSH1 0x0 PUSH2 0x869 JUMP JUMPDEST PUSH1 0x8 PUSH1 0x0 DUP6 PUSH20 0xFFFFFFFFFFFFFFFFFFFFFFFFFFFFFFFFFFFFFFFF AND PUSH20 0xFFFFFFFFFFFFFFFFFFFFFFFFFFFFFFFFFFFFFFFF AND DUP2 MSTORE PUSH1 0x20 ADD SWAP1 DUP2 MSTORE PUSH1 0x20 ADD PUSH1 0x0 KECCAK256 SLOAD PUSH1 0x3 SLOAD PUSH1 0xA PUSH2 0x853 SWAP2 SWAP1 PUSH2 0x205A JUMP JUMPDEST DUP5 PUSH2 0x85E SWAP2 SWAP1 PUSH2 0x20A5 JUMP JUMPDEST PUSH2 0x868 SWAP2 SWAP1 PUSH2 0x2116 JUMP JUMPDEST JUMPDEST SWAP1 POP PUSH2 0x8AC JUMP JUMPDEST PUSH1 0x0 PUSH1 0x1 SLOAD SUB PUSH2 0x881 JUMPI PUSH1 0x0 PUSH2 0x8A9 JUMP JUMPDEST PUSH1 0x1 SLOAD PUSH1 0x3 SLOAD PUSH1 0xA PUSH2 0x893 SWAP2 SWAP1 PUSH2 0x205A JUMP JUMPDEST DUP5 PUSH2 0x89E SWAP2 SWAP1 PUSH2 0x20A5 JUMP JUMPDEST PUSH2 0x8A8 SWAP2 SWAP1 PUSH2 0x2116 JUMP JUMPDEST JUMPDEST SWAP1 POP JUMPDEST DUP1 SWAP2 POP POP SWAP3 SWAP2 POP POP JUMP JUMPDEST PUSH1 0x8 PUSH1 0x20 MSTORE DUP1 PUSH1 0x0 MSTORE PUSH1 0x40 PUSH1 0x0 KECCAK256 PUSH1 0x0 SWAP2 POP SWAP1 POP SLOAD DUP2 JUMP JUMPDEST PUSH2 0x8D6 PUSH2 0x1757 JUMP JUMPDEST PUSH1 0x7 PUSH1 0x0 DUP4 PUSH20 0xFFFFFFFFFFFFFFFFFFFFFFFFFFFFFFFFFFFFFFFF AND PUSH20 0xFFFFFFFFFFFFFFFFFFFFFFFFFFFFFFFFFFFFFFFF AND DUP2 MSTORE PUSH1 0x20 ADD SWAP1 DUP2 MSTORE PUSH1 0x20 ADD PUSH1 0x0 KECCAK256 PUSH1 0x0 SWAP1 SLOAD SWAP1 PUSH2 0x100 EXP SWAP1 DIV PUSH1 0xFF AND PUSH2 0x962 JUMPI PUSH1 0x40 MLOAD PUSH32 0x8C379A000000000000000000000000000000000000000000000000000000000 DUP2 MSTORE PUSH1 0x4 ADD PUSH2 0x959 SWAP1 PUSH2 0x1F07 JUMP JUMPDEST PUSH1 0x40 MLOAD DUP1 SWAP2 SUB SWAP1 REVERT JUMPDEST DUP1 PUSH1 0x8 PUSH1 0x0 DUP5 PUSH20 0xFFFFFFFFFFFFFFFFFFFFFFFFFFFFFFFFFFFFFFFF AND PUSH20 0xFFFFFFFFFFFFFFFFFFFFFFFFFFFFFFFFFFFFFFFF AND DUP2 MSTORE PUSH1 0x20 ADD SWAP1 DUP2 MSTORE PUSH1 0x20 ADD PUSH1 0x0 KECCAK256 DUP2 SWAP1 SSTORE POP PUSH32 0xC2D539E6A806D81B0892F23B002D25B825425D13A98BB6F486438B6B7BC0CE3A DUP3 DUP3 PUSH1 0x40 MLOAD PUSH2 0x9D7 SWAP3 SWAP2 SWAP1 PUSH2 0x2147 JUMP JUMPDEST PUSH1 0x40 MLOAD DUP1 SWAP2 SUB SWAP1 LOG1 POP POP JUMP JUMPDEST PUSH1 0xA SLOAD DUP2 JUMP JUMPDEST PUSH1 0x1 SLOAD DUP2 JUMP JUMPDEST PUSH2 0x9F7 PUSH2 0x1757 JUMP JUMPDEST CALLER PUSH20 0xFFFFFFFFFFFFFFFFFFFFFFFFFFFFFFFFFFFFFFFF AND PUSH2 0x8FC DUP3 SWAP1 DUP2 ISZERO MUL SWAP1 PUSH1 0x40 MLOAD PUSH1 0x0 PUSH1 0x40 MLOAD DUP1 DUP4 SUB DUP2 DUP6 DUP9 DUP9 CALL SWAP4 POP POP POP POP ISZERO DUP1 ISZERO PUSH2 0xA3D JUMPI RETURNDATASIZE PUSH1 0x0 DUP1 RETURNDATACOPY RETURNDATASIZE PUSH1 0x0 REVERT JUMPDEST POP POP JUMP JUMPDEST PUSH2 0xA49 PUSH2 0x1757 JUMP JUMPDEST DUP1 PUSH1 0x1 DUP2 SWAP1 SSTORE POP POP JUMP JUMPDEST PUSH2 0xA5B PUSH2 0x1757 JUMP JUMPDEST PUSH1 0x1 PUSH1 0x7 PUSH1 0x0 DUP5 PUSH20 0xFFFFFFFFFFFFFFFFFFFFFFFFFFFFFFFFFFFFFFFF AND PUSH20 0xFFFFFFFFFFFFFFFFFFFFFFFFFFFFFFFFFFFFFFFF AND DUP2 MSTORE PUSH1 0x20 ADD SWAP1 DUP2 MSTORE PUSH1 0x20 ADD PUSH1 0x0 KECCAK256 PUSH1 0x0 PUSH2 0x100 EXP DUP2 SLOAD DUP2 PUSH1 0xFF MUL NOT AND SWAP1 DUP4 ISZERO ISZERO MUL OR SWAP1 SSTORE POP DUP1 PUSH1 0x8 PUSH1 0x0 DUP5 PUSH20 0xFFFFFFFFFFFFFFFFFFFFFFFFFFFFFFFFFFFFFFFF AND PUSH20 0xFFFFFFFFFFFFFFFFFFFFFFFFFFFFFFFFFFFFFFFF AND DUP2 MSTORE PUSH1 0x20 ADD SWAP1 DUP2 MSTORE PUSH1 0x20 ADD PUSH1 0x0 KECCAK256 DUP2 SWAP1 SSTORE POP PUSH32 0xF4C563A3EA86FF1F4275E8C207DF0375A51963F2B831B7BF4DA8BE938D92876C DUP3 DUP3 PUSH1 0x40 MLOAD PUSH2 0xB28 SWAP3 SWAP2 SWAP1 PUSH2 0x2147 JUMP JUMPDEST PUSH1 0x40 MLOAD DUP1 SWAP2 SUB SWAP1 LOG1 POP POP JUMP JUMPDEST PUSH1 0x0 DUP1 PUSH1 0x0 DUP1 PUSH1 0x1 SLOAD PUSH1 0x8 PUSH1 0x0 DUP8 PUSH20 0xFFFFFFFFFFFFFFFFFFFFFFFFFFFFFFFFFFFFFFFF AND PUSH20 0xFFFFFFFFFFFFFFFFFFFFFFFFFFFFFFFFFFFFFFFF AND DUP2 MSTORE PUSH1 0x20 ADD SWAP1 DUP2 MSTORE PUSH1 0x20 ADD PUSH1 0x0 KECCAK256 SLOAD PUSH1 0xB SLOAD PUSH1 0xA SLOAD SWAP4 POP SWAP4 POP SWAP4 POP SWAP4 POP SWAP2 SWAP4 POP SWAP2 SWAP4 JUMP JUMPDEST PUSH2 0xB9A PUSH2 0x1757 JUMP JUMPDEST TIMESTAMP PUSH1 0x9 DUP2 SWAP1 SSTORE POP DUP1 PUSH1 0x9 SLOAD PUSH2 0xBAF SWAP2 SWAP1 PUSH2 0x1E76 JUMP JUMPDEST PUSH1 0xA DUP2 SWAP1 SSTORE POP POP JUMP JUMPDEST PUSH1 0xB SLOAD DUP2 JUMP JUMPDEST PUSH1 0x9 SLOAD TIMESTAMP LT ISZERO PUSH2 0xC03 JUMPI PUSH1 0x40 MLOAD PUSH32 0x8C379A000000000000000000000000000000000000000000000000000000000 DUP2 MSTORE PUSH1 0x4 ADD PUSH2 0xBFA SWAP1 PUSH2 0x21E2 JUMP JUMPDEST PUSH1 0x40 MLOAD DUP1 SWAP2 SUB SWAP1 REVERT JUMPDEST PUSH1 0xA SLOAD TIMESTAMP LT PUSH2 0xC47 JUMPI PUSH1 0x40 MLOAD PUSH32 0x8C379A000000000000000000000000000000000000000000000000000000000 DUP2 MSTORE PUSH1 0x4 ADD PUSH2 0xC3E SWAP1 PUSH2 0x224E JUMP JUMPDEST PUSH1 0x40 MLOAD DUP1 SWAP2 SUB SWAP1 REVERT JUMPDEST PUSH1 0x0 DUP1 PUSH20 0xFFFFFFFFFFFFFFFFFFFFFFFFFFFFFFFFFFFFFFFF AND DUP4 PUSH20 0xFFFFFFFFFFFFFFFFFFFFFFFFFFFFFFFFFFFFFFFF AND SUB PUSH2 0xC8C JUMPI PUSH2 0xC87 PUSH1 0x0 CALLVALUE PUSH2 0x6F3 JUMP JUMPDEST PUSH2 0xC97 JUMP JUMPDEST PUSH2 0xC96 DUP4 DUP4 PUSH2 0x6F3 JUMP JUMPDEST JUMPDEST SWAP1 POP PUSH1 0x4 SLOAD DUP2 PUSH1 0xB SLOAD PUSH2 0xCAA SWAP2 SWAP1 PUSH2 0x1E76 JUMP JUMPDEST GT ISZERO PUSH2 0xCEB JUMPI PUSH1 0x40 MLOAD PUSH32 0x8C379A000000000000000000000000000000000000000000000000000000000 DUP2 MSTORE PUSH1 0x4 ADD PUSH2 0xCE2 SWAP1 PUSH2 0x22E0 JUMP JUMPDEST PUSH1 0x40 MLOAD DUP1 SWAP2 SUB SWAP1 REVERT JUMPDEST PUSH1 0x0 PUSH20 0xFFFFFFFFFFFFFFFFFFFFFFFFFFFFFFFFFFFFFFFF AND DUP4 PUSH20 0xFFFFFFFFFFFFFFFFFFFFFFFFFFFFFFFFFFFFFFFF AND SUB PUSH2 0xDB6 JUMPI PUSH1 0x6 SLOAD DUP2 LT ISZERO PUSH2 0xD64 JUMPI PUSH1 0x40 MLOAD PUSH32 0x8C379A000000000000000000000000000000000000000000000000000000000 DUP2 MSTORE PUSH1 0x4 ADD PUSH2 0xD5B SWAP1 PUSH2 0x2372 JUMP JUMPDEST PUSH1 0x40 MLOAD DUP1 SWAP2 SUB SWAP1 REVERT JUMPDEST PUSH2 0xDB1 CALLER DUP3 PUSH1 0x2 PUSH1 0x0 SWAP1 SLOAD SWAP1 PUSH2 0x100 EXP SWAP1 DIV PUSH20 0xFFFFFFFFFFFFFFFFFFFFFFFFFFFFFFFFFFFFFFFF AND PUSH20 0xFFFFFFFFFFFFFFFFFFFFFFFFFFFFFFFFFFFFFFFF AND PUSH2 0x17D5 SWAP1 SWAP3 SWAP2 SWAP1 PUSH4 0xFFFFFFFF AND JUMP JUMPDEST PUSH2 0xF02 JUMP JUMPDEST PUSH1 0x6 SLOAD DUP2 LT ISZERO PUSH2 0xDFB JUMPI PUSH1 0x40 MLOAD PUSH32 0x8C379A000000000000000000000000000000000000000000000000000000000 DUP2 MSTORE PUSH1 0x4 ADD PUSH2 0xDF2 SWAP1 PUSH2 0x2404 JUMP JUMPDEST PUSH1 0x40 MLOAD DUP1 SWAP2 SUB SWAP1 REVERT JUMPDEST PUSH1 0x7 PUSH1 0x0 DUP5 PUSH20 0xFFFFFFFFFFFFFFFFFFFFFFFFFFFFFFFFFFFFFFFF AND PUSH20 0xFFFFFFFFFFFFFFFFFFFFFFFFFFFFFFFFFFFFFFFF AND DUP2 MSTORE PUSH1 0x20 ADD SWAP1 DUP2 MSTORE PUSH1 0x20 ADD PUSH1 0x0 KECCAK256 PUSH1 0x0 SWAP1 SLOAD SWAP1 PUSH2 0x100 EXP SWAP1 DIV PUSH1 0xFF AND PUSH2 0xE87 JUMPI PUSH1 0x40 MLOAD PUSH32 0x8C379A000000000000000000000000000000000000000000000000000000000 DUP2 MSTORE PUSH1 0x4 ADD PUSH2 0xE7E SWAP1 PUSH2 0x1F07 JUMP JUMPDEST PUSH1 0x40 MLOAD DUP1 SWAP2 SUB SWAP1 REVERT JUMPDEST PUSH2 0xEB4 CALLER ADDRESS DUP5 DUP7 PUSH20 0xFFFFFFFFFFFFFFFFFFFFFFFFFFFFFFFFFFFFFFFF AND PUSH2 0x185B SWAP1 SWAP4 SWAP3 SWAP2 SWAP1 PUSH4 0xFFFFFFFF AND JUMP JUMPDEST PUSH2 0xF01 CALLER DUP3 PUSH1 0x2 PUSH1 0x0 SWAP1 SLOAD SWAP1 PUSH2 0x100 EXP SWAP1 DIV PUSH20 0xFFFFFFFFFFFFFFFFFFFFFFFFFFFFFFFFFFFFFFFF AND PUSH20 0xFFFFFFFFFFFFFFFFFFFFFFFFFFFFFFFFFFFFFFFF AND PUSH2 0x17D5 SWAP1 SWAP3 SWAP2 SWAP1 PUSH4 0xFFFFFFFF AND JUMP JUMPDEST JUMPDEST DUP1 PUSH1 0xB PUSH1 0x0 DUP3 DUP3 SLOAD PUSH2 0xF14 SWAP2 SWAP1 PUSH2 0x1E76 JUMP JUMPDEST SWAP3 POP POP DUP2 SWAP1 SSTORE POP DUP3 PUSH20 0xFFFFFFFFFFFFFFFFFFFFFFFFFFFFFFFFFFFFFFFF AND CALLER PUSH20 0xFFFFFFFFFFFFFFFFFFFFFFFFFFFFFFFFFFFFFFFF AND PUSH32 0xC244D500136EDFFAE7025AAF7FBD7A07193AC544A1D0CC3132CF2A32452D340C DUP5 DUP5 PUSH1 0x40 MLOAD PUSH2 0xF7A SWAP3 SWAP2 SWAP1 PUSH2 0x2424 JUMP JUMPDEST PUSH1 0x40 MLOAD DUP1 SWAP2 SUB SWAP1 LOG3 POP POP POP JUMP JUMPDEST PUSH1 0x5 SLOAD DUP2 JUMP JUMPDEST PUSH1 0x4 SLOAD DUP2 JUMP JUMPDEST PUSH2 0xF9B PUSH2 0x1757 JUMP JUMPDEST PUSH2 0xFA5 PUSH1 0x0 PUSH2 0x18E4 JUMP JUMPDEST JUMP JUMPDEST PUSH2 0xFAF PUSH2 0x1757 JUMP JUMPDEST DUP1 PUSH1 0x5 DUP2 SWAP1 SSTORE POP POP JUMP JUMPDEST PUSH2 0xFC1 PUSH2 0x1757 JUMP JUMPDEST PUSH1 0x0 PUSH20 0xFFFFFFFFFFFFFFFFFFFFFFFFFFFFFFFFFFFFFFFF AND DUP3 PUSH20 0xFFFFFFFFFFFFFFFFFFFFFFFFFFFFFFFFFFFFFFFF AND SUB PUSH2 0x1030 JUMPI PUSH1 0x40 MLOAD PUSH32 0x8C379A000000000000000000000000000000000000000000000000000000000 DUP2 MSTORE PUSH1 0x4 ADD PUSH2 0x1027 SWAP1 PUSH2 0x24BF JUMP JUMPDEST PUSH1 0x40 MLOAD DUP1 SWAP2 SUB SWAP1 REVERT JUMPDEST PUSH1 0x0 DUP2 GT PUSH2 0x1073 JUMPI PUSH1 0x40 MLOAD PUSH32 0x8C379A000000000000000000000000000000000000000000000000000000000 DUP2 MSTORE PUSH1 0x4 ADD PUSH2 0x106A SWAP1 PUSH2 0x2551 JUMP JUMPDEST PUSH1 0x40 MLOAD DUP1 SWAP2 SUB SWAP1 REVERT JUMPDEST DUP2 PUSH1 0x2 PUSH1 0x0 PUSH2 0x100 EXP DUP2 SLOAD DUP2 PUSH20 0xFFFFFFFFFFFFFFFFFFFFFFFFFFFFFFFFFFFFFFFF MUL NOT AND SWAP1 DUP4 PUSH20 0xFFFFFFFFFFFFFFFFFFFFFFFFFFFFFFFFFFFFFFFF AND MUL OR SWAP1 SSTORE POP PUSH1 0x2 PUSH1 0x0 SWAP1 SLOAD SWAP1 PUSH2 0x100 EXP SWAP1 DIV PUSH20 0xFFFFFFFFFFFFFFFFFFFFFFFFFFFFFFFFFFFFFFFF AND PUSH20 0xFFFFFFFFFFFFFFFFFFFFFFFFFFFFFFFFFFFFFFFF AND PUSH4 0x313CE567 PUSH1 0x40 MLOAD DUP2 PUSH4 0xFFFFFFFF AND PUSH1 0xE0 SHL DUP2 MSTORE PUSH1 0x4 ADD PUSH1 0x20 PUSH1 0x40 MLOAD DUP1 DUP4 SUB DUP2 DUP7 GAS STATICCALL ISZERO DUP1 ISZERO PUSH2 0x1121 JUMPI RETURNDATASIZE PUSH1 0x0 DUP1 RETURNDATACOPY RETURNDATASIZE PUSH1 0x0 REVERT JUMPDEST POP POP POP POP PUSH1 0x40 MLOAD RETURNDATASIZE PUSH1 0x1F NOT PUSH1 0x1F DUP3 ADD AND DUP3 ADD DUP1 PUSH1 0x40 MSTORE POP DUP2 ADD SWAP1 PUSH2 0x1145 SWAP2 SWAP1 PUSH2 0x25AA JUMP JUMPDEST PUSH1 0xFF AND PUSH1 0x3 DUP2 SWAP1 SSTORE POP PUSH2 0x119D CALLER ADDRESS DUP4 PUSH1 0x2 PUSH1 0x0 SWAP1 SLOAD SWAP1 PUSH2 0x100 EXP SWAP1 DIV PUSH20 0xFFFFFFFFFFFFFFFFFFFFFFFFFFFFFFFFFFFFFFFF AND PUSH20 0xFFFFFFFFFFFFFFFFFFFFFFFFFFFFFFFFFFFFFFFF AND PUSH2 0x185B SWAP1 SWAP4 SWAP3 SWAP2 SWAP1 PUSH4 0xFFFFFFFF AND JUMP JUMPDEST PUSH1 0x2 PUSH1 0x0 SWAP1 SLOAD SWAP1 PUSH2 0x100 EXP SWAP1 DIV PUSH20 0xFFFFFFFFFFFFFFFFFFFFFFFFFFFFFFFFFFFFFFFF AND PUSH20 0xFFFFFFFFFFFFFFFFFFFFFFFFFFFFFFFFFFFFFFFF AND PUSH4 0x70A08231 ADDRESS PUSH1 0x40 MLOAD DUP3 PUSH4 0xFFFFFFFF AND PUSH1 0xE0 SHL DUP2 MSTORE PUSH1 0x4 ADD PUSH2 0x11F8 SWAP2 SWAP1 PUSH2 0x1E2C JUMP JUMPDEST PUSH1 0x20 PUSH1 0x40 MLOAD DUP1 DUP4 SUB DUP2 DUP7 GAS STATICCALL ISZERO DUP1 ISZERO PUSH2 0x1215 JUMPI RETURNDATASIZE PUSH1 0x0 DUP1 RETURNDATACOPY RETURNDATASIZE PUSH1 0x0 REVERT JUMPDEST POP POP POP POP PUSH1 0x40 MLOAD RETURNDATASIZE PUSH1 0x1F NOT PUSH1 0x1F DUP3 ADD AND DUP3 ADD DUP1 PUSH1 0x40 MSTORE POP DUP2 ADD SWAP1 PUSH2 0x1239 SWAP2 SWAP1 PUSH2 0x25EC JUMP JUMPDEST PUSH1 0x4 DUP2 SWAP1 SSTORE POP PUSH32 0x3211F0A57D24F0B52E2E0573AF5BE089C5FAADEB55F9B90591717B0A22F7E2A DUP3 DUP3 PUSH1 0x40 MLOAD PUSH2 0x1270 SWAP3 SWAP2 SWAP1 PUSH2 0x2147 JUMP JUMPDEST PUSH1 0x40 MLOAD DUP1 SWAP2 SUB SWAP1 LOG1 POP POP JUMP JUMPDEST PUSH1 0x7 PUSH1 0x20 MSTORE DUP1 PUSH1 0x0 MSTORE PUSH1 0x40 PUSH1 0x0 KECCAK256 PUSH1 0x0 SWAP2 POP SLOAD SWAP1 PUSH2 0x100 EXP SWAP1 DIV PUSH1 0xFF AND DUP2 JUMP JUMPDEST PUSH1 0x0 DUP1 PUSH1 0x0 SWAP1 SLOAD SWAP1 PUSH2 0x100 EXP SWAP1 DIV PUSH20 0xFFFFFFFFFFFFFFFFFFFFFFFFFFFFFFFFFFFFFFFF AND SWAP1 POP SWAP1 JUMP JUMPDEST PUSH2 0x12CD PUSH2 0x1757 JUMP JUMPDEST DUP1 PUSH1 0x6 DUP2 SWAP1 SSTORE POP POP JUMP JUMPDEST PUSH1 0x9 SLOAD DUP2 JUMP JUMPDEST PUSH1 0x3 SLOAD DUP2 JUMP JUMPDEST PUSH1 0x6 SLOAD DUP2 JUMP JUMPDEST PUSH2 0x12F1 PUSH2 0x1757 JUMP JUMPDEST PUSH1 0xA SLOAD TIMESTAMP LT ISZERO PUSH2 0x1336 JUMPI PUSH1 0x40 MLOAD PUSH32 0x8C379A000000000000000000000000000000000000000000000000000000000 DUP2 MSTORE PUSH1 0x4 ADD PUSH2 0x132D SWAP1 PUSH2 0x268B JUMP JUMPDEST PUSH1 0x40 MLOAD DUP1 SWAP2 SUB SWAP1 REVERT JUMPDEST PUSH2 0x1383 CALLER DUP3 PUSH1 0x2 PUSH1 0x0 SWAP1 SLOAD SWAP1 PUSH2 0x100 EXP SWAP1 DIV PUSH20 0xFFFFFFFFFFFFFFFFFFFFFFFFFFFFFFFFFFFFFFFF AND PUSH20 0xFFFFFFFFFFFFFFFFFFFFFFFFFFFFFFFFFFFFFFFF AND PUSH2 0x17D5 SWAP1 SWAP3 SWAP2 SWAP1 PUSH4 0xFFFFFFFF AND JUMP JUMPDEST POP JUMP JUMPDEST PUSH1 0x2 PUSH1 0x0 SWAP1 SLOAD SWAP1 PUSH2 0x100 EXP SWAP1 DIV PUSH20 0xFFFFFFFFFFFFFFFFFFFFFFFFFFFFFFFFFFFFFFFF AND DUP2 JUMP JUMPDEST PUSH2 0x13B4 PUSH2 0x1757 JUMP JUMPDEST PUSH1 0x0 PUSH20 0xFFFFFFFFFFFFFFFFFFFFFFFFFFFFFFFFFFFFFFFF AND DUP2 PUSH20 0xFFFFFFFFFFFFFFFFFFFFFFFFFFFFFFFFFFFFFFFF AND SUB PUSH2 0x1423 JUMPI PUSH1 0x40 MLOAD PUSH32 0x8C379A000000000000000000000000000000000000000000000000000000000 DUP2 MSTORE PUSH1 0x4 ADD PUSH2 0x141A SWAP1 PUSH2 0x271D JUMP JUMPDEST PUSH1 0x40 MLOAD DUP1 SWAP2 SUB SWAP1 REVERT JUMPDEST PUSH2 0x142C DUP2 PUSH2 0x18E4 JUMP JUMPDEST POP JUMP JUMPDEST PUSH2 0x1437 PUSH2 0x1757 JUMP JUMPDEST PUSH1 0x2 PUSH1 0x0 SWAP1 SLOAD SWAP1 PUSH2 0x100 EXP SWAP1 DIV PUSH20 0xFFFFFFFFFFFFFFFFFFFFFFFFFFFFFFFFFFFFFFFF AND PUSH20 0xFFFFFFFFFFFFFFFFFFFFFFFFFFFFFFFFFFFFFFFF AND DUP3 PUSH20 0xFFFFFFFFFFFFFFFFFFFFFFFFFFFFFFFFFFFFFFFF AND SUB PUSH2 0x14C7 JUMPI PUSH1 0x40 MLOAD PUSH32 0x8C379A000000000000000000000000000000000000000000000000000000000 DUP2 MSTORE PUSH1 0x4 ADD PUSH2 0x14BE SWAP1 PUSH2 0x27D5 JUMP JUMPDEST PUSH1 0x40 MLOAD DUP1 SWAP2 SUB SWAP1 REVERT JUMPDEST PUSH2 0x14F2 CALLER DUP3 DUP5 PUSH20 0xFFFFFFFFFFFFFFFFFFFFFFFFFFFFFFFFFFFFFFFF AND PUSH2 0x17D5 SWAP1 SWAP3 SWAP2 SWAP1 PUSH4 0xFFFFFFFF AND JUMP JUMPDEST POP POP JUMP JUMPDEST PUSH2 0x14FE PUSH2 0x1757 JUMP JUMPDEST PUSH1 0x2 PUSH1 0x0 SWAP1 SLOAD SWAP1 PUSH2 0x100 EXP SWAP1 DIV PUSH20 0xFFFFFFFFFFFFFFFFFFFFFFFFFFFFFFFFFFFFFFFF AND PUSH20 0xFFFFFFFFFFFFFFFFFFFFFFFFFFFFFFFFFFFFFFFF AND DUP2 PUSH20 0xFFFFFFFFFFFFFFFFFFFFFFFFFFFFFFFFFFFFFFFF AND SUB PUSH2 0x158E JUMPI PUSH1 0x40 MLOAD PUSH32 0x8C379A000000000000000000000000000000000000000000000000000000000 DUP2 MSTORE PUSH1 0x4 ADD PUSH2 0x1585 SWAP1 PUSH2 0x288D JUMP JUMPDEST PUSH1 0x40 MLOAD DUP1 SWAP2 SUB SWAP1 REVERT JUMPDEST PUSH1 0x0 DUP2 PUSH20 0xFFFFFFFFFFFFFFFFFFFFFFFFFFFFFFFFFFFFFFFF AND PUSH4 0x70A08231 ADDRESS PUSH1 0x40 MLOAD DUP3 PUSH4 0xFFFFFFFF AND PUSH1 0xE0 SHL DUP2 MSTORE PUSH1 0x4 ADD PUSH2 0x15C9 SWAP2 SWAP1 PUSH2 0x1E2C JUMP JUMPDEST PUSH1 0x20 PUSH1 0x40 MLOAD DUP1 DUP4 SUB DUP2 DUP7 GAS STATICCALL ISZERO DUP1 ISZERO PUSH2 0x15E6 JUMPI RETURNDATASIZE PUSH1 0x0 DUP1 RETURNDATACOPY RETURNDATASIZE PUSH1 0x0 REVERT JUMPDEST POP POP POP POP PUSH1 0x40 MLOAD RETURNDATASIZE PUSH1 0x1F NOT PUSH1 0x1F DUP3 ADD AND DUP3 ADD DUP1 PUSH1 0x40 MSTORE POP DUP2 ADD SWAP1 PUSH2 0x160A SWAP2 SWAP1 PUSH2 0x25EC JUMP JUMPDEST SWAP1 POP PUSH2 0x1616 DUP3 DUP3 PUSH2 0x142F JUMP JUMPDEST POP POP JUMP JUMPDEST PUSH2 0x1622 PUSH2 0x1757 JUMP JUMPDEST PUSH1 0xA SLOAD TIMESTAMP LT ISZERO PUSH2 0x1667 JUMPI PUSH1 0x40 MLOAD PUSH32 0x8C379A000000000000000000000000000000000000000000000000000000000 DUP2 MSTORE PUSH1 0x4 ADD PUSH2 0x165E SWAP1 PUSH2 0x268B JUMP JUMPDEST PUSH1 0x40 MLOAD DUP1 SWAP2 SUB SWAP1 REVERT JUMPDEST PUSH1 0x0 PUSH1 0x2 PUSH1 0x0 SWAP1 SLOAD SWAP1 PUSH2 0x100 EXP SWAP1 DIV PUSH20 0xFFFFFFFFFFFFFFFFFFFFFFFFFFFFFFFFFFFFFFFF AND PUSH20 0xFFFFFFFFFFFFFFFFFFFFFFFFFFFFFFFFFFFFFFFF AND PUSH4 0x70A08231 ADDRESS PUSH1 0x40 MLOAD DUP3 PUSH4 0xFFFFFFFF AND PUSH1 0xE0 SHL DUP2 MSTORE PUSH1 0x4 ADD PUSH2 0x16C4 SWAP2 SWAP1 PUSH2 0x1E2C JUMP JUMPDEST PUSH1 0x20 PUSH1 0x40 MLOAD DUP1 DUP4 SUB DUP2 DUP7 GAS STATICCALL ISZERO DUP1 ISZERO PUSH2 0x16E1 JUMPI RETURNDATASIZE PUSH1 0x0 DUP1 RETURNDATACOPY RETURNDATASIZE PUSH1 0x0 REVERT JUMPDEST POP POP POP POP PUSH1 0x40 MLOAD RETURNDATASIZE PUSH1 0x1F NOT PUSH1 0x1F DUP3 ADD AND DUP3 ADD DUP1 PUSH1 0x40 MSTORE POP DUP2 ADD SWAP1 PUSH2 0x1705 SWAP2 SWAP1 PUSH2 0x25EC JUMP JUMPDEST SWAP1 POP PUSH2 0x1754 CALLER DUP3 PUSH1 0x2 PUSH1 0x0 SWAP1 SLOAD SWAP1 PUSH2 0x100 EXP SWAP1 DIV PUSH20 0xFFFFFFFFFFFFFFFFFFFFFFFFFFFFFFFFFFFFFFFF AND PUSH20 0xFFFFFFFFFFFFFFFFFFFFFFFFFFFFFFFFFFFFFFFF AND PUSH2 0x17D5 SWAP1 SWAP3 SWAP2 SWAP1 PUSH4 0xFFFFFFFF AND JUMP JUMPDEST POP JUMP JUMPDEST PUSH2 0x175F PUSH2 0x19A8 JUMP JUMPDEST PUSH20 0xFFFFFFFFFFFFFFFFFFFFFFFFFFFFFFFFFFFFFFFF AND PUSH2 0x177D PUSH2 0x129C JUMP JUMPDEST PUSH20 0xFFFFFFFFFFFFFFFFFFFFFFFFFFFFFFFFFFFFFFFF AND EQ PUSH2 0x17D3 JUMPI PUSH1 0x40 MLOAD PUSH32 0x8C379A000000000000000000000000000000000000000000000000000000000 DUP2 MSTORE PUSH1 0x4 ADD PUSH2 0x17CA SWAP1 PUSH2 0x28F9 JUMP JUMPDEST PUSH1 0x40 MLOAD DUP1 SWAP2 SUB SWAP1 REVERT JUMPDEST JUMP JUMPDEST PUSH2 0x1856 DUP4 PUSH4 0xA9059CBB PUSH1 0xE0 SHL DUP5 DUP5 PUSH1 0x40 MLOAD PUSH1 0x24 ADD PUSH2 0x17F4 SWAP3 SWAP2 SWAP1 PUSH2 0x2147 JUMP JUMPDEST PUSH1 0x40 MLOAD PUSH1 0x20 DUP2 DUP4 SUB SUB DUP2 MSTORE SWAP1 PUSH1 0x40 MSTORE SWAP1 PUSH28 0xFFFFFFFFFFFFFFFFFFFFFFFFFFFFFFFFFFFFFFFFFFFFFFFFFFFFFFFF NOT AND PUSH1 0x20 DUP3 ADD DUP1 MLOAD PUSH28 0xFFFFFFFFFFFFFFFFFFFFFFFFFFFFFFFFFFFFFFFFFFFFFFFFFFFFFFFF DUP4 DUP2 DUP4 AND OR DUP4 MSTORE POP POP POP POP PUSH2 0x19B0 JUMP JUMPDEST POP POP POP JUMP JUMPDEST PUSH2 0x18DE DUP5 PUSH4 0x23B872DD PUSH1 0xE0 SHL DUP6 DUP6 DUP6 PUSH1 0x40 MLOAD PUSH1 0x24 ADD PUSH2 0x187C SWAP4 SWAP3 SWAP2 SWAP1 PUSH2 0x2919 JUMP JUMPDEST PUSH1 0x40 MLOAD PUSH1 0x20 DUP2 DUP4 SUB SUB DUP2 MSTORE SWAP1 PUSH1 0x40 MSTORE SWAP1 PUSH28 0xFFFFFFFFFFFFFFFFFFFFFFFFFFFFFFFFFFFFFFFFFFFFFFFFFFFFFFFF NOT AND PUSH1 0x20 DUP3 ADD DUP1 MLOAD PUSH28 0xFFFFFFFFFFFFFFFFFFFFFFFFFFFFFFFFFFFFFFFFFFFFFFFFFFFFFFFF DUP4 DUP2 DUP4 AND OR DUP4 MSTORE POP POP POP POP PUSH2 0x19B0 JUMP JUMPDEST POP POP POP POP JUMP JUMPDEST PUSH1 0x0 DUP1 PUSH1 0x0 SWAP1 SLOAD SWAP1 PUSH2 0x100 EXP SWAP1 DIV PUSH20 0xFFFFFFFFFFFFFFFFFFFFFFFFFFFFFFFFFFFFFFFF AND SWAP1 POP DUP2 PUSH1 0x0 DUP1 PUSH2 0x100 EXP DUP2 SLOAD DUP2 PUSH20 0xFFFFFFFFFFFFFFFFFFFFFFFFFFFFFFFFFFFFFFFF MUL NOT AND SWAP1 DUP4 PUSH20 0xFFFFFFFFFFFFFFFFFFFFFFFFFFFFFFFFFFFFFFFF AND MUL OR SWAP1 SSTORE POP DUP2 PUSH20 0xFFFFFFFFFFFFFFFFFFFFFFFFFFFFFFFFFFFFFFFF AND DUP2 PUSH20 0xFFFFFFFFFFFFFFFFFFFFFFFFFFFFFFFFFFFFFFFF AND PUSH32 0x8BE0079C531659141344CD1FD0A4F28419497F9722A3DAAFE3B4186F6B6457E0 PUSH1 0x40 MLOAD PUSH1 0x40 MLOAD DUP1 SWAP2 SUB SWAP1 LOG3 POP POP JUMP JUMPDEST PUSH1 0x0 CALLER SWAP1 POP SWAP1 JUMP JUMPDEST PUSH1 0x0 PUSH2 0x1A12 DUP3 PUSH1 0x40 MLOAD DUP1 PUSH1 0x40 ADD PUSH1 0x40 MSTORE DUP1 PUSH1 0x20 DUP2 MSTORE PUSH1 0x20 ADD PUSH32 0x5361666545524332303A206C6F772D6C6576656C2063616C6C206661696C6564 DUP2 MSTORE POP DUP6 PUSH20 0xFFFFFFFFFFFFFFFFFFFFFFFFFFFFFFFFFFFFFFFF AND PUSH2 0x1A78 SWAP1 SWAP3 SWAP2 SWAP1 PUSH4 0xFFFFFFFF AND JUMP JUMPDEST SWAP1 POP PUSH1 0x0 DUP2 MLOAD EQ DUP1 PUSH2 0x1A34 JUMPI POP DUP1 DUP1 PUSH1 0x20 ADD SWAP1 MLOAD DUP2 ADD SWAP1 PUSH2 0x1A33 SWAP2 SWAP1 PUSH2 0x297C JUMP JUMPDEST JUMPDEST PUSH2 0x1A73 JUMPI PUSH1 0x40 MLOAD PUSH32 0x8C379A000000000000000000000000000000000000000000000000000000000 DUP2 MSTORE PUSH1 0x4 ADD PUSH2 0x1A6A SWAP1 PUSH2 0x2A1B JUMP JUMPDEST PUSH1 0x40 MLOAD DUP1 SWAP2 SUB SWAP1 REVERT JUMPDEST POP POP POP JUMP JUMPDEST PUSH1 0x60 PUSH2 0x1A87 DUP5 DUP5 PUSH1 0x0 DUP6 PUSH2 0x1A90 JUMP JUMPDEST SWAP1 POP SWAP4 SWAP3 POP POP POP JUMP JUMPDEST PUSH1 0x60 DUP3 SELFBALANCE LT ISZERO PUSH2 0x1AD5 JUMPI PUSH1 0x40 MLOAD PUSH32 0x8C379A000000000000000000000000000000000000000000000000000000000 DUP2 MSTORE PUSH1 0x4 ADD PUSH2 0x1ACC SWAP1 PUSH2 0x2AAD JUMP JUMPDEST PUSH1 0x40 MLOAD DUP1 SWAP2 SUB SWAP1 REVERT JUMPDEST PUSH1 0x0 DUP1 DUP7 PUSH20 0xFFFFFFFFFFFFFFFFFFFFFFFFFFFFFFFFFFFFFFFF AND DUP6 DUP8 PUSH1 0x40 MLOAD PUSH2 0x1AFE SWAP2 SWAP1 PUSH2 0x2B3E JUMP JUMPDEST PUSH1 0x0 PUSH1 0x40 MLOAD DUP1 DUP4 SUB DUP2 DUP6 DUP8 GAS CALL SWAP3 POP POP POP RETURNDATASIZE DUP1 PUSH1 0x0 DUP2 EQ PUSH2 0x1B3B JUMPI PUSH1 0x40 MLOAD SWAP2 POP PUSH1 0x1F NOT PUSH1 0x3F RETURNDATASIZE ADD AND DUP3 ADD PUSH1 0x40 MSTORE RETURNDATASIZE DUP3 MSTORE RETURNDATASIZE PUSH1 0x0 PUSH1 0x20 DUP5 ADD RETURNDATACOPY PUSH2 0x1B40 JUMP JUMPDEST PUSH1 0x60 SWAP2 POP JUMPDEST POP SWAP2 POP SWAP2 POP PUSH2 0x1B51 DUP8 DUP4 DUP4 DUP8 PUSH2 0x1B5D JUMP JUMPDEST SWAP3 POP POP POP SWAP5 SWAP4 POP POP POP POP JUMP JUMPDEST PUSH1 0x60 DUP4 ISZERO PUSH2 0x1BBF JUMPI PUSH1 0x0 DUP4 MLOAD SUB PUSH2 0x1BB7 JUMPI PUSH2 0x1B77 DUP6 PUSH2 0x1BD2 JUMP JUMPDEST PUSH2 0x1BB6 JUMPI PUSH1 0x40 MLOAD PUSH32 0x8C379A000000000000000000000000000000000000000000000000000000000 DUP2 MSTORE PUSH1 0x4 ADD PUSH2 0x1BAD SWAP1 PUSH2 0x2BA1 JUMP JUMPDEST PUSH1 0x40 MLOAD DUP1 SWAP2 SUB SWAP1 REVERT JUMPDEST JUMPDEST DUP3 SWAP1 POP PUSH2 0x1BCA JUMP JUMPDEST PUSH2 0x1BC9 DUP4 DUP4 PUSH2 0x1BF5 JUMP JUMPDEST JUMPDEST SWAP5 SWAP4 POP POP POP POP JUMP JUMPDEST PUSH1 0x0 DUP1 DUP3 PUSH20 0xFFFFFFFFFFFFFFFFFFFFFFFFFFFFFFFFFFFFFFFF AND EXTCODESIZE GT SWAP1 POP SWAP2 SWAP1 POP JUMP JUMPDEST PUSH1 0x0 DUP3 MLOAD GT ISZERO PUSH2 0x1C08 JUMPI DUP2 MLOAD DUP1 DUP4 PUSH1 0x20 ADD REVERT JUMPDEST DUP1 PUSH1 0x40 MLOAD PUSH32 0x8C379A000000000000000000000000000000000000000000000000000000000 DUP2 MSTORE PUSH1 0x4 ADD PUSH2 0x1C3C SWAP2 SWAP1 PUSH2 0x2C16 JUMP JUMPDEST PUSH1 0x40 MLOAD DUP1 SWAP2 SUB SWAP1 REVERT JUMPDEST PUSH1 0x0 DUP1 REVERT JUMPDEST PUSH1 0x0 DUP2 SWAP1 POP SWAP2 SWAP1 POP JUMP JUMPDEST PUSH2 0x1C5D DUP2 PUSH2 0x1C4A JUMP JUMPDEST DUP2 EQ PUSH2 0x1C68 JUMPI PUSH1 0x0 DUP1 REVERT JUMPDEST POP JUMP JUMPDEST PUSH1 0x0 DUP2 CALLDATALOAD SWAP1 POP PUSH2 0x1C7A DUP2 PUSH2 0x1C54 JUMP JUMPDEST SWAP3 SWAP2 POP POP JUMP JUMPDEST PUSH1 0x0 PUSH1 0x20 DUP3 DUP5 SUB SLT ISZERO PUSH2 0x1C96 JUMPI PUSH2 0x1C95 PUSH2 0x1C45 JUMP JUMPDEST JUMPDEST PUSH1 0x0 PUSH2 0x1CA4 DUP5 DUP3 DUP6 ADD PUSH2 0x1C6B JUMP JUMPDEST SWAP2 POP POP SWAP3 SWAP2 POP POP JUMP JUMPDEST PUSH1 0x0 PUSH20 0xFFFFFFFFFFFFFFFFFFFFFFFFFFFFFFFFFFFFFFFF DUP3 AND SWAP1 POP SWAP2 SWAP1 POP JUMP JUMPDEST PUSH1 0x0 PUSH2 0x1CD8 DUP3 PUSH2 0x1CAD JUMP JUMPDEST SWAP1 POP SWAP2 SWAP1 POP JUMP JUMPDEST PUSH2 0x1CE8 DUP2 PUSH2 0x1CCD JUMP JUMPDEST DUP2 EQ PUSH2 0x1CF3 JUMPI PUSH1 0x0 DUP1 REVERT JUMPDEST POP JUMP JUMPDEST PUSH1 0x0 DUP2 CALLDATALOAD SWAP1 POP PUSH2 0x1D05 DUP2 PUSH2 0x1CDF JUMP JUMPDEST SWAP3 SWAP2 POP POP JUMP JUMPDEST PUSH1 0x0 DUP1 PUSH1 0x40 DUP4 DUP6 SUB SLT ISZERO PUSH2 0x1D22 JUMPI PUSH2 0x1D21 PUSH2 0x1C45 JUMP JUMPDEST JUMPDEST PUSH1 0x0 PUSH2 0x1D30 DUP6 DUP3 DUP7 ADD PUSH2 0x1CF6 JUMP JUMPDEST SWAP3 POP POP PUSH1 0x20 PUSH2 0x1D41 DUP6 DUP3 DUP7 ADD PUSH2 0x1C6B JUMP JUMPDEST SWAP2 POP POP SWAP3 POP SWAP3 SWAP1 POP JUMP JUMPDEST PUSH2 0x1D54 DUP2 PUSH2 0x1C4A JUMP JUMPDEST DUP3 MSTORE POP POP JUMP JUMPDEST PUSH1 0x0 PUSH1 0x20 DUP3 ADD SWAP1 POP PUSH2 0x1D6F PUSH1 0x0 DUP4 ADD DUP5 PUSH2 0x1D4B JUMP JUMPDEST SWAP3 SWAP2 POP POP JUMP JUMPDEST PUSH1 0x0 PUSH1 0x20 DUP3 DUP5 SUB SLT ISZERO PUSH2 0x1D8B JUMPI PUSH2 0x1D8A PUSH2 0x1C45 JUMP JUMPDEST JUMPDEST PUSH1 0x0 PUSH2 0x1D99 DUP5 DUP3 DUP6 ADD PUSH2 0x1CF6 JUMP JUMPDEST SWAP2 POP POP SWAP3 SWAP2 POP POP JUMP JUMPDEST PUSH1 0x0 PUSH1 0x80 DUP3 ADD SWAP1 POP PUSH2 0x1DB7 PUSH1 0x0 DUP4 ADD DUP8 PUSH2 0x1D4B JUMP JUMPDEST PUSH2 0x1DC4 PUSH1 0x20 DUP4 ADD DUP7 PUSH2 0x1D4B JUMP JUMPDEST PUSH2 0x1DD1 PUSH1 0x40 DUP4 ADD DUP6 PUSH2 0x1D4B JUMP JUMPDEST PUSH2 0x1DDE PUSH1 0x60 DUP4 ADD DUP5 PUSH2 0x1D4B JUMP JUMPDEST SWAP6 SWAP5 POP POP POP POP POP JUMP JUMPDEST PUSH1 0x0 DUP2 ISZERO ISZERO SWAP1 POP SWAP2 SWAP1 POP JUMP JUMPDEST PUSH2 0x1DFC DUP2 PUSH2 0x1DE7 JUMP JUMPDEST DUP3 MSTORE POP POP JUMP JUMPDEST PUSH1 0x0 PUSH1 0x20 DUP3 ADD SWAP1 POP PUSH2 0x1E17 PUSH1 0x0 DUP4 ADD DUP5 PUSH2 0x1DF3 JUMP JUMPDEST SWAP3 SWAP2 POP POP JUMP JUMPDEST PUSH2 0x1E26 DUP2 PUSH2 0x1CCD JUMP JUMPDEST DUP3 MSTORE POP POP JUMP JUMPDEST PUSH1 0x0 PUSH1 0x20 DUP3 ADD SWAP1 POP PUSH2 0x1E41 PUSH1 0x0 DUP4 ADD DUP5 PUSH2 0x1E1D JUMP JUMPDEST SWAP3 SWAP2 POP POP JUMP JUMPDEST PUSH32 0x4E487B7100000000000000000000000000000000000000000000000000000000 PUSH1 0x0 MSTORE PUSH1 0x11 PUSH1 0x4 MSTORE PUSH1 0x24 PUSH1 0x0 REVERT JUMPDEST PUSH1 0x0 PUSH2 0x1E81 DUP3 PUSH2 0x1C4A JUMP JUMPDEST SWAP2 POP PUSH2 0x1E8C DUP4 PUSH2 0x1C4A JUMP JUMPDEST SWAP3 POP DUP3 DUP3 ADD SWAP1 POP DUP1 DUP3 GT ISZERO PUSH2 0x1EA4 JUMPI PUSH2 0x1EA3 PUSH2 0x1E47 JUMP JUMPDEST JUMPDEST SWAP3 SWAP2 POP POP JUMP JUMPDEST PUSH1 0x0 DUP3 DUP3 MSTORE PUSH1 0x20 DUP3 ADD SWAP1 POP SWAP3 SWAP2 POP POP JUMP JUMPDEST PUSH32 0x50726573616C653A20546F6B656E206E6F742077686974656C69737465640000 PUSH1 0x0 DUP3 ADD MSTORE POP JUMP JUMPDEST PUSH1 0x0 PUSH2 0x1EF1 PUSH1 0x1E DUP4 PUSH2 0x1EAA JUMP JUMPDEST SWAP2 POP PUSH2 0x1EFC DUP3 PUSH2 0x1EBB JUMP JUMPDEST PUSH1 0x20 DUP3 ADD SWAP1 POP SWAP2 SWAP1 POP JUMP JUMPDEST PUSH1 0x0 PUSH1 0x20 DUP3 ADD SWAP1 POP DUP2 DUP2 SUB PUSH1 0x0 DUP4 ADD MSTORE PUSH2 0x1F20 DUP2 PUSH2 0x1EE4 JUMP JUMPDEST SWAP1 POP SWAP2 SWAP1 POP JUMP JUMPDEST PUSH1 0x0 DUP2 PUSH1 0x1 SHR SWAP1 POP SWAP2 SWAP1 POP JUMP JUMPDEST PUSH1 0x0 DUP1 DUP3 SWAP2 POP DUP4 SWAP1 POP JUMPDEST PUSH1 0x1 DUP6 GT ISZERO PUSH2 0x1F7E JUMPI DUP1 DUP7 DIV DUP2 GT ISZERO PUSH2 0x1F5A JUMPI PUSH2 0x1F59 PUSH2 0x1E47 JUMP JUMPDEST JUMPDEST PUSH1 0x1 DUP6 AND ISZERO PUSH2 0x1F69 JUMPI DUP1 DUP3 MUL SWAP2 POP JUMPDEST DUP1 DUP2 MUL SWAP1 POP PUSH2 0x1F77 DUP6 PUSH2 0x1F27 JUMP JUMPDEST SWAP5 POP PUSH2 0x1F3E JUMP JUMPDEST SWAP5 POP SWAP5 SWAP3 POP POP POP JUMP JUMPDEST PUSH1 0x0 DUP3 PUSH2 0x1F97 JUMPI PUSH1 0x1 SWAP1 POP PUSH2 0x2053 JUMP JUMPDEST DUP2 PUSH2 0x1FA5 JUMPI PUSH1 0x0 SWAP1 POP PUSH2 0x2053 JUMP JUMPDEST DUP2 PUSH1 0x1 DUP2 EQ PUSH2 0x1FBB JUMPI PUSH1 0x2 DUP2 EQ PUSH2 0x1FC5 JUMPI PUSH2 0x1FF4 JUMP JUMPDEST PUSH1 0x1 SWAP2 POP POP PUSH2 0x2053 JUMP JUMPDEST PUSH1 0xFF DUP5 GT ISZERO PUSH2 0x1FD7 JUMPI PUSH2 0x1FD6 PUSH2 0x1E47 JUMP JUMPDEST JUMPDEST DUP4 PUSH1 0x2 EXP SWAP2 POP DUP5 DUP3 GT ISZERO PUSH2 0x1FEE JUMPI PUSH2 0x1FED PUSH2 0x1E47 JUMP JUMPDEST JUMPDEST POP PUSH2 0x2053 JUMP JUMPDEST POP PUSH1 0x20 DUP4 LT PUSH2 0x133 DUP4 LT AND PUSH1 0x4E DUP5 LT PUSH1 0xB DUP5 LT AND OR ISZERO PUSH2 0x2029 JUMPI DUP3 DUP3 EXP SWAP1 POP DUP4 DUP2 GT ISZERO PUSH2 0x2024 JUMPI PUSH2 0x2023 PUSH2 0x1E47 JUMP JUMPDEST JUMPDEST PUSH2 0x2053 JUMP JUMPDEST PUSH2 0x2036 DUP5 DUP5 DUP5 PUSH1 0x1 PUSH2 0x1F34 JUMP JUMPDEST SWAP3 POP SWAP1 POP DUP2 DUP5 DIV DUP2 GT ISZERO PUSH2 0x204D JUMPI PUSH2 0x204C PUSH2 0x1E47 JUMP JUMPDEST JUMPDEST DUP2 DUP2 MUL SWAP1 POP JUMPDEST SWAP4 SWAP3 POP POP POP JUMP JUMPDEST PUSH1 0x0 PUSH2 0x2065 DUP3 PUSH2 0x1C4A JUMP JUMPDEST SWAP2 POP PUSH2 0x2070 DUP4 PUSH2 0x1C4A JUMP JUMPDEST SWAP3 POP PUSH2 0x209D PUSH32 0xFFFFFFFFFFFFFFFFFFFFFFFFFFFFFFFFFFFFFFFFFFFFFFFFFFFFFFFFFFFFFFFF DUP5 DUP5 PUSH2 0x1F87 JUMP JUMPDEST SWAP1 POP SWAP3 SWAP2 POP POP JUMP JUMPDEST PUSH1 0x0 PUSH2 0x20B0 DUP3 PUSH2 0x1C4A JUMP JUMPDEST SWAP2 POP PUSH2 0x20BB DUP4 PUSH2 0x1C4A JUMP JUMPDEST SWAP3 POP DUP3 DUP3 MUL PUSH2 0x20C9 DUP2 PUSH2 0x1C4A JUMP JUMPDEST SWAP2 POP DUP3 DUP3 DIV DUP5 EQ DUP4 ISZERO OR PUSH2 0x20E0 JUMPI PUSH2 0x20DF PUSH2 0x1E47 JUMP JUMPDEST JUMPDEST POP SWAP3 SWAP2 POP POP JUMP JUMPDEST PUSH32 0x4E487B7100000000000000000000000000000000000000000000000000000000 PUSH1 0x0 MSTORE PUSH1 0x12 PUSH1 0x4 MSTORE PUSH1 0x24 PUSH1 0x0 REVERT JUMPDEST PUSH1 0x0 PUSH2 0x2121 DUP3 PUSH2 0x1C4A JUMP JUMPDEST SWAP2 POP PUSH2 0x212C DUP4 PUSH2 0x1C4A JUMP JUMPDEST SWAP3 POP DUP3 PUSH2 0x213C JUMPI PUSH2 0x213B PUSH2 0x20E7 JUMP JUMPDEST JUMPDEST DUP3 DUP3 DIV SWAP1 POP SWAP3 SWAP2 POP POP JUMP JUMPDEST PUSH1 0x0 PUSH1 0x40 DUP3 ADD SWAP1 POP PUSH2 0x215C PUSH1 0x0 DUP4 ADD DUP6 PUSH2 0x1E1D JUMP JUMPDEST PUSH2 0x2169 PUSH1 0x20 DUP4 ADD DUP5 PUSH2 0x1D4B JUMP JUMPDEST SWAP4 SWAP3 POP POP POP JUMP JUMPDEST PUSH32 0x50726573616C653A2050726573616C6520686173206E6F742073746172746564 PUSH1 0x0 DUP3 ADD MSTORE PUSH32 0x2079657400000000000000000000000000000000000000000000000000000000 PUSH1 0x20 DUP3 ADD MSTORE POP JUMP JUMPDEST PUSH1 0x0 PUSH2 0x21CC PUSH1 0x24 DUP4 PUSH2 0x1EAA JUMP JUMPDEST SWAP2 POP PUSH2 0x21D7 DUP3 PUSH2 0x2170 JUMP JUMPDEST PUSH1 0x40 DUP3 ADD SWAP1 POP SWAP2 SWAP1 POP JUMP JUMPDEST PUSH1 0x0 PUSH1 0x20 DUP3 ADD SWAP1 POP DUP2 DUP2 SUB PUSH1 0x0 DUP4 ADD MSTORE PUSH2 0x21FB DUP2 PUSH2 0x21BF JUMP JUMPDEST SWAP1 POP SWAP2 SWAP1 POP JUMP JUMPDEST PUSH32 0x50726573616C653A2050726573616C652068617320656E646564000000000000 PUSH1 0x0 DUP3 ADD MSTORE POP JUMP JUMPDEST PUSH1 0x0 PUSH2 0x2238 PUSH1 0x1A DUP4 PUSH2 0x1EAA JUMP JUMPDEST SWAP2 POP PUSH2 0x2243 DUP3 PUSH2 0x2202 JUMP JUMPDEST PUSH1 0x20 DUP3 ADD SWAP1 POP SWAP2 SWAP1 POP JUMP JUMPDEST PUSH1 0x0 PUSH1 0x20 DUP3 ADD SWAP1 POP DUP2 DUP2 SUB PUSH1 0x0 DUP4 ADD MSTORE PUSH2 0x2267 DUP2 PUSH2 0x222B JUMP JUMPDEST SWAP1 POP SWAP2 SWAP1 POP JUMP JUMPDEST PUSH32 0x50726573616C653A20546F74616C20546F6B656E2053616C6520526561636865 PUSH1 0x0 DUP3 ADD MSTORE PUSH32 0x6421000000000000000000000000000000000000000000000000000000000000 PUSH1 0x20 DUP3 ADD MSTORE POP JUMP JUMPDEST PUSH1 0x0 PUSH2 0x22CA PUSH1 0x22 DUP4 PUSH2 0x1EAA JUMP JUMPDEST SWAP2 POP PUSH2 0x22D5 DUP3 PUSH2 0x226E JUMP JUMPDEST PUSH1 0x40 DUP3 ADD SWAP1 POP SWAP2 SWAP1 POP JUMP JUMPDEST PUSH1 0x0 PUSH1 0x20 DUP3 ADD SWAP1 POP DUP2 DUP2 SUB PUSH1 0x0 DUP4 ADD MSTORE PUSH2 0x22F9 DUP2 PUSH2 0x22BD JUMP JUMPDEST SWAP1 POP SWAP2 SWAP1 POP JUMP JUMPDEST PUSH32 0x50726573616C653A20546F6B656E20616D6F756E742062656C6F77206D696E20 PUSH1 0x0 DUP3 ADD MSTORE PUSH32 0x627579206C696D69740000000000000000000000000000000000000000000000 PUSH1 0x20 DUP3 ADD MSTORE POP JUMP JUMPDEST PUSH1 0x0 PUSH2 0x235C PUSH1 0x29 DUP4 PUSH2 0x1EAA JUMP JUMPDEST SWAP2 POP PUSH2 0x2367 DUP3 PUSH2 0x2300 JUMP JUMPDEST PUSH1 0x40 DUP3 ADD SWAP1 POP SWAP2 SWAP1 POP JUMP JUMPDEST PUSH1 0x0 PUSH1 0x20 DUP3 ADD SWAP1 POP DUP2 DUP2 SUB PUSH1 0x0 DUP4 ADD MSTORE PUSH2 0x238B DUP2 PUSH2 0x234F JUMP JUMPDEST SWAP1 POP SWAP2 SWAP1 POP JUMP JUMPDEST PUSH32 0x50726573616C653A20416D6F756E742062656C6F77206D696E20627579206C69 PUSH1 0x0 DUP3 ADD MSTORE PUSH32 0x6D69740000000000000000000000000000000000000000000000000000000000 PUSH1 0x20 DUP3 ADD MSTORE POP JUMP JUMPDEST PUSH1 0x0 PUSH2 0x23EE PUSH1 0x23 DUP4 PUSH2 0x1EAA JUMP JUMPDEST SWAP2 POP PUSH2 0x23F9 DUP3 PUSH2 0x2392 JUMP JUMPDEST PUSH1 0x40 DUP3 ADD SWAP1 POP SWAP2 SWAP1 POP JUMP JUMPDEST PUSH1 0x0 PUSH1 0x20 DUP3 ADD SWAP1 POP DUP2 DUP2 SUB PUSH1 0x0 DUP4 ADD MSTORE PUSH2 0x241D DUP2 PUSH2 0x23E1 JUMP JUMPDEST SWAP1 POP SWAP2 SWAP1 POP JUMP JUMPDEST PUSH1 0x0 PUSH1 0x40 DUP3 ADD SWAP1 POP PUSH2 0x2439 PUSH1 0x0 DUP4 ADD DUP6 PUSH2 0x1D4B JUMP JUMPDEST PUSH2 0x2446 PUSH1 0x20 DUP4 ADD DUP5 PUSH2 0x1D4B JUMP JUMPDEST SWAP4 SWAP3 POP POP POP JUMP JUMPDEST PUSH32 0x50726573616C653A2053616C6520746F6B656E2063616E6E6F74206265207A65 PUSH1 0x0 DUP3 ADD MSTORE PUSH32 0x726F206164647265737300000000000000000000000000000000000000000000 PUSH1 0x20 DUP3 ADD MSTORE POP JUMP JUMPDEST PUSH1 0x0 PUSH2 0x24A9 PUSH1 0x2A DUP4 PUSH2 0x1EAA JUMP JUMPDEST SWAP2 POP PUSH2 0x24B4 DUP3 PUSH2 0x244D JUMP JUMPDEST PUSH1 0x40 DUP3 ADD SWAP1 POP SWAP2 SWAP1 POP JUMP JUMPDEST PUSH1 0x0 PUSH1 0x20 DUP3 ADD SWAP1 POP DUP2 DUP2 SUB PUSH1 0x0 DUP4 ADD MSTORE PUSH2 0x24D8 DUP2 PUSH2 0x249C JUMP JUMPDEST SWAP1 POP SWAP2 SWAP1 POP JUMP JUMPDEST PUSH32 0x50726573616C653A20546F74616C20746F6B656E7320666F722073616C652063 PUSH1 0x0 DUP3 ADD MSTORE PUSH32 0x616E6E6F74206265207A65726F00000000000000000000000000000000000000 PUSH1 0x20 DUP3 ADD MSTORE POP JUMP JUMPDEST PUSH1 0x0 PUSH2 0x253B PUSH1 0x2D DUP4 PUSH2 0x1EAA JUMP JUMPDEST SWAP2 POP PUSH2 0x2546 DUP3 PUSH2 0x24DF JUMP JUMPDEST PUSH1 0x40 DUP3 ADD SWAP1 POP SWAP2 SWAP1 POP JUMP JUMPDEST PUSH1 0x0 PUSH1 0x20 DUP3 ADD SWAP1 POP DUP2 DUP2 SUB PUSH1 0x0 DUP4 ADD MSTORE PUSH2 0x256A DUP2 PUSH2 0x252E JUMP JUMPDEST SWAP1 POP SWAP2 SWAP1 POP JUMP JUMPDEST PUSH1 0x0 PUSH1 0xFF DUP3 AND SWAP1 POP SWAP2 SWAP1 POP JUMP JUMPDEST PUSH2 0x2587 DUP2 PUSH2 0x2571 JUMP JUMPDEST DUP2 EQ PUSH2 0x2592 JUMPI PUSH1 0x0 DUP1 REVERT JUMPDEST POP JUMP JUMPDEST PUSH1 0x0 DUP2 MLOAD SWAP1 POP PUSH2 0x25A4 DUP2 PUSH2 0x257E JUMP JUMPDEST SWAP3 SWAP2 POP POP JUMP JUMPDEST PUSH1 0x0 PUSH1 0x20 DUP3 DUP5 SUB SLT ISZERO PUSH2 0x25C0 JUMPI PUSH2 0x25BF PUSH2 0x1C45 JUMP JUMPDEST JUMPDEST PUSH1 0x0 PUSH2 0x25CE DUP5 DUP3 DUP6 ADD PUSH2 0x2595 JUMP JUMPDEST SWAP2 POP POP SWAP3 SWAP2 POP POP JUMP JUMPDEST PUSH1 0x0 DUP2 MLOAD SWAP1 POP PUSH2 0x25E6 DUP2 PUSH2 0x1C54 JUMP JUMPDEST SWAP3 SWAP2 POP POP JUMP JUMPDEST PUSH1 0x0 PUSH1 0x20 DUP3 DUP5 SUB SLT ISZERO PUSH2 0x2602 JUMPI PUSH2 0x2601 PUSH2 0x1C45 JUMP JUMPDEST JUMPDEST PUSH1 0x0 PUSH2 0x2610 DUP5 DUP3 DUP6 ADD PUSH2 0x25D7 JUMP JUMPDEST SWAP2 POP POP SWAP3 SWAP2 POP POP JUMP JUMPDEST PUSH32 0x50726573616C653A2050726573616C6520686173206E6F7420656E6465642079 PUSH1 0x0 DUP3 ADD MSTORE PUSH32 0x6574000000000000000000000000000000000000000000000000000000000000 PUSH1 0x20 DUP3 ADD MSTORE POP JUMP JUMPDEST PUSH1 0x0 PUSH2 0x2675 PUSH1 0x22 DUP4 PUSH2 0x1EAA JUMP JUMPDEST SWAP2 POP PUSH2 0x2680 DUP3 PUSH2 0x2619 JUMP JUMPDEST PUSH1 0x40 DUP3 ADD SWAP1 POP SWAP2 SWAP1 POP JUMP JUMPDEST PUSH1 0x0 PUSH1 0x20 DUP3 ADD SWAP1 POP DUP2 DUP2 SUB PUSH1 0x0 DUP4 ADD MSTORE PUSH2 0x26A4 DUP2 PUSH2 0x2668 JUMP JUMPDEST SWAP1 POP SWAP2 SWAP1 POP JUMP JUMPDEST PUSH32 0x4F776E61626C653A206E6577206F776E657220697320746865207A65726F2061 PUSH1 0x0 DUP3 ADD MSTORE PUSH32 0x6464726573730000000000000000000000000000000000000000000000000000 PUSH1 0x20 DUP3 ADD MSTORE POP JUMP JUMPDEST PUSH1 0x0 PUSH2 0x2707 PUSH1 0x26 DUP4 PUSH2 0x1EAA JUMP JUMPDEST SWAP2 POP PUSH2 0x2712 DUP3 PUSH2 0x26AB JUMP JUMPDEST PUSH1 0x40 DUP3 ADD SWAP1 POP SWAP2 SWAP1 POP JUMP JUMPDEST PUSH1 0x0 PUSH1 0x20 DUP3 ADD SWAP1 POP DUP2 DUP2 SUB PUSH1 0x0 DUP4 ADD MSTORE PUSH2 0x2736 DUP2 PUSH2 0x26FA JUMP JUMPDEST SWAP1 POP SWAP2 SWAP1 POP JUMP JUMPDEST PUSH32 0x50726573616C653A2043616E6E6F742077697468647261772073616C6520746F PUSH1 0x0 DUP3 ADD MSTORE PUSH32 0x6B656E20776974682074686973206D6574686F642C2075736520776974686472 PUSH1 0x20 DUP3 ADD MSTORE PUSH32 0x617753616C65546F6B656E282920696E73746561640000000000000000000000 PUSH1 0x40 DUP3 ADD MSTORE POP JUMP JUMPDEST PUSH1 0x0 PUSH2 0x27BF PUSH1 0x55 DUP4 PUSH2 0x1EAA JUMP JUMPDEST SWAP2 POP PUSH2 0x27CA DUP3 PUSH2 0x273D JUMP JUMPDEST PUSH1 0x60 DUP3 ADD SWAP1 POP SWAP2 SWAP1 POP JUMP JUMPDEST PUSH1 0x0 PUSH1 0x20 DUP3 ADD SWAP1 POP DUP2 DUP2 SUB PUSH1 0x0 DUP4 ADD MSTORE PUSH2 0x27EE DUP2 PUSH2 0x27B2 JUMP JUMPDEST SWAP1 POP SWAP2 SWAP1 POP JUMP JUMPDEST PUSH32 0x50726573616C653A2043616E6E6F742077697468647261772073616C6520746F PUSH1 0x0 DUP3 ADD MSTORE PUSH32 0x6B656E20776974682074686973206D6574686F642C2075736520776974686472 PUSH1 0x20 DUP3 ADD MSTORE PUSH32 0x6177416C6C53616C65546F6B656E282920696E73746561640000000000000000 PUSH1 0x40 DUP3 ADD MSTORE POP JUMP JUMPDEST PUSH1 0x0 PUSH2 0x2877 PUSH1 0x58 DUP4 PUSH2 0x1EAA JUMP JUMPDEST SWAP2 POP PUSH2 0x2882 DUP3 PUSH2 0x27F5 JUMP JUMPDEST PUSH1 0x60 DUP3 ADD SWAP1 POP SWAP2 SWAP1 POP JUMP JUMPDEST PUSH1 0x0 PUSH1 0x20 DUP3 ADD SWAP1 POP DUP2 DUP2 SUB PUSH1 0x0 DUP4 ADD MSTORE PUSH2 0x28A6 DUP2 PUSH2 0x286A JUMP JUMPDEST SWAP1 POP SWAP2 SWAP1 POP JUMP JUMPDEST PUSH32 0x4F776E61626C653A2063616C6C6572206973206E6F7420746865206F776E6572 PUSH1 0x0 DUP3 ADD MSTORE POP JUMP JUMPDEST PUSH1 0x0 PUSH2 0x28E3 PUSH1 0x20 DUP4 PUSH2 0x1EAA JUMP JUMPDEST SWAP2 POP PUSH2 0x28EE DUP3 PUSH2 0x28AD JUMP JUMPDEST PUSH1 0x20 DUP3 ADD SWAP1 POP SWAP2 SWAP1 POP JUMP JUMPDEST PUSH1 0x0 PUSH1 0x20 DUP3 ADD SWAP1 POP DUP2 DUP2 SUB PUSH1 0x0 DUP4 ADD MSTORE PUSH2 0x2912 DUP2 PUSH2 0x28D6 JUMP JUMPDEST SWAP1 POP SWAP2 SWAP1 POP JUMP JUMPDEST PUSH1 0x0 PUSH1 0x60 DUP3 ADD SWAP1 POP PUSH2 0x292E PUSH1 0x0 DUP4 ADD DUP7 PUSH2 0x1E1D JUMP JUMPDEST PUSH2 0x293B PUSH1 0x20 DUP4 ADD DUP6 PUSH2 0x1E1D JUMP JUMPDEST PUSH2 0x2948 PUSH1 0x40 DUP4 ADD DUP5 PUSH2 0x1D4B JUMP JUMPDEST SWAP5 SWAP4 POP POP POP POP JUMP JUMPDEST PUSH2 0x2959 DUP2 PUSH2 0x1DE7 JUMP JUMPDEST DUP2 EQ PUSH2 0x2964 JUMPI PUSH1 0x0 DUP1 REVERT JUMPDEST POP JUMP JUMPDEST PUSH1 0x0 DUP2 MLOAD SWAP1 POP PUSH2 0x2976 DUP2 PUSH2 0x2950 JUMP JUMPDEST SWAP3 SWAP2 POP POP JUMP JUMPDEST PUSH1 0x0 PUSH1 0x20 DUP3 DUP5 SUB SLT ISZERO PUSH2 0x2992 JUMPI PUSH2 0x2991 PUSH2 0x1C45 JUMP JUMPDEST JUMPDEST PUSH1 0x0 PUSH2 0x29A0 DUP5 DUP3 DUP6 ADD PUSH2 0x2967 JUMP JUMPDEST SWAP2 POP POP SWAP3 SWAP2 POP POP JUMP JUMPDEST PUSH32 0x5361666545524332303A204552433230206F7065726174696F6E20646964206E PUSH1 0x0 DUP3 ADD MSTORE PUSH32 0x6F74207375636365656400000000000000000000000000000000000000000000 PUSH1 0x20 DUP3 ADD MSTORE POP JUMP JUMPDEST PUSH1 0x0 PUSH2 0x2A05 PUSH1 0x2A DUP4 PUSH2 0x1EAA JUMP JUMPDEST SWAP2 POP PUSH2 0x2A10 DUP3 PUSH2 0x29A9 JUMP JUMPDEST PUSH1 0x40 DUP3 ADD SWAP1 POP SWAP2 SWAP1 POP JUMP JUMPDEST PUSH1 0x0 PUSH1 0x20 DUP3 ADD SWAP1 POP DUP2 DUP2 SUB PUSH1 0x0 DUP4 ADD MSTORE PUSH2 0x2A34 DUP2 PUSH2 0x29F8 JUMP JUMPDEST SWAP1 POP SWAP2 SWAP1 POP JUMP JUMPDEST PUSH32 0x416464726573733A20696E73756666696369656E742062616C616E636520666F PUSH1 0x0 DUP3 ADD MSTORE PUSH32 0x722063616C6C0000000000000000000000000000000000000000000000000000 PUSH1 0x20 DUP3 ADD MSTORE POP JUMP JUMPDEST PUSH1 0x0 PUSH2 0x2A97 PUSH1 0x26 DUP4 PUSH2 0x1EAA JUMP JUMPDEST SWAP2 POP PUSH2 0x2AA2 DUP3 PUSH2 0x2A3B JUMP JUMPDEST PUSH1 0x40 DUP3 ADD SWAP1 POP SWAP2 SWAP1 POP JUMP JUMPDEST PUSH1 0x0 PUSH1 0x20 DUP3 ADD SWAP1 POP DUP2 DUP2 SUB PUSH1 0x0 DUP4 ADD MSTORE PUSH2 0x2AC6 DUP2 PUSH2 0x2A8A JUMP JUMPDEST SWAP1 POP SWAP2 SWAP1 POP JUMP JUMPDEST PUSH1 0x0 DUP2 MLOAD SWAP1 POP SWAP2 SWAP1 POP JUMP JUMPDEST PUSH1 0x0 DUP2 SWAP1 POP SWAP3 SWAP2 POP POP JUMP JUMPDEST PUSH1 0x0 JUMPDEST DUP4 DUP2 LT ISZERO PUSH2 0x2B01 JUMPI DUP1 DUP3 ADD MLOAD DUP2 DUP5 ADD MSTORE PUSH1 0x20 DUP2 ADD SWAP1 POP PUSH2 0x2AE6 JUMP JUMPDEST PUSH1 0x0 DUP5 DUP5 ADD MSTORE POP POP POP POP JUMP JUMPDEST PUSH1 0x0 PUSH2 0x2B18 DUP3 PUSH2 0x2ACD JUMP JUMPDEST PUSH2 0x2B22 DUP2 DUP6 PUSH2 0x2AD8 JUMP JUMPDEST SWAP4 POP PUSH2 0x2B32 DUP2 DUP6 PUSH1 0x20 DUP7 ADD PUSH2 0x2AE3 JUMP JUMPDEST DUP1 DUP5 ADD SWAP2 POP POP SWAP3 SWAP2 POP POP JUMP JUMPDEST PUSH1 0x0 PUSH2 0x2B4A DUP3 DUP5 PUSH2 0x2B0D JUMP JUMPDEST SWAP2 POP DUP2 SWAP1 POP SWAP3 SWAP2 POP POP JUMP JUMPDEST PUSH32 0x416464726573733A2063616C6C20746F206E6F6E2D636F6E7472616374000000 PUSH1 0x0 DUP3 ADD MSTORE POP JUMP JUMPDEST PUSH1 0x0 PUSH2 0x2B8B PUSH1 0x1D DUP4 PUSH2 0x1EAA JUMP JUMPDEST SWAP2 POP PUSH2 0x2B96 DUP3 PUSH2 0x2B55 JUMP JUMPDEST PUSH1 0x20 DUP3 ADD SWAP1 POP SWAP2 SWAP1 POP JUMP JUMPDEST PUSH1 0x0 PUSH1 0x20 DUP3 ADD SWAP1 POP DUP2 DUP2 SUB PUSH1 0x0 DUP4 ADD MSTORE PUSH2 0x2BBA DUP2 PUSH2 0x2B7E JUMP JUMPDEST SWAP1 POP SWAP2 SWAP1 POP JUMP JUMPDEST PUSH1 0x0 DUP2 MLOAD SWAP1 POP SWAP2 SWAP1 POP JUMP JUMPDEST PUSH1 0x0 PUSH1 0x1F NOT PUSH1 0x1F DUP4 ADD AND SWAP1 POP SWAP2 SWAP1 POP JUMP JUMPDEST PUSH1 0x0 PUSH2 0x2BE8 DUP3 PUSH2 0x2BC1 JUMP JUMPDEST PUSH2 0x2BF2 DUP2 DUP6 PUSH2 0x1EAA JUMP JUMPDEST SWAP4 POP PUSH2 0x2C02 DUP2 DUP6 PUSH1 0x20 DUP7 ADD PUSH2 0x2AE3 JUMP JUMPDEST PUSH2 0x2C0B DUP2 PUSH2 0x2BCC JUMP JUMPDEST DUP5 ADD SWAP2 POP POP SWAP3 SWAP2 POP POP JUMP JUMPDEST PUSH1 0x0 PUSH1 0x20 DUP3 ADD SWAP1 POP DUP2 DUP2 SUB PUSH1 0x0 DUP4 ADD MSTORE PUSH2 0x2C30 DUP2 DUP5 PUSH2 0x2BDD JUMP JUMPDEST SWAP1 POP SWAP3 SWAP2 POP POP JUMP INVALID LOG2 PUSH5 0x6970667358 0x22 SLT KECCAK256 0xBA 0xDE KECCAK256 SWAP6 0xDC GT GAS SIGNEXTEND 0xBA 0xD6 EQ 0xD6 DUP6 0xE6 0xDB PUSH15 0x2153A409A5A515990D4558D8E51192 0xE5 PUSH5 0x736F6C6343 STOP ADDMOD SLT STOP CALLER "
				},
				"gasEstimates": {
					"creation": {
						"codeDepositCost": "2274800",
						"executionCost": "infinite",
						"totalCost": "infinite"
					},
					"external": {
						"addWhiteListedToken(address,uint256)": "infinite",
						"buyToken(address,uint256)": "infinite",
						"fetchDataForFrontend(address)": "infinite",
						"getTokenAmount(address,uint256)": "infinite",
						"maxBuyLimit()": "2518",
						"minBuyLimit()": "2496",
						"owner()": "2589",
						"presaleEndTime()": "2497",
						"presaleStartTime()": "2540",
						"rate()": "2519",
						"renounceOwnership()": "30444",
						"saleToken()": "2625",
						"saleTokenDec()": "2474",
						"setMaxBuyLimit(uint256)": "24852",
						"setMinBuyLimit(uint256)": "24873",
						"setSaleTokenParams(address,uint256)": "infinite",
						"startAndSetPresaleEndTime(uint256)": "infinite",
						"tokenPrices(address)": "2905",
						"tokenWL(address)": "2890",
						"totalTokensSold()": "2474",
						"totalTokensforSale()": "2540",
						"transferOwnership(address)": "30788",
						"upateTime(uint256)": "infinite",
						"updateEthRate(uint256)": "24830",
						"updateTokenRate(address,uint256)": "infinite",
						"withdraw(address,uint256)": "infinite",
						"withdrawAll(address)": "infinite",
						"withdrawAllSaleToken()": "infinite",
						"withdrawCurrency(uint256)": "infinite",
						"withdrawSaleToken(uint256)": "infinite"
					}
				},
				"methodIdentifiers": {
					"addWhiteListedToken(address,uint256)": "444ad5ee",
					"buyToken(address,uint256)": "68f8fc10",
					"fetchDataForFrontend(address)": "5a2696ca",
					"getTokenAmount(address,uint256)": "115ece4c",
					"maxBuyLimit()": "6aa5b37f",
					"minBuyLimit()": "b81df742",
					"owner()": "8da5cb5b",
					"presaleEndTime()": "249b7c19",
					"presaleStartTime()": "a82524b2",
					"rate()": "2c4e722e",
					"renounceOwnership()": "715018a6",
					"saleToken()": "e985e367",
					"saleTokenDec()": "ace1741c",
					"setMaxBuyLimit(uint256)": "757765f8",
					"setMinBuyLimit(uint256)": "99b77032",
					"setSaleTokenParams(address,uint256)": "89e6ce1e",
					"startAndSetPresaleEndTime(uint256)": "5b10bd6a",
					"tokenPrices(address)": "204120bc",
					"tokenWL(address)": "8ce0b9d2",
					"totalTokensSold()": "63b20117",
					"totalTokensforSale()": "6bcedf9c",
					"transferOwnership(address)": "f2fde38b",
					"upateTime(uint256)": "0fabdd44",
					"updateEthRate(uint256)": "3f6f7ed6",
					"updateTokenRate(address,uint256)": "226ac321",
					"withdraw(address,uint256)": "f3fef3a3",
					"withdrawAll(address)": "fa09e630",
					"withdrawAllSaleToken()": "fb00f3fc",
					"withdrawCurrency(uint256)": "3c00a36c",
					"withdrawSaleToken(uint256)": "ded441c2"
				}
			},
			"storageLayout": {
				"storage": [
					{
						"astId": 7,
						"contract": "contracts/preSale.sol:Presale",
						"label": "_owner",
						"offset": 0,
						"slot": "0",
						"type": "t_address"
					},
					{
						"astId": 996,
						"contract": "contracts/preSale.sol:Presale",
						"label": "rate",
						"offset": 0,
						"slot": "1",
						"type": "t_uint256"
					},
					{
						"astId": 998,
						"contract": "contracts/preSale.sol:Presale",
						"label": "saleToken",
						"offset": 0,
						"slot": "2",
						"type": "t_address"
					},
					{
						"astId": 1000,
						"contract": "contracts/preSale.sol:Presale",
						"label": "saleTokenDec",
						"offset": 0,
						"slot": "3",
						"type": "t_uint256"
					},
					{
						"astId": 1002,
						"contract": "contracts/preSale.sol:Presale",
						"label": "totalTokensforSale",
						"offset": 0,
						"slot": "4",
						"type": "t_uint256"
					},
					{
						"astId": 1004,
						"contract": "contracts/preSale.sol:Presale",
						"label": "maxBuyLimit",
						"offset": 0,
						"slot": "5",
						"type": "t_uint256"
					},
					{
						"astId": 1006,
						"contract": "contracts/preSale.sol:Presale",
						"label": "minBuyLimit",
						"offset": 0,
						"slot": "6",
						"type": "t_uint256"
					},
					{
						"astId": 1010,
						"contract": "contracts/preSale.sol:Presale",
						"label": "tokenWL",
						"offset": 0,
						"slot": "7",
						"type": "t_mapping(t_address,t_bool)"
					},
					{
						"astId": 1014,
						"contract": "contracts/preSale.sol:Presale",
						"label": "tokenPrices",
						"offset": 0,
						"slot": "8",
						"type": "t_mapping(t_address,t_uint256)"
					},
					{
						"astId": 1016,
						"contract": "contracts/preSale.sol:Presale",
						"label": "presaleStartTime",
						"offset": 0,
						"slot": "9",
						"type": "t_uint256"
					},
					{
						"astId": 1018,
						"contract": "contracts/preSale.sol:Presale",
						"label": "presaleEndTime",
						"offset": 0,
						"slot": "10",
						"type": "t_uint256"
					},
					{
						"astId": 1020,
						"contract": "contracts/preSale.sol:Presale",
						"label": "totalTokensSold",
						"offset": 0,
						"slot": "11",
						"type": "t_uint256"
					}
				],
				"types": {
					"t_address": {
						"encoding": "inplace",
						"label": "address",
						"numberOfBytes": "20"
					},
					"t_bool": {
						"encoding": "inplace",
						"label": "bool",
						"numberOfBytes": "1"
					},
					"t_mapping(t_address,t_bool)": {
						"encoding": "mapping",
						"key": "t_address",
						"label": "mapping(address => bool)",
						"numberOfBytes": "32",
						"value": "t_bool"
					},
					"t_mapping(t_address,t_uint256)": {
						"encoding": "mapping",
						"key": "t_address",
						"label": "mapping(address => uint256)",
						"numberOfBytes": "32",
						"value": "t_uint256"
					},
					"t_uint256": {
						"encoding": "inplace",
						"label": "uint256",
						"numberOfBytes": "32"
					}
				}
			},
			"userdoc": {
				"kind": "user",
				"methods": {},
				"version": 1
			}
		}
	}
}