{
	"contracts/preSale.sol": {
		"Presale": {
			"abi": [
				{
					"inputs": [],
					"stateMutability": "nonpayable",
					"type": "constructor"
				},
				{
					"anonymous": false,
					"inputs": [
						{
							"indexed": true,
							"internalType": "address",
							"name": "previousOwner",
							"type": "address"
						},
						{
							"indexed": true,
							"internalType": "address",
							"name": "newOwner",
							"type": "address"
						}
					],
					"name": "OwnershipTransferred",
					"type": "event"
				},
				{
					"anonymous": false,
					"inputs": [
						{
							"indexed": false,
							"internalType": "address",
							"name": "token",
							"type": "address"
						},
						{
							"indexed": false,
							"internalType": "uint256",
							"name": "amount",
							"type": "uint256"
						}
					],
					"name": "SaleTokenAdded",
					"type": "event"
				},
				{
					"anonymous": false,
					"inputs": [
						{
							"indexed": false,
							"internalType": "address",
							"name": "token",
							"type": "address"
						},
						{
							"indexed": false,
							"internalType": "uint256",
							"name": "price",
							"type": "uint256"
						}
					],
					"name": "TokenAdded",
					"type": "event"
				},
				{
					"anonymous": false,
					"inputs": [
						{
							"indexed": false,
							"internalType": "address",
							"name": "token",
							"type": "address"
						},
						{
							"indexed": false,
							"internalType": "uint256",
							"name": "price",
							"type": "uint256"
						}
					],
					"name": "TokenUpdated",
					"type": "event"
				},
				{
					"anonymous": false,
					"inputs": [
						{
							"indexed": true,
							"internalType": "address",
							"name": "buyer",
							"type": "address"
						},
						{
							"indexed": true,
							"internalType": "address",
							"name": "token",
							"type": "address"
						},
						{
							"indexed": false,
							"internalType": "uint256",
							"name": "amount",
							"type": "uint256"
						},
						{
							"indexed": false,
							"internalType": "uint256",
							"name": "tokensBought",
							"type": "uint256"
						}
					],
					"name": "TokensBought",
					"type": "event"
				},
				{
					"inputs": [
						{
							"internalType": "address",
							"name": "_token",
							"type": "address"
						},
						{
							"internalType": "uint256",
							"name": "_price",
							"type": "uint256"
						}
					],
					"name": "addWhiteListedToken",
					"outputs": [],
					"stateMutability": "nonpayable",
					"type": "function"
				},
				{
					"inputs": [
						{
							"internalType": "address",
							"name": "_token",
							"type": "address"
						},
						{
							"internalType": "uint256",
							"name": "_amount",
							"type": "uint256"
						}
					],
					"name": "buyToken",
					"outputs": [],
					"stateMutability": "payable",
					"type": "function"
				},
				{
					"inputs": [
						{
							"internalType": "address",
							"name": "token",
							"type": "address"
						},
						{
							"internalType": "uint256",
							"name": "amount",
							"type": "uint256"
						}
					],
					"name": "getTokenAmount",
					"outputs": [
						{
							"internalType": "uint256",
							"name": "",
							"type": "uint256"
						}
					],
					"stateMutability": "view",
					"type": "function"
				},
				{
					"inputs": [],
					"name": "maxBuyLimit",
					"outputs": [
						{
							"internalType": "uint256",
							"name": "",
							"type": "uint256"
						}
					],
					"stateMutability": "view",
					"type": "function"
				},
				{
					"inputs": [],
					"name": "minBuyLimit",
					"outputs": [
						{
							"internalType": "uint256",
							"name": "",
							"type": "uint256"
						}
					],
					"stateMutability": "view",
					"type": "function"
				},
				{
					"inputs": [],
					"name": "owner",
					"outputs": [
						{
							"internalType": "address",
							"name": "",
							"type": "address"
						}
					],
					"stateMutability": "view",
					"type": "function"
				},
				{
					"inputs": [],
					"name": "presaleEndTime",
					"outputs": [
						{
							"internalType": "uint256",
							"name": "",
							"type": "uint256"
						}
					],
					"stateMutability": "view",
					"type": "function"
				},
				{
					"inputs": [],
					"name": "presaleStartTime",
					"outputs": [
						{
							"internalType": "uint256",
							"name": "",
							"type": "uint256"
						}
					],
					"stateMutability": "view",
					"type": "function"
				},
				{
					"inputs": [],
					"name": "rate",
					"outputs": [
						{
							"internalType": "uint256",
							"name": "",
							"type": "uint256"
						}
					],
					"stateMutability": "view",
					"type": "function"
				},
				{
					"inputs": [],
					"name": "renounceOwnership",
					"outputs": [],
					"stateMutability": "nonpayable",
					"type": "function"
				},
				{
					"inputs": [],
					"name": "saleToken",
					"outputs": [
						{
							"internalType": "address",
							"name": "",
							"type": "address"
						}
					],
					"stateMutability": "view",
					"type": "function"
				},
				{
					"inputs": [],
					"name": "saleTokenDec",
					"outputs": [
						{
							"internalType": "uint256",
							"name": "",
							"type": "uint256"
						}
					],
					"stateMutability": "view",
					"type": "function"
				},
				{
					"inputs": [
						{
							"internalType": "uint256",
							"name": "_maxBuyLimit",
							"type": "uint256"
						}
					],
					"name": "setMaxBuyLimit",
					"outputs": [],
					"stateMutability": "nonpayable",
					"type": "function"
				},
				{
					"inputs": [
						{
							"internalType": "uint256",
							"name": "_minBuyLimit",
							"type": "uint256"
						}
					],
					"name": "setMinBuyLimit",
					"outputs": [],
					"stateMutability": "nonpayable",
					"type": "function"
				},
				{
					"inputs": [
						{
							"internalType": "address",
							"name": "_saleToken",
							"type": "address"
						},
						{
							"internalType": "uint256",
							"name": "_totalTokensforSale",
							"type": "uint256"
						}
					],
					"name": "setSaleTokenParams",
					"outputs": [],
					"stateMutability": "nonpayable",
					"type": "function"
				},
				{
					"inputs": [
						{
							"internalType": "uint256",
							"name": "_presaleEndTime",
							"type": "uint256"
						}
					],
					"name": "startAndSetPresaleEndTime",
					"outputs": [],
					"stateMutability": "nonpayable",
					"type": "function"
				},
				{
					"inputs": [
						{
							"internalType": "address",
							"name": "",
							"type": "address"
						}
					],
					"name": "tokenPrices",
					"outputs": [
						{
							"internalType": "uint256",
							"name": "",
							"type": "uint256"
						}
					],
					"stateMutability": "view",
					"type": "function"
				},
				{
					"inputs": [
						{
							"internalType": "address",
							"name": "",
							"type": "address"
						}
					],
					"name": "tokenWL",
					"outputs": [
						{
							"internalType": "bool",
							"name": "",
							"type": "bool"
						}
					],
					"stateMutability": "view",
					"type": "function"
				},
				{
					"inputs": [],
					"name": "totalTokensSold",
					"outputs": [
						{
							"internalType": "uint256",
							"name": "",
							"type": "uint256"
						}
					],
					"stateMutability": "view",
					"type": "function"
				},
				{
					"inputs": [],
					"name": "totalTokensforSale",
					"outputs": [
						{
							"internalType": "uint256",
							"name": "",
							"type": "uint256"
						}
					],
					"stateMutability": "view",
					"type": "function"
				},
				{
					"inputs": [
						{
							"internalType": "address",
							"name": "newOwner",
							"type": "address"
						}
					],
					"name": "transferOwnership",
					"outputs": [],
					"stateMutability": "nonpayable",
					"type": "function"
				},
				{
					"inputs": [
						{
							"internalType": "uint256",
							"name": "_presaleEndTime",
							"type": "uint256"
						}
					],
					"name": "upateTime",
					"outputs": [],
					"stateMutability": "nonpayable",
					"type": "function"
				},
				{
					"inputs": [
						{
							"internalType": "uint256",
							"name": "_rate",
							"type": "uint256"
						}
					],
					"name": "updateEthRate",
					"outputs": [],
					"stateMutability": "nonpayable",
					"type": "function"
				},
				{
					"inputs": [
						{
							"internalType": "address",
							"name": "_token",
							"type": "address"
						},
						{
							"internalType": "uint256",
							"name": "_price",
							"type": "uint256"
						}
					],
					"name": "updateTokenRate",
					"outputs": [],
					"stateMutability": "nonpayable",
					"type": "function"
				},
				{
					"inputs": [
						{
							"internalType": "address",
							"name": "token",
							"type": "address"
						},
						{
							"internalType": "uint256",
							"name": "amt",
							"type": "uint256"
						}
					],
					"name": "withdraw",
					"outputs": [],
					"stateMutability": "nonpayable",
					"type": "function"
				},
				{
					"inputs": [
						{
							"internalType": "address",
							"name": "token",
							"type": "address"
						}
					],
					"name": "withdrawAll",
					"outputs": [],
					"stateMutability": "nonpayable",
					"type": "function"
				},
				{
					"inputs": [],
					"name": "withdrawAllSaleToken",
					"outputs": [],
					"stateMutability": "nonpayable",
					"type": "function"
				},
				{
					"inputs": [
						{
							"internalType": "uint256",
							"name": "amt",
							"type": "uint256"
						}
					],
					"name": "withdrawCurrency",
					"outputs": [],
					"stateMutability": "nonpayable",
					"type": "function"
				},
				{
					"inputs": [
						{
							"internalType": "uint256",
							"name": "_amount",
							"type": "uint256"
						}
					],
					"name": "withdrawSaleToken",
					"outputs": [],
					"stateMutability": "nonpayable",
					"type": "function"
				}
			],
			"devdoc": {
				"kind": "dev",
				"methods": {
					"owner()": {
						"details": "Returns the address of the current owner."
					},
					"renounceOwnership()": {
						"details": "Leaves the contract without owner. It will not be possible to call `onlyOwner` functions. Can only be called by the current owner. NOTE: Renouncing ownership will leave the contract without an owner, thereby disabling any functionality that is only available to the owner."
					},
					"transferOwnership(address)": {
						"details": "Transfers ownership of the contract to a new account (`newOwner`). Can only be called by the current owner."
					}
				},
				"version": 1
			},
			"evm": {
				"assembly": "    /* \"contracts/preSale.sol\":262:6643  contract Presale is Ownable {... */\n  mstore(0x40, 0x80)\n    /* \"contracts/preSale.sol\":1142:1158  constructor() {} */\n  callvalue\n  dup1\n  iszero\n  tag_1\n  jumpi\n  0x00\n  dup1\n  revert\ntag_1:\n  pop\n    /* \"@openzeppelin/contracts/access/Ownable.sol\":936:968  _transferOwnership(_msgSender()) */\n  tag_5\n    /* \"@openzeppelin/contracts/access/Ownable.sol\":955:967  _msgSender() */\n  tag_6\n    /* \"@openzeppelin/contracts/access/Ownable.sol\":955:965  _msgSender */\n  shl(0x20, tag_7)\n    /* \"@openzeppelin/contracts/access/Ownable.sol\":955:967  _msgSender() */\n  0x20\n  shr\n  jump\t// in\ntag_6:\n    /* \"@openzeppelin/contracts/access/Ownable.sol\":936:954  _transferOwnership */\n  shl(0x20, tag_8)\n    /* \"@openzeppelin/contracts/access/Ownable.sol\":936:968  _transferOwnership(_msgSender()) */\n  0x20\n  shr\n  jump\t// in\ntag_5:\n    /* \"contracts/preSale.sol\":262:6643  contract Presale is Ownable {... */\n  jump(tag_10)\n    /* \"@openzeppelin/contracts/utils/Context.sol\":640:736  function _msgSender() internal view virtual returns (address) {... */\ntag_7:\n    /* \"@openzeppelin/contracts/utils/Context.sol\":693:700  address */\n  0x00\n    /* \"@openzeppelin/contracts/utils/Context.sol\":719:729  msg.sender */\n  caller\n    /* \"@openzeppelin/contracts/utils/Context.sol\":712:729  return msg.sender */\n  swap1\n  pop\n    /* \"@openzeppelin/contracts/utils/Context.sol\":640:736  function _msgSender() internal view virtual returns (address) {... */\n  swap1\n  jump\t// out\n    /* \"@openzeppelin/contracts/access/Ownable.sol\":2426:2613  function _transferOwnership(address newOwner) internal virtual {... */\ntag_8:\n    /* \"@openzeppelin/contracts/access/Ownable.sol\":2499:2515  address oldOwner */\n  0x00\n    /* \"@openzeppelin/contracts/access/Ownable.sol\":2518:2524  _owner */\n  dup1\n  0x00\n  swap1\n  sload\n  swap1\n  0x0100\n  exp\n  swap1\n  div\n  0xffffffffffffffffffffffffffffffffffffffff\n  and\n    /* \"@openzeppelin/contracts/access/Ownable.sol\":2499:2524  address oldOwner = _owner */\n  swap1\n  pop\n    /* \"@openzeppelin/contracts/access/Ownable.sol\":2543:2551  newOwner */\n  dup2\n    /* \"@openzeppelin/contracts/access/Ownable.sol\":2534:2540  _owner */\n  0x00\n  dup1\n    /* \"@openzeppelin/contracts/access/Ownable.sol\":2534:2551  _owner = newOwner */\n  0x0100\n  exp\n  dup2\n  sload\n  dup2\n  0xffffffffffffffffffffffffffffffffffffffff\n  mul\n  not\n  and\n  swap1\n  dup4\n  0xffffffffffffffffffffffffffffffffffffffff\n  and\n  mul\n  or\n  swap1\n  sstore\n  pop\n    /* \"@openzeppelin/contracts/access/Ownable.sol\":2597:2605  newOwner */\n  dup2\n    /* \"@openzeppelin/contracts/access/Ownable.sol\":2566:2606  OwnershipTransferred(oldOwner, newOwner) */\n  0xffffffffffffffffffffffffffffffffffffffff\n  and\n    /* \"@openzeppelin/contracts/access/Ownable.sol\":2587:2595  oldOwner */\n  dup2\n    /* \"@openzeppelin/contracts/access/Ownable.sol\":2566:2606  OwnershipTransferred(oldOwner, newOwner) */\n  0xffffffffffffffffffffffffffffffffffffffff\n  and\n  0x8be0079c531659141344cd1fd0a4f28419497f9722a3daafe3b4186f6b6457e0\n  mload(0x40)\n  mload(0x40)\n  dup1\n  swap2\n  sub\n  swap1\n  log3\n    /* \"@openzeppelin/contracts/access/Ownable.sol\":2489:2613  {... */\n  pop\n    /* \"@openzeppelin/contracts/access/Ownable.sol\":2426:2613  function _transferOwnership(address newOwner) internal virtual {... */\n  pop\n  jump\t// out\n    /* \"contracts/preSale.sol\":262:6643  contract Presale is Ownable {... */\ntag_10:\n  dataSize(sub_0)\n  dup1\n  dataOffset(sub_0)\n  0x00\n  codecopy\n  0x00\n  return\nstop\n\nsub_0: assembly {\n        /* \"contracts/preSale.sol\":262:6643  contract Presale is Ownable {... */\n      mstore(0x40, 0x80)\n      jumpi(tag_1, lt(calldatasize, 0x04))\n      shr(0xe0, calldataload(0x00))\n      dup1\n      0x715018a6\n      gt\n      tag_31\n      jumpi\n      dup1\n      0xace1741c\n      gt\n      tag_32\n      jumpi\n      dup1\n      0xf2fde38b\n      gt\n      tag_33\n      jumpi\n      dup1\n      0xf2fde38b\n      eq\n      tag_27\n      jumpi\n      dup1\n      0xf3fef3a3\n      eq\n      tag_28\n      jumpi\n      dup1\n      0xfa09e630\n      eq\n      tag_29\n      jumpi\n      dup1\n      0xfb00f3fc\n      eq\n      tag_30\n      jumpi\n      jump(tag_1)\n    tag_33:\n      dup1\n      0xace1741c\n      eq\n      tag_23\n      jumpi\n      dup1\n      0xb81df742\n      eq\n      tag_24\n      jumpi\n      dup1\n      0xded441c2\n      eq\n      tag_25\n      jumpi\n      dup1\n      0xe985e367\n      eq\n      tag_26\n      jumpi\n      jump(tag_1)\n    tag_32:\n      dup1\n      0x8ce0b9d2\n      gt\n      tag_34\n      jumpi\n      dup1\n      0x8ce0b9d2\n      eq\n      tag_19\n      jumpi\n      dup1\n      0x8da5cb5b\n      eq\n      tag_20\n      jumpi\n      dup1\n      0x99b77032\n      eq\n      tag_21\n      jumpi\n      dup1\n      0xa82524b2\n      eq\n      tag_22\n      jumpi\n      jump(tag_1)\n    tag_34:\n      dup1\n      0x715018a6\n      eq\n      tag_16\n      jumpi\n      dup1\n      0x757765f8\n      eq\n      tag_17\n      jumpi\n      dup1\n      0x89e6ce1e\n      eq\n      tag_18\n      jumpi\n      jump(tag_1)\n    tag_31:\n      dup1\n      0x3f6f7ed6\n      gt\n      tag_35\n      jumpi\n      dup1\n      0x63b20117\n      gt\n      tag_36\n      jumpi\n      dup1\n      0x63b20117\n      eq\n      tag_12\n      jumpi\n      dup1\n      0x68f8fc10\n      eq\n      tag_13\n      jumpi\n      dup1\n      0x6aa5b37f\n      eq\n      tag_14\n      jumpi\n      dup1\n      0x6bcedf9c\n      eq\n      tag_15\n      jumpi\n      jump(tag_1)\n    tag_36:\n      dup1\n      0x3f6f7ed6\n      eq\n      tag_9\n      jumpi\n      dup1\n      0x444ad5ee\n      eq\n      tag_10\n      jumpi\n      dup1\n      0x5b10bd6a\n      eq\n      tag_11\n      jumpi\n      jump(tag_1)\n    tag_35:\n      dup1\n      0x226ac321\n      gt\n      tag_37\n      jumpi\n      dup1\n      0x226ac321\n      eq\n      tag_5\n      jumpi\n      dup1\n      0x249b7c19\n      eq\n      tag_6\n      jumpi\n      dup1\n      0x2c4e722e\n      eq\n      tag_7\n      jumpi\n      dup1\n      0x3c00a36c\n      eq\n      tag_8\n      jumpi\n      jump(tag_1)\n    tag_37:\n      dup1\n      0x0fabdd44\n      eq\n      tag_2\n      jumpi\n      dup1\n      0x115ece4c\n      eq\n      tag_3\n      jumpi\n      dup1\n      0x204120bc\n      eq\n      tag_4\n      jumpi\n    tag_1:\n      0x00\n      dup1\n      revert\n        /* \"contracts/preSale.sol\":2815:2959  function upateTime(... */\n    tag_2:\n      callvalue\n      dup1\n      iszero\n      tag_38\n      jumpi\n      0x00\n      dup1\n      revert\n    tag_38:\n      pop\n      tag_39\n      0x04\n      dup1\n      calldatasize\n      sub\n      dup2\n      add\n      swap1\n      tag_40\n      swap2\n      swap1\n      tag_41\n      jump\t// in\n    tag_40:\n      tag_42\n      jump\t// in\n    tag_39:\n      stop\n        /* \"contracts/preSale.sol\":3545:4090  function getTokenAmount(... */\n    tag_3:\n      callvalue\n      dup1\n      iszero\n      tag_43\n      jumpi\n      0x00\n      dup1\n      revert\n    tag_43:\n      pop\n      tag_44\n      0x04\n      dup1\n      calldatasize\n      sub\n      dup2\n      add\n      swap1\n      tag_45\n      swap2\n      swap1\n      tag_46\n      jump\t// in\n    tag_45:\n      tag_47\n      jump\t// in\n    tag_44:\n      mload(0x40)\n      tag_48\n      swap2\n      swap1\n      tag_49\n      jump\t// in\n    tag_48:\n      mload(0x40)\n      dup1\n      swap2\n      sub\n      swap1\n      return\n        /* \"contracts/preSale.sol\":632:678  mapping(address => uint256) public tokenPrices */\n    tag_4:\n      callvalue\n      dup1\n      iszero\n      tag_50\n      jumpi\n      0x00\n      dup1\n      revert\n    tag_50:\n      pop\n      tag_51\n      0x04\n      dup1\n      calldatasize\n      sub\n      dup2\n      add\n      swap1\n      tag_52\n      swap2\n      swap1\n      tag_53\n      jump\t// in\n    tag_52:\n      tag_54\n      jump\t// in\n    tag_51:\n      mload(0x40)\n      tag_55\n      swap2\n      swap1\n      tag_49\n      jump\t// in\n    tag_55:\n      mload(0x40)\n      dup1\n      swap2\n      sub\n      swap1\n      return\n        /* \"contracts/preSale.sol\":3283:3537  function updateTokenRate(... */\n    tag_5:\n      callvalue\n      dup1\n      iszero\n      tag_56\n      jumpi\n      0x00\n      dup1\n      revert\n    tag_56:\n      pop\n      tag_57\n      0x04\n      dup1\n      calldatasize\n      sub\n      dup2\n      add\n      swap1\n      tag_58\n      swap2\n      swap1\n      tag_46\n      jump\t// in\n    tag_58:\n      tag_59\n      jump\t// in\n    tag_57:\n      stop\n        /* \"contracts/preSale.sol\":759:788  uint256 public presaleEndTime */\n    tag_6:\n      callvalue\n      dup1\n      iszero\n      tag_60\n      jumpi\n      0x00\n      dup1\n      revert\n    tag_60:\n      pop\n      tag_61\n      tag_62\n      jump\t// in\n    tag_61:\n      mload(0x40)\n      tag_63\n      swap2\n      swap1\n      tag_49\n      jump\t// in\n    tag_63:\n      mload(0x40)\n      dup1\n      swap2\n      sub\n      swap1\n      return\n        /* \"contracts/preSale.sol\":369:388  uint256 public rate */\n    tag_7:\n      callvalue\n      dup1\n      iszero\n      tag_64\n      jumpi\n      0x00\n      dup1\n      revert\n    tag_64:\n      pop\n      tag_65\n      tag_66\n      jump\t// in\n    tag_65:\n      mload(0x40)\n      tag_67\n      swap2\n      swap1\n      tag_49\n      jump\t// in\n    tag_67:\n      mload(0x40)\n      dup1\n      swap2\n      sub\n      swap1\n      return\n        /* \"contracts/preSale.sol\":6533:6641  function withdrawCurrency(uint256 amt) external onlyOwner {... */\n    tag_8:\n      callvalue\n      dup1\n      iszero\n      tag_68\n      jumpi\n      0x00\n      dup1\n      revert\n    tag_68:\n      pop\n      tag_69\n      0x04\n      dup1\n      calldatasize\n      sub\n      dup2\n      add\n      swap1\n      tag_70\n      swap2\n      swap1\n      tag_41\n      jump\t// in\n    tag_70:\n      tag_71\n      jump\t// in\n    tag_69:\n      stop\n        /* \"contracts/preSale.sol\":3191:3277  function updateEthRate(uint256 _rate) external onlyOwner {... */\n    tag_9:\n      callvalue\n      dup1\n      iszero\n      tag_72\n      jumpi\n      0x00\n      dup1\n      revert\n    tag_72:\n      pop\n      tag_73\n      0x04\n      dup1\n      calldatasize\n      sub\n      dup2\n      add\n      swap1\n      tag_74\n      swap2\n      swap1\n      tag_41\n      jump\t// in\n    tag_74:\n      tag_75\n      jump\t// in\n    tag_73:\n      stop\n        /* \"contracts/preSale.sol\":2965:3185  function addWhiteListedToken(... */\n    tag_10:\n      callvalue\n      dup1\n      iszero\n      tag_76\n      jumpi\n      0x00\n      dup1\n      revert\n    tag_76:\n      pop\n      tag_77\n      0x04\n      dup1\n      calldatasize\n      sub\n      dup2\n      add\n      swap1\n      tag_78\n      swap2\n      swap1\n      tag_46\n      jump\t// in\n    tag_78:\n      tag_79\n      jump\t// in\n    tag_77:\n      stop\n        /* \"contracts/preSale.sol\":2604:2809  function startAndSetPresaleEndTime(... */\n    tag_11:\n      callvalue\n      dup1\n      iszero\n      tag_80\n      jumpi\n      0x00\n      dup1\n      revert\n    tag_80:\n      pop\n      tag_81\n      0x04\n      dup1\n      calldatasize\n      sub\n      dup2\n      add\n      swap1\n      tag_82\n      swap2\n      swap1\n      tag_41\n      jump\t// in\n    tag_82:\n      tag_83\n      jump\t// in\n    tag_81:\n      stop\n        /* \"contracts/preSale.sol\":795:825  uint256 public totalTokensSold */\n    tag_12:\n      callvalue\n      dup1\n      iszero\n      tag_84\n      jumpi\n      0x00\n      dup1\n      revert\n    tag_84:\n      pop\n      tag_85\n      tag_86\n      jump\t// in\n    tag_85:\n      mload(0x40)\n      tag_87\n      swap2\n      swap1\n      tag_49\n      jump\t// in\n    tag_87:\n      mload(0x40)\n      dup1\n      swap2\n      sub\n      swap1\n      return\n        /* \"contracts/preSale.sol\":4096:5178  function buyToken(... */\n    tag_13:\n      tag_88\n      0x04\n      dup1\n      calldatasize\n      sub\n      dup2\n      add\n      swap1\n      tag_89\n      swap2\n      swap1\n      tag_46\n      jump\t// in\n    tag_89:\n      tag_90\n      jump\t// in\n    tag_88:\n      stop\n        /* \"contracts/preSale.sol\":523:549  uint256 public maxBuyLimit */\n    tag_14:\n      callvalue\n      dup1\n      iszero\n      tag_91\n      jumpi\n      0x00\n      dup1\n      revert\n    tag_91:\n      pop\n      tag_92\n      tag_93\n      jump\t// in\n    tag_92:\n      mload(0x40)\n      tag_94\n      swap2\n      swap1\n      tag_49\n      jump\t// in\n    tag_94:\n      mload(0x40)\n      dup1\n      swap2\n      sub\n      swap1\n      return\n        /* \"contracts/preSale.sol\":484:517  uint256 public totalTokensforSale */\n    tag_15:\n      callvalue\n      dup1\n      iszero\n      tag_95\n      jumpi\n      0x00\n      dup1\n      revert\n    tag_95:\n      pop\n      tag_96\n      tag_97\n      jump\t// in\n    tag_96:\n      mload(0x40)\n      tag_98\n      swap2\n      swap1\n      tag_49\n      jump\t// in\n    tag_98:\n      mload(0x40)\n      dup1\n      swap2\n      sub\n      swap1\n      return\n        /* \"@openzeppelin/contracts/access/Ownable.sol\":1824:1925  function renounceOwnership() public virtual onlyOwner {... */\n    tag_16:\n      callvalue\n      dup1\n      iszero\n      tag_99\n      jumpi\n      0x00\n      dup1\n      revert\n    tag_99:\n      pop\n      tag_100\n      tag_101\n      jump\t// in\n    tag_100:\n      stop\n        /* \"contracts/preSale.sol\":5298:5406  function setMaxBuyLimit(uint256 _maxBuyLimit) external onlyOwner {... */\n    tag_17:\n      callvalue\n      dup1\n      iszero\n      tag_102\n      jumpi\n      0x00\n      dup1\n      revert\n    tag_102:\n      pop\n      tag_103\n      0x04\n      dup1\n      calldatasize\n      sub\n      dup2\n      add\n      swap1\n      tag_104\n      swap2\n      swap1\n      tag_41\n      jump\t// in\n    tag_104:\n      tag_105\n      jump\t// in\n    tag_103:\n      stop\n        /* \"contracts/preSale.sol\":1858:2598  function setSaleTokenParams(... */\n    tag_18:\n      callvalue\n      dup1\n      iszero\n      tag_106\n      jumpi\n      0x00\n      dup1\n      revert\n    tag_106:\n      pop\n      tag_107\n      0x04\n      dup1\n      calldatasize\n      sub\n      dup2\n      add\n      swap1\n      tag_108\n      swap2\n      swap1\n      tag_46\n      jump\t// in\n    tag_108:\n      tag_109\n      jump\t// in\n    tag_107:\n      stop\n        /* \"contracts/preSale.sol\":587:626  mapping(address => bool) public tokenWL */\n    tag_19:\n      callvalue\n      dup1\n      iszero\n      tag_110\n      jumpi\n      0x00\n      dup1\n      revert\n    tag_110:\n      pop\n      tag_111\n      0x04\n      dup1\n      calldatasize\n      sub\n      dup2\n      add\n      swap1\n      tag_112\n      swap2\n      swap1\n      tag_53\n      jump\t// in\n    tag_112:\n      tag_113\n      jump\t// in\n    tag_111:\n      mload(0x40)\n      tag_114\n      swap2\n      swap1\n      tag_115\n      jump\t// in\n    tag_114:\n      mload(0x40)\n      dup1\n      swap2\n      sub\n      swap1\n      return\n        /* \"@openzeppelin/contracts/access/Ownable.sol\":1201:1286  function owner() public view virtual returns (address) {... */\n    tag_20:\n      callvalue\n      dup1\n      iszero\n      tag_116\n      jumpi\n      0x00\n      dup1\n      revert\n    tag_116:\n      pop\n      tag_117\n      tag_118\n      jump\t// in\n    tag_117:\n      mload(0x40)\n      tag_119\n      swap2\n      swap1\n      tag_120\n      jump\t// in\n    tag_119:\n      mload(0x40)\n      dup1\n      swap2\n      sub\n      swap1\n      return\n        /* \"contracts/preSale.sol\":5184:5292  function setMinBuyLimit(uint256 _minBuyLimit) external onlyOwner {... */\n    tag_21:\n      callvalue\n      dup1\n      iszero\n      tag_121\n      jumpi\n      0x00\n      dup1\n      revert\n    tag_121:\n      pop\n      tag_122\n      0x04\n      dup1\n      calldatasize\n      sub\n      dup2\n      add\n      swap1\n      tag_123\n      swap2\n      swap1\n      tag_41\n      jump\t// in\n    tag_123:\n      tag_124\n      jump\t// in\n    tag_122:\n      stop\n        /* \"contracts/preSale.sol\":722:753  uint256 public presaleStartTime */\n    tag_22:\n      callvalue\n      dup1\n      iszero\n      tag_125\n      jumpi\n      0x00\n      dup1\n      revert\n    tag_125:\n      pop\n      tag_126\n      tag_127\n      jump\t// in\n    tag_126:\n      mload(0x40)\n      tag_128\n      swap2\n      swap1\n      tag_49\n      jump\t// in\n    tag_128:\n      mload(0x40)\n      dup1\n      swap2\n      sub\n      swap1\n      return\n        /* \"contracts/preSale.sol\":454:478  uint public saleTokenDec */\n    tag_23:\n      callvalue\n      dup1\n      iszero\n      tag_129\n      jumpi\n      0x00\n      dup1\n      revert\n    tag_129:\n      pop\n      tag_130\n      tag_131\n      jump\t// in\n    tag_130:\n      mload(0x40)\n      tag_132\n      swap2\n      swap1\n      tag_49\n      jump\t// in\n    tag_132:\n      mload(0x40)\n      dup1\n      swap2\n      sub\n      swap1\n      return\n        /* \"contracts/preSale.sol\":555:581  uint256 public minBuyLimit */\n    tag_24:\n      callvalue\n      dup1\n      iszero\n      tag_133\n      jumpi\n      0x00\n      dup1\n      revert\n    tag_133:\n      pop\n      tag_134\n      tag_135\n      jump\t// in\n    tag_134:\n      mload(0x40)\n      tag_136\n      swap2\n      swap1\n      tag_49\n      jump\t// in\n    tag_136:\n      mload(0x40)\n      dup1\n      swap2\n      sub\n      swap1\n      return\n        /* \"contracts/preSale.sol\":5463:5609  function withdrawSaleToken(uint256 _amount) external onlyOwner isPresaleEnded {... */\n    tag_25:\n      callvalue\n      dup1\n      iszero\n      tag_137\n      jumpi\n      0x00\n      dup1\n      revert\n    tag_137:\n      pop\n      tag_138\n      0x04\n      dup1\n      calldatasize\n      sub\n      dup2\n      add\n      swap1\n      tag_139\n      swap2\n      swap1\n      tag_41\n      jump\t// in\n    tag_139:\n      tag_140\n      jump\t// in\n    tag_138:\n      stop\n        /* \"contracts/preSale.sol\":424:448  address public saleToken */\n    tag_26:\n      callvalue\n      dup1\n      iszero\n      tag_141\n      jumpi\n      0x00\n      dup1\n      revert\n    tag_141:\n      pop\n      tag_142\n      tag_143\n      jump\t// in\n    tag_142:\n      mload(0x40)\n      tag_144\n      swap2\n      swap1\n      tag_120\n      jump\t// in\n    tag_144:\n      mload(0x40)\n      dup1\n      swap2\n      sub\n      swap1\n      return\n        /* \"@openzeppelin/contracts/access/Ownable.sol\":2074:2272  function transferOwnership(address newOwner) public virtual onlyOwner {... */\n    tag_27:\n      callvalue\n      dup1\n      iszero\n      tag_145\n      jumpi\n      0x00\n      dup1\n      revert\n    tag_145:\n      pop\n      tag_146\n      0x04\n      dup1\n      calldatasize\n      sub\n      dup2\n      add\n      swap1\n      tag_147\n      swap2\n      swap1\n      tag_53\n      jump\t// in\n    tag_147:\n      tag_148\n      jump\t// in\n    tag_146:\n      stop\n        /* \"contracts/preSale.sol\":5943:6194  function withdraw(address token, uint256 amt) public   onlyOwner {... */\n    tag_28:\n      callvalue\n      dup1\n      iszero\n      tag_149\n      jumpi\n      0x00\n      dup1\n      revert\n    tag_149:\n      pop\n      tag_150\n      0x04\n      dup1\n      calldatasize\n      sub\n      dup2\n      add\n      swap1\n      tag_151\n      swap2\n      swap1\n      tag_46\n      jump\t// in\n    tag_151:\n      tag_152\n      jump\t// in\n    tag_150:\n      stop\n        /* \"contracts/preSale.sol\":6201:6484  function withdrawAll(address token) external onlyOwner {... */\n    tag_29:\n      callvalue\n      dup1\n      iszero\n      tag_153\n      jumpi\n      0x00\n      dup1\n      revert\n    tag_153:\n      pop\n      tag_154\n      0x04\n      dup1\n      calldatasize\n      sub\n      dup2\n      add\n      swap1\n      tag_155\n      swap2\n      swap1\n      tag_53\n      jump\t// in\n    tag_155:\n      tag_156\n      jump\t// in\n    tag_154:\n      stop\n        /* \"contracts/preSale.sol\":5680:5876  function withdrawAllSaleToken() external onlyOwner isPresaleEnded {... */\n    tag_30:\n      callvalue\n      dup1\n      iszero\n      tag_157\n      jumpi\n      0x00\n      dup1\n      revert\n    tag_157:\n      pop\n      tag_158\n      tag_159\n      jump\t// in\n    tag_158:\n      stop\n        /* \"contracts/preSale.sol\":2815:2959  function upateTime(... */\n    tag_42:\n        /* \"@openzeppelin/contracts/access/Ownable.sol\":1094:1107  _checkOwner() */\n      tag_161\n        /* \"@openzeppelin/contracts/access/Ownable.sol\":1094:1105  _checkOwner */\n      tag_162\n        /* \"@openzeppelin/contracts/access/Ownable.sol\":1094:1107  _checkOwner() */\n      jump\t// in\n    tag_161:\n        /* \"contracts/preSale.sol\":2937:2952  _presaleEndTime */\n      dup1\n        /* \"contracts/preSale.sol\":2919:2934  block.timestamp */\n      timestamp\n        /* \"contracts/preSale.sol\":2919:2952  block.timestamp + _presaleEndTime */\n      tag_164\n      swap2\n      swap1\n      tag_165\n      jump\t// in\n    tag_164:\n        /* \"contracts/preSale.sol\":2902:2916  presaleEndTime */\n      0x0a\n        /* \"contracts/preSale.sol\":2902:2952  presaleEndTime = block.timestamp + _presaleEndTime */\n      dup2\n      swap1\n      sstore\n      pop\n        /* \"contracts/preSale.sol\":2815:2959  function upateTime(... */\n      pop\n      jump\t// out\n        /* \"contracts/preSale.sol\":3545:4090  function getTokenAmount(... */\n    tag_47:\n        /* \"contracts/preSale.sol\":3643:3650  uint256 */\n      0x00\n        /* \"contracts/preSale.sol\":3662:3676  uint256 amtOut */\n      dup1\n        /* \"contracts/preSale.sol\":3707:3708  0 */\n      0x00\n        /* \"contracts/preSale.sol\":3690:3709  token != address(0) */\n      0xffffffffffffffffffffffffffffffffffffffff\n      and\n        /* \"contracts/preSale.sol\":3690:3695  token */\n      dup5\n        /* \"contracts/preSale.sol\":3690:3709  token != address(0) */\n      0xffffffffffffffffffffffffffffffffffffffff\n      and\n      eq\n        /* \"contracts/preSale.sol\":3686:4061  if (token != address(0)) {... */\n      tag_167\n      jumpi\n        /* \"contracts/preSale.sol\":3733:3740  tokenWL */\n      0x07\n        /* \"contracts/preSale.sol\":3733:3747  tokenWL[token] */\n      0x00\n        /* \"contracts/preSale.sol\":3741:3746  token */\n      dup6\n        /* \"contracts/preSale.sol\":3733:3747  tokenWL[token] */\n      0xffffffffffffffffffffffffffffffffffffffff\n      and\n      0xffffffffffffffffffffffffffffffffffffffff\n      and\n      dup2\n      mstore\n      0x20\n      add\n      swap1\n      dup2\n      mstore\n      0x20\n      add\n      0x00\n      keccak256\n      0x00\n      swap1\n      sload\n      swap1\n      0x0100\n      exp\n      swap1\n      div\n      0xff\n      and\n        /* \"contracts/preSale.sol\":3725:3782  require(tokenWL[token], \"Presale: Token not whitelisted\") */\n      tag_168\n      jumpi\n      mload(0x40)\n      0x08c379a000000000000000000000000000000000000000000000000000000000\n      dup2\n      mstore\n      0x04\n      add\n      tag_169\n      swap1\n      tag_170\n      jump\t// in\n    tag_169:\n      mload(0x40)\n      dup1\n      swap2\n      sub\n      swap1\n      revert\n    tag_168:\n        /* \"contracts/preSale.sol\":3828:3829  0 */\n      0x00\n        /* \"contracts/preSale.sol\":3806:3817  tokenPrices */\n      0x08\n        /* \"contracts/preSale.sol\":3806:3824  tokenPrices[token] */\n      0x00\n        /* \"contracts/preSale.sol\":3818:3823  token */\n      dup7\n        /* \"contracts/preSale.sol\":3806:3824  tokenPrices[token] */\n      0xffffffffffffffffffffffffffffffffffffffff\n      and\n      0xffffffffffffffffffffffffffffffffffffffff\n      and\n      dup2\n      mstore\n      0x20\n      add\n      swap1\n      dup2\n      mstore\n      0x20\n      add\n      0x00\n      keccak256\n      sload\n        /* \"contracts/preSale.sol\":3806:3829  tokenPrices[token] != 0 */\n      sub\n        /* \"contracts/preSale.sol\":3806:3922  tokenPrices[token] != 0... */\n      tag_171\n      jumpi\n        /* \"contracts/preSale.sol\":3921:3922  0 */\n      0x00\n        /* \"contracts/preSale.sol\":3806:3922  tokenPrices[token] != 0... */\n      jump(tag_172)\n    tag_171:\n        /* \"contracts/preSale.sol\":3883:3894  tokenPrices */\n      0x08\n        /* \"contracts/preSale.sol\":3883:3901  tokenPrices[token] */\n      0x00\n        /* \"contracts/preSale.sol\":3895:3900  token */\n      dup6\n        /* \"contracts/preSale.sol\":3883:3901  tokenPrices[token] */\n      0xffffffffffffffffffffffffffffffffffffffff\n      and\n      0xffffffffffffffffffffffffffffffffffffffff\n      and\n      dup2\n      mstore\n      0x20\n      add\n      swap1\n      dup2\n      mstore\n      0x20\n      add\n      0x00\n      keccak256\n      sload\n        /* \"contracts/preSale.sol\":3865:3877  saleTokenDec */\n      sload(0x03)\n        /* \"contracts/preSale.sol\":3859:3861  10 */\n      0x0a\n        /* \"contracts/preSale.sol\":3859:3877  10 ** saleTokenDec */\n      tag_173\n      swap2\n      swap1\n      tag_174\n      jump\t// in\n    tag_173:\n        /* \"contracts/preSale.sol\":3849:3855  amount */\n      dup5\n        /* \"contracts/preSale.sol\":3849:3878  amount * (10 ** saleTokenDec) */\n      tag_175\n      swap2\n      swap1\n      tag_176\n      jump\t// in\n    tag_175:\n        /* \"contracts/preSale.sol\":3848:3902  (amount * (10 ** saleTokenDec)) / (tokenPrices[token]) */\n      tag_177\n      swap2\n      swap1\n      tag_178\n      jump\t// in\n    tag_177:\n        /* \"contracts/preSale.sol\":3806:3922  tokenPrices[token] != 0... */\n    tag_172:\n        /* \"contracts/preSale.sol\":3797:3922  amtOut = tokenPrices[token] != 0... */\n      swap1\n      pop\n        /* \"contracts/preSale.sol\":3686:4061  if (token != address(0)) {... */\n      jump(tag_179)\n    tag_167:\n        /* \"contracts/preSale.sol\":3970:3971  0 */\n      0x00\n        /* \"contracts/preSale.sol\":3962:3966  rate */\n      sload(0x01)\n        /* \"contracts/preSale.sol\":3962:3971  rate != 0 */\n      sub\n        /* \"contracts/preSale.sol\":3962:4050  rate != 0... */\n      tag_180\n      jumpi\n        /* \"contracts/preSale.sol\":4049:4050  0 */\n      0x00\n        /* \"contracts/preSale.sol\":3962:4050  rate != 0... */\n      jump(tag_181)\n    tag_180:\n        /* \"contracts/preSale.sol\":4025:4029  rate */\n      sload(0x01)\n        /* \"contracts/preSale.sol\":4007:4019  saleTokenDec */\n      sload(0x03)\n        /* \"contracts/preSale.sol\":4001:4003  10 */\n      0x0a\n        /* \"contracts/preSale.sol\":4001:4019  10 ** saleTokenDec */\n      tag_182\n      swap2\n      swap1\n      tag_174\n      jump\t// in\n    tag_182:\n        /* \"contracts/preSale.sol\":3991:3997  amount */\n      dup5\n        /* \"contracts/preSale.sol\":3991:4020  amount * (10 ** saleTokenDec) */\n      tag_183\n      swap2\n      swap1\n      tag_176\n      jump\t// in\n    tag_183:\n        /* \"contracts/preSale.sol\":3990:4030  (amount * (10 ** saleTokenDec)) / (rate) */\n      tag_184\n      swap2\n      swap1\n      tag_178\n      jump\t// in\n    tag_184:\n        /* \"contracts/preSale.sol\":3962:4050  rate != 0... */\n    tag_181:\n        /* \"contracts/preSale.sol\":3953:4050  amtOut = rate != 0... */\n      swap1\n      pop\n        /* \"contracts/preSale.sol\":3686:4061  if (token != address(0)) {... */\n    tag_179:\n        /* \"contracts/preSale.sol\":4077:4083  amtOut */\n      dup1\n        /* \"contracts/preSale.sol\":4070:4083  return amtOut */\n      swap2\n      pop\n      pop\n        /* \"contracts/preSale.sol\":3545:4090  function getTokenAmount(... */\n      swap3\n      swap2\n      pop\n      pop\n      jump\t// out\n        /* \"contracts/preSale.sol\":632:678  mapping(address => uint256) public tokenPrices */\n    tag_54:\n      mstore(0x20, 0x08)\n      dup1\n      0x00\n      mstore\n      keccak256(0x00, 0x40)\n      0x00\n      swap2\n      pop\n      swap1\n      pop\n      sload\n      dup2\n      jump\t// out\n        /* \"contracts/preSale.sol\":3283:3537  function updateTokenRate(... */\n    tag_59:\n        /* \"@openzeppelin/contracts/access/Ownable.sol\":1094:1107  _checkOwner() */\n      tag_186\n        /* \"@openzeppelin/contracts/access/Ownable.sol\":1094:1105  _checkOwner */\n      tag_162\n        /* \"@openzeppelin/contracts/access/Ownable.sol\":1094:1107  _checkOwner() */\n      jump\t// in\n    tag_186:\n        /* \"contracts/preSale.sol\":3399:3406  tokenWL */\n      0x07\n        /* \"contracts/preSale.sol\":3399:3414  tokenWL[_token] */\n      0x00\n        /* \"contracts/preSale.sol\":3407:3413  _token */\n      dup4\n        /* \"contracts/preSale.sol\":3399:3414  tokenWL[_token] */\n      0xffffffffffffffffffffffffffffffffffffffff\n      and\n      0xffffffffffffffffffffffffffffffffffffffff\n      and\n      dup2\n      mstore\n      0x20\n      add\n      swap1\n      dup2\n      mstore\n      0x20\n      add\n      0x00\n      keccak256\n      0x00\n      swap1\n      sload\n      swap1\n      0x0100\n      exp\n      swap1\n      div\n      0xff\n      and\n        /* \"contracts/preSale.sol\":3391:3449  require(tokenWL[_token], \"Presale: Token not whitelisted\") */\n      tag_188\n      jumpi\n      mload(0x40)\n      0x08c379a000000000000000000000000000000000000000000000000000000000\n      dup2\n      mstore\n      0x04\n      add\n      tag_189\n      swap1\n      tag_170\n      jump\t// in\n    tag_189:\n      mload(0x40)\n      dup1\n      swap2\n      sub\n      swap1\n      revert\n    tag_188:\n        /* \"contracts/preSale.sol\":3481:3487  _price */\n      dup1\n        /* \"contracts/preSale.sol\":3459:3470  tokenPrices */\n      0x08\n        /* \"contracts/preSale.sol\":3459:3478  tokenPrices[_token] */\n      0x00\n        /* \"contracts/preSale.sol\":3471:3477  _token */\n      dup5\n        /* \"contracts/preSale.sol\":3459:3478  tokenPrices[_token] */\n      0xffffffffffffffffffffffffffffffffffffffff\n      and\n      0xffffffffffffffffffffffffffffffffffffffff\n      and\n      dup2\n      mstore\n      0x20\n      add\n      swap1\n      dup2\n      mstore\n      0x20\n      add\n      0x00\n      keccak256\n        /* \"contracts/preSale.sol\":3459:3487  tokenPrices[_token] = _price */\n      dup2\n      swap1\n      sstore\n      pop\n        /* \"contracts/preSale.sol\":3502:3530  TokenUpdated(_token, _price) */\n      0xc2d539e6a806d81b0892f23b002d25b825425d13a98bb6f486438b6b7bc0ce3a\n        /* \"contracts/preSale.sol\":3515:3521  _token */\n      dup3\n        /* \"contracts/preSale.sol\":3523:3529  _price */\n      dup3\n        /* \"contracts/preSale.sol\":3502:3530  TokenUpdated(_token, _price) */\n      mload(0x40)\n      tag_190\n      swap3\n      swap2\n      swap1\n      tag_191\n      jump\t// in\n    tag_190:\n      mload(0x40)\n      dup1\n      swap2\n      sub\n      swap1\n      log1\n        /* \"contracts/preSale.sol\":3283:3537  function updateTokenRate(... */\n      pop\n      pop\n      jump\t// out\n        /* \"contracts/preSale.sol\":759:788  uint256 public presaleEndTime */\n    tag_62:\n      sload(0x0a)\n      dup2\n      jump\t// out\n        /* \"contracts/preSale.sol\":369:388  uint256 public rate */\n    tag_66:\n      sload(0x01)\n      dup2\n      jump\t// out\n        /* \"contracts/preSale.sol\":6533:6641  function withdrawCurrency(uint256 amt) external onlyOwner {... */\n    tag_71:\n        /* \"@openzeppelin/contracts/access/Ownable.sol\":1094:1107  _checkOwner() */\n      tag_193\n        /* \"@openzeppelin/contracts/access/Ownable.sol\":1094:1105  _checkOwner */\n      tag_162\n        /* \"@openzeppelin/contracts/access/Ownable.sol\":1094:1107  _checkOwner() */\n      jump\t// in\n    tag_193:\n        /* \"contracts/preSale.sol\":6609:6619  msg.sender */\n      caller\n        /* \"contracts/preSale.sol\":6601:6629  payable(msg.sender).transfer */\n      0xffffffffffffffffffffffffffffffffffffffff\n      and\n        /* \"contracts/preSale.sol\":6601:6634  payable(msg.sender).transfer(amt) */\n      0x08fc\n        /* \"contracts/preSale.sol\":6630:6633  amt */\n      dup3\n        /* \"contracts/preSale.sol\":6601:6634  payable(msg.sender).transfer(amt) */\n      swap1\n      dup2\n      iszero\n      mul\n      swap1\n      mload(0x40)\n      0x00\n      mload(0x40)\n      dup1\n      dup4\n      sub\n      dup2\n      dup6\n      dup9\n      dup9\n      call\n      swap4\n      pop\n      pop\n      pop\n      pop\n      iszero\n      dup1\n      iszero\n      tag_196\n      jumpi\n      returndatasize\n      0x00\n      dup1\n      returndatacopy\n      revert(0x00, returndatasize)\n    tag_196:\n      pop\n        /* \"contracts/preSale.sol\":6533:6641  function withdrawCurrency(uint256 amt) external onlyOwner {... */\n      pop\n      jump\t// out\n        /* \"contracts/preSale.sol\":3191:3277  function updateEthRate(uint256 _rate) external onlyOwner {... */\n    tag_75:\n        /* \"@openzeppelin/contracts/access/Ownable.sol\":1094:1107  _checkOwner() */\n      tag_198\n        /* \"@openzeppelin/contracts/access/Ownable.sol\":1094:1105  _checkOwner */\n      tag_162\n        /* \"@openzeppelin/contracts/access/Ownable.sol\":1094:1107  _checkOwner() */\n      jump\t// in\n    tag_198:\n        /* \"contracts/preSale.sol\":3265:3270  _rate */\n      dup1\n        /* \"contracts/preSale.sol\":3258:3262  rate */\n      0x01\n        /* \"contracts/preSale.sol\":3258:3270  rate = _rate */\n      dup2\n      swap1\n      sstore\n      pop\n        /* \"contracts/preSale.sol\":3191:3277  function updateEthRate(uint256 _rate) external onlyOwner {... */\n      pop\n      jump\t// out\n        /* \"contracts/preSale.sol\":2965:3185  function addWhiteListedToken(... */\n    tag_79:\n        /* \"@openzeppelin/contracts/access/Ownable.sol\":1094:1107  _checkOwner() */\n      tag_201\n        /* \"@openzeppelin/contracts/access/Ownable.sol\":1094:1105  _checkOwner */\n      tag_162\n        /* \"@openzeppelin/contracts/access/Ownable.sol\":1094:1107  _checkOwner() */\n      jump\t// in\n    tag_201:\n        /* \"contracts/preSale.sol\":3095:3099  true */\n      0x01\n        /* \"contracts/preSale.sol\":3077:3084  tokenWL */\n      0x07\n        /* \"contracts/preSale.sol\":3077:3092  tokenWL[_token] */\n      0x00\n        /* \"contracts/preSale.sol\":3085:3091  _token */\n      dup5\n        /* \"contracts/preSale.sol\":3077:3092  tokenWL[_token] */\n      0xffffffffffffffffffffffffffffffffffffffff\n      and\n      0xffffffffffffffffffffffffffffffffffffffff\n      and\n      dup2\n      mstore\n      0x20\n      add\n      swap1\n      dup2\n      mstore\n      0x20\n      add\n      0x00\n      keccak256\n      0x00\n        /* \"contracts/preSale.sol\":3077:3099  tokenWL[_token] = true */\n      0x0100\n      exp\n      dup2\n      sload\n      dup2\n      0xff\n      mul\n      not\n      and\n      swap1\n      dup4\n      iszero\n      iszero\n      mul\n      or\n      swap1\n      sstore\n      pop\n        /* \"contracts/preSale.sol\":3131:3137  _price */\n      dup1\n        /* \"contracts/preSale.sol\":3109:3120  tokenPrices */\n      0x08\n        /* \"contracts/preSale.sol\":3109:3128  tokenPrices[_token] */\n      0x00\n        /* \"contracts/preSale.sol\":3121:3127  _token */\n      dup5\n        /* \"contracts/preSale.sol\":3109:3128  tokenPrices[_token] */\n      0xffffffffffffffffffffffffffffffffffffffff\n      and\n      0xffffffffffffffffffffffffffffffffffffffff\n      and\n      dup2\n      mstore\n      0x20\n      add\n      swap1\n      dup2\n      mstore\n      0x20\n      add\n      0x00\n      keccak256\n        /* \"contracts/preSale.sol\":3109:3137  tokenPrices[_token] = _price */\n      dup2\n      swap1\n      sstore\n      pop\n        /* \"contracts/preSale.sol\":3152:3178  TokenAdded(_token, _price) */\n      0xf4c563a3ea86ff1f4275e8c207df0375a51963f2b831b7bf4da8be938d92876c\n        /* \"contracts/preSale.sol\":3163:3169  _token */\n      dup3\n        /* \"contracts/preSale.sol\":3171:3177  _price */\n      dup3\n        /* \"contracts/preSale.sol\":3152:3178  TokenAdded(_token, _price) */\n      mload(0x40)\n      tag_203\n      swap3\n      swap2\n      swap1\n      tag_191\n      jump\t// in\n    tag_203:\n      mload(0x40)\n      dup1\n      swap2\n      sub\n      swap1\n      log1\n        /* \"contracts/preSale.sol\":2965:3185  function addWhiteListedToken(... */\n      pop\n      pop\n      jump\t// out\n        /* \"contracts/preSale.sol\":2604:2809  function startAndSetPresaleEndTime(... */\n    tag_83:\n        /* \"@openzeppelin/contracts/access/Ownable.sol\":1094:1107  _checkOwner() */\n      tag_205\n        /* \"@openzeppelin/contracts/access/Ownable.sol\":1094:1105  _checkOwner */\n      tag_162\n        /* \"@openzeppelin/contracts/access/Ownable.sol\":1094:1107  _checkOwner() */\n      jump\t// in\n    tag_205:\n        /* \"contracts/preSale.sol\":2726:2741  block.timestamp */\n      timestamp\n        /* \"contracts/preSale.sol\":2707:2723  presaleStartTime */\n      0x09\n        /* \"contracts/preSale.sol\":2707:2741  presaleStartTime = block.timestamp */\n      dup2\n      swap1\n      sstore\n      pop\n        /* \"contracts/preSale.sol\":2787:2802  _presaleEndTime */\n      dup1\n        /* \"contracts/preSale.sol\":2768:2784  presaleStartTime */\n      sload(0x09)\n        /* \"contracts/preSale.sol\":2768:2802  presaleStartTime + _presaleEndTime */\n      tag_207\n      swap2\n      swap1\n      tag_165\n      jump\t// in\n    tag_207:\n        /* \"contracts/preSale.sol\":2751:2765  presaleEndTime */\n      0x0a\n        /* \"contracts/preSale.sol\":2751:2802  presaleEndTime = presaleStartTime + _presaleEndTime */\n      dup2\n      swap1\n      sstore\n      pop\n        /* \"contracts/preSale.sol\":2604:2809  function startAndSetPresaleEndTime(... */\n      pop\n      jump\t// out\n        /* \"contracts/preSale.sol\":795:825  uint256 public totalTokensSold */\n    tag_86:\n      sload(0x0b)\n      dup2\n      jump\t// out\n        /* \"contracts/preSale.sol\":4096:5178  function buyToken(... */\n    tag_90:\n        /* \"contracts/preSale.sol\":1414:1430  presaleStartTime */\n      sload(0x09)\n        /* \"contracts/preSale.sol\":1395:1410  block.timestamp */\n      timestamp\n        /* \"contracts/preSale.sol\":1395:1430  block.timestamp >= presaleStartTime */\n      lt\n      iszero\n        /* \"contracts/preSale.sol\":1374:1492  require(... */\n      tag_209\n      jumpi\n      mload(0x40)\n      0x08c379a000000000000000000000000000000000000000000000000000000000\n      dup2\n      mstore\n      0x04\n      add\n      tag_210\n      swap1\n      tag_211\n      jump\t// in\n    tag_210:\n      mload(0x40)\n      dup1\n      swap2\n      sub\n      swap1\n      revert\n    tag_209:\n        /* \"contracts/preSale.sol\":1594:1608  presaleEndTime */\n      sload(0x0a)\n        /* \"contracts/preSale.sol\":1576:1591  block.timestamp */\n      timestamp\n        /* \"contracts/preSale.sol\":1576:1608  block.timestamp < presaleEndTime */\n      lt\n        /* \"contracts/preSale.sol\":1555:1660  require(... */\n      tag_213\n      jumpi\n      mload(0x40)\n      0x08c379a000000000000000000000000000000000000000000000000000000000\n      dup2\n      mstore\n      0x04\n      add\n      tag_214\n      swap1\n      tag_215\n      jump\t// in\n    tag_214:\n      mload(0x40)\n      dup1\n      swap2\n      sub\n      swap1\n      revert\n    tag_213:\n        /* \"contracts/preSale.sol\":4232:4252  uint256 saleTokenAmt */\n      0x00\n        /* \"contracts/preSale.sol\":4273:4274  0 */\n      dup1\n        /* \"contracts/preSale.sol\":4255:4275  _token != address(0) */\n      0xffffffffffffffffffffffffffffffffffffffff\n      and\n        /* \"contracts/preSale.sol\":4255:4261  _token */\n      dup4\n        /* \"contracts/preSale.sol\":4255:4275  _token != address(0) */\n      0xffffffffffffffffffffffffffffffffffffffff\n      and\n      sub\n        /* \"contracts/preSale.sol\":4255:4373  _token != address(0)... */\n      tag_217\n      jumpi\n        /* \"contracts/preSale.sol\":4336:4373  getTokenAmount(address(0), msg.value) */\n      tag_218\n        /* \"contracts/preSale.sol\":4359:4360  0 */\n      0x00\n        /* \"contracts/preSale.sol\":4363:4372  msg.value */\n      callvalue\n        /* \"contracts/preSale.sol\":4336:4350  getTokenAmount */\n      tag_47\n        /* \"contracts/preSale.sol\":4336:4373  getTokenAmount(address(0), msg.value) */\n      jump\t// in\n    tag_218:\n        /* \"contracts/preSale.sol\":4255:4373  _token != address(0)... */\n      jump(tag_219)\n    tag_217:\n        /* \"contracts/preSale.sol\":4290:4321  getTokenAmount(_token, _amount) */\n      tag_220\n        /* \"contracts/preSale.sol\":4305:4311  _token */\n      dup4\n        /* \"contracts/preSale.sol\":4313:4320  _amount */\n      dup4\n        /* \"contracts/preSale.sol\":4290:4304  getTokenAmount */\n      tag_47\n        /* \"contracts/preSale.sol\":4290:4321  getTokenAmount(_token, _amount) */\n      jump\t// in\n    tag_220:\n        /* \"contracts/preSale.sol\":4255:4373  _token != address(0)... */\n    tag_219:\n        /* \"contracts/preSale.sol\":4232:4373  uint256 saleTokenAmt = _token != address(0)... */\n      swap1\n      pop\n        /* \"contracts/preSale.sol\":4441:4459  totalTokensforSale */\n      sload(0x04)\n        /* \"contracts/preSale.sol\":4424:4436  saleTokenAmt */\n      dup2\n        /* \"contracts/preSale.sol\":4406:4421  totalTokensSold */\n      sload(0x0b)\n        /* \"contracts/preSale.sol\":4406:4436  totalTokensSold + saleTokenAmt */\n      tag_221\n      swap2\n      swap1\n      tag_165\n      jump\t// in\n    tag_221:\n        /* \"contracts/preSale.sol\":4405:4459  (totalTokensSold + saleTokenAmt) <= totalTokensforSale */\n      gt\n      iszero\n        /* \"contracts/preSale.sol\":4384:4519  require(... */\n      tag_222\n      jumpi\n      mload(0x40)\n      0x08c379a000000000000000000000000000000000000000000000000000000000\n      dup2\n      mstore\n      0x04\n      add\n      tag_223\n      swap1\n      tag_224\n      jump\t// in\n    tag_223:\n      mload(0x40)\n      dup1\n      swap2\n      sub\n      swap1\n      revert\n    tag_222:\n        /* \"contracts/preSale.sol\":4552:4553  0 */\n      0x00\n        /* \"contracts/preSale.sol\":4534:4554  _token == address(0) */\n      0xffffffffffffffffffffffffffffffffffffffff\n      and\n        /* \"contracts/preSale.sol\":4534:4540  _token */\n      dup4\n        /* \"contracts/preSale.sol\":4534:4554  _token == address(0) */\n      0xffffffffffffffffffffffffffffffffffffffff\n      and\n      sub\n        /* \"contracts/preSale.sol\":4530:5061  if (_token == address(0)) {... */\n      tag_225\n      jumpi\n        /* \"contracts/preSale.sol\":4594:4605  minBuyLimit */\n      sload(0x06)\n        /* \"contracts/preSale.sol\":4578:4590  saleTokenAmt */\n      dup2\n        /* \"contracts/preSale.sol\":4578:4605  saleTokenAmt >= minBuyLimit */\n      lt\n      iszero\n        /* \"contracts/preSale.sol\":4570:4651  require(saleTokenAmt >= minBuyLimit, \"Presale: Token amount below min buy limit\") */\n      tag_226\n      jumpi\n      mload(0x40)\n      0x08c379a000000000000000000000000000000000000000000000000000000000\n      dup2\n      mstore\n      0x04\n      add\n      tag_227\n      swap1\n      tag_228\n      jump\t// in\n    tag_227:\n      mload(0x40)\n      dup1\n      swap2\n      sub\n      swap1\n      revert\n    tag_226:\n        /* \"contracts/preSale.sol\":4665:4721  IERC20(saleToken).safeTransfer(msg.sender, saleTokenAmt) */\n      tag_229\n        /* \"contracts/preSale.sol\":4696:4706  msg.sender */\n      caller\n        /* \"contracts/preSale.sol\":4708:4720  saleTokenAmt */\n      dup3\n        /* \"contracts/preSale.sol\":4672:4681  saleToken */\n      0x02\n      0x00\n      swap1\n      sload\n      swap1\n      0x0100\n      exp\n      swap1\n      div\n      0xffffffffffffffffffffffffffffffffffffffff\n      and\n        /* \"contracts/preSale.sol\":4665:4695  IERC20(saleToken).safeTransfer */\n      0xffffffffffffffffffffffffffffffffffffffff\n      and\n      tag_230\n      swap1\n        /* \"contracts/preSale.sol\":4665:4721  IERC20(saleToken).safeTransfer(msg.sender, saleTokenAmt) */\n      swap3\n      swap2\n      swap1\n      0xffffffff\n      and\n      jump\t// in\n    tag_229:\n        /* \"contracts/preSale.sol\":4530:5061  if (_token == address(0)) {... */\n      jump(tag_231)\n    tag_225:\n        /* \"contracts/preSale.sol\":4776:4787  minBuyLimit */\n      sload(0x06)\n        /* \"contracts/preSale.sol\":4760:4772  saleTokenAmt */\n      dup2\n        /* \"contracts/preSale.sol\":4760:4787  saleTokenAmt >= minBuyLimit */\n      lt\n      iszero\n        /* \"contracts/preSale.sol\":4752:4827  require(saleTokenAmt >= minBuyLimit, \"Presale: Amount below min buy limit\") */\n      tag_232\n      jumpi\n      mload(0x40)\n      0x08c379a000000000000000000000000000000000000000000000000000000000\n      dup2\n      mstore\n      0x04\n      add\n      tag_233\n      swap1\n      tag_234\n      jump\t// in\n    tag_233:\n      mload(0x40)\n      dup1\n      swap2\n      sub\n      swap1\n      revert\n    tag_232:\n        /* \"contracts/preSale.sol\":4849:4856  tokenWL */\n      0x07\n        /* \"contracts/preSale.sol\":4849:4864  tokenWL[_token] */\n      0x00\n        /* \"contracts/preSale.sol\":4857:4863  _token */\n      dup5\n        /* \"contracts/preSale.sol\":4849:4864  tokenWL[_token] */\n      0xffffffffffffffffffffffffffffffffffffffff\n      and\n      0xffffffffffffffffffffffffffffffffffffffff\n      and\n      dup2\n      mstore\n      0x20\n      add\n      swap1\n      dup2\n      mstore\n      0x20\n      add\n      0x00\n      keccak256\n      0x00\n      swap1\n      sload\n      swap1\n      0x0100\n      exp\n      swap1\n      div\n      0xff\n      and\n        /* \"contracts/preSale.sol\":4841:4899  require(tokenWL[_token], \"Presale: Token not whitelisted\") */\n      tag_235\n      jumpi\n      mload(0x40)\n      0x08c379a000000000000000000000000000000000000000000000000000000000\n      dup2\n      mstore\n      0x04\n      add\n      tag_236\n      swap1\n      tag_170\n      jump\t// in\n    tag_236:\n      mload(0x40)\n      dup1\n      swap2\n      sub\n      swap1\n      revert\n    tag_235:\n        /* \"contracts/preSale.sol\":4913:4980  IERC20(_token).safeTransferFrom(msg.sender, address(this), _amount) */\n      tag_237\n        /* \"contracts/preSale.sol\":4945:4955  msg.sender */\n      caller\n        /* \"contracts/preSale.sol\":4965:4969  this */\n      address\n        /* \"contracts/preSale.sol\":4972:4979  _amount */\n      dup5\n        /* \"contracts/preSale.sol\":4920:4926  _token */\n      dup7\n        /* \"contracts/preSale.sol\":4913:4944  IERC20(_token).safeTransferFrom */\n      0xffffffffffffffffffffffffffffffffffffffff\n      and\n      tag_238\n      swap1\n        /* \"contracts/preSale.sol\":4913:4980  IERC20(_token).safeTransferFrom(msg.sender, address(this), _amount) */\n      swap4\n      swap3\n      swap2\n      swap1\n      0xffffffff\n      and\n      jump\t// in\n    tag_237:\n        /* \"contracts/preSale.sol\":4994:5050  IERC20(saleToken).safeTransfer(msg.sender, saleTokenAmt) */\n      tag_239\n        /* \"contracts/preSale.sol\":5025:5035  msg.sender */\n      caller\n        /* \"contracts/preSale.sol\":5037:5049  saleTokenAmt */\n      dup3\n        /* \"contracts/preSale.sol\":5001:5010  saleToken */\n      0x02\n      0x00\n      swap1\n      sload\n      swap1\n      0x0100\n      exp\n      swap1\n      div\n      0xffffffffffffffffffffffffffffffffffffffff\n      and\n        /* \"contracts/preSale.sol\":4994:5024  IERC20(saleToken).safeTransfer */\n      0xffffffffffffffffffffffffffffffffffffffff\n      and\n      tag_230\n      swap1\n        /* \"contracts/preSale.sol\":4994:5050  IERC20(saleToken).safeTransfer(msg.sender, saleTokenAmt) */\n      swap3\n      swap2\n      swap1\n      0xffffffff\n      and\n      jump\t// in\n    tag_239:\n        /* \"contracts/preSale.sol\":4530:5061  if (_token == address(0)) {... */\n    tag_231:\n        /* \"contracts/preSale.sol\":5089:5101  saleTokenAmt */\n      dup1\n        /* \"contracts/preSale.sol\":5070:5085  totalTokensSold */\n      0x0b\n      0x00\n        /* \"contracts/preSale.sol\":5070:5101  totalTokensSold += saleTokenAmt */\n      dup3\n      dup3\n      sload\n      tag_240\n      swap2\n      swap1\n      tag_165\n      jump\t// in\n    tag_240:\n      swap3\n      pop\n      pop\n      dup2\n      swap1\n      sstore\n      pop\n        /* \"contracts/preSale.sol\":5141:5147  _token */\n      dup3\n        /* \"contracts/preSale.sol\":5116:5171  TokensBought(msg.sender, _token, _amount, saleTokenAmt) */\n      0xffffffffffffffffffffffffffffffffffffffff\n      and\n        /* \"contracts/preSale.sol\":5129:5139  msg.sender */\n      caller\n        /* \"contracts/preSale.sol\":5116:5171  TokensBought(msg.sender, _token, _amount, saleTokenAmt) */\n      0xffffffffffffffffffffffffffffffffffffffff\n      and\n      0xc244d500136edffae7025aaf7fbd7a07193ac544a1d0cc3132cf2a32452d340c\n        /* \"contracts/preSale.sol\":5149:5156  _amount */\n      dup5\n        /* \"contracts/preSale.sol\":5158:5170  saleTokenAmt */\n      dup5\n        /* \"contracts/preSale.sol\":5116:5171  TokensBought(msg.sender, _token, _amount, saleTokenAmt) */\n      mload(0x40)\n      tag_241\n      swap3\n      swap2\n      swap1\n      tag_242\n      jump\t// in\n    tag_241:\n      mload(0x40)\n      dup1\n      swap2\n      sub\n      swap1\n      log3\n        /* \"contracts/preSale.sol\":4221:5178  {... */\n      pop\n        /* \"contracts/preSale.sol\":4096:5178  function buyToken(... */\n      pop\n      pop\n      jump\t// out\n        /* \"contracts/preSale.sol\":523:549  uint256 public maxBuyLimit */\n    tag_93:\n      sload(0x05)\n      dup2\n      jump\t// out\n        /* \"contracts/preSale.sol\":484:517  uint256 public totalTokensforSale */\n    tag_97:\n      sload(0x04)\n      dup2\n      jump\t// out\n        /* \"@openzeppelin/contracts/access/Ownable.sol\":1824:1925  function renounceOwnership() public virtual onlyOwner {... */\n    tag_101:\n        /* \"@openzeppelin/contracts/access/Ownable.sol\":1094:1107  _checkOwner() */\n      tag_244\n        /* \"@openzeppelin/contracts/access/Ownable.sol\":1094:1105  _checkOwner */\n      tag_162\n        /* \"@openzeppelin/contracts/access/Ownable.sol\":1094:1107  _checkOwner() */\n      jump\t// in\n    tag_244:\n        /* \"@openzeppelin/contracts/access/Ownable.sol\":1888:1918  _transferOwnership(address(0)) */\n      tag_246\n        /* \"@openzeppelin/contracts/access/Ownable.sol\":1915:1916  0 */\n      0x00\n        /* \"@openzeppelin/contracts/access/Ownable.sol\":1888:1906  _transferOwnership */\n      tag_247\n        /* \"@openzeppelin/contracts/access/Ownable.sol\":1888:1918  _transferOwnership(address(0)) */\n      jump\t// in\n    tag_246:\n        /* \"@openzeppelin/contracts/access/Ownable.sol\":1824:1925  function renounceOwnership() public virtual onlyOwner {... */\n      jump\t// out\n        /* \"contracts/preSale.sol\":5298:5406  function setMaxBuyLimit(uint256 _maxBuyLimit) external onlyOwner {... */\n    tag_105:\n        /* \"@openzeppelin/contracts/access/Ownable.sol\":1094:1107  _checkOwner() */\n      tag_249\n        /* \"@openzeppelin/contracts/access/Ownable.sol\":1094:1105  _checkOwner */\n      tag_162\n        /* \"@openzeppelin/contracts/access/Ownable.sol\":1094:1107  _checkOwner() */\n      jump\t// in\n    tag_249:\n        /* \"contracts/preSale.sol\":5387:5399  _maxBuyLimit */\n      dup1\n        /* \"contracts/preSale.sol\":5373:5384  maxBuyLimit */\n      0x05\n        /* \"contracts/preSale.sol\":5373:5399  maxBuyLimit = _maxBuyLimit */\n      dup2\n      swap1\n      sstore\n      pop\n        /* \"contracts/preSale.sol\":5298:5406  function setMaxBuyLimit(uint256 _maxBuyLimit) external onlyOwner {... */\n      pop\n      jump\t// out\n        /* \"contracts/preSale.sol\":1858:2598  function setSaleTokenParams(... */\n    tag_109:\n        /* \"@openzeppelin/contracts/access/Ownable.sol\":1094:1107  _checkOwner() */\n      tag_252\n        /* \"@openzeppelin/contracts/access/Ownable.sol\":1094:1105  _checkOwner */\n      tag_162\n        /* \"@openzeppelin/contracts/access/Ownable.sol\":1094:1107  _checkOwner() */\n      jump\t// in\n    tag_252:\n        /* \"contracts/preSale.sol\":2029:2030  0 */\n      0x00\n        /* \"contracts/preSale.sol\":2007:2031  _saleToken != address(0) */\n      0xffffffffffffffffffffffffffffffffffffffff\n      and\n        /* \"contracts/preSale.sol\":2007:2017  _saleToken */\n      dup3\n        /* \"contracts/preSale.sol\":2007:2031  _saleToken != address(0) */\n      0xffffffffffffffffffffffffffffffffffffffff\n      and\n      sub\n        /* \"contracts/preSale.sol\":1986:2099  require(... */\n      tag_254\n      jumpi\n      mload(0x40)\n      0x08c379a000000000000000000000000000000000000000000000000000000000\n      dup2\n      mstore\n      0x04\n      add\n      tag_255\n      swap1\n      tag_256\n      jump\t// in\n    tag_255:\n      mload(0x40)\n      dup1\n      swap2\n      sub\n      swap1\n      revert\n    tag_254:\n        /* \"contracts/preSale.sol\":2152:2153  0 */\n      0x00\n        /* \"contracts/preSale.sol\":2130:2149  _totalTokensforSale */\n      dup2\n        /* \"contracts/preSale.sol\":2130:2153  _totalTokensforSale > 0 */\n      gt\n        /* \"contracts/preSale.sol\":2109:2224  require(... */\n      tag_257\n      jumpi\n      mload(0x40)\n      0x08c379a000000000000000000000000000000000000000000000000000000000\n      dup2\n      mstore\n      0x04\n      add\n      tag_258\n      swap1\n      tag_259\n      jump\t// in\n    tag_258:\n      mload(0x40)\n      dup1\n      swap2\n      sub\n      swap1\n      revert\n    tag_257:\n        /* \"contracts/preSale.sol\":2246:2256  _saleToken */\n      dup2\n        /* \"contracts/preSale.sol\":2234:2243  saleToken */\n      0x02\n      0x00\n        /* \"contracts/preSale.sol\":2234:2256  saleToken = _saleToken */\n      0x0100\n      exp\n      dup2\n      sload\n      dup2\n      0xffffffffffffffffffffffffffffffffffffffff\n      mul\n      not\n      and\n      swap1\n      dup4\n      0xffffffffffffffffffffffffffffffffffffffff\n      and\n      mul\n      or\n      swap1\n      sstore\n      pop\n        /* \"contracts/preSale.sol\":2296:2305  saleToken */\n      0x02\n      0x00\n      swap1\n      sload\n      swap1\n      0x0100\n      exp\n      swap1\n      div\n      0xffffffffffffffffffffffffffffffffffffffff\n      and\n        /* \"contracts/preSale.sol\":2281:2315  IERC20Metadata(saleToken).decimals */\n      0xffffffffffffffffffffffffffffffffffffffff\n      and\n      0x313ce567\n        /* \"contracts/preSale.sol\":2281:2317  IERC20Metadata(saleToken).decimals() */\n      mload(0x40)\n      dup2\n      0xffffffff\n      and\n      0xe0\n      shl\n      dup2\n      mstore\n      0x04\n      add\n      0x20\n      mload(0x40)\n      dup1\n      dup4\n      sub\n      dup2\n      dup7\n      gas\n      staticcall\n      iszero\n      dup1\n      iszero\n      tag_261\n      jumpi\n      returndatasize\n      0x00\n      dup1\n      returndatacopy\n      revert(0x00, returndatasize)\n    tag_261:\n      pop\n      pop\n      pop\n      pop\n      mload(0x40)\n      returndatasize\n      not(0x1f)\n      0x1f\n      dup3\n      add\n      and\n      dup3\n      add\n      dup1\n      0x40\n      mstore\n      pop\n      dup2\n      add\n      swap1\n      tag_262\n      swap2\n      swap1\n      tag_263\n      jump\t// in\n    tag_262:\n        /* \"contracts/preSale.sol\":2266:2317  saleTokenDec = IERC20Metadata(saleToken).decimals() */\n      0xff\n      and\n        /* \"contracts/preSale.sol\":2266:2278  saleTokenDec */\n      0x03\n        /* \"contracts/preSale.sol\":2266:2317  saleTokenDec = IERC20Metadata(saleToken).decimals() */\n      dup2\n      swap1\n      sstore\n      pop\n        /* \"contracts/preSale.sol\":2328:2456  IERC20(saleToken).safeTransferFrom(... */\n      tag_264\n        /* \"contracts/preSale.sol\":2376:2386  msg.sender */\n      caller\n        /* \"contracts/preSale.sol\":2408:2412  this */\n      address\n        /* \"contracts/preSale.sol\":2427:2446  _totalTokensforSale */\n      dup4\n        /* \"contracts/preSale.sol\":2335:2344  saleToken */\n      0x02\n      0x00\n      swap1\n      sload\n      swap1\n      0x0100\n      exp\n      swap1\n      div\n      0xffffffffffffffffffffffffffffffffffffffff\n      and\n        /* \"contracts/preSale.sol\":2328:2362  IERC20(saleToken).safeTransferFrom */\n      0xffffffffffffffffffffffffffffffffffffffff\n      and\n      tag_238\n      swap1\n        /* \"contracts/preSale.sol\":2328:2456  IERC20(saleToken).safeTransferFrom(... */\n      swap4\n      swap3\n      swap2\n      swap1\n      0xffffffff\n      and\n      jump\t// in\n    tag_264:\n        /* \"contracts/preSale.sol\":2494:2503  saleToken */\n      0x02\n      0x00\n      swap1\n      sload\n      swap1\n      0x0100\n      exp\n      swap1\n      div\n      0xffffffffffffffffffffffffffffffffffffffff\n      and\n        /* \"contracts/preSale.sol\":2487:2514  IERC20(saleToken).balanceOf */\n      0xffffffffffffffffffffffffffffffffffffffff\n      and\n      0x70a08231\n        /* \"contracts/preSale.sol\":2523:2527  this */\n      address\n        /* \"contracts/preSale.sol\":2487:2529  IERC20(saleToken).balanceOf(address(this)) */\n      mload(0x40)\n      dup3\n      0xffffffff\n      and\n      0xe0\n      shl\n      dup2\n      mstore\n      0x04\n      add\n      tag_265\n      swap2\n      swap1\n      tag_120\n      jump\t// in\n    tag_265:\n      0x20\n      mload(0x40)\n      dup1\n      dup4\n      sub\n      dup2\n      dup7\n      gas\n      staticcall\n      iszero\n      dup1\n      iszero\n      tag_267\n      jumpi\n      returndatasize\n      0x00\n      dup1\n      returndatacopy\n      revert(0x00, returndatasize)\n    tag_267:\n      pop\n      pop\n      pop\n      pop\n      mload(0x40)\n      returndatasize\n      not(0x1f)\n      0x1f\n      dup3\n      add\n      and\n      dup3\n      add\n      dup1\n      0x40\n      mstore\n      pop\n      dup2\n      add\n      swap1\n      tag_268\n      swap2\n      swap1\n      tag_269\n      jump\t// in\n    tag_268:\n        /* \"contracts/preSale.sol\":2466:2484  totalTokensforSale */\n      0x04\n        /* \"contracts/preSale.sol\":2466:2529  totalTokensforSale = IERC20(saleToken).balanceOf(address(this)) */\n      dup2\n      swap1\n      sstore\n      pop\n        /* \"contracts/preSale.sol\":2544:2591  SaleTokenAdded(_saleToken, _totalTokensforSale) */\n      0x03211f0a57d24f0b52e2e0573af5be089c5faadeb55f9b90591717b0a22f7e2a\n        /* \"contracts/preSale.sol\":2559:2569  _saleToken */\n      dup3\n        /* \"contracts/preSale.sol\":2571:2590  _totalTokensforSale */\n      dup3\n        /* \"contracts/preSale.sol\":2544:2591  SaleTokenAdded(_saleToken, _totalTokensforSale) */\n      mload(0x40)\n      tag_270\n      swap3\n      swap2\n      swap1\n      tag_191\n      jump\t// in\n    tag_270:\n      mload(0x40)\n      dup1\n      swap2\n      sub\n      swap1\n      log1\n        /* \"contracts/preSale.sol\":1858:2598  function setSaleTokenParams(... */\n      pop\n      pop\n      jump\t// out\n        /* \"contracts/preSale.sol\":587:626  mapping(address => bool) public tokenWL */\n    tag_113:\n      mstore(0x20, 0x07)\n      dup1\n      0x00\n      mstore\n      keccak256(0x00, 0x40)\n      0x00\n      swap2\n      pop\n      sload\n      swap1\n      0x0100\n      exp\n      swap1\n      div\n      0xff\n      and\n      dup2\n      jump\t// out\n        /* \"@openzeppelin/contracts/access/Ownable.sol\":1201:1286  function owner() public view virtual returns (address) {... */\n    tag_118:\n        /* \"@openzeppelin/contracts/access/Ownable.sol\":1247:1254  address */\n      0x00\n        /* \"@openzeppelin/contracts/access/Ownable.sol\":1273:1279  _owner */\n      dup1\n      0x00\n      swap1\n      sload\n      swap1\n      0x0100\n      exp\n      swap1\n      div\n      0xffffffffffffffffffffffffffffffffffffffff\n      and\n        /* \"@openzeppelin/contracts/access/Ownable.sol\":1266:1279  return _owner */\n      swap1\n      pop\n        /* \"@openzeppelin/contracts/access/Ownable.sol\":1201:1286  function owner() public view virtual returns (address) {... */\n      swap1\n      jump\t// out\n        /* \"contracts/preSale.sol\":5184:5292  function setMinBuyLimit(uint256 _minBuyLimit) external onlyOwner {... */\n    tag_124:\n        /* \"@openzeppelin/contracts/access/Ownable.sol\":1094:1107  _checkOwner() */\n      tag_273\n        /* \"@openzeppelin/contracts/access/Ownable.sol\":1094:1105  _checkOwner */\n      tag_162\n        /* \"@openzeppelin/contracts/access/Ownable.sol\":1094:1107  _checkOwner() */\n      jump\t// in\n    tag_273:\n        /* \"contracts/preSale.sol\":5273:5285  _minBuyLimit */\n      dup1\n        /* \"contracts/preSale.sol\":5259:5270  minBuyLimit */\n      0x06\n        /* \"contracts/preSale.sol\":5259:5285  minBuyLimit = _minBuyLimit */\n      dup2\n      swap1\n      sstore\n      pop\n        /* \"contracts/preSale.sol\":5184:5292  function setMinBuyLimit(uint256 _minBuyLimit) external onlyOwner {... */\n      pop\n      jump\t// out\n        /* \"contracts/preSale.sol\":722:753  uint256 public presaleStartTime */\n    tag_127:\n      sload(0x09)\n      dup2\n      jump\t// out\n        /* \"contracts/preSale.sol\":454:478  uint public saleTokenDec */\n    tag_131:\n      sload(0x03)\n      dup2\n      jump\t// out\n        /* \"contracts/preSale.sol\":555:581  uint256 public minBuyLimit */\n    tag_135:\n      sload(0x06)\n      dup2\n      jump\t// out\n        /* \"contracts/preSale.sol\":5463:5609  function withdrawSaleToken(uint256 _amount) external onlyOwner isPresaleEnded {... */\n    tag_140:\n        /* \"@openzeppelin/contracts/access/Ownable.sol\":1094:1107  _checkOwner() */\n      tag_276\n        /* \"@openzeppelin/contracts/access/Ownable.sol\":1094:1105  _checkOwner */\n      tag_162\n        /* \"@openzeppelin/contracts/access/Ownable.sol\":1094:1107  _checkOwner() */\n      jump\t// in\n    tag_276:\n        /* \"contracts/preSale.sol\":1760:1774  presaleEndTime */\n      sload(0x0a)\n        /* \"contracts/preSale.sol\":1741:1756  block.timestamp */\n      timestamp\n        /* \"contracts/preSale.sol\":1741:1774  block.timestamp >= presaleEndTime */\n      lt\n      iszero\n        /* \"contracts/preSale.sol\":1720:1834  require(... */\n      tag_278\n      jumpi\n      mload(0x40)\n      0x08c379a000000000000000000000000000000000000000000000000000000000\n      dup2\n      mstore\n      0x04\n      add\n      tag_279\n      swap1\n      tag_280\n      jump\t// in\n    tag_279:\n      mload(0x40)\n      dup1\n      swap2\n      sub\n      swap1\n      revert\n    tag_278:\n        /* \"contracts/preSale.sol\":5551:5602  IERC20(saleToken).safeTransfer(msg.sender, _amount) */\n      tag_282\n        /* \"contracts/preSale.sol\":5582:5592  msg.sender */\n      caller\n        /* \"contracts/preSale.sol\":5594:5601  _amount */\n      dup3\n        /* \"contracts/preSale.sol\":5558:5567  saleToken */\n      0x02\n      0x00\n      swap1\n      sload\n      swap1\n      0x0100\n      exp\n      swap1\n      div\n      0xffffffffffffffffffffffffffffffffffffffff\n      and\n        /* \"contracts/preSale.sol\":5551:5581  IERC20(saleToken).safeTransfer */\n      0xffffffffffffffffffffffffffffffffffffffff\n      and\n      tag_230\n      swap1\n        /* \"contracts/preSale.sol\":5551:5602  IERC20(saleToken).safeTransfer(msg.sender, _amount) */\n      swap3\n      swap2\n      swap1\n      0xffffffff\n      and\n      jump\t// in\n    tag_282:\n        /* \"contracts/preSale.sol\":5463:5609  function withdrawSaleToken(uint256 _amount) external onlyOwner isPresaleEnded {... */\n      pop\n      jump\t// out\n        /* \"contracts/preSale.sol\":424:448  address public saleToken */\n    tag_143:\n      0x02\n      0x00\n      swap1\n      sload\n      swap1\n      0x0100\n      exp\n      swap1\n      div\n      0xffffffffffffffffffffffffffffffffffffffff\n      and\n      dup2\n      jump\t// out\n        /* \"@openzeppelin/contracts/access/Ownable.sol\":2074:2272  function transferOwnership(address newOwner) public virtual onlyOwner {... */\n    tag_148:\n        /* \"@openzeppelin/contracts/access/Ownable.sol\":1094:1107  _checkOwner() */\n      tag_284\n        /* \"@openzeppelin/contracts/access/Ownable.sol\":1094:1105  _checkOwner */\n      tag_162\n        /* \"@openzeppelin/contracts/access/Ownable.sol\":1094:1107  _checkOwner() */\n      jump\t// in\n    tag_284:\n        /* \"@openzeppelin/contracts/access/Ownable.sol\":2182:2183  0 */\n      0x00\n        /* \"@openzeppelin/contracts/access/Ownable.sol\":2162:2184  newOwner != address(0) */\n      0xffffffffffffffffffffffffffffffffffffffff\n      and\n        /* \"@openzeppelin/contracts/access/Ownable.sol\":2162:2170  newOwner */\n      dup2\n        /* \"@openzeppelin/contracts/access/Ownable.sol\":2162:2184  newOwner != address(0) */\n      0xffffffffffffffffffffffffffffffffffffffff\n      and\n      sub\n        /* \"@openzeppelin/contracts/access/Ownable.sol\":2154:2227  require(newOwner != address(0), \"Ownable: new owner is the zero address\") */\n      tag_286\n      jumpi\n      mload(0x40)\n      0x08c379a000000000000000000000000000000000000000000000000000000000\n      dup2\n      mstore\n      0x04\n      add\n      tag_287\n      swap1\n      tag_288\n      jump\t// in\n    tag_287:\n      mload(0x40)\n      dup1\n      swap2\n      sub\n      swap1\n      revert\n    tag_286:\n        /* \"@openzeppelin/contracts/access/Ownable.sol\":2237:2265  _transferOwnership(newOwner) */\n      tag_289\n        /* \"@openzeppelin/contracts/access/Ownable.sol\":2256:2264  newOwner */\n      dup2\n        /* \"@openzeppelin/contracts/access/Ownable.sol\":2237:2255  _transferOwnership */\n      tag_247\n        /* \"@openzeppelin/contracts/access/Ownable.sol\":2237:2265  _transferOwnership(newOwner) */\n      jump\t// in\n    tag_289:\n        /* \"@openzeppelin/contracts/access/Ownable.sol\":2074:2272  function transferOwnership(address newOwner) public virtual onlyOwner {... */\n      pop\n      jump\t// out\n        /* \"contracts/preSale.sol\":5943:6194  function withdraw(address token, uint256 amt) public   onlyOwner {... */\n    tag_152:\n        /* \"@openzeppelin/contracts/access/Ownable.sol\":1094:1107  _checkOwner() */\n      tag_291\n        /* \"@openzeppelin/contracts/access/Ownable.sol\":1094:1105  _checkOwner */\n      tag_162\n        /* \"@openzeppelin/contracts/access/Ownable.sol\":1094:1107  _checkOwner() */\n      jump\t// in\n    tag_291:\n        /* \"contracts/preSale.sol\":6035:6044  saleToken */\n      0x02\n      0x00\n      swap1\n      sload\n      swap1\n      0x0100\n      exp\n      swap1\n      div\n      0xffffffffffffffffffffffffffffffffffffffff\n      and\n        /* \"contracts/preSale.sol\":6026:6044  token != saleToken */\n      0xffffffffffffffffffffffffffffffffffffffff\n      and\n        /* \"contracts/preSale.sol\":6026:6031  token */\n      dup3\n        /* \"contracts/preSale.sol\":6026:6044  token != saleToken */\n      0xffffffffffffffffffffffffffffffffffffffff\n      and\n      sub\n        /* \"contracts/preSale.sol\":6018:6134  require(token != saleToken, \"Presale: Cannot withdraw sale token with this method, use withdrawSaleToken() instead\") */\n      tag_293\n      jumpi\n      mload(0x40)\n      0x08c379a000000000000000000000000000000000000000000000000000000000\n      dup2\n      mstore\n      0x04\n      add\n      tag_294\n      swap1\n      tag_295\n      jump\t// in\n    tag_294:\n      mload(0x40)\n      dup1\n      swap2\n      sub\n      swap1\n      revert\n    tag_293:\n        /* \"contracts/preSale.sol\":6144:6187  IERC20(token).safeTransfer(msg.sender, amt) */\n      tag_296\n        /* \"contracts/preSale.sol\":6171:6181  msg.sender */\n      caller\n        /* \"contracts/preSale.sol\":6183:6186  amt */\n      dup3\n        /* \"contracts/preSale.sol\":6151:6156  token */\n      dup5\n        /* \"contracts/preSale.sol\":6144:6170  IERC20(token).safeTransfer */\n      0xffffffffffffffffffffffffffffffffffffffff\n      and\n      tag_230\n      swap1\n        /* \"contracts/preSale.sol\":6144:6187  IERC20(token).safeTransfer(msg.sender, amt) */\n      swap3\n      swap2\n      swap1\n      0xffffffff\n      and\n      jump\t// in\n    tag_296:\n        /* \"contracts/preSale.sol\":5943:6194  function withdraw(address token, uint256 amt) public   onlyOwner {... */\n      pop\n      pop\n      jump\t// out\n        /* \"contracts/preSale.sol\":6201:6484  function withdrawAll(address token) external onlyOwner {... */\n    tag_156:\n        /* \"@openzeppelin/contracts/access/Ownable.sol\":1094:1107  _checkOwner() */\n      tag_298\n        /* \"@openzeppelin/contracts/access/Ownable.sol\":1094:1105  _checkOwner */\n      tag_162\n        /* \"@openzeppelin/contracts/access/Ownable.sol\":1094:1107  _checkOwner() */\n      jump\t// in\n    tag_298:\n        /* \"contracts/preSale.sol\":6283:6292  saleToken */\n      0x02\n      0x00\n      swap1\n      sload\n      swap1\n      0x0100\n      exp\n      swap1\n      div\n      0xffffffffffffffffffffffffffffffffffffffff\n      and\n        /* \"contracts/preSale.sol\":6274:6292  token != saleToken */\n      0xffffffffffffffffffffffffffffffffffffffff\n      and\n        /* \"contracts/preSale.sol\":6274:6279  token */\n      dup2\n        /* \"contracts/preSale.sol\":6274:6292  token != saleToken */\n      0xffffffffffffffffffffffffffffffffffffffff\n      and\n      sub\n        /* \"contracts/preSale.sol\":6266:6385  require(token != saleToken, \"Presale: Cannot withdraw sale token with this method, use withdrawAllSaleToken() instead\") */\n      tag_300\n      jumpi\n      mload(0x40)\n      0x08c379a000000000000000000000000000000000000000000000000000000000\n      dup2\n      mstore\n      0x04\n      add\n      tag_301\n      swap1\n      tag_302\n      jump\t// in\n    tag_301:\n      mload(0x40)\n      dup1\n      swap2\n      sub\n      swap1\n      revert\n    tag_300:\n        /* \"contracts/preSale.sol\":6395:6406  uint256 amt */\n      0x00\n        /* \"contracts/preSale.sol\":6416:6421  token */\n      dup2\n        /* \"contracts/preSale.sol\":6409:6432  IERC20(token).balanceOf */\n      0xffffffffffffffffffffffffffffffffffffffff\n      and\n      0x70a08231\n        /* \"contracts/preSale.sol\":6441:6445  this */\n      address\n        /* \"contracts/preSale.sol\":6409:6447  IERC20(token).balanceOf(address(this)) */\n      mload(0x40)\n      dup3\n      0xffffffff\n      and\n      0xe0\n      shl\n      dup2\n      mstore\n      0x04\n      add\n      tag_303\n      swap2\n      swap1\n      tag_120\n      jump\t// in\n    tag_303:\n      0x20\n      mload(0x40)\n      dup1\n      dup4\n      sub\n      dup2\n      dup7\n      gas\n      staticcall\n      iszero\n      dup1\n      iszero\n      tag_305\n      jumpi\n      returndatasize\n      0x00\n      dup1\n      returndatacopy\n      revert(0x00, returndatasize)\n    tag_305:\n      pop\n      pop\n      pop\n      pop\n      mload(0x40)\n      returndatasize\n      not(0x1f)\n      0x1f\n      dup3\n      add\n      and\n      dup3\n      add\n      dup1\n      0x40\n      mstore\n      pop\n      dup2\n      add\n      swap1\n      tag_306\n      swap2\n      swap1\n      tag_269\n      jump\t// in\n    tag_306:\n        /* \"contracts/preSale.sol\":6395:6447  uint256 amt = IERC20(token).balanceOf(address(this)) */\n      swap1\n      pop\n        /* \"contracts/preSale.sol\":6457:6477  withdraw(token, amt) */\n      tag_307\n        /* \"contracts/preSale.sol\":6466:6471  token */\n      dup3\n        /* \"contracts/preSale.sol\":6473:6476  amt */\n      dup3\n        /* \"contracts/preSale.sol\":6457:6465  withdraw */\n      tag_152\n        /* \"contracts/preSale.sol\":6457:6477  withdraw(token, amt) */\n      jump\t// in\n    tag_307:\n        /* \"contracts/preSale.sol\":6256:6484  {... */\n      pop\n        /* \"contracts/preSale.sol\":6201:6484  function withdrawAll(address token) external onlyOwner {... */\n      pop\n      jump\t// out\n        /* \"contracts/preSale.sol\":5680:5876  function withdrawAllSaleToken() external onlyOwner isPresaleEnded {... */\n    tag_159:\n        /* \"@openzeppelin/contracts/access/Ownable.sol\":1094:1107  _checkOwner() */\n      tag_309\n        /* \"@openzeppelin/contracts/access/Ownable.sol\":1094:1105  _checkOwner */\n      tag_162\n        /* \"@openzeppelin/contracts/access/Ownable.sol\":1094:1107  _checkOwner() */\n      jump\t// in\n    tag_309:\n        /* \"contracts/preSale.sol\":1760:1774  presaleEndTime */\n      sload(0x0a)\n        /* \"contracts/preSale.sol\":1741:1756  block.timestamp */\n      timestamp\n        /* \"contracts/preSale.sol\":1741:1774  block.timestamp >= presaleEndTime */\n      lt\n      iszero\n        /* \"contracts/preSale.sol\":1720:1834  require(... */\n      tag_311\n      jumpi\n      mload(0x40)\n      0x08c379a000000000000000000000000000000000000000000000000000000000\n      dup2\n      mstore\n      0x04\n      add\n      tag_312\n      swap1\n      tag_280\n      jump\t// in\n    tag_312:\n      mload(0x40)\n      dup1\n      swap2\n      sub\n      swap1\n      revert\n    tag_311:\n        /* \"contracts/preSale.sol\":5756:5767  uint256 amt */\n      0x00\n        /* \"contracts/preSale.sol\":5777:5786  saleToken */\n      0x02\n      0x00\n      swap1\n      sload\n      swap1\n      0x0100\n      exp\n      swap1\n      div\n      0xffffffffffffffffffffffffffffffffffffffff\n      and\n        /* \"contracts/preSale.sol\":5770:5797  IERC20(saleToken).balanceOf */\n      0xffffffffffffffffffffffffffffffffffffffff\n      and\n      0x70a08231\n        /* \"contracts/preSale.sol\":5806:5810  this */\n      address\n        /* \"contracts/preSale.sol\":5770:5812  IERC20(saleToken).balanceOf(address(this)) */\n      mload(0x40)\n      dup3\n      0xffffffff\n      and\n      0xe0\n      shl\n      dup2\n      mstore\n      0x04\n      add\n      tag_314\n      swap2\n      swap1\n      tag_120\n      jump\t// in\n    tag_314:\n      0x20\n      mload(0x40)\n      dup1\n      dup4\n      sub\n      dup2\n      dup7\n      gas\n      staticcall\n      iszero\n      dup1\n      iszero\n      tag_316\n      jumpi\n      returndatasize\n      0x00\n      dup1\n      returndatacopy\n      revert(0x00, returndatasize)\n    tag_316:\n      pop\n      pop\n      pop\n      pop\n      mload(0x40)\n      returndatasize\n      not(0x1f)\n      0x1f\n      dup3\n      add\n      and\n      dup3\n      add\n      dup1\n      0x40\n      mstore\n      pop\n      dup2\n      add\n      swap1\n      tag_317\n      swap2\n      swap1\n      tag_269\n      jump\t// in\n    tag_317:\n        /* \"contracts/preSale.sol\":5756:5812  uint256 amt = IERC20(saleToken).balanceOf(address(this)) */\n      swap1\n      pop\n        /* \"contracts/preSale.sol\":5822:5869  IERC20(saleToken).safeTransfer(msg.sender, amt) */\n      tag_318\n        /* \"contracts/preSale.sol\":5853:5863  msg.sender */\n      caller\n        /* \"contracts/preSale.sol\":5865:5868  amt */\n      dup3\n        /* \"contracts/preSale.sol\":5829:5838  saleToken */\n      0x02\n      0x00\n      swap1\n      sload\n      swap1\n      0x0100\n      exp\n      swap1\n      div\n      0xffffffffffffffffffffffffffffffffffffffff\n      and\n        /* \"contracts/preSale.sol\":5822:5852  IERC20(saleToken).safeTransfer */\n      0xffffffffffffffffffffffffffffffffffffffff\n      and\n      tag_230\n      swap1\n        /* \"contracts/preSale.sol\":5822:5869  IERC20(saleToken).safeTransfer(msg.sender, amt) */\n      swap3\n      swap2\n      swap1\n      0xffffffff\n      and\n      jump\t// in\n    tag_318:\n        /* \"contracts/preSale.sol\":5746:5876  {... */\n      pop\n        /* \"contracts/preSale.sol\":5680:5876  function withdrawAllSaleToken() external onlyOwner isPresaleEnded {... */\n      jump\t// out\n        /* \"@openzeppelin/contracts/access/Ownable.sol\":1359:1489  function _checkOwner() internal view virtual {... */\n    tag_162:\n        /* \"@openzeppelin/contracts/access/Ownable.sol\":1433:1445  _msgSender() */\n      tag_320\n        /* \"@openzeppelin/contracts/access/Ownable.sol\":1433:1443  _msgSender */\n      tag_321\n        /* \"@openzeppelin/contracts/access/Ownable.sol\":1433:1445  _msgSender() */\n      jump\t// in\n    tag_320:\n        /* \"@openzeppelin/contracts/access/Ownable.sol\":1422:1445  owner() == _msgSender() */\n      0xffffffffffffffffffffffffffffffffffffffff\n      and\n        /* \"@openzeppelin/contracts/access/Ownable.sol\":1422:1429  owner() */\n      tag_322\n        /* \"@openzeppelin/contracts/access/Ownable.sol\":1422:1427  owner */\n      tag_118\n        /* \"@openzeppelin/contracts/access/Ownable.sol\":1422:1429  owner() */\n      jump\t// in\n    tag_322:\n        /* \"@openzeppelin/contracts/access/Ownable.sol\":1422:1445  owner() == _msgSender() */\n      0xffffffffffffffffffffffffffffffffffffffff\n      and\n      eq\n        /* \"@openzeppelin/contracts/access/Ownable.sol\":1414:1482  require(owner() == _msgSender(), \"Ownable: caller is not the owner\") */\n      tag_323\n      jumpi\n      mload(0x40)\n      0x08c379a000000000000000000000000000000000000000000000000000000000\n      dup2\n      mstore\n      0x04\n      add\n      tag_324\n      swap1\n      tag_325\n      jump\t// in\n    tag_324:\n      mload(0x40)\n      dup1\n      swap2\n      sub\n      swap1\n      revert\n    tag_323:\n        /* \"@openzeppelin/contracts/access/Ownable.sol\":1359:1489  function _checkOwner() internal view virtual {... */\n      jump\t// out\n        /* \"@openzeppelin/contracts/token/ERC20/utils/SafeERC20.sol\":941:1116  function safeTransfer(IERC20 token, address to, uint256 value) internal {... */\n    tag_230:\n        /* \"@openzeppelin/contracts/token/ERC20/utils/SafeERC20.sol\":1023:1109  _callOptionalReturn(token, abi.encodeWithSelector(token.transfer.selector, to, value)) */\n      tag_327\n        /* \"@openzeppelin/contracts/token/ERC20/utils/SafeERC20.sol\":1043:1048  token */\n      dup4\n        /* \"@openzeppelin/contracts/token/ERC20/utils/SafeERC20.sol\":1073:1096  token.transfer.selector */\n      shl(0xe0, 0xa9059cbb)\n        /* \"@openzeppelin/contracts/token/ERC20/utils/SafeERC20.sol\":1098:1100  to */\n      dup5\n        /* \"@openzeppelin/contracts/token/ERC20/utils/SafeERC20.sol\":1102:1107  value */\n      dup5\n        /* \"@openzeppelin/contracts/token/ERC20/utils/SafeERC20.sol\":1050:1108  abi.encodeWithSelector(token.transfer.selector, to, value) */\n      add(0x24, mload(0x40))\n      tag_328\n      swap3\n      swap2\n      swap1\n      tag_191\n      jump\t// in\n    tag_328:\n      mload(0x40)\n      0x20\n      dup2\n      dup4\n      sub\n      sub\n      dup2\n      mstore\n      swap1\n      0x40\n      mstore\n      swap1\n      not(0xffffffffffffffffffffffffffffffffffffffffffffffffffffffff)\n      and\n      0x20\n      dup3\n      add\n      dup1\n      mload\n      0xffffffffffffffffffffffffffffffffffffffffffffffffffffffff\n      dup4\n      dup2\n      dup4\n      and\n      or\n      dup4\n      mstore\n      pop\n      pop\n      pop\n      pop\n        /* \"@openzeppelin/contracts/token/ERC20/utils/SafeERC20.sol\":1023:1042  _callOptionalReturn */\n      tag_329\n        /* \"@openzeppelin/contracts/token/ERC20/utils/SafeERC20.sol\":1023:1109  _callOptionalReturn(token, abi.encodeWithSelector(token.transfer.selector, to, value)) */\n      jump\t// in\n    tag_327:\n        /* \"@openzeppelin/contracts/token/ERC20/utils/SafeERC20.sol\":941:1116  function safeTransfer(IERC20 token, address to, uint256 value) internal {... */\n      pop\n      pop\n      pop\n      jump\t// out\n        /* \"@openzeppelin/contracts/token/ERC20/utils/SafeERC20.sol\":1355:1558  function safeTransferFrom(IERC20 token, address from, address to, uint256 value) internal {... */\n    tag_238:\n        /* \"@openzeppelin/contracts/token/ERC20/utils/SafeERC20.sol\":1455:1551  _callOptionalReturn(token, abi.encodeWithSelector(token.transferFrom.selector, from, to, value)) */\n      tag_331\n        /* \"@openzeppelin/contracts/token/ERC20/utils/SafeERC20.sol\":1475:1480  token */\n      dup5\n        /* \"@openzeppelin/contracts/token/ERC20/utils/SafeERC20.sol\":1505:1532  token.transferFrom.selector */\n      shl(0xe0, 0x23b872dd)\n        /* \"@openzeppelin/contracts/token/ERC20/utils/SafeERC20.sol\":1534:1538  from */\n      dup6\n        /* \"@openzeppelin/contracts/token/ERC20/utils/SafeERC20.sol\":1540:1542  to */\n      dup6\n        /* \"@openzeppelin/contracts/token/ERC20/utils/SafeERC20.sol\":1544:1549  value */\n      dup6\n        /* \"@openzeppelin/contracts/token/ERC20/utils/SafeERC20.sol\":1482:1550  abi.encodeWithSelector(token.transferFrom.selector, from, to, value) */\n      add(0x24, mload(0x40))\n      tag_332\n      swap4\n      swap3\n      swap2\n      swap1\n      tag_333\n      jump\t// in\n    tag_332:\n      mload(0x40)\n      0x20\n      dup2\n      dup4\n      sub\n      sub\n      dup2\n      mstore\n      swap1\n      0x40\n      mstore\n      swap1\n      not(0xffffffffffffffffffffffffffffffffffffffffffffffffffffffff)\n      and\n      0x20\n      dup3\n      add\n      dup1\n      mload\n      0xffffffffffffffffffffffffffffffffffffffffffffffffffffffff\n      dup4\n      dup2\n      dup4\n      and\n      or\n      dup4\n      mstore\n      pop\n      pop\n      pop\n      pop\n        /* \"@openzeppelin/contracts/token/ERC20/utils/SafeERC20.sol\":1455:1474  _callOptionalReturn */\n      tag_329\n        /* \"@openzeppelin/contracts/token/ERC20/utils/SafeERC20.sol\":1455:1551  _callOptionalReturn(token, abi.encodeWithSelector(token.transferFrom.selector, from, to, value)) */\n      jump\t// in\n    tag_331:\n        /* \"@openzeppelin/contracts/token/ERC20/utils/SafeERC20.sol\":1355:1558  function safeTransferFrom(IERC20 token, address from, address to, uint256 value) internal {... */\n      pop\n      pop\n      pop\n      pop\n      jump\t// out\n        /* \"@openzeppelin/contracts/access/Ownable.sol\":2426:2613  function _transferOwnership(address newOwner) internal virtual {... */\n    tag_247:\n        /* \"@openzeppelin/contracts/access/Ownable.sol\":2499:2515  address oldOwner */\n      0x00\n        /* \"@openzeppelin/contracts/access/Ownable.sol\":2518:2524  _owner */\n      dup1\n      0x00\n      swap1\n      sload\n      swap1\n      0x0100\n      exp\n      swap1\n      div\n      0xffffffffffffffffffffffffffffffffffffffff\n      and\n        /* \"@openzeppelin/contracts/access/Ownable.sol\":2499:2524  address oldOwner = _owner */\n      swap1\n      pop\n        /* \"@openzeppelin/contracts/access/Ownable.sol\":2543:2551  newOwner */\n      dup2\n        /* \"@openzeppelin/contracts/access/Ownable.sol\":2534:2540  _owner */\n      0x00\n      dup1\n        /* \"@openzeppelin/contracts/access/Ownable.sol\":2534:2551  _owner = newOwner */\n      0x0100\n      exp\n      dup2\n      sload\n      dup2\n      0xffffffffffffffffffffffffffffffffffffffff\n      mul\n      not\n      and\n      swap1\n      dup4\n      0xffffffffffffffffffffffffffffffffffffffff\n      and\n      mul\n      or\n      swap1\n      sstore\n      pop\n        /* \"@openzeppelin/contracts/access/Ownable.sol\":2597:2605  newOwner */\n      dup2\n        /* \"@openzeppelin/contracts/access/Ownable.sol\":2566:2606  OwnershipTransferred(oldOwner, newOwner) */\n      0xffffffffffffffffffffffffffffffffffffffff\n      and\n        /* \"@openzeppelin/contracts/access/Ownable.sol\":2587:2595  oldOwner */\n      dup2\n        /* \"@openzeppelin/contracts/access/Ownable.sol\":2566:2606  OwnershipTransferred(oldOwner, newOwner) */\n      0xffffffffffffffffffffffffffffffffffffffff\n      and\n      0x8be0079c531659141344cd1fd0a4f28419497f9722a3daafe3b4186f6b6457e0\n      mload(0x40)\n      mload(0x40)\n      dup1\n      swap2\n      sub\n      swap1\n      log3\n        /* \"@openzeppelin/contracts/access/Ownable.sol\":2489:2613  {... */\n      pop\n        /* \"@openzeppelin/contracts/access/Ownable.sol\":2426:2613  function _transferOwnership(address newOwner) internal virtual {... */\n      pop\n      jump\t// out\n        /* \"@openzeppelin/contracts/utils/Context.sol\":640:736  function _msgSender() internal view virtual returns (address) {... */\n    tag_321:\n        /* \"@openzeppelin/contracts/utils/Context.sol\":693:700  address */\n      0x00\n        /* \"@openzeppelin/contracts/utils/Context.sol\":719:729  msg.sender */\n      caller\n        /* \"@openzeppelin/contracts/utils/Context.sol\":712:729  return msg.sender */\n      swap1\n      pop\n        /* \"@openzeppelin/contracts/utils/Context.sol\":640:736  function _msgSender() internal view virtual returns (address) {... */\n      swap1\n      jump\t// out\n        /* \"@openzeppelin/contracts/token/ERC20/utils/SafeERC20.sol\":5196:5838  function _callOptionalReturn(IERC20 token, bytes memory data) private {... */\n    tag_329:\n        /* \"@openzeppelin/contracts/token/ERC20/utils/SafeERC20.sol\":5615:5638  bytes memory returndata */\n      0x00\n        /* \"@openzeppelin/contracts/token/ERC20/utils/SafeERC20.sol\":5641:5710  address(token).functionCall(data, \"SafeERC20: low-level call failed\") */\n      tag_337\n        /* \"@openzeppelin/contracts/token/ERC20/utils/SafeERC20.sol\":5669:5673  data */\n      dup3\n        /* \"@openzeppelin/contracts/token/ERC20/utils/SafeERC20.sol\":5641:5710  address(token).functionCall(data, \"SafeERC20: low-level call failed\") */\n      mload(0x40)\n      dup1\n      0x40\n      add\n      0x40\n      mstore\n      dup1\n      0x20\n      dup2\n      mstore\n      0x20\n      add\n      0x5361666545524332303a206c6f772d6c6576656c2063616c6c206661696c6564\n      dup2\n      mstore\n      pop\n        /* \"@openzeppelin/contracts/token/ERC20/utils/SafeERC20.sol\":5649:5654  token */\n      dup6\n        /* \"@openzeppelin/contracts/token/ERC20/utils/SafeERC20.sol\":5641:5668  address(token).functionCall */\n      0xffffffffffffffffffffffffffffffffffffffff\n      and\n      tag_338\n      swap1\n        /* \"@openzeppelin/contracts/token/ERC20/utils/SafeERC20.sol\":5641:5710  address(token).functionCall(data, \"SafeERC20: low-level call failed\") */\n      swap3\n      swap2\n      swap1\n      0xffffffff\n      and\n      jump\t// in\n    tag_337:\n        /* \"@openzeppelin/contracts/token/ERC20/utils/SafeERC20.sol\":5615:5710  bytes memory returndata = address(token).functionCall(data, \"SafeERC20: low-level call failed\") */\n      swap1\n      pop\n        /* \"@openzeppelin/contracts/token/ERC20/utils/SafeERC20.sol\":5749:5750  0 */\n      0x00\n        /* \"@openzeppelin/contracts/token/ERC20/utils/SafeERC20.sol\":5728:5738  returndata */\n      dup2\n        /* \"@openzeppelin/contracts/token/ERC20/utils/SafeERC20.sol\":5728:5745  returndata.length */\n      mload\n        /* \"@openzeppelin/contracts/token/ERC20/utils/SafeERC20.sol\":5728:5750  returndata.length == 0 */\n      eq\n        /* \"@openzeppelin/contracts/token/ERC20/utils/SafeERC20.sol\":5728:5784  returndata.length == 0 || abi.decode(returndata, (bool)) */\n      dup1\n      tag_339\n      jumpi\n      pop\n        /* \"@openzeppelin/contracts/token/ERC20/utils/SafeERC20.sol\":5765:5775  returndata */\n      dup1\n        /* \"@openzeppelin/contracts/token/ERC20/utils/SafeERC20.sol\":5754:5784  abi.decode(returndata, (bool)) */\n      dup1\n      0x20\n      add\n      swap1\n      mload\n      dup2\n      add\n      swap1\n      tag_340\n      swap2\n      swap1\n      tag_341\n      jump\t// in\n    tag_340:\n        /* \"@openzeppelin/contracts/token/ERC20/utils/SafeERC20.sol\":5728:5784  returndata.length == 0 || abi.decode(returndata, (bool)) */\n    tag_339:\n        /* \"@openzeppelin/contracts/token/ERC20/utils/SafeERC20.sol\":5720:5831  require(returndata.length == 0 || abi.decode(returndata, (bool)), \"SafeERC20: ERC20 operation did not succeed\") */\n      tag_342\n      jumpi\n      mload(0x40)\n      0x08c379a000000000000000000000000000000000000000000000000000000000\n      dup2\n      mstore\n      0x04\n      add\n      tag_343\n      swap1\n      tag_344\n      jump\t// in\n    tag_343:\n      mload(0x40)\n      dup1\n      swap2\n      sub\n      swap1\n      revert\n    tag_342:\n        /* \"@openzeppelin/contracts/token/ERC20/utils/SafeERC20.sol\":5266:5838  {... */\n      pop\n        /* \"@openzeppelin/contracts/token/ERC20/utils/SafeERC20.sol\":5196:5838  function _callOptionalReturn(IERC20 token, bytes memory data) private {... */\n      pop\n      pop\n      jump\t// out\n        /* \"@openzeppelin/contracts/utils/Address.sol\":4108:4331  function functionCall(... */\n    tag_338:\n        /* \"@openzeppelin/contracts/utils/Address.sol\":4241:4253  bytes memory */\n      0x60\n        /* \"@openzeppelin/contracts/utils/Address.sol\":4272:4324  functionCallWithValue(target, data, 0, errorMessage) */\n      tag_346\n        /* \"@openzeppelin/contracts/utils/Address.sol\":4294:4300  target */\n      dup5\n        /* \"@openzeppelin/contracts/utils/Address.sol\":4302:4306  data */\n      dup5\n        /* \"@openzeppelin/contracts/utils/Address.sol\":4308:4309  0 */\n      0x00\n        /* \"@openzeppelin/contracts/utils/Address.sol\":4311:4323  errorMessage */\n      dup6\n        /* \"@openzeppelin/contracts/utils/Address.sol\":4272:4293  functionCallWithValue */\n      tag_347\n        /* \"@openzeppelin/contracts/utils/Address.sol\":4272:4324  functionCallWithValue(target, data, 0, errorMessage) */\n      jump\t// in\n    tag_346:\n        /* \"@openzeppelin/contracts/utils/Address.sol\":4265:4324  return functionCallWithValue(target, data, 0, errorMessage) */\n      swap1\n      pop\n        /* \"@openzeppelin/contracts/utils/Address.sol\":4108:4331  function functionCall(... */\n      swap4\n      swap3\n      pop\n      pop\n      pop\n      jump\t// out\n        /* \"@openzeppelin/contracts/utils/Address.sol\":5165:5611  function functionCallWithValue(... */\n    tag_347:\n        /* \"@openzeppelin/contracts/utils/Address.sol\":5330:5342  bytes memory */\n      0x60\n        /* \"@openzeppelin/contracts/utils/Address.sol\":5387:5392  value */\n      dup3\n        /* \"@openzeppelin/contracts/utils/Address.sol\":5362:5383  address(this).balance */\n      selfbalance\n        /* \"@openzeppelin/contracts/utils/Address.sol\":5362:5392  address(this).balance >= value */\n      lt\n      iszero\n        /* \"@openzeppelin/contracts/utils/Address.sol\":5354:5435  require(address(this).balance >= value, \"Address: insufficient balance for call\") */\n      tag_349\n      jumpi\n      mload(0x40)\n      0x08c379a000000000000000000000000000000000000000000000000000000000\n      dup2\n      mstore\n      0x04\n      add\n      tag_350\n      swap1\n      tag_351\n      jump\t// in\n    tag_350:\n      mload(0x40)\n      dup1\n      swap2\n      sub\n      swap1\n      revert\n    tag_349:\n        /* \"@openzeppelin/contracts/utils/Address.sol\":5446:5458  bool success */\n      0x00\n        /* \"@openzeppelin/contracts/utils/Address.sol\":5460:5483  bytes memory returndata */\n      dup1\n        /* \"@openzeppelin/contracts/utils/Address.sol\":5487:5493  target */\n      dup7\n        /* \"@openzeppelin/contracts/utils/Address.sol\":5487:5498  target.call */\n      0xffffffffffffffffffffffffffffffffffffffff\n      and\n        /* \"@openzeppelin/contracts/utils/Address.sol\":5506:5511  value */\n      dup6\n        /* \"@openzeppelin/contracts/utils/Address.sol\":5513:5517  data */\n      dup8\n        /* \"@openzeppelin/contracts/utils/Address.sol\":5487:5518  target.call{value: value}(data) */\n      mload(0x40)\n      tag_352\n      swap2\n      swap1\n      tag_353\n      jump\t// in\n    tag_352:\n      0x00\n      mload(0x40)\n      dup1\n      dup4\n      sub\n      dup2\n      dup6\n      dup8\n      gas\n      call\n      swap3\n      pop\n      pop\n      pop\n      returndatasize\n      dup1\n      0x00\n      dup2\n      eq\n      tag_356\n      jumpi\n      mload(0x40)\n      swap2\n      pop\n      and(add(returndatasize, 0x3f), not(0x1f))\n      dup3\n      add\n      0x40\n      mstore\n      returndatasize\n      dup3\n      mstore\n      returndatasize\n      0x00\n      0x20\n      dup5\n      add\n      returndatacopy\n      jump(tag_355)\n    tag_356:\n      0x60\n      swap2\n      pop\n    tag_355:\n      pop\n        /* \"@openzeppelin/contracts/utils/Address.sol\":5445:5518  (bool success, bytes memory returndata) = target.call{value: value}(data) */\n      swap2\n      pop\n      swap2\n      pop\n        /* \"@openzeppelin/contracts/utils/Address.sol\":5535:5604  verifyCallResultFromTarget(target, success, returndata, errorMessage) */\n      tag_357\n        /* \"@openzeppelin/contracts/utils/Address.sol\":5562:5568  target */\n      dup8\n        /* \"@openzeppelin/contracts/utils/Address.sol\":5570:5577  success */\n      dup4\n        /* \"@openzeppelin/contracts/utils/Address.sol\":5579:5589  returndata */\n      dup4\n        /* \"@openzeppelin/contracts/utils/Address.sol\":5591:5603  errorMessage */\n      dup8\n        /* \"@openzeppelin/contracts/utils/Address.sol\":5535:5561  verifyCallResultFromTarget */\n      tag_358\n        /* \"@openzeppelin/contracts/utils/Address.sol\":5535:5604  verifyCallResultFromTarget(target, success, returndata, errorMessage) */\n      jump\t// in\n    tag_357:\n        /* \"@openzeppelin/contracts/utils/Address.sol\":5528:5604  return verifyCallResultFromTarget(target, success, returndata, errorMessage) */\n      swap3\n      pop\n      pop\n      pop\n        /* \"@openzeppelin/contracts/utils/Address.sol\":5165:5611  function functionCallWithValue(... */\n      swap5\n      swap4\n      pop\n      pop\n      pop\n      pop\n      jump\t// out\n        /* \"@openzeppelin/contracts/utils/Address.sol\":7671:8299  function verifyCallResultFromTarget(... */\n    tag_358:\n        /* \"@openzeppelin/contracts/utils/Address.sol\":7851:7863  bytes memory */\n      0x60\n        /* \"@openzeppelin/contracts/utils/Address.sol\":7879:7886  success */\n      dup4\n        /* \"@openzeppelin/contracts/utils/Address.sol\":7875:8293  if (success) {... */\n      iszero\n      tag_360\n      jumpi\n        /* \"@openzeppelin/contracts/utils/Address.sol\":7927:7928  0 */\n      0x00\n        /* \"@openzeppelin/contracts/utils/Address.sol\":7906:7916  returndata */\n      dup4\n        /* \"@openzeppelin/contracts/utils/Address.sol\":7906:7923  returndata.length */\n      mload\n        /* \"@openzeppelin/contracts/utils/Address.sol\":7906:7928  returndata.length == 0 */\n      sub\n        /* \"@openzeppelin/contracts/utils/Address.sol\":7902:8188  if (returndata.length == 0) {... */\n      tag_361\n      jumpi\n        /* \"@openzeppelin/contracts/utils/Address.sol\":8121:8139  isContract(target) */\n      tag_362\n        /* \"@openzeppelin/contracts/utils/Address.sol\":8132:8138  target */\n      dup6\n        /* \"@openzeppelin/contracts/utils/Address.sol\":8121:8131  isContract */\n      tag_363\n        /* \"@openzeppelin/contracts/utils/Address.sol\":8121:8139  isContract(target) */\n      jump\t// in\n    tag_362:\n        /* \"@openzeppelin/contracts/utils/Address.sol\":8113:8173  require(isContract(target), \"Address: call to non-contract\") */\n      tag_364\n      jumpi\n      mload(0x40)\n      0x08c379a000000000000000000000000000000000000000000000000000000000\n      dup2\n      mstore\n      0x04\n      add\n      tag_365\n      swap1\n      tag_366\n      jump\t// in\n    tag_365:\n      mload(0x40)\n      dup1\n      swap2\n      sub\n      swap1\n      revert\n    tag_364:\n        /* \"@openzeppelin/contracts/utils/Address.sol\":7902:8188  if (returndata.length == 0) {... */\n    tag_361:\n        /* \"@openzeppelin/contracts/utils/Address.sol\":8208:8218  returndata */\n      dup3\n        /* \"@openzeppelin/contracts/utils/Address.sol\":8201:8218  return returndata */\n      swap1\n      pop\n      jump(tag_359)\n        /* \"@openzeppelin/contracts/utils/Address.sol\":7875:8293  if (success) {... */\n    tag_360:\n        /* \"@openzeppelin/contracts/utils/Address.sol\":8249:8282  _revert(returndata, errorMessage) */\n      tag_368\n        /* \"@openzeppelin/contracts/utils/Address.sol\":8257:8267  returndata */\n      dup4\n        /* \"@openzeppelin/contracts/utils/Address.sol\":8269:8281  errorMessage */\n      dup4\n        /* \"@openzeppelin/contracts/utils/Address.sol\":8249:8256  _revert */\n      tag_369\n        /* \"@openzeppelin/contracts/utils/Address.sol\":8249:8282  _revert(returndata, errorMessage) */\n      jump\t// in\n    tag_368:\n        /* \"@openzeppelin/contracts/utils/Address.sol\":7671:8299  function verifyCallResultFromTarget(... */\n    tag_359:\n      swap5\n      swap4\n      pop\n      pop\n      pop\n      pop\n      jump\t// out\n        /* \"@openzeppelin/contracts/utils/Address.sol\":1412:1732  function isContract(address account) internal view returns (bool) {... */\n    tag_363:\n        /* \"@openzeppelin/contracts/utils/Address.sol\":1472:1476  bool */\n      0x00\n        /* \"@openzeppelin/contracts/utils/Address.sol\":1724:1725  0 */\n      dup1\n        /* \"@openzeppelin/contracts/utils/Address.sol\":1702:1709  account */\n      dup3\n        /* \"@openzeppelin/contracts/utils/Address.sol\":1702:1721  account.code.length */\n      0xffffffffffffffffffffffffffffffffffffffff\n      and\n      extcodesize\n        /* \"@openzeppelin/contracts/utils/Address.sol\":1702:1725  account.code.length > 0 */\n      gt\n        /* \"@openzeppelin/contracts/utils/Address.sol\":1695:1725  return account.code.length > 0 */\n      swap1\n      pop\n        /* \"@openzeppelin/contracts/utils/Address.sol\":1412:1732  function isContract(address account) internal view returns (bool) {... */\n      swap2\n      swap1\n      pop\n      jump\t// out\n        /* \"@openzeppelin/contracts/utils/Address.sol\":8821:9361  function _revert(bytes memory returndata, string memory errorMessage) private pure {... */\n    tag_369:\n        /* \"@openzeppelin/contracts/utils/Address.sol\":9000:9001  0 */\n      0x00\n        /* \"@openzeppelin/contracts/utils/Address.sol\":8980:8990  returndata */\n      dup3\n        /* \"@openzeppelin/contracts/utils/Address.sol\":8980:8997  returndata.length */\n      mload\n        /* \"@openzeppelin/contracts/utils/Address.sol\":8980:9001  returndata.length > 0 */\n      gt\n        /* \"@openzeppelin/contracts/utils/Address.sol\":8976:9355  if (returndata.length > 0) {... */\n      iszero\n      tag_372\n      jumpi\n        /* \"@openzeppelin/contracts/utils/Address.sol\":9208:9218  returndata */\n      dup2\n        /* \"@openzeppelin/contracts/utils/Address.sol\":9202:9219  mload(returndata) */\n      mload\n        /* \"@openzeppelin/contracts/utils/Address.sol\":9264:9279  returndata_size */\n      dup1\n        /* \"@openzeppelin/contracts/utils/Address.sol\":9251:9261  returndata */\n      dup4\n        /* \"@openzeppelin/contracts/utils/Address.sol\":9247:9249  32 */\n      0x20\n        /* \"@openzeppelin/contracts/utils/Address.sol\":9243:9262  add(32, returndata) */\n      add\n        /* \"@openzeppelin/contracts/utils/Address.sol\":9236:9280  revert(add(32, returndata), returndata_size) */\n      revert\n        /* \"@openzeppelin/contracts/utils/Address.sol\":8976:9355  if (returndata.length > 0) {... */\n    tag_372:\n        /* \"@openzeppelin/contracts/utils/Address.sol\":9331:9343  errorMessage */\n      dup1\n        /* \"@openzeppelin/contracts/utils/Address.sol\":9324:9344  revert(errorMessage) */\n      mload(0x40)\n      0x08c379a000000000000000000000000000000000000000000000000000000000\n      dup2\n      mstore\n      0x04\n      add\n      tag_374\n      swap2\n      swap1\n      tag_375\n      jump\t// in\n    tag_374:\n      mload(0x40)\n      dup1\n      swap2\n      sub\n      swap1\n      revert\n        /* \"#utility.yul\":88:205   */\n    tag_377:\n        /* \"#utility.yul\":197:198   */\n      0x00\n        /* \"#utility.yul\":194:195   */\n      dup1\n        /* \"#utility.yul\":187:199   */\n      revert\n        /* \"#utility.yul\":334:411   */\n    tag_379:\n        /* \"#utility.yul\":371:378   */\n      0x00\n        /* \"#utility.yul\":400:405   */\n      dup2\n        /* \"#utility.yul\":389:405   */\n      swap1\n      pop\n        /* \"#utility.yul\":334:411   */\n      swap2\n      swap1\n      pop\n      jump\t// out\n        /* \"#utility.yul\":417:539   */\n    tag_380:\n        /* \"#utility.yul\":490:514   */\n      tag_447\n        /* \"#utility.yul\":508:513   */\n      dup2\n        /* \"#utility.yul\":490:514   */\n      tag_379\n      jump\t// in\n    tag_447:\n        /* \"#utility.yul\":483:488   */\n      dup2\n        /* \"#utility.yul\":480:515   */\n      eq\n        /* \"#utility.yul\":470:533   */\n      tag_448\n      jumpi\n        /* \"#utility.yul\":529:530   */\n      0x00\n        /* \"#utility.yul\":526:527   */\n      dup1\n        /* \"#utility.yul\":519:531   */\n      revert\n        /* \"#utility.yul\":470:533   */\n    tag_448:\n        /* \"#utility.yul\":417:539   */\n      pop\n      jump\t// out\n        /* \"#utility.yul\":545:684   */\n    tag_381:\n        /* \"#utility.yul\":591:596   */\n      0x00\n        /* \"#utility.yul\":629:635   */\n      dup2\n        /* \"#utility.yul\":616:636   */\n      calldataload\n        /* \"#utility.yul\":607:636   */\n      swap1\n      pop\n        /* \"#utility.yul\":645:678   */\n      tag_450\n        /* \"#utility.yul\":672:677   */\n      dup2\n        /* \"#utility.yul\":645:678   */\n      tag_380\n      jump\t// in\n    tag_450:\n        /* \"#utility.yul\":545:684   */\n      swap3\n      swap2\n      pop\n      pop\n      jump\t// out\n        /* \"#utility.yul\":690:1019   */\n    tag_41:\n        /* \"#utility.yul\":749:755   */\n      0x00\n        /* \"#utility.yul\":798:800   */\n      0x20\n        /* \"#utility.yul\":786:795   */\n      dup3\n        /* \"#utility.yul\":777:784   */\n      dup5\n        /* \"#utility.yul\":773:796   */\n      sub\n        /* \"#utility.yul\":769:801   */\n      slt\n        /* \"#utility.yul\":766:885   */\n      iszero\n      tag_452\n      jumpi\n        /* \"#utility.yul\":804:883   */\n      tag_453\n      tag_377\n      jump\t// in\n    tag_453:\n        /* \"#utility.yul\":766:885   */\n    tag_452:\n        /* \"#utility.yul\":924:925   */\n      0x00\n        /* \"#utility.yul\":949:1002   */\n      tag_454\n        /* \"#utility.yul\":994:1001   */\n      dup5\n        /* \"#utility.yul\":985:991   */\n      dup3\n        /* \"#utility.yul\":974:983   */\n      dup6\n        /* \"#utility.yul\":970:992   */\n      add\n        /* \"#utility.yul\":949:1002   */\n      tag_381\n      jump\t// in\n    tag_454:\n        /* \"#utility.yul\":939:1002   */\n      swap2\n      pop\n        /* \"#utility.yul\":895:1012   */\n      pop\n        /* \"#utility.yul\":690:1019   */\n      swap3\n      swap2\n      pop\n      pop\n      jump\t// out\n        /* \"#utility.yul\":1025:1151   */\n    tag_382:\n        /* \"#utility.yul\":1062:1069   */\n      0x00\n        /* \"#utility.yul\":1102:1144   */\n      0xffffffffffffffffffffffffffffffffffffffff\n        /* \"#utility.yul\":1095:1100   */\n      dup3\n        /* \"#utility.yul\":1091:1145   */\n      and\n        /* \"#utility.yul\":1080:1145   */\n      swap1\n      pop\n        /* \"#utility.yul\":1025:1151   */\n      swap2\n      swap1\n      pop\n      jump\t// out\n        /* \"#utility.yul\":1157:1253   */\n    tag_383:\n        /* \"#utility.yul\":1194:1201   */\n      0x00\n        /* \"#utility.yul\":1223:1247   */\n      tag_457\n        /* \"#utility.yul\":1241:1246   */\n      dup3\n        /* \"#utility.yul\":1223:1247   */\n      tag_382\n      jump\t// in\n    tag_457:\n        /* \"#utility.yul\":1212:1247   */\n      swap1\n      pop\n        /* \"#utility.yul\":1157:1253   */\n      swap2\n      swap1\n      pop\n      jump\t// out\n        /* \"#utility.yul\":1259:1381   */\n    tag_384:\n        /* \"#utility.yul\":1332:1356   */\n      tag_459\n        /* \"#utility.yul\":1350:1355   */\n      dup2\n        /* \"#utility.yul\":1332:1356   */\n      tag_383\n      jump\t// in\n    tag_459:\n        /* \"#utility.yul\":1325:1330   */\n      dup2\n        /* \"#utility.yul\":1322:1357   */\n      eq\n        /* \"#utility.yul\":1312:1375   */\n      tag_460\n      jumpi\n        /* \"#utility.yul\":1371:1372   */\n      0x00\n        /* \"#utility.yul\":1368:1369   */\n      dup1\n        /* \"#utility.yul\":1361:1373   */\n      revert\n        /* \"#utility.yul\":1312:1375   */\n    tag_460:\n        /* \"#utility.yul\":1259:1381   */\n      pop\n      jump\t// out\n        /* \"#utility.yul\":1387:1526   */\n    tag_385:\n        /* \"#utility.yul\":1433:1438   */\n      0x00\n        /* \"#utility.yul\":1471:1477   */\n      dup2\n        /* \"#utility.yul\":1458:1478   */\n      calldataload\n        /* \"#utility.yul\":1449:1478   */\n      swap1\n      pop\n        /* \"#utility.yul\":1487:1520   */\n      tag_462\n        /* \"#utility.yul\":1514:1519   */\n      dup2\n        /* \"#utility.yul\":1487:1520   */\n      tag_384\n      jump\t// in\n    tag_462:\n        /* \"#utility.yul\":1387:1526   */\n      swap3\n      swap2\n      pop\n      pop\n      jump\t// out\n        /* \"#utility.yul\":1532:2006   */\n    tag_46:\n        /* \"#utility.yul\":1600:1606   */\n      0x00\n        /* \"#utility.yul\":1608:1614   */\n      dup1\n        /* \"#utility.yul\":1657:1659   */\n      0x40\n        /* \"#utility.yul\":1645:1654   */\n      dup4\n        /* \"#utility.yul\":1636:1643   */\n      dup6\n        /* \"#utility.yul\":1632:1655   */\n      sub\n        /* \"#utility.yul\":1628:1660   */\n      slt\n        /* \"#utility.yul\":1625:1744   */\n      iszero\n      tag_464\n      jumpi\n        /* \"#utility.yul\":1663:1742   */\n      tag_465\n      tag_377\n      jump\t// in\n    tag_465:\n        /* \"#utility.yul\":1625:1744   */\n    tag_464:\n        /* \"#utility.yul\":1783:1784   */\n      0x00\n        /* \"#utility.yul\":1808:1861   */\n      tag_466\n        /* \"#utility.yul\":1853:1860   */\n      dup6\n        /* \"#utility.yul\":1844:1850   */\n      dup3\n        /* \"#utility.yul\":1833:1842   */\n      dup7\n        /* \"#utility.yul\":1829:1851   */\n      add\n        /* \"#utility.yul\":1808:1861   */\n      tag_385\n      jump\t// in\n    tag_466:\n        /* \"#utility.yul\":1798:1861   */\n      swap3\n      pop\n        /* \"#utility.yul\":1754:1871   */\n      pop\n        /* \"#utility.yul\":1910:1912   */\n      0x20\n        /* \"#utility.yul\":1936:1989   */\n      tag_467\n        /* \"#utility.yul\":1981:1988   */\n      dup6\n        /* \"#utility.yul\":1972:1978   */\n      dup3\n        /* \"#utility.yul\":1961:1970   */\n      dup7\n        /* \"#utility.yul\":1957:1979   */\n      add\n        /* \"#utility.yul\":1936:1989   */\n      tag_381\n      jump\t// in\n    tag_467:\n        /* \"#utility.yul\":1926:1989   */\n      swap2\n      pop\n        /* \"#utility.yul\":1881:1999   */\n      pop\n        /* \"#utility.yul\":1532:2006   */\n      swap3\n      pop\n      swap3\n      swap1\n      pop\n      jump\t// out\n        /* \"#utility.yul\":2012:2130   */\n    tag_386:\n        /* \"#utility.yul\":2099:2123   */\n      tag_469\n        /* \"#utility.yul\":2117:2122   */\n      dup2\n        /* \"#utility.yul\":2099:2123   */\n      tag_379\n      jump\t// in\n    tag_469:\n        /* \"#utility.yul\":2094:2097   */\n      dup3\n        /* \"#utility.yul\":2087:2124   */\n      mstore\n        /* \"#utility.yul\":2012:2130   */\n      pop\n      pop\n      jump\t// out\n        /* \"#utility.yul\":2136:2358   */\n    tag_49:\n        /* \"#utility.yul\":2229:2233   */\n      0x00\n        /* \"#utility.yul\":2267:2269   */\n      0x20\n        /* \"#utility.yul\":2256:2265   */\n      dup3\n        /* \"#utility.yul\":2252:2270   */\n      add\n        /* \"#utility.yul\":2244:2270   */\n      swap1\n      pop\n        /* \"#utility.yul\":2280:2351   */\n      tag_471\n        /* \"#utility.yul\":2348:2349   */\n      0x00\n        /* \"#utility.yul\":2337:2346   */\n      dup4\n        /* \"#utility.yul\":2333:2350   */\n      add\n        /* \"#utility.yul\":2324:2330   */\n      dup5\n        /* \"#utility.yul\":2280:2351   */\n      tag_386\n      jump\t// in\n    tag_471:\n        /* \"#utility.yul\":2136:2358   */\n      swap3\n      swap2\n      pop\n      pop\n      jump\t// out\n        /* \"#utility.yul\":2364:2693   */\n    tag_53:\n        /* \"#utility.yul\":2423:2429   */\n      0x00\n        /* \"#utility.yul\":2472:2474   */\n      0x20\n        /* \"#utility.yul\":2460:2469   */\n      dup3\n        /* \"#utility.yul\":2451:2458   */\n      dup5\n        /* \"#utility.yul\":2447:2470   */\n      sub\n        /* \"#utility.yul\":2443:2475   */\n      slt\n        /* \"#utility.yul\":2440:2559   */\n      iszero\n      tag_473\n      jumpi\n        /* \"#utility.yul\":2478:2557   */\n      tag_474\n      tag_377\n      jump\t// in\n    tag_474:\n        /* \"#utility.yul\":2440:2559   */\n    tag_473:\n        /* \"#utility.yul\":2598:2599   */\n      0x00\n        /* \"#utility.yul\":2623:2676   */\n      tag_475\n        /* \"#utility.yul\":2668:2675   */\n      dup5\n        /* \"#utility.yul\":2659:2665   */\n      dup3\n        /* \"#utility.yul\":2648:2657   */\n      dup6\n        /* \"#utility.yul\":2644:2666   */\n      add\n        /* \"#utility.yul\":2623:2676   */\n      tag_385\n      jump\t// in\n    tag_475:\n        /* \"#utility.yul\":2613:2676   */\n      swap2\n      pop\n        /* \"#utility.yul\":2569:2686   */\n      pop\n        /* \"#utility.yul\":2364:2693   */\n      swap3\n      swap2\n      pop\n      pop\n      jump\t// out\n        /* \"#utility.yul\":2699:2789   */\n    tag_387:\n        /* \"#utility.yul\":2733:2740   */\n      0x00\n        /* \"#utility.yul\":2776:2781   */\n      dup2\n        /* \"#utility.yul\":2769:2782   */\n      iszero\n        /* \"#utility.yul\":2762:2783   */\n      iszero\n        /* \"#utility.yul\":2751:2783   */\n      swap1\n      pop\n        /* \"#utility.yul\":2699:2789   */\n      swap2\n      swap1\n      pop\n      jump\t// out\n        /* \"#utility.yul\":2795:2904   */\n    tag_388:\n        /* \"#utility.yul\":2876:2897   */\n      tag_478\n        /* \"#utility.yul\":2891:2896   */\n      dup2\n        /* \"#utility.yul\":2876:2897   */\n      tag_387\n      jump\t// in\n    tag_478:\n        /* \"#utility.yul\":2871:2874   */\n      dup3\n        /* \"#utility.yul\":2864:2898   */\n      mstore\n        /* \"#utility.yul\":2795:2904   */\n      pop\n      pop\n      jump\t// out\n        /* \"#utility.yul\":2910:3120   */\n    tag_115:\n        /* \"#utility.yul\":2997:3001   */\n      0x00\n        /* \"#utility.yul\":3035:3037   */\n      0x20\n        /* \"#utility.yul\":3024:3033   */\n      dup3\n        /* \"#utility.yul\":3020:3038   */\n      add\n        /* \"#utility.yul\":3012:3038   */\n      swap1\n      pop\n        /* \"#utility.yul\":3048:3113   */\n      tag_480\n        /* \"#utility.yul\":3110:3111   */\n      0x00\n        /* \"#utility.yul\":3099:3108   */\n      dup4\n        /* \"#utility.yul\":3095:3112   */\n      add\n        /* \"#utility.yul\":3086:3092   */\n      dup5\n        /* \"#utility.yul\":3048:3113   */\n      tag_388\n      jump\t// in\n    tag_480:\n        /* \"#utility.yul\":2910:3120   */\n      swap3\n      swap2\n      pop\n      pop\n      jump\t// out\n        /* \"#utility.yul\":3126:3244   */\n    tag_389:\n        /* \"#utility.yul\":3213:3237   */\n      tag_482\n        /* \"#utility.yul\":3231:3236   */\n      dup2\n        /* \"#utility.yul\":3213:3237   */\n      tag_383\n      jump\t// in\n    tag_482:\n        /* \"#utility.yul\":3208:3211   */\n      dup3\n        /* \"#utility.yul\":3201:3238   */\n      mstore\n        /* \"#utility.yul\":3126:3244   */\n      pop\n      pop\n      jump\t// out\n        /* \"#utility.yul\":3250:3472   */\n    tag_120:\n        /* \"#utility.yul\":3343:3347   */\n      0x00\n        /* \"#utility.yul\":3381:3383   */\n      0x20\n        /* \"#utility.yul\":3370:3379   */\n      dup3\n        /* \"#utility.yul\":3366:3384   */\n      add\n        /* \"#utility.yul\":3358:3384   */\n      swap1\n      pop\n        /* \"#utility.yul\":3394:3465   */\n      tag_484\n        /* \"#utility.yul\":3462:3463   */\n      0x00\n        /* \"#utility.yul\":3451:3460   */\n      dup4\n        /* \"#utility.yul\":3447:3464   */\n      add\n        /* \"#utility.yul\":3438:3444   */\n      dup5\n        /* \"#utility.yul\":3394:3465   */\n      tag_389\n      jump\t// in\n    tag_484:\n        /* \"#utility.yul\":3250:3472   */\n      swap3\n      swap2\n      pop\n      pop\n      jump\t// out\n        /* \"#utility.yul\":3478:3658   */\n    tag_390:\n        /* \"#utility.yul\":3526:3603   */\n      0x4e487b7100000000000000000000000000000000000000000000000000000000\n        /* \"#utility.yul\":3523:3524   */\n      0x00\n        /* \"#utility.yul\":3516:3604   */\n      mstore\n        /* \"#utility.yul\":3623:3627   */\n      0x11\n        /* \"#utility.yul\":3620:3621   */\n      0x04\n        /* \"#utility.yul\":3613:3628   */\n      mstore\n        /* \"#utility.yul\":3647:3651   */\n      0x24\n        /* \"#utility.yul\":3644:3645   */\n      0x00\n        /* \"#utility.yul\":3637:3652   */\n      revert\n        /* \"#utility.yul\":3664:3855   */\n    tag_165:\n        /* \"#utility.yul\":3704:3707   */\n      0x00\n        /* \"#utility.yul\":3723:3743   */\n      tag_487\n        /* \"#utility.yul\":3741:3742   */\n      dup3\n        /* \"#utility.yul\":3723:3743   */\n      tag_379\n      jump\t// in\n    tag_487:\n        /* \"#utility.yul\":3718:3743   */\n      swap2\n      pop\n        /* \"#utility.yul\":3757:3777   */\n      tag_488\n        /* \"#utility.yul\":3775:3776   */\n      dup4\n        /* \"#utility.yul\":3757:3777   */\n      tag_379\n      jump\t// in\n    tag_488:\n        /* \"#utility.yul\":3752:3777   */\n      swap3\n      pop\n        /* \"#utility.yul\":3800:3801   */\n      dup3\n        /* \"#utility.yul\":3797:3798   */\n      dup3\n        /* \"#utility.yul\":3793:3802   */\n      add\n        /* \"#utility.yul\":3786:3802   */\n      swap1\n      pop\n        /* \"#utility.yul\":3821:3824   */\n      dup1\n        /* \"#utility.yul\":3818:3819   */\n      dup3\n        /* \"#utility.yul\":3815:3825   */\n      gt\n        /* \"#utility.yul\":3812:3848   */\n      iszero\n      tag_489\n      jumpi\n        /* \"#utility.yul\":3828:3846   */\n      tag_490\n      tag_390\n      jump\t// in\n    tag_490:\n        /* \"#utility.yul\":3812:3848   */\n    tag_489:\n        /* \"#utility.yul\":3664:3855   */\n      swap3\n      swap2\n      pop\n      pop\n      jump\t// out\n        /* \"#utility.yul\":3861:4030   */\n    tag_391:\n        /* \"#utility.yul\":3945:3956   */\n      0x00\n        /* \"#utility.yul\":3979:3985   */\n      dup3\n        /* \"#utility.yul\":3974:3977   */\n      dup3\n        /* \"#utility.yul\":3967:3986   */\n      mstore\n        /* \"#utility.yul\":4019:4023   */\n      0x20\n        /* \"#utility.yul\":4014:4017   */\n      dup3\n        /* \"#utility.yul\":4010:4024   */\n      add\n        /* \"#utility.yul\":3995:4024   */\n      swap1\n      pop\n        /* \"#utility.yul\":3861:4030   */\n      swap3\n      swap2\n      pop\n      pop\n      jump\t// out\n        /* \"#utility.yul\":4036:4216   */\n    tag_392:\n        /* \"#utility.yul\":4176:4208   */\n      0x50726573616c653a20546f6b656e206e6f742077686974656c69737465640000\n        /* \"#utility.yul\":4172:4173   */\n      0x00\n        /* \"#utility.yul\":4164:4170   */\n      dup3\n        /* \"#utility.yul\":4160:4174   */\n      add\n        /* \"#utility.yul\":4153:4209   */\n      mstore\n        /* \"#utility.yul\":4036:4216   */\n      pop\n      jump\t// out\n        /* \"#utility.yul\":4222:4588   */\n    tag_393:\n        /* \"#utility.yul\":4364:4367   */\n      0x00\n        /* \"#utility.yul\":4385:4452   */\n      tag_494\n        /* \"#utility.yul\":4449:4451   */\n      0x1e\n        /* \"#utility.yul\":4444:4447   */\n      dup4\n        /* \"#utility.yul\":4385:4452   */\n      tag_391\n      jump\t// in\n    tag_494:\n        /* \"#utility.yul\":4378:4452   */\n      swap2\n      pop\n        /* \"#utility.yul\":4461:4554   */\n      tag_495\n        /* \"#utility.yul\":4550:4553   */\n      dup3\n        /* \"#utility.yul\":4461:4554   */\n      tag_392\n      jump\t// in\n    tag_495:\n        /* \"#utility.yul\":4579:4581   */\n      0x20\n        /* \"#utility.yul\":4574:4577   */\n      dup3\n        /* \"#utility.yul\":4570:4582   */\n      add\n        /* \"#utility.yul\":4563:4582   */\n      swap1\n      pop\n        /* \"#utility.yul\":4222:4588   */\n      swap2\n      swap1\n      pop\n      jump\t// out\n        /* \"#utility.yul\":4594:5013   */\n    tag_170:\n        /* \"#utility.yul\":4760:4764   */\n      0x00\n        /* \"#utility.yul\":4798:4800   */\n      0x20\n        /* \"#utility.yul\":4787:4796   */\n      dup3\n        /* \"#utility.yul\":4783:4801   */\n      add\n        /* \"#utility.yul\":4775:4801   */\n      swap1\n      pop\n        /* \"#utility.yul\":4847:4856   */\n      dup2\n        /* \"#utility.yul\":4841:4845   */\n      dup2\n        /* \"#utility.yul\":4837:4857   */\n      sub\n        /* \"#utility.yul\":4833:4834   */\n      0x00\n        /* \"#utility.yul\":4822:4831   */\n      dup4\n        /* \"#utility.yul\":4818:4835   */\n      add\n        /* \"#utility.yul\":4811:4858   */\n      mstore\n        /* \"#utility.yul\":4875:5006   */\n      tag_497\n        /* \"#utility.yul\":5001:5005   */\n      dup2\n        /* \"#utility.yul\":4875:5006   */\n      tag_393\n      jump\t// in\n    tag_497:\n        /* \"#utility.yul\":4867:5006   */\n      swap1\n      pop\n        /* \"#utility.yul\":4594:5013   */\n      swap2\n      swap1\n      pop\n      jump\t// out\n        /* \"#utility.yul\":5019:5121   */\n    tag_394:\n        /* \"#utility.yul\":5061:5069   */\n      0x00\n        /* \"#utility.yul\":5108:5113   */\n      dup2\n        /* \"#utility.yul\":5105:5106   */\n      0x01\n        /* \"#utility.yul\":5101:5114   */\n      shr\n        /* \"#utility.yul\":5080:5114   */\n      swap1\n      pop\n        /* \"#utility.yul\":5019:5121   */\n      swap2\n      swap1\n      pop\n      jump\t// out\n        /* \"#utility.yul\":5127:5975   */\n    tag_395:\n        /* \"#utility.yul\":5188:5193   */\n      0x00\n        /* \"#utility.yul\":5195:5199   */\n      dup1\n        /* \"#utility.yul\":5219:5225   */\n      dup3\n        /* \"#utility.yul\":5210:5225   */\n      swap2\n      pop\n        /* \"#utility.yul\":5243:5248   */\n      dup4\n        /* \"#utility.yul\":5234:5248   */\n      swap1\n      pop\n        /* \"#utility.yul\":5257:5969   */\n    tag_500:\n        /* \"#utility.yul\":5278:5279   */\n      0x01\n        /* \"#utility.yul\":5268:5276   */\n      dup6\n        /* \"#utility.yul\":5265:5280   */\n      gt\n        /* \"#utility.yul\":5257:5969   */\n      iszero\n      tag_502\n      jumpi\n        /* \"#utility.yul\":5373:5377   */\n      dup1\n        /* \"#utility.yul\":5368:5371   */\n      dup7\n        /* \"#utility.yul\":5364:5378   */\n      div\n        /* \"#utility.yul\":5358:5362   */\n      dup2\n        /* \"#utility.yul\":5355:5379   */\n      gt\n        /* \"#utility.yul\":5352:5402   */\n      iszero\n      tag_503\n      jumpi\n        /* \"#utility.yul\":5382:5400   */\n      tag_504\n      tag_390\n      jump\t// in\n    tag_504:\n        /* \"#utility.yul\":5352:5402   */\n    tag_503:\n        /* \"#utility.yul\":5432:5433   */\n      0x01\n        /* \"#utility.yul\":5422:5430   */\n      dup6\n        /* \"#utility.yul\":5418:5434   */\n      and\n        /* \"#utility.yul\":5415:5866   */\n      iszero\n      tag_505\n      jumpi\n        /* \"#utility.yul\":5847:5851   */\n      dup1\n        /* \"#utility.yul\":5840:5845   */\n      dup3\n        /* \"#utility.yul\":5836:5852   */\n      mul\n        /* \"#utility.yul\":5827:5852   */\n      swap2\n      pop\n        /* \"#utility.yul\":5415:5866   */\n    tag_505:\n        /* \"#utility.yul\":5897:5901   */\n      dup1\n        /* \"#utility.yul\":5891:5895   */\n      dup2\n        /* \"#utility.yul\":5887:5902   */\n      mul\n        /* \"#utility.yul\":5879:5902   */\n      swap1\n      pop\n        /* \"#utility.yul\":5927:5959   */\n      tag_506\n        /* \"#utility.yul\":5950:5958   */\n      dup6\n        /* \"#utility.yul\":5927:5959   */\n      tag_394\n      jump\t// in\n    tag_506:\n        /* \"#utility.yul\":5915:5959   */\n      swap5\n      pop\n        /* \"#utility.yul\":5257:5969   */\n      jump(tag_500)\n    tag_502:\n        /* \"#utility.yul\":5127:5975   */\n      swap5\n      pop\n      swap5\n      swap3\n      pop\n      pop\n      pop\n      jump\t// out\n        /* \"#utility.yul\":5981:7054   */\n    tag_396:\n        /* \"#utility.yul\":6035:6040   */\n      0x00\n        /* \"#utility.yul\":6226:6234   */\n      dup3\n        /* \"#utility.yul\":6216:6256   */\n      tag_508\n      jumpi\n        /* \"#utility.yul\":6247:6248   */\n      0x01\n        /* \"#utility.yul\":6238:6248   */\n      swap1\n      pop\n        /* \"#utility.yul\":6249:6254   */\n      jump(tag_507)\n        /* \"#utility.yul\":6216:6256   */\n    tag_508:\n        /* \"#utility.yul\":6275:6279   */\n      dup2\n        /* \"#utility.yul\":6265:6301   */\n      tag_509\n      jumpi\n        /* \"#utility.yul\":6292:6293   */\n      0x00\n        /* \"#utility.yul\":6283:6293   */\n      swap1\n      pop\n        /* \"#utility.yul\":6294:6299   */\n      jump(tag_507)\n        /* \"#utility.yul\":6265:6301   */\n    tag_509:\n        /* \"#utility.yul\":6361:6365   */\n      dup2\n        /* \"#utility.yul\":6409:6410   */\n      0x01\n        /* \"#utility.yul\":6404:6431   */\n      dup2\n      eq\n      tag_511\n      jumpi\n        /* \"#utility.yul\":6445:6446   */\n      0x02\n        /* \"#utility.yul\":6440:6631   */\n      dup2\n      eq\n      tag_512\n      jumpi\n        /* \"#utility.yul\":6354:6631   */\n      jump(tag_510)\n        /* \"#utility.yul\":6404:6431   */\n    tag_511:\n        /* \"#utility.yul\":6422:6423   */\n      0x01\n        /* \"#utility.yul\":6413:6423   */\n      swap2\n      pop\n        /* \"#utility.yul\":6424:6429   */\n      pop\n      jump(tag_507)\n        /* \"#utility.yul\":6440:6631   */\n    tag_512:\n        /* \"#utility.yul\":6485:6488   */\n      0xff\n        /* \"#utility.yul\":6475:6483   */\n      dup5\n        /* \"#utility.yul\":6472:6489   */\n      gt\n        /* \"#utility.yul\":6469:6512   */\n      iszero\n      tag_513\n      jumpi\n        /* \"#utility.yul\":6492:6510   */\n      tag_514\n      tag_390\n      jump\t// in\n    tag_514:\n        /* \"#utility.yul\":6469:6512   */\n    tag_513:\n        /* \"#utility.yul\":6541:6549   */\n      dup4\n        /* \"#utility.yul\":6538:6539   */\n      0x02\n        /* \"#utility.yul\":6534:6550   */\n      exp\n        /* \"#utility.yul\":6525:6550   */\n      swap2\n      pop\n        /* \"#utility.yul\":6576:6579   */\n      dup5\n        /* \"#utility.yul\":6569:6574   */\n      dup3\n        /* \"#utility.yul\":6566:6580   */\n      gt\n        /* \"#utility.yul\":6563:6603   */\n      iszero\n      tag_515\n      jumpi\n        /* \"#utility.yul\":6583:6601   */\n      tag_516\n      tag_390\n      jump\t// in\n    tag_516:\n        /* \"#utility.yul\":6563:6603   */\n    tag_515:\n        /* \"#utility.yul\":6616:6621   */\n      pop\n      jump(tag_507)\n        /* \"#utility.yul\":6354:6631   */\n    tag_510:\n      pop\n        /* \"#utility.yul\":6740:6742   */\n      0x20\n        /* \"#utility.yul\":6730:6738   */\n      dup4\n        /* \"#utility.yul\":6727:6743   */\n      lt\n        /* \"#utility.yul\":6721:6724   */\n      0x0133\n        /* \"#utility.yul\":6715:6719   */\n      dup4\n        /* \"#utility.yul\":6712:6725   */\n      lt\n        /* \"#utility.yul\":6708:6744   */\n      and\n        /* \"#utility.yul\":6690:6692   */\n      0x4e\n        /* \"#utility.yul\":6680:6688   */\n      dup5\n        /* \"#utility.yul\":6677:6693   */\n      lt\n        /* \"#utility.yul\":6672:6674   */\n      0x0b\n        /* \"#utility.yul\":6666:6670   */\n      dup5\n        /* \"#utility.yul\":6663:6675   */\n      lt\n        /* \"#utility.yul\":6659:6694   */\n      and\n        /* \"#utility.yul\":6643:6754   */\n      or\n        /* \"#utility.yul\":6640:6886   */\n      iszero\n      tag_517\n      jumpi\n        /* \"#utility.yul\":6796:6804   */\n      dup3\n        /* \"#utility.yul\":6790:6794   */\n      dup3\n        /* \"#utility.yul\":6786:6805   */\n      exp\n        /* \"#utility.yul\":6777:6805   */\n      swap1\n      pop\n        /* \"#utility.yul\":6831:6834   */\n      dup4\n        /* \"#utility.yul\":6824:6829   */\n      dup2\n        /* \"#utility.yul\":6821:6835   */\n      gt\n        /* \"#utility.yul\":6818:6858   */\n      iszero\n      tag_518\n      jumpi\n        /* \"#utility.yul\":6838:6856   */\n      tag_519\n      tag_390\n      jump\t// in\n    tag_519:\n        /* \"#utility.yul\":6818:6858   */\n    tag_518:\n        /* \"#utility.yul\":6871:6876   */\n      jump(tag_507)\n        /* \"#utility.yul\":6640:6886   */\n    tag_517:\n        /* \"#utility.yul\":6911:6953   */\n      tag_520\n        /* \"#utility.yul\":6949:6952   */\n      dup5\n        /* \"#utility.yul\":6939:6947   */\n      dup5\n        /* \"#utility.yul\":6933:6937   */\n      dup5\n        /* \"#utility.yul\":6930:6931   */\n      0x01\n        /* \"#utility.yul\":6911:6953   */\n      tag_395\n      jump\t// in\n    tag_520:\n        /* \"#utility.yul\":6896:6953   */\n      swap3\n      pop\n      swap1\n      pop\n        /* \"#utility.yul\":6985:6989   */\n      dup2\n        /* \"#utility.yul\":6980:6983   */\n      dup5\n        /* \"#utility.yul\":6976:6990   */\n      div\n        /* \"#utility.yul\":6969:6974   */\n      dup2\n        /* \"#utility.yul\":6966:6991   */\n      gt\n        /* \"#utility.yul\":6963:7014   */\n      iszero\n      tag_521\n      jumpi\n        /* \"#utility.yul\":6994:7012   */\n      tag_522\n      tag_390\n      jump\t// in\n    tag_522:\n        /* \"#utility.yul\":6963:7014   */\n    tag_521:\n        /* \"#utility.yul\":7043:7047   */\n      dup2\n        /* \"#utility.yul\":7036:7041   */\n      dup2\n        /* \"#utility.yul\":7032:7048   */\n      mul\n        /* \"#utility.yul\":7023:7048   */\n      swap1\n      pop\n        /* \"#utility.yul\":5981:7054   */\n    tag_507:\n      swap4\n      swap3\n      pop\n      pop\n      pop\n      jump\t// out\n        /* \"#utility.yul\":7060:7345   */\n    tag_174:\n        /* \"#utility.yul\":7120:7125   */\n      0x00\n        /* \"#utility.yul\":7144:7167   */\n      tag_524\n        /* \"#utility.yul\":7162:7166   */\n      dup3\n        /* \"#utility.yul\":7144:7167   */\n      tag_379\n      jump\t// in\n    tag_524:\n        /* \"#utility.yul\":7136:7167   */\n      swap2\n      pop\n        /* \"#utility.yul\":7188:7215   */\n      tag_525\n        /* \"#utility.yul\":7206:7214   */\n      dup4\n        /* \"#utility.yul\":7188:7215   */\n      tag_379\n      jump\t// in\n    tag_525:\n        /* \"#utility.yul\":7176:7215   */\n      swap3\n      pop\n        /* \"#utility.yul\":7234:7338   */\n      tag_526\n        /* \"#utility.yul\":7271:7337   */\n      0xffffffffffffffffffffffffffffffffffffffffffffffffffffffffffffffff\n        /* \"#utility.yul\":7261:7269   */\n      dup5\n        /* \"#utility.yul\":7255:7259   */\n      dup5\n        /* \"#utility.yul\":7234:7338   */\n      tag_396\n      jump\t// in\n    tag_526:\n        /* \"#utility.yul\":7225:7338   */\n      swap1\n      pop\n        /* \"#utility.yul\":7060:7345   */\n      swap3\n      swap2\n      pop\n      pop\n      jump\t// out\n        /* \"#utility.yul\":7351:7761   */\n    tag_176:\n        /* \"#utility.yul\":7391:7398   */\n      0x00\n        /* \"#utility.yul\":7414:7434   */\n      tag_528\n        /* \"#utility.yul\":7432:7433   */\n      dup3\n        /* \"#utility.yul\":7414:7434   */\n      tag_379\n      jump\t// in\n    tag_528:\n        /* \"#utility.yul\":7409:7434   */\n      swap2\n      pop\n        /* \"#utility.yul\":7448:7468   */\n      tag_529\n        /* \"#utility.yul\":7466:7467   */\n      dup4\n        /* \"#utility.yul\":7448:7468   */\n      tag_379\n      jump\t// in\n    tag_529:\n        /* \"#utility.yul\":7443:7468   */\n      swap3\n      pop\n        /* \"#utility.yul\":7503:7504   */\n      dup3\n        /* \"#utility.yul\":7500:7501   */\n      dup3\n        /* \"#utility.yul\":7496:7505   */\n      mul\n        /* \"#utility.yul\":7525:7555   */\n      tag_530\n        /* \"#utility.yul\":7543:7554   */\n      dup2\n        /* \"#utility.yul\":7525:7555   */\n      tag_379\n      jump\t// in\n    tag_530:\n        /* \"#utility.yul\":7514:7555   */\n      swap2\n      pop\n        /* \"#utility.yul\":7704:7705   */\n      dup3\n        /* \"#utility.yul\":7695:7702   */\n      dup3\n        /* \"#utility.yul\":7691:7706   */\n      div\n        /* \"#utility.yul\":7688:7689   */\n      dup5\n        /* \"#utility.yul\":7685:7707   */\n      eq\n        /* \"#utility.yul\":7665:7666   */\n      dup4\n        /* \"#utility.yul\":7658:7667   */\n      iszero\n        /* \"#utility.yul\":7638:7721   */\n      or\n        /* \"#utility.yul\":7615:7754   */\n      tag_531\n      jumpi\n        /* \"#utility.yul\":7734:7752   */\n      tag_532\n      tag_390\n      jump\t// in\n    tag_532:\n        /* \"#utility.yul\":7615:7754   */\n    tag_531:\n        /* \"#utility.yul\":7399:7761   */\n      pop\n        /* \"#utility.yul\":7351:7761   */\n      swap3\n      swap2\n      pop\n      pop\n      jump\t// out\n        /* \"#utility.yul\":7767:7947   */\n    tag_397:\n        /* \"#utility.yul\":7815:7892   */\n      0x4e487b7100000000000000000000000000000000000000000000000000000000\n        /* \"#utility.yul\":7812:7813   */\n      0x00\n        /* \"#utility.yul\":7805:7893   */\n      mstore\n        /* \"#utility.yul\":7912:7916   */\n      0x12\n        /* \"#utility.yul\":7909:7910   */\n      0x04\n        /* \"#utility.yul\":7902:7917   */\n      mstore\n        /* \"#utility.yul\":7936:7940   */\n      0x24\n        /* \"#utility.yul\":7933:7934   */\n      0x00\n        /* \"#utility.yul\":7926:7941   */\n      revert\n        /* \"#utility.yul\":7953:8138   */\n    tag_178:\n        /* \"#utility.yul\":7993:7994   */\n      0x00\n        /* \"#utility.yul\":8010:8030   */\n      tag_535\n        /* \"#utility.yul\":8028:8029   */\n      dup3\n        /* \"#utility.yul\":8010:8030   */\n      tag_379\n      jump\t// in\n    tag_535:\n        /* \"#utility.yul\":8005:8030   */\n      swap2\n      pop\n        /* \"#utility.yul\":8044:8064   */\n      tag_536\n        /* \"#utility.yul\":8062:8063   */\n      dup4\n        /* \"#utility.yul\":8044:8064   */\n      tag_379\n      jump\t// in\n    tag_536:\n        /* \"#utility.yul\":8039:8064   */\n      swap3\n      pop\n        /* \"#utility.yul\":8083:8084   */\n      dup3\n        /* \"#utility.yul\":8073:8108   */\n      tag_537\n      jumpi\n        /* \"#utility.yul\":8088:8106   */\n      tag_538\n      tag_397\n      jump\t// in\n    tag_538:\n        /* \"#utility.yul\":8073:8108   */\n    tag_537:\n        /* \"#utility.yul\":8130:8131   */\n      dup3\n        /* \"#utility.yul\":8127:8128   */\n      dup3\n        /* \"#utility.yul\":8123:8132   */\n      div\n        /* \"#utility.yul\":8118:8132   */\n      swap1\n      pop\n        /* \"#utility.yul\":7953:8138   */\n      swap3\n      swap2\n      pop\n      pop\n      jump\t// out\n        /* \"#utility.yul\":8144:8476   */\n    tag_191:\n        /* \"#utility.yul\":8265:8269   */\n      0x00\n        /* \"#utility.yul\":8303:8305   */\n      0x40\n        /* \"#utility.yul\":8292:8301   */\n      dup3\n        /* \"#utility.yul\":8288:8306   */\n      add\n        /* \"#utility.yul\":8280:8306   */\n      swap1\n      pop\n        /* \"#utility.yul\":8316:8387   */\n      tag_540\n        /* \"#utility.yul\":8384:8385   */\n      0x00\n        /* \"#utility.yul\":8373:8382   */\n      dup4\n        /* \"#utility.yul\":8369:8386   */\n      add\n        /* \"#utility.yul\":8360:8366   */\n      dup6\n        /* \"#utility.yul\":8316:8387   */\n      tag_389\n      jump\t// in\n    tag_540:\n        /* \"#utility.yul\":8397:8469   */\n      tag_541\n        /* \"#utility.yul\":8465:8467   */\n      0x20\n        /* \"#utility.yul\":8454:8463   */\n      dup4\n        /* \"#utility.yul\":8450:8468   */\n      add\n        /* \"#utility.yul\":8441:8447   */\n      dup5\n        /* \"#utility.yul\":8397:8469   */\n      tag_386\n      jump\t// in\n    tag_541:\n        /* \"#utility.yul\":8144:8476   */\n      swap4\n      swap3\n      pop\n      pop\n      pop\n      jump\t// out\n        /* \"#utility.yul\":8482:8705   */\n    tag_398:\n        /* \"#utility.yul\":8622:8656   */\n      0x50726573616c653a2050726573616c6520686173206e6f742073746172746564\n        /* \"#utility.yul\":8618:8619   */\n      0x00\n        /* \"#utility.yul\":8610:8616   */\n      dup3\n        /* \"#utility.yul\":8606:8620   */\n      add\n        /* \"#utility.yul\":8599:8657   */\n      mstore\n        /* \"#utility.yul\":8691:8697   */\n      0x2079657400000000000000000000000000000000000000000000000000000000\n        /* \"#utility.yul\":8686:8688   */\n      0x20\n        /* \"#utility.yul\":8678:8684   */\n      dup3\n        /* \"#utility.yul\":8674:8689   */\n      add\n        /* \"#utility.yul\":8667:8698   */\n      mstore\n        /* \"#utility.yul\":8482:8705   */\n      pop\n      jump\t// out\n        /* \"#utility.yul\":8711:9077   */\n    tag_399:\n        /* \"#utility.yul\":8853:8856   */\n      0x00\n        /* \"#utility.yul\":8874:8941   */\n      tag_544\n        /* \"#utility.yul\":8938:8940   */\n      0x24\n        /* \"#utility.yul\":8933:8936   */\n      dup4\n        /* \"#utility.yul\":8874:8941   */\n      tag_391\n      jump\t// in\n    tag_544:\n        /* \"#utility.yul\":8867:8941   */\n      swap2\n      pop\n        /* \"#utility.yul\":8950:9043   */\n      tag_545\n        /* \"#utility.yul\":9039:9042   */\n      dup3\n        /* \"#utility.yul\":8950:9043   */\n      tag_398\n      jump\t// in\n    tag_545:\n        /* \"#utility.yul\":9068:9070   */\n      0x40\n        /* \"#utility.yul\":9063:9066   */\n      dup3\n        /* \"#utility.yul\":9059:9071   */\n      add\n        /* \"#utility.yul\":9052:9071   */\n      swap1\n      pop\n        /* \"#utility.yul\":8711:9077   */\n      swap2\n      swap1\n      pop\n      jump\t// out\n        /* \"#utility.yul\":9083:9502   */\n    tag_211:\n        /* \"#utility.yul\":9249:9253   */\n      0x00\n        /* \"#utility.yul\":9287:9289   */\n      0x20\n        /* \"#utility.yul\":9276:9285   */\n      dup3\n        /* \"#utility.yul\":9272:9290   */\n      add\n        /* \"#utility.yul\":9264:9290   */\n      swap1\n      pop\n        /* \"#utility.yul\":9336:9345   */\n      dup2\n        /* \"#utility.yul\":9330:9334   */\n      dup2\n        /* \"#utility.yul\":9326:9346   */\n      sub\n        /* \"#utility.yul\":9322:9323   */\n      0x00\n        /* \"#utility.yul\":9311:9320   */\n      dup4\n        /* \"#utility.yul\":9307:9324   */\n      add\n        /* \"#utility.yul\":9300:9347   */\n      mstore\n        /* \"#utility.yul\":9364:9495   */\n      tag_547\n        /* \"#utility.yul\":9490:9494   */\n      dup2\n        /* \"#utility.yul\":9364:9495   */\n      tag_399\n      jump\t// in\n    tag_547:\n        /* \"#utility.yul\":9356:9495   */\n      swap1\n      pop\n        /* \"#utility.yul\":9083:9502   */\n      swap2\n      swap1\n      pop\n      jump\t// out\n        /* \"#utility.yul\":9508:9684   */\n    tag_400:\n        /* \"#utility.yul\":9648:9676   */\n      0x50726573616c653a2050726573616c652068617320656e646564000000000000\n        /* \"#utility.yul\":9644:9645   */\n      0x00\n        /* \"#utility.yul\":9636:9642   */\n      dup3\n        /* \"#utility.yul\":9632:9646   */\n      add\n        /* \"#utility.yul\":9625:9677   */\n      mstore\n        /* \"#utility.yul\":9508:9684   */\n      pop\n      jump\t// out\n        /* \"#utility.yul\":9690:10056   */\n    tag_401:\n        /* \"#utility.yul\":9832:9835   */\n      0x00\n        /* \"#utility.yul\":9853:9920   */\n      tag_550\n        /* \"#utility.yul\":9917:9919   */\n      0x1a\n        /* \"#utility.yul\":9912:9915   */\n      dup4\n        /* \"#utility.yul\":9853:9920   */\n      tag_391\n      jump\t// in\n    tag_550:\n        /* \"#utility.yul\":9846:9920   */\n      swap2\n      pop\n        /* \"#utility.yul\":9929:10022   */\n      tag_551\n        /* \"#utility.yul\":10018:10021   */\n      dup3\n        /* \"#utility.yul\":9929:10022   */\n      tag_400\n      jump\t// in\n    tag_551:\n        /* \"#utility.yul\":10047:10049   */\n      0x20\n        /* \"#utility.yul\":10042:10045   */\n      dup3\n        /* \"#utility.yul\":10038:10050   */\n      add\n        /* \"#utility.yul\":10031:10050   */\n      swap1\n      pop\n        /* \"#utility.yul\":9690:10056   */\n      swap2\n      swap1\n      pop\n      jump\t// out\n        /* \"#utility.yul\":10062:10481   */\n    tag_215:\n        /* \"#utility.yul\":10228:10232   */\n      0x00\n        /* \"#utility.yul\":10266:10268   */\n      0x20\n        /* \"#utility.yul\":10255:10264   */\n      dup3\n        /* \"#utility.yul\":10251:10269   */\n      add\n        /* \"#utility.yul\":10243:10269   */\n      swap1\n      pop\n        /* \"#utility.yul\":10315:10324   */\n      dup2\n        /* \"#utility.yul\":10309:10313   */\n      dup2\n        /* \"#utility.yul\":10305:10325   */\n      sub\n        /* \"#utility.yul\":10301:10302   */\n      0x00\n        /* \"#utility.yul\":10290:10299   */\n      dup4\n        /* \"#utility.yul\":10286:10303   */\n      add\n        /* \"#utility.yul\":10279:10326   */\n      mstore\n        /* \"#utility.yul\":10343:10474   */\n      tag_553\n        /* \"#utility.yul\":10469:10473   */\n      dup2\n        /* \"#utility.yul\":10343:10474   */\n      tag_401\n      jump\t// in\n    tag_553:\n        /* \"#utility.yul\":10335:10474   */\n      swap1\n      pop\n        /* \"#utility.yul\":10062:10481   */\n      swap2\n      swap1\n      pop\n      jump\t// out\n        /* \"#utility.yul\":10487:10708   */\n    tag_402:\n        /* \"#utility.yul\":10627:10661   */\n      0x50726573616c653a20546f74616c20546f6b656e2053616c6520526561636865\n        /* \"#utility.yul\":10623:10624   */\n      0x00\n        /* \"#utility.yul\":10615:10621   */\n      dup3\n        /* \"#utility.yul\":10611:10625   */\n      add\n        /* \"#utility.yul\":10604:10662   */\n      mstore\n        /* \"#utility.yul\":10696:10700   */\n      0x6421000000000000000000000000000000000000000000000000000000000000\n        /* \"#utility.yul\":10691:10693   */\n      0x20\n        /* \"#utility.yul\":10683:10689   */\n      dup3\n        /* \"#utility.yul\":10679:10694   */\n      add\n        /* \"#utility.yul\":10672:10701   */\n      mstore\n        /* \"#utility.yul\":10487:10708   */\n      pop\n      jump\t// out\n        /* \"#utility.yul\":10714:11080   */\n    tag_403:\n        /* \"#utility.yul\":10856:10859   */\n      0x00\n        /* \"#utility.yul\":10877:10944   */\n      tag_556\n        /* \"#utility.yul\":10941:10943   */\n      0x22\n        /* \"#utility.yul\":10936:10939   */\n      dup4\n        /* \"#utility.yul\":10877:10944   */\n      tag_391\n      jump\t// in\n    tag_556:\n        /* \"#utility.yul\":10870:10944   */\n      swap2\n      pop\n        /* \"#utility.yul\":10953:11046   */\n      tag_557\n        /* \"#utility.yul\":11042:11045   */\n      dup3\n        /* \"#utility.yul\":10953:11046   */\n      tag_402\n      jump\t// in\n    tag_557:\n        /* \"#utility.yul\":11071:11073   */\n      0x40\n        /* \"#utility.yul\":11066:11069   */\n      dup3\n        /* \"#utility.yul\":11062:11074   */\n      add\n        /* \"#utility.yul\":11055:11074   */\n      swap1\n      pop\n        /* \"#utility.yul\":10714:11080   */\n      swap2\n      swap1\n      pop\n      jump\t// out\n        /* \"#utility.yul\":11086:11505   */\n    tag_224:\n        /* \"#utility.yul\":11252:11256   */\n      0x00\n        /* \"#utility.yul\":11290:11292   */\n      0x20\n        /* \"#utility.yul\":11279:11288   */\n      dup3\n        /* \"#utility.yul\":11275:11293   */\n      add\n        /* \"#utility.yul\":11267:11293   */\n      swap1\n      pop\n        /* \"#utility.yul\":11339:11348   */\n      dup2\n        /* \"#utility.yul\":11333:11337   */\n      dup2\n        /* \"#utility.yul\":11329:11349   */\n      sub\n        /* \"#utility.yul\":11325:11326   */\n      0x00\n        /* \"#utility.yul\":11314:11323   */\n      dup4\n        /* \"#utility.yul\":11310:11327   */\n      add\n        /* \"#utility.yul\":11303:11350   */\n      mstore\n        /* \"#utility.yul\":11367:11498   */\n      tag_559\n        /* \"#utility.yul\":11493:11497   */\n      dup2\n        /* \"#utility.yul\":11367:11498   */\n      tag_403\n      jump\t// in\n    tag_559:\n        /* \"#utility.yul\":11359:11498   */\n      swap1\n      pop\n        /* \"#utility.yul\":11086:11505   */\n      swap2\n      swap1\n      pop\n      jump\t// out\n        /* \"#utility.yul\":11511:11739   */\n    tag_404:\n        /* \"#utility.yul\":11651:11685   */\n      0x50726573616c653a20546f6b656e20616d6f756e742062656c6f77206d696e20\n        /* \"#utility.yul\":11647:11648   */\n      0x00\n        /* \"#utility.yul\":11639:11645   */\n      dup3\n        /* \"#utility.yul\":11635:11649   */\n      add\n        /* \"#utility.yul\":11628:11686   */\n      mstore\n        /* \"#utility.yul\":11720:11731   */\n      0x627579206c696d69740000000000000000000000000000000000000000000000\n        /* \"#utility.yul\":11715:11717   */\n      0x20\n        /* \"#utility.yul\":11707:11713   */\n      dup3\n        /* \"#utility.yul\":11703:11718   */\n      add\n        /* \"#utility.yul\":11696:11732   */\n      mstore\n        /* \"#utility.yul\":11511:11739   */\n      pop\n      jump\t// out\n        /* \"#utility.yul\":11745:12111   */\n    tag_405:\n        /* \"#utility.yul\":11887:11890   */\n      0x00\n        /* \"#utility.yul\":11908:11975   */\n      tag_562\n        /* \"#utility.yul\":11972:11974   */\n      0x29\n        /* \"#utility.yul\":11967:11970   */\n      dup4\n        /* \"#utility.yul\":11908:11975   */\n      tag_391\n      jump\t// in\n    tag_562:\n        /* \"#utility.yul\":11901:11975   */\n      swap2\n      pop\n        /* \"#utility.yul\":11984:12077   */\n      tag_563\n        /* \"#utility.yul\":12073:12076   */\n      dup3\n        /* \"#utility.yul\":11984:12077   */\n      tag_404\n      jump\t// in\n    tag_563:\n        /* \"#utility.yul\":12102:12104   */\n      0x40\n        /* \"#utility.yul\":12097:12100   */\n      dup3\n        /* \"#utility.yul\":12093:12105   */\n      add\n        /* \"#utility.yul\":12086:12105   */\n      swap1\n      pop\n        /* \"#utility.yul\":11745:12111   */\n      swap2\n      swap1\n      pop\n      jump\t// out\n        /* \"#utility.yul\":12117:12536   */\n    tag_228:\n        /* \"#utility.yul\":12283:12287   */\n      0x00\n        /* \"#utility.yul\":12321:12323   */\n      0x20\n        /* \"#utility.yul\":12310:12319   */\n      dup3\n        /* \"#utility.yul\":12306:12324   */\n      add\n        /* \"#utility.yul\":12298:12324   */\n      swap1\n      pop\n        /* \"#utility.yul\":12370:12379   */\n      dup2\n        /* \"#utility.yul\":12364:12368   */\n      dup2\n        /* \"#utility.yul\":12360:12380   */\n      sub\n        /* \"#utility.yul\":12356:12357   */\n      0x00\n        /* \"#utility.yul\":12345:12354   */\n      dup4\n        /* \"#utility.yul\":12341:12358   */\n      add\n        /* \"#utility.yul\":12334:12381   */\n      mstore\n        /* \"#utility.yul\":12398:12529   */\n      tag_565\n        /* \"#utility.yul\":12524:12528   */\n      dup2\n        /* \"#utility.yul\":12398:12529   */\n      tag_405\n      jump\t// in\n    tag_565:\n        /* \"#utility.yul\":12390:12529   */\n      swap1\n      pop\n        /* \"#utility.yul\":12117:12536   */\n      swap2\n      swap1\n      pop\n      jump\t// out\n        /* \"#utility.yul\":12542:12764   */\n    tag_406:\n        /* \"#utility.yul\":12682:12716   */\n      0x50726573616c653a20416d6f756e742062656c6f77206d696e20627579206c69\n        /* \"#utility.yul\":12678:12679   */\n      0x00\n        /* \"#utility.yul\":12670:12676   */\n      dup3\n        /* \"#utility.yul\":12666:12680   */\n      add\n        /* \"#utility.yul\":12659:12717   */\n      mstore\n        /* \"#utility.yul\":12751:12756   */\n      0x6d69740000000000000000000000000000000000000000000000000000000000\n        /* \"#utility.yul\":12746:12748   */\n      0x20\n        /* \"#utility.yul\":12738:12744   */\n      dup3\n        /* \"#utility.yul\":12734:12749   */\n      add\n        /* \"#utility.yul\":12727:12757   */\n      mstore\n        /* \"#utility.yul\":12542:12764   */\n      pop\n      jump\t// out\n        /* \"#utility.yul\":12770:13136   */\n    tag_407:\n        /* \"#utility.yul\":12912:12915   */\n      0x00\n        /* \"#utility.yul\":12933:13000   */\n      tag_568\n        /* \"#utility.yul\":12997:12999   */\n      0x23\n        /* \"#utility.yul\":12992:12995   */\n      dup4\n        /* \"#utility.yul\":12933:13000   */\n      tag_391\n      jump\t// in\n    tag_568:\n        /* \"#utility.yul\":12926:13000   */\n      swap2\n      pop\n        /* \"#utility.yul\":13009:13102   */\n      tag_569\n        /* \"#utility.yul\":13098:13101   */\n      dup3\n        /* \"#utility.yul\":13009:13102   */\n      tag_406\n      jump\t// in\n    tag_569:\n        /* \"#utility.yul\":13127:13129   */\n      0x40\n        /* \"#utility.yul\":13122:13125   */\n      dup3\n        /* \"#utility.yul\":13118:13130   */\n      add\n        /* \"#utility.yul\":13111:13130   */\n      swap1\n      pop\n        /* \"#utility.yul\":12770:13136   */\n      swap2\n      swap1\n      pop\n      jump\t// out\n        /* \"#utility.yul\":13142:13561   */\n    tag_234:\n        /* \"#utility.yul\":13308:13312   */\n      0x00\n        /* \"#utility.yul\":13346:13348   */\n      0x20\n        /* \"#utility.yul\":13335:13344   */\n      dup3\n        /* \"#utility.yul\":13331:13349   */\n      add\n        /* \"#utility.yul\":13323:13349   */\n      swap1\n      pop\n        /* \"#utility.yul\":13395:13404   */\n      dup2\n        /* \"#utility.yul\":13389:13393   */\n      dup2\n        /* \"#utility.yul\":13385:13405   */\n      sub\n        /* \"#utility.yul\":13381:13382   */\n      0x00\n        /* \"#utility.yul\":13370:13379   */\n      dup4\n        /* \"#utility.yul\":13366:13383   */\n      add\n        /* \"#utility.yul\":13359:13406   */\n      mstore\n        /* \"#utility.yul\":13423:13554   */\n      tag_571\n        /* \"#utility.yul\":13549:13553   */\n      dup2\n        /* \"#utility.yul\":13423:13554   */\n      tag_407\n      jump\t// in\n    tag_571:\n        /* \"#utility.yul\":13415:13554   */\n      swap1\n      pop\n        /* \"#utility.yul\":13142:13561   */\n      swap2\n      swap1\n      pop\n      jump\t// out\n        /* \"#utility.yul\":13567:13899   */\n    tag_242:\n        /* \"#utility.yul\":13688:13692   */\n      0x00\n        /* \"#utility.yul\":13726:13728   */\n      0x40\n        /* \"#utility.yul\":13715:13724   */\n      dup3\n        /* \"#utility.yul\":13711:13729   */\n      add\n        /* \"#utility.yul\":13703:13729   */\n      swap1\n      pop\n        /* \"#utility.yul\":13739:13810   */\n      tag_573\n        /* \"#utility.yul\":13807:13808   */\n      0x00\n        /* \"#utility.yul\":13796:13805   */\n      dup4\n        /* \"#utility.yul\":13792:13809   */\n      add\n        /* \"#utility.yul\":13783:13789   */\n      dup6\n        /* \"#utility.yul\":13739:13810   */\n      tag_386\n      jump\t// in\n    tag_573:\n        /* \"#utility.yul\":13820:13892   */\n      tag_574\n        /* \"#utility.yul\":13888:13890   */\n      0x20\n        /* \"#utility.yul\":13877:13886   */\n      dup4\n        /* \"#utility.yul\":13873:13891   */\n      add\n        /* \"#utility.yul\":13864:13870   */\n      dup5\n        /* \"#utility.yul\":13820:13892   */\n      tag_386\n      jump\t// in\n    tag_574:\n        /* \"#utility.yul\":13567:13899   */\n      swap4\n      swap3\n      pop\n      pop\n      pop\n      jump\t// out\n        /* \"#utility.yul\":13905:14134   */\n    tag_408:\n        /* \"#utility.yul\":14045:14079   */\n      0x50726573616c653a2053616c6520746f6b656e2063616e6e6f74206265207a65\n        /* \"#utility.yul\":14041:14042   */\n      0x00\n        /* \"#utility.yul\":14033:14039   */\n      dup3\n        /* \"#utility.yul\":14029:14043   */\n      add\n        /* \"#utility.yul\":14022:14080   */\n      mstore\n        /* \"#utility.yul\":14114:14126   */\n      0x726f206164647265737300000000000000000000000000000000000000000000\n        /* \"#utility.yul\":14109:14111   */\n      0x20\n        /* \"#utility.yul\":14101:14107   */\n      dup3\n        /* \"#utility.yul\":14097:14112   */\n      add\n        /* \"#utility.yul\":14090:14127   */\n      mstore\n        /* \"#utility.yul\":13905:14134   */\n      pop\n      jump\t// out\n        /* \"#utility.yul\":14140:14506   */\n    tag_409:\n        /* \"#utility.yul\":14282:14285   */\n      0x00\n        /* \"#utility.yul\":14303:14370   */\n      tag_577\n        /* \"#utility.yul\":14367:14369   */\n      0x2a\n        /* \"#utility.yul\":14362:14365   */\n      dup4\n        /* \"#utility.yul\":14303:14370   */\n      tag_391\n      jump\t// in\n    tag_577:\n        /* \"#utility.yul\":14296:14370   */\n      swap2\n      pop\n        /* \"#utility.yul\":14379:14472   */\n      tag_578\n        /* \"#utility.yul\":14468:14471   */\n      dup3\n        /* \"#utility.yul\":14379:14472   */\n      tag_408\n      jump\t// in\n    tag_578:\n        /* \"#utility.yul\":14497:14499   */\n      0x40\n        /* \"#utility.yul\":14492:14495   */\n      dup3\n        /* \"#utility.yul\":14488:14500   */\n      add\n        /* \"#utility.yul\":14481:14500   */\n      swap1\n      pop\n        /* \"#utility.yul\":14140:14506   */\n      swap2\n      swap1\n      pop\n      jump\t// out\n        /* \"#utility.yul\":14512:14931   */\n    tag_256:\n        /* \"#utility.yul\":14678:14682   */\n      0x00\n        /* \"#utility.yul\":14716:14718   */\n      0x20\n        /* \"#utility.yul\":14705:14714   */\n      dup3\n        /* \"#utility.yul\":14701:14719   */\n      add\n        /* \"#utility.yul\":14693:14719   */\n      swap1\n      pop\n        /* \"#utility.yul\":14765:14774   */\n      dup2\n        /* \"#utility.yul\":14759:14763   */\n      dup2\n        /* \"#utility.yul\":14755:14775   */\n      sub\n        /* \"#utility.yul\":14751:14752   */\n      0x00\n        /* \"#utility.yul\":14740:14749   */\n      dup4\n        /* \"#utility.yul\":14736:14753   */\n      add\n        /* \"#utility.yul\":14729:14776   */\n      mstore\n        /* \"#utility.yul\":14793:14924   */\n      tag_580\n        /* \"#utility.yul\":14919:14923   */\n      dup2\n        /* \"#utility.yul\":14793:14924   */\n      tag_409\n      jump\t// in\n    tag_580:\n        /* \"#utility.yul\":14785:14924   */\n      swap1\n      pop\n        /* \"#utility.yul\":14512:14931   */\n      swap2\n      swap1\n      pop\n      jump\t// out\n        /* \"#utility.yul\":14937:15169   */\n    tag_410:\n        /* \"#utility.yul\":15077:15111   */\n      0x50726573616c653a20546f74616c20746f6b656e7320666f722073616c652063\n        /* \"#utility.yul\":15073:15074   */\n      0x00\n        /* \"#utility.yul\":15065:15071   */\n      dup3\n        /* \"#utility.yul\":15061:15075   */\n      add\n        /* \"#utility.yul\":15054:15112   */\n      mstore\n        /* \"#utility.yul\":15146:15161   */\n      0x616e6e6f74206265207a65726f00000000000000000000000000000000000000\n        /* \"#utility.yul\":15141:15143   */\n      0x20\n        /* \"#utility.yul\":15133:15139   */\n      dup3\n        /* \"#utility.yul\":15129:15144   */\n      add\n        /* \"#utility.yul\":15122:15162   */\n      mstore\n        /* \"#utility.yul\":14937:15169   */\n      pop\n      jump\t// out\n        /* \"#utility.yul\":15175:15541   */\n    tag_411:\n        /* \"#utility.yul\":15317:15320   */\n      0x00\n        /* \"#utility.yul\":15338:15405   */\n      tag_583\n        /* \"#utility.yul\":15402:15404   */\n      0x2d\n        /* \"#utility.yul\":15397:15400   */\n      dup4\n        /* \"#utility.yul\":15338:15405   */\n      tag_391\n      jump\t// in\n    tag_583:\n        /* \"#utility.yul\":15331:15405   */\n      swap2\n      pop\n        /* \"#utility.yul\":15414:15507   */\n      tag_584\n        /* \"#utility.yul\":15503:15506   */\n      dup3\n        /* \"#utility.yul\":15414:15507   */\n      tag_410\n      jump\t// in\n    tag_584:\n        /* \"#utility.yul\":15532:15534   */\n      0x40\n        /* \"#utility.yul\":15527:15530   */\n      dup3\n        /* \"#utility.yul\":15523:15535   */\n      add\n        /* \"#utility.yul\":15516:15535   */\n      swap1\n      pop\n        /* \"#utility.yul\":15175:15541   */\n      swap2\n      swap1\n      pop\n      jump\t// out\n        /* \"#utility.yul\":15547:15966   */\n    tag_259:\n        /* \"#utility.yul\":15713:15717   */\n      0x00\n        /* \"#utility.yul\":15751:15753   */\n      0x20\n        /* \"#utility.yul\":15740:15749   */\n      dup3\n        /* \"#utility.yul\":15736:15754   */\n      add\n        /* \"#utility.yul\":15728:15754   */\n      swap1\n      pop\n        /* \"#utility.yul\":15800:15809   */\n      dup2\n        /* \"#utility.yul\":15794:15798   */\n      dup2\n        /* \"#utility.yul\":15790:15810   */\n      sub\n        /* \"#utility.yul\":15786:15787   */\n      0x00\n        /* \"#utility.yul\":15775:15784   */\n      dup4\n        /* \"#utility.yul\":15771:15788   */\n      add\n        /* \"#utility.yul\":15764:15811   */\n      mstore\n        /* \"#utility.yul\":15828:15959   */\n      tag_586\n        /* \"#utility.yul\":15954:15958   */\n      dup2\n        /* \"#utility.yul\":15828:15959   */\n      tag_411\n      jump\t// in\n    tag_586:\n        /* \"#utility.yul\":15820:15959   */\n      swap1\n      pop\n        /* \"#utility.yul\":15547:15966   */\n      swap2\n      swap1\n      pop\n      jump\t// out\n        /* \"#utility.yul\":15972:16058   */\n    tag_412:\n        /* \"#utility.yul\":16007:16014   */\n      0x00\n        /* \"#utility.yul\":16047:16051   */\n      0xff\n        /* \"#utility.yul\":16040:16045   */\n      dup3\n        /* \"#utility.yul\":16036:16052   */\n      and\n        /* \"#utility.yul\":16025:16052   */\n      swap1\n      pop\n        /* \"#utility.yul\":15972:16058   */\n      swap2\n      swap1\n      pop\n      jump\t// out\n        /* \"#utility.yul\":16064:16182   */\n    tag_413:\n        /* \"#utility.yul\":16135:16157   */\n      tag_589\n        /* \"#utility.yul\":16151:16156   */\n      dup2\n        /* \"#utility.yul\":16135:16157   */\n      tag_412\n      jump\t// in\n    tag_589:\n        /* \"#utility.yul\":16128:16133   */\n      dup2\n        /* \"#utility.yul\":16125:16158   */\n      eq\n        /* \"#utility.yul\":16115:16176   */\n      tag_590\n      jumpi\n        /* \"#utility.yul\":16172:16173   */\n      0x00\n        /* \"#utility.yul\":16169:16170   */\n      dup1\n        /* \"#utility.yul\":16162:16174   */\n      revert\n        /* \"#utility.yul\":16115:16176   */\n    tag_590:\n        /* \"#utility.yul\":16064:16182   */\n      pop\n      jump\t// out\n        /* \"#utility.yul\":16188:16327   */\n    tag_414:\n        /* \"#utility.yul\":16243:16248   */\n      0x00\n        /* \"#utility.yul\":16274:16280   */\n      dup2\n        /* \"#utility.yul\":16268:16281   */\n      mload\n        /* \"#utility.yul\":16259:16281   */\n      swap1\n      pop\n        /* \"#utility.yul\":16290:16321   */\n      tag_592\n        /* \"#utility.yul\":16315:16320   */\n      dup2\n        /* \"#utility.yul\":16290:16321   */\n      tag_413\n      jump\t// in\n    tag_592:\n        /* \"#utility.yul\":16188:16327   */\n      swap3\n      swap2\n      pop\n      pop\n      jump\t// out\n        /* \"#utility.yul\":16333:16680   */\n    tag_263:\n        /* \"#utility.yul\":16401:16407   */\n      0x00\n        /* \"#utility.yul\":16450:16452   */\n      0x20\n        /* \"#utility.yul\":16438:16447   */\n      dup3\n        /* \"#utility.yul\":16429:16436   */\n      dup5\n        /* \"#utility.yul\":16425:16448   */\n      sub\n        /* \"#utility.yul\":16421:16453   */\n      slt\n        /* \"#utility.yul\":16418:16537   */\n      iszero\n      tag_594\n      jumpi\n        /* \"#utility.yul\":16456:16535   */\n      tag_595\n      tag_377\n      jump\t// in\n    tag_595:\n        /* \"#utility.yul\":16418:16537   */\n    tag_594:\n        /* \"#utility.yul\":16576:16577   */\n      0x00\n        /* \"#utility.yul\":16601:16663   */\n      tag_596\n        /* \"#utility.yul\":16655:16662   */\n      dup5\n        /* \"#utility.yul\":16646:16652   */\n      dup3\n        /* \"#utility.yul\":16635:16644   */\n      dup6\n        /* \"#utility.yul\":16631:16653   */\n      add\n        /* \"#utility.yul\":16601:16663   */\n      tag_414\n      jump\t// in\n    tag_596:\n        /* \"#utility.yul\":16591:16663   */\n      swap2\n      pop\n        /* \"#utility.yul\":16547:16673   */\n      pop\n        /* \"#utility.yul\":16333:16680   */\n      swap3\n      swap2\n      pop\n      pop\n      jump\t// out\n        /* \"#utility.yul\":16686:16829   */\n    tag_415:\n        /* \"#utility.yul\":16743:16748   */\n      0x00\n        /* \"#utility.yul\":16774:16780   */\n      dup2\n        /* \"#utility.yul\":16768:16781   */\n      mload\n        /* \"#utility.yul\":16759:16781   */\n      swap1\n      pop\n        /* \"#utility.yul\":16790:16823   */\n      tag_598\n        /* \"#utility.yul\":16817:16822   */\n      dup2\n        /* \"#utility.yul\":16790:16823   */\n      tag_380\n      jump\t// in\n    tag_598:\n        /* \"#utility.yul\":16686:16829   */\n      swap3\n      swap2\n      pop\n      pop\n      jump\t// out\n        /* \"#utility.yul\":16835:17186   */\n    tag_269:\n        /* \"#utility.yul\":16905:16911   */\n      0x00\n        /* \"#utility.yul\":16954:16956   */\n      0x20\n        /* \"#utility.yul\":16942:16951   */\n      dup3\n        /* \"#utility.yul\":16933:16940   */\n      dup5\n        /* \"#utility.yul\":16929:16952   */\n      sub\n        /* \"#utility.yul\":16925:16957   */\n      slt\n        /* \"#utility.yul\":16922:17041   */\n      iszero\n      tag_600\n      jumpi\n        /* \"#utility.yul\":16960:17039   */\n      tag_601\n      tag_377\n      jump\t// in\n    tag_601:\n        /* \"#utility.yul\":16922:17041   */\n    tag_600:\n        /* \"#utility.yul\":17080:17081   */\n      0x00\n        /* \"#utility.yul\":17105:17169   */\n      tag_602\n        /* \"#utility.yul\":17161:17168   */\n      dup5\n        /* \"#utility.yul\":17152:17158   */\n      dup3\n        /* \"#utility.yul\":17141:17150   */\n      dup6\n        /* \"#utility.yul\":17137:17159   */\n      add\n        /* \"#utility.yul\":17105:17169   */\n      tag_415\n      jump\t// in\n    tag_602:\n        /* \"#utility.yul\":17095:17169   */\n      swap2\n      pop\n        /* \"#utility.yul\":17051:17179   */\n      pop\n        /* \"#utility.yul\":16835:17186   */\n      swap3\n      swap2\n      pop\n      pop\n      jump\t// out\n        /* \"#utility.yul\":17192:17413   */\n    tag_416:\n        /* \"#utility.yul\":17332:17366   */\n      0x50726573616c653a2050726573616c6520686173206e6f7420656e6465642079\n        /* \"#utility.yul\":17328:17329   */\n      0x00\n        /* \"#utility.yul\":17320:17326   */\n      dup3\n        /* \"#utility.yul\":17316:17330   */\n      add\n        /* \"#utility.yul\":17309:17367   */\n      mstore\n        /* \"#utility.yul\":17401:17405   */\n      0x6574000000000000000000000000000000000000000000000000000000000000\n        /* \"#utility.yul\":17396:17398   */\n      0x20\n        /* \"#utility.yul\":17388:17394   */\n      dup3\n        /* \"#utility.yul\":17384:17399   */\n      add\n        /* \"#utility.yul\":17377:17406   */\n      mstore\n        /* \"#utility.yul\":17192:17413   */\n      pop\n      jump\t// out\n        /* \"#utility.yul\":17419:17785   */\n    tag_417:\n        /* \"#utility.yul\":17561:17564   */\n      0x00\n        /* \"#utility.yul\":17582:17649   */\n      tag_605\n        /* \"#utility.yul\":17646:17648   */\n      0x22\n        /* \"#utility.yul\":17641:17644   */\n      dup4\n        /* \"#utility.yul\":17582:17649   */\n      tag_391\n      jump\t// in\n    tag_605:\n        /* \"#utility.yul\":17575:17649   */\n      swap2\n      pop\n        /* \"#utility.yul\":17658:17751   */\n      tag_606\n        /* \"#utility.yul\":17747:17750   */\n      dup3\n        /* \"#utility.yul\":17658:17751   */\n      tag_416\n      jump\t// in\n    tag_606:\n        /* \"#utility.yul\":17776:17778   */\n      0x40\n        /* \"#utility.yul\":17771:17774   */\n      dup3\n        /* \"#utility.yul\":17767:17779   */\n      add\n        /* \"#utility.yul\":17760:17779   */\n      swap1\n      pop\n        /* \"#utility.yul\":17419:17785   */\n      swap2\n      swap1\n      pop\n      jump\t// out\n        /* \"#utility.yul\":17791:18210   */\n    tag_280:\n        /* \"#utility.yul\":17957:17961   */\n      0x00\n        /* \"#utility.yul\":17995:17997   */\n      0x20\n        /* \"#utility.yul\":17984:17993   */\n      dup3\n        /* \"#utility.yul\":17980:17998   */\n      add\n        /* \"#utility.yul\":17972:17998   */\n      swap1\n      pop\n        /* \"#utility.yul\":18044:18053   */\n      dup2\n        /* \"#utility.yul\":18038:18042   */\n      dup2\n        /* \"#utility.yul\":18034:18054   */\n      sub\n        /* \"#utility.yul\":18030:18031   */\n      0x00\n        /* \"#utility.yul\":18019:18028   */\n      dup4\n        /* \"#utility.yul\":18015:18032   */\n      add\n        /* \"#utility.yul\":18008:18055   */\n      mstore\n        /* \"#utility.yul\":18072:18203   */\n      tag_608\n        /* \"#utility.yul\":18198:18202   */\n      dup2\n        /* \"#utility.yul\":18072:18203   */\n      tag_417\n      jump\t// in\n    tag_608:\n        /* \"#utility.yul\":18064:18203   */\n      swap1\n      pop\n        /* \"#utility.yul\":17791:18210   */\n      swap2\n      swap1\n      pop\n      jump\t// out\n        /* \"#utility.yul\":18216:18441   */\n    tag_418:\n        /* \"#utility.yul\":18356:18390   */\n      0x4f776e61626c653a206e6577206f776e657220697320746865207a65726f2061\n        /* \"#utility.yul\":18352:18353   */\n      0x00\n        /* \"#utility.yul\":18344:18350   */\n      dup3\n        /* \"#utility.yul\":18340:18354   */\n      add\n        /* \"#utility.yul\":18333:18391   */\n      mstore\n        /* \"#utility.yul\":18425:18433   */\n      0x6464726573730000000000000000000000000000000000000000000000000000\n        /* \"#utility.yul\":18420:18422   */\n      0x20\n        /* \"#utility.yul\":18412:18418   */\n      dup3\n        /* \"#utility.yul\":18408:18423   */\n      add\n        /* \"#utility.yul\":18401:18434   */\n      mstore\n        /* \"#utility.yul\":18216:18441   */\n      pop\n      jump\t// out\n        /* \"#utility.yul\":18447:18813   */\n    tag_419:\n        /* \"#utility.yul\":18589:18592   */\n      0x00\n        /* \"#utility.yul\":18610:18677   */\n      tag_611\n        /* \"#utility.yul\":18674:18676   */\n      0x26\n        /* \"#utility.yul\":18669:18672   */\n      dup4\n        /* \"#utility.yul\":18610:18677   */\n      tag_391\n      jump\t// in\n    tag_611:\n        /* \"#utility.yul\":18603:18677   */\n      swap2\n      pop\n        /* \"#utility.yul\":18686:18779   */\n      tag_612\n        /* \"#utility.yul\":18775:18778   */\n      dup3\n        /* \"#utility.yul\":18686:18779   */\n      tag_418\n      jump\t// in\n    tag_612:\n        /* \"#utility.yul\":18804:18806   */\n      0x40\n        /* \"#utility.yul\":18799:18802   */\n      dup3\n        /* \"#utility.yul\":18795:18807   */\n      add\n        /* \"#utility.yul\":18788:18807   */\n      swap1\n      pop\n        /* \"#utility.yul\":18447:18813   */\n      swap2\n      swap1\n      pop\n      jump\t// out\n        /* \"#utility.yul\":18819:19238   */\n    tag_288:\n        /* \"#utility.yul\":18985:18989   */\n      0x00\n        /* \"#utility.yul\":19023:19025   */\n      0x20\n        /* \"#utility.yul\":19012:19021   */\n      dup3\n        /* \"#utility.yul\":19008:19026   */\n      add\n        /* \"#utility.yul\":19000:19026   */\n      swap1\n      pop\n        /* \"#utility.yul\":19072:19081   */\n      dup2\n        /* \"#utility.yul\":19066:19070   */\n      dup2\n        /* \"#utility.yul\":19062:19082   */\n      sub\n        /* \"#utility.yul\":19058:19059   */\n      0x00\n        /* \"#utility.yul\":19047:19056   */\n      dup4\n        /* \"#utility.yul\":19043:19060   */\n      add\n        /* \"#utility.yul\":19036:19083   */\n      mstore\n        /* \"#utility.yul\":19100:19231   */\n      tag_614\n        /* \"#utility.yul\":19226:19230   */\n      dup2\n        /* \"#utility.yul\":19100:19231   */\n      tag_419\n      jump\t// in\n    tag_614:\n        /* \"#utility.yul\":19092:19231   */\n      swap1\n      pop\n        /* \"#utility.yul\":18819:19238   */\n      swap2\n      swap1\n      pop\n      jump\t// out\n        /* \"#utility.yul\":19244:19553   */\n    tag_420:\n        /* \"#utility.yul\":19384:19418   */\n      0x50726573616c653a2043616e6e6f742077697468647261772073616c6520746f\n        /* \"#utility.yul\":19380:19381   */\n      0x00\n        /* \"#utility.yul\":19372:19378   */\n      dup3\n        /* \"#utility.yul\":19368:19382   */\n      add\n        /* \"#utility.yul\":19361:19419   */\n      mstore\n        /* \"#utility.yul\":19453:19487   */\n      0x6b656e20776974682074686973206d6574686f642c2075736520776974686472\n        /* \"#utility.yul\":19448:19450   */\n      0x20\n        /* \"#utility.yul\":19440:19446   */\n      dup3\n        /* \"#utility.yul\":19436:19451   */\n      add\n        /* \"#utility.yul\":19429:19488   */\n      mstore\n        /* \"#utility.yul\":19522:19545   */\n      0x617753616c65546f6b656e282920696e73746561640000000000000000000000\n        /* \"#utility.yul\":19517:19519   */\n      0x40\n        /* \"#utility.yul\":19509:19515   */\n      dup3\n        /* \"#utility.yul\":19505:19520   */\n      add\n        /* \"#utility.yul\":19498:19546   */\n      mstore\n        /* \"#utility.yul\":19244:19553   */\n      pop\n      jump\t// out\n        /* \"#utility.yul\":19559:19925   */\n    tag_421:\n        /* \"#utility.yul\":19701:19704   */\n      0x00\n        /* \"#utility.yul\":19722:19789   */\n      tag_617\n        /* \"#utility.yul\":19786:19788   */\n      0x55\n        /* \"#utility.yul\":19781:19784   */\n      dup4\n        /* \"#utility.yul\":19722:19789   */\n      tag_391\n      jump\t// in\n    tag_617:\n        /* \"#utility.yul\":19715:19789   */\n      swap2\n      pop\n        /* \"#utility.yul\":19798:19891   */\n      tag_618\n        /* \"#utility.yul\":19887:19890   */\n      dup3\n        /* \"#utility.yul\":19798:19891   */\n      tag_420\n      jump\t// in\n    tag_618:\n        /* \"#utility.yul\":19916:19918   */\n      0x60\n        /* \"#utility.yul\":19911:19914   */\n      dup3\n        /* \"#utility.yul\":19907:19919   */\n      add\n        /* \"#utility.yul\":19900:19919   */\n      swap1\n      pop\n        /* \"#utility.yul\":19559:19925   */\n      swap2\n      swap1\n      pop\n      jump\t// out\n        /* \"#utility.yul\":19931:20350   */\n    tag_295:\n        /* \"#utility.yul\":20097:20101   */\n      0x00\n        /* \"#utility.yul\":20135:20137   */\n      0x20\n        /* \"#utility.yul\":20124:20133   */\n      dup3\n        /* \"#utility.yul\":20120:20138   */\n      add\n        /* \"#utility.yul\":20112:20138   */\n      swap1\n      pop\n        /* \"#utility.yul\":20184:20193   */\n      dup2\n        /* \"#utility.yul\":20178:20182   */\n      dup2\n        /* \"#utility.yul\":20174:20194   */\n      sub\n        /* \"#utility.yul\":20170:20171   */\n      0x00\n        /* \"#utility.yul\":20159:20168   */\n      dup4\n        /* \"#utility.yul\":20155:20172   */\n      add\n        /* \"#utility.yul\":20148:20195   */\n      mstore\n        /* \"#utility.yul\":20212:20343   */\n      tag_620\n        /* \"#utility.yul\":20338:20342   */\n      dup2\n        /* \"#utility.yul\":20212:20343   */\n      tag_421\n      jump\t// in\n    tag_620:\n        /* \"#utility.yul\":20204:20343   */\n      swap1\n      pop\n        /* \"#utility.yul\":19931:20350   */\n      swap2\n      swap1\n      pop\n      jump\t// out\n        /* \"#utility.yul\":20356:20668   */\n    tag_422:\n        /* \"#utility.yul\":20496:20530   */\n      0x50726573616c653a2043616e6e6f742077697468647261772073616c6520746f\n        /* \"#utility.yul\":20492:20493   */\n      0x00\n        /* \"#utility.yul\":20484:20490   */\n      dup3\n        /* \"#utility.yul\":20480:20494   */\n      add\n        /* \"#utility.yul\":20473:20531   */\n      mstore\n        /* \"#utility.yul\":20565:20599   */\n      0x6b656e20776974682074686973206d6574686f642c2075736520776974686472\n        /* \"#utility.yul\":20560:20562   */\n      0x20\n        /* \"#utility.yul\":20552:20558   */\n      dup3\n        /* \"#utility.yul\":20548:20563   */\n      add\n        /* \"#utility.yul\":20541:20600   */\n      mstore\n        /* \"#utility.yul\":20634:20660   */\n      0x6177416c6c53616c65546f6b656e282920696e73746561640000000000000000\n        /* \"#utility.yul\":20629:20631   */\n      0x40\n        /* \"#utility.yul\":20621:20627   */\n      dup3\n        /* \"#utility.yul\":20617:20632   */\n      add\n        /* \"#utility.yul\":20610:20661   */\n      mstore\n        /* \"#utility.yul\":20356:20668   */\n      pop\n      jump\t// out\n        /* \"#utility.yul\":20674:21040   */\n    tag_423:\n        /* \"#utility.yul\":20816:20819   */\n      0x00\n        /* \"#utility.yul\":20837:20904   */\n      tag_623\n        /* \"#utility.yul\":20901:20903   */\n      0x58\n        /* \"#utility.yul\":20896:20899   */\n      dup4\n        /* \"#utility.yul\":20837:20904   */\n      tag_391\n      jump\t// in\n    tag_623:\n        /* \"#utility.yul\":20830:20904   */\n      swap2\n      pop\n        /* \"#utility.yul\":20913:21006   */\n      tag_624\n        /* \"#utility.yul\":21002:21005   */\n      dup3\n        /* \"#utility.yul\":20913:21006   */\n      tag_422\n      jump\t// in\n    tag_624:\n        /* \"#utility.yul\":21031:21033   */\n      0x60\n        /* \"#utility.yul\":21026:21029   */\n      dup3\n        /* \"#utility.yul\":21022:21034   */\n      add\n        /* \"#utility.yul\":21015:21034   */\n      swap1\n      pop\n        /* \"#utility.yul\":20674:21040   */\n      swap2\n      swap1\n      pop\n      jump\t// out\n        /* \"#utility.yul\":21046:21465   */\n    tag_302:\n        /* \"#utility.yul\":21212:21216   */\n      0x00\n        /* \"#utility.yul\":21250:21252   */\n      0x20\n        /* \"#utility.yul\":21239:21248   */\n      dup3\n        /* \"#utility.yul\":21235:21253   */\n      add\n        /* \"#utility.yul\":21227:21253   */\n      swap1\n      pop\n        /* \"#utility.yul\":21299:21308   */\n      dup2\n        /* \"#utility.yul\":21293:21297   */\n      dup2\n        /* \"#utility.yul\":21289:21309   */\n      sub\n        /* \"#utility.yul\":21285:21286   */\n      0x00\n        /* \"#utility.yul\":21274:21283   */\n      dup4\n        /* \"#utility.yul\":21270:21287   */\n      add\n        /* \"#utility.yul\":21263:21310   */\n      mstore\n        /* \"#utility.yul\":21327:21458   */\n      tag_626\n        /* \"#utility.yul\":21453:21457   */\n      dup2\n        /* \"#utility.yul\":21327:21458   */\n      tag_423\n      jump\t// in\n    tag_626:\n        /* \"#utility.yul\":21319:21458   */\n      swap1\n      pop\n        /* \"#utility.yul\":21046:21465   */\n      swap2\n      swap1\n      pop\n      jump\t// out\n        /* \"#utility.yul\":21471:21653   */\n    tag_424:\n        /* \"#utility.yul\":21611:21645   */\n      0x4f776e61626c653a2063616c6c6572206973206e6f7420746865206f776e6572\n        /* \"#utility.yul\":21607:21608   */\n      0x00\n        /* \"#utility.yul\":21599:21605   */\n      dup3\n        /* \"#utility.yul\":21595:21609   */\n      add\n        /* \"#utility.yul\":21588:21646   */\n      mstore\n        /* \"#utility.yul\":21471:21653   */\n      pop\n      jump\t// out\n        /* \"#utility.yul\":21659:22025   */\n    tag_425:\n        /* \"#utility.yul\":21801:21804   */\n      0x00\n        /* \"#utility.yul\":21822:21889   */\n      tag_629\n        /* \"#utility.yul\":21886:21888   */\n      0x20\n        /* \"#utility.yul\":21881:21884   */\n      dup4\n        /* \"#utility.yul\":21822:21889   */\n      tag_391\n      jump\t// in\n    tag_629:\n        /* \"#utility.yul\":21815:21889   */\n      swap2\n      pop\n        /* \"#utility.yul\":21898:21991   */\n      tag_630\n        /* \"#utility.yul\":21987:21990   */\n      dup3\n        /* \"#utility.yul\":21898:21991   */\n      tag_424\n      jump\t// in\n    tag_630:\n        /* \"#utility.yul\":22016:22018   */\n      0x20\n        /* \"#utility.yul\":22011:22014   */\n      dup3\n        /* \"#utility.yul\":22007:22019   */\n      add\n        /* \"#utility.yul\":22000:22019   */\n      swap1\n      pop\n        /* \"#utility.yul\":21659:22025   */\n      swap2\n      swap1\n      pop\n      jump\t// out\n        /* \"#utility.yul\":22031:22450   */\n    tag_325:\n        /* \"#utility.yul\":22197:22201   */\n      0x00\n        /* \"#utility.yul\":22235:22237   */\n      0x20\n        /* \"#utility.yul\":22224:22233   */\n      dup3\n        /* \"#utility.yul\":22220:22238   */\n      add\n        /* \"#utility.yul\":22212:22238   */\n      swap1\n      pop\n        /* \"#utility.yul\":22284:22293   */\n      dup2\n        /* \"#utility.yul\":22278:22282   */\n      dup2\n        /* \"#utility.yul\":22274:22294   */\n      sub\n        /* \"#utility.yul\":22270:22271   */\n      0x00\n        /* \"#utility.yul\":22259:22268   */\n      dup4\n        /* \"#utility.yul\":22255:22272   */\n      add\n        /* \"#utility.yul\":22248:22295   */\n      mstore\n        /* \"#utility.yul\":22312:22443   */\n      tag_632\n        /* \"#utility.yul\":22438:22442   */\n      dup2\n        /* \"#utility.yul\":22312:22443   */\n      tag_425\n      jump\t// in\n    tag_632:\n        /* \"#utility.yul\":22304:22443   */\n      swap1\n      pop\n        /* \"#utility.yul\":22031:22450   */\n      swap2\n      swap1\n      pop\n      jump\t// out\n        /* \"#utility.yul\":22456:22898   */\n    tag_333:\n        /* \"#utility.yul\":22605:22609   */\n      0x00\n        /* \"#utility.yul\":22643:22645   */\n      0x60\n        /* \"#utility.yul\":22632:22641   */\n      dup3\n        /* \"#utility.yul\":22628:22646   */\n      add\n        /* \"#utility.yul\":22620:22646   */\n      swap1\n      pop\n        /* \"#utility.yul\":22656:22727   */\n      tag_634\n        /* \"#utility.yul\":22724:22725   */\n      0x00\n        /* \"#utility.yul\":22713:22722   */\n      dup4\n        /* \"#utility.yul\":22709:22726   */\n      add\n        /* \"#utility.yul\":22700:22706   */\n      dup7\n        /* \"#utility.yul\":22656:22727   */\n      tag_389\n      jump\t// in\n    tag_634:\n        /* \"#utility.yul\":22737:22809   */\n      tag_635\n        /* \"#utility.yul\":22805:22807   */\n      0x20\n        /* \"#utility.yul\":22794:22803   */\n      dup4\n        /* \"#utility.yul\":22790:22808   */\n      add\n        /* \"#utility.yul\":22781:22787   */\n      dup6\n        /* \"#utility.yul\":22737:22809   */\n      tag_389\n      jump\t// in\n    tag_635:\n        /* \"#utility.yul\":22819:22891   */\n      tag_636\n        /* \"#utility.yul\":22887:22889   */\n      0x40\n        /* \"#utility.yul\":22876:22885   */\n      dup4\n        /* \"#utility.yul\":22872:22890   */\n      add\n        /* \"#utility.yul\":22863:22869   */\n      dup5\n        /* \"#utility.yul\":22819:22891   */\n      tag_386\n      jump\t// in\n    tag_636:\n        /* \"#utility.yul\":22456:22898   */\n      swap5\n      swap4\n      pop\n      pop\n      pop\n      pop\n      jump\t// out\n        /* \"#utility.yul\":22904:23020   */\n    tag_426:\n        /* \"#utility.yul\":22974:22995   */\n      tag_638\n        /* \"#utility.yul\":22989:22994   */\n      dup2\n        /* \"#utility.yul\":22974:22995   */\n      tag_387\n      jump\t// in\n    tag_638:\n        /* \"#utility.yul\":22967:22972   */\n      dup2\n        /* \"#utility.yul\":22964:22996   */\n      eq\n        /* \"#utility.yul\":22954:23014   */\n      tag_639\n      jumpi\n        /* \"#utility.yul\":23010:23011   */\n      0x00\n        /* \"#utility.yul\":23007:23008   */\n      dup1\n        /* \"#utility.yul\":23000:23012   */\n      revert\n        /* \"#utility.yul\":22954:23014   */\n    tag_639:\n        /* \"#utility.yul\":22904:23020   */\n      pop\n      jump\t// out\n        /* \"#utility.yul\":23026:23163   */\n    tag_427:\n        /* \"#utility.yul\":23080:23085   */\n      0x00\n        /* \"#utility.yul\":23111:23117   */\n      dup2\n        /* \"#utility.yul\":23105:23118   */\n      mload\n        /* \"#utility.yul\":23096:23118   */\n      swap1\n      pop\n        /* \"#utility.yul\":23127:23157   */\n      tag_641\n        /* \"#utility.yul\":23151:23156   */\n      dup2\n        /* \"#utility.yul\":23127:23157   */\n      tag_426\n      jump\t// in\n    tag_641:\n        /* \"#utility.yul\":23026:23163   */\n      swap3\n      swap2\n      pop\n      pop\n      jump\t// out\n        /* \"#utility.yul\":23169:23514   */\n    tag_341:\n        /* \"#utility.yul\":23236:23242   */\n      0x00\n        /* \"#utility.yul\":23285:23287   */\n      0x20\n        /* \"#utility.yul\":23273:23282   */\n      dup3\n        /* \"#utility.yul\":23264:23271   */\n      dup5\n        /* \"#utility.yul\":23260:23283   */\n      sub\n        /* \"#utility.yul\":23256:23288   */\n      slt\n        /* \"#utility.yul\":23253:23372   */\n      iszero\n      tag_643\n      jumpi\n        /* \"#utility.yul\":23291:23370   */\n      tag_644\n      tag_377\n      jump\t// in\n    tag_644:\n        /* \"#utility.yul\":23253:23372   */\n    tag_643:\n        /* \"#utility.yul\":23411:23412   */\n      0x00\n        /* \"#utility.yul\":23436:23497   */\n      tag_645\n        /* \"#utility.yul\":23489:23496   */\n      dup5\n        /* \"#utility.yul\":23480:23486   */\n      dup3\n        /* \"#utility.yul\":23469:23478   */\n      dup6\n        /* \"#utility.yul\":23465:23487   */\n      add\n        /* \"#utility.yul\":23436:23497   */\n      tag_427\n      jump\t// in\n    tag_645:\n        /* \"#utility.yul\":23426:23497   */\n      swap2\n      pop\n        /* \"#utility.yul\":23382:23507   */\n      pop\n        /* \"#utility.yul\":23169:23514   */\n      swap3\n      swap2\n      pop\n      pop\n      jump\t// out\n        /* \"#utility.yul\":23520:23749   */\n    tag_428:\n        /* \"#utility.yul\":23660:23694   */\n      0x5361666545524332303a204552433230206f7065726174696f6e20646964206e\n        /* \"#utility.yul\":23656:23657   */\n      0x00\n        /* \"#utility.yul\":23648:23654   */\n      dup3\n        /* \"#utility.yul\":23644:23658   */\n      add\n        /* \"#utility.yul\":23637:23695   */\n      mstore\n        /* \"#utility.yul\":23729:23741   */\n      0x6f74207375636365656400000000000000000000000000000000000000000000\n        /* \"#utility.yul\":23724:23726   */\n      0x20\n        /* \"#utility.yul\":23716:23722   */\n      dup3\n        /* \"#utility.yul\":23712:23727   */\n      add\n        /* \"#utility.yul\":23705:23742   */\n      mstore\n        /* \"#utility.yul\":23520:23749   */\n      pop\n      jump\t// out\n        /* \"#utility.yul\":23755:24121   */\n    tag_429:\n        /* \"#utility.yul\":23897:23900   */\n      0x00\n        /* \"#utility.yul\":23918:23985   */\n      tag_648\n        /* \"#utility.yul\":23982:23984   */\n      0x2a\n        /* \"#utility.yul\":23977:23980   */\n      dup4\n        /* \"#utility.yul\":23918:23985   */\n      tag_391\n      jump\t// in\n    tag_648:\n        /* \"#utility.yul\":23911:23985   */\n      swap2\n      pop\n        /* \"#utility.yul\":23994:24087   */\n      tag_649\n        /* \"#utility.yul\":24083:24086   */\n      dup3\n        /* \"#utility.yul\":23994:24087   */\n      tag_428\n      jump\t// in\n    tag_649:\n        /* \"#utility.yul\":24112:24114   */\n      0x40\n        /* \"#utility.yul\":24107:24110   */\n      dup3\n        /* \"#utility.yul\":24103:24115   */\n      add\n        /* \"#utility.yul\":24096:24115   */\n      swap1\n      pop\n        /* \"#utility.yul\":23755:24121   */\n      swap2\n      swap1\n      pop\n      jump\t// out\n        /* \"#utility.yul\":24127:24546   */\n    tag_344:\n        /* \"#utility.yul\":24293:24297   */\n      0x00\n        /* \"#utility.yul\":24331:24333   */\n      0x20\n        /* \"#utility.yul\":24320:24329   */\n      dup3\n        /* \"#utility.yul\":24316:24334   */\n      add\n        /* \"#utility.yul\":24308:24334   */\n      swap1\n      pop\n        /* \"#utility.yul\":24380:24389   */\n      dup2\n        /* \"#utility.yul\":24374:24378   */\n      dup2\n        /* \"#utility.yul\":24370:24390   */\n      sub\n        /* \"#utility.yul\":24366:24367   */\n      0x00\n        /* \"#utility.yul\":24355:24364   */\n      dup4\n        /* \"#utility.yul\":24351:24368   */\n      add\n        /* \"#utility.yul\":24344:24391   */\n      mstore\n        /* \"#utility.yul\":24408:24539   */\n      tag_651\n        /* \"#utility.yul\":24534:24538   */\n      dup2\n        /* \"#utility.yul\":24408:24539   */\n      tag_429\n      jump\t// in\n    tag_651:\n        /* \"#utility.yul\":24400:24539   */\n      swap1\n      pop\n        /* \"#utility.yul\":24127:24546   */\n      swap2\n      swap1\n      pop\n      jump\t// out\n        /* \"#utility.yul\":24552:24777   */\n    tag_430:\n        /* \"#utility.yul\":24692:24726   */\n      0x416464726573733a20696e73756666696369656e742062616c616e636520666f\n        /* \"#utility.yul\":24688:24689   */\n      0x00\n        /* \"#utility.yul\":24680:24686   */\n      dup3\n        /* \"#utility.yul\":24676:24690   */\n      add\n        /* \"#utility.yul\":24669:24727   */\n      mstore\n        /* \"#utility.yul\":24761:24769   */\n      0x722063616c6c0000000000000000000000000000000000000000000000000000\n        /* \"#utility.yul\":24756:24758   */\n      0x20\n        /* \"#utility.yul\":24748:24754   */\n      dup3\n        /* \"#utility.yul\":24744:24759   */\n      add\n        /* \"#utility.yul\":24737:24770   */\n      mstore\n        /* \"#utility.yul\":24552:24777   */\n      pop\n      jump\t// out\n        /* \"#utility.yul\":24783:25149   */\n    tag_431:\n        /* \"#utility.yul\":24925:24928   */\n      0x00\n        /* \"#utility.yul\":24946:25013   */\n      tag_654\n        /* \"#utility.yul\":25010:25012   */\n      0x26\n        /* \"#utility.yul\":25005:25008   */\n      dup4\n        /* \"#utility.yul\":24946:25013   */\n      tag_391\n      jump\t// in\n    tag_654:\n        /* \"#utility.yul\":24939:25013   */\n      swap2\n      pop\n        /* \"#utility.yul\":25022:25115   */\n      tag_655\n        /* \"#utility.yul\":25111:25114   */\n      dup3\n        /* \"#utility.yul\":25022:25115   */\n      tag_430\n      jump\t// in\n    tag_655:\n        /* \"#utility.yul\":25140:25142   */\n      0x40\n        /* \"#utility.yul\":25135:25138   */\n      dup3\n        /* \"#utility.yul\":25131:25143   */\n      add\n        /* \"#utility.yul\":25124:25143   */\n      swap1\n      pop\n        /* \"#utility.yul\":24783:25149   */\n      swap2\n      swap1\n      pop\n      jump\t// out\n        /* \"#utility.yul\":25155:25574   */\n    tag_351:\n        /* \"#utility.yul\":25321:25325   */\n      0x00\n        /* \"#utility.yul\":25359:25361   */\n      0x20\n        /* \"#utility.yul\":25348:25357   */\n      dup3\n        /* \"#utility.yul\":25344:25362   */\n      add\n        /* \"#utility.yul\":25336:25362   */\n      swap1\n      pop\n        /* \"#utility.yul\":25408:25417   */\n      dup2\n        /* \"#utility.yul\":25402:25406   */\n      dup2\n        /* \"#utility.yul\":25398:25418   */\n      sub\n        /* \"#utility.yul\":25394:25395   */\n      0x00\n        /* \"#utility.yul\":25383:25392   */\n      dup4\n        /* \"#utility.yul\":25379:25396   */\n      add\n        /* \"#utility.yul\":25372:25419   */\n      mstore\n        /* \"#utility.yul\":25436:25567   */\n      tag_657\n        /* \"#utility.yul\":25562:25566   */\n      dup2\n        /* \"#utility.yul\":25436:25567   */\n      tag_431\n      jump\t// in\n    tag_657:\n        /* \"#utility.yul\":25428:25567   */\n      swap1\n      pop\n        /* \"#utility.yul\":25155:25574   */\n      swap2\n      swap1\n      pop\n      jump\t// out\n        /* \"#utility.yul\":25580:25678   */\n    tag_432:\n        /* \"#utility.yul\":25631:25637   */\n      0x00\n        /* \"#utility.yul\":25665:25670   */\n      dup2\n        /* \"#utility.yul\":25659:25671   */\n      mload\n        /* \"#utility.yul\":25649:25671   */\n      swap1\n      pop\n        /* \"#utility.yul\":25580:25678   */\n      swap2\n      swap1\n      pop\n      jump\t// out\n        /* \"#utility.yul\":25684:25831   */\n    tag_433:\n        /* \"#utility.yul\":25785:25796   */\n      0x00\n        /* \"#utility.yul\":25822:25825   */\n      dup2\n        /* \"#utility.yul\":25807:25825   */\n      swap1\n      pop\n        /* \"#utility.yul\":25684:25831   */\n      swap3\n      swap2\n      pop\n      pop\n      jump\t// out\n        /* \"#utility.yul\":25837:26083   */\n    tag_434:\n        /* \"#utility.yul\":25918:25919   */\n      0x00\n        /* \"#utility.yul\":25928:26041   */\n    tag_661:\n        /* \"#utility.yul\":25942:25948   */\n      dup4\n        /* \"#utility.yul\":25939:25940   */\n      dup2\n        /* \"#utility.yul\":25936:25949   */\n      lt\n        /* \"#utility.yul\":25928:26041   */\n      iszero\n      tag_663\n      jumpi\n        /* \"#utility.yul\":26027:26028   */\n      dup1\n        /* \"#utility.yul\":26022:26025   */\n      dup3\n        /* \"#utility.yul\":26018:26029   */\n      add\n        /* \"#utility.yul\":26012:26030   */\n      mload\n        /* \"#utility.yul\":26008:26009   */\n      dup2\n        /* \"#utility.yul\":26003:26006   */\n      dup5\n        /* \"#utility.yul\":25999:26010   */\n      add\n        /* \"#utility.yul\":25992:26031   */\n      mstore\n        /* \"#utility.yul\":25964:25966   */\n      0x20\n        /* \"#utility.yul\":25961:25962   */\n      dup2\n        /* \"#utility.yul\":25957:25967   */\n      add\n        /* \"#utility.yul\":25952:25967   */\n      swap1\n      pop\n        /* \"#utility.yul\":25928:26041   */\n      jump(tag_661)\n    tag_663:\n        /* \"#utility.yul\":26075:26076   */\n      0x00\n        /* \"#utility.yul\":26066:26072   */\n      dup5\n        /* \"#utility.yul\":26061:26064   */\n      dup5\n        /* \"#utility.yul\":26057:26073   */\n      add\n        /* \"#utility.yul\":26050:26077   */\n      mstore\n        /* \"#utility.yul\":25899:26083   */\n      pop\n        /* \"#utility.yul\":25837:26083   */\n      pop\n      pop\n      pop\n      jump\t// out\n        /* \"#utility.yul\":26089:26475   */\n    tag_435:\n        /* \"#utility.yul\":26193:26196   */\n      0x00\n        /* \"#utility.yul\":26221:26259   */\n      tag_665\n        /* \"#utility.yul\":26253:26258   */\n      dup3\n        /* \"#utility.yul\":26221:26259   */\n      tag_432\n      jump\t// in\n    tag_665:\n        /* \"#utility.yul\":26275:26363   */\n      tag_666\n        /* \"#utility.yul\":26356:26362   */\n      dup2\n        /* \"#utility.yul\":26351:26354   */\n      dup6\n        /* \"#utility.yul\":26275:26363   */\n      tag_433\n      jump\t// in\n    tag_666:\n        /* \"#utility.yul\":26268:26363   */\n      swap4\n      pop\n        /* \"#utility.yul\":26372:26437   */\n      tag_667\n        /* \"#utility.yul\":26430:26436   */\n      dup2\n        /* \"#utility.yul\":26425:26428   */\n      dup6\n        /* \"#utility.yul\":26418:26422   */\n      0x20\n        /* \"#utility.yul\":26411:26416   */\n      dup7\n        /* \"#utility.yul\":26407:26423   */\n      add\n        /* \"#utility.yul\":26372:26437   */\n      tag_434\n      jump\t// in\n    tag_667:\n        /* \"#utility.yul\":26462:26468   */\n      dup1\n        /* \"#utility.yul\":26457:26460   */\n      dup5\n        /* \"#utility.yul\":26453:26469   */\n      add\n        /* \"#utility.yul\":26446:26469   */\n      swap2\n      pop\n        /* \"#utility.yul\":26197:26475   */\n      pop\n        /* \"#utility.yul\":26089:26475   */\n      swap3\n      swap2\n      pop\n      pop\n      jump\t// out\n        /* \"#utility.yul\":26481:26752   */\n    tag_353:\n        /* \"#utility.yul\":26611:26614   */\n      0x00\n        /* \"#utility.yul\":26633:26726   */\n      tag_669\n        /* \"#utility.yul\":26722:26725   */\n      dup3\n        /* \"#utility.yul\":26713:26719   */\n      dup5\n        /* \"#utility.yul\":26633:26726   */\n      tag_435\n      jump\t// in\n    tag_669:\n        /* \"#utility.yul\":26626:26726   */\n      swap2\n      pop\n        /* \"#utility.yul\":26743:26746   */\n      dup2\n        /* \"#utility.yul\":26736:26746   */\n      swap1\n      pop\n        /* \"#utility.yul\":26481:26752   */\n      swap3\n      swap2\n      pop\n      pop\n      jump\t// out\n        /* \"#utility.yul\":26758:26937   */\n    tag_436:\n        /* \"#utility.yul\":26898:26929   */\n      0x416464726573733a2063616c6c20746f206e6f6e2d636f6e7472616374000000\n        /* \"#utility.yul\":26894:26895   */\n      0x00\n        /* \"#utility.yul\":26886:26892   */\n      dup3\n        /* \"#utility.yul\":26882:26896   */\n      add\n        /* \"#utility.yul\":26875:26930   */\n      mstore\n        /* \"#utility.yul\":26758:26937   */\n      pop\n      jump\t// out\n        /* \"#utility.yul\":26943:27309   */\n    tag_437:\n        /* \"#utility.yul\":27085:27088   */\n      0x00\n        /* \"#utility.yul\":27106:27173   */\n      tag_672\n        /* \"#utility.yul\":27170:27172   */\n      0x1d\n        /* \"#utility.yul\":27165:27168   */\n      dup4\n        /* \"#utility.yul\":27106:27173   */\n      tag_391\n      jump\t// in\n    tag_672:\n        /* \"#utility.yul\":27099:27173   */\n      swap2\n      pop\n        /* \"#utility.yul\":27182:27275   */\n      tag_673\n        /* \"#utility.yul\":27271:27274   */\n      dup3\n        /* \"#utility.yul\":27182:27275   */\n      tag_436\n      jump\t// in\n    tag_673:\n        /* \"#utility.yul\":27300:27302   */\n      0x20\n        /* \"#utility.yul\":27295:27298   */\n      dup3\n        /* \"#utility.yul\":27291:27303   */\n      add\n        /* \"#utility.yul\":27284:27303   */\n      swap1\n      pop\n        /* \"#utility.yul\":26943:27309   */\n      swap2\n      swap1\n      pop\n      jump\t// out\n        /* \"#utility.yul\":27315:27734   */\n    tag_366:\n        /* \"#utility.yul\":27481:27485   */\n      0x00\n        /* \"#utility.yul\":27519:27521   */\n      0x20\n        /* \"#utility.yul\":27508:27517   */\n      dup3\n        /* \"#utility.yul\":27504:27522   */\n      add\n        /* \"#utility.yul\":27496:27522   */\n      swap1\n      pop\n        /* \"#utility.yul\":27568:27577   */\n      dup2\n        /* \"#utility.yul\":27562:27566   */\n      dup2\n        /* \"#utility.yul\":27558:27578   */\n      sub\n        /* \"#utility.yul\":27554:27555   */\n      0x00\n        /* \"#utility.yul\":27543:27552   */\n      dup4\n        /* \"#utility.yul\":27539:27556   */\n      add\n        /* \"#utility.yul\":27532:27579   */\n      mstore\n        /* \"#utility.yul\":27596:27727   */\n      tag_675\n        /* \"#utility.yul\":27722:27726   */\n      dup2\n        /* \"#utility.yul\":27596:27727   */\n      tag_437\n      jump\t// in\n    tag_675:\n        /* \"#utility.yul\":27588:27727   */\n      swap1\n      pop\n        /* \"#utility.yul\":27315:27734   */\n      swap2\n      swap1\n      pop\n      jump\t// out\n        /* \"#utility.yul\":27740:27839   */\n    tag_438:\n        /* \"#utility.yul\":27792:27798   */\n      0x00\n        /* \"#utility.yul\":27826:27831   */\n      dup2\n        /* \"#utility.yul\":27820:27832   */\n      mload\n        /* \"#utility.yul\":27810:27832   */\n      swap1\n      pop\n        /* \"#utility.yul\":27740:27839   */\n      swap2\n      swap1\n      pop\n      jump\t// out\n        /* \"#utility.yul\":27845:27947   */\n    tag_439:\n        /* \"#utility.yul\":27886:27892   */\n      0x00\n        /* \"#utility.yul\":27937:27939   */\n      0x1f\n        /* \"#utility.yul\":27933:27940   */\n      not\n        /* \"#utility.yul\":27928:27930   */\n      0x1f\n        /* \"#utility.yul\":27921:27926   */\n      dup4\n        /* \"#utility.yul\":27917:27931   */\n      add\n        /* \"#utility.yul\":27913:27941   */\n      and\n        /* \"#utility.yul\":27903:27941   */\n      swap1\n      pop\n        /* \"#utility.yul\":27845:27947   */\n      swap2\n      swap1\n      pop\n      jump\t// out\n        /* \"#utility.yul\":27953:28330   */\n    tag_440:\n        /* \"#utility.yul\":28041:28044   */\n      0x00\n        /* \"#utility.yul\":28069:28108   */\n      tag_679\n        /* \"#utility.yul\":28102:28107   */\n      dup3\n        /* \"#utility.yul\":28069:28108   */\n      tag_438\n      jump\t// in\n    tag_679:\n        /* \"#utility.yul\":28124:28195   */\n      tag_680\n        /* \"#utility.yul\":28188:28194   */\n      dup2\n        /* \"#utility.yul\":28183:28186   */\n      dup6\n        /* \"#utility.yul\":28124:28195   */\n      tag_391\n      jump\t// in\n    tag_680:\n        /* \"#utility.yul\":28117:28195   */\n      swap4\n      pop\n        /* \"#utility.yul\":28204:28269   */\n      tag_681\n        /* \"#utility.yul\":28262:28268   */\n      dup2\n        /* \"#utility.yul\":28257:28260   */\n      dup6\n        /* \"#utility.yul\":28250:28254   */\n      0x20\n        /* \"#utility.yul\":28243:28248   */\n      dup7\n        /* \"#utility.yul\":28239:28255   */\n      add\n        /* \"#utility.yul\":28204:28269   */\n      tag_434\n      jump\t// in\n    tag_681:\n        /* \"#utility.yul\":28294:28323   */\n      tag_682\n        /* \"#utility.yul\":28316:28322   */\n      dup2\n        /* \"#utility.yul\":28294:28323   */\n      tag_439\n      jump\t// in\n    tag_682:\n        /* \"#utility.yul\":28289:28292   */\n      dup5\n        /* \"#utility.yul\":28285:28324   */\n      add\n        /* \"#utility.yul\":28278:28324   */\n      swap2\n      pop\n        /* \"#utility.yul\":28045:28330   */\n      pop\n        /* \"#utility.yul\":27953:28330   */\n      swap3\n      swap2\n      pop\n      pop\n      jump\t// out\n        /* \"#utility.yul\":28336:28649   */\n    tag_375:\n        /* \"#utility.yul\":28449:28453   */\n      0x00\n        /* \"#utility.yul\":28487:28489   */\n      0x20\n        /* \"#utility.yul\":28476:28485   */\n      dup3\n        /* \"#utility.yul\":28472:28490   */\n      add\n        /* \"#utility.yul\":28464:28490   */\n      swap1\n      pop\n        /* \"#utility.yul\":28536:28545   */\n      dup2\n        /* \"#utility.yul\":28530:28534   */\n      dup2\n        /* \"#utility.yul\":28526:28546   */\n      sub\n        /* \"#utility.yul\":28522:28523   */\n      0x00\n        /* \"#utility.yul\":28511:28520   */\n      dup4\n        /* \"#utility.yul\":28507:28524   */\n      add\n        /* \"#utility.yul\":28500:28547   */\n      mstore\n        /* \"#utility.yul\":28564:28642   */\n      tag_684\n        /* \"#utility.yul\":28637:28641   */\n      dup2\n        /* \"#utility.yul\":28628:28634   */\n      dup5\n        /* \"#utility.yul\":28564:28642   */\n      tag_440\n      jump\t// in\n    tag_684:\n        /* \"#utility.yul\":28556:28642   */\n      swap1\n      pop\n        /* \"#utility.yul\":28336:28649   */\n      swap3\n      swap2\n      pop\n      pop\n      jump\t// out\n\n    auxdata: 0xa264697066735822122047fb47b139e46bce3b010c1d12cee81698fa9dd4c0a89923969cd0d2bae7b8b764736f6c63430008120033\n}\n",
				"bytecode": {
					"linkReferences": {},
					"object": "60806040523480156200001157600080fd5b5062000032620000266200003860201b60201c565b6200004060201b60201c565b62000104565b600033905090565b60008060009054906101000a900473ffffffffffffffffffffffffffffffffffffffff169050816000806101000a81548173ffffffffffffffffffffffffffffffffffffffff021916908373ffffffffffffffffffffffffffffffffffffffff1602179055508173ffffffffffffffffffffffffffffffffffffffff168173ffffffffffffffffffffffffffffffffffffffff167f8be0079c531659141344cd1fd0a4f28419497f9722a3daafe3b4186f6b6457e060405160405180910390a35050565b612b8080620001146000396000f3fe6080604052600436106101c25760003560e01c8063715018a6116100f7578063ace1741c11610095578063f2fde38b11610064578063f2fde38b146105f9578063f3fef3a314610622578063fa09e6301461064b578063fb00f3fc14610674576101c2565b8063ace1741c1461054f578063b81df7421461057a578063ded441c2146105a5578063e985e367146105ce576101c2565b80638ce0b9d2116100d15780638ce0b9d2146104935780638da5cb5b146104d057806399b77032146104fb578063a82524b214610524576101c2565b8063715018a61461042a578063757765f81461044157806389e6ce1e1461046a576101c2565b80633f6f7ed61161016457806363b201171161013e57806363b201171461038d57806368f8fc10146103b85780636aa5b37f146103d45780636bcedf9c146103ff576101c2565b80633f6f7ed614610312578063444ad5ee1461033b5780635b10bd6a14610364576101c2565b8063226ac321116101a0578063226ac3211461026a578063249b7c19146102935780632c4e722e146102be5780633c00a36c146102e9576101c2565b80630fabdd44146101c7578063115ece4c146101f0578063204120bc1461022d575b600080fd5b3480156101d357600080fd5b506101ee60048036038101906101e99190611bd7565b61068b565b005b3480156101fc57600080fd5b5061021760048036038101906102129190611c62565b6106a8565b6040516102249190611cb1565b60405180910390f35b34801561023957600080fd5b50610254600480360381019061024f9190611ccc565b61086b565b6040516102619190611cb1565b60405180910390f35b34801561027657600080fd5b50610291600480360381019061028c9190611c62565b610883565b005b34801561029f57600080fd5b506102a8610998565b6040516102b59190611cb1565b60405180910390f35b3480156102ca57600080fd5b506102d361099e565b6040516102e09190611cb1565b60405180910390f35b3480156102f557600080fd5b50610310600480360381019061030b9190611bd7565b6109a4565b005b34801561031e57600080fd5b5061033960048036038101906103349190611bd7565b6109f6565b005b34801561034757600080fd5b50610362600480360381019061035d9190611c62565b610a08565b005b34801561037057600080fd5b5061038b60048036038101906103869190611bd7565b610ae9565b005b34801561039957600080fd5b506103a2610b0f565b6040516103af9190611cb1565b60405180910390f35b6103d260048036038101906103cd9190611c62565b610b15565b005b3480156103e057600080fd5b506103e9610ede565b6040516103f69190611cb1565b60405180910390f35b34801561040b57600080fd5b50610414610ee4565b6040516104219190611cb1565b60405180910390f35b34801561043657600080fd5b5061043f610eea565b005b34801561044d57600080fd5b5061046860048036038101906104639190611bd7565b610efe565b005b34801561047657600080fd5b50610491600480360381019061048c9190611c62565b610f10565b005b34801561049f57600080fd5b506104ba60048036038101906104b59190611ccc565b6111d3565b6040516104c79190611d14565b60405180910390f35b3480156104dc57600080fd5b506104e56111f3565b6040516104f29190611d3e565b60405180910390f35b34801561050757600080fd5b50610522600480360381019061051d9190611bd7565b61121c565b005b34801561053057600080fd5b5061053961122e565b6040516105469190611cb1565b60405180910390f35b34801561055b57600080fd5b50610564611234565b6040516105719190611cb1565b60405180910390f35b34801561058657600080fd5b5061058f61123a565b60405161059c9190611cb1565b60405180910390f35b3480156105b157600080fd5b506105cc60048036038101906105c79190611bd7565b611240565b005b3480156105da57600080fd5b506105e36112dd565b6040516105f09190611d3e565b60405180910390f35b34801561060557600080fd5b50610620600480360381019061061b9190611ccc565b611303565b005b34801561062e57600080fd5b5061064960048036038101906106449190611c62565b611386565b005b34801561065757600080fd5b50610672600480360381019061066d9190611ccc565b61144d565b005b34801561068057600080fd5b50610689611571565b005b6106936116ae565b804261069f9190611d88565b600a8190555050565b600080600073ffffffffffffffffffffffffffffffffffffffff168473ffffffffffffffffffffffffffffffffffffffff161461082557600760008573ffffffffffffffffffffffffffffffffffffffff1673ffffffffffffffffffffffffffffffffffffffff16815260200190815260200160002060009054906101000a900460ff1661076b576040517f08c379a000000000000000000000000000000000000000000000000000000000815260040161076290611e19565b60405180910390fd5b6000600860008673ffffffffffffffffffffffffffffffffffffffff1673ffffffffffffffffffffffffffffffffffffffff16815260200190815260200160002054036107b957600061081e565b600860008573ffffffffffffffffffffffffffffffffffffffff1673ffffffffffffffffffffffffffffffffffffffff16815260200190815260200160002054600354600a6108089190611f6c565b846108139190611fb7565b61081d9190612028565b5b9050610861565b60006001540361083657600061085e565b600154600354600a6108489190611f6c565b846108539190611fb7565b61085d9190612028565b5b90505b8091505092915050565b60086020528060005260406000206000915090505481565b61088b6116ae565b600760008373ffffffffffffffffffffffffffffffffffffffff1673ffffffffffffffffffffffffffffffffffffffff16815260200190815260200160002060009054906101000a900460ff16610917576040517f08c379a000000000000000000000000000000000000000000000000000000000815260040161090e90611e19565b60405180910390fd5b80600860008473ffffffffffffffffffffffffffffffffffffffff1673ffffffffffffffffffffffffffffffffffffffff168152602001908152602001600020819055507fc2d539e6a806d81b0892f23b002d25b825425d13a98bb6f486438b6b7bc0ce3a828260405161098c929190612059565b60405180910390a15050565b600a5481565b60015481565b6109ac6116ae565b3373ffffffffffffffffffffffffffffffffffffffff166108fc829081150290604051600060405180830381858888f193505050501580156109f2573d6000803e3d6000fd5b5050565b6109fe6116ae565b8060018190555050565b610a106116ae565b6001600760008473ffffffffffffffffffffffffffffffffffffffff1673ffffffffffffffffffffffffffffffffffffffff16815260200190815260200160002060006101000a81548160ff02191690831515021790555080600860008473ffffffffffffffffffffffffffffffffffffffff1673ffffffffffffffffffffffffffffffffffffffff168152602001908152602001600020819055507ff4c563a3ea86ff1f4275e8c207df0375a51963f2b831b7bf4da8be938d92876c8282604051610add929190612059565b60405180910390a15050565b610af16116ae565b4260098190555080600954610b069190611d88565b600a8190555050565b600b5481565b600954421015610b5a576040517f08c379a0000000000000000000000000000000000000000000000000000000008152600401610b51906120f4565b60405180910390fd5b600a544210610b9e576040517f08c379a0000000000000000000000000000000000000000000000000000000008152600401610b9590612160565b60405180910390fd5b60008073ffffffffffffffffffffffffffffffffffffffff168373ffffffffffffffffffffffffffffffffffffffff1603610be357610bde6000346106a8565b610bee565b610bed83836106a8565b5b905060045481600b54610c019190611d88565b1115610c42576040517f08c379a0000000000000000000000000000000000000000000000000000000008152600401610c39906121f2565b60405180910390fd5b600073ffffffffffffffffffffffffffffffffffffffff168373ffffffffffffffffffffffffffffffffffffffff1603610d0d57600654811015610cbb576040517f08c379a0000000000000000000000000000000000000000000000000000000008152600401610cb290612284565b60405180910390fd5b610d083382600260009054906101000a900473ffffffffffffffffffffffffffffffffffffffff1673ffffffffffffffffffffffffffffffffffffffff1661172c9092919063ffffffff16565b610e59565b600654811015610d52576040517f08c379a0000000000000000000000000000000000000000000000000000000008152600401610d4990612316565b60405180910390fd5b600760008473ffffffffffffffffffffffffffffffffffffffff1673ffffffffffffffffffffffffffffffffffffffff16815260200190815260200160002060009054906101000a900460ff16610dde576040517f08c379a0000000000000000000000000000000000000000000000000000000008152600401610dd590611e19565b60405180910390fd5b610e0b3330848673ffffffffffffffffffffffffffffffffffffffff166117b2909392919063ffffffff16565b610e583382600260009054906101000a900473ffffffffffffffffffffffffffffffffffffffff1673ffffffffffffffffffffffffffffffffffffffff1661172c9092919063ffffffff16565b5b80600b6000828254610e6b9190611d88565b925050819055508273ffffffffffffffffffffffffffffffffffffffff163373ffffffffffffffffffffffffffffffffffffffff167fc244d500136edffae7025aaf7fbd7a07193ac544a1d0cc3132cf2a32452d340c8484604051610ed1929190612336565b60405180910390a3505050565b60055481565b60045481565b610ef26116ae565b610efc600061183b565b565b610f066116ae565b8060058190555050565b610f186116ae565b600073ffffffffffffffffffffffffffffffffffffffff168273ffffffffffffffffffffffffffffffffffffffff1603610f87576040517f08c379a0000000000000000000000000000000000000000000000000000000008152600401610f7e906123d1565b60405180910390fd5b60008111610fca576040517f08c379a0000000000000000000000000000000000000000000000000000000008152600401610fc190612463565b60405180910390fd5b81600260006101000a81548173ffffffffffffffffffffffffffffffffffffffff021916908373ffffffffffffffffffffffffffffffffffffffff160217905550600260009054906101000a900473ffffffffffffffffffffffffffffffffffffffff1673ffffffffffffffffffffffffffffffffffffffff1663313ce5676040518163ffffffff1660e01b8152600401602060405180830381865afa158015611078573d6000803e3d6000fd5b505050506040513d601f19601f8201168201806040525081019061109c91906124bc565b60ff166003819055506110f4333083600260009054906101000a900473ffffffffffffffffffffffffffffffffffffffff1673ffffffffffffffffffffffffffffffffffffffff166117b2909392919063ffffffff16565b600260009054906101000a900473ffffffffffffffffffffffffffffffffffffffff1673ffffffffffffffffffffffffffffffffffffffff166370a08231306040518263ffffffff1660e01b815260040161114f9190611d3e565b602060405180830381865afa15801561116c573d6000803e3d6000fd5b505050506040513d601f19601f8201168201806040525081019061119091906124fe565b6004819055507f03211f0a57d24f0b52e2e0573af5be089c5faadeb55f9b90591717b0a22f7e2a82826040516111c7929190612059565b60405180910390a15050565b60076020528060005260406000206000915054906101000a900460ff1681565b60008060009054906101000a900473ffffffffffffffffffffffffffffffffffffffff16905090565b6112246116ae565b8060068190555050565b60095481565b60035481565b60065481565b6112486116ae565b600a5442101561128d576040517f08c379a00000000000000000000000000000000000000000000000000000000081526004016112849061259d565b60405180910390fd5b6112da3382600260009054906101000a900473ffffffffffffffffffffffffffffffffffffffff1673ffffffffffffffffffffffffffffffffffffffff1661172c9092919063ffffffff16565b50565b600260009054906101000a900473ffffffffffffffffffffffffffffffffffffffff1681565b61130b6116ae565b600073ffffffffffffffffffffffffffffffffffffffff168173ffffffffffffffffffffffffffffffffffffffff160361137a576040517f08c379a00000000000000000000000000000000000000000000000000000000081526004016113719061262f565b60405180910390fd5b6113838161183b565b50565b61138e6116ae565b600260009054906101000a900473ffffffffffffffffffffffffffffffffffffffff1673ffffffffffffffffffffffffffffffffffffffff168273ffffffffffffffffffffffffffffffffffffffff160361141e576040517f08c379a0000000000000000000000000000000000000000000000000000000008152600401611415906126e7565b60405180910390fd5b61144933828473ffffffffffffffffffffffffffffffffffffffff1661172c9092919063ffffffff16565b5050565b6114556116ae565b600260009054906101000a900473ffffffffffffffffffffffffffffffffffffffff1673ffffffffffffffffffffffffffffffffffffffff168173ffffffffffffffffffffffffffffffffffffffff16036114e5576040517f08c379a00000000000000000000000000000000000000000000000000000000081526004016114dc9061279f565b60405180910390fd5b60008173ffffffffffffffffffffffffffffffffffffffff166370a08231306040518263ffffffff1660e01b81526004016115209190611d3e565b602060405180830381865afa15801561153d573d6000803e3d6000fd5b505050506040513d601f19601f8201168201806040525081019061156191906124fe565b905061156d8282611386565b5050565b6115796116ae565b600a544210156115be576040517f08c379a00000000000000000000000000000000000000000000000000000000081526004016115b59061259d565b60405180910390fd5b6000600260009054906101000a900473ffffffffffffffffffffffffffffffffffffffff1673ffffffffffffffffffffffffffffffffffffffff166370a08231306040518263ffffffff1660e01b815260040161161b9190611d3e565b602060405180830381865afa158015611638573d6000803e3d6000fd5b505050506040513d601f19601f8201168201806040525081019061165c91906124fe565b90506116ab3382600260009054906101000a900473ffffffffffffffffffffffffffffffffffffffff1673ffffffffffffffffffffffffffffffffffffffff1661172c9092919063ffffffff16565b50565b6116b66118ff565b73ffffffffffffffffffffffffffffffffffffffff166116d46111f3565b73ffffffffffffffffffffffffffffffffffffffff161461172a576040517f08c379a00000000000000000000000000000000000000000000000000000000081526004016117219061280b565b60405180910390fd5b565b6117ad8363a9059cbb60e01b848460405160240161174b929190612059565b604051602081830303815290604052907bffffffffffffffffffffffffffffffffffffffffffffffffffffffff19166020820180517bffffffffffffffffffffffffffffffffffffffffffffffffffffffff8381831617835250505050611907565b505050565b611835846323b872dd60e01b8585856040516024016117d39392919061282b565b604051602081830303815290604052907bffffffffffffffffffffffffffffffffffffffffffffffffffffffff19166020820180517bffffffffffffffffffffffffffffffffffffffffffffffffffffffff8381831617835250505050611907565b50505050565b60008060009054906101000a900473ffffffffffffffffffffffffffffffffffffffff169050816000806101000a81548173ffffffffffffffffffffffffffffffffffffffff021916908373ffffffffffffffffffffffffffffffffffffffff1602179055508173ffffffffffffffffffffffffffffffffffffffff168173ffffffffffffffffffffffffffffffffffffffff167f8be0079c531659141344cd1fd0a4f28419497f9722a3daafe3b4186f6b6457e060405160405180910390a35050565b600033905090565b6000611969826040518060400160405280602081526020017f5361666545524332303a206c6f772d6c6576656c2063616c6c206661696c65648152508573ffffffffffffffffffffffffffffffffffffffff166119cf9092919063ffffffff16565b905060008151148061198b57508080602001905181019061198a919061288e565b5b6119ca576040517f08c379a00000000000000000000000000000000000000000000000000000000081526004016119c19061292d565b60405180910390fd5b505050565b60606119de84846000856119e7565b90509392505050565b606082471015611a2c576040517f08c379a0000000000000000000000000000000000000000000000000000000008152600401611a23906129bf565b60405180910390fd5b6000808673ffffffffffffffffffffffffffffffffffffffff168587604051611a559190612a50565b60006040518083038185875af1925050503d8060008114611a92576040519150601f19603f3d011682016040523d82523d6000602084013e611a97565b606091505b5091509150611aa887838387611ab4565b92505050949350505050565b60608315611b16576000835103611b0e57611ace85611b29565b611b0d576040517f08c379a0000000000000000000000000000000000000000000000000000000008152600401611b0490612ab3565b60405180910390fd5b5b829050611b21565b611b208383611b4c565b5b949350505050565b6000808273ffffffffffffffffffffffffffffffffffffffff163b119050919050565b600082511115611b5f5781518083602001fd5b806040517f08c379a0000000000000000000000000000000000000000000000000000000008152600401611b939190612b28565b60405180910390fd5b600080fd5b6000819050919050565b611bb481611ba1565b8114611bbf57600080fd5b50565b600081359050611bd181611bab565b92915050565b600060208284031215611bed57611bec611b9c565b5b6000611bfb84828501611bc2565b91505092915050565b600073ffffffffffffffffffffffffffffffffffffffff82169050919050565b6000611c2f82611c04565b9050919050565b611c3f81611c24565b8114611c4a57600080fd5b50565b600081359050611c5c81611c36565b92915050565b60008060408385031215611c7957611c78611b9c565b5b6000611c8785828601611c4d565b9250506020611c9885828601611bc2565b9150509250929050565b611cab81611ba1565b82525050565b6000602082019050611cc66000830184611ca2565b92915050565b600060208284031215611ce257611ce1611b9c565b5b6000611cf084828501611c4d565b91505092915050565b60008115159050919050565b611d0e81611cf9565b82525050565b6000602082019050611d296000830184611d05565b92915050565b611d3881611c24565b82525050565b6000602082019050611d536000830184611d2f565b92915050565b7f4e487b7100000000000000000000000000000000000000000000000000000000600052601160045260246000fd5b6000611d9382611ba1565b9150611d9e83611ba1565b9250828201905080821115611db657611db5611d59565b5b92915050565b600082825260208201905092915050565b7f50726573616c653a20546f6b656e206e6f742077686974656c69737465640000600082015250565b6000611e03601e83611dbc565b9150611e0e82611dcd565b602082019050919050565b60006020820190508181036000830152611e3281611df6565b9050919050565b60008160011c9050919050565b6000808291508390505b6001851115611e9057808604811115611e6c57611e6b611d59565b5b6001851615611e7b5780820291505b8081029050611e8985611e39565b9450611e50565b94509492505050565b600082611ea95760019050611f65565b81611eb75760009050611f65565b8160018114611ecd5760028114611ed757611f06565b6001915050611f65565b60ff841115611ee957611ee8611d59565b5b8360020a915084821115611f0057611eff611d59565b5b50611f65565b5060208310610133831016604e8410600b8410161715611f3b5782820a905083811115611f3657611f35611d59565b5b611f65565b611f488484846001611e46565b92509050818404811115611f5f57611f5e611d59565b5b81810290505b9392505050565b6000611f7782611ba1565b9150611f8283611ba1565b9250611faf7fffffffffffffffffffffffffffffffffffffffffffffffffffffffffffffffff8484611e99565b905092915050565b6000611fc282611ba1565b9150611fcd83611ba1565b9250828202611fdb81611ba1565b91508282048414831517611ff257611ff1611d59565b5b5092915050565b7f4e487b7100000000000000000000000000000000000000000000000000000000600052601260045260246000fd5b600061203382611ba1565b915061203e83611ba1565b92508261204e5761204d611ff9565b5b828204905092915050565b600060408201905061206e6000830185611d2f565b61207b6020830184611ca2565b9392505050565b7f50726573616c653a2050726573616c6520686173206e6f74207374617274656460008201527f2079657400000000000000000000000000000000000000000000000000000000602082015250565b60006120de602483611dbc565b91506120e982612082565b604082019050919050565b6000602082019050818103600083015261210d816120d1565b9050919050565b7f50726573616c653a2050726573616c652068617320656e646564000000000000600082015250565b600061214a601a83611dbc565b915061215582612114565b602082019050919050565b600060208201905081810360008301526121798161213d565b9050919050565b7f50726573616c653a20546f74616c20546f6b656e2053616c652052656163686560008201527f6421000000000000000000000000000000000000000000000000000000000000602082015250565b60006121dc602283611dbc565b91506121e782612180565b604082019050919050565b6000602082019050818103600083015261220b816121cf565b9050919050565b7f50726573616c653a20546f6b656e20616d6f756e742062656c6f77206d696e2060008201527f627579206c696d69740000000000000000000000000000000000000000000000602082015250565b600061226e602983611dbc565b915061227982612212565b604082019050919050565b6000602082019050818103600083015261229d81612261565b9050919050565b7f50726573616c653a20416d6f756e742062656c6f77206d696e20627579206c6960008201527f6d69740000000000000000000000000000000000000000000000000000000000602082015250565b6000612300602383611dbc565b915061230b826122a4565b604082019050919050565b6000602082019050818103600083015261232f816122f3565b9050919050565b600060408201905061234b6000830185611ca2565b6123586020830184611ca2565b9392505050565b7f50726573616c653a2053616c6520746f6b656e2063616e6e6f74206265207a6560008201527f726f206164647265737300000000000000000000000000000000000000000000602082015250565b60006123bb602a83611dbc565b91506123c68261235f565b604082019050919050565b600060208201905081810360008301526123ea816123ae565b9050919050565b7f50726573616c653a20546f74616c20746f6b656e7320666f722073616c65206360008201527f616e6e6f74206265207a65726f00000000000000000000000000000000000000602082015250565b600061244d602d83611dbc565b9150612458826123f1565b604082019050919050565b6000602082019050818103600083015261247c81612440565b9050919050565b600060ff82169050919050565b61249981612483565b81146124a457600080fd5b50565b6000815190506124b681612490565b92915050565b6000602082840312156124d2576124d1611b9c565b5b60006124e0848285016124a7565b91505092915050565b6000815190506124f881611bab565b92915050565b60006020828403121561251457612513611b9c565b5b6000612522848285016124e9565b91505092915050565b7f50726573616c653a2050726573616c6520686173206e6f7420656e646564207960008201527f6574000000000000000000000000000000000000000000000000000000000000602082015250565b6000612587602283611dbc565b91506125928261252b565b604082019050919050565b600060208201905081810360008301526125b68161257a565b9050919050565b7f4f776e61626c653a206e6577206f776e657220697320746865207a65726f206160008201527f6464726573730000000000000000000000000000000000000000000000000000602082015250565b6000612619602683611dbc565b9150612624826125bd565b604082019050919050565b600060208201905081810360008301526126488161260c565b9050919050565b7f50726573616c653a2043616e6e6f742077697468647261772073616c6520746f60008201527f6b656e20776974682074686973206d6574686f642c207573652077697468647260208201527f617753616c65546f6b656e282920696e73746561640000000000000000000000604082015250565b60006126d1605583611dbc565b91506126dc8261264f565b606082019050919050565b60006020820190508181036000830152612700816126c4565b9050919050565b7f50726573616c653a2043616e6e6f742077697468647261772073616c6520746f60008201527f6b656e20776974682074686973206d6574686f642c207573652077697468647260208201527f6177416c6c53616c65546f6b656e282920696e73746561640000000000000000604082015250565b6000612789605883611dbc565b915061279482612707565b606082019050919050565b600060208201905081810360008301526127b88161277c565b9050919050565b7f4f776e61626c653a2063616c6c6572206973206e6f7420746865206f776e6572600082015250565b60006127f5602083611dbc565b9150612800826127bf565b602082019050919050565b60006020820190508181036000830152612824816127e8565b9050919050565b60006060820190506128406000830186611d2f565b61284d6020830185611d2f565b61285a6040830184611ca2565b949350505050565b61286b81611cf9565b811461287657600080fd5b50565b60008151905061288881612862565b92915050565b6000602082840312156128a4576128a3611b9c565b5b60006128b284828501612879565b91505092915050565b7f5361666545524332303a204552433230206f7065726174696f6e20646964206e60008201527f6f74207375636365656400000000000000000000000000000000000000000000602082015250565b6000612917602a83611dbc565b9150612922826128bb565b604082019050919050565b600060208201905081810360008301526129468161290a565b9050919050565b7f416464726573733a20696e73756666696369656e742062616c616e636520666f60008201527f722063616c6c0000000000000000000000000000000000000000000000000000602082015250565b60006129a9602683611dbc565b91506129b48261294d565b604082019050919050565b600060208201905081810360008301526129d88161299c565b9050919050565b600081519050919050565b600081905092915050565b60005b83811015612a135780820151818401526020810190506129f8565b60008484015250505050565b6000612a2a826129df565b612a3481856129ea565b9350612a448185602086016129f5565b80840191505092915050565b6000612a5c8284612a1f565b915081905092915050565b7f416464726573733a2063616c6c20746f206e6f6e2d636f6e7472616374000000600082015250565b6000612a9d601d83611dbc565b9150612aa882612a67565b602082019050919050565b60006020820190508181036000830152612acc81612a90565b9050919050565b600081519050919050565b6000601f19601f8301169050919050565b6000612afa82612ad3565b612b048185611dbc565b9350612b148185602086016129f5565b612b1d81612ade565b840191505092915050565b60006020820190508181036000830152612b428184612aef565b90509291505056fea264697066735822122047fb47b139e46bce3b010c1d12cee81698fa9dd4c0a89923969cd0d2bae7b8b764736f6c63430008120033",
					"opcodes": "PUSH1 0x80 PUSH1 0x40 MSTORE CALLVALUE DUP1 ISZERO PUSH3 0x11 JUMPI PUSH1 0x0 DUP1 REVERT JUMPDEST POP PUSH3 0x32 PUSH3 0x26 PUSH3 0x38 PUSH1 0x20 SHL PUSH1 0x20 SHR JUMP JUMPDEST PUSH3 0x40 PUSH1 0x20 SHL PUSH1 0x20 SHR JUMP JUMPDEST PUSH3 0x104 JUMP JUMPDEST PUSH1 0x0 CALLER SWAP1 POP SWAP1 JUMP JUMPDEST PUSH1 0x0 DUP1 PUSH1 0x0 SWAP1 SLOAD SWAP1 PUSH2 0x100 EXP SWAP1 DIV PUSH20 0xFFFFFFFFFFFFFFFFFFFFFFFFFFFFFFFFFFFFFFFF AND SWAP1 POP DUP2 PUSH1 0x0 DUP1 PUSH2 0x100 EXP DUP2 SLOAD DUP2 PUSH20 0xFFFFFFFFFFFFFFFFFFFFFFFFFFFFFFFFFFFFFFFF MUL NOT AND SWAP1 DUP4 PUSH20 0xFFFFFFFFFFFFFFFFFFFFFFFFFFFFFFFFFFFFFFFF AND MUL OR SWAP1 SSTORE POP DUP2 PUSH20 0xFFFFFFFFFFFFFFFFFFFFFFFFFFFFFFFFFFFFFFFF AND DUP2 PUSH20 0xFFFFFFFFFFFFFFFFFFFFFFFFFFFFFFFFFFFFFFFF AND PUSH32 0x8BE0079C531659141344CD1FD0A4F28419497F9722A3DAAFE3B4186F6B6457E0 PUSH1 0x40 MLOAD PUSH1 0x40 MLOAD DUP1 SWAP2 SUB SWAP1 LOG3 POP POP JUMP JUMPDEST PUSH2 0x2B80 DUP1 PUSH3 0x114 PUSH1 0x0 CODECOPY PUSH1 0x0 RETURN INVALID PUSH1 0x80 PUSH1 0x40 MSTORE PUSH1 0x4 CALLDATASIZE LT PUSH2 0x1C2 JUMPI PUSH1 0x0 CALLDATALOAD PUSH1 0xE0 SHR DUP1 PUSH4 0x715018A6 GT PUSH2 0xF7 JUMPI DUP1 PUSH4 0xACE1741C GT PUSH2 0x95 JUMPI DUP1 PUSH4 0xF2FDE38B GT PUSH2 0x64 JUMPI DUP1 PUSH4 0xF2FDE38B EQ PUSH2 0x5F9 JUMPI DUP1 PUSH4 0xF3FEF3A3 EQ PUSH2 0x622 JUMPI DUP1 PUSH4 0xFA09E630 EQ PUSH2 0x64B JUMPI DUP1 PUSH4 0xFB00F3FC EQ PUSH2 0x674 JUMPI PUSH2 0x1C2 JUMP JUMPDEST DUP1 PUSH4 0xACE1741C EQ PUSH2 0x54F JUMPI DUP1 PUSH4 0xB81DF742 EQ PUSH2 0x57A JUMPI DUP1 PUSH4 0xDED441C2 EQ PUSH2 0x5A5 JUMPI DUP1 PUSH4 0xE985E367 EQ PUSH2 0x5CE JUMPI PUSH2 0x1C2 JUMP JUMPDEST DUP1 PUSH4 0x8CE0B9D2 GT PUSH2 0xD1 JUMPI DUP1 PUSH4 0x8CE0B9D2 EQ PUSH2 0x493 JUMPI DUP1 PUSH4 0x8DA5CB5B EQ PUSH2 0x4D0 JUMPI DUP1 PUSH4 0x99B77032 EQ PUSH2 0x4FB JUMPI DUP1 PUSH4 0xA82524B2 EQ PUSH2 0x524 JUMPI PUSH2 0x1C2 JUMP JUMPDEST DUP1 PUSH4 0x715018A6 EQ PUSH2 0x42A JUMPI DUP1 PUSH4 0x757765F8 EQ PUSH2 0x441 JUMPI DUP1 PUSH4 0x89E6CE1E EQ PUSH2 0x46A JUMPI PUSH2 0x1C2 JUMP JUMPDEST DUP1 PUSH4 0x3F6F7ED6 GT PUSH2 0x164 JUMPI DUP1 PUSH4 0x63B20117 GT PUSH2 0x13E JUMPI DUP1 PUSH4 0x63B20117 EQ PUSH2 0x38D JUMPI DUP1 PUSH4 0x68F8FC10 EQ PUSH2 0x3B8 JUMPI DUP1 PUSH4 0x6AA5B37F EQ PUSH2 0x3D4 JUMPI DUP1 PUSH4 0x6BCEDF9C EQ PUSH2 0x3FF JUMPI PUSH2 0x1C2 JUMP JUMPDEST DUP1 PUSH4 0x3F6F7ED6 EQ PUSH2 0x312 JUMPI DUP1 PUSH4 0x444AD5EE EQ PUSH2 0x33B JUMPI DUP1 PUSH4 0x5B10BD6A EQ PUSH2 0x364 JUMPI PUSH2 0x1C2 JUMP JUMPDEST DUP1 PUSH4 0x226AC321 GT PUSH2 0x1A0 JUMPI DUP1 PUSH4 0x226AC321 EQ PUSH2 0x26A JUMPI DUP1 PUSH4 0x249B7C19 EQ PUSH2 0x293 JUMPI DUP1 PUSH4 0x2C4E722E EQ PUSH2 0x2BE JUMPI DUP1 PUSH4 0x3C00A36C EQ PUSH2 0x2E9 JUMPI PUSH2 0x1C2 JUMP JUMPDEST DUP1 PUSH4 0xFABDD44 EQ PUSH2 0x1C7 JUMPI DUP1 PUSH4 0x115ECE4C EQ PUSH2 0x1F0 JUMPI DUP1 PUSH4 0x204120BC EQ PUSH2 0x22D JUMPI JUMPDEST PUSH1 0x0 DUP1 REVERT JUMPDEST CALLVALUE DUP1 ISZERO PUSH2 0x1D3 JUMPI PUSH1 0x0 DUP1 REVERT JUMPDEST POP PUSH2 0x1EE PUSH1 0x4 DUP1 CALLDATASIZE SUB DUP2 ADD SWAP1 PUSH2 0x1E9 SWAP2 SWAP1 PUSH2 0x1BD7 JUMP JUMPDEST PUSH2 0x68B JUMP JUMPDEST STOP JUMPDEST CALLVALUE DUP1 ISZERO PUSH2 0x1FC JUMPI PUSH1 0x0 DUP1 REVERT JUMPDEST POP PUSH2 0x217 PUSH1 0x4 DUP1 CALLDATASIZE SUB DUP2 ADD SWAP1 PUSH2 0x212 SWAP2 SWAP1 PUSH2 0x1C62 JUMP JUMPDEST PUSH2 0x6A8 JUMP JUMPDEST PUSH1 0x40 MLOAD PUSH2 0x224 SWAP2 SWAP1 PUSH2 0x1CB1 JUMP JUMPDEST PUSH1 0x40 MLOAD DUP1 SWAP2 SUB SWAP1 RETURN JUMPDEST CALLVALUE DUP1 ISZERO PUSH2 0x239 JUMPI PUSH1 0x0 DUP1 REVERT JUMPDEST POP PUSH2 0x254 PUSH1 0x4 DUP1 CALLDATASIZE SUB DUP2 ADD SWAP1 PUSH2 0x24F SWAP2 SWAP1 PUSH2 0x1CCC JUMP JUMPDEST PUSH2 0x86B JUMP JUMPDEST PUSH1 0x40 MLOAD PUSH2 0x261 SWAP2 SWAP1 PUSH2 0x1CB1 JUMP JUMPDEST PUSH1 0x40 MLOAD DUP1 SWAP2 SUB SWAP1 RETURN JUMPDEST CALLVALUE DUP1 ISZERO PUSH2 0x276 JUMPI PUSH1 0x0 DUP1 REVERT JUMPDEST POP PUSH2 0x291 PUSH1 0x4 DUP1 CALLDATASIZE SUB DUP2 ADD SWAP1 PUSH2 0x28C SWAP2 SWAP1 PUSH2 0x1C62 JUMP JUMPDEST PUSH2 0x883 JUMP JUMPDEST STOP JUMPDEST CALLVALUE DUP1 ISZERO PUSH2 0x29F JUMPI PUSH1 0x0 DUP1 REVERT JUMPDEST POP PUSH2 0x2A8 PUSH2 0x998 JUMP JUMPDEST PUSH1 0x40 MLOAD PUSH2 0x2B5 SWAP2 SWAP1 PUSH2 0x1CB1 JUMP JUMPDEST PUSH1 0x40 MLOAD DUP1 SWAP2 SUB SWAP1 RETURN JUMPDEST CALLVALUE DUP1 ISZERO PUSH2 0x2CA JUMPI PUSH1 0x0 DUP1 REVERT JUMPDEST POP PUSH2 0x2D3 PUSH2 0x99E JUMP JUMPDEST PUSH1 0x40 MLOAD PUSH2 0x2E0 SWAP2 SWAP1 PUSH2 0x1CB1 JUMP JUMPDEST PUSH1 0x40 MLOAD DUP1 SWAP2 SUB SWAP1 RETURN JUMPDEST CALLVALUE DUP1 ISZERO PUSH2 0x2F5 JUMPI PUSH1 0x0 DUP1 REVERT JUMPDEST POP PUSH2 0x310 PUSH1 0x4 DUP1 CALLDATASIZE SUB DUP2 ADD SWAP1 PUSH2 0x30B SWAP2 SWAP1 PUSH2 0x1BD7 JUMP JUMPDEST PUSH2 0x9A4 JUMP JUMPDEST STOP JUMPDEST CALLVALUE DUP1 ISZERO PUSH2 0x31E JUMPI PUSH1 0x0 DUP1 REVERT JUMPDEST POP PUSH2 0x339 PUSH1 0x4 DUP1 CALLDATASIZE SUB DUP2 ADD SWAP1 PUSH2 0x334 SWAP2 SWAP1 PUSH2 0x1BD7 JUMP JUMPDEST PUSH2 0x9F6 JUMP JUMPDEST STOP JUMPDEST CALLVALUE DUP1 ISZERO PUSH2 0x347 JUMPI PUSH1 0x0 DUP1 REVERT JUMPDEST POP PUSH2 0x362 PUSH1 0x4 DUP1 CALLDATASIZE SUB DUP2 ADD SWAP1 PUSH2 0x35D SWAP2 SWAP1 PUSH2 0x1C62 JUMP JUMPDEST PUSH2 0xA08 JUMP JUMPDEST STOP JUMPDEST CALLVALUE DUP1 ISZERO PUSH2 0x370 JUMPI PUSH1 0x0 DUP1 REVERT JUMPDEST POP PUSH2 0x38B PUSH1 0x4 DUP1 CALLDATASIZE SUB DUP2 ADD SWAP1 PUSH2 0x386 SWAP2 SWAP1 PUSH2 0x1BD7 JUMP JUMPDEST PUSH2 0xAE9 JUMP JUMPDEST STOP JUMPDEST CALLVALUE DUP1 ISZERO PUSH2 0x399 JUMPI PUSH1 0x0 DUP1 REVERT JUMPDEST POP PUSH2 0x3A2 PUSH2 0xB0F JUMP JUMPDEST PUSH1 0x40 MLOAD PUSH2 0x3AF SWAP2 SWAP1 PUSH2 0x1CB1 JUMP JUMPDEST PUSH1 0x40 MLOAD DUP1 SWAP2 SUB SWAP1 RETURN JUMPDEST PUSH2 0x3D2 PUSH1 0x4 DUP1 CALLDATASIZE SUB DUP2 ADD SWAP1 PUSH2 0x3CD SWAP2 SWAP1 PUSH2 0x1C62 JUMP JUMPDEST PUSH2 0xB15 JUMP JUMPDEST STOP JUMPDEST CALLVALUE DUP1 ISZERO PUSH2 0x3E0 JUMPI PUSH1 0x0 DUP1 REVERT JUMPDEST POP PUSH2 0x3E9 PUSH2 0xEDE JUMP JUMPDEST PUSH1 0x40 MLOAD PUSH2 0x3F6 SWAP2 SWAP1 PUSH2 0x1CB1 JUMP JUMPDEST PUSH1 0x40 MLOAD DUP1 SWAP2 SUB SWAP1 RETURN JUMPDEST CALLVALUE DUP1 ISZERO PUSH2 0x40B JUMPI PUSH1 0x0 DUP1 REVERT JUMPDEST POP PUSH2 0x414 PUSH2 0xEE4 JUMP JUMPDEST PUSH1 0x40 MLOAD PUSH2 0x421 SWAP2 SWAP1 PUSH2 0x1CB1 JUMP JUMPDEST PUSH1 0x40 MLOAD DUP1 SWAP2 SUB SWAP1 RETURN JUMPDEST CALLVALUE DUP1 ISZERO PUSH2 0x436 JUMPI PUSH1 0x0 DUP1 REVERT JUMPDEST POP PUSH2 0x43F PUSH2 0xEEA JUMP JUMPDEST STOP JUMPDEST CALLVALUE DUP1 ISZERO PUSH2 0x44D JUMPI PUSH1 0x0 DUP1 REVERT JUMPDEST POP PUSH2 0x468 PUSH1 0x4 DUP1 CALLDATASIZE SUB DUP2 ADD SWAP1 PUSH2 0x463 SWAP2 SWAP1 PUSH2 0x1BD7 JUMP JUMPDEST PUSH2 0xEFE JUMP JUMPDEST STOP JUMPDEST CALLVALUE DUP1 ISZERO PUSH2 0x476 JUMPI PUSH1 0x0 DUP1 REVERT JUMPDEST POP PUSH2 0x491 PUSH1 0x4 DUP1 CALLDATASIZE SUB DUP2 ADD SWAP1 PUSH2 0x48C SWAP2 SWAP1 PUSH2 0x1C62 JUMP JUMPDEST PUSH2 0xF10 JUMP JUMPDEST STOP JUMPDEST CALLVALUE DUP1 ISZERO PUSH2 0x49F JUMPI PUSH1 0x0 DUP1 REVERT JUMPDEST POP PUSH2 0x4BA PUSH1 0x4 DUP1 CALLDATASIZE SUB DUP2 ADD SWAP1 PUSH2 0x4B5 SWAP2 SWAP1 PUSH2 0x1CCC JUMP JUMPDEST PUSH2 0x11D3 JUMP JUMPDEST PUSH1 0x40 MLOAD PUSH2 0x4C7 SWAP2 SWAP1 PUSH2 0x1D14 JUMP JUMPDEST PUSH1 0x40 MLOAD DUP1 SWAP2 SUB SWAP1 RETURN JUMPDEST CALLVALUE DUP1 ISZERO PUSH2 0x4DC JUMPI PUSH1 0x0 DUP1 REVERT JUMPDEST POP PUSH2 0x4E5 PUSH2 0x11F3 JUMP JUMPDEST PUSH1 0x40 MLOAD PUSH2 0x4F2 SWAP2 SWAP1 PUSH2 0x1D3E JUMP JUMPDEST PUSH1 0x40 MLOAD DUP1 SWAP2 SUB SWAP1 RETURN JUMPDEST CALLVALUE DUP1 ISZERO PUSH2 0x507 JUMPI PUSH1 0x0 DUP1 REVERT JUMPDEST POP PUSH2 0x522 PUSH1 0x4 DUP1 CALLDATASIZE SUB DUP2 ADD SWAP1 PUSH2 0x51D SWAP2 SWAP1 PUSH2 0x1BD7 JUMP JUMPDEST PUSH2 0x121C JUMP JUMPDEST STOP JUMPDEST CALLVALUE DUP1 ISZERO PUSH2 0x530 JUMPI PUSH1 0x0 DUP1 REVERT JUMPDEST POP PUSH2 0x539 PUSH2 0x122E JUMP JUMPDEST PUSH1 0x40 MLOAD PUSH2 0x546 SWAP2 SWAP1 PUSH2 0x1CB1 JUMP JUMPDEST PUSH1 0x40 MLOAD DUP1 SWAP2 SUB SWAP1 RETURN JUMPDEST CALLVALUE DUP1 ISZERO PUSH2 0x55B JUMPI PUSH1 0x0 DUP1 REVERT JUMPDEST POP PUSH2 0x564 PUSH2 0x1234 JUMP JUMPDEST PUSH1 0x40 MLOAD PUSH2 0x571 SWAP2 SWAP1 PUSH2 0x1CB1 JUMP JUMPDEST PUSH1 0x40 MLOAD DUP1 SWAP2 SUB SWAP1 RETURN JUMPDEST CALLVALUE DUP1 ISZERO PUSH2 0x586 JUMPI PUSH1 0x0 DUP1 REVERT JUMPDEST POP PUSH2 0x58F PUSH2 0x123A JUMP JUMPDEST PUSH1 0x40 MLOAD PUSH2 0x59C SWAP2 SWAP1 PUSH2 0x1CB1 JUMP JUMPDEST PUSH1 0x40 MLOAD DUP1 SWAP2 SUB SWAP1 RETURN JUMPDEST CALLVALUE DUP1 ISZERO PUSH2 0x5B1 JUMPI PUSH1 0x0 DUP1 REVERT JUMPDEST POP PUSH2 0x5CC PUSH1 0x4 DUP1 CALLDATASIZE SUB DUP2 ADD SWAP1 PUSH2 0x5C7 SWAP2 SWAP1 PUSH2 0x1BD7 JUMP JUMPDEST PUSH2 0x1240 JUMP JUMPDEST STOP JUMPDEST CALLVALUE DUP1 ISZERO PUSH2 0x5DA JUMPI PUSH1 0x0 DUP1 REVERT JUMPDEST POP PUSH2 0x5E3 PUSH2 0x12DD JUMP JUMPDEST PUSH1 0x40 MLOAD PUSH2 0x5F0 SWAP2 SWAP1 PUSH2 0x1D3E JUMP JUMPDEST PUSH1 0x40 MLOAD DUP1 SWAP2 SUB SWAP1 RETURN JUMPDEST CALLVALUE DUP1 ISZERO PUSH2 0x605 JUMPI PUSH1 0x0 DUP1 REVERT JUMPDEST POP PUSH2 0x620 PUSH1 0x4 DUP1 CALLDATASIZE SUB DUP2 ADD SWAP1 PUSH2 0x61B SWAP2 SWAP1 PUSH2 0x1CCC JUMP JUMPDEST PUSH2 0x1303 JUMP JUMPDEST STOP JUMPDEST CALLVALUE DUP1 ISZERO PUSH2 0x62E JUMPI PUSH1 0x0 DUP1 REVERT JUMPDEST POP PUSH2 0x649 PUSH1 0x4 DUP1 CALLDATASIZE SUB DUP2 ADD SWAP1 PUSH2 0x644 SWAP2 SWAP1 PUSH2 0x1C62 JUMP JUMPDEST PUSH2 0x1386 JUMP JUMPDEST STOP JUMPDEST CALLVALUE DUP1 ISZERO PUSH2 0x657 JUMPI PUSH1 0x0 DUP1 REVERT JUMPDEST POP PUSH2 0x672 PUSH1 0x4 DUP1 CALLDATASIZE SUB DUP2 ADD SWAP1 PUSH2 0x66D SWAP2 SWAP1 PUSH2 0x1CCC JUMP JUMPDEST PUSH2 0x144D JUMP JUMPDEST STOP JUMPDEST CALLVALUE DUP1 ISZERO PUSH2 0x680 JUMPI PUSH1 0x0 DUP1 REVERT JUMPDEST POP PUSH2 0x689 PUSH2 0x1571 JUMP JUMPDEST STOP JUMPDEST PUSH2 0x693 PUSH2 0x16AE JUMP JUMPDEST DUP1 TIMESTAMP PUSH2 0x69F SWAP2 SWAP1 PUSH2 0x1D88 JUMP JUMPDEST PUSH1 0xA DUP2 SWAP1 SSTORE POP POP JUMP JUMPDEST PUSH1 0x0 DUP1 PUSH1 0x0 PUSH20 0xFFFFFFFFFFFFFFFFFFFFFFFFFFFFFFFFFFFFFFFF AND DUP5 PUSH20 0xFFFFFFFFFFFFFFFFFFFFFFFFFFFFFFFFFFFFFFFF AND EQ PUSH2 0x825 JUMPI PUSH1 0x7 PUSH1 0x0 DUP6 PUSH20 0xFFFFFFFFFFFFFFFFFFFFFFFFFFFFFFFFFFFFFFFF AND PUSH20 0xFFFFFFFFFFFFFFFFFFFFFFFFFFFFFFFFFFFFFFFF AND DUP2 MSTORE PUSH1 0x20 ADD SWAP1 DUP2 MSTORE PUSH1 0x20 ADD PUSH1 0x0 KECCAK256 PUSH1 0x0 SWAP1 SLOAD SWAP1 PUSH2 0x100 EXP SWAP1 DIV PUSH1 0xFF AND PUSH2 0x76B JUMPI PUSH1 0x40 MLOAD PUSH32 0x8C379A000000000000000000000000000000000000000000000000000000000 DUP2 MSTORE PUSH1 0x4 ADD PUSH2 0x762 SWAP1 PUSH2 0x1E19 JUMP JUMPDEST PUSH1 0x40 MLOAD DUP1 SWAP2 SUB SWAP1 REVERT JUMPDEST PUSH1 0x0 PUSH1 0x8 PUSH1 0x0 DUP7 PUSH20 0xFFFFFFFFFFFFFFFFFFFFFFFFFFFFFFFFFFFFFFFF AND PUSH20 0xFFFFFFFFFFFFFFFFFFFFFFFFFFFFFFFFFFFFFFFF AND DUP2 MSTORE PUSH1 0x20 ADD SWAP1 DUP2 MSTORE PUSH1 0x20 ADD PUSH1 0x0 KECCAK256 SLOAD SUB PUSH2 0x7B9 JUMPI PUSH1 0x0 PUSH2 0x81E JUMP JUMPDEST PUSH1 0x8 PUSH1 0x0 DUP6 PUSH20 0xFFFFFFFFFFFFFFFFFFFFFFFFFFFFFFFFFFFFFFFF AND PUSH20 0xFFFFFFFFFFFFFFFFFFFFFFFFFFFFFFFFFFFFFFFF AND DUP2 MSTORE PUSH1 0x20 ADD SWAP1 DUP2 MSTORE PUSH1 0x20 ADD PUSH1 0x0 KECCAK256 SLOAD PUSH1 0x3 SLOAD PUSH1 0xA PUSH2 0x808 SWAP2 SWAP1 PUSH2 0x1F6C JUMP JUMPDEST DUP5 PUSH2 0x813 SWAP2 SWAP1 PUSH2 0x1FB7 JUMP JUMPDEST PUSH2 0x81D SWAP2 SWAP1 PUSH2 0x2028 JUMP JUMPDEST JUMPDEST SWAP1 POP PUSH2 0x861 JUMP JUMPDEST PUSH1 0x0 PUSH1 0x1 SLOAD SUB PUSH2 0x836 JUMPI PUSH1 0x0 PUSH2 0x85E JUMP JUMPDEST PUSH1 0x1 SLOAD PUSH1 0x3 SLOAD PUSH1 0xA PUSH2 0x848 SWAP2 SWAP1 PUSH2 0x1F6C JUMP JUMPDEST DUP5 PUSH2 0x853 SWAP2 SWAP1 PUSH2 0x1FB7 JUMP JUMPDEST PUSH2 0x85D SWAP2 SWAP1 PUSH2 0x2028 JUMP JUMPDEST JUMPDEST SWAP1 POP JUMPDEST DUP1 SWAP2 POP POP SWAP3 SWAP2 POP POP JUMP JUMPDEST PUSH1 0x8 PUSH1 0x20 MSTORE DUP1 PUSH1 0x0 MSTORE PUSH1 0x40 PUSH1 0x0 KECCAK256 PUSH1 0x0 SWAP2 POP SWAP1 POP SLOAD DUP2 JUMP JUMPDEST PUSH2 0x88B PUSH2 0x16AE JUMP JUMPDEST PUSH1 0x7 PUSH1 0x0 DUP4 PUSH20 0xFFFFFFFFFFFFFFFFFFFFFFFFFFFFFFFFFFFFFFFF AND PUSH20 0xFFFFFFFFFFFFFFFFFFFFFFFFFFFFFFFFFFFFFFFF AND DUP2 MSTORE PUSH1 0x20 ADD SWAP1 DUP2 MSTORE PUSH1 0x20 ADD PUSH1 0x0 KECCAK256 PUSH1 0x0 SWAP1 SLOAD SWAP1 PUSH2 0x100 EXP SWAP1 DIV PUSH1 0xFF AND PUSH2 0x917 JUMPI PUSH1 0x40 MLOAD PUSH32 0x8C379A000000000000000000000000000000000000000000000000000000000 DUP2 MSTORE PUSH1 0x4 ADD PUSH2 0x90E SWAP1 PUSH2 0x1E19 JUMP JUMPDEST PUSH1 0x40 MLOAD DUP1 SWAP2 SUB SWAP1 REVERT JUMPDEST DUP1 PUSH1 0x8 PUSH1 0x0 DUP5 PUSH20 0xFFFFFFFFFFFFFFFFFFFFFFFFFFFFFFFFFFFFFFFF AND PUSH20 0xFFFFFFFFFFFFFFFFFFFFFFFFFFFFFFFFFFFFFFFF AND DUP2 MSTORE PUSH1 0x20 ADD SWAP1 DUP2 MSTORE PUSH1 0x20 ADD PUSH1 0x0 KECCAK256 DUP2 SWAP1 SSTORE POP PUSH32 0xC2D539E6A806D81B0892F23B002D25B825425D13A98BB6F486438B6B7BC0CE3A DUP3 DUP3 PUSH1 0x40 MLOAD PUSH2 0x98C SWAP3 SWAP2 SWAP1 PUSH2 0x2059 JUMP JUMPDEST PUSH1 0x40 MLOAD DUP1 SWAP2 SUB SWAP1 LOG1 POP POP JUMP JUMPDEST PUSH1 0xA SLOAD DUP2 JUMP JUMPDEST PUSH1 0x1 SLOAD DUP2 JUMP JUMPDEST PUSH2 0x9AC PUSH2 0x16AE JUMP JUMPDEST CALLER PUSH20 0xFFFFFFFFFFFFFFFFFFFFFFFFFFFFFFFFFFFFFFFF AND PUSH2 0x8FC DUP3 SWAP1 DUP2 ISZERO MUL SWAP1 PUSH1 0x40 MLOAD PUSH1 0x0 PUSH1 0x40 MLOAD DUP1 DUP4 SUB DUP2 DUP6 DUP9 DUP9 CALL SWAP4 POP POP POP POP ISZERO DUP1 ISZERO PUSH2 0x9F2 JUMPI RETURNDATASIZE PUSH1 0x0 DUP1 RETURNDATACOPY RETURNDATASIZE PUSH1 0x0 REVERT JUMPDEST POP POP JUMP JUMPDEST PUSH2 0x9FE PUSH2 0x16AE JUMP JUMPDEST DUP1 PUSH1 0x1 DUP2 SWAP1 SSTORE POP POP JUMP JUMPDEST PUSH2 0xA10 PUSH2 0x16AE JUMP JUMPDEST PUSH1 0x1 PUSH1 0x7 PUSH1 0x0 DUP5 PUSH20 0xFFFFFFFFFFFFFFFFFFFFFFFFFFFFFFFFFFFFFFFF AND PUSH20 0xFFFFFFFFFFFFFFFFFFFFFFFFFFFFFFFFFFFFFFFF AND DUP2 MSTORE PUSH1 0x20 ADD SWAP1 DUP2 MSTORE PUSH1 0x20 ADD PUSH1 0x0 KECCAK256 PUSH1 0x0 PUSH2 0x100 EXP DUP2 SLOAD DUP2 PUSH1 0xFF MUL NOT AND SWAP1 DUP4 ISZERO ISZERO MUL OR SWAP1 SSTORE POP DUP1 PUSH1 0x8 PUSH1 0x0 DUP5 PUSH20 0xFFFFFFFFFFFFFFFFFFFFFFFFFFFFFFFFFFFFFFFF AND PUSH20 0xFFFFFFFFFFFFFFFFFFFFFFFFFFFFFFFFFFFFFFFF AND DUP2 MSTORE PUSH1 0x20 ADD SWAP1 DUP2 MSTORE PUSH1 0x20 ADD PUSH1 0x0 KECCAK256 DUP2 SWAP1 SSTORE POP PUSH32 0xF4C563A3EA86FF1F4275E8C207DF0375A51963F2B831B7BF4DA8BE938D92876C DUP3 DUP3 PUSH1 0x40 MLOAD PUSH2 0xADD SWAP3 SWAP2 SWAP1 PUSH2 0x2059 JUMP JUMPDEST PUSH1 0x40 MLOAD DUP1 SWAP2 SUB SWAP1 LOG1 POP POP JUMP JUMPDEST PUSH2 0xAF1 PUSH2 0x16AE JUMP JUMPDEST TIMESTAMP PUSH1 0x9 DUP2 SWAP1 SSTORE POP DUP1 PUSH1 0x9 SLOAD PUSH2 0xB06 SWAP2 SWAP1 PUSH2 0x1D88 JUMP JUMPDEST PUSH1 0xA DUP2 SWAP1 SSTORE POP POP JUMP JUMPDEST PUSH1 0xB SLOAD DUP2 JUMP JUMPDEST PUSH1 0x9 SLOAD TIMESTAMP LT ISZERO PUSH2 0xB5A JUMPI PUSH1 0x40 MLOAD PUSH32 0x8C379A000000000000000000000000000000000000000000000000000000000 DUP2 MSTORE PUSH1 0x4 ADD PUSH2 0xB51 SWAP1 PUSH2 0x20F4 JUMP JUMPDEST PUSH1 0x40 MLOAD DUP1 SWAP2 SUB SWAP1 REVERT JUMPDEST PUSH1 0xA SLOAD TIMESTAMP LT PUSH2 0xB9E JUMPI PUSH1 0x40 MLOAD PUSH32 0x8C379A000000000000000000000000000000000000000000000000000000000 DUP2 MSTORE PUSH1 0x4 ADD PUSH2 0xB95 SWAP1 PUSH2 0x2160 JUMP JUMPDEST PUSH1 0x40 MLOAD DUP1 SWAP2 SUB SWAP1 REVERT JUMPDEST PUSH1 0x0 DUP1 PUSH20 0xFFFFFFFFFFFFFFFFFFFFFFFFFFFFFFFFFFFFFFFF AND DUP4 PUSH20 0xFFFFFFFFFFFFFFFFFFFFFFFFFFFFFFFFFFFFFFFF AND SUB PUSH2 0xBE3 JUMPI PUSH2 0xBDE PUSH1 0x0 CALLVALUE PUSH2 0x6A8 JUMP JUMPDEST PUSH2 0xBEE JUMP JUMPDEST PUSH2 0xBED DUP4 DUP4 PUSH2 0x6A8 JUMP JUMPDEST JUMPDEST SWAP1 POP PUSH1 0x4 SLOAD DUP2 PUSH1 0xB SLOAD PUSH2 0xC01 SWAP2 SWAP1 PUSH2 0x1D88 JUMP JUMPDEST GT ISZERO PUSH2 0xC42 JUMPI PUSH1 0x40 MLOAD PUSH32 0x8C379A000000000000000000000000000000000000000000000000000000000 DUP2 MSTORE PUSH1 0x4 ADD PUSH2 0xC39 SWAP1 PUSH2 0x21F2 JUMP JUMPDEST PUSH1 0x40 MLOAD DUP1 SWAP2 SUB SWAP1 REVERT JUMPDEST PUSH1 0x0 PUSH20 0xFFFFFFFFFFFFFFFFFFFFFFFFFFFFFFFFFFFFFFFF AND DUP4 PUSH20 0xFFFFFFFFFFFFFFFFFFFFFFFFFFFFFFFFFFFFFFFF AND SUB PUSH2 0xD0D JUMPI PUSH1 0x6 SLOAD DUP2 LT ISZERO PUSH2 0xCBB JUMPI PUSH1 0x40 MLOAD PUSH32 0x8C379A000000000000000000000000000000000000000000000000000000000 DUP2 MSTORE PUSH1 0x4 ADD PUSH2 0xCB2 SWAP1 PUSH2 0x2284 JUMP JUMPDEST PUSH1 0x40 MLOAD DUP1 SWAP2 SUB SWAP1 REVERT JUMPDEST PUSH2 0xD08 CALLER DUP3 PUSH1 0x2 PUSH1 0x0 SWAP1 SLOAD SWAP1 PUSH2 0x100 EXP SWAP1 DIV PUSH20 0xFFFFFFFFFFFFFFFFFFFFFFFFFFFFFFFFFFFFFFFF AND PUSH20 0xFFFFFFFFFFFFFFFFFFFFFFFFFFFFFFFFFFFFFFFF AND PUSH2 0x172C SWAP1 SWAP3 SWAP2 SWAP1 PUSH4 0xFFFFFFFF AND JUMP JUMPDEST PUSH2 0xE59 JUMP JUMPDEST PUSH1 0x6 SLOAD DUP2 LT ISZERO PUSH2 0xD52 JUMPI PUSH1 0x40 MLOAD PUSH32 0x8C379A000000000000000000000000000000000000000000000000000000000 DUP2 MSTORE PUSH1 0x4 ADD PUSH2 0xD49 SWAP1 PUSH2 0x2316 JUMP JUMPDEST PUSH1 0x40 MLOAD DUP1 SWAP2 SUB SWAP1 REVERT JUMPDEST PUSH1 0x7 PUSH1 0x0 DUP5 PUSH20 0xFFFFFFFFFFFFFFFFFFFFFFFFFFFFFFFFFFFFFFFF AND PUSH20 0xFFFFFFFFFFFFFFFFFFFFFFFFFFFFFFFFFFFFFFFF AND DUP2 MSTORE PUSH1 0x20 ADD SWAP1 DUP2 MSTORE PUSH1 0x20 ADD PUSH1 0x0 KECCAK256 PUSH1 0x0 SWAP1 SLOAD SWAP1 PUSH2 0x100 EXP SWAP1 DIV PUSH1 0xFF AND PUSH2 0xDDE JUMPI PUSH1 0x40 MLOAD PUSH32 0x8C379A000000000000000000000000000000000000000000000000000000000 DUP2 MSTORE PUSH1 0x4 ADD PUSH2 0xDD5 SWAP1 PUSH2 0x1E19 JUMP JUMPDEST PUSH1 0x40 MLOAD DUP1 SWAP2 SUB SWAP1 REVERT JUMPDEST PUSH2 0xE0B CALLER ADDRESS DUP5 DUP7 PUSH20 0xFFFFFFFFFFFFFFFFFFFFFFFFFFFFFFFFFFFFFFFF AND PUSH2 0x17B2 SWAP1 SWAP4 SWAP3 SWAP2 SWAP1 PUSH4 0xFFFFFFFF AND JUMP JUMPDEST PUSH2 0xE58 CALLER DUP3 PUSH1 0x2 PUSH1 0x0 SWAP1 SLOAD SWAP1 PUSH2 0x100 EXP SWAP1 DIV PUSH20 0xFFFFFFFFFFFFFFFFFFFFFFFFFFFFFFFFFFFFFFFF AND PUSH20 0xFFFFFFFFFFFFFFFFFFFFFFFFFFFFFFFFFFFFFFFF AND PUSH2 0x172C SWAP1 SWAP3 SWAP2 SWAP1 PUSH4 0xFFFFFFFF AND JUMP JUMPDEST JUMPDEST DUP1 PUSH1 0xB PUSH1 0x0 DUP3 DUP3 SLOAD PUSH2 0xE6B SWAP2 SWAP1 PUSH2 0x1D88 JUMP JUMPDEST SWAP3 POP POP DUP2 SWAP1 SSTORE POP DUP3 PUSH20 0xFFFFFFFFFFFFFFFFFFFFFFFFFFFFFFFFFFFFFFFF AND CALLER PUSH20 0xFFFFFFFFFFFFFFFFFFFFFFFFFFFFFFFFFFFFFFFF AND PUSH32 0xC244D500136EDFFAE7025AAF7FBD7A07193AC544A1D0CC3132CF2A32452D340C DUP5 DUP5 PUSH1 0x40 MLOAD PUSH2 0xED1 SWAP3 SWAP2 SWAP1 PUSH2 0x2336 JUMP JUMPDEST PUSH1 0x40 MLOAD DUP1 SWAP2 SUB SWAP1 LOG3 POP POP POP JUMP JUMPDEST PUSH1 0x5 SLOAD DUP2 JUMP JUMPDEST PUSH1 0x4 SLOAD DUP2 JUMP JUMPDEST PUSH2 0xEF2 PUSH2 0x16AE JUMP JUMPDEST PUSH2 0xEFC PUSH1 0x0 PUSH2 0x183B JUMP JUMPDEST JUMP JUMPDEST PUSH2 0xF06 PUSH2 0x16AE JUMP JUMPDEST DUP1 PUSH1 0x5 DUP2 SWAP1 SSTORE POP POP JUMP JUMPDEST PUSH2 0xF18 PUSH2 0x16AE JUMP JUMPDEST PUSH1 0x0 PUSH20 0xFFFFFFFFFFFFFFFFFFFFFFFFFFFFFFFFFFFFFFFF AND DUP3 PUSH20 0xFFFFFFFFFFFFFFFFFFFFFFFFFFFFFFFFFFFFFFFF AND SUB PUSH2 0xF87 JUMPI PUSH1 0x40 MLOAD PUSH32 0x8C379A000000000000000000000000000000000000000000000000000000000 DUP2 MSTORE PUSH1 0x4 ADD PUSH2 0xF7E SWAP1 PUSH2 0x23D1 JUMP JUMPDEST PUSH1 0x40 MLOAD DUP1 SWAP2 SUB SWAP1 REVERT JUMPDEST PUSH1 0x0 DUP2 GT PUSH2 0xFCA JUMPI PUSH1 0x40 MLOAD PUSH32 0x8C379A000000000000000000000000000000000000000000000000000000000 DUP2 MSTORE PUSH1 0x4 ADD PUSH2 0xFC1 SWAP1 PUSH2 0x2463 JUMP JUMPDEST PUSH1 0x40 MLOAD DUP1 SWAP2 SUB SWAP1 REVERT JUMPDEST DUP2 PUSH1 0x2 PUSH1 0x0 PUSH2 0x100 EXP DUP2 SLOAD DUP2 PUSH20 0xFFFFFFFFFFFFFFFFFFFFFFFFFFFFFFFFFFFFFFFF MUL NOT AND SWAP1 DUP4 PUSH20 0xFFFFFFFFFFFFFFFFFFFFFFFFFFFFFFFFFFFFFFFF AND MUL OR SWAP1 SSTORE POP PUSH1 0x2 PUSH1 0x0 SWAP1 SLOAD SWAP1 PUSH2 0x100 EXP SWAP1 DIV PUSH20 0xFFFFFFFFFFFFFFFFFFFFFFFFFFFFFFFFFFFFFFFF AND PUSH20 0xFFFFFFFFFFFFFFFFFFFFFFFFFFFFFFFFFFFFFFFF AND PUSH4 0x313CE567 PUSH1 0x40 MLOAD DUP2 PUSH4 0xFFFFFFFF AND PUSH1 0xE0 SHL DUP2 MSTORE PUSH1 0x4 ADD PUSH1 0x20 PUSH1 0x40 MLOAD DUP1 DUP4 SUB DUP2 DUP7 GAS STATICCALL ISZERO DUP1 ISZERO PUSH2 0x1078 JUMPI RETURNDATASIZE PUSH1 0x0 DUP1 RETURNDATACOPY RETURNDATASIZE PUSH1 0x0 REVERT JUMPDEST POP POP POP POP PUSH1 0x40 MLOAD RETURNDATASIZE PUSH1 0x1F NOT PUSH1 0x1F DUP3 ADD AND DUP3 ADD DUP1 PUSH1 0x40 MSTORE POP DUP2 ADD SWAP1 PUSH2 0x109C SWAP2 SWAP1 PUSH2 0x24BC JUMP JUMPDEST PUSH1 0xFF AND PUSH1 0x3 DUP2 SWAP1 SSTORE POP PUSH2 0x10F4 CALLER ADDRESS DUP4 PUSH1 0x2 PUSH1 0x0 SWAP1 SLOAD SWAP1 PUSH2 0x100 EXP SWAP1 DIV PUSH20 0xFFFFFFFFFFFFFFFFFFFFFFFFFFFFFFFFFFFFFFFF AND PUSH20 0xFFFFFFFFFFFFFFFFFFFFFFFFFFFFFFFFFFFFFFFF AND PUSH2 0x17B2 SWAP1 SWAP4 SWAP3 SWAP2 SWAP1 PUSH4 0xFFFFFFFF AND JUMP JUMPDEST PUSH1 0x2 PUSH1 0x0 SWAP1 SLOAD SWAP1 PUSH2 0x100 EXP SWAP1 DIV PUSH20 0xFFFFFFFFFFFFFFFFFFFFFFFFFFFFFFFFFFFFFFFF AND PUSH20 0xFFFFFFFFFFFFFFFFFFFFFFFFFFFFFFFFFFFFFFFF AND PUSH4 0x70A08231 ADDRESS PUSH1 0x40 MLOAD DUP3 PUSH4 0xFFFFFFFF AND PUSH1 0xE0 SHL DUP2 MSTORE PUSH1 0x4 ADD PUSH2 0x114F SWAP2 SWAP1 PUSH2 0x1D3E JUMP JUMPDEST PUSH1 0x20 PUSH1 0x40 MLOAD DUP1 DUP4 SUB DUP2 DUP7 GAS STATICCALL ISZERO DUP1 ISZERO PUSH2 0x116C JUMPI RETURNDATASIZE PUSH1 0x0 DUP1 RETURNDATACOPY RETURNDATASIZE PUSH1 0x0 REVERT JUMPDEST POP POP POP POP PUSH1 0x40 MLOAD RETURNDATASIZE PUSH1 0x1F NOT PUSH1 0x1F DUP3 ADD AND DUP3 ADD DUP1 PUSH1 0x40 MSTORE POP DUP2 ADD SWAP1 PUSH2 0x1190 SWAP2 SWAP1 PUSH2 0x24FE JUMP JUMPDEST PUSH1 0x4 DUP2 SWAP1 SSTORE POP PUSH32 0x3211F0A57D24F0B52E2E0573AF5BE089C5FAADEB55F9B90591717B0A22F7E2A DUP3 DUP3 PUSH1 0x40 MLOAD PUSH2 0x11C7 SWAP3 SWAP2 SWAP1 PUSH2 0x2059 JUMP JUMPDEST PUSH1 0x40 MLOAD DUP1 SWAP2 SUB SWAP1 LOG1 POP POP JUMP JUMPDEST PUSH1 0x7 PUSH1 0x20 MSTORE DUP1 PUSH1 0x0 MSTORE PUSH1 0x40 PUSH1 0x0 KECCAK256 PUSH1 0x0 SWAP2 POP SLOAD SWAP1 PUSH2 0x100 EXP SWAP1 DIV PUSH1 0xFF AND DUP2 JUMP JUMPDEST PUSH1 0x0 DUP1 PUSH1 0x0 SWAP1 SLOAD SWAP1 PUSH2 0x100 EXP SWAP1 DIV PUSH20 0xFFFFFFFFFFFFFFFFFFFFFFFFFFFFFFFFFFFFFFFF AND SWAP1 POP SWAP1 JUMP JUMPDEST PUSH2 0x1224 PUSH2 0x16AE JUMP JUMPDEST DUP1 PUSH1 0x6 DUP2 SWAP1 SSTORE POP POP JUMP JUMPDEST PUSH1 0x9 SLOAD DUP2 JUMP JUMPDEST PUSH1 0x3 SLOAD DUP2 JUMP JUMPDEST PUSH1 0x6 SLOAD DUP2 JUMP JUMPDEST PUSH2 0x1248 PUSH2 0x16AE JUMP JUMPDEST PUSH1 0xA SLOAD TIMESTAMP LT ISZERO PUSH2 0x128D JUMPI PUSH1 0x40 MLOAD PUSH32 0x8C379A000000000000000000000000000000000000000000000000000000000 DUP2 MSTORE PUSH1 0x4 ADD PUSH2 0x1284 SWAP1 PUSH2 0x259D JUMP JUMPDEST PUSH1 0x40 MLOAD DUP1 SWAP2 SUB SWAP1 REVERT JUMPDEST PUSH2 0x12DA CALLER DUP3 PUSH1 0x2 PUSH1 0x0 SWAP1 SLOAD SWAP1 PUSH2 0x100 EXP SWAP1 DIV PUSH20 0xFFFFFFFFFFFFFFFFFFFFFFFFFFFFFFFFFFFFFFFF AND PUSH20 0xFFFFFFFFFFFFFFFFFFFFFFFFFFFFFFFFFFFFFFFF AND PUSH2 0x172C SWAP1 SWAP3 SWAP2 SWAP1 PUSH4 0xFFFFFFFF AND JUMP JUMPDEST POP JUMP JUMPDEST PUSH1 0x2 PUSH1 0x0 SWAP1 SLOAD SWAP1 PUSH2 0x100 EXP SWAP1 DIV PUSH20 0xFFFFFFFFFFFFFFFFFFFFFFFFFFFFFFFFFFFFFFFF AND DUP2 JUMP JUMPDEST PUSH2 0x130B PUSH2 0x16AE JUMP JUMPDEST PUSH1 0x0 PUSH20 0xFFFFFFFFFFFFFFFFFFFFFFFFFFFFFFFFFFFFFFFF AND DUP2 PUSH20 0xFFFFFFFFFFFFFFFFFFFFFFFFFFFFFFFFFFFFFFFF AND SUB PUSH2 0x137A JUMPI PUSH1 0x40 MLOAD PUSH32 0x8C379A000000000000000000000000000000000000000000000000000000000 DUP2 MSTORE PUSH1 0x4 ADD PUSH2 0x1371 SWAP1 PUSH2 0x262F JUMP JUMPDEST PUSH1 0x40 MLOAD DUP1 SWAP2 SUB SWAP1 REVERT JUMPDEST PUSH2 0x1383 DUP2 PUSH2 0x183B JUMP JUMPDEST POP JUMP JUMPDEST PUSH2 0x138E PUSH2 0x16AE JUMP JUMPDEST PUSH1 0x2 PUSH1 0x0 SWAP1 SLOAD SWAP1 PUSH2 0x100 EXP SWAP1 DIV PUSH20 0xFFFFFFFFFFFFFFFFFFFFFFFFFFFFFFFFFFFFFFFF AND PUSH20 0xFFFFFFFFFFFFFFFFFFFFFFFFFFFFFFFFFFFFFFFF AND DUP3 PUSH20 0xFFFFFFFFFFFFFFFFFFFFFFFFFFFFFFFFFFFFFFFF AND SUB PUSH2 0x141E JUMPI PUSH1 0x40 MLOAD PUSH32 0x8C379A000000000000000000000000000000000000000000000000000000000 DUP2 MSTORE PUSH1 0x4 ADD PUSH2 0x1415 SWAP1 PUSH2 0x26E7 JUMP JUMPDEST PUSH1 0x40 MLOAD DUP1 SWAP2 SUB SWAP1 REVERT JUMPDEST PUSH2 0x1449 CALLER DUP3 DUP5 PUSH20 0xFFFFFFFFFFFFFFFFFFFFFFFFFFFFFFFFFFFFFFFF AND PUSH2 0x172C SWAP1 SWAP3 SWAP2 SWAP1 PUSH4 0xFFFFFFFF AND JUMP JUMPDEST POP POP JUMP JUMPDEST PUSH2 0x1455 PUSH2 0x16AE JUMP JUMPDEST PUSH1 0x2 PUSH1 0x0 SWAP1 SLOAD SWAP1 PUSH2 0x100 EXP SWAP1 DIV PUSH20 0xFFFFFFFFFFFFFFFFFFFFFFFFFFFFFFFFFFFFFFFF AND PUSH20 0xFFFFFFFFFFFFFFFFFFFFFFFFFFFFFFFFFFFFFFFF AND DUP2 PUSH20 0xFFFFFFFFFFFFFFFFFFFFFFFFFFFFFFFFFFFFFFFF AND SUB PUSH2 0x14E5 JUMPI PUSH1 0x40 MLOAD PUSH32 0x8C379A000000000000000000000000000000000000000000000000000000000 DUP2 MSTORE PUSH1 0x4 ADD PUSH2 0x14DC SWAP1 PUSH2 0x279F JUMP JUMPDEST PUSH1 0x40 MLOAD DUP1 SWAP2 SUB SWAP1 REVERT JUMPDEST PUSH1 0x0 DUP2 PUSH20 0xFFFFFFFFFFFFFFFFFFFFFFFFFFFFFFFFFFFFFFFF AND PUSH4 0x70A08231 ADDRESS PUSH1 0x40 MLOAD DUP3 PUSH4 0xFFFFFFFF AND PUSH1 0xE0 SHL DUP2 MSTORE PUSH1 0x4 ADD PUSH2 0x1520 SWAP2 SWAP1 PUSH2 0x1D3E JUMP JUMPDEST PUSH1 0x20 PUSH1 0x40 MLOAD DUP1 DUP4 SUB DUP2 DUP7 GAS STATICCALL ISZERO DUP1 ISZERO PUSH2 0x153D JUMPI RETURNDATASIZE PUSH1 0x0 DUP1 RETURNDATACOPY RETURNDATASIZE PUSH1 0x0 REVERT JUMPDEST POP POP POP POP PUSH1 0x40 MLOAD RETURNDATASIZE PUSH1 0x1F NOT PUSH1 0x1F DUP3 ADD AND DUP3 ADD DUP1 PUSH1 0x40 MSTORE POP DUP2 ADD SWAP1 PUSH2 0x1561 SWAP2 SWAP1 PUSH2 0x24FE JUMP JUMPDEST SWAP1 POP PUSH2 0x156D DUP3 DUP3 PUSH2 0x1386 JUMP JUMPDEST POP POP JUMP JUMPDEST PUSH2 0x1579 PUSH2 0x16AE JUMP JUMPDEST PUSH1 0xA SLOAD TIMESTAMP LT ISZERO PUSH2 0x15BE JUMPI PUSH1 0x40 MLOAD PUSH32 0x8C379A000000000000000000000000000000000000000000000000000000000 DUP2 MSTORE PUSH1 0x4 ADD PUSH2 0x15B5 SWAP1 PUSH2 0x259D JUMP JUMPDEST PUSH1 0x40 MLOAD DUP1 SWAP2 SUB SWAP1 REVERT JUMPDEST PUSH1 0x0 PUSH1 0x2 PUSH1 0x0 SWAP1 SLOAD SWAP1 PUSH2 0x100 EXP SWAP1 DIV PUSH20 0xFFFFFFFFFFFFFFFFFFFFFFFFFFFFFFFFFFFFFFFF AND PUSH20 0xFFFFFFFFFFFFFFFFFFFFFFFFFFFFFFFFFFFFFFFF AND PUSH4 0x70A08231 ADDRESS PUSH1 0x40 MLOAD DUP3 PUSH4 0xFFFFFFFF AND PUSH1 0xE0 SHL DUP2 MSTORE PUSH1 0x4 ADD PUSH2 0x161B SWAP2 SWAP1 PUSH2 0x1D3E JUMP JUMPDEST PUSH1 0x20 PUSH1 0x40 MLOAD DUP1 DUP4 SUB DUP2 DUP7 GAS STATICCALL ISZERO DUP1 ISZERO PUSH2 0x1638 JUMPI RETURNDATASIZE PUSH1 0x0 DUP1 RETURNDATACOPY RETURNDATASIZE PUSH1 0x0 REVERT JUMPDEST POP POP POP POP PUSH1 0x40 MLOAD RETURNDATASIZE PUSH1 0x1F NOT PUSH1 0x1F DUP3 ADD AND DUP3 ADD DUP1 PUSH1 0x40 MSTORE POP DUP2 ADD SWAP1 PUSH2 0x165C SWAP2 SWAP1 PUSH2 0x24FE JUMP JUMPDEST SWAP1 POP PUSH2 0x16AB CALLER DUP3 PUSH1 0x2 PUSH1 0x0 SWAP1 SLOAD SWAP1 PUSH2 0x100 EXP SWAP1 DIV PUSH20 0xFFFFFFFFFFFFFFFFFFFFFFFFFFFFFFFFFFFFFFFF AND PUSH20 0xFFFFFFFFFFFFFFFFFFFFFFFFFFFFFFFFFFFFFFFF AND PUSH2 0x172C SWAP1 SWAP3 SWAP2 SWAP1 PUSH4 0xFFFFFFFF AND JUMP JUMPDEST POP JUMP JUMPDEST PUSH2 0x16B6 PUSH2 0x18FF JUMP JUMPDEST PUSH20 0xFFFFFFFFFFFFFFFFFFFFFFFFFFFFFFFFFFFFFFFF AND PUSH2 0x16D4 PUSH2 0x11F3 JUMP JUMPDEST PUSH20 0xFFFFFFFFFFFFFFFFFFFFFFFFFFFFFFFFFFFFFFFF AND EQ PUSH2 0x172A JUMPI PUSH1 0x40 MLOAD PUSH32 0x8C379A000000000000000000000000000000000000000000000000000000000 DUP2 MSTORE PUSH1 0x4 ADD PUSH2 0x1721 SWAP1 PUSH2 0x280B JUMP JUMPDEST PUSH1 0x40 MLOAD DUP1 SWAP2 SUB SWAP1 REVERT JUMPDEST JUMP JUMPDEST PUSH2 0x17AD DUP4 PUSH4 0xA9059CBB PUSH1 0xE0 SHL DUP5 DUP5 PUSH1 0x40 MLOAD PUSH1 0x24 ADD PUSH2 0x174B SWAP3 SWAP2 SWAP1 PUSH2 0x2059 JUMP JUMPDEST PUSH1 0x40 MLOAD PUSH1 0x20 DUP2 DUP4 SUB SUB DUP2 MSTORE SWAP1 PUSH1 0x40 MSTORE SWAP1 PUSH28 0xFFFFFFFFFFFFFFFFFFFFFFFFFFFFFFFFFFFFFFFFFFFFFFFFFFFFFFFF NOT AND PUSH1 0x20 DUP3 ADD DUP1 MLOAD PUSH28 0xFFFFFFFFFFFFFFFFFFFFFFFFFFFFFFFFFFFFFFFFFFFFFFFFFFFFFFFF DUP4 DUP2 DUP4 AND OR DUP4 MSTORE POP POP POP POP PUSH2 0x1907 JUMP JUMPDEST POP POP POP JUMP JUMPDEST PUSH2 0x1835 DUP5 PUSH4 0x23B872DD PUSH1 0xE0 SHL DUP6 DUP6 DUP6 PUSH1 0x40 MLOAD PUSH1 0x24 ADD PUSH2 0x17D3 SWAP4 SWAP3 SWAP2 SWAP1 PUSH2 0x282B JUMP JUMPDEST PUSH1 0x40 MLOAD PUSH1 0x20 DUP2 DUP4 SUB SUB DUP2 MSTORE SWAP1 PUSH1 0x40 MSTORE SWAP1 PUSH28 0xFFFFFFFFFFFFFFFFFFFFFFFFFFFFFFFFFFFFFFFFFFFFFFFFFFFFFFFF NOT AND PUSH1 0x20 DUP3 ADD DUP1 MLOAD PUSH28 0xFFFFFFFFFFFFFFFFFFFFFFFFFFFFFFFFFFFFFFFFFFFFFFFFFFFFFFFF DUP4 DUP2 DUP4 AND OR DUP4 MSTORE POP POP POP POP PUSH2 0x1907 JUMP JUMPDEST POP POP POP POP JUMP JUMPDEST PUSH1 0x0 DUP1 PUSH1 0x0 SWAP1 SLOAD SWAP1 PUSH2 0x100 EXP SWAP1 DIV PUSH20 0xFFFFFFFFFFFFFFFFFFFFFFFFFFFFFFFFFFFFFFFF AND SWAP1 POP DUP2 PUSH1 0x0 DUP1 PUSH2 0x100 EXP DUP2 SLOAD DUP2 PUSH20 0xFFFFFFFFFFFFFFFFFFFFFFFFFFFFFFFFFFFFFFFF MUL NOT AND SWAP1 DUP4 PUSH20 0xFFFFFFFFFFFFFFFFFFFFFFFFFFFFFFFFFFFFFFFF AND MUL OR SWAP1 SSTORE POP DUP2 PUSH20 0xFFFFFFFFFFFFFFFFFFFFFFFFFFFFFFFFFFFFFFFF AND DUP2 PUSH20 0xFFFFFFFFFFFFFFFFFFFFFFFFFFFFFFFFFFFFFFFF AND PUSH32 0x8BE0079C531659141344CD1FD0A4F28419497F9722A3DAAFE3B4186F6B6457E0 PUSH1 0x40 MLOAD PUSH1 0x40 MLOAD DUP1 SWAP2 SUB SWAP1 LOG3 POP POP JUMP JUMPDEST PUSH1 0x0 CALLER SWAP1 POP SWAP1 JUMP JUMPDEST PUSH1 0x0 PUSH2 0x1969 DUP3 PUSH1 0x40 MLOAD DUP1 PUSH1 0x40 ADD PUSH1 0x40 MSTORE DUP1 PUSH1 0x20 DUP2 MSTORE PUSH1 0x20 ADD PUSH32 0x5361666545524332303A206C6F772D6C6576656C2063616C6C206661696C6564 DUP2 MSTORE POP DUP6 PUSH20 0xFFFFFFFFFFFFFFFFFFFFFFFFFFFFFFFFFFFFFFFF AND PUSH2 0x19CF SWAP1 SWAP3 SWAP2 SWAP1 PUSH4 0xFFFFFFFF AND JUMP JUMPDEST SWAP1 POP PUSH1 0x0 DUP2 MLOAD EQ DUP1 PUSH2 0x198B JUMPI POP DUP1 DUP1 PUSH1 0x20 ADD SWAP1 MLOAD DUP2 ADD SWAP1 PUSH2 0x198A SWAP2 SWAP1 PUSH2 0x288E JUMP JUMPDEST JUMPDEST PUSH2 0x19CA JUMPI PUSH1 0x40 MLOAD PUSH32 0x8C379A000000000000000000000000000000000000000000000000000000000 DUP2 MSTORE PUSH1 0x4 ADD PUSH2 0x19C1 SWAP1 PUSH2 0x292D JUMP JUMPDEST PUSH1 0x40 MLOAD DUP1 SWAP2 SUB SWAP1 REVERT JUMPDEST POP POP POP JUMP JUMPDEST PUSH1 0x60 PUSH2 0x19DE DUP5 DUP5 PUSH1 0x0 DUP6 PUSH2 0x19E7 JUMP JUMPDEST SWAP1 POP SWAP4 SWAP3 POP POP POP JUMP JUMPDEST PUSH1 0x60 DUP3 SELFBALANCE LT ISZERO PUSH2 0x1A2C JUMPI PUSH1 0x40 MLOAD PUSH32 0x8C379A000000000000000000000000000000000000000000000000000000000 DUP2 MSTORE PUSH1 0x4 ADD PUSH2 0x1A23 SWAP1 PUSH2 0x29BF JUMP JUMPDEST PUSH1 0x40 MLOAD DUP1 SWAP2 SUB SWAP1 REVERT JUMPDEST PUSH1 0x0 DUP1 DUP7 PUSH20 0xFFFFFFFFFFFFFFFFFFFFFFFFFFFFFFFFFFFFFFFF AND DUP6 DUP8 PUSH1 0x40 MLOAD PUSH2 0x1A55 SWAP2 SWAP1 PUSH2 0x2A50 JUMP JUMPDEST PUSH1 0x0 PUSH1 0x40 MLOAD DUP1 DUP4 SUB DUP2 DUP6 DUP8 GAS CALL SWAP3 POP POP POP RETURNDATASIZE DUP1 PUSH1 0x0 DUP2 EQ PUSH2 0x1A92 JUMPI PUSH1 0x40 MLOAD SWAP2 POP PUSH1 0x1F NOT PUSH1 0x3F RETURNDATASIZE ADD AND DUP3 ADD PUSH1 0x40 MSTORE RETURNDATASIZE DUP3 MSTORE RETURNDATASIZE PUSH1 0x0 PUSH1 0x20 DUP5 ADD RETURNDATACOPY PUSH2 0x1A97 JUMP JUMPDEST PUSH1 0x60 SWAP2 POP JUMPDEST POP SWAP2 POP SWAP2 POP PUSH2 0x1AA8 DUP8 DUP4 DUP4 DUP8 PUSH2 0x1AB4 JUMP JUMPDEST SWAP3 POP POP POP SWAP5 SWAP4 POP POP POP POP JUMP JUMPDEST PUSH1 0x60 DUP4 ISZERO PUSH2 0x1B16 JUMPI PUSH1 0x0 DUP4 MLOAD SUB PUSH2 0x1B0E JUMPI PUSH2 0x1ACE DUP6 PUSH2 0x1B29 JUMP JUMPDEST PUSH2 0x1B0D JUMPI PUSH1 0x40 MLOAD PUSH32 0x8C379A000000000000000000000000000000000000000000000000000000000 DUP2 MSTORE PUSH1 0x4 ADD PUSH2 0x1B04 SWAP1 PUSH2 0x2AB3 JUMP JUMPDEST PUSH1 0x40 MLOAD DUP1 SWAP2 SUB SWAP1 REVERT JUMPDEST JUMPDEST DUP3 SWAP1 POP PUSH2 0x1B21 JUMP JUMPDEST PUSH2 0x1B20 DUP4 DUP4 PUSH2 0x1B4C JUMP JUMPDEST JUMPDEST SWAP5 SWAP4 POP POP POP POP JUMP JUMPDEST PUSH1 0x0 DUP1 DUP3 PUSH20 0xFFFFFFFFFFFFFFFFFFFFFFFFFFFFFFFFFFFFFFFF AND EXTCODESIZE GT SWAP1 POP SWAP2 SWAP1 POP JUMP JUMPDEST PUSH1 0x0 DUP3 MLOAD GT ISZERO PUSH2 0x1B5F JUMPI DUP2 MLOAD DUP1 DUP4 PUSH1 0x20 ADD REVERT JUMPDEST DUP1 PUSH1 0x40 MLOAD PUSH32 0x8C379A000000000000000000000000000000000000000000000000000000000 DUP2 MSTORE PUSH1 0x4 ADD PUSH2 0x1B93 SWAP2 SWAP1 PUSH2 0x2B28 JUMP JUMPDEST PUSH1 0x40 MLOAD DUP1 SWAP2 SUB SWAP1 REVERT JUMPDEST PUSH1 0x0 DUP1 REVERT JUMPDEST PUSH1 0x0 DUP2 SWAP1 POP SWAP2 SWAP1 POP JUMP JUMPDEST PUSH2 0x1BB4 DUP2 PUSH2 0x1BA1 JUMP JUMPDEST DUP2 EQ PUSH2 0x1BBF JUMPI PUSH1 0x0 DUP1 REVERT JUMPDEST POP JUMP JUMPDEST PUSH1 0x0 DUP2 CALLDATALOAD SWAP1 POP PUSH2 0x1BD1 DUP2 PUSH2 0x1BAB JUMP JUMPDEST SWAP3 SWAP2 POP POP JUMP JUMPDEST PUSH1 0x0 PUSH1 0x20 DUP3 DUP5 SUB SLT ISZERO PUSH2 0x1BED JUMPI PUSH2 0x1BEC PUSH2 0x1B9C JUMP JUMPDEST JUMPDEST PUSH1 0x0 PUSH2 0x1BFB DUP5 DUP3 DUP6 ADD PUSH2 0x1BC2 JUMP JUMPDEST SWAP2 POP POP SWAP3 SWAP2 POP POP JUMP JUMPDEST PUSH1 0x0 PUSH20 0xFFFFFFFFFFFFFFFFFFFFFFFFFFFFFFFFFFFFFFFF DUP3 AND SWAP1 POP SWAP2 SWAP1 POP JUMP JUMPDEST PUSH1 0x0 PUSH2 0x1C2F DUP3 PUSH2 0x1C04 JUMP JUMPDEST SWAP1 POP SWAP2 SWAP1 POP JUMP JUMPDEST PUSH2 0x1C3F DUP2 PUSH2 0x1C24 JUMP JUMPDEST DUP2 EQ PUSH2 0x1C4A JUMPI PUSH1 0x0 DUP1 REVERT JUMPDEST POP JUMP JUMPDEST PUSH1 0x0 DUP2 CALLDATALOAD SWAP1 POP PUSH2 0x1C5C DUP2 PUSH2 0x1C36 JUMP JUMPDEST SWAP3 SWAP2 POP POP JUMP JUMPDEST PUSH1 0x0 DUP1 PUSH1 0x40 DUP4 DUP6 SUB SLT ISZERO PUSH2 0x1C79 JUMPI PUSH2 0x1C78 PUSH2 0x1B9C JUMP JUMPDEST JUMPDEST PUSH1 0x0 PUSH2 0x1C87 DUP6 DUP3 DUP7 ADD PUSH2 0x1C4D JUMP JUMPDEST SWAP3 POP POP PUSH1 0x20 PUSH2 0x1C98 DUP6 DUP3 DUP7 ADD PUSH2 0x1BC2 JUMP JUMPDEST SWAP2 POP POP SWAP3 POP SWAP3 SWAP1 POP JUMP JUMPDEST PUSH2 0x1CAB DUP2 PUSH2 0x1BA1 JUMP JUMPDEST DUP3 MSTORE POP POP JUMP JUMPDEST PUSH1 0x0 PUSH1 0x20 DUP3 ADD SWAP1 POP PUSH2 0x1CC6 PUSH1 0x0 DUP4 ADD DUP5 PUSH2 0x1CA2 JUMP JUMPDEST SWAP3 SWAP2 POP POP JUMP JUMPDEST PUSH1 0x0 PUSH1 0x20 DUP3 DUP5 SUB SLT ISZERO PUSH2 0x1CE2 JUMPI PUSH2 0x1CE1 PUSH2 0x1B9C JUMP JUMPDEST JUMPDEST PUSH1 0x0 PUSH2 0x1CF0 DUP5 DUP3 DUP6 ADD PUSH2 0x1C4D JUMP JUMPDEST SWAP2 POP POP SWAP3 SWAP2 POP POP JUMP JUMPDEST PUSH1 0x0 DUP2 ISZERO ISZERO SWAP1 POP SWAP2 SWAP1 POP JUMP JUMPDEST PUSH2 0x1D0E DUP2 PUSH2 0x1CF9 JUMP JUMPDEST DUP3 MSTORE POP POP JUMP JUMPDEST PUSH1 0x0 PUSH1 0x20 DUP3 ADD SWAP1 POP PUSH2 0x1D29 PUSH1 0x0 DUP4 ADD DUP5 PUSH2 0x1D05 JUMP JUMPDEST SWAP3 SWAP2 POP POP JUMP JUMPDEST PUSH2 0x1D38 DUP2 PUSH2 0x1C24 JUMP JUMPDEST DUP3 MSTORE POP POP JUMP JUMPDEST PUSH1 0x0 PUSH1 0x20 DUP3 ADD SWAP1 POP PUSH2 0x1D53 PUSH1 0x0 DUP4 ADD DUP5 PUSH2 0x1D2F JUMP JUMPDEST SWAP3 SWAP2 POP POP JUMP JUMPDEST PUSH32 0x4E487B7100000000000000000000000000000000000000000000000000000000 PUSH1 0x0 MSTORE PUSH1 0x11 PUSH1 0x4 MSTORE PUSH1 0x24 PUSH1 0x0 REVERT JUMPDEST PUSH1 0x0 PUSH2 0x1D93 DUP3 PUSH2 0x1BA1 JUMP JUMPDEST SWAP2 POP PUSH2 0x1D9E DUP4 PUSH2 0x1BA1 JUMP JUMPDEST SWAP3 POP DUP3 DUP3 ADD SWAP1 POP DUP1 DUP3 GT ISZERO PUSH2 0x1DB6 JUMPI PUSH2 0x1DB5 PUSH2 0x1D59 JUMP JUMPDEST JUMPDEST SWAP3 SWAP2 POP POP JUMP JUMPDEST PUSH1 0x0 DUP3 DUP3 MSTORE PUSH1 0x20 DUP3 ADD SWAP1 POP SWAP3 SWAP2 POP POP JUMP JUMPDEST PUSH32 0x50726573616C653A20546F6B656E206E6F742077686974656C69737465640000 PUSH1 0x0 DUP3 ADD MSTORE POP JUMP JUMPDEST PUSH1 0x0 PUSH2 0x1E03 PUSH1 0x1E DUP4 PUSH2 0x1DBC JUMP JUMPDEST SWAP2 POP PUSH2 0x1E0E DUP3 PUSH2 0x1DCD JUMP JUMPDEST PUSH1 0x20 DUP3 ADD SWAP1 POP SWAP2 SWAP1 POP JUMP JUMPDEST PUSH1 0x0 PUSH1 0x20 DUP3 ADD SWAP1 POP DUP2 DUP2 SUB PUSH1 0x0 DUP4 ADD MSTORE PUSH2 0x1E32 DUP2 PUSH2 0x1DF6 JUMP JUMPDEST SWAP1 POP SWAP2 SWAP1 POP JUMP JUMPDEST PUSH1 0x0 DUP2 PUSH1 0x1 SHR SWAP1 POP SWAP2 SWAP1 POP JUMP JUMPDEST PUSH1 0x0 DUP1 DUP3 SWAP2 POP DUP4 SWAP1 POP JUMPDEST PUSH1 0x1 DUP6 GT ISZERO PUSH2 0x1E90 JUMPI DUP1 DUP7 DIV DUP2 GT ISZERO PUSH2 0x1E6C JUMPI PUSH2 0x1E6B PUSH2 0x1D59 JUMP JUMPDEST JUMPDEST PUSH1 0x1 DUP6 AND ISZERO PUSH2 0x1E7B JUMPI DUP1 DUP3 MUL SWAP2 POP JUMPDEST DUP1 DUP2 MUL SWAP1 POP PUSH2 0x1E89 DUP6 PUSH2 0x1E39 JUMP JUMPDEST SWAP5 POP PUSH2 0x1E50 JUMP JUMPDEST SWAP5 POP SWAP5 SWAP3 POP POP POP JUMP JUMPDEST PUSH1 0x0 DUP3 PUSH2 0x1EA9 JUMPI PUSH1 0x1 SWAP1 POP PUSH2 0x1F65 JUMP JUMPDEST DUP2 PUSH2 0x1EB7 JUMPI PUSH1 0x0 SWAP1 POP PUSH2 0x1F65 JUMP JUMPDEST DUP2 PUSH1 0x1 DUP2 EQ PUSH2 0x1ECD JUMPI PUSH1 0x2 DUP2 EQ PUSH2 0x1ED7 JUMPI PUSH2 0x1F06 JUMP JUMPDEST PUSH1 0x1 SWAP2 POP POP PUSH2 0x1F65 JUMP JUMPDEST PUSH1 0xFF DUP5 GT ISZERO PUSH2 0x1EE9 JUMPI PUSH2 0x1EE8 PUSH2 0x1D59 JUMP JUMPDEST JUMPDEST DUP4 PUSH1 0x2 EXP SWAP2 POP DUP5 DUP3 GT ISZERO PUSH2 0x1F00 JUMPI PUSH2 0x1EFF PUSH2 0x1D59 JUMP JUMPDEST JUMPDEST POP PUSH2 0x1F65 JUMP JUMPDEST POP PUSH1 0x20 DUP4 LT PUSH2 0x133 DUP4 LT AND PUSH1 0x4E DUP5 LT PUSH1 0xB DUP5 LT AND OR ISZERO PUSH2 0x1F3B JUMPI DUP3 DUP3 EXP SWAP1 POP DUP4 DUP2 GT ISZERO PUSH2 0x1F36 JUMPI PUSH2 0x1F35 PUSH2 0x1D59 JUMP JUMPDEST JUMPDEST PUSH2 0x1F65 JUMP JUMPDEST PUSH2 0x1F48 DUP5 DUP5 DUP5 PUSH1 0x1 PUSH2 0x1E46 JUMP JUMPDEST SWAP3 POP SWAP1 POP DUP2 DUP5 DIV DUP2 GT ISZERO PUSH2 0x1F5F JUMPI PUSH2 0x1F5E PUSH2 0x1D59 JUMP JUMPDEST JUMPDEST DUP2 DUP2 MUL SWAP1 POP JUMPDEST SWAP4 SWAP3 POP POP POP JUMP JUMPDEST PUSH1 0x0 PUSH2 0x1F77 DUP3 PUSH2 0x1BA1 JUMP JUMPDEST SWAP2 POP PUSH2 0x1F82 DUP4 PUSH2 0x1BA1 JUMP JUMPDEST SWAP3 POP PUSH2 0x1FAF PUSH32 0xFFFFFFFFFFFFFFFFFFFFFFFFFFFFFFFFFFFFFFFFFFFFFFFFFFFFFFFFFFFFFFFF DUP5 DUP5 PUSH2 0x1E99 JUMP JUMPDEST SWAP1 POP SWAP3 SWAP2 POP POP JUMP JUMPDEST PUSH1 0x0 PUSH2 0x1FC2 DUP3 PUSH2 0x1BA1 JUMP JUMPDEST SWAP2 POP PUSH2 0x1FCD DUP4 PUSH2 0x1BA1 JUMP JUMPDEST SWAP3 POP DUP3 DUP3 MUL PUSH2 0x1FDB DUP2 PUSH2 0x1BA1 JUMP JUMPDEST SWAP2 POP DUP3 DUP3 DIV DUP5 EQ DUP4 ISZERO OR PUSH2 0x1FF2 JUMPI PUSH2 0x1FF1 PUSH2 0x1D59 JUMP JUMPDEST JUMPDEST POP SWAP3 SWAP2 POP POP JUMP JUMPDEST PUSH32 0x4E487B7100000000000000000000000000000000000000000000000000000000 PUSH1 0x0 MSTORE PUSH1 0x12 PUSH1 0x4 MSTORE PUSH1 0x24 PUSH1 0x0 REVERT JUMPDEST PUSH1 0x0 PUSH2 0x2033 DUP3 PUSH2 0x1BA1 JUMP JUMPDEST SWAP2 POP PUSH2 0x203E DUP4 PUSH2 0x1BA1 JUMP JUMPDEST SWAP3 POP DUP3 PUSH2 0x204E JUMPI PUSH2 0x204D PUSH2 0x1FF9 JUMP JUMPDEST JUMPDEST DUP3 DUP3 DIV SWAP1 POP SWAP3 SWAP2 POP POP JUMP JUMPDEST PUSH1 0x0 PUSH1 0x40 DUP3 ADD SWAP1 POP PUSH2 0x206E PUSH1 0x0 DUP4 ADD DUP6 PUSH2 0x1D2F JUMP JUMPDEST PUSH2 0x207B PUSH1 0x20 DUP4 ADD DUP5 PUSH2 0x1CA2 JUMP JUMPDEST SWAP4 SWAP3 POP POP POP JUMP JUMPDEST PUSH32 0x50726573616C653A2050726573616C6520686173206E6F742073746172746564 PUSH1 0x0 DUP3 ADD MSTORE PUSH32 0x2079657400000000000000000000000000000000000000000000000000000000 PUSH1 0x20 DUP3 ADD MSTORE POP JUMP JUMPDEST PUSH1 0x0 PUSH2 0x20DE PUSH1 0x24 DUP4 PUSH2 0x1DBC JUMP JUMPDEST SWAP2 POP PUSH2 0x20E9 DUP3 PUSH2 0x2082 JUMP JUMPDEST PUSH1 0x40 DUP3 ADD SWAP1 POP SWAP2 SWAP1 POP JUMP JUMPDEST PUSH1 0x0 PUSH1 0x20 DUP3 ADD SWAP1 POP DUP2 DUP2 SUB PUSH1 0x0 DUP4 ADD MSTORE PUSH2 0x210D DUP2 PUSH2 0x20D1 JUMP JUMPDEST SWAP1 POP SWAP2 SWAP1 POP JUMP JUMPDEST PUSH32 0x50726573616C653A2050726573616C652068617320656E646564000000000000 PUSH1 0x0 DUP3 ADD MSTORE POP JUMP JUMPDEST PUSH1 0x0 PUSH2 0x214A PUSH1 0x1A DUP4 PUSH2 0x1DBC JUMP JUMPDEST SWAP2 POP PUSH2 0x2155 DUP3 PUSH2 0x2114 JUMP JUMPDEST PUSH1 0x20 DUP3 ADD SWAP1 POP SWAP2 SWAP1 POP JUMP JUMPDEST PUSH1 0x0 PUSH1 0x20 DUP3 ADD SWAP1 POP DUP2 DUP2 SUB PUSH1 0x0 DUP4 ADD MSTORE PUSH2 0x2179 DUP2 PUSH2 0x213D JUMP JUMPDEST SWAP1 POP SWAP2 SWAP1 POP JUMP JUMPDEST PUSH32 0x50726573616C653A20546F74616C20546F6B656E2053616C6520526561636865 PUSH1 0x0 DUP3 ADD MSTORE PUSH32 0x6421000000000000000000000000000000000000000000000000000000000000 PUSH1 0x20 DUP3 ADD MSTORE POP JUMP JUMPDEST PUSH1 0x0 PUSH2 0x21DC PUSH1 0x22 DUP4 PUSH2 0x1DBC JUMP JUMPDEST SWAP2 POP PUSH2 0x21E7 DUP3 PUSH2 0x2180 JUMP JUMPDEST PUSH1 0x40 DUP3 ADD SWAP1 POP SWAP2 SWAP1 POP JUMP JUMPDEST PUSH1 0x0 PUSH1 0x20 DUP3 ADD SWAP1 POP DUP2 DUP2 SUB PUSH1 0x0 DUP4 ADD MSTORE PUSH2 0x220B DUP2 PUSH2 0x21CF JUMP JUMPDEST SWAP1 POP SWAP2 SWAP1 POP JUMP JUMPDEST PUSH32 0x50726573616C653A20546F6B656E20616D6F756E742062656C6F77206D696E20 PUSH1 0x0 DUP3 ADD MSTORE PUSH32 0x627579206C696D69740000000000000000000000000000000000000000000000 PUSH1 0x20 DUP3 ADD MSTORE POP JUMP JUMPDEST PUSH1 0x0 PUSH2 0x226E PUSH1 0x29 DUP4 PUSH2 0x1DBC JUMP JUMPDEST SWAP2 POP PUSH2 0x2279 DUP3 PUSH2 0x2212 JUMP JUMPDEST PUSH1 0x40 DUP3 ADD SWAP1 POP SWAP2 SWAP1 POP JUMP JUMPDEST PUSH1 0x0 PUSH1 0x20 DUP3 ADD SWAP1 POP DUP2 DUP2 SUB PUSH1 0x0 DUP4 ADD MSTORE PUSH2 0x229D DUP2 PUSH2 0x2261 JUMP JUMPDEST SWAP1 POP SWAP2 SWAP1 POP JUMP JUMPDEST PUSH32 0x50726573616C653A20416D6F756E742062656C6F77206D696E20627579206C69 PUSH1 0x0 DUP3 ADD MSTORE PUSH32 0x6D69740000000000000000000000000000000000000000000000000000000000 PUSH1 0x20 DUP3 ADD MSTORE POP JUMP JUMPDEST PUSH1 0x0 PUSH2 0x2300 PUSH1 0x23 DUP4 PUSH2 0x1DBC JUMP JUMPDEST SWAP2 POP PUSH2 0x230B DUP3 PUSH2 0x22A4 JUMP JUMPDEST PUSH1 0x40 DUP3 ADD SWAP1 POP SWAP2 SWAP1 POP JUMP JUMPDEST PUSH1 0x0 PUSH1 0x20 DUP3 ADD SWAP1 POP DUP2 DUP2 SUB PUSH1 0x0 DUP4 ADD MSTORE PUSH2 0x232F DUP2 PUSH2 0x22F3 JUMP JUMPDEST SWAP1 POP SWAP2 SWAP1 POP JUMP JUMPDEST PUSH1 0x0 PUSH1 0x40 DUP3 ADD SWAP1 POP PUSH2 0x234B PUSH1 0x0 DUP4 ADD DUP6 PUSH2 0x1CA2 JUMP JUMPDEST PUSH2 0x2358 PUSH1 0x20 DUP4 ADD DUP5 PUSH2 0x1CA2 JUMP JUMPDEST SWAP4 SWAP3 POP POP POP JUMP JUMPDEST PUSH32 0x50726573616C653A2053616C6520746F6B656E2063616E6E6F74206265207A65 PUSH1 0x0 DUP3 ADD MSTORE PUSH32 0x726F206164647265737300000000000000000000000000000000000000000000 PUSH1 0x20 DUP3 ADD MSTORE POP JUMP JUMPDEST PUSH1 0x0 PUSH2 0x23BB PUSH1 0x2A DUP4 PUSH2 0x1DBC JUMP JUMPDEST SWAP2 POP PUSH2 0x23C6 DUP3 PUSH2 0x235F JUMP JUMPDEST PUSH1 0x40 DUP3 ADD SWAP1 POP SWAP2 SWAP1 POP JUMP JUMPDEST PUSH1 0x0 PUSH1 0x20 DUP3 ADD SWAP1 POP DUP2 DUP2 SUB PUSH1 0x0 DUP4 ADD MSTORE PUSH2 0x23EA DUP2 PUSH2 0x23AE JUMP JUMPDEST SWAP1 POP SWAP2 SWAP1 POP JUMP JUMPDEST PUSH32 0x50726573616C653A20546F74616C20746F6B656E7320666F722073616C652063 PUSH1 0x0 DUP3 ADD MSTORE PUSH32 0x616E6E6F74206265207A65726F00000000000000000000000000000000000000 PUSH1 0x20 DUP3 ADD MSTORE POP JUMP JUMPDEST PUSH1 0x0 PUSH2 0x244D PUSH1 0x2D DUP4 PUSH2 0x1DBC JUMP JUMPDEST SWAP2 POP PUSH2 0x2458 DUP3 PUSH2 0x23F1 JUMP JUMPDEST PUSH1 0x40 DUP3 ADD SWAP1 POP SWAP2 SWAP1 POP JUMP JUMPDEST PUSH1 0x0 PUSH1 0x20 DUP3 ADD SWAP1 POP DUP2 DUP2 SUB PUSH1 0x0 DUP4 ADD MSTORE PUSH2 0x247C DUP2 PUSH2 0x2440 JUMP JUMPDEST SWAP1 POP SWAP2 SWAP1 POP JUMP JUMPDEST PUSH1 0x0 PUSH1 0xFF DUP3 AND SWAP1 POP SWAP2 SWAP1 POP JUMP JUMPDEST PUSH2 0x2499 DUP2 PUSH2 0x2483 JUMP JUMPDEST DUP2 EQ PUSH2 0x24A4 JUMPI PUSH1 0x0 DUP1 REVERT JUMPDEST POP JUMP JUMPDEST PUSH1 0x0 DUP2 MLOAD SWAP1 POP PUSH2 0x24B6 DUP2 PUSH2 0x2490 JUMP JUMPDEST SWAP3 SWAP2 POP POP JUMP JUMPDEST PUSH1 0x0 PUSH1 0x20 DUP3 DUP5 SUB SLT ISZERO PUSH2 0x24D2 JUMPI PUSH2 0x24D1 PUSH2 0x1B9C JUMP JUMPDEST JUMPDEST PUSH1 0x0 PUSH2 0x24E0 DUP5 DUP3 DUP6 ADD PUSH2 0x24A7 JUMP JUMPDEST SWAP2 POP POP SWAP3 SWAP2 POP POP JUMP JUMPDEST PUSH1 0x0 DUP2 MLOAD SWAP1 POP PUSH2 0x24F8 DUP2 PUSH2 0x1BAB JUMP JUMPDEST SWAP3 SWAP2 POP POP JUMP JUMPDEST PUSH1 0x0 PUSH1 0x20 DUP3 DUP5 SUB SLT ISZERO PUSH2 0x2514 JUMPI PUSH2 0x2513 PUSH2 0x1B9C JUMP JUMPDEST JUMPDEST PUSH1 0x0 PUSH2 0x2522 DUP5 DUP3 DUP6 ADD PUSH2 0x24E9 JUMP JUMPDEST SWAP2 POP POP SWAP3 SWAP2 POP POP JUMP JUMPDEST PUSH32 0x50726573616C653A2050726573616C6520686173206E6F7420656E6465642079 PUSH1 0x0 DUP3 ADD MSTORE PUSH32 0x6574000000000000000000000000000000000000000000000000000000000000 PUSH1 0x20 DUP3 ADD MSTORE POP JUMP JUMPDEST PUSH1 0x0 PUSH2 0x2587 PUSH1 0x22 DUP4 PUSH2 0x1DBC JUMP JUMPDEST SWAP2 POP PUSH2 0x2592 DUP3 PUSH2 0x252B JUMP JUMPDEST PUSH1 0x40 DUP3 ADD SWAP1 POP SWAP2 SWAP1 POP JUMP JUMPDEST PUSH1 0x0 PUSH1 0x20 DUP3 ADD SWAP1 POP DUP2 DUP2 SUB PUSH1 0x0 DUP4 ADD MSTORE PUSH2 0x25B6 DUP2 PUSH2 0x257A JUMP JUMPDEST SWAP1 POP SWAP2 SWAP1 POP JUMP JUMPDEST PUSH32 0x4F776E61626C653A206E6577206F776E657220697320746865207A65726F2061 PUSH1 0x0 DUP3 ADD MSTORE PUSH32 0x6464726573730000000000000000000000000000000000000000000000000000 PUSH1 0x20 DUP3 ADD MSTORE POP JUMP JUMPDEST PUSH1 0x0 PUSH2 0x2619 PUSH1 0x26 DUP4 PUSH2 0x1DBC JUMP JUMPDEST SWAP2 POP PUSH2 0x2624 DUP3 PUSH2 0x25BD JUMP JUMPDEST PUSH1 0x40 DUP3 ADD SWAP1 POP SWAP2 SWAP1 POP JUMP JUMPDEST PUSH1 0x0 PUSH1 0x20 DUP3 ADD SWAP1 POP DUP2 DUP2 SUB PUSH1 0x0 DUP4 ADD MSTORE PUSH2 0x2648 DUP2 PUSH2 0x260C JUMP JUMPDEST SWAP1 POP SWAP2 SWAP1 POP JUMP JUMPDEST PUSH32 0x50726573616C653A2043616E6E6F742077697468647261772073616C6520746F PUSH1 0x0 DUP3 ADD MSTORE PUSH32 0x6B656E20776974682074686973206D6574686F642C2075736520776974686472 PUSH1 0x20 DUP3 ADD MSTORE PUSH32 0x617753616C65546F6B656E282920696E73746561640000000000000000000000 PUSH1 0x40 DUP3 ADD MSTORE POP JUMP JUMPDEST PUSH1 0x0 PUSH2 0x26D1 PUSH1 0x55 DUP4 PUSH2 0x1DBC JUMP JUMPDEST SWAP2 POP PUSH2 0x26DC DUP3 PUSH2 0x264F JUMP JUMPDEST PUSH1 0x60 DUP3 ADD SWAP1 POP SWAP2 SWAP1 POP JUMP JUMPDEST PUSH1 0x0 PUSH1 0x20 DUP3 ADD SWAP1 POP DUP2 DUP2 SUB PUSH1 0x0 DUP4 ADD MSTORE PUSH2 0x2700 DUP2 PUSH2 0x26C4 JUMP JUMPDEST SWAP1 POP SWAP2 SWAP1 POP JUMP JUMPDEST PUSH32 0x50726573616C653A2043616E6E6F742077697468647261772073616C6520746F PUSH1 0x0 DUP3 ADD MSTORE PUSH32 0x6B656E20776974682074686973206D6574686F642C2075736520776974686472 PUSH1 0x20 DUP3 ADD MSTORE PUSH32 0x6177416C6C53616C65546F6B656E282920696E73746561640000000000000000 PUSH1 0x40 DUP3 ADD MSTORE POP JUMP JUMPDEST PUSH1 0x0 PUSH2 0x2789 PUSH1 0x58 DUP4 PUSH2 0x1DBC JUMP JUMPDEST SWAP2 POP PUSH2 0x2794 DUP3 PUSH2 0x2707 JUMP JUMPDEST PUSH1 0x60 DUP3 ADD SWAP1 POP SWAP2 SWAP1 POP JUMP JUMPDEST PUSH1 0x0 PUSH1 0x20 DUP3 ADD SWAP1 POP DUP2 DUP2 SUB PUSH1 0x0 DUP4 ADD MSTORE PUSH2 0x27B8 DUP2 PUSH2 0x277C JUMP JUMPDEST SWAP1 POP SWAP2 SWAP1 POP JUMP JUMPDEST PUSH32 0x4F776E61626C653A2063616C6C6572206973206E6F7420746865206F776E6572 PUSH1 0x0 DUP3 ADD MSTORE POP JUMP JUMPDEST PUSH1 0x0 PUSH2 0x27F5 PUSH1 0x20 DUP4 PUSH2 0x1DBC JUMP JUMPDEST SWAP2 POP PUSH2 0x2800 DUP3 PUSH2 0x27BF JUMP JUMPDEST PUSH1 0x20 DUP3 ADD SWAP1 POP SWAP2 SWAP1 POP JUMP JUMPDEST PUSH1 0x0 PUSH1 0x20 DUP3 ADD SWAP1 POP DUP2 DUP2 SUB PUSH1 0x0 DUP4 ADD MSTORE PUSH2 0x2824 DUP2 PUSH2 0x27E8 JUMP JUMPDEST SWAP1 POP SWAP2 SWAP1 POP JUMP JUMPDEST PUSH1 0x0 PUSH1 0x60 DUP3 ADD SWAP1 POP PUSH2 0x2840 PUSH1 0x0 DUP4 ADD DUP7 PUSH2 0x1D2F JUMP JUMPDEST PUSH2 0x284D PUSH1 0x20 DUP4 ADD DUP6 PUSH2 0x1D2F JUMP JUMPDEST PUSH2 0x285A PUSH1 0x40 DUP4 ADD DUP5 PUSH2 0x1CA2 JUMP JUMPDEST SWAP5 SWAP4 POP POP POP POP JUMP JUMPDEST PUSH2 0x286B DUP2 PUSH2 0x1CF9 JUMP JUMPDEST DUP2 EQ PUSH2 0x2876 JUMPI PUSH1 0x0 DUP1 REVERT JUMPDEST POP JUMP JUMPDEST PUSH1 0x0 DUP2 MLOAD SWAP1 POP PUSH2 0x2888 DUP2 PUSH2 0x2862 JUMP JUMPDEST SWAP3 SWAP2 POP POP JUMP JUMPDEST PUSH1 0x0 PUSH1 0x20 DUP3 DUP5 SUB SLT ISZERO PUSH2 0x28A4 JUMPI PUSH2 0x28A3 PUSH2 0x1B9C JUMP JUMPDEST JUMPDEST PUSH1 0x0 PUSH2 0x28B2 DUP5 DUP3 DUP6 ADD PUSH2 0x2879 JUMP JUMPDEST SWAP2 POP POP SWAP3 SWAP2 POP POP JUMP JUMPDEST PUSH32 0x5361666545524332303A204552433230206F7065726174696F6E20646964206E PUSH1 0x0 DUP3 ADD MSTORE PUSH32 0x6F74207375636365656400000000000000000000000000000000000000000000 PUSH1 0x20 DUP3 ADD MSTORE POP JUMP JUMPDEST PUSH1 0x0 PUSH2 0x2917 PUSH1 0x2A DUP4 PUSH2 0x1DBC JUMP JUMPDEST SWAP2 POP PUSH2 0x2922 DUP3 PUSH2 0x28BB JUMP JUMPDEST PUSH1 0x40 DUP3 ADD SWAP1 POP SWAP2 SWAP1 POP JUMP JUMPDEST PUSH1 0x0 PUSH1 0x20 DUP3 ADD SWAP1 POP DUP2 DUP2 SUB PUSH1 0x0 DUP4 ADD MSTORE PUSH2 0x2946 DUP2 PUSH2 0x290A JUMP JUMPDEST SWAP1 POP SWAP2 SWAP1 POP JUMP JUMPDEST PUSH32 0x416464726573733A20696E73756666696369656E742062616C616E636520666F PUSH1 0x0 DUP3 ADD MSTORE PUSH32 0x722063616C6C0000000000000000000000000000000000000000000000000000 PUSH1 0x20 DUP3 ADD MSTORE POP JUMP JUMPDEST PUSH1 0x0 PUSH2 0x29A9 PUSH1 0x26 DUP4 PUSH2 0x1DBC JUMP JUMPDEST SWAP2 POP PUSH2 0x29B4 DUP3 PUSH2 0x294D JUMP JUMPDEST PUSH1 0x40 DUP3 ADD SWAP1 POP SWAP2 SWAP1 POP JUMP JUMPDEST PUSH1 0x0 PUSH1 0x20 DUP3 ADD SWAP1 POP DUP2 DUP2 SUB PUSH1 0x0 DUP4 ADD MSTORE PUSH2 0x29D8 DUP2 PUSH2 0x299C JUMP JUMPDEST SWAP1 POP SWAP2 SWAP1 POP JUMP JUMPDEST PUSH1 0x0 DUP2 MLOAD SWAP1 POP SWAP2 SWAP1 POP JUMP JUMPDEST PUSH1 0x0 DUP2 SWAP1 POP SWAP3 SWAP2 POP POP JUMP JUMPDEST PUSH1 0x0 JUMPDEST DUP4 DUP2 LT ISZERO PUSH2 0x2A13 JUMPI DUP1 DUP3 ADD MLOAD DUP2 DUP5 ADD MSTORE PUSH1 0x20 DUP2 ADD SWAP1 POP PUSH2 0x29F8 JUMP JUMPDEST PUSH1 0x0 DUP5 DUP5 ADD MSTORE POP POP POP POP JUMP JUMPDEST PUSH1 0x0 PUSH2 0x2A2A DUP3 PUSH2 0x29DF JUMP JUMPDEST PUSH2 0x2A34 DUP2 DUP6 PUSH2 0x29EA JUMP JUMPDEST SWAP4 POP PUSH2 0x2A44 DUP2 DUP6 PUSH1 0x20 DUP7 ADD PUSH2 0x29F5 JUMP JUMPDEST DUP1 DUP5 ADD SWAP2 POP POP SWAP3 SWAP2 POP POP JUMP JUMPDEST PUSH1 0x0 PUSH2 0x2A5C DUP3 DUP5 PUSH2 0x2A1F JUMP JUMPDEST SWAP2 POP DUP2 SWAP1 POP SWAP3 SWAP2 POP POP JUMP JUMPDEST PUSH32 0x416464726573733A2063616C6C20746F206E6F6E2D636F6E7472616374000000 PUSH1 0x0 DUP3 ADD MSTORE POP JUMP JUMPDEST PUSH1 0x0 PUSH2 0x2A9D PUSH1 0x1D DUP4 PUSH2 0x1DBC JUMP JUMPDEST SWAP2 POP PUSH2 0x2AA8 DUP3 PUSH2 0x2A67 JUMP JUMPDEST PUSH1 0x20 DUP3 ADD SWAP1 POP SWAP2 SWAP1 POP JUMP JUMPDEST PUSH1 0x0 PUSH1 0x20 DUP3 ADD SWAP1 POP DUP2 DUP2 SUB PUSH1 0x0 DUP4 ADD MSTORE PUSH2 0x2ACC DUP2 PUSH2 0x2A90 JUMP JUMPDEST SWAP1 POP SWAP2 SWAP1 POP JUMP JUMPDEST PUSH1 0x0 DUP2 MLOAD SWAP1 POP SWAP2 SWAP1 POP JUMP JUMPDEST PUSH1 0x0 PUSH1 0x1F NOT PUSH1 0x1F DUP4 ADD AND SWAP1 POP SWAP2 SWAP1 POP JUMP JUMPDEST PUSH1 0x0 PUSH2 0x2AFA DUP3 PUSH2 0x2AD3 JUMP JUMPDEST PUSH2 0x2B04 DUP2 DUP6 PUSH2 0x1DBC JUMP JUMPDEST SWAP4 POP PUSH2 0x2B14 DUP2 DUP6 PUSH1 0x20 DUP7 ADD PUSH2 0x29F5 JUMP JUMPDEST PUSH2 0x2B1D DUP2 PUSH2 0x2ADE JUMP JUMPDEST DUP5 ADD SWAP2 POP POP SWAP3 SWAP2 POP POP JUMP JUMPDEST PUSH1 0x0 PUSH1 0x20 DUP3 ADD SWAP1 POP DUP2 DUP2 SUB PUSH1 0x0 DUP4 ADD MSTORE PUSH2 0x2B42 DUP2 DUP5 PUSH2 0x2AEF JUMP JUMPDEST SWAP1 POP SWAP3 SWAP2 POP POP JUMP INVALID LOG2 PUSH5 0x6970667358 0x22 SLT KECCAK256 SELFBALANCE 0xFB SELFBALANCE 0xB1 CODECOPY 0xE4 PUSH12 0xCE3B010C1D12CEE81698FA9D 0xD4 0xC0 0xA8 SWAP10 0x23 SWAP7 SWAP13 0xD0 0xD2 0xBA 0xE7 0xB8 0xB7 PUSH5 0x736F6C6343 STOP ADDMOD SLT STOP CALLER "
				},
				"gasEstimates": {
					"creation": {
						"codeDepositCost": "2227200",
						"executionCost": "infinite",
						"totalCost": "infinite"
					},
					"external": {
						"addWhiteListedToken(address,uint256)": "infinite",
						"buyToken(address,uint256)": "infinite",
						"getTokenAmount(address,uint256)": "infinite",
						"maxBuyLimit()": "2518",
						"minBuyLimit()": "2496",
						"owner()": "2589",
						"presaleEndTime()": "2497",
						"presaleStartTime()": "2540",
						"rate()": "2519",
						"renounceOwnership()": "30444",
						"saleToken()": "2625",
						"saleTokenDec()": "2474",
						"setMaxBuyLimit(uint256)": "24852",
						"setMinBuyLimit(uint256)": "24873",
						"setSaleTokenParams(address,uint256)": "infinite",
						"startAndSetPresaleEndTime(uint256)": "infinite",
						"tokenPrices(address)": "2905",
						"tokenWL(address)": "2890",
						"totalTokensSold()": "2474",
						"totalTokensforSale()": "2540",
						"transferOwnership(address)": "30788",
						"upateTime(uint256)": "infinite",
						"updateEthRate(uint256)": "24830",
						"updateTokenRate(address,uint256)": "infinite",
						"withdraw(address,uint256)": "infinite",
						"withdrawAll(address)": "infinite",
						"withdrawAllSaleToken()": "infinite",
						"withdrawCurrency(uint256)": "infinite",
						"withdrawSaleToken(uint256)": "infinite"
					}
				},
				"methodIdentifiers": {
					"addWhiteListedToken(address,uint256)": "444ad5ee",
					"buyToken(address,uint256)": "68f8fc10",
					"getTokenAmount(address,uint256)": "115ece4c",
					"maxBuyLimit()": "6aa5b37f",
					"minBuyLimit()": "b81df742",
					"owner()": "8da5cb5b",
					"presaleEndTime()": "249b7c19",
					"presaleStartTime()": "a82524b2",
					"rate()": "2c4e722e",
					"renounceOwnership()": "715018a6",
					"saleToken()": "e985e367",
					"saleTokenDec()": "ace1741c",
					"setMaxBuyLimit(uint256)": "757765f8",
					"setMinBuyLimit(uint256)": "99b77032",
					"setSaleTokenParams(address,uint256)": "89e6ce1e",
					"startAndSetPresaleEndTime(uint256)": "5b10bd6a",
					"tokenPrices(address)": "204120bc",
					"tokenWL(address)": "8ce0b9d2",
					"totalTokensSold()": "63b20117",
					"totalTokensforSale()": "6bcedf9c",
					"transferOwnership(address)": "f2fde38b",
					"upateTime(uint256)": "0fabdd44",
					"updateEthRate(uint256)": "3f6f7ed6",
					"updateTokenRate(address,uint256)": "226ac321",
					"withdraw(address,uint256)": "f3fef3a3",
					"withdrawAll(address)": "fa09e630",
					"withdrawAllSaleToken()": "fb00f3fc",
					"withdrawCurrency(uint256)": "3c00a36c",
					"withdrawSaleToken(uint256)": "ded441c2"
				}
			},
			"storageLayout": {
				"storage": [
					{
						"astId": 7,
						"contract": "contracts/preSale.sol:Presale",
						"label": "_owner",
						"offset": 0,
						"slot": "0",
						"type": "t_address"
					},
					{
						"astId": 996,
						"contract": "contracts/preSale.sol:Presale",
						"label": "rate",
						"offset": 0,
						"slot": "1",
						"type": "t_uint256"
					},
					{
						"astId": 998,
						"contract": "contracts/preSale.sol:Presale",
						"label": "saleToken",
						"offset": 0,
						"slot": "2",
						"type": "t_address"
					},
					{
						"astId": 1000,
						"contract": "contracts/preSale.sol:Presale",
						"label": "saleTokenDec",
						"offset": 0,
						"slot": "3",
						"type": "t_uint256"
					},
					{
						"astId": 1002,
						"contract": "contracts/preSale.sol:Presale",
						"label": "totalTokensforSale",
						"offset": 0,
						"slot": "4",
						"type": "t_uint256"
					},
					{
						"astId": 1004,
						"contract": "contracts/preSale.sol:Presale",
						"label": "maxBuyLimit",
						"offset": 0,
						"slot": "5",
						"type": "t_uint256"
					},
					{
						"astId": 1006,
						"contract": "contracts/preSale.sol:Presale",
						"label": "minBuyLimit",
						"offset": 0,
						"slot": "6",
						"type": "t_uint256"
					},
					{
						"astId": 1010,
						"contract": "contracts/preSale.sol:Presale",
						"label": "tokenWL",
						"offset": 0,
						"slot": "7",
						"type": "t_mapping(t_address,t_bool)"
					},
					{
						"astId": 1014,
						"contract": "contracts/preSale.sol:Presale",
						"label": "tokenPrices",
						"offset": 0,
						"slot": "8",
						"type": "t_mapping(t_address,t_uint256)"
					},
					{
						"astId": 1016,
						"contract": "contracts/preSale.sol:Presale",
						"label": "presaleStartTime",
						"offset": 0,
						"slot": "9",
						"type": "t_uint256"
					},
					{
						"astId": 1018,
						"contract": "contracts/preSale.sol:Presale",
						"label": "presaleEndTime",
						"offset": 0,
						"slot": "10",
						"type": "t_uint256"
					},
					{
						"astId": 1020,
						"contract": "contracts/preSale.sol:Presale",
						"label": "totalTokensSold",
						"offset": 0,
						"slot": "11",
						"type": "t_uint256"
					}
				],
				"types": {
					"t_address": {
						"encoding": "inplace",
						"label": "address",
						"numberOfBytes": "20"
					},
					"t_bool": {
						"encoding": "inplace",
						"label": "bool",
						"numberOfBytes": "1"
					},
					"t_mapping(t_address,t_bool)": {
						"encoding": "mapping",
						"key": "t_address",
						"label": "mapping(address => bool)",
						"numberOfBytes": "32",
						"value": "t_bool"
					},
					"t_mapping(t_address,t_uint256)": {
						"encoding": "mapping",
						"key": "t_address",
						"label": "mapping(address => uint256)",
						"numberOfBytes": "32",
						"value": "t_uint256"
					},
					"t_uint256": {
						"encoding": "inplace",
						"label": "uint256",
						"numberOfBytes": "32"
					}
				}
			},
			"userdoc": {
				"kind": "user",
				"methods": {},
				"version": 1
			}
		}
	}
}