{
	"contracts/contract.sol": {
		"Presale": {
			"abi": [
				{
					"inputs": [],
					"stateMutability": "nonpayable",
					"type": "constructor"
				},
				{
					"anonymous": false,
					"inputs": [
						{
							"indexed": true,
							"internalType": "address",
							"name": "previousOwner",
							"type": "address"
						},
						{
							"indexed": true,
							"internalType": "address",
							"name": "newOwner",
							"type": "address"
						}
					],
					"name": "OwnershipTransferred",
					"type": "event"
				},
				{
					"anonymous": false,
					"inputs": [
						{
							"indexed": false,
							"internalType": "address",
							"name": "token",
							"type": "address"
						},
						{
							"indexed": false,
							"internalType": "uint256",
							"name": "amount",
							"type": "uint256"
						}
					],
					"name": "SaleTokenAdded",
					"type": "event"
				},
				{
					"anonymous": false,
					"inputs": [
						{
							"indexed": false,
							"internalType": "address",
							"name": "token",
							"type": "address"
						},
						{
							"indexed": false,
							"internalType": "uint256[4]",
							"name": "price",
							"type": "uint256[4]"
						}
					],
					"name": "TokenAdded",
					"type": "event"
				},
				{
					"anonymous": false,
					"inputs": [
						{
							"indexed": false,
							"internalType": "address",
							"name": "token",
							"type": "address"
						},
						{
							"indexed": false,
							"internalType": "uint256[4]",
							"name": "price",
							"type": "uint256[4]"
						}
					],
					"name": "TokenUpdated",
					"type": "event"
				},
				{
					"anonymous": false,
					"inputs": [
						{
							"indexed": true,
							"internalType": "address",
							"name": "buyer",
							"type": "address"
						},
						{
							"indexed": true,
							"internalType": "address",
							"name": "token",
							"type": "address"
						},
						{
							"indexed": false,
							"internalType": "uint256",
							"name": "amount",
							"type": "uint256"
						},
						{
							"indexed": false,
							"internalType": "uint256",
							"name": "tokensBought",
							"type": "uint256"
						}
					],
					"name": "TokensBought",
					"type": "event"
				},
				{
					"anonymous": false,
					"inputs": [
						{
							"indexed": true,
							"internalType": "address",
							"name": "buyer",
							"type": "address"
						},
						{
							"indexed": false,
							"internalType": "uint256",
							"name": "amount",
							"type": "uint256"
						}
					],
					"name": "TokensUnlocked",
					"type": "event"
				},
				{
					"inputs": [
						{
							"internalType": "address",
							"name": "_token",
							"type": "address"
						},
						{
							"internalType": "uint256[4]",
							"name": "_price",
							"type": "uint256[4]"
						}
					],
					"name": "addWhiteListedToken",
					"outputs": [],
					"stateMutability": "nonpayable",
					"type": "function"
				},
				{
					"inputs": [
						{
							"internalType": "address",
							"name": "_token",
							"type": "address"
						},
						{
							"internalType": "uint256",
							"name": "_amount",
							"type": "uint256"
						}
					],
					"name": "buyToken",
					"outputs": [],
					"stateMutability": "payable",
					"type": "function"
				},
				{
					"inputs": [
						{
							"internalType": "address",
							"name": "",
							"type": "address"
						}
					],
					"name": "buyersAmount",
					"outputs": [
						{
							"internalType": "uint256",
							"name": "amount",
							"type": "uint256"
						},
						{
							"internalType": "bool",
							"name": "isClaimed",
							"type": "bool"
						}
					],
					"stateMutability": "view",
					"type": "function"
				},
				{
					"inputs": [],
					"name": "getCurrentTier",
					"outputs": [
						{
							"internalType": "uint256",
							"name": "",
							"type": "uint256"
						}
					],
					"stateMutability": "pure",
					"type": "function"
				},
				{
					"inputs": [
						{
							"internalType": "address",
							"name": "token",
							"type": "address"
						},
						{
							"internalType": "uint256",
							"name": "amount",
							"type": "uint256"
						}
					],
					"name": "getTokenAmount",
					"outputs": [
						{
							"internalType": "uint256",
							"name": "",
							"type": "uint256"
						}
					],
					"stateMutability": "view",
					"type": "function"
				},
				{
					"inputs": [],
					"name": "isUnlockingStarted",
					"outputs": [
						{
							"internalType": "bool",
							"name": "",
							"type": "bool"
						}
					],
					"stateMutability": "view",
					"type": "function"
				},
				{
					"inputs": [],
					"name": "maxBuyLimit",
					"outputs": [
						{
							"internalType": "uint256",
							"name": "",
							"type": "uint256"
						}
					],
					"stateMutability": "view",
					"type": "function"
				},
				{
					"inputs": [],
					"name": "minBuyLimit",
					"outputs": [
						{
							"internalType": "uint256",
							"name": "",
							"type": "uint256"
						}
					],
					"stateMutability": "view",
					"type": "function"
				},
				{
					"inputs": [],
					"name": "owner",
					"outputs": [
						{
							"internalType": "address",
							"name": "",
							"type": "address"
						}
					],
					"stateMutability": "view",
					"type": "function"
				},
				{
					"inputs": [],
					"name": "presaleEndTime",
					"outputs": [
						{
							"internalType": "uint256",
							"name": "",
							"type": "uint256"
						}
					],
					"stateMutability": "view",
					"type": "function"
				},
				{
					"inputs": [],
					"name": "presaleStartTime",
					"outputs": [
						{
							"internalType": "uint256",
							"name": "",
							"type": "uint256"
						}
					],
					"stateMutability": "view",
					"type": "function"
				},
				{
					"inputs": [
						{
							"internalType": "uint256",
							"name": "",
							"type": "uint256"
						}
					],
					"name": "rate",
					"outputs": [
						{
							"internalType": "uint256",
							"name": "",
							"type": "uint256"
						}
					],
					"stateMutability": "view",
					"type": "function"
				},
				{
					"inputs": [],
					"name": "renounceOwnership",
					"outputs": [],
					"stateMutability": "nonpayable",
					"type": "function"
				},
				{
					"inputs": [],
					"name": "saleToken",
					"outputs": [
						{
							"internalType": "address",
							"name": "",
							"type": "address"
						}
					],
					"stateMutability": "view",
					"type": "function"
				},
				{
					"inputs": [],
					"name": "saleTokenDec",
					"outputs": [
						{
							"internalType": "uint256",
							"name": "",
							"type": "uint256"
						}
					],
					"stateMutability": "view",
					"type": "function"
				},
				{
					"inputs": [
						{
							"internalType": "uint256",
							"name": "_maxBuyLimit",
							"type": "uint256"
						}
					],
					"name": "setMaxBuyLimit",
					"outputs": [],
					"stateMutability": "nonpayable",
					"type": "function"
				},
				{
					"inputs": [
						{
							"internalType": "uint256",
							"name": "_minBuyLimit",
							"type": "uint256"
						}
					],
					"name": "setMinBuyLimit",
					"outputs": [],
					"stateMutability": "nonpayable",
					"type": "function"
				},
				{
					"inputs": [
						{
							"internalType": "address",
							"name": "_saleToken",
							"type": "address"
						},
						{
							"internalType": "uint256",
							"name": "_totalTokensforSale",
							"type": "uint256"
						}
					],
					"name": "setSaleTokenParams",
					"outputs": [],
					"stateMutability": "nonpayable",
					"type": "function"
				},
				{
					"inputs": [
						{
							"internalType": "uint256",
							"name": "_presaleEndTime",
							"type": "uint256"
						}
					],
					"name": "startAndSetPresaleEndTime",
					"outputs": [],
					"stateMutability": "nonpayable",
					"type": "function"
				},
				{
					"inputs": [],
					"name": "startUnlocking",
					"outputs": [],
					"stateMutability": "nonpayable",
					"type": "function"
				},
				{
					"inputs": [],
					"name": "stopUnlocking",
					"outputs": [],
					"stateMutability": "nonpayable",
					"type": "function"
				},
				{
					"inputs": [
						{
							"internalType": "address",
							"name": "",
							"type": "address"
						},
						{
							"internalType": "uint256",
							"name": "",
							"type": "uint256"
						}
					],
					"name": "tokenPrices",
					"outputs": [
						{
							"internalType": "uint256",
							"name": "",
							"type": "uint256"
						}
					],
					"stateMutability": "view",
					"type": "function"
				},
				{
					"inputs": [
						{
							"internalType": "address",
							"name": "",
							"type": "address"
						}
					],
					"name": "tokenWL",
					"outputs": [
						{
							"internalType": "bool",
							"name": "",
							"type": "bool"
						}
					],
					"stateMutability": "view",
					"type": "function"
				},
				{
					"inputs": [],
					"name": "totalTokensSold",
					"outputs": [
						{
							"internalType": "uint256",
							"name": "",
							"type": "uint256"
						}
					],
					"stateMutability": "view",
					"type": "function"
				},
				{
					"inputs": [],
					"name": "totalTokensforSale",
					"outputs": [
						{
							"internalType": "uint256",
							"name": "",
							"type": "uint256"
						}
					],
					"stateMutability": "view",
					"type": "function"
				},
				{
					"inputs": [
						{
							"internalType": "address",
							"name": "newOwner",
							"type": "address"
						}
					],
					"name": "transferOwnership",
					"outputs": [],
					"stateMutability": "nonpayable",
					"type": "function"
				},
				{
					"inputs": [
						{
							"internalType": "uint256",
							"name": "_presaleEndTime",
							"type": "uint256"
						}
					],
					"name": "upateTime",
					"outputs": [],
					"stateMutability": "nonpayable",
					"type": "function"
				},
				{
					"inputs": [
						{
							"internalType": "uint256[4]",
							"name": "_rate",
							"type": "uint256[4]"
						}
					],
					"name": "updateEthRate",
					"outputs": [],
					"stateMutability": "nonpayable",
					"type": "function"
				},
				{
					"inputs": [
						{
							"internalType": "address",
							"name": "_token",
							"type": "address"
						},
						{
							"internalType": "uint256[4]",
							"name": "_price",
							"type": "uint256[4]"
						}
					],
					"name": "updateTokenRate",
					"outputs": [],
					"stateMutability": "nonpayable",
					"type": "function"
				},
				{
					"inputs": [
						{
							"internalType": "address",
							"name": "token",
							"type": "address"
						},
						{
							"internalType": "uint256",
							"name": "amt",
							"type": "uint256"
						}
					],
					"name": "withdraw",
					"outputs": [],
					"stateMutability": "nonpayable",
					"type": "function"
				},
				{
					"inputs": [
						{
							"internalType": "address",
							"name": "token",
							"type": "address"
						}
					],
					"name": "withdrawAll",
					"outputs": [],
					"stateMutability": "nonpayable",
					"type": "function"
				},
				{
					"inputs": [],
					"name": "withdrawAllSaleToken",
					"outputs": [],
					"stateMutability": "nonpayable",
					"type": "function"
				},
				{
					"inputs": [
						{
							"internalType": "uint256",
							"name": "amt",
							"type": "uint256"
						}
					],
					"name": "withdrawCurrency",
					"outputs": [],
					"stateMutability": "nonpayable",
					"type": "function"
				},
				{
					"inputs": [
						{
							"internalType": "uint256",
							"name": "_amount",
							"type": "uint256"
						}
					],
					"name": "withdrawSaleToken",
					"outputs": [],
					"stateMutability": "nonpayable",
					"type": "function"
				},
				{
					"inputs": [],
					"name": "withdrawToken",
					"outputs": [],
					"stateMutability": "nonpayable",
					"type": "function"
				}
			],
			"devdoc": {
				"kind": "dev",
				"methods": {},
				"version": 1
			},
			"evm": {
				"assembly": "    /* \"contracts/contract.sol\":8403:18139  contract Presale is Ownable {... */\n  mstore(0x40, 0x80)\n    /* \"contracts/contract.sol\":9234:9250  constructor() {} */\n  callvalue\n  dup1\n  iszero\n  tag_1\n  jumpi\n  0x00\n  dup1\n  revert\ntag_1:\n  pop\n    /* \"contracts/contract.sol\":1325:1357  _transferOwnership(_msgSender()) */\n  tag_5\n    /* \"contracts/contract.sol\":1344:1356  _msgSender() */\n  tag_6\n    /* \"contracts/contract.sol\":1344:1354  _msgSender */\n  shl(0x20, tag_7)\n    /* \"contracts/contract.sol\":1344:1356  _msgSender() */\n  0x20\n  shr\n  jump\t// in\ntag_6:\n    /* \"contracts/contract.sol\":1325:1343  _transferOwnership */\n  shl(0x20, tag_8)\n    /* \"contracts/contract.sol\":1325:1357  _transferOwnership(_msgSender()) */\n  0x20\n  shr\n  jump\t// in\ntag_5:\n    /* \"contracts/contract.sol\":8403:18139  contract Presale is Ownable {... */\n  jump(tag_10)\n    /* \"contracts/contract.sol\":888:984  function _msgSender() internal view virtual returns (address) {... */\ntag_7:\n    /* \"contracts/contract.sol\":941:948  address */\n  0x00\n    /* \"contracts/contract.sol\":967:977  msg.sender */\n  caller\n    /* \"contracts/contract.sol\":960:977  return msg.sender */\n  swap1\n  pop\n    /* \"contracts/contract.sol\":888:984  function _msgSender() internal view virtual returns (address) {... */\n  swap1\n  jump\t// out\n    /* \"contracts/contract.sol\":1924:2111  function _transferOwnership(address newOwner) internal virtual {... */\ntag_8:\n    /* \"contracts/contract.sol\":1997:2013  address oldOwner */\n  0x00\n    /* \"contracts/contract.sol\":2016:2022  _owner */\n  dup1\n  0x00\n  swap1\n  sload\n  swap1\n  0x0100\n  exp\n  swap1\n  div\n  0xffffffffffffffffffffffffffffffffffffffff\n  and\n    /* \"contracts/contract.sol\":1997:2022  address oldOwner = _owner */\n  swap1\n  pop\n    /* \"contracts/contract.sol\":2041:2049  newOwner */\n  dup2\n    /* \"contracts/contract.sol\":2032:2038  _owner */\n  0x00\n  dup1\n    /* \"contracts/contract.sol\":2032:2049  _owner = newOwner */\n  0x0100\n  exp\n  dup2\n  sload\n  dup2\n  0xffffffffffffffffffffffffffffffffffffffff\n  mul\n  not\n  and\n  swap1\n  dup4\n  0xffffffffffffffffffffffffffffffffffffffff\n  and\n  mul\n  or\n  swap1\n  sstore\n  pop\n    /* \"contracts/contract.sol\":2095:2103  newOwner */\n  dup2\n    /* \"contracts/contract.sol\":2064:2104  OwnershipTransferred(oldOwner, newOwner) */\n  0xffffffffffffffffffffffffffffffffffffffff\n  and\n    /* \"contracts/contract.sol\":2085:2093  oldOwner */\n  dup2\n    /* \"contracts/contract.sol\":2064:2104  OwnershipTransferred(oldOwner, newOwner) */\n  0xffffffffffffffffffffffffffffffffffffffff\n  and\n  0x8be0079c531659141344cd1fd0a4f28419497f9722a3daafe3b4186f6b6457e0\n  mload(0x40)\n  mload(0x40)\n  dup1\n  swap2\n  sub\n  swap1\n  log3\n    /* \"contracts/contract.sol\":1987:2111  {... */\n  pop\n    /* \"contracts/contract.sol\":1924:2111  function _transferOwnership(address newOwner) internal virtual {... */\n  pop\n  jump\t// out\n    /* \"contracts/contract.sol\":8403:18139  contract Presale is Ownable {... */\ntag_10:\n  dataSize(sub_0)\n  dup1\n  dataOffset(sub_0)\n  0x00\n  codecopy\n  0x00\n  return\nstop\n\nsub_0: assembly {\n        /* \"contracts/contract.sol\":8403:18139  contract Presale is Ownable {... */\n      mstore(0x40, 0x80)\n      jumpi(tag_1, lt(calldatasize, 0x04))\n      shr(0xe0, calldataload(0x00))\n      dup1\n      0x89e6ce1e\n      gt\n      tag_37\n      jumpi\n      dup1\n      0xcae70c70\n      gt\n      tag_38\n      jumpi\n      dup1\n      0xee774ccd\n      gt\n      tag_39\n      jumpi\n      dup1\n      0xee774ccd\n      eq\n      tag_32\n      jumpi\n      dup1\n      0xf2fde38b\n      eq\n      tag_33\n      jumpi\n      dup1\n      0xf3fef3a3\n      eq\n      tag_34\n      jumpi\n      dup1\n      0xfa09e630\n      eq\n      tag_35\n      jumpi\n      dup1\n      0xfb00f3fc\n      eq\n      tag_36\n      jumpi\n      jump(tag_1)\n    tag_39:\n      dup1\n      0xcae70c70\n      eq\n      tag_28\n      jumpi\n      dup1\n      0xded441c2\n      eq\n      tag_29\n      jumpi\n      dup1\n      0xe7ee6ad6\n      eq\n      tag_30\n      jumpi\n      dup1\n      0xe985e367\n      eq\n      tag_31\n      jumpi\n      jump(tag_1)\n    tag_38:\n      dup1\n      0xa82524b2\n      gt\n      tag_40\n      jumpi\n      dup1\n      0xa82524b2\n      eq\n      tag_23\n      jumpi\n      dup1\n      0xace1741c\n      eq\n      tag_24\n      jumpi\n      dup1\n      0xb5b0763c\n      eq\n      tag_25\n      jumpi\n      dup1\n      0xb81df742\n      eq\n      tag_26\n      jumpi\n      dup1\n      0xca628c78\n      eq\n      tag_27\n      jumpi\n      jump(tag_1)\n    tag_40:\n      dup1\n      0x89e6ce1e\n      eq\n      tag_19\n      jumpi\n      dup1\n      0x8ce0b9d2\n      eq\n      tag_20\n      jumpi\n      dup1\n      0x8da5cb5b\n      eq\n      tag_21\n      jumpi\n      dup1\n      0x99b77032\n      eq\n      tag_22\n      jumpi\n      jump(tag_1)\n    tag_37:\n      dup1\n      0x63b20117\n      gt\n      tag_41\n      jumpi\n      dup1\n      0x6aa5b37f\n      gt\n      tag_42\n      jumpi\n      dup1\n      0x6aa5b37f\n      eq\n      tag_14\n      jumpi\n      dup1\n      0x6bcedf9c\n      eq\n      tag_15\n      jumpi\n      dup1\n      0x715018a6\n      eq\n      tag_16\n      jumpi\n      dup1\n      0x7412c223\n      eq\n      tag_17\n      jumpi\n      dup1\n      0x757765f8\n      eq\n      tag_18\n      jumpi\n      jump(tag_1)\n    tag_42:\n      dup1\n      0x63b20117\n      eq\n      tag_10\n      jumpi\n      dup1\n      0x65617db1\n      eq\n      tag_11\n      jumpi\n      dup1\n      0x683b3b97\n      eq\n      tag_12\n      jumpi\n      dup1\n      0x68f8fc10\n      eq\n      tag_13\n      jumpi\n      jump(tag_1)\n    tag_41:\n      dup1\n      0x3848a771\n      gt\n      tag_43\n      jumpi\n      dup1\n      0x3848a771\n      eq\n      tag_6\n      jumpi\n      dup1\n      0x3c00a36c\n      eq\n      tag_7\n      jumpi\n      dup1\n      0x54a9f102\n      eq\n      tag_8\n      jumpi\n      dup1\n      0x5b10bd6a\n      eq\n      tag_9\n      jumpi\n      jump(tag_1)\n    tag_43:\n      dup1\n      0x0fabdd44\n      eq\n      tag_2\n      jumpi\n      dup1\n      0x115ece4c\n      eq\n      tag_3\n      jumpi\n      dup1\n      0x249b7c19\n      eq\n      tag_4\n      jumpi\n      dup1\n      0x2a95c24c\n      eq\n      tag_5\n      jumpi\n    tag_1:\n      0x00\n      dup1\n      revert\n        /* \"contracts/contract.sol\":11305:11449  function upateTime(... */\n    tag_2:\n      callvalue\n      dup1\n      iszero\n      tag_44\n      jumpi\n      0x00\n      dup1\n      revert\n    tag_44:\n      pop\n      tag_45\n      0x04\n      dup1\n      calldatasize\n      sub\n      dup2\n      add\n      swap1\n      tag_46\n      swap2\n      swap1\n      tag_47\n      jump\t// in\n    tag_46:\n      tag_48\n      jump\t// in\n    tag_45:\n      stop\n        /* \"contracts/contract.sol\":14127:14734  function getTokenAmount(... */\n    tag_3:\n      callvalue\n      dup1\n      iszero\n      tag_49\n      jumpi\n      0x00\n      dup1\n      revert\n    tag_49:\n      pop\n      tag_50\n      0x04\n      dup1\n      calldatasize\n      sub\n      dup2\n      add\n      swap1\n      tag_51\n      swap2\n      swap1\n      tag_52\n      jump\t// in\n    tag_51:\n      tag_53\n      jump\t// in\n    tag_50:\n      mload(0x40)\n      tag_54\n      swap2\n      swap1\n      tag_55\n      jump\t// in\n    tag_54:\n      mload(0x40)\n      dup1\n      swap2\n      sub\n      swap1\n      return\n        /* \"contracts/contract.sol\":8869:8898  uint256 public presaleEndTime */\n    tag_4:\n      callvalue\n      dup1\n      iszero\n      tag_56\n      jumpi\n      0x00\n      dup1\n      revert\n    tag_56:\n      pop\n      tag_57\n      tag_58\n      jump\t// in\n    tag_57:\n      mload(0x40)\n      tag_59\n      swap2\n      swap1\n      tag_55\n      jump\t// in\n    tag_59:\n      mload(0x40)\n      dup1\n      swap2\n      sub\n      swap1\n      return\n        /* \"contracts/contract.sol\":12061:12243  function startUnlocking() external onlyOwner isPresaleEnded {... */\n    tag_5:\n      callvalue\n      dup1\n      iszero\n      tag_60\n      jumpi\n      0x00\n      dup1\n      revert\n    tag_60:\n      pop\n      tag_61\n      tag_62\n      jump\t// in\n    tag_61:\n      stop\n        /* \"contracts/contract.sol\":8904:8934  bool public isUnlockingStarted */\n    tag_6:\n      callvalue\n      dup1\n      iszero\n      tag_63\n      jumpi\n      0x00\n      dup1\n      revert\n    tag_63:\n      pop\n      tag_64\n      tag_65\n      jump\t// in\n    tag_64:\n      mload(0x40)\n      tag_66\n      swap2\n      swap1\n      tag_67\n      jump\t// in\n    tag_66:\n      mload(0x40)\n      dup1\n      swap2\n      sub\n      swap1\n      return\n        /* \"contracts/contract.sol\":18025:18131  function withdrawCurrency(uint256 amt) public onlyOwner {... */\n    tag_7:\n      callvalue\n      dup1\n      iszero\n      tag_68\n      jumpi\n      0x00\n      dup1\n      revert\n    tag_68:\n      pop\n      tag_69\n      0x04\n      dup1\n      calldatasize\n      sub\n      dup2\n      add\n      swap1\n      tag_70\n      swap2\n      swap1\n      tag_47\n      jump\t// in\n    tag_70:\n      tag_71\n      jump\t// in\n    tag_69:\n      stop\n        /* \"contracts/contract.sol\":8940:8997  mapping(address => BuyerTokenDetails) public buyersAmount */\n    tag_8:\n      callvalue\n      dup1\n      iszero\n      tag_72\n      jumpi\n      0x00\n      dup1\n      revert\n    tag_72:\n      pop\n      tag_73\n      0x04\n      dup1\n      calldatasize\n      sub\n      dup2\n      add\n      swap1\n      tag_74\n      swap2\n      swap1\n      tag_75\n      jump\t// in\n    tag_74:\n      tag_76\n      jump\t// in\n    tag_73:\n      mload(0x40)\n      tag_77\n      swap3\n      swap2\n      swap1\n      tag_78\n      jump\t// in\n    tag_77:\n      mload(0x40)\n      dup1\n      swap2\n      sub\n      swap1\n      return\n        /* \"contracts/contract.sol\":11113:11299  function startAndSetPresaleEndTime(... */\n    tag_9:\n      callvalue\n      dup1\n      iszero\n      tag_79\n      jumpi\n      0x00\n      dup1\n      revert\n    tag_79:\n      pop\n      tag_80\n      0x04\n      dup1\n      calldatasize\n      sub\n      dup2\n      add\n      swap1\n      tag_81\n      swap2\n      swap1\n      tag_47\n      jump\t// in\n    tag_81:\n      tag_82\n      jump\t// in\n    tag_80:\n      stop\n        /* \"contracts/contract.sol\":9003:9033  uint256 public totalTokensSold */\n    tag_10:\n      callvalue\n      dup1\n      iszero\n      tag_83\n      jumpi\n      0x00\n      dup1\n      revert\n    tag_83:\n      pop\n      tag_84\n      tag_85\n      jump\t// in\n    tag_84:\n      mload(0x40)\n      tag_86\n      swap2\n      swap1\n      tag_55\n      jump\t// in\n    tag_86:\n      mload(0x40)\n      dup1\n      swap2\n      sub\n      swap1\n      return\n        /* \"contracts/contract.sol\":11455:11685  function addWhiteListedToken(... */\n    tag_11:\n      callvalue\n      dup1\n      iszero\n      tag_87\n      jumpi\n      0x00\n      dup1\n      revert\n    tag_87:\n      pop\n      tag_88\n      0x04\n      dup1\n      calldatasize\n      sub\n      dup2\n      add\n      swap1\n      tag_89\n      swap2\n      swap1\n      tag_90\n      jump\t// in\n    tag_89:\n      tag_91\n      jump\t// in\n    tag_88:\n      stop\n        /* \"contracts/contract.sol\":8745:8794  mapping(address => uint256[4]) public tokenPrices */\n    tag_12:\n      callvalue\n      dup1\n      iszero\n      tag_92\n      jumpi\n      0x00\n      dup1\n      revert\n    tag_92:\n      pop\n      tag_93\n      0x04\n      dup1\n      calldatasize\n      sub\n      dup2\n      add\n      swap1\n      tag_94\n      swap2\n      swap1\n      tag_52\n      jump\t// in\n    tag_94:\n      tag_95\n      jump\t// in\n    tag_93:\n      mload(0x40)\n      tag_96\n      swap2\n      swap1\n      tag_55\n      jump\t// in\n    tag_96:\n      mload(0x40)\n      dup1\n      swap2\n      sub\n      swap1\n      return\n        /* \"contracts/contract.sol\":15095:16324  function buyToken(... */\n    tag_13:\n      tag_97\n      0x04\n      dup1\n      calldatasize\n      sub\n      dup2\n      add\n      swap1\n      tag_98\n      swap2\n      swap1\n      tag_52\n      jump\t// in\n    tag_98:\n      tag_99\n      jump\t// in\n    tag_97:\n      stop\n        /* \"contracts/contract.sol\":8636:8662  uint256 public maxBuyLimit */\n    tag_14:\n      callvalue\n      dup1\n      iszero\n      tag_100\n      jumpi\n      0x00\n      dup1\n      revert\n    tag_100:\n      pop\n      tag_101\n      tag_102\n      jump\t// in\n    tag_101:\n      mload(0x40)\n      tag_103\n      swap2\n      swap1\n      tag_55\n      jump\t// in\n    tag_103:\n      mload(0x40)\n      dup1\n      swap2\n      sub\n      swap1\n      return\n        /* \"contracts/contract.sol\":8597:8630  uint256 public totalTokensforSale */\n    tag_15:\n      callvalue\n      dup1\n      iszero\n      tag_104\n      jumpi\n      0x00\n      dup1\n      revert\n    tag_104:\n      pop\n      tag_105\n      tag_106\n      jump\t// in\n    tag_105:\n      mload(0x40)\n      tag_107\n      swap2\n      swap1\n      tag_55\n      jump\t// in\n    tag_107:\n      mload(0x40)\n      dup1\n      swap2\n      sub\n      swap1\n      return\n        /* \"contracts/contract.sol\":1581:1682  function renounceOwnership() public virtual onlyOwner {... */\n    tag_16:\n      callvalue\n      dup1\n      iszero\n      tag_108\n      jumpi\n      0x00\n      dup1\n      revert\n    tag_108:\n      pop\n      tag_109\n      tag_110\n      jump\t// in\n    tag_109:\n      stop\n        /* \"contracts/contract.sol\":13601:14117  function getCurrentTier() public pure returns (uint) {... */\n    tag_17:\n      callvalue\n      dup1\n      iszero\n      tag_111\n      jumpi\n      0x00\n      dup1\n      revert\n    tag_111:\n      pop\n      tag_112\n      tag_113\n      jump\t// in\n    tag_112:\n      mload(0x40)\n      tag_114\n      swap2\n      swap1\n      tag_55\n      jump\t// in\n    tag_114:\n      mload(0x40)\n      dup1\n      swap2\n      sub\n      swap1\n      return\n        /* \"contracts/contract.sol\":16936:17041  function setMaxBuyLimit(uint _maxBuyLimit) external onlyOwner {... */\n    tag_18:\n      callvalue\n      dup1\n      iszero\n      tag_115\n      jumpi\n      0x00\n      dup1\n      revert\n    tag_115:\n      pop\n      tag_116\n      0x04\n      dup1\n      calldatasize\n      sub\n      dup2\n      add\n      swap1\n      tag_117\n      swap2\n      swap1\n      tag_47\n      jump\t// in\n    tag_117:\n      tag_118\n      jump\t// in\n    tag_116:\n      stop\n        /* \"contracts/contract.sol\":10368:11107  function setSaleTokenParams(... */\n    tag_19:\n      callvalue\n      dup1\n      iszero\n      tag_119\n      jumpi\n      0x00\n      dup1\n      revert\n    tag_119:\n      pop\n      tag_120\n      0x04\n      dup1\n      calldatasize\n      sub\n      dup2\n      add\n      swap1\n      tag_121\n      swap2\n      swap1\n      tag_52\n      jump\t// in\n    tag_121:\n      tag_122\n      jump\t// in\n    tag_120:\n      stop\n        /* \"contracts/contract.sol\":8700:8739  mapping(address => bool) public tokenWL */\n    tag_20:\n      callvalue\n      dup1\n      iszero\n      tag_123\n      jumpi\n      0x00\n      dup1\n      revert\n    tag_123:\n      pop\n      tag_124\n      0x04\n      dup1\n      calldatasize\n      sub\n      dup2\n      add\n      swap1\n      tag_125\n      swap2\n      swap1\n      tag_75\n      jump\t// in\n    tag_125:\n      tag_126\n      jump\t// in\n    tag_124:\n      mload(0x40)\n      tag_127\n      swap2\n      swap1\n      tag_67\n      jump\t// in\n    tag_127:\n      mload(0x40)\n      dup1\n      swap2\n      sub\n      swap1\n      return\n        /* \"contracts/contract.sol\":1369:1454  function owner() public view virtual returns (address) {... */\n    tag_21:\n      callvalue\n      dup1\n      iszero\n      tag_128\n      jumpi\n      0x00\n      dup1\n      revert\n    tag_128:\n      pop\n      tag_129\n      tag_130\n      jump\t// in\n    tag_129:\n      mload(0x40)\n      tag_131\n      swap2\n      swap1\n      tag_132\n      jump\t// in\n    tag_131:\n      mload(0x40)\n      dup1\n      swap2\n      sub\n      swap1\n      return\n        /* \"contracts/contract.sol\":16825:16930  function setMinBuyLimit(uint _minBuyLimit) external onlyOwner {... */\n    tag_22:\n      callvalue\n      dup1\n      iszero\n      tag_133\n      jumpi\n      0x00\n      dup1\n      revert\n    tag_133:\n      pop\n      tag_134\n      0x04\n      dup1\n      calldatasize\n      sub\n      dup2\n      add\n      swap1\n      tag_135\n      swap2\n      swap1\n      tag_47\n      jump\t// in\n    tag_135:\n      tag_136\n      jump\t// in\n    tag_134:\n      stop\n        /* \"contracts/contract.sol\":8832:8863  uint256 public presaleStartTime */\n    tag_23:\n      callvalue\n      dup1\n      iszero\n      tag_137\n      jumpi\n      0x00\n      dup1\n      revert\n    tag_137:\n      pop\n      tag_138\n      tag_139\n      jump\t// in\n    tag_138:\n      mload(0x40)\n      tag_140\n      swap2\n      swap1\n      tag_55\n      jump\t// in\n    tag_140:\n      mload(0x40)\n      dup1\n      swap2\n      sub\n      swap1\n      return\n        /* \"contracts/contract.sol\":8567:8591  uint public saleTokenDec */\n    tag_24:\n      callvalue\n      dup1\n      iszero\n      tag_141\n      jumpi\n      0x00\n      dup1\n      revert\n    tag_141:\n      pop\n      tag_142\n      tag_143\n      jump\t// in\n    tag_142:\n      mload(0x40)\n      tag_144\n      swap2\n      swap1\n      tag_55\n      jump\t// in\n    tag_144:\n      mload(0x40)\n      dup1\n      swap2\n      sub\n      swap1\n      return\n        /* \"contracts/contract.sol\":12248:12429  function stopUnlocking() external onlyOwner isPresaleEnded {... */\n    tag_25:\n      callvalue\n      dup1\n      iszero\n      tag_145\n      jumpi\n      0x00\n      dup1\n      revert\n    tag_145:\n      pop\n      tag_146\n      tag_147\n      jump\t// in\n    tag_146:\n      stop\n        /* \"contracts/contract.sol\":8668:8694  uint256 public minBuyLimit */\n    tag_26:\n      callvalue\n      dup1\n      iszero\n      tag_148\n      jumpi\n      0x00\n      dup1\n      revert\n    tag_148:\n      pop\n      tag_149\n      tag_150\n      jump\t// in\n    tag_149:\n      mload(0x40)\n      tag_151\n      swap2\n      swap1\n      tag_55\n      jump\t// in\n    tag_151:\n      mload(0x40)\n      dup1\n      swap2\n      sub\n      swap1\n      return\n        /* \"contracts/contract.sol\":16331:16819  function withdrawToken() external {... */\n    tag_27:\n      callvalue\n      dup1\n      iszero\n      tag_152\n      jumpi\n      0x00\n      dup1\n      revert\n    tag_152:\n      pop\n      tag_153\n      tag_154\n      jump\t// in\n    tag_153:\n      stop\n        /* \"contracts/contract.sol\":11791:12055  function updateTokenRate(... */\n    tag_28:\n      callvalue\n      dup1\n      iszero\n      tag_155\n      jumpi\n      0x00\n      dup1\n      revert\n    tag_155:\n      pop\n      tag_156\n      0x04\n      dup1\n      calldatasize\n      sub\n      dup2\n      add\n      swap1\n      tag_157\n      swap2\n      swap1\n      tag_90\n      jump\t// in\n    tag_157:\n      tag_158\n      jump\t// in\n    tag_156:\n      stop\n        /* \"contracts/contract.sol\":17047:17207  function withdrawSaleToken(... */\n    tag_29:\n      callvalue\n      dup1\n      iszero\n      tag_159\n      jumpi\n      0x00\n      dup1\n      revert\n    tag_159:\n      pop\n      tag_160\n      0x04\n      dup1\n      calldatasize\n      sub\n      dup2\n      add\n      swap1\n      tag_161\n      swap2\n      swap1\n      tag_47\n      jump\t// in\n    tag_161:\n      tag_162\n      jump\t// in\n    tag_160:\n      stop\n        /* \"contracts/contract.sol\":8509:8531  uint256[4] public rate */\n    tag_30:\n      callvalue\n      dup1\n      iszero\n      tag_163\n      jumpi\n      0x00\n      dup1\n      revert\n    tag_163:\n      pop\n      tag_164\n      0x04\n      dup1\n      calldatasize\n      sub\n      dup2\n      add\n      swap1\n      tag_165\n      swap2\n      swap1\n      tag_47\n      jump\t// in\n    tag_165:\n      tag_166\n      jump\t// in\n    tag_164:\n      mload(0x40)\n      tag_167\n      swap2\n      swap1\n      tag_55\n      jump\t// in\n    tag_167:\n      mload(0x40)\n      dup1\n      swap2\n      sub\n      swap1\n      return\n        /* \"contracts/contract.sol\":8537:8561  address public saleToken */\n    tag_31:\n      callvalue\n      dup1\n      iszero\n      tag_168\n      jumpi\n      0x00\n      dup1\n      revert\n    tag_168:\n      pop\n      tag_169\n      tag_170\n      jump\t// in\n    tag_169:\n      mload(0x40)\n      tag_171\n      swap2\n      swap1\n      tag_132\n      jump\t// in\n    tag_171:\n      mload(0x40)\n      dup1\n      swap2\n      sub\n      swap1\n      return\n        /* \"contracts/contract.sol\":11690:11786  function updateEthRate(uint256[4] memory _rate) external onlyOwner {... */\n    tag_32:\n      callvalue\n      dup1\n      iszero\n      tag_172\n      jumpi\n      0x00\n      dup1\n      revert\n    tag_172:\n      pop\n      tag_173\n      0x04\n      dup1\n      calldatasize\n      sub\n      dup2\n      add\n      swap1\n      tag_174\n      swap2\n      swap1\n      tag_175\n      jump\t// in\n    tag_174:\n      tag_176\n      jump\t// in\n    tag_173:\n      stop\n        /* \"contracts/contract.sol\":1687:1919  function transferOwnership(address newOwner) public virtual onlyOwner {... */\n    tag_33:\n      callvalue\n      dup1\n      iszero\n      tag_177\n      jumpi\n      0x00\n      dup1\n      revert\n    tag_177:\n      pop\n      tag_178\n      0x04\n      dup1\n      calldatasize\n      sub\n      dup2\n      add\n      swap1\n      tag_179\n      swap2\n      swap1\n      tag_75\n      jump\t// in\n    tag_179:\n      tag_180\n      jump\t// in\n    tag_178:\n      stop\n        /* \"contracts/contract.sol\":17415:17698  function withdraw(address token, uint256 amt) public onlyOwner {... */\n    tag_34:\n      callvalue\n      dup1\n      iszero\n      tag_181\n      jumpi\n      0x00\n      dup1\n      revert\n    tag_181:\n      pop\n      tag_182\n      0x04\n      dup1\n      calldatasize\n      sub\n      dup2\n      add\n      swap1\n      tag_183\n      swap2\n      swap1\n      tag_52\n      jump\t// in\n    tag_183:\n      tag_184\n      jump\t// in\n    tag_182:\n      stop\n        /* \"contracts/contract.sol\":17704:18019  function withdrawAll(address token) public onlyOwner {... */\n    tag_35:\n      callvalue\n      dup1\n      iszero\n      tag_185\n      jumpi\n      0x00\n      dup1\n      revert\n    tag_185:\n      pop\n      tag_186\n      0x04\n      dup1\n      calldatasize\n      sub\n      dup2\n      add\n      swap1\n      tag_187\n      swap2\n      swap1\n      tag_75\n      jump\t// in\n    tag_187:\n      tag_188\n      jump\t// in\n    tag_186:\n      stop\n        /* \"contracts/contract.sol\":17213:17409  function withdrawAllSaleToken() external onlyOwner isPresaleEnded {... */\n    tag_36:\n      callvalue\n      dup1\n      iszero\n      tag_189\n      jumpi\n      0x00\n      dup1\n      revert\n    tag_189:\n      pop\n      tag_190\n      tag_191\n      jump\t// in\n    tag_190:\n      stop\n        /* \"contracts/contract.sol\":11305:11449  function upateTime(... */\n    tag_48:\n        /* \"contracts/contract.sol\":1509:1521  _msgSender() */\n      tag_193\n        /* \"contracts/contract.sol\":1509:1519  _msgSender */\n      tag_194\n        /* \"contracts/contract.sol\":1509:1521  _msgSender() */\n      jump\t// in\n    tag_193:\n        /* \"contracts/contract.sol\":1498:1521  owner() == _msgSender() */\n      0xffffffffffffffffffffffffffffffffffffffff\n      and\n        /* \"contracts/contract.sol\":1498:1505  owner() */\n      tag_195\n        /* \"contracts/contract.sol\":1498:1503  owner */\n      tag_130\n        /* \"contracts/contract.sol\":1498:1505  owner() */\n      jump\t// in\n    tag_195:\n        /* \"contracts/contract.sol\":1498:1521  owner() == _msgSender() */\n      0xffffffffffffffffffffffffffffffffffffffff\n      and\n      eq\n        /* \"contracts/contract.sol\":1490:1558  require(owner() == _msgSender(), \"Ownable: caller is not the owner\") */\n      tag_196\n      jumpi\n      mload(0x40)\n      0x08c379a000000000000000000000000000000000000000000000000000000000\n      dup2\n      mstore\n      0x04\n      add\n      tag_197\n      swap1\n      tag_198\n      jump\t// in\n    tag_197:\n      mload(0x40)\n      dup1\n      swap2\n      sub\n      swap1\n      revert\n    tag_196:\n        /* \"contracts/contract.sol\":11427:11442  _presaleEndTime */\n      dup1\n        /* \"contracts/contract.sol\":11409:11424  block.timestamp */\n      timestamp\n        /* \"contracts/contract.sol\":11409:11442  block.timestamp + _presaleEndTime */\n      tag_200\n      swap2\n      swap1\n      tag_201\n      jump\t// in\n    tag_200:\n        /* \"contracts/contract.sol\":11392:11406  presaleEndTime */\n      0x0d\n        /* \"contracts/contract.sol\":11392:11442  presaleEndTime = block.timestamp + _presaleEndTime */\n      dup2\n      swap1\n      sstore\n      pop\n        /* \"contracts/contract.sol\":11305:11449  function upateTime(... */\n      pop\n      jump\t// out\n        /* \"contracts/contract.sol\":14127:14734  function getTokenAmount(... */\n    tag_53:\n        /* \"contracts/contract.sol\":14225:14232  uint256 */\n      0x00\n        /* \"contracts/contract.sol\":14244:14258  uint256 amtOut */\n      dup1\n        /* \"contracts/contract.sol\":14268:14277  uint tier */\n      0x00\n        /* \"contracts/contract.sol\":14280:14296  getCurrentTier() */\n      tag_203\n        /* \"contracts/contract.sol\":14280:14294  getCurrentTier */\n      tag_113\n        /* \"contracts/contract.sol\":14280:14296  getCurrentTier() */\n      jump\t// in\n    tag_203:\n        /* \"contracts/contract.sol\":14268:14296  uint tier = getCurrentTier() */\n      swap1\n      pop\n        /* \"contracts/contract.sol\":14327:14328  0 */\n      0x00\n        /* \"contracts/contract.sol\":14310:14329  token != address(0) */\n      0xffffffffffffffffffffffffffffffffffffffff\n      and\n        /* \"contracts/contract.sol\":14310:14315  token */\n      dup6\n        /* \"contracts/contract.sol\":14310:14329  token != address(0) */\n      0xffffffffffffffffffffffffffffffffffffffff\n      and\n      eq\n        /* \"contracts/contract.sol\":14306:14705  if (token != address(0)) {... */\n      tag_204\n      jumpi\n        /* \"contracts/contract.sol\":14353:14360  tokenWL */\n      0x0a\n        /* \"contracts/contract.sol\":14353:14367  tokenWL[token] */\n      0x00\n        /* \"contracts/contract.sol\":14361:14366  token */\n      dup7\n        /* \"contracts/contract.sol\":14353:14367  tokenWL[token] */\n      0xffffffffffffffffffffffffffffffffffffffff\n      and\n      0xffffffffffffffffffffffffffffffffffffffff\n      and\n      dup2\n      mstore\n      0x20\n      add\n      swap1\n      dup2\n      mstore\n      0x20\n      add\n      0x00\n      keccak256\n      0x00\n      swap1\n      sload\n      swap1\n      0x0100\n      exp\n      swap1\n      div\n      0xff\n      and\n        /* \"contracts/contract.sol\":14345:14402  require(tokenWL[token], \"Presale: Token not whitelisted\") */\n      tag_205\n      jumpi\n      mload(0x40)\n      0x08c379a000000000000000000000000000000000000000000000000000000000\n      dup2\n      mstore\n      0x04\n      add\n      tag_206\n      swap1\n      tag_207\n      jump\t// in\n    tag_206:\n      mload(0x40)\n      dup1\n      swap2\n      sub\n      swap1\n      revert\n    tag_205:\n        /* \"contracts/contract.sol\":14454:14455  0 */\n      0x00\n        /* \"contracts/contract.sol\":14426:14437  tokenPrices */\n      0x0b\n        /* \"contracts/contract.sol\":14426:14444  tokenPrices[token] */\n      0x00\n        /* \"contracts/contract.sol\":14438:14443  token */\n      dup8\n        /* \"contracts/contract.sol\":14426:14444  tokenPrices[token] */\n      0xffffffffffffffffffffffffffffffffffffffff\n      and\n      0xffffffffffffffffffffffffffffffffffffffff\n      and\n      dup2\n      mstore\n      0x20\n      add\n      swap1\n      dup2\n      mstore\n      0x20\n      add\n      0x00\n      keccak256\n        /* \"contracts/contract.sol\":14445:14449  tier */\n      dup3\n        /* \"contracts/contract.sol\":14426:14450  tokenPrices[token][tier] */\n      0x04\n      dup2\n      lt\n      tag_208\n      jumpi\n      tag_209\n      tag_210\n      jump\t// in\n    tag_209:\n    tag_208:\n      add\n      sload\n        /* \"contracts/contract.sol\":14426:14455  tokenPrices[token][tier] != 0 */\n      sub\n        /* \"contracts/contract.sol\":14426:14554  tokenPrices[token][tier] != 0... */\n      tag_212\n      jumpi\n        /* \"contracts/contract.sol\":14553:14554  0 */\n      0x00\n        /* \"contracts/contract.sol\":14426:14554  tokenPrices[token][tier] != 0... */\n      jump(tag_213)\n    tag_212:\n        /* \"contracts/contract.sol\":14509:14520  tokenPrices */\n      0x0b\n        /* \"contracts/contract.sol\":14509:14527  tokenPrices[token] */\n      0x00\n        /* \"contracts/contract.sol\":14521:14526  token */\n      dup7\n        /* \"contracts/contract.sol\":14509:14527  tokenPrices[token] */\n      0xffffffffffffffffffffffffffffffffffffffff\n      and\n      0xffffffffffffffffffffffffffffffffffffffff\n      and\n      dup2\n      mstore\n      0x20\n      add\n      swap1\n      dup2\n      mstore\n      0x20\n      add\n      0x00\n      keccak256\n        /* \"contracts/contract.sol\":14528:14532  tier */\n      dup2\n        /* \"contracts/contract.sol\":14509:14533  tokenPrices[token][tier] */\n      0x04\n      dup2\n      lt\n      tag_214\n      jumpi\n      tag_215\n      tag_210\n      jump\t// in\n    tag_215:\n    tag_214:\n      add\n      sload\n        /* \"contracts/contract.sol\":14491:14503  saleTokenDec */\n      sload(0x06)\n        /* \"contracts/contract.sol\":14485:14487  10 */\n      0x0a\n        /* \"contracts/contract.sol\":14485:14503  10 ** saleTokenDec */\n      tag_217\n      swap2\n      swap1\n      tag_218\n      jump\t// in\n    tag_217:\n        /* \"contracts/contract.sol\":14475:14481  amount */\n      dup6\n        /* \"contracts/contract.sol\":14475:14504  amount * (10 ** saleTokenDec) */\n      tag_219\n      swap2\n      swap1\n      tag_220\n      jump\t// in\n    tag_219:\n        /* \"contracts/contract.sol\":14474:14534  (amount * (10 ** saleTokenDec)) / (tokenPrices[token][tier]) */\n      tag_221\n      swap2\n      swap1\n      tag_222\n      jump\t// in\n    tag_221:\n        /* \"contracts/contract.sol\":14426:14554  tokenPrices[token][tier] != 0... */\n    tag_213:\n        /* \"contracts/contract.sol\":14417:14554  amtOut = tokenPrices[token][tier] != 0... */\n      swap2\n      pop\n        /* \"contracts/contract.sol\":14306:14705  if (token != address(0)) {... */\n      jump(tag_223)\n    tag_204:\n        /* \"contracts/contract.sol\":14608:14609  0 */\n      0x00\n        /* \"contracts/contract.sol\":14594:14598  rate */\n      0x01\n        /* \"contracts/contract.sol\":14599:14603  tier */\n      dup3\n        /* \"contracts/contract.sol\":14594:14604  rate[tier] */\n      0x04\n      dup2\n      lt\n      tag_224\n      jumpi\n      tag_225\n      tag_210\n      jump\t// in\n    tag_225:\n    tag_224:\n      add\n      sload\n        /* \"contracts/contract.sol\":14594:14609  rate[tier] != 0 */\n      sub\n        /* \"contracts/contract.sol\":14594:14694  rate[tier] != 0... */\n      tag_227\n      jumpi\n        /* \"contracts/contract.sol\":14693:14694  0 */\n      0x00\n        /* \"contracts/contract.sol\":14594:14694  rate[tier] != 0... */\n      jump(tag_228)\n    tag_227:\n        /* \"contracts/contract.sol\":14663:14667  rate */\n      0x01\n        /* \"contracts/contract.sol\":14668:14672  tier */\n      dup2\n        /* \"contracts/contract.sol\":14663:14673  rate[tier] */\n      0x04\n      dup2\n      lt\n      tag_229\n      jumpi\n      tag_230\n      tag_210\n      jump\t// in\n    tag_230:\n    tag_229:\n      add\n      sload\n        /* \"contracts/contract.sol\":14645:14657  saleTokenDec */\n      sload(0x06)\n        /* \"contracts/contract.sol\":14639:14641  10 */\n      0x0a\n        /* \"contracts/contract.sol\":14639:14657  10 ** saleTokenDec */\n      tag_232\n      swap2\n      swap1\n      tag_218\n      jump\t// in\n    tag_232:\n        /* \"contracts/contract.sol\":14629:14635  amount */\n      dup6\n        /* \"contracts/contract.sol\":14629:14658  amount * (10 ** saleTokenDec) */\n      tag_233\n      swap2\n      swap1\n      tag_220\n      jump\t// in\n    tag_233:\n        /* \"contracts/contract.sol\":14628:14674  (amount * (10 ** saleTokenDec)) / (rate[tier]) */\n      tag_234\n      swap2\n      swap1\n      tag_222\n      jump\t// in\n    tag_234:\n        /* \"contracts/contract.sol\":14594:14694  rate[tier] != 0... */\n    tag_228:\n        /* \"contracts/contract.sol\":14585:14694  amtOut = rate[tier] != 0... */\n      swap2\n      pop\n        /* \"contracts/contract.sol\":14306:14705  if (token != address(0)) {... */\n    tag_223:\n        /* \"contracts/contract.sol\":14721:14727  amtOut */\n      dup2\n        /* \"contracts/contract.sol\":14714:14727  return amtOut */\n      swap3\n      pop\n      pop\n      pop\n        /* \"contracts/contract.sol\":14127:14734  function getTokenAmount(... */\n      swap3\n      swap2\n      pop\n      pop\n      jump\t// out\n        /* \"contracts/contract.sol\":8869:8898  uint256 public presaleEndTime */\n    tag_58:\n      sload(0x0d)\n      dup2\n      jump\t// out\n        /* \"contracts/contract.sol\":12061:12243  function startUnlocking() external onlyOwner isPresaleEnded {... */\n    tag_62:\n        /* \"contracts/contract.sol\":1509:1521  _msgSender() */\n      tag_236\n        /* \"contracts/contract.sol\":1509:1519  _msgSender */\n      tag_194\n        /* \"contracts/contract.sol\":1509:1521  _msgSender() */\n      jump\t// in\n    tag_236:\n        /* \"contracts/contract.sol\":1498:1521  owner() == _msgSender() */\n      0xffffffffffffffffffffffffffffffffffffffff\n      and\n        /* \"contracts/contract.sol\":1498:1505  owner() */\n      tag_237\n        /* \"contracts/contract.sol\":1498:1503  owner */\n      tag_130\n        /* \"contracts/contract.sol\":1498:1505  owner() */\n      jump\t// in\n    tag_237:\n        /* \"contracts/contract.sol\":1498:1521  owner() == _msgSender() */\n      0xffffffffffffffffffffffffffffffffffffffff\n      and\n      eq\n        /* \"contracts/contract.sol\":1490:1558  require(owner() == _msgSender(), \"Ownable: caller is not the owner\") */\n      tag_238\n      jumpi\n      mload(0x40)\n      0x08c379a000000000000000000000000000000000000000000000000000000000\n      dup2\n      mstore\n      0x04\n      add\n      tag_239\n      swap1\n      tag_198\n      jump\t// in\n    tag_239:\n      mload(0x40)\n      dup1\n      swap2\n      sub\n      swap1\n      revert\n    tag_238:\n        /* \"contracts/contract.sol\":9890:9904  presaleEndTime */\n      sload(0x0d)\n        /* \"contracts/contract.sol\":9871:9886  block.timestamp */\n      timestamp\n        /* \"contracts/contract.sol\":9871:9904  block.timestamp >= presaleEndTime */\n      lt\n      iszero\n        /* \"contracts/contract.sol\":9850:9964  require(... */\n      tag_241\n      jumpi\n      mload(0x40)\n      0x08c379a000000000000000000000000000000000000000000000000000000000\n      dup2\n      mstore\n      0x04\n      add\n      tag_242\n      swap1\n      tag_243\n      jump\t// in\n    tag_242:\n      mload(0x40)\n      dup1\n      swap2\n      sub\n      swap1\n      revert\n    tag_241:\n        /* \"contracts/contract.sol\":12140:12158  isUnlockingStarted */\n      0x0e\n      0x00\n      swap1\n      sload\n      swap1\n      0x0100\n      exp\n      swap1\n      div\n      0xff\n      and\n        /* \"contracts/contract.sol\":12139:12158  !isUnlockingStarted */\n      iszero\n        /* \"contracts/contract.sol\":12131:12201  require(!isUnlockingStarted, \"Presale: Unlocking has already started\") */\n      tag_245\n      jumpi\n      mload(0x40)\n      0x08c379a000000000000000000000000000000000000000000000000000000000\n      dup2\n      mstore\n      0x04\n      add\n      tag_246\n      swap1\n      tag_247\n      jump\t// in\n    tag_246:\n      mload(0x40)\n      dup1\n      swap2\n      sub\n      swap1\n      revert\n    tag_245:\n        /* \"contracts/contract.sol\":12232:12236  true */\n      0x01\n        /* \"contracts/contract.sol\":12211:12229  isUnlockingStarted */\n      0x0e\n      0x00\n        /* \"contracts/contract.sol\":12211:12236  isUnlockingStarted = true */\n      0x0100\n      exp\n      dup2\n      sload\n      dup2\n      0xff\n      mul\n      not\n      and\n      swap1\n      dup4\n      iszero\n      iszero\n      mul\n      or\n      swap1\n      sstore\n      pop\n        /* \"contracts/contract.sol\":12061:12243  function startUnlocking() external onlyOwner isPresaleEnded {... */\n      jump\t// out\n        /* \"contracts/contract.sol\":8904:8934  bool public isUnlockingStarted */\n    tag_65:\n      0x0e\n      0x00\n      swap1\n      sload\n      swap1\n      0x0100\n      exp\n      swap1\n      div\n      0xff\n      and\n      dup2\n      jump\t// out\n        /* \"contracts/contract.sol\":18025:18131  function withdrawCurrency(uint256 amt) public onlyOwner {... */\n    tag_71:\n        /* \"contracts/contract.sol\":1509:1521  _msgSender() */\n      tag_249\n        /* \"contracts/contract.sol\":1509:1519  _msgSender */\n      tag_194\n        /* \"contracts/contract.sol\":1509:1521  _msgSender() */\n      jump\t// in\n    tag_249:\n        /* \"contracts/contract.sol\":1498:1521  owner() == _msgSender() */\n      0xffffffffffffffffffffffffffffffffffffffff\n      and\n        /* \"contracts/contract.sol\":1498:1505  owner() */\n      tag_250\n        /* \"contracts/contract.sol\":1498:1503  owner */\n      tag_130\n        /* \"contracts/contract.sol\":1498:1505  owner() */\n      jump\t// in\n    tag_250:\n        /* \"contracts/contract.sol\":1498:1521  owner() == _msgSender() */\n      0xffffffffffffffffffffffffffffffffffffffff\n      and\n      eq\n        /* \"contracts/contract.sol\":1490:1558  require(owner() == _msgSender(), \"Ownable: caller is not the owner\") */\n      tag_251\n      jumpi\n      mload(0x40)\n      0x08c379a000000000000000000000000000000000000000000000000000000000\n      dup2\n      mstore\n      0x04\n      add\n      tag_252\n      swap1\n      tag_198\n      jump\t// in\n    tag_252:\n      mload(0x40)\n      dup1\n      swap2\n      sub\n      swap1\n      revert\n    tag_251:\n        /* \"contracts/contract.sol\":18099:18109  msg.sender */\n      caller\n        /* \"contracts/contract.sol\":18091:18119  payable(msg.sender).transfer */\n      0xffffffffffffffffffffffffffffffffffffffff\n      and\n        /* \"contracts/contract.sol\":18091:18124  payable(msg.sender).transfer(amt) */\n      0x08fc\n        /* \"contracts/contract.sol\":18120:18123  amt */\n      dup3\n        /* \"contracts/contract.sol\":18091:18124  payable(msg.sender).transfer(amt) */\n      swap1\n      dup2\n      iszero\n      mul\n      swap1\n      mload(0x40)\n      0x00\n      mload(0x40)\n      dup1\n      dup4\n      sub\n      dup2\n      dup6\n      dup9\n      dup9\n      call\n      swap4\n      pop\n      pop\n      pop\n      pop\n      iszero\n      dup1\n      iszero\n      tag_255\n      jumpi\n      returndatasize\n      0x00\n      dup1\n      returndatacopy\n      revert(0x00, returndatasize)\n    tag_255:\n      pop\n        /* \"contracts/contract.sol\":18025:18131  function withdrawCurrency(uint256 amt) public onlyOwner {... */\n      pop\n      jump\t// out\n        /* \"contracts/contract.sol\":8940:8997  mapping(address => BuyerTokenDetails) public buyersAmount */\n    tag_76:\n      mstore(0x20, 0x0f)\n      dup1\n      0x00\n      mstore\n      keccak256(0x00, 0x40)\n      0x00\n      swap2\n      pop\n      swap1\n      pop\n      dup1\n      0x00\n      add\n      sload\n      swap1\n      dup1\n      0x01\n      add\n      0x00\n      swap1\n      sload\n      swap1\n      0x0100\n      exp\n      swap1\n      div\n      0xff\n      and\n      swap1\n      pop\n      dup3\n      jump\t// out\n        /* \"contracts/contract.sol\":11113:11299  function startAndSetPresaleEndTime(... */\n    tag_82:\n        /* \"contracts/contract.sol\":1509:1521  _msgSender() */\n      tag_257\n        /* \"contracts/contract.sol\":1509:1519  _msgSender */\n      tag_194\n        /* \"contracts/contract.sol\":1509:1521  _msgSender() */\n      jump\t// in\n    tag_257:\n        /* \"contracts/contract.sol\":1498:1521  owner() == _msgSender() */\n      0xffffffffffffffffffffffffffffffffffffffff\n      and\n        /* \"contracts/contract.sol\":1498:1505  owner() */\n      tag_258\n        /* \"contracts/contract.sol\":1498:1503  owner */\n      tag_130\n        /* \"contracts/contract.sol\":1498:1505  owner() */\n      jump\t// in\n    tag_258:\n        /* \"contracts/contract.sol\":1498:1521  owner() == _msgSender() */\n      0xffffffffffffffffffffffffffffffffffffffff\n      and\n      eq\n        /* \"contracts/contract.sol\":1490:1558  require(owner() == _msgSender(), \"Ownable: caller is not the owner\") */\n      tag_259\n      jumpi\n      mload(0x40)\n      0x08c379a000000000000000000000000000000000000000000000000000000000\n      dup2\n      mstore\n      0x04\n      add\n      tag_260\n      swap1\n      tag_198\n      jump\t// in\n    tag_260:\n      mload(0x40)\n      dup1\n      swap2\n      sub\n      swap1\n      revert\n    tag_259:\n        /* \"contracts/contract.sol\":11235:11250  block.timestamp */\n      timestamp\n        /* \"contracts/contract.sol\":11216:11232  presaleStartTime */\n      0x0c\n        /* \"contracts/contract.sol\":11216:11250  presaleStartTime = block.timestamp */\n      dup2\n      swap1\n      sstore\n      pop\n        /* \"contracts/contract.sol\":11277:11292  _presaleEndTime */\n      dup1\n        /* \"contracts/contract.sol\":11260:11274  presaleEndTime */\n      0x0d\n        /* \"contracts/contract.sol\":11260:11292  presaleEndTime = _presaleEndTime */\n      dup2\n      swap1\n      sstore\n      pop\n        /* \"contracts/contract.sol\":11113:11299  function startAndSetPresaleEndTime(... */\n      pop\n      jump\t// out\n        /* \"contracts/contract.sol\":9003:9033  uint256 public totalTokensSold */\n    tag_85:\n      sload(0x10)\n      dup2\n      jump\t// out\n        /* \"contracts/contract.sol\":11455:11685  function addWhiteListedToken(... */\n    tag_91:\n        /* \"contracts/contract.sol\":1509:1521  _msgSender() */\n      tag_263\n        /* \"contracts/contract.sol\":1509:1519  _msgSender */\n      tag_194\n        /* \"contracts/contract.sol\":1509:1521  _msgSender() */\n      jump\t// in\n    tag_263:\n        /* \"contracts/contract.sol\":1498:1521  owner() == _msgSender() */\n      0xffffffffffffffffffffffffffffffffffffffff\n      and\n        /* \"contracts/contract.sol\":1498:1505  owner() */\n      tag_264\n        /* \"contracts/contract.sol\":1498:1503  owner */\n      tag_130\n        /* \"contracts/contract.sol\":1498:1505  owner() */\n      jump\t// in\n    tag_264:\n        /* \"contracts/contract.sol\":1498:1521  owner() == _msgSender() */\n      0xffffffffffffffffffffffffffffffffffffffff\n      and\n      eq\n        /* \"contracts/contract.sol\":1490:1558  require(owner() == _msgSender(), \"Ownable: caller is not the owner\") */\n      tag_265\n      jumpi\n      mload(0x40)\n      0x08c379a000000000000000000000000000000000000000000000000000000000\n      dup2\n      mstore\n      0x04\n      add\n      tag_266\n      swap1\n      tag_198\n      jump\t// in\n    tag_266:\n      mload(0x40)\n      dup1\n      swap2\n      sub\n      swap1\n      revert\n    tag_265:\n        /* \"contracts/contract.sol\":11595:11599  true */\n      0x01\n        /* \"contracts/contract.sol\":11577:11584  tokenWL */\n      0x0a\n        /* \"contracts/contract.sol\":11577:11592  tokenWL[_token] */\n      0x00\n        /* \"contracts/contract.sol\":11585:11591  _token */\n      dup5\n        /* \"contracts/contract.sol\":11577:11592  tokenWL[_token] */\n      0xffffffffffffffffffffffffffffffffffffffff\n      and\n      0xffffffffffffffffffffffffffffffffffffffff\n      and\n      dup2\n      mstore\n      0x20\n      add\n      swap1\n      dup2\n      mstore\n      0x20\n      add\n      0x00\n      keccak256\n      0x00\n        /* \"contracts/contract.sol\":11577:11599  tokenWL[_token] = true */\n      0x0100\n      exp\n      dup2\n      sload\n      dup2\n      0xff\n      mul\n      not\n      and\n      swap1\n      dup4\n      iszero\n      iszero\n      mul\n      or\n      swap1\n      sstore\n      pop\n        /* \"contracts/contract.sol\":11631:11637  _price */\n      dup1\n        /* \"contracts/contract.sol\":11609:11620  tokenPrices */\n      0x0b\n        /* \"contracts/contract.sol\":11609:11628  tokenPrices[_token] */\n      0x00\n        /* \"contracts/contract.sol\":11621:11627  _token */\n      dup5\n        /* \"contracts/contract.sol\":11609:11628  tokenPrices[_token] */\n      0xffffffffffffffffffffffffffffffffffffffff\n      and\n      0xffffffffffffffffffffffffffffffffffffffff\n      and\n      dup2\n      mstore\n      0x20\n      add\n      swap1\n      dup2\n      mstore\n      0x20\n      add\n      0x00\n      keccak256\n        /* \"contracts/contract.sol\":11609:11637  tokenPrices[_token] = _price */\n      swap1\n      0x04\n      tag_268\n      swap3\n      swap2\n      swap1\n      tag_269\n      jump\t// in\n    tag_268:\n      pop\n        /* \"contracts/contract.sol\":11652:11678  TokenAdded(_token, _price) */\n      0x46a898d5bfb8140cb704c10cf4ff6ac010411db41a0d94f60d29dc9bdc24942d\n        /* \"contracts/contract.sol\":11663:11669  _token */\n      dup3\n        /* \"contracts/contract.sol\":11671:11677  _price */\n      dup3\n        /* \"contracts/contract.sol\":11652:11678  TokenAdded(_token, _price) */\n      mload(0x40)\n      tag_270\n      swap3\n      swap2\n      swap1\n      tag_271\n      jump\t// in\n    tag_270:\n      mload(0x40)\n      dup1\n      swap2\n      sub\n      swap1\n      log1\n        /* \"contracts/contract.sol\":11455:11685  function addWhiteListedToken(... */\n      pop\n      pop\n      jump\t// out\n        /* \"contracts/contract.sol\":8745:8794  mapping(address => uint256[4]) public tokenPrices */\n    tag_95:\n      mstore(0x20, 0x0b)\n      dup2\n      0x00\n      mstore\n      keccak256(0x00, 0x40)\n      dup2\n      0x04\n      dup2\n      lt\n      tag_272\n      jumpi\n      0x00\n      dup1\n      revert\n    tag_272:\n      add\n      0x00\n      swap2\n      pop\n      swap2\n      pop\n      pop\n      sload\n      dup2\n      jump\t// out\n        /* \"contracts/contract.sol\":15095:16324  function buyToken(... */\n    tag_99:\n        /* \"contracts/contract.sol\":9580:9596  presaleStartTime */\n      sload(0x0c)\n        /* \"contracts/contract.sol\":9561:9576  block.timestamp */\n      timestamp\n        /* \"contracts/contract.sol\":9561:9596  block.timestamp >= presaleStartTime */\n      lt\n      iszero\n        /* \"contracts/contract.sol\":9540:9658  require(... */\n      tag_275\n      jumpi\n      mload(0x40)\n      0x08c379a000000000000000000000000000000000000000000000000000000000\n      dup2\n      mstore\n      0x04\n      add\n      tag_276\n      swap1\n      tag_277\n      jump\t// in\n    tag_276:\n      mload(0x40)\n      dup1\n      swap2\n      sub\n      swap1\n      revert\n    tag_275:\n        /* \"contracts/contract.sol\":9746:9760  presaleEndTime */\n      sload(0x0d)\n        /* \"contracts/contract.sol\":9728:9743  block.timestamp */\n      timestamp\n        /* \"contracts/contract.sol\":9728:9760  block.timestamp < presaleEndTime */\n      lt\n        /* \"contracts/contract.sol\":9720:9791  require(block.timestamp < presaleEndTime, \"Presale: Presale has ended\") */\n      tag_279\n      jumpi\n      mload(0x40)\n      0x08c379a000000000000000000000000000000000000000000000000000000000\n      dup2\n      mstore\n      0x04\n      add\n      tag_280\n      swap1\n      tag_281\n      jump\t// in\n    tag_280:\n      mload(0x40)\n      dup1\n      swap2\n      sub\n      swap1\n      revert\n    tag_279:\n        /* \"contracts/contract.sol\":15230:15250  uint256 saleTokenAmt */\n      0x00\n        /* \"contracts/contract.sol\":15271:15272  0 */\n      dup1\n        /* \"contracts/contract.sol\":15253:15273  _token != address(0) */\n      0xffffffffffffffffffffffffffffffffffffffff\n      and\n        /* \"contracts/contract.sol\":15253:15259  _token */\n      dup4\n        /* \"contracts/contract.sol\":15253:15273  _token != address(0) */\n      0xffffffffffffffffffffffffffffffffffffffff\n      and\n      sub\n        /* \"contracts/contract.sol\":15253:15371  _token != address(0)... */\n      tag_283\n      jumpi\n        /* \"contracts/contract.sol\":15334:15371  getTokenAmount(address(0), msg.value) */\n      tag_284\n        /* \"contracts/contract.sol\":15357:15358  0 */\n      0x00\n        /* \"contracts/contract.sol\":15361:15370  msg.value */\n      callvalue\n        /* \"contracts/contract.sol\":15334:15348  getTokenAmount */\n      tag_53\n        /* \"contracts/contract.sol\":15334:15371  getTokenAmount(address(0), msg.value) */\n      jump\t// in\n    tag_284:\n        /* \"contracts/contract.sol\":15253:15371  _token != address(0)... */\n      jump(tag_285)\n    tag_283:\n        /* \"contracts/contract.sol\":15288:15319  getTokenAmount(_token, _amount) */\n      tag_286\n        /* \"contracts/contract.sol\":15303:15309  _token */\n      dup4\n        /* \"contracts/contract.sol\":15311:15318  _amount */\n      dup4\n        /* \"contracts/contract.sol\":15288:15302  getTokenAmount */\n      tag_53\n        /* \"contracts/contract.sol\":15288:15319  getTokenAmount(_token, _amount) */\n      jump\t// in\n    tag_286:\n        /* \"contracts/contract.sol\":15253:15371  _token != address(0)... */\n    tag_285:\n        /* \"contracts/contract.sol\":15230:15371  uint256 saleTokenAmt = _token != address(0)... */\n      swap1\n      pop\n        /* \"contracts/contract.sol\":15418:15429  minBuyLimit */\n      sload(0x09)\n        /* \"contracts/contract.sol\":15402:15414  saleTokenAmt */\n      dup2\n        /* \"contracts/contract.sol\":15402:15429  saleTokenAmt >= minBuyLimit */\n      lt\n      iszero\n        /* \"contracts/contract.sol\":15381:15489  require(... */\n      tag_287\n      jumpi\n      mload(0x40)\n      0x08c379a000000000000000000000000000000000000000000000000000000000\n      dup2\n      mstore\n      0x04\n      add\n      tag_288\n      swap1\n      tag_289\n      jump\t// in\n    tag_288:\n      mload(0x40)\n      dup1\n      swap2\n      sub\n      swap1\n      revert\n    tag_287:\n        /* \"contracts/contract.sol\":15570:15581  maxBuyLimit */\n      sload(0x08)\n        /* \"contracts/contract.sol\":15554:15566  saleTokenAmt */\n      dup2\n        /* \"contracts/contract.sol\":15520:15532  buyersAmount */\n      0x0f\n        /* \"contracts/contract.sol\":15520:15544  buyersAmount[msg.sender] */\n      0x00\n        /* \"contracts/contract.sol\":15533:15543  msg.sender */\n      caller\n        /* \"contracts/contract.sol\":15520:15544  buyersAmount[msg.sender] */\n      0xffffffffffffffffffffffffffffffffffffffff\n      and\n      0xffffffffffffffffffffffffffffffffffffffff\n      and\n      dup2\n      mstore\n      0x20\n      add\n      swap1\n      dup2\n      mstore\n      0x20\n      add\n      0x00\n      keccak256\n        /* \"contracts/contract.sol\":15520:15551  buyersAmount[msg.sender].amount */\n      0x00\n      add\n      sload\n        /* \"contracts/contract.sol\":15520:15566  buyersAmount[msg.sender].amount + saleTokenAmt */\n      tag_290\n      swap2\n      swap1\n      tag_201\n      jump\t// in\n    tag_290:\n        /* \"contracts/contract.sol\":15520:15581  buyersAmount[msg.sender].amount + saleTokenAmt <= maxBuyLimit */\n      gt\n      iszero\n        /* \"contracts/contract.sol\":15499:15652  require(... */\n      tag_291\n      jumpi\n      mload(0x40)\n      0x08c379a000000000000000000000000000000000000000000000000000000000\n      dup2\n      mstore\n      0x04\n      add\n      tag_292\n      swap1\n      tag_293\n      jump\t// in\n    tag_292:\n      mload(0x40)\n      dup1\n      swap2\n      sub\n      swap1\n      revert\n    tag_291:\n        /* \"contracts/contract.sol\":15719:15737  totalTokensforSale */\n      sload(0x07)\n        /* \"contracts/contract.sol\":15702:15714  saleTokenAmt */\n      dup2\n        /* \"contracts/contract.sol\":15684:15699  totalTokensSold */\n      sload(0x10)\n        /* \"contracts/contract.sol\":15684:15714  totalTokensSold + saleTokenAmt */\n      tag_294\n      swap2\n      swap1\n      tag_201\n      jump\t// in\n    tag_294:\n        /* \"contracts/contract.sol\":15683:15737  (totalTokensSold + saleTokenAmt) <= totalTokensforSale */\n      gt\n      iszero\n        /* \"contracts/contract.sol\":15662:15797  require(... */\n      tag_295\n      jumpi\n      mload(0x40)\n      0x08c379a000000000000000000000000000000000000000000000000000000000\n      dup2\n      mstore\n      0x04\n      add\n      tag_296\n      swap1\n      tag_297\n      jump\t// in\n    tag_296:\n      mload(0x40)\n      dup1\n      swap2\n      sub\n      swap1\n      revert\n    tag_295:\n        /* \"contracts/contract.sol\":15830:15831  0 */\n      0x00\n        /* \"contracts/contract.sol\":15812:15832  _token != address(0) */\n      0xffffffffffffffffffffffffffffffffffffffff\n      and\n        /* \"contracts/contract.sol\":15812:15818  _token */\n      dup4\n        /* \"contracts/contract.sol\":15812:15832  _token != address(0) */\n      0xffffffffffffffffffffffffffffffffffffffff\n      and\n      eq\n        /* \"contracts/contract.sol\":15808:16073  if (_token != address(0)) {... */\n      tag_298\n      jumpi\n        /* \"contracts/contract.sol\":15866:15867  0 */\n      0x00\n        /* \"contracts/contract.sol\":15856:15863  _amount */\n      dup3\n        /* \"contracts/contract.sol\":15856:15867  _amount > 0 */\n      gt\n        /* \"contracts/contract.sol\":15848:15908  require(_amount > 0, \"Presale: Cannot buy with zero amount\") */\n      tag_299\n      jumpi\n      mload(0x40)\n      0x08c379a000000000000000000000000000000000000000000000000000000000\n      dup2\n      mstore\n      0x04\n      add\n      tag_300\n      swap1\n      tag_301\n      jump\t// in\n    tag_300:\n      mload(0x40)\n      dup1\n      swap2\n      sub\n      swap1\n      revert\n    tag_299:\n        /* \"contracts/contract.sol\":15930:15937  tokenWL */\n      0x0a\n        /* \"contracts/contract.sol\":15930:15945  tokenWL[_token] */\n      0x00\n        /* \"contracts/contract.sol\":15938:15944  _token */\n      dup5\n        /* \"contracts/contract.sol\":15930:15945  tokenWL[_token] */\n      0xffffffffffffffffffffffffffffffffffffffff\n      and\n      0xffffffffffffffffffffffffffffffffffffffff\n      and\n      dup2\n      mstore\n      0x20\n      add\n      swap1\n      dup2\n      mstore\n      0x20\n      add\n      0x00\n      keccak256\n      0x00\n      swap1\n      sload\n      swap1\n      0x0100\n      exp\n      swap1\n      div\n      0xff\n      and\n        /* \"contracts/contract.sol\":15922:15980  require(tokenWL[_token], \"Presale: Token not whitelisted\") */\n      tag_302\n      jumpi\n      mload(0x40)\n      0x08c379a000000000000000000000000000000000000000000000000000000000\n      dup2\n      mstore\n      0x04\n      add\n      tag_303\n      swap1\n      tag_207\n      jump\t// in\n    tag_303:\n      mload(0x40)\n      dup1\n      swap2\n      sub\n      swap1\n      revert\n    tag_302:\n        /* \"contracts/contract.sol\":15995:16062  IERC20(_token).safeTransferFrom(msg.sender, address(this), _amount) */\n      tag_304\n        /* \"contracts/contract.sol\":16027:16037  msg.sender */\n      caller\n        /* \"contracts/contract.sol\":16047:16051  this */\n      address\n        /* \"contracts/contract.sol\":16054:16061  _amount */\n      dup5\n        /* \"contracts/contract.sol\":16002:16008  _token */\n      dup7\n        /* \"contracts/contract.sol\":15995:16026  IERC20(_token).safeTransferFrom */\n      0xffffffffffffffffffffffffffffffffffffffff\n      and\n      tag_305\n      swap1\n        /* \"contracts/contract.sol\":15995:16062  IERC20(_token).safeTransferFrom(msg.sender, address(this), _amount) */\n      swap4\n      swap3\n      swap2\n      swap1\n      0xffffffff\n      and\n      jump\t// in\n    tag_304:\n        /* \"contracts/contract.sol\":15808:16073  if (_token != address(0)) {... */\n    tag_298:\n        /* \"contracts/contract.sol\":16177:16189  saleTokenAmt */\n      dup1\n        /* \"contracts/contract.sol\":16158:16173  totalTokensSold */\n      0x10\n      0x00\n        /* \"contracts/contract.sol\":16158:16189  totalTokensSold += saleTokenAmt */\n      dup3\n      dup3\n      sload\n      tag_306\n      swap2\n      swap1\n      tag_201\n      jump\t// in\n    tag_306:\n      swap3\n      pop\n      pop\n      dup2\n      swap1\n      sstore\n      pop\n        /* \"contracts/contract.sol\":16234:16246  saleTokenAmt */\n      dup1\n        /* \"contracts/contract.sol\":16199:16211  buyersAmount */\n      0x0f\n        /* \"contracts/contract.sol\":16199:16223  buyersAmount[msg.sender] */\n      0x00\n        /* \"contracts/contract.sol\":16212:16222  msg.sender */\n      caller\n        /* \"contracts/contract.sol\":16199:16223  buyersAmount[msg.sender] */\n      0xffffffffffffffffffffffffffffffffffffffff\n      and\n      0xffffffffffffffffffffffffffffffffffffffff\n      and\n      dup2\n      mstore\n      0x20\n      add\n      swap1\n      dup2\n      mstore\n      0x20\n      add\n      0x00\n      keccak256\n        /* \"contracts/contract.sol\":16199:16230  buyersAmount[msg.sender].amount */\n      0x00\n      add\n      0x00\n        /* \"contracts/contract.sol\":16199:16246  buyersAmount[msg.sender].amount += saleTokenAmt */\n      dup3\n      dup3\n      sload\n      tag_307\n      swap2\n      swap1\n      tag_201\n      jump\t// in\n    tag_307:\n      swap3\n      pop\n      pop\n      dup2\n      swap1\n      sstore\n      pop\n        /* \"contracts/contract.sol\":16287:16293  _token */\n      dup3\n        /* \"contracts/contract.sol\":16262:16317  TokensBought(msg.sender, _token, _amount, saleTokenAmt) */\n      0xffffffffffffffffffffffffffffffffffffffff\n      and\n        /* \"contracts/contract.sol\":16275:16285  msg.sender */\n      caller\n        /* \"contracts/contract.sol\":16262:16317  TokensBought(msg.sender, _token, _amount, saleTokenAmt) */\n      0xffffffffffffffffffffffffffffffffffffffff\n      and\n      0xc244d500136edffae7025aaf7fbd7a07193ac544a1d0cc3132cf2a32452d340c\n        /* \"contracts/contract.sol\":16295:16302  _amount */\n      dup5\n        /* \"contracts/contract.sol\":16304:16316  saleTokenAmt */\n      dup5\n        /* \"contracts/contract.sol\":16262:16317  TokensBought(msg.sender, _token, _amount, saleTokenAmt) */\n      mload(0x40)\n      tag_308\n      swap3\n      swap2\n      swap1\n      tag_309\n      jump\t// in\n    tag_308:\n      mload(0x40)\n      dup1\n      swap2\n      sub\n      swap1\n      log3\n        /* \"contracts/contract.sol\":15220:16324  {... */\n      pop\n        /* \"contracts/contract.sol\":15095:16324  function buyToken(... */\n      pop\n      pop\n      jump\t// out\n        /* \"contracts/contract.sol\":8636:8662  uint256 public maxBuyLimit */\n    tag_102:\n      sload(0x08)\n      dup2\n      jump\t// out\n        /* \"contracts/contract.sol\":8597:8630  uint256 public totalTokensforSale */\n    tag_106:\n      sload(0x07)\n      dup2\n      jump\t// out\n        /* \"contracts/contract.sol\":1581:1682  function renounceOwnership() public virtual onlyOwner {... */\n    tag_110:\n        /* \"contracts/contract.sol\":1509:1521  _msgSender() */\n      tag_311\n        /* \"contracts/contract.sol\":1509:1519  _msgSender */\n      tag_194\n        /* \"contracts/contract.sol\":1509:1521  _msgSender() */\n      jump\t// in\n    tag_311:\n        /* \"contracts/contract.sol\":1498:1521  owner() == _msgSender() */\n      0xffffffffffffffffffffffffffffffffffffffff\n      and\n        /* \"contracts/contract.sol\":1498:1505  owner() */\n      tag_312\n        /* \"contracts/contract.sol\":1498:1503  owner */\n      tag_130\n        /* \"contracts/contract.sol\":1498:1505  owner() */\n      jump\t// in\n    tag_312:\n        /* \"contracts/contract.sol\":1498:1521  owner() == _msgSender() */\n      0xffffffffffffffffffffffffffffffffffffffff\n      and\n      eq\n        /* \"contracts/contract.sol\":1490:1558  require(owner() == _msgSender(), \"Ownable: caller is not the owner\") */\n      tag_313\n      jumpi\n      mload(0x40)\n      0x08c379a000000000000000000000000000000000000000000000000000000000\n      dup2\n      mstore\n      0x04\n      add\n      tag_314\n      swap1\n      tag_198\n      jump\t// in\n    tag_314:\n      mload(0x40)\n      dup1\n      swap2\n      sub\n      swap1\n      revert\n    tag_313:\n        /* \"contracts/contract.sol\":1645:1675  _transferOwnership(address(0)) */\n      tag_316\n        /* \"contracts/contract.sol\":1672:1673  0 */\n      0x00\n        /* \"contracts/contract.sol\":1645:1663  _transferOwnership */\n      tag_317\n        /* \"contracts/contract.sol\":1645:1675  _transferOwnership(address(0)) */\n      jump\t// in\n    tag_316:\n        /* \"contracts/contract.sol\":1581:1682  function renounceOwnership() public virtual onlyOwner {... */\n      jump\t// out\n        /* \"contracts/contract.sol\":13601:14117  function getCurrentTier() public pure returns (uint) {... */\n    tag_113:\n        /* \"contracts/contract.sol\":13648:13652  uint */\n      0x00\n        /* \"contracts/contract.sol\":13601:14117  function getCurrentTier() public pure returns (uint) {... */\n      swap1\n      jump\t// out\n        /* \"contracts/contract.sol\":16936:17041  function setMaxBuyLimit(uint _maxBuyLimit) external onlyOwner {... */\n    tag_118:\n        /* \"contracts/contract.sol\":1509:1521  _msgSender() */\n      tag_320\n        /* \"contracts/contract.sol\":1509:1519  _msgSender */\n      tag_194\n        /* \"contracts/contract.sol\":1509:1521  _msgSender() */\n      jump\t// in\n    tag_320:\n        /* \"contracts/contract.sol\":1498:1521  owner() == _msgSender() */\n      0xffffffffffffffffffffffffffffffffffffffff\n      and\n        /* \"contracts/contract.sol\":1498:1505  owner() */\n      tag_321\n        /* \"contracts/contract.sol\":1498:1503  owner */\n      tag_130\n        /* \"contracts/contract.sol\":1498:1505  owner() */\n      jump\t// in\n    tag_321:\n        /* \"contracts/contract.sol\":1498:1521  owner() == _msgSender() */\n      0xffffffffffffffffffffffffffffffffffffffff\n      and\n      eq\n        /* \"contracts/contract.sol\":1490:1558  require(owner() == _msgSender(), \"Ownable: caller is not the owner\") */\n      tag_322\n      jumpi\n      mload(0x40)\n      0x08c379a000000000000000000000000000000000000000000000000000000000\n      dup2\n      mstore\n      0x04\n      add\n      tag_323\n      swap1\n      tag_198\n      jump\t// in\n    tag_323:\n      mload(0x40)\n      dup1\n      swap2\n      sub\n      swap1\n      revert\n    tag_322:\n        /* \"contracts/contract.sol\":17022:17034  _maxBuyLimit */\n      dup1\n        /* \"contracts/contract.sol\":17008:17019  maxBuyLimit */\n      0x08\n        /* \"contracts/contract.sol\":17008:17034  maxBuyLimit = _maxBuyLimit */\n      dup2\n      swap1\n      sstore\n      pop\n        /* \"contracts/contract.sol\":16936:17041  function setMaxBuyLimit(uint _maxBuyLimit) external onlyOwner {... */\n      pop\n      jump\t// out\n        /* \"contracts/contract.sol\":10368:11107  function setSaleTokenParams(... */\n    tag_122:\n        /* \"contracts/contract.sol\":1509:1521  _msgSender() */\n      tag_326\n        /* \"contracts/contract.sol\":1509:1519  _msgSender */\n      tag_194\n        /* \"contracts/contract.sol\":1509:1521  _msgSender() */\n      jump\t// in\n    tag_326:\n        /* \"contracts/contract.sol\":1498:1521  owner() == _msgSender() */\n      0xffffffffffffffffffffffffffffffffffffffff\n      and\n        /* \"contracts/contract.sol\":1498:1505  owner() */\n      tag_327\n        /* \"contracts/contract.sol\":1498:1503  owner */\n      tag_130\n        /* \"contracts/contract.sol\":1498:1505  owner() */\n      jump\t// in\n    tag_327:\n        /* \"contracts/contract.sol\":1498:1521  owner() == _msgSender() */\n      0xffffffffffffffffffffffffffffffffffffffff\n      and\n      eq\n        /* \"contracts/contract.sol\":1490:1558  require(owner() == _msgSender(), \"Ownable: caller is not the owner\") */\n      tag_328\n      jumpi\n      mload(0x40)\n      0x08c379a000000000000000000000000000000000000000000000000000000000\n      dup2\n      mstore\n      0x04\n      add\n      tag_329\n      swap1\n      tag_198\n      jump\t// in\n    tag_329:\n      mload(0x40)\n      dup1\n      swap2\n      sub\n      swap1\n      revert\n    tag_328:\n        /* \"contracts/contract.sol\":10538:10539  0 */\n      0x00\n        /* \"contracts/contract.sol\":10516:10540  _saleToken != address(0) */\n      0xffffffffffffffffffffffffffffffffffffffff\n      and\n        /* \"contracts/contract.sol\":10516:10526  _saleToken */\n      dup3\n        /* \"contracts/contract.sol\":10516:10540  _saleToken != address(0) */\n      0xffffffffffffffffffffffffffffffffffffffff\n      and\n      sub\n        /* \"contracts/contract.sol\":10495:10608  require(... */\n      tag_331\n      jumpi\n      mload(0x40)\n      0x08c379a000000000000000000000000000000000000000000000000000000000\n      dup2\n      mstore\n      0x04\n      add\n      tag_332\n      swap1\n      tag_333\n      jump\t// in\n    tag_332:\n      mload(0x40)\n      dup1\n      swap2\n      sub\n      swap1\n      revert\n    tag_331:\n        /* \"contracts/contract.sol\":10661:10662  0 */\n      0x00\n        /* \"contracts/contract.sol\":10639:10658  _totalTokensforSale */\n      dup2\n        /* \"contracts/contract.sol\":10639:10662  _totalTokensforSale > 0 */\n      gt\n        /* \"contracts/contract.sol\":10618:10733  require(... */\n      tag_334\n      jumpi\n      mload(0x40)\n      0x08c379a000000000000000000000000000000000000000000000000000000000\n      dup2\n      mstore\n      0x04\n      add\n      tag_335\n      swap1\n      tag_336\n      jump\t// in\n    tag_335:\n      mload(0x40)\n      dup1\n      swap2\n      sub\n      swap1\n      revert\n    tag_334:\n        /* \"contracts/contract.sol\":10755:10765  _saleToken */\n      dup2\n        /* \"contracts/contract.sol\":10743:10752  saleToken */\n      0x05\n      0x00\n        /* \"contracts/contract.sol\":10743:10765  saleToken = _saleToken */\n      0x0100\n      exp\n      dup2\n      sload\n      dup2\n      0xffffffffffffffffffffffffffffffffffffffff\n      mul\n      not\n      and\n      swap1\n      dup4\n      0xffffffffffffffffffffffffffffffffffffffff\n      and\n      mul\n      or\n      swap1\n      sstore\n      pop\n        /* \"contracts/contract.sol\":10805:10814  saleToken */\n      0x05\n      0x00\n      swap1\n      sload\n      swap1\n      0x0100\n      exp\n      swap1\n      div\n      0xffffffffffffffffffffffffffffffffffffffff\n      and\n        /* \"contracts/contract.sol\":10790:10824  IERC20Metadata(saleToken).decimals */\n      0xffffffffffffffffffffffffffffffffffffffff\n      and\n      0x313ce567\n        /* \"contracts/contract.sol\":10790:10826  IERC20Metadata(saleToken).decimals() */\n      mload(0x40)\n      dup2\n      0xffffffff\n      and\n      0xe0\n      shl\n      dup2\n      mstore\n      0x04\n      add\n      0x20\n      mload(0x40)\n      dup1\n      dup4\n      sub\n      dup2\n      dup7\n      gas\n      staticcall\n      iszero\n      dup1\n      iszero\n      tag_338\n      jumpi\n      returndatasize\n      0x00\n      dup1\n      returndatacopy\n      revert(0x00, returndatasize)\n    tag_338:\n      pop\n      pop\n      pop\n      pop\n      mload(0x40)\n      returndatasize\n      not(0x1f)\n      0x1f\n      dup3\n      add\n      and\n      dup3\n      add\n      dup1\n      0x40\n      mstore\n      pop\n      dup2\n      add\n      swap1\n      tag_339\n      swap2\n      swap1\n      tag_340\n      jump\t// in\n    tag_339:\n        /* \"contracts/contract.sol\":10775:10826  saleTokenDec = IERC20Metadata(saleToken).decimals() */\n      0xff\n      and\n        /* \"contracts/contract.sol\":10775:10787  saleTokenDec */\n      0x06\n        /* \"contracts/contract.sol\":10775:10826  saleTokenDec = IERC20Metadata(saleToken).decimals() */\n      dup2\n      swap1\n      sstore\n      pop\n        /* \"contracts/contract.sol\":10837:10965  IERC20(saleToken).safeTransferFrom(... */\n      tag_341\n        /* \"contracts/contract.sol\":10885:10895  msg.sender */\n      caller\n        /* \"contracts/contract.sol\":10917:10921  this */\n      address\n        /* \"contracts/contract.sol\":10936:10955  _totalTokensforSale */\n      dup4\n        /* \"contracts/contract.sol\":10844:10853  saleToken */\n      0x05\n      0x00\n      swap1\n      sload\n      swap1\n      0x0100\n      exp\n      swap1\n      div\n      0xffffffffffffffffffffffffffffffffffffffff\n      and\n        /* \"contracts/contract.sol\":10837:10871  IERC20(saleToken).safeTransferFrom */\n      0xffffffffffffffffffffffffffffffffffffffff\n      and\n      tag_305\n      swap1\n        /* \"contracts/contract.sol\":10837:10965  IERC20(saleToken).safeTransferFrom(... */\n      swap4\n      swap3\n      swap2\n      swap1\n      0xffffffff\n      and\n      jump\t// in\n    tag_341:\n        /* \"contracts/contract.sol\":11003:11012  saleToken */\n      0x05\n      0x00\n      swap1\n      sload\n      swap1\n      0x0100\n      exp\n      swap1\n      div\n      0xffffffffffffffffffffffffffffffffffffffff\n      and\n        /* \"contracts/contract.sol\":10996:11023  IERC20(saleToken).balanceOf */\n      0xffffffffffffffffffffffffffffffffffffffff\n      and\n      0x70a08231\n        /* \"contracts/contract.sol\":11032:11036  this */\n      address\n        /* \"contracts/contract.sol\":10996:11038  IERC20(saleToken).balanceOf(address(this)) */\n      mload(0x40)\n      dup3\n      0xffffffff\n      and\n      0xe0\n      shl\n      dup2\n      mstore\n      0x04\n      add\n      tag_342\n      swap2\n      swap1\n      tag_132\n      jump\t// in\n    tag_342:\n      0x20\n      mload(0x40)\n      dup1\n      dup4\n      sub\n      dup2\n      dup7\n      gas\n      staticcall\n      iszero\n      dup1\n      iszero\n      tag_344\n      jumpi\n      returndatasize\n      0x00\n      dup1\n      returndatacopy\n      revert(0x00, returndatasize)\n    tag_344:\n      pop\n      pop\n      pop\n      pop\n      mload(0x40)\n      returndatasize\n      not(0x1f)\n      0x1f\n      dup3\n      add\n      and\n      dup3\n      add\n      dup1\n      0x40\n      mstore\n      pop\n      dup2\n      add\n      swap1\n      tag_345\n      swap2\n      swap1\n      tag_346\n      jump\t// in\n    tag_345:\n        /* \"contracts/contract.sol\":10975:10993  totalTokensforSale */\n      0x07\n        /* \"contracts/contract.sol\":10975:11038  totalTokensforSale = IERC20(saleToken).balanceOf(address(this)) */\n      dup2\n      swap1\n      sstore\n      pop\n        /* \"contracts/contract.sol\":11053:11100  SaleTokenAdded(_saleToken, _totalTokensforSale) */\n      0x03211f0a57d24f0b52e2e0573af5be089c5faadeb55f9b90591717b0a22f7e2a\n        /* \"contracts/contract.sol\":11068:11078  _saleToken */\n      dup3\n        /* \"contracts/contract.sol\":11080:11099  _totalTokensforSale */\n      dup3\n        /* \"contracts/contract.sol\":11053:11100  SaleTokenAdded(_saleToken, _totalTokensforSale) */\n      mload(0x40)\n      tag_347\n      swap3\n      swap2\n      swap1\n      tag_348\n      jump\t// in\n    tag_347:\n      mload(0x40)\n      dup1\n      swap2\n      sub\n      swap1\n      log1\n        /* \"contracts/contract.sol\":10368:11107  function setSaleTokenParams(... */\n      pop\n      pop\n      jump\t// out\n        /* \"contracts/contract.sol\":8700:8739  mapping(address => bool) public tokenWL */\n    tag_126:\n      mstore(0x20, 0x0a)\n      dup1\n      0x00\n      mstore\n      keccak256(0x00, 0x40)\n      0x00\n      swap2\n      pop\n      sload\n      swap1\n      0x0100\n      exp\n      swap1\n      div\n      0xff\n      and\n      dup2\n      jump\t// out\n        /* \"contracts/contract.sol\":1369:1454  function owner() public view virtual returns (address) {... */\n    tag_130:\n        /* \"contracts/contract.sol\":1415:1422  address */\n      0x00\n        /* \"contracts/contract.sol\":1441:1447  _owner */\n      dup1\n      0x00\n      swap1\n      sload\n      swap1\n      0x0100\n      exp\n      swap1\n      div\n      0xffffffffffffffffffffffffffffffffffffffff\n      and\n        /* \"contracts/contract.sol\":1434:1447  return _owner */\n      swap1\n      pop\n        /* \"contracts/contract.sol\":1369:1454  function owner() public view virtual returns (address) {... */\n      swap1\n      jump\t// out\n        /* \"contracts/contract.sol\":16825:16930  function setMinBuyLimit(uint _minBuyLimit) external onlyOwner {... */\n    tag_136:\n        /* \"contracts/contract.sol\":1509:1521  _msgSender() */\n      tag_351\n        /* \"contracts/contract.sol\":1509:1519  _msgSender */\n      tag_194\n        /* \"contracts/contract.sol\":1509:1521  _msgSender() */\n      jump\t// in\n    tag_351:\n        /* \"contracts/contract.sol\":1498:1521  owner() == _msgSender() */\n      0xffffffffffffffffffffffffffffffffffffffff\n      and\n        /* \"contracts/contract.sol\":1498:1505  owner() */\n      tag_352\n        /* \"contracts/contract.sol\":1498:1503  owner */\n      tag_130\n        /* \"contracts/contract.sol\":1498:1505  owner() */\n      jump\t// in\n    tag_352:\n        /* \"contracts/contract.sol\":1498:1521  owner() == _msgSender() */\n      0xffffffffffffffffffffffffffffffffffffffff\n      and\n      eq\n        /* \"contracts/contract.sol\":1490:1558  require(owner() == _msgSender(), \"Ownable: caller is not the owner\") */\n      tag_353\n      jumpi\n      mload(0x40)\n      0x08c379a000000000000000000000000000000000000000000000000000000000\n      dup2\n      mstore\n      0x04\n      add\n      tag_354\n      swap1\n      tag_198\n      jump\t// in\n    tag_354:\n      mload(0x40)\n      dup1\n      swap2\n      sub\n      swap1\n      revert\n    tag_353:\n        /* \"contracts/contract.sol\":16911:16923  _minBuyLimit */\n      dup1\n        /* \"contracts/contract.sol\":16897:16908  minBuyLimit */\n      0x09\n        /* \"contracts/contract.sol\":16897:16923  minBuyLimit = _minBuyLimit */\n      dup2\n      swap1\n      sstore\n      pop\n        /* \"contracts/contract.sol\":16825:16930  function setMinBuyLimit(uint _minBuyLimit) external onlyOwner {... */\n      pop\n      jump\t// out\n        /* \"contracts/contract.sol\":8832:8863  uint256 public presaleStartTime */\n    tag_139:\n      sload(0x0c)\n      dup2\n      jump\t// out\n        /* \"contracts/contract.sol\":8567:8591  uint public saleTokenDec */\n    tag_143:\n      sload(0x06)\n      dup2\n      jump\t// out\n        /* \"contracts/contract.sol\":12248:12429  function stopUnlocking() external onlyOwner isPresaleEnded {... */\n    tag_147:\n        /* \"contracts/contract.sol\":1509:1521  _msgSender() */\n      tag_357\n        /* \"contracts/contract.sol\":1509:1519  _msgSender */\n      tag_194\n        /* \"contracts/contract.sol\":1509:1521  _msgSender() */\n      jump\t// in\n    tag_357:\n        /* \"contracts/contract.sol\":1498:1521  owner() == _msgSender() */\n      0xffffffffffffffffffffffffffffffffffffffff\n      and\n        /* \"contracts/contract.sol\":1498:1505  owner() */\n      tag_358\n        /* \"contracts/contract.sol\":1498:1503  owner */\n      tag_130\n        /* \"contracts/contract.sol\":1498:1505  owner() */\n      jump\t// in\n    tag_358:\n        /* \"contracts/contract.sol\":1498:1521  owner() == _msgSender() */\n      0xffffffffffffffffffffffffffffffffffffffff\n      and\n      eq\n        /* \"contracts/contract.sol\":1490:1558  require(owner() == _msgSender(), \"Ownable: caller is not the owner\") */\n      tag_359\n      jumpi\n      mload(0x40)\n      0x08c379a000000000000000000000000000000000000000000000000000000000\n      dup2\n      mstore\n      0x04\n      add\n      tag_360\n      swap1\n      tag_198\n      jump\t// in\n    tag_360:\n      mload(0x40)\n      dup1\n      swap2\n      sub\n      swap1\n      revert\n    tag_359:\n        /* \"contracts/contract.sol\":9890:9904  presaleEndTime */\n      sload(0x0d)\n        /* \"contracts/contract.sol\":9871:9886  block.timestamp */\n      timestamp\n        /* \"contracts/contract.sol\":9871:9904  block.timestamp >= presaleEndTime */\n      lt\n      iszero\n        /* \"contracts/contract.sol\":9850:9964  require(... */\n      tag_362\n      jumpi\n      mload(0x40)\n      0x08c379a000000000000000000000000000000000000000000000000000000000\n      dup2\n      mstore\n      0x04\n      add\n      tag_363\n      swap1\n      tag_243\n      jump\t// in\n    tag_363:\n      mload(0x40)\n      dup1\n      swap2\n      sub\n      swap1\n      revert\n    tag_362:\n        /* \"contracts/contract.sol\":12325:12343  isUnlockingStarted */\n      0x0e\n      0x00\n      swap1\n      sload\n      swap1\n      0x0100\n      exp\n      swap1\n      div\n      0xff\n      and\n        /* \"contracts/contract.sol\":12317:12386  require(isUnlockingStarted, \"Presale: Unlocking hasn't started yet!\") */\n      tag_365\n      jumpi\n      mload(0x40)\n      0x08c379a000000000000000000000000000000000000000000000000000000000\n      dup2\n      mstore\n      0x04\n      add\n      tag_366\n      swap1\n      tag_367\n      jump\t// in\n    tag_366:\n      mload(0x40)\n      dup1\n      swap2\n      sub\n      swap1\n      revert\n    tag_365:\n        /* \"contracts/contract.sol\":12417:12422  false */\n      0x00\n        /* \"contracts/contract.sol\":12396:12414  isUnlockingStarted */\n      0x0e\n      0x00\n        /* \"contracts/contract.sol\":12396:12422  isUnlockingStarted = false */\n      0x0100\n      exp\n      dup2\n      sload\n      dup2\n      0xff\n      mul\n      not\n      and\n      swap1\n      dup4\n      iszero\n      iszero\n      mul\n      or\n      swap1\n      sstore\n      pop\n        /* \"contracts/contract.sol\":12248:12429  function stopUnlocking() external onlyOwner isPresaleEnded {... */\n      jump\t// out\n        /* \"contracts/contract.sol\":8668:8694  uint256 public minBuyLimit */\n    tag_150:\n      sload(0x09)\n      dup2\n      jump\t// out\n        /* \"contracts/contract.sol\":16331:16819  function withdrawToken() external {... */\n    tag_154:\n        /* \"contracts/contract.sol\":16383:16401  isUnlockingStarted */\n      0x0e\n      0x00\n      swap1\n      sload\n      swap1\n      0x0100\n      exp\n      swap1\n      div\n      0xff\n      and\n        /* \"contracts/contract.sol\":16375:16442  require(isUnlockingStarted, \"Presale: Locking period not over yet\") */\n      tag_369\n      jumpi\n      mload(0x40)\n      0x08c379a000000000000000000000000000000000000000000000000000000000\n      dup2\n      mstore\n      0x04\n      add\n      tag_370\n      swap1\n      tag_371\n      jump\t// in\n    tag_370:\n      mload(0x40)\n      dup1\n      swap2\n      sub\n      swap1\n      revert\n    tag_369:\n        /* \"contracts/contract.sol\":16475:16487  buyersAmount */\n      0x0f\n        /* \"contracts/contract.sol\":16475:16499  buyersAmount[msg.sender] */\n      0x00\n        /* \"contracts/contract.sol\":16488:16498  msg.sender */\n      caller\n        /* \"contracts/contract.sol\":16475:16499  buyersAmount[msg.sender] */\n      0xffffffffffffffffffffffffffffffffffffffff\n      and\n      0xffffffffffffffffffffffffffffffffffffffff\n      and\n      dup2\n      mstore\n      0x20\n      add\n      swap1\n      dup2\n      mstore\n      0x20\n      add\n      0x00\n      keccak256\n        /* \"contracts/contract.sol\":16475:16509  buyersAmount[msg.sender].isClaimed */\n      0x01\n      add\n      0x00\n      swap1\n      sload\n      swap1\n      0x0100\n      exp\n      swap1\n      div\n      0xff\n      and\n        /* \"contracts/contract.sol\":16474:16509  !buyersAmount[msg.sender].isClaimed */\n      iszero\n        /* \"contracts/contract.sol\":16453:16559  require(... */\n      tag_372\n      jumpi\n      mload(0x40)\n      0x08c379a000000000000000000000000000000000000000000000000000000000\n      dup2\n      mstore\n      0x04\n      add\n      tag_373\n      swap1\n      tag_374\n      jump\t// in\n    tag_373:\n      mload(0x40)\n      dup1\n      swap2\n      sub\n      swap1\n      revert\n    tag_372:\n        /* \"contracts/contract.sol\":16570:16595  uint256 tokensforWithdraw */\n      0x00\n        /* \"contracts/contract.sol\":16598:16610  buyersAmount */\n      0x0f\n        /* \"contracts/contract.sol\":16598:16622  buyersAmount[msg.sender] */\n      0x00\n        /* \"contracts/contract.sol\":16611:16621  msg.sender */\n      caller\n        /* \"contracts/contract.sol\":16598:16622  buyersAmount[msg.sender] */\n      0xffffffffffffffffffffffffffffffffffffffff\n      and\n      0xffffffffffffffffffffffffffffffffffffffff\n      and\n      dup2\n      mstore\n      0x20\n      add\n      swap1\n      dup2\n      mstore\n      0x20\n      add\n      0x00\n      keccak256\n        /* \"contracts/contract.sol\":16598:16629  buyersAmount[msg.sender].amount */\n      0x00\n      add\n      sload\n        /* \"contracts/contract.sol\":16570:16629  uint256 tokensforWithdraw = buyersAmount[msg.sender].amount */\n      swap1\n      pop\n        /* \"contracts/contract.sol\":16676:16680  true */\n      0x01\n        /* \"contracts/contract.sol\":16639:16651  buyersAmount */\n      0x0f\n        /* \"contracts/contract.sol\":16639:16663  buyersAmount[msg.sender] */\n      0x00\n        /* \"contracts/contract.sol\":16652:16662  msg.sender */\n      caller\n        /* \"contracts/contract.sol\":16639:16663  buyersAmount[msg.sender] */\n      0xffffffffffffffffffffffffffffffffffffffff\n      and\n      0xffffffffffffffffffffffffffffffffffffffff\n      and\n      dup2\n      mstore\n      0x20\n      add\n      swap1\n      dup2\n      mstore\n      0x20\n      add\n      0x00\n      keccak256\n        /* \"contracts/contract.sol\":16639:16673  buyersAmount[msg.sender].isClaimed */\n      0x01\n      add\n      0x00\n        /* \"contracts/contract.sol\":16639:16680  buyersAmount[msg.sender].isClaimed = true */\n      0x0100\n      exp\n      dup2\n      sload\n      dup2\n      0xff\n      mul\n      not\n      and\n      swap1\n      dup4\n      iszero\n      iszero\n      mul\n      or\n      swap1\n      sstore\n      pop\n        /* \"contracts/contract.sol\":16690:16751  IERC20(saleToken).safeTransfer(msg.sender, tokensforWithdraw) */\n      tag_375\n        /* \"contracts/contract.sol\":16721:16731  msg.sender */\n      caller\n        /* \"contracts/contract.sol\":16733:16750  tokensforWithdraw */\n      dup3\n        /* \"contracts/contract.sol\":16697:16706  saleToken */\n      0x05\n      0x00\n      swap1\n      sload\n      swap1\n      0x0100\n      exp\n      swap1\n      div\n      0xffffffffffffffffffffffffffffffffffffffff\n      and\n        /* \"contracts/contract.sol\":16690:16720  IERC20(saleToken).safeTransfer */\n      0xffffffffffffffffffffffffffffffffffffffff\n      and\n      tag_376\n      swap1\n        /* \"contracts/contract.sol\":16690:16751  IERC20(saleToken).safeTransfer(msg.sender, tokensforWithdraw) */\n      swap3\n      swap2\n      swap1\n      0xffffffff\n      and\n      jump\t// in\n    tag_375:\n        /* \"contracts/contract.sol\":16782:16792  msg.sender */\n      caller\n        /* \"contracts/contract.sol\":16767:16812  TokensUnlocked(msg.sender, tokensforWithdraw) */\n      0xffffffffffffffffffffffffffffffffffffffff\n      and\n      0xe7b379c6c1fa169e9079c25e9143b127637eef8ec8c9d5c06ddb4ab3e1195888\n        /* \"contracts/contract.sol\":16794:16811  tokensforWithdraw */\n      dup3\n        /* \"contracts/contract.sol\":16767:16812  TokensUnlocked(msg.sender, tokensforWithdraw) */\n      mload(0x40)\n      tag_377\n      swap2\n      swap1\n      tag_55\n      jump\t// in\n    tag_377:\n      mload(0x40)\n      dup1\n      swap2\n      sub\n      swap1\n      log2\n        /* \"contracts/contract.sol\":16365:16819  {... */\n      pop\n        /* \"contracts/contract.sol\":16331:16819  function withdrawToken() external {... */\n      jump\t// out\n        /* \"contracts/contract.sol\":11791:12055  function updateTokenRate(... */\n    tag_158:\n        /* \"contracts/contract.sol\":1509:1521  _msgSender() */\n      tag_379\n        /* \"contracts/contract.sol\":1509:1519  _msgSender */\n      tag_194\n        /* \"contracts/contract.sol\":1509:1521  _msgSender() */\n      jump\t// in\n    tag_379:\n        /* \"contracts/contract.sol\":1498:1521  owner() == _msgSender() */\n      0xffffffffffffffffffffffffffffffffffffffff\n      and\n        /* \"contracts/contract.sol\":1498:1505  owner() */\n      tag_380\n        /* \"contracts/contract.sol\":1498:1503  owner */\n      tag_130\n        /* \"contracts/contract.sol\":1498:1505  owner() */\n      jump\t// in\n    tag_380:\n        /* \"contracts/contract.sol\":1498:1521  owner() == _msgSender() */\n      0xffffffffffffffffffffffffffffffffffffffff\n      and\n      eq\n        /* \"contracts/contract.sol\":1490:1558  require(owner() == _msgSender(), \"Ownable: caller is not the owner\") */\n      tag_381\n      jumpi\n      mload(0x40)\n      0x08c379a000000000000000000000000000000000000000000000000000000000\n      dup2\n      mstore\n      0x04\n      add\n      tag_382\n      swap1\n      tag_198\n      jump\t// in\n    tag_382:\n      mload(0x40)\n      dup1\n      swap2\n      sub\n      swap1\n      revert\n    tag_381:\n        /* \"contracts/contract.sol\":11917:11924  tokenWL */\n      0x0a\n        /* \"contracts/contract.sol\":11917:11932  tokenWL[_token] */\n      0x00\n        /* \"contracts/contract.sol\":11925:11931  _token */\n      dup4\n        /* \"contracts/contract.sol\":11917:11932  tokenWL[_token] */\n      0xffffffffffffffffffffffffffffffffffffffff\n      and\n      0xffffffffffffffffffffffffffffffffffffffff\n      and\n      dup2\n      mstore\n      0x20\n      add\n      swap1\n      dup2\n      mstore\n      0x20\n      add\n      0x00\n      keccak256\n      0x00\n      swap1\n      sload\n      swap1\n      0x0100\n      exp\n      swap1\n      div\n      0xff\n      and\n        /* \"contracts/contract.sol\":11909:11967  require(tokenWL[_token], \"Presale: Token not whitelisted\") */\n      tag_384\n      jumpi\n      mload(0x40)\n      0x08c379a000000000000000000000000000000000000000000000000000000000\n      dup2\n      mstore\n      0x04\n      add\n      tag_385\n      swap1\n      tag_207\n      jump\t// in\n    tag_385:\n      mload(0x40)\n      dup1\n      swap2\n      sub\n      swap1\n      revert\n    tag_384:\n        /* \"contracts/contract.sol\":11999:12005  _price */\n      dup1\n        /* \"contracts/contract.sol\":11977:11988  tokenPrices */\n      0x0b\n        /* \"contracts/contract.sol\":11977:11996  tokenPrices[_token] */\n      0x00\n        /* \"contracts/contract.sol\":11989:11995  _token */\n      dup5\n        /* \"contracts/contract.sol\":11977:11996  tokenPrices[_token] */\n      0xffffffffffffffffffffffffffffffffffffffff\n      and\n      0xffffffffffffffffffffffffffffffffffffffff\n      and\n      dup2\n      mstore\n      0x20\n      add\n      swap1\n      dup2\n      mstore\n      0x20\n      add\n      0x00\n      keccak256\n        /* \"contracts/contract.sol\":11977:12005  tokenPrices[_token] = _price */\n      swap1\n      0x04\n      tag_386\n      swap3\n      swap2\n      swap1\n      tag_269\n      jump\t// in\n    tag_386:\n      pop\n        /* \"contracts/contract.sol\":12020:12048  TokenUpdated(_token, _price) */\n      0x15c54d4add16cdcd1f0a4c671837cf70c9f8f02790bb0d948710af6e0187c7d9\n        /* \"contracts/contract.sol\":12033:12039  _token */\n      dup3\n        /* \"contracts/contract.sol\":12041:12047  _price */\n      dup3\n        /* \"contracts/contract.sol\":12020:12048  TokenUpdated(_token, _price) */\n      mload(0x40)\n      tag_387\n      swap3\n      swap2\n      swap1\n      tag_271\n      jump\t// in\n    tag_387:\n      mload(0x40)\n      dup1\n      swap2\n      sub\n      swap1\n      log1\n        /* \"contracts/contract.sol\":11791:12055  function updateTokenRate(... */\n      pop\n      pop\n      jump\t// out\n        /* \"contracts/contract.sol\":17047:17207  function withdrawSaleToken(... */\n    tag_162:\n        /* \"contracts/contract.sol\":1509:1521  _msgSender() */\n      tag_389\n        /* \"contracts/contract.sol\":1509:1519  _msgSender */\n      tag_194\n        /* \"contracts/contract.sol\":1509:1521  _msgSender() */\n      jump\t// in\n    tag_389:\n        /* \"contracts/contract.sol\":1498:1521  owner() == _msgSender() */\n      0xffffffffffffffffffffffffffffffffffffffff\n      and\n        /* \"contracts/contract.sol\":1498:1505  owner() */\n      tag_390\n        /* \"contracts/contract.sol\":1498:1503  owner */\n      tag_130\n        /* \"contracts/contract.sol\":1498:1505  owner() */\n      jump\t// in\n    tag_390:\n        /* \"contracts/contract.sol\":1498:1521  owner() == _msgSender() */\n      0xffffffffffffffffffffffffffffffffffffffff\n      and\n      eq\n        /* \"contracts/contract.sol\":1490:1558  require(owner() == _msgSender(), \"Ownable: caller is not the owner\") */\n      tag_391\n      jumpi\n      mload(0x40)\n      0x08c379a000000000000000000000000000000000000000000000000000000000\n      dup2\n      mstore\n      0x04\n      add\n      tag_392\n      swap1\n      tag_198\n      jump\t// in\n    tag_392:\n      mload(0x40)\n      dup1\n      swap2\n      sub\n      swap1\n      revert\n    tag_391:\n        /* \"contracts/contract.sol\":9890:9904  presaleEndTime */\n      sload(0x0d)\n        /* \"contracts/contract.sol\":9871:9886  block.timestamp */\n      timestamp\n        /* \"contracts/contract.sol\":9871:9904  block.timestamp >= presaleEndTime */\n      lt\n      iszero\n        /* \"contracts/contract.sol\":9850:9964  require(... */\n      tag_394\n      jumpi\n      mload(0x40)\n      0x08c379a000000000000000000000000000000000000000000000000000000000\n      dup2\n      mstore\n      0x04\n      add\n      tag_395\n      swap1\n      tag_243\n      jump\t// in\n    tag_395:\n      mload(0x40)\n      dup1\n      swap2\n      sub\n      swap1\n      revert\n    tag_394:\n        /* \"contracts/contract.sol\":17149:17200  IERC20(saleToken).safeTransfer(msg.sender, _amount) */\n      tag_397\n        /* \"contracts/contract.sol\":17180:17190  msg.sender */\n      caller\n        /* \"contracts/contract.sol\":17192:17199  _amount */\n      dup3\n        /* \"contracts/contract.sol\":17156:17165  saleToken */\n      0x05\n      0x00\n      swap1\n      sload\n      swap1\n      0x0100\n      exp\n      swap1\n      div\n      0xffffffffffffffffffffffffffffffffffffffff\n      and\n        /* \"contracts/contract.sol\":17149:17179  IERC20(saleToken).safeTransfer */\n      0xffffffffffffffffffffffffffffffffffffffff\n      and\n      tag_376\n      swap1\n        /* \"contracts/contract.sol\":17149:17200  IERC20(saleToken).safeTransfer(msg.sender, _amount) */\n      swap3\n      swap2\n      swap1\n      0xffffffff\n      and\n      jump\t// in\n    tag_397:\n        /* \"contracts/contract.sol\":17047:17207  function withdrawSaleToken(... */\n      pop\n      jump\t// out\n        /* \"contracts/contract.sol\":8509:8531  uint256[4] public rate */\n    tag_166:\n      0x01\n      dup2\n      0x04\n      dup2\n      lt\n      tag_398\n      jumpi\n      0x00\n      dup1\n      revert\n    tag_398:\n      add\n      0x00\n      swap2\n      pop\n      swap1\n      pop\n      sload\n      dup2\n      jump\t// out\n        /* \"contracts/contract.sol\":8537:8561  address public saleToken */\n    tag_170:\n      0x05\n      0x00\n      swap1\n      sload\n      swap1\n      0x0100\n      exp\n      swap1\n      div\n      0xffffffffffffffffffffffffffffffffffffffff\n      and\n      dup2\n      jump\t// out\n        /* \"contracts/contract.sol\":11690:11786  function updateEthRate(uint256[4] memory _rate) external onlyOwner {... */\n    tag_176:\n        /* \"contracts/contract.sol\":1509:1521  _msgSender() */\n      tag_401\n        /* \"contracts/contract.sol\":1509:1519  _msgSender */\n      tag_194\n        /* \"contracts/contract.sol\":1509:1521  _msgSender() */\n      jump\t// in\n    tag_401:\n        /* \"contracts/contract.sol\":1498:1521  owner() == _msgSender() */\n      0xffffffffffffffffffffffffffffffffffffffff\n      and\n        /* \"contracts/contract.sol\":1498:1505  owner() */\n      tag_402\n        /* \"contracts/contract.sol\":1498:1503  owner */\n      tag_130\n        /* \"contracts/contract.sol\":1498:1505  owner() */\n      jump\t// in\n    tag_402:\n        /* \"contracts/contract.sol\":1498:1521  owner() == _msgSender() */\n      0xffffffffffffffffffffffffffffffffffffffff\n      and\n      eq\n        /* \"contracts/contract.sol\":1490:1558  require(owner() == _msgSender(), \"Ownable: caller is not the owner\") */\n      tag_403\n      jumpi\n      mload(0x40)\n      0x08c379a000000000000000000000000000000000000000000000000000000000\n      dup2\n      mstore\n      0x04\n      add\n      tag_404\n      swap1\n      tag_198\n      jump\t// in\n    tag_404:\n      mload(0x40)\n      dup1\n      swap2\n      sub\n      swap1\n      revert\n    tag_403:\n        /* \"contracts/contract.sol\":11774:11779  _rate */\n      dup1\n        /* \"contracts/contract.sol\":11767:11771  rate */\n      0x01\n        /* \"contracts/contract.sol\":11767:11779  rate = _rate */\n      swap1\n      0x04\n      tag_406\n      swap3\n      swap2\n      swap1\n      tag_269\n      jump\t// in\n    tag_406:\n      pop\n        /* \"contracts/contract.sol\":11690:11786  function updateEthRate(uint256[4] memory _rate) external onlyOwner {... */\n      pop\n      jump\t// out\n        /* \"contracts/contract.sol\":1687:1919  function transferOwnership(address newOwner) public virtual onlyOwner {... */\n    tag_180:\n        /* \"contracts/contract.sol\":1509:1521  _msgSender() */\n      tag_408\n        /* \"contracts/contract.sol\":1509:1519  _msgSender */\n      tag_194\n        /* \"contracts/contract.sol\":1509:1521  _msgSender() */\n      jump\t// in\n    tag_408:\n        /* \"contracts/contract.sol\":1498:1521  owner() == _msgSender() */\n      0xffffffffffffffffffffffffffffffffffffffff\n      and\n        /* \"contracts/contract.sol\":1498:1505  owner() */\n      tag_409\n        /* \"contracts/contract.sol\":1498:1503  owner */\n      tag_130\n        /* \"contracts/contract.sol\":1498:1505  owner() */\n      jump\t// in\n    tag_409:\n        /* \"contracts/contract.sol\":1498:1521  owner() == _msgSender() */\n      0xffffffffffffffffffffffffffffffffffffffff\n      and\n      eq\n        /* \"contracts/contract.sol\":1490:1558  require(owner() == _msgSender(), \"Ownable: caller is not the owner\") */\n      tag_410\n      jumpi\n      mload(0x40)\n      0x08c379a000000000000000000000000000000000000000000000000000000000\n      dup2\n      mstore\n      0x04\n      add\n      tag_411\n      swap1\n      tag_198\n      jump\t// in\n    tag_411:\n      mload(0x40)\n      dup1\n      swap2\n      sub\n      swap1\n      revert\n    tag_410:\n        /* \"contracts/contract.sol\":1808:1809  0 */\n      0x00\n        /* \"contracts/contract.sol\":1788:1810  newOwner != address(0) */\n      0xffffffffffffffffffffffffffffffffffffffff\n      and\n        /* \"contracts/contract.sol\":1788:1796  newOwner */\n      dup2\n        /* \"contracts/contract.sol\":1788:1810  newOwner != address(0) */\n      0xffffffffffffffffffffffffffffffffffffffff\n      and\n      sub\n        /* \"contracts/contract.sol\":1767:1874  require(... */\n      tag_413\n      jumpi\n      mload(0x40)\n      0x08c379a000000000000000000000000000000000000000000000000000000000\n      dup2\n      mstore\n      0x04\n      add\n      tag_414\n      swap1\n      tag_415\n      jump\t// in\n    tag_414:\n      mload(0x40)\n      dup1\n      swap2\n      sub\n      swap1\n      revert\n    tag_413:\n        /* \"contracts/contract.sol\":1884:1912  _transferOwnership(newOwner) */\n      tag_416\n        /* \"contracts/contract.sol\":1903:1911  newOwner */\n      dup2\n        /* \"contracts/contract.sol\":1884:1902  _transferOwnership */\n      tag_317\n        /* \"contracts/contract.sol\":1884:1912  _transferOwnership(newOwner) */\n      jump\t// in\n    tag_416:\n        /* \"contracts/contract.sol\":1687:1919  function transferOwnership(address newOwner) public virtual onlyOwner {... */\n      pop\n      jump\t// out\n        /* \"contracts/contract.sol\":17415:17698  function withdraw(address token, uint256 amt) public onlyOwner {... */\n    tag_184:\n        /* \"contracts/contract.sol\":1509:1521  _msgSender() */\n      tag_418\n        /* \"contracts/contract.sol\":1509:1519  _msgSender */\n      tag_194\n        /* \"contracts/contract.sol\":1509:1521  _msgSender() */\n      jump\t// in\n    tag_418:\n        /* \"contracts/contract.sol\":1498:1521  owner() == _msgSender() */\n      0xffffffffffffffffffffffffffffffffffffffff\n      and\n        /* \"contracts/contract.sol\":1498:1505  owner() */\n      tag_419\n        /* \"contracts/contract.sol\":1498:1503  owner */\n      tag_130\n        /* \"contracts/contract.sol\":1498:1505  owner() */\n      jump\t// in\n    tag_419:\n        /* \"contracts/contract.sol\":1498:1521  owner() == _msgSender() */\n      0xffffffffffffffffffffffffffffffffffffffff\n      and\n      eq\n        /* \"contracts/contract.sol\":1490:1558  require(owner() == _msgSender(), \"Ownable: caller is not the owner\") */\n      tag_420\n      jumpi\n      mload(0x40)\n      0x08c379a000000000000000000000000000000000000000000000000000000000\n      dup2\n      mstore\n      0x04\n      add\n      tag_421\n      swap1\n      tag_198\n      jump\t// in\n    tag_421:\n      mload(0x40)\n      dup1\n      swap2\n      sub\n      swap1\n      revert\n    tag_420:\n        /* \"contracts/contract.sol\":17518:17527  saleToken */\n      0x05\n      0x00\n      swap1\n      sload\n      swap1\n      0x0100\n      exp\n      swap1\n      div\n      0xffffffffffffffffffffffffffffffffffffffff\n      and\n        /* \"contracts/contract.sol\":17509:17527  token != saleToken */\n      0xffffffffffffffffffffffffffffffffffffffff\n      and\n        /* \"contracts/contract.sol\":17509:17514  token */\n      dup3\n        /* \"contracts/contract.sol\":17509:17527  token != saleToken */\n      0xffffffffffffffffffffffffffffffffffffffff\n      and\n      sub\n        /* \"contracts/contract.sol\":17488:17638  require(... */\n      tag_423\n      jumpi\n      mload(0x40)\n      0x08c379a000000000000000000000000000000000000000000000000000000000\n      dup2\n      mstore\n      0x04\n      add\n      tag_424\n      swap1\n      tag_425\n      jump\t// in\n    tag_424:\n      mload(0x40)\n      dup1\n      swap2\n      sub\n      swap1\n      revert\n    tag_423:\n        /* \"contracts/contract.sol\":17648:17691  IERC20(token).safeTransfer(msg.sender, amt) */\n      tag_426\n        /* \"contracts/contract.sol\":17675:17685  msg.sender */\n      caller\n        /* \"contracts/contract.sol\":17687:17690  amt */\n      dup3\n        /* \"contracts/contract.sol\":17655:17660  token */\n      dup5\n        /* \"contracts/contract.sol\":17648:17674  IERC20(token).safeTransfer */\n      0xffffffffffffffffffffffffffffffffffffffff\n      and\n      tag_376\n      swap1\n        /* \"contracts/contract.sol\":17648:17691  IERC20(token).safeTransfer(msg.sender, amt) */\n      swap3\n      swap2\n      swap1\n      0xffffffff\n      and\n      jump\t// in\n    tag_426:\n        /* \"contracts/contract.sol\":17415:17698  function withdraw(address token, uint256 amt) public onlyOwner {... */\n      pop\n      pop\n      jump\t// out\n        /* \"contracts/contract.sol\":17704:18019  function withdrawAll(address token) public onlyOwner {... */\n    tag_188:\n        /* \"contracts/contract.sol\":1509:1521  _msgSender() */\n      tag_428\n        /* \"contracts/contract.sol\":1509:1519  _msgSender */\n      tag_194\n        /* \"contracts/contract.sol\":1509:1521  _msgSender() */\n      jump\t// in\n    tag_428:\n        /* \"contracts/contract.sol\":1498:1521  owner() == _msgSender() */\n      0xffffffffffffffffffffffffffffffffffffffff\n      and\n        /* \"contracts/contract.sol\":1498:1505  owner() */\n      tag_429\n        /* \"contracts/contract.sol\":1498:1503  owner */\n      tag_130\n        /* \"contracts/contract.sol\":1498:1505  owner() */\n      jump\t// in\n    tag_429:\n        /* \"contracts/contract.sol\":1498:1521  owner() == _msgSender() */\n      0xffffffffffffffffffffffffffffffffffffffff\n      and\n      eq\n        /* \"contracts/contract.sol\":1490:1558  require(owner() == _msgSender(), \"Ownable: caller is not the owner\") */\n      tag_430\n      jumpi\n      mload(0x40)\n      0x08c379a000000000000000000000000000000000000000000000000000000000\n      dup2\n      mstore\n      0x04\n      add\n      tag_431\n      swap1\n      tag_198\n      jump\t// in\n    tag_431:\n      mload(0x40)\n      dup1\n      swap2\n      sub\n      swap1\n      revert\n    tag_430:\n        /* \"contracts/contract.sol\":17797:17806  saleToken */\n      0x05\n      0x00\n      swap1\n      sload\n      swap1\n      0x0100\n      exp\n      swap1\n      div\n      0xffffffffffffffffffffffffffffffffffffffff\n      and\n        /* \"contracts/contract.sol\":17788:17806  token != saleToken */\n      0xffffffffffffffffffffffffffffffffffffffff\n      and\n        /* \"contracts/contract.sol\":17788:17793  token */\n      dup2\n        /* \"contracts/contract.sol\":17788:17806  token != saleToken */\n      0xffffffffffffffffffffffffffffffffffffffff\n      and\n      sub\n        /* \"contracts/contract.sol\":17767:17920  require(... */\n      tag_433\n      jumpi\n      mload(0x40)\n      0x08c379a000000000000000000000000000000000000000000000000000000000\n      dup2\n      mstore\n      0x04\n      add\n      tag_434\n      swap1\n      tag_435\n      jump\t// in\n    tag_434:\n      mload(0x40)\n      dup1\n      swap2\n      sub\n      swap1\n      revert\n    tag_433:\n        /* \"contracts/contract.sol\":17930:17941  uint256 amt */\n      0x00\n        /* \"contracts/contract.sol\":17951:17956  token */\n      dup2\n        /* \"contracts/contract.sol\":17944:17967  IERC20(token).balanceOf */\n      0xffffffffffffffffffffffffffffffffffffffff\n      and\n      0x70a08231\n        /* \"contracts/contract.sol\":17976:17980  this */\n      address\n        /* \"contracts/contract.sol\":17944:17982  IERC20(token).balanceOf(address(this)) */\n      mload(0x40)\n      dup3\n      0xffffffff\n      and\n      0xe0\n      shl\n      dup2\n      mstore\n      0x04\n      add\n      tag_436\n      swap2\n      swap1\n      tag_132\n      jump\t// in\n    tag_436:\n      0x20\n      mload(0x40)\n      dup1\n      dup4\n      sub\n      dup2\n      dup7\n      gas\n      staticcall\n      iszero\n      dup1\n      iszero\n      tag_438\n      jumpi\n      returndatasize\n      0x00\n      dup1\n      returndatacopy\n      revert(0x00, returndatasize)\n    tag_438:\n      pop\n      pop\n      pop\n      pop\n      mload(0x40)\n      returndatasize\n      not(0x1f)\n      0x1f\n      dup3\n      add\n      and\n      dup3\n      add\n      dup1\n      0x40\n      mstore\n      pop\n      dup2\n      add\n      swap1\n      tag_439\n      swap2\n      swap1\n      tag_346\n      jump\t// in\n    tag_439:\n        /* \"contracts/contract.sol\":17930:17982  uint256 amt = IERC20(token).balanceOf(address(this)) */\n      swap1\n      pop\n        /* \"contracts/contract.sol\":17992:18012  withdraw(token, amt) */\n      tag_440\n        /* \"contracts/contract.sol\":18001:18006  token */\n      dup3\n        /* \"contracts/contract.sol\":18008:18011  amt */\n      dup3\n        /* \"contracts/contract.sol\":17992:18000  withdraw */\n      tag_184\n        /* \"contracts/contract.sol\":17992:18012  withdraw(token, amt) */\n      jump\t// in\n    tag_440:\n        /* \"contracts/contract.sol\":17757:18019  {... */\n      pop\n        /* \"contracts/contract.sol\":17704:18019  function withdrawAll(address token) public onlyOwner {... */\n      pop\n      jump\t// out\n        /* \"contracts/contract.sol\":17213:17409  function withdrawAllSaleToken() external onlyOwner isPresaleEnded {... */\n    tag_191:\n        /* \"contracts/contract.sol\":1509:1521  _msgSender() */\n      tag_442\n        /* \"contracts/contract.sol\":1509:1519  _msgSender */\n      tag_194\n        /* \"contracts/contract.sol\":1509:1521  _msgSender() */\n      jump\t// in\n    tag_442:\n        /* \"contracts/contract.sol\":1498:1521  owner() == _msgSender() */\n      0xffffffffffffffffffffffffffffffffffffffff\n      and\n        /* \"contracts/contract.sol\":1498:1505  owner() */\n      tag_443\n        /* \"contracts/contract.sol\":1498:1503  owner */\n      tag_130\n        /* \"contracts/contract.sol\":1498:1505  owner() */\n      jump\t// in\n    tag_443:\n        /* \"contracts/contract.sol\":1498:1521  owner() == _msgSender() */\n      0xffffffffffffffffffffffffffffffffffffffff\n      and\n      eq\n        /* \"contracts/contract.sol\":1490:1558  require(owner() == _msgSender(), \"Ownable: caller is not the owner\") */\n      tag_444\n      jumpi\n      mload(0x40)\n      0x08c379a000000000000000000000000000000000000000000000000000000000\n      dup2\n      mstore\n      0x04\n      add\n      tag_445\n      swap1\n      tag_198\n      jump\t// in\n    tag_445:\n      mload(0x40)\n      dup1\n      swap2\n      sub\n      swap1\n      revert\n    tag_444:\n        /* \"contracts/contract.sol\":9890:9904  presaleEndTime */\n      sload(0x0d)\n        /* \"contracts/contract.sol\":9871:9886  block.timestamp */\n      timestamp\n        /* \"contracts/contract.sol\":9871:9904  block.timestamp >= presaleEndTime */\n      lt\n      iszero\n        /* \"contracts/contract.sol\":9850:9964  require(... */\n      tag_447\n      jumpi\n      mload(0x40)\n      0x08c379a000000000000000000000000000000000000000000000000000000000\n      dup2\n      mstore\n      0x04\n      add\n      tag_448\n      swap1\n      tag_243\n      jump\t// in\n    tag_448:\n      mload(0x40)\n      dup1\n      swap2\n      sub\n      swap1\n      revert\n    tag_447:\n        /* \"contracts/contract.sol\":17289:17300  uint256 amt */\n      0x00\n        /* \"contracts/contract.sol\":17310:17319  saleToken */\n      0x05\n      0x00\n      swap1\n      sload\n      swap1\n      0x0100\n      exp\n      swap1\n      div\n      0xffffffffffffffffffffffffffffffffffffffff\n      and\n        /* \"contracts/contract.sol\":17303:17330  IERC20(saleToken).balanceOf */\n      0xffffffffffffffffffffffffffffffffffffffff\n      and\n      0x70a08231\n        /* \"contracts/contract.sol\":17339:17343  this */\n      address\n        /* \"contracts/contract.sol\":17303:17345  IERC20(saleToken).balanceOf(address(this)) */\n      mload(0x40)\n      dup3\n      0xffffffff\n      and\n      0xe0\n      shl\n      dup2\n      mstore\n      0x04\n      add\n      tag_450\n      swap2\n      swap1\n      tag_132\n      jump\t// in\n    tag_450:\n      0x20\n      mload(0x40)\n      dup1\n      dup4\n      sub\n      dup2\n      dup7\n      gas\n      staticcall\n      iszero\n      dup1\n      iszero\n      tag_452\n      jumpi\n      returndatasize\n      0x00\n      dup1\n      returndatacopy\n      revert(0x00, returndatasize)\n    tag_452:\n      pop\n      pop\n      pop\n      pop\n      mload(0x40)\n      returndatasize\n      not(0x1f)\n      0x1f\n      dup3\n      add\n      and\n      dup3\n      add\n      dup1\n      0x40\n      mstore\n      pop\n      dup2\n      add\n      swap1\n      tag_453\n      swap2\n      swap1\n      tag_346\n      jump\t// in\n    tag_453:\n        /* \"contracts/contract.sol\":17289:17345  uint256 amt = IERC20(saleToken).balanceOf(address(this)) */\n      swap1\n      pop\n        /* \"contracts/contract.sol\":17355:17402  IERC20(saleToken).safeTransfer(msg.sender, amt) */\n      tag_454\n        /* \"contracts/contract.sol\":17386:17396  msg.sender */\n      caller\n        /* \"contracts/contract.sol\":17398:17401  amt */\n      dup3\n        /* \"contracts/contract.sol\":17362:17371  saleToken */\n      0x05\n      0x00\n      swap1\n      sload\n      swap1\n      0x0100\n      exp\n      swap1\n      div\n      0xffffffffffffffffffffffffffffffffffffffff\n      and\n        /* \"contracts/contract.sol\":17355:17385  IERC20(saleToken).safeTransfer */\n      0xffffffffffffffffffffffffffffffffffffffff\n      and\n      tag_376\n      swap1\n        /* \"contracts/contract.sol\":17355:17402  IERC20(saleToken).safeTransfer(msg.sender, amt) */\n      swap3\n      swap2\n      swap1\n      0xffffffff\n      and\n      jump\t// in\n    tag_454:\n        /* \"contracts/contract.sol\":17279:17409  {... */\n      pop\n        /* \"contracts/contract.sol\":17213:17409  function withdrawAllSaleToken() external onlyOwner isPresaleEnded {... */\n      jump\t// out\n        /* \"contracts/contract.sol\":888:984  function _msgSender() internal view virtual returns (address) {... */\n    tag_194:\n        /* \"contracts/contract.sol\":941:948  address */\n      0x00\n        /* \"contracts/contract.sol\":967:977  msg.sender */\n      caller\n        /* \"contracts/contract.sol\":960:977  return msg.sender */\n      swap1\n      pop\n        /* \"contracts/contract.sol\":888:984  function _msgSender() internal view virtual returns (address) {... */\n      swap1\n      jump\t// out\n        /* \"contracts/contract.sol\":5907:6182  function safeTransferFrom(... */\n    tag_305:\n        /* \"contracts/contract.sol\":6045:6175  _callOptionalReturn(... */\n      tag_457\n        /* \"contracts/contract.sol\":6078:6083  token */\n      dup5\n        /* \"contracts/contract.sol\":6120:6147  token.transferFrom.selector */\n      shl(0xe0, 0x23b872dd)\n        /* \"contracts/contract.sol\":6149:6153  from */\n      dup6\n        /* \"contracts/contract.sol\":6155:6157  to */\n      dup6\n        /* \"contracts/contract.sol\":6159:6164  value */\n      dup6\n        /* \"contracts/contract.sol\":6097:6165  abi.encodeWithSelector(token.transferFrom.selector, from, to, value) */\n      add(0x24, mload(0x40))\n      tag_458\n      swap4\n      swap3\n      swap2\n      swap1\n      tag_459\n      jump\t// in\n    tag_458:\n      mload(0x40)\n      0x20\n      dup2\n      dup4\n      sub\n      sub\n      dup2\n      mstore\n      swap1\n      0x40\n      mstore\n      swap1\n      not(0xffffffffffffffffffffffffffffffffffffffffffffffffffffffff)\n      and\n      0x20\n      dup3\n      add\n      dup1\n      mload\n      0xffffffffffffffffffffffffffffffffffffffffffffffffffffffff\n      dup4\n      dup2\n      dup4\n      and\n      or\n      dup4\n      mstore\n      pop\n      pop\n      pop\n      pop\n        /* \"contracts/contract.sol\":6045:6064  _callOptionalReturn */\n      tag_460\n        /* \"contracts/contract.sol\":6045:6175  _callOptionalReturn(... */\n      jump\t// in\n    tag_457:\n        /* \"contracts/contract.sol\":5907:6182  function safeTransferFrom(... */\n      pop\n      pop\n      pop\n      pop\n      jump\t// out\n        /* \"contracts/contract.sol\":1924:2111  function _transferOwnership(address newOwner) internal virtual {... */\n    tag_317:\n        /* \"contracts/contract.sol\":1997:2013  address oldOwner */\n      0x00\n        /* \"contracts/contract.sol\":2016:2022  _owner */\n      dup1\n      0x00\n      swap1\n      sload\n      swap1\n      0x0100\n      exp\n      swap1\n      div\n      0xffffffffffffffffffffffffffffffffffffffff\n      and\n        /* \"contracts/contract.sol\":1997:2022  address oldOwner = _owner */\n      swap1\n      pop\n        /* \"contracts/contract.sol\":2041:2049  newOwner */\n      dup2\n        /* \"contracts/contract.sol\":2032:2038  _owner */\n      0x00\n      dup1\n        /* \"contracts/contract.sol\":2032:2049  _owner = newOwner */\n      0x0100\n      exp\n      dup2\n      sload\n      dup2\n      0xffffffffffffffffffffffffffffffffffffffff\n      mul\n      not\n      and\n      swap1\n      dup4\n      0xffffffffffffffffffffffffffffffffffffffff\n      and\n      mul\n      or\n      swap1\n      sstore\n      pop\n        /* \"contracts/contract.sol\":2095:2103  newOwner */\n      dup2\n        /* \"contracts/contract.sol\":2064:2104  OwnershipTransferred(oldOwner, newOwner) */\n      0xffffffffffffffffffffffffffffffffffffffff\n      and\n        /* \"contracts/contract.sol\":2085:2093  oldOwner */\n      dup2\n        /* \"contracts/contract.sol\":2064:2104  OwnershipTransferred(oldOwner, newOwner) */\n      0xffffffffffffffffffffffffffffffffffffffff\n      and\n      0x8be0079c531659141344cd1fd0a4f28419497f9722a3daafe3b4186f6b6457e0\n      mload(0x40)\n      mload(0x40)\n      dup1\n      swap2\n      sub\n      swap1\n      log3\n        /* \"contracts/contract.sol\":1987:2111  {... */\n      pop\n        /* \"contracts/contract.sol\":1924:2111  function _transferOwnership(address newOwner) internal virtual {... */\n      pop\n      jump\t// out\n        /* \"contracts/contract.sol\":5692:5901  function safeTransfer(IERC20 token, address to, uint256 value) internal {... */\n    tag_376:\n        /* \"contracts/contract.sol\":5774:5894  _callOptionalReturn(... */\n      tag_463\n        /* \"contracts/contract.sol\":5807:5812  token */\n      dup4\n        /* \"contracts/contract.sol\":5849:5872  token.transfer.selector */\n      shl(0xe0, 0xa9059cbb)\n        /* \"contracts/contract.sol\":5874:5876  to */\n      dup5\n        /* \"contracts/contract.sol\":5878:5883  value */\n      dup5\n        /* \"contracts/contract.sol\":5826:5884  abi.encodeWithSelector(token.transfer.selector, to, value) */\n      add(0x24, mload(0x40))\n      tag_464\n      swap3\n      swap2\n      swap1\n      tag_348\n      jump\t// in\n    tag_464:\n      mload(0x40)\n      0x20\n      dup2\n      dup4\n      sub\n      sub\n      dup2\n      mstore\n      swap1\n      0x40\n      mstore\n      swap1\n      not(0xffffffffffffffffffffffffffffffffffffffffffffffffffffffff)\n      and\n      0x20\n      dup3\n      add\n      dup1\n      mload\n      0xffffffffffffffffffffffffffffffffffffffffffffffffffffffff\n      dup4\n      dup2\n      dup4\n      and\n      or\n      dup4\n      mstore\n      pop\n      pop\n      pop\n      pop\n        /* \"contracts/contract.sol\":5774:5793  _callOptionalReturn */\n      tag_460\n        /* \"contracts/contract.sol\":5774:5894  _callOptionalReturn(... */\n      jump\t// in\n    tag_463:\n        /* \"contracts/contract.sol\":5692:5901  function safeTransfer(IERC20 token, address to, uint256 value) internal {... */\n      pop\n      pop\n      pop\n      jump\t// out\n        /* \"contracts/contract.sol\":7686:8133  function _callOptionalReturn(IERC20 token, bytes memory data) private {... */\n    tag_460:\n        /* \"contracts/contract.sol\":7766:7789  bytes memory returndata */\n      0x00\n        /* \"contracts/contract.sol\":7792:7895  address(token).functionCall(... */\n      tag_466\n        /* \"contracts/contract.sol\":7833:7837  data */\n      dup3\n        /* \"contracts/contract.sol\":7792:7895  address(token).functionCall(... */\n      mload(0x40)\n      dup1\n      0x40\n      add\n      0x40\n      mstore\n      dup1\n      0x20\n      dup2\n      mstore\n      0x20\n      add\n      0x5361666545524332303a206c6f772d6c6576656c2063616c6c206661696c6564\n      dup2\n      mstore\n      pop\n        /* \"contracts/contract.sol\":7800:7805  token */\n      dup6\n        /* \"contracts/contract.sol\":7792:7819  address(token).functionCall */\n      0xffffffffffffffffffffffffffffffffffffffff\n      and\n      tag_467\n      swap1\n        /* \"contracts/contract.sol\":7792:7895  address(token).functionCall(... */\n      swap3\n      swap2\n      swap1\n      0xffffffff\n      and\n      jump\t// in\n    tag_466:\n        /* \"contracts/contract.sol\":7766:7895  bytes memory returndata = address(token).functionCall(... */\n      swap1\n      pop\n        /* \"contracts/contract.sol\":7929:7930  0 */\n      0x00\n        /* \"contracts/contract.sol\":7909:7919  returndata */\n      dup2\n        /* \"contracts/contract.sol\":7909:7926  returndata.length */\n      mload\n        /* \"contracts/contract.sol\":7909:7930  returndata.length > 0 */\n      gt\n        /* \"contracts/contract.sol\":7905:8127  if (returndata.length > 0) {... */\n      iszero\n      tag_468\n      jumpi\n        /* \"contracts/contract.sol\":8021:8031  returndata */\n      dup1\n        /* \"contracts/contract.sol\":8010:8040  abi.decode(returndata, (bool)) */\n      dup1\n      0x20\n      add\n      swap1\n      mload\n      dup2\n      add\n      swap1\n      tag_469\n      swap2\n      swap1\n      tag_470\n      jump\t// in\n    tag_469:\n        /* \"contracts/contract.sol\":7985:8116  require(... */\n      tag_471\n      jumpi\n      mload(0x40)\n      0x08c379a000000000000000000000000000000000000000000000000000000000\n      dup2\n      mstore\n      0x04\n      add\n      tag_472\n      swap1\n      tag_473\n      jump\t// in\n    tag_472:\n      mload(0x40)\n      dup1\n      swap2\n      sub\n      swap1\n      revert\n    tag_471:\n        /* \"contracts/contract.sol\":7905:8127  if (returndata.length > 0) {... */\n    tag_468:\n        /* \"contracts/contract.sol\":7756:8133  {... */\n      pop\n        /* \"contracts/contract.sol\":7686:8133  function _callOptionalReturn(IERC20 token, bytes memory data) private {... */\n      pop\n      pop\n      jump\t// out\n        /* \"contracts/contract.sol\":2557:2780  function functionCall(... */\n    tag_467:\n        /* \"contracts/contract.sol\":2690:2702  bytes memory */\n      0x60\n        /* \"contracts/contract.sol\":2721:2773  functionCallWithValue(target, data, 0, errorMessage) */\n      tag_475\n        /* \"contracts/contract.sol\":2743:2749  target */\n      dup5\n        /* \"contracts/contract.sol\":2751:2755  data */\n      dup5\n        /* \"contracts/contract.sol\":2757:2758  0 */\n      0x00\n        /* \"contracts/contract.sol\":2760:2772  errorMessage */\n      dup6\n        /* \"contracts/contract.sol\":2721:2742  functionCallWithValue */\n      tag_476\n        /* \"contracts/contract.sol\":2721:2773  functionCallWithValue(target, data, 0, errorMessage) */\n      jump\t// in\n    tag_475:\n        /* \"contracts/contract.sol\":2714:2773  return functionCallWithValue(target, data, 0, errorMessage) */\n      swap1\n      pop\n        /* \"contracts/contract.sol\":2557:2780  function functionCall(... */\n      swap4\n      swap3\n      pop\n      pop\n      pop\n      jump\t// out\n        /* \"contracts/contract.sol\":3134:3689  function functionCallWithValue(... */\n    tag_476:\n        /* \"contracts/contract.sol\":3299:3311  bytes memory */\n      0x60\n        /* \"contracts/contract.sol\":3369:3374  value */\n      dup3\n        /* \"contracts/contract.sol\":3344:3365  address(this).balance */\n      selfbalance\n        /* \"contracts/contract.sol\":3344:3374  address(this).balance >= value */\n      lt\n      iszero\n        /* \"contracts/contract.sol\":3323:3438  require(... */\n      tag_478\n      jumpi\n      mload(0x40)\n      0x08c379a000000000000000000000000000000000000000000000000000000000\n      dup2\n      mstore\n      0x04\n      add\n      tag_479\n      swap1\n      tag_480\n      jump\t// in\n    tag_479:\n      mload(0x40)\n      dup1\n      swap2\n      sub\n      swap1\n      revert\n    tag_478:\n        /* \"contracts/contract.sol\":3456:3474  isContract(target) */\n      tag_481\n        /* \"contracts/contract.sol\":3467:3473  target */\n      dup6\n        /* \"contracts/contract.sol\":3456:3466  isContract */\n      tag_482\n        /* \"contracts/contract.sol\":3456:3474  isContract(target) */\n      jump\t// in\n    tag_481:\n        /* \"contracts/contract.sol\":3448:3508  require(isContract(target), \"Address: call to non-contract\") */\n      tag_483\n      jumpi\n      mload(0x40)\n      0x08c379a000000000000000000000000000000000000000000000000000000000\n      dup2\n      mstore\n      0x04\n      add\n      tag_484\n      swap1\n      tag_485\n      jump\t// in\n    tag_484:\n      mload(0x40)\n      dup1\n      swap2\n      sub\n      swap1\n      revert\n    tag_483:\n        /* \"contracts/contract.sol\":3520:3532  bool success */\n      0x00\n        /* \"contracts/contract.sol\":3534:3557  bytes memory returndata */\n      dup1\n        /* \"contracts/contract.sol\":3561:3567  target */\n      dup7\n        /* \"contracts/contract.sol\":3561:3572  target.call */\n      0xffffffffffffffffffffffffffffffffffffffff\n      and\n        /* \"contracts/contract.sol\":3580:3585  value */\n      dup6\n        /* \"contracts/contract.sol\":3600:3604  data */\n      dup8\n        /* \"contracts/contract.sol\":3561:3614  target.call{value: value}(... */\n      mload(0x40)\n      tag_486\n      swap2\n      swap1\n      tag_487\n      jump\t// in\n    tag_486:\n      0x00\n      mload(0x40)\n      dup1\n      dup4\n      sub\n      dup2\n      dup6\n      dup8\n      gas\n      call\n      swap3\n      pop\n      pop\n      pop\n      returndatasize\n      dup1\n      0x00\n      dup2\n      eq\n      tag_490\n      jumpi\n      mload(0x40)\n      swap2\n      pop\n      and(add(returndatasize, 0x3f), not(0x1f))\n      dup3\n      add\n      0x40\n      mstore\n      returndatasize\n      dup3\n      mstore\n      returndatasize\n      0x00\n      0x20\n      dup5\n      add\n      returndatacopy\n      jump(tag_489)\n    tag_490:\n      0x60\n      swap2\n      pop\n    tag_489:\n      pop\n        /* \"contracts/contract.sol\":3519:3614  (bool success, bytes memory returndata) = target.call{value: value}(... */\n      swap2\n      pop\n      swap2\n      pop\n        /* \"contracts/contract.sol\":3631:3682  verifyCallResult(success, returndata, errorMessage) */\n      tag_491\n        /* \"contracts/contract.sol\":3648:3655  success */\n      dup3\n        /* \"contracts/contract.sol\":3657:3667  returndata */\n      dup3\n        /* \"contracts/contract.sol\":3669:3681  errorMessage */\n      dup7\n        /* \"contracts/contract.sol\":3631:3647  verifyCallResult */\n      tag_492\n        /* \"contracts/contract.sol\":3631:3682  verifyCallResult(success, returndata, errorMessage) */\n      jump\t// in\n    tag_491:\n        /* \"contracts/contract.sol\":3624:3682  return verifyCallResult(success, returndata, errorMessage) */\n      swap3\n      pop\n      pop\n      pop\n        /* \"contracts/contract.sol\":3134:3689  function functionCallWithValue(... */\n      swap5\n      swap4\n      pop\n      pop\n      pop\n      pop\n      jump\t// out\n        /* \"contracts/contract.sol\":2162:2352  function isContract(address account) internal view returns (bool) {... */\n    tag_482:\n        /* \"contracts/contract.sol\":2222:2226  bool */\n      0x00\n        /* \"contracts/contract.sol\":2238:2250  uint256 size */\n      dup1\n        /* \"contracts/contract.sol\":2303:2310  account */\n      dup3\n        /* \"contracts/contract.sol\":2291:2311  extcodesize(account) */\n      extcodesize\n        /* \"contracts/contract.sol\":2283:2311  size := extcodesize(account) */\n      swap1\n      pop\n        /* \"contracts/contract.sol\":2344:2345  0 */\n      0x00\n        /* \"contracts/contract.sol\":2337:2341  size */\n      dup2\n        /* \"contracts/contract.sol\":2337:2345  size > 0 */\n      gt\n        /* \"contracts/contract.sol\":2330:2345  return size > 0 */\n      swap2\n      pop\n      pop\n        /* \"contracts/contract.sol\":2162:2352  function isContract(address account) internal view returns (bool) {... */\n      swap2\n      swap1\n      pop\n      jump\t// out\n        /* \"contracts/contract.sol\":5074:5607  function verifyCallResult(... */\n    tag_492:\n        /* \"contracts/contract.sol\":5220:5232  bytes memory */\n      0x60\n        /* \"contracts/contract.sol\":5248:5255  success */\n      dup4\n        /* \"contracts/contract.sol\":5244:5601  if (success) {... */\n      iszero\n      tag_495\n      jumpi\n        /* \"contracts/contract.sol\":5278:5288  returndata */\n      dup3\n        /* \"contracts/contract.sol\":5271:5288  return returndata */\n      swap1\n      pop\n      jump(tag_494)\n        /* \"contracts/contract.sol\":5244:5601  if (success) {... */\n    tag_495:\n        /* \"contracts/contract.sol\":5343:5344  0 */\n      0x00\n        /* \"contracts/contract.sol\":5323:5333  returndata */\n      dup4\n        /* \"contracts/contract.sol\":5323:5340  returndata.length */\n      mload\n        /* \"contracts/contract.sol\":5323:5344  returndata.length > 0 */\n      gt\n        /* \"contracts/contract.sol\":5319:5591  if (returndata.length > 0) {... */\n      iszero\n      tag_497\n      jumpi\n        /* \"contracts/contract.sol\":5424:5434  returndata */\n      dup3\n        /* \"contracts/contract.sol\":5418:5435  mload(returndata) */\n      mload\n        /* \"contracts/contract.sol\":5484:5499  returndata_size */\n      dup1\n        /* \"contracts/contract.sol\":5471:5481  returndata */\n      dup5\n        /* \"contracts/contract.sol\":5467:5469  32 */\n      0x20\n        /* \"contracts/contract.sol\":5463:5482  add(32, returndata) */\n      add\n        /* \"contracts/contract.sol\":5456:5500  revert(add(32, returndata), returndata_size) */\n      revert\n        /* \"contracts/contract.sol\":5319:5591  if (returndata.length > 0) {... */\n    tag_497:\n        /* \"contracts/contract.sol\":5563:5575  errorMessage */\n      dup2\n        /* \"contracts/contract.sol\":5556:5576  revert(errorMessage) */\n      mload(0x40)\n      0x08c379a000000000000000000000000000000000000000000000000000000000\n      dup2\n      mstore\n      0x04\n      add\n      tag_499\n      swap2\n      swap1\n      tag_500\n      jump\t// in\n    tag_499:\n      mload(0x40)\n      dup1\n      swap2\n      sub\n      swap1\n      revert\n        /* \"contracts/contract.sol\":5074:5607  function verifyCallResult(... */\n    tag_494:\n      swap4\n      swap3\n      pop\n      pop\n      pop\n      jump\t// out\n    tag_269:\n      dup3\n      0x04\n      dup2\n      add\n      swap3\n      dup3\n      iszero\n      tag_501\n      jumpi\n      swap2\n      0x20\n      mul\n      dup3\n      add\n    tag_502:\n      dup3\n      dup2\n      gt\n      iszero\n      tag_503\n      jumpi\n      dup3\n      mload\n      dup3\n      sstore\n      swap2\n      0x20\n      add\n      swap2\n      swap1\n      0x01\n      add\n      swap1\n      jump(tag_502)\n    tag_503:\n    tag_501:\n      pop\n      swap1\n      pop\n      tag_504\n      swap2\n      swap1\n      tag_505\n      jump\t// in\n    tag_504:\n      pop\n      swap1\n      jump\t// out\n    tag_505:\n    tag_506:\n      dup1\n      dup3\n      gt\n      iszero\n      tag_507\n      jumpi\n      0x00\n      dup2\n      0x00\n      swap1\n      sstore\n      pop\n      0x01\n      add\n      jump(tag_506)\n    tag_507:\n      pop\n      swap1\n      jump\t// out\n        /* \"#utility.yul\":7:82   */\n    tag_508:\n        /* \"#utility.yul\":40:46   */\n      0x00\n        /* \"#utility.yul\":73:75   */\n      0x40\n        /* \"#utility.yul\":67:76   */\n      mload\n        /* \"#utility.yul\":57:76   */\n      swap1\n      pop\n        /* \"#utility.yul\":7:82   */\n      swap1\n      jump\t// out\n        /* \"#utility.yul\":88:205   */\n    tag_509:\n        /* \"#utility.yul\":197:198   */\n      0x00\n        /* \"#utility.yul\":194:195   */\n      dup1\n        /* \"#utility.yul\":187:199   */\n      revert\n        /* \"#utility.yul\":334:411   */\n    tag_511:\n        /* \"#utility.yul\":371:378   */\n      0x00\n        /* \"#utility.yul\":400:405   */\n      dup2\n        /* \"#utility.yul\":389:405   */\n      swap1\n      pop\n        /* \"#utility.yul\":334:411   */\n      swap2\n      swap1\n      pop\n      jump\t// out\n        /* \"#utility.yul\":417:539   */\n    tag_512:\n        /* \"#utility.yul\":490:514   */\n      tag_604\n        /* \"#utility.yul\":508:513   */\n      dup2\n        /* \"#utility.yul\":490:514   */\n      tag_511\n      jump\t// in\n    tag_604:\n        /* \"#utility.yul\":483:488   */\n      dup2\n        /* \"#utility.yul\":480:515   */\n      eq\n        /* \"#utility.yul\":470:533   */\n      tag_605\n      jumpi\n        /* \"#utility.yul\":529:530   */\n      0x00\n        /* \"#utility.yul\":526:527   */\n      dup1\n        /* \"#utility.yul\":519:531   */\n      revert\n        /* \"#utility.yul\":470:533   */\n    tag_605:\n        /* \"#utility.yul\":417:539   */\n      pop\n      jump\t// out\n        /* \"#utility.yul\":545:684   */\n    tag_513:\n        /* \"#utility.yul\":591:596   */\n      0x00\n        /* \"#utility.yul\":629:635   */\n      dup2\n        /* \"#utility.yul\":616:636   */\n      calldataload\n        /* \"#utility.yul\":607:636   */\n      swap1\n      pop\n        /* \"#utility.yul\":645:678   */\n      tag_607\n        /* \"#utility.yul\":672:677   */\n      dup2\n        /* \"#utility.yul\":645:678   */\n      tag_512\n      jump\t// in\n    tag_607:\n        /* \"#utility.yul\":545:684   */\n      swap3\n      swap2\n      pop\n      pop\n      jump\t// out\n        /* \"#utility.yul\":690:1019   */\n    tag_47:\n        /* \"#utility.yul\":749:755   */\n      0x00\n        /* \"#utility.yul\":798:800   */\n      0x20\n        /* \"#utility.yul\":786:795   */\n      dup3\n        /* \"#utility.yul\":777:784   */\n      dup5\n        /* \"#utility.yul\":773:796   */\n      sub\n        /* \"#utility.yul\":769:801   */\n      slt\n        /* \"#utility.yul\":766:885   */\n      iszero\n      tag_609\n      jumpi\n        /* \"#utility.yul\":804:883   */\n      tag_610\n      tag_509\n      jump\t// in\n    tag_610:\n        /* \"#utility.yul\":766:885   */\n    tag_609:\n        /* \"#utility.yul\":924:925   */\n      0x00\n        /* \"#utility.yul\":949:1002   */\n      tag_611\n        /* \"#utility.yul\":994:1001   */\n      dup5\n        /* \"#utility.yul\":985:991   */\n      dup3\n        /* \"#utility.yul\":974:983   */\n      dup6\n        /* \"#utility.yul\":970:992   */\n      add\n        /* \"#utility.yul\":949:1002   */\n      tag_513\n      jump\t// in\n    tag_611:\n        /* \"#utility.yul\":939:1002   */\n      swap2\n      pop\n        /* \"#utility.yul\":895:1012   */\n      pop\n        /* \"#utility.yul\":690:1019   */\n      swap3\n      swap2\n      pop\n      pop\n      jump\t// out\n        /* \"#utility.yul\":1025:1151   */\n    tag_514:\n        /* \"#utility.yul\":1062:1069   */\n      0x00\n        /* \"#utility.yul\":1102:1144   */\n      0xffffffffffffffffffffffffffffffffffffffff\n        /* \"#utility.yul\":1095:1100   */\n      dup3\n        /* \"#utility.yul\":1091:1145   */\n      and\n        /* \"#utility.yul\":1080:1145   */\n      swap1\n      pop\n        /* \"#utility.yul\":1025:1151   */\n      swap2\n      swap1\n      pop\n      jump\t// out\n        /* \"#utility.yul\":1157:1253   */\n    tag_515:\n        /* \"#utility.yul\":1194:1201   */\n      0x00\n        /* \"#utility.yul\":1223:1247   */\n      tag_614\n        /* \"#utility.yul\":1241:1246   */\n      dup3\n        /* \"#utility.yul\":1223:1247   */\n      tag_514\n      jump\t// in\n    tag_614:\n        /* \"#utility.yul\":1212:1247   */\n      swap1\n      pop\n        /* \"#utility.yul\":1157:1253   */\n      swap2\n      swap1\n      pop\n      jump\t// out\n        /* \"#utility.yul\":1259:1381   */\n    tag_516:\n        /* \"#utility.yul\":1332:1356   */\n      tag_616\n        /* \"#utility.yul\":1350:1355   */\n      dup2\n        /* \"#utility.yul\":1332:1356   */\n      tag_515\n      jump\t// in\n    tag_616:\n        /* \"#utility.yul\":1325:1330   */\n      dup2\n        /* \"#utility.yul\":1322:1357   */\n      eq\n        /* \"#utility.yul\":1312:1375   */\n      tag_617\n      jumpi\n        /* \"#utility.yul\":1371:1372   */\n      0x00\n        /* \"#utility.yul\":1368:1369   */\n      dup1\n        /* \"#utility.yul\":1361:1373   */\n      revert\n        /* \"#utility.yul\":1312:1375   */\n    tag_617:\n        /* \"#utility.yul\":1259:1381   */\n      pop\n      jump\t// out\n        /* \"#utility.yul\":1387:1526   */\n    tag_517:\n        /* \"#utility.yul\":1433:1438   */\n      0x00\n        /* \"#utility.yul\":1471:1477   */\n      dup2\n        /* \"#utility.yul\":1458:1478   */\n      calldataload\n        /* \"#utility.yul\":1449:1478   */\n      swap1\n      pop\n        /* \"#utility.yul\":1487:1520   */\n      tag_619\n        /* \"#utility.yul\":1514:1519   */\n      dup2\n        /* \"#utility.yul\":1487:1520   */\n      tag_516\n      jump\t// in\n    tag_619:\n        /* \"#utility.yul\":1387:1526   */\n      swap3\n      swap2\n      pop\n      pop\n      jump\t// out\n        /* \"#utility.yul\":1532:2006   */\n    tag_52:\n        /* \"#utility.yul\":1600:1606   */\n      0x00\n        /* \"#utility.yul\":1608:1614   */\n      dup1\n        /* \"#utility.yul\":1657:1659   */\n      0x40\n        /* \"#utility.yul\":1645:1654   */\n      dup4\n        /* \"#utility.yul\":1636:1643   */\n      dup6\n        /* \"#utility.yul\":1632:1655   */\n      sub\n        /* \"#utility.yul\":1628:1660   */\n      slt\n        /* \"#utility.yul\":1625:1744   */\n      iszero\n      tag_621\n      jumpi\n        /* \"#utility.yul\":1663:1742   */\n      tag_622\n      tag_509\n      jump\t// in\n    tag_622:\n        /* \"#utility.yul\":1625:1744   */\n    tag_621:\n        /* \"#utility.yul\":1783:1784   */\n      0x00\n        /* \"#utility.yul\":1808:1861   */\n      tag_623\n        /* \"#utility.yul\":1853:1860   */\n      dup6\n        /* \"#utility.yul\":1844:1850   */\n      dup3\n        /* \"#utility.yul\":1833:1842   */\n      dup7\n        /* \"#utility.yul\":1829:1851   */\n      add\n        /* \"#utility.yul\":1808:1861   */\n      tag_517\n      jump\t// in\n    tag_623:\n        /* \"#utility.yul\":1798:1861   */\n      swap3\n      pop\n        /* \"#utility.yul\":1754:1871   */\n      pop\n        /* \"#utility.yul\":1910:1912   */\n      0x20\n        /* \"#utility.yul\":1936:1989   */\n      tag_624\n        /* \"#utility.yul\":1981:1988   */\n      dup6\n        /* \"#utility.yul\":1972:1978   */\n      dup3\n        /* \"#utility.yul\":1961:1970   */\n      dup7\n        /* \"#utility.yul\":1957:1979   */\n      add\n        /* \"#utility.yul\":1936:1989   */\n      tag_513\n      jump\t// in\n    tag_624:\n        /* \"#utility.yul\":1926:1989   */\n      swap2\n      pop\n        /* \"#utility.yul\":1881:1999   */\n      pop\n        /* \"#utility.yul\":1532:2006   */\n      swap3\n      pop\n      swap3\n      swap1\n      pop\n      jump\t// out\n        /* \"#utility.yul\":2012:2130   */\n    tag_518:\n        /* \"#utility.yul\":2099:2123   */\n      tag_626\n        /* \"#utility.yul\":2117:2122   */\n      dup2\n        /* \"#utility.yul\":2099:2123   */\n      tag_511\n      jump\t// in\n    tag_626:\n        /* \"#utility.yul\":2094:2097   */\n      dup3\n        /* \"#utility.yul\":2087:2124   */\n      mstore\n        /* \"#utility.yul\":2012:2130   */\n      pop\n      pop\n      jump\t// out\n        /* \"#utility.yul\":2136:2358   */\n    tag_55:\n        /* \"#utility.yul\":2229:2233   */\n      0x00\n        /* \"#utility.yul\":2267:2269   */\n      0x20\n        /* \"#utility.yul\":2256:2265   */\n      dup3\n        /* \"#utility.yul\":2252:2270   */\n      add\n        /* \"#utility.yul\":2244:2270   */\n      swap1\n      pop\n        /* \"#utility.yul\":2280:2351   */\n      tag_628\n        /* \"#utility.yul\":2348:2349   */\n      0x00\n        /* \"#utility.yul\":2337:2346   */\n      dup4\n        /* \"#utility.yul\":2333:2350   */\n      add\n        /* \"#utility.yul\":2324:2330   */\n      dup5\n        /* \"#utility.yul\":2280:2351   */\n      tag_518\n      jump\t// in\n    tag_628:\n        /* \"#utility.yul\":2136:2358   */\n      swap3\n      swap2\n      pop\n      pop\n      jump\t// out\n        /* \"#utility.yul\":2364:2454   */\n    tag_519:\n        /* \"#utility.yul\":2398:2405   */\n      0x00\n        /* \"#utility.yul\":2441:2446   */\n      dup2\n        /* \"#utility.yul\":2434:2447   */\n      iszero\n        /* \"#utility.yul\":2427:2448   */\n      iszero\n        /* \"#utility.yul\":2416:2448   */\n      swap1\n      pop\n        /* \"#utility.yul\":2364:2454   */\n      swap2\n      swap1\n      pop\n      jump\t// out\n        /* \"#utility.yul\":2460:2569   */\n    tag_520:\n        /* \"#utility.yul\":2541:2562   */\n      tag_631\n        /* \"#utility.yul\":2556:2561   */\n      dup2\n        /* \"#utility.yul\":2541:2562   */\n      tag_519\n      jump\t// in\n    tag_631:\n        /* \"#utility.yul\":2536:2539   */\n      dup3\n        /* \"#utility.yul\":2529:2563   */\n      mstore\n        /* \"#utility.yul\":2460:2569   */\n      pop\n      pop\n      jump\t// out\n        /* \"#utility.yul\":2575:2785   */\n    tag_67:\n        /* \"#utility.yul\":2662:2666   */\n      0x00\n        /* \"#utility.yul\":2700:2702   */\n      0x20\n        /* \"#utility.yul\":2689:2698   */\n      dup3\n        /* \"#utility.yul\":2685:2703   */\n      add\n        /* \"#utility.yul\":2677:2703   */\n      swap1\n      pop\n        /* \"#utility.yul\":2713:2778   */\n      tag_633\n        /* \"#utility.yul\":2775:2776   */\n      0x00\n        /* \"#utility.yul\":2764:2773   */\n      dup4\n        /* \"#utility.yul\":2760:2777   */\n      add\n        /* \"#utility.yul\":2751:2757   */\n      dup5\n        /* \"#utility.yul\":2713:2778   */\n      tag_520\n      jump\t// in\n    tag_633:\n        /* \"#utility.yul\":2575:2785   */\n      swap3\n      swap2\n      pop\n      pop\n      jump\t// out\n        /* \"#utility.yul\":2791:3120   */\n    tag_75:\n        /* \"#utility.yul\":2850:2856   */\n      0x00\n        /* \"#utility.yul\":2899:2901   */\n      0x20\n        /* \"#utility.yul\":2887:2896   */\n      dup3\n        /* \"#utility.yul\":2878:2885   */\n      dup5\n        /* \"#utility.yul\":2874:2897   */\n      sub\n        /* \"#utility.yul\":2870:2902   */\n      slt\n        /* \"#utility.yul\":2867:2986   */\n      iszero\n      tag_635\n      jumpi\n        /* \"#utility.yul\":2905:2984   */\n      tag_636\n      tag_509\n      jump\t// in\n    tag_636:\n        /* \"#utility.yul\":2867:2986   */\n    tag_635:\n        /* \"#utility.yul\":3025:3026   */\n      0x00\n        /* \"#utility.yul\":3050:3103   */\n      tag_637\n        /* \"#utility.yul\":3095:3102   */\n      dup5\n        /* \"#utility.yul\":3086:3092   */\n      dup3\n        /* \"#utility.yul\":3075:3084   */\n      dup6\n        /* \"#utility.yul\":3071:3093   */\n      add\n        /* \"#utility.yul\":3050:3103   */\n      tag_517\n      jump\t// in\n    tag_637:\n        /* \"#utility.yul\":3040:3103   */\n      swap2\n      pop\n        /* \"#utility.yul\":2996:3113   */\n      pop\n        /* \"#utility.yul\":2791:3120   */\n      swap3\n      swap2\n      pop\n      pop\n      jump\t// out\n        /* \"#utility.yul\":3126:3446   */\n    tag_78:\n        /* \"#utility.yul\":3241:3245   */\n      0x00\n        /* \"#utility.yul\":3279:3281   */\n      0x40\n        /* \"#utility.yul\":3268:3277   */\n      dup3\n        /* \"#utility.yul\":3264:3282   */\n      add\n        /* \"#utility.yul\":3256:3282   */\n      swap1\n      pop\n        /* \"#utility.yul\":3292:3363   */\n      tag_639\n        /* \"#utility.yul\":3360:3361   */\n      0x00\n        /* \"#utility.yul\":3349:3358   */\n      dup4\n        /* \"#utility.yul\":3345:3362   */\n      add\n        /* \"#utility.yul\":3336:3342   */\n      dup6\n        /* \"#utility.yul\":3292:3363   */\n      tag_518\n      jump\t// in\n    tag_639:\n        /* \"#utility.yul\":3373:3439   */\n      tag_640\n        /* \"#utility.yul\":3435:3437   */\n      0x20\n        /* \"#utility.yul\":3424:3433   */\n      dup4\n        /* \"#utility.yul\":3420:3438   */\n      add\n        /* \"#utility.yul\":3411:3417   */\n      dup5\n        /* \"#utility.yul\":3373:3439   */\n      tag_520\n      jump\t// in\n    tag_640:\n        /* \"#utility.yul\":3126:3446   */\n      swap4\n      swap3\n      pop\n      pop\n      pop\n      jump\t// out\n        /* \"#utility.yul\":3452:3569   */\n    tag_521:\n        /* \"#utility.yul\":3561:3562   */\n      0x00\n        /* \"#utility.yul\":3558:3559   */\n      dup1\n        /* \"#utility.yul\":3551:3563   */\n      revert\n        /* \"#utility.yul\":3575:3677   */\n    tag_522:\n        /* \"#utility.yul\":3616:3622   */\n      0x00\n        /* \"#utility.yul\":3667:3669   */\n      0x1f\n        /* \"#utility.yul\":3663:3670   */\n      not\n        /* \"#utility.yul\":3658:3660   */\n      0x1f\n        /* \"#utility.yul\":3651:3656   */\n      dup4\n        /* \"#utility.yul\":3647:3661   */\n      add\n        /* \"#utility.yul\":3643:3671   */\n      and\n        /* \"#utility.yul\":3633:3671   */\n      swap1\n      pop\n        /* \"#utility.yul\":3575:3677   */\n      swap2\n      swap1\n      pop\n      jump\t// out\n        /* \"#utility.yul\":3683:3863   */\n    tag_523:\n        /* \"#utility.yul\":3731:3808   */\n      0x4e487b7100000000000000000000000000000000000000000000000000000000\n        /* \"#utility.yul\":3728:3729   */\n      0x00\n        /* \"#utility.yul\":3721:3809   */\n      mstore\n        /* \"#utility.yul\":3828:3832   */\n      0x41\n        /* \"#utility.yul\":3825:3826   */\n      0x04\n        /* \"#utility.yul\":3818:3833   */\n      mstore\n        /* \"#utility.yul\":3852:3856   */\n      0x24\n        /* \"#utility.yul\":3849:3850   */\n      0x00\n        /* \"#utility.yul\":3842:3857   */\n      revert\n        /* \"#utility.yul\":3869:4150   */\n    tag_524:\n        /* \"#utility.yul\":3952:3979   */\n      tag_645\n        /* \"#utility.yul\":3974:3978   */\n      dup3\n        /* \"#utility.yul\":3952:3979   */\n      tag_522\n      jump\t// in\n    tag_645:\n        /* \"#utility.yul\":3944:3950   */\n      dup2\n        /* \"#utility.yul\":3940:3980   */\n      add\n        /* \"#utility.yul\":4082:4088   */\n      dup2\n        /* \"#utility.yul\":4070:4080   */\n      dup2\n        /* \"#utility.yul\":4067:4089   */\n      lt\n        /* \"#utility.yul\":4046:4064   */\n      0xffffffffffffffff\n        /* \"#utility.yul\":4034:4044   */\n      dup3\n        /* \"#utility.yul\":4031:4065   */\n      gt\n        /* \"#utility.yul\":4028:4090   */\n      or\n        /* \"#utility.yul\":4025:4113   */\n      iszero\n      tag_646\n      jumpi\n        /* \"#utility.yul\":4093:4111   */\n      tag_647\n      tag_523\n      jump\t// in\n    tag_647:\n        /* \"#utility.yul\":4025:4113   */\n    tag_646:\n        /* \"#utility.yul\":4133:4143   */\n      dup1\n        /* \"#utility.yul\":4129:4131   */\n      0x40\n        /* \"#utility.yul\":4122:4144   */\n      mstore\n        /* \"#utility.yul\":3912:4150   */\n      pop\n        /* \"#utility.yul\":3869:4150   */\n      pop\n      pop\n      jump\t// out\n        /* \"#utility.yul\":4156:4285   */\n    tag_525:\n        /* \"#utility.yul\":4190:4196   */\n      0x00\n        /* \"#utility.yul\":4217:4237   */\n      tag_649\n      tag_508\n      jump\t// in\n    tag_649:\n        /* \"#utility.yul\":4207:4237   */\n      swap1\n      pop\n        /* \"#utility.yul\":4246:4279   */\n      tag_650\n        /* \"#utility.yul\":4274:4278   */\n      dup3\n        /* \"#utility.yul\":4266:4272   */\n      dup3\n        /* \"#utility.yul\":4246:4279   */\n      tag_524\n      jump\t// in\n    tag_650:\n        /* \"#utility.yul\":4156:4285   */\n      swap2\n      swap1\n      pop\n      jump\t// out\n        /* \"#utility.yul\":4291:4540   */\n    tag_526:\n        /* \"#utility.yul\":4366:4370   */\n      0x00\n        /* \"#utility.yul\":4456:4474   */\n      0xffffffffffffffff\n        /* \"#utility.yul\":4448:4454   */\n      dup3\n        /* \"#utility.yul\":4445:4475   */\n      gt\n        /* \"#utility.yul\":4442:4498   */\n      iszero\n      tag_652\n      jumpi\n        /* \"#utility.yul\":4478:4496   */\n      tag_653\n      tag_523\n      jump\t// in\n    tag_653:\n        /* \"#utility.yul\":4442:4498   */\n    tag_652:\n        /* \"#utility.yul\":4528:4532   */\n      0x20\n        /* \"#utility.yul\":4520:4526   */\n      dup3\n        /* \"#utility.yul\":4516:4533   */\n      mul\n        /* \"#utility.yul\":4508:4533   */\n      swap1\n      pop\n        /* \"#utility.yul\":4291:4540   */\n      swap2\n      swap1\n      pop\n      jump\t// out\n        /* \"#utility.yul\":4546:4663   */\n    tag_527:\n        /* \"#utility.yul\":4655:4656   */\n      0x00\n        /* \"#utility.yul\":4652:4653   */\n      dup1\n        /* \"#utility.yul\":4645:4657   */\n      revert\n        /* \"#utility.yul\":4687:5330   */\n    tag_528:\n        /* \"#utility.yul\":4781:4786   */\n      0x00\n        /* \"#utility.yul\":4806:4885   */\n      tag_656\n        /* \"#utility.yul\":4822:4884   */\n      tag_657\n        /* \"#utility.yul\":4877:4883   */\n      dup5\n        /* \"#utility.yul\":4822:4884   */\n      tag_526\n      jump\t// in\n    tag_657:\n        /* \"#utility.yul\":4806:4885   */\n      tag_525\n      jump\t// in\n    tag_656:\n        /* \"#utility.yul\":4797:4885   */\n      swap1\n      pop\n        /* \"#utility.yul\":4905:4910   */\n      dup1\n        /* \"#utility.yul\":4958:4962   */\n      0x20\n        /* \"#utility.yul\":4950:4956   */\n      dup5\n        /* \"#utility.yul\":4946:4963   */\n      mul\n        /* \"#utility.yul\":4938:4944   */\n      dup4\n        /* \"#utility.yul\":4934:4964   */\n      add\n        /* \"#utility.yul\":4987:4990   */\n      dup6\n        /* \"#utility.yul\":4979:4985   */\n      dup2\n        /* \"#utility.yul\":4976:4991   */\n      gt\n        /* \"#utility.yul\":4973:5095   */\n      iszero\n      tag_658\n      jumpi\n        /* \"#utility.yul\":5006:5085   */\n      tag_659\n      tag_527\n      jump\t// in\n    tag_659:\n        /* \"#utility.yul\":4973:5095   */\n    tag_658:\n        /* \"#utility.yul\":5121:5127   */\n      dup4\n        /* \"#utility.yul\":5104:5324   */\n    tag_660:\n        /* \"#utility.yul\":5138:5144   */\n      dup2\n        /* \"#utility.yul\":5133:5136   */\n      dup2\n        /* \"#utility.yul\":5130:5145   */\n      lt\n        /* \"#utility.yul\":5104:5324   */\n      iszero\n      tag_662\n      jumpi\n        /* \"#utility.yul\":5213:5216   */\n      dup1\n        /* \"#utility.yul\":5242:5279   */\n      tag_663\n        /* \"#utility.yul\":5275:5278   */\n      dup9\n        /* \"#utility.yul\":5263:5273   */\n      dup3\n        /* \"#utility.yul\":5242:5279   */\n      tag_513\n      jump\t// in\n    tag_663:\n        /* \"#utility.yul\":5237:5240   */\n      dup5\n        /* \"#utility.yul\":5230:5280   */\n      mstore\n        /* \"#utility.yul\":5309:5313   */\n      0x20\n        /* \"#utility.yul\":5304:5307   */\n      dup5\n        /* \"#utility.yul\":5300:5314   */\n      add\n        /* \"#utility.yul\":5293:5314   */\n      swap4\n      pop\n        /* \"#utility.yul\":5180:5324   */\n      pop\n        /* \"#utility.yul\":5164:5168   */\n      0x20\n        /* \"#utility.yul\":5159:5162   */\n      dup2\n        /* \"#utility.yul\":5155:5169   */\n      add\n        /* \"#utility.yul\":5148:5169   */\n      swap1\n      pop\n        /* \"#utility.yul\":5104:5324   */\n      jump(tag_660)\n    tag_662:\n        /* \"#utility.yul\":5108:5129   */\n      pop\n        /* \"#utility.yul\":4787:5330   */\n      pop\n      pop\n        /* \"#utility.yul\":4687:5330   */\n      swap4\n      swap3\n      pop\n      pop\n      pop\n      jump\t// out\n        /* \"#utility.yul\":5354:5693   */\n    tag_529:\n        /* \"#utility.yul\":5423:5428   */\n      0x00\n        /* \"#utility.yul\":5472:5475   */\n      dup3\n        /* \"#utility.yul\":5465:5469   */\n      0x1f\n        /* \"#utility.yul\":5457:5463   */\n      dup4\n        /* \"#utility.yul\":5453:5470   */\n      add\n        /* \"#utility.yul\":5449:5476   */\n      slt\n        /* \"#utility.yul\":5439:5561   */\n      tag_665\n      jumpi\n        /* \"#utility.yul\":5480:5559   */\n      tag_666\n      tag_521\n      jump\t// in\n    tag_666:\n        /* \"#utility.yul\":5439:5561   */\n    tag_665:\n        /* \"#utility.yul\":5584:5588   */\n      0x04\n        /* \"#utility.yul\":5606:5687   */\n      tag_667\n        /* \"#utility.yul\":5683:5686   */\n      dup5\n        /* \"#utility.yul\":5675:5681   */\n      dup3\n        /* \"#utility.yul\":5667:5673   */\n      dup6\n        /* \"#utility.yul\":5606:5687   */\n      tag_528\n      jump\t// in\n    tag_667:\n        /* \"#utility.yul\":5597:5687   */\n      swap2\n      pop\n        /* \"#utility.yul\":5429:5693   */\n      pop\n        /* \"#utility.yul\":5354:5693   */\n      swap3\n      swap2\n      pop\n      pop\n      jump\t// out\n        /* \"#utility.yul\":5699:6220   */\n    tag_90:\n        /* \"#utility.yul\":5790:5796   */\n      0x00\n        /* \"#utility.yul\":5798:5804   */\n      dup1\n        /* \"#utility.yul\":5847:5850   */\n      0xa0\n        /* \"#utility.yul\":5835:5844   */\n      dup4\n        /* \"#utility.yul\":5826:5833   */\n      dup6\n        /* \"#utility.yul\":5822:5845   */\n      sub\n        /* \"#utility.yul\":5818:5851   */\n      slt\n        /* \"#utility.yul\":5815:5935   */\n      iszero\n      tag_669\n      jumpi\n        /* \"#utility.yul\":5854:5933   */\n      tag_670\n      tag_509\n      jump\t// in\n    tag_670:\n        /* \"#utility.yul\":5815:5935   */\n    tag_669:\n        /* \"#utility.yul\":5974:5975   */\n      0x00\n        /* \"#utility.yul\":5999:6052   */\n      tag_671\n        /* \"#utility.yul\":6044:6051   */\n      dup6\n        /* \"#utility.yul\":6035:6041   */\n      dup3\n        /* \"#utility.yul\":6024:6033   */\n      dup7\n        /* \"#utility.yul\":6020:6042   */\n      add\n        /* \"#utility.yul\":5999:6052   */\n      tag_517\n      jump\t// in\n    tag_671:\n        /* \"#utility.yul\":5989:6052   */\n      swap3\n      pop\n        /* \"#utility.yul\":5945:6062   */\n      pop\n        /* \"#utility.yul\":6101:6103   */\n      0x20\n        /* \"#utility.yul\":6127:6203   */\n      tag_672\n        /* \"#utility.yul\":6195:6202   */\n      dup6\n        /* \"#utility.yul\":6186:6192   */\n      dup3\n        /* \"#utility.yul\":6175:6184   */\n      dup7\n        /* \"#utility.yul\":6171:6193   */\n      add\n        /* \"#utility.yul\":6127:6203   */\n      tag_529\n      jump\t// in\n    tag_672:\n        /* \"#utility.yul\":6117:6203   */\n      swap2\n      pop\n        /* \"#utility.yul\":6072:6213   */\n      pop\n        /* \"#utility.yul\":5699:6220   */\n      swap3\n      pop\n      swap3\n      swap1\n      pop\n      jump\t// out\n        /* \"#utility.yul\":6226:6344   */\n    tag_530:\n        /* \"#utility.yul\":6313:6337   */\n      tag_674\n        /* \"#utility.yul\":6331:6336   */\n      dup2\n        /* \"#utility.yul\":6313:6337   */\n      tag_515\n      jump\t// in\n    tag_674:\n        /* \"#utility.yul\":6308:6311   */\n      dup3\n        /* \"#utility.yul\":6301:6338   */\n      mstore\n        /* \"#utility.yul\":6226:6344   */\n      pop\n      pop\n      jump\t// out\n        /* \"#utility.yul\":6350:6572   */\n    tag_132:\n        /* \"#utility.yul\":6443:6447   */\n      0x00\n        /* \"#utility.yul\":6481:6483   */\n      0x20\n        /* \"#utility.yul\":6470:6479   */\n      dup3\n        /* \"#utility.yul\":6466:6484   */\n      add\n        /* \"#utility.yul\":6458:6484   */\n      swap1\n      pop\n        /* \"#utility.yul\":6494:6565   */\n      tag_676\n        /* \"#utility.yul\":6562:6563   */\n      0x00\n        /* \"#utility.yul\":6551:6560   */\n      dup4\n        /* \"#utility.yul\":6547:6564   */\n      add\n        /* \"#utility.yul\":6538:6544   */\n      dup5\n        /* \"#utility.yul\":6494:6565   */\n      tag_530\n      jump\t// in\n    tag_676:\n        /* \"#utility.yul\":6350:6572   */\n      swap3\n      swap2\n      pop\n      pop\n      jump\t// out\n        /* \"#utility.yul\":6578:6954   */\n    tag_175:\n        /* \"#utility.yul\":6660:6666   */\n      0x00\n        /* \"#utility.yul\":6709:6712   */\n      0x80\n        /* \"#utility.yul\":6697:6706   */\n      dup3\n        /* \"#utility.yul\":6688:6695   */\n      dup5\n        /* \"#utility.yul\":6684:6707   */\n      sub\n        /* \"#utility.yul\":6680:6713   */\n      slt\n        /* \"#utility.yul\":6677:6797   */\n      iszero\n      tag_678\n      jumpi\n        /* \"#utility.yul\":6716:6795   */\n      tag_679\n      tag_509\n      jump\t// in\n    tag_679:\n        /* \"#utility.yul\":6677:6797   */\n    tag_678:\n        /* \"#utility.yul\":6836:6837   */\n      0x00\n        /* \"#utility.yul\":6861:6937   */\n      tag_680\n        /* \"#utility.yul\":6929:6936   */\n      dup5\n        /* \"#utility.yul\":6920:6926   */\n      dup3\n        /* \"#utility.yul\":6909:6918   */\n      dup6\n        /* \"#utility.yul\":6905:6927   */\n      add\n        /* \"#utility.yul\":6861:6937   */\n      tag_529\n      jump\t// in\n    tag_680:\n        /* \"#utility.yul\":6851:6937   */\n      swap2\n      pop\n        /* \"#utility.yul\":6807:6947   */\n      pop\n        /* \"#utility.yul\":6578:6954   */\n      swap3\n      swap2\n      pop\n      pop\n      jump\t// out\n        /* \"#utility.yul\":6960:7129   */\n    tag_531:\n        /* \"#utility.yul\":7044:7055   */\n      0x00\n        /* \"#utility.yul\":7078:7084   */\n      dup3\n        /* \"#utility.yul\":7073:7076   */\n      dup3\n        /* \"#utility.yul\":7066:7085   */\n      mstore\n        /* \"#utility.yul\":7118:7122   */\n      0x20\n        /* \"#utility.yul\":7113:7116   */\n      dup3\n        /* \"#utility.yul\":7109:7123   */\n      add\n        /* \"#utility.yul\":7094:7123   */\n      swap1\n      pop\n        /* \"#utility.yul\":6960:7129   */\n      swap3\n      swap2\n      pop\n      pop\n      jump\t// out\n        /* \"#utility.yul\":7135:7317   */\n    tag_532:\n        /* \"#utility.yul\":7275:7309   */\n      0x4f776e61626c653a2063616c6c6572206973206e6f7420746865206f776e6572\n        /* \"#utility.yul\":7271:7272   */\n      0x00\n        /* \"#utility.yul\":7263:7269   */\n      dup3\n        /* \"#utility.yul\":7259:7273   */\n      add\n        /* \"#utility.yul\":7252:7310   */\n      mstore\n        /* \"#utility.yul\":7135:7317   */\n      pop\n      jump\t// out\n        /* \"#utility.yul\":7323:7689   */\n    tag_533:\n        /* \"#utility.yul\":7465:7468   */\n      0x00\n        /* \"#utility.yul\":7486:7553   */\n      tag_684\n        /* \"#utility.yul\":7550:7552   */\n      0x20\n        /* \"#utility.yul\":7545:7548   */\n      dup4\n        /* \"#utility.yul\":7486:7553   */\n      tag_531\n      jump\t// in\n    tag_684:\n        /* \"#utility.yul\":7479:7553   */\n      swap2\n      pop\n        /* \"#utility.yul\":7562:7655   */\n      tag_685\n        /* \"#utility.yul\":7651:7654   */\n      dup3\n        /* \"#utility.yul\":7562:7655   */\n      tag_532\n      jump\t// in\n    tag_685:\n        /* \"#utility.yul\":7680:7682   */\n      0x20\n        /* \"#utility.yul\":7675:7678   */\n      dup3\n        /* \"#utility.yul\":7671:7683   */\n      add\n        /* \"#utility.yul\":7664:7683   */\n      swap1\n      pop\n        /* \"#utility.yul\":7323:7689   */\n      swap2\n      swap1\n      pop\n      jump\t// out\n        /* \"#utility.yul\":7695:8114   */\n    tag_198:\n        /* \"#utility.yul\":7861:7865   */\n      0x00\n        /* \"#utility.yul\":7899:7901   */\n      0x20\n        /* \"#utility.yul\":7888:7897   */\n      dup3\n        /* \"#utility.yul\":7884:7902   */\n      add\n        /* \"#utility.yul\":7876:7902   */\n      swap1\n      pop\n        /* \"#utility.yul\":7948:7957   */\n      dup2\n        /* \"#utility.yul\":7942:7946   */\n      dup2\n        /* \"#utility.yul\":7938:7958   */\n      sub\n        /* \"#utility.yul\":7934:7935   */\n      0x00\n        /* \"#utility.yul\":7923:7932   */\n      dup4\n        /* \"#utility.yul\":7919:7936   */\n      add\n        /* \"#utility.yul\":7912:7959   */\n      mstore\n        /* \"#utility.yul\":7976:8107   */\n      tag_687\n        /* \"#utility.yul\":8102:8106   */\n      dup2\n        /* \"#utility.yul\":7976:8107   */\n      tag_533\n      jump\t// in\n    tag_687:\n        /* \"#utility.yul\":7968:8107   */\n      swap1\n      pop\n        /* \"#utility.yul\":7695:8114   */\n      swap2\n      swap1\n      pop\n      jump\t// out\n        /* \"#utility.yul\":8120:8300   */\n    tag_534:\n        /* \"#utility.yul\":8168:8245   */\n      0x4e487b7100000000000000000000000000000000000000000000000000000000\n        /* \"#utility.yul\":8165:8166   */\n      0x00\n        /* \"#utility.yul\":8158:8246   */\n      mstore\n        /* \"#utility.yul\":8265:8269   */\n      0x11\n        /* \"#utility.yul\":8262:8263   */\n      0x04\n        /* \"#utility.yul\":8255:8270   */\n      mstore\n        /* \"#utility.yul\":8289:8293   */\n      0x24\n        /* \"#utility.yul\":8286:8287   */\n      0x00\n        /* \"#utility.yul\":8279:8294   */\n      revert\n        /* \"#utility.yul\":8306:8497   */\n    tag_201:\n        /* \"#utility.yul\":8346:8349   */\n      0x00\n        /* \"#utility.yul\":8365:8385   */\n      tag_690\n        /* \"#utility.yul\":8383:8384   */\n      dup3\n        /* \"#utility.yul\":8365:8385   */\n      tag_511\n      jump\t// in\n    tag_690:\n        /* \"#utility.yul\":8360:8385   */\n      swap2\n      pop\n        /* \"#utility.yul\":8399:8419   */\n      tag_691\n        /* \"#utility.yul\":8417:8418   */\n      dup4\n        /* \"#utility.yul\":8399:8419   */\n      tag_511\n      jump\t// in\n    tag_691:\n        /* \"#utility.yul\":8394:8419   */\n      swap3\n      pop\n        /* \"#utility.yul\":8442:8443   */\n      dup3\n        /* \"#utility.yul\":8439:8440   */\n      dup3\n        /* \"#utility.yul\":8435:8444   */\n      add\n        /* \"#utility.yul\":8428:8444   */\n      swap1\n      pop\n        /* \"#utility.yul\":8463:8466   */\n      dup1\n        /* \"#utility.yul\":8460:8461   */\n      dup3\n        /* \"#utility.yul\":8457:8467   */\n      gt\n        /* \"#utility.yul\":8454:8490   */\n      iszero\n      tag_692\n      jumpi\n        /* \"#utility.yul\":8470:8488   */\n      tag_693\n      tag_534\n      jump\t// in\n    tag_693:\n        /* \"#utility.yul\":8454:8490   */\n    tag_692:\n        /* \"#utility.yul\":8306:8497   */\n      swap3\n      swap2\n      pop\n      pop\n      jump\t// out\n        /* \"#utility.yul\":8503:8683   */\n    tag_535:\n        /* \"#utility.yul\":8643:8675   */\n      0x50726573616c653a20546f6b656e206e6f742077686974656c69737465640000\n        /* \"#utility.yul\":8639:8640   */\n      0x00\n        /* \"#utility.yul\":8631:8637   */\n      dup3\n        /* \"#utility.yul\":8627:8641   */\n      add\n        /* \"#utility.yul\":8620:8676   */\n      mstore\n        /* \"#utility.yul\":8503:8683   */\n      pop\n      jump\t// out\n        /* \"#utility.yul\":8689:9055   */\n    tag_536:\n        /* \"#utility.yul\":8831:8834   */\n      0x00\n        /* \"#utility.yul\":8852:8919   */\n      tag_696\n        /* \"#utility.yul\":8916:8918   */\n      0x1e\n        /* \"#utility.yul\":8911:8914   */\n      dup4\n        /* \"#utility.yul\":8852:8919   */\n      tag_531\n      jump\t// in\n    tag_696:\n        /* \"#utility.yul\":8845:8919   */\n      swap2\n      pop\n        /* \"#utility.yul\":8928:9021   */\n      tag_697\n        /* \"#utility.yul\":9017:9020   */\n      dup3\n        /* \"#utility.yul\":8928:9021   */\n      tag_535\n      jump\t// in\n    tag_697:\n        /* \"#utility.yul\":9046:9048   */\n      0x20\n        /* \"#utility.yul\":9041:9044   */\n      dup3\n        /* \"#utility.yul\":9037:9049   */\n      add\n        /* \"#utility.yul\":9030:9049   */\n      swap1\n      pop\n        /* \"#utility.yul\":8689:9055   */\n      swap2\n      swap1\n      pop\n      jump\t// out\n        /* \"#utility.yul\":9061:9480   */\n    tag_207:\n        /* \"#utility.yul\":9227:9231   */\n      0x00\n        /* \"#utility.yul\":9265:9267   */\n      0x20\n        /* \"#utility.yul\":9254:9263   */\n      dup3\n        /* \"#utility.yul\":9250:9268   */\n      add\n        /* \"#utility.yul\":9242:9268   */\n      swap1\n      pop\n        /* \"#utility.yul\":9314:9323   */\n      dup2\n        /* \"#utility.yul\":9308:9312   */\n      dup2\n        /* \"#utility.yul\":9304:9324   */\n      sub\n        /* \"#utility.yul\":9300:9301   */\n      0x00\n        /* \"#utility.yul\":9289:9298   */\n      dup4\n        /* \"#utility.yul\":9285:9302   */\n      add\n        /* \"#utility.yul\":9278:9325   */\n      mstore\n        /* \"#utility.yul\":9342:9473   */\n      tag_699\n        /* \"#utility.yul\":9468:9472   */\n      dup2\n        /* \"#utility.yul\":9342:9473   */\n      tag_536\n      jump\t// in\n    tag_699:\n        /* \"#utility.yul\":9334:9473   */\n      swap1\n      pop\n        /* \"#utility.yul\":9061:9480   */\n      swap2\n      swap1\n      pop\n      jump\t// out\n        /* \"#utility.yul\":9486:9666   */\n    tag_210:\n        /* \"#utility.yul\":9534:9611   */\n      0x4e487b7100000000000000000000000000000000000000000000000000000000\n        /* \"#utility.yul\":9531:9532   */\n      0x00\n        /* \"#utility.yul\":9524:9612   */\n      mstore\n        /* \"#utility.yul\":9631:9635   */\n      0x32\n        /* \"#utility.yul\":9628:9629   */\n      0x04\n        /* \"#utility.yul\":9621:9636   */\n      mstore\n        /* \"#utility.yul\":9655:9659   */\n      0x24\n        /* \"#utility.yul\":9652:9653   */\n      0x00\n        /* \"#utility.yul\":9645:9660   */\n      revert\n        /* \"#utility.yul\":9672:9774   */\n    tag_537:\n        /* \"#utility.yul\":9714:9722   */\n      0x00\n        /* \"#utility.yul\":9761:9766   */\n      dup2\n        /* \"#utility.yul\":9758:9759   */\n      0x01\n        /* \"#utility.yul\":9754:9767   */\n      shr\n        /* \"#utility.yul\":9733:9767   */\n      swap1\n      pop\n        /* \"#utility.yul\":9672:9774   */\n      swap2\n      swap1\n      pop\n      jump\t// out\n        /* \"#utility.yul\":9780:10628   */\n    tag_538:\n        /* \"#utility.yul\":9841:9846   */\n      0x00\n        /* \"#utility.yul\":9848:9852   */\n      dup1\n        /* \"#utility.yul\":9872:9878   */\n      dup3\n        /* \"#utility.yul\":9863:9878   */\n      swap2\n      pop\n        /* \"#utility.yul\":9896:9901   */\n      dup4\n        /* \"#utility.yul\":9887:9901   */\n      swap1\n      pop\n        /* \"#utility.yul\":9910:10622   */\n    tag_703:\n        /* \"#utility.yul\":9931:9932   */\n      0x01\n        /* \"#utility.yul\":9921:9929   */\n      dup6\n        /* \"#utility.yul\":9918:9933   */\n      gt\n        /* \"#utility.yul\":9910:10622   */\n      iszero\n      tag_705\n      jumpi\n        /* \"#utility.yul\":10026:10030   */\n      dup1\n        /* \"#utility.yul\":10021:10024   */\n      dup7\n        /* \"#utility.yul\":10017:10031   */\n      div\n        /* \"#utility.yul\":10011:10015   */\n      dup2\n        /* \"#utility.yul\":10008:10032   */\n      gt\n        /* \"#utility.yul\":10005:10055   */\n      iszero\n      tag_706\n      jumpi\n        /* \"#utility.yul\":10035:10053   */\n      tag_707\n      tag_534\n      jump\t// in\n    tag_707:\n        /* \"#utility.yul\":10005:10055   */\n    tag_706:\n        /* \"#utility.yul\":10085:10086   */\n      0x01\n        /* \"#utility.yul\":10075:10083   */\n      dup6\n        /* \"#utility.yul\":10071:10087   */\n      and\n        /* \"#utility.yul\":10068:10519   */\n      iszero\n      tag_708\n      jumpi\n        /* \"#utility.yul\":10500:10504   */\n      dup1\n        /* \"#utility.yul\":10493:10498   */\n      dup3\n        /* \"#utility.yul\":10489:10505   */\n      mul\n        /* \"#utility.yul\":10480:10505   */\n      swap2\n      pop\n        /* \"#utility.yul\":10068:10519   */\n    tag_708:\n        /* \"#utility.yul\":10550:10554   */\n      dup1\n        /* \"#utility.yul\":10544:10548   */\n      dup2\n        /* \"#utility.yul\":10540:10555   */\n      mul\n        /* \"#utility.yul\":10532:10555   */\n      swap1\n      pop\n        /* \"#utility.yul\":10580:10612   */\n      tag_709\n        /* \"#utility.yul\":10603:10611   */\n      dup6\n        /* \"#utility.yul\":10580:10612   */\n      tag_537\n      jump\t// in\n    tag_709:\n        /* \"#utility.yul\":10568:10612   */\n      swap5\n      pop\n        /* \"#utility.yul\":9910:10622   */\n      jump(tag_703)\n    tag_705:\n        /* \"#utility.yul\":9780:10628   */\n      swap5\n      pop\n      swap5\n      swap3\n      pop\n      pop\n      pop\n      jump\t// out\n        /* \"#utility.yul\":10634:11707   */\n    tag_539:\n        /* \"#utility.yul\":10688:10693   */\n      0x00\n        /* \"#utility.yul\":10879:10887   */\n      dup3\n        /* \"#utility.yul\":10869:10909   */\n      tag_711\n      jumpi\n        /* \"#utility.yul\":10900:10901   */\n      0x01\n        /* \"#utility.yul\":10891:10901   */\n      swap1\n      pop\n        /* \"#utility.yul\":10902:10907   */\n      jump(tag_710)\n        /* \"#utility.yul\":10869:10909   */\n    tag_711:\n        /* \"#utility.yul\":10928:10932   */\n      dup2\n        /* \"#utility.yul\":10918:10954   */\n      tag_712\n      jumpi\n        /* \"#utility.yul\":10945:10946   */\n      0x00\n        /* \"#utility.yul\":10936:10946   */\n      swap1\n      pop\n        /* \"#utility.yul\":10947:10952   */\n      jump(tag_710)\n        /* \"#utility.yul\":10918:10954   */\n    tag_712:\n        /* \"#utility.yul\":11014:11018   */\n      dup2\n        /* \"#utility.yul\":11062:11063   */\n      0x01\n        /* \"#utility.yul\":11057:11084   */\n      dup2\n      eq\n      tag_714\n      jumpi\n        /* \"#utility.yul\":11098:11099   */\n      0x02\n        /* \"#utility.yul\":11093:11284   */\n      dup2\n      eq\n      tag_715\n      jumpi\n        /* \"#utility.yul\":11007:11284   */\n      jump(tag_713)\n        /* \"#utility.yul\":11057:11084   */\n    tag_714:\n        /* \"#utility.yul\":11075:11076   */\n      0x01\n        /* \"#utility.yul\":11066:11076   */\n      swap2\n      pop\n        /* \"#utility.yul\":11077:11082   */\n      pop\n      jump(tag_710)\n        /* \"#utility.yul\":11093:11284   */\n    tag_715:\n        /* \"#utility.yul\":11138:11141   */\n      0xff\n        /* \"#utility.yul\":11128:11136   */\n      dup5\n        /* \"#utility.yul\":11125:11142   */\n      gt\n        /* \"#utility.yul\":11122:11165   */\n      iszero\n      tag_716\n      jumpi\n        /* \"#utility.yul\":11145:11163   */\n      tag_717\n      tag_534\n      jump\t// in\n    tag_717:\n        /* \"#utility.yul\":11122:11165   */\n    tag_716:\n        /* \"#utility.yul\":11194:11202   */\n      dup4\n        /* \"#utility.yul\":11191:11192   */\n      0x02\n        /* \"#utility.yul\":11187:11203   */\n      exp\n        /* \"#utility.yul\":11178:11203   */\n      swap2\n      pop\n        /* \"#utility.yul\":11229:11232   */\n      dup5\n        /* \"#utility.yul\":11222:11227   */\n      dup3\n        /* \"#utility.yul\":11219:11233   */\n      gt\n        /* \"#utility.yul\":11216:11256   */\n      iszero\n      tag_718\n      jumpi\n        /* \"#utility.yul\":11236:11254   */\n      tag_719\n      tag_534\n      jump\t// in\n    tag_719:\n        /* \"#utility.yul\":11216:11256   */\n    tag_718:\n        /* \"#utility.yul\":11269:11274   */\n      pop\n      jump(tag_710)\n        /* \"#utility.yul\":11007:11284   */\n    tag_713:\n      pop\n        /* \"#utility.yul\":11393:11395   */\n      0x20\n        /* \"#utility.yul\":11383:11391   */\n      dup4\n        /* \"#utility.yul\":11380:11396   */\n      lt\n        /* \"#utility.yul\":11374:11377   */\n      0x0133\n        /* \"#utility.yul\":11368:11372   */\n      dup4\n        /* \"#utility.yul\":11365:11378   */\n      lt\n        /* \"#utility.yul\":11361:11397   */\n      and\n        /* \"#utility.yul\":11343:11345   */\n      0x4e\n        /* \"#utility.yul\":11333:11341   */\n      dup5\n        /* \"#utility.yul\":11330:11346   */\n      lt\n        /* \"#utility.yul\":11325:11327   */\n      0x0b\n        /* \"#utility.yul\":11319:11323   */\n      dup5\n        /* \"#utility.yul\":11316:11328   */\n      lt\n        /* \"#utility.yul\":11312:11347   */\n      and\n        /* \"#utility.yul\":11296:11407   */\n      or\n        /* \"#utility.yul\":11293:11539   */\n      iszero\n      tag_720\n      jumpi\n        /* \"#utility.yul\":11449:11457   */\n      dup3\n        /* \"#utility.yul\":11443:11447   */\n      dup3\n        /* \"#utility.yul\":11439:11458   */\n      exp\n        /* \"#utility.yul\":11430:11458   */\n      swap1\n      pop\n        /* \"#utility.yul\":11484:11487   */\n      dup4\n        /* \"#utility.yul\":11477:11482   */\n      dup2\n        /* \"#utility.yul\":11474:11488   */\n      gt\n        /* \"#utility.yul\":11471:11511   */\n      iszero\n      tag_721\n      jumpi\n        /* \"#utility.yul\":11491:11509   */\n      tag_722\n      tag_534\n      jump\t// in\n    tag_722:\n        /* \"#utility.yul\":11471:11511   */\n    tag_721:\n        /* \"#utility.yul\":11524:11529   */\n      jump(tag_710)\n        /* \"#utility.yul\":11293:11539   */\n    tag_720:\n        /* \"#utility.yul\":11564:11606   */\n      tag_723\n        /* \"#utility.yul\":11602:11605   */\n      dup5\n        /* \"#utility.yul\":11592:11600   */\n      dup5\n        /* \"#utility.yul\":11586:11590   */\n      dup5\n        /* \"#utility.yul\":11583:11584   */\n      0x01\n        /* \"#utility.yul\":11564:11606   */\n      tag_538\n      jump\t// in\n    tag_723:\n        /* \"#utility.yul\":11549:11606   */\n      swap3\n      pop\n      swap1\n      pop\n        /* \"#utility.yul\":11638:11642   */\n      dup2\n        /* \"#utility.yul\":11633:11636   */\n      dup5\n        /* \"#utility.yul\":11629:11643   */\n      div\n        /* \"#utility.yul\":11622:11627   */\n      dup2\n        /* \"#utility.yul\":11619:11644   */\n      gt\n        /* \"#utility.yul\":11616:11667   */\n      iszero\n      tag_724\n      jumpi\n        /* \"#utility.yul\":11647:11665   */\n      tag_725\n      tag_534\n      jump\t// in\n    tag_725:\n        /* \"#utility.yul\":11616:11667   */\n    tag_724:\n        /* \"#utility.yul\":11696:11700   */\n      dup2\n        /* \"#utility.yul\":11689:11694   */\n      dup2\n        /* \"#utility.yul\":11685:11701   */\n      mul\n        /* \"#utility.yul\":11676:11701   */\n      swap1\n      pop\n        /* \"#utility.yul\":10634:11707   */\n    tag_710:\n      swap4\n      swap3\n      pop\n      pop\n      pop\n      jump\t// out\n        /* \"#utility.yul\":11713:11998   */\n    tag_218:\n        /* \"#utility.yul\":11773:11778   */\n      0x00\n        /* \"#utility.yul\":11797:11820   */\n      tag_727\n        /* \"#utility.yul\":11815:11819   */\n      dup3\n        /* \"#utility.yul\":11797:11820   */\n      tag_511\n      jump\t// in\n    tag_727:\n        /* \"#utility.yul\":11789:11820   */\n      swap2\n      pop\n        /* \"#utility.yul\":11841:11868   */\n      tag_728\n        /* \"#utility.yul\":11859:11867   */\n      dup4\n        /* \"#utility.yul\":11841:11868   */\n      tag_511\n      jump\t// in\n    tag_728:\n        /* \"#utility.yul\":11829:11868   */\n      swap3\n      pop\n        /* \"#utility.yul\":11887:11991   */\n      tag_729\n        /* \"#utility.yul\":11924:11990   */\n      0xffffffffffffffffffffffffffffffffffffffffffffffffffffffffffffffff\n        /* \"#utility.yul\":11914:11922   */\n      dup5\n        /* \"#utility.yul\":11908:11912   */\n      dup5\n        /* \"#utility.yul\":11887:11991   */\n      tag_539\n      jump\t// in\n    tag_729:\n        /* \"#utility.yul\":11878:11991   */\n      swap1\n      pop\n        /* \"#utility.yul\":11713:11998   */\n      swap3\n      swap2\n      pop\n      pop\n      jump\t// out\n        /* \"#utility.yul\":12004:12414   */\n    tag_220:\n        /* \"#utility.yul\":12044:12051   */\n      0x00\n        /* \"#utility.yul\":12067:12087   */\n      tag_731\n        /* \"#utility.yul\":12085:12086   */\n      dup3\n        /* \"#utility.yul\":12067:12087   */\n      tag_511\n      jump\t// in\n    tag_731:\n        /* \"#utility.yul\":12062:12087   */\n      swap2\n      pop\n        /* \"#utility.yul\":12101:12121   */\n      tag_732\n        /* \"#utility.yul\":12119:12120   */\n      dup4\n        /* \"#utility.yul\":12101:12121   */\n      tag_511\n      jump\t// in\n    tag_732:\n        /* \"#utility.yul\":12096:12121   */\n      swap3\n      pop\n        /* \"#utility.yul\":12156:12157   */\n      dup3\n        /* \"#utility.yul\":12153:12154   */\n      dup3\n        /* \"#utility.yul\":12149:12158   */\n      mul\n        /* \"#utility.yul\":12178:12208   */\n      tag_733\n        /* \"#utility.yul\":12196:12207   */\n      dup2\n        /* \"#utility.yul\":12178:12208   */\n      tag_511\n      jump\t// in\n    tag_733:\n        /* \"#utility.yul\":12167:12208   */\n      swap2\n      pop\n        /* \"#utility.yul\":12357:12358   */\n      dup3\n        /* \"#utility.yul\":12348:12355   */\n      dup3\n        /* \"#utility.yul\":12344:12359   */\n      div\n        /* \"#utility.yul\":12341:12342   */\n      dup5\n        /* \"#utility.yul\":12338:12360   */\n      eq\n        /* \"#utility.yul\":12318:12319   */\n      dup4\n        /* \"#utility.yul\":12311:12320   */\n      iszero\n        /* \"#utility.yul\":12291:12374   */\n      or\n        /* \"#utility.yul\":12268:12407   */\n      tag_734\n      jumpi\n        /* \"#utility.yul\":12387:12405   */\n      tag_735\n      tag_534\n      jump\t// in\n    tag_735:\n        /* \"#utility.yul\":12268:12407   */\n    tag_734:\n        /* \"#utility.yul\":12052:12414   */\n      pop\n        /* \"#utility.yul\":12004:12414   */\n      swap3\n      swap2\n      pop\n      pop\n      jump\t// out\n        /* \"#utility.yul\":12420:12600   */\n    tag_540:\n        /* \"#utility.yul\":12468:12545   */\n      0x4e487b7100000000000000000000000000000000000000000000000000000000\n        /* \"#utility.yul\":12465:12466   */\n      0x00\n        /* \"#utility.yul\":12458:12546   */\n      mstore\n        /* \"#utility.yul\":12565:12569   */\n      0x12\n        /* \"#utility.yul\":12562:12563   */\n      0x04\n        /* \"#utility.yul\":12555:12570   */\n      mstore\n        /* \"#utility.yul\":12589:12593   */\n      0x24\n        /* \"#utility.yul\":12586:12587   */\n      0x00\n        /* \"#utility.yul\":12579:12594   */\n      revert\n        /* \"#utility.yul\":12606:12791   */\n    tag_222:\n        /* \"#utility.yul\":12646:12647   */\n      0x00\n        /* \"#utility.yul\":12663:12683   */\n      tag_738\n        /* \"#utility.yul\":12681:12682   */\n      dup3\n        /* \"#utility.yul\":12663:12683   */\n      tag_511\n      jump\t// in\n    tag_738:\n        /* \"#utility.yul\":12658:12683   */\n      swap2\n      pop\n        /* \"#utility.yul\":12697:12717   */\n      tag_739\n        /* \"#utility.yul\":12715:12716   */\n      dup4\n        /* \"#utility.yul\":12697:12717   */\n      tag_511\n      jump\t// in\n    tag_739:\n        /* \"#utility.yul\":12692:12717   */\n      swap3\n      pop\n        /* \"#utility.yul\":12736:12737   */\n      dup3\n        /* \"#utility.yul\":12726:12761   */\n      tag_740\n      jumpi\n        /* \"#utility.yul\":12741:12759   */\n      tag_741\n      tag_540\n      jump\t// in\n    tag_741:\n        /* \"#utility.yul\":12726:12761   */\n    tag_740:\n        /* \"#utility.yul\":12783:12784   */\n      dup3\n        /* \"#utility.yul\":12780:12781   */\n      dup3\n        /* \"#utility.yul\":12776:12785   */\n      div\n        /* \"#utility.yul\":12771:12785   */\n      swap1\n      pop\n        /* \"#utility.yul\":12606:12791   */\n      swap3\n      swap2\n      pop\n      pop\n      jump\t// out\n        /* \"#utility.yul\":12797:13018   */\n    tag_541:\n        /* \"#utility.yul\":12937:12971   */\n      0x50726573616c653a2050726573616c6520686173206e6f7420656e6465642079\n        /* \"#utility.yul\":12933:12934   */\n      0x00\n        /* \"#utility.yul\":12925:12931   */\n      dup3\n        /* \"#utility.yul\":12921:12935   */\n      add\n        /* \"#utility.yul\":12914:12972   */\n      mstore\n        /* \"#utility.yul\":13006:13010   */\n      0x6574000000000000000000000000000000000000000000000000000000000000\n        /* \"#utility.yul\":13001:13003   */\n      0x20\n        /* \"#utility.yul\":12993:12999   */\n      dup3\n        /* \"#utility.yul\":12989:13004   */\n      add\n        /* \"#utility.yul\":12982:13011   */\n      mstore\n        /* \"#utility.yul\":12797:13018   */\n      pop\n      jump\t// out\n        /* \"#utility.yul\":13024:13390   */\n    tag_542:\n        /* \"#utility.yul\":13166:13169   */\n      0x00\n        /* \"#utility.yul\":13187:13254   */\n      tag_744\n        /* \"#utility.yul\":13251:13253   */\n      0x22\n        /* \"#utility.yul\":13246:13249   */\n      dup4\n        /* \"#utility.yul\":13187:13254   */\n      tag_531\n      jump\t// in\n    tag_744:\n        /* \"#utility.yul\":13180:13254   */\n      swap2\n      pop\n        /* \"#utility.yul\":13263:13356   */\n      tag_745\n        /* \"#utility.yul\":13352:13355   */\n      dup3\n        /* \"#utility.yul\":13263:13356   */\n      tag_541\n      jump\t// in\n    tag_745:\n        /* \"#utility.yul\":13381:13383   */\n      0x40\n        /* \"#utility.yul\":13376:13379   */\n      dup3\n        /* \"#utility.yul\":13372:13384   */\n      add\n        /* \"#utility.yul\":13365:13384   */\n      swap1\n      pop\n        /* \"#utility.yul\":13024:13390   */\n      swap2\n      swap1\n      pop\n      jump\t// out\n        /* \"#utility.yul\":13396:13815   */\n    tag_243:\n        /* \"#utility.yul\":13562:13566   */\n      0x00\n        /* \"#utility.yul\":13600:13602   */\n      0x20\n        /* \"#utility.yul\":13589:13598   */\n      dup3\n        /* \"#utility.yul\":13585:13603   */\n      add\n        /* \"#utility.yul\":13577:13603   */\n      swap1\n      pop\n        /* \"#utility.yul\":13649:13658   */\n      dup2\n        /* \"#utility.yul\":13643:13647   */\n      dup2\n        /* \"#utility.yul\":13639:13659   */\n      sub\n        /* \"#utility.yul\":13635:13636   */\n      0x00\n        /* \"#utility.yul\":13624:13633   */\n      dup4\n        /* \"#utility.yul\":13620:13637   */\n      add\n        /* \"#utility.yul\":13613:13660   */\n      mstore\n        /* \"#utility.yul\":13677:13808   */\n      tag_747\n        /* \"#utility.yul\":13803:13807   */\n      dup2\n        /* \"#utility.yul\":13677:13808   */\n      tag_542\n      jump\t// in\n    tag_747:\n        /* \"#utility.yul\":13669:13808   */\n      swap1\n      pop\n        /* \"#utility.yul\":13396:13815   */\n      swap2\n      swap1\n      pop\n      jump\t// out\n        /* \"#utility.yul\":13821:14046   */\n    tag_543:\n        /* \"#utility.yul\":13961:13995   */\n      0x50726573616c653a20556e6c6f636b696e672068617320616c72656164792073\n        /* \"#utility.yul\":13957:13958   */\n      0x00\n        /* \"#utility.yul\":13949:13955   */\n      dup3\n        /* \"#utility.yul\":13945:13959   */\n      add\n        /* \"#utility.yul\":13938:13996   */\n      mstore\n        /* \"#utility.yul\":14030:14038   */\n      0x7461727465640000000000000000000000000000000000000000000000000000\n        /* \"#utility.yul\":14025:14027   */\n      0x20\n        /* \"#utility.yul\":14017:14023   */\n      dup3\n        /* \"#utility.yul\":14013:14028   */\n      add\n        /* \"#utility.yul\":14006:14039   */\n      mstore\n        /* \"#utility.yul\":13821:14046   */\n      pop\n      jump\t// out\n        /* \"#utility.yul\":14052:14418   */\n    tag_544:\n        /* \"#utility.yul\":14194:14197   */\n      0x00\n        /* \"#utility.yul\":14215:14282   */\n      tag_750\n        /* \"#utility.yul\":14279:14281   */\n      0x26\n        /* \"#utility.yul\":14274:14277   */\n      dup4\n        /* \"#utility.yul\":14215:14282   */\n      tag_531\n      jump\t// in\n    tag_750:\n        /* \"#utility.yul\":14208:14282   */\n      swap2\n      pop\n        /* \"#utility.yul\":14291:14384   */\n      tag_751\n        /* \"#utility.yul\":14380:14383   */\n      dup3\n        /* \"#utility.yul\":14291:14384   */\n      tag_543\n      jump\t// in\n    tag_751:\n        /* \"#utility.yul\":14409:14411   */\n      0x40\n        /* \"#utility.yul\":14404:14407   */\n      dup3\n        /* \"#utility.yul\":14400:14412   */\n      add\n        /* \"#utility.yul\":14393:14412   */\n      swap1\n      pop\n        /* \"#utility.yul\":14052:14418   */\n      swap2\n      swap1\n      pop\n      jump\t// out\n        /* \"#utility.yul\":14424:14843   */\n    tag_247:\n        /* \"#utility.yul\":14590:14594   */\n      0x00\n        /* \"#utility.yul\":14628:14630   */\n      0x20\n        /* \"#utility.yul\":14617:14626   */\n      dup3\n        /* \"#utility.yul\":14613:14631   */\n      add\n        /* \"#utility.yul\":14605:14631   */\n      swap1\n      pop\n        /* \"#utility.yul\":14677:14686   */\n      dup2\n        /* \"#utility.yul\":14671:14675   */\n      dup2\n        /* \"#utility.yul\":14667:14687   */\n      sub\n        /* \"#utility.yul\":14663:14664   */\n      0x00\n        /* \"#utility.yul\":14652:14661   */\n      dup4\n        /* \"#utility.yul\":14648:14665   */\n      add\n        /* \"#utility.yul\":14641:14688   */\n      mstore\n        /* \"#utility.yul\":14705:14836   */\n      tag_753\n        /* \"#utility.yul\":14831:14835   */\n      dup2\n        /* \"#utility.yul\":14705:14836   */\n      tag_544\n      jump\t// in\n    tag_753:\n        /* \"#utility.yul\":14697:14836   */\n      swap1\n      pop\n        /* \"#utility.yul\":14424:14843   */\n      swap2\n      swap1\n      pop\n      jump\t// out\n        /* \"#utility.yul\":14849:14953   */\n    tag_545:\n        /* \"#utility.yul\":14914:14920   */\n      0x00\n        /* \"#utility.yul\":14942:14946   */\n      0x04\n        /* \"#utility.yul\":14932:14946   */\n      swap1\n      pop\n        /* \"#utility.yul\":14849:14953   */\n      swap2\n      swap1\n      pop\n      jump\t// out\n        /* \"#utility.yul\":14959:15102   */\n    tag_546:\n        /* \"#utility.yul\":15056:15067   */\n      0x00\n        /* \"#utility.yul\":15093:15096   */\n      dup2\n        /* \"#utility.yul\":15078:15096   */\n      swap1\n      pop\n        /* \"#utility.yul\":14959:15102   */\n      swap3\n      swap2\n      pop\n      pop\n      jump\t// out\n        /* \"#utility.yul\":15108:15206   */\n    tag_547:\n        /* \"#utility.yul\":15173:15177   */\n      0x00\n        /* \"#utility.yul\":15196:15199   */\n      dup2\n        /* \"#utility.yul\":15188:15199   */\n      swap1\n      pop\n        /* \"#utility.yul\":15108:15206   */\n      swap2\n      swap1\n      pop\n      jump\t// out\n        /* \"#utility.yul\":15212:15320   */\n    tag_548:\n        /* \"#utility.yul\":15289:15313   */\n      tag_758\n        /* \"#utility.yul\":15307:15312   */\n      dup2\n        /* \"#utility.yul\":15289:15313   */\n      tag_511\n      jump\t// in\n    tag_758:\n        /* \"#utility.yul\":15284:15287   */\n      dup3\n        /* \"#utility.yul\":15277:15314   */\n      mstore\n        /* \"#utility.yul\":15212:15320   */\n      pop\n      pop\n      jump\t// out\n        /* \"#utility.yul\":15326:15505   */\n    tag_549:\n        /* \"#utility.yul\":15395:15405   */\n      0x00\n        /* \"#utility.yul\":15416:15462   */\n      tag_760\n        /* \"#utility.yul\":15458:15461   */\n      dup4\n        /* \"#utility.yul\":15450:15456   */\n      dup4\n        /* \"#utility.yul\":15416:15462   */\n      tag_548\n      jump\t// in\n    tag_760:\n        /* \"#utility.yul\":15494:15498   */\n      0x20\n        /* \"#utility.yul\":15489:15492   */\n      dup4\n        /* \"#utility.yul\":15485:15499   */\n      add\n        /* \"#utility.yul\":15471:15499   */\n      swap1\n      pop\n        /* \"#utility.yul\":15326:15505   */\n      swap3\n      swap2\n      pop\n      pop\n      jump\t// out\n        /* \"#utility.yul\":15511:15622   */\n    tag_550:\n        /* \"#utility.yul\":15579:15583   */\n      0x00\n        /* \"#utility.yul\":15611:15615   */\n      0x20\n        /* \"#utility.yul\":15606:15609   */\n      dup3\n        /* \"#utility.yul\":15602:15616   */\n      add\n        /* \"#utility.yul\":15594:15616   */\n      swap1\n      pop\n        /* \"#utility.yul\":15511:15622   */\n      swap2\n      swap1\n      pop\n      jump\t// out\n        /* \"#utility.yul\":15660:16354   */\n    tag_551:\n        /* \"#utility.yul\":15796:15848   */\n      tag_763\n        /* \"#utility.yul\":15842:15847   */\n      dup2\n        /* \"#utility.yul\":15796:15848   */\n      tag_545\n      jump\t// in\n    tag_763:\n        /* \"#utility.yul\":15864:15948   */\n      tag_764\n        /* \"#utility.yul\":15941:15947   */\n      dup2\n        /* \"#utility.yul\":15936:15939   */\n      dup5\n        /* \"#utility.yul\":15864:15948   */\n      tag_546\n      jump\t// in\n    tag_764:\n        /* \"#utility.yul\":15857:15948   */\n      swap3\n      pop\n        /* \"#utility.yul\":15972:16026   */\n      tag_765\n        /* \"#utility.yul\":16020:16025   */\n      dup3\n        /* \"#utility.yul\":15972:16026   */\n      tag_547\n      jump\t// in\n    tag_765:\n        /* \"#utility.yul\":16049:16056   */\n      dup1\n        /* \"#utility.yul\":16080:16081   */\n      0x00\n        /* \"#utility.yul\":16065:16347   */\n    tag_766:\n        /* \"#utility.yul\":16090:16096   */\n      dup4\n        /* \"#utility.yul\":16087:16088   */\n      dup2\n        /* \"#utility.yul\":16084:16097   */\n      lt\n        /* \"#utility.yul\":16065:16347   */\n      iszero\n      tag_768\n      jumpi\n        /* \"#utility.yul\":16166:16172   */\n      dup2\n        /* \"#utility.yul\":16160:16173   */\n      mload\n        /* \"#utility.yul\":16193:16256   */\n      tag_769\n        /* \"#utility.yul\":16252:16255   */\n      dup8\n        /* \"#utility.yul\":16237:16250   */\n      dup3\n        /* \"#utility.yul\":16193:16256   */\n      tag_549\n      jump\t// in\n    tag_769:\n        /* \"#utility.yul\":16186:16256   */\n      swap7\n      pop\n        /* \"#utility.yul\":16279:16337   */\n      tag_770\n        /* \"#utility.yul\":16330:16336   */\n      dup4\n        /* \"#utility.yul\":16279:16337   */\n      tag_550\n      jump\t// in\n    tag_770:\n        /* \"#utility.yul\":16269:16337   */\n      swap3\n      pop\n        /* \"#utility.yul\":16125:16347   */\n      pop\n        /* \"#utility.yul\":16112:16113   */\n      0x01\n        /* \"#utility.yul\":16109:16110   */\n      dup2\n        /* \"#utility.yul\":16105:16114   */\n      add\n        /* \"#utility.yul\":16100:16114   */\n      swap1\n      pop\n        /* \"#utility.yul\":16065:16347   */\n      jump(tag_766)\n    tag_768:\n        /* \"#utility.yul\":16069:16083   */\n      pop\n        /* \"#utility.yul\":15772:16354   */\n      pop\n      pop\n      pop\n        /* \"#utility.yul\":15660:16354   */\n      pop\n      pop\n      jump\t// out\n        /* \"#utility.yul\":16360:16785   */\n    tag_271:\n        /* \"#utility.yul\":16527:16531   */\n      0x00\n        /* \"#utility.yul\":16565:16568   */\n      0xa0\n        /* \"#utility.yul\":16554:16563   */\n      dup3\n        /* \"#utility.yul\":16550:16569   */\n      add\n        /* \"#utility.yul\":16542:16569   */\n      swap1\n      pop\n        /* \"#utility.yul\":16579:16650   */\n      tag_772\n        /* \"#utility.yul\":16647:16648   */\n      0x00\n        /* \"#utility.yul\":16636:16645   */\n      dup4\n        /* \"#utility.yul\":16632:16649   */\n      add\n        /* \"#utility.yul\":16623:16629   */\n      dup6\n        /* \"#utility.yul\":16579:16650   */\n      tag_530\n      jump\t// in\n    tag_772:\n        /* \"#utility.yul\":16660:16778   */\n      tag_773\n        /* \"#utility.yul\":16774:16776   */\n      0x20\n        /* \"#utility.yul\":16763:16772   */\n      dup4\n        /* \"#utility.yul\":16759:16777   */\n      add\n        /* \"#utility.yul\":16750:16756   */\n      dup5\n        /* \"#utility.yul\":16660:16778   */\n      tag_551\n      jump\t// in\n    tag_773:\n        /* \"#utility.yul\":16360:16785   */\n      swap4\n      swap3\n      pop\n      pop\n      pop\n      jump\t// out\n        /* \"#utility.yul\":16791:17014   */\n    tag_552:\n        /* \"#utility.yul\":16931:16965   */\n      0x50726573616c653a2050726573616c6520686173206e6f742073746172746564\n        /* \"#utility.yul\":16927:16928   */\n      0x00\n        /* \"#utility.yul\":16919:16925   */\n      dup3\n        /* \"#utility.yul\":16915:16929   */\n      add\n        /* \"#utility.yul\":16908:16966   */\n      mstore\n        /* \"#utility.yul\":17000:17006   */\n      0x2079657400000000000000000000000000000000000000000000000000000000\n        /* \"#utility.yul\":16995:16997   */\n      0x20\n        /* \"#utility.yul\":16987:16993   */\n      dup3\n        /* \"#utility.yul\":16983:16998   */\n      add\n        /* \"#utility.yul\":16976:17007   */\n      mstore\n        /* \"#utility.yul\":16791:17014   */\n      pop\n      jump\t// out\n        /* \"#utility.yul\":17020:17386   */\n    tag_553:\n        /* \"#utility.yul\":17162:17165   */\n      0x00\n        /* \"#utility.yul\":17183:17250   */\n      tag_776\n        /* \"#utility.yul\":17247:17249   */\n      0x24\n        /* \"#utility.yul\":17242:17245   */\n      dup4\n        /* \"#utility.yul\":17183:17250   */\n      tag_531\n      jump\t// in\n    tag_776:\n        /* \"#utility.yul\":17176:17250   */\n      swap2\n      pop\n        /* \"#utility.yul\":17259:17352   */\n      tag_777\n        /* \"#utility.yul\":17348:17351   */\n      dup3\n        /* \"#utility.yul\":17259:17352   */\n      tag_552\n      jump\t// in\n    tag_777:\n        /* \"#utility.yul\":17377:17379   */\n      0x40\n        /* \"#utility.yul\":17372:17375   */\n      dup3\n        /* \"#utility.yul\":17368:17380   */\n      add\n        /* \"#utility.yul\":17361:17380   */\n      swap1\n      pop\n        /* \"#utility.yul\":17020:17386   */\n      swap2\n      swap1\n      pop\n      jump\t// out\n        /* \"#utility.yul\":17392:17811   */\n    tag_277:\n        /* \"#utility.yul\":17558:17562   */\n      0x00\n        /* \"#utility.yul\":17596:17598   */\n      0x20\n        /* \"#utility.yul\":17585:17594   */\n      dup3\n        /* \"#utility.yul\":17581:17599   */\n      add\n        /* \"#utility.yul\":17573:17599   */\n      swap1\n      pop\n        /* \"#utility.yul\":17645:17654   */\n      dup2\n        /* \"#utility.yul\":17639:17643   */\n      dup2\n        /* \"#utility.yul\":17635:17655   */\n      sub\n        /* \"#utility.yul\":17631:17632   */\n      0x00\n        /* \"#utility.yul\":17620:17629   */\n      dup4\n        /* \"#utility.yul\":17616:17633   */\n      add\n        /* \"#utility.yul\":17609:17656   */\n      mstore\n        /* \"#utility.yul\":17673:17804   */\n      tag_779\n        /* \"#utility.yul\":17799:17803   */\n      dup2\n        /* \"#utility.yul\":17673:17804   */\n      tag_553\n      jump\t// in\n    tag_779:\n        /* \"#utility.yul\":17665:17804   */\n      swap1\n      pop\n        /* \"#utility.yul\":17392:17811   */\n      swap2\n      swap1\n      pop\n      jump\t// out\n        /* \"#utility.yul\":17817:17993   */\n    tag_554:\n        /* \"#utility.yul\":17957:17985   */\n      0x50726573616c653a2050726573616c652068617320656e646564000000000000\n        /* \"#utility.yul\":17953:17954   */\n      0x00\n        /* \"#utility.yul\":17945:17951   */\n      dup3\n        /* \"#utility.yul\":17941:17955   */\n      add\n        /* \"#utility.yul\":17934:17986   */\n      mstore\n        /* \"#utility.yul\":17817:17993   */\n      pop\n      jump\t// out\n        /* \"#utility.yul\":17999:18365   */\n    tag_555:\n        /* \"#utility.yul\":18141:18144   */\n      0x00\n        /* \"#utility.yul\":18162:18229   */\n      tag_782\n        /* \"#utility.yul\":18226:18228   */\n      0x1a\n        /* \"#utility.yul\":18221:18224   */\n      dup4\n        /* \"#utility.yul\":18162:18229   */\n      tag_531\n      jump\t// in\n    tag_782:\n        /* \"#utility.yul\":18155:18229   */\n      swap2\n      pop\n        /* \"#utility.yul\":18238:18331   */\n      tag_783\n        /* \"#utility.yul\":18327:18330   */\n      dup3\n        /* \"#utility.yul\":18238:18331   */\n      tag_554\n      jump\t// in\n    tag_783:\n        /* \"#utility.yul\":18356:18358   */\n      0x20\n        /* \"#utility.yul\":18351:18354   */\n      dup3\n        /* \"#utility.yul\":18347:18359   */\n      add\n        /* \"#utility.yul\":18340:18359   */\n      swap1\n      pop\n        /* \"#utility.yul\":17999:18365   */\n      swap2\n      swap1\n      pop\n      jump\t// out\n        /* \"#utility.yul\":18371:18790   */\n    tag_281:\n        /* \"#utility.yul\":18537:18541   */\n      0x00\n        /* \"#utility.yul\":18575:18577   */\n      0x20\n        /* \"#utility.yul\":18564:18573   */\n      dup3\n        /* \"#utility.yul\":18560:18578   */\n      add\n        /* \"#utility.yul\":18552:18578   */\n      swap1\n      pop\n        /* \"#utility.yul\":18624:18633   */\n      dup2\n        /* \"#utility.yul\":18618:18622   */\n      dup2\n        /* \"#utility.yul\":18614:18634   */\n      sub\n        /* \"#utility.yul\":18610:18611   */\n      0x00\n        /* \"#utility.yul\":18599:18608   */\n      dup4\n        /* \"#utility.yul\":18595:18612   */\n      add\n        /* \"#utility.yul\":18588:18635   */\n      mstore\n        /* \"#utility.yul\":18652:18783   */\n      tag_785\n        /* \"#utility.yul\":18778:18782   */\n      dup2\n        /* \"#utility.yul\":18652:18783   */\n      tag_555\n      jump\t// in\n    tag_785:\n        /* \"#utility.yul\":18644:18783   */\n      swap1\n      pop\n        /* \"#utility.yul\":18371:18790   */\n      swap2\n      swap1\n      pop\n      jump\t// out\n        /* \"#utility.yul\":18796:19017   */\n    tag_556:\n        /* \"#utility.yul\":18936:18970   */\n      0x50726573616c653a204d696e20627579206c696d6974206e6f74207265616368\n        /* \"#utility.yul\":18932:18933   */\n      0x00\n        /* \"#utility.yul\":18924:18930   */\n      dup3\n        /* \"#utility.yul\":18920:18934   */\n      add\n        /* \"#utility.yul\":18913:18971   */\n      mstore\n        /* \"#utility.yul\":19005:19009   */\n      0x6564000000000000000000000000000000000000000000000000000000000000\n        /* \"#utility.yul\":19000:19002   */\n      0x20\n        /* \"#utility.yul\":18992:18998   */\n      dup3\n        /* \"#utility.yul\":18988:19003   */\n      add\n        /* \"#utility.yul\":18981:19010   */\n      mstore\n        /* \"#utility.yul\":18796:19017   */\n      pop\n      jump\t// out\n        /* \"#utility.yul\":19023:19389   */\n    tag_557:\n        /* \"#utility.yul\":19165:19168   */\n      0x00\n        /* \"#utility.yul\":19186:19253   */\n      tag_788\n        /* \"#utility.yul\":19250:19252   */\n      0x22\n        /* \"#utility.yul\":19245:19248   */\n      dup4\n        /* \"#utility.yul\":19186:19253   */\n      tag_531\n      jump\t// in\n    tag_788:\n        /* \"#utility.yul\":19179:19253   */\n      swap2\n      pop\n        /* \"#utility.yul\":19262:19355   */\n      tag_789\n        /* \"#utility.yul\":19351:19354   */\n      dup3\n        /* \"#utility.yul\":19262:19355   */\n      tag_556\n      jump\t// in\n    tag_789:\n        /* \"#utility.yul\":19380:19382   */\n      0x40\n        /* \"#utility.yul\":19375:19378   */\n      dup3\n        /* \"#utility.yul\":19371:19383   */\n      add\n        /* \"#utility.yul\":19364:19383   */\n      swap1\n      pop\n        /* \"#utility.yul\":19023:19389   */\n      swap2\n      swap1\n      pop\n      jump\t// out\n        /* \"#utility.yul\":19395:19814   */\n    tag_289:\n        /* \"#utility.yul\":19561:19565   */\n      0x00\n        /* \"#utility.yul\":19599:19601   */\n      0x20\n        /* \"#utility.yul\":19588:19597   */\n      dup3\n        /* \"#utility.yul\":19584:19602   */\n      add\n        /* \"#utility.yul\":19576:19602   */\n      swap1\n      pop\n        /* \"#utility.yul\":19648:19657   */\n      dup2\n        /* \"#utility.yul\":19642:19646   */\n      dup2\n        /* \"#utility.yul\":19638:19658   */\n      sub\n        /* \"#utility.yul\":19634:19635   */\n      0x00\n        /* \"#utility.yul\":19623:19632   */\n      dup4\n        /* \"#utility.yul\":19619:19636   */\n      add\n        /* \"#utility.yul\":19612:19659   */\n      mstore\n        /* \"#utility.yul\":19676:19807   */\n      tag_791\n        /* \"#utility.yul\":19802:19806   */\n      dup2\n        /* \"#utility.yul\":19676:19807   */\n      tag_557\n      jump\t// in\n    tag_791:\n        /* \"#utility.yul\":19668:19807   */\n      swap1\n      pop\n        /* \"#utility.yul\":19395:19814   */\n      swap2\n      swap1\n      pop\n      jump\t// out\n        /* \"#utility.yul\":19820:20052   */\n    tag_558:\n        /* \"#utility.yul\":19960:19994   */\n      0x50726573616c653a204d617820627579206c696d697420726561636865642066\n        /* \"#utility.yul\":19956:19957   */\n      0x00\n        /* \"#utility.yul\":19948:19954   */\n      dup3\n        /* \"#utility.yul\":19944:19958   */\n      add\n        /* \"#utility.yul\":19937:19995   */\n      mstore\n        /* \"#utility.yul\":20029:20044   */\n      0x6f72207468697320706861736500000000000000000000000000000000000000\n        /* \"#utility.yul\":20024:20026   */\n      0x20\n        /* \"#utility.yul\":20016:20022   */\n      dup3\n        /* \"#utility.yul\":20012:20027   */\n      add\n        /* \"#utility.yul\":20005:20045   */\n      mstore\n        /* \"#utility.yul\":19820:20052   */\n      pop\n      jump\t// out\n        /* \"#utility.yul\":20058:20424   */\n    tag_559:\n        /* \"#utility.yul\":20200:20203   */\n      0x00\n        /* \"#utility.yul\":20221:20288   */\n      tag_794\n        /* \"#utility.yul\":20285:20287   */\n      0x2d\n        /* \"#utility.yul\":20280:20283   */\n      dup4\n        /* \"#utility.yul\":20221:20288   */\n      tag_531\n      jump\t// in\n    tag_794:\n        /* \"#utility.yul\":20214:20288   */\n      swap2\n      pop\n        /* \"#utility.yul\":20297:20390   */\n      tag_795\n        /* \"#utility.yul\":20386:20389   */\n      dup3\n        /* \"#utility.yul\":20297:20390   */\n      tag_558\n      jump\t// in\n    tag_795:\n        /* \"#utility.yul\":20415:20417   */\n      0x40\n        /* \"#utility.yul\":20410:20413   */\n      dup3\n        /* \"#utility.yul\":20406:20418   */\n      add\n        /* \"#utility.yul\":20399:20418   */\n      swap1\n      pop\n        /* \"#utility.yul\":20058:20424   */\n      swap2\n      swap1\n      pop\n      jump\t// out\n        /* \"#utility.yul\":20430:20849   */\n    tag_293:\n        /* \"#utility.yul\":20596:20600   */\n      0x00\n        /* \"#utility.yul\":20634:20636   */\n      0x20\n        /* \"#utility.yul\":20623:20632   */\n      dup3\n        /* \"#utility.yul\":20619:20637   */\n      add\n        /* \"#utility.yul\":20611:20637   */\n      swap1\n      pop\n        /* \"#utility.yul\":20683:20692   */\n      dup2\n        /* \"#utility.yul\":20677:20681   */\n      dup2\n        /* \"#utility.yul\":20673:20693   */\n      sub\n        /* \"#utility.yul\":20669:20670   */\n      0x00\n        /* \"#utility.yul\":20658:20667   */\n      dup4\n        /* \"#utility.yul\":20654:20671   */\n      add\n        /* \"#utility.yul\":20647:20694   */\n      mstore\n        /* \"#utility.yul\":20711:20842   */\n      tag_797\n        /* \"#utility.yul\":20837:20841   */\n      dup2\n        /* \"#utility.yul\":20711:20842   */\n      tag_559\n      jump\t// in\n    tag_797:\n        /* \"#utility.yul\":20703:20842   */\n      swap1\n      pop\n        /* \"#utility.yul\":20430:20849   */\n      swap2\n      swap1\n      pop\n      jump\t// out\n        /* \"#utility.yul\":20855:21076   */\n    tag_560:\n        /* \"#utility.yul\":20995:21029   */\n      0x50726573616c653a20546f74616c20546f6b656e2053616c6520526561636865\n        /* \"#utility.yul\":20991:20992   */\n      0x00\n        /* \"#utility.yul\":20983:20989   */\n      dup3\n        /* \"#utility.yul\":20979:20993   */\n      add\n        /* \"#utility.yul\":20972:21030   */\n      mstore\n        /* \"#utility.yul\":21064:21068   */\n      0x6421000000000000000000000000000000000000000000000000000000000000\n        /* \"#utility.yul\":21059:21061   */\n      0x20\n        /* \"#utility.yul\":21051:21057   */\n      dup3\n        /* \"#utility.yul\":21047:21062   */\n      add\n        /* \"#utility.yul\":21040:21069   */\n      mstore\n        /* \"#utility.yul\":20855:21076   */\n      pop\n      jump\t// out\n        /* \"#utility.yul\":21082:21448   */\n    tag_561:\n        /* \"#utility.yul\":21224:21227   */\n      0x00\n        /* \"#utility.yul\":21245:21312   */\n      tag_800\n        /* \"#utility.yul\":21309:21311   */\n      0x22\n        /* \"#utility.yul\":21304:21307   */\n      dup4\n        /* \"#utility.yul\":21245:21312   */\n      tag_531\n      jump\t// in\n    tag_800:\n        /* \"#utility.yul\":21238:21312   */\n      swap2\n      pop\n        /* \"#utility.yul\":21321:21414   */\n      tag_801\n        /* \"#utility.yul\":21410:21413   */\n      dup3\n        /* \"#utility.yul\":21321:21414   */\n      tag_560\n      jump\t// in\n    tag_801:\n        /* \"#utility.yul\":21439:21441   */\n      0x40\n        /* \"#utility.yul\":21434:21437   */\n      dup3\n        /* \"#utility.yul\":21430:21442   */\n      add\n        /* \"#utility.yul\":21423:21442   */\n      swap1\n      pop\n        /* \"#utility.yul\":21082:21448   */\n      swap2\n      swap1\n      pop\n      jump\t// out\n        /* \"#utility.yul\":21454:21873   */\n    tag_297:\n        /* \"#utility.yul\":21620:21624   */\n      0x00\n        /* \"#utility.yul\":21658:21660   */\n      0x20\n        /* \"#utility.yul\":21647:21656   */\n      dup3\n        /* \"#utility.yul\":21643:21661   */\n      add\n        /* \"#utility.yul\":21635:21661   */\n      swap1\n      pop\n        /* \"#utility.yul\":21707:21716   */\n      dup2\n        /* \"#utility.yul\":21701:21705   */\n      dup2\n        /* \"#utility.yul\":21697:21717   */\n      sub\n        /* \"#utility.yul\":21693:21694   */\n      0x00\n        /* \"#utility.yul\":21682:21691   */\n      dup4\n        /* \"#utility.yul\":21678:21695   */\n      add\n        /* \"#utility.yul\":21671:21718   */\n      mstore\n        /* \"#utility.yul\":21735:21866   */\n      tag_803\n        /* \"#utility.yul\":21861:21865   */\n      dup2\n        /* \"#utility.yul\":21735:21866   */\n      tag_561\n      jump\t// in\n    tag_803:\n        /* \"#utility.yul\":21727:21866   */\n      swap1\n      pop\n        /* \"#utility.yul\":21454:21873   */\n      swap2\n      swap1\n      pop\n      jump\t// out\n        /* \"#utility.yul\":21879:22102   */\n    tag_562:\n        /* \"#utility.yul\":22019:22053   */\n      0x50726573616c653a2043616e6e6f74206275792077697468207a65726f20616d\n        /* \"#utility.yul\":22015:22016   */\n      0x00\n        /* \"#utility.yul\":22007:22013   */\n      dup3\n        /* \"#utility.yul\":22003:22017   */\n      add\n        /* \"#utility.yul\":21996:22054   */\n      mstore\n        /* \"#utility.yul\":22088:22094   */\n      0x6f756e7400000000000000000000000000000000000000000000000000000000\n        /* \"#utility.yul\":22083:22085   */\n      0x20\n        /* \"#utility.yul\":22075:22081   */\n      dup3\n        /* \"#utility.yul\":22071:22086   */\n      add\n        /* \"#utility.yul\":22064:22095   */\n      mstore\n        /* \"#utility.yul\":21879:22102   */\n      pop\n      jump\t// out\n        /* \"#utility.yul\":22108:22474   */\n    tag_563:\n        /* \"#utility.yul\":22250:22253   */\n      0x00\n        /* \"#utility.yul\":22271:22338   */\n      tag_806\n        /* \"#utility.yul\":22335:22337   */\n      0x24\n        /* \"#utility.yul\":22330:22333   */\n      dup4\n        /* \"#utility.yul\":22271:22338   */\n      tag_531\n      jump\t// in\n    tag_806:\n        /* \"#utility.yul\":22264:22338   */\n      swap2\n      pop\n        /* \"#utility.yul\":22347:22440   */\n      tag_807\n        /* \"#utility.yul\":22436:22439   */\n      dup3\n        /* \"#utility.yul\":22347:22440   */\n      tag_562\n      jump\t// in\n    tag_807:\n        /* \"#utility.yul\":22465:22467   */\n      0x40\n        /* \"#utility.yul\":22460:22463   */\n      dup3\n        /* \"#utility.yul\":22456:22468   */\n      add\n        /* \"#utility.yul\":22449:22468   */\n      swap1\n      pop\n        /* \"#utility.yul\":22108:22474   */\n      swap2\n      swap1\n      pop\n      jump\t// out\n        /* \"#utility.yul\":22480:22899   */\n    tag_301:\n        /* \"#utility.yul\":22646:22650   */\n      0x00\n        /* \"#utility.yul\":22684:22686   */\n      0x20\n        /* \"#utility.yul\":22673:22682   */\n      dup3\n        /* \"#utility.yul\":22669:22687   */\n      add\n        /* \"#utility.yul\":22661:22687   */\n      swap1\n      pop\n        /* \"#utility.yul\":22733:22742   */\n      dup2\n        /* \"#utility.yul\":22727:22731   */\n      dup2\n        /* \"#utility.yul\":22723:22743   */\n      sub\n        /* \"#utility.yul\":22719:22720   */\n      0x00\n        /* \"#utility.yul\":22708:22717   */\n      dup4\n        /* \"#utility.yul\":22704:22721   */\n      add\n        /* \"#utility.yul\":22697:22744   */\n      mstore\n        /* \"#utility.yul\":22761:22892   */\n      tag_809\n        /* \"#utility.yul\":22887:22891   */\n      dup2\n        /* \"#utility.yul\":22761:22892   */\n      tag_563\n      jump\t// in\n    tag_809:\n        /* \"#utility.yul\":22753:22892   */\n      swap1\n      pop\n        /* \"#utility.yul\":22480:22899   */\n      swap2\n      swap1\n      pop\n      jump\t// out\n        /* \"#utility.yul\":22905:23237   */\n    tag_309:\n        /* \"#utility.yul\":23026:23030   */\n      0x00\n        /* \"#utility.yul\":23064:23066   */\n      0x40\n        /* \"#utility.yul\":23053:23062   */\n      dup3\n        /* \"#utility.yul\":23049:23067   */\n      add\n        /* \"#utility.yul\":23041:23067   */\n      swap1\n      pop\n        /* \"#utility.yul\":23077:23148   */\n      tag_811\n        /* \"#utility.yul\":23145:23146   */\n      0x00\n        /* \"#utility.yul\":23134:23143   */\n      dup4\n        /* \"#utility.yul\":23130:23147   */\n      add\n        /* \"#utility.yul\":23121:23127   */\n      dup6\n        /* \"#utility.yul\":23077:23148   */\n      tag_518\n      jump\t// in\n    tag_811:\n        /* \"#utility.yul\":23158:23230   */\n      tag_812\n        /* \"#utility.yul\":23226:23228   */\n      0x20\n        /* \"#utility.yul\":23215:23224   */\n      dup4\n        /* \"#utility.yul\":23211:23229   */\n      add\n        /* \"#utility.yul\":23202:23208   */\n      dup5\n        /* \"#utility.yul\":23158:23230   */\n      tag_518\n      jump\t// in\n    tag_812:\n        /* \"#utility.yul\":22905:23237   */\n      swap4\n      swap3\n      pop\n      pop\n      pop\n      jump\t// out\n        /* \"#utility.yul\":23243:23472   */\n    tag_564:\n        /* \"#utility.yul\":23383:23417   */\n      0x50726573616c653a2053616c6520746f6b656e2063616e6e6f74206265207a65\n        /* \"#utility.yul\":23379:23380   */\n      0x00\n        /* \"#utility.yul\":23371:23377   */\n      dup3\n        /* \"#utility.yul\":23367:23381   */\n      add\n        /* \"#utility.yul\":23360:23418   */\n      mstore\n        /* \"#utility.yul\":23452:23464   */\n      0x726f206164647265737300000000000000000000000000000000000000000000\n        /* \"#utility.yul\":23447:23449   */\n      0x20\n        /* \"#utility.yul\":23439:23445   */\n      dup3\n        /* \"#utility.yul\":23435:23450   */\n      add\n        /* \"#utility.yul\":23428:23465   */\n      mstore\n        /* \"#utility.yul\":23243:23472   */\n      pop\n      jump\t// out\n        /* \"#utility.yul\":23478:23844   */\n    tag_565:\n        /* \"#utility.yul\":23620:23623   */\n      0x00\n        /* \"#utility.yul\":23641:23708   */\n      tag_815\n        /* \"#utility.yul\":23705:23707   */\n      0x2a\n        /* \"#utility.yul\":23700:23703   */\n      dup4\n        /* \"#utility.yul\":23641:23708   */\n      tag_531\n      jump\t// in\n    tag_815:\n        /* \"#utility.yul\":23634:23708   */\n      swap2\n      pop\n        /* \"#utility.yul\":23717:23810   */\n      tag_816\n        /* \"#utility.yul\":23806:23809   */\n      dup3\n        /* \"#utility.yul\":23717:23810   */\n      tag_564\n      jump\t// in\n    tag_816:\n        /* \"#utility.yul\":23835:23837   */\n      0x40\n        /* \"#utility.yul\":23830:23833   */\n      dup3\n        /* \"#utility.yul\":23826:23838   */\n      add\n        /* \"#utility.yul\":23819:23838   */\n      swap1\n      pop\n        /* \"#utility.yul\":23478:23844   */\n      swap2\n      swap1\n      pop\n      jump\t// out\n        /* \"#utility.yul\":23850:24269   */\n    tag_333:\n        /* \"#utility.yul\":24016:24020   */\n      0x00\n        /* \"#utility.yul\":24054:24056   */\n      0x20\n        /* \"#utility.yul\":24043:24052   */\n      dup3\n        /* \"#utility.yul\":24039:24057   */\n      add\n        /* \"#utility.yul\":24031:24057   */\n      swap1\n      pop\n        /* \"#utility.yul\":24103:24112   */\n      dup2\n        /* \"#utility.yul\":24097:24101   */\n      dup2\n        /* \"#utility.yul\":24093:24113   */\n      sub\n        /* \"#utility.yul\":24089:24090   */\n      0x00\n        /* \"#utility.yul\":24078:24087   */\n      dup4\n        /* \"#utility.yul\":24074:24091   */\n      add\n        /* \"#utility.yul\":24067:24114   */\n      mstore\n        /* \"#utility.yul\":24131:24262   */\n      tag_818\n        /* \"#utility.yul\":24257:24261   */\n      dup2\n        /* \"#utility.yul\":24131:24262   */\n      tag_565\n      jump\t// in\n    tag_818:\n        /* \"#utility.yul\":24123:24262   */\n      swap1\n      pop\n        /* \"#utility.yul\":23850:24269   */\n      swap2\n      swap1\n      pop\n      jump\t// out\n        /* \"#utility.yul\":24275:24507   */\n    tag_566:\n        /* \"#utility.yul\":24415:24449   */\n      0x50726573616c653a20546f74616c20746f6b656e7320666f722073616c652063\n        /* \"#utility.yul\":24411:24412   */\n      0x00\n        /* \"#utility.yul\":24403:24409   */\n      dup3\n        /* \"#utility.yul\":24399:24413   */\n      add\n        /* \"#utility.yul\":24392:24450   */\n      mstore\n        /* \"#utility.yul\":24484:24499   */\n      0x616e6e6f74206265207a65726f00000000000000000000000000000000000000\n        /* \"#utility.yul\":24479:24481   */\n      0x20\n        /* \"#utility.yul\":24471:24477   */\n      dup3\n        /* \"#utility.yul\":24467:24482   */\n      add\n        /* \"#utility.yul\":24460:24500   */\n      mstore\n        /* \"#utility.yul\":24275:24507   */\n      pop\n      jump\t// out\n        /* \"#utility.yul\":24513:24879   */\n    tag_567:\n        /* \"#utility.yul\":24655:24658   */\n      0x00\n        /* \"#utility.yul\":24676:24743   */\n      tag_821\n        /* \"#utility.yul\":24740:24742   */\n      0x2d\n        /* \"#utility.yul\":24735:24738   */\n      dup4\n        /* \"#utility.yul\":24676:24743   */\n      tag_531\n      jump\t// in\n    tag_821:\n        /* \"#utility.yul\":24669:24743   */\n      swap2\n      pop\n        /* \"#utility.yul\":24752:24845   */\n      tag_822\n        /* \"#utility.yul\":24841:24844   */\n      dup3\n        /* \"#utility.yul\":24752:24845   */\n      tag_566\n      jump\t// in\n    tag_822:\n        /* \"#utility.yul\":24870:24872   */\n      0x40\n        /* \"#utility.yul\":24865:24868   */\n      dup3\n        /* \"#utility.yul\":24861:24873   */\n      add\n        /* \"#utility.yul\":24854:24873   */\n      swap1\n      pop\n        /* \"#utility.yul\":24513:24879   */\n      swap2\n      swap1\n      pop\n      jump\t// out\n        /* \"#utility.yul\":24885:25304   */\n    tag_336:\n        /* \"#utility.yul\":25051:25055   */\n      0x00\n        /* \"#utility.yul\":25089:25091   */\n      0x20\n        /* \"#utility.yul\":25078:25087   */\n      dup3\n        /* \"#utility.yul\":25074:25092   */\n      add\n        /* \"#utility.yul\":25066:25092   */\n      swap1\n      pop\n        /* \"#utility.yul\":25138:25147   */\n      dup2\n        /* \"#utility.yul\":25132:25136   */\n      dup2\n        /* \"#utility.yul\":25128:25148   */\n      sub\n        /* \"#utility.yul\":25124:25125   */\n      0x00\n        /* \"#utility.yul\":25113:25122   */\n      dup4\n        /* \"#utility.yul\":25109:25126   */\n      add\n        /* \"#utility.yul\":25102:25149   */\n      mstore\n        /* \"#utility.yul\":25166:25297   */\n      tag_824\n        /* \"#utility.yul\":25292:25296   */\n      dup2\n        /* \"#utility.yul\":25166:25297   */\n      tag_567\n      jump\t// in\n    tag_824:\n        /* \"#utility.yul\":25158:25297   */\n      swap1\n      pop\n        /* \"#utility.yul\":24885:25304   */\n      swap2\n      swap1\n      pop\n      jump\t// out\n        /* \"#utility.yul\":25310:25396   */\n    tag_568:\n        /* \"#utility.yul\":25345:25352   */\n      0x00\n        /* \"#utility.yul\":25385:25389   */\n      0xff\n        /* \"#utility.yul\":25378:25383   */\n      dup3\n        /* \"#utility.yul\":25374:25390   */\n      and\n        /* \"#utility.yul\":25363:25390   */\n      swap1\n      pop\n        /* \"#utility.yul\":25310:25396   */\n      swap2\n      swap1\n      pop\n      jump\t// out\n        /* \"#utility.yul\":25402:25520   */\n    tag_569:\n        /* \"#utility.yul\":25473:25495   */\n      tag_827\n        /* \"#utility.yul\":25489:25494   */\n      dup2\n        /* \"#utility.yul\":25473:25495   */\n      tag_568\n      jump\t// in\n    tag_827:\n        /* \"#utility.yul\":25466:25471   */\n      dup2\n        /* \"#utility.yul\":25463:25496   */\n      eq\n        /* \"#utility.yul\":25453:25514   */\n      tag_828\n      jumpi\n        /* \"#utility.yul\":25510:25511   */\n      0x00\n        /* \"#utility.yul\":25507:25508   */\n      dup1\n        /* \"#utility.yul\":25500:25512   */\n      revert\n        /* \"#utility.yul\":25453:25514   */\n    tag_828:\n        /* \"#utility.yul\":25402:25520   */\n      pop\n      jump\t// out\n        /* \"#utility.yul\":25526:25665   */\n    tag_570:\n        /* \"#utility.yul\":25581:25586   */\n      0x00\n        /* \"#utility.yul\":25612:25618   */\n      dup2\n        /* \"#utility.yul\":25606:25619   */\n      mload\n        /* \"#utility.yul\":25597:25619   */\n      swap1\n      pop\n        /* \"#utility.yul\":25628:25659   */\n      tag_830\n        /* \"#utility.yul\":25653:25658   */\n      dup2\n        /* \"#utility.yul\":25628:25659   */\n      tag_569\n      jump\t// in\n    tag_830:\n        /* \"#utility.yul\":25526:25665   */\n      swap3\n      swap2\n      pop\n      pop\n      jump\t// out\n        /* \"#utility.yul\":25671:26018   */\n    tag_340:\n        /* \"#utility.yul\":25739:25745   */\n      0x00\n        /* \"#utility.yul\":25788:25790   */\n      0x20\n        /* \"#utility.yul\":25776:25785   */\n      dup3\n        /* \"#utility.yul\":25767:25774   */\n      dup5\n        /* \"#utility.yul\":25763:25786   */\n      sub\n        /* \"#utility.yul\":25759:25791   */\n      slt\n        /* \"#utility.yul\":25756:25875   */\n      iszero\n      tag_832\n      jumpi\n        /* \"#utility.yul\":25794:25873   */\n      tag_833\n      tag_509\n      jump\t// in\n    tag_833:\n        /* \"#utility.yul\":25756:25875   */\n    tag_832:\n        /* \"#utility.yul\":25914:25915   */\n      0x00\n        /* \"#utility.yul\":25939:26001   */\n      tag_834\n        /* \"#utility.yul\":25993:26000   */\n      dup5\n        /* \"#utility.yul\":25984:25990   */\n      dup3\n        /* \"#utility.yul\":25973:25982   */\n      dup6\n        /* \"#utility.yul\":25969:25991   */\n      add\n        /* \"#utility.yul\":25939:26001   */\n      tag_570\n      jump\t// in\n    tag_834:\n        /* \"#utility.yul\":25929:26001   */\n      swap2\n      pop\n        /* \"#utility.yul\":25885:26011   */\n      pop\n        /* \"#utility.yul\":25671:26018   */\n      swap3\n      swap2\n      pop\n      pop\n      jump\t// out\n        /* \"#utility.yul\":26024:26167   */\n    tag_571:\n        /* \"#utility.yul\":26081:26086   */\n      0x00\n        /* \"#utility.yul\":26112:26118   */\n      dup2\n        /* \"#utility.yul\":26106:26119   */\n      mload\n        /* \"#utility.yul\":26097:26119   */\n      swap1\n      pop\n        /* \"#utility.yul\":26128:26161   */\n      tag_836\n        /* \"#utility.yul\":26155:26160   */\n      dup2\n        /* \"#utility.yul\":26128:26161   */\n      tag_512\n      jump\t// in\n    tag_836:\n        /* \"#utility.yul\":26024:26167   */\n      swap3\n      swap2\n      pop\n      pop\n      jump\t// out\n        /* \"#utility.yul\":26173:26524   */\n    tag_346:\n        /* \"#utility.yul\":26243:26249   */\n      0x00\n        /* \"#utility.yul\":26292:26294   */\n      0x20\n        /* \"#utility.yul\":26280:26289   */\n      dup3\n        /* \"#utility.yul\":26271:26278   */\n      dup5\n        /* \"#utility.yul\":26267:26290   */\n      sub\n        /* \"#utility.yul\":26263:26295   */\n      slt\n        /* \"#utility.yul\":26260:26379   */\n      iszero\n      tag_838\n      jumpi\n        /* \"#utility.yul\":26298:26377   */\n      tag_839\n      tag_509\n      jump\t// in\n    tag_839:\n        /* \"#utility.yul\":26260:26379   */\n    tag_838:\n        /* \"#utility.yul\":26418:26419   */\n      0x00\n        /* \"#utility.yul\":26443:26507   */\n      tag_840\n        /* \"#utility.yul\":26499:26506   */\n      dup5\n        /* \"#utility.yul\":26490:26496   */\n      dup3\n        /* \"#utility.yul\":26479:26488   */\n      dup6\n        /* \"#utility.yul\":26475:26497   */\n      add\n        /* \"#utility.yul\":26443:26507   */\n      tag_571\n      jump\t// in\n    tag_840:\n        /* \"#utility.yul\":26433:26507   */\n      swap2\n      pop\n        /* \"#utility.yul\":26389:26517   */\n      pop\n        /* \"#utility.yul\":26173:26524   */\n      swap3\n      swap2\n      pop\n      pop\n      jump\t// out\n        /* \"#utility.yul\":26530:26862   */\n    tag_348:\n        /* \"#utility.yul\":26651:26655   */\n      0x00\n        /* \"#utility.yul\":26689:26691   */\n      0x40\n        /* \"#utility.yul\":26678:26687   */\n      dup3\n        /* \"#utility.yul\":26674:26692   */\n      add\n        /* \"#utility.yul\":26666:26692   */\n      swap1\n      pop\n        /* \"#utility.yul\":26702:26773   */\n      tag_842\n        /* \"#utility.yul\":26770:26771   */\n      0x00\n        /* \"#utility.yul\":26759:26768   */\n      dup4\n        /* \"#utility.yul\":26755:26772   */\n      add\n        /* \"#utility.yul\":26746:26752   */\n      dup6\n        /* \"#utility.yul\":26702:26773   */\n      tag_530\n      jump\t// in\n    tag_842:\n        /* \"#utility.yul\":26783:26855   */\n      tag_843\n        /* \"#utility.yul\":26851:26853   */\n      0x20\n        /* \"#utility.yul\":26840:26849   */\n      dup4\n        /* \"#utility.yul\":26836:26854   */\n      add\n        /* \"#utility.yul\":26827:26833   */\n      dup5\n        /* \"#utility.yul\":26783:26855   */\n      tag_518\n      jump\t// in\n    tag_843:\n        /* \"#utility.yul\":26530:26862   */\n      swap4\n      swap3\n      pop\n      pop\n      pop\n      jump\t// out\n        /* \"#utility.yul\":26868:27093   */\n    tag_572:\n        /* \"#utility.yul\":27008:27042   */\n      0x50726573616c653a20556e6c6f636b696e67206861736e277420737461727465\n        /* \"#utility.yul\":27004:27005   */\n      0x00\n        /* \"#utility.yul\":26996:27002   */\n      dup3\n        /* \"#utility.yul\":26992:27006   */\n      add\n        /* \"#utility.yul\":26985:27043   */\n      mstore\n        /* \"#utility.yul\":27077:27085   */\n      0x6420796574210000000000000000000000000000000000000000000000000000\n        /* \"#utility.yul\":27072:27074   */\n      0x20\n        /* \"#utility.yul\":27064:27070   */\n      dup3\n        /* \"#utility.yul\":27060:27075   */\n      add\n        /* \"#utility.yul\":27053:27086   */\n      mstore\n        /* \"#utility.yul\":26868:27093   */\n      pop\n      jump\t// out\n        /* \"#utility.yul\":27099:27465   */\n    tag_573:\n        /* \"#utility.yul\":27241:27244   */\n      0x00\n        /* \"#utility.yul\":27262:27329   */\n      tag_846\n        /* \"#utility.yul\":27326:27328   */\n      0x26\n        /* \"#utility.yul\":27321:27324   */\n      dup4\n        /* \"#utility.yul\":27262:27329   */\n      tag_531\n      jump\t// in\n    tag_846:\n        /* \"#utility.yul\":27255:27329   */\n      swap2\n      pop\n        /* \"#utility.yul\":27338:27431   */\n      tag_847\n        /* \"#utility.yul\":27427:27430   */\n      dup3\n        /* \"#utility.yul\":27338:27431   */\n      tag_572\n      jump\t// in\n    tag_847:\n        /* \"#utility.yul\":27456:27458   */\n      0x40\n        /* \"#utility.yul\":27451:27454   */\n      dup3\n        /* \"#utility.yul\":27447:27459   */\n      add\n        /* \"#utility.yul\":27440:27459   */\n      swap1\n      pop\n        /* \"#utility.yul\":27099:27465   */\n      swap2\n      swap1\n      pop\n      jump\t// out\n        /* \"#utility.yul\":27471:27890   */\n    tag_367:\n        /* \"#utility.yul\":27637:27641   */\n      0x00\n        /* \"#utility.yul\":27675:27677   */\n      0x20\n        /* \"#utility.yul\":27664:27673   */\n      dup3\n        /* \"#utility.yul\":27660:27678   */\n      add\n        /* \"#utility.yul\":27652:27678   */\n      swap1\n      pop\n        /* \"#utility.yul\":27724:27733   */\n      dup2\n        /* \"#utility.yul\":27718:27722   */\n      dup2\n        /* \"#utility.yul\":27714:27734   */\n      sub\n        /* \"#utility.yul\":27710:27711   */\n      0x00\n        /* \"#utility.yul\":27699:27708   */\n      dup4\n        /* \"#utility.yul\":27695:27712   */\n      add\n        /* \"#utility.yul\":27688:27735   */\n      mstore\n        /* \"#utility.yul\":27752:27883   */\n      tag_849\n        /* \"#utility.yul\":27878:27882   */\n      dup2\n        /* \"#utility.yul\":27752:27883   */\n      tag_573\n      jump\t// in\n    tag_849:\n        /* \"#utility.yul\":27744:27883   */\n      swap1\n      pop\n        /* \"#utility.yul\":27471:27890   */\n      swap2\n      swap1\n      pop\n      jump\t// out\n        /* \"#utility.yul\":27896:28119   */\n    tag_574:\n        /* \"#utility.yul\":28036:28070   */\n      0x50726573616c653a204c6f636b696e6720706572696f64206e6f74206f766572\n        /* \"#utility.yul\":28032:28033   */\n      0x00\n        /* \"#utility.yul\":28024:28030   */\n      dup3\n        /* \"#utility.yul\":28020:28034   */\n      add\n        /* \"#utility.yul\":28013:28071   */\n      mstore\n        /* \"#utility.yul\":28105:28111   */\n      0x2079657400000000000000000000000000000000000000000000000000000000\n        /* \"#utility.yul\":28100:28102   */\n      0x20\n        /* \"#utility.yul\":28092:28098   */\n      dup3\n        /* \"#utility.yul\":28088:28103   */\n      add\n        /* \"#utility.yul\":28081:28112   */\n      mstore\n        /* \"#utility.yul\":27896:28119   */\n      pop\n      jump\t// out\n        /* \"#utility.yul\":28125:28491   */\n    tag_575:\n        /* \"#utility.yul\":28267:28270   */\n      0x00\n        /* \"#utility.yul\":28288:28355   */\n      tag_852\n        /* \"#utility.yul\":28352:28354   */\n      0x24\n        /* \"#utility.yul\":28347:28350   */\n      dup4\n        /* \"#utility.yul\":28288:28355   */\n      tag_531\n      jump\t// in\n    tag_852:\n        /* \"#utility.yul\":28281:28355   */\n      swap2\n      pop\n        /* \"#utility.yul\":28364:28457   */\n      tag_853\n        /* \"#utility.yul\":28453:28456   */\n      dup3\n        /* \"#utility.yul\":28364:28457   */\n      tag_574\n      jump\t// in\n    tag_853:\n        /* \"#utility.yul\":28482:28484   */\n      0x40\n        /* \"#utility.yul\":28477:28480   */\n      dup3\n        /* \"#utility.yul\":28473:28485   */\n      add\n        /* \"#utility.yul\":28466:28485   */\n      swap1\n      pop\n        /* \"#utility.yul\":28125:28491   */\n      swap2\n      swap1\n      pop\n      jump\t// out\n        /* \"#utility.yul\":28497:28916   */\n    tag_371:\n        /* \"#utility.yul\":28663:28667   */\n      0x00\n        /* \"#utility.yul\":28701:28703   */\n      0x20\n        /* \"#utility.yul\":28690:28699   */\n      dup3\n        /* \"#utility.yul\":28686:28704   */\n      add\n        /* \"#utility.yul\":28678:28704   */\n      swap1\n      pop\n        /* \"#utility.yul\":28750:28759   */\n      dup2\n        /* \"#utility.yul\":28744:28748   */\n      dup2\n        /* \"#utility.yul\":28740:28760   */\n      sub\n        /* \"#utility.yul\":28736:28737   */\n      0x00\n        /* \"#utility.yul\":28725:28734   */\n      dup4\n        /* \"#utility.yul\":28721:28738   */\n      add\n        /* \"#utility.yul\":28714:28761   */\n      mstore\n        /* \"#utility.yul\":28778:28909   */\n      tag_855\n        /* \"#utility.yul\":28904:28908   */\n      dup2\n        /* \"#utility.yul\":28778:28909   */\n      tag_575\n      jump\t// in\n    tag_855:\n        /* \"#utility.yul\":28770:28909   */\n      swap1\n      pop\n        /* \"#utility.yul\":28497:28916   */\n      swap2\n      swap1\n      pop\n      jump\t// out\n        /* \"#utility.yul\":28922:29096   */\n    tag_576:\n        /* \"#utility.yul\":29062:29088   */\n      0x50726573616c653a20416c726561647920636c61696d65640000000000000000\n        /* \"#utility.yul\":29058:29059   */\n      0x00\n        /* \"#utility.yul\":29050:29056   */\n      dup3\n        /* \"#utility.yul\":29046:29060   */\n      add\n        /* \"#utility.yul\":29039:29089   */\n      mstore\n        /* \"#utility.yul\":28922:29096   */\n      pop\n      jump\t// out\n        /* \"#utility.yul\":29102:29468   */\n    tag_577:\n        /* \"#utility.yul\":29244:29247   */\n      0x00\n        /* \"#utility.yul\":29265:29332   */\n      tag_858\n        /* \"#utility.yul\":29329:29331   */\n      0x18\n        /* \"#utility.yul\":29324:29327   */\n      dup4\n        /* \"#utility.yul\":29265:29332   */\n      tag_531\n      jump\t// in\n    tag_858:\n        /* \"#utility.yul\":29258:29332   */\n      swap2\n      pop\n        /* \"#utility.yul\":29341:29434   */\n      tag_859\n        /* \"#utility.yul\":29430:29433   */\n      dup3\n        /* \"#utility.yul\":29341:29434   */\n      tag_576\n      jump\t// in\n    tag_859:\n        /* \"#utility.yul\":29459:29461   */\n      0x20\n        /* \"#utility.yul\":29454:29457   */\n      dup3\n        /* \"#utility.yul\":29450:29462   */\n      add\n        /* \"#utility.yul\":29443:29462   */\n      swap1\n      pop\n        /* \"#utility.yul\":29102:29468   */\n      swap2\n      swap1\n      pop\n      jump\t// out\n        /* \"#utility.yul\":29474:29893   */\n    tag_374:\n        /* \"#utility.yul\":29640:29644   */\n      0x00\n        /* \"#utility.yul\":29678:29680   */\n      0x20\n        /* \"#utility.yul\":29667:29676   */\n      dup3\n        /* \"#utility.yul\":29663:29681   */\n      add\n        /* \"#utility.yul\":29655:29681   */\n      swap1\n      pop\n        /* \"#utility.yul\":29727:29736   */\n      dup2\n        /* \"#utility.yul\":29721:29725   */\n      dup2\n        /* \"#utility.yul\":29717:29737   */\n      sub\n        /* \"#utility.yul\":29713:29714   */\n      0x00\n        /* \"#utility.yul\":29702:29711   */\n      dup4\n        /* \"#utility.yul\":29698:29715   */\n      add\n        /* \"#utility.yul\":29691:29738   */\n      mstore\n        /* \"#utility.yul\":29755:29886   */\n      tag_861\n        /* \"#utility.yul\":29881:29885   */\n      dup2\n        /* \"#utility.yul\":29755:29886   */\n      tag_577\n      jump\t// in\n    tag_861:\n        /* \"#utility.yul\":29747:29886   */\n      swap1\n      pop\n        /* \"#utility.yul\":29474:29893   */\n      swap2\n      swap1\n      pop\n      jump\t// out\n        /* \"#utility.yul\":29899:30124   */\n    tag_578:\n        /* \"#utility.yul\":30039:30073   */\n      0x4f776e61626c653a206e6577206f776e657220697320746865207a65726f2061\n        /* \"#utility.yul\":30035:30036   */\n      0x00\n        /* \"#utility.yul\":30027:30033   */\n      dup3\n        /* \"#utility.yul\":30023:30037   */\n      add\n        /* \"#utility.yul\":30016:30074   */\n      mstore\n        /* \"#utility.yul\":30108:30116   */\n      0x6464726573730000000000000000000000000000000000000000000000000000\n        /* \"#utility.yul\":30103:30105   */\n      0x20\n        /* \"#utility.yul\":30095:30101   */\n      dup3\n        /* \"#utility.yul\":30091:30106   */\n      add\n        /* \"#utility.yul\":30084:30117   */\n      mstore\n        /* \"#utility.yul\":29899:30124   */\n      pop\n      jump\t// out\n        /* \"#utility.yul\":30130:30496   */\n    tag_579:\n        /* \"#utility.yul\":30272:30275   */\n      0x00\n        /* \"#utility.yul\":30293:30360   */\n      tag_864\n        /* \"#utility.yul\":30357:30359   */\n      0x26\n        /* \"#utility.yul\":30352:30355   */\n      dup4\n        /* \"#utility.yul\":30293:30360   */\n      tag_531\n      jump\t// in\n    tag_864:\n        /* \"#utility.yul\":30286:30360   */\n      swap2\n      pop\n        /* \"#utility.yul\":30369:30462   */\n      tag_865\n        /* \"#utility.yul\":30458:30461   */\n      dup3\n        /* \"#utility.yul\":30369:30462   */\n      tag_578\n      jump\t// in\n    tag_865:\n        /* \"#utility.yul\":30487:30489   */\n      0x40\n        /* \"#utility.yul\":30482:30485   */\n      dup3\n        /* \"#utility.yul\":30478:30490   */\n      add\n        /* \"#utility.yul\":30471:30490   */\n      swap1\n      pop\n        /* \"#utility.yul\":30130:30496   */\n      swap2\n      swap1\n      pop\n      jump\t// out\n        /* \"#utility.yul\":30502:30921   */\n    tag_415:\n        /* \"#utility.yul\":30668:30672   */\n      0x00\n        /* \"#utility.yul\":30706:30708   */\n      0x20\n        /* \"#utility.yul\":30695:30704   */\n      dup3\n        /* \"#utility.yul\":30691:30709   */\n      add\n        /* \"#utility.yul\":30683:30709   */\n      swap1\n      pop\n        /* \"#utility.yul\":30755:30764   */\n      dup2\n        /* \"#utility.yul\":30749:30753   */\n      dup2\n        /* \"#utility.yul\":30745:30765   */\n      sub\n        /* \"#utility.yul\":30741:30742   */\n      0x00\n        /* \"#utility.yul\":30730:30739   */\n      dup4\n        /* \"#utility.yul\":30726:30743   */\n      add\n        /* \"#utility.yul\":30719:30766   */\n      mstore\n        /* \"#utility.yul\":30783:30914   */\n      tag_867\n        /* \"#utility.yul\":30909:30913   */\n      dup2\n        /* \"#utility.yul\":30783:30914   */\n      tag_579\n      jump\t// in\n    tag_867:\n        /* \"#utility.yul\":30775:30914   */\n      swap1\n      pop\n        /* \"#utility.yul\":30502:30921   */\n      swap2\n      swap1\n      pop\n      jump\t// out\n        /* \"#utility.yul\":30927:31236   */\n    tag_580:\n        /* \"#utility.yul\":31067:31101   */\n      0x50726573616c653a2043616e6e6f742077697468647261772073616c6520746f\n        /* \"#utility.yul\":31063:31064   */\n      0x00\n        /* \"#utility.yul\":31055:31061   */\n      dup3\n        /* \"#utility.yul\":31051:31065   */\n      add\n        /* \"#utility.yul\":31044:31102   */\n      mstore\n        /* \"#utility.yul\":31136:31170   */\n      0x6b656e20776974682074686973206d6574686f642c2075736520776974686472\n        /* \"#utility.yul\":31131:31133   */\n      0x20\n        /* \"#utility.yul\":31123:31129   */\n      dup3\n        /* \"#utility.yul\":31119:31134   */\n      add\n        /* \"#utility.yul\":31112:31171   */\n      mstore\n        /* \"#utility.yul\":31205:31228   */\n      0x617753616c65546f6b656e282920696e73746561640000000000000000000000\n        /* \"#utility.yul\":31200:31202   */\n      0x40\n        /* \"#utility.yul\":31192:31198   */\n      dup3\n        /* \"#utility.yul\":31188:31203   */\n      add\n        /* \"#utility.yul\":31181:31229   */\n      mstore\n        /* \"#utility.yul\":30927:31236   */\n      pop\n      jump\t// out\n        /* \"#utility.yul\":31242:31608   */\n    tag_581:\n        /* \"#utility.yul\":31384:31387   */\n      0x00\n        /* \"#utility.yul\":31405:31472   */\n      tag_870\n        /* \"#utility.yul\":31469:31471   */\n      0x55\n        /* \"#utility.yul\":31464:31467   */\n      dup4\n        /* \"#utility.yul\":31405:31472   */\n      tag_531\n      jump\t// in\n    tag_870:\n        /* \"#utility.yul\":31398:31472   */\n      swap2\n      pop\n        /* \"#utility.yul\":31481:31574   */\n      tag_871\n        /* \"#utility.yul\":31570:31573   */\n      dup3\n        /* \"#utility.yul\":31481:31574   */\n      tag_580\n      jump\t// in\n    tag_871:\n        /* \"#utility.yul\":31599:31601   */\n      0x60\n        /* \"#utility.yul\":31594:31597   */\n      dup3\n        /* \"#utility.yul\":31590:31602   */\n      add\n        /* \"#utility.yul\":31583:31602   */\n      swap1\n      pop\n        /* \"#utility.yul\":31242:31608   */\n      swap2\n      swap1\n      pop\n      jump\t// out\n        /* \"#utility.yul\":31614:32033   */\n    tag_425:\n        /* \"#utility.yul\":31780:31784   */\n      0x00\n        /* \"#utility.yul\":31818:31820   */\n      0x20\n        /* \"#utility.yul\":31807:31816   */\n      dup3\n        /* \"#utility.yul\":31803:31821   */\n      add\n        /* \"#utility.yul\":31795:31821   */\n      swap1\n      pop\n        /* \"#utility.yul\":31867:31876   */\n      dup2\n        /* \"#utility.yul\":31861:31865   */\n      dup2\n        /* \"#utility.yul\":31857:31877   */\n      sub\n        /* \"#utility.yul\":31853:31854   */\n      0x00\n        /* \"#utility.yul\":31842:31851   */\n      dup4\n        /* \"#utility.yul\":31838:31855   */\n      add\n        /* \"#utility.yul\":31831:31878   */\n      mstore\n        /* \"#utility.yul\":31895:32026   */\n      tag_873\n        /* \"#utility.yul\":32021:32025   */\n      dup2\n        /* \"#utility.yul\":31895:32026   */\n      tag_581\n      jump\t// in\n    tag_873:\n        /* \"#utility.yul\":31887:32026   */\n      swap1\n      pop\n        /* \"#utility.yul\":31614:32033   */\n      swap2\n      swap1\n      pop\n      jump\t// out\n        /* \"#utility.yul\":32039:32351   */\n    tag_582:\n        /* \"#utility.yul\":32179:32213   */\n      0x50726573616c653a2043616e6e6f742077697468647261772073616c6520746f\n        /* \"#utility.yul\":32175:32176   */\n      0x00\n        /* \"#utility.yul\":32167:32173   */\n      dup3\n        /* \"#utility.yul\":32163:32177   */\n      add\n        /* \"#utility.yul\":32156:32214   */\n      mstore\n        /* \"#utility.yul\":32248:32282   */\n      0x6b656e20776974682074686973206d6574686f642c2075736520776974686472\n        /* \"#utility.yul\":32243:32245   */\n      0x20\n        /* \"#utility.yul\":32235:32241   */\n      dup3\n        /* \"#utility.yul\":32231:32246   */\n      add\n        /* \"#utility.yul\":32224:32283   */\n      mstore\n        /* \"#utility.yul\":32317:32343   */\n      0x6177416c6c53616c65546f6b656e282920696e73746561640000000000000000\n        /* \"#utility.yul\":32312:32314   */\n      0x40\n        /* \"#utility.yul\":32304:32310   */\n      dup3\n        /* \"#utility.yul\":32300:32315   */\n      add\n        /* \"#utility.yul\":32293:32344   */\n      mstore\n        /* \"#utility.yul\":32039:32351   */\n      pop\n      jump\t// out\n        /* \"#utility.yul\":32357:32723   */\n    tag_583:\n        /* \"#utility.yul\":32499:32502   */\n      0x00\n        /* \"#utility.yul\":32520:32587   */\n      tag_876\n        /* \"#utility.yul\":32584:32586   */\n      0x58\n        /* \"#utility.yul\":32579:32582   */\n      dup4\n        /* \"#utility.yul\":32520:32587   */\n      tag_531\n      jump\t// in\n    tag_876:\n        /* \"#utility.yul\":32513:32587   */\n      swap2\n      pop\n        /* \"#utility.yul\":32596:32689   */\n      tag_877\n        /* \"#utility.yul\":32685:32688   */\n      dup3\n        /* \"#utility.yul\":32596:32689   */\n      tag_582\n      jump\t// in\n    tag_877:\n        /* \"#utility.yul\":32714:32716   */\n      0x60\n        /* \"#utility.yul\":32709:32712   */\n      dup3\n        /* \"#utility.yul\":32705:32717   */\n      add\n        /* \"#utility.yul\":32698:32717   */\n      swap1\n      pop\n        /* \"#utility.yul\":32357:32723   */\n      swap2\n      swap1\n      pop\n      jump\t// out\n        /* \"#utility.yul\":32729:33148   */\n    tag_435:\n        /* \"#utility.yul\":32895:32899   */\n      0x00\n        /* \"#utility.yul\":32933:32935   */\n      0x20\n        /* \"#utility.yul\":32922:32931   */\n      dup3\n        /* \"#utility.yul\":32918:32936   */\n      add\n        /* \"#utility.yul\":32910:32936   */\n      swap1\n      pop\n        /* \"#utility.yul\":32982:32991   */\n      dup2\n        /* \"#utility.yul\":32976:32980   */\n      dup2\n        /* \"#utility.yul\":32972:32992   */\n      sub\n        /* \"#utility.yul\":32968:32969   */\n      0x00\n        /* \"#utility.yul\":32957:32966   */\n      dup4\n        /* \"#utility.yul\":32953:32970   */\n      add\n        /* \"#utility.yul\":32946:32993   */\n      mstore\n        /* \"#utility.yul\":33010:33141   */\n      tag_879\n        /* \"#utility.yul\":33136:33140   */\n      dup2\n        /* \"#utility.yul\":33010:33141   */\n      tag_583\n      jump\t// in\n    tag_879:\n        /* \"#utility.yul\":33002:33141   */\n      swap1\n      pop\n        /* \"#utility.yul\":32729:33148   */\n      swap2\n      swap1\n      pop\n      jump\t// out\n        /* \"#utility.yul\":33154:33596   */\n    tag_459:\n        /* \"#utility.yul\":33303:33307   */\n      0x00\n        /* \"#utility.yul\":33341:33343   */\n      0x60\n        /* \"#utility.yul\":33330:33339   */\n      dup3\n        /* \"#utility.yul\":33326:33344   */\n      add\n        /* \"#utility.yul\":33318:33344   */\n      swap1\n      pop\n        /* \"#utility.yul\":33354:33425   */\n      tag_881\n        /* \"#utility.yul\":33422:33423   */\n      0x00\n        /* \"#utility.yul\":33411:33420   */\n      dup4\n        /* \"#utility.yul\":33407:33424   */\n      add\n        /* \"#utility.yul\":33398:33404   */\n      dup7\n        /* \"#utility.yul\":33354:33425   */\n      tag_530\n      jump\t// in\n    tag_881:\n        /* \"#utility.yul\":33435:33507   */\n      tag_882\n        /* \"#utility.yul\":33503:33505   */\n      0x20\n        /* \"#utility.yul\":33492:33501   */\n      dup4\n        /* \"#utility.yul\":33488:33506   */\n      add\n        /* \"#utility.yul\":33479:33485   */\n      dup6\n        /* \"#utility.yul\":33435:33507   */\n      tag_530\n      jump\t// in\n    tag_882:\n        /* \"#utility.yul\":33517:33589   */\n      tag_883\n        /* \"#utility.yul\":33585:33587   */\n      0x40\n        /* \"#utility.yul\":33574:33583   */\n      dup4\n        /* \"#utility.yul\":33570:33588   */\n      add\n        /* \"#utility.yul\":33561:33567   */\n      dup5\n        /* \"#utility.yul\":33517:33589   */\n      tag_518\n      jump\t// in\n    tag_883:\n        /* \"#utility.yul\":33154:33596   */\n      swap5\n      swap4\n      pop\n      pop\n      pop\n      pop\n      jump\t// out\n        /* \"#utility.yul\":33602:33718   */\n    tag_584:\n        /* \"#utility.yul\":33672:33693   */\n      tag_885\n        /* \"#utility.yul\":33687:33692   */\n      dup2\n        /* \"#utility.yul\":33672:33693   */\n      tag_519\n      jump\t// in\n    tag_885:\n        /* \"#utility.yul\":33665:33670   */\n      dup2\n        /* \"#utility.yul\":33662:33694   */\n      eq\n        /* \"#utility.yul\":33652:33712   */\n      tag_886\n      jumpi\n        /* \"#utility.yul\":33708:33709   */\n      0x00\n        /* \"#utility.yul\":33705:33706   */\n      dup1\n        /* \"#utility.yul\":33698:33710   */\n      revert\n        /* \"#utility.yul\":33652:33712   */\n    tag_886:\n        /* \"#utility.yul\":33602:33718   */\n      pop\n      jump\t// out\n        /* \"#utility.yul\":33724:33861   */\n    tag_585:\n        /* \"#utility.yul\":33778:33783   */\n      0x00\n        /* \"#utility.yul\":33809:33815   */\n      dup2\n        /* \"#utility.yul\":33803:33816   */\n      mload\n        /* \"#utility.yul\":33794:33816   */\n      swap1\n      pop\n        /* \"#utility.yul\":33825:33855   */\n      tag_888\n        /* \"#utility.yul\":33849:33854   */\n      dup2\n        /* \"#utility.yul\":33825:33855   */\n      tag_584\n      jump\t// in\n    tag_888:\n        /* \"#utility.yul\":33724:33861   */\n      swap3\n      swap2\n      pop\n      pop\n      jump\t// out\n        /* \"#utility.yul\":33867:34212   */\n    tag_470:\n        /* \"#utility.yul\":33934:33940   */\n      0x00\n        /* \"#utility.yul\":33983:33985   */\n      0x20\n        /* \"#utility.yul\":33971:33980   */\n      dup3\n        /* \"#utility.yul\":33962:33969   */\n      dup5\n        /* \"#utility.yul\":33958:33981   */\n      sub\n        /* \"#utility.yul\":33954:33986   */\n      slt\n        /* \"#utility.yul\":33951:34070   */\n      iszero\n      tag_890\n      jumpi\n        /* \"#utility.yul\":33989:34068   */\n      tag_891\n      tag_509\n      jump\t// in\n    tag_891:\n        /* \"#utility.yul\":33951:34070   */\n    tag_890:\n        /* \"#utility.yul\":34109:34110   */\n      0x00\n        /* \"#utility.yul\":34134:34195   */\n      tag_892\n        /* \"#utility.yul\":34187:34194   */\n      dup5\n        /* \"#utility.yul\":34178:34184   */\n      dup3\n        /* \"#utility.yul\":34167:34176   */\n      dup6\n        /* \"#utility.yul\":34163:34185   */\n      add\n        /* \"#utility.yul\":34134:34195   */\n      tag_585\n      jump\t// in\n    tag_892:\n        /* \"#utility.yul\":34124:34195   */\n      swap2\n      pop\n        /* \"#utility.yul\":34080:34205   */\n      pop\n        /* \"#utility.yul\":33867:34212   */\n      swap3\n      swap2\n      pop\n      pop\n      jump\t// out\n        /* \"#utility.yul\":34218:34447   */\n    tag_586:\n        /* \"#utility.yul\":34358:34392   */\n      0x5361666545524332303a204552433230206f7065726174696f6e20646964206e\n        /* \"#utility.yul\":34354:34355   */\n      0x00\n        /* \"#utility.yul\":34346:34352   */\n      dup3\n        /* \"#utility.yul\":34342:34356   */\n      add\n        /* \"#utility.yul\":34335:34393   */\n      mstore\n        /* \"#utility.yul\":34427:34439   */\n      0x6f74207375636365656400000000000000000000000000000000000000000000\n        /* \"#utility.yul\":34422:34424   */\n      0x20\n        /* \"#utility.yul\":34414:34420   */\n      dup3\n        /* \"#utility.yul\":34410:34425   */\n      add\n        /* \"#utility.yul\":34403:34440   */\n      mstore\n        /* \"#utility.yul\":34218:34447   */\n      pop\n      jump\t// out\n        /* \"#utility.yul\":34453:34819   */\n    tag_587:\n        /* \"#utility.yul\":34595:34598   */\n      0x00\n        /* \"#utility.yul\":34616:34683   */\n      tag_895\n        /* \"#utility.yul\":34680:34682   */\n      0x2a\n        /* \"#utility.yul\":34675:34678   */\n      dup4\n        /* \"#utility.yul\":34616:34683   */\n      tag_531\n      jump\t// in\n    tag_895:\n        /* \"#utility.yul\":34609:34683   */\n      swap2\n      pop\n        /* \"#utility.yul\":34692:34785   */\n      tag_896\n        /* \"#utility.yul\":34781:34784   */\n      dup3\n        /* \"#utility.yul\":34692:34785   */\n      tag_586\n      jump\t// in\n    tag_896:\n        /* \"#utility.yul\":34810:34812   */\n      0x40\n        /* \"#utility.yul\":34805:34808   */\n      dup3\n        /* \"#utility.yul\":34801:34813   */\n      add\n        /* \"#utility.yul\":34794:34813   */\n      swap1\n      pop\n        /* \"#utility.yul\":34453:34819   */\n      swap2\n      swap1\n      pop\n      jump\t// out\n        /* \"#utility.yul\":34825:35244   */\n    tag_473:\n        /* \"#utility.yul\":34991:34995   */\n      0x00\n        /* \"#utility.yul\":35029:35031   */\n      0x20\n        /* \"#utility.yul\":35018:35027   */\n      dup3\n        /* \"#utility.yul\":35014:35032   */\n      add\n        /* \"#utility.yul\":35006:35032   */\n      swap1\n      pop\n        /* \"#utility.yul\":35078:35087   */\n      dup2\n        /* \"#utility.yul\":35072:35076   */\n      dup2\n        /* \"#utility.yul\":35068:35088   */\n      sub\n        /* \"#utility.yul\":35064:35065   */\n      0x00\n        /* \"#utility.yul\":35053:35062   */\n      dup4\n        /* \"#utility.yul\":35049:35066   */\n      add\n        /* \"#utility.yul\":35042:35089   */\n      mstore\n        /* \"#utility.yul\":35106:35237   */\n      tag_898\n        /* \"#utility.yul\":35232:35236   */\n      dup2\n        /* \"#utility.yul\":35106:35237   */\n      tag_587\n      jump\t// in\n    tag_898:\n        /* \"#utility.yul\":35098:35237   */\n      swap1\n      pop\n        /* \"#utility.yul\":34825:35244   */\n      swap2\n      swap1\n      pop\n      jump\t// out\n        /* \"#utility.yul\":35250:35475   */\n    tag_588:\n        /* \"#utility.yul\":35390:35424   */\n      0x416464726573733a20696e73756666696369656e742062616c616e636520666f\n        /* \"#utility.yul\":35386:35387   */\n      0x00\n        /* \"#utility.yul\":35378:35384   */\n      dup3\n        /* \"#utility.yul\":35374:35388   */\n      add\n        /* \"#utility.yul\":35367:35425   */\n      mstore\n        /* \"#utility.yul\":35459:35467   */\n      0x722063616c6c0000000000000000000000000000000000000000000000000000\n        /* \"#utility.yul\":35454:35456   */\n      0x20\n        /* \"#utility.yul\":35446:35452   */\n      dup3\n        /* \"#utility.yul\":35442:35457   */\n      add\n        /* \"#utility.yul\":35435:35468   */\n      mstore\n        /* \"#utility.yul\":35250:35475   */\n      pop\n      jump\t// out\n        /* \"#utility.yul\":35481:35847   */\n    tag_589:\n        /* \"#utility.yul\":35623:35626   */\n      0x00\n        /* \"#utility.yul\":35644:35711   */\n      tag_901\n        /* \"#utility.yul\":35708:35710   */\n      0x26\n        /* \"#utility.yul\":35703:35706   */\n      dup4\n        /* \"#utility.yul\":35644:35711   */\n      tag_531\n      jump\t// in\n    tag_901:\n        /* \"#utility.yul\":35637:35711   */\n      swap2\n      pop\n        /* \"#utility.yul\":35720:35813   */\n      tag_902\n        /* \"#utility.yul\":35809:35812   */\n      dup3\n        /* \"#utility.yul\":35720:35813   */\n      tag_588\n      jump\t// in\n    tag_902:\n        /* \"#utility.yul\":35838:35840   */\n      0x40\n        /* \"#utility.yul\":35833:35836   */\n      dup3\n        /* \"#utility.yul\":35829:35841   */\n      add\n        /* \"#utility.yul\":35822:35841   */\n      swap1\n      pop\n        /* \"#utility.yul\":35481:35847   */\n      swap2\n      swap1\n      pop\n      jump\t// out\n        /* \"#utility.yul\":35853:36272   */\n    tag_480:\n        /* \"#utility.yul\":36019:36023   */\n      0x00\n        /* \"#utility.yul\":36057:36059   */\n      0x20\n        /* \"#utility.yul\":36046:36055   */\n      dup3\n        /* \"#utility.yul\":36042:36060   */\n      add\n        /* \"#utility.yul\":36034:36060   */\n      swap1\n      pop\n        /* \"#utility.yul\":36106:36115   */\n      dup2\n        /* \"#utility.yul\":36100:36104   */\n      dup2\n        /* \"#utility.yul\":36096:36116   */\n      sub\n        /* \"#utility.yul\":36092:36093   */\n      0x00\n        /* \"#utility.yul\":36081:36090   */\n      dup4\n        /* \"#utility.yul\":36077:36094   */\n      add\n        /* \"#utility.yul\":36070:36117   */\n      mstore\n        /* \"#utility.yul\":36134:36265   */\n      tag_904\n        /* \"#utility.yul\":36260:36264   */\n      dup2\n        /* \"#utility.yul\":36134:36265   */\n      tag_589\n      jump\t// in\n    tag_904:\n        /* \"#utility.yul\":36126:36265   */\n      swap1\n      pop\n        /* \"#utility.yul\":35853:36272   */\n      swap2\n      swap1\n      pop\n      jump\t// out\n        /* \"#utility.yul\":36278:36457   */\n    tag_590:\n        /* \"#utility.yul\":36418:36449   */\n      0x416464726573733a2063616c6c20746f206e6f6e2d636f6e7472616374000000\n        /* \"#utility.yul\":36414:36415   */\n      0x00\n        /* \"#utility.yul\":36406:36412   */\n      dup3\n        /* \"#utility.yul\":36402:36416   */\n      add\n        /* \"#utility.yul\":36395:36450   */\n      mstore\n        /* \"#utility.yul\":36278:36457   */\n      pop\n      jump\t// out\n        /* \"#utility.yul\":36463:36829   */\n    tag_591:\n        /* \"#utility.yul\":36605:36608   */\n      0x00\n        /* \"#utility.yul\":36626:36693   */\n      tag_907\n        /* \"#utility.yul\":36690:36692   */\n      0x1d\n        /* \"#utility.yul\":36685:36688   */\n      dup4\n        /* \"#utility.yul\":36626:36693   */\n      tag_531\n      jump\t// in\n    tag_907:\n        /* \"#utility.yul\":36619:36693   */\n      swap2\n      pop\n        /* \"#utility.yul\":36702:36795   */\n      tag_908\n        /* \"#utility.yul\":36791:36794   */\n      dup3\n        /* \"#utility.yul\":36702:36795   */\n      tag_590\n      jump\t// in\n    tag_908:\n        /* \"#utility.yul\":36820:36822   */\n      0x20\n        /* \"#utility.yul\":36815:36818   */\n      dup3\n        /* \"#utility.yul\":36811:36823   */\n      add\n        /* \"#utility.yul\":36804:36823   */\n      swap1\n      pop\n        /* \"#utility.yul\":36463:36829   */\n      swap2\n      swap1\n      pop\n      jump\t// out\n        /* \"#utility.yul\":36835:37254   */\n    tag_485:\n        /* \"#utility.yul\":37001:37005   */\n      0x00\n        /* \"#utility.yul\":37039:37041   */\n      0x20\n        /* \"#utility.yul\":37028:37037   */\n      dup3\n        /* \"#utility.yul\":37024:37042   */\n      add\n        /* \"#utility.yul\":37016:37042   */\n      swap1\n      pop\n        /* \"#utility.yul\":37088:37097   */\n      dup2\n        /* \"#utility.yul\":37082:37086   */\n      dup2\n        /* \"#utility.yul\":37078:37098   */\n      sub\n        /* \"#utility.yul\":37074:37075   */\n      0x00\n        /* \"#utility.yul\":37063:37072   */\n      dup4\n        /* \"#utility.yul\":37059:37076   */\n      add\n        /* \"#utility.yul\":37052:37099   */\n      mstore\n        /* \"#utility.yul\":37116:37247   */\n      tag_910\n        /* \"#utility.yul\":37242:37246   */\n      dup2\n        /* \"#utility.yul\":37116:37247   */\n      tag_591\n      jump\t// in\n    tag_910:\n        /* \"#utility.yul\":37108:37247   */\n      swap1\n      pop\n        /* \"#utility.yul\":36835:37254   */\n      swap2\n      swap1\n      pop\n      jump\t// out\n        /* \"#utility.yul\":37260:37358   */\n    tag_592:\n        /* \"#utility.yul\":37311:37317   */\n      0x00\n        /* \"#utility.yul\":37345:37350   */\n      dup2\n        /* \"#utility.yul\":37339:37351   */\n      mload\n        /* \"#utility.yul\":37329:37351   */\n      swap1\n      pop\n        /* \"#utility.yul\":37260:37358   */\n      swap2\n      swap1\n      pop\n      jump\t// out\n        /* \"#utility.yul\":37364:37511   */\n    tag_593:\n        /* \"#utility.yul\":37465:37476   */\n      0x00\n        /* \"#utility.yul\":37502:37505   */\n      dup2\n        /* \"#utility.yul\":37487:37505   */\n      swap1\n      pop\n        /* \"#utility.yul\":37364:37511   */\n      swap3\n      swap2\n      pop\n      pop\n      jump\t// out\n        /* \"#utility.yul\":37517:37763   */\n    tag_594:\n        /* \"#utility.yul\":37598:37599   */\n      0x00\n        /* \"#utility.yul\":37608:37721   */\n    tag_914:\n        /* \"#utility.yul\":37622:37628   */\n      dup4\n        /* \"#utility.yul\":37619:37620   */\n      dup2\n        /* \"#utility.yul\":37616:37629   */\n      lt\n        /* \"#utility.yul\":37608:37721   */\n      iszero\n      tag_916\n      jumpi\n        /* \"#utility.yul\":37707:37708   */\n      dup1\n        /* \"#utility.yul\":37702:37705   */\n      dup3\n        /* \"#utility.yul\":37698:37709   */\n      add\n        /* \"#utility.yul\":37692:37710   */\n      mload\n        /* \"#utility.yul\":37688:37689   */\n      dup2\n        /* \"#utility.yul\":37683:37686   */\n      dup5\n        /* \"#utility.yul\":37679:37690   */\n      add\n        /* \"#utility.yul\":37672:37711   */\n      mstore\n        /* \"#utility.yul\":37644:37646   */\n      0x20\n        /* \"#utility.yul\":37641:37642   */\n      dup2\n        /* \"#utility.yul\":37637:37647   */\n      add\n        /* \"#utility.yul\":37632:37647   */\n      swap1\n      pop\n        /* \"#utility.yul\":37608:37721   */\n      jump(tag_914)\n    tag_916:\n        /* \"#utility.yul\":37755:37756   */\n      0x00\n        /* \"#utility.yul\":37746:37752   */\n      dup5\n        /* \"#utility.yul\":37741:37744   */\n      dup5\n        /* \"#utility.yul\":37737:37753   */\n      add\n        /* \"#utility.yul\":37730:37757   */\n      mstore\n        /* \"#utility.yul\":37579:37763   */\n      pop\n        /* \"#utility.yul\":37517:37763   */\n      pop\n      pop\n      pop\n      jump\t// out\n        /* \"#utility.yul\":37769:38155   */\n    tag_595:\n        /* \"#utility.yul\":37873:37876   */\n      0x00\n        /* \"#utility.yul\":37901:37939   */\n      tag_918\n        /* \"#utility.yul\":37933:37938   */\n      dup3\n        /* \"#utility.yul\":37901:37939   */\n      tag_592\n      jump\t// in\n    tag_918:\n        /* \"#utility.yul\":37955:38043   */\n      tag_919\n        /* \"#utility.yul\":38036:38042   */\n      dup2\n        /* \"#utility.yul\":38031:38034   */\n      dup6\n        /* \"#utility.yul\":37955:38043   */\n      tag_593\n      jump\t// in\n    tag_919:\n        /* \"#utility.yul\":37948:38043   */\n      swap4\n      pop\n        /* \"#utility.yul\":38052:38117   */\n      tag_920\n        /* \"#utility.yul\":38110:38116   */\n      dup2\n        /* \"#utility.yul\":38105:38108   */\n      dup6\n        /* \"#utility.yul\":38098:38102   */\n      0x20\n        /* \"#utility.yul\":38091:38096   */\n      dup7\n        /* \"#utility.yul\":38087:38103   */\n      add\n        /* \"#utility.yul\":38052:38117   */\n      tag_594\n      jump\t// in\n    tag_920:\n        /* \"#utility.yul\":38142:38148   */\n      dup1\n        /* \"#utility.yul\":38137:38140   */\n      dup5\n        /* \"#utility.yul\":38133:38149   */\n      add\n        /* \"#utility.yul\":38126:38149   */\n      swap2\n      pop\n        /* \"#utility.yul\":37877:38155   */\n      pop\n        /* \"#utility.yul\":37769:38155   */\n      swap3\n      swap2\n      pop\n      pop\n      jump\t// out\n        /* \"#utility.yul\":38161:38432   */\n    tag_487:\n        /* \"#utility.yul\":38291:38294   */\n      0x00\n        /* \"#utility.yul\":38313:38406   */\n      tag_922\n        /* \"#utility.yul\":38402:38405   */\n      dup3\n        /* \"#utility.yul\":38393:38399   */\n      dup5\n        /* \"#utility.yul\":38313:38406   */\n      tag_595\n      jump\t// in\n    tag_922:\n        /* \"#utility.yul\":38306:38406   */\n      swap2\n      pop\n        /* \"#utility.yul\":38423:38426   */\n      dup2\n        /* \"#utility.yul\":38416:38426   */\n      swap1\n      pop\n        /* \"#utility.yul\":38161:38432   */\n      swap3\n      swap2\n      pop\n      pop\n      jump\t// out\n        /* \"#utility.yul\":38438:38537   */\n    tag_596:\n        /* \"#utility.yul\":38490:38496   */\n      0x00\n        /* \"#utility.yul\":38524:38529   */\n      dup2\n        /* \"#utility.yul\":38518:38530   */\n      mload\n        /* \"#utility.yul\":38508:38530   */\n      swap1\n      pop\n        /* \"#utility.yul\":38438:38537   */\n      swap2\n      swap1\n      pop\n      jump\t// out\n        /* \"#utility.yul\":38543:38920   */\n    tag_597:\n        /* \"#utility.yul\":38631:38634   */\n      0x00\n        /* \"#utility.yul\":38659:38698   */\n      tag_925\n        /* \"#utility.yul\":38692:38697   */\n      dup3\n        /* \"#utility.yul\":38659:38698   */\n      tag_596\n      jump\t// in\n    tag_925:\n        /* \"#utility.yul\":38714:38785   */\n      tag_926\n        /* \"#utility.yul\":38778:38784   */\n      dup2\n        /* \"#utility.yul\":38773:38776   */\n      dup6\n        /* \"#utility.yul\":38714:38785   */\n      tag_531\n      jump\t// in\n    tag_926:\n        /* \"#utility.yul\":38707:38785   */\n      swap4\n      pop\n        /* \"#utility.yul\":38794:38859   */\n      tag_927\n        /* \"#utility.yul\":38852:38858   */\n      dup2\n        /* \"#utility.yul\":38847:38850   */\n      dup6\n        /* \"#utility.yul\":38840:38844   */\n      0x20\n        /* \"#utility.yul\":38833:38838   */\n      dup7\n        /* \"#utility.yul\":38829:38845   */\n      add\n        /* \"#utility.yul\":38794:38859   */\n      tag_594\n      jump\t// in\n    tag_927:\n        /* \"#utility.yul\":38884:38913   */\n      tag_928\n        /* \"#utility.yul\":38906:38912   */\n      dup2\n        /* \"#utility.yul\":38884:38913   */\n      tag_522\n      jump\t// in\n    tag_928:\n        /* \"#utility.yul\":38879:38882   */\n      dup5\n        /* \"#utility.yul\":38875:38914   */\n      add\n        /* \"#utility.yul\":38868:38914   */\n      swap2\n      pop\n        /* \"#utility.yul\":38635:38920   */\n      pop\n        /* \"#utility.yul\":38543:38920   */\n      swap3\n      swap2\n      pop\n      pop\n      jump\t// out\n        /* \"#utility.yul\":38926:39239   */\n    tag_500:\n        /* \"#utility.yul\":39039:39043   */\n      0x00\n        /* \"#utility.yul\":39077:39079   */\n      0x20\n        /* \"#utility.yul\":39066:39075   */\n      dup3\n        /* \"#utility.yul\":39062:39080   */\n      add\n        /* \"#utility.yul\":39054:39080   */\n      swap1\n      pop\n        /* \"#utility.yul\":39126:39135   */\n      dup2\n        /* \"#utility.yul\":39120:39124   */\n      dup2\n        /* \"#utility.yul\":39116:39136   */\n      sub\n        /* \"#utility.yul\":39112:39113   */\n      0x00\n        /* \"#utility.yul\":39101:39110   */\n      dup4\n        /* \"#utility.yul\":39097:39114   */\n      add\n        /* \"#utility.yul\":39090:39137   */\n      mstore\n        /* \"#utility.yul\":39154:39232   */\n      tag_930\n        /* \"#utility.yul\":39227:39231   */\n      dup2\n        /* \"#utility.yul\":39218:39224   */\n      dup5\n        /* \"#utility.yul\":39154:39232   */\n      tag_597\n      jump\t// in\n    tag_930:\n        /* \"#utility.yul\":39146:39232   */\n      swap1\n      pop\n        /* \"#utility.yul\":38926:39239   */\n      swap3\n      swap2\n      pop\n      pop\n      jump\t// out\n\n    auxdata: 0xa26469706673582212208aa4adaa16cc526fa1e413e80d2f1aebe13d031c56f15cbdca6d5be60467172364736f6c63430008120033\n}\n",
				"bytecode": {
					"linkReferences": {},
					"object": "60806040523480156200001157600080fd5b5062000032620000266200003860201b60201c565b6200004060201b60201c565b62000104565b600033905090565b60008060009054906101000a900473ffffffffffffffffffffffffffffffffffffffff169050816000806101000a81548173ffffffffffffffffffffffffffffffffffffffff021916908373ffffffffffffffffffffffffffffffffffffffff1602179055508173ffffffffffffffffffffffffffffffffffffffff168173ffffffffffffffffffffffffffffffffffffffff167f8be0079c531659141344cd1fd0a4f28419497f9722a3daafe3b4186f6b6457e060405160405180910390a35050565b613e5c80620001146000396000f3fe6080604052600436106102045760003560e01c806389e6ce1e11610118578063cae70c70116100a0578063ee774ccd1161006f578063ee774ccd146106fd578063f2fde38b14610726578063f3fef3a31461074f578063fa09e63014610778578063fb00f3fc146107a157610204565b8063cae70c7014610643578063ded441c21461066c578063e7ee6ad614610695578063e985e367146106d257610204565b8063a82524b2116100e7578063a82524b214610594578063ace1741c146105bf578063b5b0763c146105ea578063b81df74214610601578063ca628c781461062c57610204565b806389e6ce1e146104da5780638ce0b9d2146105035780638da5cb5b1461054057806399b770321461056b57610204565b806363b201171161019b5780636aa5b37f1161016a5780636aa5b37f146104195780636bcedf9c14610444578063715018a61461046f5780637412c22314610486578063757765f8146104b157610204565b806363b201171461036c57806365617db114610397578063683b3b97146103c057806368f8fc10146103fd57610204565b80633848a771116101d75780633848a771146102b15780633c00a36c146102dc57806354a9f102146103055780635b10bd6a1461034357610204565b80630fabdd4414610209578063115ece4c14610232578063249b7c191461026f5780632a95c24c1461029a575b600080fd5b34801561021557600080fd5b50610230600480360381019061022b9190612930565b6107b8565b005b34801561023e57600080fd5b50610259600480360381019061025491906129bb565b610849565b6040516102669190612a0a565b60405180910390f35b34801561027b57600080fd5b50610284610a65565b6040516102919190612a0a565b60405180910390f35b3480156102a657600080fd5b506102af610a6b565b005b3480156102bd57600080fd5b506102c6610b99565b6040516102d39190612a40565b60405180910390f35b3480156102e857600080fd5b5061030360048036038101906102fe9190612930565b610bac565b005b34801561031157600080fd5b5061032c60048036038101906103279190612a5b565b610c72565b60405161033a929190612a88565b60405180910390f35b34801561034f57600080fd5b5061036a60048036038101906103659190612930565b610ca3565b005b34801561037857600080fd5b50610381610d30565b60405161038e9190612a0a565b60405180910390f35b3480156103a357600080fd5b506103be60048036038101906103b99190612bf8565b610d36565b005b3480156103cc57600080fd5b506103e760048036038101906103e291906129bb565b610e96565b6040516103f49190612a0a565b60405180910390f35b610417600480360381019061041291906129bb565b610ebe565b005b34801561042557600080fd5b5061042e6112d1565b60405161043b9190612a0a565b60405180910390f35b34801561045057600080fd5b506104596112d7565b6040516104669190612a0a565b60405180910390f35b34801561047b57600080fd5b506104846112dd565b005b34801561049257600080fd5b5061049b611365565b6040516104a89190612a0a565b60405180910390f35b3480156104bd57600080fd5b506104d860048036038101906104d39190612930565b61136a565b005b3480156104e657600080fd5b5061050160048036038101906104fc91906129bb565b6113f0565b005b34801561050f57600080fd5b5061052a60048036038101906105259190612a5b565b611727565b6040516105379190612a40565b60405180910390f35b34801561054c57600080fd5b50610555611747565b6040516105629190612c47565b60405180910390f35b34801561057757600080fd5b50610592600480360381019061058d9190612930565b611770565b005b3480156105a057600080fd5b506105a96117f6565b6040516105b69190612a0a565b60405180910390f35b3480156105cb57600080fd5b506105d46117fc565b6040516105e19190612a0a565b60405180910390f35b3480156105f657600080fd5b506105ff611802565b005b34801561060d57600080fd5b5061061661192f565b6040516106239190612a0a565b60405180910390f35b34801561063857600080fd5b50610641611935565b005b34801561064f57600080fd5b5061066a60048036038101906106659190612bf8565b611b54565b005b34801561067857600080fd5b50610693600480360381019061068e9190612930565b611ce8565b005b3480156106a157600080fd5b506106bc60048036038101906106b79190612930565b611df9565b6040516106c99190612a0a565b60405180910390f35b3480156106de57600080fd5b506106e7611e14565b6040516106f49190612c47565b60405180910390f35b34801561070957600080fd5b50610724600480360381019061071f9190612c62565b611e3a565b005b34801561073257600080fd5b5061074d60048036038101906107489190612a5b565b611ecb565b005b34801561075b57600080fd5b50610776600480360381019061077191906129bb565b611fc2565b005b34801561078457600080fd5b5061079f600480360381019061079a9190612a5b565b6120fd565b005b3480156107ad57600080fd5b506107b6612295565b005b6107c0612446565b73ffffffffffffffffffffffffffffffffffffffff166107de611747565b73ffffffffffffffffffffffffffffffffffffffff1614610834576040517f08c379a000000000000000000000000000000000000000000000000000000000815260040161082b90612cec565b60405180910390fd5b80426108409190612d3b565b600d8190555050565b6000806000610856611365565b9050600073ffffffffffffffffffffffffffffffffffffffff168573ffffffffffffffffffffffffffffffffffffffff16146109f857600a60008673ffffffffffffffffffffffffffffffffffffffff1673ffffffffffffffffffffffffffffffffffffffff16815260200190815260200160002060009054906101000a900460ff16610918576040517f08c379a000000000000000000000000000000000000000000000000000000000815260040161090f90612dbb565b60405180910390fd5b6000600b60008773ffffffffffffffffffffffffffffffffffffffff1673ffffffffffffffffffffffffffffffffffffffff168152602001908152602001600020826004811061096b5761096a612ddb565b5b0154036109795760006109f1565b600b60008673ffffffffffffffffffffffffffffffffffffffff1673ffffffffffffffffffffffffffffffffffffffff16815260200190815260200160002081600481106109ca576109c9612ddb565b5b0154600654600a6109db9190612f3d565b856109e69190612f88565b6109f09190612ff9565b5b9150610a5a565b600060018260048110610a0e57610a0d612ddb565b5b015403610a1c576000610a57565b60018160048110610a3057610a2f612ddb565b5b0154600654600a610a419190612f3d565b85610a4c9190612f88565b610a569190612ff9565b5b91505b819250505092915050565b600d5481565b610a73612446565b73ffffffffffffffffffffffffffffffffffffffff16610a91611747565b73ffffffffffffffffffffffffffffffffffffffff1614610ae7576040517f08c379a0000000000000000000000000000000000000000000000000000000008152600401610ade90612cec565b60405180910390fd5b600d54421015610b2c576040517f08c379a0000000000000000000000000000000000000000000000000000000008152600401610b239061309c565b60405180910390fd5b600e60009054906101000a900460ff1615610b7c576040517f08c379a0000000000000000000000000000000000000000000000000000000008152600401610b739061312e565b60405180910390fd5b6001600e60006101000a81548160ff021916908315150217905550565b600e60009054906101000a900460ff1681565b610bb4612446565b73ffffffffffffffffffffffffffffffffffffffff16610bd2611747565b73ffffffffffffffffffffffffffffffffffffffff1614610c28576040517f08c379a0000000000000000000000000000000000000000000000000000000008152600401610c1f90612cec565b60405180910390fd5b3373ffffffffffffffffffffffffffffffffffffffff166108fc829081150290604051600060405180830381858888f19350505050158015610c6e573d6000803e3d6000fd5b5050565b600f6020528060005260406000206000915090508060000154908060010160009054906101000a900460ff16905082565b610cab612446565b73ffffffffffffffffffffffffffffffffffffffff16610cc9611747565b73ffffffffffffffffffffffffffffffffffffffff1614610d1f576040517f08c379a0000000000000000000000000000000000000000000000000000000008152600401610d1690612cec565b60405180910390fd5b42600c8190555080600d8190555050565b60105481565b610d3e612446565b73ffffffffffffffffffffffffffffffffffffffff16610d5c611747565b73ffffffffffffffffffffffffffffffffffffffff1614610db2576040517f08c379a0000000000000000000000000000000000000000000000000000000008152600401610da990612cec565b60405180910390fd5b6001600a60008473ffffffffffffffffffffffffffffffffffffffff1673ffffffffffffffffffffffffffffffffffffffff16815260200190815260200160002060006101000a81548160ff02191690831515021790555080600b60008473ffffffffffffffffffffffffffffffffffffffff1673ffffffffffffffffffffffffffffffffffffffff168152602001908152602001600020906004610e5892919061288e565b507f46a898d5bfb8140cb704c10cf4ff6ac010411db41a0d94f60d29dc9bdc24942d8282604051610e8a9291906131f9565b60405180910390a15050565b600b6020528160005260406000208160048110610eb257600080fd5b01600091509150505481565b600c54421015610f03576040517f08c379a0000000000000000000000000000000000000000000000000000000008152600401610efa90613294565b60405180910390fd5b600d544210610f47576040517f08c379a0000000000000000000000000000000000000000000000000000000008152600401610f3e90613300565b60405180910390fd5b60008073ffffffffffffffffffffffffffffffffffffffff168373ffffffffffffffffffffffffffffffffffffffff1603610f8c57610f87600034610849565b610f97565b610f968383610849565b5b9050600954811015610fde576040517f08c379a0000000000000000000000000000000000000000000000000000000008152600401610fd590613392565b60405180910390fd5b60085481600f60003373ffffffffffffffffffffffffffffffffffffffff1673ffffffffffffffffffffffffffffffffffffffff1681526020019081526020016000206000015461102f9190612d3b565b1115611070576040517f08c379a000000000000000000000000000000000000000000000000000000000815260040161106790613424565b60405180910390fd5b600754816010546110819190612d3b565b11156110c2576040517f08c379a00000000000000000000000000000000000000000000000000000000081526004016110b9906134b6565b60405180910390fd5b600073ffffffffffffffffffffffffffffffffffffffff168373ffffffffffffffffffffffffffffffffffffffff16146111f35760008211611139576040517f08c379a000000000000000000000000000000000000000000000000000000000815260040161113090613548565b60405180910390fd5b600a60008473ffffffffffffffffffffffffffffffffffffffff1673ffffffffffffffffffffffffffffffffffffffff16815260200190815260200160002060009054906101000a900460ff166111c5576040517f08c379a00000000000000000000000000000000000000000000000000000000081526004016111bc90612dbb565b60405180910390fd5b6111f23330848673ffffffffffffffffffffffffffffffffffffffff1661244e909392919063ffffffff16565b5b80601060008282546112059190612d3b565b9250508190555080600f60003373ffffffffffffffffffffffffffffffffffffffff1673ffffffffffffffffffffffffffffffffffffffff168152602001908152602001600020600001600082825461125e9190612d3b565b925050819055508273ffffffffffffffffffffffffffffffffffffffff163373ffffffffffffffffffffffffffffffffffffffff167fc244d500136edffae7025aaf7fbd7a07193ac544a1d0cc3132cf2a32452d340c84846040516112c4929190613568565b60405180910390a3505050565b60085481565b60075481565b6112e5612446565b73ffffffffffffffffffffffffffffffffffffffff16611303611747565b73ffffffffffffffffffffffffffffffffffffffff1614611359576040517f08c379a000000000000000000000000000000000000000000000000000000000815260040161135090612cec565b60405180910390fd5b61136360006124d7565b565b600090565b611372612446565b73ffffffffffffffffffffffffffffffffffffffff16611390611747565b73ffffffffffffffffffffffffffffffffffffffff16146113e6576040517f08c379a00000000000000000000000000000000000000000000000000000000081526004016113dd90612cec565b60405180910390fd5b8060088190555050565b6113f8612446565b73ffffffffffffffffffffffffffffffffffffffff16611416611747565b73ffffffffffffffffffffffffffffffffffffffff161461146c576040517f08c379a000000000000000000000000000000000000000000000000000000000815260040161146390612cec565b60405180910390fd5b600073ffffffffffffffffffffffffffffffffffffffff168273ffffffffffffffffffffffffffffffffffffffff16036114db576040517f08c379a00000000000000000000000000000000000000000000000000000000081526004016114d290613603565b60405180910390fd5b6000811161151e576040517f08c379a000000000000000000000000000000000000000000000000000000000815260040161151590613695565b60405180910390fd5b81600560006101000a81548173ffffffffffffffffffffffffffffffffffffffff021916908373ffffffffffffffffffffffffffffffffffffffff160217905550600560009054906101000a900473ffffffffffffffffffffffffffffffffffffffff1673ffffffffffffffffffffffffffffffffffffffff1663313ce5676040518163ffffffff1660e01b8152600401602060405180830381865afa1580156115cc573d6000803e3d6000fd5b505050506040513d601f19601f820116820180604052508101906115f091906136ee565b60ff16600681905550611648333083600560009054906101000a900473ffffffffffffffffffffffffffffffffffffffff1673ffffffffffffffffffffffffffffffffffffffff1661244e909392919063ffffffff16565b600560009054906101000a900473ffffffffffffffffffffffffffffffffffffffff1673ffffffffffffffffffffffffffffffffffffffff166370a08231306040518263ffffffff1660e01b81526004016116a39190612c47565b602060405180830381865afa1580156116c0573d6000803e3d6000fd5b505050506040513d601f19601f820116820180604052508101906116e49190613730565b6007819055507f03211f0a57d24f0b52e2e0573af5be089c5faadeb55f9b90591717b0a22f7e2a828260405161171b92919061375d565b60405180910390a15050565b600a6020528060005260406000206000915054906101000a900460ff1681565b60008060009054906101000a900473ffffffffffffffffffffffffffffffffffffffff16905090565b611778612446565b73ffffffffffffffffffffffffffffffffffffffff16611796611747565b73ffffffffffffffffffffffffffffffffffffffff16146117ec576040517f08c379a00000000000000000000000000000000000000000000000000000000081526004016117e390612cec565b60405180910390fd5b8060098190555050565b600c5481565b60065481565b61180a612446565b73ffffffffffffffffffffffffffffffffffffffff16611828611747565b73ffffffffffffffffffffffffffffffffffffffff161461187e576040517f08c379a000000000000000000000000000000000000000000000000000000000815260040161187590612cec565b60405180910390fd5b600d544210156118c3576040517f08c379a00000000000000000000000000000000000000000000000000000000081526004016118ba9061309c565b60405180910390fd5b600e60009054906101000a900460ff16611912576040517f08c379a0000000000000000000000000000000000000000000000000000000008152600401611909906137f8565b60405180910390fd5b6000600e60006101000a81548160ff021916908315150217905550565b60095481565b600e60009054906101000a900460ff16611984576040517f08c379a000000000000000000000000000000000000000000000000000000000815260040161197b9061388a565b60405180910390fd5b600f60003373ffffffffffffffffffffffffffffffffffffffff1673ffffffffffffffffffffffffffffffffffffffff16815260200190815260200160002060010160009054906101000a900460ff1615611a14576040517f08c379a0000000000000000000000000000000000000000000000000000000008152600401611a0b906138f6565b60405180910390fd5b6000600f60003373ffffffffffffffffffffffffffffffffffffffff1673ffffffffffffffffffffffffffffffffffffffff1681526020019081526020016000206000015490506001600f60003373ffffffffffffffffffffffffffffffffffffffff1673ffffffffffffffffffffffffffffffffffffffff16815260200190815260200160002060010160006101000a81548160ff021916908315150217905550611b033382600560009054906101000a900473ffffffffffffffffffffffffffffffffffffffff1673ffffffffffffffffffffffffffffffffffffffff1661259b9092919063ffffffff16565b3373ffffffffffffffffffffffffffffffffffffffff167fe7b379c6c1fa169e9079c25e9143b127637eef8ec8c9d5c06ddb4ab3e119588882604051611b499190612a0a565b60405180910390a250565b611b5c612446565b73ffffffffffffffffffffffffffffffffffffffff16611b7a611747565b73ffffffffffffffffffffffffffffffffffffffff1614611bd0576040517f08c379a0000000000000000000000000000000000000000000000000000000008152600401611bc790612cec565b60405180910390fd5b600a60008373ffffffffffffffffffffffffffffffffffffffff1673ffffffffffffffffffffffffffffffffffffffff16815260200190815260200160002060009054906101000a900460ff16611c5c576040517f08c379a0000000000000000000000000000000000000000000000000000000008152600401611c5390612dbb565b60405180910390fd5b80600b60008473ffffffffffffffffffffffffffffffffffffffff1673ffffffffffffffffffffffffffffffffffffffff168152602001908152602001600020906004611caa92919061288e565b507f15c54d4add16cdcd1f0a4c671837cf70c9f8f02790bb0d948710af6e0187c7d98282604051611cdc9291906131f9565b60405180910390a15050565b611cf0612446565b73ffffffffffffffffffffffffffffffffffffffff16611d0e611747565b73ffffffffffffffffffffffffffffffffffffffff1614611d64576040517f08c379a0000000000000000000000000000000000000000000000000000000008152600401611d5b90612cec565b60405180910390fd5b600d54421015611da9576040517f08c379a0000000000000000000000000000000000000000000000000000000008152600401611da09061309c565b60405180910390fd5b611df63382600560009054906101000a900473ffffffffffffffffffffffffffffffffffffffff1673ffffffffffffffffffffffffffffffffffffffff1661259b9092919063ffffffff16565b50565b60018160048110611e0957600080fd5b016000915090505481565b600560009054906101000a900473ffffffffffffffffffffffffffffffffffffffff1681565b611e42612446565b73ffffffffffffffffffffffffffffffffffffffff16611e60611747565b73ffffffffffffffffffffffffffffffffffffffff1614611eb6576040517f08c379a0000000000000000000000000000000000000000000000000000000008152600401611ead90612cec565b60405180910390fd5b806001906004611ec792919061288e565b5050565b611ed3612446565b73ffffffffffffffffffffffffffffffffffffffff16611ef1611747565b73ffffffffffffffffffffffffffffffffffffffff1614611f47576040517f08c379a0000000000000000000000000000000000000000000000000000000008152600401611f3e90612cec565b60405180910390fd5b600073ffffffffffffffffffffffffffffffffffffffff168173ffffffffffffffffffffffffffffffffffffffff1603611fb6576040517f08c379a0000000000000000000000000000000000000000000000000000000008152600401611fad90613988565b60405180910390fd5b611fbf816124d7565b50565b611fca612446565b73ffffffffffffffffffffffffffffffffffffffff16611fe8611747565b73ffffffffffffffffffffffffffffffffffffffff161461203e576040517f08c379a000000000000000000000000000000000000000000000000000000000815260040161203590612cec565b60405180910390fd5b600560009054906101000a900473ffffffffffffffffffffffffffffffffffffffff1673ffffffffffffffffffffffffffffffffffffffff168273ffffffffffffffffffffffffffffffffffffffff16036120ce576040517f08c379a00000000000000000000000000000000000000000000000000000000081526004016120c590613a40565b60405180910390fd5b6120f933828473ffffffffffffffffffffffffffffffffffffffff1661259b9092919063ffffffff16565b5050565b612105612446565b73ffffffffffffffffffffffffffffffffffffffff16612123611747565b73ffffffffffffffffffffffffffffffffffffffff1614612179576040517f08c379a000000000000000000000000000000000000000000000000000000000815260040161217090612cec565b60405180910390fd5b600560009054906101000a900473ffffffffffffffffffffffffffffffffffffffff1673ffffffffffffffffffffffffffffffffffffffff168173ffffffffffffffffffffffffffffffffffffffff1603612209576040517f08c379a000000000000000000000000000000000000000000000000000000000815260040161220090613af8565b60405180910390fd5b60008173ffffffffffffffffffffffffffffffffffffffff166370a08231306040518263ffffffff1660e01b81526004016122449190612c47565b602060405180830381865afa158015612261573d6000803e3d6000fd5b505050506040513d601f19601f820116820180604052508101906122859190613730565b90506122918282611fc2565b5050565b61229d612446565b73ffffffffffffffffffffffffffffffffffffffff166122bb611747565b73ffffffffffffffffffffffffffffffffffffffff1614612311576040517f08c379a000000000000000000000000000000000000000000000000000000000815260040161230890612cec565b60405180910390fd5b600d54421015612356576040517f08c379a000000000000000000000000000000000000000000000000000000000815260040161234d9061309c565b60405180910390fd5b6000600560009054906101000a900473ffffffffffffffffffffffffffffffffffffffff1673ffffffffffffffffffffffffffffffffffffffff166370a08231306040518263ffffffff1660e01b81526004016123b39190612c47565b602060405180830381865afa1580156123d0573d6000803e3d6000fd5b505050506040513d601f19601f820116820180604052508101906123f49190613730565b90506124433382600560009054906101000a900473ffffffffffffffffffffffffffffffffffffffff1673ffffffffffffffffffffffffffffffffffffffff1661259b9092919063ffffffff16565b50565b600033905090565b6124d1846323b872dd60e01b85858560405160240161246f93929190613b18565b604051602081830303815290604052907bffffffffffffffffffffffffffffffffffffffffffffffffffffffff19166020820180517bffffffffffffffffffffffffffffffffffffffffffffffffffffffff8381831617835250505050612621565b50505050565b60008060009054906101000a900473ffffffffffffffffffffffffffffffffffffffff169050816000806101000a81548173ffffffffffffffffffffffffffffffffffffffff021916908373ffffffffffffffffffffffffffffffffffffffff1602179055508173ffffffffffffffffffffffffffffffffffffffff168173ffffffffffffffffffffffffffffffffffffffff167f8be0079c531659141344cd1fd0a4f28419497f9722a3daafe3b4186f6b6457e060405160405180910390a35050565b61261c8363a9059cbb60e01b84846040516024016125ba92919061375d565b604051602081830303815290604052907bffffffffffffffffffffffffffffffffffffffffffffffffffffffff19166020820180517bffffffffffffffffffffffffffffffffffffffffffffffffffffffff8381831617835250505050612621565b505050565b6000612683826040518060400160405280602081526020017f5361666545524332303a206c6f772d6c6576656c2063616c6c206661696c65648152508573ffffffffffffffffffffffffffffffffffffffff166126e89092919063ffffffff16565b90506000815111156126e357808060200190518101906126a39190613b7b565b6126e2576040517f08c379a00000000000000000000000000000000000000000000000000000000081526004016126d990613c1a565b60405180910390fd5b5b505050565b60606126f78484600085612700565b90509392505050565b606082471015612745576040517f08c379a000000000000000000000000000000000000000000000000000000000815260040161273c90613cac565b60405180910390fd5b61274e85612814565b61278d576040517f08c379a000000000000000000000000000000000000000000000000000000000815260040161278490613d18565b60405180910390fd5b6000808673ffffffffffffffffffffffffffffffffffffffff1685876040516127b69190613da9565b60006040518083038185875af1925050503d80600081146127f3576040519150601f19603f3d011682016040523d82523d6000602084013e6127f8565b606091505b5091509150612808828286612827565b92505050949350505050565b600080823b905060008111915050919050565b6060831561283757829050612887565b60008351111561284a5782518084602001fd5b816040517f08c379a000000000000000000000000000000000000000000000000000000000815260040161287e9190613e04565b60405180910390fd5b9392505050565b82600481019282156128bd579160200282015b828111156128bc5782518255916020019190600101906128a1565b5b5090506128ca91906128ce565b5090565b5b808211156128e75760008160009055506001016128cf565b5090565b6000604051905090565b600080fd5b6000819050919050565b61290d816128fa565b811461291857600080fd5b50565b60008135905061292a81612904565b92915050565b600060208284031215612946576129456128f5565b5b60006129548482850161291b565b91505092915050565b600073ffffffffffffffffffffffffffffffffffffffff82169050919050565b60006129888261295d565b9050919050565b6129988161297d565b81146129a357600080fd5b50565b6000813590506129b58161298f565b92915050565b600080604083850312156129d2576129d16128f5565b5b60006129e0858286016129a6565b92505060206129f18582860161291b565b9150509250929050565b612a04816128fa565b82525050565b6000602082019050612a1f60008301846129fb565b92915050565b60008115159050919050565b612a3a81612a25565b82525050565b6000602082019050612a556000830184612a31565b92915050565b600060208284031215612a7157612a706128f5565b5b6000612a7f848285016129a6565b91505092915050565b6000604082019050612a9d60008301856129fb565b612aaa6020830184612a31565b9392505050565b600080fd5b6000601f19601f8301169050919050565b7f4e487b7100000000000000000000000000000000000000000000000000000000600052604160045260246000fd5b612aff82612ab6565b810181811067ffffffffffffffff82111715612b1e57612b1d612ac7565b5b80604052505050565b6000612b316128eb565b9050612b3d8282612af6565b919050565b600067ffffffffffffffff821115612b5d57612b5c612ac7565b5b602082029050919050565b600080fd5b6000612b80612b7b84612b42565b612b27565b90508060208402830185811115612b9a57612b99612b68565b5b835b81811015612bc35780612baf888261291b565b845260208401935050602081019050612b9c565b5050509392505050565b600082601f830112612be257612be1612ab1565b5b6004612bef848285612b6d565b91505092915050565b60008060a08385031215612c0f57612c0e6128f5565b5b6000612c1d858286016129a6565b9250506020612c2e85828601612bcd565b9150509250929050565b612c418161297d565b82525050565b6000602082019050612c5c6000830184612c38565b92915050565b600060808284031215612c7857612c776128f5565b5b6000612c8684828501612bcd565b91505092915050565b600082825260208201905092915050565b7f4f776e61626c653a2063616c6c6572206973206e6f7420746865206f776e6572600082015250565b6000612cd6602083612c8f565b9150612ce182612ca0565b602082019050919050565b60006020820190508181036000830152612d0581612cc9565b9050919050565b7f4e487b7100000000000000000000000000000000000000000000000000000000600052601160045260246000fd5b6000612d46826128fa565b9150612d51836128fa565b9250828201905080821115612d6957612d68612d0c565b5b92915050565b7f50726573616c653a20546f6b656e206e6f742077686974656c69737465640000600082015250565b6000612da5601e83612c8f565b9150612db082612d6f565b602082019050919050565b60006020820190508181036000830152612dd481612d98565b9050919050565b7f4e487b7100000000000000000000000000000000000000000000000000000000600052603260045260246000fd5b60008160011c9050919050565b6000808291508390505b6001851115612e6157808604811115612e3d57612e3c612d0c565b5b6001851615612e4c5780820291505b8081029050612e5a85612e0a565b9450612e21565b94509492505050565b600082612e7a5760019050612f36565b81612e885760009050612f36565b8160018114612e9e5760028114612ea857612ed7565b6001915050612f36565b60ff841115612eba57612eb9612d0c565b5b8360020a915084821115612ed157612ed0612d0c565b5b50612f36565b5060208310610133831016604e8410600b8410161715612f0c5782820a905083811115612f0757612f06612d0c565b5b612f36565b612f198484846001612e17565b92509050818404811115612f3057612f2f612d0c565b5b81810290505b9392505050565b6000612f48826128fa565b9150612f53836128fa565b9250612f807fffffffffffffffffffffffffffffffffffffffffffffffffffffffffffffffff8484612e6a565b905092915050565b6000612f93826128fa565b9150612f9e836128fa565b9250828202612fac816128fa565b91508282048414831517612fc357612fc2612d0c565b5b5092915050565b7f4e487b7100000000000000000000000000000000000000000000000000000000600052601260045260246000fd5b6000613004826128fa565b915061300f836128fa565b92508261301f5761301e612fca565b5b828204905092915050565b7f50726573616c653a2050726573616c6520686173206e6f7420656e646564207960008201527f6574000000000000000000000000000000000000000000000000000000000000602082015250565b6000613086602283612c8f565b91506130918261302a565b604082019050919050565b600060208201905081810360008301526130b581613079565b9050919050565b7f50726573616c653a20556e6c6f636b696e672068617320616c7265616479207360008201527f7461727465640000000000000000000000000000000000000000000000000000602082015250565b6000613118602683612c8f565b9150613123826130bc565b604082019050919050565b600060208201905081810360008301526131478161310b565b9050919050565b600060049050919050565b600081905092915050565b6000819050919050565b613177816128fa565b82525050565b6000613189838361316e565b60208301905092915050565b6000602082019050919050565b6131ab8161314e565b6131b58184613159565b92506131c082613164565b8060005b838110156131f15781516131d8878261317d565b96506131e383613195565b9250506001810190506131c4565b505050505050565b600060a08201905061320e6000830185612c38565b61321b60208301846131a2565b9392505050565b7f50726573616c653a2050726573616c6520686173206e6f74207374617274656460008201527f2079657400000000000000000000000000000000000000000000000000000000602082015250565b600061327e602483612c8f565b915061328982613222565b604082019050919050565b600060208201905081810360008301526132ad81613271565b9050919050565b7f50726573616c653a2050726573616c652068617320656e646564000000000000600082015250565b60006132ea601a83612c8f565b91506132f5826132b4565b602082019050919050565b60006020820190508181036000830152613319816132dd565b9050919050565b7f50726573616c653a204d696e20627579206c696d6974206e6f7420726561636860008201527f6564000000000000000000000000000000000000000000000000000000000000602082015250565b600061337c602283612c8f565b915061338782613320565b604082019050919050565b600060208201905081810360008301526133ab8161336f565b9050919050565b7f50726573616c653a204d617820627579206c696d69742072656163686564206660008201527f6f72207468697320706861736500000000000000000000000000000000000000602082015250565b600061340e602d83612c8f565b9150613419826133b2565b604082019050919050565b6000602082019050818103600083015261343d81613401565b9050919050565b7f50726573616c653a20546f74616c20546f6b656e2053616c652052656163686560008201527f6421000000000000000000000000000000000000000000000000000000000000602082015250565b60006134a0602283612c8f565b91506134ab82613444565b604082019050919050565b600060208201905081810360008301526134cf81613493565b9050919050565b7f50726573616c653a2043616e6e6f74206275792077697468207a65726f20616d60008201527f6f756e7400000000000000000000000000000000000000000000000000000000602082015250565b6000613532602483612c8f565b915061353d826134d6565b604082019050919050565b6000602082019050818103600083015261356181613525565b9050919050565b600060408201905061357d60008301856129fb565b61358a60208301846129fb565b9392505050565b7f50726573616c653a2053616c6520746f6b656e2063616e6e6f74206265207a6560008201527f726f206164647265737300000000000000000000000000000000000000000000602082015250565b60006135ed602a83612c8f565b91506135f882613591565b604082019050919050565b6000602082019050818103600083015261361c816135e0565b9050919050565b7f50726573616c653a20546f74616c20746f6b656e7320666f722073616c65206360008201527f616e6e6f74206265207a65726f00000000000000000000000000000000000000602082015250565b600061367f602d83612c8f565b915061368a82613623565b604082019050919050565b600060208201905081810360008301526136ae81613672565b9050919050565b600060ff82169050919050565b6136cb816136b5565b81146136d657600080fd5b50565b6000815190506136e8816136c2565b92915050565b600060208284031215613704576137036128f5565b5b6000613712848285016136d9565b91505092915050565b60008151905061372a81612904565b92915050565b600060208284031215613746576137456128f5565b5b60006137548482850161371b565b91505092915050565b60006040820190506137726000830185612c38565b61377f60208301846129fb565b9392505050565b7f50726573616c653a20556e6c6f636b696e67206861736e27742073746172746560008201527f6420796574210000000000000000000000000000000000000000000000000000602082015250565b60006137e2602683612c8f565b91506137ed82613786565b604082019050919050565b60006020820190508181036000830152613811816137d5565b9050919050565b7f50726573616c653a204c6f636b696e6720706572696f64206e6f74206f76657260008201527f2079657400000000000000000000000000000000000000000000000000000000602082015250565b6000613874602483612c8f565b915061387f82613818565b604082019050919050565b600060208201905081810360008301526138a381613867565b9050919050565b7f50726573616c653a20416c726561647920636c61696d65640000000000000000600082015250565b60006138e0601883612c8f565b91506138eb826138aa565b602082019050919050565b6000602082019050818103600083015261390f816138d3565b9050919050565b7f4f776e61626c653a206e6577206f776e657220697320746865207a65726f206160008201527f6464726573730000000000000000000000000000000000000000000000000000602082015250565b6000613972602683612c8f565b915061397d82613916565b604082019050919050565b600060208201905081810360008301526139a181613965565b9050919050565b7f50726573616c653a2043616e6e6f742077697468647261772073616c6520746f60008201527f6b656e20776974682074686973206d6574686f642c207573652077697468647260208201527f617753616c65546f6b656e282920696e73746561640000000000000000000000604082015250565b6000613a2a605583612c8f565b9150613a35826139a8565b606082019050919050565b60006020820190508181036000830152613a5981613a1d565b9050919050565b7f50726573616c653a2043616e6e6f742077697468647261772073616c6520746f60008201527f6b656e20776974682074686973206d6574686f642c207573652077697468647260208201527f6177416c6c53616c65546f6b656e282920696e73746561640000000000000000604082015250565b6000613ae2605883612c8f565b9150613aed82613a60565b606082019050919050565b60006020820190508181036000830152613b1181613ad5565b9050919050565b6000606082019050613b2d6000830186612c38565b613b3a6020830185612c38565b613b4760408301846129fb565b949350505050565b613b5881612a25565b8114613b6357600080fd5b50565b600081519050613b7581613b4f565b92915050565b600060208284031215613b9157613b906128f5565b5b6000613b9f84828501613b66565b91505092915050565b7f5361666545524332303a204552433230206f7065726174696f6e20646964206e60008201527f6f74207375636365656400000000000000000000000000000000000000000000602082015250565b6000613c04602a83612c8f565b9150613c0f82613ba8565b604082019050919050565b60006020820190508181036000830152613c3381613bf7565b9050919050565b7f416464726573733a20696e73756666696369656e742062616c616e636520666f60008201527f722063616c6c0000000000000000000000000000000000000000000000000000602082015250565b6000613c96602683612c8f565b9150613ca182613c3a565b604082019050919050565b60006020820190508181036000830152613cc581613c89565b9050919050565b7f416464726573733a2063616c6c20746f206e6f6e2d636f6e7472616374000000600082015250565b6000613d02601d83612c8f565b9150613d0d82613ccc565b602082019050919050565b60006020820190508181036000830152613d3181613cf5565b9050919050565b600081519050919050565b600081905092915050565b60005b83811015613d6c578082015181840152602081019050613d51565b60008484015250505050565b6000613d8382613d38565b613d8d8185613d43565b9350613d9d818560208601613d4e565b80840191505092915050565b6000613db58284613d78565b915081905092915050565b600081519050919050565b6000613dd682613dc0565b613de08185612c8f565b9350613df0818560208601613d4e565b613df981612ab6565b840191505092915050565b60006020820190508181036000830152613e1e8184613dcb565b90509291505056fea26469706673582212208aa4adaa16cc526fa1e413e80d2f1aebe13d031c56f15cbdca6d5be60467172364736f6c63430008120033",
					"opcodes": "PUSH1 0x80 PUSH1 0x40 MSTORE CALLVALUE DUP1 ISZERO PUSH3 0x11 JUMPI PUSH1 0x0 DUP1 REVERT JUMPDEST POP PUSH3 0x32 PUSH3 0x26 PUSH3 0x38 PUSH1 0x20 SHL PUSH1 0x20 SHR JUMP JUMPDEST PUSH3 0x40 PUSH1 0x20 SHL PUSH1 0x20 SHR JUMP JUMPDEST PUSH3 0x104 JUMP JUMPDEST PUSH1 0x0 CALLER SWAP1 POP SWAP1 JUMP JUMPDEST PUSH1 0x0 DUP1 PUSH1 0x0 SWAP1 SLOAD SWAP1 PUSH2 0x100 EXP SWAP1 DIV PUSH20 0xFFFFFFFFFFFFFFFFFFFFFFFFFFFFFFFFFFFFFFFF AND SWAP1 POP DUP2 PUSH1 0x0 DUP1 PUSH2 0x100 EXP DUP2 SLOAD DUP2 PUSH20 0xFFFFFFFFFFFFFFFFFFFFFFFFFFFFFFFFFFFFFFFF MUL NOT AND SWAP1 DUP4 PUSH20 0xFFFFFFFFFFFFFFFFFFFFFFFFFFFFFFFFFFFFFFFF AND MUL OR SWAP1 SSTORE POP DUP2 PUSH20 0xFFFFFFFFFFFFFFFFFFFFFFFFFFFFFFFFFFFFFFFF AND DUP2 PUSH20 0xFFFFFFFFFFFFFFFFFFFFFFFFFFFFFFFFFFFFFFFF AND PUSH32 0x8BE0079C531659141344CD1FD0A4F28419497F9722A3DAAFE3B4186F6B6457E0 PUSH1 0x40 MLOAD PUSH1 0x40 MLOAD DUP1 SWAP2 SUB SWAP1 LOG3 POP POP JUMP JUMPDEST PUSH2 0x3E5C DUP1 PUSH3 0x114 PUSH1 0x0 CODECOPY PUSH1 0x0 RETURN INVALID PUSH1 0x80 PUSH1 0x40 MSTORE PUSH1 0x4 CALLDATASIZE LT PUSH2 0x204 JUMPI PUSH1 0x0 CALLDATALOAD PUSH1 0xE0 SHR DUP1 PUSH4 0x89E6CE1E GT PUSH2 0x118 JUMPI DUP1 PUSH4 0xCAE70C70 GT PUSH2 0xA0 JUMPI DUP1 PUSH4 0xEE774CCD GT PUSH2 0x6F JUMPI DUP1 PUSH4 0xEE774CCD EQ PUSH2 0x6FD JUMPI DUP1 PUSH4 0xF2FDE38B EQ PUSH2 0x726 JUMPI DUP1 PUSH4 0xF3FEF3A3 EQ PUSH2 0x74F JUMPI DUP1 PUSH4 0xFA09E630 EQ PUSH2 0x778 JUMPI DUP1 PUSH4 0xFB00F3FC EQ PUSH2 0x7A1 JUMPI PUSH2 0x204 JUMP JUMPDEST DUP1 PUSH4 0xCAE70C70 EQ PUSH2 0x643 JUMPI DUP1 PUSH4 0xDED441C2 EQ PUSH2 0x66C JUMPI DUP1 PUSH4 0xE7EE6AD6 EQ PUSH2 0x695 JUMPI DUP1 PUSH4 0xE985E367 EQ PUSH2 0x6D2 JUMPI PUSH2 0x204 JUMP JUMPDEST DUP1 PUSH4 0xA82524B2 GT PUSH2 0xE7 JUMPI DUP1 PUSH4 0xA82524B2 EQ PUSH2 0x594 JUMPI DUP1 PUSH4 0xACE1741C EQ PUSH2 0x5BF JUMPI DUP1 PUSH4 0xB5B0763C EQ PUSH2 0x5EA JUMPI DUP1 PUSH4 0xB81DF742 EQ PUSH2 0x601 JUMPI DUP1 PUSH4 0xCA628C78 EQ PUSH2 0x62C JUMPI PUSH2 0x204 JUMP JUMPDEST DUP1 PUSH4 0x89E6CE1E EQ PUSH2 0x4DA JUMPI DUP1 PUSH4 0x8CE0B9D2 EQ PUSH2 0x503 JUMPI DUP1 PUSH4 0x8DA5CB5B EQ PUSH2 0x540 JUMPI DUP1 PUSH4 0x99B77032 EQ PUSH2 0x56B JUMPI PUSH2 0x204 JUMP JUMPDEST DUP1 PUSH4 0x63B20117 GT PUSH2 0x19B JUMPI DUP1 PUSH4 0x6AA5B37F GT PUSH2 0x16A JUMPI DUP1 PUSH4 0x6AA5B37F EQ PUSH2 0x419 JUMPI DUP1 PUSH4 0x6BCEDF9C EQ PUSH2 0x444 JUMPI DUP1 PUSH4 0x715018A6 EQ PUSH2 0x46F JUMPI DUP1 PUSH4 0x7412C223 EQ PUSH2 0x486 JUMPI DUP1 PUSH4 0x757765F8 EQ PUSH2 0x4B1 JUMPI PUSH2 0x204 JUMP JUMPDEST DUP1 PUSH4 0x63B20117 EQ PUSH2 0x36C JUMPI DUP1 PUSH4 0x65617DB1 EQ PUSH2 0x397 JUMPI DUP1 PUSH4 0x683B3B97 EQ PUSH2 0x3C0 JUMPI DUP1 PUSH4 0x68F8FC10 EQ PUSH2 0x3FD JUMPI PUSH2 0x204 JUMP JUMPDEST DUP1 PUSH4 0x3848A771 GT PUSH2 0x1D7 JUMPI DUP1 PUSH4 0x3848A771 EQ PUSH2 0x2B1 JUMPI DUP1 PUSH4 0x3C00A36C EQ PUSH2 0x2DC JUMPI DUP1 PUSH4 0x54A9F102 EQ PUSH2 0x305 JUMPI DUP1 PUSH4 0x5B10BD6A EQ PUSH2 0x343 JUMPI PUSH2 0x204 JUMP JUMPDEST DUP1 PUSH4 0xFABDD44 EQ PUSH2 0x209 JUMPI DUP1 PUSH4 0x115ECE4C EQ PUSH2 0x232 JUMPI DUP1 PUSH4 0x249B7C19 EQ PUSH2 0x26F JUMPI DUP1 PUSH4 0x2A95C24C EQ PUSH2 0x29A JUMPI JUMPDEST PUSH1 0x0 DUP1 REVERT JUMPDEST CALLVALUE DUP1 ISZERO PUSH2 0x215 JUMPI PUSH1 0x0 DUP1 REVERT JUMPDEST POP PUSH2 0x230 PUSH1 0x4 DUP1 CALLDATASIZE SUB DUP2 ADD SWAP1 PUSH2 0x22B SWAP2 SWAP1 PUSH2 0x2930 JUMP JUMPDEST PUSH2 0x7B8 JUMP JUMPDEST STOP JUMPDEST CALLVALUE DUP1 ISZERO PUSH2 0x23E JUMPI PUSH1 0x0 DUP1 REVERT JUMPDEST POP PUSH2 0x259 PUSH1 0x4 DUP1 CALLDATASIZE SUB DUP2 ADD SWAP1 PUSH2 0x254 SWAP2 SWAP1 PUSH2 0x29BB JUMP JUMPDEST PUSH2 0x849 JUMP JUMPDEST PUSH1 0x40 MLOAD PUSH2 0x266 SWAP2 SWAP1 PUSH2 0x2A0A JUMP JUMPDEST PUSH1 0x40 MLOAD DUP1 SWAP2 SUB SWAP1 RETURN JUMPDEST CALLVALUE DUP1 ISZERO PUSH2 0x27B JUMPI PUSH1 0x0 DUP1 REVERT JUMPDEST POP PUSH2 0x284 PUSH2 0xA65 JUMP JUMPDEST PUSH1 0x40 MLOAD PUSH2 0x291 SWAP2 SWAP1 PUSH2 0x2A0A JUMP JUMPDEST PUSH1 0x40 MLOAD DUP1 SWAP2 SUB SWAP1 RETURN JUMPDEST CALLVALUE DUP1 ISZERO PUSH2 0x2A6 JUMPI PUSH1 0x0 DUP1 REVERT JUMPDEST POP PUSH2 0x2AF PUSH2 0xA6B JUMP JUMPDEST STOP JUMPDEST CALLVALUE DUP1 ISZERO PUSH2 0x2BD JUMPI PUSH1 0x0 DUP1 REVERT JUMPDEST POP PUSH2 0x2C6 PUSH2 0xB99 JUMP JUMPDEST PUSH1 0x40 MLOAD PUSH2 0x2D3 SWAP2 SWAP1 PUSH2 0x2A40 JUMP JUMPDEST PUSH1 0x40 MLOAD DUP1 SWAP2 SUB SWAP1 RETURN JUMPDEST CALLVALUE DUP1 ISZERO PUSH2 0x2E8 JUMPI PUSH1 0x0 DUP1 REVERT JUMPDEST POP PUSH2 0x303 PUSH1 0x4 DUP1 CALLDATASIZE SUB DUP2 ADD SWAP1 PUSH2 0x2FE SWAP2 SWAP1 PUSH2 0x2930 JUMP JUMPDEST PUSH2 0xBAC JUMP JUMPDEST STOP JUMPDEST CALLVALUE DUP1 ISZERO PUSH2 0x311 JUMPI PUSH1 0x0 DUP1 REVERT JUMPDEST POP PUSH2 0x32C PUSH1 0x4 DUP1 CALLDATASIZE SUB DUP2 ADD SWAP1 PUSH2 0x327 SWAP2 SWAP1 PUSH2 0x2A5B JUMP JUMPDEST PUSH2 0xC72 JUMP JUMPDEST PUSH1 0x40 MLOAD PUSH2 0x33A SWAP3 SWAP2 SWAP1 PUSH2 0x2A88 JUMP JUMPDEST PUSH1 0x40 MLOAD DUP1 SWAP2 SUB SWAP1 RETURN JUMPDEST CALLVALUE DUP1 ISZERO PUSH2 0x34F JUMPI PUSH1 0x0 DUP1 REVERT JUMPDEST POP PUSH2 0x36A PUSH1 0x4 DUP1 CALLDATASIZE SUB DUP2 ADD SWAP1 PUSH2 0x365 SWAP2 SWAP1 PUSH2 0x2930 JUMP JUMPDEST PUSH2 0xCA3 JUMP JUMPDEST STOP JUMPDEST CALLVALUE DUP1 ISZERO PUSH2 0x378 JUMPI PUSH1 0x0 DUP1 REVERT JUMPDEST POP PUSH2 0x381 PUSH2 0xD30 JUMP JUMPDEST PUSH1 0x40 MLOAD PUSH2 0x38E SWAP2 SWAP1 PUSH2 0x2A0A JUMP JUMPDEST PUSH1 0x40 MLOAD DUP1 SWAP2 SUB SWAP1 RETURN JUMPDEST CALLVALUE DUP1 ISZERO PUSH2 0x3A3 JUMPI PUSH1 0x0 DUP1 REVERT JUMPDEST POP PUSH2 0x3BE PUSH1 0x4 DUP1 CALLDATASIZE SUB DUP2 ADD SWAP1 PUSH2 0x3B9 SWAP2 SWAP1 PUSH2 0x2BF8 JUMP JUMPDEST PUSH2 0xD36 JUMP JUMPDEST STOP JUMPDEST CALLVALUE DUP1 ISZERO PUSH2 0x3CC JUMPI PUSH1 0x0 DUP1 REVERT JUMPDEST POP PUSH2 0x3E7 PUSH1 0x4 DUP1 CALLDATASIZE SUB DUP2 ADD SWAP1 PUSH2 0x3E2 SWAP2 SWAP1 PUSH2 0x29BB JUMP JUMPDEST PUSH2 0xE96 JUMP JUMPDEST PUSH1 0x40 MLOAD PUSH2 0x3F4 SWAP2 SWAP1 PUSH2 0x2A0A JUMP JUMPDEST PUSH1 0x40 MLOAD DUP1 SWAP2 SUB SWAP1 RETURN JUMPDEST PUSH2 0x417 PUSH1 0x4 DUP1 CALLDATASIZE SUB DUP2 ADD SWAP1 PUSH2 0x412 SWAP2 SWAP1 PUSH2 0x29BB JUMP JUMPDEST PUSH2 0xEBE JUMP JUMPDEST STOP JUMPDEST CALLVALUE DUP1 ISZERO PUSH2 0x425 JUMPI PUSH1 0x0 DUP1 REVERT JUMPDEST POP PUSH2 0x42E PUSH2 0x12D1 JUMP JUMPDEST PUSH1 0x40 MLOAD PUSH2 0x43B SWAP2 SWAP1 PUSH2 0x2A0A JUMP JUMPDEST PUSH1 0x40 MLOAD DUP1 SWAP2 SUB SWAP1 RETURN JUMPDEST CALLVALUE DUP1 ISZERO PUSH2 0x450 JUMPI PUSH1 0x0 DUP1 REVERT JUMPDEST POP PUSH2 0x459 PUSH2 0x12D7 JUMP JUMPDEST PUSH1 0x40 MLOAD PUSH2 0x466 SWAP2 SWAP1 PUSH2 0x2A0A JUMP JUMPDEST PUSH1 0x40 MLOAD DUP1 SWAP2 SUB SWAP1 RETURN JUMPDEST CALLVALUE DUP1 ISZERO PUSH2 0x47B JUMPI PUSH1 0x0 DUP1 REVERT JUMPDEST POP PUSH2 0x484 PUSH2 0x12DD JUMP JUMPDEST STOP JUMPDEST CALLVALUE DUP1 ISZERO PUSH2 0x492 JUMPI PUSH1 0x0 DUP1 REVERT JUMPDEST POP PUSH2 0x49B PUSH2 0x1365 JUMP JUMPDEST PUSH1 0x40 MLOAD PUSH2 0x4A8 SWAP2 SWAP1 PUSH2 0x2A0A JUMP JUMPDEST PUSH1 0x40 MLOAD DUP1 SWAP2 SUB SWAP1 RETURN JUMPDEST CALLVALUE DUP1 ISZERO PUSH2 0x4BD JUMPI PUSH1 0x0 DUP1 REVERT JUMPDEST POP PUSH2 0x4D8 PUSH1 0x4 DUP1 CALLDATASIZE SUB DUP2 ADD SWAP1 PUSH2 0x4D3 SWAP2 SWAP1 PUSH2 0x2930 JUMP JUMPDEST PUSH2 0x136A JUMP JUMPDEST STOP JUMPDEST CALLVALUE DUP1 ISZERO PUSH2 0x4E6 JUMPI PUSH1 0x0 DUP1 REVERT JUMPDEST POP PUSH2 0x501 PUSH1 0x4 DUP1 CALLDATASIZE SUB DUP2 ADD SWAP1 PUSH2 0x4FC SWAP2 SWAP1 PUSH2 0x29BB JUMP JUMPDEST PUSH2 0x13F0 JUMP JUMPDEST STOP JUMPDEST CALLVALUE DUP1 ISZERO PUSH2 0x50F JUMPI PUSH1 0x0 DUP1 REVERT JUMPDEST POP PUSH2 0x52A PUSH1 0x4 DUP1 CALLDATASIZE SUB DUP2 ADD SWAP1 PUSH2 0x525 SWAP2 SWAP1 PUSH2 0x2A5B JUMP JUMPDEST PUSH2 0x1727 JUMP JUMPDEST PUSH1 0x40 MLOAD PUSH2 0x537 SWAP2 SWAP1 PUSH2 0x2A40 JUMP JUMPDEST PUSH1 0x40 MLOAD DUP1 SWAP2 SUB SWAP1 RETURN JUMPDEST CALLVALUE DUP1 ISZERO PUSH2 0x54C JUMPI PUSH1 0x0 DUP1 REVERT JUMPDEST POP PUSH2 0x555 PUSH2 0x1747 JUMP JUMPDEST PUSH1 0x40 MLOAD PUSH2 0x562 SWAP2 SWAP1 PUSH2 0x2C47 JUMP JUMPDEST PUSH1 0x40 MLOAD DUP1 SWAP2 SUB SWAP1 RETURN JUMPDEST CALLVALUE DUP1 ISZERO PUSH2 0x577 JUMPI PUSH1 0x0 DUP1 REVERT JUMPDEST POP PUSH2 0x592 PUSH1 0x4 DUP1 CALLDATASIZE SUB DUP2 ADD SWAP1 PUSH2 0x58D SWAP2 SWAP1 PUSH2 0x2930 JUMP JUMPDEST PUSH2 0x1770 JUMP JUMPDEST STOP JUMPDEST CALLVALUE DUP1 ISZERO PUSH2 0x5A0 JUMPI PUSH1 0x0 DUP1 REVERT JUMPDEST POP PUSH2 0x5A9 PUSH2 0x17F6 JUMP JUMPDEST PUSH1 0x40 MLOAD PUSH2 0x5B6 SWAP2 SWAP1 PUSH2 0x2A0A JUMP JUMPDEST PUSH1 0x40 MLOAD DUP1 SWAP2 SUB SWAP1 RETURN JUMPDEST CALLVALUE DUP1 ISZERO PUSH2 0x5CB JUMPI PUSH1 0x0 DUP1 REVERT JUMPDEST POP PUSH2 0x5D4 PUSH2 0x17FC JUMP JUMPDEST PUSH1 0x40 MLOAD PUSH2 0x5E1 SWAP2 SWAP1 PUSH2 0x2A0A JUMP JUMPDEST PUSH1 0x40 MLOAD DUP1 SWAP2 SUB SWAP1 RETURN JUMPDEST CALLVALUE DUP1 ISZERO PUSH2 0x5F6 JUMPI PUSH1 0x0 DUP1 REVERT JUMPDEST POP PUSH2 0x5FF PUSH2 0x1802 JUMP JUMPDEST STOP JUMPDEST CALLVALUE DUP1 ISZERO PUSH2 0x60D JUMPI PUSH1 0x0 DUP1 REVERT JUMPDEST POP PUSH2 0x616 PUSH2 0x192F JUMP JUMPDEST PUSH1 0x40 MLOAD PUSH2 0x623 SWAP2 SWAP1 PUSH2 0x2A0A JUMP JUMPDEST PUSH1 0x40 MLOAD DUP1 SWAP2 SUB SWAP1 RETURN JUMPDEST CALLVALUE DUP1 ISZERO PUSH2 0x638 JUMPI PUSH1 0x0 DUP1 REVERT JUMPDEST POP PUSH2 0x641 PUSH2 0x1935 JUMP JUMPDEST STOP JUMPDEST CALLVALUE DUP1 ISZERO PUSH2 0x64F JUMPI PUSH1 0x0 DUP1 REVERT JUMPDEST POP PUSH2 0x66A PUSH1 0x4 DUP1 CALLDATASIZE SUB DUP2 ADD SWAP1 PUSH2 0x665 SWAP2 SWAP1 PUSH2 0x2BF8 JUMP JUMPDEST PUSH2 0x1B54 JUMP JUMPDEST STOP JUMPDEST CALLVALUE DUP1 ISZERO PUSH2 0x678 JUMPI PUSH1 0x0 DUP1 REVERT JUMPDEST POP PUSH2 0x693 PUSH1 0x4 DUP1 CALLDATASIZE SUB DUP2 ADD SWAP1 PUSH2 0x68E SWAP2 SWAP1 PUSH2 0x2930 JUMP JUMPDEST PUSH2 0x1CE8 JUMP JUMPDEST STOP JUMPDEST CALLVALUE DUP1 ISZERO PUSH2 0x6A1 JUMPI PUSH1 0x0 DUP1 REVERT JUMPDEST POP PUSH2 0x6BC PUSH1 0x4 DUP1 CALLDATASIZE SUB DUP2 ADD SWAP1 PUSH2 0x6B7 SWAP2 SWAP1 PUSH2 0x2930 JUMP JUMPDEST PUSH2 0x1DF9 JUMP JUMPDEST PUSH1 0x40 MLOAD PUSH2 0x6C9 SWAP2 SWAP1 PUSH2 0x2A0A JUMP JUMPDEST PUSH1 0x40 MLOAD DUP1 SWAP2 SUB SWAP1 RETURN JUMPDEST CALLVALUE DUP1 ISZERO PUSH2 0x6DE JUMPI PUSH1 0x0 DUP1 REVERT JUMPDEST POP PUSH2 0x6E7 PUSH2 0x1E14 JUMP JUMPDEST PUSH1 0x40 MLOAD PUSH2 0x6F4 SWAP2 SWAP1 PUSH2 0x2C47 JUMP JUMPDEST PUSH1 0x40 MLOAD DUP1 SWAP2 SUB SWAP1 RETURN JUMPDEST CALLVALUE DUP1 ISZERO PUSH2 0x709 JUMPI PUSH1 0x0 DUP1 REVERT JUMPDEST POP PUSH2 0x724 PUSH1 0x4 DUP1 CALLDATASIZE SUB DUP2 ADD SWAP1 PUSH2 0x71F SWAP2 SWAP1 PUSH2 0x2C62 JUMP JUMPDEST PUSH2 0x1E3A JUMP JUMPDEST STOP JUMPDEST CALLVALUE DUP1 ISZERO PUSH2 0x732 JUMPI PUSH1 0x0 DUP1 REVERT JUMPDEST POP PUSH2 0x74D PUSH1 0x4 DUP1 CALLDATASIZE SUB DUP2 ADD SWAP1 PUSH2 0x748 SWAP2 SWAP1 PUSH2 0x2A5B JUMP JUMPDEST PUSH2 0x1ECB JUMP JUMPDEST STOP JUMPDEST CALLVALUE DUP1 ISZERO PUSH2 0x75B JUMPI PUSH1 0x0 DUP1 REVERT JUMPDEST POP PUSH2 0x776 PUSH1 0x4 DUP1 CALLDATASIZE SUB DUP2 ADD SWAP1 PUSH2 0x771 SWAP2 SWAP1 PUSH2 0x29BB JUMP JUMPDEST PUSH2 0x1FC2 JUMP JUMPDEST STOP JUMPDEST CALLVALUE DUP1 ISZERO PUSH2 0x784 JUMPI PUSH1 0x0 DUP1 REVERT JUMPDEST POP PUSH2 0x79F PUSH1 0x4 DUP1 CALLDATASIZE SUB DUP2 ADD SWAP1 PUSH2 0x79A SWAP2 SWAP1 PUSH2 0x2A5B JUMP JUMPDEST PUSH2 0x20FD JUMP JUMPDEST STOP JUMPDEST CALLVALUE DUP1 ISZERO PUSH2 0x7AD JUMPI PUSH1 0x0 DUP1 REVERT JUMPDEST POP PUSH2 0x7B6 PUSH2 0x2295 JUMP JUMPDEST STOP JUMPDEST PUSH2 0x7C0 PUSH2 0x2446 JUMP JUMPDEST PUSH20 0xFFFFFFFFFFFFFFFFFFFFFFFFFFFFFFFFFFFFFFFF AND PUSH2 0x7DE PUSH2 0x1747 JUMP JUMPDEST PUSH20 0xFFFFFFFFFFFFFFFFFFFFFFFFFFFFFFFFFFFFFFFF AND EQ PUSH2 0x834 JUMPI PUSH1 0x40 MLOAD PUSH32 0x8C379A000000000000000000000000000000000000000000000000000000000 DUP2 MSTORE PUSH1 0x4 ADD PUSH2 0x82B SWAP1 PUSH2 0x2CEC JUMP JUMPDEST PUSH1 0x40 MLOAD DUP1 SWAP2 SUB SWAP1 REVERT JUMPDEST DUP1 TIMESTAMP PUSH2 0x840 SWAP2 SWAP1 PUSH2 0x2D3B JUMP JUMPDEST PUSH1 0xD DUP2 SWAP1 SSTORE POP POP JUMP JUMPDEST PUSH1 0x0 DUP1 PUSH1 0x0 PUSH2 0x856 PUSH2 0x1365 JUMP JUMPDEST SWAP1 POP PUSH1 0x0 PUSH20 0xFFFFFFFFFFFFFFFFFFFFFFFFFFFFFFFFFFFFFFFF AND DUP6 PUSH20 0xFFFFFFFFFFFFFFFFFFFFFFFFFFFFFFFFFFFFFFFF AND EQ PUSH2 0x9F8 JUMPI PUSH1 0xA PUSH1 0x0 DUP7 PUSH20 0xFFFFFFFFFFFFFFFFFFFFFFFFFFFFFFFFFFFFFFFF AND PUSH20 0xFFFFFFFFFFFFFFFFFFFFFFFFFFFFFFFFFFFFFFFF AND DUP2 MSTORE PUSH1 0x20 ADD SWAP1 DUP2 MSTORE PUSH1 0x20 ADD PUSH1 0x0 KECCAK256 PUSH1 0x0 SWAP1 SLOAD SWAP1 PUSH2 0x100 EXP SWAP1 DIV PUSH1 0xFF AND PUSH2 0x918 JUMPI PUSH1 0x40 MLOAD PUSH32 0x8C379A000000000000000000000000000000000000000000000000000000000 DUP2 MSTORE PUSH1 0x4 ADD PUSH2 0x90F SWAP1 PUSH2 0x2DBB JUMP JUMPDEST PUSH1 0x40 MLOAD DUP1 SWAP2 SUB SWAP1 REVERT JUMPDEST PUSH1 0x0 PUSH1 0xB PUSH1 0x0 DUP8 PUSH20 0xFFFFFFFFFFFFFFFFFFFFFFFFFFFFFFFFFFFFFFFF AND PUSH20 0xFFFFFFFFFFFFFFFFFFFFFFFFFFFFFFFFFFFFFFFF AND DUP2 MSTORE PUSH1 0x20 ADD SWAP1 DUP2 MSTORE PUSH1 0x20 ADD PUSH1 0x0 KECCAK256 DUP3 PUSH1 0x4 DUP2 LT PUSH2 0x96B JUMPI PUSH2 0x96A PUSH2 0x2DDB JUMP JUMPDEST JUMPDEST ADD SLOAD SUB PUSH2 0x979 JUMPI PUSH1 0x0 PUSH2 0x9F1 JUMP JUMPDEST PUSH1 0xB PUSH1 0x0 DUP7 PUSH20 0xFFFFFFFFFFFFFFFFFFFFFFFFFFFFFFFFFFFFFFFF AND PUSH20 0xFFFFFFFFFFFFFFFFFFFFFFFFFFFFFFFFFFFFFFFF AND DUP2 MSTORE PUSH1 0x20 ADD SWAP1 DUP2 MSTORE PUSH1 0x20 ADD PUSH1 0x0 KECCAK256 DUP2 PUSH1 0x4 DUP2 LT PUSH2 0x9CA JUMPI PUSH2 0x9C9 PUSH2 0x2DDB JUMP JUMPDEST JUMPDEST ADD SLOAD PUSH1 0x6 SLOAD PUSH1 0xA PUSH2 0x9DB SWAP2 SWAP1 PUSH2 0x2F3D JUMP JUMPDEST DUP6 PUSH2 0x9E6 SWAP2 SWAP1 PUSH2 0x2F88 JUMP JUMPDEST PUSH2 0x9F0 SWAP2 SWAP1 PUSH2 0x2FF9 JUMP JUMPDEST JUMPDEST SWAP2 POP PUSH2 0xA5A JUMP JUMPDEST PUSH1 0x0 PUSH1 0x1 DUP3 PUSH1 0x4 DUP2 LT PUSH2 0xA0E JUMPI PUSH2 0xA0D PUSH2 0x2DDB JUMP JUMPDEST JUMPDEST ADD SLOAD SUB PUSH2 0xA1C JUMPI PUSH1 0x0 PUSH2 0xA57 JUMP JUMPDEST PUSH1 0x1 DUP2 PUSH1 0x4 DUP2 LT PUSH2 0xA30 JUMPI PUSH2 0xA2F PUSH2 0x2DDB JUMP JUMPDEST JUMPDEST ADD SLOAD PUSH1 0x6 SLOAD PUSH1 0xA PUSH2 0xA41 SWAP2 SWAP1 PUSH2 0x2F3D JUMP JUMPDEST DUP6 PUSH2 0xA4C SWAP2 SWAP1 PUSH2 0x2F88 JUMP JUMPDEST PUSH2 0xA56 SWAP2 SWAP1 PUSH2 0x2FF9 JUMP JUMPDEST JUMPDEST SWAP2 POP JUMPDEST DUP2 SWAP3 POP POP POP SWAP3 SWAP2 POP POP JUMP JUMPDEST PUSH1 0xD SLOAD DUP2 JUMP JUMPDEST PUSH2 0xA73 PUSH2 0x2446 JUMP JUMPDEST PUSH20 0xFFFFFFFFFFFFFFFFFFFFFFFFFFFFFFFFFFFFFFFF AND PUSH2 0xA91 PUSH2 0x1747 JUMP JUMPDEST PUSH20 0xFFFFFFFFFFFFFFFFFFFFFFFFFFFFFFFFFFFFFFFF AND EQ PUSH2 0xAE7 JUMPI PUSH1 0x40 MLOAD PUSH32 0x8C379A000000000000000000000000000000000000000000000000000000000 DUP2 MSTORE PUSH1 0x4 ADD PUSH2 0xADE SWAP1 PUSH2 0x2CEC JUMP JUMPDEST PUSH1 0x40 MLOAD DUP1 SWAP2 SUB SWAP1 REVERT JUMPDEST PUSH1 0xD SLOAD TIMESTAMP LT ISZERO PUSH2 0xB2C JUMPI PUSH1 0x40 MLOAD PUSH32 0x8C379A000000000000000000000000000000000000000000000000000000000 DUP2 MSTORE PUSH1 0x4 ADD PUSH2 0xB23 SWAP1 PUSH2 0x309C JUMP JUMPDEST PUSH1 0x40 MLOAD DUP1 SWAP2 SUB SWAP1 REVERT JUMPDEST PUSH1 0xE PUSH1 0x0 SWAP1 SLOAD SWAP1 PUSH2 0x100 EXP SWAP1 DIV PUSH1 0xFF AND ISZERO PUSH2 0xB7C JUMPI PUSH1 0x40 MLOAD PUSH32 0x8C379A000000000000000000000000000000000000000000000000000000000 DUP2 MSTORE PUSH1 0x4 ADD PUSH2 0xB73 SWAP1 PUSH2 0x312E JUMP JUMPDEST PUSH1 0x40 MLOAD DUP1 SWAP2 SUB SWAP1 REVERT JUMPDEST PUSH1 0x1 PUSH1 0xE PUSH1 0x0 PUSH2 0x100 EXP DUP2 SLOAD DUP2 PUSH1 0xFF MUL NOT AND SWAP1 DUP4 ISZERO ISZERO MUL OR SWAP1 SSTORE POP JUMP JUMPDEST PUSH1 0xE PUSH1 0x0 SWAP1 SLOAD SWAP1 PUSH2 0x100 EXP SWAP1 DIV PUSH1 0xFF AND DUP2 JUMP JUMPDEST PUSH2 0xBB4 PUSH2 0x2446 JUMP JUMPDEST PUSH20 0xFFFFFFFFFFFFFFFFFFFFFFFFFFFFFFFFFFFFFFFF AND PUSH2 0xBD2 PUSH2 0x1747 JUMP JUMPDEST PUSH20 0xFFFFFFFFFFFFFFFFFFFFFFFFFFFFFFFFFFFFFFFF AND EQ PUSH2 0xC28 JUMPI PUSH1 0x40 MLOAD PUSH32 0x8C379A000000000000000000000000000000000000000000000000000000000 DUP2 MSTORE PUSH1 0x4 ADD PUSH2 0xC1F SWAP1 PUSH2 0x2CEC JUMP JUMPDEST PUSH1 0x40 MLOAD DUP1 SWAP2 SUB SWAP1 REVERT JUMPDEST CALLER PUSH20 0xFFFFFFFFFFFFFFFFFFFFFFFFFFFFFFFFFFFFFFFF AND PUSH2 0x8FC DUP3 SWAP1 DUP2 ISZERO MUL SWAP1 PUSH1 0x40 MLOAD PUSH1 0x0 PUSH1 0x40 MLOAD DUP1 DUP4 SUB DUP2 DUP6 DUP9 DUP9 CALL SWAP4 POP POP POP POP ISZERO DUP1 ISZERO PUSH2 0xC6E JUMPI RETURNDATASIZE PUSH1 0x0 DUP1 RETURNDATACOPY RETURNDATASIZE PUSH1 0x0 REVERT JUMPDEST POP POP JUMP JUMPDEST PUSH1 0xF PUSH1 0x20 MSTORE DUP1 PUSH1 0x0 MSTORE PUSH1 0x40 PUSH1 0x0 KECCAK256 PUSH1 0x0 SWAP2 POP SWAP1 POP DUP1 PUSH1 0x0 ADD SLOAD SWAP1 DUP1 PUSH1 0x1 ADD PUSH1 0x0 SWAP1 SLOAD SWAP1 PUSH2 0x100 EXP SWAP1 DIV PUSH1 0xFF AND SWAP1 POP DUP3 JUMP JUMPDEST PUSH2 0xCAB PUSH2 0x2446 JUMP JUMPDEST PUSH20 0xFFFFFFFFFFFFFFFFFFFFFFFFFFFFFFFFFFFFFFFF AND PUSH2 0xCC9 PUSH2 0x1747 JUMP JUMPDEST PUSH20 0xFFFFFFFFFFFFFFFFFFFFFFFFFFFFFFFFFFFFFFFF AND EQ PUSH2 0xD1F JUMPI PUSH1 0x40 MLOAD PUSH32 0x8C379A000000000000000000000000000000000000000000000000000000000 DUP2 MSTORE PUSH1 0x4 ADD PUSH2 0xD16 SWAP1 PUSH2 0x2CEC JUMP JUMPDEST PUSH1 0x40 MLOAD DUP1 SWAP2 SUB SWAP1 REVERT JUMPDEST TIMESTAMP PUSH1 0xC DUP2 SWAP1 SSTORE POP DUP1 PUSH1 0xD DUP2 SWAP1 SSTORE POP POP JUMP JUMPDEST PUSH1 0x10 SLOAD DUP2 JUMP JUMPDEST PUSH2 0xD3E PUSH2 0x2446 JUMP JUMPDEST PUSH20 0xFFFFFFFFFFFFFFFFFFFFFFFFFFFFFFFFFFFFFFFF AND PUSH2 0xD5C PUSH2 0x1747 JUMP JUMPDEST PUSH20 0xFFFFFFFFFFFFFFFFFFFFFFFFFFFFFFFFFFFFFFFF AND EQ PUSH2 0xDB2 JUMPI PUSH1 0x40 MLOAD PUSH32 0x8C379A000000000000000000000000000000000000000000000000000000000 DUP2 MSTORE PUSH1 0x4 ADD PUSH2 0xDA9 SWAP1 PUSH2 0x2CEC JUMP JUMPDEST PUSH1 0x40 MLOAD DUP1 SWAP2 SUB SWAP1 REVERT JUMPDEST PUSH1 0x1 PUSH1 0xA PUSH1 0x0 DUP5 PUSH20 0xFFFFFFFFFFFFFFFFFFFFFFFFFFFFFFFFFFFFFFFF AND PUSH20 0xFFFFFFFFFFFFFFFFFFFFFFFFFFFFFFFFFFFFFFFF AND DUP2 MSTORE PUSH1 0x20 ADD SWAP1 DUP2 MSTORE PUSH1 0x20 ADD PUSH1 0x0 KECCAK256 PUSH1 0x0 PUSH2 0x100 EXP DUP2 SLOAD DUP2 PUSH1 0xFF MUL NOT AND SWAP1 DUP4 ISZERO ISZERO MUL OR SWAP1 SSTORE POP DUP1 PUSH1 0xB PUSH1 0x0 DUP5 PUSH20 0xFFFFFFFFFFFFFFFFFFFFFFFFFFFFFFFFFFFFFFFF AND PUSH20 0xFFFFFFFFFFFFFFFFFFFFFFFFFFFFFFFFFFFFFFFF AND DUP2 MSTORE PUSH1 0x20 ADD SWAP1 DUP2 MSTORE PUSH1 0x20 ADD PUSH1 0x0 KECCAK256 SWAP1 PUSH1 0x4 PUSH2 0xE58 SWAP3 SWAP2 SWAP1 PUSH2 0x288E JUMP JUMPDEST POP PUSH32 0x46A898D5BFB8140CB704C10CF4FF6AC010411DB41A0D94F60D29DC9BDC24942D DUP3 DUP3 PUSH1 0x40 MLOAD PUSH2 0xE8A SWAP3 SWAP2 SWAP1 PUSH2 0x31F9 JUMP JUMPDEST PUSH1 0x40 MLOAD DUP1 SWAP2 SUB SWAP1 LOG1 POP POP JUMP JUMPDEST PUSH1 0xB PUSH1 0x20 MSTORE DUP2 PUSH1 0x0 MSTORE PUSH1 0x40 PUSH1 0x0 KECCAK256 DUP2 PUSH1 0x4 DUP2 LT PUSH2 0xEB2 JUMPI PUSH1 0x0 DUP1 REVERT JUMPDEST ADD PUSH1 0x0 SWAP2 POP SWAP2 POP POP SLOAD DUP2 JUMP JUMPDEST PUSH1 0xC SLOAD TIMESTAMP LT ISZERO PUSH2 0xF03 JUMPI PUSH1 0x40 MLOAD PUSH32 0x8C379A000000000000000000000000000000000000000000000000000000000 DUP2 MSTORE PUSH1 0x4 ADD PUSH2 0xEFA SWAP1 PUSH2 0x3294 JUMP JUMPDEST PUSH1 0x40 MLOAD DUP1 SWAP2 SUB SWAP1 REVERT JUMPDEST PUSH1 0xD SLOAD TIMESTAMP LT PUSH2 0xF47 JUMPI PUSH1 0x40 MLOAD PUSH32 0x8C379A000000000000000000000000000000000000000000000000000000000 DUP2 MSTORE PUSH1 0x4 ADD PUSH2 0xF3E SWAP1 PUSH2 0x3300 JUMP JUMPDEST PUSH1 0x40 MLOAD DUP1 SWAP2 SUB SWAP1 REVERT JUMPDEST PUSH1 0x0 DUP1 PUSH20 0xFFFFFFFFFFFFFFFFFFFFFFFFFFFFFFFFFFFFFFFF AND DUP4 PUSH20 0xFFFFFFFFFFFFFFFFFFFFFFFFFFFFFFFFFFFFFFFF AND SUB PUSH2 0xF8C JUMPI PUSH2 0xF87 PUSH1 0x0 CALLVALUE PUSH2 0x849 JUMP JUMPDEST PUSH2 0xF97 JUMP JUMPDEST PUSH2 0xF96 DUP4 DUP4 PUSH2 0x849 JUMP JUMPDEST JUMPDEST SWAP1 POP PUSH1 0x9 SLOAD DUP2 LT ISZERO PUSH2 0xFDE JUMPI PUSH1 0x40 MLOAD PUSH32 0x8C379A000000000000000000000000000000000000000000000000000000000 DUP2 MSTORE PUSH1 0x4 ADD PUSH2 0xFD5 SWAP1 PUSH2 0x3392 JUMP JUMPDEST PUSH1 0x40 MLOAD DUP1 SWAP2 SUB SWAP1 REVERT JUMPDEST PUSH1 0x8 SLOAD DUP2 PUSH1 0xF PUSH1 0x0 CALLER PUSH20 0xFFFFFFFFFFFFFFFFFFFFFFFFFFFFFFFFFFFFFFFF AND PUSH20 0xFFFFFFFFFFFFFFFFFFFFFFFFFFFFFFFFFFFFFFFF AND DUP2 MSTORE PUSH1 0x20 ADD SWAP1 DUP2 MSTORE PUSH1 0x20 ADD PUSH1 0x0 KECCAK256 PUSH1 0x0 ADD SLOAD PUSH2 0x102F SWAP2 SWAP1 PUSH2 0x2D3B JUMP JUMPDEST GT ISZERO PUSH2 0x1070 JUMPI PUSH1 0x40 MLOAD PUSH32 0x8C379A000000000000000000000000000000000000000000000000000000000 DUP2 MSTORE PUSH1 0x4 ADD PUSH2 0x1067 SWAP1 PUSH2 0x3424 JUMP JUMPDEST PUSH1 0x40 MLOAD DUP1 SWAP2 SUB SWAP1 REVERT JUMPDEST PUSH1 0x7 SLOAD DUP2 PUSH1 0x10 SLOAD PUSH2 0x1081 SWAP2 SWAP1 PUSH2 0x2D3B JUMP JUMPDEST GT ISZERO PUSH2 0x10C2 JUMPI PUSH1 0x40 MLOAD PUSH32 0x8C379A000000000000000000000000000000000000000000000000000000000 DUP2 MSTORE PUSH1 0x4 ADD PUSH2 0x10B9 SWAP1 PUSH2 0x34B6 JUMP JUMPDEST PUSH1 0x40 MLOAD DUP1 SWAP2 SUB SWAP1 REVERT JUMPDEST PUSH1 0x0 PUSH20 0xFFFFFFFFFFFFFFFFFFFFFFFFFFFFFFFFFFFFFFFF AND DUP4 PUSH20 0xFFFFFFFFFFFFFFFFFFFFFFFFFFFFFFFFFFFFFFFF AND EQ PUSH2 0x11F3 JUMPI PUSH1 0x0 DUP3 GT PUSH2 0x1139 JUMPI PUSH1 0x40 MLOAD PUSH32 0x8C379A000000000000000000000000000000000000000000000000000000000 DUP2 MSTORE PUSH1 0x4 ADD PUSH2 0x1130 SWAP1 PUSH2 0x3548 JUMP JUMPDEST PUSH1 0x40 MLOAD DUP1 SWAP2 SUB SWAP1 REVERT JUMPDEST PUSH1 0xA PUSH1 0x0 DUP5 PUSH20 0xFFFFFFFFFFFFFFFFFFFFFFFFFFFFFFFFFFFFFFFF AND PUSH20 0xFFFFFFFFFFFFFFFFFFFFFFFFFFFFFFFFFFFFFFFF AND DUP2 MSTORE PUSH1 0x20 ADD SWAP1 DUP2 MSTORE PUSH1 0x20 ADD PUSH1 0x0 KECCAK256 PUSH1 0x0 SWAP1 SLOAD SWAP1 PUSH2 0x100 EXP SWAP1 DIV PUSH1 0xFF AND PUSH2 0x11C5 JUMPI PUSH1 0x40 MLOAD PUSH32 0x8C379A000000000000000000000000000000000000000000000000000000000 DUP2 MSTORE PUSH1 0x4 ADD PUSH2 0x11BC SWAP1 PUSH2 0x2DBB JUMP JUMPDEST PUSH1 0x40 MLOAD DUP1 SWAP2 SUB SWAP1 REVERT JUMPDEST PUSH2 0x11F2 CALLER ADDRESS DUP5 DUP7 PUSH20 0xFFFFFFFFFFFFFFFFFFFFFFFFFFFFFFFFFFFFFFFF AND PUSH2 0x244E SWAP1 SWAP4 SWAP3 SWAP2 SWAP1 PUSH4 0xFFFFFFFF AND JUMP JUMPDEST JUMPDEST DUP1 PUSH1 0x10 PUSH1 0x0 DUP3 DUP3 SLOAD PUSH2 0x1205 SWAP2 SWAP1 PUSH2 0x2D3B JUMP JUMPDEST SWAP3 POP POP DUP2 SWAP1 SSTORE POP DUP1 PUSH1 0xF PUSH1 0x0 CALLER PUSH20 0xFFFFFFFFFFFFFFFFFFFFFFFFFFFFFFFFFFFFFFFF AND PUSH20 0xFFFFFFFFFFFFFFFFFFFFFFFFFFFFFFFFFFFFFFFF AND DUP2 MSTORE PUSH1 0x20 ADD SWAP1 DUP2 MSTORE PUSH1 0x20 ADD PUSH1 0x0 KECCAK256 PUSH1 0x0 ADD PUSH1 0x0 DUP3 DUP3 SLOAD PUSH2 0x125E SWAP2 SWAP1 PUSH2 0x2D3B JUMP JUMPDEST SWAP3 POP POP DUP2 SWAP1 SSTORE POP DUP3 PUSH20 0xFFFFFFFFFFFFFFFFFFFFFFFFFFFFFFFFFFFFFFFF AND CALLER PUSH20 0xFFFFFFFFFFFFFFFFFFFFFFFFFFFFFFFFFFFFFFFF AND PUSH32 0xC244D500136EDFFAE7025AAF7FBD7A07193AC544A1D0CC3132CF2A32452D340C DUP5 DUP5 PUSH1 0x40 MLOAD PUSH2 0x12C4 SWAP3 SWAP2 SWAP1 PUSH2 0x3568 JUMP JUMPDEST PUSH1 0x40 MLOAD DUP1 SWAP2 SUB SWAP1 LOG3 POP POP POP JUMP JUMPDEST PUSH1 0x8 SLOAD DUP2 JUMP JUMPDEST PUSH1 0x7 SLOAD DUP2 JUMP JUMPDEST PUSH2 0x12E5 PUSH2 0x2446 JUMP JUMPDEST PUSH20 0xFFFFFFFFFFFFFFFFFFFFFFFFFFFFFFFFFFFFFFFF AND PUSH2 0x1303 PUSH2 0x1747 JUMP JUMPDEST PUSH20 0xFFFFFFFFFFFFFFFFFFFFFFFFFFFFFFFFFFFFFFFF AND EQ PUSH2 0x1359 JUMPI PUSH1 0x40 MLOAD PUSH32 0x8C379A000000000000000000000000000000000000000000000000000000000 DUP2 MSTORE PUSH1 0x4 ADD PUSH2 0x1350 SWAP1 PUSH2 0x2CEC JUMP JUMPDEST PUSH1 0x40 MLOAD DUP1 SWAP2 SUB SWAP1 REVERT JUMPDEST PUSH2 0x1363 PUSH1 0x0 PUSH2 0x24D7 JUMP JUMPDEST JUMP JUMPDEST PUSH1 0x0 SWAP1 JUMP JUMPDEST PUSH2 0x1372 PUSH2 0x2446 JUMP JUMPDEST PUSH20 0xFFFFFFFFFFFFFFFFFFFFFFFFFFFFFFFFFFFFFFFF AND PUSH2 0x1390 PUSH2 0x1747 JUMP JUMPDEST PUSH20 0xFFFFFFFFFFFFFFFFFFFFFFFFFFFFFFFFFFFFFFFF AND EQ PUSH2 0x13E6 JUMPI PUSH1 0x40 MLOAD PUSH32 0x8C379A000000000000000000000000000000000000000000000000000000000 DUP2 MSTORE PUSH1 0x4 ADD PUSH2 0x13DD SWAP1 PUSH2 0x2CEC JUMP JUMPDEST PUSH1 0x40 MLOAD DUP1 SWAP2 SUB SWAP1 REVERT JUMPDEST DUP1 PUSH1 0x8 DUP2 SWAP1 SSTORE POP POP JUMP JUMPDEST PUSH2 0x13F8 PUSH2 0x2446 JUMP JUMPDEST PUSH20 0xFFFFFFFFFFFFFFFFFFFFFFFFFFFFFFFFFFFFFFFF AND PUSH2 0x1416 PUSH2 0x1747 JUMP JUMPDEST PUSH20 0xFFFFFFFFFFFFFFFFFFFFFFFFFFFFFFFFFFFFFFFF AND EQ PUSH2 0x146C JUMPI PUSH1 0x40 MLOAD PUSH32 0x8C379A000000000000000000000000000000000000000000000000000000000 DUP2 MSTORE PUSH1 0x4 ADD PUSH2 0x1463 SWAP1 PUSH2 0x2CEC JUMP JUMPDEST PUSH1 0x40 MLOAD DUP1 SWAP2 SUB SWAP1 REVERT JUMPDEST PUSH1 0x0 PUSH20 0xFFFFFFFFFFFFFFFFFFFFFFFFFFFFFFFFFFFFFFFF AND DUP3 PUSH20 0xFFFFFFFFFFFFFFFFFFFFFFFFFFFFFFFFFFFFFFFF AND SUB PUSH2 0x14DB JUMPI PUSH1 0x40 MLOAD PUSH32 0x8C379A000000000000000000000000000000000000000000000000000000000 DUP2 MSTORE PUSH1 0x4 ADD PUSH2 0x14D2 SWAP1 PUSH2 0x3603 JUMP JUMPDEST PUSH1 0x40 MLOAD DUP1 SWAP2 SUB SWAP1 REVERT JUMPDEST PUSH1 0x0 DUP2 GT PUSH2 0x151E JUMPI PUSH1 0x40 MLOAD PUSH32 0x8C379A000000000000000000000000000000000000000000000000000000000 DUP2 MSTORE PUSH1 0x4 ADD PUSH2 0x1515 SWAP1 PUSH2 0x3695 JUMP JUMPDEST PUSH1 0x40 MLOAD DUP1 SWAP2 SUB SWAP1 REVERT JUMPDEST DUP2 PUSH1 0x5 PUSH1 0x0 PUSH2 0x100 EXP DUP2 SLOAD DUP2 PUSH20 0xFFFFFFFFFFFFFFFFFFFFFFFFFFFFFFFFFFFFFFFF MUL NOT AND SWAP1 DUP4 PUSH20 0xFFFFFFFFFFFFFFFFFFFFFFFFFFFFFFFFFFFFFFFF AND MUL OR SWAP1 SSTORE POP PUSH1 0x5 PUSH1 0x0 SWAP1 SLOAD SWAP1 PUSH2 0x100 EXP SWAP1 DIV PUSH20 0xFFFFFFFFFFFFFFFFFFFFFFFFFFFFFFFFFFFFFFFF AND PUSH20 0xFFFFFFFFFFFFFFFFFFFFFFFFFFFFFFFFFFFFFFFF AND PUSH4 0x313CE567 PUSH1 0x40 MLOAD DUP2 PUSH4 0xFFFFFFFF AND PUSH1 0xE0 SHL DUP2 MSTORE PUSH1 0x4 ADD PUSH1 0x20 PUSH1 0x40 MLOAD DUP1 DUP4 SUB DUP2 DUP7 GAS STATICCALL ISZERO DUP1 ISZERO PUSH2 0x15CC JUMPI RETURNDATASIZE PUSH1 0x0 DUP1 RETURNDATACOPY RETURNDATASIZE PUSH1 0x0 REVERT JUMPDEST POP POP POP POP PUSH1 0x40 MLOAD RETURNDATASIZE PUSH1 0x1F NOT PUSH1 0x1F DUP3 ADD AND DUP3 ADD DUP1 PUSH1 0x40 MSTORE POP DUP2 ADD SWAP1 PUSH2 0x15F0 SWAP2 SWAP1 PUSH2 0x36EE JUMP JUMPDEST PUSH1 0xFF AND PUSH1 0x6 DUP2 SWAP1 SSTORE POP PUSH2 0x1648 CALLER ADDRESS DUP4 PUSH1 0x5 PUSH1 0x0 SWAP1 SLOAD SWAP1 PUSH2 0x100 EXP SWAP1 DIV PUSH20 0xFFFFFFFFFFFFFFFFFFFFFFFFFFFFFFFFFFFFFFFF AND PUSH20 0xFFFFFFFFFFFFFFFFFFFFFFFFFFFFFFFFFFFFFFFF AND PUSH2 0x244E SWAP1 SWAP4 SWAP3 SWAP2 SWAP1 PUSH4 0xFFFFFFFF AND JUMP JUMPDEST PUSH1 0x5 PUSH1 0x0 SWAP1 SLOAD SWAP1 PUSH2 0x100 EXP SWAP1 DIV PUSH20 0xFFFFFFFFFFFFFFFFFFFFFFFFFFFFFFFFFFFFFFFF AND PUSH20 0xFFFFFFFFFFFFFFFFFFFFFFFFFFFFFFFFFFFFFFFF AND PUSH4 0x70A08231 ADDRESS PUSH1 0x40 MLOAD DUP3 PUSH4 0xFFFFFFFF AND PUSH1 0xE0 SHL DUP2 MSTORE PUSH1 0x4 ADD PUSH2 0x16A3 SWAP2 SWAP1 PUSH2 0x2C47 JUMP JUMPDEST PUSH1 0x20 PUSH1 0x40 MLOAD DUP1 DUP4 SUB DUP2 DUP7 GAS STATICCALL ISZERO DUP1 ISZERO PUSH2 0x16C0 JUMPI RETURNDATASIZE PUSH1 0x0 DUP1 RETURNDATACOPY RETURNDATASIZE PUSH1 0x0 REVERT JUMPDEST POP POP POP POP PUSH1 0x40 MLOAD RETURNDATASIZE PUSH1 0x1F NOT PUSH1 0x1F DUP3 ADD AND DUP3 ADD DUP1 PUSH1 0x40 MSTORE POP DUP2 ADD SWAP1 PUSH2 0x16E4 SWAP2 SWAP1 PUSH2 0x3730 JUMP JUMPDEST PUSH1 0x7 DUP2 SWAP1 SSTORE POP PUSH32 0x3211F0A57D24F0B52E2E0573AF5BE089C5FAADEB55F9B90591717B0A22F7E2A DUP3 DUP3 PUSH1 0x40 MLOAD PUSH2 0x171B SWAP3 SWAP2 SWAP1 PUSH2 0x375D JUMP JUMPDEST PUSH1 0x40 MLOAD DUP1 SWAP2 SUB SWAP1 LOG1 POP POP JUMP JUMPDEST PUSH1 0xA PUSH1 0x20 MSTORE DUP1 PUSH1 0x0 MSTORE PUSH1 0x40 PUSH1 0x0 KECCAK256 PUSH1 0x0 SWAP2 POP SLOAD SWAP1 PUSH2 0x100 EXP SWAP1 DIV PUSH1 0xFF AND DUP2 JUMP JUMPDEST PUSH1 0x0 DUP1 PUSH1 0x0 SWAP1 SLOAD SWAP1 PUSH2 0x100 EXP SWAP1 DIV PUSH20 0xFFFFFFFFFFFFFFFFFFFFFFFFFFFFFFFFFFFFFFFF AND SWAP1 POP SWAP1 JUMP JUMPDEST PUSH2 0x1778 PUSH2 0x2446 JUMP JUMPDEST PUSH20 0xFFFFFFFFFFFFFFFFFFFFFFFFFFFFFFFFFFFFFFFF AND PUSH2 0x1796 PUSH2 0x1747 JUMP JUMPDEST PUSH20 0xFFFFFFFFFFFFFFFFFFFFFFFFFFFFFFFFFFFFFFFF AND EQ PUSH2 0x17EC JUMPI PUSH1 0x40 MLOAD PUSH32 0x8C379A000000000000000000000000000000000000000000000000000000000 DUP2 MSTORE PUSH1 0x4 ADD PUSH2 0x17E3 SWAP1 PUSH2 0x2CEC JUMP JUMPDEST PUSH1 0x40 MLOAD DUP1 SWAP2 SUB SWAP1 REVERT JUMPDEST DUP1 PUSH1 0x9 DUP2 SWAP1 SSTORE POP POP JUMP JUMPDEST PUSH1 0xC SLOAD DUP2 JUMP JUMPDEST PUSH1 0x6 SLOAD DUP2 JUMP JUMPDEST PUSH2 0x180A PUSH2 0x2446 JUMP JUMPDEST PUSH20 0xFFFFFFFFFFFFFFFFFFFFFFFFFFFFFFFFFFFFFFFF AND PUSH2 0x1828 PUSH2 0x1747 JUMP JUMPDEST PUSH20 0xFFFFFFFFFFFFFFFFFFFFFFFFFFFFFFFFFFFFFFFF AND EQ PUSH2 0x187E JUMPI PUSH1 0x40 MLOAD PUSH32 0x8C379A000000000000000000000000000000000000000000000000000000000 DUP2 MSTORE PUSH1 0x4 ADD PUSH2 0x1875 SWAP1 PUSH2 0x2CEC JUMP JUMPDEST PUSH1 0x40 MLOAD DUP1 SWAP2 SUB SWAP1 REVERT JUMPDEST PUSH1 0xD SLOAD TIMESTAMP LT ISZERO PUSH2 0x18C3 JUMPI PUSH1 0x40 MLOAD PUSH32 0x8C379A000000000000000000000000000000000000000000000000000000000 DUP2 MSTORE PUSH1 0x4 ADD PUSH2 0x18BA SWAP1 PUSH2 0x309C JUMP JUMPDEST PUSH1 0x40 MLOAD DUP1 SWAP2 SUB SWAP1 REVERT JUMPDEST PUSH1 0xE PUSH1 0x0 SWAP1 SLOAD SWAP1 PUSH2 0x100 EXP SWAP1 DIV PUSH1 0xFF AND PUSH2 0x1912 JUMPI PUSH1 0x40 MLOAD PUSH32 0x8C379A000000000000000000000000000000000000000000000000000000000 DUP2 MSTORE PUSH1 0x4 ADD PUSH2 0x1909 SWAP1 PUSH2 0x37F8 JUMP JUMPDEST PUSH1 0x40 MLOAD DUP1 SWAP2 SUB SWAP1 REVERT JUMPDEST PUSH1 0x0 PUSH1 0xE PUSH1 0x0 PUSH2 0x100 EXP DUP2 SLOAD DUP2 PUSH1 0xFF MUL NOT AND SWAP1 DUP4 ISZERO ISZERO MUL OR SWAP1 SSTORE POP JUMP JUMPDEST PUSH1 0x9 SLOAD DUP2 JUMP JUMPDEST PUSH1 0xE PUSH1 0x0 SWAP1 SLOAD SWAP1 PUSH2 0x100 EXP SWAP1 DIV PUSH1 0xFF AND PUSH2 0x1984 JUMPI PUSH1 0x40 MLOAD PUSH32 0x8C379A000000000000000000000000000000000000000000000000000000000 DUP2 MSTORE PUSH1 0x4 ADD PUSH2 0x197B SWAP1 PUSH2 0x388A JUMP JUMPDEST PUSH1 0x40 MLOAD DUP1 SWAP2 SUB SWAP1 REVERT JUMPDEST PUSH1 0xF PUSH1 0x0 CALLER PUSH20 0xFFFFFFFFFFFFFFFFFFFFFFFFFFFFFFFFFFFFFFFF AND PUSH20 0xFFFFFFFFFFFFFFFFFFFFFFFFFFFFFFFFFFFFFFFF AND DUP2 MSTORE PUSH1 0x20 ADD SWAP1 DUP2 MSTORE PUSH1 0x20 ADD PUSH1 0x0 KECCAK256 PUSH1 0x1 ADD PUSH1 0x0 SWAP1 SLOAD SWAP1 PUSH2 0x100 EXP SWAP1 DIV PUSH1 0xFF AND ISZERO PUSH2 0x1A14 JUMPI PUSH1 0x40 MLOAD PUSH32 0x8C379A000000000000000000000000000000000000000000000000000000000 DUP2 MSTORE PUSH1 0x4 ADD PUSH2 0x1A0B SWAP1 PUSH2 0x38F6 JUMP JUMPDEST PUSH1 0x40 MLOAD DUP1 SWAP2 SUB SWAP1 REVERT JUMPDEST PUSH1 0x0 PUSH1 0xF PUSH1 0x0 CALLER PUSH20 0xFFFFFFFFFFFFFFFFFFFFFFFFFFFFFFFFFFFFFFFF AND PUSH20 0xFFFFFFFFFFFFFFFFFFFFFFFFFFFFFFFFFFFFFFFF AND DUP2 MSTORE PUSH1 0x20 ADD SWAP1 DUP2 MSTORE PUSH1 0x20 ADD PUSH1 0x0 KECCAK256 PUSH1 0x0 ADD SLOAD SWAP1 POP PUSH1 0x1 PUSH1 0xF PUSH1 0x0 CALLER PUSH20 0xFFFFFFFFFFFFFFFFFFFFFFFFFFFFFFFFFFFFFFFF AND PUSH20 0xFFFFFFFFFFFFFFFFFFFFFFFFFFFFFFFFFFFFFFFF AND DUP2 MSTORE PUSH1 0x20 ADD SWAP1 DUP2 MSTORE PUSH1 0x20 ADD PUSH1 0x0 KECCAK256 PUSH1 0x1 ADD PUSH1 0x0 PUSH2 0x100 EXP DUP2 SLOAD DUP2 PUSH1 0xFF MUL NOT AND SWAP1 DUP4 ISZERO ISZERO MUL OR SWAP1 SSTORE POP PUSH2 0x1B03 CALLER DUP3 PUSH1 0x5 PUSH1 0x0 SWAP1 SLOAD SWAP1 PUSH2 0x100 EXP SWAP1 DIV PUSH20 0xFFFFFFFFFFFFFFFFFFFFFFFFFFFFFFFFFFFFFFFF AND PUSH20 0xFFFFFFFFFFFFFFFFFFFFFFFFFFFFFFFFFFFFFFFF AND PUSH2 0x259B SWAP1 SWAP3 SWAP2 SWAP1 PUSH4 0xFFFFFFFF AND JUMP JUMPDEST CALLER PUSH20 0xFFFFFFFFFFFFFFFFFFFFFFFFFFFFFFFFFFFFFFFF AND PUSH32 0xE7B379C6C1FA169E9079C25E9143B127637EEF8EC8C9D5C06DDB4AB3E1195888 DUP3 PUSH1 0x40 MLOAD PUSH2 0x1B49 SWAP2 SWAP1 PUSH2 0x2A0A JUMP JUMPDEST PUSH1 0x40 MLOAD DUP1 SWAP2 SUB SWAP1 LOG2 POP JUMP JUMPDEST PUSH2 0x1B5C PUSH2 0x2446 JUMP JUMPDEST PUSH20 0xFFFFFFFFFFFFFFFFFFFFFFFFFFFFFFFFFFFFFFFF AND PUSH2 0x1B7A PUSH2 0x1747 JUMP JUMPDEST PUSH20 0xFFFFFFFFFFFFFFFFFFFFFFFFFFFFFFFFFFFFFFFF AND EQ PUSH2 0x1BD0 JUMPI PUSH1 0x40 MLOAD PUSH32 0x8C379A000000000000000000000000000000000000000000000000000000000 DUP2 MSTORE PUSH1 0x4 ADD PUSH2 0x1BC7 SWAP1 PUSH2 0x2CEC JUMP JUMPDEST PUSH1 0x40 MLOAD DUP1 SWAP2 SUB SWAP1 REVERT JUMPDEST PUSH1 0xA PUSH1 0x0 DUP4 PUSH20 0xFFFFFFFFFFFFFFFFFFFFFFFFFFFFFFFFFFFFFFFF AND PUSH20 0xFFFFFFFFFFFFFFFFFFFFFFFFFFFFFFFFFFFFFFFF AND DUP2 MSTORE PUSH1 0x20 ADD SWAP1 DUP2 MSTORE PUSH1 0x20 ADD PUSH1 0x0 KECCAK256 PUSH1 0x0 SWAP1 SLOAD SWAP1 PUSH2 0x100 EXP SWAP1 DIV PUSH1 0xFF AND PUSH2 0x1C5C JUMPI PUSH1 0x40 MLOAD PUSH32 0x8C379A000000000000000000000000000000000000000000000000000000000 DUP2 MSTORE PUSH1 0x4 ADD PUSH2 0x1C53 SWAP1 PUSH2 0x2DBB JUMP JUMPDEST PUSH1 0x40 MLOAD DUP1 SWAP2 SUB SWAP1 REVERT JUMPDEST DUP1 PUSH1 0xB PUSH1 0x0 DUP5 PUSH20 0xFFFFFFFFFFFFFFFFFFFFFFFFFFFFFFFFFFFFFFFF AND PUSH20 0xFFFFFFFFFFFFFFFFFFFFFFFFFFFFFFFFFFFFFFFF AND DUP2 MSTORE PUSH1 0x20 ADD SWAP1 DUP2 MSTORE PUSH1 0x20 ADD PUSH1 0x0 KECCAK256 SWAP1 PUSH1 0x4 PUSH2 0x1CAA SWAP3 SWAP2 SWAP1 PUSH2 0x288E JUMP JUMPDEST POP PUSH32 0x15C54D4ADD16CDCD1F0A4C671837CF70C9F8F02790BB0D948710AF6E0187C7D9 DUP3 DUP3 PUSH1 0x40 MLOAD PUSH2 0x1CDC SWAP3 SWAP2 SWAP1 PUSH2 0x31F9 JUMP JUMPDEST PUSH1 0x40 MLOAD DUP1 SWAP2 SUB SWAP1 LOG1 POP POP JUMP JUMPDEST PUSH2 0x1CF0 PUSH2 0x2446 JUMP JUMPDEST PUSH20 0xFFFFFFFFFFFFFFFFFFFFFFFFFFFFFFFFFFFFFFFF AND PUSH2 0x1D0E PUSH2 0x1747 JUMP JUMPDEST PUSH20 0xFFFFFFFFFFFFFFFFFFFFFFFFFFFFFFFFFFFFFFFF AND EQ PUSH2 0x1D64 JUMPI PUSH1 0x40 MLOAD PUSH32 0x8C379A000000000000000000000000000000000000000000000000000000000 DUP2 MSTORE PUSH1 0x4 ADD PUSH2 0x1D5B SWAP1 PUSH2 0x2CEC JUMP JUMPDEST PUSH1 0x40 MLOAD DUP1 SWAP2 SUB SWAP1 REVERT JUMPDEST PUSH1 0xD SLOAD TIMESTAMP LT ISZERO PUSH2 0x1DA9 JUMPI PUSH1 0x40 MLOAD PUSH32 0x8C379A000000000000000000000000000000000000000000000000000000000 DUP2 MSTORE PUSH1 0x4 ADD PUSH2 0x1DA0 SWAP1 PUSH2 0x309C JUMP JUMPDEST PUSH1 0x40 MLOAD DUP1 SWAP2 SUB SWAP1 REVERT JUMPDEST PUSH2 0x1DF6 CALLER DUP3 PUSH1 0x5 PUSH1 0x0 SWAP1 SLOAD SWAP1 PUSH2 0x100 EXP SWAP1 DIV PUSH20 0xFFFFFFFFFFFFFFFFFFFFFFFFFFFFFFFFFFFFFFFF AND PUSH20 0xFFFFFFFFFFFFFFFFFFFFFFFFFFFFFFFFFFFFFFFF AND PUSH2 0x259B SWAP1 SWAP3 SWAP2 SWAP1 PUSH4 0xFFFFFFFF AND JUMP JUMPDEST POP JUMP JUMPDEST PUSH1 0x1 DUP2 PUSH1 0x4 DUP2 LT PUSH2 0x1E09 JUMPI PUSH1 0x0 DUP1 REVERT JUMPDEST ADD PUSH1 0x0 SWAP2 POP SWAP1 POP SLOAD DUP2 JUMP JUMPDEST PUSH1 0x5 PUSH1 0x0 SWAP1 SLOAD SWAP1 PUSH2 0x100 EXP SWAP1 DIV PUSH20 0xFFFFFFFFFFFFFFFFFFFFFFFFFFFFFFFFFFFFFFFF AND DUP2 JUMP JUMPDEST PUSH2 0x1E42 PUSH2 0x2446 JUMP JUMPDEST PUSH20 0xFFFFFFFFFFFFFFFFFFFFFFFFFFFFFFFFFFFFFFFF AND PUSH2 0x1E60 PUSH2 0x1747 JUMP JUMPDEST PUSH20 0xFFFFFFFFFFFFFFFFFFFFFFFFFFFFFFFFFFFFFFFF AND EQ PUSH2 0x1EB6 JUMPI PUSH1 0x40 MLOAD PUSH32 0x8C379A000000000000000000000000000000000000000000000000000000000 DUP2 MSTORE PUSH1 0x4 ADD PUSH2 0x1EAD SWAP1 PUSH2 0x2CEC JUMP JUMPDEST PUSH1 0x40 MLOAD DUP1 SWAP2 SUB SWAP1 REVERT JUMPDEST DUP1 PUSH1 0x1 SWAP1 PUSH1 0x4 PUSH2 0x1EC7 SWAP3 SWAP2 SWAP1 PUSH2 0x288E JUMP JUMPDEST POP POP JUMP JUMPDEST PUSH2 0x1ED3 PUSH2 0x2446 JUMP JUMPDEST PUSH20 0xFFFFFFFFFFFFFFFFFFFFFFFFFFFFFFFFFFFFFFFF AND PUSH2 0x1EF1 PUSH2 0x1747 JUMP JUMPDEST PUSH20 0xFFFFFFFFFFFFFFFFFFFFFFFFFFFFFFFFFFFFFFFF AND EQ PUSH2 0x1F47 JUMPI PUSH1 0x40 MLOAD PUSH32 0x8C379A000000000000000000000000000000000000000000000000000000000 DUP2 MSTORE PUSH1 0x4 ADD PUSH2 0x1F3E SWAP1 PUSH2 0x2CEC JUMP JUMPDEST PUSH1 0x40 MLOAD DUP1 SWAP2 SUB SWAP1 REVERT JUMPDEST PUSH1 0x0 PUSH20 0xFFFFFFFFFFFFFFFFFFFFFFFFFFFFFFFFFFFFFFFF AND DUP2 PUSH20 0xFFFFFFFFFFFFFFFFFFFFFFFFFFFFFFFFFFFFFFFF AND SUB PUSH2 0x1FB6 JUMPI PUSH1 0x40 MLOAD PUSH32 0x8C379A000000000000000000000000000000000000000000000000000000000 DUP2 MSTORE PUSH1 0x4 ADD PUSH2 0x1FAD SWAP1 PUSH2 0x3988 JUMP JUMPDEST PUSH1 0x40 MLOAD DUP1 SWAP2 SUB SWAP1 REVERT JUMPDEST PUSH2 0x1FBF DUP2 PUSH2 0x24D7 JUMP JUMPDEST POP JUMP JUMPDEST PUSH2 0x1FCA PUSH2 0x2446 JUMP JUMPDEST PUSH20 0xFFFFFFFFFFFFFFFFFFFFFFFFFFFFFFFFFFFFFFFF AND PUSH2 0x1FE8 PUSH2 0x1747 JUMP JUMPDEST PUSH20 0xFFFFFFFFFFFFFFFFFFFFFFFFFFFFFFFFFFFFFFFF AND EQ PUSH2 0x203E JUMPI PUSH1 0x40 MLOAD PUSH32 0x8C379A000000000000000000000000000000000000000000000000000000000 DUP2 MSTORE PUSH1 0x4 ADD PUSH2 0x2035 SWAP1 PUSH2 0x2CEC JUMP JUMPDEST PUSH1 0x40 MLOAD DUP1 SWAP2 SUB SWAP1 REVERT JUMPDEST PUSH1 0x5 PUSH1 0x0 SWAP1 SLOAD SWAP1 PUSH2 0x100 EXP SWAP1 DIV PUSH20 0xFFFFFFFFFFFFFFFFFFFFFFFFFFFFFFFFFFFFFFFF AND PUSH20 0xFFFFFFFFFFFFFFFFFFFFFFFFFFFFFFFFFFFFFFFF AND DUP3 PUSH20 0xFFFFFFFFFFFFFFFFFFFFFFFFFFFFFFFFFFFFFFFF AND SUB PUSH2 0x20CE JUMPI PUSH1 0x40 MLOAD PUSH32 0x8C379A000000000000000000000000000000000000000000000000000000000 DUP2 MSTORE PUSH1 0x4 ADD PUSH2 0x20C5 SWAP1 PUSH2 0x3A40 JUMP JUMPDEST PUSH1 0x40 MLOAD DUP1 SWAP2 SUB SWAP1 REVERT JUMPDEST PUSH2 0x20F9 CALLER DUP3 DUP5 PUSH20 0xFFFFFFFFFFFFFFFFFFFFFFFFFFFFFFFFFFFFFFFF AND PUSH2 0x259B SWAP1 SWAP3 SWAP2 SWAP1 PUSH4 0xFFFFFFFF AND JUMP JUMPDEST POP POP JUMP JUMPDEST PUSH2 0x2105 PUSH2 0x2446 JUMP JUMPDEST PUSH20 0xFFFFFFFFFFFFFFFFFFFFFFFFFFFFFFFFFFFFFFFF AND PUSH2 0x2123 PUSH2 0x1747 JUMP JUMPDEST PUSH20 0xFFFFFFFFFFFFFFFFFFFFFFFFFFFFFFFFFFFFFFFF AND EQ PUSH2 0x2179 JUMPI PUSH1 0x40 MLOAD PUSH32 0x8C379A000000000000000000000000000000000000000000000000000000000 DUP2 MSTORE PUSH1 0x4 ADD PUSH2 0x2170 SWAP1 PUSH2 0x2CEC JUMP JUMPDEST PUSH1 0x40 MLOAD DUP1 SWAP2 SUB SWAP1 REVERT JUMPDEST PUSH1 0x5 PUSH1 0x0 SWAP1 SLOAD SWAP1 PUSH2 0x100 EXP SWAP1 DIV PUSH20 0xFFFFFFFFFFFFFFFFFFFFFFFFFFFFFFFFFFFFFFFF AND PUSH20 0xFFFFFFFFFFFFFFFFFFFFFFFFFFFFFFFFFFFFFFFF AND DUP2 PUSH20 0xFFFFFFFFFFFFFFFFFFFFFFFFFFFFFFFFFFFFFFFF AND SUB PUSH2 0x2209 JUMPI PUSH1 0x40 MLOAD PUSH32 0x8C379A000000000000000000000000000000000000000000000000000000000 DUP2 MSTORE PUSH1 0x4 ADD PUSH2 0x2200 SWAP1 PUSH2 0x3AF8 JUMP JUMPDEST PUSH1 0x40 MLOAD DUP1 SWAP2 SUB SWAP1 REVERT JUMPDEST PUSH1 0x0 DUP2 PUSH20 0xFFFFFFFFFFFFFFFFFFFFFFFFFFFFFFFFFFFFFFFF AND PUSH4 0x70A08231 ADDRESS PUSH1 0x40 MLOAD DUP3 PUSH4 0xFFFFFFFF AND PUSH1 0xE0 SHL DUP2 MSTORE PUSH1 0x4 ADD PUSH2 0x2244 SWAP2 SWAP1 PUSH2 0x2C47 JUMP JUMPDEST PUSH1 0x20 PUSH1 0x40 MLOAD DUP1 DUP4 SUB DUP2 DUP7 GAS STATICCALL ISZERO DUP1 ISZERO PUSH2 0x2261 JUMPI RETURNDATASIZE PUSH1 0x0 DUP1 RETURNDATACOPY RETURNDATASIZE PUSH1 0x0 REVERT JUMPDEST POP POP POP POP PUSH1 0x40 MLOAD RETURNDATASIZE PUSH1 0x1F NOT PUSH1 0x1F DUP3 ADD AND DUP3 ADD DUP1 PUSH1 0x40 MSTORE POP DUP2 ADD SWAP1 PUSH2 0x2285 SWAP2 SWAP1 PUSH2 0x3730 JUMP JUMPDEST SWAP1 POP PUSH2 0x2291 DUP3 DUP3 PUSH2 0x1FC2 JUMP JUMPDEST POP POP JUMP JUMPDEST PUSH2 0x229D PUSH2 0x2446 JUMP JUMPDEST PUSH20 0xFFFFFFFFFFFFFFFFFFFFFFFFFFFFFFFFFFFFFFFF AND PUSH2 0x22BB PUSH2 0x1747 JUMP JUMPDEST PUSH20 0xFFFFFFFFFFFFFFFFFFFFFFFFFFFFFFFFFFFFFFFF AND EQ PUSH2 0x2311 JUMPI PUSH1 0x40 MLOAD PUSH32 0x8C379A000000000000000000000000000000000000000000000000000000000 DUP2 MSTORE PUSH1 0x4 ADD PUSH2 0x2308 SWAP1 PUSH2 0x2CEC JUMP JUMPDEST PUSH1 0x40 MLOAD DUP1 SWAP2 SUB SWAP1 REVERT JUMPDEST PUSH1 0xD SLOAD TIMESTAMP LT ISZERO PUSH2 0x2356 JUMPI PUSH1 0x40 MLOAD PUSH32 0x8C379A000000000000000000000000000000000000000000000000000000000 DUP2 MSTORE PUSH1 0x4 ADD PUSH2 0x234D SWAP1 PUSH2 0x309C JUMP JUMPDEST PUSH1 0x40 MLOAD DUP1 SWAP2 SUB SWAP1 REVERT JUMPDEST PUSH1 0x0 PUSH1 0x5 PUSH1 0x0 SWAP1 SLOAD SWAP1 PUSH2 0x100 EXP SWAP1 DIV PUSH20 0xFFFFFFFFFFFFFFFFFFFFFFFFFFFFFFFFFFFFFFFF AND PUSH20 0xFFFFFFFFFFFFFFFFFFFFFFFFFFFFFFFFFFFFFFFF AND PUSH4 0x70A08231 ADDRESS PUSH1 0x40 MLOAD DUP3 PUSH4 0xFFFFFFFF AND PUSH1 0xE0 SHL DUP2 MSTORE PUSH1 0x4 ADD PUSH2 0x23B3 SWAP2 SWAP1 PUSH2 0x2C47 JUMP JUMPDEST PUSH1 0x20 PUSH1 0x40 MLOAD DUP1 DUP4 SUB DUP2 DUP7 GAS STATICCALL ISZERO DUP1 ISZERO PUSH2 0x23D0 JUMPI RETURNDATASIZE PUSH1 0x0 DUP1 RETURNDATACOPY RETURNDATASIZE PUSH1 0x0 REVERT JUMPDEST POP POP POP POP PUSH1 0x40 MLOAD RETURNDATASIZE PUSH1 0x1F NOT PUSH1 0x1F DUP3 ADD AND DUP3 ADD DUP1 PUSH1 0x40 MSTORE POP DUP2 ADD SWAP1 PUSH2 0x23F4 SWAP2 SWAP1 PUSH2 0x3730 JUMP JUMPDEST SWAP1 POP PUSH2 0x2443 CALLER DUP3 PUSH1 0x5 PUSH1 0x0 SWAP1 SLOAD SWAP1 PUSH2 0x100 EXP SWAP1 DIV PUSH20 0xFFFFFFFFFFFFFFFFFFFFFFFFFFFFFFFFFFFFFFFF AND PUSH20 0xFFFFFFFFFFFFFFFFFFFFFFFFFFFFFFFFFFFFFFFF AND PUSH2 0x259B SWAP1 SWAP3 SWAP2 SWAP1 PUSH4 0xFFFFFFFF AND JUMP JUMPDEST POP JUMP JUMPDEST PUSH1 0x0 CALLER SWAP1 POP SWAP1 JUMP JUMPDEST PUSH2 0x24D1 DUP5 PUSH4 0x23B872DD PUSH1 0xE0 SHL DUP6 DUP6 DUP6 PUSH1 0x40 MLOAD PUSH1 0x24 ADD PUSH2 0x246F SWAP4 SWAP3 SWAP2 SWAP1 PUSH2 0x3B18 JUMP JUMPDEST PUSH1 0x40 MLOAD PUSH1 0x20 DUP2 DUP4 SUB SUB DUP2 MSTORE SWAP1 PUSH1 0x40 MSTORE SWAP1 PUSH28 0xFFFFFFFFFFFFFFFFFFFFFFFFFFFFFFFFFFFFFFFFFFFFFFFFFFFFFFFF NOT AND PUSH1 0x20 DUP3 ADD DUP1 MLOAD PUSH28 0xFFFFFFFFFFFFFFFFFFFFFFFFFFFFFFFFFFFFFFFFFFFFFFFFFFFFFFFF DUP4 DUP2 DUP4 AND OR DUP4 MSTORE POP POP POP POP PUSH2 0x2621 JUMP JUMPDEST POP POP POP POP JUMP JUMPDEST PUSH1 0x0 DUP1 PUSH1 0x0 SWAP1 SLOAD SWAP1 PUSH2 0x100 EXP SWAP1 DIV PUSH20 0xFFFFFFFFFFFFFFFFFFFFFFFFFFFFFFFFFFFFFFFF AND SWAP1 POP DUP2 PUSH1 0x0 DUP1 PUSH2 0x100 EXP DUP2 SLOAD DUP2 PUSH20 0xFFFFFFFFFFFFFFFFFFFFFFFFFFFFFFFFFFFFFFFF MUL NOT AND SWAP1 DUP4 PUSH20 0xFFFFFFFFFFFFFFFFFFFFFFFFFFFFFFFFFFFFFFFF AND MUL OR SWAP1 SSTORE POP DUP2 PUSH20 0xFFFFFFFFFFFFFFFFFFFFFFFFFFFFFFFFFFFFFFFF AND DUP2 PUSH20 0xFFFFFFFFFFFFFFFFFFFFFFFFFFFFFFFFFFFFFFFF AND PUSH32 0x8BE0079C531659141344CD1FD0A4F28419497F9722A3DAAFE3B4186F6B6457E0 PUSH1 0x40 MLOAD PUSH1 0x40 MLOAD DUP1 SWAP2 SUB SWAP1 LOG3 POP POP JUMP JUMPDEST PUSH2 0x261C DUP4 PUSH4 0xA9059CBB PUSH1 0xE0 SHL DUP5 DUP5 PUSH1 0x40 MLOAD PUSH1 0x24 ADD PUSH2 0x25BA SWAP3 SWAP2 SWAP1 PUSH2 0x375D JUMP JUMPDEST PUSH1 0x40 MLOAD PUSH1 0x20 DUP2 DUP4 SUB SUB DUP2 MSTORE SWAP1 PUSH1 0x40 MSTORE SWAP1 PUSH28 0xFFFFFFFFFFFFFFFFFFFFFFFFFFFFFFFFFFFFFFFFFFFFFFFFFFFFFFFF NOT AND PUSH1 0x20 DUP3 ADD DUP1 MLOAD PUSH28 0xFFFFFFFFFFFFFFFFFFFFFFFFFFFFFFFFFFFFFFFFFFFFFFFFFFFFFFFF DUP4 DUP2 DUP4 AND OR DUP4 MSTORE POP POP POP POP PUSH2 0x2621 JUMP JUMPDEST POP POP POP JUMP JUMPDEST PUSH1 0x0 PUSH2 0x2683 DUP3 PUSH1 0x40 MLOAD DUP1 PUSH1 0x40 ADD PUSH1 0x40 MSTORE DUP1 PUSH1 0x20 DUP2 MSTORE PUSH1 0x20 ADD PUSH32 0x5361666545524332303A206C6F772D6C6576656C2063616C6C206661696C6564 DUP2 MSTORE POP DUP6 PUSH20 0xFFFFFFFFFFFFFFFFFFFFFFFFFFFFFFFFFFFFFFFF AND PUSH2 0x26E8 SWAP1 SWAP3 SWAP2 SWAP1 PUSH4 0xFFFFFFFF AND JUMP JUMPDEST SWAP1 POP PUSH1 0x0 DUP2 MLOAD GT ISZERO PUSH2 0x26E3 JUMPI DUP1 DUP1 PUSH1 0x20 ADD SWAP1 MLOAD DUP2 ADD SWAP1 PUSH2 0x26A3 SWAP2 SWAP1 PUSH2 0x3B7B JUMP JUMPDEST PUSH2 0x26E2 JUMPI PUSH1 0x40 MLOAD PUSH32 0x8C379A000000000000000000000000000000000000000000000000000000000 DUP2 MSTORE PUSH1 0x4 ADD PUSH2 0x26D9 SWAP1 PUSH2 0x3C1A JUMP JUMPDEST PUSH1 0x40 MLOAD DUP1 SWAP2 SUB SWAP1 REVERT JUMPDEST JUMPDEST POP POP POP JUMP JUMPDEST PUSH1 0x60 PUSH2 0x26F7 DUP5 DUP5 PUSH1 0x0 DUP6 PUSH2 0x2700 JUMP JUMPDEST SWAP1 POP SWAP4 SWAP3 POP POP POP JUMP JUMPDEST PUSH1 0x60 DUP3 SELFBALANCE LT ISZERO PUSH2 0x2745 JUMPI PUSH1 0x40 MLOAD PUSH32 0x8C379A000000000000000000000000000000000000000000000000000000000 DUP2 MSTORE PUSH1 0x4 ADD PUSH2 0x273C SWAP1 PUSH2 0x3CAC JUMP JUMPDEST PUSH1 0x40 MLOAD DUP1 SWAP2 SUB SWAP1 REVERT JUMPDEST PUSH2 0x274E DUP6 PUSH2 0x2814 JUMP JUMPDEST PUSH2 0x278D JUMPI PUSH1 0x40 MLOAD PUSH32 0x8C379A000000000000000000000000000000000000000000000000000000000 DUP2 MSTORE PUSH1 0x4 ADD PUSH2 0x2784 SWAP1 PUSH2 0x3D18 JUMP JUMPDEST PUSH1 0x40 MLOAD DUP1 SWAP2 SUB SWAP1 REVERT JUMPDEST PUSH1 0x0 DUP1 DUP7 PUSH20 0xFFFFFFFFFFFFFFFFFFFFFFFFFFFFFFFFFFFFFFFF AND DUP6 DUP8 PUSH1 0x40 MLOAD PUSH2 0x27B6 SWAP2 SWAP1 PUSH2 0x3DA9 JUMP JUMPDEST PUSH1 0x0 PUSH1 0x40 MLOAD DUP1 DUP4 SUB DUP2 DUP6 DUP8 GAS CALL SWAP3 POP POP POP RETURNDATASIZE DUP1 PUSH1 0x0 DUP2 EQ PUSH2 0x27F3 JUMPI PUSH1 0x40 MLOAD SWAP2 POP PUSH1 0x1F NOT PUSH1 0x3F RETURNDATASIZE ADD AND DUP3 ADD PUSH1 0x40 MSTORE RETURNDATASIZE DUP3 MSTORE RETURNDATASIZE PUSH1 0x0 PUSH1 0x20 DUP5 ADD RETURNDATACOPY PUSH2 0x27F8 JUMP JUMPDEST PUSH1 0x60 SWAP2 POP JUMPDEST POP SWAP2 POP SWAP2 POP PUSH2 0x2808 DUP3 DUP3 DUP7 PUSH2 0x2827 JUMP JUMPDEST SWAP3 POP POP POP SWAP5 SWAP4 POP POP POP POP JUMP JUMPDEST PUSH1 0x0 DUP1 DUP3 EXTCODESIZE SWAP1 POP PUSH1 0x0 DUP2 GT SWAP2 POP POP SWAP2 SWAP1 POP JUMP JUMPDEST PUSH1 0x60 DUP4 ISZERO PUSH2 0x2837 JUMPI DUP3 SWAP1 POP PUSH2 0x2887 JUMP JUMPDEST PUSH1 0x0 DUP4 MLOAD GT ISZERO PUSH2 0x284A JUMPI DUP3 MLOAD DUP1 DUP5 PUSH1 0x20 ADD REVERT JUMPDEST DUP2 PUSH1 0x40 MLOAD PUSH32 0x8C379A000000000000000000000000000000000000000000000000000000000 DUP2 MSTORE PUSH1 0x4 ADD PUSH2 0x287E SWAP2 SWAP1 PUSH2 0x3E04 JUMP JUMPDEST PUSH1 0x40 MLOAD DUP1 SWAP2 SUB SWAP1 REVERT JUMPDEST SWAP4 SWAP3 POP POP POP JUMP JUMPDEST DUP3 PUSH1 0x4 DUP2 ADD SWAP3 DUP3 ISZERO PUSH2 0x28BD JUMPI SWAP2 PUSH1 0x20 MUL DUP3 ADD JUMPDEST DUP3 DUP2 GT ISZERO PUSH2 0x28BC JUMPI DUP3 MLOAD DUP3 SSTORE SWAP2 PUSH1 0x20 ADD SWAP2 SWAP1 PUSH1 0x1 ADD SWAP1 PUSH2 0x28A1 JUMP JUMPDEST JUMPDEST POP SWAP1 POP PUSH2 0x28CA SWAP2 SWAP1 PUSH2 0x28CE JUMP JUMPDEST POP SWAP1 JUMP JUMPDEST JUMPDEST DUP1 DUP3 GT ISZERO PUSH2 0x28E7 JUMPI PUSH1 0x0 DUP2 PUSH1 0x0 SWAP1 SSTORE POP PUSH1 0x1 ADD PUSH2 0x28CF JUMP JUMPDEST POP SWAP1 JUMP JUMPDEST PUSH1 0x0 PUSH1 0x40 MLOAD SWAP1 POP SWAP1 JUMP JUMPDEST PUSH1 0x0 DUP1 REVERT JUMPDEST PUSH1 0x0 DUP2 SWAP1 POP SWAP2 SWAP1 POP JUMP JUMPDEST PUSH2 0x290D DUP2 PUSH2 0x28FA JUMP JUMPDEST DUP2 EQ PUSH2 0x2918 JUMPI PUSH1 0x0 DUP1 REVERT JUMPDEST POP JUMP JUMPDEST PUSH1 0x0 DUP2 CALLDATALOAD SWAP1 POP PUSH2 0x292A DUP2 PUSH2 0x2904 JUMP JUMPDEST SWAP3 SWAP2 POP POP JUMP JUMPDEST PUSH1 0x0 PUSH1 0x20 DUP3 DUP5 SUB SLT ISZERO PUSH2 0x2946 JUMPI PUSH2 0x2945 PUSH2 0x28F5 JUMP JUMPDEST JUMPDEST PUSH1 0x0 PUSH2 0x2954 DUP5 DUP3 DUP6 ADD PUSH2 0x291B JUMP JUMPDEST SWAP2 POP POP SWAP3 SWAP2 POP POP JUMP JUMPDEST PUSH1 0x0 PUSH20 0xFFFFFFFFFFFFFFFFFFFFFFFFFFFFFFFFFFFFFFFF DUP3 AND SWAP1 POP SWAP2 SWAP1 POP JUMP JUMPDEST PUSH1 0x0 PUSH2 0x2988 DUP3 PUSH2 0x295D JUMP JUMPDEST SWAP1 POP SWAP2 SWAP1 POP JUMP JUMPDEST PUSH2 0x2998 DUP2 PUSH2 0x297D JUMP JUMPDEST DUP2 EQ PUSH2 0x29A3 JUMPI PUSH1 0x0 DUP1 REVERT JUMPDEST POP JUMP JUMPDEST PUSH1 0x0 DUP2 CALLDATALOAD SWAP1 POP PUSH2 0x29B5 DUP2 PUSH2 0x298F JUMP JUMPDEST SWAP3 SWAP2 POP POP JUMP JUMPDEST PUSH1 0x0 DUP1 PUSH1 0x40 DUP4 DUP6 SUB SLT ISZERO PUSH2 0x29D2 JUMPI PUSH2 0x29D1 PUSH2 0x28F5 JUMP JUMPDEST JUMPDEST PUSH1 0x0 PUSH2 0x29E0 DUP6 DUP3 DUP7 ADD PUSH2 0x29A6 JUMP JUMPDEST SWAP3 POP POP PUSH1 0x20 PUSH2 0x29F1 DUP6 DUP3 DUP7 ADD PUSH2 0x291B JUMP JUMPDEST SWAP2 POP POP SWAP3 POP SWAP3 SWAP1 POP JUMP JUMPDEST PUSH2 0x2A04 DUP2 PUSH2 0x28FA JUMP JUMPDEST DUP3 MSTORE POP POP JUMP JUMPDEST PUSH1 0x0 PUSH1 0x20 DUP3 ADD SWAP1 POP PUSH2 0x2A1F PUSH1 0x0 DUP4 ADD DUP5 PUSH2 0x29FB JUMP JUMPDEST SWAP3 SWAP2 POP POP JUMP JUMPDEST PUSH1 0x0 DUP2 ISZERO ISZERO SWAP1 POP SWAP2 SWAP1 POP JUMP JUMPDEST PUSH2 0x2A3A DUP2 PUSH2 0x2A25 JUMP JUMPDEST DUP3 MSTORE POP POP JUMP JUMPDEST PUSH1 0x0 PUSH1 0x20 DUP3 ADD SWAP1 POP PUSH2 0x2A55 PUSH1 0x0 DUP4 ADD DUP5 PUSH2 0x2A31 JUMP JUMPDEST SWAP3 SWAP2 POP POP JUMP JUMPDEST PUSH1 0x0 PUSH1 0x20 DUP3 DUP5 SUB SLT ISZERO PUSH2 0x2A71 JUMPI PUSH2 0x2A70 PUSH2 0x28F5 JUMP JUMPDEST JUMPDEST PUSH1 0x0 PUSH2 0x2A7F DUP5 DUP3 DUP6 ADD PUSH2 0x29A6 JUMP JUMPDEST SWAP2 POP POP SWAP3 SWAP2 POP POP JUMP JUMPDEST PUSH1 0x0 PUSH1 0x40 DUP3 ADD SWAP1 POP PUSH2 0x2A9D PUSH1 0x0 DUP4 ADD DUP6 PUSH2 0x29FB JUMP JUMPDEST PUSH2 0x2AAA PUSH1 0x20 DUP4 ADD DUP5 PUSH2 0x2A31 JUMP JUMPDEST SWAP4 SWAP3 POP POP POP JUMP JUMPDEST PUSH1 0x0 DUP1 REVERT JUMPDEST PUSH1 0x0 PUSH1 0x1F NOT PUSH1 0x1F DUP4 ADD AND SWAP1 POP SWAP2 SWAP1 POP JUMP JUMPDEST PUSH32 0x4E487B7100000000000000000000000000000000000000000000000000000000 PUSH1 0x0 MSTORE PUSH1 0x41 PUSH1 0x4 MSTORE PUSH1 0x24 PUSH1 0x0 REVERT JUMPDEST PUSH2 0x2AFF DUP3 PUSH2 0x2AB6 JUMP JUMPDEST DUP2 ADD DUP2 DUP2 LT PUSH8 0xFFFFFFFFFFFFFFFF DUP3 GT OR ISZERO PUSH2 0x2B1E JUMPI PUSH2 0x2B1D PUSH2 0x2AC7 JUMP JUMPDEST JUMPDEST DUP1 PUSH1 0x40 MSTORE POP POP POP JUMP JUMPDEST PUSH1 0x0 PUSH2 0x2B31 PUSH2 0x28EB JUMP JUMPDEST SWAP1 POP PUSH2 0x2B3D DUP3 DUP3 PUSH2 0x2AF6 JUMP JUMPDEST SWAP2 SWAP1 POP JUMP JUMPDEST PUSH1 0x0 PUSH8 0xFFFFFFFFFFFFFFFF DUP3 GT ISZERO PUSH2 0x2B5D JUMPI PUSH2 0x2B5C PUSH2 0x2AC7 JUMP JUMPDEST JUMPDEST PUSH1 0x20 DUP3 MUL SWAP1 POP SWAP2 SWAP1 POP JUMP JUMPDEST PUSH1 0x0 DUP1 REVERT JUMPDEST PUSH1 0x0 PUSH2 0x2B80 PUSH2 0x2B7B DUP5 PUSH2 0x2B42 JUMP JUMPDEST PUSH2 0x2B27 JUMP JUMPDEST SWAP1 POP DUP1 PUSH1 0x20 DUP5 MUL DUP4 ADD DUP6 DUP2 GT ISZERO PUSH2 0x2B9A JUMPI PUSH2 0x2B99 PUSH2 0x2B68 JUMP JUMPDEST JUMPDEST DUP4 JUMPDEST DUP2 DUP2 LT ISZERO PUSH2 0x2BC3 JUMPI DUP1 PUSH2 0x2BAF DUP9 DUP3 PUSH2 0x291B JUMP JUMPDEST DUP5 MSTORE PUSH1 0x20 DUP5 ADD SWAP4 POP POP PUSH1 0x20 DUP2 ADD SWAP1 POP PUSH2 0x2B9C JUMP JUMPDEST POP POP POP SWAP4 SWAP3 POP POP POP JUMP JUMPDEST PUSH1 0x0 DUP3 PUSH1 0x1F DUP4 ADD SLT PUSH2 0x2BE2 JUMPI PUSH2 0x2BE1 PUSH2 0x2AB1 JUMP JUMPDEST JUMPDEST PUSH1 0x4 PUSH2 0x2BEF DUP5 DUP3 DUP6 PUSH2 0x2B6D JUMP JUMPDEST SWAP2 POP POP SWAP3 SWAP2 POP POP JUMP JUMPDEST PUSH1 0x0 DUP1 PUSH1 0xA0 DUP4 DUP6 SUB SLT ISZERO PUSH2 0x2C0F JUMPI PUSH2 0x2C0E PUSH2 0x28F5 JUMP JUMPDEST JUMPDEST PUSH1 0x0 PUSH2 0x2C1D DUP6 DUP3 DUP7 ADD PUSH2 0x29A6 JUMP JUMPDEST SWAP3 POP POP PUSH1 0x20 PUSH2 0x2C2E DUP6 DUP3 DUP7 ADD PUSH2 0x2BCD JUMP JUMPDEST SWAP2 POP POP SWAP3 POP SWAP3 SWAP1 POP JUMP JUMPDEST PUSH2 0x2C41 DUP2 PUSH2 0x297D JUMP JUMPDEST DUP3 MSTORE POP POP JUMP JUMPDEST PUSH1 0x0 PUSH1 0x20 DUP3 ADD SWAP1 POP PUSH2 0x2C5C PUSH1 0x0 DUP4 ADD DUP5 PUSH2 0x2C38 JUMP JUMPDEST SWAP3 SWAP2 POP POP JUMP JUMPDEST PUSH1 0x0 PUSH1 0x80 DUP3 DUP5 SUB SLT ISZERO PUSH2 0x2C78 JUMPI PUSH2 0x2C77 PUSH2 0x28F5 JUMP JUMPDEST JUMPDEST PUSH1 0x0 PUSH2 0x2C86 DUP5 DUP3 DUP6 ADD PUSH2 0x2BCD JUMP JUMPDEST SWAP2 POP POP SWAP3 SWAP2 POP POP JUMP JUMPDEST PUSH1 0x0 DUP3 DUP3 MSTORE PUSH1 0x20 DUP3 ADD SWAP1 POP SWAP3 SWAP2 POP POP JUMP JUMPDEST PUSH32 0x4F776E61626C653A2063616C6C6572206973206E6F7420746865206F776E6572 PUSH1 0x0 DUP3 ADD MSTORE POP JUMP JUMPDEST PUSH1 0x0 PUSH2 0x2CD6 PUSH1 0x20 DUP4 PUSH2 0x2C8F JUMP JUMPDEST SWAP2 POP PUSH2 0x2CE1 DUP3 PUSH2 0x2CA0 JUMP JUMPDEST PUSH1 0x20 DUP3 ADD SWAP1 POP SWAP2 SWAP1 POP JUMP JUMPDEST PUSH1 0x0 PUSH1 0x20 DUP3 ADD SWAP1 POP DUP2 DUP2 SUB PUSH1 0x0 DUP4 ADD MSTORE PUSH2 0x2D05 DUP2 PUSH2 0x2CC9 JUMP JUMPDEST SWAP1 POP SWAP2 SWAP1 POP JUMP JUMPDEST PUSH32 0x4E487B7100000000000000000000000000000000000000000000000000000000 PUSH1 0x0 MSTORE PUSH1 0x11 PUSH1 0x4 MSTORE PUSH1 0x24 PUSH1 0x0 REVERT JUMPDEST PUSH1 0x0 PUSH2 0x2D46 DUP3 PUSH2 0x28FA JUMP JUMPDEST SWAP2 POP PUSH2 0x2D51 DUP4 PUSH2 0x28FA JUMP JUMPDEST SWAP3 POP DUP3 DUP3 ADD SWAP1 POP DUP1 DUP3 GT ISZERO PUSH2 0x2D69 JUMPI PUSH2 0x2D68 PUSH2 0x2D0C JUMP JUMPDEST JUMPDEST SWAP3 SWAP2 POP POP JUMP JUMPDEST PUSH32 0x50726573616C653A20546F6B656E206E6F742077686974656C69737465640000 PUSH1 0x0 DUP3 ADD MSTORE POP JUMP JUMPDEST PUSH1 0x0 PUSH2 0x2DA5 PUSH1 0x1E DUP4 PUSH2 0x2C8F JUMP JUMPDEST SWAP2 POP PUSH2 0x2DB0 DUP3 PUSH2 0x2D6F JUMP JUMPDEST PUSH1 0x20 DUP3 ADD SWAP1 POP SWAP2 SWAP1 POP JUMP JUMPDEST PUSH1 0x0 PUSH1 0x20 DUP3 ADD SWAP1 POP DUP2 DUP2 SUB PUSH1 0x0 DUP4 ADD MSTORE PUSH2 0x2DD4 DUP2 PUSH2 0x2D98 JUMP JUMPDEST SWAP1 POP SWAP2 SWAP1 POP JUMP JUMPDEST PUSH32 0x4E487B7100000000000000000000000000000000000000000000000000000000 PUSH1 0x0 MSTORE PUSH1 0x32 PUSH1 0x4 MSTORE PUSH1 0x24 PUSH1 0x0 REVERT JUMPDEST PUSH1 0x0 DUP2 PUSH1 0x1 SHR SWAP1 POP SWAP2 SWAP1 POP JUMP JUMPDEST PUSH1 0x0 DUP1 DUP3 SWAP2 POP DUP4 SWAP1 POP JUMPDEST PUSH1 0x1 DUP6 GT ISZERO PUSH2 0x2E61 JUMPI DUP1 DUP7 DIV DUP2 GT ISZERO PUSH2 0x2E3D JUMPI PUSH2 0x2E3C PUSH2 0x2D0C JUMP JUMPDEST JUMPDEST PUSH1 0x1 DUP6 AND ISZERO PUSH2 0x2E4C JUMPI DUP1 DUP3 MUL SWAP2 POP JUMPDEST DUP1 DUP2 MUL SWAP1 POP PUSH2 0x2E5A DUP6 PUSH2 0x2E0A JUMP JUMPDEST SWAP5 POP PUSH2 0x2E21 JUMP JUMPDEST SWAP5 POP SWAP5 SWAP3 POP POP POP JUMP JUMPDEST PUSH1 0x0 DUP3 PUSH2 0x2E7A JUMPI PUSH1 0x1 SWAP1 POP PUSH2 0x2F36 JUMP JUMPDEST DUP2 PUSH2 0x2E88 JUMPI PUSH1 0x0 SWAP1 POP PUSH2 0x2F36 JUMP JUMPDEST DUP2 PUSH1 0x1 DUP2 EQ PUSH2 0x2E9E JUMPI PUSH1 0x2 DUP2 EQ PUSH2 0x2EA8 JUMPI PUSH2 0x2ED7 JUMP JUMPDEST PUSH1 0x1 SWAP2 POP POP PUSH2 0x2F36 JUMP JUMPDEST PUSH1 0xFF DUP5 GT ISZERO PUSH2 0x2EBA JUMPI PUSH2 0x2EB9 PUSH2 0x2D0C JUMP JUMPDEST JUMPDEST DUP4 PUSH1 0x2 EXP SWAP2 POP DUP5 DUP3 GT ISZERO PUSH2 0x2ED1 JUMPI PUSH2 0x2ED0 PUSH2 0x2D0C JUMP JUMPDEST JUMPDEST POP PUSH2 0x2F36 JUMP JUMPDEST POP PUSH1 0x20 DUP4 LT PUSH2 0x133 DUP4 LT AND PUSH1 0x4E DUP5 LT PUSH1 0xB DUP5 LT AND OR ISZERO PUSH2 0x2F0C JUMPI DUP3 DUP3 EXP SWAP1 POP DUP4 DUP2 GT ISZERO PUSH2 0x2F07 JUMPI PUSH2 0x2F06 PUSH2 0x2D0C JUMP JUMPDEST JUMPDEST PUSH2 0x2F36 JUMP JUMPDEST PUSH2 0x2F19 DUP5 DUP5 DUP5 PUSH1 0x1 PUSH2 0x2E17 JUMP JUMPDEST SWAP3 POP SWAP1 POP DUP2 DUP5 DIV DUP2 GT ISZERO PUSH2 0x2F30 JUMPI PUSH2 0x2F2F PUSH2 0x2D0C JUMP JUMPDEST JUMPDEST DUP2 DUP2 MUL SWAP1 POP JUMPDEST SWAP4 SWAP3 POP POP POP JUMP JUMPDEST PUSH1 0x0 PUSH2 0x2F48 DUP3 PUSH2 0x28FA JUMP JUMPDEST SWAP2 POP PUSH2 0x2F53 DUP4 PUSH2 0x28FA JUMP JUMPDEST SWAP3 POP PUSH2 0x2F80 PUSH32 0xFFFFFFFFFFFFFFFFFFFFFFFFFFFFFFFFFFFFFFFFFFFFFFFFFFFFFFFFFFFFFFFF DUP5 DUP5 PUSH2 0x2E6A JUMP JUMPDEST SWAP1 POP SWAP3 SWAP2 POP POP JUMP JUMPDEST PUSH1 0x0 PUSH2 0x2F93 DUP3 PUSH2 0x28FA JUMP JUMPDEST SWAP2 POP PUSH2 0x2F9E DUP4 PUSH2 0x28FA JUMP JUMPDEST SWAP3 POP DUP3 DUP3 MUL PUSH2 0x2FAC DUP2 PUSH2 0x28FA JUMP JUMPDEST SWAP2 POP DUP3 DUP3 DIV DUP5 EQ DUP4 ISZERO OR PUSH2 0x2FC3 JUMPI PUSH2 0x2FC2 PUSH2 0x2D0C JUMP JUMPDEST JUMPDEST POP SWAP3 SWAP2 POP POP JUMP JUMPDEST PUSH32 0x4E487B7100000000000000000000000000000000000000000000000000000000 PUSH1 0x0 MSTORE PUSH1 0x12 PUSH1 0x4 MSTORE PUSH1 0x24 PUSH1 0x0 REVERT JUMPDEST PUSH1 0x0 PUSH2 0x3004 DUP3 PUSH2 0x28FA JUMP JUMPDEST SWAP2 POP PUSH2 0x300F DUP4 PUSH2 0x28FA JUMP JUMPDEST SWAP3 POP DUP3 PUSH2 0x301F JUMPI PUSH2 0x301E PUSH2 0x2FCA JUMP JUMPDEST JUMPDEST DUP3 DUP3 DIV SWAP1 POP SWAP3 SWAP2 POP POP JUMP JUMPDEST PUSH32 0x50726573616C653A2050726573616C6520686173206E6F7420656E6465642079 PUSH1 0x0 DUP3 ADD MSTORE PUSH32 0x6574000000000000000000000000000000000000000000000000000000000000 PUSH1 0x20 DUP3 ADD MSTORE POP JUMP JUMPDEST PUSH1 0x0 PUSH2 0x3086 PUSH1 0x22 DUP4 PUSH2 0x2C8F JUMP JUMPDEST SWAP2 POP PUSH2 0x3091 DUP3 PUSH2 0x302A JUMP JUMPDEST PUSH1 0x40 DUP3 ADD SWAP1 POP SWAP2 SWAP1 POP JUMP JUMPDEST PUSH1 0x0 PUSH1 0x20 DUP3 ADD SWAP1 POP DUP2 DUP2 SUB PUSH1 0x0 DUP4 ADD MSTORE PUSH2 0x30B5 DUP2 PUSH2 0x3079 JUMP JUMPDEST SWAP1 POP SWAP2 SWAP1 POP JUMP JUMPDEST PUSH32 0x50726573616C653A20556E6C6F636B696E672068617320616C72656164792073 PUSH1 0x0 DUP3 ADD MSTORE PUSH32 0x7461727465640000000000000000000000000000000000000000000000000000 PUSH1 0x20 DUP3 ADD MSTORE POP JUMP JUMPDEST PUSH1 0x0 PUSH2 0x3118 PUSH1 0x26 DUP4 PUSH2 0x2C8F JUMP JUMPDEST SWAP2 POP PUSH2 0x3123 DUP3 PUSH2 0x30BC JUMP JUMPDEST PUSH1 0x40 DUP3 ADD SWAP1 POP SWAP2 SWAP1 POP JUMP JUMPDEST PUSH1 0x0 PUSH1 0x20 DUP3 ADD SWAP1 POP DUP2 DUP2 SUB PUSH1 0x0 DUP4 ADD MSTORE PUSH2 0x3147 DUP2 PUSH2 0x310B JUMP JUMPDEST SWAP1 POP SWAP2 SWAP1 POP JUMP JUMPDEST PUSH1 0x0 PUSH1 0x4 SWAP1 POP SWAP2 SWAP1 POP JUMP JUMPDEST PUSH1 0x0 DUP2 SWAP1 POP SWAP3 SWAP2 POP POP JUMP JUMPDEST PUSH1 0x0 DUP2 SWAP1 POP SWAP2 SWAP1 POP JUMP JUMPDEST PUSH2 0x3177 DUP2 PUSH2 0x28FA JUMP JUMPDEST DUP3 MSTORE POP POP JUMP JUMPDEST PUSH1 0x0 PUSH2 0x3189 DUP4 DUP4 PUSH2 0x316E JUMP JUMPDEST PUSH1 0x20 DUP4 ADD SWAP1 POP SWAP3 SWAP2 POP POP JUMP JUMPDEST PUSH1 0x0 PUSH1 0x20 DUP3 ADD SWAP1 POP SWAP2 SWAP1 POP JUMP JUMPDEST PUSH2 0x31AB DUP2 PUSH2 0x314E JUMP JUMPDEST PUSH2 0x31B5 DUP2 DUP5 PUSH2 0x3159 JUMP JUMPDEST SWAP3 POP PUSH2 0x31C0 DUP3 PUSH2 0x3164 JUMP JUMPDEST DUP1 PUSH1 0x0 JUMPDEST DUP4 DUP2 LT ISZERO PUSH2 0x31F1 JUMPI DUP2 MLOAD PUSH2 0x31D8 DUP8 DUP3 PUSH2 0x317D JUMP JUMPDEST SWAP7 POP PUSH2 0x31E3 DUP4 PUSH2 0x3195 JUMP JUMPDEST SWAP3 POP POP PUSH1 0x1 DUP2 ADD SWAP1 POP PUSH2 0x31C4 JUMP JUMPDEST POP POP POP POP POP POP JUMP JUMPDEST PUSH1 0x0 PUSH1 0xA0 DUP3 ADD SWAP1 POP PUSH2 0x320E PUSH1 0x0 DUP4 ADD DUP6 PUSH2 0x2C38 JUMP JUMPDEST PUSH2 0x321B PUSH1 0x20 DUP4 ADD DUP5 PUSH2 0x31A2 JUMP JUMPDEST SWAP4 SWAP3 POP POP POP JUMP JUMPDEST PUSH32 0x50726573616C653A2050726573616C6520686173206E6F742073746172746564 PUSH1 0x0 DUP3 ADD MSTORE PUSH32 0x2079657400000000000000000000000000000000000000000000000000000000 PUSH1 0x20 DUP3 ADD MSTORE POP JUMP JUMPDEST PUSH1 0x0 PUSH2 0x327E PUSH1 0x24 DUP4 PUSH2 0x2C8F JUMP JUMPDEST SWAP2 POP PUSH2 0x3289 DUP3 PUSH2 0x3222 JUMP JUMPDEST PUSH1 0x40 DUP3 ADD SWAP1 POP SWAP2 SWAP1 POP JUMP JUMPDEST PUSH1 0x0 PUSH1 0x20 DUP3 ADD SWAP1 POP DUP2 DUP2 SUB PUSH1 0x0 DUP4 ADD MSTORE PUSH2 0x32AD DUP2 PUSH2 0x3271 JUMP JUMPDEST SWAP1 POP SWAP2 SWAP1 POP JUMP JUMPDEST PUSH32 0x50726573616C653A2050726573616C652068617320656E646564000000000000 PUSH1 0x0 DUP3 ADD MSTORE POP JUMP JUMPDEST PUSH1 0x0 PUSH2 0x32EA PUSH1 0x1A DUP4 PUSH2 0x2C8F JUMP JUMPDEST SWAP2 POP PUSH2 0x32F5 DUP3 PUSH2 0x32B4 JUMP JUMPDEST PUSH1 0x20 DUP3 ADD SWAP1 POP SWAP2 SWAP1 POP JUMP JUMPDEST PUSH1 0x0 PUSH1 0x20 DUP3 ADD SWAP1 POP DUP2 DUP2 SUB PUSH1 0x0 DUP4 ADD MSTORE PUSH2 0x3319 DUP2 PUSH2 0x32DD JUMP JUMPDEST SWAP1 POP SWAP2 SWAP1 POP JUMP JUMPDEST PUSH32 0x50726573616C653A204D696E20627579206C696D6974206E6F74207265616368 PUSH1 0x0 DUP3 ADD MSTORE PUSH32 0x6564000000000000000000000000000000000000000000000000000000000000 PUSH1 0x20 DUP3 ADD MSTORE POP JUMP JUMPDEST PUSH1 0x0 PUSH2 0x337C PUSH1 0x22 DUP4 PUSH2 0x2C8F JUMP JUMPDEST SWAP2 POP PUSH2 0x3387 DUP3 PUSH2 0x3320 JUMP JUMPDEST PUSH1 0x40 DUP3 ADD SWAP1 POP SWAP2 SWAP1 POP JUMP JUMPDEST PUSH1 0x0 PUSH1 0x20 DUP3 ADD SWAP1 POP DUP2 DUP2 SUB PUSH1 0x0 DUP4 ADD MSTORE PUSH2 0x33AB DUP2 PUSH2 0x336F JUMP JUMPDEST SWAP1 POP SWAP2 SWAP1 POP JUMP JUMPDEST PUSH32 0x50726573616C653A204D617820627579206C696D697420726561636865642066 PUSH1 0x0 DUP3 ADD MSTORE PUSH32 0x6F72207468697320706861736500000000000000000000000000000000000000 PUSH1 0x20 DUP3 ADD MSTORE POP JUMP JUMPDEST PUSH1 0x0 PUSH2 0x340E PUSH1 0x2D DUP4 PUSH2 0x2C8F JUMP JUMPDEST SWAP2 POP PUSH2 0x3419 DUP3 PUSH2 0x33B2 JUMP JUMPDEST PUSH1 0x40 DUP3 ADD SWAP1 POP SWAP2 SWAP1 POP JUMP JUMPDEST PUSH1 0x0 PUSH1 0x20 DUP3 ADD SWAP1 POP DUP2 DUP2 SUB PUSH1 0x0 DUP4 ADD MSTORE PUSH2 0x343D DUP2 PUSH2 0x3401 JUMP JUMPDEST SWAP1 POP SWAP2 SWAP1 POP JUMP JUMPDEST PUSH32 0x50726573616C653A20546F74616C20546F6B656E2053616C6520526561636865 PUSH1 0x0 DUP3 ADD MSTORE PUSH32 0x6421000000000000000000000000000000000000000000000000000000000000 PUSH1 0x20 DUP3 ADD MSTORE POP JUMP JUMPDEST PUSH1 0x0 PUSH2 0x34A0 PUSH1 0x22 DUP4 PUSH2 0x2C8F JUMP JUMPDEST SWAP2 POP PUSH2 0x34AB DUP3 PUSH2 0x3444 JUMP JUMPDEST PUSH1 0x40 DUP3 ADD SWAP1 POP SWAP2 SWAP1 POP JUMP JUMPDEST PUSH1 0x0 PUSH1 0x20 DUP3 ADD SWAP1 POP DUP2 DUP2 SUB PUSH1 0x0 DUP4 ADD MSTORE PUSH2 0x34CF DUP2 PUSH2 0x3493 JUMP JUMPDEST SWAP1 POP SWAP2 SWAP1 POP JUMP JUMPDEST PUSH32 0x50726573616C653A2043616E6E6F74206275792077697468207A65726F20616D PUSH1 0x0 DUP3 ADD MSTORE PUSH32 0x6F756E7400000000000000000000000000000000000000000000000000000000 PUSH1 0x20 DUP3 ADD MSTORE POP JUMP JUMPDEST PUSH1 0x0 PUSH2 0x3532 PUSH1 0x24 DUP4 PUSH2 0x2C8F JUMP JUMPDEST SWAP2 POP PUSH2 0x353D DUP3 PUSH2 0x34D6 JUMP JUMPDEST PUSH1 0x40 DUP3 ADD SWAP1 POP SWAP2 SWAP1 POP JUMP JUMPDEST PUSH1 0x0 PUSH1 0x20 DUP3 ADD SWAP1 POP DUP2 DUP2 SUB PUSH1 0x0 DUP4 ADD MSTORE PUSH2 0x3561 DUP2 PUSH2 0x3525 JUMP JUMPDEST SWAP1 POP SWAP2 SWAP1 POP JUMP JUMPDEST PUSH1 0x0 PUSH1 0x40 DUP3 ADD SWAP1 POP PUSH2 0x357D PUSH1 0x0 DUP4 ADD DUP6 PUSH2 0x29FB JUMP JUMPDEST PUSH2 0x358A PUSH1 0x20 DUP4 ADD DUP5 PUSH2 0x29FB JUMP JUMPDEST SWAP4 SWAP3 POP POP POP JUMP JUMPDEST PUSH32 0x50726573616C653A2053616C6520746F6B656E2063616E6E6F74206265207A65 PUSH1 0x0 DUP3 ADD MSTORE PUSH32 0x726F206164647265737300000000000000000000000000000000000000000000 PUSH1 0x20 DUP3 ADD MSTORE POP JUMP JUMPDEST PUSH1 0x0 PUSH2 0x35ED PUSH1 0x2A DUP4 PUSH2 0x2C8F JUMP JUMPDEST SWAP2 POP PUSH2 0x35F8 DUP3 PUSH2 0x3591 JUMP JUMPDEST PUSH1 0x40 DUP3 ADD SWAP1 POP SWAP2 SWAP1 POP JUMP JUMPDEST PUSH1 0x0 PUSH1 0x20 DUP3 ADD SWAP1 POP DUP2 DUP2 SUB PUSH1 0x0 DUP4 ADD MSTORE PUSH2 0x361C DUP2 PUSH2 0x35E0 JUMP JUMPDEST SWAP1 POP SWAP2 SWAP1 POP JUMP JUMPDEST PUSH32 0x50726573616C653A20546F74616C20746F6B656E7320666F722073616C652063 PUSH1 0x0 DUP3 ADD MSTORE PUSH32 0x616E6E6F74206265207A65726F00000000000000000000000000000000000000 PUSH1 0x20 DUP3 ADD MSTORE POP JUMP JUMPDEST PUSH1 0x0 PUSH2 0x367F PUSH1 0x2D DUP4 PUSH2 0x2C8F JUMP JUMPDEST SWAP2 POP PUSH2 0x368A DUP3 PUSH2 0x3623 JUMP JUMPDEST PUSH1 0x40 DUP3 ADD SWAP1 POP SWAP2 SWAP1 POP JUMP JUMPDEST PUSH1 0x0 PUSH1 0x20 DUP3 ADD SWAP1 POP DUP2 DUP2 SUB PUSH1 0x0 DUP4 ADD MSTORE PUSH2 0x36AE DUP2 PUSH2 0x3672 JUMP JUMPDEST SWAP1 POP SWAP2 SWAP1 POP JUMP JUMPDEST PUSH1 0x0 PUSH1 0xFF DUP3 AND SWAP1 POP SWAP2 SWAP1 POP JUMP JUMPDEST PUSH2 0x36CB DUP2 PUSH2 0x36B5 JUMP JUMPDEST DUP2 EQ PUSH2 0x36D6 JUMPI PUSH1 0x0 DUP1 REVERT JUMPDEST POP JUMP JUMPDEST PUSH1 0x0 DUP2 MLOAD SWAP1 POP PUSH2 0x36E8 DUP2 PUSH2 0x36C2 JUMP JUMPDEST SWAP3 SWAP2 POP POP JUMP JUMPDEST PUSH1 0x0 PUSH1 0x20 DUP3 DUP5 SUB SLT ISZERO PUSH2 0x3704 JUMPI PUSH2 0x3703 PUSH2 0x28F5 JUMP JUMPDEST JUMPDEST PUSH1 0x0 PUSH2 0x3712 DUP5 DUP3 DUP6 ADD PUSH2 0x36D9 JUMP JUMPDEST SWAP2 POP POP SWAP3 SWAP2 POP POP JUMP JUMPDEST PUSH1 0x0 DUP2 MLOAD SWAP1 POP PUSH2 0x372A DUP2 PUSH2 0x2904 JUMP JUMPDEST SWAP3 SWAP2 POP POP JUMP JUMPDEST PUSH1 0x0 PUSH1 0x20 DUP3 DUP5 SUB SLT ISZERO PUSH2 0x3746 JUMPI PUSH2 0x3745 PUSH2 0x28F5 JUMP JUMPDEST JUMPDEST PUSH1 0x0 PUSH2 0x3754 DUP5 DUP3 DUP6 ADD PUSH2 0x371B JUMP JUMPDEST SWAP2 POP POP SWAP3 SWAP2 POP POP JUMP JUMPDEST PUSH1 0x0 PUSH1 0x40 DUP3 ADD SWAP1 POP PUSH2 0x3772 PUSH1 0x0 DUP4 ADD DUP6 PUSH2 0x2C38 JUMP JUMPDEST PUSH2 0x377F PUSH1 0x20 DUP4 ADD DUP5 PUSH2 0x29FB JUMP JUMPDEST SWAP4 SWAP3 POP POP POP JUMP JUMPDEST PUSH32 0x50726573616C653A20556E6C6F636B696E67206861736E277420737461727465 PUSH1 0x0 DUP3 ADD MSTORE PUSH32 0x6420796574210000000000000000000000000000000000000000000000000000 PUSH1 0x20 DUP3 ADD MSTORE POP JUMP JUMPDEST PUSH1 0x0 PUSH2 0x37E2 PUSH1 0x26 DUP4 PUSH2 0x2C8F JUMP JUMPDEST SWAP2 POP PUSH2 0x37ED DUP3 PUSH2 0x3786 JUMP JUMPDEST PUSH1 0x40 DUP3 ADD SWAP1 POP SWAP2 SWAP1 POP JUMP JUMPDEST PUSH1 0x0 PUSH1 0x20 DUP3 ADD SWAP1 POP DUP2 DUP2 SUB PUSH1 0x0 DUP4 ADD MSTORE PUSH2 0x3811 DUP2 PUSH2 0x37D5 JUMP JUMPDEST SWAP1 POP SWAP2 SWAP1 POP JUMP JUMPDEST PUSH32 0x50726573616C653A204C6F636B696E6720706572696F64206E6F74206F766572 PUSH1 0x0 DUP3 ADD MSTORE PUSH32 0x2079657400000000000000000000000000000000000000000000000000000000 PUSH1 0x20 DUP3 ADD MSTORE POP JUMP JUMPDEST PUSH1 0x0 PUSH2 0x3874 PUSH1 0x24 DUP4 PUSH2 0x2C8F JUMP JUMPDEST SWAP2 POP PUSH2 0x387F DUP3 PUSH2 0x3818 JUMP JUMPDEST PUSH1 0x40 DUP3 ADD SWAP1 POP SWAP2 SWAP1 POP JUMP JUMPDEST PUSH1 0x0 PUSH1 0x20 DUP3 ADD SWAP1 POP DUP2 DUP2 SUB PUSH1 0x0 DUP4 ADD MSTORE PUSH2 0x38A3 DUP2 PUSH2 0x3867 JUMP JUMPDEST SWAP1 POP SWAP2 SWAP1 POP JUMP JUMPDEST PUSH32 0x50726573616C653A20416C726561647920636C61696D65640000000000000000 PUSH1 0x0 DUP3 ADD MSTORE POP JUMP JUMPDEST PUSH1 0x0 PUSH2 0x38E0 PUSH1 0x18 DUP4 PUSH2 0x2C8F JUMP JUMPDEST SWAP2 POP PUSH2 0x38EB DUP3 PUSH2 0x38AA JUMP JUMPDEST PUSH1 0x20 DUP3 ADD SWAP1 POP SWAP2 SWAP1 POP JUMP JUMPDEST PUSH1 0x0 PUSH1 0x20 DUP3 ADD SWAP1 POP DUP2 DUP2 SUB PUSH1 0x0 DUP4 ADD MSTORE PUSH2 0x390F DUP2 PUSH2 0x38D3 JUMP JUMPDEST SWAP1 POP SWAP2 SWAP1 POP JUMP JUMPDEST PUSH32 0x4F776E61626C653A206E6577206F776E657220697320746865207A65726F2061 PUSH1 0x0 DUP3 ADD MSTORE PUSH32 0x6464726573730000000000000000000000000000000000000000000000000000 PUSH1 0x20 DUP3 ADD MSTORE POP JUMP JUMPDEST PUSH1 0x0 PUSH2 0x3972 PUSH1 0x26 DUP4 PUSH2 0x2C8F JUMP JUMPDEST SWAP2 POP PUSH2 0x397D DUP3 PUSH2 0x3916 JUMP JUMPDEST PUSH1 0x40 DUP3 ADD SWAP1 POP SWAP2 SWAP1 POP JUMP JUMPDEST PUSH1 0x0 PUSH1 0x20 DUP3 ADD SWAP1 POP DUP2 DUP2 SUB PUSH1 0x0 DUP4 ADD MSTORE PUSH2 0x39A1 DUP2 PUSH2 0x3965 JUMP JUMPDEST SWAP1 POP SWAP2 SWAP1 POP JUMP JUMPDEST PUSH32 0x50726573616C653A2043616E6E6F742077697468647261772073616C6520746F PUSH1 0x0 DUP3 ADD MSTORE PUSH32 0x6B656E20776974682074686973206D6574686F642C2075736520776974686472 PUSH1 0x20 DUP3 ADD MSTORE PUSH32 0x617753616C65546F6B656E282920696E73746561640000000000000000000000 PUSH1 0x40 DUP3 ADD MSTORE POP JUMP JUMPDEST PUSH1 0x0 PUSH2 0x3A2A PUSH1 0x55 DUP4 PUSH2 0x2C8F JUMP JUMPDEST SWAP2 POP PUSH2 0x3A35 DUP3 PUSH2 0x39A8 JUMP JUMPDEST PUSH1 0x60 DUP3 ADD SWAP1 POP SWAP2 SWAP1 POP JUMP JUMPDEST PUSH1 0x0 PUSH1 0x20 DUP3 ADD SWAP1 POP DUP2 DUP2 SUB PUSH1 0x0 DUP4 ADD MSTORE PUSH2 0x3A59 DUP2 PUSH2 0x3A1D JUMP JUMPDEST SWAP1 POP SWAP2 SWAP1 POP JUMP JUMPDEST PUSH32 0x50726573616C653A2043616E6E6F742077697468647261772073616C6520746F PUSH1 0x0 DUP3 ADD MSTORE PUSH32 0x6B656E20776974682074686973206D6574686F642C2075736520776974686472 PUSH1 0x20 DUP3 ADD MSTORE PUSH32 0x6177416C6C53616C65546F6B656E282920696E73746561640000000000000000 PUSH1 0x40 DUP3 ADD MSTORE POP JUMP JUMPDEST PUSH1 0x0 PUSH2 0x3AE2 PUSH1 0x58 DUP4 PUSH2 0x2C8F JUMP JUMPDEST SWAP2 POP PUSH2 0x3AED DUP3 PUSH2 0x3A60 JUMP JUMPDEST PUSH1 0x60 DUP3 ADD SWAP1 POP SWAP2 SWAP1 POP JUMP JUMPDEST PUSH1 0x0 PUSH1 0x20 DUP3 ADD SWAP1 POP DUP2 DUP2 SUB PUSH1 0x0 DUP4 ADD MSTORE PUSH2 0x3B11 DUP2 PUSH2 0x3AD5 JUMP JUMPDEST SWAP1 POP SWAP2 SWAP1 POP JUMP JUMPDEST PUSH1 0x0 PUSH1 0x60 DUP3 ADD SWAP1 POP PUSH2 0x3B2D PUSH1 0x0 DUP4 ADD DUP7 PUSH2 0x2C38 JUMP JUMPDEST PUSH2 0x3B3A PUSH1 0x20 DUP4 ADD DUP6 PUSH2 0x2C38 JUMP JUMPDEST PUSH2 0x3B47 PUSH1 0x40 DUP4 ADD DUP5 PUSH2 0x29FB JUMP JUMPDEST SWAP5 SWAP4 POP POP POP POP JUMP JUMPDEST PUSH2 0x3B58 DUP2 PUSH2 0x2A25 JUMP JUMPDEST DUP2 EQ PUSH2 0x3B63 JUMPI PUSH1 0x0 DUP1 REVERT JUMPDEST POP JUMP JUMPDEST PUSH1 0x0 DUP2 MLOAD SWAP1 POP PUSH2 0x3B75 DUP2 PUSH2 0x3B4F JUMP JUMPDEST SWAP3 SWAP2 POP POP JUMP JUMPDEST PUSH1 0x0 PUSH1 0x20 DUP3 DUP5 SUB SLT ISZERO PUSH2 0x3B91 JUMPI PUSH2 0x3B90 PUSH2 0x28F5 JUMP JUMPDEST JUMPDEST PUSH1 0x0 PUSH2 0x3B9F DUP5 DUP3 DUP6 ADD PUSH2 0x3B66 JUMP JUMPDEST SWAP2 POP POP SWAP3 SWAP2 POP POP JUMP JUMPDEST PUSH32 0x5361666545524332303A204552433230206F7065726174696F6E20646964206E PUSH1 0x0 DUP3 ADD MSTORE PUSH32 0x6F74207375636365656400000000000000000000000000000000000000000000 PUSH1 0x20 DUP3 ADD MSTORE POP JUMP JUMPDEST PUSH1 0x0 PUSH2 0x3C04 PUSH1 0x2A DUP4 PUSH2 0x2C8F JUMP JUMPDEST SWAP2 POP PUSH2 0x3C0F DUP3 PUSH2 0x3BA8 JUMP JUMPDEST PUSH1 0x40 DUP3 ADD SWAP1 POP SWAP2 SWAP1 POP JUMP JUMPDEST PUSH1 0x0 PUSH1 0x20 DUP3 ADD SWAP1 POP DUP2 DUP2 SUB PUSH1 0x0 DUP4 ADD MSTORE PUSH2 0x3C33 DUP2 PUSH2 0x3BF7 JUMP JUMPDEST SWAP1 POP SWAP2 SWAP1 POP JUMP JUMPDEST PUSH32 0x416464726573733A20696E73756666696369656E742062616C616E636520666F PUSH1 0x0 DUP3 ADD MSTORE PUSH32 0x722063616C6C0000000000000000000000000000000000000000000000000000 PUSH1 0x20 DUP3 ADD MSTORE POP JUMP JUMPDEST PUSH1 0x0 PUSH2 0x3C96 PUSH1 0x26 DUP4 PUSH2 0x2C8F JUMP JUMPDEST SWAP2 POP PUSH2 0x3CA1 DUP3 PUSH2 0x3C3A JUMP JUMPDEST PUSH1 0x40 DUP3 ADD SWAP1 POP SWAP2 SWAP1 POP JUMP JUMPDEST PUSH1 0x0 PUSH1 0x20 DUP3 ADD SWAP1 POP DUP2 DUP2 SUB PUSH1 0x0 DUP4 ADD MSTORE PUSH2 0x3CC5 DUP2 PUSH2 0x3C89 JUMP JUMPDEST SWAP1 POP SWAP2 SWAP1 POP JUMP JUMPDEST PUSH32 0x416464726573733A2063616C6C20746F206E6F6E2D636F6E7472616374000000 PUSH1 0x0 DUP3 ADD MSTORE POP JUMP JUMPDEST PUSH1 0x0 PUSH2 0x3D02 PUSH1 0x1D DUP4 PUSH2 0x2C8F JUMP JUMPDEST SWAP2 POP PUSH2 0x3D0D DUP3 PUSH2 0x3CCC JUMP JUMPDEST PUSH1 0x20 DUP3 ADD SWAP1 POP SWAP2 SWAP1 POP JUMP JUMPDEST PUSH1 0x0 PUSH1 0x20 DUP3 ADD SWAP1 POP DUP2 DUP2 SUB PUSH1 0x0 DUP4 ADD MSTORE PUSH2 0x3D31 DUP2 PUSH2 0x3CF5 JUMP JUMPDEST SWAP1 POP SWAP2 SWAP1 POP JUMP JUMPDEST PUSH1 0x0 DUP2 MLOAD SWAP1 POP SWAP2 SWAP1 POP JUMP JUMPDEST PUSH1 0x0 DUP2 SWAP1 POP SWAP3 SWAP2 POP POP JUMP JUMPDEST PUSH1 0x0 JUMPDEST DUP4 DUP2 LT ISZERO PUSH2 0x3D6C JUMPI DUP1 DUP3 ADD MLOAD DUP2 DUP5 ADD MSTORE PUSH1 0x20 DUP2 ADD SWAP1 POP PUSH2 0x3D51 JUMP JUMPDEST PUSH1 0x0 DUP5 DUP5 ADD MSTORE POP POP POP POP JUMP JUMPDEST PUSH1 0x0 PUSH2 0x3D83 DUP3 PUSH2 0x3D38 JUMP JUMPDEST PUSH2 0x3D8D DUP2 DUP6 PUSH2 0x3D43 JUMP JUMPDEST SWAP4 POP PUSH2 0x3D9D DUP2 DUP6 PUSH1 0x20 DUP7 ADD PUSH2 0x3D4E JUMP JUMPDEST DUP1 DUP5 ADD SWAP2 POP POP SWAP3 SWAP2 POP POP JUMP JUMPDEST PUSH1 0x0 PUSH2 0x3DB5 DUP3 DUP5 PUSH2 0x3D78 JUMP JUMPDEST SWAP2 POP DUP2 SWAP1 POP SWAP3 SWAP2 POP POP JUMP JUMPDEST PUSH1 0x0 DUP2 MLOAD SWAP1 POP SWAP2 SWAP1 POP JUMP JUMPDEST PUSH1 0x0 PUSH2 0x3DD6 DUP3 PUSH2 0x3DC0 JUMP JUMPDEST PUSH2 0x3DE0 DUP2 DUP6 PUSH2 0x2C8F JUMP JUMPDEST SWAP4 POP PUSH2 0x3DF0 DUP2 DUP6 PUSH1 0x20 DUP7 ADD PUSH2 0x3D4E JUMP JUMPDEST PUSH2 0x3DF9 DUP2 PUSH2 0x2AB6 JUMP JUMPDEST DUP5 ADD SWAP2 POP POP SWAP3 SWAP2 POP POP JUMP JUMPDEST PUSH1 0x0 PUSH1 0x20 DUP3 ADD SWAP1 POP DUP2 DUP2 SUB PUSH1 0x0 DUP4 ADD MSTORE PUSH2 0x3E1E DUP2 DUP5 PUSH2 0x3DCB JUMP JUMPDEST SWAP1 POP SWAP3 SWAP2 POP POP JUMP INVALID LOG2 PUSH5 0x6970667358 0x22 SLT KECCAK256 DUP11 LOG4 0xAD 0xAA AND 0xCC MSTORE PUSH16 0xA1E413E80D2F1AEBE13D031C56F15CBD 0xCA PUSH14 0x5BE60467172364736F6C63430008 SLT STOP CALLER "
				},
				"gasEstimates": {
					"creation": {
						"codeDepositCost": "3192800",
						"executionCost": "infinite",
						"totalCost": "infinite"
					},
					"external": {
						"addWhiteListedToken(address,uint256[4])": "infinite",
						"buyToken(address,uint256)": "infinite",
						"buyersAmount(address)": "5172",
						"getCurrentTier()": "440",
						"getTokenAmount(address,uint256)": "infinite",
						"isUnlockingStarted()": "2517",
						"maxBuyLimit()": "2474",
						"minBuyLimit()": "2540",
						"owner()": "2612",
						"presaleEndTime()": "2520",
						"presaleStartTime()": "2474",
						"rate(uint256)": "infinite",
						"renounceOwnership()": "30463",
						"saleToken()": "2625",
						"saleTokenDec()": "2496",
						"setMaxBuyLimit(uint256)": "24893",
						"setMinBuyLimit(uint256)": "24872",
						"setSaleTokenParams(address,uint256)": "infinite",
						"startAndSetPresaleEndTime(uint256)": "46985",
						"startUnlocking()": "31045",
						"stopUnlocking()": "31018",
						"tokenPrices(address,uint256)": "infinite",
						"tokenWL(address)": "2913",
						"totalTokensSold()": "2475",
						"totalTokensforSale()": "2496",
						"transferOwnership(address)": "30786",
						"upateTime(uint256)": "infinite",
						"updateEthRate(uint256[4])": "infinite",
						"updateTokenRate(address,uint256[4])": "infinite",
						"withdraw(address,uint256)": "infinite",
						"withdrawAll(address)": "infinite",
						"withdrawAllSaleToken()": "infinite",
						"withdrawCurrency(uint256)": "infinite",
						"withdrawSaleToken(uint256)": "infinite",
						"withdrawToken()": "infinite"
					}
				},
				"methodIdentifiers": {
					"addWhiteListedToken(address,uint256[4])": "65617db1",
					"buyToken(address,uint256)": "68f8fc10",
					"buyersAmount(address)": "54a9f102",
					"getCurrentTier()": "7412c223",
					"getTokenAmount(address,uint256)": "115ece4c",
					"isUnlockingStarted()": "3848a771",
					"maxBuyLimit()": "6aa5b37f",
					"minBuyLimit()": "b81df742",
					"owner()": "8da5cb5b",
					"presaleEndTime()": "249b7c19",
					"presaleStartTime()": "a82524b2",
					"rate(uint256)": "e7ee6ad6",
					"renounceOwnership()": "715018a6",
					"saleToken()": "e985e367",
					"saleTokenDec()": "ace1741c",
					"setMaxBuyLimit(uint256)": "757765f8",
					"setMinBuyLimit(uint256)": "99b77032",
					"setSaleTokenParams(address,uint256)": "89e6ce1e",
					"startAndSetPresaleEndTime(uint256)": "5b10bd6a",
					"startUnlocking()": "2a95c24c",
					"stopUnlocking()": "b5b0763c",
					"tokenPrices(address,uint256)": "683b3b97",
					"tokenWL(address)": "8ce0b9d2",
					"totalTokensSold()": "63b20117",
					"totalTokensforSale()": "6bcedf9c",
					"transferOwnership(address)": "f2fde38b",
					"upateTime(uint256)": "0fabdd44",
					"updateEthRate(uint256[4])": "ee774ccd",
					"updateTokenRate(address,uint256[4])": "cae70c70",
					"withdraw(address,uint256)": "f3fef3a3",
					"withdrawAll(address)": "fa09e630",
					"withdrawAllSaleToken()": "fb00f3fc",
					"withdrawCurrency(uint256)": "3c00a36c",
					"withdrawSaleToken(uint256)": "ded441c2",
					"withdrawToken()": "ca628c78"
				}
			},
			"storageLayout": {
				"storage": [
					{
						"astId": 93,
						"contract": "contracts/contract.sol:Presale",
						"label": "_owner",
						"offset": 0,
						"slot": "0",
						"type": "t_address"
					},
					{
						"astId": 687,
						"contract": "contracts/contract.sol:Presale",
						"label": "rate",
						"offset": 0,
						"slot": "1",
						"type": "t_array(t_uint256)4_storage"
					},
					{
						"astId": 689,
						"contract": "contracts/contract.sol:Presale",
						"label": "saleToken",
						"offset": 0,
						"slot": "5",
						"type": "t_address"
					},
					{
						"astId": 691,
						"contract": "contracts/contract.sol:Presale",
						"label": "saleTokenDec",
						"offset": 0,
						"slot": "6",
						"type": "t_uint256"
					},
					{
						"astId": 693,
						"contract": "contracts/contract.sol:Presale",
						"label": "totalTokensforSale",
						"offset": 0,
						"slot": "7",
						"type": "t_uint256"
					},
					{
						"astId": 695,
						"contract": "contracts/contract.sol:Presale",
						"label": "maxBuyLimit",
						"offset": 0,
						"slot": "8",
						"type": "t_uint256"
					},
					{
						"astId": 697,
						"contract": "contracts/contract.sol:Presale",
						"label": "minBuyLimit",
						"offset": 0,
						"slot": "9",
						"type": "t_uint256"
					},
					{
						"astId": 701,
						"contract": "contracts/contract.sol:Presale",
						"label": "tokenWL",
						"offset": 0,
						"slot": "10",
						"type": "t_mapping(t_address,t_bool)"
					},
					{
						"astId": 707,
						"contract": "contracts/contract.sol:Presale",
						"label": "tokenPrices",
						"offset": 0,
						"slot": "11",
						"type": "t_mapping(t_address,t_array(t_uint256)4_storage)"
					},
					{
						"astId": 709,
						"contract": "contracts/contract.sol:Presale",
						"label": "presaleStartTime",
						"offset": 0,
						"slot": "12",
						"type": "t_uint256"
					},
					{
						"astId": 711,
						"contract": "contracts/contract.sol:Presale",
						"label": "presaleEndTime",
						"offset": 0,
						"slot": "13",
						"type": "t_uint256"
					},
					{
						"astId": 713,
						"contract": "contracts/contract.sol:Presale",
						"label": "isUnlockingStarted",
						"offset": 0,
						"slot": "14",
						"type": "t_bool"
					},
					{
						"astId": 718,
						"contract": "contracts/contract.sol:Presale",
						"label": "buyersAmount",
						"offset": 0,
						"slot": "15",
						"type": "t_mapping(t_address,t_struct(BuyerTokenDetails)725_storage)"
					},
					{
						"astId": 720,
						"contract": "contracts/contract.sol:Presale",
						"label": "totalTokensSold",
						"offset": 0,
						"slot": "16",
						"type": "t_uint256"
					}
				],
				"types": {
					"t_address": {
						"encoding": "inplace",
						"label": "address",
						"numberOfBytes": "20"
					},
					"t_array(t_uint256)4_storage": {
						"base": "t_uint256",
						"encoding": "inplace",
						"label": "uint256[4]",
						"numberOfBytes": "128"
					},
					"t_bool": {
						"encoding": "inplace",
						"label": "bool",
						"numberOfBytes": "1"
					},
					"t_mapping(t_address,t_array(t_uint256)4_storage)": {
						"encoding": "mapping",
						"key": "t_address",
						"label": "mapping(address => uint256[4])",
						"numberOfBytes": "32",
						"value": "t_array(t_uint256)4_storage"
					},
					"t_mapping(t_address,t_bool)": {
						"encoding": "mapping",
						"key": "t_address",
						"label": "mapping(address => bool)",
						"numberOfBytes": "32",
						"value": "t_bool"
					},
					"t_mapping(t_address,t_struct(BuyerTokenDetails)725_storage)": {
						"encoding": "mapping",
						"key": "t_address",
						"label": "mapping(address => struct Presale.BuyerTokenDetails)",
						"numberOfBytes": "32",
						"value": "t_struct(BuyerTokenDetails)725_storage"
					},
					"t_struct(BuyerTokenDetails)725_storage": {
						"encoding": "inplace",
						"label": "struct Presale.BuyerTokenDetails",
						"members": [
							{
								"astId": 722,
								"contract": "contracts/contract.sol:Presale",
								"label": "amount",
								"offset": 0,
								"slot": "0",
								"type": "t_uint256"
							},
							{
								"astId": 724,
								"contract": "contracts/contract.sol:Presale",
								"label": "isClaimed",
								"offset": 0,
								"slot": "1",
								"type": "t_bool"
							}
						],
						"numberOfBytes": "64"
					},
					"t_uint256": {
						"encoding": "inplace",
						"label": "uint256",
						"numberOfBytes": "32"
					}
				}
			},
			"userdoc": {
				"kind": "user",
				"methods": {},
				"version": 1
			}
		}
	}
}