{
	"contracts/letter.sol": {
		"LetterStorage": {
			"abi": [
				{
					"inputs": [],
					"stateMutability": "nonpayable",
					"type": "constructor"
				},
				{
					"inputs": [
						{
							"internalType": "string",
							"name": "_ipfsLink",
							"type": "string"
						}
					],
					"name": "addLetter",
					"outputs": [],
					"stateMutability": "nonpayable",
					"type": "function"
				},
				{
					"inputs": [
						{
							"internalType": "uint256",
							"name": "_index",
							"type": "uint256"
						}
					],
					"name": "deleteLetter",
					"outputs": [],
					"stateMutability": "nonpayable",
					"type": "function"
				},
				{
					"inputs": [],
					"name": "getAllLetters",
					"outputs": [
						{
							"components": [
								{
									"internalType": "uint256",
									"name": "date",
									"type": "uint256"
								},
								{
									"internalType": "string",
									"name": "ipfsLink",
									"type": "string"
								}
							],
							"internalType": "struct LetterStorage.Letter[]",
							"name": "",
							"type": "tuple[]"
						}
					],
					"stateMutability": "view",
					"type": "function"
				},
				{
					"inputs": [
						{
							"internalType": "uint256",
							"name": "_index",
							"type": "uint256"
						}
					],
					"name": "getLetter",
					"outputs": [
						{
							"internalType": "uint256",
							"name": "",
							"type": "uint256"
						},
						{
							"internalType": "string",
							"name": "",
							"type": "string"
						}
					],
					"stateMutability": "view",
					"type": "function"
				},
				{
					"inputs": [],
					"name": "getLetterCount",
					"outputs": [
						{
							"internalType": "uint256",
							"name": "",
							"type": "uint256"
						}
					],
					"stateMutability": "view",
					"type": "function"
				},
				{
					"inputs": [],
					"name": "letterCount",
					"outputs": [
						{
							"internalType": "uint256",
							"name": "",
							"type": "uint256"
						}
					],
					"stateMutability": "view",
					"type": "function"
				},
				{
					"inputs": [
						{
							"internalType": "uint256",
							"name": "",
							"type": "uint256"
						}
					],
					"name": "letters",
					"outputs": [
						{
							"internalType": "uint256",
							"name": "date",
							"type": "uint256"
						},
						{
							"internalType": "string",
							"name": "ipfsLink",
							"type": "string"
						}
					],
					"stateMutability": "view",
					"type": "function"
				},
				{
					"inputs": [],
					"name": "owner",
					"outputs": [
						{
							"internalType": "address",
							"name": "",
							"type": "address"
						}
					],
					"stateMutability": "view",
					"type": "function"
				},
				{
					"inputs": [
						{
							"internalType": "uint256",
							"name": "_index",
							"type": "uint256"
						},
						{
							"internalType": "uint256",
							"name": "_newDate",
							"type": "uint256"
						},
						{
							"internalType": "string",
							"name": "_newIpfsLink",
							"type": "string"
						}
					],
					"name": "updateLetter",
					"outputs": [],
					"stateMutability": "nonpayable",
					"type": "function"
				}
			],
			"devdoc": {
				"kind": "dev",
				"methods": {},
				"version": 1
			},
			"evm": {
				"assembly": "    /* \"contracts/letter.sol\":58:1854  contract LetterStorage {... */\n  mstore(0x40, 0x80)\n    /* \"contracts/letter.sol\":411:460  constructor() {... */\n  callvalue\n  dup1\n  iszero\n  tag_1\n  jumpi\n  0x00\n  dup1\n  revert\ntag_1:\n  pop\n    /* \"contracts/letter.sol\":443:453  msg.sender */\n  caller\n    /* \"contracts/letter.sol\":435:440  owner */\n  0x00\n  dup1\n    /* \"contracts/letter.sol\":435:453  owner = msg.sender */\n  0x0100\n  exp\n  dup2\n  sload\n  dup2\n  0xffffffffffffffffffffffffffffffffffffffff\n  mul\n  not\n  and\n  swap1\n  dup4\n  0xffffffffffffffffffffffffffffffffffffffff\n  and\n  mul\n  or\n  swap1\n  sstore\n  pop\n    /* \"contracts/letter.sol\":58:1854  contract LetterStorage {... */\n  dataSize(sub_0)\n  dup1\n  dataOffset(sub_0)\n  0x00\n  codecopy\n  0x00\n  return\nstop\n\nsub_0: assembly {\n        /* \"contracts/letter.sol\":58:1854  contract LetterStorage {... */\n      mstore(0x40, 0x80)\n      callvalue\n      dup1\n      iszero\n      tag_1\n      jumpi\n      0x00\n      dup1\n      revert\n    tag_1:\n      pop\n      jumpi(tag_2, lt(calldatasize, 0x04))\n      shr(0xe0, calldataload(0x00))\n      dup1\n      0xa2a0e4c3\n      gt\n      tag_12\n      jumpi\n      dup1\n      0xa2a0e4c3\n      eq\n      tag_7\n      jumpi\n      dup1\n      0xafeae1e4\n      eq\n      tag_8\n      jumpi\n      dup1\n      0xdd61ed93\n      eq\n      tag_9\n      jumpi\n      dup1\n      0xf2fb11bf\n      eq\n      tag_10\n      jumpi\n      dup1\n      0xf8277033\n      eq\n      tag_11\n      jumpi\n      jump(tag_2)\n    tag_12:\n      dup1\n      0x378eea82\n      eq\n      tag_3\n      jumpi\n      dup1\n      0x5119cb20\n      eq\n      tag_4\n      jumpi\n      dup1\n      0x8da5cb5b\n      eq\n      tag_5\n      jumpi\n      dup1\n      0x96e583a9\n      eq\n      tag_6\n      jumpi\n    tag_2:\n      0x00\n      dup1\n      revert\n        /* \"contracts/letter.sol\":630:852  function updateLetter(uint256 _index, uint256 _newDate, string memory _newIpfsLink) public onlyOwner {... */\n    tag_3:\n      tag_13\n      0x04\n      dup1\n      calldatasize\n      sub\n      dup2\n      add\n      swap1\n      tag_14\n      swap2\n      swap1\n      tag_15\n      jump\t// in\n    tag_14:\n      tag_16\n      jump\t// in\n    tag_13:\n      stop\n        /* \"contracts/letter.sol\":1247:1338  function getLetterCount() public view returns (uint256) {... */\n    tag_4:\n      tag_17\n      tag_18\n      jump\t// in\n    tag_17:\n      mload(0x40)\n      tag_19\n      swap2\n      swap1\n      tag_20\n      jump\t// in\n    tag_19:\n      mload(0x40)\n      dup1\n      swap2\n      sub\n      swap1\n      return\n        /* \"contracts/letter.sol\":88:108  address public owner */\n    tag_5:\n      tag_21\n      tag_22\n      jump\t// in\n    tag_21:\n      mload(0x40)\n      tag_23\n      swap2\n      swap1\n      tag_24\n      jump\t// in\n    tag_23:\n      mload(0x40)\n      dup1\n      swap2\n      sub\n      swap1\n      return\n        /* \"contracts/letter.sol\":1344:1582  function getLetter(uint256 _index) public view returns (uint256, string memory) {... */\n    tag_6:\n      tag_25\n      0x04\n      dup1\n      calldatasize\n      sub\n      dup2\n      add\n      swap1\n      tag_26\n      swap2\n      swap1\n      tag_27\n      jump\t// in\n    tag_26:\n      tag_28\n      jump\t// in\n    tag_25:\n      mload(0x40)\n      tag_29\n      swap3\n      swap2\n      swap1\n      tag_30\n      jump\t// in\n    tag_29:\n      mload(0x40)\n      dup1\n      swap2\n      sub\n      swap1\n      return\n        /* \"contracts/letter.sol\":197:238  mapping(uint256 => Letter) public letters */\n    tag_7:\n      tag_31\n      0x04\n      dup1\n      calldatasize\n      sub\n      dup2\n      add\n      swap1\n      tag_32\n      swap2\n      swap1\n      tag_27\n      jump\t// in\n    tag_32:\n      tag_33\n      jump\t// in\n    tag_31:\n      mload(0x40)\n      tag_34\n      swap3\n      swap2\n      swap1\n      tag_30\n      jump\t// in\n    tag_34:\n      mload(0x40)\n      dup1\n      swap2\n      sub\n      swap1\n      return\n        /* \"contracts/letter.sol\":466:624  function addLetter(string memory _ipfsLink) public onlyOwner {... */\n    tag_8:\n      tag_35\n      0x04\n      dup1\n      calldatasize\n      sub\n      dup2\n      add\n      swap1\n      tag_36\n      swap2\n      swap1\n      tag_37\n      jump\t// in\n    tag_36:\n      tag_38\n      jump\t// in\n    tag_35:\n      stop\n        /* \"contracts/letter.sol\":1588:1851  function getAllLetters() public view returns (Letter[] memory) {... */\n    tag_9:\n      tag_39\n      tag_40\n      jump\t// in\n    tag_39:\n      mload(0x40)\n      tag_41\n      swap2\n      swap1\n      tag_42\n      jump\t// in\n    tag_41:\n      mload(0x40)\n      dup1\n      swap2\n      sub\n      swap1\n      return\n        /* \"contracts/letter.sol\":244:270  uint256 public letterCount */\n    tag_10:\n      tag_43\n      tag_44\n      jump\t// in\n    tag_43:\n      mload(0x40)\n      tag_45\n      swap2\n      swap1\n      tag_20\n      jump\t// in\n    tag_45:\n      mload(0x40)\n      dup1\n      swap2\n      sub\n      swap1\n      return\n        /* \"contracts/letter.sol\":858:1241  function deleteLetter(uint256 _index) public onlyOwner {... */\n    tag_11:\n      tag_46\n      0x04\n      dup1\n      calldatasize\n      sub\n      dup2\n      add\n      swap1\n      tag_47\n      swap2\n      swap1\n      tag_27\n      jump\t// in\n    tag_47:\n      tag_48\n      jump\t// in\n    tag_46:\n      stop\n        /* \"contracts/letter.sol\":630:852  function updateLetter(uint256 _index, uint256 _newDate, string memory _newIpfsLink) public onlyOwner {... */\n    tag_16:\n        /* \"contracts/letter.sol\":330:335  owner */\n      0x00\n      dup1\n      sload\n      swap1\n      0x0100\n      exp\n      swap1\n      div\n      0xffffffffffffffffffffffffffffffffffffffff\n      and\n        /* \"contracts/letter.sol\":316:335  msg.sender == owner */\n      0xffffffffffffffffffffffffffffffffffffffff\n      and\n        /* \"contracts/letter.sol\":316:326  msg.sender */\n      caller\n        /* \"contracts/letter.sol\":316:335  msg.sender == owner */\n      0xffffffffffffffffffffffffffffffffffffffff\n      and\n      eq\n        /* \"contracts/letter.sol\":308:387  require(msg.sender == owner, \"Only the contract owner can perform this action\") */\n      tag_50\n      jumpi\n      mload(0x40)\n      0x08c379a000000000000000000000000000000000000000000000000000000000\n      dup2\n      mstore\n      0x04\n      add\n      tag_51\n      swap1\n      tag_52\n      jump\t// in\n    tag_51:\n      mload(0x40)\n      dup1\n      swap2\n      sub\n      swap1\n      revert\n    tag_50:\n        /* \"contracts/letter.sol\":758:769  letterCount */\n      sload(0x02)\n        /* \"contracts/letter.sol\":749:755  _index */\n      dup4\n        /* \"contracts/letter.sol\":749:769  _index < letterCount */\n      lt\n        /* \"contracts/letter.sol\":741:787  require(_index < letterCount, \"Invalid index\") */\n      tag_54\n      jumpi\n      mload(0x40)\n      0x08c379a000000000000000000000000000000000000000000000000000000000\n      dup2\n      mstore\n      0x04\n      add\n      tag_55\n      swap1\n      tag_56\n      jump\t// in\n    tag_55:\n      mload(0x40)\n      dup1\n      swap2\n      sub\n      swap1\n      revert\n    tag_54:\n        /* \"contracts/letter.sol\":815:845  Letter(_newDate, _newIpfsLink) */\n      mload(0x40)\n      dup1\n      0x40\n      add\n      0x40\n      mstore\n      dup1\n        /* \"contracts/letter.sol\":822:830  _newDate */\n      dup4\n        /* \"contracts/letter.sol\":815:845  Letter(_newDate, _newIpfsLink) */\n      dup2\n      mstore\n      0x20\n      add\n        /* \"contracts/letter.sol\":832:844  _newIpfsLink */\n      dup3\n        /* \"contracts/letter.sol\":815:845  Letter(_newDate, _newIpfsLink) */\n      dup2\n      mstore\n      pop\n        /* \"contracts/letter.sol\":797:804  letters */\n      0x01\n        /* \"contracts/letter.sol\":797:812  letters[_index] */\n      0x00\n        /* \"contracts/letter.sol\":805:811  _index */\n      dup6\n        /* \"contracts/letter.sol\":797:812  letters[_index] */\n      dup2\n      mstore\n      0x20\n      add\n      swap1\n      dup2\n      mstore\n      0x20\n      add\n      0x00\n      keccak256\n        /* \"contracts/letter.sol\":797:845  letters[_index] = Letter(_newDate, _newIpfsLink) */\n      0x00\n      dup3\n      add\n      mload\n      dup2\n      0x00\n      add\n      sstore\n      0x20\n      dup3\n      add\n      mload\n      dup2\n      0x01\n      add\n      swap1\n      dup2\n      tag_57\n      swap2\n      swap1\n      tag_58\n      jump\t// in\n    tag_57:\n      pop\n      swap1\n      pop\n      pop\n        /* \"contracts/letter.sol\":630:852  function updateLetter(uint256 _index, uint256 _newDate, string memory _newIpfsLink) public onlyOwner {... */\n      pop\n      pop\n      pop\n      jump\t// out\n        /* \"contracts/letter.sol\":1247:1338  function getLetterCount() public view returns (uint256) {... */\n    tag_18:\n        /* \"contracts/letter.sol\":1294:1301  uint256 */\n      0x00\n        /* \"contracts/letter.sol\":1320:1331  letterCount */\n      sload(0x02)\n        /* \"contracts/letter.sol\":1313:1331  return letterCount */\n      swap1\n      pop\n        /* \"contracts/letter.sol\":1247:1338  function getLetterCount() public view returns (uint256) {... */\n      swap1\n      jump\t// out\n        /* \"contracts/letter.sol\":88:108  address public owner */\n    tag_22:\n      0x00\n      dup1\n      sload\n      swap1\n      0x0100\n      exp\n      swap1\n      div\n      0xffffffffffffffffffffffffffffffffffffffff\n      and\n      dup2\n      jump\t// out\n        /* \"contracts/letter.sol\":1344:1582  function getLetter(uint256 _index) public view returns (uint256, string memory) {... */\n    tag_28:\n        /* \"contracts/letter.sol\":1400:1407  uint256 */\n      0x00\n        /* \"contracts/letter.sol\":1409:1422  string memory */\n      0x60\n        /* \"contracts/letter.sol\":1451:1462  letterCount */\n      sload(0x02)\n        /* \"contracts/letter.sol\":1442:1448  _index */\n      dup4\n        /* \"contracts/letter.sol\":1442:1462  _index < letterCount */\n      lt\n        /* \"contracts/letter.sol\":1434:1480  require(_index < letterCount, \"Invalid index\") */\n      tag_61\n      jumpi\n      mload(0x40)\n      0x08c379a000000000000000000000000000000000000000000000000000000000\n      dup2\n      mstore\n      0x04\n      add\n      tag_62\n      swap1\n      tag_56\n      jump\t// in\n    tag_62:\n      mload(0x40)\n      dup1\n      swap2\n      sub\n      swap1\n      revert\n    tag_61:\n        /* \"contracts/letter.sol\":1490:1510  Letter memory letter */\n      0x00\n        /* \"contracts/letter.sol\":1513:1520  letters */\n      0x01\n        /* \"contracts/letter.sol\":1513:1528  letters[_index] */\n      0x00\n        /* \"contracts/letter.sol\":1521:1527  _index */\n      dup6\n        /* \"contracts/letter.sol\":1513:1528  letters[_index] */\n      dup2\n      mstore\n      0x20\n      add\n      swap1\n      dup2\n      mstore\n      0x20\n      add\n      0x00\n      keccak256\n        /* \"contracts/letter.sol\":1490:1528  Letter memory letter = letters[_index] */\n      mload(0x40)\n      dup1\n      0x40\n      add\n      0x40\n      mstore\n      swap1\n      dup2\n      0x00\n      dup3\n      add\n      sload\n      dup2\n      mstore\n      0x20\n      add\n      0x01\n      dup3\n      add\n      dup1\n      sload\n      tag_63\n      swap1\n      tag_64\n      jump\t// in\n    tag_63:\n      dup1\n      0x1f\n      add\n      0x20\n      dup1\n      swap2\n      div\n      mul\n      0x20\n      add\n      mload(0x40)\n      swap1\n      dup2\n      add\n      0x40\n      mstore\n      dup1\n      swap3\n      swap2\n      swap1\n      dup2\n      dup2\n      mstore\n      0x20\n      add\n      dup3\n      dup1\n      sload\n      tag_65\n      swap1\n      tag_64\n      jump\t// in\n    tag_65:\n      dup1\n      iszero\n      tag_66\n      jumpi\n      dup1\n      0x1f\n      lt\n      tag_67\n      jumpi\n      0x0100\n      dup1\n      dup4\n      sload\n      div\n      mul\n      dup4\n      mstore\n      swap2\n      0x20\n      add\n      swap2\n      jump(tag_66)\n    tag_67:\n      dup3\n      add\n      swap2\n      swap1\n      0x00\n      mstore\n      keccak256(0x00, 0x20)\n      swap1\n    tag_68:\n      dup2\n      sload\n      dup2\n      mstore\n      swap1\n      0x01\n      add\n      swap1\n      0x20\n      add\n      dup1\n      dup4\n      gt\n      tag_68\n      jumpi\n      dup3\n      swap1\n      sub\n      0x1f\n      and\n      dup3\n      add\n      swap2\n    tag_66:\n      pop\n      pop\n      pop\n      pop\n      pop\n      dup2\n      mstore\n      pop\n      pop\n      swap1\n      pop\n        /* \"contracts/letter.sol\":1546:1552  letter */\n      dup1\n        /* \"contracts/letter.sol\":1546:1557  letter.date */\n      0x00\n      add\n      mload\n        /* \"contracts/letter.sol\":1559:1565  letter */\n      dup2\n        /* \"contracts/letter.sol\":1559:1574  letter.ipfsLink */\n      0x20\n      add\n      mload\n        /* \"contracts/letter.sol\":1538:1575  return (letter.date, letter.ipfsLink) */\n      swap3\n      pop\n      swap3\n      pop\n      pop\n        /* \"contracts/letter.sol\":1344:1582  function getLetter(uint256 _index) public view returns (uint256, string memory) {... */\n      swap2\n      pop\n      swap2\n      jump\t// out\n        /* \"contracts/letter.sol\":197:238  mapping(uint256 => Letter) public letters */\n    tag_33:\n      mstore(0x20, 0x01)\n      dup1\n      0x00\n      mstore\n      keccak256(0x00, 0x40)\n      0x00\n      swap2\n      pop\n      swap1\n      pop\n      dup1\n      0x00\n      add\n      sload\n      swap1\n      dup1\n      0x01\n      add\n      dup1\n      sload\n      tag_69\n      swap1\n      tag_64\n      jump\t// in\n    tag_69:\n      dup1\n      0x1f\n      add\n      0x20\n      dup1\n      swap2\n      div\n      mul\n      0x20\n      add\n      mload(0x40)\n      swap1\n      dup2\n      add\n      0x40\n      mstore\n      dup1\n      swap3\n      swap2\n      swap1\n      dup2\n      dup2\n      mstore\n      0x20\n      add\n      dup3\n      dup1\n      sload\n      tag_70\n      swap1\n      tag_64\n      jump\t// in\n    tag_70:\n      dup1\n      iszero\n      tag_71\n      jumpi\n      dup1\n      0x1f\n      lt\n      tag_72\n      jumpi\n      0x0100\n      dup1\n      dup4\n      sload\n      div\n      mul\n      dup4\n      mstore\n      swap2\n      0x20\n      add\n      swap2\n      jump(tag_71)\n    tag_72:\n      dup3\n      add\n      swap2\n      swap1\n      0x00\n      mstore\n      keccak256(0x00, 0x20)\n      swap1\n    tag_73:\n      dup2\n      sload\n      dup2\n      mstore\n      swap1\n      0x01\n      add\n      swap1\n      0x20\n      add\n      dup1\n      dup4\n      gt\n      tag_73\n      jumpi\n      dup3\n      swap1\n      sub\n      0x1f\n      and\n      dup3\n      add\n      swap2\n    tag_71:\n      pop\n      pop\n      pop\n      pop\n      pop\n      swap1\n      pop\n      dup3\n      jump\t// out\n        /* \"contracts/letter.sol\":466:624  function addLetter(string memory _ipfsLink) public onlyOwner {... */\n    tag_38:\n        /* \"contracts/letter.sol\":330:335  owner */\n      0x00\n      dup1\n      sload\n      swap1\n      0x0100\n      exp\n      swap1\n      div\n      0xffffffffffffffffffffffffffffffffffffffff\n      and\n        /* \"contracts/letter.sol\":316:335  msg.sender == owner */\n      0xffffffffffffffffffffffffffffffffffffffff\n      and\n        /* \"contracts/letter.sol\":316:326  msg.sender */\n      caller\n        /* \"contracts/letter.sol\":316:335  msg.sender == owner */\n      0xffffffffffffffffffffffffffffffffffffffff\n      and\n      eq\n        /* \"contracts/letter.sol\":308:387  require(msg.sender == owner, \"Only the contract owner can perform this action\") */\n      tag_75\n      jumpi\n      mload(0x40)\n      0x08c379a000000000000000000000000000000000000000000000000000000000\n      dup2\n      mstore\n      0x04\n      add\n      tag_76\n      swap1\n      tag_52\n      jump\t// in\n    tag_76:\n      mload(0x40)\n      dup1\n      swap2\n      sub\n      swap1\n      revert\n    tag_75:\n        /* \"contracts/letter.sol\":560:594  Letter(block.timestamp, _ipfsLink) */\n      mload(0x40)\n      dup1\n      0x40\n      add\n      0x40\n      mstore\n      dup1\n        /* \"contracts/letter.sol\":567:582  block.timestamp */\n      timestamp\n        /* \"contracts/letter.sol\":560:594  Letter(block.timestamp, _ipfsLink) */\n      dup2\n      mstore\n      0x20\n      add\n        /* \"contracts/letter.sol\":584:593  _ipfsLink */\n      dup3\n        /* \"contracts/letter.sol\":560:594  Letter(block.timestamp, _ipfsLink) */\n      dup2\n      mstore\n      pop\n        /* \"contracts/letter.sol\":537:544  letters */\n      0x01\n        /* \"contracts/letter.sol\":537:557  letters[letterCount] */\n      0x00\n        /* \"contracts/letter.sol\":545:556  letterCount */\n      sload(0x02)\n        /* \"contracts/letter.sol\":537:557  letters[letterCount] */\n      dup2\n      mstore\n      0x20\n      add\n      swap1\n      dup2\n      mstore\n      0x20\n      add\n      0x00\n      keccak256\n        /* \"contracts/letter.sol\":537:594  letters[letterCount] = Letter(block.timestamp, _ipfsLink) */\n      0x00\n      dup3\n      add\n      mload\n      dup2\n      0x00\n      add\n      sstore\n      0x20\n      dup3\n      add\n      mload\n      dup2\n      0x01\n      add\n      swap1\n      dup2\n      tag_78\n      swap2\n      swap1\n      tag_58\n      jump\t// in\n    tag_78:\n      pop\n      swap1\n      pop\n      pop\n        /* \"contracts/letter.sol\":604:615  letterCount */\n      0x02\n      0x00\n        /* \"contracts/letter.sol\":604:617  letterCount++ */\n      dup2\n      sload\n      dup1\n      swap3\n      swap2\n      swap1\n      tag_79\n      swap1\n      tag_80\n      jump\t// in\n    tag_79:\n      swap2\n      swap1\n      pop\n      sstore\n      pop\n        /* \"contracts/letter.sol\":466:624  function addLetter(string memory _ipfsLink) public onlyOwner {... */\n      pop\n      jump\t// out\n        /* \"contracts/letter.sol\":1588:1851  function getAllLetters() public view returns (Letter[] memory) {... */\n    tag_40:\n        /* \"contracts/letter.sol\":1634:1649  Letter[] memory */\n      0x60\n        /* \"contracts/letter.sol\":1661:1687  Letter[] memory allLetters */\n      0x00\n        /* \"contracts/letter.sol\":1703:1714  letterCount */\n      sload(0x02)\n        /* \"contracts/letter.sol\":1690:1715  new Letter[](letterCount) */\n      0xffffffffffffffff\n      dup2\n      gt\n      iszero\n      tag_82\n      jumpi\n      tag_83\n      tag_84\n      jump\t// in\n    tag_83:\n    tag_82:\n      mload(0x40)\n      swap1\n      dup1\n      dup3\n      mstore\n      dup1\n      0x20\n      mul\n      0x20\n      add\n      dup3\n      add\n      0x40\n      mstore\n      dup1\n      iszero\n      tag_85\n      jumpi\n      dup2\n      0x20\n      add\n    tag_86:\n      tag_87\n      tag_88\n      jump\t// in\n    tag_87:\n      dup2\n      mstore\n      0x20\n      add\n      swap1\n      0x01\n      swap1\n      sub\n      swap1\n      dup2\n      tag_86\n      jumpi\n      swap1\n      pop\n    tag_85:\n      pop\n        /* \"contracts/letter.sol\":1661:1715  Letter[] memory allLetters = new Letter[](letterCount) */\n      swap1\n      pop\n        /* \"contracts/letter.sol\":1730:1739  uint256 i */\n      0x00\n        /* \"contracts/letter.sol\":1725:1818  for (uint256 i = 0; i < letterCount; i++) {... */\n    tag_89:\n        /* \"contracts/letter.sol\":1749:1760  letterCount */\n      sload(0x02)\n        /* \"contracts/letter.sol\":1745:1746  i */\n      dup2\n        /* \"contracts/letter.sol\":1745:1760  i < letterCount */\n      lt\n        /* \"contracts/letter.sol\":1725:1818  for (uint256 i = 0; i < letterCount; i++) {... */\n      iszero\n      tag_90\n      jumpi\n        /* \"contracts/letter.sol\":1797:1804  letters */\n      0x01\n        /* \"contracts/letter.sol\":1797:1807  letters[i] */\n      0x00\n        /* \"contracts/letter.sol\":1805:1806  i */\n      dup3\n        /* \"contracts/letter.sol\":1797:1807  letters[i] */\n      dup2\n      mstore\n      0x20\n      add\n      swap1\n      dup2\n      mstore\n      0x20\n      add\n      0x00\n      keccak256\n        /* \"contracts/letter.sol\":1781:1807  allLetters[i] = letters[i] */\n      mload(0x40)\n      dup1\n      0x40\n      add\n      0x40\n      mstore\n      swap1\n      dup2\n      0x00\n      dup3\n      add\n      sload\n      dup2\n      mstore\n      0x20\n      add\n      0x01\n      dup3\n      add\n      dup1\n      sload\n      tag_92\n      swap1\n      tag_64\n      jump\t// in\n    tag_92:\n      dup1\n      0x1f\n      add\n      0x20\n      dup1\n      swap2\n      div\n      mul\n      0x20\n      add\n      mload(0x40)\n      swap1\n      dup2\n      add\n      0x40\n      mstore\n      dup1\n      swap3\n      swap2\n      swap1\n      dup2\n      dup2\n      mstore\n      0x20\n      add\n      dup3\n      dup1\n      sload\n      tag_93\n      swap1\n      tag_64\n      jump\t// in\n    tag_93:\n      dup1\n      iszero\n      tag_94\n      jumpi\n      dup1\n      0x1f\n      lt\n      tag_95\n      jumpi\n      0x0100\n      dup1\n      dup4\n      sload\n      div\n      mul\n      dup4\n      mstore\n      swap2\n      0x20\n      add\n      swap2\n      jump(tag_94)\n    tag_95:\n      dup3\n      add\n      swap2\n      swap1\n      0x00\n      mstore\n      keccak256(0x00, 0x20)\n      swap1\n    tag_96:\n      dup2\n      sload\n      dup2\n      mstore\n      swap1\n      0x01\n      add\n      swap1\n      0x20\n      add\n      dup1\n      dup4\n      gt\n      tag_96\n      jumpi\n      dup3\n      swap1\n      sub\n      0x1f\n      and\n      dup3\n      add\n      swap2\n    tag_94:\n      pop\n      pop\n      pop\n      pop\n      pop\n      dup2\n      mstore\n      pop\n      pop\n        /* \"contracts/letter.sol\":1781:1791  allLetters */\n      dup3\n        /* \"contracts/letter.sol\":1792:1793  i */\n      dup3\n        /* \"contracts/letter.sol\":1781:1794  allLetters[i] */\n      dup2\n      mload\n      dup2\n      lt\n      tag_97\n      jumpi\n      tag_98\n      tag_99\n      jump\t// in\n    tag_98:\n    tag_97:\n      0x20\n      mul\n      0x20\n      add\n      add\n        /* \"contracts/letter.sol\":1781:1807  allLetters[i] = letters[i] */\n      dup2\n      swap1\n      mstore\n      pop\n        /* \"contracts/letter.sol\":1762:1765  i++ */\n      dup1\n      dup1\n      tag_100\n      swap1\n      tag_80\n      jump\t// in\n    tag_100:\n      swap2\n      pop\n      pop\n        /* \"contracts/letter.sol\":1725:1818  for (uint256 i = 0; i < letterCount; i++) {... */\n      jump(tag_89)\n    tag_90:\n      pop\n        /* \"contracts/letter.sol\":1834:1844  allLetters */\n      dup1\n        /* \"contracts/letter.sol\":1827:1844  return allLetters */\n      swap2\n      pop\n      pop\n        /* \"contracts/letter.sol\":1588:1851  function getAllLetters() public view returns (Letter[] memory) {... */\n      swap1\n      jump\t// out\n        /* \"contracts/letter.sol\":244:270  uint256 public letterCount */\n    tag_44:\n      sload(0x02)\n      dup2\n      jump\t// out\n        /* \"contracts/letter.sol\":858:1241  function deleteLetter(uint256 _index) public onlyOwner {... */\n    tag_48:\n        /* \"contracts/letter.sol\":330:335  owner */\n      0x00\n      dup1\n      sload\n      swap1\n      0x0100\n      exp\n      swap1\n      div\n      0xffffffffffffffffffffffffffffffffffffffff\n      and\n        /* \"contracts/letter.sol\":316:335  msg.sender == owner */\n      0xffffffffffffffffffffffffffffffffffffffff\n      and\n        /* \"contracts/letter.sol\":316:326  msg.sender */\n      caller\n        /* \"contracts/letter.sol\":316:335  msg.sender == owner */\n      0xffffffffffffffffffffffffffffffffffffffff\n      and\n      eq\n        /* \"contracts/letter.sol\":308:387  require(msg.sender == owner, \"Only the contract owner can perform this action\") */\n      tag_102\n      jumpi\n      mload(0x40)\n      0x08c379a000000000000000000000000000000000000000000000000000000000\n      dup2\n      mstore\n      0x04\n      add\n      tag_103\n      swap1\n      tag_52\n      jump\t// in\n    tag_103:\n      mload(0x40)\n      dup1\n      swap2\n      sub\n      swap1\n      revert\n    tag_102:\n        /* \"contracts/letter.sol\":940:951  letterCount */\n      sload(0x02)\n        /* \"contracts/letter.sol\":931:937  _index */\n      dup2\n        /* \"contracts/letter.sol\":931:951  _index < letterCount */\n      lt\n        /* \"contracts/letter.sol\":923:969  require(_index < letterCount, \"Invalid index\") */\n      tag_105\n      jumpi\n      mload(0x40)\n      0x08c379a000000000000000000000000000000000000000000000000000000000\n      dup2\n      mstore\n      0x04\n      add\n      tag_106\n      swap1\n      tag_56\n      jump\t// in\n    tag_106:\n      mload(0x40)\n      dup1\n      swap2\n      sub\n      swap1\n      revert\n    tag_105:\n        /* \"contracts/letter.sol\":1101:1102  1 */\n      0x01\n        /* \"contracts/letter.sol\":1087:1098  letterCount */\n      sload(0x02)\n        /* \"contracts/letter.sol\":1087:1102  letterCount - 1 */\n      tag_107\n      swap2\n      swap1\n      tag_108\n      jump\t// in\n    tag_107:\n        /* \"contracts/letter.sol\":1078:1084  _index */\n      dup2\n        /* \"contracts/letter.sol\":1078:1102  _index < letterCount - 1 */\n      lt\n        /* \"contracts/letter.sol\":1074:1171  if (_index < letterCount - 1) {... */\n      iszero\n      tag_109\n      jumpi\n        /* \"contracts/letter.sol\":1136:1143  letters */\n      0x01\n        /* \"contracts/letter.sol\":1136:1160  letters[letterCount - 1] */\n      0x00\n        /* \"contracts/letter.sol\":1158:1159  1 */\n      0x01\n        /* \"contracts/letter.sol\":1144:1155  letterCount */\n      sload(0x02)\n        /* \"contracts/letter.sol\":1144:1159  letterCount - 1 */\n      tag_110\n      swap2\n      swap1\n      tag_108\n      jump\t// in\n    tag_110:\n        /* \"contracts/letter.sol\":1136:1160  letters[letterCount - 1] */\n      dup2\n      mstore\n      0x20\n      add\n      swap1\n      dup2\n      mstore\n      0x20\n      add\n      0x00\n      keccak256\n        /* \"contracts/letter.sol\":1118:1125  letters */\n      0x01\n        /* \"contracts/letter.sol\":1118:1133  letters[_index] */\n      0x00\n        /* \"contracts/letter.sol\":1126:1132  _index */\n      dup4\n        /* \"contracts/letter.sol\":1118:1133  letters[_index] */\n      dup2\n      mstore\n      0x20\n      add\n      swap1\n      dup2\n      mstore\n      0x20\n      add\n      0x00\n      keccak256\n        /* \"contracts/letter.sol\":1118:1160  letters[_index] = letters[letterCount - 1] */\n      0x00\n      dup3\n      add\n      sload\n      dup2\n      0x00\n      add\n      sstore\n      0x01\n      dup3\n      add\n      dup2\n      0x01\n      add\n      swap1\n      dup2\n      tag_111\n      swap2\n      swap1\n      tag_112\n      jump\t// in\n    tag_111:\n      pop\n      swap1\n      pop\n      pop\n        /* \"contracts/letter.sol\":1074:1171  if (_index < letterCount - 1) {... */\n    tag_109:\n        /* \"contracts/letter.sol\":1187:1194  letters */\n      0x01\n        /* \"contracts/letter.sol\":1187:1211  letters[letterCount - 1] */\n      0x00\n        /* \"contracts/letter.sol\":1209:1210  1 */\n      0x01\n        /* \"contracts/letter.sol\":1195:1206  letterCount */\n      sload(0x02)\n        /* \"contracts/letter.sol\":1195:1210  letterCount - 1 */\n      tag_113\n      swap2\n      swap1\n      tag_108\n      jump\t// in\n    tag_113:\n        /* \"contracts/letter.sol\":1187:1211  letters[letterCount - 1] */\n      dup2\n      mstore\n      0x20\n      add\n      swap1\n      dup2\n      mstore\n      0x20\n      add\n      0x00\n      keccak256\n      0x00\n        /* \"contracts/letter.sol\":1180:1211  delete letters[letterCount - 1] */\n      dup1\n      dup3\n      add\n      0x00\n      swap1\n      sstore\n      0x01\n      dup3\n      add\n      0x00\n      tag_114\n      swap2\n      swap1\n      tag_115\n      jump\t// in\n    tag_114:\n      pop\n      pop\n        /* \"contracts/letter.sol\":1221:1232  letterCount */\n      0x02\n      0x00\n        /* \"contracts/letter.sol\":1221:1234  letterCount-- */\n      dup2\n      sload\n      dup1\n      swap3\n      swap2\n      swap1\n      tag_116\n      swap1\n      tag_117\n      jump\t// in\n    tag_116:\n      swap2\n      swap1\n      pop\n      sstore\n      pop\n        /* \"contracts/letter.sol\":858:1241  function deleteLetter(uint256 _index) public onlyOwner {... */\n      pop\n      jump\t// out\n    tag_88:\n      mload(0x40)\n      dup1\n      0x40\n      add\n      0x40\n      mstore\n      dup1\n      0x00\n      dup2\n      mstore\n      0x20\n      add\n      0x60\n      dup2\n      mstore\n      pop\n      swap1\n      jump\t// out\n    tag_115:\n      pop\n      dup1\n      sload\n      tag_118\n      swap1\n      tag_64\n      jump\t// in\n    tag_118:\n      0x00\n      dup3\n      sstore\n      dup1\n      0x1f\n      lt\n      tag_120\n      jumpi\n      pop\n      jump(tag_119)\n    tag_120:\n      0x1f\n      add\n      0x20\n      swap1\n      div\n      swap1\n      0x00\n      mstore\n      keccak256(0x00, 0x20)\n      swap1\n      dup2\n      add\n      swap1\n      tag_121\n      swap2\n      swap1\n      tag_122\n      jump\t// in\n    tag_121:\n    tag_119:\n      pop\n      jump\t// out\n    tag_122:\n    tag_123:\n      dup1\n      dup3\n      gt\n      iszero\n      tag_124\n      jumpi\n      0x00\n      dup2\n      0x00\n      swap1\n      sstore\n      pop\n      0x01\n      add\n      jump(tag_123)\n    tag_124:\n      pop\n      swap1\n      jump\t// out\n        /* \"#utility.yul\":7:82   */\n    tag_125:\n        /* \"#utility.yul\":40:46   */\n      0x00\n        /* \"#utility.yul\":73:75   */\n      0x40\n        /* \"#utility.yul\":67:76   */\n      mload\n        /* \"#utility.yul\":57:76   */\n      swap1\n      pop\n        /* \"#utility.yul\":7:82   */\n      swap1\n      jump\t// out\n        /* \"#utility.yul\":88:205   */\n    tag_126:\n        /* \"#utility.yul\":197:198   */\n      0x00\n        /* \"#utility.yul\":194:195   */\n      dup1\n        /* \"#utility.yul\":187:199   */\n      revert\n        /* \"#utility.yul\":211:328   */\n    tag_127:\n        /* \"#utility.yul\":320:321   */\n      0x00\n        /* \"#utility.yul\":317:318   */\n      dup1\n        /* \"#utility.yul\":310:322   */\n      revert\n        /* \"#utility.yul\":334:411   */\n    tag_128:\n        /* \"#utility.yul\":371:378   */\n      0x00\n        /* \"#utility.yul\":400:405   */\n      dup2\n        /* \"#utility.yul\":389:405   */\n      swap1\n      pop\n        /* \"#utility.yul\":334:411   */\n      swap2\n      swap1\n      pop\n      jump\t// out\n        /* \"#utility.yul\":417:539   */\n    tag_129:\n        /* \"#utility.yul\":490:514   */\n      tag_186\n        /* \"#utility.yul\":508:513   */\n      dup2\n        /* \"#utility.yul\":490:514   */\n      tag_128\n      jump\t// in\n    tag_186:\n        /* \"#utility.yul\":483:488   */\n      dup2\n        /* \"#utility.yul\":480:515   */\n      eq\n        /* \"#utility.yul\":470:533   */\n      tag_187\n      jumpi\n        /* \"#utility.yul\":529:530   */\n      0x00\n        /* \"#utility.yul\":526:527   */\n      dup1\n        /* \"#utility.yul\":519:531   */\n      revert\n        /* \"#utility.yul\":470:533   */\n    tag_187:\n        /* \"#utility.yul\":417:539   */\n      pop\n      jump\t// out\n        /* \"#utility.yul\":545:684   */\n    tag_130:\n        /* \"#utility.yul\":591:596   */\n      0x00\n        /* \"#utility.yul\":629:635   */\n      dup2\n        /* \"#utility.yul\":616:636   */\n      calldataload\n        /* \"#utility.yul\":607:636   */\n      swap1\n      pop\n        /* \"#utility.yul\":645:678   */\n      tag_189\n        /* \"#utility.yul\":672:677   */\n      dup2\n        /* \"#utility.yul\":645:678   */\n      tag_129\n      jump\t// in\n    tag_189:\n        /* \"#utility.yul\":545:684   */\n      swap3\n      swap2\n      pop\n      pop\n      jump\t// out\n        /* \"#utility.yul\":690:807   */\n    tag_131:\n        /* \"#utility.yul\":799:800   */\n      0x00\n        /* \"#utility.yul\":796:797   */\n      dup1\n        /* \"#utility.yul\":789:801   */\n      revert\n        /* \"#utility.yul\":813:930   */\n    tag_132:\n        /* \"#utility.yul\":922:923   */\n      0x00\n        /* \"#utility.yul\":919:920   */\n      dup1\n        /* \"#utility.yul\":912:924   */\n      revert\n        /* \"#utility.yul\":936:1038   */\n    tag_133:\n        /* \"#utility.yul\":977:983   */\n      0x00\n        /* \"#utility.yul\":1028:1030   */\n      0x1f\n        /* \"#utility.yul\":1024:1031   */\n      not\n        /* \"#utility.yul\":1019:1021   */\n      0x1f\n        /* \"#utility.yul\":1012:1017   */\n      dup4\n        /* \"#utility.yul\":1008:1022   */\n      add\n        /* \"#utility.yul\":1004:1032   */\n      and\n        /* \"#utility.yul\":994:1032   */\n      swap1\n      pop\n        /* \"#utility.yul\":936:1038   */\n      swap2\n      swap1\n      pop\n      jump\t// out\n        /* \"#utility.yul\":1044:1224   */\n    tag_84:\n        /* \"#utility.yul\":1092:1169   */\n      0x4e487b7100000000000000000000000000000000000000000000000000000000\n        /* \"#utility.yul\":1089:1090   */\n      0x00\n        /* \"#utility.yul\":1082:1170   */\n      mstore\n        /* \"#utility.yul\":1189:1193   */\n      0x41\n        /* \"#utility.yul\":1186:1187   */\n      0x04\n        /* \"#utility.yul\":1179:1194   */\n      mstore\n        /* \"#utility.yul\":1213:1217   */\n      0x24\n        /* \"#utility.yul\":1210:1211   */\n      0x00\n        /* \"#utility.yul\":1203:1218   */\n      revert\n        /* \"#utility.yul\":1230:1511   */\n    tag_134:\n        /* \"#utility.yul\":1313:1340   */\n      tag_195\n        /* \"#utility.yul\":1335:1339   */\n      dup3\n        /* \"#utility.yul\":1313:1340   */\n      tag_133\n      jump\t// in\n    tag_195:\n        /* \"#utility.yul\":1305:1311   */\n      dup2\n        /* \"#utility.yul\":1301:1341   */\n      add\n        /* \"#utility.yul\":1443:1449   */\n      dup2\n        /* \"#utility.yul\":1431:1441   */\n      dup2\n        /* \"#utility.yul\":1428:1450   */\n      lt\n        /* \"#utility.yul\":1407:1425   */\n      0xffffffffffffffff\n        /* \"#utility.yul\":1395:1405   */\n      dup3\n        /* \"#utility.yul\":1392:1426   */\n      gt\n        /* \"#utility.yul\":1389:1451   */\n      or\n        /* \"#utility.yul\":1386:1474   */\n      iszero\n      tag_196\n      jumpi\n        /* \"#utility.yul\":1454:1472   */\n      tag_197\n      tag_84\n      jump\t// in\n    tag_197:\n        /* \"#utility.yul\":1386:1474   */\n    tag_196:\n        /* \"#utility.yul\":1494:1504   */\n      dup1\n        /* \"#utility.yul\":1490:1492   */\n      0x40\n        /* \"#utility.yul\":1483:1505   */\n      mstore\n        /* \"#utility.yul\":1273:1511   */\n      pop\n        /* \"#utility.yul\":1230:1511   */\n      pop\n      pop\n      jump\t// out\n        /* \"#utility.yul\":1517:1646   */\n    tag_135:\n        /* \"#utility.yul\":1551:1557   */\n      0x00\n        /* \"#utility.yul\":1578:1598   */\n      tag_199\n      tag_125\n      jump\t// in\n    tag_199:\n        /* \"#utility.yul\":1568:1598   */\n      swap1\n      pop\n        /* \"#utility.yul\":1607:1640   */\n      tag_200\n        /* \"#utility.yul\":1635:1639   */\n      dup3\n        /* \"#utility.yul\":1627:1633   */\n      dup3\n        /* \"#utility.yul\":1607:1640   */\n      tag_134\n      jump\t// in\n    tag_200:\n        /* \"#utility.yul\":1517:1646   */\n      swap2\n      swap1\n      pop\n      jump\t// out\n        /* \"#utility.yul\":1652:1960   */\n    tag_136:\n        /* \"#utility.yul\":1714:1718   */\n      0x00\n        /* \"#utility.yul\":1804:1822   */\n      0xffffffffffffffff\n        /* \"#utility.yul\":1796:1802   */\n      dup3\n        /* \"#utility.yul\":1793:1823   */\n      gt\n        /* \"#utility.yul\":1790:1846   */\n      iszero\n      tag_202\n      jumpi\n        /* \"#utility.yul\":1826:1844   */\n      tag_203\n      tag_84\n      jump\t// in\n    tag_203:\n        /* \"#utility.yul\":1790:1846   */\n    tag_202:\n        /* \"#utility.yul\":1864:1893   */\n      tag_204\n        /* \"#utility.yul\":1886:1892   */\n      dup3\n        /* \"#utility.yul\":1864:1893   */\n      tag_133\n      jump\t// in\n    tag_204:\n        /* \"#utility.yul\":1856:1893   */\n      swap1\n      pop\n        /* \"#utility.yul\":1948:1952   */\n      0x20\n        /* \"#utility.yul\":1942:1946   */\n      dup2\n        /* \"#utility.yul\":1938:1953   */\n      add\n        /* \"#utility.yul\":1930:1953   */\n      swap1\n      pop\n        /* \"#utility.yul\":1652:1960   */\n      swap2\n      swap1\n      pop\n      jump\t// out\n        /* \"#utility.yul\":1966:2112   */\n    tag_137:\n        /* \"#utility.yul\":2063:2069   */\n      dup3\n        /* \"#utility.yul\":2058:2061   */\n      dup2\n        /* \"#utility.yul\":2053:2056   */\n      dup4\n        /* \"#utility.yul\":2040:2070   */\n      calldatacopy\n        /* \"#utility.yul\":2104:2105   */\n      0x00\n        /* \"#utility.yul\":2095:2101   */\n      dup4\n        /* \"#utility.yul\":2090:2093   */\n      dup4\n        /* \"#utility.yul\":2086:2102   */\n      add\n        /* \"#utility.yul\":2079:2106   */\n      mstore\n        /* \"#utility.yul\":1966:2112   */\n      pop\n      pop\n      pop\n      jump\t// out\n        /* \"#utility.yul\":2118:2543   */\n    tag_138:\n        /* \"#utility.yul\":2196:2201   */\n      0x00\n        /* \"#utility.yul\":2221:2287   */\n      tag_207\n        /* \"#utility.yul\":2237:2286   */\n      tag_208\n        /* \"#utility.yul\":2279:2285   */\n      dup5\n        /* \"#utility.yul\":2237:2286   */\n      tag_136\n      jump\t// in\n    tag_208:\n        /* \"#utility.yul\":2221:2287   */\n      tag_135\n      jump\t// in\n    tag_207:\n        /* \"#utility.yul\":2212:2287   */\n      swap1\n      pop\n        /* \"#utility.yul\":2310:2316   */\n      dup3\n        /* \"#utility.yul\":2303:2308   */\n      dup2\n        /* \"#utility.yul\":2296:2317   */\n      mstore\n        /* \"#utility.yul\":2348:2352   */\n      0x20\n        /* \"#utility.yul\":2341:2346   */\n      dup2\n        /* \"#utility.yul\":2337:2353   */\n      add\n        /* \"#utility.yul\":2386:2389   */\n      dup5\n        /* \"#utility.yul\":2377:2383   */\n      dup5\n        /* \"#utility.yul\":2372:2375   */\n      dup5\n        /* \"#utility.yul\":2368:2384   */\n      add\n        /* \"#utility.yul\":2365:2390   */\n      gt\n        /* \"#utility.yul\":2362:2474   */\n      iszero\n      tag_209\n      jumpi\n        /* \"#utility.yul\":2393:2472   */\n      tag_210\n      tag_132\n      jump\t// in\n    tag_210:\n        /* \"#utility.yul\":2362:2474   */\n    tag_209:\n        /* \"#utility.yul\":2483:2537   */\n      tag_211\n        /* \"#utility.yul\":2530:2536   */\n      dup5\n        /* \"#utility.yul\":2525:2528   */\n      dup3\n        /* \"#utility.yul\":2520:2523   */\n      dup6\n        /* \"#utility.yul\":2483:2537   */\n      tag_137\n      jump\t// in\n    tag_211:\n        /* \"#utility.yul\":2202:2543   */\n      pop\n        /* \"#utility.yul\":2118:2543   */\n      swap4\n      swap3\n      pop\n      pop\n      pop\n      jump\t// out\n        /* \"#utility.yul\":2563:2903   */\n    tag_139:\n        /* \"#utility.yul\":2619:2624   */\n      0x00\n        /* \"#utility.yul\":2668:2671   */\n      dup3\n        /* \"#utility.yul\":2661:2665   */\n      0x1f\n        /* \"#utility.yul\":2653:2659   */\n      dup4\n        /* \"#utility.yul\":2649:2666   */\n      add\n        /* \"#utility.yul\":2645:2672   */\n      slt\n        /* \"#utility.yul\":2635:2757   */\n      tag_213\n      jumpi\n        /* \"#utility.yul\":2676:2755   */\n      tag_214\n      tag_131\n      jump\t// in\n    tag_214:\n        /* \"#utility.yul\":2635:2757   */\n    tag_213:\n        /* \"#utility.yul\":2793:2799   */\n      dup2\n        /* \"#utility.yul\":2780:2800   */\n      calldataload\n        /* \"#utility.yul\":2818:2897   */\n      tag_215\n        /* \"#utility.yul\":2893:2896   */\n      dup5\n        /* \"#utility.yul\":2885:2891   */\n      dup3\n        /* \"#utility.yul\":2878:2882   */\n      0x20\n        /* \"#utility.yul\":2870:2876   */\n      dup7\n        /* \"#utility.yul\":2866:2883   */\n      add\n        /* \"#utility.yul\":2818:2897   */\n      tag_138\n      jump\t// in\n    tag_215:\n        /* \"#utility.yul\":2809:2897   */\n      swap2\n      pop\n        /* \"#utility.yul\":2625:2903   */\n      pop\n        /* \"#utility.yul\":2563:2903   */\n      swap3\n      swap2\n      pop\n      pop\n      jump\t// out\n        /* \"#utility.yul\":2909:3708   */\n    tag_15:\n        /* \"#utility.yul\":2996:3002   */\n      0x00\n        /* \"#utility.yul\":3004:3010   */\n      dup1\n        /* \"#utility.yul\":3012:3018   */\n      0x00\n        /* \"#utility.yul\":3061:3063   */\n      0x60\n        /* \"#utility.yul\":3049:3058   */\n      dup5\n        /* \"#utility.yul\":3040:3047   */\n      dup7\n        /* \"#utility.yul\":3036:3059   */\n      sub\n        /* \"#utility.yul\":3032:3064   */\n      slt\n        /* \"#utility.yul\":3029:3148   */\n      iszero\n      tag_217\n      jumpi\n        /* \"#utility.yul\":3067:3146   */\n      tag_218\n      tag_126\n      jump\t// in\n    tag_218:\n        /* \"#utility.yul\":3029:3148   */\n    tag_217:\n        /* \"#utility.yul\":3187:3188   */\n      0x00\n        /* \"#utility.yul\":3212:3265   */\n      tag_219\n        /* \"#utility.yul\":3257:3264   */\n      dup7\n        /* \"#utility.yul\":3248:3254   */\n      dup3\n        /* \"#utility.yul\":3237:3246   */\n      dup8\n        /* \"#utility.yul\":3233:3255   */\n      add\n        /* \"#utility.yul\":3212:3265   */\n      tag_130\n      jump\t// in\n    tag_219:\n        /* \"#utility.yul\":3202:3265   */\n      swap4\n      pop\n        /* \"#utility.yul\":3158:3275   */\n      pop\n        /* \"#utility.yul\":3314:3316   */\n      0x20\n        /* \"#utility.yul\":3340:3393   */\n      tag_220\n        /* \"#utility.yul\":3385:3392   */\n      dup7\n        /* \"#utility.yul\":3376:3382   */\n      dup3\n        /* \"#utility.yul\":3365:3374   */\n      dup8\n        /* \"#utility.yul\":3361:3383   */\n      add\n        /* \"#utility.yul\":3340:3393   */\n      tag_130\n      jump\t// in\n    tag_220:\n        /* \"#utility.yul\":3330:3393   */\n      swap3\n      pop\n        /* \"#utility.yul\":3285:3403   */\n      pop\n        /* \"#utility.yul\":3470:3472   */\n      0x40\n        /* \"#utility.yul\":3459:3468   */\n      dup5\n        /* \"#utility.yul\":3455:3473   */\n      add\n        /* \"#utility.yul\":3442:3474   */\n      calldataload\n        /* \"#utility.yul\":3501:3519   */\n      0xffffffffffffffff\n        /* \"#utility.yul\":3493:3499   */\n      dup2\n        /* \"#utility.yul\":3490:3520   */\n      gt\n        /* \"#utility.yul\":3487:3604   */\n      iszero\n      tag_221\n      jumpi\n        /* \"#utility.yul\":3523:3602   */\n      tag_222\n      tag_127\n      jump\t// in\n    tag_222:\n        /* \"#utility.yul\":3487:3604   */\n    tag_221:\n        /* \"#utility.yul\":3628:3691   */\n      tag_223\n        /* \"#utility.yul\":3683:3690   */\n      dup7\n        /* \"#utility.yul\":3674:3680   */\n      dup3\n        /* \"#utility.yul\":3663:3672   */\n      dup8\n        /* \"#utility.yul\":3659:3681   */\n      add\n        /* \"#utility.yul\":3628:3691   */\n      tag_139\n      jump\t// in\n    tag_223:\n        /* \"#utility.yul\":3618:3691   */\n      swap2\n      pop\n        /* \"#utility.yul\":3413:3701   */\n      pop\n        /* \"#utility.yul\":2909:3708   */\n      swap3\n      pop\n      swap3\n      pop\n      swap3\n      jump\t// out\n        /* \"#utility.yul\":3714:3832   */\n    tag_140:\n        /* \"#utility.yul\":3801:3825   */\n      tag_225\n        /* \"#utility.yul\":3819:3824   */\n      dup2\n        /* \"#utility.yul\":3801:3825   */\n      tag_128\n      jump\t// in\n    tag_225:\n        /* \"#utility.yul\":3796:3799   */\n      dup3\n        /* \"#utility.yul\":3789:3826   */\n      mstore\n        /* \"#utility.yul\":3714:3832   */\n      pop\n      pop\n      jump\t// out\n        /* \"#utility.yul\":3838:4060   */\n    tag_20:\n        /* \"#utility.yul\":3931:3935   */\n      0x00\n        /* \"#utility.yul\":3969:3971   */\n      0x20\n        /* \"#utility.yul\":3958:3967   */\n      dup3\n        /* \"#utility.yul\":3954:3972   */\n      add\n        /* \"#utility.yul\":3946:3972   */\n      swap1\n      pop\n        /* \"#utility.yul\":3982:4053   */\n      tag_227\n        /* \"#utility.yul\":4050:4051   */\n      0x00\n        /* \"#utility.yul\":4039:4048   */\n      dup4\n        /* \"#utility.yul\":4035:4052   */\n      add\n        /* \"#utility.yul\":4026:4032   */\n      dup5\n        /* \"#utility.yul\":3982:4053   */\n      tag_140\n      jump\t// in\n    tag_227:\n        /* \"#utility.yul\":3838:4060   */\n      swap3\n      swap2\n      pop\n      pop\n      jump\t// out\n        /* \"#utility.yul\":4066:4192   */\n    tag_141:\n        /* \"#utility.yul\":4103:4110   */\n      0x00\n        /* \"#utility.yul\":4143:4185   */\n      0xffffffffffffffffffffffffffffffffffffffff\n        /* \"#utility.yul\":4136:4141   */\n      dup3\n        /* \"#utility.yul\":4132:4186   */\n      and\n        /* \"#utility.yul\":4121:4186   */\n      swap1\n      pop\n        /* \"#utility.yul\":4066:4192   */\n      swap2\n      swap1\n      pop\n      jump\t// out\n        /* \"#utility.yul\":4198:4294   */\n    tag_142:\n        /* \"#utility.yul\":4235:4242   */\n      0x00\n        /* \"#utility.yul\":4264:4288   */\n      tag_230\n        /* \"#utility.yul\":4282:4287   */\n      dup3\n        /* \"#utility.yul\":4264:4288   */\n      tag_141\n      jump\t// in\n    tag_230:\n        /* \"#utility.yul\":4253:4288   */\n      swap1\n      pop\n        /* \"#utility.yul\":4198:4294   */\n      swap2\n      swap1\n      pop\n      jump\t// out\n        /* \"#utility.yul\":4300:4418   */\n    tag_143:\n        /* \"#utility.yul\":4387:4411   */\n      tag_232\n        /* \"#utility.yul\":4405:4410   */\n      dup2\n        /* \"#utility.yul\":4387:4411   */\n      tag_142\n      jump\t// in\n    tag_232:\n        /* \"#utility.yul\":4382:4385   */\n      dup3\n        /* \"#utility.yul\":4375:4412   */\n      mstore\n        /* \"#utility.yul\":4300:4418   */\n      pop\n      pop\n      jump\t// out\n        /* \"#utility.yul\":4424:4646   */\n    tag_24:\n        /* \"#utility.yul\":4517:4521   */\n      0x00\n        /* \"#utility.yul\":4555:4557   */\n      0x20\n        /* \"#utility.yul\":4544:4553   */\n      dup3\n        /* \"#utility.yul\":4540:4558   */\n      add\n        /* \"#utility.yul\":4532:4558   */\n      swap1\n      pop\n        /* \"#utility.yul\":4568:4639   */\n      tag_234\n        /* \"#utility.yul\":4636:4637   */\n      0x00\n        /* \"#utility.yul\":4625:4634   */\n      dup4\n        /* \"#utility.yul\":4621:4638   */\n      add\n        /* \"#utility.yul\":4612:4618   */\n      dup5\n        /* \"#utility.yul\":4568:4639   */\n      tag_143\n      jump\t// in\n    tag_234:\n        /* \"#utility.yul\":4424:4646   */\n      swap3\n      swap2\n      pop\n      pop\n      jump\t// out\n        /* \"#utility.yul\":4652:4981   */\n    tag_27:\n        /* \"#utility.yul\":4711:4717   */\n      0x00\n        /* \"#utility.yul\":4760:4762   */\n      0x20\n        /* \"#utility.yul\":4748:4757   */\n      dup3\n        /* \"#utility.yul\":4739:4746   */\n      dup5\n        /* \"#utility.yul\":4735:4758   */\n      sub\n        /* \"#utility.yul\":4731:4763   */\n      slt\n        /* \"#utility.yul\":4728:4847   */\n      iszero\n      tag_236\n      jumpi\n        /* \"#utility.yul\":4766:4845   */\n      tag_237\n      tag_126\n      jump\t// in\n    tag_237:\n        /* \"#utility.yul\":4728:4847   */\n    tag_236:\n        /* \"#utility.yul\":4886:4887   */\n      0x00\n        /* \"#utility.yul\":4911:4964   */\n      tag_238\n        /* \"#utility.yul\":4956:4963   */\n      dup5\n        /* \"#utility.yul\":4947:4953   */\n      dup3\n        /* \"#utility.yul\":4936:4945   */\n      dup6\n        /* \"#utility.yul\":4932:4954   */\n      add\n        /* \"#utility.yul\":4911:4964   */\n      tag_130\n      jump\t// in\n    tag_238:\n        /* \"#utility.yul\":4901:4964   */\n      swap2\n      pop\n        /* \"#utility.yul\":4857:4974   */\n      pop\n        /* \"#utility.yul\":4652:4981   */\n      swap3\n      swap2\n      pop\n      pop\n      jump\t// out\n        /* \"#utility.yul\":4987:5086   */\n    tag_144:\n        /* \"#utility.yul\":5039:5045   */\n      0x00\n        /* \"#utility.yul\":5073:5078   */\n      dup2\n        /* \"#utility.yul\":5067:5079   */\n      mload\n        /* \"#utility.yul\":5057:5079   */\n      swap1\n      pop\n        /* \"#utility.yul\":4987:5086   */\n      swap2\n      swap1\n      pop\n      jump\t// out\n        /* \"#utility.yul\":5092:5261   */\n    tag_145:\n        /* \"#utility.yul\":5176:5187   */\n      0x00\n        /* \"#utility.yul\":5210:5216   */\n      dup3\n        /* \"#utility.yul\":5205:5208   */\n      dup3\n        /* \"#utility.yul\":5198:5217   */\n      mstore\n        /* \"#utility.yul\":5250:5254   */\n      0x20\n        /* \"#utility.yul\":5245:5248   */\n      dup3\n        /* \"#utility.yul\":5241:5255   */\n      add\n        /* \"#utility.yul\":5226:5255   */\n      swap1\n      pop\n        /* \"#utility.yul\":5092:5261   */\n      swap3\n      swap2\n      pop\n      pop\n      jump\t// out\n        /* \"#utility.yul\":5267:5513   */\n    tag_146:\n        /* \"#utility.yul\":5348:5349   */\n      0x00\n        /* \"#utility.yul\":5358:5471   */\n    tag_242:\n        /* \"#utility.yul\":5372:5378   */\n      dup4\n        /* \"#utility.yul\":5369:5370   */\n      dup2\n        /* \"#utility.yul\":5366:5379   */\n      lt\n        /* \"#utility.yul\":5358:5471   */\n      iszero\n      tag_244\n      jumpi\n        /* \"#utility.yul\":5457:5458   */\n      dup1\n        /* \"#utility.yul\":5452:5455   */\n      dup3\n        /* \"#utility.yul\":5448:5459   */\n      add\n        /* \"#utility.yul\":5442:5460   */\n      mload\n        /* \"#utility.yul\":5438:5439   */\n      dup2\n        /* \"#utility.yul\":5433:5436   */\n      dup5\n        /* \"#utility.yul\":5429:5440   */\n      add\n        /* \"#utility.yul\":5422:5461   */\n      mstore\n        /* \"#utility.yul\":5394:5396   */\n      0x20\n        /* \"#utility.yul\":5391:5392   */\n      dup2\n        /* \"#utility.yul\":5387:5397   */\n      add\n        /* \"#utility.yul\":5382:5397   */\n      swap1\n      pop\n        /* \"#utility.yul\":5358:5471   */\n      jump(tag_242)\n    tag_244:\n        /* \"#utility.yul\":5505:5506   */\n      0x00\n        /* \"#utility.yul\":5496:5502   */\n      dup5\n        /* \"#utility.yul\":5491:5494   */\n      dup5\n        /* \"#utility.yul\":5487:5503   */\n      add\n        /* \"#utility.yul\":5480:5507   */\n      mstore\n        /* \"#utility.yul\":5329:5513   */\n      pop\n        /* \"#utility.yul\":5267:5513   */\n      pop\n      pop\n      pop\n      jump\t// out\n        /* \"#utility.yul\":5519:5896   */\n    tag_147:\n        /* \"#utility.yul\":5607:5610   */\n      0x00\n        /* \"#utility.yul\":5635:5674   */\n      tag_246\n        /* \"#utility.yul\":5668:5673   */\n      dup3\n        /* \"#utility.yul\":5635:5674   */\n      tag_144\n      jump\t// in\n    tag_246:\n        /* \"#utility.yul\":5690:5761   */\n      tag_247\n        /* \"#utility.yul\":5754:5760   */\n      dup2\n        /* \"#utility.yul\":5749:5752   */\n      dup6\n        /* \"#utility.yul\":5690:5761   */\n      tag_145\n      jump\t// in\n    tag_247:\n        /* \"#utility.yul\":5683:5761   */\n      swap4\n      pop\n        /* \"#utility.yul\":5770:5835   */\n      tag_248\n        /* \"#utility.yul\":5828:5834   */\n      dup2\n        /* \"#utility.yul\":5823:5826   */\n      dup6\n        /* \"#utility.yul\":5816:5820   */\n      0x20\n        /* \"#utility.yul\":5809:5814   */\n      dup7\n        /* \"#utility.yul\":5805:5821   */\n      add\n        /* \"#utility.yul\":5770:5835   */\n      tag_146\n      jump\t// in\n    tag_248:\n        /* \"#utility.yul\":5860:5889   */\n      tag_249\n        /* \"#utility.yul\":5882:5888   */\n      dup2\n        /* \"#utility.yul\":5860:5889   */\n      tag_133\n      jump\t// in\n    tag_249:\n        /* \"#utility.yul\":5855:5858   */\n      dup5\n        /* \"#utility.yul\":5851:5890   */\n      add\n        /* \"#utility.yul\":5844:5890   */\n      swap2\n      pop\n        /* \"#utility.yul\":5611:5896   */\n      pop\n        /* \"#utility.yul\":5519:5896   */\n      swap3\n      swap2\n      pop\n      pop\n      jump\t// out\n        /* \"#utility.yul\":5902:6325   */\n    tag_30:\n        /* \"#utility.yul\":6043:6047   */\n      0x00\n        /* \"#utility.yul\":6081:6083   */\n      0x40\n        /* \"#utility.yul\":6070:6079   */\n      dup3\n        /* \"#utility.yul\":6066:6084   */\n      add\n        /* \"#utility.yul\":6058:6084   */\n      swap1\n      pop\n        /* \"#utility.yul\":6094:6165   */\n      tag_251\n        /* \"#utility.yul\":6162:6163   */\n      0x00\n        /* \"#utility.yul\":6151:6160   */\n      dup4\n        /* \"#utility.yul\":6147:6164   */\n      add\n        /* \"#utility.yul\":6138:6144   */\n      dup6\n        /* \"#utility.yul\":6094:6165   */\n      tag_140\n      jump\t// in\n    tag_251:\n        /* \"#utility.yul\":6212:6221   */\n      dup2\n        /* \"#utility.yul\":6206:6210   */\n      dup2\n        /* \"#utility.yul\":6202:6222   */\n      sub\n        /* \"#utility.yul\":6197:6199   */\n      0x20\n        /* \"#utility.yul\":6186:6195   */\n      dup4\n        /* \"#utility.yul\":6182:6200   */\n      add\n        /* \"#utility.yul\":6175:6223   */\n      mstore\n        /* \"#utility.yul\":6240:6318   */\n      tag_252\n        /* \"#utility.yul\":6313:6317   */\n      dup2\n        /* \"#utility.yul\":6304:6310   */\n      dup5\n        /* \"#utility.yul\":6240:6318   */\n      tag_147\n      jump\t// in\n    tag_252:\n        /* \"#utility.yul\":6232:6318   */\n      swap1\n      pop\n        /* \"#utility.yul\":5902:6325   */\n      swap4\n      swap3\n      pop\n      pop\n      pop\n      jump\t// out\n        /* \"#utility.yul\":6331:6840   */\n    tag_37:\n        /* \"#utility.yul\":6400:6406   */\n      0x00\n        /* \"#utility.yul\":6449:6451   */\n      0x20\n        /* \"#utility.yul\":6437:6446   */\n      dup3\n        /* \"#utility.yul\":6428:6435   */\n      dup5\n        /* \"#utility.yul\":6424:6447   */\n      sub\n        /* \"#utility.yul\":6420:6452   */\n      slt\n        /* \"#utility.yul\":6417:6536   */\n      iszero\n      tag_254\n      jumpi\n        /* \"#utility.yul\":6455:6534   */\n      tag_255\n      tag_126\n      jump\t// in\n    tag_255:\n        /* \"#utility.yul\":6417:6536   */\n    tag_254:\n        /* \"#utility.yul\":6603:6604   */\n      0x00\n        /* \"#utility.yul\":6592:6601   */\n      dup3\n        /* \"#utility.yul\":6588:6605   */\n      add\n        /* \"#utility.yul\":6575:6606   */\n      calldataload\n        /* \"#utility.yul\":6633:6651   */\n      0xffffffffffffffff\n        /* \"#utility.yul\":6625:6631   */\n      dup2\n        /* \"#utility.yul\":6622:6652   */\n      gt\n        /* \"#utility.yul\":6619:6736   */\n      iszero\n      tag_256\n      jumpi\n        /* \"#utility.yul\":6655:6734   */\n      tag_257\n      tag_127\n      jump\t// in\n    tag_257:\n        /* \"#utility.yul\":6619:6736   */\n    tag_256:\n        /* \"#utility.yul\":6760:6823   */\n      tag_258\n        /* \"#utility.yul\":6815:6822   */\n      dup5\n        /* \"#utility.yul\":6806:6812   */\n      dup3\n        /* \"#utility.yul\":6795:6804   */\n      dup6\n        /* \"#utility.yul\":6791:6813   */\n      add\n        /* \"#utility.yul\":6760:6823   */\n      tag_139\n      jump\t// in\n    tag_258:\n        /* \"#utility.yul\":6750:6823   */\n      swap2\n      pop\n        /* \"#utility.yul\":6546:6833   */\n      pop\n        /* \"#utility.yul\":6331:6840   */\n      swap3\n      swap2\n      pop\n      pop\n      jump\t// out\n        /* \"#utility.yul\":6846:6981   */\n    tag_148:\n        /* \"#utility.yul\":6934:6940   */\n      0x00\n        /* \"#utility.yul\":6968:6973   */\n      dup2\n        /* \"#utility.yul\":6962:6974   */\n      mload\n        /* \"#utility.yul\":6952:6974   */\n      swap1\n      pop\n        /* \"#utility.yul\":6846:6981   */\n      swap2\n      swap1\n      pop\n      jump\t// out\n        /* \"#utility.yul\":6987:7192   */\n    tag_149:\n        /* \"#utility.yul\":7107:7118   */\n      0x00\n        /* \"#utility.yul\":7141:7147   */\n      dup3\n        /* \"#utility.yul\":7136:7139   */\n      dup3\n        /* \"#utility.yul\":7129:7148   */\n      mstore\n        /* \"#utility.yul\":7181:7185   */\n      0x20\n        /* \"#utility.yul\":7176:7179   */\n      dup3\n        /* \"#utility.yul\":7172:7186   */\n      add\n        /* \"#utility.yul\":7157:7186   */\n      swap1\n      pop\n        /* \"#utility.yul\":6987:7192   */\n      swap3\n      swap2\n      pop\n      pop\n      jump\t// out\n        /* \"#utility.yul\":7198:7351   */\n    tag_150:\n        /* \"#utility.yul\":7286:7290   */\n      0x00\n        /* \"#utility.yul\":7309:7312   */\n      dup2\n        /* \"#utility.yul\":7301:7312   */\n      swap1\n      pop\n        /* \"#utility.yul\":7339:7343   */\n      0x20\n        /* \"#utility.yul\":7334:7337   */\n      dup3\n        /* \"#utility.yul\":7330:7344   */\n      add\n        /* \"#utility.yul\":7322:7344   */\n      swap1\n      pop\n        /* \"#utility.yul\":7198:7351   */\n      swap2\n      swap1\n      pop\n      jump\t// out\n        /* \"#utility.yul\":7357:7465   */\n    tag_151:\n        /* \"#utility.yul\":7434:7458   */\n      tag_263\n        /* \"#utility.yul\":7452:7457   */\n      dup2\n        /* \"#utility.yul\":7434:7458   */\n      tag_128\n      jump\t// in\n    tag_263:\n        /* \"#utility.yul\":7429:7432   */\n      dup3\n        /* \"#utility.yul\":7422:7459   */\n      mstore\n        /* \"#utility.yul\":7357:7465   */\n      pop\n      pop\n      jump\t// out\n        /* \"#utility.yul\":7471:7630   */\n    tag_152:\n        /* \"#utility.yul\":7545:7556   */\n      0x00\n        /* \"#utility.yul\":7579:7585   */\n      dup3\n        /* \"#utility.yul\":7574:7577   */\n      dup3\n        /* \"#utility.yul\":7567:7586   */\n      mstore\n        /* \"#utility.yul\":7619:7623   */\n      0x20\n        /* \"#utility.yul\":7614:7617   */\n      dup3\n        /* \"#utility.yul\":7610:7624   */\n      add\n        /* \"#utility.yul\":7595:7624   */\n      swap1\n      pop\n        /* \"#utility.yul\":7471:7630   */\n      swap3\n      swap2\n      pop\n      pop\n      jump\t// out\n        /* \"#utility.yul\":7636:7993   */\n    tag_153:\n        /* \"#utility.yul\":7714:7717   */\n      0x00\n        /* \"#utility.yul\":7742:7781   */\n      tag_266\n        /* \"#utility.yul\":7775:7780   */\n      dup3\n        /* \"#utility.yul\":7742:7781   */\n      tag_144\n      jump\t// in\n    tag_266:\n        /* \"#utility.yul\":7797:7858   */\n      tag_267\n        /* \"#utility.yul\":7851:7857   */\n      dup2\n        /* \"#utility.yul\":7846:7849   */\n      dup6\n        /* \"#utility.yul\":7797:7858   */\n      tag_152\n      jump\t// in\n    tag_267:\n        /* \"#utility.yul\":7790:7858   */\n      swap4\n      pop\n        /* \"#utility.yul\":7867:7932   */\n      tag_268\n        /* \"#utility.yul\":7925:7931   */\n      dup2\n        /* \"#utility.yul\":7920:7923   */\n      dup6\n        /* \"#utility.yul\":7913:7917   */\n      0x20\n        /* \"#utility.yul\":7906:7911   */\n      dup7\n        /* \"#utility.yul\":7902:7918   */\n      add\n        /* \"#utility.yul\":7867:7932   */\n      tag_146\n      jump\t// in\n    tag_268:\n        /* \"#utility.yul\":7957:7986   */\n      tag_269\n        /* \"#utility.yul\":7979:7985   */\n      dup2\n        /* \"#utility.yul\":7957:7986   */\n      tag_133\n      jump\t// in\n    tag_269:\n        /* \"#utility.yul\":7952:7955   */\n      dup5\n        /* \"#utility.yul\":7948:7987   */\n      add\n        /* \"#utility.yul\":7941:7987   */\n      swap2\n      pop\n        /* \"#utility.yul\":7718:7993   */\n      pop\n        /* \"#utility.yul\":7636:7993   */\n      swap3\n      swap2\n      pop\n      pop\n      jump\t// out\n        /* \"#utility.yul\":8065:8657   */\n    tag_154:\n        /* \"#utility.yul\":8166:8169   */\n      0x00\n        /* \"#utility.yul\":8202:8206   */\n      0x40\n        /* \"#utility.yul\":8197:8200   */\n      dup4\n        /* \"#utility.yul\":8193:8207   */\n      add\n        /* \"#utility.yul\":8289:8293   */\n      0x00\n        /* \"#utility.yul\":8282:8287   */\n      dup4\n        /* \"#utility.yul\":8278:8294   */\n      add\n        /* \"#utility.yul\":8272:8295   */\n      mload\n        /* \"#utility.yul\":8308:8371   */\n      tag_271\n        /* \"#utility.yul\":8365:8369   */\n      0x00\n        /* \"#utility.yul\":8360:8363   */\n      dup7\n        /* \"#utility.yul\":8356:8370   */\n      add\n        /* \"#utility.yul\":8342:8354   */\n      dup3\n        /* \"#utility.yul\":8308:8371   */\n      tag_151\n      jump\t// in\n    tag_271:\n        /* \"#utility.yul\":8217:8381   */\n      pop\n        /* \"#utility.yul\":8467:8471   */\n      0x20\n        /* \"#utility.yul\":8460:8465   */\n      dup4\n        /* \"#utility.yul\":8456:8472   */\n      add\n        /* \"#utility.yul\":8450:8473   */\n      mload\n        /* \"#utility.yul\":8520:8523   */\n      dup5\n        /* \"#utility.yul\":8514:8518   */\n      dup3\n        /* \"#utility.yul\":8510:8524   */\n      sub\n        /* \"#utility.yul\":8503:8507   */\n      0x20\n        /* \"#utility.yul\":8498:8501   */\n      dup7\n        /* \"#utility.yul\":8494:8508   */\n      add\n        /* \"#utility.yul\":8487:8525   */\n      mstore\n        /* \"#utility.yul\":8546:8619   */\n      tag_272\n        /* \"#utility.yul\":8614:8618   */\n      dup3\n        /* \"#utility.yul\":8600:8612   */\n      dup3\n        /* \"#utility.yul\":8546:8619   */\n      tag_153\n      jump\t// in\n    tag_272:\n        /* \"#utility.yul\":8538:8619   */\n      swap2\n      pop\n        /* \"#utility.yul\":8391:8630   */\n      pop\n        /* \"#utility.yul\":8647:8651   */\n      dup1\n        /* \"#utility.yul\":8640:8651   */\n      swap2\n      pop\n        /* \"#utility.yul\":8171:8657   */\n      pop\n        /* \"#utility.yul\":8065:8657   */\n      swap3\n      swap2\n      pop\n      pop\n      jump\t// out\n        /* \"#utility.yul\":8663:8903   */\n    tag_155:\n        /* \"#utility.yul\":8774:8784   */\n      0x00\n        /* \"#utility.yul\":8809:8897   */\n      tag_274\n        /* \"#utility.yul\":8893:8896   */\n      dup4\n        /* \"#utility.yul\":8885:8891   */\n      dup4\n        /* \"#utility.yul\":8809:8897   */\n      tag_154\n      jump\t// in\n    tag_274:\n        /* \"#utility.yul\":8795:8897   */\n      swap1\n      pop\n        /* \"#utility.yul\":8663:8903   */\n      swap3\n      swap2\n      pop\n      pop\n      jump\t// out\n        /* \"#utility.yul\":8909:9043   */\n    tag_156:\n        /* \"#utility.yul\":9000:9004   */\n      0x00\n        /* \"#utility.yul\":9032:9036   */\n      0x20\n        /* \"#utility.yul\":9027:9030   */\n      dup3\n        /* \"#utility.yul\":9023:9037   */\n      add\n        /* \"#utility.yul\":9015:9037   */\n      swap1\n      pop\n        /* \"#utility.yul\":8909:9043   */\n      swap2\n      swap1\n      pop\n      jump\t// out\n        /* \"#utility.yul\":9119:10198   */\n    tag_157:\n        /* \"#utility.yul\":9280:9283   */\n      0x00\n        /* \"#utility.yul\":9309:9384   */\n      tag_277\n        /* \"#utility.yul\":9378:9383   */\n      dup3\n        /* \"#utility.yul\":9309:9384   */\n      tag_148\n      jump\t// in\n    tag_277:\n        /* \"#utility.yul\":9400:9507   */\n      tag_278\n        /* \"#utility.yul\":9500:9506   */\n      dup2\n        /* \"#utility.yul\":9495:9498   */\n      dup6\n        /* \"#utility.yul\":9400:9507   */\n      tag_149\n      jump\t// in\n    tag_278:\n        /* \"#utility.yul\":9393:9507   */\n      swap4\n      pop\n        /* \"#utility.yul\":9533:9536   */\n      dup4\n        /* \"#utility.yul\":9578:9582   */\n      0x20\n        /* \"#utility.yul\":9570:9576   */\n      dup3\n        /* \"#utility.yul\":9566:9583   */\n      mul\n        /* \"#utility.yul\":9561:9564   */\n      dup6\n        /* \"#utility.yul\":9557:9584   */\n      add\n        /* \"#utility.yul\":9608:9685   */\n      tag_279\n        /* \"#utility.yul\":9679:9684   */\n      dup6\n        /* \"#utility.yul\":9608:9685   */\n      tag_150\n      jump\t// in\n    tag_279:\n        /* \"#utility.yul\":9708:9715   */\n      dup1\n        /* \"#utility.yul\":9739:9740   */\n      0x00\n        /* \"#utility.yul\":9724:10153   */\n    tag_280:\n        /* \"#utility.yul\":9749:9755   */\n      dup6\n        /* \"#utility.yul\":9746:9747   */\n      dup2\n        /* \"#utility.yul\":9743:9756   */\n      lt\n        /* \"#utility.yul\":9724:10153   */\n      iszero\n      tag_282\n      jumpi\n        /* \"#utility.yul\":9820:9829   */\n      dup5\n        /* \"#utility.yul\":9814:9818   */\n      dup5\n        /* \"#utility.yul\":9810:9830   */\n      sub\n        /* \"#utility.yul\":9805:9808   */\n      dup10\n        /* \"#utility.yul\":9798:9831   */\n      mstore\n        /* \"#utility.yul\":9871:9877   */\n      dup2\n        /* \"#utility.yul\":9865:9878   */\n      mload\n        /* \"#utility.yul\":9899:10005   */\n      tag_283\n        /* \"#utility.yul\":10000:10004   */\n      dup6\n        /* \"#utility.yul\":9985:9998   */\n      dup3\n        /* \"#utility.yul\":9899:10005   */\n      tag_155\n      jump\t// in\n    tag_283:\n        /* \"#utility.yul\":9891:10005   */\n      swap5\n      pop\n        /* \"#utility.yul\":10028:10109   */\n      tag_284\n        /* \"#utility.yul\":10102:10108   */\n      dup4\n        /* \"#utility.yul\":10028:10109   */\n      tag_156\n      jump\t// in\n    tag_284:\n        /* \"#utility.yul\":10018:10109   */\n      swap3\n      pop\n        /* \"#utility.yul\":10138:10142   */\n      0x20\n        /* \"#utility.yul\":10133:10136   */\n      dup11\n        /* \"#utility.yul\":10129:10143   */\n      add\n        /* \"#utility.yul\":10122:10143   */\n      swap10\n      pop\n        /* \"#utility.yul\":9784:10153   */\n      pop\n        /* \"#utility.yul\":9771:9772   */\n      0x01\n        /* \"#utility.yul\":9768:9769   */\n      dup2\n        /* \"#utility.yul\":9764:9773   */\n      add\n        /* \"#utility.yul\":9759:9773   */\n      swap1\n      pop\n        /* \"#utility.yul\":9724:10153   */\n      jump(tag_280)\n    tag_282:\n        /* \"#utility.yul\":9728:9742   */\n      pop\n        /* \"#utility.yul\":10169:10173   */\n      dup3\n        /* \"#utility.yul\":10162:10173   */\n      swap8\n      pop\n        /* \"#utility.yul\":10189:10192   */\n      dup8\n        /* \"#utility.yul\":10182:10192   */\n      swap6\n      pop\n        /* \"#utility.yul\":9285:10198   */\n      pop\n      pop\n      pop\n      pop\n      pop\n        /* \"#utility.yul\":9119:10198   */\n      swap3\n      swap2\n      pop\n      pop\n      jump\t// out\n        /* \"#utility.yul\":10204:10661   */\n    tag_42:\n        /* \"#utility.yul\":10389:10393   */\n      0x00\n        /* \"#utility.yul\":10427:10429   */\n      0x20\n        /* \"#utility.yul\":10416:10425   */\n      dup3\n        /* \"#utility.yul\":10412:10430   */\n      add\n        /* \"#utility.yul\":10404:10430   */\n      swap1\n      pop\n        /* \"#utility.yul\":10476:10485   */\n      dup2\n        /* \"#utility.yul\":10470:10474   */\n      dup2\n        /* \"#utility.yul\":10466:10486   */\n      sub\n        /* \"#utility.yul\":10462:10463   */\n      0x00\n        /* \"#utility.yul\":10451:10460   */\n      dup4\n        /* \"#utility.yul\":10447:10464   */\n      add\n        /* \"#utility.yul\":10440:10487   */\n      mstore\n        /* \"#utility.yul\":10504:10654   */\n      tag_286\n        /* \"#utility.yul\":10649:10653   */\n      dup2\n        /* \"#utility.yul\":10640:10646   */\n      dup5\n        /* \"#utility.yul\":10504:10654   */\n      tag_157\n      jump\t// in\n    tag_286:\n        /* \"#utility.yul\":10496:10654   */\n      swap1\n      pop\n        /* \"#utility.yul\":10204:10661   */\n      swap3\n      swap2\n      pop\n      pop\n      jump\t// out\n        /* \"#utility.yul\":10667:10901   */\n    tag_158:\n        /* \"#utility.yul\":10807:10841   */\n      0x4f6e6c792074686520636f6e7472616374206f776e65722063616e2070657266\n        /* \"#utility.yul\":10803:10804   */\n      0x00\n        /* \"#utility.yul\":10795:10801   */\n      dup3\n        /* \"#utility.yul\":10791:10805   */\n      add\n        /* \"#utility.yul\":10784:10842   */\n      mstore\n        /* \"#utility.yul\":10876:10893   */\n      0x6f726d207468697320616374696f6e0000000000000000000000000000000000\n        /* \"#utility.yul\":10871:10873   */\n      0x20\n        /* \"#utility.yul\":10863:10869   */\n      dup3\n        /* \"#utility.yul\":10859:10874   */\n      add\n        /* \"#utility.yul\":10852:10894   */\n      mstore\n        /* \"#utility.yul\":10667:10901   */\n      pop\n      jump\t// out\n        /* \"#utility.yul\":10907:11273   */\n    tag_159:\n        /* \"#utility.yul\":11049:11052   */\n      0x00\n        /* \"#utility.yul\":11070:11137   */\n      tag_289\n        /* \"#utility.yul\":11134:11136   */\n      0x2f\n        /* \"#utility.yul\":11129:11132   */\n      dup4\n        /* \"#utility.yul\":11070:11137   */\n      tag_145\n      jump\t// in\n    tag_289:\n        /* \"#utility.yul\":11063:11137   */\n      swap2\n      pop\n        /* \"#utility.yul\":11146:11239   */\n      tag_290\n        /* \"#utility.yul\":11235:11238   */\n      dup3\n        /* \"#utility.yul\":11146:11239   */\n      tag_158\n      jump\t// in\n    tag_290:\n        /* \"#utility.yul\":11264:11266   */\n      0x40\n        /* \"#utility.yul\":11259:11262   */\n      dup3\n        /* \"#utility.yul\":11255:11267   */\n      add\n        /* \"#utility.yul\":11248:11267   */\n      swap1\n      pop\n        /* \"#utility.yul\":10907:11273   */\n      swap2\n      swap1\n      pop\n      jump\t// out\n        /* \"#utility.yul\":11279:11698   */\n    tag_52:\n        /* \"#utility.yul\":11445:11449   */\n      0x00\n        /* \"#utility.yul\":11483:11485   */\n      0x20\n        /* \"#utility.yul\":11472:11481   */\n      dup3\n        /* \"#utility.yul\":11468:11486   */\n      add\n        /* \"#utility.yul\":11460:11486   */\n      swap1\n      pop\n        /* \"#utility.yul\":11532:11541   */\n      dup2\n        /* \"#utility.yul\":11526:11530   */\n      dup2\n        /* \"#utility.yul\":11522:11542   */\n      sub\n        /* \"#utility.yul\":11518:11519   */\n      0x00\n        /* \"#utility.yul\":11507:11516   */\n      dup4\n        /* \"#utility.yul\":11503:11520   */\n      add\n        /* \"#utility.yul\":11496:11543   */\n      mstore\n        /* \"#utility.yul\":11560:11691   */\n      tag_292\n        /* \"#utility.yul\":11686:11690   */\n      dup2\n        /* \"#utility.yul\":11560:11691   */\n      tag_159\n      jump\t// in\n    tag_292:\n        /* \"#utility.yul\":11552:11691   */\n      swap1\n      pop\n        /* \"#utility.yul\":11279:11698   */\n      swap2\n      swap1\n      pop\n      jump\t// out\n        /* \"#utility.yul\":11704:11867   */\n    tag_160:\n        /* \"#utility.yul\":11844:11859   */\n      0x496e76616c696420696e64657800000000000000000000000000000000000000\n        /* \"#utility.yul\":11840:11841   */\n      0x00\n        /* \"#utility.yul\":11832:11838   */\n      dup3\n        /* \"#utility.yul\":11828:11842   */\n      add\n        /* \"#utility.yul\":11821:11860   */\n      mstore\n        /* \"#utility.yul\":11704:11867   */\n      pop\n      jump\t// out\n        /* \"#utility.yul\":11873:12239   */\n    tag_161:\n        /* \"#utility.yul\":12015:12018   */\n      0x00\n        /* \"#utility.yul\":12036:12103   */\n      tag_295\n        /* \"#utility.yul\":12100:12102   */\n      0x0d\n        /* \"#utility.yul\":12095:12098   */\n      dup4\n        /* \"#utility.yul\":12036:12103   */\n      tag_145\n      jump\t// in\n    tag_295:\n        /* \"#utility.yul\":12029:12103   */\n      swap2\n      pop\n        /* \"#utility.yul\":12112:12205   */\n      tag_296\n        /* \"#utility.yul\":12201:12204   */\n      dup3\n        /* \"#utility.yul\":12112:12205   */\n      tag_160\n      jump\t// in\n    tag_296:\n        /* \"#utility.yul\":12230:12232   */\n      0x20\n        /* \"#utility.yul\":12225:12228   */\n      dup3\n        /* \"#utility.yul\":12221:12233   */\n      add\n        /* \"#utility.yul\":12214:12233   */\n      swap1\n      pop\n        /* \"#utility.yul\":11873:12239   */\n      swap2\n      swap1\n      pop\n      jump\t// out\n        /* \"#utility.yul\":12245:12664   */\n    tag_56:\n        /* \"#utility.yul\":12411:12415   */\n      0x00\n        /* \"#utility.yul\":12449:12451   */\n      0x20\n        /* \"#utility.yul\":12438:12447   */\n      dup3\n        /* \"#utility.yul\":12434:12452   */\n      add\n        /* \"#utility.yul\":12426:12452   */\n      swap1\n      pop\n        /* \"#utility.yul\":12498:12507   */\n      dup2\n        /* \"#utility.yul\":12492:12496   */\n      dup2\n        /* \"#utility.yul\":12488:12508   */\n      sub\n        /* \"#utility.yul\":12484:12485   */\n      0x00\n        /* \"#utility.yul\":12473:12482   */\n      dup4\n        /* \"#utility.yul\":12469:12486   */\n      add\n        /* \"#utility.yul\":12462:12509   */\n      mstore\n        /* \"#utility.yul\":12526:12657   */\n      tag_298\n        /* \"#utility.yul\":12652:12656   */\n      dup2\n        /* \"#utility.yul\":12526:12657   */\n      tag_161\n      jump\t// in\n    tag_298:\n        /* \"#utility.yul\":12518:12657   */\n      swap1\n      pop\n        /* \"#utility.yul\":12245:12664   */\n      swap2\n      swap1\n      pop\n      jump\t// out\n        /* \"#utility.yul\":12670:12850   */\n    tag_162:\n        /* \"#utility.yul\":12718:12795   */\n      0x4e487b7100000000000000000000000000000000000000000000000000000000\n        /* \"#utility.yul\":12715:12716   */\n      0x00\n        /* \"#utility.yul\":12708:12796   */\n      mstore\n        /* \"#utility.yul\":12815:12819   */\n      0x22\n        /* \"#utility.yul\":12812:12813   */\n      0x04\n        /* \"#utility.yul\":12805:12820   */\n      mstore\n        /* \"#utility.yul\":12839:12843   */\n      0x24\n        /* \"#utility.yul\":12836:12837   */\n      0x00\n        /* \"#utility.yul\":12829:12844   */\n      revert\n        /* \"#utility.yul\":12856:13176   */\n    tag_64:\n        /* \"#utility.yul\":12900:12906   */\n      0x00\n        /* \"#utility.yul\":12937:12938   */\n      0x02\n        /* \"#utility.yul\":12931:12935   */\n      dup3\n        /* \"#utility.yul\":12927:12939   */\n      div\n        /* \"#utility.yul\":12917:12939   */\n      swap1\n      pop\n        /* \"#utility.yul\":12984:12985   */\n      0x01\n        /* \"#utility.yul\":12978:12982   */\n      dup3\n        /* \"#utility.yul\":12974:12986   */\n      and\n        /* \"#utility.yul\":13005:13023   */\n      dup1\n        /* \"#utility.yul\":12995:13076   */\n      tag_301\n      jumpi\n        /* \"#utility.yul\":13061:13065   */\n      0x7f\n        /* \"#utility.yul\":13053:13059   */\n      dup3\n        /* \"#utility.yul\":13049:13066   */\n      and\n        /* \"#utility.yul\":13039:13066   */\n      swap2\n      pop\n        /* \"#utility.yul\":12995:13076   */\n    tag_301:\n        /* \"#utility.yul\":13123:13125   */\n      0x20\n        /* \"#utility.yul\":13115:13121   */\n      dup3\n        /* \"#utility.yul\":13112:13126   */\n      lt\n        /* \"#utility.yul\":13092:13110   */\n      dup2\n        /* \"#utility.yul\":13089:13127   */\n      sub\n        /* \"#utility.yul\":13086:13170   */\n      tag_302\n      jumpi\n        /* \"#utility.yul\":13142:13160   */\n      tag_303\n      tag_162\n      jump\t// in\n    tag_303:\n        /* \"#utility.yul\":13086:13170   */\n    tag_302:\n        /* \"#utility.yul\":12907:13176   */\n      pop\n        /* \"#utility.yul\":12856:13176   */\n      swap2\n      swap1\n      pop\n      jump\t// out\n        /* \"#utility.yul\":13182:13323   */\n    tag_163:\n        /* \"#utility.yul\":13231:13235   */\n      0x00\n        /* \"#utility.yul\":13254:13257   */\n      dup2\n        /* \"#utility.yul\":13246:13257   */\n      swap1\n      pop\n        /* \"#utility.yul\":13277:13280   */\n      dup2\n        /* \"#utility.yul\":13274:13275   */\n      0x00\n        /* \"#utility.yul\":13267:13281   */\n      mstore\n        /* \"#utility.yul\":13311:13315   */\n      0x20\n        /* \"#utility.yul\":13308:13309   */\n      0x00\n        /* \"#utility.yul\":13298:13316   */\n      keccak256\n        /* \"#utility.yul\":13290:13316   */\n      swap1\n      pop\n        /* \"#utility.yul\":13182:13323   */\n      swap2\n      swap1\n      pop\n      jump\t// out\n        /* \"#utility.yul\":13329:13422   */\n    tag_164:\n        /* \"#utility.yul\":13366:13372   */\n      0x00\n        /* \"#utility.yul\":13413:13415   */\n      0x20\n        /* \"#utility.yul\":13408:13410   */\n      0x1f\n        /* \"#utility.yul\":13401:13406   */\n      dup4\n        /* \"#utility.yul\":13397:13411   */\n      add\n        /* \"#utility.yul\":13393:13416   */\n      div\n        /* \"#utility.yul\":13383:13416   */\n      swap1\n      pop\n        /* \"#utility.yul\":13329:13422   */\n      swap2\n      swap1\n      pop\n      jump\t// out\n        /* \"#utility.yul\":13428:13535   */\n    tag_165:\n        /* \"#utility.yul\":13472:13480   */\n      0x00\n        /* \"#utility.yul\":13522:13527   */\n      dup3\n        /* \"#utility.yul\":13516:13520   */\n      dup3\n        /* \"#utility.yul\":13512:13528   */\n      shl\n        /* \"#utility.yul\":13491:13528   */\n      swap1\n      pop\n        /* \"#utility.yul\":13428:13535   */\n      swap3\n      swap2\n      pop\n      pop\n      jump\t// out\n        /* \"#utility.yul\":13541:13934   */\n    tag_166:\n        /* \"#utility.yul\":13610:13616   */\n      0x00\n        /* \"#utility.yul\":13660:13661   */\n      0x08\n        /* \"#utility.yul\":13648:13658   */\n      dup4\n        /* \"#utility.yul\":13644:13662   */\n      mul\n        /* \"#utility.yul\":13683:13780   */\n      tag_308\n        /* \"#utility.yul\":13713:13779   */\n      0xffffffffffffffffffffffffffffffffffffffffffffffffffffffffffffffff\n        /* \"#utility.yul\":13702:13711   */\n      dup3\n        /* \"#utility.yul\":13683:13780   */\n      tag_165\n      jump\t// in\n    tag_308:\n        /* \"#utility.yul\":13801:13840   */\n      tag_309\n        /* \"#utility.yul\":13831:13839   */\n      dup7\n        /* \"#utility.yul\":13820:13829   */\n      dup4\n        /* \"#utility.yul\":13801:13840   */\n      tag_165\n      jump\t// in\n    tag_309:\n        /* \"#utility.yul\":13789:13840   */\n      swap6\n      pop\n        /* \"#utility.yul\":13873:13877   */\n      dup1\n        /* \"#utility.yul\":13869:13878   */\n      not\n        /* \"#utility.yul\":13862:13867   */\n      dup5\n        /* \"#utility.yul\":13858:13879   */\n      and\n        /* \"#utility.yul\":13849:13879   */\n      swap4\n      pop\n        /* \"#utility.yul\":13922:13926   */\n      dup1\n        /* \"#utility.yul\":13912:13920   */\n      dup7\n        /* \"#utility.yul\":13908:13927   */\n      and\n        /* \"#utility.yul\":13901:13906   */\n      dup5\n        /* \"#utility.yul\":13898:13928   */\n      or\n        /* \"#utility.yul\":13888:13928   */\n      swap3\n      pop\n        /* \"#utility.yul\":13617:13934   */\n      pop\n      pop\n        /* \"#utility.yul\":13541:13934   */\n      swap4\n      swap3\n      pop\n      pop\n      pop\n      jump\t// out\n        /* \"#utility.yul\":13940:14000   */\n    tag_167:\n        /* \"#utility.yul\":13968:13971   */\n      0x00\n        /* \"#utility.yul\":13989:13994   */\n      dup2\n        /* \"#utility.yul\":13982:13994   */\n      swap1\n      pop\n        /* \"#utility.yul\":13940:14000   */\n      swap2\n      swap1\n      pop\n      jump\t// out\n        /* \"#utility.yul\":14006:14148   */\n    tag_168:\n        /* \"#utility.yul\":14056:14065   */\n      0x00\n        /* \"#utility.yul\":14089:14142   */\n      tag_312\n        /* \"#utility.yul\":14107:14141   */\n      tag_313\n        /* \"#utility.yul\":14116:14140   */\n      tag_314\n        /* \"#utility.yul\":14134:14139   */\n      dup5\n        /* \"#utility.yul\":14116:14140   */\n      tag_128\n      jump\t// in\n    tag_314:\n        /* \"#utility.yul\":14107:14141   */\n      tag_167\n      jump\t// in\n    tag_313:\n        /* \"#utility.yul\":14089:14142   */\n      tag_128\n      jump\t// in\n    tag_312:\n        /* \"#utility.yul\":14076:14142   */\n      swap1\n      pop\n        /* \"#utility.yul\":14006:14148   */\n      swap2\n      swap1\n      pop\n      jump\t// out\n        /* \"#utility.yul\":14154:14229   */\n    tag_169:\n        /* \"#utility.yul\":14197:14200   */\n      0x00\n        /* \"#utility.yul\":14218:14223   */\n      dup2\n        /* \"#utility.yul\":14211:14223   */\n      swap1\n      pop\n        /* \"#utility.yul\":14154:14229   */\n      swap2\n      swap1\n      pop\n      jump\t// out\n        /* \"#utility.yul\":14235:14504   */\n    tag_170:\n        /* \"#utility.yul\":14345:14384   */\n      tag_317\n        /* \"#utility.yul\":14376:14383   */\n      dup4\n        /* \"#utility.yul\":14345:14384   */\n      tag_168\n      jump\t// in\n    tag_317:\n        /* \"#utility.yul\":14406:14497   */\n      tag_318\n        /* \"#utility.yul\":14455:14496   */\n      tag_319\n        /* \"#utility.yul\":14479:14495   */\n      dup3\n        /* \"#utility.yul\":14455:14496   */\n      tag_169\n      jump\t// in\n    tag_319:\n        /* \"#utility.yul\":14447:14453   */\n      dup5\n        /* \"#utility.yul\":14440:14444   */\n      dup5\n        /* \"#utility.yul\":14434:14445   */\n      sload\n        /* \"#utility.yul\":14406:14497   */\n      tag_166\n      jump\t// in\n    tag_318:\n        /* \"#utility.yul\":14400:14404   */\n      dup3\n        /* \"#utility.yul\":14393:14498   */\n      sstore\n        /* \"#utility.yul\":14311:14504   */\n      pop\n        /* \"#utility.yul\":14235:14504   */\n      pop\n      pop\n      pop\n      jump\t// out\n        /* \"#utility.yul\":14510:14583   */\n    tag_171:\n        /* \"#utility.yul\":14555:14558   */\n      0x00\n        /* \"#utility.yul\":14510:14583   */\n      swap1\n      jump\t// out\n        /* \"#utility.yul\":14589:14778   */\n    tag_172:\n        /* \"#utility.yul\":14666:14698   */\n      tag_322\n      tag_171\n      jump\t// in\n    tag_322:\n        /* \"#utility.yul\":14707:14772   */\n      tag_323\n        /* \"#utility.yul\":14765:14771   */\n      dup2\n        /* \"#utility.yul\":14757:14763   */\n      dup5\n        /* \"#utility.yul\":14751:14755   */\n      dup5\n        /* \"#utility.yul\":14707:14772   */\n      tag_170\n      jump\t// in\n    tag_323:\n        /* \"#utility.yul\":14642:14778   */\n      pop\n        /* \"#utility.yul\":14589:14778   */\n      pop\n      pop\n      jump\t// out\n        /* \"#utility.yul\":14784:14970   */\n    tag_173:\n        /* \"#utility.yul\":14844:14964   */\n    tag_325:\n        /* \"#utility.yul\":14861:14864   */\n      dup2\n        /* \"#utility.yul\":14854:14859   */\n      dup2\n        /* \"#utility.yul\":14851:14865   */\n      lt\n        /* \"#utility.yul\":14844:14964   */\n      iszero\n      tag_327\n      jumpi\n        /* \"#utility.yul\":14915:14954   */\n      tag_328\n        /* \"#utility.yul\":14952:14953   */\n      0x00\n        /* \"#utility.yul\":14945:14950   */\n      dup3\n        /* \"#utility.yul\":14915:14954   */\n      tag_172\n      jump\t// in\n    tag_328:\n        /* \"#utility.yul\":14888:14889   */\n      0x01\n        /* \"#utility.yul\":14881:14886   */\n      dup2\n        /* \"#utility.yul\":14877:14890   */\n      add\n        /* \"#utility.yul\":14868:14890   */\n      swap1\n      pop\n        /* \"#utility.yul\":14844:14964   */\n      jump(tag_325)\n    tag_327:\n        /* \"#utility.yul\":14784:14970   */\n      pop\n      pop\n      jump\t// out\n        /* \"#utility.yul\":14976:15519   */\n    tag_174:\n        /* \"#utility.yul\":15077:15079   */\n      0x1f\n        /* \"#utility.yul\":15072:15075   */\n      dup3\n        /* \"#utility.yul\":15069:15080   */\n      gt\n        /* \"#utility.yul\":15066:15512   */\n      iszero\n      tag_330\n      jumpi\n        /* \"#utility.yul\":15111:15149   */\n      tag_331\n        /* \"#utility.yul\":15143:15148   */\n      dup2\n        /* \"#utility.yul\":15111:15149   */\n      tag_163\n      jump\t// in\n    tag_331:\n        /* \"#utility.yul\":15195:15224   */\n      tag_332\n        /* \"#utility.yul\":15213:15223   */\n      dup5\n        /* \"#utility.yul\":15195:15224   */\n      tag_164\n      jump\t// in\n    tag_332:\n        /* \"#utility.yul\":15185:15193   */\n      dup2\n        /* \"#utility.yul\":15181:15225   */\n      add\n        /* \"#utility.yul\":15378:15380   */\n      0x20\n        /* \"#utility.yul\":15366:15376   */\n      dup6\n        /* \"#utility.yul\":15363:15381   */\n      lt\n        /* \"#utility.yul\":15360:15409   */\n      iszero\n      tag_333\n      jumpi\n        /* \"#utility.yul\":15399:15407   */\n      dup2\n        /* \"#utility.yul\":15384:15407   */\n      swap1\n      pop\n        /* \"#utility.yul\":15360:15409   */\n    tag_333:\n        /* \"#utility.yul\":15422:15502   */\n      tag_334\n        /* \"#utility.yul\":15478:15500   */\n      tag_335\n        /* \"#utility.yul\":15496:15499   */\n      dup6\n        /* \"#utility.yul\":15478:15500   */\n      tag_164\n      jump\t// in\n    tag_335:\n        /* \"#utility.yul\":15468:15476   */\n      dup4\n        /* \"#utility.yul\":15464:15501   */\n      add\n        /* \"#utility.yul\":15451:15462   */\n      dup3\n        /* \"#utility.yul\":15422:15502   */\n      tag_173\n      jump\t// in\n    tag_334:\n        /* \"#utility.yul\":15081:15512   */\n      pop\n      pop\n        /* \"#utility.yul\":15066:15512   */\n    tag_330:\n        /* \"#utility.yul\":14976:15519   */\n      pop\n      pop\n      pop\n      jump\t// out\n        /* \"#utility.yul\":15525:15642   */\n    tag_175:\n        /* \"#utility.yul\":15579:15587   */\n      0x00\n        /* \"#utility.yul\":15629:15634   */\n      dup3\n        /* \"#utility.yul\":15623:15627   */\n      dup3\n        /* \"#utility.yul\":15619:15635   */\n      shr\n        /* \"#utility.yul\":15598:15635   */\n      swap1\n      pop\n        /* \"#utility.yul\":15525:15642   */\n      swap3\n      swap2\n      pop\n      pop\n      jump\t// out\n        /* \"#utility.yul\":15648:15817   */\n    tag_176:\n        /* \"#utility.yul\":15692:15698   */\n      0x00\n        /* \"#utility.yul\":15725:15776   */\n      tag_338\n        /* \"#utility.yul\":15773:15774   */\n      0x00\n        /* \"#utility.yul\":15769:15775   */\n      not\n        /* \"#utility.yul\":15761:15766   */\n      dup5\n        /* \"#utility.yul\":15758:15759   */\n      0x08\n        /* \"#utility.yul\":15754:15767   */\n      mul\n        /* \"#utility.yul\":15725:15776   */\n      tag_175\n      jump\t// in\n    tag_338:\n        /* \"#utility.yul\":15721:15777   */\n      not\n        /* \"#utility.yul\":15806:15810   */\n      dup1\n        /* \"#utility.yul\":15800:15804   */\n      dup4\n        /* \"#utility.yul\":15796:15811   */\n      and\n        /* \"#utility.yul\":15786:15811   */\n      swap2\n      pop\n        /* \"#utility.yul\":15699:15817   */\n      pop\n        /* \"#utility.yul\":15648:15817   */\n      swap3\n      swap2\n      pop\n      pop\n      jump\t// out\n        /* \"#utility.yul\":15822:16117   */\n    tag_177:\n        /* \"#utility.yul\":15898:15902   */\n      0x00\n        /* \"#utility.yul\":16044:16073   */\n      tag_340\n        /* \"#utility.yul\":16069:16072   */\n      dup4\n        /* \"#utility.yul\":16063:16067   */\n      dup4\n        /* \"#utility.yul\":16044:16073   */\n      tag_176\n      jump\t// in\n    tag_340:\n        /* \"#utility.yul\":16036:16073   */\n      swap2\n      pop\n        /* \"#utility.yul\":16106:16109   */\n      dup3\n        /* \"#utility.yul\":16103:16104   */\n      0x02\n        /* \"#utility.yul\":16099:16110   */\n      mul\n        /* \"#utility.yul\":16093:16097   */\n      dup3\n        /* \"#utility.yul\":16090:16111   */\n      or\n        /* \"#utility.yul\":16082:16111   */\n      swap1\n      pop\n        /* \"#utility.yul\":15822:16117   */\n      swap3\n      swap2\n      pop\n      pop\n      jump\t// out\n        /* \"#utility.yul\":16122:17517   */\n    tag_58:\n        /* \"#utility.yul\":16239:16276   */\n      tag_342\n        /* \"#utility.yul\":16272:16275   */\n      dup3\n        /* \"#utility.yul\":16239:16276   */\n      tag_144\n      jump\t// in\n    tag_342:\n        /* \"#utility.yul\":16341:16359   */\n      0xffffffffffffffff\n        /* \"#utility.yul\":16333:16339   */\n      dup2\n        /* \"#utility.yul\":16330:16360   */\n      gt\n        /* \"#utility.yul\":16327:16383   */\n      iszero\n      tag_343\n      jumpi\n        /* \"#utility.yul\":16363:16381   */\n      tag_344\n      tag_84\n      jump\t// in\n    tag_344:\n        /* \"#utility.yul\":16327:16383   */\n    tag_343:\n        /* \"#utility.yul\":16407:16445   */\n      tag_345\n        /* \"#utility.yul\":16439:16443   */\n      dup3\n        /* \"#utility.yul\":16433:16444   */\n      sload\n        /* \"#utility.yul\":16407:16445   */\n      tag_64\n      jump\t// in\n    tag_345:\n        /* \"#utility.yul\":16492:16559   */\n      tag_346\n        /* \"#utility.yul\":16552:16558   */\n      dup3\n        /* \"#utility.yul\":16544:16550   */\n      dup3\n        /* \"#utility.yul\":16538:16542   */\n      dup6\n        /* \"#utility.yul\":16492:16559   */\n      tag_174\n      jump\t// in\n    tag_346:\n        /* \"#utility.yul\":16586:16587   */\n      0x00\n        /* \"#utility.yul\":16610:16614   */\n      0x20\n        /* \"#utility.yul\":16597:16614   */\n      swap1\n      pop\n        /* \"#utility.yul\":16642:16644   */\n      0x1f\n        /* \"#utility.yul\":16634:16640   */\n      dup4\n        /* \"#utility.yul\":16631:16645   */\n      gt\n        /* \"#utility.yul\":16659:16660   */\n      0x01\n        /* \"#utility.yul\":16654:17272   */\n      dup2\n      eq\n      tag_348\n      jumpi\n        /* \"#utility.yul\":17316:17317   */\n      0x00\n        /* \"#utility.yul\":17333:17339   */\n      dup5\n        /* \"#utility.yul\":17330:17407   */\n      iszero\n      tag_349\n      jumpi\n        /* \"#utility.yul\":17382:17391   */\n      dup3\n        /* \"#utility.yul\":17377:17380   */\n      dup8\n        /* \"#utility.yul\":17373:17392   */\n      add\n        /* \"#utility.yul\":17367:17393   */\n      mload\n        /* \"#utility.yul\":17358:17393   */\n      swap1\n      pop\n        /* \"#utility.yul\":17330:17407   */\n    tag_349:\n        /* \"#utility.yul\":17433:17500   */\n      tag_350\n        /* \"#utility.yul\":17493:17499   */\n      dup6\n        /* \"#utility.yul\":17486:17491   */\n      dup3\n        /* \"#utility.yul\":17433:17500   */\n      tag_177\n      jump\t// in\n    tag_350:\n        /* \"#utility.yul\":17427:17431   */\n      dup7\n        /* \"#utility.yul\":17420:17501   */\n      sstore\n        /* \"#utility.yul\":17289:17511   */\n      pop\n        /* \"#utility.yul\":16624:17511   */\n      jump(tag_347)\n        /* \"#utility.yul\":16654:17272   */\n    tag_348:\n        /* \"#utility.yul\":16706:16710   */\n      0x1f\n        /* \"#utility.yul\":16702:16711   */\n      not\n        /* \"#utility.yul\":16694:16700   */\n      dup5\n        /* \"#utility.yul\":16690:16712   */\n      and\n        /* \"#utility.yul\":16740:16777   */\n      tag_351\n        /* \"#utility.yul\":16772:16776   */\n      dup7\n        /* \"#utility.yul\":16740:16777   */\n      tag_163\n      jump\t// in\n    tag_351:\n        /* \"#utility.yul\":16799:16800   */\n      0x00\n        /* \"#utility.yul\":16813:17021   */\n    tag_352:\n        /* \"#utility.yul\":16827:16834   */\n      dup3\n        /* \"#utility.yul\":16824:16825   */\n      dup2\n        /* \"#utility.yul\":16821:16835   */\n      lt\n        /* \"#utility.yul\":16813:17021   */\n      iszero\n      tag_354\n      jumpi\n        /* \"#utility.yul\":16906:16915   */\n      dup5\n        /* \"#utility.yul\":16901:16904   */\n      dup10\n        /* \"#utility.yul\":16897:16916   */\n      add\n        /* \"#utility.yul\":16891:16917   */\n      mload\n        /* \"#utility.yul\":16883:16889   */\n      dup3\n        /* \"#utility.yul\":16876:16918   */\n      sstore\n        /* \"#utility.yul\":16957:16958   */\n      0x01\n        /* \"#utility.yul\":16949:16955   */\n      dup3\n        /* \"#utility.yul\":16945:16959   */\n      add\n        /* \"#utility.yul\":16935:16959   */\n      swap2\n      pop\n        /* \"#utility.yul\":17004:17006   */\n      0x20\n        /* \"#utility.yul\":16993:17002   */\n      dup6\n        /* \"#utility.yul\":16989:17007   */\n      add\n        /* \"#utility.yul\":16976:17007   */\n      swap5\n      pop\n        /* \"#utility.yul\":16850:16854   */\n      0x20\n        /* \"#utility.yul\":16847:16848   */\n      dup2\n        /* \"#utility.yul\":16843:16855   */\n      add\n        /* \"#utility.yul\":16838:16855   */\n      swap1\n      pop\n        /* \"#utility.yul\":16813:17021   */\n      jump(tag_352)\n    tag_354:\n        /* \"#utility.yul\":17049:17055   */\n      dup7\n        /* \"#utility.yul\":17040:17047   */\n      dup4\n        /* \"#utility.yul\":17037:17056   */\n      lt\n        /* \"#utility.yul\":17034:17213   */\n      iszero\n      tag_355\n      jumpi\n        /* \"#utility.yul\":17107:17116   */\n      dup5\n        /* \"#utility.yul\":17102:17105   */\n      dup10\n        /* \"#utility.yul\":17098:17117   */\n      add\n        /* \"#utility.yul\":17092:17118   */\n      mload\n        /* \"#utility.yul\":17150:17198   */\n      tag_356\n        /* \"#utility.yul\":17192:17196   */\n      0x1f\n        /* \"#utility.yul\":17184:17190   */\n      dup10\n        /* \"#utility.yul\":17180:17197   */\n      and\n        /* \"#utility.yul\":17169:17178   */\n      dup3\n        /* \"#utility.yul\":17150:17198   */\n      tag_176\n      jump\t// in\n    tag_356:\n        /* \"#utility.yul\":17142:17148   */\n      dup4\n        /* \"#utility.yul\":17135:17199   */\n      sstore\n        /* \"#utility.yul\":17057:17213   */\n      pop\n        /* \"#utility.yul\":17034:17213   */\n    tag_355:\n        /* \"#utility.yul\":17259:17260   */\n      0x01\n        /* \"#utility.yul\":17255:17256   */\n      0x02\n        /* \"#utility.yul\":17247:17253   */\n      dup9\n        /* \"#utility.yul\":17243:17257   */\n      mul\n        /* \"#utility.yul\":17239:17261   */\n      add\n        /* \"#utility.yul\":17233:17237   */\n      dup9\n        /* \"#utility.yul\":17226:17262   */\n      sstore\n        /* \"#utility.yul\":16661:17272   */\n      pop\n      pop\n      pop\n        /* \"#utility.yul\":16624:17511   */\n    tag_347:\n      pop\n        /* \"#utility.yul\":16214:17517   */\n      pop\n      pop\n      pop\n        /* \"#utility.yul\":16122:17517   */\n      pop\n      pop\n      jump\t// out\n        /* \"#utility.yul\":17523:17703   */\n    tag_178:\n        /* \"#utility.yul\":17571:17648   */\n      0x4e487b7100000000000000000000000000000000000000000000000000000000\n        /* \"#utility.yul\":17568:17569   */\n      0x00\n        /* \"#utility.yul\":17561:17649   */\n      mstore\n        /* \"#utility.yul\":17668:17672   */\n      0x11\n        /* \"#utility.yul\":17665:17666   */\n      0x04\n        /* \"#utility.yul\":17658:17673   */\n      mstore\n        /* \"#utility.yul\":17692:17696   */\n      0x24\n        /* \"#utility.yul\":17689:17690   */\n      0x00\n        /* \"#utility.yul\":17682:17697   */\n      revert\n        /* \"#utility.yul\":17709:17942   */\n    tag_80:\n        /* \"#utility.yul\":17748:17751   */\n      0x00\n        /* \"#utility.yul\":17771:17795   */\n      tag_359\n        /* \"#utility.yul\":17789:17794   */\n      dup3\n        /* \"#utility.yul\":17771:17795   */\n      tag_128\n      jump\t// in\n    tag_359:\n        /* \"#utility.yul\":17762:17795   */\n      swap2\n      pop\n        /* \"#utility.yul\":17817:17883   */\n      0xffffffffffffffffffffffffffffffffffffffffffffffffffffffffffffffff\n        /* \"#utility.yul\":17810:17815   */\n      dup3\n        /* \"#utility.yul\":17807:17884   */\n      sub\n        /* \"#utility.yul\":17804:17907   */\n      tag_360\n      jumpi\n        /* \"#utility.yul\":17887:17905   */\n      tag_361\n      tag_178\n      jump\t// in\n    tag_361:\n        /* \"#utility.yul\":17804:17907   */\n    tag_360:\n        /* \"#utility.yul\":17934:17935   */\n      0x01\n        /* \"#utility.yul\":17927:17932   */\n      dup3\n        /* \"#utility.yul\":17923:17936   */\n      add\n        /* \"#utility.yul\":17916:17936   */\n      swap1\n      pop\n        /* \"#utility.yul\":17709:17942   */\n      swap2\n      swap1\n      pop\n      jump\t// out\n        /* \"#utility.yul\":17948:18128   */\n    tag_99:\n        /* \"#utility.yul\":17996:18073   */\n      0x4e487b7100000000000000000000000000000000000000000000000000000000\n        /* \"#utility.yul\":17993:17994   */\n      0x00\n        /* \"#utility.yul\":17986:18074   */\n      mstore\n        /* \"#utility.yul\":18093:18097   */\n      0x32\n        /* \"#utility.yul\":18090:18091   */\n      0x04\n        /* \"#utility.yul\":18083:18098   */\n      mstore\n        /* \"#utility.yul\":18117:18121   */\n      0x24\n        /* \"#utility.yul\":18114:18115   */\n      0x00\n        /* \"#utility.yul\":18107:18122   */\n      revert\n        /* \"#utility.yul\":18134:18328   */\n    tag_108:\n        /* \"#utility.yul\":18174:18178   */\n      0x00\n        /* \"#utility.yul\":18194:18214   */\n      tag_364\n        /* \"#utility.yul\":18212:18213   */\n      dup3\n        /* \"#utility.yul\":18194:18214   */\n      tag_128\n      jump\t// in\n    tag_364:\n        /* \"#utility.yul\":18189:18214   */\n      swap2\n      pop\n        /* \"#utility.yul\":18228:18248   */\n      tag_365\n        /* \"#utility.yul\":18246:18247   */\n      dup4\n        /* \"#utility.yul\":18228:18248   */\n      tag_128\n      jump\t// in\n    tag_365:\n        /* \"#utility.yul\":18223:18248   */\n      swap3\n      pop\n        /* \"#utility.yul\":18272:18273   */\n      dup3\n        /* \"#utility.yul\":18269:18270   */\n      dup3\n        /* \"#utility.yul\":18265:18274   */\n      sub\n        /* \"#utility.yul\":18257:18274   */\n      swap1\n      pop\n        /* \"#utility.yul\":18296:18297   */\n      dup2\n        /* \"#utility.yul\":18290:18294   */\n      dup2\n        /* \"#utility.yul\":18287:18298   */\n      gt\n        /* \"#utility.yul\":18284:18321   */\n      iszero\n      tag_366\n      jumpi\n        /* \"#utility.yul\":18301:18319   */\n      tag_367\n      tag_178\n      jump\t// in\n    tag_367:\n        /* \"#utility.yul\":18284:18321   */\n    tag_366:\n        /* \"#utility.yul\":18134:18328   */\n      swap3\n      swap2\n      pop\n      pop\n      jump\t// out\n        /* \"#utility.yul\":18334:18483   */\n    tag_179:\n        /* \"#utility.yul\":18383:18389   */\n      0x00\n        /* \"#utility.yul\":18417:18422   */\n      dup2\n        /* \"#utility.yul\":18411:18423   */\n      sload\n        /* \"#utility.yul\":18401:18423   */\n      swap1\n      pop\n        /* \"#utility.yul\":18443:18476   */\n      tag_369\n        /* \"#utility.yul\":18469:18475   */\n      dup2\n        /* \"#utility.yul\":18443:18476   */\n      tag_64\n      jump\t// in\n    tag_369:\n        /* \"#utility.yul\":18433:18476   */\n      swap1\n      pop\n        /* \"#utility.yul\":18334:18483   */\n      swap2\n      swap1\n      pop\n      jump\t// out\n        /* \"#utility.yul\":18489:19940   */\n    tag_112:\n        /* \"#utility.yul\":18600:18603   */\n      dup2\n        /* \"#utility.yul\":18594:18598   */\n      dup2\n        /* \"#utility.yul\":18591:18604   */\n      sub\n        /* \"#utility.yul\":18588:18614   */\n      tag_371\n      jumpi\n        /* \"#utility.yul\":18607:18612   */\n      pop\n      pop\n      jump(tag_370)\n        /* \"#utility.yul\":18588:18614   */\n    tag_371:\n        /* \"#utility.yul\":18638:18672   */\n      tag_372\n        /* \"#utility.yul\":18668:18671   */\n      dup3\n        /* \"#utility.yul\":18638:18672   */\n      tag_179\n      jump\t// in\n    tag_372:\n        /* \"#utility.yul\":18737:18755   */\n      0xffffffffffffffff\n        /* \"#utility.yul\":18729:18735   */\n      dup2\n        /* \"#utility.yul\":18726:18756   */\n      gt\n        /* \"#utility.yul\":18723:18779   */\n      iszero\n      tag_373\n      jumpi\n        /* \"#utility.yul\":18759:18777   */\n      tag_374\n      tag_84\n      jump\t// in\n    tag_374:\n        /* \"#utility.yul\":18723:18779   */\n    tag_373:\n        /* \"#utility.yul\":18803:18841   */\n      tag_375\n        /* \"#utility.yul\":18835:18839   */\n      dup3\n        /* \"#utility.yul\":18829:18840   */\n      sload\n        /* \"#utility.yul\":18803:18841   */\n      tag_64\n      jump\t// in\n    tag_375:\n        /* \"#utility.yul\":18888:18955   */\n      tag_376\n        /* \"#utility.yul\":18948:18954   */\n      dup3\n        /* \"#utility.yul\":18940:18946   */\n      dup3\n        /* \"#utility.yul\":18934:18938   */\n      dup6\n        /* \"#utility.yul\":18888:18955   */\n      tag_174\n      jump\t// in\n    tag_376:\n        /* \"#utility.yul\":18982:18983   */\n      0x00\n        /* \"#utility.yul\":19011:19013   */\n      0x1f\n        /* \"#utility.yul\":19003:19009   */\n      dup4\n        /* \"#utility.yul\":19000:19014   */\n      gt\n        /* \"#utility.yul\":19028:19029   */\n      0x01\n        /* \"#utility.yul\":19023:19695   */\n      dup2\n      eq\n      tag_378\n      jumpi\n        /* \"#utility.yul\":19739:19740   */\n      0x00\n        /* \"#utility.yul\":19756:19762   */\n      dup5\n        /* \"#utility.yul\":19753:19830   */\n      iszero\n      tag_379\n      jumpi\n        /* \"#utility.yul\":19805:19814   */\n      dup3\n        /* \"#utility.yul\":19800:19803   */\n      dup8\n        /* \"#utility.yul\":19796:19815   */\n      add\n        /* \"#utility.yul\":19790:19816   */\n      sload\n        /* \"#utility.yul\":19781:19816   */\n      swap1\n      pop\n        /* \"#utility.yul\":19753:19830   */\n    tag_379:\n        /* \"#utility.yul\":19856:19923   */\n      tag_380\n        /* \"#utility.yul\":19916:19922   */\n      dup6\n        /* \"#utility.yul\":19909:19914   */\n      dup3\n        /* \"#utility.yul\":19856:19923   */\n      tag_177\n      jump\t// in\n    tag_380:\n        /* \"#utility.yul\":19850:19854   */\n      dup7\n        /* \"#utility.yul\":19843:19924   */\n      sstore\n        /* \"#utility.yul\":19712:19934   */\n      pop\n        /* \"#utility.yul\":18993:19934   */\n      jump(tag_377)\n        /* \"#utility.yul\":19023:19695   */\n    tag_378:\n        /* \"#utility.yul\":19075:19079   */\n      0x1f\n        /* \"#utility.yul\":19071:19080   */\n      not\n        /* \"#utility.yul\":19063:19069   */\n      dup5\n        /* \"#utility.yul\":19059:19081   */\n      and\n        /* \"#utility.yul\":19101:19137   */\n      tag_381\n        /* \"#utility.yul\":19133:19136   */\n      dup8\n        /* \"#utility.yul\":19101:19137   */\n      tag_163\n      jump\t// in\n    tag_381:\n        /* \"#utility.yul\":19094:19137   */\n      swap7\n      pop\n        /* \"#utility.yul\":19164:19201   */\n      tag_382\n        /* \"#utility.yul\":19196:19200   */\n      dup7\n        /* \"#utility.yul\":19164:19201   */\n      tag_163\n      jump\t// in\n    tag_382:\n        /* \"#utility.yul\":19223:19224   */\n      0x00\n        /* \"#utility.yul\":19237:19444   */\n    tag_383:\n        /* \"#utility.yul\":19251:19258   */\n      dup3\n        /* \"#utility.yul\":19248:19249   */\n      dup2\n        /* \"#utility.yul\":19245:19259   */\n      lt\n        /* \"#utility.yul\":19237:19444   */\n      iszero\n      tag_385\n      jumpi\n        /* \"#utility.yul\":19330:19339   */\n      dup5\n        /* \"#utility.yul\":19325:19328   */\n      dup10\n        /* \"#utility.yul\":19321:19340   */\n      add\n        /* \"#utility.yul\":19315:19341   */\n      sload\n        /* \"#utility.yul\":19307:19313   */\n      dup3\n        /* \"#utility.yul\":19300:19342   */\n      sstore\n        /* \"#utility.yul\":19381:19382   */\n      0x01\n        /* \"#utility.yul\":19373:19379   */\n      dup3\n        /* \"#utility.yul\":19369:19383   */\n      add\n        /* \"#utility.yul\":19359:19383   */\n      swap2\n      pop\n        /* \"#utility.yul\":19428:19429   */\n      0x01\n        /* \"#utility.yul\":19417:19426   */\n      dup6\n        /* \"#utility.yul\":19413:19430   */\n      add\n        /* \"#utility.yul\":19400:19430   */\n      swap5\n      pop\n        /* \"#utility.yul\":19274:19278   */\n      0x20\n        /* \"#utility.yul\":19271:19272   */\n      dup2\n        /* \"#utility.yul\":19267:19279   */\n      add\n        /* \"#utility.yul\":19262:19279   */\n      swap1\n      pop\n        /* \"#utility.yul\":19237:19444   */\n      jump(tag_383)\n    tag_385:\n        /* \"#utility.yul\":19472:19478   */\n      dup7\n        /* \"#utility.yul\":19463:19470   */\n      dup4\n        /* \"#utility.yul\":19460:19479   */\n      lt\n        /* \"#utility.yul\":19457:19636   */\n      iszero\n      tag_386\n      jumpi\n        /* \"#utility.yul\":19530:19539   */\n      dup5\n        /* \"#utility.yul\":19525:19528   */\n      dup10\n        /* \"#utility.yul\":19521:19540   */\n      add\n        /* \"#utility.yul\":19515:19541   */\n      sload\n        /* \"#utility.yul\":19573:19621   */\n      tag_387\n        /* \"#utility.yul\":19615:19619   */\n      0x1f\n        /* \"#utility.yul\":19607:19613   */\n      dup10\n        /* \"#utility.yul\":19603:19620   */\n      and\n        /* \"#utility.yul\":19592:19601   */\n      dup3\n        /* \"#utility.yul\":19573:19621   */\n      tag_176\n      jump\t// in\n    tag_387:\n        /* \"#utility.yul\":19565:19571   */\n      dup4\n        /* \"#utility.yul\":19558:19622   */\n      sstore\n        /* \"#utility.yul\":19480:19636   */\n      pop\n        /* \"#utility.yul\":19457:19636   */\n    tag_386:\n        /* \"#utility.yul\":19682:19683   */\n      0x01\n        /* \"#utility.yul\":19678:19679   */\n      0x02\n        /* \"#utility.yul\":19670:19676   */\n      dup9\n        /* \"#utility.yul\":19666:19680   */\n      mul\n        /* \"#utility.yul\":19662:19684   */\n      add\n        /* \"#utility.yul\":19656:19660   */\n      dup9\n        /* \"#utility.yul\":19649:19685   */\n      sstore\n        /* \"#utility.yul\":19030:19695   */\n      pop\n      pop\n      pop\n        /* \"#utility.yul\":18993:19934   */\n    tag_377:\n      pop\n        /* \"#utility.yul\":18578:19940   */\n      pop\n      pop\n      pop\n        /* \"#utility.yul\":18489:19940   */\n      pop\n      pop\n    tag_370:\n      jump\t// out\n        /* \"#utility.yul\":19946:20117   */\n    tag_117:\n        /* \"#utility.yul\":19985:19988   */\n      0x00\n        /* \"#utility.yul\":20008:20032   */\n      tag_389\n        /* \"#utility.yul\":20026:20031   */\n      dup3\n        /* \"#utility.yul\":20008:20032   */\n      tag_128\n      jump\t// in\n    tag_389:\n        /* \"#utility.yul\":19999:20032   */\n      swap2\n      pop\n        /* \"#utility.yul\":20054:20058   */\n      0x00\n        /* \"#utility.yul\":20047:20052   */\n      dup3\n        /* \"#utility.yul\":20044:20059   */\n      sub\n        /* \"#utility.yul\":20041:20082   */\n      tag_390\n      jumpi\n        /* \"#utility.yul\":20062:20080   */\n      tag_391\n      tag_178\n      jump\t// in\n    tag_391:\n        /* \"#utility.yul\":20041:20082   */\n    tag_390:\n        /* \"#utility.yul\":20109:20110   */\n      0x01\n        /* \"#utility.yul\":20102:20107   */\n      dup3\n        /* \"#utility.yul\":20098:20111   */\n      sub\n        /* \"#utility.yul\":20091:20111   */\n      swap1\n      pop\n        /* \"#utility.yul\":19946:20117   */\n      swap2\n      swap1\n      pop\n      jump\t// out\n\n    auxdata: 0xa2646970667358221220624f327d9eb5a7686f9214070de33e5f35385976d684ddb8bc8dba281c7a88b464736f6c63430008120033\n}\n",
				"bytecode": {
					"linkReferences": {},
					"object": "608060405234801561001057600080fd5b50336000806101000a81548173ffffffffffffffffffffffffffffffffffffffff021916908373ffffffffffffffffffffffffffffffffffffffff160217905550611478806100606000396000f3fe608060405234801561001057600080fd5b50600436106100935760003560e01c8063a2a0e4c311610066578063a2a0e4c314610121578063afeae1e414610152578063dd61ed931461016e578063f2fb11bf1461018c578063f8277033146101aa57610093565b8063378eea82146100985780635119cb20146100b45780638da5cb5b146100d257806396e583a9146100f0575b600080fd5b6100b260048036038101906100ad9190610ad1565b6101c6565b005b6100bc6102e8565b6040516100c99190610b4f565b60405180910390f35b6100da6102f2565b6040516100e79190610bab565b60405180910390f35b61010a60048036038101906101059190610bc6565b610316565b604051610118929190610c72565b60405180910390f35b61013b60048036038101906101369190610bc6565b610430565b604051610149929190610c72565b60405180910390f35b61016c60048036038101906101679190610ca2565b6104dc565b005b6101766105d2565b6040516101839190610e43565b60405180910390f35b61019461072e565b6040516101a19190610b4f565b60405180910390f35b6101c460048036038101906101bf9190610bc6565b610734565b005b60008054906101000a900473ffffffffffffffffffffffffffffffffffffffff1673ffffffffffffffffffffffffffffffffffffffff163373ffffffffffffffffffffffffffffffffffffffff1614610254576040517f08c379a000000000000000000000000000000000000000000000000000000000815260040161024b90610ed7565b60405180910390fd5b6002548310610298576040517f08c379a000000000000000000000000000000000000000000000000000000000815260040161028f90610f43565b60405180910390fd5b604051806040016040528083815260200182815250600160008581526020019081526020016000206000820151816000015560208201518160010190816102df919061116f565b50905050505050565b6000600254905090565b60008054906101000a900473ffffffffffffffffffffffffffffffffffffffff1681565b60006060600254831061035e576040517f08c379a000000000000000000000000000000000000000000000000000000000815260040161035590610f43565b60405180910390fd5b6000600160008581526020019081526020016000206040518060400160405290816000820154815260200160018201805461039890610f92565b80601f01602080910402602001604051908101604052809291908181526020018280546103c490610f92565b80156104115780601f106103e657610100808354040283529160200191610411565b820191906000526020600020905b8154815290600101906020018083116103f457829003601f168201915b5050505050815250509050806000015181602001519250925050915091565b600160205280600052604060002060009150905080600001549080600101805461045990610f92565b80601f016020809104026020016040519081016040528092919081815260200182805461048590610f92565b80156104d25780601f106104a7576101008083540402835291602001916104d2565b820191906000526020600020905b8154815290600101906020018083116104b557829003601f168201915b5050505050905082565b60008054906101000a900473ffffffffffffffffffffffffffffffffffffffff1673ffffffffffffffffffffffffffffffffffffffff163373ffffffffffffffffffffffffffffffffffffffff161461056a576040517f08c379a000000000000000000000000000000000000000000000000000000000815260040161056190610ed7565b60405180910390fd5b6040518060400160405280428152602001828152506001600060025481526020019081526020016000206000820151816000015560208201518160010190816105b3919061116f565b50905050600260008154809291906105ca90611270565b919050555050565b6060600060025467ffffffffffffffff8111156105f2576105f16109a6565b5b60405190808252806020026020018201604052801561062b57816020015b6106186108ca565b8152602001906001900390816106105790505b50905060005b60025481101561072657600160008281526020019081526020016000206040518060400160405290816000820154815260200160018201805461067390610f92565b80601f016020809104026020016040519081016040528092919081815260200182805461069f90610f92565b80156106ec5780601f106106c1576101008083540402835291602001916106ec565b820191906000526020600020905b8154815290600101906020018083116106cf57829003601f168201915b505050505081525050828281518110610708576107076112b8565b5b6020026020010181905250808061071e90611270565b915050610631565b508091505090565b60025481565b60008054906101000a900473ffffffffffffffffffffffffffffffffffffffff1673ffffffffffffffffffffffffffffffffffffffff163373ffffffffffffffffffffffffffffffffffffffff16146107c2576040517f08c379a00000000000000000000000000000000000000000000000000000000081526004016107b990610ed7565b60405180910390fd5b6002548110610806576040517f08c379a00000000000000000000000000000000000000000000000000000000081526004016107fd90610f43565b60405180910390fd5b600160025461081591906112e7565b8110156108735760016000600160025461082f91906112e7565b815260200190815260200160002060016000838152602001908152602001600020600082015481600001556001820181600101908161086e9190611331565b509050505b60016000600160025461088691906112e7565b81526020019081526020016000206000808201600090556001820160006108ad91906108e4565b5050600260008154809291906108c290611419565b919050555050565b604051806040016040528060008152602001606081525090565b5080546108f090610f92565b6000825580601f106109025750610921565b601f0160209004906000526020600020908101906109209190610924565b5b50565b5b8082111561093d576000816000905550600101610925565b5090565b6000604051905090565b600080fd5b600080fd5b6000819050919050565b61096881610955565b811461097357600080fd5b50565b6000813590506109858161095f565b92915050565b600080fd5b600080fd5b6000601f19601f8301169050919050565b7f4e487b7100000000000000000000000000000000000000000000000000000000600052604160045260246000fd5b6109de82610995565b810181811067ffffffffffffffff821117156109fd576109fc6109a6565b5b80604052505050565b6000610a10610941565b9050610a1c82826109d5565b919050565b600067ffffffffffffffff821115610a3c57610a3b6109a6565b5b610a4582610995565b9050602081019050919050565b82818337600083830152505050565b6000610a74610a6f84610a21565b610a06565b905082815260208101848484011115610a9057610a8f610990565b5b610a9b848285610a52565b509392505050565b600082601f830112610ab857610ab761098b565b5b8135610ac8848260208601610a61565b91505092915050565b600080600060608486031215610aea57610ae961094b565b5b6000610af886828701610976565b9350506020610b0986828701610976565b925050604084013567ffffffffffffffff811115610b2a57610b29610950565b5b610b3686828701610aa3565b9150509250925092565b610b4981610955565b82525050565b6000602082019050610b646000830184610b40565b92915050565b600073ffffffffffffffffffffffffffffffffffffffff82169050919050565b6000610b9582610b6a565b9050919050565b610ba581610b8a565b82525050565b6000602082019050610bc06000830184610b9c565b92915050565b600060208284031215610bdc57610bdb61094b565b5b6000610bea84828501610976565b91505092915050565b600081519050919050565b600082825260208201905092915050565b60005b83811015610c2d578082015181840152602081019050610c12565b60008484015250505050565b6000610c4482610bf3565b610c4e8185610bfe565b9350610c5e818560208601610c0f565b610c6781610995565b840191505092915050565b6000604082019050610c876000830185610b40565b8181036020830152610c998184610c39565b90509392505050565b600060208284031215610cb857610cb761094b565b5b600082013567ffffffffffffffff811115610cd657610cd5610950565b5b610ce284828501610aa3565b91505092915050565b600081519050919050565b600082825260208201905092915050565b6000819050602082019050919050565b610d2081610955565b82525050565b600082825260208201905092915050565b6000610d4282610bf3565b610d4c8185610d26565b9350610d5c818560208601610c0f565b610d6581610995565b840191505092915050565b6000604083016000830151610d886000860182610d17565b5060208301518482036020860152610da08282610d37565b9150508091505092915050565b6000610db98383610d70565b905092915050565b6000602082019050919050565b6000610dd982610ceb565b610de38185610cf6565b935083602082028501610df585610d07565b8060005b85811015610e315784840389528151610e128582610dad565b9450610e1d83610dc1565b925060208a01995050600181019050610df9565b50829750879550505050505092915050565b60006020820190508181036000830152610e5d8184610dce565b905092915050565b7f4f6e6c792074686520636f6e7472616374206f776e65722063616e207065726660008201527f6f726d207468697320616374696f6e0000000000000000000000000000000000602082015250565b6000610ec1602f83610bfe565b9150610ecc82610e65565b604082019050919050565b60006020820190508181036000830152610ef081610eb4565b9050919050565b7f496e76616c696420696e64657800000000000000000000000000000000000000600082015250565b6000610f2d600d83610bfe565b9150610f3882610ef7565b602082019050919050565b60006020820190508181036000830152610f5c81610f20565b9050919050565b7f4e487b7100000000000000000000000000000000000000000000000000000000600052602260045260246000fd5b60006002820490506001821680610faa57607f821691505b602082108103610fbd57610fbc610f63565b5b50919050565b60008190508160005260206000209050919050565b60006020601f8301049050919050565b600082821b905092915050565b6000600883026110257fffffffffffffffffffffffffffffffffffffffffffffffffffffffffffffffff82610fe8565b61102f8683610fe8565b95508019841693508086168417925050509392505050565b6000819050919050565b600061106c61106761106284610955565b611047565b610955565b9050919050565b6000819050919050565b61108683611051565b61109a61109282611073565b848454610ff5565b825550505050565b600090565b6110af6110a2565b6110ba81848461107d565b505050565b5b818110156110de576110d36000826110a7565b6001810190506110c0565b5050565b601f821115611123576110f481610fc3565b6110fd84610fd8565b8101602085101561110c578190505b61112061111885610fd8565b8301826110bf565b50505b505050565b600082821c905092915050565b600061114660001984600802611128565b1980831691505092915050565b600061115f8383611135565b9150826002028217905092915050565b61117882610bf3565b67ffffffffffffffff811115611191576111906109a6565b5b61119b8254610f92565b6111a68282856110e2565b600060209050601f8311600181146111d957600084156111c7578287015190505b6111d18582611153565b865550611239565b601f1984166111e786610fc3565b60005b8281101561120f578489015182556001820191506020850194506020810190506111ea565b8683101561122c5784890151611228601f891682611135565b8355505b6001600288020188555050505b505050505050565b7f4e487b7100000000000000000000000000000000000000000000000000000000600052601160045260246000fd5b600061127b82610955565b91507fffffffffffffffffffffffffffffffffffffffffffffffffffffffffffffffff82036112ad576112ac611241565b5b600182019050919050565b7f4e487b7100000000000000000000000000000000000000000000000000000000600052603260045260246000fd5b60006112f282610955565b91506112fd83610955565b925082820390508181111561131557611314611241565b5b92915050565b60008154905061132a81610f92565b9050919050565b81810361133f575050611417565b6113488261131b565b67ffffffffffffffff811115611361576113606109a6565b5b61136b8254610f92565b6113768282856110e2565b6000601f8311600181146113a55760008415611393578287015490505b61139d8582611153565b865550611410565b601f1984166113b387610fc3565b96506113be86610fc3565b60005b828110156113e6578489015482556001820191506001850194506020810190506113c1565b8683101561140357848901546113ff601f891682611135565b8355505b6001600288020188555050505b5050505050505b565b600061142482610955565b91506000820361143757611436611241565b5b60018203905091905056fea2646970667358221220624f327d9eb5a7686f9214070de33e5f35385976d684ddb8bc8dba281c7a88b464736f6c63430008120033",
					"opcodes": "PUSH1 0x80 PUSH1 0x40 MSTORE CALLVALUE DUP1 ISZERO PUSH2 0x10 JUMPI PUSH1 0x0 DUP1 REVERT JUMPDEST POP CALLER PUSH1 0x0 DUP1 PUSH2 0x100 EXP DUP2 SLOAD DUP2 PUSH20 0xFFFFFFFFFFFFFFFFFFFFFFFFFFFFFFFFFFFFFFFF MUL NOT AND SWAP1 DUP4 PUSH20 0xFFFFFFFFFFFFFFFFFFFFFFFFFFFFFFFFFFFFFFFF AND MUL OR SWAP1 SSTORE POP PUSH2 0x1478 DUP1 PUSH2 0x60 PUSH1 0x0 CODECOPY PUSH1 0x0 RETURN INVALID PUSH1 0x80 PUSH1 0x40 MSTORE CALLVALUE DUP1 ISZERO PUSH2 0x10 JUMPI PUSH1 0x0 DUP1 REVERT JUMPDEST POP PUSH1 0x4 CALLDATASIZE LT PUSH2 0x93 JUMPI PUSH1 0x0 CALLDATALOAD PUSH1 0xE0 SHR DUP1 PUSH4 0xA2A0E4C3 GT PUSH2 0x66 JUMPI DUP1 PUSH4 0xA2A0E4C3 EQ PUSH2 0x121 JUMPI DUP1 PUSH4 0xAFEAE1E4 EQ PUSH2 0x152 JUMPI DUP1 PUSH4 0xDD61ED93 EQ PUSH2 0x16E JUMPI DUP1 PUSH4 0xF2FB11BF EQ PUSH2 0x18C JUMPI DUP1 PUSH4 0xF8277033 EQ PUSH2 0x1AA JUMPI PUSH2 0x93 JUMP JUMPDEST DUP1 PUSH4 0x378EEA82 EQ PUSH2 0x98 JUMPI DUP1 PUSH4 0x5119CB20 EQ PUSH2 0xB4 JUMPI DUP1 PUSH4 0x8DA5CB5B EQ PUSH2 0xD2 JUMPI DUP1 PUSH4 0x96E583A9 EQ PUSH2 0xF0 JUMPI JUMPDEST PUSH1 0x0 DUP1 REVERT JUMPDEST PUSH2 0xB2 PUSH1 0x4 DUP1 CALLDATASIZE SUB DUP2 ADD SWAP1 PUSH2 0xAD SWAP2 SWAP1 PUSH2 0xAD1 JUMP JUMPDEST PUSH2 0x1C6 JUMP JUMPDEST STOP JUMPDEST PUSH2 0xBC PUSH2 0x2E8 JUMP JUMPDEST PUSH1 0x40 MLOAD PUSH2 0xC9 SWAP2 SWAP1 PUSH2 0xB4F JUMP JUMPDEST PUSH1 0x40 MLOAD DUP1 SWAP2 SUB SWAP1 RETURN JUMPDEST PUSH2 0xDA PUSH2 0x2F2 JUMP JUMPDEST PUSH1 0x40 MLOAD PUSH2 0xE7 SWAP2 SWAP1 PUSH2 0xBAB JUMP JUMPDEST PUSH1 0x40 MLOAD DUP1 SWAP2 SUB SWAP1 RETURN JUMPDEST PUSH2 0x10A PUSH1 0x4 DUP1 CALLDATASIZE SUB DUP2 ADD SWAP1 PUSH2 0x105 SWAP2 SWAP1 PUSH2 0xBC6 JUMP JUMPDEST PUSH2 0x316 JUMP JUMPDEST PUSH1 0x40 MLOAD PUSH2 0x118 SWAP3 SWAP2 SWAP1 PUSH2 0xC72 JUMP JUMPDEST PUSH1 0x40 MLOAD DUP1 SWAP2 SUB SWAP1 RETURN JUMPDEST PUSH2 0x13B PUSH1 0x4 DUP1 CALLDATASIZE SUB DUP2 ADD SWAP1 PUSH2 0x136 SWAP2 SWAP1 PUSH2 0xBC6 JUMP JUMPDEST PUSH2 0x430 JUMP JUMPDEST PUSH1 0x40 MLOAD PUSH2 0x149 SWAP3 SWAP2 SWAP1 PUSH2 0xC72 JUMP JUMPDEST PUSH1 0x40 MLOAD DUP1 SWAP2 SUB SWAP1 RETURN JUMPDEST PUSH2 0x16C PUSH1 0x4 DUP1 CALLDATASIZE SUB DUP2 ADD SWAP1 PUSH2 0x167 SWAP2 SWAP1 PUSH2 0xCA2 JUMP JUMPDEST PUSH2 0x4DC JUMP JUMPDEST STOP JUMPDEST PUSH2 0x176 PUSH2 0x5D2 JUMP JUMPDEST PUSH1 0x40 MLOAD PUSH2 0x183 SWAP2 SWAP1 PUSH2 0xE43 JUMP JUMPDEST PUSH1 0x40 MLOAD DUP1 SWAP2 SUB SWAP1 RETURN JUMPDEST PUSH2 0x194 PUSH2 0x72E JUMP JUMPDEST PUSH1 0x40 MLOAD PUSH2 0x1A1 SWAP2 SWAP1 PUSH2 0xB4F JUMP JUMPDEST PUSH1 0x40 MLOAD DUP1 SWAP2 SUB SWAP1 RETURN JUMPDEST PUSH2 0x1C4 PUSH1 0x4 DUP1 CALLDATASIZE SUB DUP2 ADD SWAP1 PUSH2 0x1BF SWAP2 SWAP1 PUSH2 0xBC6 JUMP JUMPDEST PUSH2 0x734 JUMP JUMPDEST STOP JUMPDEST PUSH1 0x0 DUP1 SLOAD SWAP1 PUSH2 0x100 EXP SWAP1 DIV PUSH20 0xFFFFFFFFFFFFFFFFFFFFFFFFFFFFFFFFFFFFFFFF AND PUSH20 0xFFFFFFFFFFFFFFFFFFFFFFFFFFFFFFFFFFFFFFFF AND CALLER PUSH20 0xFFFFFFFFFFFFFFFFFFFFFFFFFFFFFFFFFFFFFFFF AND EQ PUSH2 0x254 JUMPI PUSH1 0x40 MLOAD PUSH32 0x8C379A000000000000000000000000000000000000000000000000000000000 DUP2 MSTORE PUSH1 0x4 ADD PUSH2 0x24B SWAP1 PUSH2 0xED7 JUMP JUMPDEST PUSH1 0x40 MLOAD DUP1 SWAP2 SUB SWAP1 REVERT JUMPDEST PUSH1 0x2 SLOAD DUP4 LT PUSH2 0x298 JUMPI PUSH1 0x40 MLOAD PUSH32 0x8C379A000000000000000000000000000000000000000000000000000000000 DUP2 MSTORE PUSH1 0x4 ADD PUSH2 0x28F SWAP1 PUSH2 0xF43 JUMP JUMPDEST PUSH1 0x40 MLOAD DUP1 SWAP2 SUB SWAP1 REVERT JUMPDEST PUSH1 0x40 MLOAD DUP1 PUSH1 0x40 ADD PUSH1 0x40 MSTORE DUP1 DUP4 DUP2 MSTORE PUSH1 0x20 ADD DUP3 DUP2 MSTORE POP PUSH1 0x1 PUSH1 0x0 DUP6 DUP2 MSTORE PUSH1 0x20 ADD SWAP1 DUP2 MSTORE PUSH1 0x20 ADD PUSH1 0x0 KECCAK256 PUSH1 0x0 DUP3 ADD MLOAD DUP2 PUSH1 0x0 ADD SSTORE PUSH1 0x20 DUP3 ADD MLOAD DUP2 PUSH1 0x1 ADD SWAP1 DUP2 PUSH2 0x2DF SWAP2 SWAP1 PUSH2 0x116F JUMP JUMPDEST POP SWAP1 POP POP POP POP POP JUMP JUMPDEST PUSH1 0x0 PUSH1 0x2 SLOAD SWAP1 POP SWAP1 JUMP JUMPDEST PUSH1 0x0 DUP1 SLOAD SWAP1 PUSH2 0x100 EXP SWAP1 DIV PUSH20 0xFFFFFFFFFFFFFFFFFFFFFFFFFFFFFFFFFFFFFFFF AND DUP2 JUMP JUMPDEST PUSH1 0x0 PUSH1 0x60 PUSH1 0x2 SLOAD DUP4 LT PUSH2 0x35E JUMPI PUSH1 0x40 MLOAD PUSH32 0x8C379A000000000000000000000000000000000000000000000000000000000 DUP2 MSTORE PUSH1 0x4 ADD PUSH2 0x355 SWAP1 PUSH2 0xF43 JUMP JUMPDEST PUSH1 0x40 MLOAD DUP1 SWAP2 SUB SWAP1 REVERT JUMPDEST PUSH1 0x0 PUSH1 0x1 PUSH1 0x0 DUP6 DUP2 MSTORE PUSH1 0x20 ADD SWAP1 DUP2 MSTORE PUSH1 0x20 ADD PUSH1 0x0 KECCAK256 PUSH1 0x40 MLOAD DUP1 PUSH1 0x40 ADD PUSH1 0x40 MSTORE SWAP1 DUP2 PUSH1 0x0 DUP3 ADD SLOAD DUP2 MSTORE PUSH1 0x20 ADD PUSH1 0x1 DUP3 ADD DUP1 SLOAD PUSH2 0x398 SWAP1 PUSH2 0xF92 JUMP JUMPDEST DUP1 PUSH1 0x1F ADD PUSH1 0x20 DUP1 SWAP2 DIV MUL PUSH1 0x20 ADD PUSH1 0x40 MLOAD SWAP1 DUP2 ADD PUSH1 0x40 MSTORE DUP1 SWAP3 SWAP2 SWAP1 DUP2 DUP2 MSTORE PUSH1 0x20 ADD DUP3 DUP1 SLOAD PUSH2 0x3C4 SWAP1 PUSH2 0xF92 JUMP JUMPDEST DUP1 ISZERO PUSH2 0x411 JUMPI DUP1 PUSH1 0x1F LT PUSH2 0x3E6 JUMPI PUSH2 0x100 DUP1 DUP4 SLOAD DIV MUL DUP4 MSTORE SWAP2 PUSH1 0x20 ADD SWAP2 PUSH2 0x411 JUMP JUMPDEST DUP3 ADD SWAP2 SWAP1 PUSH1 0x0 MSTORE PUSH1 0x20 PUSH1 0x0 KECCAK256 SWAP1 JUMPDEST DUP2 SLOAD DUP2 MSTORE SWAP1 PUSH1 0x1 ADD SWAP1 PUSH1 0x20 ADD DUP1 DUP4 GT PUSH2 0x3F4 JUMPI DUP3 SWAP1 SUB PUSH1 0x1F AND DUP3 ADD SWAP2 JUMPDEST POP POP POP POP POP DUP2 MSTORE POP POP SWAP1 POP DUP1 PUSH1 0x0 ADD MLOAD DUP2 PUSH1 0x20 ADD MLOAD SWAP3 POP SWAP3 POP POP SWAP2 POP SWAP2 JUMP JUMPDEST PUSH1 0x1 PUSH1 0x20 MSTORE DUP1 PUSH1 0x0 MSTORE PUSH1 0x40 PUSH1 0x0 KECCAK256 PUSH1 0x0 SWAP2 POP SWAP1 POP DUP1 PUSH1 0x0 ADD SLOAD SWAP1 DUP1 PUSH1 0x1 ADD DUP1 SLOAD PUSH2 0x459 SWAP1 PUSH2 0xF92 JUMP JUMPDEST DUP1 PUSH1 0x1F ADD PUSH1 0x20 DUP1 SWAP2 DIV MUL PUSH1 0x20 ADD PUSH1 0x40 MLOAD SWAP1 DUP2 ADD PUSH1 0x40 MSTORE DUP1 SWAP3 SWAP2 SWAP1 DUP2 DUP2 MSTORE PUSH1 0x20 ADD DUP3 DUP1 SLOAD PUSH2 0x485 SWAP1 PUSH2 0xF92 JUMP JUMPDEST DUP1 ISZERO PUSH2 0x4D2 JUMPI DUP1 PUSH1 0x1F LT PUSH2 0x4A7 JUMPI PUSH2 0x100 DUP1 DUP4 SLOAD DIV MUL DUP4 MSTORE SWAP2 PUSH1 0x20 ADD SWAP2 PUSH2 0x4D2 JUMP JUMPDEST DUP3 ADD SWAP2 SWAP1 PUSH1 0x0 MSTORE PUSH1 0x20 PUSH1 0x0 KECCAK256 SWAP1 JUMPDEST DUP2 SLOAD DUP2 MSTORE SWAP1 PUSH1 0x1 ADD SWAP1 PUSH1 0x20 ADD DUP1 DUP4 GT PUSH2 0x4B5 JUMPI DUP3 SWAP1 SUB PUSH1 0x1F AND DUP3 ADD SWAP2 JUMPDEST POP POP POP POP POP SWAP1 POP DUP3 JUMP JUMPDEST PUSH1 0x0 DUP1 SLOAD SWAP1 PUSH2 0x100 EXP SWAP1 DIV PUSH20 0xFFFFFFFFFFFFFFFFFFFFFFFFFFFFFFFFFFFFFFFF AND PUSH20 0xFFFFFFFFFFFFFFFFFFFFFFFFFFFFFFFFFFFFFFFF AND CALLER PUSH20 0xFFFFFFFFFFFFFFFFFFFFFFFFFFFFFFFFFFFFFFFF AND EQ PUSH2 0x56A JUMPI PUSH1 0x40 MLOAD PUSH32 0x8C379A000000000000000000000000000000000000000000000000000000000 DUP2 MSTORE PUSH1 0x4 ADD PUSH2 0x561 SWAP1 PUSH2 0xED7 JUMP JUMPDEST PUSH1 0x40 MLOAD DUP1 SWAP2 SUB SWAP1 REVERT JUMPDEST PUSH1 0x40 MLOAD DUP1 PUSH1 0x40 ADD PUSH1 0x40 MSTORE DUP1 TIMESTAMP DUP2 MSTORE PUSH1 0x20 ADD DUP3 DUP2 MSTORE POP PUSH1 0x1 PUSH1 0x0 PUSH1 0x2 SLOAD DUP2 MSTORE PUSH1 0x20 ADD SWAP1 DUP2 MSTORE PUSH1 0x20 ADD PUSH1 0x0 KECCAK256 PUSH1 0x0 DUP3 ADD MLOAD DUP2 PUSH1 0x0 ADD SSTORE PUSH1 0x20 DUP3 ADD MLOAD DUP2 PUSH1 0x1 ADD SWAP1 DUP2 PUSH2 0x5B3 SWAP2 SWAP1 PUSH2 0x116F JUMP JUMPDEST POP SWAP1 POP POP PUSH1 0x2 PUSH1 0x0 DUP2 SLOAD DUP1 SWAP3 SWAP2 SWAP1 PUSH2 0x5CA SWAP1 PUSH2 0x1270 JUMP JUMPDEST SWAP2 SWAP1 POP SSTORE POP POP JUMP JUMPDEST PUSH1 0x60 PUSH1 0x0 PUSH1 0x2 SLOAD PUSH8 0xFFFFFFFFFFFFFFFF DUP2 GT ISZERO PUSH2 0x5F2 JUMPI PUSH2 0x5F1 PUSH2 0x9A6 JUMP JUMPDEST JUMPDEST PUSH1 0x40 MLOAD SWAP1 DUP1 DUP3 MSTORE DUP1 PUSH1 0x20 MUL PUSH1 0x20 ADD DUP3 ADD PUSH1 0x40 MSTORE DUP1 ISZERO PUSH2 0x62B JUMPI DUP2 PUSH1 0x20 ADD JUMPDEST PUSH2 0x618 PUSH2 0x8CA JUMP JUMPDEST DUP2 MSTORE PUSH1 0x20 ADD SWAP1 PUSH1 0x1 SWAP1 SUB SWAP1 DUP2 PUSH2 0x610 JUMPI SWAP1 POP JUMPDEST POP SWAP1 POP PUSH1 0x0 JUMPDEST PUSH1 0x2 SLOAD DUP2 LT ISZERO PUSH2 0x726 JUMPI PUSH1 0x1 PUSH1 0x0 DUP3 DUP2 MSTORE PUSH1 0x20 ADD SWAP1 DUP2 MSTORE PUSH1 0x20 ADD PUSH1 0x0 KECCAK256 PUSH1 0x40 MLOAD DUP1 PUSH1 0x40 ADD PUSH1 0x40 MSTORE SWAP1 DUP2 PUSH1 0x0 DUP3 ADD SLOAD DUP2 MSTORE PUSH1 0x20 ADD PUSH1 0x1 DUP3 ADD DUP1 SLOAD PUSH2 0x673 SWAP1 PUSH2 0xF92 JUMP JUMPDEST DUP1 PUSH1 0x1F ADD PUSH1 0x20 DUP1 SWAP2 DIV MUL PUSH1 0x20 ADD PUSH1 0x40 MLOAD SWAP1 DUP2 ADD PUSH1 0x40 MSTORE DUP1 SWAP3 SWAP2 SWAP1 DUP2 DUP2 MSTORE PUSH1 0x20 ADD DUP3 DUP1 SLOAD PUSH2 0x69F SWAP1 PUSH2 0xF92 JUMP JUMPDEST DUP1 ISZERO PUSH2 0x6EC JUMPI DUP1 PUSH1 0x1F LT PUSH2 0x6C1 JUMPI PUSH2 0x100 DUP1 DUP4 SLOAD DIV MUL DUP4 MSTORE SWAP2 PUSH1 0x20 ADD SWAP2 PUSH2 0x6EC JUMP JUMPDEST DUP3 ADD SWAP2 SWAP1 PUSH1 0x0 MSTORE PUSH1 0x20 PUSH1 0x0 KECCAK256 SWAP1 JUMPDEST DUP2 SLOAD DUP2 MSTORE SWAP1 PUSH1 0x1 ADD SWAP1 PUSH1 0x20 ADD DUP1 DUP4 GT PUSH2 0x6CF JUMPI DUP3 SWAP1 SUB PUSH1 0x1F AND DUP3 ADD SWAP2 JUMPDEST POP POP POP POP POP DUP2 MSTORE POP POP DUP3 DUP3 DUP2 MLOAD DUP2 LT PUSH2 0x708 JUMPI PUSH2 0x707 PUSH2 0x12B8 JUMP JUMPDEST JUMPDEST PUSH1 0x20 MUL PUSH1 0x20 ADD ADD DUP2 SWAP1 MSTORE POP DUP1 DUP1 PUSH2 0x71E SWAP1 PUSH2 0x1270 JUMP JUMPDEST SWAP2 POP POP PUSH2 0x631 JUMP JUMPDEST POP DUP1 SWAP2 POP POP SWAP1 JUMP JUMPDEST PUSH1 0x2 SLOAD DUP2 JUMP JUMPDEST PUSH1 0x0 DUP1 SLOAD SWAP1 PUSH2 0x100 EXP SWAP1 DIV PUSH20 0xFFFFFFFFFFFFFFFFFFFFFFFFFFFFFFFFFFFFFFFF AND PUSH20 0xFFFFFFFFFFFFFFFFFFFFFFFFFFFFFFFFFFFFFFFF AND CALLER PUSH20 0xFFFFFFFFFFFFFFFFFFFFFFFFFFFFFFFFFFFFFFFF AND EQ PUSH2 0x7C2 JUMPI PUSH1 0x40 MLOAD PUSH32 0x8C379A000000000000000000000000000000000000000000000000000000000 DUP2 MSTORE PUSH1 0x4 ADD PUSH2 0x7B9 SWAP1 PUSH2 0xED7 JUMP JUMPDEST PUSH1 0x40 MLOAD DUP1 SWAP2 SUB SWAP1 REVERT JUMPDEST PUSH1 0x2 SLOAD DUP2 LT PUSH2 0x806 JUMPI PUSH1 0x40 MLOAD PUSH32 0x8C379A000000000000000000000000000000000000000000000000000000000 DUP2 MSTORE PUSH1 0x4 ADD PUSH2 0x7FD SWAP1 PUSH2 0xF43 JUMP JUMPDEST PUSH1 0x40 MLOAD DUP1 SWAP2 SUB SWAP1 REVERT JUMPDEST PUSH1 0x1 PUSH1 0x2 SLOAD PUSH2 0x815 SWAP2 SWAP1 PUSH2 0x12E7 JUMP JUMPDEST DUP2 LT ISZERO PUSH2 0x873 JUMPI PUSH1 0x1 PUSH1 0x0 PUSH1 0x1 PUSH1 0x2 SLOAD PUSH2 0x82F SWAP2 SWAP1 PUSH2 0x12E7 JUMP JUMPDEST DUP2 MSTORE PUSH1 0x20 ADD SWAP1 DUP2 MSTORE PUSH1 0x20 ADD PUSH1 0x0 KECCAK256 PUSH1 0x1 PUSH1 0x0 DUP4 DUP2 MSTORE PUSH1 0x20 ADD SWAP1 DUP2 MSTORE PUSH1 0x20 ADD PUSH1 0x0 KECCAK256 PUSH1 0x0 DUP3 ADD SLOAD DUP2 PUSH1 0x0 ADD SSTORE PUSH1 0x1 DUP3 ADD DUP2 PUSH1 0x1 ADD SWAP1 DUP2 PUSH2 0x86E SWAP2 SWAP1 PUSH2 0x1331 JUMP JUMPDEST POP SWAP1 POP POP JUMPDEST PUSH1 0x1 PUSH1 0x0 PUSH1 0x1 PUSH1 0x2 SLOAD PUSH2 0x886 SWAP2 SWAP1 PUSH2 0x12E7 JUMP JUMPDEST DUP2 MSTORE PUSH1 0x20 ADD SWAP1 DUP2 MSTORE PUSH1 0x20 ADD PUSH1 0x0 KECCAK256 PUSH1 0x0 DUP1 DUP3 ADD PUSH1 0x0 SWAP1 SSTORE PUSH1 0x1 DUP3 ADD PUSH1 0x0 PUSH2 0x8AD SWAP2 SWAP1 PUSH2 0x8E4 JUMP JUMPDEST POP POP PUSH1 0x2 PUSH1 0x0 DUP2 SLOAD DUP1 SWAP3 SWAP2 SWAP1 PUSH2 0x8C2 SWAP1 PUSH2 0x1419 JUMP JUMPDEST SWAP2 SWAP1 POP SSTORE POP POP JUMP JUMPDEST PUSH1 0x40 MLOAD DUP1 PUSH1 0x40 ADD PUSH1 0x40 MSTORE DUP1 PUSH1 0x0 DUP2 MSTORE PUSH1 0x20 ADD PUSH1 0x60 DUP2 MSTORE POP SWAP1 JUMP JUMPDEST POP DUP1 SLOAD PUSH2 0x8F0 SWAP1 PUSH2 0xF92 JUMP JUMPDEST PUSH1 0x0 DUP3 SSTORE DUP1 PUSH1 0x1F LT PUSH2 0x902 JUMPI POP PUSH2 0x921 JUMP JUMPDEST PUSH1 0x1F ADD PUSH1 0x20 SWAP1 DIV SWAP1 PUSH1 0x0 MSTORE PUSH1 0x20 PUSH1 0x0 KECCAK256 SWAP1 DUP2 ADD SWAP1 PUSH2 0x920 SWAP2 SWAP1 PUSH2 0x924 JUMP JUMPDEST JUMPDEST POP JUMP JUMPDEST JUMPDEST DUP1 DUP3 GT ISZERO PUSH2 0x93D JUMPI PUSH1 0x0 DUP2 PUSH1 0x0 SWAP1 SSTORE POP PUSH1 0x1 ADD PUSH2 0x925 JUMP JUMPDEST POP SWAP1 JUMP JUMPDEST PUSH1 0x0 PUSH1 0x40 MLOAD SWAP1 POP SWAP1 JUMP JUMPDEST PUSH1 0x0 DUP1 REVERT JUMPDEST PUSH1 0x0 DUP1 REVERT JUMPDEST PUSH1 0x0 DUP2 SWAP1 POP SWAP2 SWAP1 POP JUMP JUMPDEST PUSH2 0x968 DUP2 PUSH2 0x955 JUMP JUMPDEST DUP2 EQ PUSH2 0x973 JUMPI PUSH1 0x0 DUP1 REVERT JUMPDEST POP JUMP JUMPDEST PUSH1 0x0 DUP2 CALLDATALOAD SWAP1 POP PUSH2 0x985 DUP2 PUSH2 0x95F JUMP JUMPDEST SWAP3 SWAP2 POP POP JUMP JUMPDEST PUSH1 0x0 DUP1 REVERT JUMPDEST PUSH1 0x0 DUP1 REVERT JUMPDEST PUSH1 0x0 PUSH1 0x1F NOT PUSH1 0x1F DUP4 ADD AND SWAP1 POP SWAP2 SWAP1 POP JUMP JUMPDEST PUSH32 0x4E487B7100000000000000000000000000000000000000000000000000000000 PUSH1 0x0 MSTORE PUSH1 0x41 PUSH1 0x4 MSTORE PUSH1 0x24 PUSH1 0x0 REVERT JUMPDEST PUSH2 0x9DE DUP3 PUSH2 0x995 JUMP JUMPDEST DUP2 ADD DUP2 DUP2 LT PUSH8 0xFFFFFFFFFFFFFFFF DUP3 GT OR ISZERO PUSH2 0x9FD JUMPI PUSH2 0x9FC PUSH2 0x9A6 JUMP JUMPDEST JUMPDEST DUP1 PUSH1 0x40 MSTORE POP POP POP JUMP JUMPDEST PUSH1 0x0 PUSH2 0xA10 PUSH2 0x941 JUMP JUMPDEST SWAP1 POP PUSH2 0xA1C DUP3 DUP3 PUSH2 0x9D5 JUMP JUMPDEST SWAP2 SWAP1 POP JUMP JUMPDEST PUSH1 0x0 PUSH8 0xFFFFFFFFFFFFFFFF DUP3 GT ISZERO PUSH2 0xA3C JUMPI PUSH2 0xA3B PUSH2 0x9A6 JUMP JUMPDEST JUMPDEST PUSH2 0xA45 DUP3 PUSH2 0x995 JUMP JUMPDEST SWAP1 POP PUSH1 0x20 DUP2 ADD SWAP1 POP SWAP2 SWAP1 POP JUMP JUMPDEST DUP3 DUP2 DUP4 CALLDATACOPY PUSH1 0x0 DUP4 DUP4 ADD MSTORE POP POP POP JUMP JUMPDEST PUSH1 0x0 PUSH2 0xA74 PUSH2 0xA6F DUP5 PUSH2 0xA21 JUMP JUMPDEST PUSH2 0xA06 JUMP JUMPDEST SWAP1 POP DUP3 DUP2 MSTORE PUSH1 0x20 DUP2 ADD DUP5 DUP5 DUP5 ADD GT ISZERO PUSH2 0xA90 JUMPI PUSH2 0xA8F PUSH2 0x990 JUMP JUMPDEST JUMPDEST PUSH2 0xA9B DUP5 DUP3 DUP6 PUSH2 0xA52 JUMP JUMPDEST POP SWAP4 SWAP3 POP POP POP JUMP JUMPDEST PUSH1 0x0 DUP3 PUSH1 0x1F DUP4 ADD SLT PUSH2 0xAB8 JUMPI PUSH2 0xAB7 PUSH2 0x98B JUMP JUMPDEST JUMPDEST DUP2 CALLDATALOAD PUSH2 0xAC8 DUP5 DUP3 PUSH1 0x20 DUP7 ADD PUSH2 0xA61 JUMP JUMPDEST SWAP2 POP POP SWAP3 SWAP2 POP POP JUMP JUMPDEST PUSH1 0x0 DUP1 PUSH1 0x0 PUSH1 0x60 DUP5 DUP7 SUB SLT ISZERO PUSH2 0xAEA JUMPI PUSH2 0xAE9 PUSH2 0x94B JUMP JUMPDEST JUMPDEST PUSH1 0x0 PUSH2 0xAF8 DUP7 DUP3 DUP8 ADD PUSH2 0x976 JUMP JUMPDEST SWAP4 POP POP PUSH1 0x20 PUSH2 0xB09 DUP7 DUP3 DUP8 ADD PUSH2 0x976 JUMP JUMPDEST SWAP3 POP POP PUSH1 0x40 DUP5 ADD CALLDATALOAD PUSH8 0xFFFFFFFFFFFFFFFF DUP2 GT ISZERO PUSH2 0xB2A JUMPI PUSH2 0xB29 PUSH2 0x950 JUMP JUMPDEST JUMPDEST PUSH2 0xB36 DUP7 DUP3 DUP8 ADD PUSH2 0xAA3 JUMP JUMPDEST SWAP2 POP POP SWAP3 POP SWAP3 POP SWAP3 JUMP JUMPDEST PUSH2 0xB49 DUP2 PUSH2 0x955 JUMP JUMPDEST DUP3 MSTORE POP POP JUMP JUMPDEST PUSH1 0x0 PUSH1 0x20 DUP3 ADD SWAP1 POP PUSH2 0xB64 PUSH1 0x0 DUP4 ADD DUP5 PUSH2 0xB40 JUMP JUMPDEST SWAP3 SWAP2 POP POP JUMP JUMPDEST PUSH1 0x0 PUSH20 0xFFFFFFFFFFFFFFFFFFFFFFFFFFFFFFFFFFFFFFFF DUP3 AND SWAP1 POP SWAP2 SWAP1 POP JUMP JUMPDEST PUSH1 0x0 PUSH2 0xB95 DUP3 PUSH2 0xB6A JUMP JUMPDEST SWAP1 POP SWAP2 SWAP1 POP JUMP JUMPDEST PUSH2 0xBA5 DUP2 PUSH2 0xB8A JUMP JUMPDEST DUP3 MSTORE POP POP JUMP JUMPDEST PUSH1 0x0 PUSH1 0x20 DUP3 ADD SWAP1 POP PUSH2 0xBC0 PUSH1 0x0 DUP4 ADD DUP5 PUSH2 0xB9C JUMP JUMPDEST SWAP3 SWAP2 POP POP JUMP JUMPDEST PUSH1 0x0 PUSH1 0x20 DUP3 DUP5 SUB SLT ISZERO PUSH2 0xBDC JUMPI PUSH2 0xBDB PUSH2 0x94B JUMP JUMPDEST JUMPDEST PUSH1 0x0 PUSH2 0xBEA DUP5 DUP3 DUP6 ADD PUSH2 0x976 JUMP JUMPDEST SWAP2 POP POP SWAP3 SWAP2 POP POP JUMP JUMPDEST PUSH1 0x0 DUP2 MLOAD SWAP1 POP SWAP2 SWAP1 POP JUMP JUMPDEST PUSH1 0x0 DUP3 DUP3 MSTORE PUSH1 0x20 DUP3 ADD SWAP1 POP SWAP3 SWAP2 POP POP JUMP JUMPDEST PUSH1 0x0 JUMPDEST DUP4 DUP2 LT ISZERO PUSH2 0xC2D JUMPI DUP1 DUP3 ADD MLOAD DUP2 DUP5 ADD MSTORE PUSH1 0x20 DUP2 ADD SWAP1 POP PUSH2 0xC12 JUMP JUMPDEST PUSH1 0x0 DUP5 DUP5 ADD MSTORE POP POP POP POP JUMP JUMPDEST PUSH1 0x0 PUSH2 0xC44 DUP3 PUSH2 0xBF3 JUMP JUMPDEST PUSH2 0xC4E DUP2 DUP6 PUSH2 0xBFE JUMP JUMPDEST SWAP4 POP PUSH2 0xC5E DUP2 DUP6 PUSH1 0x20 DUP7 ADD PUSH2 0xC0F JUMP JUMPDEST PUSH2 0xC67 DUP2 PUSH2 0x995 JUMP JUMPDEST DUP5 ADD SWAP2 POP POP SWAP3 SWAP2 POP POP JUMP JUMPDEST PUSH1 0x0 PUSH1 0x40 DUP3 ADD SWAP1 POP PUSH2 0xC87 PUSH1 0x0 DUP4 ADD DUP6 PUSH2 0xB40 JUMP JUMPDEST DUP2 DUP2 SUB PUSH1 0x20 DUP4 ADD MSTORE PUSH2 0xC99 DUP2 DUP5 PUSH2 0xC39 JUMP JUMPDEST SWAP1 POP SWAP4 SWAP3 POP POP POP JUMP JUMPDEST PUSH1 0x0 PUSH1 0x20 DUP3 DUP5 SUB SLT ISZERO PUSH2 0xCB8 JUMPI PUSH2 0xCB7 PUSH2 0x94B JUMP JUMPDEST JUMPDEST PUSH1 0x0 DUP3 ADD CALLDATALOAD PUSH8 0xFFFFFFFFFFFFFFFF DUP2 GT ISZERO PUSH2 0xCD6 JUMPI PUSH2 0xCD5 PUSH2 0x950 JUMP JUMPDEST JUMPDEST PUSH2 0xCE2 DUP5 DUP3 DUP6 ADD PUSH2 0xAA3 JUMP JUMPDEST SWAP2 POP POP SWAP3 SWAP2 POP POP JUMP JUMPDEST PUSH1 0x0 DUP2 MLOAD SWAP1 POP SWAP2 SWAP1 POP JUMP JUMPDEST PUSH1 0x0 DUP3 DUP3 MSTORE PUSH1 0x20 DUP3 ADD SWAP1 POP SWAP3 SWAP2 POP POP JUMP JUMPDEST PUSH1 0x0 DUP2 SWAP1 POP PUSH1 0x20 DUP3 ADD SWAP1 POP SWAP2 SWAP1 POP JUMP JUMPDEST PUSH2 0xD20 DUP2 PUSH2 0x955 JUMP JUMPDEST DUP3 MSTORE POP POP JUMP JUMPDEST PUSH1 0x0 DUP3 DUP3 MSTORE PUSH1 0x20 DUP3 ADD SWAP1 POP SWAP3 SWAP2 POP POP JUMP JUMPDEST PUSH1 0x0 PUSH2 0xD42 DUP3 PUSH2 0xBF3 JUMP JUMPDEST PUSH2 0xD4C DUP2 DUP6 PUSH2 0xD26 JUMP JUMPDEST SWAP4 POP PUSH2 0xD5C DUP2 DUP6 PUSH1 0x20 DUP7 ADD PUSH2 0xC0F JUMP JUMPDEST PUSH2 0xD65 DUP2 PUSH2 0x995 JUMP JUMPDEST DUP5 ADD SWAP2 POP POP SWAP3 SWAP2 POP POP JUMP JUMPDEST PUSH1 0x0 PUSH1 0x40 DUP4 ADD PUSH1 0x0 DUP4 ADD MLOAD PUSH2 0xD88 PUSH1 0x0 DUP7 ADD DUP3 PUSH2 0xD17 JUMP JUMPDEST POP PUSH1 0x20 DUP4 ADD MLOAD DUP5 DUP3 SUB PUSH1 0x20 DUP7 ADD MSTORE PUSH2 0xDA0 DUP3 DUP3 PUSH2 0xD37 JUMP JUMPDEST SWAP2 POP POP DUP1 SWAP2 POP POP SWAP3 SWAP2 POP POP JUMP JUMPDEST PUSH1 0x0 PUSH2 0xDB9 DUP4 DUP4 PUSH2 0xD70 JUMP JUMPDEST SWAP1 POP SWAP3 SWAP2 POP POP JUMP JUMPDEST PUSH1 0x0 PUSH1 0x20 DUP3 ADD SWAP1 POP SWAP2 SWAP1 POP JUMP JUMPDEST PUSH1 0x0 PUSH2 0xDD9 DUP3 PUSH2 0xCEB JUMP JUMPDEST PUSH2 0xDE3 DUP2 DUP6 PUSH2 0xCF6 JUMP JUMPDEST SWAP4 POP DUP4 PUSH1 0x20 DUP3 MUL DUP6 ADD PUSH2 0xDF5 DUP6 PUSH2 0xD07 JUMP JUMPDEST DUP1 PUSH1 0x0 JUMPDEST DUP6 DUP2 LT ISZERO PUSH2 0xE31 JUMPI DUP5 DUP5 SUB DUP10 MSTORE DUP2 MLOAD PUSH2 0xE12 DUP6 DUP3 PUSH2 0xDAD JUMP JUMPDEST SWAP5 POP PUSH2 0xE1D DUP4 PUSH2 0xDC1 JUMP JUMPDEST SWAP3 POP PUSH1 0x20 DUP11 ADD SWAP10 POP POP PUSH1 0x1 DUP2 ADD SWAP1 POP PUSH2 0xDF9 JUMP JUMPDEST POP DUP3 SWAP8 POP DUP8 SWAP6 POP POP POP POP POP POP SWAP3 SWAP2 POP POP JUMP JUMPDEST PUSH1 0x0 PUSH1 0x20 DUP3 ADD SWAP1 POP DUP2 DUP2 SUB PUSH1 0x0 DUP4 ADD MSTORE PUSH2 0xE5D DUP2 DUP5 PUSH2 0xDCE JUMP JUMPDEST SWAP1 POP SWAP3 SWAP2 POP POP JUMP JUMPDEST PUSH32 0x4F6E6C792074686520636F6E7472616374206F776E65722063616E2070657266 PUSH1 0x0 DUP3 ADD MSTORE PUSH32 0x6F726D207468697320616374696F6E0000000000000000000000000000000000 PUSH1 0x20 DUP3 ADD MSTORE POP JUMP JUMPDEST PUSH1 0x0 PUSH2 0xEC1 PUSH1 0x2F DUP4 PUSH2 0xBFE JUMP JUMPDEST SWAP2 POP PUSH2 0xECC DUP3 PUSH2 0xE65 JUMP JUMPDEST PUSH1 0x40 DUP3 ADD SWAP1 POP SWAP2 SWAP1 POP JUMP JUMPDEST PUSH1 0x0 PUSH1 0x20 DUP3 ADD SWAP1 POP DUP2 DUP2 SUB PUSH1 0x0 DUP4 ADD MSTORE PUSH2 0xEF0 DUP2 PUSH2 0xEB4 JUMP JUMPDEST SWAP1 POP SWAP2 SWAP1 POP JUMP JUMPDEST PUSH32 0x496E76616C696420696E64657800000000000000000000000000000000000000 PUSH1 0x0 DUP3 ADD MSTORE POP JUMP JUMPDEST PUSH1 0x0 PUSH2 0xF2D PUSH1 0xD DUP4 PUSH2 0xBFE JUMP JUMPDEST SWAP2 POP PUSH2 0xF38 DUP3 PUSH2 0xEF7 JUMP JUMPDEST PUSH1 0x20 DUP3 ADD SWAP1 POP SWAP2 SWAP1 POP JUMP JUMPDEST PUSH1 0x0 PUSH1 0x20 DUP3 ADD SWAP1 POP DUP2 DUP2 SUB PUSH1 0x0 DUP4 ADD MSTORE PUSH2 0xF5C DUP2 PUSH2 0xF20 JUMP JUMPDEST SWAP1 POP SWAP2 SWAP1 POP JUMP JUMPDEST PUSH32 0x4E487B7100000000000000000000000000000000000000000000000000000000 PUSH1 0x0 MSTORE PUSH1 0x22 PUSH1 0x4 MSTORE PUSH1 0x24 PUSH1 0x0 REVERT JUMPDEST PUSH1 0x0 PUSH1 0x2 DUP3 DIV SWAP1 POP PUSH1 0x1 DUP3 AND DUP1 PUSH2 0xFAA JUMPI PUSH1 0x7F DUP3 AND SWAP2 POP JUMPDEST PUSH1 0x20 DUP3 LT DUP2 SUB PUSH2 0xFBD JUMPI PUSH2 0xFBC PUSH2 0xF63 JUMP JUMPDEST JUMPDEST POP SWAP2 SWAP1 POP JUMP JUMPDEST PUSH1 0x0 DUP2 SWAP1 POP DUP2 PUSH1 0x0 MSTORE PUSH1 0x20 PUSH1 0x0 KECCAK256 SWAP1 POP SWAP2 SWAP1 POP JUMP JUMPDEST PUSH1 0x0 PUSH1 0x20 PUSH1 0x1F DUP4 ADD DIV SWAP1 POP SWAP2 SWAP1 POP JUMP JUMPDEST PUSH1 0x0 DUP3 DUP3 SHL SWAP1 POP SWAP3 SWAP2 POP POP JUMP JUMPDEST PUSH1 0x0 PUSH1 0x8 DUP4 MUL PUSH2 0x1025 PUSH32 0xFFFFFFFFFFFFFFFFFFFFFFFFFFFFFFFFFFFFFFFFFFFFFFFFFFFFFFFFFFFFFFFF DUP3 PUSH2 0xFE8 JUMP JUMPDEST PUSH2 0x102F DUP7 DUP4 PUSH2 0xFE8 JUMP JUMPDEST SWAP6 POP DUP1 NOT DUP5 AND SWAP4 POP DUP1 DUP7 AND DUP5 OR SWAP3 POP POP POP SWAP4 SWAP3 POP POP POP JUMP JUMPDEST PUSH1 0x0 DUP2 SWAP1 POP SWAP2 SWAP1 POP JUMP JUMPDEST PUSH1 0x0 PUSH2 0x106C PUSH2 0x1067 PUSH2 0x1062 DUP5 PUSH2 0x955 JUMP JUMPDEST PUSH2 0x1047 JUMP JUMPDEST PUSH2 0x955 JUMP JUMPDEST SWAP1 POP SWAP2 SWAP1 POP JUMP JUMPDEST PUSH1 0x0 DUP2 SWAP1 POP SWAP2 SWAP1 POP JUMP JUMPDEST PUSH2 0x1086 DUP4 PUSH2 0x1051 JUMP JUMPDEST PUSH2 0x109A PUSH2 0x1092 DUP3 PUSH2 0x1073 JUMP JUMPDEST DUP5 DUP5 SLOAD PUSH2 0xFF5 JUMP JUMPDEST DUP3 SSTORE POP POP POP POP JUMP JUMPDEST PUSH1 0x0 SWAP1 JUMP JUMPDEST PUSH2 0x10AF PUSH2 0x10A2 JUMP JUMPDEST PUSH2 0x10BA DUP2 DUP5 DUP5 PUSH2 0x107D JUMP JUMPDEST POP POP POP JUMP JUMPDEST JUMPDEST DUP2 DUP2 LT ISZERO PUSH2 0x10DE JUMPI PUSH2 0x10D3 PUSH1 0x0 DUP3 PUSH2 0x10A7 JUMP JUMPDEST PUSH1 0x1 DUP2 ADD SWAP1 POP PUSH2 0x10C0 JUMP JUMPDEST POP POP JUMP JUMPDEST PUSH1 0x1F DUP3 GT ISZERO PUSH2 0x1123 JUMPI PUSH2 0x10F4 DUP2 PUSH2 0xFC3 JUMP JUMPDEST PUSH2 0x10FD DUP5 PUSH2 0xFD8 JUMP JUMPDEST DUP2 ADD PUSH1 0x20 DUP6 LT ISZERO PUSH2 0x110C JUMPI DUP2 SWAP1 POP JUMPDEST PUSH2 0x1120 PUSH2 0x1118 DUP6 PUSH2 0xFD8 JUMP JUMPDEST DUP4 ADD DUP3 PUSH2 0x10BF JUMP JUMPDEST POP POP JUMPDEST POP POP POP JUMP JUMPDEST PUSH1 0x0 DUP3 DUP3 SHR SWAP1 POP SWAP3 SWAP2 POP POP JUMP JUMPDEST PUSH1 0x0 PUSH2 0x1146 PUSH1 0x0 NOT DUP5 PUSH1 0x8 MUL PUSH2 0x1128 JUMP JUMPDEST NOT DUP1 DUP4 AND SWAP2 POP POP SWAP3 SWAP2 POP POP JUMP JUMPDEST PUSH1 0x0 PUSH2 0x115F DUP4 DUP4 PUSH2 0x1135 JUMP JUMPDEST SWAP2 POP DUP3 PUSH1 0x2 MUL DUP3 OR SWAP1 POP SWAP3 SWAP2 POP POP JUMP JUMPDEST PUSH2 0x1178 DUP3 PUSH2 0xBF3 JUMP JUMPDEST PUSH8 0xFFFFFFFFFFFFFFFF DUP2 GT ISZERO PUSH2 0x1191 JUMPI PUSH2 0x1190 PUSH2 0x9A6 JUMP JUMPDEST JUMPDEST PUSH2 0x119B DUP3 SLOAD PUSH2 0xF92 JUMP JUMPDEST PUSH2 0x11A6 DUP3 DUP3 DUP6 PUSH2 0x10E2 JUMP JUMPDEST PUSH1 0x0 PUSH1 0x20 SWAP1 POP PUSH1 0x1F DUP4 GT PUSH1 0x1 DUP2 EQ PUSH2 0x11D9 JUMPI PUSH1 0x0 DUP5 ISZERO PUSH2 0x11C7 JUMPI DUP3 DUP8 ADD MLOAD SWAP1 POP JUMPDEST PUSH2 0x11D1 DUP6 DUP3 PUSH2 0x1153 JUMP JUMPDEST DUP7 SSTORE POP PUSH2 0x1239 JUMP JUMPDEST PUSH1 0x1F NOT DUP5 AND PUSH2 0x11E7 DUP7 PUSH2 0xFC3 JUMP JUMPDEST PUSH1 0x0 JUMPDEST DUP3 DUP2 LT ISZERO PUSH2 0x120F JUMPI DUP5 DUP10 ADD MLOAD DUP3 SSTORE PUSH1 0x1 DUP3 ADD SWAP2 POP PUSH1 0x20 DUP6 ADD SWAP5 POP PUSH1 0x20 DUP2 ADD SWAP1 POP PUSH2 0x11EA JUMP JUMPDEST DUP7 DUP4 LT ISZERO PUSH2 0x122C JUMPI DUP5 DUP10 ADD MLOAD PUSH2 0x1228 PUSH1 0x1F DUP10 AND DUP3 PUSH2 0x1135 JUMP JUMPDEST DUP4 SSTORE POP JUMPDEST PUSH1 0x1 PUSH1 0x2 DUP9 MUL ADD DUP9 SSTORE POP POP POP JUMPDEST POP POP POP POP POP POP JUMP JUMPDEST PUSH32 0x4E487B7100000000000000000000000000000000000000000000000000000000 PUSH1 0x0 MSTORE PUSH1 0x11 PUSH1 0x4 MSTORE PUSH1 0x24 PUSH1 0x0 REVERT JUMPDEST PUSH1 0x0 PUSH2 0x127B DUP3 PUSH2 0x955 JUMP JUMPDEST SWAP2 POP PUSH32 0xFFFFFFFFFFFFFFFFFFFFFFFFFFFFFFFFFFFFFFFFFFFFFFFFFFFFFFFFFFFFFFFF DUP3 SUB PUSH2 0x12AD JUMPI PUSH2 0x12AC PUSH2 0x1241 JUMP JUMPDEST JUMPDEST PUSH1 0x1 DUP3 ADD SWAP1 POP SWAP2 SWAP1 POP JUMP JUMPDEST PUSH32 0x4E487B7100000000000000000000000000000000000000000000000000000000 PUSH1 0x0 MSTORE PUSH1 0x32 PUSH1 0x4 MSTORE PUSH1 0x24 PUSH1 0x0 REVERT JUMPDEST PUSH1 0x0 PUSH2 0x12F2 DUP3 PUSH2 0x955 JUMP JUMPDEST SWAP2 POP PUSH2 0x12FD DUP4 PUSH2 0x955 JUMP JUMPDEST SWAP3 POP DUP3 DUP3 SUB SWAP1 POP DUP2 DUP2 GT ISZERO PUSH2 0x1315 JUMPI PUSH2 0x1314 PUSH2 0x1241 JUMP JUMPDEST JUMPDEST SWAP3 SWAP2 POP POP JUMP JUMPDEST PUSH1 0x0 DUP2 SLOAD SWAP1 POP PUSH2 0x132A DUP2 PUSH2 0xF92 JUMP JUMPDEST SWAP1 POP SWAP2 SWAP1 POP JUMP JUMPDEST DUP2 DUP2 SUB PUSH2 0x133F JUMPI POP POP PUSH2 0x1417 JUMP JUMPDEST PUSH2 0x1348 DUP3 PUSH2 0x131B JUMP JUMPDEST PUSH8 0xFFFFFFFFFFFFFFFF DUP2 GT ISZERO PUSH2 0x1361 JUMPI PUSH2 0x1360 PUSH2 0x9A6 JUMP JUMPDEST JUMPDEST PUSH2 0x136B DUP3 SLOAD PUSH2 0xF92 JUMP JUMPDEST PUSH2 0x1376 DUP3 DUP3 DUP6 PUSH2 0x10E2 JUMP JUMPDEST PUSH1 0x0 PUSH1 0x1F DUP4 GT PUSH1 0x1 DUP2 EQ PUSH2 0x13A5 JUMPI PUSH1 0x0 DUP5 ISZERO PUSH2 0x1393 JUMPI DUP3 DUP8 ADD SLOAD SWAP1 POP JUMPDEST PUSH2 0x139D DUP6 DUP3 PUSH2 0x1153 JUMP JUMPDEST DUP7 SSTORE POP PUSH2 0x1410 JUMP JUMPDEST PUSH1 0x1F NOT DUP5 AND PUSH2 0x13B3 DUP8 PUSH2 0xFC3 JUMP JUMPDEST SWAP7 POP PUSH2 0x13BE DUP7 PUSH2 0xFC3 JUMP JUMPDEST PUSH1 0x0 JUMPDEST DUP3 DUP2 LT ISZERO PUSH2 0x13E6 JUMPI DUP5 DUP10 ADD SLOAD DUP3 SSTORE PUSH1 0x1 DUP3 ADD SWAP2 POP PUSH1 0x1 DUP6 ADD SWAP5 POP PUSH1 0x20 DUP2 ADD SWAP1 POP PUSH2 0x13C1 JUMP JUMPDEST DUP7 DUP4 LT ISZERO PUSH2 0x1403 JUMPI DUP5 DUP10 ADD SLOAD PUSH2 0x13FF PUSH1 0x1F DUP10 AND DUP3 PUSH2 0x1135 JUMP JUMPDEST DUP4 SSTORE POP JUMPDEST PUSH1 0x1 PUSH1 0x2 DUP9 MUL ADD DUP9 SSTORE POP POP POP JUMPDEST POP POP POP POP POP POP JUMPDEST JUMP JUMPDEST PUSH1 0x0 PUSH2 0x1424 DUP3 PUSH2 0x955 JUMP JUMPDEST SWAP2 POP PUSH1 0x0 DUP3 SUB PUSH2 0x1437 JUMPI PUSH2 0x1436 PUSH2 0x1241 JUMP JUMPDEST JUMPDEST PUSH1 0x1 DUP3 SUB SWAP1 POP SWAP2 SWAP1 POP JUMP INVALID LOG2 PUSH5 0x6970667358 0x22 SLT KECCAK256 PUSH3 0x4F327D SWAP15 0xB5 0xA7 PUSH9 0x6F9214070DE33E5F35 CODESIZE MSIZE PUSH23 0xD684DDB8BC8DBA281C7A88B464736F6C63430008120033 "
				},
				"gasEstimates": {
					"creation": {
						"codeDepositCost": "1048000",
						"executionCost": "25353",
						"totalCost": "1073353"
					},
					"external": {
						"addLetter(string)": "infinite",
						"deleteLetter(uint256)": "infinite",
						"getAllLetters()": "infinite",
						"getLetter(uint256)": "infinite",
						"getLetterCount()": "2460",
						"letterCount()": "2495",
						"letters(uint256)": "infinite",
						"owner()": "2556",
						"updateLetter(uint256,uint256,string)": "infinite"
					}
				},
				"methodIdentifiers": {
					"addLetter(string)": "afeae1e4",
					"deleteLetter(uint256)": "f8277033",
					"getAllLetters()": "dd61ed93",
					"getLetter(uint256)": "96e583a9",
					"getLetterCount()": "5119cb20",
					"letterCount()": "f2fb11bf",
					"letters(uint256)": "a2a0e4c3",
					"owner()": "8da5cb5b",
					"updateLetter(uint256,uint256,string)": "378eea82"
				}
			},
			"storageLayout": {
				"storage": [
					{
						"astId": 3,
						"contract": "contracts/letter.sol:LetterStorage",
						"label": "owner",
						"offset": 0,
						"slot": "0",
						"type": "t_address"
					},
					{
						"astId": 13,
						"contract": "contracts/letter.sol:LetterStorage",
						"label": "letters",
						"offset": 0,
						"slot": "1",
						"type": "t_mapping(t_uint256,t_struct(Letter)8_storage)"
					},
					{
						"astId": 15,
						"contract": "contracts/letter.sol:LetterStorage",
						"label": "letterCount",
						"offset": 0,
						"slot": "2",
						"type": "t_uint256"
					}
				],
				"types": {
					"t_address": {
						"encoding": "inplace",
						"label": "address",
						"numberOfBytes": "20"
					},
					"t_mapping(t_uint256,t_struct(Letter)8_storage)": {
						"encoding": "mapping",
						"key": "t_uint256",
						"label": "mapping(uint256 => struct LetterStorage.Letter)",
						"numberOfBytes": "32",
						"value": "t_struct(Letter)8_storage"
					},
					"t_string_storage": {
						"encoding": "bytes",
						"label": "string",
						"numberOfBytes": "32"
					},
					"t_struct(Letter)8_storage": {
						"encoding": "inplace",
						"label": "struct LetterStorage.Letter",
						"members": [
							{
								"astId": 5,
								"contract": "contracts/letter.sol:LetterStorage",
								"label": "date",
								"offset": 0,
								"slot": "0",
								"type": "t_uint256"
							},
							{
								"astId": 7,
								"contract": "contracts/letter.sol:LetterStorage",
								"label": "ipfsLink",
								"offset": 0,
								"slot": "1",
								"type": "t_string_storage"
							}
						],
						"numberOfBytes": "64"
					},
					"t_uint256": {
						"encoding": "inplace",
						"label": "uint256",
						"numberOfBytes": "32"
					}
				}
			},
			"userdoc": {
				"kind": "user",
				"methods": {},
				"version": 1
			}
		}
	}
}