{
	"data": {
		"bytecode": {
			"linkReferences": {},
			"object": "60806040523480156200001157600080fd5b5060405162001ad738038062001ad78339818101604052810190620000379190620001a1565b336000806101000a81548173ffffffffffffffffffffffffffffffffffffffff021916908373ffffffffffffffffffffffffffffffffffffffff1602179055508660018190555085600281905550846004819055508360058190555082600860006101000a81548173ffffffffffffffffffffffffffffffffffffffff021916908373ffffffffffffffffffffffffffffffffffffffff160217905550816006819055508082620000e9919062000283565b60078190555050505050505050620002be565b600080fd5b6000819050919050565b620001168162000101565b81146200012257600080fd5b50565b60008151905062000136816200010b565b92915050565b600073ffffffffffffffffffffffffffffffffffffffff82169050919050565b600062000169826200013c565b9050919050565b6200017b816200015c565b81146200018757600080fd5b50565b6000815190506200019b8162000170565b92915050565b600080600080600080600060e0888a031215620001c357620001c2620000fc565b5b6000620001d38a828b0162000125565b9750506020620001e68a828b0162000125565b9650506040620001f98a828b0162000125565b95505060606200020c8a828b0162000125565b94505060806200021f8a828b016200018a565b93505060a0620002328a828b0162000125565b92505060c0620002458a828b0162000125565b91505092959891949750929550565b7f4e487b7100000000000000000000000000000000000000000000000000000000600052601160045260246000fd5b6000620002908262000101565b91506200029d8362000101565b9250828201905080821115620002b857620002b762000254565b5b92915050565b61180980620002ce6000396000f3fe608060405234801561001057600080fd5b50600436106101005760003560e01c806378e9792511610097578063977b055b11610066578063977b055b14610265578063a035b1fe14610283578063e8307d00146102a1578063fc0c546a146102bd57610100565b806378e97925146101ef5780637e1c0c091461020d5780638da5cb5b1461022b57806391b7f5ed1461024957610100565b80633610724e116100d35780633610724e1461018f5780633ccfd60b146101ab5780635ed9ebfc146101b557806371189742146101d357610100565b806312065fe01461010557806327e235e3146101235780633197cbb61461015357806333b5b62e14610171575b600080fd5b61010d6102db565b60405161011a9190610cea565b60405180910390f35b61013d60048036038101906101389190610d68565b61037e565b60405161014a9190610cea565b60405180910390f35b61015b610396565b6040516101689190610cea565b60405180910390f35b61017961039c565b6040516101869190610cea565b60405180910390f35b6101a960048036038101906101a49190610dc1565b6103a2565b005b6101b361075b565b005b6101bd6109d5565b6040516101ca9190610cea565b60405180910390f35b6101ed60048036038101906101e89190610dc1565b6109db565b005b6101f7610ab7565b6040516102049190610cea565b60405180910390f35b610215610abd565b6040516102229190610cea565b60405180910390f35b610233610ac3565b6040516102409190610dfd565b60405180910390f35b610263600480360381019061025e9190610dc1565b610ae7565b005b61026d610bc3565b60405161027a9190610cea565b60405180910390f35b61028b610bc9565b6040516102989190610cea565b60405180910390f35b6102bb60048036038101906102b69190610dc1565b610bcf565b005b6102c5610cab565b6040516102d29190610e77565b60405180910390f35b6000600860009054906101000a900473ffffffffffffffffffffffffffffffffffffffff1673ffffffffffffffffffffffffffffffffffffffff166370a08231306040518263ffffffff1660e01b81526004016103389190610dfd565b602060405180830381865afa158015610355573d6000803e3d6000fd5b505050506040513d601f19601f820116820180604052508101906103799190610ea7565b905090565b60096020528060005260406000206000915090505481565b60075481565b60045481565b6006544210156103e7576040517f08c379a00000000000000000000000000000000000000000000000000000000081526004016103de90610f31565b60405180910390fd5b600754421061042b576040517f08c379a000000000000000000000000000000000000000000000000000000000815260040161042290610f9d565b60405180910390fd5b600454811015610470576040517f08c379a00000000000000000000000000000000000000000000000000000000081526004016104679061102f565b60405180910390fd5b6005548111156104b5576040517f08c379a00000000000000000000000000000000000000000000000000000000081526004016104ac906110c1565b60405180910390fd5b600254816003546104c69190611110565b1115610507576040517f08c379a00000000000000000000000000000000000000000000000000000000081526004016104fe90611190565b60405180910390fd5b60006001548261051791906111b0565b905080600860009054906101000a900473ffffffffffffffffffffffffffffffffffffffff1673ffffffffffffffffffffffffffffffffffffffff166370a08231336040518263ffffffff1660e01b81526004016105759190610dfd565b602060405180830381865afa158015610592573d6000803e3d6000fd5b505050506040513d601f19601f820116820180604052508101906105b69190610ea7565b10156105f7576040517f08c379a00000000000000000000000000000000000000000000000000000000081526004016105ee9061123e565b60405180910390fd5b600860009054906101000a900473ffffffffffffffffffffffffffffffffffffffff1673ffffffffffffffffffffffffffffffffffffffff166323b872dd3330846040518463ffffffff1660e01b81526004016106569392919061125e565b6020604051808303816000875af1158015610675573d6000803e3d6000fd5b505050506040513d601f19601f8201168201806040525081019061069991906112cd565b5081600960003373ffffffffffffffffffffffffffffffffffffffff1673ffffffffffffffffffffffffffffffffffffffff16815260200190815260200160002060008282546106e99190611110565b9250508190555081600360008282546107029190611110565b925050819055503373ffffffffffffffffffffffffffffffffffffffff167fe3d4187f6ca4248660cc0ac8b8056515bac4a8132be2eca31d6d0cc170722a7e8360405161074f9190610cea565b60405180910390a25050565b60008054906101000a900473ffffffffffffffffffffffffffffffffffffffff1673ffffffffffffffffffffffffffffffffffffffff163373ffffffffffffffffffffffffffffffffffffffff16146107e9576040517f08c379a00000000000000000000000000000000000000000000000000000000081526004016107e090611346565b60405180910390fd5b60075442101561082e576040517f08c379a0000000000000000000000000000000000000000000000000000000008152600401610825906113d8565b60405180910390fd5b6000600860009054906101000a900473ffffffffffffffffffffffffffffffffffffffff1673ffffffffffffffffffffffffffffffffffffffff166370a08231306040518263ffffffff1660e01b815260040161088b9190610dfd565b602060405180830381865afa1580156108a8573d6000803e3d6000fd5b505050506040513d601f19601f820116820180604052508101906108cc9190610ea7565b905060008111610911576040517f08c379a000000000000000000000000000000000000000000000000000000000815260040161090890611444565b60405180910390fd5b600860009054906101000a900473ffffffffffffffffffffffffffffffffffffffff1673ffffffffffffffffffffffffffffffffffffffff1663a9059cbb60008054906101000a900473ffffffffffffffffffffffffffffffffffffffff16836040518363ffffffff1660e01b815260040161098e929190611464565b6020604051808303816000875af11580156109ad573d6000803e3d6000fd5b505050506040513d601f19601f820116820180604052508101906109d191906112cd565b5050565b60035481565b60008054906101000a900473ffffffffffffffffffffffffffffffffffffffff1673ffffffffffffffffffffffffffffffffffffffff163373ffffffffffffffffffffffffffffffffffffffff1614610a69576040517f08c379a0000000000000000000000000000000000000000000000000000000008152600401610a60906114ff565b60405180910390fd5b6006544210610aad576040517f08c379a0000000000000000000000000000000000000000000000000000000008152600401610aa490611591565b60405180910390fd5b8060058190555050565b60065481565b60025481565b60008054906101000a900473ffffffffffffffffffffffffffffffffffffffff1681565b60008054906101000a900473ffffffffffffffffffffffffffffffffffffffff1673ffffffffffffffffffffffffffffffffffffffff163373ffffffffffffffffffffffffffffffffffffffff1614610b75576040517f08c379a0000000000000000000000000000000000000000000000000000000008152600401610b6c906115fd565b60405180910390fd5b6006544210610bb9576040517f08c379a0000000000000000000000000000000000000000000000000000000008152600401610bb09061168f565b60405180910390fd5b8060018190555050565b60055481565b60015481565b60008054906101000a900473ffffffffffffffffffffffffffffffffffffffff1673ffffffffffffffffffffffffffffffffffffffff163373ffffffffffffffffffffffffffffffffffffffff1614610c5d576040517f08c379a0000000000000000000000000000000000000000000000000000000008152600401610c5490611721565b60405180910390fd5b6006544210610ca1576040517f08c379a0000000000000000000000000000000000000000000000000000000008152600401610c98906117b3565b60405180910390fd5b8060048190555050565b600860009054906101000a900473ffffffffffffffffffffffffffffffffffffffff1681565b6000819050919050565b610ce481610cd1565b82525050565b6000602082019050610cff6000830184610cdb565b92915050565b600080fd5b600073ffffffffffffffffffffffffffffffffffffffff82169050919050565b6000610d3582610d0a565b9050919050565b610d4581610d2a565b8114610d5057600080fd5b50565b600081359050610d6281610d3c565b92915050565b600060208284031215610d7e57610d7d610d05565b5b6000610d8c84828501610d53565b91505092915050565b610d9e81610cd1565b8114610da957600080fd5b50565b600081359050610dbb81610d95565b92915050565b600060208284031215610dd757610dd6610d05565b5b6000610de584828501610dac565b91505092915050565b610df781610d2a565b82525050565b6000602082019050610e126000830184610dee565b92915050565b6000819050919050565b6000610e3d610e38610e3384610d0a565b610e18565b610d0a565b9050919050565b6000610e4f82610e22565b9050919050565b6000610e6182610e44565b9050919050565b610e7181610e56565b82525050565b6000602082019050610e8c6000830184610e68565b92915050565b600081519050610ea181610d95565b92915050565b600060208284031215610ebd57610ebc610d05565b5b6000610ecb84828501610e92565b91505092915050565b600082825260208201905092915050565b7f53616c6520686173206e6f742073746172746564207965740000000000000000600082015250565b6000610f1b601883610ed4565b9150610f2682610ee5565b602082019050919050565b60006020820190508181036000830152610f4a81610f0e565b9050919050565b7f53616c652068617320656e646564000000000000000000000000000000000000600082015250565b6000610f87600e83610ed4565b9150610f9282610f51565b602082019050919050565b60006020820190508181036000830152610fb681610f7a565b9050919050565b7f416d6f756e74206973206c657373207468616e206d696e696d756d207075726360008201527f6861736500000000000000000000000000000000000000000000000000000000602082015250565b6000611019602483610ed4565b915061102482610fbd565b604082019050919050565b600060208201905081810360008301526110488161100c565b9050919050565b7f416d6f756e742069732067726561746572207468616e206d6178696d756d207060008201527f7572636861736500000000000000000000000000000000000000000000000000602082015250565b60006110ab602783610ed4565b91506110b68261104f565b604082019050919050565b600060208201905081810360008301526110da8161109e565b9050919050565b7f4e487b7100000000000000000000000000000000000000000000000000000000600052601160045260246000fd5b600061111b82610cd1565b915061112683610cd1565b925082820190508082111561113e5761113d6110e1565b5b92915050565b7f4e6f7420656e6f75676820746f6b656e73206c65667420666f722073616c6500600082015250565b600061117a601f83610ed4565b915061118582611144565b602082019050919050565b600060208201905081810360008301526111a98161116d565b9050919050565b60006111bb82610cd1565b91506111c683610cd1565b92508282026111d481610cd1565b915082820484148315176111eb576111ea6110e1565b5b5092915050565b7f4e6f7420656e6f7567682062616c616e636520746f2062757920746f6b656e73600082015250565b6000611228602083610ed4565b9150611233826111f2565b602082019050919050565b600060208201905081810360008301526112578161121b565b9050919050565b60006060820190506112736000830186610dee565b6112806020830185610dee565b61128d6040830184610cdb565b949350505050565b60008115159050919050565b6112aa81611295565b81146112b557600080fd5b50565b6000815190506112c7816112a1565b92915050565b6000602082840312156112e3576112e2610d05565b5b60006112f1848285016112b8565b91505092915050565b7f4f6e6c79206f776e65722063616e207769746864726177000000000000000000600082015250565b6000611330601783610ed4565b915061133b826112fa565b602082019050919050565b6000602082019050818103600083015261135f81611323565b9050919050565b7f43616e6e6f7420776974686472617720756e74696c2073616c6520686173206560008201527f6e64656400000000000000000000000000000000000000000000000000000000602082015250565b60006113c2602483610ed4565b91506113cd82611366565b604082019050919050565b600060208201905081810360008301526113f1816113b5565b9050919050565b7f4e6f20746f6b656e7320746f2077697468647261770000000000000000000000600082015250565b600061142e601583610ed4565b9150611439826113f8565b602082019050919050565b6000602082019050818103600083015261145d81611421565b9050919050565b60006040820190506114796000830185610dee565b6114866020830184610cdb565b9392505050565b7f4f6e6c79206f776e65722063616e20736574206d6178696d756d20707572636860008201527f6173650000000000000000000000000000000000000000000000000000000000602082015250565b60006114e9602383610ed4565b91506114f48261148d565b604082019050919050565b60006020820190508181036000830152611518816114dc565b9050919050565b7f43616e6e6f7420736574206d6178696d756d207075726368617365206166746560008201527f722073616c652068617320737461727465640000000000000000000000000000602082015250565b600061157b603283610ed4565b91506115868261151f565b604082019050919050565b600060208201905081810360008301526115aa8161156e565b9050919050565b7f4f6e6c79206f776e65722063616e207365742070726963650000000000000000600082015250565b60006115e7601883610ed4565b91506115f2826115b1565b602082019050919050565b60006020820190508181036000830152611616816115da565b9050919050565b7f43616e6e6f74207365742070726963652061667465722073616c65206861732060008201527f7374617274656400000000000000000000000000000000000000000000000000602082015250565b6000611679602783610ed4565b91506116848261161d565b604082019050919050565b600060208201905081810360008301526116a88161166c565b9050919050565b7f4f6e6c79206f776e65722063616e20736574206d696e696d756d20707572636860008201527f6173650000000000000000000000000000000000000000000000000000000000602082015250565b600061170b602383610ed4565b9150611716826116af565b604082019050919050565b6000602082019050818103600083015261173a816116fe565b9050919050565b7f43616e6e6f7420736574206d696e696d756d207075726368617365206166746560008201527f722073616c652068617320737461727465640000000000000000000000000000602082015250565b600061179d603283610ed4565b91506117a882611741565b604082019050919050565b600060208201905081810360008301526117cc81611790565b905091905056fea264697066735822122074bc9f05471baefe35e33060c5635dfc29341148f1a4a61a81b181e8286b4c3664736f6c63430008120033",
			"opcodes": "PUSH1 0x80 PUSH1 0x40 MSTORE CALLVALUE DUP1 ISZERO PUSH3 0x11 JUMPI PUSH1 0x0 DUP1 REVERT JUMPDEST POP PUSH1 0x40 MLOAD PUSH3 0x1AD7 CODESIZE SUB DUP1 PUSH3 0x1AD7 DUP4 CODECOPY DUP2 DUP2 ADD PUSH1 0x40 MSTORE DUP2 ADD SWAP1 PUSH3 0x37 SWAP2 SWAP1 PUSH3 0x1A1 JUMP JUMPDEST CALLER PUSH1 0x0 DUP1 PUSH2 0x100 EXP DUP2 SLOAD DUP2 PUSH20 0xFFFFFFFFFFFFFFFFFFFFFFFFFFFFFFFFFFFFFFFF MUL NOT AND SWAP1 DUP4 PUSH20 0xFFFFFFFFFFFFFFFFFFFFFFFFFFFFFFFFFFFFFFFF AND MUL OR SWAP1 SSTORE POP DUP7 PUSH1 0x1 DUP2 SWAP1 SSTORE POP DUP6 PUSH1 0x2 DUP2 SWAP1 SSTORE POP DUP5 PUSH1 0x4 DUP2 SWAP1 SSTORE POP DUP4 PUSH1 0x5 DUP2 SWAP1 SSTORE POP DUP3 PUSH1 0x8 PUSH1 0x0 PUSH2 0x100 EXP DUP2 SLOAD DUP2 PUSH20 0xFFFFFFFFFFFFFFFFFFFFFFFFFFFFFFFFFFFFFFFF MUL NOT AND SWAP1 DUP4 PUSH20 0xFFFFFFFFFFFFFFFFFFFFFFFFFFFFFFFFFFFFFFFF AND MUL OR SWAP1 SSTORE POP DUP2 PUSH1 0x6 DUP2 SWAP1 SSTORE POP DUP1 DUP3 PUSH3 0xE9 SWAP2 SWAP1 PUSH3 0x283 JUMP JUMPDEST PUSH1 0x7 DUP2 SWAP1 SSTORE POP POP POP POP POP POP POP POP PUSH3 0x2BE JUMP JUMPDEST PUSH1 0x0 DUP1 REVERT JUMPDEST PUSH1 0x0 DUP2 SWAP1 POP SWAP2 SWAP1 POP JUMP JUMPDEST PUSH3 0x116 DUP2 PUSH3 0x101 JUMP JUMPDEST DUP2 EQ PUSH3 0x122 JUMPI PUSH1 0x0 DUP1 REVERT JUMPDEST POP JUMP JUMPDEST PUSH1 0x0 DUP2 MLOAD SWAP1 POP PUSH3 0x136 DUP2 PUSH3 0x10B JUMP JUMPDEST SWAP3 SWAP2 POP POP JUMP JUMPDEST PUSH1 0x0 PUSH20 0xFFFFFFFFFFFFFFFFFFFFFFFFFFFFFFFFFFFFFFFF DUP3 AND SWAP1 POP SWAP2 SWAP1 POP JUMP JUMPDEST PUSH1 0x0 PUSH3 0x169 DUP3 PUSH3 0x13C JUMP JUMPDEST SWAP1 POP SWAP2 SWAP1 POP JUMP JUMPDEST PUSH3 0x17B DUP2 PUSH3 0x15C JUMP JUMPDEST DUP2 EQ PUSH3 0x187 JUMPI PUSH1 0x0 DUP1 REVERT JUMPDEST POP JUMP JUMPDEST PUSH1 0x0 DUP2 MLOAD SWAP1 POP PUSH3 0x19B DUP2 PUSH3 0x170 JUMP JUMPDEST SWAP3 SWAP2 POP POP JUMP JUMPDEST PUSH1 0x0 DUP1 PUSH1 0x0 DUP1 PUSH1 0x0 DUP1 PUSH1 0x0 PUSH1 0xE0 DUP9 DUP11 SUB SLT ISZERO PUSH3 0x1C3 JUMPI PUSH3 0x1C2 PUSH3 0xFC JUMP JUMPDEST JUMPDEST PUSH1 0x0 PUSH3 0x1D3 DUP11 DUP3 DUP12 ADD PUSH3 0x125 JUMP JUMPDEST SWAP8 POP POP PUSH1 0x20 PUSH3 0x1E6 DUP11 DUP3 DUP12 ADD PUSH3 0x125 JUMP JUMPDEST SWAP7 POP POP PUSH1 0x40 PUSH3 0x1F9 DUP11 DUP3 DUP12 ADD PUSH3 0x125 JUMP JUMPDEST SWAP6 POP POP PUSH1 0x60 PUSH3 0x20C DUP11 DUP3 DUP12 ADD PUSH3 0x125 JUMP JUMPDEST SWAP5 POP POP PUSH1 0x80 PUSH3 0x21F DUP11 DUP3 DUP12 ADD PUSH3 0x18A JUMP JUMPDEST SWAP4 POP POP PUSH1 0xA0 PUSH3 0x232 DUP11 DUP3 DUP12 ADD PUSH3 0x125 JUMP JUMPDEST SWAP3 POP POP PUSH1 0xC0 PUSH3 0x245 DUP11 DUP3 DUP12 ADD PUSH3 0x125 JUMP JUMPDEST SWAP2 POP POP SWAP3 SWAP6 SWAP9 SWAP2 SWAP5 SWAP8 POP SWAP3 SWAP6 POP JUMP JUMPDEST PUSH32 0x4E487B7100000000000000000000000000000000000000000000000000000000 PUSH1 0x0 MSTORE PUSH1 0x11 PUSH1 0x4 MSTORE PUSH1 0x24 PUSH1 0x0 REVERT JUMPDEST PUSH1 0x0 PUSH3 0x290 DUP3 PUSH3 0x101 JUMP JUMPDEST SWAP2 POP PUSH3 0x29D DUP4 PUSH3 0x101 JUMP JUMPDEST SWAP3 POP DUP3 DUP3 ADD SWAP1 POP DUP1 DUP3 GT ISZERO PUSH3 0x2B8 JUMPI PUSH3 0x2B7 PUSH3 0x254 JUMP JUMPDEST JUMPDEST SWAP3 SWAP2 POP POP JUMP JUMPDEST PUSH2 0x1809 DUP1 PUSH3 0x2CE PUSH1 0x0 CODECOPY PUSH1 0x0 RETURN INVALID PUSH1 0x80 PUSH1 0x40 MSTORE CALLVALUE DUP1 ISZERO PUSH2 0x10 JUMPI PUSH1 0x0 DUP1 REVERT JUMPDEST POP PUSH1 0x4 CALLDATASIZE LT PUSH2 0x100 JUMPI PUSH1 0x0 CALLDATALOAD PUSH1 0xE0 SHR DUP1 PUSH4 0x78E97925 GT PUSH2 0x97 JUMPI DUP1 PUSH4 0x977B055B GT PUSH2 0x66 JUMPI DUP1 PUSH4 0x977B055B EQ PUSH2 0x265 JUMPI DUP1 PUSH4 0xA035B1FE EQ PUSH2 0x283 JUMPI DUP1 PUSH4 0xE8307D00 EQ PUSH2 0x2A1 JUMPI DUP1 PUSH4 0xFC0C546A EQ PUSH2 0x2BD JUMPI PUSH2 0x100 JUMP JUMPDEST DUP1 PUSH4 0x78E97925 EQ PUSH2 0x1EF JUMPI DUP1 PUSH4 0x7E1C0C09 EQ PUSH2 0x20D JUMPI DUP1 PUSH4 0x8DA5CB5B EQ PUSH2 0x22B JUMPI DUP1 PUSH4 0x91B7F5ED EQ PUSH2 0x249 JUMPI PUSH2 0x100 JUMP JUMPDEST DUP1 PUSH4 0x3610724E GT PUSH2 0xD3 JUMPI DUP1 PUSH4 0x3610724E EQ PUSH2 0x18F JUMPI DUP1 PUSH4 0x3CCFD60B EQ PUSH2 0x1AB JUMPI DUP1 PUSH4 0x5ED9EBFC EQ PUSH2 0x1B5 JUMPI DUP1 PUSH4 0x71189742 EQ PUSH2 0x1D3 JUMPI PUSH2 0x100 JUMP JUMPDEST DUP1 PUSH4 0x12065FE0 EQ PUSH2 0x105 JUMPI DUP1 PUSH4 0x27E235E3 EQ PUSH2 0x123 JUMPI DUP1 PUSH4 0x3197CBB6 EQ PUSH2 0x153 JUMPI DUP1 PUSH4 0x33B5B62E EQ PUSH2 0x171 JUMPI JUMPDEST PUSH1 0x0 DUP1 REVERT JUMPDEST PUSH2 0x10D PUSH2 0x2DB JUMP JUMPDEST PUSH1 0x40 MLOAD PUSH2 0x11A SWAP2 SWAP1 PUSH2 0xCEA JUMP JUMPDEST PUSH1 0x40 MLOAD DUP1 SWAP2 SUB SWAP1 RETURN JUMPDEST PUSH2 0x13D PUSH1 0x4 DUP1 CALLDATASIZE SUB DUP2 ADD SWAP1 PUSH2 0x138 SWAP2 SWAP1 PUSH2 0xD68 JUMP JUMPDEST PUSH2 0x37E JUMP JUMPDEST PUSH1 0x40 MLOAD PUSH2 0x14A SWAP2 SWAP1 PUSH2 0xCEA JUMP JUMPDEST PUSH1 0x40 MLOAD DUP1 SWAP2 SUB SWAP1 RETURN JUMPDEST PUSH2 0x15B PUSH2 0x396 JUMP JUMPDEST PUSH1 0x40 MLOAD PUSH2 0x168 SWAP2 SWAP1 PUSH2 0xCEA JUMP JUMPDEST PUSH1 0x40 MLOAD DUP1 SWAP2 SUB SWAP1 RETURN JUMPDEST PUSH2 0x179 PUSH2 0x39C JUMP JUMPDEST PUSH1 0x40 MLOAD PUSH2 0x186 SWAP2 SWAP1 PUSH2 0xCEA JUMP JUMPDEST PUSH1 0x40 MLOAD DUP1 SWAP2 SUB SWAP1 RETURN JUMPDEST PUSH2 0x1A9 PUSH1 0x4 DUP1 CALLDATASIZE SUB DUP2 ADD SWAP1 PUSH2 0x1A4 SWAP2 SWAP1 PUSH2 0xDC1 JUMP JUMPDEST PUSH2 0x3A2 JUMP JUMPDEST STOP JUMPDEST PUSH2 0x1B3 PUSH2 0x75B JUMP JUMPDEST STOP JUMPDEST PUSH2 0x1BD PUSH2 0x9D5 JUMP JUMPDEST PUSH1 0x40 MLOAD PUSH2 0x1CA SWAP2 SWAP1 PUSH2 0xCEA JUMP JUMPDEST PUSH1 0x40 MLOAD DUP1 SWAP2 SUB SWAP1 RETURN JUMPDEST PUSH2 0x1ED PUSH1 0x4 DUP1 CALLDATASIZE SUB DUP2 ADD SWAP1 PUSH2 0x1E8 SWAP2 SWAP1 PUSH2 0xDC1 JUMP JUMPDEST PUSH2 0x9DB JUMP JUMPDEST STOP JUMPDEST PUSH2 0x1F7 PUSH2 0xAB7 JUMP JUMPDEST PUSH1 0x40 MLOAD PUSH2 0x204 SWAP2 SWAP1 PUSH2 0xCEA JUMP JUMPDEST PUSH1 0x40 MLOAD DUP1 SWAP2 SUB SWAP1 RETURN JUMPDEST PUSH2 0x215 PUSH2 0xABD JUMP JUMPDEST PUSH1 0x40 MLOAD PUSH2 0x222 SWAP2 SWAP1 PUSH2 0xCEA JUMP JUMPDEST PUSH1 0x40 MLOAD DUP1 SWAP2 SUB SWAP1 RETURN JUMPDEST PUSH2 0x233 PUSH2 0xAC3 JUMP JUMPDEST PUSH1 0x40 MLOAD PUSH2 0x240 SWAP2 SWAP1 PUSH2 0xDFD JUMP JUMPDEST PUSH1 0x40 MLOAD DUP1 SWAP2 SUB SWAP1 RETURN JUMPDEST PUSH2 0x263 PUSH1 0x4 DUP1 CALLDATASIZE SUB DUP2 ADD SWAP1 PUSH2 0x25E SWAP2 SWAP1 PUSH2 0xDC1 JUMP JUMPDEST PUSH2 0xAE7 JUMP JUMPDEST STOP JUMPDEST PUSH2 0x26D PUSH2 0xBC3 JUMP JUMPDEST PUSH1 0x40 MLOAD PUSH2 0x27A SWAP2 SWAP1 PUSH2 0xCEA JUMP JUMPDEST PUSH1 0x40 MLOAD DUP1 SWAP2 SUB SWAP1 RETURN JUMPDEST PUSH2 0x28B PUSH2 0xBC9 JUMP JUMPDEST PUSH1 0x40 MLOAD PUSH2 0x298 SWAP2 SWAP1 PUSH2 0xCEA JUMP JUMPDEST PUSH1 0x40 MLOAD DUP1 SWAP2 SUB SWAP1 RETURN JUMPDEST PUSH2 0x2BB PUSH1 0x4 DUP1 CALLDATASIZE SUB DUP2 ADD SWAP1 PUSH2 0x2B6 SWAP2 SWAP1 PUSH2 0xDC1 JUMP JUMPDEST PUSH2 0xBCF JUMP JUMPDEST STOP JUMPDEST PUSH2 0x2C5 PUSH2 0xCAB JUMP JUMPDEST PUSH1 0x40 MLOAD PUSH2 0x2D2 SWAP2 SWAP1 PUSH2 0xE77 JUMP JUMPDEST PUSH1 0x40 MLOAD DUP1 SWAP2 SUB SWAP1 RETURN JUMPDEST PUSH1 0x0 PUSH1 0x8 PUSH1 0x0 SWAP1 SLOAD SWAP1 PUSH2 0x100 EXP SWAP1 DIV PUSH20 0xFFFFFFFFFFFFFFFFFFFFFFFFFFFFFFFFFFFFFFFF AND PUSH20 0xFFFFFFFFFFFFFFFFFFFFFFFFFFFFFFFFFFFFFFFF AND PUSH4 0x70A08231 ADDRESS PUSH1 0x40 MLOAD DUP3 PUSH4 0xFFFFFFFF AND PUSH1 0xE0 SHL DUP2 MSTORE PUSH1 0x4 ADD PUSH2 0x338 SWAP2 SWAP1 PUSH2 0xDFD JUMP JUMPDEST PUSH1 0x20 PUSH1 0x40 MLOAD DUP1 DUP4 SUB DUP2 DUP7 GAS STATICCALL ISZERO DUP1 ISZERO PUSH2 0x355 JUMPI RETURNDATASIZE PUSH1 0x0 DUP1 RETURNDATACOPY RETURNDATASIZE PUSH1 0x0 REVERT JUMPDEST POP POP POP POP PUSH1 0x40 MLOAD RETURNDATASIZE PUSH1 0x1F NOT PUSH1 0x1F DUP3 ADD AND DUP3 ADD DUP1 PUSH1 0x40 MSTORE POP DUP2 ADD SWAP1 PUSH2 0x379 SWAP2 SWAP1 PUSH2 0xEA7 JUMP JUMPDEST SWAP1 POP SWAP1 JUMP JUMPDEST PUSH1 0x9 PUSH1 0x20 MSTORE DUP1 PUSH1 0x0 MSTORE PUSH1 0x40 PUSH1 0x0 KECCAK256 PUSH1 0x0 SWAP2 POP SWAP1 POP SLOAD DUP2 JUMP JUMPDEST PUSH1 0x7 SLOAD DUP2 JUMP JUMPDEST PUSH1 0x4 SLOAD DUP2 JUMP JUMPDEST PUSH1 0x6 SLOAD TIMESTAMP LT ISZERO PUSH2 0x3E7 JUMPI PUSH1 0x40 MLOAD PUSH32 0x8C379A000000000000000000000000000000000000000000000000000000000 DUP2 MSTORE PUSH1 0x4 ADD PUSH2 0x3DE SWAP1 PUSH2 0xF31 JUMP JUMPDEST PUSH1 0x40 MLOAD DUP1 SWAP2 SUB SWAP1 REVERT JUMPDEST PUSH1 0x7 SLOAD TIMESTAMP LT PUSH2 0x42B JUMPI PUSH1 0x40 MLOAD PUSH32 0x8C379A000000000000000000000000000000000000000000000000000000000 DUP2 MSTORE PUSH1 0x4 ADD PUSH2 0x422 SWAP1 PUSH2 0xF9D JUMP JUMPDEST PUSH1 0x40 MLOAD DUP1 SWAP2 SUB SWAP1 REVERT JUMPDEST PUSH1 0x4 SLOAD DUP2 LT ISZERO PUSH2 0x470 JUMPI PUSH1 0x40 MLOAD PUSH32 0x8C379A000000000000000000000000000000000000000000000000000000000 DUP2 MSTORE PUSH1 0x4 ADD PUSH2 0x467 SWAP1 PUSH2 0x102F JUMP JUMPDEST PUSH1 0x40 MLOAD DUP1 SWAP2 SUB SWAP1 REVERT JUMPDEST PUSH1 0x5 SLOAD DUP2 GT ISZERO PUSH2 0x4B5 JUMPI PUSH1 0x40 MLOAD PUSH32 0x8C379A000000000000000000000000000000000000000000000000000000000 DUP2 MSTORE PUSH1 0x4 ADD PUSH2 0x4AC SWAP1 PUSH2 0x10C1 JUMP JUMPDEST PUSH1 0x40 MLOAD DUP1 SWAP2 SUB SWAP1 REVERT JUMPDEST PUSH1 0x2 SLOAD DUP2 PUSH1 0x3 SLOAD PUSH2 0x4C6 SWAP2 SWAP1 PUSH2 0x1110 JUMP JUMPDEST GT ISZERO PUSH2 0x507 JUMPI PUSH1 0x40 MLOAD PUSH32 0x8C379A000000000000000000000000000000000000000000000000000000000 DUP2 MSTORE PUSH1 0x4 ADD PUSH2 0x4FE SWAP1 PUSH2 0x1190 JUMP JUMPDEST PUSH1 0x40 MLOAD DUP1 SWAP2 SUB SWAP1 REVERT JUMPDEST PUSH1 0x0 PUSH1 0x1 SLOAD DUP3 PUSH2 0x517 SWAP2 SWAP1 PUSH2 0x11B0 JUMP JUMPDEST SWAP1 POP DUP1 PUSH1 0x8 PUSH1 0x0 SWAP1 SLOAD SWAP1 PUSH2 0x100 EXP SWAP1 DIV PUSH20 0xFFFFFFFFFFFFFFFFFFFFFFFFFFFFFFFFFFFFFFFF AND PUSH20 0xFFFFFFFFFFFFFFFFFFFFFFFFFFFFFFFFFFFFFFFF AND PUSH4 0x70A08231 CALLER PUSH1 0x40 MLOAD DUP3 PUSH4 0xFFFFFFFF AND PUSH1 0xE0 SHL DUP2 MSTORE PUSH1 0x4 ADD PUSH2 0x575 SWAP2 SWAP1 PUSH2 0xDFD JUMP JUMPDEST PUSH1 0x20 PUSH1 0x40 MLOAD DUP1 DUP4 SUB DUP2 DUP7 GAS STATICCALL ISZERO DUP1 ISZERO PUSH2 0x592 JUMPI RETURNDATASIZE PUSH1 0x0 DUP1 RETURNDATACOPY RETURNDATASIZE PUSH1 0x0 REVERT JUMPDEST POP POP POP POP PUSH1 0x40 MLOAD RETURNDATASIZE PUSH1 0x1F NOT PUSH1 0x1F DUP3 ADD AND DUP3 ADD DUP1 PUSH1 0x40 MSTORE POP DUP2 ADD SWAP1 PUSH2 0x5B6 SWAP2 SWAP1 PUSH2 0xEA7 JUMP JUMPDEST LT ISZERO PUSH2 0x5F7 JUMPI PUSH1 0x40 MLOAD PUSH32 0x8C379A000000000000000000000000000000000000000000000000000000000 DUP2 MSTORE PUSH1 0x4 ADD PUSH2 0x5EE SWAP1 PUSH2 0x123E JUMP JUMPDEST PUSH1 0x40 MLOAD DUP1 SWAP2 SUB SWAP1 REVERT JUMPDEST PUSH1 0x8 PUSH1 0x0 SWAP1 SLOAD SWAP1 PUSH2 0x100 EXP SWAP1 DIV PUSH20 0xFFFFFFFFFFFFFFFFFFFFFFFFFFFFFFFFFFFFFFFF AND PUSH20 0xFFFFFFFFFFFFFFFFFFFFFFFFFFFFFFFFFFFFFFFF AND PUSH4 0x23B872DD CALLER ADDRESS DUP5 PUSH1 0x40 MLOAD DUP5 PUSH4 0xFFFFFFFF AND PUSH1 0xE0 SHL DUP2 MSTORE PUSH1 0x4 ADD PUSH2 0x656 SWAP4 SWAP3 SWAP2 SWAP1 PUSH2 0x125E JUMP JUMPDEST PUSH1 0x20 PUSH1 0x40 MLOAD DUP1 DUP4 SUB DUP2 PUSH1 0x0 DUP8 GAS CALL ISZERO DUP1 ISZERO PUSH2 0x675 JUMPI RETURNDATASIZE PUSH1 0x0 DUP1 RETURNDATACOPY RETURNDATASIZE PUSH1 0x0 REVERT JUMPDEST POP POP POP POP PUSH1 0x40 MLOAD RETURNDATASIZE PUSH1 0x1F NOT PUSH1 0x1F DUP3 ADD AND DUP3 ADD DUP1 PUSH1 0x40 MSTORE POP DUP2 ADD SWAP1 PUSH2 0x699 SWAP2 SWAP1 PUSH2 0x12CD JUMP JUMPDEST POP DUP2 PUSH1 0x9 PUSH1 0x0 CALLER PUSH20 0xFFFFFFFFFFFFFFFFFFFFFFFFFFFFFFFFFFFFFFFF AND PUSH20 0xFFFFFFFFFFFFFFFFFFFFFFFFFFFFFFFFFFFFFFFF AND DUP2 MSTORE PUSH1 0x20 ADD SWAP1 DUP2 MSTORE PUSH1 0x20 ADD PUSH1 0x0 KECCAK256 PUSH1 0x0 DUP3 DUP3 SLOAD PUSH2 0x6E9 SWAP2 SWAP1 PUSH2 0x1110 JUMP JUMPDEST SWAP3 POP POP DUP2 SWAP1 SSTORE POP DUP2 PUSH1 0x3 PUSH1 0x0 DUP3 DUP3 SLOAD PUSH2 0x702 SWAP2 SWAP1 PUSH2 0x1110 JUMP JUMPDEST SWAP3 POP POP DUP2 SWAP1 SSTORE POP CALLER PUSH20 0xFFFFFFFFFFFFFFFFFFFFFFFFFFFFFFFFFFFFFFFF AND PUSH32 0xE3D4187F6CA4248660CC0AC8B8056515BAC4A8132BE2ECA31D6D0CC170722A7E DUP4 PUSH1 0x40 MLOAD PUSH2 0x74F SWAP2 SWAP1 PUSH2 0xCEA JUMP JUMPDEST PUSH1 0x40 MLOAD DUP1 SWAP2 SUB SWAP1 LOG2 POP POP JUMP JUMPDEST PUSH1 0x0 DUP1 SLOAD SWAP1 PUSH2 0x100 EXP SWAP1 DIV PUSH20 0xFFFFFFFFFFFFFFFFFFFFFFFFFFFFFFFFFFFFFFFF AND PUSH20 0xFFFFFFFFFFFFFFFFFFFFFFFFFFFFFFFFFFFFFFFF AND CALLER PUSH20 0xFFFFFFFFFFFFFFFFFFFFFFFFFFFFFFFFFFFFFFFF AND EQ PUSH2 0x7E9 JUMPI PUSH1 0x40 MLOAD PUSH32 0x8C379A000000000000000000000000000000000000000000000000000000000 DUP2 MSTORE PUSH1 0x4 ADD PUSH2 0x7E0 SWAP1 PUSH2 0x1346 JUMP JUMPDEST PUSH1 0x40 MLOAD DUP1 SWAP2 SUB SWAP1 REVERT JUMPDEST PUSH1 0x7 SLOAD TIMESTAMP LT ISZERO PUSH2 0x82E JUMPI PUSH1 0x40 MLOAD PUSH32 0x8C379A000000000000000000000000000000000000000000000000000000000 DUP2 MSTORE PUSH1 0x4 ADD PUSH2 0x825 SWAP1 PUSH2 0x13D8 JUMP JUMPDEST PUSH1 0x40 MLOAD DUP1 SWAP2 SUB SWAP1 REVERT JUMPDEST PUSH1 0x0 PUSH1 0x8 PUSH1 0x0 SWAP1 SLOAD SWAP1 PUSH2 0x100 EXP SWAP1 DIV PUSH20 0xFFFFFFFFFFFFFFFFFFFFFFFFFFFFFFFFFFFFFFFF AND PUSH20 0xFFFFFFFFFFFFFFFFFFFFFFFFFFFFFFFFFFFFFFFF AND PUSH4 0x70A08231 ADDRESS PUSH1 0x40 MLOAD DUP3 PUSH4 0xFFFFFFFF AND PUSH1 0xE0 SHL DUP2 MSTORE PUSH1 0x4 ADD PUSH2 0x88B SWAP2 SWAP1 PUSH2 0xDFD JUMP JUMPDEST PUSH1 0x20 PUSH1 0x40 MLOAD DUP1 DUP4 SUB DUP2 DUP7 GAS STATICCALL ISZERO DUP1 ISZERO PUSH2 0x8A8 JUMPI RETURNDATASIZE PUSH1 0x0 DUP1 RETURNDATACOPY RETURNDATASIZE PUSH1 0x0 REVERT JUMPDEST POP POP POP POP PUSH1 0x40 MLOAD RETURNDATASIZE PUSH1 0x1F NOT PUSH1 0x1F DUP3 ADD AND DUP3 ADD DUP1 PUSH1 0x40 MSTORE POP DUP2 ADD SWAP1 PUSH2 0x8CC SWAP2 SWAP1 PUSH2 0xEA7 JUMP JUMPDEST SWAP1 POP PUSH1 0x0 DUP2 GT PUSH2 0x911 JUMPI PUSH1 0x40 MLOAD PUSH32 0x8C379A000000000000000000000000000000000000000000000000000000000 DUP2 MSTORE PUSH1 0x4 ADD PUSH2 0x908 SWAP1 PUSH2 0x1444 JUMP JUMPDEST PUSH1 0x40 MLOAD DUP1 SWAP2 SUB SWAP1 REVERT JUMPDEST PUSH1 0x8 PUSH1 0x0 SWAP1 SLOAD SWAP1 PUSH2 0x100 EXP SWAP1 DIV PUSH20 0xFFFFFFFFFFFFFFFFFFFFFFFFFFFFFFFFFFFFFFFF AND PUSH20 0xFFFFFFFFFFFFFFFFFFFFFFFFFFFFFFFFFFFFFFFF AND PUSH4 0xA9059CBB PUSH1 0x0 DUP1 SLOAD SWAP1 PUSH2 0x100 EXP SWAP1 DIV PUSH20 0xFFFFFFFFFFFFFFFFFFFFFFFFFFFFFFFFFFFFFFFF AND DUP4 PUSH1 0x40 MLOAD DUP4 PUSH4 0xFFFFFFFF AND PUSH1 0xE0 SHL DUP2 MSTORE PUSH1 0x4 ADD PUSH2 0x98E SWAP3 SWAP2 SWAP1 PUSH2 0x1464 JUMP JUMPDEST PUSH1 0x20 PUSH1 0x40 MLOAD DUP1 DUP4 SUB DUP2 PUSH1 0x0 DUP8 GAS CALL ISZERO DUP1 ISZERO PUSH2 0x9AD JUMPI RETURNDATASIZE PUSH1 0x0 DUP1 RETURNDATACOPY RETURNDATASIZE PUSH1 0x0 REVERT JUMPDEST POP POP POP POP PUSH1 0x40 MLOAD RETURNDATASIZE PUSH1 0x1F NOT PUSH1 0x1F DUP3 ADD AND DUP3 ADD DUP1 PUSH1 0x40 MSTORE POP DUP2 ADD SWAP1 PUSH2 0x9D1 SWAP2 SWAP1 PUSH2 0x12CD JUMP JUMPDEST POP POP JUMP JUMPDEST PUSH1 0x3 SLOAD DUP2 JUMP JUMPDEST PUSH1 0x0 DUP1 SLOAD SWAP1 PUSH2 0x100 EXP SWAP1 DIV PUSH20 0xFFFFFFFFFFFFFFFFFFFFFFFFFFFFFFFFFFFFFFFF AND PUSH20 0xFFFFFFFFFFFFFFFFFFFFFFFFFFFFFFFFFFFFFFFF AND CALLER PUSH20 0xFFFFFFFFFFFFFFFFFFFFFFFFFFFFFFFFFFFFFFFF AND EQ PUSH2 0xA69 JUMPI PUSH1 0x40 MLOAD PUSH32 0x8C379A000000000000000000000000000000000000000000000000000000000 DUP2 MSTORE PUSH1 0x4 ADD PUSH2 0xA60 SWAP1 PUSH2 0x14FF JUMP JUMPDEST PUSH1 0x40 MLOAD DUP1 SWAP2 SUB SWAP1 REVERT JUMPDEST PUSH1 0x6 SLOAD TIMESTAMP LT PUSH2 0xAAD JUMPI PUSH1 0x40 MLOAD PUSH32 0x8C379A000000000000000000000000000000000000000000000000000000000 DUP2 MSTORE PUSH1 0x4 ADD PUSH2 0xAA4 SWAP1 PUSH2 0x1591 JUMP JUMPDEST PUSH1 0x40 MLOAD DUP1 SWAP2 SUB SWAP1 REVERT JUMPDEST DUP1 PUSH1 0x5 DUP2 SWAP1 SSTORE POP POP JUMP JUMPDEST PUSH1 0x6 SLOAD DUP2 JUMP JUMPDEST PUSH1 0x2 SLOAD DUP2 JUMP JUMPDEST PUSH1 0x0 DUP1 SLOAD SWAP1 PUSH2 0x100 EXP SWAP1 DIV PUSH20 0xFFFFFFFFFFFFFFFFFFFFFFFFFFFFFFFFFFFFFFFF AND DUP2 JUMP JUMPDEST PUSH1 0x0 DUP1 SLOAD SWAP1 PUSH2 0x100 EXP SWAP1 DIV PUSH20 0xFFFFFFFFFFFFFFFFFFFFFFFFFFFFFFFFFFFFFFFF AND PUSH20 0xFFFFFFFFFFFFFFFFFFFFFFFFFFFFFFFFFFFFFFFF AND CALLER PUSH20 0xFFFFFFFFFFFFFFFFFFFFFFFFFFFFFFFFFFFFFFFF AND EQ PUSH2 0xB75 JUMPI PUSH1 0x40 MLOAD PUSH32 0x8C379A000000000000000000000000000000000000000000000000000000000 DUP2 MSTORE PUSH1 0x4 ADD PUSH2 0xB6C SWAP1 PUSH2 0x15FD JUMP JUMPDEST PUSH1 0x40 MLOAD DUP1 SWAP2 SUB SWAP1 REVERT JUMPDEST PUSH1 0x6 SLOAD TIMESTAMP LT PUSH2 0xBB9 JUMPI PUSH1 0x40 MLOAD PUSH32 0x8C379A000000000000000000000000000000000000000000000000000000000 DUP2 MSTORE PUSH1 0x4 ADD PUSH2 0xBB0 SWAP1 PUSH2 0x168F JUMP JUMPDEST PUSH1 0x40 MLOAD DUP1 SWAP2 SUB SWAP1 REVERT JUMPDEST DUP1 PUSH1 0x1 DUP2 SWAP1 SSTORE POP POP JUMP JUMPDEST PUSH1 0x5 SLOAD DUP2 JUMP JUMPDEST PUSH1 0x1 SLOAD DUP2 JUMP JUMPDEST PUSH1 0x0 DUP1 SLOAD SWAP1 PUSH2 0x100 EXP SWAP1 DIV PUSH20 0xFFFFFFFFFFFFFFFFFFFFFFFFFFFFFFFFFFFFFFFF AND PUSH20 0xFFFFFFFFFFFFFFFFFFFFFFFFFFFFFFFFFFFFFFFF AND CALLER PUSH20 0xFFFFFFFFFFFFFFFFFFFFFFFFFFFFFFFFFFFFFFFF AND EQ PUSH2 0xC5D JUMPI PUSH1 0x40 MLOAD PUSH32 0x8C379A000000000000000000000000000000000000000000000000000000000 DUP2 MSTORE PUSH1 0x4 ADD PUSH2 0xC54 SWAP1 PUSH2 0x1721 JUMP JUMPDEST PUSH1 0x40 MLOAD DUP1 SWAP2 SUB SWAP1 REVERT JUMPDEST PUSH1 0x6 SLOAD TIMESTAMP LT PUSH2 0xCA1 JUMPI PUSH1 0x40 MLOAD PUSH32 0x8C379A000000000000000000000000000000000000000000000000000000000 DUP2 MSTORE PUSH1 0x4 ADD PUSH2 0xC98 SWAP1 PUSH2 0x17B3 JUMP JUMPDEST PUSH1 0x40 MLOAD DUP1 SWAP2 SUB SWAP1 REVERT JUMPDEST DUP1 PUSH1 0x4 DUP2 SWAP1 SSTORE POP POP JUMP JUMPDEST PUSH1 0x8 PUSH1 0x0 SWAP1 SLOAD SWAP1 PUSH2 0x100 EXP SWAP1 DIV PUSH20 0xFFFFFFFFFFFFFFFFFFFFFFFFFFFFFFFFFFFFFFFF AND DUP2 JUMP JUMPDEST PUSH1 0x0 DUP2 SWAP1 POP SWAP2 SWAP1 POP JUMP JUMPDEST PUSH2 0xCE4 DUP2 PUSH2 0xCD1 JUMP JUMPDEST DUP3 MSTORE POP POP JUMP JUMPDEST PUSH1 0x0 PUSH1 0x20 DUP3 ADD SWAP1 POP PUSH2 0xCFF PUSH1 0x0 DUP4 ADD DUP5 PUSH2 0xCDB JUMP JUMPDEST SWAP3 SWAP2 POP POP JUMP JUMPDEST PUSH1 0x0 DUP1 REVERT JUMPDEST PUSH1 0x0 PUSH20 0xFFFFFFFFFFFFFFFFFFFFFFFFFFFFFFFFFFFFFFFF DUP3 AND SWAP1 POP SWAP2 SWAP1 POP JUMP JUMPDEST PUSH1 0x0 PUSH2 0xD35 DUP3 PUSH2 0xD0A JUMP JUMPDEST SWAP1 POP SWAP2 SWAP1 POP JUMP JUMPDEST PUSH2 0xD45 DUP2 PUSH2 0xD2A JUMP JUMPDEST DUP2 EQ PUSH2 0xD50 JUMPI PUSH1 0x0 DUP1 REVERT JUMPDEST POP JUMP JUMPDEST PUSH1 0x0 DUP2 CALLDATALOAD SWAP1 POP PUSH2 0xD62 DUP2 PUSH2 0xD3C JUMP JUMPDEST SWAP3 SWAP2 POP POP JUMP JUMPDEST PUSH1 0x0 PUSH1 0x20 DUP3 DUP5 SUB SLT ISZERO PUSH2 0xD7E JUMPI PUSH2 0xD7D PUSH2 0xD05 JUMP JUMPDEST JUMPDEST PUSH1 0x0 PUSH2 0xD8C DUP5 DUP3 DUP6 ADD PUSH2 0xD53 JUMP JUMPDEST SWAP2 POP POP SWAP3 SWAP2 POP POP JUMP JUMPDEST PUSH2 0xD9E DUP2 PUSH2 0xCD1 JUMP JUMPDEST DUP2 EQ PUSH2 0xDA9 JUMPI PUSH1 0x0 DUP1 REVERT JUMPDEST POP JUMP JUMPDEST PUSH1 0x0 DUP2 CALLDATALOAD SWAP1 POP PUSH2 0xDBB DUP2 PUSH2 0xD95 JUMP JUMPDEST SWAP3 SWAP2 POP POP JUMP JUMPDEST PUSH1 0x0 PUSH1 0x20 DUP3 DUP5 SUB SLT ISZERO PUSH2 0xDD7 JUMPI PUSH2 0xDD6 PUSH2 0xD05 JUMP JUMPDEST JUMPDEST PUSH1 0x0 PUSH2 0xDE5 DUP5 DUP3 DUP6 ADD PUSH2 0xDAC JUMP JUMPDEST SWAP2 POP POP SWAP3 SWAP2 POP POP JUMP JUMPDEST PUSH2 0xDF7 DUP2 PUSH2 0xD2A JUMP JUMPDEST DUP3 MSTORE POP POP JUMP JUMPDEST PUSH1 0x0 PUSH1 0x20 DUP3 ADD SWAP1 POP PUSH2 0xE12 PUSH1 0x0 DUP4 ADD DUP5 PUSH2 0xDEE JUMP JUMPDEST SWAP3 SWAP2 POP POP JUMP JUMPDEST PUSH1 0x0 DUP2 SWAP1 POP SWAP2 SWAP1 POP JUMP JUMPDEST PUSH1 0x0 PUSH2 0xE3D PUSH2 0xE38 PUSH2 0xE33 DUP5 PUSH2 0xD0A JUMP JUMPDEST PUSH2 0xE18 JUMP JUMPDEST PUSH2 0xD0A JUMP JUMPDEST SWAP1 POP SWAP2 SWAP1 POP JUMP JUMPDEST PUSH1 0x0 PUSH2 0xE4F DUP3 PUSH2 0xE22 JUMP JUMPDEST SWAP1 POP SWAP2 SWAP1 POP JUMP JUMPDEST PUSH1 0x0 PUSH2 0xE61 DUP3 PUSH2 0xE44 JUMP JUMPDEST SWAP1 POP SWAP2 SWAP1 POP JUMP JUMPDEST PUSH2 0xE71 DUP2 PUSH2 0xE56 JUMP JUMPDEST DUP3 MSTORE POP POP JUMP JUMPDEST PUSH1 0x0 PUSH1 0x20 DUP3 ADD SWAP1 POP PUSH2 0xE8C PUSH1 0x0 DUP4 ADD DUP5 PUSH2 0xE68 JUMP JUMPDEST SWAP3 SWAP2 POP POP JUMP JUMPDEST PUSH1 0x0 DUP2 MLOAD SWAP1 POP PUSH2 0xEA1 DUP2 PUSH2 0xD95 JUMP JUMPDEST SWAP3 SWAP2 POP POP JUMP JUMPDEST PUSH1 0x0 PUSH1 0x20 DUP3 DUP5 SUB SLT ISZERO PUSH2 0xEBD JUMPI PUSH2 0xEBC PUSH2 0xD05 JUMP JUMPDEST JUMPDEST PUSH1 0x0 PUSH2 0xECB DUP5 DUP3 DUP6 ADD PUSH2 0xE92 JUMP JUMPDEST SWAP2 POP POP SWAP3 SWAP2 POP POP JUMP JUMPDEST PUSH1 0x0 DUP3 DUP3 MSTORE PUSH1 0x20 DUP3 ADD SWAP1 POP SWAP3 SWAP2 POP POP JUMP JUMPDEST PUSH32 0x53616C6520686173206E6F742073746172746564207965740000000000000000 PUSH1 0x0 DUP3 ADD MSTORE POP JUMP JUMPDEST PUSH1 0x0 PUSH2 0xF1B PUSH1 0x18 DUP4 PUSH2 0xED4 JUMP JUMPDEST SWAP2 POP PUSH2 0xF26 DUP3 PUSH2 0xEE5 JUMP JUMPDEST PUSH1 0x20 DUP3 ADD SWAP1 POP SWAP2 SWAP1 POP JUMP JUMPDEST PUSH1 0x0 PUSH1 0x20 DUP3 ADD SWAP1 POP DUP2 DUP2 SUB PUSH1 0x0 DUP4 ADD MSTORE PUSH2 0xF4A DUP2 PUSH2 0xF0E JUMP JUMPDEST SWAP1 POP SWAP2 SWAP1 POP JUMP JUMPDEST PUSH32 0x53616C652068617320656E646564000000000000000000000000000000000000 PUSH1 0x0 DUP3 ADD MSTORE POP JUMP JUMPDEST PUSH1 0x0 PUSH2 0xF87 PUSH1 0xE DUP4 PUSH2 0xED4 JUMP JUMPDEST SWAP2 POP PUSH2 0xF92 DUP3 PUSH2 0xF51 JUMP JUMPDEST PUSH1 0x20 DUP3 ADD SWAP1 POP SWAP2 SWAP1 POP JUMP JUMPDEST PUSH1 0x0 PUSH1 0x20 DUP3 ADD SWAP1 POP DUP2 DUP2 SUB PUSH1 0x0 DUP4 ADD MSTORE PUSH2 0xFB6 DUP2 PUSH2 0xF7A JUMP JUMPDEST SWAP1 POP SWAP2 SWAP1 POP JUMP JUMPDEST PUSH32 0x416D6F756E74206973206C657373207468616E206D696E696D756D2070757263 PUSH1 0x0 DUP3 ADD MSTORE PUSH32 0x6861736500000000000000000000000000000000000000000000000000000000 PUSH1 0x20 DUP3 ADD MSTORE POP JUMP JUMPDEST PUSH1 0x0 PUSH2 0x1019 PUSH1 0x24 DUP4 PUSH2 0xED4 JUMP JUMPDEST SWAP2 POP PUSH2 0x1024 DUP3 PUSH2 0xFBD JUMP JUMPDEST PUSH1 0x40 DUP3 ADD SWAP1 POP SWAP2 SWAP1 POP JUMP JUMPDEST PUSH1 0x0 PUSH1 0x20 DUP3 ADD SWAP1 POP DUP2 DUP2 SUB PUSH1 0x0 DUP4 ADD MSTORE PUSH2 0x1048 DUP2 PUSH2 0x100C JUMP JUMPDEST SWAP1 POP SWAP2 SWAP1 POP JUMP JUMPDEST PUSH32 0x416D6F756E742069732067726561746572207468616E206D6178696D756D2070 PUSH1 0x0 DUP3 ADD MSTORE PUSH32 0x7572636861736500000000000000000000000000000000000000000000000000 PUSH1 0x20 DUP3 ADD MSTORE POP JUMP JUMPDEST PUSH1 0x0 PUSH2 0x10AB PUSH1 0x27 DUP4 PUSH2 0xED4 JUMP JUMPDEST SWAP2 POP PUSH2 0x10B6 DUP3 PUSH2 0x104F JUMP JUMPDEST PUSH1 0x40 DUP3 ADD SWAP1 POP SWAP2 SWAP1 POP JUMP JUMPDEST PUSH1 0x0 PUSH1 0x20 DUP3 ADD SWAP1 POP DUP2 DUP2 SUB PUSH1 0x0 DUP4 ADD MSTORE PUSH2 0x10DA DUP2 PUSH2 0x109E JUMP JUMPDEST SWAP1 POP SWAP2 SWAP1 POP JUMP JUMPDEST PUSH32 0x4E487B7100000000000000000000000000000000000000000000000000000000 PUSH1 0x0 MSTORE PUSH1 0x11 PUSH1 0x4 MSTORE PUSH1 0x24 PUSH1 0x0 REVERT JUMPDEST PUSH1 0x0 PUSH2 0x111B DUP3 PUSH2 0xCD1 JUMP JUMPDEST SWAP2 POP PUSH2 0x1126 DUP4 PUSH2 0xCD1 JUMP JUMPDEST SWAP3 POP DUP3 DUP3 ADD SWAP1 POP DUP1 DUP3 GT ISZERO PUSH2 0x113E JUMPI PUSH2 0x113D PUSH2 0x10E1 JUMP JUMPDEST JUMPDEST SWAP3 SWAP2 POP POP JUMP JUMPDEST PUSH32 0x4E6F7420656E6F75676820746F6B656E73206C65667420666F722073616C6500 PUSH1 0x0 DUP3 ADD MSTORE POP JUMP JUMPDEST PUSH1 0x0 PUSH2 0x117A PUSH1 0x1F DUP4 PUSH2 0xED4 JUMP JUMPDEST SWAP2 POP PUSH2 0x1185 DUP3 PUSH2 0x1144 JUMP JUMPDEST PUSH1 0x20 DUP3 ADD SWAP1 POP SWAP2 SWAP1 POP JUMP JUMPDEST PUSH1 0x0 PUSH1 0x20 DUP3 ADD SWAP1 POP DUP2 DUP2 SUB PUSH1 0x0 DUP4 ADD MSTORE PUSH2 0x11A9 DUP2 PUSH2 0x116D JUMP JUMPDEST SWAP1 POP SWAP2 SWAP1 POP JUMP JUMPDEST PUSH1 0x0 PUSH2 0x11BB DUP3 PUSH2 0xCD1 JUMP JUMPDEST SWAP2 POP PUSH2 0x11C6 DUP4 PUSH2 0xCD1 JUMP JUMPDEST SWAP3 POP DUP3 DUP3 MUL PUSH2 0x11D4 DUP2 PUSH2 0xCD1 JUMP JUMPDEST SWAP2 POP DUP3 DUP3 DIV DUP5 EQ DUP4 ISZERO OR PUSH2 0x11EB JUMPI PUSH2 0x11EA PUSH2 0x10E1 JUMP JUMPDEST JUMPDEST POP SWAP3 SWAP2 POP POP JUMP JUMPDEST PUSH32 0x4E6F7420656E6F7567682062616C616E636520746F2062757920746F6B656E73 PUSH1 0x0 DUP3 ADD MSTORE POP JUMP JUMPDEST PUSH1 0x0 PUSH2 0x1228 PUSH1 0x20 DUP4 PUSH2 0xED4 JUMP JUMPDEST SWAP2 POP PUSH2 0x1233 DUP3 PUSH2 0x11F2 JUMP JUMPDEST PUSH1 0x20 DUP3 ADD SWAP1 POP SWAP2 SWAP1 POP JUMP JUMPDEST PUSH1 0x0 PUSH1 0x20 DUP3 ADD SWAP1 POP DUP2 DUP2 SUB PUSH1 0x0 DUP4 ADD MSTORE PUSH2 0x1257 DUP2 PUSH2 0x121B JUMP JUMPDEST SWAP1 POP SWAP2 SWAP1 POP JUMP JUMPDEST PUSH1 0x0 PUSH1 0x60 DUP3 ADD SWAP1 POP PUSH2 0x1273 PUSH1 0x0 DUP4 ADD DUP7 PUSH2 0xDEE JUMP JUMPDEST PUSH2 0x1280 PUSH1 0x20 DUP4 ADD DUP6 PUSH2 0xDEE JUMP JUMPDEST PUSH2 0x128D PUSH1 0x40 DUP4 ADD DUP5 PUSH2 0xCDB JUMP JUMPDEST SWAP5 SWAP4 POP POP POP POP JUMP JUMPDEST PUSH1 0x0 DUP2 ISZERO ISZERO SWAP1 POP SWAP2 SWAP1 POP JUMP JUMPDEST PUSH2 0x12AA DUP2 PUSH2 0x1295 JUMP JUMPDEST DUP2 EQ PUSH2 0x12B5 JUMPI PUSH1 0x0 DUP1 REVERT JUMPDEST POP JUMP JUMPDEST PUSH1 0x0 DUP2 MLOAD SWAP1 POP PUSH2 0x12C7 DUP2 PUSH2 0x12A1 JUMP JUMPDEST SWAP3 SWAP2 POP POP JUMP JUMPDEST PUSH1 0x0 PUSH1 0x20 DUP3 DUP5 SUB SLT ISZERO PUSH2 0x12E3 JUMPI PUSH2 0x12E2 PUSH2 0xD05 JUMP JUMPDEST JUMPDEST PUSH1 0x0 PUSH2 0x12F1 DUP5 DUP3 DUP6 ADD PUSH2 0x12B8 JUMP JUMPDEST SWAP2 POP POP SWAP3 SWAP2 POP POP JUMP JUMPDEST PUSH32 0x4F6E6C79206F776E65722063616E207769746864726177000000000000000000 PUSH1 0x0 DUP3 ADD MSTORE POP JUMP JUMPDEST PUSH1 0x0 PUSH2 0x1330 PUSH1 0x17 DUP4 PUSH2 0xED4 JUMP JUMPDEST SWAP2 POP PUSH2 0x133B DUP3 PUSH2 0x12FA JUMP JUMPDEST PUSH1 0x20 DUP3 ADD SWAP1 POP SWAP2 SWAP1 POP JUMP JUMPDEST PUSH1 0x0 PUSH1 0x20 DUP3 ADD SWAP1 POP DUP2 DUP2 SUB PUSH1 0x0 DUP4 ADD MSTORE PUSH2 0x135F DUP2 PUSH2 0x1323 JUMP JUMPDEST SWAP1 POP SWAP2 SWAP1 POP JUMP JUMPDEST PUSH32 0x43616E6E6F7420776974686472617720756E74696C2073616C65206861732065 PUSH1 0x0 DUP3 ADD MSTORE PUSH32 0x6E64656400000000000000000000000000000000000000000000000000000000 PUSH1 0x20 DUP3 ADD MSTORE POP JUMP JUMPDEST PUSH1 0x0 PUSH2 0x13C2 PUSH1 0x24 DUP4 PUSH2 0xED4 JUMP JUMPDEST SWAP2 POP PUSH2 0x13CD DUP3 PUSH2 0x1366 JUMP JUMPDEST PUSH1 0x40 DUP3 ADD SWAP1 POP SWAP2 SWAP1 POP JUMP JUMPDEST PUSH1 0x0 PUSH1 0x20 DUP3 ADD SWAP1 POP DUP2 DUP2 SUB PUSH1 0x0 DUP4 ADD MSTORE PUSH2 0x13F1 DUP2 PUSH2 0x13B5 JUMP JUMPDEST SWAP1 POP SWAP2 SWAP1 POP JUMP JUMPDEST PUSH32 0x4E6F20746F6B656E7320746F2077697468647261770000000000000000000000 PUSH1 0x0 DUP3 ADD MSTORE POP JUMP JUMPDEST PUSH1 0x0 PUSH2 0x142E PUSH1 0x15 DUP4 PUSH2 0xED4 JUMP JUMPDEST SWAP2 POP PUSH2 0x1439 DUP3 PUSH2 0x13F8 JUMP JUMPDEST PUSH1 0x20 DUP3 ADD SWAP1 POP SWAP2 SWAP1 POP JUMP JUMPDEST PUSH1 0x0 PUSH1 0x20 DUP3 ADD SWAP1 POP DUP2 DUP2 SUB PUSH1 0x0 DUP4 ADD MSTORE PUSH2 0x145D DUP2 PUSH2 0x1421 JUMP JUMPDEST SWAP1 POP SWAP2 SWAP1 POP JUMP JUMPDEST PUSH1 0x0 PUSH1 0x40 DUP3 ADD SWAP1 POP PUSH2 0x1479 PUSH1 0x0 DUP4 ADD DUP6 PUSH2 0xDEE JUMP JUMPDEST PUSH2 0x1486 PUSH1 0x20 DUP4 ADD DUP5 PUSH2 0xCDB JUMP JUMPDEST SWAP4 SWAP3 POP POP POP JUMP JUMPDEST PUSH32 0x4F6E6C79206F776E65722063616E20736574206D6178696D756D207075726368 PUSH1 0x0 DUP3 ADD MSTORE PUSH32 0x6173650000000000000000000000000000000000000000000000000000000000 PUSH1 0x20 DUP3 ADD MSTORE POP JUMP JUMPDEST PUSH1 0x0 PUSH2 0x14E9 PUSH1 0x23 DUP4 PUSH2 0xED4 JUMP JUMPDEST SWAP2 POP PUSH2 0x14F4 DUP3 PUSH2 0x148D JUMP JUMPDEST PUSH1 0x40 DUP3 ADD SWAP1 POP SWAP2 SWAP1 POP JUMP JUMPDEST PUSH1 0x0 PUSH1 0x20 DUP3 ADD SWAP1 POP DUP2 DUP2 SUB PUSH1 0x0 DUP4 ADD MSTORE PUSH2 0x1518 DUP2 PUSH2 0x14DC JUMP JUMPDEST SWAP1 POP SWAP2 SWAP1 POP JUMP JUMPDEST PUSH32 0x43616E6E6F7420736574206D6178696D756D2070757263686173652061667465 PUSH1 0x0 DUP3 ADD MSTORE PUSH32 0x722073616C652068617320737461727465640000000000000000000000000000 PUSH1 0x20 DUP3 ADD MSTORE POP JUMP JUMPDEST PUSH1 0x0 PUSH2 0x157B PUSH1 0x32 DUP4 PUSH2 0xED4 JUMP JUMPDEST SWAP2 POP PUSH2 0x1586 DUP3 PUSH2 0x151F JUMP JUMPDEST PUSH1 0x40 DUP3 ADD SWAP1 POP SWAP2 SWAP1 POP JUMP JUMPDEST PUSH1 0x0 PUSH1 0x20 DUP3 ADD SWAP1 POP DUP2 DUP2 SUB PUSH1 0x0 DUP4 ADD MSTORE PUSH2 0x15AA DUP2 PUSH2 0x156E JUMP JUMPDEST SWAP1 POP SWAP2 SWAP1 POP JUMP JUMPDEST PUSH32 0x4F6E6C79206F776E65722063616E207365742070726963650000000000000000 PUSH1 0x0 DUP3 ADD MSTORE POP JUMP JUMPDEST PUSH1 0x0 PUSH2 0x15E7 PUSH1 0x18 DUP4 PUSH2 0xED4 JUMP JUMPDEST SWAP2 POP PUSH2 0x15F2 DUP3 PUSH2 0x15B1 JUMP JUMPDEST PUSH1 0x20 DUP3 ADD SWAP1 POP SWAP2 SWAP1 POP JUMP JUMPDEST PUSH1 0x0 PUSH1 0x20 DUP3 ADD SWAP1 POP DUP2 DUP2 SUB PUSH1 0x0 DUP4 ADD MSTORE PUSH2 0x1616 DUP2 PUSH2 0x15DA JUMP JUMPDEST SWAP1 POP SWAP2 SWAP1 POP JUMP JUMPDEST PUSH32 0x43616E6E6F74207365742070726963652061667465722073616C652068617320 PUSH1 0x0 DUP3 ADD MSTORE PUSH32 0x7374617274656400000000000000000000000000000000000000000000000000 PUSH1 0x20 DUP3 ADD MSTORE POP JUMP JUMPDEST PUSH1 0x0 PUSH2 0x1679 PUSH1 0x27 DUP4 PUSH2 0xED4 JUMP JUMPDEST SWAP2 POP PUSH2 0x1684 DUP3 PUSH2 0x161D JUMP JUMPDEST PUSH1 0x40 DUP3 ADD SWAP1 POP SWAP2 SWAP1 POP JUMP JUMPDEST PUSH1 0x0 PUSH1 0x20 DUP3 ADD SWAP1 POP DUP2 DUP2 SUB PUSH1 0x0 DUP4 ADD MSTORE PUSH2 0x16A8 DUP2 PUSH2 0x166C JUMP JUMPDEST SWAP1 POP SWAP2 SWAP1 POP JUMP JUMPDEST PUSH32 0x4F6E6C79206F776E65722063616E20736574206D696E696D756D207075726368 PUSH1 0x0 DUP3 ADD MSTORE PUSH32 0x6173650000000000000000000000000000000000000000000000000000000000 PUSH1 0x20 DUP3 ADD MSTORE POP JUMP JUMPDEST PUSH1 0x0 PUSH2 0x170B PUSH1 0x23 DUP4 PUSH2 0xED4 JUMP JUMPDEST SWAP2 POP PUSH2 0x1716 DUP3 PUSH2 0x16AF JUMP JUMPDEST PUSH1 0x40 DUP3 ADD SWAP1 POP SWAP2 SWAP1 POP JUMP JUMPDEST PUSH1 0x0 PUSH1 0x20 DUP3 ADD SWAP1 POP DUP2 DUP2 SUB PUSH1 0x0 DUP4 ADD MSTORE PUSH2 0x173A DUP2 PUSH2 0x16FE JUMP JUMPDEST SWAP1 POP SWAP2 SWAP1 POP JUMP JUMPDEST PUSH32 0x43616E6E6F7420736574206D696E696D756D2070757263686173652061667465 PUSH1 0x0 DUP3 ADD MSTORE PUSH32 0x722073616C652068617320737461727465640000000000000000000000000000 PUSH1 0x20 DUP3 ADD MSTORE POP JUMP JUMPDEST PUSH1 0x0 PUSH2 0x179D PUSH1 0x32 DUP4 PUSH2 0xED4 JUMP JUMPDEST SWAP2 POP PUSH2 0x17A8 DUP3 PUSH2 0x1741 JUMP JUMPDEST PUSH1 0x40 DUP3 ADD SWAP1 POP SWAP2 SWAP1 POP JUMP JUMPDEST PUSH1 0x0 PUSH1 0x20 DUP3 ADD SWAP1 POP DUP2 DUP2 SUB PUSH1 0x0 DUP4 ADD MSTORE PUSH2 0x17CC DUP2 PUSH2 0x1790 JUMP JUMPDEST SWAP1 POP SWAP2 SWAP1 POP JUMP INVALID LOG2 PUSH5 0x6970667358 0x22 SLT KECCAK256 PUSH21 0xBC9F05471BAEFE35E33060C5635DFC29341148F1A4 0xA6 BYTE DUP2 0xB1 DUP2 0xE8 0x28 PUSH12 0x4C3664736F6C634300081200 CALLER "
		},
		"gasEstimates": {
			"creation": {
				"codeDepositCost": "1230600",
				"executionCost": "infinite",
				"totalCost": "infinite"
			},
			"external": {
				"balances(address)": "2860",
				"buyTokens(uint256)": "infinite",
				"endTime()": "2497",
				"getBalance()": "infinite",
				"maxPurchase()": "2451",
				"minPurchase()": "2519",
				"owner()": "2578",
				"price()": "2473",
				"setMaxPurchase(uint256)": "26898",
				"setMinPurchase(uint256)": "26875",
				"setPrice(uint256)": "26898",
				"soldTokens()": "2496",
				"startTime()": "2452",
				"token()": "infinite",
				"totalTokens()": "2474",
				"withdraw()": "infinite"
			}
		},
		"methodIdentifiers": {
			"balances(address)": "27e235e3",
			"buyTokens(uint256)": "3610724e",
			"endTime()": "3197cbb6",
			"getBalance()": "12065fe0",
			"maxPurchase()": "977b055b",
			"minPurchase()": "33b5b62e",
			"owner()": "8da5cb5b",
			"price()": "a035b1fe",
			"setMaxPurchase(uint256)": "71189742",
			"setMinPurchase(uint256)": "e8307d00",
			"setPrice(uint256)": "91b7f5ed",
			"soldTokens()": "5ed9ebfc",
			"startTime()": "78e97925",
			"token()": "fc0c546a",
			"totalTokens()": "7e1c0c09",
			"withdraw()": "3ccfd60b"
		}
	},
	"abi": [
		{
			"inputs": [
				{
					"internalType": "uint256",
					"name": "_price",
					"type": "uint256"
				},
				{
					"internalType": "uint256",
					"name": "_totalTokens",
					"type": "uint256"
				},
				{
					"internalType": "uint256",
					"name": "_minPurchase",
					"type": "uint256"
				},
				{
					"internalType": "uint256",
					"name": "_maxPurchase",
					"type": "uint256"
				},
				{
					"internalType": "address",
					"name": "_token",
					"type": "address"
				},
				{
					"internalType": "uint256",
					"name": "_startTime",
					"type": "uint256"
				},
				{
					"internalType": "uint256",
					"name": "_duration",
					"type": "uint256"
				}
			],
			"stateMutability": "nonpayable",
			"type": "constructor"
		},
		{
			"anonymous": false,
			"inputs": [
				{
					"indexed": true,
					"internalType": "address",
					"name": "buyer",
					"type": "address"
				},
				{
					"indexed": false,
					"internalType": "uint256",
					"name": "amount",
					"type": "uint256"
				}
			],
			"name": "Buy",
			"type": "event"
		},
		{
			"inputs": [
				{
					"internalType": "address",
					"name": "",
					"type": "address"
				}
			],
			"name": "balances",
			"outputs": [
				{
					"internalType": "uint256",
					"name": "",
					"type": "uint256"
				}
			],
			"stateMutability": "view",
			"type": "function"
		},
		{
			"inputs": [
				{
					"internalType": "uint256",
					"name": "_amount",
					"type": "uint256"
				}
			],
			"name": "buyTokens",
			"outputs": [],
			"stateMutability": "nonpayable",
			"type": "function"
		},
		{
			"inputs": [],
			"name": "endTime",
			"outputs": [
				{
					"internalType": "uint256",
					"name": "",
					"type": "uint256"
				}
			],
			"stateMutability": "view",
			"type": "function"
		},
		{
			"inputs": [],
			"name": "getBalance",
			"outputs": [
				{
					"internalType": "uint256",
					"name": "",
					"type": "uint256"
				}
			],
			"stateMutability": "view",
			"type": "function"
		},
		{
			"inputs": [],
			"name": "maxPurchase",
			"outputs": [
				{
					"internalType": "uint256",
					"name": "",
					"type": "uint256"
				}
			],
			"stateMutability": "view",
			"type": "function"
		},
		{
			"inputs": [],
			"name": "minPurchase",
			"outputs": [
				{
					"internalType": "uint256",
					"name": "",
					"type": "uint256"
				}
			],
			"stateMutability": "view",
			"type": "function"
		},
		{
			"inputs": [],
			"name": "owner",
			"outputs": [
				{
					"internalType": "address",
					"name": "",
					"type": "address"
				}
			],
			"stateMutability": "view",
			"type": "function"
		},
		{
			"inputs": [],
			"name": "price",
			"outputs": [
				{
					"internalType": "uint256",
					"name": "",
					"type": "uint256"
				}
			],
			"stateMutability": "view",
			"type": "function"
		},
		{
			"inputs": [
				{
					"internalType": "uint256",
					"name": "_maxPurchase",
					"type": "uint256"
				}
			],
			"name": "setMaxPurchase",
			"outputs": [],
			"stateMutability": "nonpayable",
			"type": "function"
		},
		{
			"inputs": [
				{
					"internalType": "uint256",
					"name": "_minPurchase",
					"type": "uint256"
				}
			],
			"name": "setMinPurchase",
			"outputs": [],
			"stateMutability": "nonpayable",
			"type": "function"
		},
		{
			"inputs": [
				{
					"internalType": "uint256",
					"name": "_price",
					"type": "uint256"
				}
			],
			"name": "setPrice",
			"outputs": [],
			"stateMutability": "nonpayable",
			"type": "function"
		},
		{
			"inputs": [],
			"name": "soldTokens",
			"outputs": [
				{
					"internalType": "uint256",
					"name": "",
					"type": "uint256"
				}
			],
			"stateMutability": "view",
			"type": "function"
		},
		{
			"inputs": [],
			"name": "startTime",
			"outputs": [
				{
					"internalType": "uint256",
					"name": "",
					"type": "uint256"
				}
			],
			"stateMutability": "view",
			"type": "function"
		},
		{
			"inputs": [],
			"name": "token",
			"outputs": [
				{
					"internalType": "contract IERC20",
					"name": "",
					"type": "address"
				}
			],
			"stateMutability": "view",
			"type": "function"
		},
		{
			"inputs": [],
			"name": "totalTokens",
			"outputs": [
				{
					"internalType": "uint256",
					"name": "",
					"type": "uint256"
				}
			],
			"stateMutability": "view",
			"type": "function"
		},
		{
			"inputs": [],
			"name": "withdraw",
			"outputs": [],
			"stateMutability": "nonpayable",
			"type": "function"
		}
	]
}