{
	"data": {
		"bytecode": {
			"linkReferences": {},
			"object": "60806040523480156200001157600080fd5b5062000032620000266200003860201b60201c565b6200004060201b60201c565b62000104565b600033905090565b60008060009054906101000a900473ffffffffffffffffffffffffffffffffffffffff169050816000806101000a81548173ffffffffffffffffffffffffffffffffffffffff021916908373ffffffffffffffffffffffffffffffffffffffff1602179055508173ffffffffffffffffffffffffffffffffffffffff168173ffffffffffffffffffffffffffffffffffffffff167f8be0079c531659141344cd1fd0a4f28419497f9722a3daafe3b4186f6b6457e060405160405180910390a35050565b612c6e80620001146000396000f3fe6080604052600436106101cd5760003560e01c8063715018a6116100f7578063ace1741c11610095578063f2fde38b11610064578063f2fde38b14610644578063f3fef3a31461066d578063fa09e63014610696578063fb00f3fc146106bf576101cd565b8063ace1741c1461059a578063b81df742146105c5578063ded441c2146105f0578063e985e36714610619576101cd565b80638ce0b9d2116100d15780638ce0b9d2146104de5780638da5cb5b1461051b57806399b7703214610546578063a82524b21461056f576101cd565b8063715018a614610475578063757765f81461048c57806389e6ce1e146104b5576101cd565b80633f6f7ed61161016f57806363b201171161013e57806363b20117146103d857806368f8fc10146104035780636aa5b37f1461041f5780636bcedf9c1461044a576101cd565b80633f6f7ed61461031d578063444ad5ee146103465780635a2696ca1461036f5780635b10bd6a146103af576101cd565b8063226ac321116101ab578063226ac32114610275578063249b7c191461029e5780632c4e722e146102c95780633c00a36c146102f4576101cd565b80630fabdd44146101d2578063115ece4c146101fb578063204120bc14610238575b600080fd5b3480156101de57600080fd5b506101f960048036038101906101f49190611c80565b6106d6565b005b34801561020757600080fd5b50610222600480360381019061021d9190611d0b565b6106f3565b60405161022f9190611d5a565b60405180910390f35b34801561024457600080fd5b5061025f600480360381019061025a9190611d75565b6108b6565b60405161026c9190611d5a565b60405180910390f35b34801561028157600080fd5b5061029c60048036038101906102979190611d0b565b6108ce565b005b3480156102aa57600080fd5b506102b36109e3565b6040516102c09190611d5a565b60405180910390f35b3480156102d557600080fd5b506102de6109e9565b6040516102eb9190611d5a565b60405180910390f35b34801561030057600080fd5b5061031b60048036038101906103169190611c80565b6109ef565b005b34801561032957600080fd5b50610344600480360381019061033f9190611c80565b610a41565b005b34801561035257600080fd5b5061036d60048036038101906103689190611d0b565b610a53565b005b34801561037b57600080fd5b5061039660048036038101906103919190611d75565b610b34565b6040516103a69493929190611da2565b60405180910390f35b3480156103bb57600080fd5b506103d660048036038101906103d19190611c80565b610b92565b005b3480156103e457600080fd5b506103ed610bb8565b6040516103fa9190611d5a565b60405180910390f35b61041d60048036038101906104189190611d0b565b610bbe565b005b34801561042b57600080fd5b50610434610f87565b6040516104419190611d5a565b60405180910390f35b34801561045657600080fd5b5061045f610f8d565b60405161046c9190611d5a565b60405180910390f35b34801561048157600080fd5b5061048a610f93565b005b34801561049857600080fd5b506104b360048036038101906104ae9190611c80565b610fa7565b005b3480156104c157600080fd5b506104dc60048036038101906104d79190611d0b565b610fb9565b005b3480156104ea57600080fd5b5061050560048036038101906105009190611d75565b61127c565b6040516105129190611e02565b60405180910390f35b34801561052757600080fd5b5061053061129c565b60405161053d9190611e2c565b60405180910390f35b34801561055257600080fd5b5061056d60048036038101906105689190611c80565b6112c5565b005b34801561057b57600080fd5b506105846112d7565b6040516105919190611d5a565b60405180910390f35b3480156105a657600080fd5b506105af6112dd565b6040516105bc9190611d5a565b60405180910390f35b3480156105d157600080fd5b506105da6112e3565b6040516105e79190611d5a565b60405180910390f35b3480156105fc57600080fd5b5061061760048036038101906106129190611c80565b6112e9565b005b34801561062557600080fd5b5061062e611386565b60405161063b9190611e2c565b60405180910390f35b34801561065057600080fd5b5061066b60048036038101906106669190611d75565b6113ac565b005b34801561067957600080fd5b50610694600480360381019061068f9190611d0b565b61142f565b005b3480156106a257600080fd5b506106bd60048036038101906106b89190611d75565b6114f6565b005b3480156106cb57600080fd5b506106d461161a565b005b6106de611757565b80426106ea9190611e76565b600a8190555050565b600080600073ffffffffffffffffffffffffffffffffffffffff168473ffffffffffffffffffffffffffffffffffffffff161461087057600760008573ffffffffffffffffffffffffffffffffffffffff1673ffffffffffffffffffffffffffffffffffffffff16815260200190815260200160002060009054906101000a900460ff166107b6576040517f08c379a00000000000000000000000000000000000000000000000000000000081526004016107ad90611f07565b60405180910390fd5b6000600860008673ffffffffffffffffffffffffffffffffffffffff1673ffffffffffffffffffffffffffffffffffffffff1681526020019081526020016000205403610804576000610869565b600860008573ffffffffffffffffffffffffffffffffffffffff1673ffffffffffffffffffffffffffffffffffffffff16815260200190815260200160002054600354600a610853919061205a565b8461085e91906120a5565b6108689190612116565b5b90506108ac565b6000600154036108815760006108a9565b600154600354600a610893919061205a565b8461089e91906120a5565b6108a89190612116565b5b90505b8091505092915050565b60086020528060005260406000206000915090505481565b6108d6611757565b600760008373ffffffffffffffffffffffffffffffffffffffff1673ffffffffffffffffffffffffffffffffffffffff16815260200190815260200160002060009054906101000a900460ff16610962576040517f08c379a000000000000000000000000000000000000000000000000000000000815260040161095990611f07565b60405180910390fd5b80600860008473ffffffffffffffffffffffffffffffffffffffff1673ffffffffffffffffffffffffffffffffffffffff168152602001908152602001600020819055507fc2d539e6a806d81b0892f23b002d25b825425d13a98bb6f486438b6b7bc0ce3a82826040516109d7929190612147565b60405180910390a15050565b600a5481565b60015481565b6109f7611757565b3373ffffffffffffffffffffffffffffffffffffffff166108fc829081150290604051600060405180830381858888f19350505050158015610a3d573d6000803e3d6000fd5b5050565b610a49611757565b8060018190555050565b610a5b611757565b6001600760008473ffffffffffffffffffffffffffffffffffffffff1673ffffffffffffffffffffffffffffffffffffffff16815260200190815260200160002060006101000a81548160ff02191690831515021790555080600860008473ffffffffffffffffffffffffffffffffffffffff1673ffffffffffffffffffffffffffffffffffffffff168152602001908152602001600020819055507ff4c563a3ea86ff1f4275e8c207df0375a51963f2b831b7bf4da8be938d92876c8282604051610b28929190612147565b60405180910390a15050565b600080600080600154600860008773ffffffffffffffffffffffffffffffffffffffff1673ffffffffffffffffffffffffffffffffffffffff16815260200190815260200160002054600b54600a5493509350935093509193509193565b610b9a611757565b4260098190555080600954610baf9190611e76565b600a8190555050565b600b5481565b600954421015610c03576040517f08c379a0000000000000000000000000000000000000000000000000000000008152600401610bfa906121e2565b60405180910390fd5b600a544210610c47576040517f08c379a0000000000000000000000000000000000000000000000000000000008152600401610c3e9061224e565b60405180910390fd5b60008073ffffffffffffffffffffffffffffffffffffffff168373ffffffffffffffffffffffffffffffffffffffff1603610c8c57610c876000346106f3565b610c97565b610c9683836106f3565b5b905060045481600b54610caa9190611e76565b1115610ceb576040517f08c379a0000000000000000000000000000000000000000000000000000000008152600401610ce2906122e0565b60405180910390fd5b600073ffffffffffffffffffffffffffffffffffffffff168373ffffffffffffffffffffffffffffffffffffffff1603610db657600654811015610d64576040517f08c379a0000000000000000000000000000000000000000000000000000000008152600401610d5b90612372565b60405180910390fd5b610db13382600260009054906101000a900473ffffffffffffffffffffffffffffffffffffffff1673ffffffffffffffffffffffffffffffffffffffff166117d59092919063ffffffff16565b610f02565b600654811015610dfb576040517f08c379a0000000000000000000000000000000000000000000000000000000008152600401610df290612404565b60405180910390fd5b600760008473ffffffffffffffffffffffffffffffffffffffff1673ffffffffffffffffffffffffffffffffffffffff16815260200190815260200160002060009054906101000a900460ff16610e87576040517f08c379a0000000000000000000000000000000000000000000000000000000008152600401610e7e90611f07565b60405180910390fd5b610eb43330848673ffffffffffffffffffffffffffffffffffffffff1661185b909392919063ffffffff16565b610f013382600260009054906101000a900473ffffffffffffffffffffffffffffffffffffffff1673ffffffffffffffffffffffffffffffffffffffff166117d59092919063ffffffff16565b5b80600b6000828254610f149190611e76565b925050819055508273ffffffffffffffffffffffffffffffffffffffff163373ffffffffffffffffffffffffffffffffffffffff167fc244d500136edffae7025aaf7fbd7a07193ac544a1d0cc3132cf2a32452d340c8484604051610f7a929190612424565b60405180910390a3505050565b60055481565b60045481565b610f9b611757565b610fa560006118e4565b565b610faf611757565b8060058190555050565b610fc1611757565b600073ffffffffffffffffffffffffffffffffffffffff168273ffffffffffffffffffffffffffffffffffffffff1603611030576040517f08c379a0000000000000000000000000000000000000000000000000000000008152600401611027906124bf565b60405180910390fd5b60008111611073576040517f08c379a000000000000000000000000000000000000000000000000000000000815260040161106a90612551565b60405180910390fd5b81600260006101000a81548173ffffffffffffffffffffffffffffffffffffffff021916908373ffffffffffffffffffffffffffffffffffffffff160217905550600260009054906101000a900473ffffffffffffffffffffffffffffffffffffffff1673ffffffffffffffffffffffffffffffffffffffff1663313ce5676040518163ffffffff1660e01b8152600401602060405180830381865afa158015611121573d6000803e3d6000fd5b505050506040513d601f19601f8201168201806040525081019061114591906125aa565b60ff1660038190555061119d333083600260009054906101000a900473ffffffffffffffffffffffffffffffffffffffff1673ffffffffffffffffffffffffffffffffffffffff1661185b909392919063ffffffff16565b600260009054906101000a900473ffffffffffffffffffffffffffffffffffffffff1673ffffffffffffffffffffffffffffffffffffffff166370a08231306040518263ffffffff1660e01b81526004016111f89190611e2c565b602060405180830381865afa158015611215573d6000803e3d6000fd5b505050506040513d601f19601f8201168201806040525081019061123991906125ec565b6004819055507f03211f0a57d24f0b52e2e0573af5be089c5faadeb55f9b90591717b0a22f7e2a8282604051611270929190612147565b60405180910390a15050565b60076020528060005260406000206000915054906101000a900460ff1681565b60008060009054906101000a900473ffffffffffffffffffffffffffffffffffffffff16905090565b6112cd611757565b8060068190555050565b60095481565b60035481565b60065481565b6112f1611757565b600a54421015611336576040517f08c379a000000000000000000000000000000000000000000000000000000000815260040161132d9061268b565b60405180910390fd5b6113833382600260009054906101000a900473ffffffffffffffffffffffffffffffffffffffff1673ffffffffffffffffffffffffffffffffffffffff166117d59092919063ffffffff16565b50565b600260009054906101000a900473ffffffffffffffffffffffffffffffffffffffff1681565b6113b4611757565b600073ffffffffffffffffffffffffffffffffffffffff168173ffffffffffffffffffffffffffffffffffffffff1603611423576040517f08c379a000000000000000000000000000000000000000000000000000000000815260040161141a9061271d565b60405180910390fd5b61142c816118e4565b50565b611437611757565b600260009054906101000a900473ffffffffffffffffffffffffffffffffffffffff1673ffffffffffffffffffffffffffffffffffffffff168273ffffffffffffffffffffffffffffffffffffffff16036114c7576040517f08c379a00000000000000000000000000000000000000000000000000000000081526004016114be906127d5565b60405180910390fd5b6114f233828473ffffffffffffffffffffffffffffffffffffffff166117d59092919063ffffffff16565b5050565b6114fe611757565b600260009054906101000a900473ffffffffffffffffffffffffffffffffffffffff1673ffffffffffffffffffffffffffffffffffffffff168173ffffffffffffffffffffffffffffffffffffffff160361158e576040517f08c379a00000000000000000000000000000000000000000000000000000000081526004016115859061288d565b60405180910390fd5b60008173ffffffffffffffffffffffffffffffffffffffff166370a08231306040518263ffffffff1660e01b81526004016115c99190611e2c565b602060405180830381865afa1580156115e6573d6000803e3d6000fd5b505050506040513d601f19601f8201168201806040525081019061160a91906125ec565b9050611616828261142f565b5050565b611622611757565b600a54421015611667576040517f08c379a000000000000000000000000000000000000000000000000000000000815260040161165e9061268b565b60405180910390fd5b6000600260009054906101000a900473ffffffffffffffffffffffffffffffffffffffff1673ffffffffffffffffffffffffffffffffffffffff166370a08231306040518263ffffffff1660e01b81526004016116c49190611e2c565b602060405180830381865afa1580156116e1573d6000803e3d6000fd5b505050506040513d601f19601f8201168201806040525081019061170591906125ec565b90506117543382600260009054906101000a900473ffffffffffffffffffffffffffffffffffffffff1673ffffffffffffffffffffffffffffffffffffffff166117d59092919063ffffffff16565b50565b61175f6119a8565b73ffffffffffffffffffffffffffffffffffffffff1661177d61129c565b73ffffffffffffffffffffffffffffffffffffffff16146117d3576040517f08c379a00000000000000000000000000000000000000000000000000000000081526004016117ca906128f9565b60405180910390fd5b565b6118568363a9059cbb60e01b84846040516024016117f4929190612147565b604051602081830303815290604052907bffffffffffffffffffffffffffffffffffffffffffffffffffffffff19166020820180517bffffffffffffffffffffffffffffffffffffffffffffffffffffffff83818316178352505050506119b0565b505050565b6118de846323b872dd60e01b85858560405160240161187c93929190612919565b604051602081830303815290604052907bffffffffffffffffffffffffffffffffffffffffffffffffffffffff19166020820180517bffffffffffffffffffffffffffffffffffffffffffffffffffffffff83818316178352505050506119b0565b50505050565b60008060009054906101000a900473ffffffffffffffffffffffffffffffffffffffff169050816000806101000a81548173ffffffffffffffffffffffffffffffffffffffff021916908373ffffffffffffffffffffffffffffffffffffffff1602179055508173ffffffffffffffffffffffffffffffffffffffff168173ffffffffffffffffffffffffffffffffffffffff167f8be0079c531659141344cd1fd0a4f28419497f9722a3daafe3b4186f6b6457e060405160405180910390a35050565b600033905090565b6000611a12826040518060400160405280602081526020017f5361666545524332303a206c6f772d6c6576656c2063616c6c206661696c65648152508573ffffffffffffffffffffffffffffffffffffffff16611a789092919063ffffffff16565b9050600081511480611a34575080806020019051810190611a33919061297c565b5b611a73576040517f08c379a0000000000000000000000000000000000000000000000000000000008152600401611a6a90612a1b565b60405180910390fd5b505050565b6060611a878484600085611a90565b90509392505050565b606082471015611ad5576040517f08c379a0000000000000000000000000000000000000000000000000000000008152600401611acc90612aad565b60405180910390fd5b6000808673ffffffffffffffffffffffffffffffffffffffff168587604051611afe9190612b3e565b60006040518083038185875af1925050503d8060008114611b3b576040519150601f19603f3d011682016040523d82523d6000602084013e611b40565b606091505b5091509150611b5187838387611b5d565b92505050949350505050565b60608315611bbf576000835103611bb757611b7785611bd2565b611bb6576040517f08c379a0000000000000000000000000000000000000000000000000000000008152600401611bad90612ba1565b60405180910390fd5b5b829050611bca565b611bc98383611bf5565b5b949350505050565b6000808273ffffffffffffffffffffffffffffffffffffffff163b119050919050565b600082511115611c085781518083602001fd5b806040517f08c379a0000000000000000000000000000000000000000000000000000000008152600401611c3c9190612c16565b60405180910390fd5b600080fd5b6000819050919050565b611c5d81611c4a565b8114611c6857600080fd5b50565b600081359050611c7a81611c54565b92915050565b600060208284031215611c9657611c95611c45565b5b6000611ca484828501611c6b565b91505092915050565b600073ffffffffffffffffffffffffffffffffffffffff82169050919050565b6000611cd882611cad565b9050919050565b611ce881611ccd565b8114611cf357600080fd5b50565b600081359050611d0581611cdf565b92915050565b60008060408385031215611d2257611d21611c45565b5b6000611d3085828601611cf6565b9250506020611d4185828601611c6b565b9150509250929050565b611d5481611c4a565b82525050565b6000602082019050611d6f6000830184611d4b565b92915050565b600060208284031215611d8b57611d8a611c45565b5b6000611d9984828501611cf6565b91505092915050565b6000608082019050611db76000830187611d4b565b611dc46020830186611d4b565b611dd16040830185611d4b565b611dde6060830184611d4b565b95945050505050565b60008115159050919050565b611dfc81611de7565b82525050565b6000602082019050611e176000830184611df3565b92915050565b611e2681611ccd565b82525050565b6000602082019050611e416000830184611e1d565b92915050565b7f4e487b7100000000000000000000000000000000000000000000000000000000600052601160045260246000fd5b6000611e8182611c4a565b9150611e8c83611c4a565b9250828201905080821115611ea457611ea3611e47565b5b92915050565b600082825260208201905092915050565b7f50726573616c653a20546f6b656e206e6f742077686974656c69737465640000600082015250565b6000611ef1601e83611eaa565b9150611efc82611ebb565b602082019050919050565b60006020820190508181036000830152611f2081611ee4565b9050919050565b60008160011c9050919050565b6000808291508390505b6001851115611f7e57808604811115611f5a57611f59611e47565b5b6001851615611f695780820291505b8081029050611f7785611f27565b9450611f3e565b94509492505050565b600082611f975760019050612053565b81611fa55760009050612053565b8160018114611fbb5760028114611fc557611ff4565b6001915050612053565b60ff841115611fd757611fd6611e47565b5b8360020a915084821115611fee57611fed611e47565b5b50612053565b5060208310610133831016604e8410600b84101617156120295782820a90508381111561202457612023611e47565b5b612053565b6120368484846001611f34565b9250905081840481111561204d5761204c611e47565b5b81810290505b9392505050565b600061206582611c4a565b915061207083611c4a565b925061209d7fffffffffffffffffffffffffffffffffffffffffffffffffffffffffffffffff8484611f87565b905092915050565b60006120b082611c4a565b91506120bb83611c4a565b92508282026120c981611c4a565b915082820484148315176120e0576120df611e47565b5b5092915050565b7f4e487b7100000000000000000000000000000000000000000000000000000000600052601260045260246000fd5b600061212182611c4a565b915061212c83611c4a565b92508261213c5761213b6120e7565b5b828204905092915050565b600060408201905061215c6000830185611e1d565b6121696020830184611d4b565b9392505050565b7f50726573616c653a2050726573616c6520686173206e6f74207374617274656460008201527f2079657400000000000000000000000000000000000000000000000000000000602082015250565b60006121cc602483611eaa565b91506121d782612170565b604082019050919050565b600060208201905081810360008301526121fb816121bf565b9050919050565b7f50726573616c653a2050726573616c652068617320656e646564000000000000600082015250565b6000612238601a83611eaa565b915061224382612202565b602082019050919050565b600060208201905081810360008301526122678161222b565b9050919050565b7f50726573616c653a20546f74616c20546f6b656e2053616c652052656163686560008201527f6421000000000000000000000000000000000000000000000000000000000000602082015250565b60006122ca602283611eaa565b91506122d58261226e565b604082019050919050565b600060208201905081810360008301526122f9816122bd565b9050919050565b7f50726573616c653a20546f6b656e20616d6f756e742062656c6f77206d696e2060008201527f627579206c696d69740000000000000000000000000000000000000000000000602082015250565b600061235c602983611eaa565b915061236782612300565b604082019050919050565b6000602082019050818103600083015261238b8161234f565b9050919050565b7f50726573616c653a20416d6f756e742062656c6f77206d696e20627579206c6960008201527f6d69740000000000000000000000000000000000000000000000000000000000602082015250565b60006123ee602383611eaa565b91506123f982612392565b604082019050919050565b6000602082019050818103600083015261241d816123e1565b9050919050565b60006040820190506124396000830185611d4b565b6124466020830184611d4b565b9392505050565b7f50726573616c653a2053616c6520746f6b656e2063616e6e6f74206265207a6560008201527f726f206164647265737300000000000000000000000000000000000000000000602082015250565b60006124a9602a83611eaa565b91506124b48261244d565b604082019050919050565b600060208201905081810360008301526124d88161249c565b9050919050565b7f50726573616c653a20546f74616c20746f6b656e7320666f722073616c65206360008201527f616e6e6f74206265207a65726f00000000000000000000000000000000000000602082015250565b600061253b602d83611eaa565b9150612546826124df565b604082019050919050565b6000602082019050818103600083015261256a8161252e565b9050919050565b600060ff82169050919050565b61258781612571565b811461259257600080fd5b50565b6000815190506125a48161257e565b92915050565b6000602082840312156125c0576125bf611c45565b5b60006125ce84828501612595565b91505092915050565b6000815190506125e681611c54565b92915050565b60006020828403121561260257612601611c45565b5b6000612610848285016125d7565b91505092915050565b7f50726573616c653a2050726573616c6520686173206e6f7420656e646564207960008201527f6574000000000000000000000000000000000000000000000000000000000000602082015250565b6000612675602283611eaa565b915061268082612619565b604082019050919050565b600060208201905081810360008301526126a481612668565b9050919050565b7f4f776e61626c653a206e6577206f776e657220697320746865207a65726f206160008201527f6464726573730000000000000000000000000000000000000000000000000000602082015250565b6000612707602683611eaa565b9150612712826126ab565b604082019050919050565b60006020820190508181036000830152612736816126fa565b9050919050565b7f50726573616c653a2043616e6e6f742077697468647261772073616c6520746f60008201527f6b656e20776974682074686973206d6574686f642c207573652077697468647260208201527f617753616c65546f6b656e282920696e73746561640000000000000000000000604082015250565b60006127bf605583611eaa565b91506127ca8261273d565b606082019050919050565b600060208201905081810360008301526127ee816127b2565b9050919050565b7f50726573616c653a2043616e6e6f742077697468647261772073616c6520746f60008201527f6b656e20776974682074686973206d6574686f642c207573652077697468647260208201527f6177416c6c53616c65546f6b656e282920696e73746561640000000000000000604082015250565b6000612877605883611eaa565b9150612882826127f5565b606082019050919050565b600060208201905081810360008301526128a68161286a565b9050919050565b7f4f776e61626c653a2063616c6c6572206973206e6f7420746865206f776e6572600082015250565b60006128e3602083611eaa565b91506128ee826128ad565b602082019050919050565b60006020820190508181036000830152612912816128d6565b9050919050565b600060608201905061292e6000830186611e1d565b61293b6020830185611e1d565b6129486040830184611d4b565b949350505050565b61295981611de7565b811461296457600080fd5b50565b60008151905061297681612950565b92915050565b60006020828403121561299257612991611c45565b5b60006129a084828501612967565b91505092915050565b7f5361666545524332303a204552433230206f7065726174696f6e20646964206e60008201527f6f74207375636365656400000000000000000000000000000000000000000000602082015250565b6000612a05602a83611eaa565b9150612a10826129a9565b604082019050919050565b60006020820190508181036000830152612a34816129f8565b9050919050565b7f416464726573733a20696e73756666696369656e742062616c616e636520666f60008201527f722063616c6c0000000000000000000000000000000000000000000000000000602082015250565b6000612a97602683611eaa565b9150612aa282612a3b565b604082019050919050565b60006020820190508181036000830152612ac681612a8a565b9050919050565b600081519050919050565b600081905092915050565b60005b83811015612b01578082015181840152602081019050612ae6565b60008484015250505050565b6000612b1882612acd565b612b228185612ad8565b9350612b32818560208601612ae3565b80840191505092915050565b6000612b4a8284612b0d565b915081905092915050565b7f416464726573733a2063616c6c20746f206e6f6e2d636f6e7472616374000000600082015250565b6000612b8b601d83611eaa565b9150612b9682612b55565b602082019050919050565b60006020820190508181036000830152612bba81612b7e565b9050919050565b600081519050919050565b6000601f19601f8301169050919050565b6000612be882612bc1565b612bf28185611eaa565b9350612c02818560208601612ae3565b612c0b81612bcc565b840191505092915050565b60006020820190508181036000830152612c308184612bdd565b90509291505056fea2646970667358221220bade2095dc115a0bbad614d685e6db6e2153a409a5a515990d4558d8e51192e564736f6c63430008120033",
			"opcodes": "PUSH1 0x80 PUSH1 0x40 MSTORE CALLVALUE DUP1 ISZERO PUSH3 0x11 JUMPI PUSH1 0x0 DUP1 REVERT JUMPDEST POP PUSH3 0x32 PUSH3 0x26 PUSH3 0x38 PUSH1 0x20 SHL PUSH1 0x20 SHR JUMP JUMPDEST PUSH3 0x40 PUSH1 0x20 SHL PUSH1 0x20 SHR JUMP JUMPDEST PUSH3 0x104 JUMP JUMPDEST PUSH1 0x0 CALLER SWAP1 POP SWAP1 JUMP JUMPDEST PUSH1 0x0 DUP1 PUSH1 0x0 SWAP1 SLOAD SWAP1 PUSH2 0x100 EXP SWAP1 DIV PUSH20 0xFFFFFFFFFFFFFFFFFFFFFFFFFFFFFFFFFFFFFFFF AND SWAP1 POP DUP2 PUSH1 0x0 DUP1 PUSH2 0x100 EXP DUP2 SLOAD DUP2 PUSH20 0xFFFFFFFFFFFFFFFFFFFFFFFFFFFFFFFFFFFFFFFF MUL NOT AND SWAP1 DUP4 PUSH20 0xFFFFFFFFFFFFFFFFFFFFFFFFFFFFFFFFFFFFFFFF AND MUL OR SWAP1 SSTORE POP DUP2 PUSH20 0xFFFFFFFFFFFFFFFFFFFFFFFFFFFFFFFFFFFFFFFF AND DUP2 PUSH20 0xFFFFFFFFFFFFFFFFFFFFFFFFFFFFFFFFFFFFFFFF AND PUSH32 0x8BE0079C531659141344CD1FD0A4F28419497F9722A3DAAFE3B4186F6B6457E0 PUSH1 0x40 MLOAD PUSH1 0x40 MLOAD DUP1 SWAP2 SUB SWAP1 LOG3 POP POP JUMP JUMPDEST PUSH2 0x2C6E DUP1 PUSH3 0x114 PUSH1 0x0 CODECOPY PUSH1 0x0 RETURN INVALID PUSH1 0x80 PUSH1 0x40 MSTORE PUSH1 0x4 CALLDATASIZE LT PUSH2 0x1CD JUMPI PUSH1 0x0 CALLDATALOAD PUSH1 0xE0 SHR DUP1 PUSH4 0x715018A6 GT PUSH2 0xF7 JUMPI DUP1 PUSH4 0xACE1741C GT PUSH2 0x95 JUMPI DUP1 PUSH4 0xF2FDE38B GT PUSH2 0x64 JUMPI DUP1 PUSH4 0xF2FDE38B EQ PUSH2 0x644 JUMPI DUP1 PUSH4 0xF3FEF3A3 EQ PUSH2 0x66D JUMPI DUP1 PUSH4 0xFA09E630 EQ PUSH2 0x696 JUMPI DUP1 PUSH4 0xFB00F3FC EQ PUSH2 0x6BF JUMPI PUSH2 0x1CD JUMP JUMPDEST DUP1 PUSH4 0xACE1741C EQ PUSH2 0x59A JUMPI DUP1 PUSH4 0xB81DF742 EQ PUSH2 0x5C5 JUMPI DUP1 PUSH4 0xDED441C2 EQ PUSH2 0x5F0 JUMPI DUP1 PUSH4 0xE985E367 EQ PUSH2 0x619 JUMPI PUSH2 0x1CD JUMP JUMPDEST DUP1 PUSH4 0x8CE0B9D2 GT PUSH2 0xD1 JUMPI DUP1 PUSH4 0x8CE0B9D2 EQ PUSH2 0x4DE JUMPI DUP1 PUSH4 0x8DA5CB5B EQ PUSH2 0x51B JUMPI DUP1 PUSH4 0x99B77032 EQ PUSH2 0x546 JUMPI DUP1 PUSH4 0xA82524B2 EQ PUSH2 0x56F JUMPI PUSH2 0x1CD JUMP JUMPDEST DUP1 PUSH4 0x715018A6 EQ PUSH2 0x475 JUMPI DUP1 PUSH4 0x757765F8 EQ PUSH2 0x48C JUMPI DUP1 PUSH4 0x89E6CE1E EQ PUSH2 0x4B5 JUMPI PUSH2 0x1CD JUMP JUMPDEST DUP1 PUSH4 0x3F6F7ED6 GT PUSH2 0x16F JUMPI DUP1 PUSH4 0x63B20117 GT PUSH2 0x13E JUMPI DUP1 PUSH4 0x63B20117 EQ PUSH2 0x3D8 JUMPI DUP1 PUSH4 0x68F8FC10 EQ PUSH2 0x403 JUMPI DUP1 PUSH4 0x6AA5B37F EQ PUSH2 0x41F JUMPI DUP1 PUSH4 0x6BCEDF9C EQ PUSH2 0x44A JUMPI PUSH2 0x1CD JUMP JUMPDEST DUP1 PUSH4 0x3F6F7ED6 EQ PUSH2 0x31D JUMPI DUP1 PUSH4 0x444AD5EE EQ PUSH2 0x346 JUMPI DUP1 PUSH4 0x5A2696CA EQ PUSH2 0x36F JUMPI DUP1 PUSH4 0x5B10BD6A EQ PUSH2 0x3AF JUMPI PUSH2 0x1CD JUMP JUMPDEST DUP1 PUSH4 0x226AC321 GT PUSH2 0x1AB JUMPI DUP1 PUSH4 0x226AC321 EQ PUSH2 0x275 JUMPI DUP1 PUSH4 0x249B7C19 EQ PUSH2 0x29E JUMPI DUP1 PUSH4 0x2C4E722E EQ PUSH2 0x2C9 JUMPI DUP1 PUSH4 0x3C00A36C EQ PUSH2 0x2F4 JUMPI PUSH2 0x1CD JUMP JUMPDEST DUP1 PUSH4 0xFABDD44 EQ PUSH2 0x1D2 JUMPI DUP1 PUSH4 0x115ECE4C EQ PUSH2 0x1FB JUMPI DUP1 PUSH4 0x204120BC EQ PUSH2 0x238 JUMPI JUMPDEST PUSH1 0x0 DUP1 REVERT JUMPDEST CALLVALUE DUP1 ISZERO PUSH2 0x1DE JUMPI PUSH1 0x0 DUP1 REVERT JUMPDEST POP PUSH2 0x1F9 PUSH1 0x4 DUP1 CALLDATASIZE SUB DUP2 ADD SWAP1 PUSH2 0x1F4 SWAP2 SWAP1 PUSH2 0x1C80 JUMP JUMPDEST PUSH2 0x6D6 JUMP JUMPDEST STOP JUMPDEST CALLVALUE DUP1 ISZERO PUSH2 0x207 JUMPI PUSH1 0x0 DUP1 REVERT JUMPDEST POP PUSH2 0x222 PUSH1 0x4 DUP1 CALLDATASIZE SUB DUP2 ADD SWAP1 PUSH2 0x21D SWAP2 SWAP1 PUSH2 0x1D0B JUMP JUMPDEST PUSH2 0x6F3 JUMP JUMPDEST PUSH1 0x40 MLOAD PUSH2 0x22F SWAP2 SWAP1 PUSH2 0x1D5A JUMP JUMPDEST PUSH1 0x40 MLOAD DUP1 SWAP2 SUB SWAP1 RETURN JUMPDEST CALLVALUE DUP1 ISZERO PUSH2 0x244 JUMPI PUSH1 0x0 DUP1 REVERT JUMPDEST POP PUSH2 0x25F PUSH1 0x4 DUP1 CALLDATASIZE SUB DUP2 ADD SWAP1 PUSH2 0x25A SWAP2 SWAP1 PUSH2 0x1D75 JUMP JUMPDEST PUSH2 0x8B6 JUMP JUMPDEST PUSH1 0x40 MLOAD PUSH2 0x26C SWAP2 SWAP1 PUSH2 0x1D5A JUMP JUMPDEST PUSH1 0x40 MLOAD DUP1 SWAP2 SUB SWAP1 RETURN JUMPDEST CALLVALUE DUP1 ISZERO PUSH2 0x281 JUMPI PUSH1 0x0 DUP1 REVERT JUMPDEST POP PUSH2 0x29C PUSH1 0x4 DUP1 CALLDATASIZE SUB DUP2 ADD SWAP1 PUSH2 0x297 SWAP2 SWAP1 PUSH2 0x1D0B JUMP JUMPDEST PUSH2 0x8CE JUMP JUMPDEST STOP JUMPDEST CALLVALUE DUP1 ISZERO PUSH2 0x2AA JUMPI PUSH1 0x0 DUP1 REVERT JUMPDEST POP PUSH2 0x2B3 PUSH2 0x9E3 JUMP JUMPDEST PUSH1 0x40 MLOAD PUSH2 0x2C0 SWAP2 SWAP1 PUSH2 0x1D5A JUMP JUMPDEST PUSH1 0x40 MLOAD DUP1 SWAP2 SUB SWAP1 RETURN JUMPDEST CALLVALUE DUP1 ISZERO PUSH2 0x2D5 JUMPI PUSH1 0x0 DUP1 REVERT JUMPDEST POP PUSH2 0x2DE PUSH2 0x9E9 JUMP JUMPDEST PUSH1 0x40 MLOAD PUSH2 0x2EB SWAP2 SWAP1 PUSH2 0x1D5A JUMP JUMPDEST PUSH1 0x40 MLOAD DUP1 SWAP2 SUB SWAP1 RETURN JUMPDEST CALLVALUE DUP1 ISZERO PUSH2 0x300 JUMPI PUSH1 0x0 DUP1 REVERT JUMPDEST POP PUSH2 0x31B PUSH1 0x4 DUP1 CALLDATASIZE SUB DUP2 ADD SWAP1 PUSH2 0x316 SWAP2 SWAP1 PUSH2 0x1C80 JUMP JUMPDEST PUSH2 0x9EF JUMP JUMPDEST STOP JUMPDEST CALLVALUE DUP1 ISZERO PUSH2 0x329 JUMPI PUSH1 0x0 DUP1 REVERT JUMPDEST POP PUSH2 0x344 PUSH1 0x4 DUP1 CALLDATASIZE SUB DUP2 ADD SWAP1 PUSH2 0x33F SWAP2 SWAP1 PUSH2 0x1C80 JUMP JUMPDEST PUSH2 0xA41 JUMP JUMPDEST STOP JUMPDEST CALLVALUE DUP1 ISZERO PUSH2 0x352 JUMPI PUSH1 0x0 DUP1 REVERT JUMPDEST POP PUSH2 0x36D PUSH1 0x4 DUP1 CALLDATASIZE SUB DUP2 ADD SWAP1 PUSH2 0x368 SWAP2 SWAP1 PUSH2 0x1D0B JUMP JUMPDEST PUSH2 0xA53 JUMP JUMPDEST STOP JUMPDEST CALLVALUE DUP1 ISZERO PUSH2 0x37B JUMPI PUSH1 0x0 DUP1 REVERT JUMPDEST POP PUSH2 0x396 PUSH1 0x4 DUP1 CALLDATASIZE SUB DUP2 ADD SWAP1 PUSH2 0x391 SWAP2 SWAP1 PUSH2 0x1D75 JUMP JUMPDEST PUSH2 0xB34 JUMP JUMPDEST PUSH1 0x40 MLOAD PUSH2 0x3A6 SWAP5 SWAP4 SWAP3 SWAP2 SWAP1 PUSH2 0x1DA2 JUMP JUMPDEST PUSH1 0x40 MLOAD DUP1 SWAP2 SUB SWAP1 RETURN JUMPDEST CALLVALUE DUP1 ISZERO PUSH2 0x3BB JUMPI PUSH1 0x0 DUP1 REVERT JUMPDEST POP PUSH2 0x3D6 PUSH1 0x4 DUP1 CALLDATASIZE SUB DUP2 ADD SWAP1 PUSH2 0x3D1 SWAP2 SWAP1 PUSH2 0x1C80 JUMP JUMPDEST PUSH2 0xB92 JUMP JUMPDEST STOP JUMPDEST CALLVALUE DUP1 ISZERO PUSH2 0x3E4 JUMPI PUSH1 0x0 DUP1 REVERT JUMPDEST POP PUSH2 0x3ED PUSH2 0xBB8 JUMP JUMPDEST PUSH1 0x40 MLOAD PUSH2 0x3FA SWAP2 SWAP1 PUSH2 0x1D5A JUMP JUMPDEST PUSH1 0x40 MLOAD DUP1 SWAP2 SUB SWAP1 RETURN JUMPDEST PUSH2 0x41D PUSH1 0x4 DUP1 CALLDATASIZE SUB DUP2 ADD SWAP1 PUSH2 0x418 SWAP2 SWAP1 PUSH2 0x1D0B JUMP JUMPDEST PUSH2 0xBBE JUMP JUMPDEST STOP JUMPDEST CALLVALUE DUP1 ISZERO PUSH2 0x42B JUMPI PUSH1 0x0 DUP1 REVERT JUMPDEST POP PUSH2 0x434 PUSH2 0xF87 JUMP JUMPDEST PUSH1 0x40 MLOAD PUSH2 0x441 SWAP2 SWAP1 PUSH2 0x1D5A JUMP JUMPDEST PUSH1 0x40 MLOAD DUP1 SWAP2 SUB SWAP1 RETURN JUMPDEST CALLVALUE DUP1 ISZERO PUSH2 0x456 JUMPI PUSH1 0x0 DUP1 REVERT JUMPDEST POP PUSH2 0x45F PUSH2 0xF8D JUMP JUMPDEST PUSH1 0x40 MLOAD PUSH2 0x46C SWAP2 SWAP1 PUSH2 0x1D5A JUMP JUMPDEST PUSH1 0x40 MLOAD DUP1 SWAP2 SUB SWAP1 RETURN JUMPDEST CALLVALUE DUP1 ISZERO PUSH2 0x481 JUMPI PUSH1 0x0 DUP1 REVERT JUMPDEST POP PUSH2 0x48A PUSH2 0xF93 JUMP JUMPDEST STOP JUMPDEST CALLVALUE DUP1 ISZERO PUSH2 0x498 JUMPI PUSH1 0x0 DUP1 REVERT JUMPDEST POP PUSH2 0x4B3 PUSH1 0x4 DUP1 CALLDATASIZE SUB DUP2 ADD SWAP1 PUSH2 0x4AE SWAP2 SWAP1 PUSH2 0x1C80 JUMP JUMPDEST PUSH2 0xFA7 JUMP JUMPDEST STOP JUMPDEST CALLVALUE DUP1 ISZERO PUSH2 0x4C1 JUMPI PUSH1 0x0 DUP1 REVERT JUMPDEST POP PUSH2 0x4DC PUSH1 0x4 DUP1 CALLDATASIZE SUB DUP2 ADD SWAP1 PUSH2 0x4D7 SWAP2 SWAP1 PUSH2 0x1D0B JUMP JUMPDEST PUSH2 0xFB9 JUMP JUMPDEST STOP JUMPDEST CALLVALUE DUP1 ISZERO PUSH2 0x4EA JUMPI PUSH1 0x0 DUP1 REVERT JUMPDEST POP PUSH2 0x505 PUSH1 0x4 DUP1 CALLDATASIZE SUB DUP2 ADD SWAP1 PUSH2 0x500 SWAP2 SWAP1 PUSH2 0x1D75 JUMP JUMPDEST PUSH2 0x127C JUMP JUMPDEST PUSH1 0x40 MLOAD PUSH2 0x512 SWAP2 SWAP1 PUSH2 0x1E02 JUMP JUMPDEST PUSH1 0x40 MLOAD DUP1 SWAP2 SUB SWAP1 RETURN JUMPDEST CALLVALUE DUP1 ISZERO PUSH2 0x527 JUMPI PUSH1 0x0 DUP1 REVERT JUMPDEST POP PUSH2 0x530 PUSH2 0x129C JUMP JUMPDEST PUSH1 0x40 MLOAD PUSH2 0x53D SWAP2 SWAP1 PUSH2 0x1E2C JUMP JUMPDEST PUSH1 0x40 MLOAD DUP1 SWAP2 SUB SWAP1 RETURN JUMPDEST CALLVALUE DUP1 ISZERO PUSH2 0x552 JUMPI PUSH1 0x0 DUP1 REVERT JUMPDEST POP PUSH2 0x56D PUSH1 0x4 DUP1 CALLDATASIZE SUB DUP2 ADD SWAP1 PUSH2 0x568 SWAP2 SWAP1 PUSH2 0x1C80 JUMP JUMPDEST PUSH2 0x12C5 JUMP JUMPDEST STOP JUMPDEST CALLVALUE DUP1 ISZERO PUSH2 0x57B JUMPI PUSH1 0x0 DUP1 REVERT JUMPDEST POP PUSH2 0x584 PUSH2 0x12D7 JUMP JUMPDEST PUSH1 0x40 MLOAD PUSH2 0x591 SWAP2 SWAP1 PUSH2 0x1D5A JUMP JUMPDEST PUSH1 0x40 MLOAD DUP1 SWAP2 SUB SWAP1 RETURN JUMPDEST CALLVALUE DUP1 ISZERO PUSH2 0x5A6 JUMPI PUSH1 0x0 DUP1 REVERT JUMPDEST POP PUSH2 0x5AF PUSH2 0x12DD JUMP JUMPDEST PUSH1 0x40 MLOAD PUSH2 0x5BC SWAP2 SWAP1 PUSH2 0x1D5A JUMP JUMPDEST PUSH1 0x40 MLOAD DUP1 SWAP2 SUB SWAP1 RETURN JUMPDEST CALLVALUE DUP1 ISZERO PUSH2 0x5D1 JUMPI PUSH1 0x0 DUP1 REVERT JUMPDEST POP PUSH2 0x5DA PUSH2 0x12E3 JUMP JUMPDEST PUSH1 0x40 MLOAD PUSH2 0x5E7 SWAP2 SWAP1 PUSH2 0x1D5A JUMP JUMPDEST PUSH1 0x40 MLOAD DUP1 SWAP2 SUB SWAP1 RETURN JUMPDEST CALLVALUE DUP1 ISZERO PUSH2 0x5FC JUMPI PUSH1 0x0 DUP1 REVERT JUMPDEST POP PUSH2 0x617 PUSH1 0x4 DUP1 CALLDATASIZE SUB DUP2 ADD SWAP1 PUSH2 0x612 SWAP2 SWAP1 PUSH2 0x1C80 JUMP JUMPDEST PUSH2 0x12E9 JUMP JUMPDEST STOP JUMPDEST CALLVALUE DUP1 ISZERO PUSH2 0x625 JUMPI PUSH1 0x0 DUP1 REVERT JUMPDEST POP PUSH2 0x62E PUSH2 0x1386 JUMP JUMPDEST PUSH1 0x40 MLOAD PUSH2 0x63B SWAP2 SWAP1 PUSH2 0x1E2C JUMP JUMPDEST PUSH1 0x40 MLOAD DUP1 SWAP2 SUB SWAP1 RETURN JUMPDEST CALLVALUE DUP1 ISZERO PUSH2 0x650 JUMPI PUSH1 0x0 DUP1 REVERT JUMPDEST POP PUSH2 0x66B PUSH1 0x4 DUP1 CALLDATASIZE SUB DUP2 ADD SWAP1 PUSH2 0x666 SWAP2 SWAP1 PUSH2 0x1D75 JUMP JUMPDEST PUSH2 0x13AC JUMP JUMPDEST STOP JUMPDEST CALLVALUE DUP1 ISZERO PUSH2 0x679 JUMPI PUSH1 0x0 DUP1 REVERT JUMPDEST POP PUSH2 0x694 PUSH1 0x4 DUP1 CALLDATASIZE SUB DUP2 ADD SWAP1 PUSH2 0x68F SWAP2 SWAP1 PUSH2 0x1D0B JUMP JUMPDEST PUSH2 0x142F JUMP JUMPDEST STOP JUMPDEST CALLVALUE DUP1 ISZERO PUSH2 0x6A2 JUMPI PUSH1 0x0 DUP1 REVERT JUMPDEST POP PUSH2 0x6BD PUSH1 0x4 DUP1 CALLDATASIZE SUB DUP2 ADD SWAP1 PUSH2 0x6B8 SWAP2 SWAP1 PUSH2 0x1D75 JUMP JUMPDEST PUSH2 0x14F6 JUMP JUMPDEST STOP JUMPDEST CALLVALUE DUP1 ISZERO PUSH2 0x6CB JUMPI PUSH1 0x0 DUP1 REVERT JUMPDEST POP PUSH2 0x6D4 PUSH2 0x161A JUMP JUMPDEST STOP JUMPDEST PUSH2 0x6DE PUSH2 0x1757 JUMP JUMPDEST DUP1 TIMESTAMP PUSH2 0x6EA SWAP2 SWAP1 PUSH2 0x1E76 JUMP JUMPDEST PUSH1 0xA DUP2 SWAP1 SSTORE POP POP JUMP JUMPDEST PUSH1 0x0 DUP1 PUSH1 0x0 PUSH20 0xFFFFFFFFFFFFFFFFFFFFFFFFFFFFFFFFFFFFFFFF AND DUP5 PUSH20 0xFFFFFFFFFFFFFFFFFFFFFFFFFFFFFFFFFFFFFFFF AND EQ PUSH2 0x870 JUMPI PUSH1 0x7 PUSH1 0x0 DUP6 PUSH20 0xFFFFFFFFFFFFFFFFFFFFFFFFFFFFFFFFFFFFFFFF AND PUSH20 0xFFFFFFFFFFFFFFFFFFFFFFFFFFFFFFFFFFFFFFFF AND DUP2 MSTORE PUSH1 0x20 ADD SWAP1 DUP2 MSTORE PUSH1 0x20 ADD PUSH1 0x0 KECCAK256 PUSH1 0x0 SWAP1 SLOAD SWAP1 PUSH2 0x100 EXP SWAP1 DIV PUSH1 0xFF AND PUSH2 0x7B6 JUMPI PUSH1 0x40 MLOAD PUSH32 0x8C379A000000000000000000000000000000000000000000000000000000000 DUP2 MSTORE PUSH1 0x4 ADD PUSH2 0x7AD SWAP1 PUSH2 0x1F07 JUMP JUMPDEST PUSH1 0x40 MLOAD DUP1 SWAP2 SUB SWAP1 REVERT JUMPDEST PUSH1 0x0 PUSH1 0x8 PUSH1 0x0 DUP7 PUSH20 0xFFFFFFFFFFFFFFFFFFFFFFFFFFFFFFFFFFFFFFFF AND PUSH20 0xFFFFFFFFFFFFFFFFFFFFFFFFFFFFFFFFFFFFFFFF AND DUP2 MSTORE PUSH1 0x20 ADD SWAP1 DUP2 MSTORE PUSH1 0x20 ADD PUSH1 0x0 KECCAK256 SLOAD SUB PUSH2 0x804 JUMPI PUSH1 0x0 PUSH2 0x869 JUMP JUMPDEST PUSH1 0x8 PUSH1 0x0 DUP6 PUSH20 0xFFFFFFFFFFFFFFFFFFFFFFFFFFFFFFFFFFFFFFFF AND PUSH20 0xFFFFFFFFFFFFFFFFFFFFFFFFFFFFFFFFFFFFFFFF AND DUP2 MSTORE PUSH1 0x20 ADD SWAP1 DUP2 MSTORE PUSH1 0x20 ADD PUSH1 0x0 KECCAK256 SLOAD PUSH1 0x3 SLOAD PUSH1 0xA PUSH2 0x853 SWAP2 SWAP1 PUSH2 0x205A JUMP JUMPDEST DUP5 PUSH2 0x85E SWAP2 SWAP1 PUSH2 0x20A5 JUMP JUMPDEST PUSH2 0x868 SWAP2 SWAP1 PUSH2 0x2116 JUMP JUMPDEST JUMPDEST SWAP1 POP PUSH2 0x8AC JUMP JUMPDEST PUSH1 0x0 PUSH1 0x1 SLOAD SUB PUSH2 0x881 JUMPI PUSH1 0x0 PUSH2 0x8A9 JUMP JUMPDEST PUSH1 0x1 SLOAD PUSH1 0x3 SLOAD PUSH1 0xA PUSH2 0x893 SWAP2 SWAP1 PUSH2 0x205A JUMP JUMPDEST DUP5 PUSH2 0x89E SWAP2 SWAP1 PUSH2 0x20A5 JUMP JUMPDEST PUSH2 0x8A8 SWAP2 SWAP1 PUSH2 0x2116 JUMP JUMPDEST JUMPDEST SWAP1 POP JUMPDEST DUP1 SWAP2 POP POP SWAP3 SWAP2 POP POP JUMP JUMPDEST PUSH1 0x8 PUSH1 0x20 MSTORE DUP1 PUSH1 0x0 MSTORE PUSH1 0x40 PUSH1 0x0 KECCAK256 PUSH1 0x0 SWAP2 POP SWAP1 POP SLOAD DUP2 JUMP JUMPDEST PUSH2 0x8D6 PUSH2 0x1757 JUMP JUMPDEST PUSH1 0x7 PUSH1 0x0 DUP4 PUSH20 0xFFFFFFFFFFFFFFFFFFFFFFFFFFFFFFFFFFFFFFFF AND PUSH20 0xFFFFFFFFFFFFFFFFFFFFFFFFFFFFFFFFFFFFFFFF AND DUP2 MSTORE PUSH1 0x20 ADD SWAP1 DUP2 MSTORE PUSH1 0x20 ADD PUSH1 0x0 KECCAK256 PUSH1 0x0 SWAP1 SLOAD SWAP1 PUSH2 0x100 EXP SWAP1 DIV PUSH1 0xFF AND PUSH2 0x962 JUMPI PUSH1 0x40 MLOAD PUSH32 0x8C379A000000000000000000000000000000000000000000000000000000000 DUP2 MSTORE PUSH1 0x4 ADD PUSH2 0x959 SWAP1 PUSH2 0x1F07 JUMP JUMPDEST PUSH1 0x40 MLOAD DUP1 SWAP2 SUB SWAP1 REVERT JUMPDEST DUP1 PUSH1 0x8 PUSH1 0x0 DUP5 PUSH20 0xFFFFFFFFFFFFFFFFFFFFFFFFFFFFFFFFFFFFFFFF AND PUSH20 0xFFFFFFFFFFFFFFFFFFFFFFFFFFFFFFFFFFFFFFFF AND DUP2 MSTORE PUSH1 0x20 ADD SWAP1 DUP2 MSTORE PUSH1 0x20 ADD PUSH1 0x0 KECCAK256 DUP2 SWAP1 SSTORE POP PUSH32 0xC2D539E6A806D81B0892F23B002D25B825425D13A98BB6F486438B6B7BC0CE3A DUP3 DUP3 PUSH1 0x40 MLOAD PUSH2 0x9D7 SWAP3 SWAP2 SWAP1 PUSH2 0x2147 JUMP JUMPDEST PUSH1 0x40 MLOAD DUP1 SWAP2 SUB SWAP1 LOG1 POP POP JUMP JUMPDEST PUSH1 0xA SLOAD DUP2 JUMP JUMPDEST PUSH1 0x1 SLOAD DUP2 JUMP JUMPDEST PUSH2 0x9F7 PUSH2 0x1757 JUMP JUMPDEST CALLER PUSH20 0xFFFFFFFFFFFFFFFFFFFFFFFFFFFFFFFFFFFFFFFF AND PUSH2 0x8FC DUP3 SWAP1 DUP2 ISZERO MUL SWAP1 PUSH1 0x40 MLOAD PUSH1 0x0 PUSH1 0x40 MLOAD DUP1 DUP4 SUB DUP2 DUP6 DUP9 DUP9 CALL SWAP4 POP POP POP POP ISZERO DUP1 ISZERO PUSH2 0xA3D JUMPI RETURNDATASIZE PUSH1 0x0 DUP1 RETURNDATACOPY RETURNDATASIZE PUSH1 0x0 REVERT JUMPDEST POP POP JUMP JUMPDEST PUSH2 0xA49 PUSH2 0x1757 JUMP JUMPDEST DUP1 PUSH1 0x1 DUP2 SWAP1 SSTORE POP POP JUMP JUMPDEST PUSH2 0xA5B PUSH2 0x1757 JUMP JUMPDEST PUSH1 0x1 PUSH1 0x7 PUSH1 0x0 DUP5 PUSH20 0xFFFFFFFFFFFFFFFFFFFFFFFFFFFFFFFFFFFFFFFF AND PUSH20 0xFFFFFFFFFFFFFFFFFFFFFFFFFFFFFFFFFFFFFFFF AND DUP2 MSTORE PUSH1 0x20 ADD SWAP1 DUP2 MSTORE PUSH1 0x20 ADD PUSH1 0x0 KECCAK256 PUSH1 0x0 PUSH2 0x100 EXP DUP2 SLOAD DUP2 PUSH1 0xFF MUL NOT AND SWAP1 DUP4 ISZERO ISZERO MUL OR SWAP1 SSTORE POP DUP1 PUSH1 0x8 PUSH1 0x0 DUP5 PUSH20 0xFFFFFFFFFFFFFFFFFFFFFFFFFFFFFFFFFFFFFFFF AND PUSH20 0xFFFFFFFFFFFFFFFFFFFFFFFFFFFFFFFFFFFFFFFF AND DUP2 MSTORE PUSH1 0x20 ADD SWAP1 DUP2 MSTORE PUSH1 0x20 ADD PUSH1 0x0 KECCAK256 DUP2 SWAP1 SSTORE POP PUSH32 0xF4C563A3EA86FF1F4275E8C207DF0375A51963F2B831B7BF4DA8BE938D92876C DUP3 DUP3 PUSH1 0x40 MLOAD PUSH2 0xB28 SWAP3 SWAP2 SWAP1 PUSH2 0x2147 JUMP JUMPDEST PUSH1 0x40 MLOAD DUP1 SWAP2 SUB SWAP1 LOG1 POP POP JUMP JUMPDEST PUSH1 0x0 DUP1 PUSH1 0x0 DUP1 PUSH1 0x1 SLOAD PUSH1 0x8 PUSH1 0x0 DUP8 PUSH20 0xFFFFFFFFFFFFFFFFFFFFFFFFFFFFFFFFFFFFFFFF AND PUSH20 0xFFFFFFFFFFFFFFFFFFFFFFFFFFFFFFFFFFFFFFFF AND DUP2 MSTORE PUSH1 0x20 ADD SWAP1 DUP2 MSTORE PUSH1 0x20 ADD PUSH1 0x0 KECCAK256 SLOAD PUSH1 0xB SLOAD PUSH1 0xA SLOAD SWAP4 POP SWAP4 POP SWAP4 POP SWAP4 POP SWAP2 SWAP4 POP SWAP2 SWAP4 JUMP JUMPDEST PUSH2 0xB9A PUSH2 0x1757 JUMP JUMPDEST TIMESTAMP PUSH1 0x9 DUP2 SWAP1 SSTORE POP DUP1 PUSH1 0x9 SLOAD PUSH2 0xBAF SWAP2 SWAP1 PUSH2 0x1E76 JUMP JUMPDEST PUSH1 0xA DUP2 SWAP1 SSTORE POP POP JUMP JUMPDEST PUSH1 0xB SLOAD DUP2 JUMP JUMPDEST PUSH1 0x9 SLOAD TIMESTAMP LT ISZERO PUSH2 0xC03 JUMPI PUSH1 0x40 MLOAD PUSH32 0x8C379A000000000000000000000000000000000000000000000000000000000 DUP2 MSTORE PUSH1 0x4 ADD PUSH2 0xBFA SWAP1 PUSH2 0x21E2 JUMP JUMPDEST PUSH1 0x40 MLOAD DUP1 SWAP2 SUB SWAP1 REVERT JUMPDEST PUSH1 0xA SLOAD TIMESTAMP LT PUSH2 0xC47 JUMPI PUSH1 0x40 MLOAD PUSH32 0x8C379A000000000000000000000000000000000000000000000000000000000 DUP2 MSTORE PUSH1 0x4 ADD PUSH2 0xC3E SWAP1 PUSH2 0x224E JUMP JUMPDEST PUSH1 0x40 MLOAD DUP1 SWAP2 SUB SWAP1 REVERT JUMPDEST PUSH1 0x0 DUP1 PUSH20 0xFFFFFFFFFFFFFFFFFFFFFFFFFFFFFFFFFFFFFFFF AND DUP4 PUSH20 0xFFFFFFFFFFFFFFFFFFFFFFFFFFFFFFFFFFFFFFFF AND SUB PUSH2 0xC8C JUMPI PUSH2 0xC87 PUSH1 0x0 CALLVALUE PUSH2 0x6F3 JUMP JUMPDEST PUSH2 0xC97 JUMP JUMPDEST PUSH2 0xC96 DUP4 DUP4 PUSH2 0x6F3 JUMP JUMPDEST JUMPDEST SWAP1 POP PUSH1 0x4 SLOAD DUP2 PUSH1 0xB SLOAD PUSH2 0xCAA SWAP2 SWAP1 PUSH2 0x1E76 JUMP JUMPDEST GT ISZERO PUSH2 0xCEB JUMPI PUSH1 0x40 MLOAD PUSH32 0x8C379A000000000000000000000000000000000000000000000000000000000 DUP2 MSTORE PUSH1 0x4 ADD PUSH2 0xCE2 SWAP1 PUSH2 0x22E0 JUMP JUMPDEST PUSH1 0x40 MLOAD DUP1 SWAP2 SUB SWAP1 REVERT JUMPDEST PUSH1 0x0 PUSH20 0xFFFFFFFFFFFFFFFFFFFFFFFFFFFFFFFFFFFFFFFF AND DUP4 PUSH20 0xFFFFFFFFFFFFFFFFFFFFFFFFFFFFFFFFFFFFFFFF AND SUB PUSH2 0xDB6 JUMPI PUSH1 0x6 SLOAD DUP2 LT ISZERO PUSH2 0xD64 JUMPI PUSH1 0x40 MLOAD PUSH32 0x8C379A000000000000000000000000000000000000000000000000000000000 DUP2 MSTORE PUSH1 0x4 ADD PUSH2 0xD5B SWAP1 PUSH2 0x2372 JUMP JUMPDEST PUSH1 0x40 MLOAD DUP1 SWAP2 SUB SWAP1 REVERT JUMPDEST PUSH2 0xDB1 CALLER DUP3 PUSH1 0x2 PUSH1 0x0 SWAP1 SLOAD SWAP1 PUSH2 0x100 EXP SWAP1 DIV PUSH20 0xFFFFFFFFFFFFFFFFFFFFFFFFFFFFFFFFFFFFFFFF AND PUSH20 0xFFFFFFFFFFFFFFFFFFFFFFFFFFFFFFFFFFFFFFFF AND PUSH2 0x17D5 SWAP1 SWAP3 SWAP2 SWAP1 PUSH4 0xFFFFFFFF AND JUMP JUMPDEST PUSH2 0xF02 JUMP JUMPDEST PUSH1 0x6 SLOAD DUP2 LT ISZERO PUSH2 0xDFB JUMPI PUSH1 0x40 MLOAD PUSH32 0x8C379A000000000000000000000000000000000000000000000000000000000 DUP2 MSTORE PUSH1 0x4 ADD PUSH2 0xDF2 SWAP1 PUSH2 0x2404 JUMP JUMPDEST PUSH1 0x40 MLOAD DUP1 SWAP2 SUB SWAP1 REVERT JUMPDEST PUSH1 0x7 PUSH1 0x0 DUP5 PUSH20 0xFFFFFFFFFFFFFFFFFFFFFFFFFFFFFFFFFFFFFFFF AND PUSH20 0xFFFFFFFFFFFFFFFFFFFFFFFFFFFFFFFFFFFFFFFF AND DUP2 MSTORE PUSH1 0x20 ADD SWAP1 DUP2 MSTORE PUSH1 0x20 ADD PUSH1 0x0 KECCAK256 PUSH1 0x0 SWAP1 SLOAD SWAP1 PUSH2 0x100 EXP SWAP1 DIV PUSH1 0xFF AND PUSH2 0xE87 JUMPI PUSH1 0x40 MLOAD PUSH32 0x8C379A000000000000000000000000000000000000000000000000000000000 DUP2 MSTORE PUSH1 0x4 ADD PUSH2 0xE7E SWAP1 PUSH2 0x1F07 JUMP JUMPDEST PUSH1 0x40 MLOAD DUP1 SWAP2 SUB SWAP1 REVERT JUMPDEST PUSH2 0xEB4 CALLER ADDRESS DUP5 DUP7 PUSH20 0xFFFFFFFFFFFFFFFFFFFFFFFFFFFFFFFFFFFFFFFF AND PUSH2 0x185B SWAP1 SWAP4 SWAP3 SWAP2 SWAP1 PUSH4 0xFFFFFFFF AND JUMP JUMPDEST PUSH2 0xF01 CALLER DUP3 PUSH1 0x2 PUSH1 0x0 SWAP1 SLOAD SWAP1 PUSH2 0x100 EXP SWAP1 DIV PUSH20 0xFFFFFFFFFFFFFFFFFFFFFFFFFFFFFFFFFFFFFFFF AND PUSH20 0xFFFFFFFFFFFFFFFFFFFFFFFFFFFFFFFFFFFFFFFF AND PUSH2 0x17D5 SWAP1 SWAP3 SWAP2 SWAP1 PUSH4 0xFFFFFFFF AND JUMP JUMPDEST JUMPDEST DUP1 PUSH1 0xB PUSH1 0x0 DUP3 DUP3 SLOAD PUSH2 0xF14 SWAP2 SWAP1 PUSH2 0x1E76 JUMP JUMPDEST SWAP3 POP POP DUP2 SWAP1 SSTORE POP DUP3 PUSH20 0xFFFFFFFFFFFFFFFFFFFFFFFFFFFFFFFFFFFFFFFF AND CALLER PUSH20 0xFFFFFFFFFFFFFFFFFFFFFFFFFFFFFFFFFFFFFFFF AND PUSH32 0xC244D500136EDFFAE7025AAF7FBD7A07193AC544A1D0CC3132CF2A32452D340C DUP5 DUP5 PUSH1 0x40 MLOAD PUSH2 0xF7A SWAP3 SWAP2 SWAP1 PUSH2 0x2424 JUMP JUMPDEST PUSH1 0x40 MLOAD DUP1 SWAP2 SUB SWAP1 LOG3 POP POP POP JUMP JUMPDEST PUSH1 0x5 SLOAD DUP2 JUMP JUMPDEST PUSH1 0x4 SLOAD DUP2 JUMP JUMPDEST PUSH2 0xF9B PUSH2 0x1757 JUMP JUMPDEST PUSH2 0xFA5 PUSH1 0x0 PUSH2 0x18E4 JUMP JUMPDEST JUMP JUMPDEST PUSH2 0xFAF PUSH2 0x1757 JUMP JUMPDEST DUP1 PUSH1 0x5 DUP2 SWAP1 SSTORE POP POP JUMP JUMPDEST PUSH2 0xFC1 PUSH2 0x1757 JUMP JUMPDEST PUSH1 0x0 PUSH20 0xFFFFFFFFFFFFFFFFFFFFFFFFFFFFFFFFFFFFFFFF AND DUP3 PUSH20 0xFFFFFFFFFFFFFFFFFFFFFFFFFFFFFFFFFFFFFFFF AND SUB PUSH2 0x1030 JUMPI PUSH1 0x40 MLOAD PUSH32 0x8C379A000000000000000000000000000000000000000000000000000000000 DUP2 MSTORE PUSH1 0x4 ADD PUSH2 0x1027 SWAP1 PUSH2 0x24BF JUMP JUMPDEST PUSH1 0x40 MLOAD DUP1 SWAP2 SUB SWAP1 REVERT JUMPDEST PUSH1 0x0 DUP2 GT PUSH2 0x1073 JUMPI PUSH1 0x40 MLOAD PUSH32 0x8C379A000000000000000000000000000000000000000000000000000000000 DUP2 MSTORE PUSH1 0x4 ADD PUSH2 0x106A SWAP1 PUSH2 0x2551 JUMP JUMPDEST PUSH1 0x40 MLOAD DUP1 SWAP2 SUB SWAP1 REVERT JUMPDEST DUP2 PUSH1 0x2 PUSH1 0x0 PUSH2 0x100 EXP DUP2 SLOAD DUP2 PUSH20 0xFFFFFFFFFFFFFFFFFFFFFFFFFFFFFFFFFFFFFFFF MUL NOT AND SWAP1 DUP4 PUSH20 0xFFFFFFFFFFFFFFFFFFFFFFFFFFFFFFFFFFFFFFFF AND MUL OR SWAP1 SSTORE POP PUSH1 0x2 PUSH1 0x0 SWAP1 SLOAD SWAP1 PUSH2 0x100 EXP SWAP1 DIV PUSH20 0xFFFFFFFFFFFFFFFFFFFFFFFFFFFFFFFFFFFFFFFF AND PUSH20 0xFFFFFFFFFFFFFFFFFFFFFFFFFFFFFFFFFFFFFFFF AND PUSH4 0x313CE567 PUSH1 0x40 MLOAD DUP2 PUSH4 0xFFFFFFFF AND PUSH1 0xE0 SHL DUP2 MSTORE PUSH1 0x4 ADD PUSH1 0x20 PUSH1 0x40 MLOAD DUP1 DUP4 SUB DUP2 DUP7 GAS STATICCALL ISZERO DUP1 ISZERO PUSH2 0x1121 JUMPI RETURNDATASIZE PUSH1 0x0 DUP1 RETURNDATACOPY RETURNDATASIZE PUSH1 0x0 REVERT JUMPDEST POP POP POP POP PUSH1 0x40 MLOAD RETURNDATASIZE PUSH1 0x1F NOT PUSH1 0x1F DUP3 ADD AND DUP3 ADD DUP1 PUSH1 0x40 MSTORE POP DUP2 ADD SWAP1 PUSH2 0x1145 SWAP2 SWAP1 PUSH2 0x25AA JUMP JUMPDEST PUSH1 0xFF AND PUSH1 0x3 DUP2 SWAP1 SSTORE POP PUSH2 0x119D CALLER ADDRESS DUP4 PUSH1 0x2 PUSH1 0x0 SWAP1 SLOAD SWAP1 PUSH2 0x100 EXP SWAP1 DIV PUSH20 0xFFFFFFFFFFFFFFFFFFFFFFFFFFFFFFFFFFFFFFFF AND PUSH20 0xFFFFFFFFFFFFFFFFFFFFFFFFFFFFFFFFFFFFFFFF AND PUSH2 0x185B SWAP1 SWAP4 SWAP3 SWAP2 SWAP1 PUSH4 0xFFFFFFFF AND JUMP JUMPDEST PUSH1 0x2 PUSH1 0x0 SWAP1 SLOAD SWAP1 PUSH2 0x100 EXP SWAP1 DIV PUSH20 0xFFFFFFFFFFFFFFFFFFFFFFFFFFFFFFFFFFFFFFFF AND PUSH20 0xFFFFFFFFFFFFFFFFFFFFFFFFFFFFFFFFFFFFFFFF AND PUSH4 0x70A08231 ADDRESS PUSH1 0x40 MLOAD DUP3 PUSH4 0xFFFFFFFF AND PUSH1 0xE0 SHL DUP2 MSTORE PUSH1 0x4 ADD PUSH2 0x11F8 SWAP2 SWAP1 PUSH2 0x1E2C JUMP JUMPDEST PUSH1 0x20 PUSH1 0x40 MLOAD DUP1 DUP4 SUB DUP2 DUP7 GAS STATICCALL ISZERO DUP1 ISZERO PUSH2 0x1215 JUMPI RETURNDATASIZE PUSH1 0x0 DUP1 RETURNDATACOPY RETURNDATASIZE PUSH1 0x0 REVERT JUMPDEST POP POP POP POP PUSH1 0x40 MLOAD RETURNDATASIZE PUSH1 0x1F NOT PUSH1 0x1F DUP3 ADD AND DUP3 ADD DUP1 PUSH1 0x40 MSTORE POP DUP2 ADD SWAP1 PUSH2 0x1239 SWAP2 SWAP1 PUSH2 0x25EC JUMP JUMPDEST PUSH1 0x4 DUP2 SWAP1 SSTORE POP PUSH32 0x3211F0A57D24F0B52E2E0573AF5BE089C5FAADEB55F9B90591717B0A22F7E2A DUP3 DUP3 PUSH1 0x40 MLOAD PUSH2 0x1270 SWAP3 SWAP2 SWAP1 PUSH2 0x2147 JUMP JUMPDEST PUSH1 0x40 MLOAD DUP1 SWAP2 SUB SWAP1 LOG1 POP POP JUMP JUMPDEST PUSH1 0x7 PUSH1 0x20 MSTORE DUP1 PUSH1 0x0 MSTORE PUSH1 0x40 PUSH1 0x0 KECCAK256 PUSH1 0x0 SWAP2 POP SLOAD SWAP1 PUSH2 0x100 EXP SWAP1 DIV PUSH1 0xFF AND DUP2 JUMP JUMPDEST PUSH1 0x0 DUP1 PUSH1 0x0 SWAP1 SLOAD SWAP1 PUSH2 0x100 EXP SWAP1 DIV PUSH20 0xFFFFFFFFFFFFFFFFFFFFFFFFFFFFFFFFFFFFFFFF AND SWAP1 POP SWAP1 JUMP JUMPDEST PUSH2 0x12CD PUSH2 0x1757 JUMP JUMPDEST DUP1 PUSH1 0x6 DUP2 SWAP1 SSTORE POP POP JUMP JUMPDEST PUSH1 0x9 SLOAD DUP2 JUMP JUMPDEST PUSH1 0x3 SLOAD DUP2 JUMP JUMPDEST PUSH1 0x6 SLOAD DUP2 JUMP JUMPDEST PUSH2 0x12F1 PUSH2 0x1757 JUMP JUMPDEST PUSH1 0xA SLOAD TIMESTAMP LT ISZERO PUSH2 0x1336 JUMPI PUSH1 0x40 MLOAD PUSH32 0x8C379A000000000000000000000000000000000000000000000000000000000 DUP2 MSTORE PUSH1 0x4 ADD PUSH2 0x132D SWAP1 PUSH2 0x268B JUMP JUMPDEST PUSH1 0x40 MLOAD DUP1 SWAP2 SUB SWAP1 REVERT JUMPDEST PUSH2 0x1383 CALLER DUP3 PUSH1 0x2 PUSH1 0x0 SWAP1 SLOAD SWAP1 PUSH2 0x100 EXP SWAP1 DIV PUSH20 0xFFFFFFFFFFFFFFFFFFFFFFFFFFFFFFFFFFFFFFFF AND PUSH20 0xFFFFFFFFFFFFFFFFFFFFFFFFFFFFFFFFFFFFFFFF AND PUSH2 0x17D5 SWAP1 SWAP3 SWAP2 SWAP1 PUSH4 0xFFFFFFFF AND JUMP JUMPDEST POP JUMP JUMPDEST PUSH1 0x2 PUSH1 0x0 SWAP1 SLOAD SWAP1 PUSH2 0x100 EXP SWAP1 DIV PUSH20 0xFFFFFFFFFFFFFFFFFFFFFFFFFFFFFFFFFFFFFFFF AND DUP2 JUMP JUMPDEST PUSH2 0x13B4 PUSH2 0x1757 JUMP JUMPDEST PUSH1 0x0 PUSH20 0xFFFFFFFFFFFFFFFFFFFFFFFFFFFFFFFFFFFFFFFF AND DUP2 PUSH20 0xFFFFFFFFFFFFFFFFFFFFFFFFFFFFFFFFFFFFFFFF AND SUB PUSH2 0x1423 JUMPI PUSH1 0x40 MLOAD PUSH32 0x8C379A000000000000000000000000000000000000000000000000000000000 DUP2 MSTORE PUSH1 0x4 ADD PUSH2 0x141A SWAP1 PUSH2 0x271D JUMP JUMPDEST PUSH1 0x40 MLOAD DUP1 SWAP2 SUB SWAP1 REVERT JUMPDEST PUSH2 0x142C DUP2 PUSH2 0x18E4 JUMP JUMPDEST POP JUMP JUMPDEST PUSH2 0x1437 PUSH2 0x1757 JUMP JUMPDEST PUSH1 0x2 PUSH1 0x0 SWAP1 SLOAD SWAP1 PUSH2 0x100 EXP SWAP1 DIV PUSH20 0xFFFFFFFFFFFFFFFFFFFFFFFFFFFFFFFFFFFFFFFF AND PUSH20 0xFFFFFFFFFFFFFFFFFFFFFFFFFFFFFFFFFFFFFFFF AND DUP3 PUSH20 0xFFFFFFFFFFFFFFFFFFFFFFFFFFFFFFFFFFFFFFFF AND SUB PUSH2 0x14C7 JUMPI PUSH1 0x40 MLOAD PUSH32 0x8C379A000000000000000000000000000000000000000000000000000000000 DUP2 MSTORE PUSH1 0x4 ADD PUSH2 0x14BE SWAP1 PUSH2 0x27D5 JUMP JUMPDEST PUSH1 0x40 MLOAD DUP1 SWAP2 SUB SWAP1 REVERT JUMPDEST PUSH2 0x14F2 CALLER DUP3 DUP5 PUSH20 0xFFFFFFFFFFFFFFFFFFFFFFFFFFFFFFFFFFFFFFFF AND PUSH2 0x17D5 SWAP1 SWAP3 SWAP2 SWAP1 PUSH4 0xFFFFFFFF AND JUMP JUMPDEST POP POP JUMP JUMPDEST PUSH2 0x14FE PUSH2 0x1757 JUMP JUMPDEST PUSH1 0x2 PUSH1 0x0 SWAP1 SLOAD SWAP1 PUSH2 0x100 EXP SWAP1 DIV PUSH20 0xFFFFFFFFFFFFFFFFFFFFFFFFFFFFFFFFFFFFFFFF AND PUSH20 0xFFFFFFFFFFFFFFFFFFFFFFFFFFFFFFFFFFFFFFFF AND DUP2 PUSH20 0xFFFFFFFFFFFFFFFFFFFFFFFFFFFFFFFFFFFFFFFF AND SUB PUSH2 0x158E JUMPI PUSH1 0x40 MLOAD PUSH32 0x8C379A000000000000000000000000000000000000000000000000000000000 DUP2 MSTORE PUSH1 0x4 ADD PUSH2 0x1585 SWAP1 PUSH2 0x288D JUMP JUMPDEST PUSH1 0x40 MLOAD DUP1 SWAP2 SUB SWAP1 REVERT JUMPDEST PUSH1 0x0 DUP2 PUSH20 0xFFFFFFFFFFFFFFFFFFFFFFFFFFFFFFFFFFFFFFFF AND PUSH4 0x70A08231 ADDRESS PUSH1 0x40 MLOAD DUP3 PUSH4 0xFFFFFFFF AND PUSH1 0xE0 SHL DUP2 MSTORE PUSH1 0x4 ADD PUSH2 0x15C9 SWAP2 SWAP1 PUSH2 0x1E2C JUMP JUMPDEST PUSH1 0x20 PUSH1 0x40 MLOAD DUP1 DUP4 SUB DUP2 DUP7 GAS STATICCALL ISZERO DUP1 ISZERO PUSH2 0x15E6 JUMPI RETURNDATASIZE PUSH1 0x0 DUP1 RETURNDATACOPY RETURNDATASIZE PUSH1 0x0 REVERT JUMPDEST POP POP POP POP PUSH1 0x40 MLOAD RETURNDATASIZE PUSH1 0x1F NOT PUSH1 0x1F DUP3 ADD AND DUP3 ADD DUP1 PUSH1 0x40 MSTORE POP DUP2 ADD SWAP1 PUSH2 0x160A SWAP2 SWAP1 PUSH2 0x25EC JUMP JUMPDEST SWAP1 POP PUSH2 0x1616 DUP3 DUP3 PUSH2 0x142F JUMP JUMPDEST POP POP JUMP JUMPDEST PUSH2 0x1622 PUSH2 0x1757 JUMP JUMPDEST PUSH1 0xA SLOAD TIMESTAMP LT ISZERO PUSH2 0x1667 JUMPI PUSH1 0x40 MLOAD PUSH32 0x8C379A000000000000000000000000000000000000000000000000000000000 DUP2 MSTORE PUSH1 0x4 ADD PUSH2 0x165E SWAP1 PUSH2 0x268B JUMP JUMPDEST PUSH1 0x40 MLOAD DUP1 SWAP2 SUB SWAP1 REVERT JUMPDEST PUSH1 0x0 PUSH1 0x2 PUSH1 0x0 SWAP1 SLOAD SWAP1 PUSH2 0x100 EXP SWAP1 DIV PUSH20 0xFFFFFFFFFFFFFFFFFFFFFFFFFFFFFFFFFFFFFFFF AND PUSH20 0xFFFFFFFFFFFFFFFFFFFFFFFFFFFFFFFFFFFFFFFF AND PUSH4 0x70A08231 ADDRESS PUSH1 0x40 MLOAD DUP3 PUSH4 0xFFFFFFFF AND PUSH1 0xE0 SHL DUP2 MSTORE PUSH1 0x4 ADD PUSH2 0x16C4 SWAP2 SWAP1 PUSH2 0x1E2C JUMP JUMPDEST PUSH1 0x20 PUSH1 0x40 MLOAD DUP1 DUP4 SUB DUP2 DUP7 GAS STATICCALL ISZERO DUP1 ISZERO PUSH2 0x16E1 JUMPI RETURNDATASIZE PUSH1 0x0 DUP1 RETURNDATACOPY RETURNDATASIZE PUSH1 0x0 REVERT JUMPDEST POP POP POP POP PUSH1 0x40 MLOAD RETURNDATASIZE PUSH1 0x1F NOT PUSH1 0x1F DUP3 ADD AND DUP3 ADD DUP1 PUSH1 0x40 MSTORE POP DUP2 ADD SWAP1 PUSH2 0x1705 SWAP2 SWAP1 PUSH2 0x25EC JUMP JUMPDEST SWAP1 POP PUSH2 0x1754 CALLER DUP3 PUSH1 0x2 PUSH1 0x0 SWAP1 SLOAD SWAP1 PUSH2 0x100 EXP SWAP1 DIV PUSH20 0xFFFFFFFFFFFFFFFFFFFFFFFFFFFFFFFFFFFFFFFF AND PUSH20 0xFFFFFFFFFFFFFFFFFFFFFFFFFFFFFFFFFFFFFFFF AND PUSH2 0x17D5 SWAP1 SWAP3 SWAP2 SWAP1 PUSH4 0xFFFFFFFF AND JUMP JUMPDEST POP JUMP JUMPDEST PUSH2 0x175F PUSH2 0x19A8 JUMP JUMPDEST PUSH20 0xFFFFFFFFFFFFFFFFFFFFFFFFFFFFFFFFFFFFFFFF AND PUSH2 0x177D PUSH2 0x129C JUMP JUMPDEST PUSH20 0xFFFFFFFFFFFFFFFFFFFFFFFFFFFFFFFFFFFFFFFF AND EQ PUSH2 0x17D3 JUMPI PUSH1 0x40 MLOAD PUSH32 0x8C379A000000000000000000000000000000000000000000000000000000000 DUP2 MSTORE PUSH1 0x4 ADD PUSH2 0x17CA SWAP1 PUSH2 0x28F9 JUMP JUMPDEST PUSH1 0x40 MLOAD DUP1 SWAP2 SUB SWAP1 REVERT JUMPDEST JUMP JUMPDEST PUSH2 0x1856 DUP4 PUSH4 0xA9059CBB PUSH1 0xE0 SHL DUP5 DUP5 PUSH1 0x40 MLOAD PUSH1 0x24 ADD PUSH2 0x17F4 SWAP3 SWAP2 SWAP1 PUSH2 0x2147 JUMP JUMPDEST PUSH1 0x40 MLOAD PUSH1 0x20 DUP2 DUP4 SUB SUB DUP2 MSTORE SWAP1 PUSH1 0x40 MSTORE SWAP1 PUSH28 0xFFFFFFFFFFFFFFFFFFFFFFFFFFFFFFFFFFFFFFFFFFFFFFFFFFFFFFFF NOT AND PUSH1 0x20 DUP3 ADD DUP1 MLOAD PUSH28 0xFFFFFFFFFFFFFFFFFFFFFFFFFFFFFFFFFFFFFFFFFFFFFFFFFFFFFFFF DUP4 DUP2 DUP4 AND OR DUP4 MSTORE POP POP POP POP PUSH2 0x19B0 JUMP JUMPDEST POP POP POP JUMP JUMPDEST PUSH2 0x18DE DUP5 PUSH4 0x23B872DD PUSH1 0xE0 SHL DUP6 DUP6 DUP6 PUSH1 0x40 MLOAD PUSH1 0x24 ADD PUSH2 0x187C SWAP4 SWAP3 SWAP2 SWAP1 PUSH2 0x2919 JUMP JUMPDEST PUSH1 0x40 MLOAD PUSH1 0x20 DUP2 DUP4 SUB SUB DUP2 MSTORE SWAP1 PUSH1 0x40 MSTORE SWAP1 PUSH28 0xFFFFFFFFFFFFFFFFFFFFFFFFFFFFFFFFFFFFFFFFFFFFFFFFFFFFFFFF NOT AND PUSH1 0x20 DUP3 ADD DUP1 MLOAD PUSH28 0xFFFFFFFFFFFFFFFFFFFFFFFFFFFFFFFFFFFFFFFFFFFFFFFFFFFFFFFF DUP4 DUP2 DUP4 AND OR DUP4 MSTORE POP POP POP POP PUSH2 0x19B0 JUMP JUMPDEST POP POP POP POP JUMP JUMPDEST PUSH1 0x0 DUP1 PUSH1 0x0 SWAP1 SLOAD SWAP1 PUSH2 0x100 EXP SWAP1 DIV PUSH20 0xFFFFFFFFFFFFFFFFFFFFFFFFFFFFFFFFFFFFFFFF AND SWAP1 POP DUP2 PUSH1 0x0 DUP1 PUSH2 0x100 EXP DUP2 SLOAD DUP2 PUSH20 0xFFFFFFFFFFFFFFFFFFFFFFFFFFFFFFFFFFFFFFFF MUL NOT AND SWAP1 DUP4 PUSH20 0xFFFFFFFFFFFFFFFFFFFFFFFFFFFFFFFFFFFFFFFF AND MUL OR SWAP1 SSTORE POP DUP2 PUSH20 0xFFFFFFFFFFFFFFFFFFFFFFFFFFFFFFFFFFFFFFFF AND DUP2 PUSH20 0xFFFFFFFFFFFFFFFFFFFFFFFFFFFFFFFFFFFFFFFF AND PUSH32 0x8BE0079C531659141344CD1FD0A4F28419497F9722A3DAAFE3B4186F6B6457E0 PUSH1 0x40 MLOAD PUSH1 0x40 MLOAD DUP1 SWAP2 SUB SWAP1 LOG3 POP POP JUMP JUMPDEST PUSH1 0x0 CALLER SWAP1 POP SWAP1 JUMP JUMPDEST PUSH1 0x0 PUSH2 0x1A12 DUP3 PUSH1 0x40 MLOAD DUP1 PUSH1 0x40 ADD PUSH1 0x40 MSTORE DUP1 PUSH1 0x20 DUP2 MSTORE PUSH1 0x20 ADD PUSH32 0x5361666545524332303A206C6F772D6C6576656C2063616C6C206661696C6564 DUP2 MSTORE POP DUP6 PUSH20 0xFFFFFFFFFFFFFFFFFFFFFFFFFFFFFFFFFFFFFFFF AND PUSH2 0x1A78 SWAP1 SWAP3 SWAP2 SWAP1 PUSH4 0xFFFFFFFF AND JUMP JUMPDEST SWAP1 POP PUSH1 0x0 DUP2 MLOAD EQ DUP1 PUSH2 0x1A34 JUMPI POP DUP1 DUP1 PUSH1 0x20 ADD SWAP1 MLOAD DUP2 ADD SWAP1 PUSH2 0x1A33 SWAP2 SWAP1 PUSH2 0x297C JUMP JUMPDEST JUMPDEST PUSH2 0x1A73 JUMPI PUSH1 0x40 MLOAD PUSH32 0x8C379A000000000000000000000000000000000000000000000000000000000 DUP2 MSTORE PUSH1 0x4 ADD PUSH2 0x1A6A SWAP1 PUSH2 0x2A1B JUMP JUMPDEST PUSH1 0x40 MLOAD DUP1 SWAP2 SUB SWAP1 REVERT JUMPDEST POP POP POP JUMP JUMPDEST PUSH1 0x60 PUSH2 0x1A87 DUP5 DUP5 PUSH1 0x0 DUP6 PUSH2 0x1A90 JUMP JUMPDEST SWAP1 POP SWAP4 SWAP3 POP POP POP JUMP JUMPDEST PUSH1 0x60 DUP3 SELFBALANCE LT ISZERO PUSH2 0x1AD5 JUMPI PUSH1 0x40 MLOAD PUSH32 0x8C379A000000000000000000000000000000000000000000000000000000000 DUP2 MSTORE PUSH1 0x4 ADD PUSH2 0x1ACC SWAP1 PUSH2 0x2AAD JUMP JUMPDEST PUSH1 0x40 MLOAD DUP1 SWAP2 SUB SWAP1 REVERT JUMPDEST PUSH1 0x0 DUP1 DUP7 PUSH20 0xFFFFFFFFFFFFFFFFFFFFFFFFFFFFFFFFFFFFFFFF AND DUP6 DUP8 PUSH1 0x40 MLOAD PUSH2 0x1AFE SWAP2 SWAP1 PUSH2 0x2B3E JUMP JUMPDEST PUSH1 0x0 PUSH1 0x40 MLOAD DUP1 DUP4 SUB DUP2 DUP6 DUP8 GAS CALL SWAP3 POP POP POP RETURNDATASIZE DUP1 PUSH1 0x0 DUP2 EQ PUSH2 0x1B3B JUMPI PUSH1 0x40 MLOAD SWAP2 POP PUSH1 0x1F NOT PUSH1 0x3F RETURNDATASIZE ADD AND DUP3 ADD PUSH1 0x40 MSTORE RETURNDATASIZE DUP3 MSTORE RETURNDATASIZE PUSH1 0x0 PUSH1 0x20 DUP5 ADD RETURNDATACOPY PUSH2 0x1B40 JUMP JUMPDEST PUSH1 0x60 SWAP2 POP JUMPDEST POP SWAP2 POP SWAP2 POP PUSH2 0x1B51 DUP8 DUP4 DUP4 DUP8 PUSH2 0x1B5D JUMP JUMPDEST SWAP3 POP POP POP SWAP5 SWAP4 POP POP POP POP JUMP JUMPDEST PUSH1 0x60 DUP4 ISZERO PUSH2 0x1BBF JUMPI PUSH1 0x0 DUP4 MLOAD SUB PUSH2 0x1BB7 JUMPI PUSH2 0x1B77 DUP6 PUSH2 0x1BD2 JUMP JUMPDEST PUSH2 0x1BB6 JUMPI PUSH1 0x40 MLOAD PUSH32 0x8C379A000000000000000000000000000000000000000000000000000000000 DUP2 MSTORE PUSH1 0x4 ADD PUSH2 0x1BAD SWAP1 PUSH2 0x2BA1 JUMP JUMPDEST PUSH1 0x40 MLOAD DUP1 SWAP2 SUB SWAP1 REVERT JUMPDEST JUMPDEST DUP3 SWAP1 POP PUSH2 0x1BCA JUMP JUMPDEST PUSH2 0x1BC9 DUP4 DUP4 PUSH2 0x1BF5 JUMP JUMPDEST JUMPDEST SWAP5 SWAP4 POP POP POP POP JUMP JUMPDEST PUSH1 0x0 DUP1 DUP3 PUSH20 0xFFFFFFFFFFFFFFFFFFFFFFFFFFFFFFFFFFFFFFFF AND EXTCODESIZE GT SWAP1 POP SWAP2 SWAP1 POP JUMP JUMPDEST PUSH1 0x0 DUP3 MLOAD GT ISZERO PUSH2 0x1C08 JUMPI DUP2 MLOAD DUP1 DUP4 PUSH1 0x20 ADD REVERT JUMPDEST DUP1 PUSH1 0x40 MLOAD PUSH32 0x8C379A000000000000000000000000000000000000000000000000000000000 DUP2 MSTORE PUSH1 0x4 ADD PUSH2 0x1C3C SWAP2 SWAP1 PUSH2 0x2C16 JUMP JUMPDEST PUSH1 0x40 MLOAD DUP1 SWAP2 SUB SWAP1 REVERT JUMPDEST PUSH1 0x0 DUP1 REVERT JUMPDEST PUSH1 0x0 DUP2 SWAP1 POP SWAP2 SWAP1 POP JUMP JUMPDEST PUSH2 0x1C5D DUP2 PUSH2 0x1C4A JUMP JUMPDEST DUP2 EQ PUSH2 0x1C68 JUMPI PUSH1 0x0 DUP1 REVERT JUMPDEST POP JUMP JUMPDEST PUSH1 0x0 DUP2 CALLDATALOAD SWAP1 POP PUSH2 0x1C7A DUP2 PUSH2 0x1C54 JUMP JUMPDEST SWAP3 SWAP2 POP POP JUMP JUMPDEST PUSH1 0x0 PUSH1 0x20 DUP3 DUP5 SUB SLT ISZERO PUSH2 0x1C96 JUMPI PUSH2 0x1C95 PUSH2 0x1C45 JUMP JUMPDEST JUMPDEST PUSH1 0x0 PUSH2 0x1CA4 DUP5 DUP3 DUP6 ADD PUSH2 0x1C6B JUMP JUMPDEST SWAP2 POP POP SWAP3 SWAP2 POP POP JUMP JUMPDEST PUSH1 0x0 PUSH20 0xFFFFFFFFFFFFFFFFFFFFFFFFFFFFFFFFFFFFFFFF DUP3 AND SWAP1 POP SWAP2 SWAP1 POP JUMP JUMPDEST PUSH1 0x0 PUSH2 0x1CD8 DUP3 PUSH2 0x1CAD JUMP JUMPDEST SWAP1 POP SWAP2 SWAP1 POP JUMP JUMPDEST PUSH2 0x1CE8 DUP2 PUSH2 0x1CCD JUMP JUMPDEST DUP2 EQ PUSH2 0x1CF3 JUMPI PUSH1 0x0 DUP1 REVERT JUMPDEST POP JUMP JUMPDEST PUSH1 0x0 DUP2 CALLDATALOAD SWAP1 POP PUSH2 0x1D05 DUP2 PUSH2 0x1CDF JUMP JUMPDEST SWAP3 SWAP2 POP POP JUMP JUMPDEST PUSH1 0x0 DUP1 PUSH1 0x40 DUP4 DUP6 SUB SLT ISZERO PUSH2 0x1D22 JUMPI PUSH2 0x1D21 PUSH2 0x1C45 JUMP JUMPDEST JUMPDEST PUSH1 0x0 PUSH2 0x1D30 DUP6 DUP3 DUP7 ADD PUSH2 0x1CF6 JUMP JUMPDEST SWAP3 POP POP PUSH1 0x20 PUSH2 0x1D41 DUP6 DUP3 DUP7 ADD PUSH2 0x1C6B JUMP JUMPDEST SWAP2 POP POP SWAP3 POP SWAP3 SWAP1 POP JUMP JUMPDEST PUSH2 0x1D54 DUP2 PUSH2 0x1C4A JUMP JUMPDEST DUP3 MSTORE POP POP JUMP JUMPDEST PUSH1 0x0 PUSH1 0x20 DUP3 ADD SWAP1 POP PUSH2 0x1D6F PUSH1 0x0 DUP4 ADD DUP5 PUSH2 0x1D4B JUMP JUMPDEST SWAP3 SWAP2 POP POP JUMP JUMPDEST PUSH1 0x0 PUSH1 0x20 DUP3 DUP5 SUB SLT ISZERO PUSH2 0x1D8B JUMPI PUSH2 0x1D8A PUSH2 0x1C45 JUMP JUMPDEST JUMPDEST PUSH1 0x0 PUSH2 0x1D99 DUP5 DUP3 DUP6 ADD PUSH2 0x1CF6 JUMP JUMPDEST SWAP2 POP POP SWAP3 SWAP2 POP POP JUMP JUMPDEST PUSH1 0x0 PUSH1 0x80 DUP3 ADD SWAP1 POP PUSH2 0x1DB7 PUSH1 0x0 DUP4 ADD DUP8 PUSH2 0x1D4B JUMP JUMPDEST PUSH2 0x1DC4 PUSH1 0x20 DUP4 ADD DUP7 PUSH2 0x1D4B JUMP JUMPDEST PUSH2 0x1DD1 PUSH1 0x40 DUP4 ADD DUP6 PUSH2 0x1D4B JUMP JUMPDEST PUSH2 0x1DDE PUSH1 0x60 DUP4 ADD DUP5 PUSH2 0x1D4B JUMP JUMPDEST SWAP6 SWAP5 POP POP POP POP POP JUMP JUMPDEST PUSH1 0x0 DUP2 ISZERO ISZERO SWAP1 POP SWAP2 SWAP1 POP JUMP JUMPDEST PUSH2 0x1DFC DUP2 PUSH2 0x1DE7 JUMP JUMPDEST DUP3 MSTORE POP POP JUMP JUMPDEST PUSH1 0x0 PUSH1 0x20 DUP3 ADD SWAP1 POP PUSH2 0x1E17 PUSH1 0x0 DUP4 ADD DUP5 PUSH2 0x1DF3 JUMP JUMPDEST SWAP3 SWAP2 POP POP JUMP JUMPDEST PUSH2 0x1E26 DUP2 PUSH2 0x1CCD JUMP JUMPDEST DUP3 MSTORE POP POP JUMP JUMPDEST PUSH1 0x0 PUSH1 0x20 DUP3 ADD SWAP1 POP PUSH2 0x1E41 PUSH1 0x0 DUP4 ADD DUP5 PUSH2 0x1E1D JUMP JUMPDEST SWAP3 SWAP2 POP POP JUMP JUMPDEST PUSH32 0x4E487B7100000000000000000000000000000000000000000000000000000000 PUSH1 0x0 MSTORE PUSH1 0x11 PUSH1 0x4 MSTORE PUSH1 0x24 PUSH1 0x0 REVERT JUMPDEST PUSH1 0x0 PUSH2 0x1E81 DUP3 PUSH2 0x1C4A JUMP JUMPDEST SWAP2 POP PUSH2 0x1E8C DUP4 PUSH2 0x1C4A JUMP JUMPDEST SWAP3 POP DUP3 DUP3 ADD SWAP1 POP DUP1 DUP3 GT ISZERO PUSH2 0x1EA4 JUMPI PUSH2 0x1EA3 PUSH2 0x1E47 JUMP JUMPDEST JUMPDEST SWAP3 SWAP2 POP POP JUMP JUMPDEST PUSH1 0x0 DUP3 DUP3 MSTORE PUSH1 0x20 DUP3 ADD SWAP1 POP SWAP3 SWAP2 POP POP JUMP JUMPDEST PUSH32 0x50726573616C653A20546F6B656E206E6F742077686974656C69737465640000 PUSH1 0x0 DUP3 ADD MSTORE POP JUMP JUMPDEST PUSH1 0x0 PUSH2 0x1EF1 PUSH1 0x1E DUP4 PUSH2 0x1EAA JUMP JUMPDEST SWAP2 POP PUSH2 0x1EFC DUP3 PUSH2 0x1EBB JUMP JUMPDEST PUSH1 0x20 DUP3 ADD SWAP1 POP SWAP2 SWAP1 POP JUMP JUMPDEST PUSH1 0x0 PUSH1 0x20 DUP3 ADD SWAP1 POP DUP2 DUP2 SUB PUSH1 0x0 DUP4 ADD MSTORE PUSH2 0x1F20 DUP2 PUSH2 0x1EE4 JUMP JUMPDEST SWAP1 POP SWAP2 SWAP1 POP JUMP JUMPDEST PUSH1 0x0 DUP2 PUSH1 0x1 SHR SWAP1 POP SWAP2 SWAP1 POP JUMP JUMPDEST PUSH1 0x0 DUP1 DUP3 SWAP2 POP DUP4 SWAP1 POP JUMPDEST PUSH1 0x1 DUP6 GT ISZERO PUSH2 0x1F7E JUMPI DUP1 DUP7 DIV DUP2 GT ISZERO PUSH2 0x1F5A JUMPI PUSH2 0x1F59 PUSH2 0x1E47 JUMP JUMPDEST JUMPDEST PUSH1 0x1 DUP6 AND ISZERO PUSH2 0x1F69 JUMPI DUP1 DUP3 MUL SWAP2 POP JUMPDEST DUP1 DUP2 MUL SWAP1 POP PUSH2 0x1F77 DUP6 PUSH2 0x1F27 JUMP JUMPDEST SWAP5 POP PUSH2 0x1F3E JUMP JUMPDEST SWAP5 POP SWAP5 SWAP3 POP POP POP JUMP JUMPDEST PUSH1 0x0 DUP3 PUSH2 0x1F97 JUMPI PUSH1 0x1 SWAP1 POP PUSH2 0x2053 JUMP JUMPDEST DUP2 PUSH2 0x1FA5 JUMPI PUSH1 0x0 SWAP1 POP PUSH2 0x2053 JUMP JUMPDEST DUP2 PUSH1 0x1 DUP2 EQ PUSH2 0x1FBB JUMPI PUSH1 0x2 DUP2 EQ PUSH2 0x1FC5 JUMPI PUSH2 0x1FF4 JUMP JUMPDEST PUSH1 0x1 SWAP2 POP POP PUSH2 0x2053 JUMP JUMPDEST PUSH1 0xFF DUP5 GT ISZERO PUSH2 0x1FD7 JUMPI PUSH2 0x1FD6 PUSH2 0x1E47 JUMP JUMPDEST JUMPDEST DUP4 PUSH1 0x2 EXP SWAP2 POP DUP5 DUP3 GT ISZERO PUSH2 0x1FEE JUMPI PUSH2 0x1FED PUSH2 0x1E47 JUMP JUMPDEST JUMPDEST POP PUSH2 0x2053 JUMP JUMPDEST POP PUSH1 0x20 DUP4 LT PUSH2 0x133 DUP4 LT AND PUSH1 0x4E DUP5 LT PUSH1 0xB DUP5 LT AND OR ISZERO PUSH2 0x2029 JUMPI DUP3 DUP3 EXP SWAP1 POP DUP4 DUP2 GT ISZERO PUSH2 0x2024 JUMPI PUSH2 0x2023 PUSH2 0x1E47 JUMP JUMPDEST JUMPDEST PUSH2 0x2053 JUMP JUMPDEST PUSH2 0x2036 DUP5 DUP5 DUP5 PUSH1 0x1 PUSH2 0x1F34 JUMP JUMPDEST SWAP3 POP SWAP1 POP DUP2 DUP5 DIV DUP2 GT ISZERO PUSH2 0x204D JUMPI PUSH2 0x204C PUSH2 0x1E47 JUMP JUMPDEST JUMPDEST DUP2 DUP2 MUL SWAP1 POP JUMPDEST SWAP4 SWAP3 POP POP POP JUMP JUMPDEST PUSH1 0x0 PUSH2 0x2065 DUP3 PUSH2 0x1C4A JUMP JUMPDEST SWAP2 POP PUSH2 0x2070 DUP4 PUSH2 0x1C4A JUMP JUMPDEST SWAP3 POP PUSH2 0x209D PUSH32 0xFFFFFFFFFFFFFFFFFFFFFFFFFFFFFFFFFFFFFFFFFFFFFFFFFFFFFFFFFFFFFFFF DUP5 DUP5 PUSH2 0x1F87 JUMP JUMPDEST SWAP1 POP SWAP3 SWAP2 POP POP JUMP JUMPDEST PUSH1 0x0 PUSH2 0x20B0 DUP3 PUSH2 0x1C4A JUMP JUMPDEST SWAP2 POP PUSH2 0x20BB DUP4 PUSH2 0x1C4A JUMP JUMPDEST SWAP3 POP DUP3 DUP3 MUL PUSH2 0x20C9 DUP2 PUSH2 0x1C4A JUMP JUMPDEST SWAP2 POP DUP3 DUP3 DIV DUP5 EQ DUP4 ISZERO OR PUSH2 0x20E0 JUMPI PUSH2 0x20DF PUSH2 0x1E47 JUMP JUMPDEST JUMPDEST POP SWAP3 SWAP2 POP POP JUMP JUMPDEST PUSH32 0x4E487B7100000000000000000000000000000000000000000000000000000000 PUSH1 0x0 MSTORE PUSH1 0x12 PUSH1 0x4 MSTORE PUSH1 0x24 PUSH1 0x0 REVERT JUMPDEST PUSH1 0x0 PUSH2 0x2121 DUP3 PUSH2 0x1C4A JUMP JUMPDEST SWAP2 POP PUSH2 0x212C DUP4 PUSH2 0x1C4A JUMP JUMPDEST SWAP3 POP DUP3 PUSH2 0x213C JUMPI PUSH2 0x213B PUSH2 0x20E7 JUMP JUMPDEST JUMPDEST DUP3 DUP3 DIV SWAP1 POP SWAP3 SWAP2 POP POP JUMP JUMPDEST PUSH1 0x0 PUSH1 0x40 DUP3 ADD SWAP1 POP PUSH2 0x215C PUSH1 0x0 DUP4 ADD DUP6 PUSH2 0x1E1D JUMP JUMPDEST PUSH2 0x2169 PUSH1 0x20 DUP4 ADD DUP5 PUSH2 0x1D4B JUMP JUMPDEST SWAP4 SWAP3 POP POP POP JUMP JUMPDEST PUSH32 0x50726573616C653A2050726573616C6520686173206E6F742073746172746564 PUSH1 0x0 DUP3 ADD MSTORE PUSH32 0x2079657400000000000000000000000000000000000000000000000000000000 PUSH1 0x20 DUP3 ADD MSTORE POP JUMP JUMPDEST PUSH1 0x0 PUSH2 0x21CC PUSH1 0x24 DUP4 PUSH2 0x1EAA JUMP JUMPDEST SWAP2 POP PUSH2 0x21D7 DUP3 PUSH2 0x2170 JUMP JUMPDEST PUSH1 0x40 DUP3 ADD SWAP1 POP SWAP2 SWAP1 POP JUMP JUMPDEST PUSH1 0x0 PUSH1 0x20 DUP3 ADD SWAP1 POP DUP2 DUP2 SUB PUSH1 0x0 DUP4 ADD MSTORE PUSH2 0x21FB DUP2 PUSH2 0x21BF JUMP JUMPDEST SWAP1 POP SWAP2 SWAP1 POP JUMP JUMPDEST PUSH32 0x50726573616C653A2050726573616C652068617320656E646564000000000000 PUSH1 0x0 DUP3 ADD MSTORE POP JUMP JUMPDEST PUSH1 0x0 PUSH2 0x2238 PUSH1 0x1A DUP4 PUSH2 0x1EAA JUMP JUMPDEST SWAP2 POP PUSH2 0x2243 DUP3 PUSH2 0x2202 JUMP JUMPDEST PUSH1 0x20 DUP3 ADD SWAP1 POP SWAP2 SWAP1 POP JUMP JUMPDEST PUSH1 0x0 PUSH1 0x20 DUP3 ADD SWAP1 POP DUP2 DUP2 SUB PUSH1 0x0 DUP4 ADD MSTORE PUSH2 0x2267 DUP2 PUSH2 0x222B JUMP JUMPDEST SWAP1 POP SWAP2 SWAP1 POP JUMP JUMPDEST PUSH32 0x50726573616C653A20546F74616C20546F6B656E2053616C6520526561636865 PUSH1 0x0 DUP3 ADD MSTORE PUSH32 0x6421000000000000000000000000000000000000000000000000000000000000 PUSH1 0x20 DUP3 ADD MSTORE POP JUMP JUMPDEST PUSH1 0x0 PUSH2 0x22CA PUSH1 0x22 DUP4 PUSH2 0x1EAA JUMP JUMPDEST SWAP2 POP PUSH2 0x22D5 DUP3 PUSH2 0x226E JUMP JUMPDEST PUSH1 0x40 DUP3 ADD SWAP1 POP SWAP2 SWAP1 POP JUMP JUMPDEST PUSH1 0x0 PUSH1 0x20 DUP3 ADD SWAP1 POP DUP2 DUP2 SUB PUSH1 0x0 DUP4 ADD MSTORE PUSH2 0x22F9 DUP2 PUSH2 0x22BD JUMP JUMPDEST SWAP1 POP SWAP2 SWAP1 POP JUMP JUMPDEST PUSH32 0x50726573616C653A20546F6B656E20616D6F756E742062656C6F77206D696E20 PUSH1 0x0 DUP3 ADD MSTORE PUSH32 0x627579206C696D69740000000000000000000000000000000000000000000000 PUSH1 0x20 DUP3 ADD MSTORE POP JUMP JUMPDEST PUSH1 0x0 PUSH2 0x235C PUSH1 0x29 DUP4 PUSH2 0x1EAA JUMP JUMPDEST SWAP2 POP PUSH2 0x2367 DUP3 PUSH2 0x2300 JUMP JUMPDEST PUSH1 0x40 DUP3 ADD SWAP1 POP SWAP2 SWAP1 POP JUMP JUMPDEST PUSH1 0x0 PUSH1 0x20 DUP3 ADD SWAP1 POP DUP2 DUP2 SUB PUSH1 0x0 DUP4 ADD MSTORE PUSH2 0x238B DUP2 PUSH2 0x234F JUMP JUMPDEST SWAP1 POP SWAP2 SWAP1 POP JUMP JUMPDEST PUSH32 0x50726573616C653A20416D6F756E742062656C6F77206D696E20627579206C69 PUSH1 0x0 DUP3 ADD MSTORE PUSH32 0x6D69740000000000000000000000000000000000000000000000000000000000 PUSH1 0x20 DUP3 ADD MSTORE POP JUMP JUMPDEST PUSH1 0x0 PUSH2 0x23EE PUSH1 0x23 DUP4 PUSH2 0x1EAA JUMP JUMPDEST SWAP2 POP PUSH2 0x23F9 DUP3 PUSH2 0x2392 JUMP JUMPDEST PUSH1 0x40 DUP3 ADD SWAP1 POP SWAP2 SWAP1 POP JUMP JUMPDEST PUSH1 0x0 PUSH1 0x20 DUP3 ADD SWAP1 POP DUP2 DUP2 SUB PUSH1 0x0 DUP4 ADD MSTORE PUSH2 0x241D DUP2 PUSH2 0x23E1 JUMP JUMPDEST SWAP1 POP SWAP2 SWAP1 POP JUMP JUMPDEST PUSH1 0x0 PUSH1 0x40 DUP3 ADD SWAP1 POP PUSH2 0x2439 PUSH1 0x0 DUP4 ADD DUP6 PUSH2 0x1D4B JUMP JUMPDEST PUSH2 0x2446 PUSH1 0x20 DUP4 ADD DUP5 PUSH2 0x1D4B JUMP JUMPDEST SWAP4 SWAP3 POP POP POP JUMP JUMPDEST PUSH32 0x50726573616C653A2053616C6520746F6B656E2063616E6E6F74206265207A65 PUSH1 0x0 DUP3 ADD MSTORE PUSH32 0x726F206164647265737300000000000000000000000000000000000000000000 PUSH1 0x20 DUP3 ADD MSTORE POP JUMP JUMPDEST PUSH1 0x0 PUSH2 0x24A9 PUSH1 0x2A DUP4 PUSH2 0x1EAA JUMP JUMPDEST SWAP2 POP PUSH2 0x24B4 DUP3 PUSH2 0x244D JUMP JUMPDEST PUSH1 0x40 DUP3 ADD SWAP1 POP SWAP2 SWAP1 POP JUMP JUMPDEST PUSH1 0x0 PUSH1 0x20 DUP3 ADD SWAP1 POP DUP2 DUP2 SUB PUSH1 0x0 DUP4 ADD MSTORE PUSH2 0x24D8 DUP2 PUSH2 0x249C JUMP JUMPDEST SWAP1 POP SWAP2 SWAP1 POP JUMP JUMPDEST PUSH32 0x50726573616C653A20546F74616C20746F6B656E7320666F722073616C652063 PUSH1 0x0 DUP3 ADD MSTORE PUSH32 0x616E6E6F74206265207A65726F00000000000000000000000000000000000000 PUSH1 0x20 DUP3 ADD MSTORE POP JUMP JUMPDEST PUSH1 0x0 PUSH2 0x253B PUSH1 0x2D DUP4 PUSH2 0x1EAA JUMP JUMPDEST SWAP2 POP PUSH2 0x2546 DUP3 PUSH2 0x24DF JUMP JUMPDEST PUSH1 0x40 DUP3 ADD SWAP1 POP SWAP2 SWAP1 POP JUMP JUMPDEST PUSH1 0x0 PUSH1 0x20 DUP3 ADD SWAP1 POP DUP2 DUP2 SUB PUSH1 0x0 DUP4 ADD MSTORE PUSH2 0x256A DUP2 PUSH2 0x252E JUMP JUMPDEST SWAP1 POP SWAP2 SWAP1 POP JUMP JUMPDEST PUSH1 0x0 PUSH1 0xFF DUP3 AND SWAP1 POP SWAP2 SWAP1 POP JUMP JUMPDEST PUSH2 0x2587 DUP2 PUSH2 0x2571 JUMP JUMPDEST DUP2 EQ PUSH2 0x2592 JUMPI PUSH1 0x0 DUP1 REVERT JUMPDEST POP JUMP JUMPDEST PUSH1 0x0 DUP2 MLOAD SWAP1 POP PUSH2 0x25A4 DUP2 PUSH2 0x257E JUMP JUMPDEST SWAP3 SWAP2 POP POP JUMP JUMPDEST PUSH1 0x0 PUSH1 0x20 DUP3 DUP5 SUB SLT ISZERO PUSH2 0x25C0 JUMPI PUSH2 0x25BF PUSH2 0x1C45 JUMP JUMPDEST JUMPDEST PUSH1 0x0 PUSH2 0x25CE DUP5 DUP3 DUP6 ADD PUSH2 0x2595 JUMP JUMPDEST SWAP2 POP POP SWAP3 SWAP2 POP POP JUMP JUMPDEST PUSH1 0x0 DUP2 MLOAD SWAP1 POP PUSH2 0x25E6 DUP2 PUSH2 0x1C54 JUMP JUMPDEST SWAP3 SWAP2 POP POP JUMP JUMPDEST PUSH1 0x0 PUSH1 0x20 DUP3 DUP5 SUB SLT ISZERO PUSH2 0x2602 JUMPI PUSH2 0x2601 PUSH2 0x1C45 JUMP JUMPDEST JUMPDEST PUSH1 0x0 PUSH2 0x2610 DUP5 DUP3 DUP6 ADD PUSH2 0x25D7 JUMP JUMPDEST SWAP2 POP POP SWAP3 SWAP2 POP POP JUMP JUMPDEST PUSH32 0x50726573616C653A2050726573616C6520686173206E6F7420656E6465642079 PUSH1 0x0 DUP3 ADD MSTORE PUSH32 0x6574000000000000000000000000000000000000000000000000000000000000 PUSH1 0x20 DUP3 ADD MSTORE POP JUMP JUMPDEST PUSH1 0x0 PUSH2 0x2675 PUSH1 0x22 DUP4 PUSH2 0x1EAA JUMP JUMPDEST SWAP2 POP PUSH2 0x2680 DUP3 PUSH2 0x2619 JUMP JUMPDEST PUSH1 0x40 DUP3 ADD SWAP1 POP SWAP2 SWAP1 POP JUMP JUMPDEST PUSH1 0x0 PUSH1 0x20 DUP3 ADD SWAP1 POP DUP2 DUP2 SUB PUSH1 0x0 DUP4 ADD MSTORE PUSH2 0x26A4 DUP2 PUSH2 0x2668 JUMP JUMPDEST SWAP1 POP SWAP2 SWAP1 POP JUMP JUMPDEST PUSH32 0x4F776E61626C653A206E6577206F776E657220697320746865207A65726F2061 PUSH1 0x0 DUP3 ADD MSTORE PUSH32 0x6464726573730000000000000000000000000000000000000000000000000000 PUSH1 0x20 DUP3 ADD MSTORE POP JUMP JUMPDEST PUSH1 0x0 PUSH2 0x2707 PUSH1 0x26 DUP4 PUSH2 0x1EAA JUMP JUMPDEST SWAP2 POP PUSH2 0x2712 DUP3 PUSH2 0x26AB JUMP JUMPDEST PUSH1 0x40 DUP3 ADD SWAP1 POP SWAP2 SWAP1 POP JUMP JUMPDEST PUSH1 0x0 PUSH1 0x20 DUP3 ADD SWAP1 POP DUP2 DUP2 SUB PUSH1 0x0 DUP4 ADD MSTORE PUSH2 0x2736 DUP2 PUSH2 0x26FA JUMP JUMPDEST SWAP1 POP SWAP2 SWAP1 POP JUMP JUMPDEST PUSH32 0x50726573616C653A2043616E6E6F742077697468647261772073616C6520746F PUSH1 0x0 DUP3 ADD MSTORE PUSH32 0x6B656E20776974682074686973206D6574686F642C2075736520776974686472 PUSH1 0x20 DUP3 ADD MSTORE PUSH32 0x617753616C65546F6B656E282920696E73746561640000000000000000000000 PUSH1 0x40 DUP3 ADD MSTORE POP JUMP JUMPDEST PUSH1 0x0 PUSH2 0x27BF PUSH1 0x55 DUP4 PUSH2 0x1EAA JUMP JUMPDEST SWAP2 POP PUSH2 0x27CA DUP3 PUSH2 0x273D JUMP JUMPDEST PUSH1 0x60 DUP3 ADD SWAP1 POP SWAP2 SWAP1 POP JUMP JUMPDEST PUSH1 0x0 PUSH1 0x20 DUP3 ADD SWAP1 POP DUP2 DUP2 SUB PUSH1 0x0 DUP4 ADD MSTORE PUSH2 0x27EE DUP2 PUSH2 0x27B2 JUMP JUMPDEST SWAP1 POP SWAP2 SWAP1 POP JUMP JUMPDEST PUSH32 0x50726573616C653A2043616E6E6F742077697468647261772073616C6520746F PUSH1 0x0 DUP3 ADD MSTORE PUSH32 0x6B656E20776974682074686973206D6574686F642C2075736520776974686472 PUSH1 0x20 DUP3 ADD MSTORE PUSH32 0x6177416C6C53616C65546F6B656E282920696E73746561640000000000000000 PUSH1 0x40 DUP3 ADD MSTORE POP JUMP JUMPDEST PUSH1 0x0 PUSH2 0x2877 PUSH1 0x58 DUP4 PUSH2 0x1EAA JUMP JUMPDEST SWAP2 POP PUSH2 0x2882 DUP3 PUSH2 0x27F5 JUMP JUMPDEST PUSH1 0x60 DUP3 ADD SWAP1 POP SWAP2 SWAP1 POP JUMP JUMPDEST PUSH1 0x0 PUSH1 0x20 DUP3 ADD SWAP1 POP DUP2 DUP2 SUB PUSH1 0x0 DUP4 ADD MSTORE PUSH2 0x28A6 DUP2 PUSH2 0x286A JUMP JUMPDEST SWAP1 POP SWAP2 SWAP1 POP JUMP JUMPDEST PUSH32 0x4F776E61626C653A2063616C6C6572206973206E6F7420746865206F776E6572 PUSH1 0x0 DUP3 ADD MSTORE POP JUMP JUMPDEST PUSH1 0x0 PUSH2 0x28E3 PUSH1 0x20 DUP4 PUSH2 0x1EAA JUMP JUMPDEST SWAP2 POP PUSH2 0x28EE DUP3 PUSH2 0x28AD JUMP JUMPDEST PUSH1 0x20 DUP3 ADD SWAP1 POP SWAP2 SWAP1 POP JUMP JUMPDEST PUSH1 0x0 PUSH1 0x20 DUP3 ADD SWAP1 POP DUP2 DUP2 SUB PUSH1 0x0 DUP4 ADD MSTORE PUSH2 0x2912 DUP2 PUSH2 0x28D6 JUMP JUMPDEST SWAP1 POP SWAP2 SWAP1 POP JUMP JUMPDEST PUSH1 0x0 PUSH1 0x60 DUP3 ADD SWAP1 POP PUSH2 0x292E PUSH1 0x0 DUP4 ADD DUP7 PUSH2 0x1E1D JUMP JUMPDEST PUSH2 0x293B PUSH1 0x20 DUP4 ADD DUP6 PUSH2 0x1E1D JUMP JUMPDEST PUSH2 0x2948 PUSH1 0x40 DUP4 ADD DUP5 PUSH2 0x1D4B JUMP JUMPDEST SWAP5 SWAP4 POP POP POP POP JUMP JUMPDEST PUSH2 0x2959 DUP2 PUSH2 0x1DE7 JUMP JUMPDEST DUP2 EQ PUSH2 0x2964 JUMPI PUSH1 0x0 DUP1 REVERT JUMPDEST POP JUMP JUMPDEST PUSH1 0x0 DUP2 MLOAD SWAP1 POP PUSH2 0x2976 DUP2 PUSH2 0x2950 JUMP JUMPDEST SWAP3 SWAP2 POP POP JUMP JUMPDEST PUSH1 0x0 PUSH1 0x20 DUP3 DUP5 SUB SLT ISZERO PUSH2 0x2992 JUMPI PUSH2 0x2991 PUSH2 0x1C45 JUMP JUMPDEST JUMPDEST PUSH1 0x0 PUSH2 0x29A0 DUP5 DUP3 DUP6 ADD PUSH2 0x2967 JUMP JUMPDEST SWAP2 POP POP SWAP3 SWAP2 POP POP JUMP JUMPDEST PUSH32 0x5361666545524332303A204552433230206F7065726174696F6E20646964206E PUSH1 0x0 DUP3 ADD MSTORE PUSH32 0x6F74207375636365656400000000000000000000000000000000000000000000 PUSH1 0x20 DUP3 ADD MSTORE POP JUMP JUMPDEST PUSH1 0x0 PUSH2 0x2A05 PUSH1 0x2A DUP4 PUSH2 0x1EAA JUMP JUMPDEST SWAP2 POP PUSH2 0x2A10 DUP3 PUSH2 0x29A9 JUMP JUMPDEST PUSH1 0x40 DUP3 ADD SWAP1 POP SWAP2 SWAP1 POP JUMP JUMPDEST PUSH1 0x0 PUSH1 0x20 DUP3 ADD SWAP1 POP DUP2 DUP2 SUB PUSH1 0x0 DUP4 ADD MSTORE PUSH2 0x2A34 DUP2 PUSH2 0x29F8 JUMP JUMPDEST SWAP1 POP SWAP2 SWAP1 POP JUMP JUMPDEST PUSH32 0x416464726573733A20696E73756666696369656E742062616C616E636520666F PUSH1 0x0 DUP3 ADD MSTORE PUSH32 0x722063616C6C0000000000000000000000000000000000000000000000000000 PUSH1 0x20 DUP3 ADD MSTORE POP JUMP JUMPDEST PUSH1 0x0 PUSH2 0x2A97 PUSH1 0x26 DUP4 PUSH2 0x1EAA JUMP JUMPDEST SWAP2 POP PUSH2 0x2AA2 DUP3 PUSH2 0x2A3B JUMP JUMPDEST PUSH1 0x40 DUP3 ADD SWAP1 POP SWAP2 SWAP1 POP JUMP JUMPDEST PUSH1 0x0 PUSH1 0x20 DUP3 ADD SWAP1 POP DUP2 DUP2 SUB PUSH1 0x0 DUP4 ADD MSTORE PUSH2 0x2AC6 DUP2 PUSH2 0x2A8A JUMP JUMPDEST SWAP1 POP SWAP2 SWAP1 POP JUMP JUMPDEST PUSH1 0x0 DUP2 MLOAD SWAP1 POP SWAP2 SWAP1 POP JUMP JUMPDEST PUSH1 0x0 DUP2 SWAP1 POP SWAP3 SWAP2 POP POP JUMP JUMPDEST PUSH1 0x0 JUMPDEST DUP4 DUP2 LT ISZERO PUSH2 0x2B01 JUMPI DUP1 DUP3 ADD MLOAD DUP2 DUP5 ADD MSTORE PUSH1 0x20 DUP2 ADD SWAP1 POP PUSH2 0x2AE6 JUMP JUMPDEST PUSH1 0x0 DUP5 DUP5 ADD MSTORE POP POP POP POP JUMP JUMPDEST PUSH1 0x0 PUSH2 0x2B18 DUP3 PUSH2 0x2ACD JUMP JUMPDEST PUSH2 0x2B22 DUP2 DUP6 PUSH2 0x2AD8 JUMP JUMPDEST SWAP4 POP PUSH2 0x2B32 DUP2 DUP6 PUSH1 0x20 DUP7 ADD PUSH2 0x2AE3 JUMP JUMPDEST DUP1 DUP5 ADD SWAP2 POP POP SWAP3 SWAP2 POP POP JUMP JUMPDEST PUSH1 0x0 PUSH2 0x2B4A DUP3 DUP5 PUSH2 0x2B0D JUMP JUMPDEST SWAP2 POP DUP2 SWAP1 POP SWAP3 SWAP2 POP POP JUMP JUMPDEST PUSH32 0x416464726573733A2063616C6C20746F206E6F6E2D636F6E7472616374000000 PUSH1 0x0 DUP3 ADD MSTORE POP JUMP JUMPDEST PUSH1 0x0 PUSH2 0x2B8B PUSH1 0x1D DUP4 PUSH2 0x1EAA JUMP JUMPDEST SWAP2 POP PUSH2 0x2B96 DUP3 PUSH2 0x2B55 JUMP JUMPDEST PUSH1 0x20 DUP3 ADD SWAP1 POP SWAP2 SWAP1 POP JUMP JUMPDEST PUSH1 0x0 PUSH1 0x20 DUP3 ADD SWAP1 POP DUP2 DUP2 SUB PUSH1 0x0 DUP4 ADD MSTORE PUSH2 0x2BBA DUP2 PUSH2 0x2B7E JUMP JUMPDEST SWAP1 POP SWAP2 SWAP1 POP JUMP JUMPDEST PUSH1 0x0 DUP2 MLOAD SWAP1 POP SWAP2 SWAP1 POP JUMP JUMPDEST PUSH1 0x0 PUSH1 0x1F NOT PUSH1 0x1F DUP4 ADD AND SWAP1 POP SWAP2 SWAP1 POP JUMP JUMPDEST PUSH1 0x0 PUSH2 0x2BE8 DUP3 PUSH2 0x2BC1 JUMP JUMPDEST PUSH2 0x2BF2 DUP2 DUP6 PUSH2 0x1EAA JUMP JUMPDEST SWAP4 POP PUSH2 0x2C02 DUP2 DUP6 PUSH1 0x20 DUP7 ADD PUSH2 0x2AE3 JUMP JUMPDEST PUSH2 0x2C0B DUP2 PUSH2 0x2BCC JUMP JUMPDEST DUP5 ADD SWAP2 POP POP SWAP3 SWAP2 POP POP JUMP JUMPDEST PUSH1 0x0 PUSH1 0x20 DUP3 ADD SWAP1 POP DUP2 DUP2 SUB PUSH1 0x0 DUP4 ADD MSTORE PUSH2 0x2C30 DUP2 DUP5 PUSH2 0x2BDD JUMP JUMPDEST SWAP1 POP SWAP3 SWAP2 POP POP JUMP INVALID LOG2 PUSH5 0x6970667358 0x22 SLT KECCAK256 0xBA 0xDE KECCAK256 SWAP6 0xDC GT GAS SIGNEXTEND 0xBA 0xD6 EQ 0xD6 DUP6 0xE6 0xDB PUSH15 0x2153A409A5A515990D4558D8E51192 0xE5 PUSH5 0x736F6C6343 STOP ADDMOD SLT STOP CALLER "
		},
		"gasEstimates": {
			"creation": {
				"codeDepositCost": "2274800",
				"executionCost": "infinite",
				"totalCost": "infinite"
			},
			"external": {
				"addWhiteListedToken(address,uint256)": "infinite",
				"buyToken(address,uint256)": "infinite",
				"fetchDataForFrontend(address)": "infinite",
				"getTokenAmount(address,uint256)": "infinite",
				"maxBuyLimit()": "2518",
				"minBuyLimit()": "2496",
				"owner()": "2589",
				"presaleEndTime()": "2497",
				"presaleStartTime()": "2540",
				"rate()": "2519",
				"renounceOwnership()": "30444",
				"saleToken()": "2625",
				"saleTokenDec()": "2474",
				"setMaxBuyLimit(uint256)": "24852",
				"setMinBuyLimit(uint256)": "24873",
				"setSaleTokenParams(address,uint256)": "infinite",
				"startAndSetPresaleEndTime(uint256)": "infinite",
				"tokenPrices(address)": "2905",
				"tokenWL(address)": "2890",
				"totalTokensSold()": "2474",
				"totalTokensforSale()": "2540",
				"transferOwnership(address)": "30788",
				"upateTime(uint256)": "infinite",
				"updateEthRate(uint256)": "24830",
				"updateTokenRate(address,uint256)": "infinite",
				"withdraw(address,uint256)": "infinite",
				"withdrawAll(address)": "infinite",
				"withdrawAllSaleToken()": "infinite",
				"withdrawCurrency(uint256)": "infinite",
				"withdrawSaleToken(uint256)": "infinite"
			}
		},
		"methodIdentifiers": {
			"addWhiteListedToken(address,uint256)": "444ad5ee",
			"buyToken(address,uint256)": "68f8fc10",
			"fetchDataForFrontend(address)": "5a2696ca",
			"getTokenAmount(address,uint256)": "115ece4c",
			"maxBuyLimit()": "6aa5b37f",
			"minBuyLimit()": "b81df742",
			"owner()": "8da5cb5b",
			"presaleEndTime()": "249b7c19",
			"presaleStartTime()": "a82524b2",
			"rate()": "2c4e722e",
			"renounceOwnership()": "715018a6",
			"saleToken()": "e985e367",
			"saleTokenDec()": "ace1741c",
			"setMaxBuyLimit(uint256)": "757765f8",
			"setMinBuyLimit(uint256)": "99b77032",
			"setSaleTokenParams(address,uint256)": "89e6ce1e",
			"startAndSetPresaleEndTime(uint256)": "5b10bd6a",
			"tokenPrices(address)": "204120bc",
			"tokenWL(address)": "8ce0b9d2",
			"totalTokensSold()": "63b20117",
			"totalTokensforSale()": "6bcedf9c",
			"transferOwnership(address)": "f2fde38b",
			"upateTime(uint256)": "0fabdd44",
			"updateEthRate(uint256)": "3f6f7ed6",
			"updateTokenRate(address,uint256)": "226ac321",
			"withdraw(address,uint256)": "f3fef3a3",
			"withdrawAll(address)": "fa09e630",
			"withdrawAllSaleToken()": "fb00f3fc",
			"withdrawCurrency(uint256)": "3c00a36c",
			"withdrawSaleToken(uint256)": "ded441c2"
		}
	},
	"abi": [
		{
			"inputs": [],
			"stateMutability": "nonpayable",
			"type": "constructor"
		},
		{
			"anonymous": false,
			"inputs": [
				{
					"indexed": true,
					"internalType": "address",
					"name": "previousOwner",
					"type": "address"
				},
				{
					"indexed": true,
					"internalType": "address",
					"name": "newOwner",
					"type": "address"
				}
			],
			"name": "OwnershipTransferred",
			"type": "event"
		},
		{
			"anonymous": false,
			"inputs": [
				{
					"indexed": false,
					"internalType": "address",
					"name": "token",
					"type": "address"
				},
				{
					"indexed": false,
					"internalType": "uint256",
					"name": "amount",
					"type": "uint256"
				}
			],
			"name": "SaleTokenAdded",
			"type": "event"
		},
		{
			"anonymous": false,
			"inputs": [
				{
					"indexed": false,
					"internalType": "address",
					"name": "token",
					"type": "address"
				},
				{
					"indexed": false,
					"internalType": "uint256",
					"name": "price",
					"type": "uint256"
				}
			],
			"name": "TokenAdded",
			"type": "event"
		},
		{
			"anonymous": false,
			"inputs": [
				{
					"indexed": false,
					"internalType": "address",
					"name": "token",
					"type": "address"
				},
				{
					"indexed": false,
					"internalType": "uint256",
					"name": "price",
					"type": "uint256"
				}
			],
			"name": "TokenUpdated",
			"type": "event"
		},
		{
			"anonymous": false,
			"inputs": [
				{
					"indexed": true,
					"internalType": "address",
					"name": "buyer",
					"type": "address"
				},
				{
					"indexed": true,
					"internalType": "address",
					"name": "token",
					"type": "address"
				},
				{
					"indexed": false,
					"internalType": "uint256",
					"name": "amount",
					"type": "uint256"
				},
				{
					"indexed": false,
					"internalType": "uint256",
					"name": "tokensBought",
					"type": "uint256"
				}
			],
			"name": "TokensBought",
			"type": "event"
		},
		{
			"inputs": [
				{
					"internalType": "address",
					"name": "_token",
					"type": "address"
				},
				{
					"internalType": "uint256",
					"name": "_price",
					"type": "uint256"
				}
			],
			"name": "addWhiteListedToken",
			"outputs": [],
			"stateMutability": "nonpayable",
			"type": "function"
		},
		{
			"inputs": [
				{
					"internalType": "address",
					"name": "_token",
					"type": "address"
				},
				{
					"internalType": "uint256",
					"name": "_amount",
					"type": "uint256"
				}
			],
			"name": "buyToken",
			"outputs": [],
			"stateMutability": "payable",
			"type": "function"
		},
		{
			"inputs": [
				{
					"internalType": "address",
					"name": "_usdtAddress",
					"type": "address"
				}
			],
			"name": "fetchDataForFrontend",
			"outputs": [
				{
					"internalType": "uint256",
					"name": "",
					"type": "uint256"
				},
				{
					"internalType": "uint256",
					"name": "",
					"type": "uint256"
				},
				{
					"internalType": "uint256",
					"name": "",
					"type": "uint256"
				},
				{
					"internalType": "uint256",
					"name": "",
					"type": "uint256"
				}
			],
			"stateMutability": "view",
			"type": "function"
		},
		{
			"inputs": [
				{
					"internalType": "address",
					"name": "token",
					"type": "address"
				},
				{
					"internalType": "uint256",
					"name": "amount",
					"type": "uint256"
				}
			],
			"name": "getTokenAmount",
			"outputs": [
				{
					"internalType": "uint256",
					"name": "",
					"type": "uint256"
				}
			],
			"stateMutability": "view",
			"type": "function"
		},
		{
			"inputs": [],
			"name": "maxBuyLimit",
			"outputs": [
				{
					"internalType": "uint256",
					"name": "",
					"type": "uint256"
				}
			],
			"stateMutability": "view",
			"type": "function"
		},
		{
			"inputs": [],
			"name": "minBuyLimit",
			"outputs": [
				{
					"internalType": "uint256",
					"name": "",
					"type": "uint256"
				}
			],
			"stateMutability": "view",
			"type": "function"
		},
		{
			"inputs": [],
			"name": "owner",
			"outputs": [
				{
					"internalType": "address",
					"name": "",
					"type": "address"
				}
			],
			"stateMutability": "view",
			"type": "function"
		},
		{
			"inputs": [],
			"name": "presaleEndTime",
			"outputs": [
				{
					"internalType": "uint256",
					"name": "",
					"type": "uint256"
				}
			],
			"stateMutability": "view",
			"type": "function"
		},
		{
			"inputs": [],
			"name": "presaleStartTime",
			"outputs": [
				{
					"internalType": "uint256",
					"name": "",
					"type": "uint256"
				}
			],
			"stateMutability": "view",
			"type": "function"
		},
		{
			"inputs": [],
			"name": "rate",
			"outputs": [
				{
					"internalType": "uint256",
					"name": "",
					"type": "uint256"
				}
			],
			"stateMutability": "view",
			"type": "function"
		},
		{
			"inputs": [],
			"name": "renounceOwnership",
			"outputs": [],
			"stateMutability": "nonpayable",
			"type": "function"
		},
		{
			"inputs": [],
			"name": "saleToken",
			"outputs": [
				{
					"internalType": "address",
					"name": "",
					"type": "address"
				}
			],
			"stateMutability": "view",
			"type": "function"
		},
		{
			"inputs": [],
			"name": "saleTokenDec",
			"outputs": [
				{
					"internalType": "uint256",
					"name": "",
					"type": "uint256"
				}
			],
			"stateMutability": "view",
			"type": "function"
		},
		{
			"inputs": [
				{
					"internalType": "uint256",
					"name": "_maxBuyLimit",
					"type": "uint256"
				}
			],
			"name": "setMaxBuyLimit",
			"outputs": [],
			"stateMutability": "nonpayable",
			"type": "function"
		},
		{
			"inputs": [
				{
					"internalType": "uint256",
					"name": "_minBuyLimit",
					"type": "uint256"
				}
			],
			"name": "setMinBuyLimit",
			"outputs": [],
			"stateMutability": "nonpayable",
			"type": "function"
		},
		{
			"inputs": [
				{
					"internalType": "address",
					"name": "_saleToken",
					"type": "address"
				},
				{
					"internalType": "uint256",
					"name": "_totalTokensforSale",
					"type": "uint256"
				}
			],
			"name": "setSaleTokenParams",
			"outputs": [],
			"stateMutability": "nonpayable",
			"type": "function"
		},
		{
			"inputs": [
				{
					"internalType": "uint256",
					"name": "_presaleEndTime",
					"type": "uint256"
				}
			],
			"name": "startAndSetPresaleEndTime",
			"outputs": [],
			"stateMutability": "nonpayable",
			"type": "function"
		},
		{
			"inputs": [
				{
					"internalType": "address",
					"name": "",
					"type": "address"
				}
			],
			"name": "tokenPrices",
			"outputs": [
				{
					"internalType": "uint256",
					"name": "",
					"type": "uint256"
				}
			],
			"stateMutability": "view",
			"type": "function"
		},
		{
			"inputs": [
				{
					"internalType": "address",
					"name": "",
					"type": "address"
				}
			],
			"name": "tokenWL",
			"outputs": [
				{
					"internalType": "bool",
					"name": "",
					"type": "bool"
				}
			],
			"stateMutability": "view",
			"type": "function"
		},
		{
			"inputs": [],
			"name": "totalTokensSold",
			"outputs": [
				{
					"internalType": "uint256",
					"name": "",
					"type": "uint256"
				}
			],
			"stateMutability": "view",
			"type": "function"
		},
		{
			"inputs": [],
			"name": "totalTokensforSale",
			"outputs": [
				{
					"internalType": "uint256",
					"name": "",
					"type": "uint256"
				}
			],
			"stateMutability": "view",
			"type": "function"
		},
		{
			"inputs": [
				{
					"internalType": "address",
					"name": "newOwner",
					"type": "address"
				}
			],
			"name": "transferOwnership",
			"outputs": [],
			"stateMutability": "nonpayable",
			"type": "function"
		},
		{
			"inputs": [
				{
					"internalType": "uint256",
					"name": "_presaleEndTime",
					"type": "uint256"
				}
			],
			"name": "upateTime",
			"outputs": [],
			"stateMutability": "nonpayable",
			"type": "function"
		},
		{
			"inputs": [
				{
					"internalType": "uint256",
					"name": "_rate",
					"type": "uint256"
				}
			],
			"name": "updateEthRate",
			"outputs": [],
			"stateMutability": "nonpayable",
			"type": "function"
		},
		{
			"inputs": [
				{
					"internalType": "address",
					"name": "_token",
					"type": "address"
				},
				{
					"internalType": "uint256",
					"name": "_price",
					"type": "uint256"
				}
			],
			"name": "updateTokenRate",
			"outputs": [],
			"stateMutability": "nonpayable",
			"type": "function"
		},
		{
			"inputs": [
				{
					"internalType": "address",
					"name": "token",
					"type": "address"
				},
				{
					"internalType": "uint256",
					"name": "amt",
					"type": "uint256"
				}
			],
			"name": "withdraw",
			"outputs": [],
			"stateMutability": "nonpayable",
			"type": "function"
		},
		{
			"inputs": [
				{
					"internalType": "address",
					"name": "token",
					"type": "address"
				}
			],
			"name": "withdrawAll",
			"outputs": [],
			"stateMutability": "nonpayable",
			"type": "function"
		},
		{
			"inputs": [],
			"name": "withdrawAllSaleToken",
			"outputs": [],
			"stateMutability": "nonpayable",
			"type": "function"
		},
		{
			"inputs": [
				{
					"internalType": "uint256",
					"name": "amt",
					"type": "uint256"
				}
			],
			"name": "withdrawCurrency",
			"outputs": [],
			"stateMutability": "nonpayable",
			"type": "function"
		},
		{
			"inputs": [
				{
					"internalType": "uint256",
					"name": "_amount",
					"type": "uint256"
				}
			],
			"name": "withdrawSaleToken",
			"outputs": [],
			"stateMutability": "nonpayable",
			"type": "function"
		}
	]
}